{"abi":[{"type":"constructor","inputs":[{"name":"_runner","type":"address","internalType":"address"}],"stateMutability":"nonpayable"},{"type":"receive","stateMutability":"payable"},{"type":"function","name":"buy_conditional_arbitrage","inputs":[{"name":"a","type":"tuple","internalType":"struct FutarchyArbExecutorV4.BuyArgs","components":[{"name":"t","type":"tuple","internalType":"struct FutarchyArbExecutorV4.Tokens","components":[{"name":"comp","type":"address","internalType":"contract IERC20"},{"name":"cur","type":"address","internalType":"contract IERC20"},{"name":"yesComp","type":"address","internalType":"contract IERC20"},{"name":"noComp","type":"address","internalType":"contract IERC20"},{"name":"yesCur","type":"address","internalType":"contract IERC20"},{"name":"noCur","type":"address","internalType":"contract IERC20"}]},{"name":"f","type":"tuple","internalType":"struct FutarchyArbExecutorV4.Futarchy","components":[{"name":"router","type":"address","internalType":"contract IFutarchyRouter"},{"name":"proposal","type":"address","internalType":"address"}]},{"name":"p","type":"tuple","internalType":"struct FutarchyArbExecutorV4.Pools","components":[{"name":"yesPool","type":"address","internalType":"address"},{"name":"noPool","type":"address","internalType":"address"},{"name":"predYesPool","type":"address","internalType":"address"},{"name":"predNoPool","type":"address","internalType":"address"}]},{"name":"amountCurIn","type":"uint256","internalType":"uint256"},{"name":"yesBuyTarget","type":"address","internalType":"address"},{"name":"yesBuyData","type":"bytes","internalType":"bytes"},{"name":"noBuyTarget","type":"address","internalType":"address"},{"name":"noBuyData","type":"bytes","internalType":"bytes"},{"name":"buySpender","type":"address","internalType":"address"},{"name":"minYesCompOut","type":"uint256","internalType":"uint256"},{"name":"minNoCompOut","type":"uint256","internalType":"uint256"},{"name":"sellCompanyOps","type":"tuple","internalType":"struct FutarchyArbExecutorV4.Execute10Batch","components":[{"name":"targets","type":"address[10]","internalType":"address[10]"},{"name":"calldatas","type":"bytes[10]","internalType":"bytes[10]"},{"name":"count","type":"uint256","internalType":"uint256"},{"name":"tokenIn","type":"address","internalType":"address"},{"name":"tokenOut","type":"address","internalType":"address"},{"name":"spender","type":"address","internalType":"address"},{"name":"amountIn","type":"uint256","internalType":"uint256"},{"name":"minOut","type":"uint256","internalType":"uint256"},{"name":"patchIndex","type":"uint8","internalType":"uint8"},{"name":"amountOffset","type":"uint256","internalType":"uint256"},{"name":"minOutOffset","type":"uint256","internalType":"uint256"},{"name":"slippageBps","type":"uint16","internalType":"uint16"}]},{"name":"liqSpender","type":"address","internalType":"address"},{"name":"compYesToCurYes","type":"tuple","internalType":"struct FutarchyArbExecutorV4.CalldataPatch","components":[{"name":"target","type":"address","internalType":"address"},{"name":"data","type":"bytes","internalType":"bytes"},{"name":"msgValue","type":"uint256","internalType":"uint256"},{"name":"amountOffset","type":"uint256","internalType":"uint256"},{"name":"minOutOffset","type":"uint256","internalType":"uint256"},{"name":"slippageBps","type":"uint16","internalType":"uint16"}]},{"name":"compNoToCurNo","type":"tuple","internalType":"struct FutarchyArbExecutorV4.CalldataPatch","components":[{"name":"target","type":"address","internalType":"address"},{"name":"data","type":"bytes","internalType":"bytes"},{"name":"msgValue","type":"uint256","internalType":"uint256"},{"name":"amountOffset","type":"uint256","internalType":"uint256"},{"name":"minOutOffset","type":"uint256","internalType":"uint256"},{"name":"slippageBps","type":"uint16","internalType":"uint16"}]},{"name":"predYes","type":"tuple","internalType":"struct FutarchyArbExecutorV4.CalldataPatch","components":[{"name":"target","type":"address","internalType":"address"},{"name":"data","type":"bytes","internalType":"bytes"},{"name":"msgValue","type":"uint256","internalType":"uint256"},{"name":"amountOffset","type":"uint256","internalType":"uint256"},{"name":"minOutOffset","type":"uint256","internalType":"uint256"},{"name":"slippageBps","type":"uint16","internalType":"uint16"}]},{"name":"predNo","type":"tuple","internalType":"struct FutarchyArbExecutorV4.CalldataPatch","components":[{"name":"target","type":"address","internalType":"address"},{"name":"data","type":"bytes","internalType":"bytes"},{"name":"msgValue","type":"uint256","internalType":"uint256"},{"name":"amountOffset","type":"uint256","internalType":"uint256"},{"name":"minOutOffset","type":"uint256","internalType":"uint256"},{"name":"slippageBps","type":"uint16","internalType":"uint16"}]},{"name":"minNetCur","type":"int256","internalType":"int256"}]}],"outputs":[],"stateMutability":"nonpayable"},{"type":"function","name":"execute10","inputs":[{"name":"targets","type":"address[10]","internalType":"address[10]"},{"name":"calldatas","type":"bytes[10]","internalType":"bytes[10]"},{"name":"count","type":"uint256","internalType":"uint256"}],"outputs":[],"stateMutability":"payable"},{"type":"function","name":"executeOne","inputs":[{"name":"target","type":"address","internalType":"address"},{"name":"data","type":"bytes","internalType":"bytes"}],"outputs":[{"name":"","type":"bytes","internalType":"bytes"}],"stateMutability":"payable"},{"type":"function","name":"runBuy","inputs":[{"name":"a","type":"tuple","internalType":"struct FutarchyArbExecutorV4.BuyArgs","components":[{"name":"t","type":"tuple","internalType":"struct FutarchyArbExecutorV4.Tokens","components":[{"name":"comp","type":"address","internalType":"contract IERC20"},{"name":"cur","type":"address","internalType":"contract IERC20"},{"name":"yesComp","type":"address","internalType":"contract IERC20"},{"name":"noComp","type":"address","internalType":"contract IERC20"},{"name":"yesCur","type":"address","internalType":"contract IERC20"},{"name":"noCur","type":"address","internalType":"contract IERC20"}]},{"name":"f","type":"tuple","internalType":"struct FutarchyArbExecutorV4.Futarchy","components":[{"name":"router","type":"address","internalType":"contract IFutarchyRouter"},{"name":"proposal","type":"address","internalType":"address"}]},{"name":"p","type":"tuple","internalType":"struct FutarchyArbExecutorV4.Pools","components":[{"name":"yesPool","type":"address","internalType":"address"},{"name":"noPool","type":"address","internalType":"address"},{"name":"predYesPool","type":"address","internalType":"address"},{"name":"predNoPool","type":"address","internalType":"address"}]},{"name":"amountCurIn","type":"uint256","internalType":"uint256"},{"name":"yesBuyTarget","type":"address","internalType":"address"},{"name":"yesBuyData","type":"bytes","internalType":"bytes"},{"name":"noBuyTarget","type":"address","internalType":"address"},{"name":"noBuyData","type":"bytes","internalType":"bytes"},{"name":"buySpender","type":"address","internalType":"address"},{"name":"minYesCompOut","type":"uint256","internalType":"uint256"},{"name":"minNoCompOut","type":"uint256","internalType":"uint256"},{"name":"sellCompanyOps","type":"tuple","internalType":"struct FutarchyArbExecutorV4.Execute10Batch","components":[{"name":"targets","type":"address[10]","internalType":"address[10]"},{"name":"calldatas","type":"bytes[10]","internalType":"bytes[10]"},{"name":"count","type":"uint256","internalType":"uint256"},{"name":"tokenIn","type":"address","internalType":"address"},{"name":"tokenOut","type":"address","internalType":"address"},{"name":"spender","type":"address","internalType":"address"},{"name":"amountIn","type":"uint256","internalType":"uint256"},{"name":"minOut","type":"uint256","internalType":"uint256"},{"name":"patchIndex","type":"uint8","internalType":"uint8"},{"name":"amountOffset","type":"uint256","internalType":"uint256"},{"name":"minOutOffset","type":"uint256","internalType":"uint256"},{"name":"slippageBps","type":"uint16","internalType":"uint16"}]},{"name":"liqSpender","type":"address","internalType":"address"},{"name":"compYesToCurYes","type":"tuple","internalType":"struct FutarchyArbExecutorV4.CalldataPatch","components":[{"name":"target","type":"address","internalType":"address"},{"name":"data","type":"bytes","internalType":"bytes"},{"name":"msgValue","type":"uint256","internalType":"uint256"},{"name":"amountOffset","type":"uint256","internalType":"uint256"},{"name":"minOutOffset","type":"uint256","internalType":"uint256"},{"name":"slippageBps","type":"uint16","internalType":"uint16"}]},{"name":"compNoToCurNo","type":"tuple","internalType":"struct FutarchyArbExecutorV4.CalldataPatch","components":[{"name":"target","type":"address","internalType":"address"},{"name":"data","type":"bytes","internalType":"bytes"},{"name":"msgValue","type":"uint256","internalType":"uint256"},{"name":"amountOffset","type":"uint256","internalType":"uint256"},{"name":"minOutOffset","type":"uint256","internalType":"uint256"},{"name":"slippageBps","type":"uint16","internalType":"uint16"}]},{"name":"predYes","type":"tuple","internalType":"struct FutarchyArbExecutorV4.CalldataPatch","components":[{"name":"target","type":"address","internalType":"address"},{"name":"data","type":"bytes","internalType":"bytes"},{"name":"msgValue","type":"uint256","internalType":"uint256"},{"name":"amountOffset","type":"uint256","internalType":"uint256"},{"name":"minOutOffset","type":"uint256","internalType":"uint256"},{"name":"slippageBps","type":"uint16","internalType":"uint16"}]},{"name":"predNo","type":"tuple","internalType":"struct FutarchyArbExecutorV4.CalldataPatch","components":[{"name":"target","type":"address","internalType":"address"},{"name":"data","type":"bytes","internalType":"bytes"},{"name":"msgValue","type":"uint256","internalType":"uint256"},{"name":"amountOffset","type":"uint256","internalType":"uint256"},{"name":"minOutOffset","type":"uint256","internalType":"uint256"},{"name":"slippageBps","type":"uint16","internalType":"uint16"}]},{"name":"minNetCur","type":"int256","internalType":"int256"}]}],"outputs":[],"stateMutability":"nonpayable"},{"type":"function","name":"runSell","inputs":[{"name":"a","type":"tuple","internalType":"struct FutarchyArbExecutorV4.SellArgs","components":[{"name":"t","type":"tuple","internalType":"struct FutarchyArbExecutorV4.Tokens","components":[{"name":"comp","type":"address","internalType":"contract IERC20"},{"name":"cur","type":"address","internalType":"contract IERC20"},{"name":"yesComp","type":"address","internalType":"contract IERC20"},{"name":"noComp","type":"address","internalType":"contract IERC20"},{"name":"yesCur","type":"address","internalType":"contract IERC20"},{"name":"noCur","type":"address","internalType":"contract IERC20"}]},{"name":"f","type":"tuple","internalType":"struct FutarchyArbExecutorV4.Futarchy","components":[{"name":"router","type":"address","internalType":"contract IFutarchyRouter"},{"name":"proposal","type":"address","internalType":"address"}]},{"name":"p","type":"tuple","internalType":"struct FutarchyArbExecutorV4.Pools","components":[{"name":"yesPool","type":"address","internalType":"address"},{"name":"noPool","type":"address","internalType":"address"},{"name":"predYesPool","type":"address","internalType":"address"},{"name":"predNoPool","type":"address","internalType":"address"}]},{"name":"buyCompanyOps","type":"tuple","internalType":"struct FutarchyArbExecutorV4.Execute10Batch","components":[{"name":"targets","type":"address[10]","internalType":"address[10]"},{"name":"calldatas","type":"bytes[10]","internalType":"bytes[10]"},{"name":"count","type":"uint256","internalType":"uint256"},{"name":"tokenIn","type":"address","internalType":"address"},{"name":"tokenOut","type":"address","internalType":"address"},{"name":"spender","type":"address","internalType":"address"},{"name":"amountIn","type":"uint256","internalType":"uint256"},{"name":"minOut","type":"uint256","internalType":"uint256"},{"name":"patchIndex","type":"uint8","internalType":"uint8"},{"name":"amountOffset","type":"uint256","internalType":"uint256"},{"name":"minOutOffset","type":"uint256","internalType":"uint256"},{"name":"slippageBps","type":"uint16","internalType":"uint16"}]},{"name":"amountCurIn","type":"uint256","internalType":"uint256"},{"name":"minCompOut","type":"uint256","internalType":"uint256"},{"name":"yesSwapTarget","type":"address","internalType":"address"},{"name":"yesSwapData","type":"bytes","internalType":"bytes"},{"name":"noSwapTarget","type":"address","internalType":"address"},{"name":"noSwapData","type":"bytes","internalType":"bytes"},{"name":"swapSpender","type":"address","internalType":"address"},{"name":"minYesCurOut","type":"uint256","internalType":"uint256"},{"name":"minNoCurOut","type":"uint256","internalType":"uint256"},{"name":"liqSpender","type":"address","internalType":"address"},{"name":"predYes","type":"tuple","internalType":"struct FutarchyArbExecutorV4.CalldataPatch","components":[{"name":"target","type":"address","internalType":"address"},{"name":"data","type":"bytes","internalType":"bytes"},{"name":"msgValue","type":"uint256","internalType":"uint256"},{"name":"amountOffset","type":"uint256","internalType":"uint256"},{"name":"minOutOffset","type":"uint256","internalType":"uint256"},{"name":"slippageBps","type":"uint16","internalType":"uint16"}]},{"name":"predNo","type":"tuple","internalType":"struct FutarchyArbExecutorV4.CalldataPatch","components":[{"name":"target","type":"address","internalType":"address"},{"name":"data","type":"bytes","internalType":"bytes"},{"name":"msgValue","type":"uint256","internalType":"uint256"},{"name":"amountOffset","type":"uint256","internalType":"uint256"},{"name":"minOutOffset","type":"uint256","internalType":"uint256"},{"name":"slippageBps","type":"uint16","internalType":"uint16"}]},{"name":"minNetCur","type":"int256","internalType":"int256"}]}],"outputs":[],"stateMutability":"nonpayable"},{"type":"function","name":"runTrade","inputs":[{"name":"b","type":"tuple","internalType":"struct FutarchyArbExecutorV4.Execute10Batch","components":[{"name":"targets","type":"address[10]","internalType":"address[10]"},{"name":"calldatas","type":"bytes[10]","internalType":"bytes[10]"},{"name":"count","type":"uint256","internalType":"uint256"},{"name":"tokenIn","type":"address","internalType":"address"},{"name":"tokenOut","type":"address","internalType":"address"},{"name":"spender","type":"address","internalType":"address"},{"name":"amountIn","type":"uint256","internalType":"uint256"},{"name":"minOut","type":"uint256","internalType":"uint256"},{"name":"patchIndex","type":"uint8","internalType":"uint8"},{"name":"amountOffset","type":"uint256","internalType":"uint256"},{"name":"minOutOffset","type":"uint256","internalType":"uint256"},{"name":"slippageBps","type":"uint16","internalType":"uint16"}]}],"outputs":[{"name":"out","type":"uint256","internalType":"uint256"}],"stateMutability":"nonpayable"},{"type":"function","name":"runner","inputs":[],"outputs":[{"name":"","type":"address","internalType":"address"}],"stateMutability":"view"},{"type":"function","name":"sell_conditional_arbitrage","inputs":[{"name":"a","type":"tuple","internalType":"struct FutarchyArbExecutorV4.SellArgs","components":[{"name":"t","type":"tuple","internalType":"struct FutarchyArbExecutorV4.Tokens","components":[{"name":"comp","type":"address","internalType":"contract IERC20"},{"name":"cur","type":"address","internalType":"contract IERC20"},{"name":"yesComp","type":"address","internalType":"contract IERC20"},{"name":"noComp","type":"address","internalType":"contract IERC20"},{"name":"yesCur","type":"address","internalType":"contract IERC20"},{"name":"noCur","type":"address","internalType":"contract IERC20"}]},{"name":"f","type":"tuple","internalType":"struct FutarchyArbExecutorV4.Futarchy","components":[{"name":"router","type":"address","internalType":"contract IFutarchyRouter"},{"name":"proposal","type":"address","internalType":"address"}]},{"name":"p","type":"tuple","internalType":"struct FutarchyArbExecutorV4.Pools","components":[{"name":"yesPool","type":"address","internalType":"address"},{"name":"noPool","type":"address","internalType":"address"},{"name":"predYesPool","type":"address","internalType":"address"},{"name":"predNoPool","type":"address","internalType":"address"}]},{"name":"buyCompanyOps","type":"tuple","internalType":"struct FutarchyArbExecutorV4.Execute10Batch","components":[{"name":"targets","type":"address[10]","internalType":"address[10]"},{"name":"calldatas","type":"bytes[10]","internalType":"bytes[10]"},{"name":"count","type":"uint256","internalType":"uint256"},{"name":"tokenIn","type":"address","internalType":"address"},{"name":"tokenOut","type":"address","internalType":"address"},{"name":"spender","type":"address","internalType":"address"},{"name":"amountIn","type":"uint256","internalType":"uint256"},{"name":"minOut","type":"uint256","internalType":"uint256"},{"name":"patchIndex","type":"uint8","internalType":"uint8"},{"name":"amountOffset","type":"uint256","internalType":"uint256"},{"name":"minOutOffset","type":"uint256","internalType":"uint256"},{"name":"slippageBps","type":"uint16","internalType":"uint16"}]},{"name":"amountCurIn","type":"uint256","internalType":"uint256"},{"name":"minCompOut","type":"uint256","internalType":"uint256"},{"name":"yesSwapTarget","type":"address","internalType":"address"},{"name":"yesSwapData","type":"bytes","internalType":"bytes"},{"name":"noSwapTarget","type":"address","internalType":"address"},{"name":"noSwapData","type":"bytes","internalType":"bytes"},{"name":"swapSpender","type":"address","internalType":"address"},{"name":"minYesCurOut","type":"uint256","internalType":"uint256"},{"name":"minNoCurOut","type":"uint256","internalType":"uint256"},{"name":"liqSpender","type":"address","internalType":"address"},{"name":"predYes","type":"tuple","internalType":"struct FutarchyArbExecutorV4.CalldataPatch","components":[{"name":"target","type":"address","internalType":"address"},{"name":"data","type":"bytes","internalType":"bytes"},{"name":"msgValue","type":"uint256","internalType":"uint256"},{"name":"amountOffset","type":"uint256","internalType":"uint256"},{"name":"minOutOffset","type":"uint256","internalType":"uint256"},{"name":"slippageBps","type":"uint16","internalType":"uint16"}]},{"name":"predNo","type":"tuple","internalType":"struct FutarchyArbExecutorV4.CalldataPatch","components":[{"name":"target","type":"address","internalType":"address"},{"name":"data","type":"bytes","internalType":"bytes"},{"name":"msgValue","type":"uint256","internalType":"uint256"},{"name":"amountOffset","type":"uint256","internalType":"uint256"},{"name":"minOutOffset","type":"uint256","internalType":"uint256"},{"name":"slippageBps","type":"uint16","internalType":"uint16"}]},{"name":"minNetCur","type":"int256","internalType":"int256"}]}],"outputs":[],"stateMutability":"nonpayable"},{"type":"event","name":"BuyExecuted","inputs":[{"name":"curSplit","type":"uint256","indexed":false,"internalType":"uint256"},{"name":"yesCompOut","type":"uint256","indexed":false,"internalType":"uint256"},{"name":"noCompOut","type":"uint256","indexed":false,"internalType":"uint256"},{"name":"mergedComp","type":"uint256","indexed":false,"internalType":"uint256"},{"name":"compSold","type":"uint256","indexed":false,"internalType":"uint256"},{"name":"curReceived","type":"uint256","indexed":false,"internalType":"uint256"},{"name":"liqCompYesIn","type":"uint256","indexed":false,"internalType":"uint256"},{"name":"liqCompYesOut","type":"uint256","indexed":false,"internalType":"uint256"},{"name":"liqCompNoIn","type":"uint256","indexed":false,"internalType":"uint256"},{"name":"liqCompNoOut","type":"uint256","indexed":false,"internalType":"uint256"},{"name":"liqYesIn","type":"uint256","indexed":false,"internalType":"uint256"},{"name":"liqYesOut","type":"uint256","indexed":false,"internalType":"uint256"},{"name":"liqNoIn","type":"uint256","indexed":false,"internalType":"uint256"},{"name":"liqNoOut","type":"uint256","indexed":false,"internalType":"uint256"},{"name":"netCur","type":"int256","indexed":false,"internalType":"int256"}],"anonymous":false},{"type":"event","name":"SellExecuted","inputs":[{"name":"curSpent","type":"uint256","indexed":false,"internalType":"uint256"},{"name":"compBought","type":"uint256","indexed":false,"internalType":"uint256"},{"name":"compSplit","type":"uint256","indexed":false,"internalType":"uint256"},{"name":"yesCurOut","type":"uint256","indexed":false,"internalType":"uint256"},{"name":"noCurOut","type":"uint256","indexed":false,"internalType":"uint256"},{"name":"mergedCur","type":"uint256","indexed":false,"internalType":"uint256"},{"name":"liqYesIn","type":"uint256","indexed":false,"internalType":"uint256"},{"name":"liqYesOut","type":"uint256","indexed":false,"internalType":"uint256"},{"name":"liqNoIn","type":"uint256","indexed":false,"internalType":"uint256"},{"name":"liqNoOut","type":"uint256","indexed":false,"internalType":"uint256"},{"name":"netCur","type":"int256","indexed":false,"internalType":"int256"}],"anonymous":false},{"type":"event","name":"TradeExecuted","inputs":[{"name":"tokenIn","type":"address","indexed":true,"internalType":"address"},{"name":"tokenOut","type":"address","indexed":true,"internalType":"address"},{"name":"amountIn","type":"uint256","indexed":false,"internalType":"uint256"},{"name":"amountOut","type":"uint256","indexed":false,"internalType":"uint256"}],"anonymous":false},{"type":"error","name":"AmountOffsetOOB","inputs":[]},{"type":"error","name":"BalanceTooLarge","inputs":[]},{"type":"error","name":"CallFailed","inputs":[]},{"type":"error","name":"LowCompOut","inputs":[]},{"type":"error","name":"LowNoCompOut","inputs":[]},{"type":"error","name":"LowNoCurOut","inputs":[]},{"type":"error","name":"LowYesCompOut","inputs":[]},{"type":"error","name":"LowYesCurOut","inputs":[]},{"type":"error","name":"MinOutOffsetOOB","inputs":[]},{"type":"error","name":"NetCurBelowTolerance","inputs":[]},{"type":"error","name":"NotRunner","inputs":[]},{"type":"error","name":"NothingToMerge","inputs":[]},{"type":"error","name":"OnlySelf","inputs":[]},{"type":"error","name":"OutputBelowMin","inputs":[]},{"type":"error","name":"PatchIndexOOB","inputs":[]},{"type":"error","name":"SpentMismatch","inputs":[]},{"type":"error","name":"TooManyCalls","inputs":[]},{"type":"error","name":"UnderMint","inputs":[]},{"type":"error","name":"ZeroAmount","inputs":[]}],"bytecode":{"object":"0x60a03461007f57601f6125bc38819003918201601f19168301916001600160401b038311848410176100835780849260209460405283398101031261007f57516001600160a01b038116810361007f57608052604051612524908161009882396080518181816101ae0152818161042f015281816104a301526106d80152f35b5f80fd5b634e487b7160e01b5f52604160045260245ffdfe6080604052600436101561001a575b3615610018575f80fd5b005b5f3560e01c80633e16b19c146100995780635f66c633146100945780637a8ca6151461008f5780639862d8f71461008a578063aaedc25f14610085578063c23756ae14610080578063e4d30e3d1461007b5763f75be35c0361000e57611660565b611142565b61078c565b6106a4565b610493565b61041a565b61019e565b604036600319011261010f576004356100b181610113565b60243567ffffffffffffffff811161010f573660238201121561010f57806004013567ffffffffffffffff811161010f57366024828401011161010f5761010b9260246100ff9301906117be565b60405191829182610155565b0390f35b5f80fd5b6001600160a01b0381160361010f57565b359061012f82610113565b565b805180835260209291819084018484015e5f828201840152601f01601f1916010190565b906020610166928181520190610131565b90565b602060031982011261010f576004359067ffffffffffffffff821161010f5761036090829003600319011261010f5760040190565b3461010f576101ac36610169565b7f00000000000000000000000000000000000000000000000000000000000000006001600160a01b0316330361040157303b1561010f575f60405180809363e4d30e3d60e01b82526020600483015261020860248301826117ef565b61021860e4830160c08301611891565b61022a610124830161010083016118b6565b6101808101356101a48301526102576102466101a08301610124565b6001600160a01b03166101c4840152565b6103406103cd6103ad61038d61036d61032c6102d361029161027d6101c08a018a611913565b6103606101e48d01526103848c0191611945565b6102b26102a16101e08b01610124565b6001600160a01b03166102048c0152565b6102c06102008a018a611913565b8b8303602319016102248d015290611945565b6102f46102e36102208a01610124565b6001600160a01b03166102448b0152565b6102408801356102648a01526102608801356102848a015261031a610280890189611965565b898203602319016102a48b0152611a3f565b61034d61033c6102a08901610124565b6001600160a01b03166102c48a0152565b61035b6102c0880188611b44565b888203602319016102e48a0152611b58565b61037b6102e0870187611b44565b87820360231901610304890152611b58565b61039b610300860186611b44565b86820360231901610324880152611b58565b6103bb610320850185611b44565b85820360231901610344870152611b58565b910135610364830152038183305af180156103fc576103e857005b806103f65f6100189361174c565b80610410565b611bc7565b638fba40ad60e01b5f5260045ffd5b5f91031261010f57565b3461010f575f36600319011261010f576040517f00000000000000000000000000000000000000000000000000000000000000006001600160a01b03168152602090f35b602060031982011261010f576004359067ffffffffffffffff821161010f5761034090829003600319011261010f5760040190565b3461010f576104a13661045e565b7f00000000000000000000000000000000000000000000000000000000000000006001600160a01b0316330361040157303b1561010f575f60405180809363611bab5760e11b8252602060048301526104fd60248301826117ef565b61050d60e4830160c08301611891565b61051f610124830161010083016118b6565b6103206106896106696105ef6105ad61055361053f610180880188611965565b6103406101a48a0152610364890190611a3f565b6101a08701356101c48901526101c08701356101e489015261058c61057b6101e08901610124565b6001600160a01b03166102048a0152565b61059a610200880188611913565b898303602319016102248b015290611945565b6105ce6105bd6102208801610124565b6001600160a01b0316610244890152565b6105dc610240870187611913565b888303602319016102648a015290611945565b6106106105ff6102608701610124565b6001600160a01b0316610284880152565b6102808501356102a48701526102a08501356102c48701526106496106386102c08701610124565b6001600160a01b03166102e4880152565b6106576102e0860186611b44565b86820360231901610304880152611b58565b610677610300850185611b44565b85820360231901610324870152611b58565b910135610344830152038183305af180156103fc576103e857005b3461010f57602036600319011261010f5760043567ffffffffffffffff811161010f576102a0600319823603011261010f577f00000000000000000000000000000000000000000000000000000000000000006001600160a01b03163303610401578061071661010b92600401611ea8565b906101848101359061072782610113565b7f54424bcd37c121359634358c4b6124e821af711811c1ad2fb8f96b94b046338c60406101e46101a48401359361075d85610113565b82519101358152602081018690526001600160a01b039384169490931692a36040519081529081906020820190565b3461010f5761079a3661045e565b3033036111335760208101906107be6107b283611bd2565b6001600160a01b031690565b6040516370a0823160e01b815230600482015290602090829060249082905afa9081156103fc575f91611114575b506107fb610180830183611beb565b9061080c6101a08401358093612277565b926101c0810135801515908161110a575b506110fb5761082b81611bd2565b6108468560c08401926108406107b285611bd2565b906122c7565b60408201956108576107b288611bd2565b6040516370a0823160e01b81523060048201529790602090899060249082905afa9788156103fc575f986110da575b5060608401906108986107b283611bd2565b6040516370a0823160e01b815230600482015290602090829060249082905afa9081156103fc575f916110bb575b506108d36107b286611bd2565b9960e087019a6108e28c611bd2565b6108eb89611bd2565b90823b1561010f576040516301abf04560e71b81526001600160a01b03918216600482015291166024820152604481018c9052905f908290606490829084905af180156103fc576110a7575b506109446107b284611bd2565b6040516370a0823160e01b81523060048201529190602090839060249082905afa80156103fc5761097c925f91610eac575b50611c15565b906109896107b285611bd2565b6040516370a0823160e01b815230600482015290602090829060249082905afa9081156103fc578b9283926109c4925f91610eac5750611c15565b921091821561109d575b505061108e57610a0791610840610a016109e88b94611bd2565b926109fc856102608b019561084087611bd2565b611bd2565b91611bd2565b6080830191610a186107b284611bd2565b6040516370a0823160e01b815230600482015290602090829060249082905afa9081156103fc575f9161106f575b50610a75610a576101e08701611bd2565b610a6f610a68610200890189611c27565b3691611c5a565b90612419565b610a816107b285611bd2565b6040516370a0823160e01b81523060048201529190602090839060249082905afa80156103fc57610ab8925f91610eac5750611c15565b9461028085013586106110605760a0850191610ad66107b284611bd2565b6040516370a0823160e01b815230600482015290602090829060249082905afa9081156103fc575f91611041575b50610b26610b156102208901611bd2565b610a6f610a686102408b018b611c27565b610b326107b285611bd2565b6040516370a0823160e01b81523060048201529190602090839060249082905afa80156103fc57610b69925f91610eac5750611c15565b996102a08701358b10611032578a88101561102b5787915b821561101c57610a016107b2610bb792610baa86610b9e8c611bd2565b6108406107b285611bd2565b6109fc86610b9e8a611bd2565b610bc086611bd2565b90823b1561010f57604051637abef8d160e01b81526001600160a01b0391821660048201529116602482015260448101839052905f908290606490829084905af180156103fc57611008575b50610c178188611c15565b91610c22828c611c15565b945f945f9785610eea575b5086610d77575b506107b2610c4191611bd2565b6040516370a0823160e01b815230600482015290602090829060249082905afa9081156103fc575f91610d48575b506001600160ff1b0381118015610d38575b610d295761032091610c9291611caf565b9601358612610d1a577fca4202436e8d09dae0f884d1f04d2b4a4b2e34472419c7d71435f525d1e2d68199610d15978a6040519b8c9b8c979491926101409996939c9b9a9794919c6101608a019d8a5260208a015260408901526060880152608087015260a086015260c085015260e08401526101008301526101208201520152565b0390a1005b63d9b3452f60e01b5f5260045ffd5b630748aac760e11b5f5260045ffd5b506001600160ff1b038211610c81565b610d6a915060203d602011610d70575b610d62818361174c565b810190611bdc565b5f610c6f565b503d610d58565b610d94919750610d878791611bd2565b6108406102c08b01611bd2565b610da06107b287611bd2565b6040516370a0823160e01b815230600482015290602090829060249082905afa9081156103fc575f91610ecb575b50610e596103008901896040610e51610e4a6109fc85610e448e87610e00610df68583611c90565b6020810190611c27565b9290610e3f6060610e118886611c90565b013591610e3760a0610e318a6080610e29828b611c90565b013598611c90565b01611ca5565b953691611c5a565b61245d565b95611c90565b938d611c90565b013591612438565b610e656107b288611bd2565b6040516370a0823160e01b815230600482015290602090829060249082905afa9081156103fc57610c41926107b292610ea4925f91610eac5750611c15565b979150610c34565b610ec5915060203d602011610d7057610d62818361174c565b5f610976565b610ee4915060203d602011610d7057610d62818361174c565b5f610dce565b610f07919650610efa8691611bd2565b6108406102c08c01611bd2565b610f136107b282611bd2565b6040516370a0823160e01b815230600482015290602090829060249082905afa9081156103fc575f91610fe9575b50610f9f896102e081016040610e51610f8b8a85610f62610df68783611c90565b9290610e3f6060610f738a86611c90565b013591610e3760a0610e318c6080610e29828b611c90565b92610f996109fc8287611c90565b94611c90565b610fab6107b283611bd2565b6040516370a0823160e01b81523060048201529190602090839060249082905afa80156103fc57610fe2925f91610eac5750611c15565b945f610c2d565b611002915060203d602011610d7057610d62818361174c565b5f610f41565b806103f65f6110169361174c565b5f610c0c565b6316a0341160e11b5f5260045ffd5b8a91610b81565b634bca4ffb60e01b5f5260045ffd5b61105a915060203d602011610d7057610d62818361174c565b5f610b04565b633329ce5360e11b5f5260045ffd5b611088915060203d602011610d7057610d62818361174c565b5f610a46565b63e57c748d60e01b5f5260045ffd5b109050885f6109ce565b806103f65f6110b59361174c565b5f610937565b6110d4915060203d602011610d7057610d62818361174c565b5f6108c6565b6110f491985060203d602011610d7057610d62818361174c565b965f610886565b634975cb0960e01b5f5260045ffd5b905084105f61081d565b61112d915060203d602011610d7057610d62818361174c565b5f6107ec565b63029a949d60e31b5f5260045ffd5b3461010f5761115036610169565b30330361113357602081016111676107b282611bd2565b6040516370a0823160e01b815230600482015290602090829060249082905afa9081156103fc575f91611625575b5061119f82611bd2565b9060c08401936111c36111b46107b287611bd2565b936101808301359485916122c7565b6111cf6107b286611bd2565b9360e08201946111de86611bd2565b6111e783611bd2565b90823b1561010f576040516301abf04560e71b81526001600160a01b0391821660048201529116602482015260448101869052905f908290606490829084905af180156103fc57611611575b506112668461124460808501611bd2565b6112578261022087019261084084611bd2565b610840610a0160a08701611bd2565b60408201926112776107b285611bd2565b6040516370a0823160e01b815230600482015290602090829060249082905afa9081156103fc575f916115f2575b506112c76112b66101a08601611bd2565b610a6f610a686101c0880188611c27565b6112d36107b286611bd2565b6040516370a0823160e01b81523060048201529190602090839060249082905afa80156103fc5761130a925f91610eac5750611c15565b9561024084013587106115e35760608401976113286107b28a611bd2565b6040516370a0823160e01b815230600482015290602090829060249082905afa9081156103fc575f916115c4575b506113786113676101e08801611bd2565b610a6f610a686102008a018a611c27565b6113846107b28b611bd2565b6040516370a0823160e01b81523060048201529190602090839060249082905afa80156103fc576113bb925f91610eac5750611c15565b9561026086013587106115b557868910156115ae5788995b8a1561101c57611404926109fc8c610b9e6107b2946109fc836113f8610a0199611bd2565b6108406107b289611bd2565b61140d85611bd2565b90823b1561010f57604051637abef8d160e01b81526001600160a01b0391821660048201529116602482015260448101899052905f908290606490829084905af180156103fc5761159a575b5061147d6107b261147789611472610280880188611beb565b612277565b93611bd2565b6040516370a0823160e01b815230600482015290602090829060249082905afa9081156103fc575f9161157b575b506001600160ff1b038111801561156b575b610d2957610340916114ce91611caf565b9201358212610d1a57857fc10039525f5b2267277206d3941570cb5f25bc01b6a317eed793cda290c891ce96610d1594604051978897889390979695926101c095926101e08601998652602086015260408501526060840152608083015260a08201525f60c08201525f60e08201525f6101008201525f6101208201525f6101408201525f6101608201525f6101808201525f6101a08201520152565b506001600160ff1b0382116114bd565b611594915060203d602011610d7057610d62818361174c565b5f6114ab565b806103f65f6115a89361174c565b5f611459565b86996113d3565b631b15f3a360e21b5f5260045ffd5b6115dd915060203d602011610d7057610d62818361174c565b5f611356565b6349d1e43560e11b5f5260045ffd5b61160b915060203d602011610d7057610d62818361174c565b5f6112a5565b806103f65f61161f9361174c565b5f611233565b61163e915060203d602011610d7057610d62818361174c565b5f611195565b906004916101441161010f57565b919061014083011161010f57565b61018036600319011261010f5761167636611644565b6101443567ffffffffffffffff811161010f57611697903690600401611652565b610164359130330361113357600a831161171c575f5b8381106116b657005b6116c36109fc8284611cdb565b6001600160a01b03811615611713575f8091816116e08588611cf1565b91906116f16040518094819361172b565b03925af16116fd61178f565b901561170e57506001905b016116ad565b611d0d565b50600190611708565b63f5dedbff60e01b5f5260045ffd5b908092918237015f815290565b634e487b7160e01b5f52604160045260245ffd5b90601f8019910116810190811067ffffffffffffffff82111761176e57604052565b611738565b67ffffffffffffffff811161176e57601f01601f191660200190565b3d156117b9573d906117a082611773565b916117ae604051938461174c565b82523d5f602084013e565b606090565b30330361113357825f9392849360405192839283378101848152039134905af16117e661178f565b901561170e5790565b9060a06118838161012f94803561180581610113565b600180841b03168552602081013561181c81610113565b600180841b03166020860152604081013561183681610113565b600180841b03166040860152606081013561185081610113565b600180841b0316606086015261187d608082013561186d81610113565b6001600160a01b03166080870152565b01610124565b6001600160a01b0316910152565b6020809180356118a081610113565b6001600160a01b03168452013561188381610113565b6060809180356118c581610113565b6001600160a01b0316845260208101356118de81610113565b6001600160a01b0316602085015260408101356118fa81610113565b6001600160a01b03166040850152013561188381610113565b9035601e198236030181121561010f57016020813591019167ffffffffffffffff821161010f57813603831361010f57565b908060209392818452848401375f828201840152601f01601f1916010190565b903561029e198236030181121561010f570190565b905f905b600a821061198b57505050565b602080600192853561199c81610113565b848060a01b031681520193019101909161197e565b903561013e198236030181121561010f570190565b6101408201915f81835b600a83106119e057505050505090565b9091929394602080611a0383886001950387526119fd8a87611913565b90611945565b970193019301919392906119d0565b60ff81160361010f57565b359061012f82611a12565b61ffff81160361010f57565b359061012f82611a28565b9061016690611a4e818461197a565b610280611b3b81611a7a611a666101408801886119b1565b6102a06101408701526102a08601906119c6565b95610160810135610160860152611aa8611a976101808301610124565b6001600160a01b0316610180870152565b611ac9611ab86101a08301610124565b6001600160a01b03166101a0870152565b611aea611ad96101c08301610124565b6001600160a01b03166101c0870152565b6101e08101356101e0860152610200810135610200860152611b1d611b126102208301611a1d565b60ff16610220870152565b61024081013561024086015261026081013561026086015201611a34565b61ffff16910152565b903560be198236030181121561010f570190565b908135611b6481610113565b6001600160a01b0316815260a061ffff81611b96611b856020870187611913565b60c0602088015260c0870191611945565b946040810135604086015260608101356060860152608081013560808601520135611bc081611a28565b1691015290565b6040513d5f823e3d90fd5b3561016681610113565b9081602091031261010f575190565b90359061029e198136030182121561010f570190565b634e487b7160e01b5f52601160045260245ffd5b91908203918211611c2257565b611c01565b903590601e198136030182121561010f570180359067ffffffffffffffff821161010f5760200191813603831361010f57565b929192611c6682611773565b91611c74604051938461174c565b82948184528183011161010f578281602093845f960137010152565b90359060be198136030182121561010f570190565b3561016681611a28565b81810392915f138015828513169184121617611c2257565b634e487b7160e01b5f52603260045260245ffd5b90600a811015611cec5760051b0190565b611cc7565b600a821015611cec57611d099160051b810190611c27565b9091565b805115611d1c57602081519101fd5b633204506f60e01b5f5260045ffd5b919061014060405193611d3e828661174c565b8491810192831161010f57905b828210611d5757505050565b602080918335611d6681610113565b815201910190611d4b565b90359061013e198136030182121561010f570190565b61014060405191611d98828461174c565b829181019036821161010f5780925b828410611db5575050505090565b833567ffffffffffffffff811161010f57820136601f8201121561010f57602091611de7839236908481359101611c5a565b815201930192611da7565b3561016681611a12565b939291906101808501905f865b600a8210611e61575050610180610140870152506102c08501905f5b600a8110611e395750506101609150930152565b9091602080611e5560019361017f198b82030187528751610131565b95019493019101611e25565b82516001600160a01b031681526020928301926001929092019101611e09565b61ffff16612710039061ffff8211611c2257565b81810292918115918404141715611c2257565b6101e081013580156122685761016082013591600a831161171c57611ed36107b26101808301611bd2565b611ee36107b26101a08401611bd2565b93611eee3684611d2b565b94611f05611f00610140860186611d71565b611d87565b92610220850160ff80611f1783611df2565b16036121dd575b506101c08501866001600160a01b03611f3683611bd2565b166121c4575b50506040516370a0823160e01b81523060048201526001600160a01b0391909116929091602083602481875afa9283156103fc575f936121a3575b506040516370a0823160e01b81523060048201526001600160a01b03919091169790946020866024818c5afa9586156103fc575f96612182575b50303b1561010f575f91611fd96040519485938493633dd6f8d760e21b855260048501611dfc565b038183305af180156103fc5761216e575b506040516370a0823160e01b815230600482015291602090839060249082905afa9182156103fc575f9261214d575b506040516370a0823160e01b815230600482015295602090879060249082905afa9586156103fc575f9661211e575b509161205861205e928694611c15565b95611c15565b930361210f575f91610260820135196120b5575b50610200013590808211156120ae57505b80151590816120a4575b506120955790565b63211aa2b960e01b5f5260045ffd5b905081105f61208d565b9050612083565b819250610280610200920161ffff6120cc82611ca5565b166120da57505b9190612072565b61210a916120fc6120f56120f061210294611ca5565b611e81565b61ffff1690565b90611e95565b612710900490565b6120d3565b639ef74a0d60e01b5f5260045ffd5b859391965061205e926121426120589260203d602011610d7057610d62818361174c565b979294509250612048565b61216791925060203d602011610d7057610d62818361174c565b905f612019565b806103f65f61217c9361174c565b5f611fea565b61219c91965060203d602011610d7057610d62818361174c565b945f611fb1565b6121bd91935060203d602011610d7057610d62818361174c565b915f611f77565b6121d06121d692611bd2565b836122c7565b5f86611f3c565b600a60ff6121ea83611df2565b161015612259578061224061220d61223a61221961221361220d61225297611df2565b60ff1690565b8a611cdb565b516102608b01358c6102408d01356122346102808f01611ca5565b9361245d565b92611df2565b9061224b8288611cdb565b5285611cdb565b505f611f1e565b63711cef1b60e01b5f5260045ffd5b631f2a200560e01b5f5260045ffd5b90806122aa57506101e08101355b80156122685761016082013591600a831161171c57611ed36107b26101808301611bd2565b612285565b9081602091031261010f5751801515810361010f5790565b919091811561241457604051636eb1769f60e11b81523060048201526001600160a01b038481166024830152919091169190602081604481865afa9081156103fc575f916123f5575b501061231a575050565b60405163095ea7b360e01b81526001600160a01b03831660048201525f6024820152602081806044810103815f865af19081156103fc575f916123d6575b5015611d1c5760405163095ea7b360e01b81526001600160a01b039290921660048301525f196024830152602090829060449082905f905af19081156103fc575f916123a7575b5015611d1c57565b6123c9915060203d6020116123cf575b6123c1818361174c565b8101906122af565b5f61239f565b503d6123b7565b6123ef915060203d6020116123cf576123c1818361174c565b5f612358565b61240e915060203d602011610d7057610d62818361174c565b5f612310565b505050565b5f91829182602083519301915af161242f61178f565b901561170e5750565b905f92918392602083519301915af161242f61178f565b9060208201809211611c2257565b91909493829583516020820190818311611c2257106124df5783016020018290526001840161248d575b50505050565b61ffff81166124c65750915b81516124a48261244f565b116124b75701602001525f808080612487565b630f56d5d160e21b5f5260045ffd5b6124d9916120fc6120f561210293611e81565b91612499565b63f3e07dc360e01b5f5260045ffdfea264697066735822122041c4611641799e8f0205e8f56de50db4c18719a1f67f6029ac5d2931f3f32f4764736f6c63430008210033","linkReferences":{}},"assembly":"    /* \"contracts/FutarchyArbExecutorV4.sol\":711:18294  contract FutarchyArbExecutorV4 {... */\n  0xa0\n  jumpi(tag_7, callvalue)\n  0x1f\n  bytecodeSize\n  codesize\n  dup2\n  swap1\n  sub\n  swap2\n  dup3\n  add\n  not(0x1f)\n  and\n  dup4\n  add\n  swap2\n  sub(shl(0x40, 0x01), 0x01)\n  dup4\n  gt\n  dup5\n  dup5\n  lt\n  or\n  tag_3\n  jumpi\n  dup1\n  dup5\n  swap3\n  0x20\n  swap5\n  0x40\n  mstore\n  dup4\n  codecopy\n  dup2\n  add\n  sub\n  slt\n  tag_7\n  jumpi\n  mload\n  sub(shl(0xa0, 0x01), 0x01)\n  dup2\n  and\n  dup2\n  sub\n  tag_7\n  jumpi\n    /* \"contracts/FutarchyArbExecutorV4.sol\":1537:1553  runner = _runner */\n  0x80\n  mstore\n    /* \"contracts/FutarchyArbExecutorV4.sol\":711:18294  contract FutarchyArbExecutorV4 {... */\n  mload(0x40)\n  dataSize(sub_0)\n  swap1\n  dup2\n  dataOffset(sub_0)\n  dup3\n  codecopy\n    /* \"contracts/FutarchyArbExecutorV4.sol\":1537:1553  runner = _runner */\n  0x80\n    /* \"contracts/FutarchyArbExecutorV4.sol\":711:18294  contract FutarchyArbExecutorV4 {... */\n  mload\n  dup2\n  assignImmutable(\"0x70a74b75c4920e9bbb759cb5023e4c2f48a43033fa115214c8c6611c710b14c4\")\n  return\ntag_7:\n  0x00\n  dup1\n  revert\ntag_3:\n  mstore(0x00, shl(0xe0, 0x4e487b71))\n  mstore(0x04, 0x41)\n  revert(0x00, 0x24)\nstop\n\nsub_0: assembly {\n        /* \"contracts/FutarchyArbExecutorV4.sol\":711:18294  contract FutarchyArbExecutorV4 {... */\n      mstore(0x40, 0x80)\n      jumpi(tag_85, iszero(lt(calldatasize, 0x04)))\n    tag_86:\n      jumpi(tag_87, iszero(calldatasize))\n      0x00\n      dup1\n      revert\n    tag_87:\n      stop\n    tag_85:\n      shr(0xe0, calldataload(0x00))\n      dup1\n      0x3e16b19c\n      eq\n      tag_89\n      jumpi\n      dup1\n      0x5f66c633\n      eq\n      tag_91\n      jumpi\n      dup1\n      0x7a8ca615\n      eq\n      tag_93\n      jumpi\n      dup1\n      0x9862d8f7\n      eq\n      tag_95\n      jumpi\n      dup1\n      0xaaedc25f\n      eq\n      tag_97\n      jumpi\n      dup1\n      0xc23756ae\n      eq\n      tag_99\n      jumpi\n      dup1\n      0xe4d30e3d\n      eq\n      tag_101\n      jumpi\n      0xf75be35c\n      sub\n      tag_86\n      jumpi\n      tag_20\n      jump\t// in\n    tag_101:\n      tag_16\n      jump\t// in\n    tag_99:\n      tag_15\n      jump\t// in\n    tag_97:\n      tag_14\n      jump\t// in\n    tag_95:\n      tag_12\n      jump\t// in\n    tag_93:\n      tag_10\n      jump\t// in\n    tag_91:\n      tag_6\n      jump\t// in\n    tag_89:\n      jumpi(tag_114, slt(add(not(0x03), calldatasize), 0x40))\n      calldataload(0x04)\n      tag_107\n      dup2\n      tag_1\n      jump\t// in\n    tag_107:\n      calldataload(0x24)\n      0xffffffffffffffff\n      dup2\n      gt\n      tag_114\n      jumpi\n      calldatasize\n      0x23\n      dup3\n      add\n      slt\n      iszero\n      tag_114\n      jumpi\n      dup1\n      0x04\n      add\n      calldataload\n      0xffffffffffffffff\n      dup2\n      gt\n      tag_114\n      jumpi\n      calldatasize\n      0x24\n      dup3\n      dup5\n      add\n      add\n      gt\n      tag_114\n      jumpi\n      tag_116\n      swap3\n      0x24\n      tag_117\n      swap4\n      add\n      swap1\n      tag_27\n      jump\t// in\n    tag_117:\n      mload(0x40)\n      swap2\n      dup3\n      swap2\n      dup3\n      tag_4\n      jump\t// in\n    tag_116:\n      sub\n      swap1\n      return\n    tag_114:\n      0x00\n      dup1\n      revert\n    tag_1:\n      sub(shl(0xa0, 0x01), 0x01)\n      dup2\n      and\n      sub\n      tag_114\n      jumpi\n      jump\t// out\n    tag_2:\n      calldataload\n      swap1\n      tag_120\n      dup3\n      tag_1\n      jump\t// in\n    tag_120:\n      jump\t// out\n    tag_3:\n      dup1\n      mload\n      dup1\n      dup4\n      mstore\n      0x20\n      swap3\n      swap2\n      dup2\n      swap1\n      dup5\n      add\n      dup5\n      dup5\n      add\n      mcopy\n      0x00\n      dup3\n      dup3\n      add\n      dup5\n      add\n      mstore\n      0x1f\n      add\n      not(0x1f)\n      and\n      add\n      add\n      swap1\n      jump\t// out\n    tag_4:\n      swap1\n      0x20\n      tag_121\n      swap3\n      dup2\n      dup2\n      mstore\n      add\n      swap1\n      tag_3\n      jump\t// in\n    tag_121:\n      swap1\n      jump\t// out\n    tag_5:\n      0x20\n      not(0x03)\n      dup3\n      add\n      slt\n      tag_114\n      jumpi\n      calldataload(0x04)\n      swap1\n      0xffffffffffffffff\n      dup3\n      gt\n      tag_114\n      jumpi\n      0x0360\n      swap1\n      dup3\n      swap1\n      sub\n      not(0x03)\n      add\n      slt\n      tag_114\n      jumpi\n      0x04\n      add\n      swap1\n      jump\t// out\n    tag_6:\n      jumpi(tag_114, callvalue)\n      tag_130\n      calldatasize\n      tag_5\n      jump\t// in\n    tag_130:\n        /* \"contracts/FutarchyArbExecutorV4.sol\":1448:1454  runner */\n      immutable(\"0x70a74b75c4920e9bbb759cb5023e4c2f48a43033fa115214c8c6611c710b14c4\")\n      sub(shl(0xa0, 0x01), 0x01)\n        /* \"contracts/FutarchyArbExecutorV4.sol\":711:18294  contract FutarchyArbExecutorV4 {... */\n      and\n        /* \"contracts/FutarchyArbExecutorV4.sol\":1434:1444  msg.sender */\n      caller\n        /* \"contracts/FutarchyArbExecutorV4.sol\":1434:1454  msg.sender != runner */\n      sub\n        /* \"contracts/FutarchyArbExecutorV4.sol\":1430:1474  if (msg.sender != runner) revert NotRunner() */\n      tag_131\n      jumpi\n        /* \"contracts/FutarchyArbExecutorV4.sol\":7378:7382  this */\n      address\n        /* \"contracts/FutarchyArbExecutorV4.sol\":7378:7411  this.buy_conditional_arbitrage(a) */\n      extcodesize\n      iszero\n      tag_114\n      jumpi\n      0x00\n        /* \"contracts/FutarchyArbExecutorV4.sol\":711:18294  contract FutarchyArbExecutorV4 {... */\n      mload(0x40)\n      dup1\n      dup1\n      swap4\n      shl(0xe0, 0xe4d30e3d)\n        /* \"contracts/FutarchyArbExecutorV4.sol\":7378:7411  this.buy_conditional_arbitrage(a) */\n      dup3\n      mstore\n        /* \"contracts/FutarchyArbExecutorV4.sol\":711:18294  contract FutarchyArbExecutorV4 {... */\n      0x20\n      0x04\n        /* \"contracts/FutarchyArbExecutorV4.sol\":7378:7411  this.buy_conditional_arbitrage(a) */\n      dup4\n      add\n        /* \"contracts/FutarchyArbExecutorV4.sol\":711:18294  contract FutarchyArbExecutorV4 {... */\n      mstore\n      tag_135\n      0x24\n      dup4\n      add\n      dup3\n      tag_28\n      jump\t// in\n    tag_135:\n      tag_136\n      0xe4\n      dup4\n      add\n      0xc0\n      dup4\n      add\n      tag_29\n      jump\t// in\n    tag_136:\n      tag_137\n      0x0124\n      dup4\n      add\n      0x0100\n      dup4\n      add\n      tag_30\n      jump\t// in\n    tag_137:\n      0x0180\n      dup2\n      add\n      calldataload\n      0x01a4\n      dup4\n      add\n      mstore\n      tag_138\n      tag_139\n      0x01a0\n      dup4\n      add\n      tag_2\n      jump\t// in\n    tag_139:\n      sub(shl(0xa0, 0x01), 0x01)\n      and\n      0x01c4\n      dup5\n      add\n      mstore\n      jump\n    tag_138:\n      0x0340\n      tag_140\n      tag_141\n      tag_142\n      tag_143\n      tag_144\n      tag_145\n      tag_146\n      tag_147\n      0x01c0\n      dup11\n      add\n      dup11\n      tag_31\n      jump\t// in\n    tag_147:\n      0x0360\n      0x01e4\n      dup14\n      add\n      mstore\n      0x0384\n      dup13\n      add\n      swap2\n      tag_32\n      jump\t// in\n    tag_146:\n      tag_148\n      tag_149\n      0x01e0\n      dup12\n      add\n      tag_2\n      jump\t// in\n    tag_149:\n      sub(shl(0xa0, 0x01), 0x01)\n      and\n      0x0204\n      dup13\n      add\n      mstore\n      jump\n    tag_148:\n      tag_150\n      0x0200\n      dup11\n      add\n      dup11\n      tag_31\n      jump\t// in\n    tag_150:\n      dup12\n      dup4\n      sub\n      not(0x23)\n      add\n      0x0224\n      dup14\n      add\n      mstore\n      swap1\n      tag_32\n      jump\t// in\n    tag_145:\n      tag_151\n      tag_152\n      0x0220\n      dup11\n      add\n      tag_2\n      jump\t// in\n    tag_152:\n      sub(shl(0xa0, 0x01), 0x01)\n      and\n      0x0244\n      dup12\n      add\n      mstore\n      jump\n    tag_151:\n      0x0240\n      dup9\n      add\n      calldataload\n      0x0264\n      dup11\n      add\n      mstore\n      0x0260\n      dup9\n      add\n      calldataload\n      0x0284\n      dup11\n      add\n      mstore\n      tag_153\n      0x0280\n      dup10\n      add\n      dup10\n      tag_33\n      jump\t// in\n    tag_153:\n      dup10\n      dup3\n      sub\n      not(0x23)\n      add\n      0x02a4\n      dup12\n      add\n      mstore\n      tag_43\n      jump\t// in\n    tag_144:\n      tag_154\n      tag_155\n      0x02a0\n      dup10\n      add\n      tag_2\n      jump\t// in\n    tag_155:\n      sub(shl(0xa0, 0x01), 0x01)\n      and\n      0x02c4\n      dup11\n      add\n      mstore\n      jump\n    tag_154:\n      tag_156\n      0x02c0\n      dup9\n      add\n      dup9\n      tag_44\n      jump\t// in\n    tag_156:\n      dup9\n      dup3\n      sub\n      not(0x23)\n      add\n      0x02e4\n      dup11\n      add\n      mstore\n      tag_45\n      jump\t// in\n    tag_143:\n      tag_157\n      0x02e0\n      dup8\n      add\n      dup8\n      tag_44\n      jump\t// in\n    tag_157:\n      dup8\n      dup3\n      sub\n      not(0x23)\n      add\n      0x0304\n      dup10\n      add\n      mstore\n      tag_45\n      jump\t// in\n    tag_142:\n      tag_158\n      0x0300\n      dup7\n      add\n      dup7\n      tag_44\n      jump\t// in\n    tag_158:\n      dup7\n      dup3\n      sub\n      not(0x23)\n      add\n      0x0324\n      dup9\n      add\n      mstore\n      tag_45\n      jump\t// in\n    tag_141:\n      tag_159\n      0x0320\n      dup6\n      add\n      dup6\n      tag_44\n      jump\t// in\n    tag_159:\n      dup6\n      dup3\n      sub\n      not(0x23)\n      add\n      0x0344\n      dup8\n      add\n      mstore\n      tag_45\n      jump\t// in\n    tag_140:\n      swap2\n      add\n      calldataload\n      0x0364\n      dup4\n      add\n      mstore\n        /* \"contracts/FutarchyArbExecutorV4.sol\":7378:7411  this.buy_conditional_arbitrage(a) */\n      sub\n        /* \"contracts/FutarchyArbExecutorV4.sol\":7378:7382  this */\n      dup2\n      dup4\n      address\n        /* \"contracts/FutarchyArbExecutorV4.sol\":7378:7411  this.buy_conditional_arbitrage(a) */\n      gas\n      call\n      dup1\n      iszero\n      tag_160\n      jumpi\n      tag_162\n      jumpi\n        /* \"contracts/FutarchyArbExecutorV4.sol\":711:18294  contract FutarchyArbExecutorV4 {... */\n      stop\n        /* \"contracts/FutarchyArbExecutorV4.sol\":7378:7411  this.buy_conditional_arbitrage(a) */\n    tag_162:\n      dup1\n      tag_164\n      0x00\n      tag_87\n      swap4\n      tag_24\n      jump\t// in\n    tag_164:\n      dup1\n      tag_7\n      jump\t// in\n    tag_160:\n      tag_46\n      jump\t// in\n        /* \"contracts/FutarchyArbExecutorV4.sol\":1430:1474  if (msg.sender != runner) revert NotRunner() */\n    tag_131:\n        /* \"contracts/FutarchyArbExecutorV4.sol\":1463:1474  NotRunner() */\n      mstore(0x00, shl(0xe0, 0x8fba40ad))\n        /* \"contracts/FutarchyArbExecutorV4.sol\":711:18294  contract FutarchyArbExecutorV4 {... */\n      0x04\n        /* \"contracts/FutarchyArbExecutorV4.sol\":1463:1474  NotRunner() */\n      0x00\n      revert\n        /* \"contracts/FutarchyArbExecutorV4.sol\":711:18294  contract FutarchyArbExecutorV4 {... */\n    tag_7:\n      0x00\n      swap2\n      sub\n      slt\n      tag_114\n      jumpi\n      jump\t// out\n    tag_10:\n      jumpi(tag_114, callvalue)\n      jumpi(tag_114, slt(add(not(0x03), calldatasize), 0x00))\n      mload(0x40)\n        /* \"contracts/FutarchyArbExecutorV4.sol\":1361:1392  address public immutable runner */\n      immutable(\"0x70a74b75c4920e9bbb759cb5023e4c2f48a43033fa115214c8c6611c710b14c4\")\n      sub(shl(0xa0, 0x01), 0x01)\n        /* \"contracts/FutarchyArbExecutorV4.sol\":711:18294  contract FutarchyArbExecutorV4 {... */\n      and\n      dup2\n      mstore\n      0x20\n      swap1\n      return\n    tag_11:\n      0x20\n      not(0x03)\n      dup3\n      add\n      slt\n      tag_114\n      jumpi\n      calldataload(0x04)\n      swap1\n      0xffffffffffffffff\n      dup3\n      gt\n      tag_114\n      jumpi\n      0x0340\n      swap1\n      dup3\n      swap1\n      sub\n      not(0x03)\n      add\n      slt\n      tag_114\n      jumpi\n      0x04\n      add\n      swap1\n      jump\t// out\n    tag_12:\n      jumpi(tag_114, callvalue)\n      tag_180\n      calldatasize\n      tag_11\n      jump\t// in\n    tag_180:\n        /* \"contracts/FutarchyArbExecutorV4.sol\":1448:1454  runner */\n      immutable(\"0x70a74b75c4920e9bbb759cb5023e4c2f48a43033fa115214c8c6611c710b14c4\")\n      sub(shl(0xa0, 0x01), 0x01)\n        /* \"contracts/FutarchyArbExecutorV4.sol\":711:18294  contract FutarchyArbExecutorV4 {... */\n      and\n        /* \"contracts/FutarchyArbExecutorV4.sol\":1434:1444  msg.sender */\n      caller\n        /* \"contracts/FutarchyArbExecutorV4.sol\":1434:1454  msg.sender != runner */\n      sub\n        /* \"contracts/FutarchyArbExecutorV4.sol\":1430:1474  if (msg.sender != runner) revert NotRunner() */\n      tag_131\n      jumpi\n        /* \"contracts/FutarchyArbExecutorV4.sol\":7265:7269  this */\n      address\n        /* \"contracts/FutarchyArbExecutorV4.sol\":7265:7299  this.sell_conditional_arbitrage(a) */\n      extcodesize\n      iszero\n      tag_114\n      jumpi\n      0x00\n        /* \"contracts/FutarchyArbExecutorV4.sol\":711:18294  contract FutarchyArbExecutorV4 {... */\n      mload(0x40)\n      dup1\n      dup1\n      swap4\n      shl(0xe1, 0x611bab57)\n        /* \"contracts/FutarchyArbExecutorV4.sol\":7265:7299  this.sell_conditional_arbitrage(a) */\n      dup3\n      mstore\n        /* \"contracts/FutarchyArbExecutorV4.sol\":711:18294  contract FutarchyArbExecutorV4 {... */\n      0x20\n      0x04\n        /* \"contracts/FutarchyArbExecutorV4.sol\":7265:7299  this.sell_conditional_arbitrage(a) */\n      dup4\n      add\n        /* \"contracts/FutarchyArbExecutorV4.sol\":711:18294  contract FutarchyArbExecutorV4 {... */\n      mstore\n      tag_185\n      0x24\n      dup4\n      add\n      dup3\n      tag_28\n      jump\t// in\n    tag_185:\n      tag_186\n      0xe4\n      dup4\n      add\n      0xc0\n      dup4\n      add\n      tag_29\n      jump\t// in\n    tag_186:\n      tag_187\n      0x0124\n      dup4\n      add\n      0x0100\n      dup4\n      add\n      tag_30\n      jump\t// in\n    tag_187:\n      0x0320\n      tag_188\n      tag_189\n      tag_190\n      tag_191\n      tag_192\n      tag_193\n      0x0180\n      dup9\n      add\n      dup9\n      tag_33\n      jump\t// in\n    tag_193:\n      0x0340\n      0x01a4\n      dup11\n      add\n      mstore\n      0x0364\n      dup10\n      add\n      swap1\n      tag_43\n      jump\t// in\n    tag_192:\n      0x01a0\n      dup8\n      add\n      calldataload\n      0x01c4\n      dup10\n      add\n      mstore\n      0x01c0\n      dup8\n      add\n      calldataload\n      0x01e4\n      dup10\n      add\n      mstore\n      tag_194\n      tag_195\n      0x01e0\n      dup10\n      add\n      tag_2\n      jump\t// in\n    tag_195:\n      sub(shl(0xa0, 0x01), 0x01)\n      and\n      0x0204\n      dup11\n      add\n      mstore\n      jump\n    tag_194:\n      tag_196\n      0x0200\n      dup9\n      add\n      dup9\n      tag_31\n      jump\t// in\n    tag_196:\n      dup10\n      dup4\n      sub\n      not(0x23)\n      add\n      0x0224\n      dup12\n      add\n      mstore\n      swap1\n      tag_32\n      jump\t// in\n    tag_191:\n      tag_197\n      tag_198\n      0x0220\n      dup9\n      add\n      tag_2\n      jump\t// in\n    tag_198:\n      sub(shl(0xa0, 0x01), 0x01)\n      and\n      0x0244\n      dup10\n      add\n      mstore\n      jump\n    tag_197:\n      tag_199\n      0x0240\n      dup8\n      add\n      dup8\n      tag_31\n      jump\t// in\n    tag_199:\n      dup9\n      dup4\n      sub\n      not(0x23)\n      add\n      0x0264\n      dup11\n      add\n      mstore\n      swap1\n      tag_32\n      jump\t// in\n    tag_190:\n      tag_200\n      tag_201\n      0x0260\n      dup8\n      add\n      tag_2\n      jump\t// in\n    tag_201:\n      sub(shl(0xa0, 0x01), 0x01)\n      and\n      0x0284\n      dup9\n      add\n      mstore\n      jump\n    tag_200:\n      0x0280\n      dup6\n      add\n      calldataload\n      0x02a4\n      dup8\n      add\n      mstore\n      0x02a0\n      dup6\n      add\n      calldataload\n      0x02c4\n      dup8\n      add\n      mstore\n      tag_202\n      tag_203\n      0x02c0\n      dup8\n      add\n      tag_2\n      jump\t// in\n    tag_203:\n      sub(shl(0xa0, 0x01), 0x01)\n      and\n      0x02e4\n      dup9\n      add\n      mstore\n      jump\n    tag_202:\n      tag_204\n      0x02e0\n      dup7\n      add\n      dup7\n      tag_44\n      jump\t// in\n    tag_204:\n      dup7\n      dup3\n      sub\n      not(0x23)\n      add\n      0x0304\n      dup9\n      add\n      mstore\n      tag_45\n      jump\t// in\n    tag_189:\n      tag_205\n      0x0300\n      dup6\n      add\n      dup6\n      tag_44\n      jump\t// in\n    tag_205:\n      dup6\n      dup3\n      sub\n      not(0x23)\n      add\n      0x0324\n      dup8\n      add\n      mstore\n      tag_45\n      jump\t// in\n    tag_188:\n      swap2\n      add\n      calldataload\n      0x0344\n      dup4\n      add\n      mstore\n        /* \"contracts/FutarchyArbExecutorV4.sol\":7265:7299  this.sell_conditional_arbitrage(a) */\n      sub\n        /* \"contracts/FutarchyArbExecutorV4.sol\":7265:7269  this */\n      dup2\n      dup4\n      address\n        /* \"contracts/FutarchyArbExecutorV4.sol\":7265:7299  this.sell_conditional_arbitrage(a) */\n      gas\n      call\n      dup1\n      iszero\n      tag_160\n      jumpi\n      tag_162\n      jumpi\n        /* \"contracts/FutarchyArbExecutorV4.sol\":711:18294  contract FutarchyArbExecutorV4 {... */\n      stop\n    tag_14:\n      jumpi(tag_114, callvalue)\n      jumpi(tag_114, slt(add(not(0x03), calldatasize), 0x20))\n      calldataload(0x04)\n      0xffffffffffffffff\n      dup2\n      gt\n      tag_114\n      jumpi\n      0x02a0\n      not(0x03)\n      dup3\n      calldatasize\n      sub\n      add\n      slt\n      tag_114\n      jumpi\n        /* \"contracts/FutarchyArbExecutorV4.sol\":1448:1454  runner */\n      immutable(\"0x70a74b75c4920e9bbb759cb5023e4c2f48a43033fa115214c8c6611c710b14c4\")\n      sub(shl(0xa0, 0x01), 0x01)\n        /* \"contracts/FutarchyArbExecutorV4.sol\":711:18294  contract FutarchyArbExecutorV4 {... */\n      and\n        /* \"contracts/FutarchyArbExecutorV4.sol\":1434:1444  msg.sender */\n      caller\n        /* \"contracts/FutarchyArbExecutorV4.sol\":1434:1454  msg.sender != runner */\n      sub\n        /* \"contracts/FutarchyArbExecutorV4.sol\":1430:1474  if (msg.sender != runner) revert NotRunner() */\n      tag_131\n      jumpi\n        /* \"contracts/FutarchyArbExecutorV4.sol\":711:18294  contract FutarchyArbExecutorV4 {... */\n      dup1\n        /* \"contracts/FutarchyArbExecutorV4.sol\":7744:7837  _runExecute10Checked(... */\n      tag_222\n        /* \"contracts/FutarchyArbExecutorV4.sol\":711:18294  contract FutarchyArbExecutorV4 {... */\n      tag_116\n      swap3\n      0x04\n      add\n        /* \"contracts/FutarchyArbExecutorV4.sol\":7744:7837  _runExecute10Checked(... */\n      tag_74\n      jump\t// in\n    tag_222:\n        /* \"contracts/FutarchyArbExecutorV4.sol\":7866:7875  b.tokenIn */\n      swap1\n      0x0184\n      dup2\n      add\n        /* \"contracts/FutarchyArbExecutorV4.sol\":711:18294  contract FutarchyArbExecutorV4 {... */\n      calldataload\n      swap1\n      tag_224\n      dup3\n      tag_1\n      jump\t// in\n    tag_224:\n        /* \"contracts/FutarchyArbExecutorV4.sol\":7852:7905  TradeExecuted(b.tokenIn, b.tokenOut, b.amountIn, out) */\n      0x54424bcd37c121359634358c4b6124e821af711811c1ad2fb8f96b94b046338c\n        /* \"contracts/FutarchyArbExecutorV4.sol\":711:18294  contract FutarchyArbExecutorV4 {... */\n      0x40\n        /* \"contracts/FutarchyArbExecutorV4.sol\":7889:7899  b.amountIn */\n      0x01e4\n        /* \"contracts/FutarchyArbExecutorV4.sol\":7877:7887  b.tokenOut */\n      0x01a4\n      dup5\n      add\n        /* \"contracts/FutarchyArbExecutorV4.sol\":711:18294  contract FutarchyArbExecutorV4 {... */\n      calldataload\n      swap4\n      tag_225\n      dup6\n      tag_1\n      jump\t// in\n    tag_225:\n      dup3\n      mload\n        /* \"contracts/FutarchyArbExecutorV4.sol\":7889:7899  b.amountIn */\n      swap2\n      add\n        /* \"contracts/FutarchyArbExecutorV4.sol\":711:18294  contract FutarchyArbExecutorV4 {... */\n      calldataload\n      dup2\n      mstore\n      0x20\n      dup2\n      add\n      dup7\n      swap1\n      mstore\n      sub(shl(0xa0, 0x01), 0x01)\n      swap4\n      dup5\n      and\n      swap5\n      swap1\n      swap4\n      and\n      swap3\n        /* \"contracts/FutarchyArbExecutorV4.sol\":7852:7905  TradeExecuted(b.tokenIn, b.tokenOut, b.amountIn, out) */\n      log3\n        /* \"contracts/FutarchyArbExecutorV4.sol\":711:18294  contract FutarchyArbExecutorV4 {... */\n      mload(0x40)\n      swap1\n      dup2\n      mstore\n      swap1\n      dup2\n      swap1\n      0x20\n      dup3\n      add\n      swap1\n      jump\n    tag_15:\n      jumpi(tag_114, callvalue)\n      tag_228\n      calldatasize\n      tag_11\n      jump\t// in\n    tag_228:\n        /* \"contracts/FutarchyArbExecutorV4.sol\":10463:10467  this */\n      address\n        /* \"contracts/FutarchyArbExecutorV4.sol\":10441:10451  msg.sender */\n      caller\n        /* \"contracts/FutarchyArbExecutorV4.sol\":10441:10468  msg.sender != address(this) */\n      sub\n        /* \"contracts/FutarchyArbExecutorV4.sol\":10437:10487  if (msg.sender != address(this)) revert OnlySelf() */\n      tag_229\n      jumpi\n        /* \"contracts/FutarchyArbExecutorV4.sol\":10513:10520  a.t.cur */\n      0x20\n      dup2\n      add\n      swap1\n        /* \"contracts/FutarchyArbExecutorV4.sol\":10513:10530  a.t.cur.balanceOf */\n      tag_231\n        /* \"contracts/FutarchyArbExecutorV4.sol\":10513:10520  a.t.cur */\n      tag_232\n      dup4\n      tag_47\n      jump\t// in\n    tag_232:\n      sub(shl(0xa0, 0x01), 0x01)\n        /* \"contracts/FutarchyArbExecutorV4.sol\":711:18294  contract FutarchyArbExecutorV4 {... */\n      and\n      swap1\n      jump\n        /* \"contracts/FutarchyArbExecutorV4.sol\":10513:10530  a.t.cur.balanceOf */\n    tag_231:\n        /* \"contracts/FutarchyArbExecutorV4.sol\":711:18294  contract FutarchyArbExecutorV4 {... */\n      mload(0x40)\n      shl(0xe0, 0x70a08231)\n        /* \"contracts/FutarchyArbExecutorV4.sol\":10513:10545  a.t.cur.balanceOf(address(this)) */\n      dup2\n      mstore\n        /* \"contracts/FutarchyArbExecutorV4.sol\":10463:10467  this */\n      address\n        /* \"contracts/FutarchyArbExecutorV4.sol\":711:18294  contract FutarchyArbExecutorV4 {... */\n      0x04\n        /* \"contracts/FutarchyArbExecutorV4.sol\":10513:10545  a.t.cur.balanceOf(address(this)) */\n      dup3\n      add\n        /* \"contracts/FutarchyArbExecutorV4.sol\":711:18294  contract FutarchyArbExecutorV4 {... */\n      mstore\n      swap1\n        /* \"contracts/FutarchyArbExecutorV4.sol\":10513:10520  a.t.cur */\n      0x20\n      swap1\n        /* \"contracts/FutarchyArbExecutorV4.sol\":711:18294  contract FutarchyArbExecutorV4 {... */\n      dup3\n      swap1\n      0x24\n      swap1\n      dup3\n      swap1\n        /* \"contracts/FutarchyArbExecutorV4.sol\":10513:10545  a.t.cur.balanceOf(address(this)) */\n      gas\n      staticcall\n      swap1\n      dup2\n      iszero\n      tag_160\n      jumpi\n        /* \"contracts/FutarchyArbExecutorV4.sol\":10513:10516  a.t */\n      0x00\n        /* \"contracts/FutarchyArbExecutorV4.sol\":10513:10545  a.t.cur.balanceOf(address(this)) */\n      swap2\n      tag_236\n      jumpi\n        /* \"contracts/FutarchyArbExecutorV4.sol\":711:18294  contract FutarchyArbExecutorV4 {... */\n    tag_237:\n        /* \"contracts/FutarchyArbExecutorV4.sol\":10676:10691  a.buyCompanyOps */\n      pop\n      tag_238\n      0x0180\n      dup4\n      add\n      dup4\n      tag_49\n      jump\t// in\n    tag_238:\n        /* \"contracts/FutarchyArbExecutorV4.sol\":10693:10706  a.amountCurIn */\n      swap1\n        /* \"contracts/FutarchyArbExecutorV4.sol\":10655:10707  _runExecute10Checked(a.buyCompanyOps, a.amountCurIn) */\n      tag_239\n        /* \"contracts/FutarchyArbExecutorV4.sol\":10693:10706  a.amountCurIn */\n      0x01a0\n      dup5\n      add\n        /* \"contracts/FutarchyArbExecutorV4.sol\":711:18294  contract FutarchyArbExecutorV4 {... */\n      calldataload\n        /* \"contracts/FutarchyArbExecutorV4.sol\":10655:10707  _runExecute10Checked(a.buyCompanyOps, a.amountCurIn) */\n      dup1\n      swap4\n      tag_75\n      jump\t// in\n    tag_239:\n        /* \"contracts/FutarchyArbExecutorV4.sol\":10721:10733  a.minCompOut */\n      swap3\n      0x01c0\n      dup2\n      add\n        /* \"contracts/FutarchyArbExecutorV4.sol\":711:18294  contract FutarchyArbExecutorV4 {... */\n      calldataload\n        /* \"contracts/FutarchyArbExecutorV4.sol\":10721:10737  a.minCompOut > 0 */\n      dup1\n      iszero\n      iszero\n        /* \"contracts/FutarchyArbExecutorV4.sol\":10721:10763  a.minCompOut > 0 && compOut < a.minCompOut */\n      swap1\n      dup2\n      tag_240\n      jumpi\n        /* \"contracts/FutarchyArbExecutorV4.sol\":711:18294  contract FutarchyArbExecutorV4 {... */\n    tag_241:\n        /* \"contracts/FutarchyArbExecutorV4.sol\":10717:10784  if (a.minCompOut > 0 && compOut < a.minCompOut) revert LowCompOut() */\n      pop\n      tag_242\n      jumpi\n        /* \"contracts/FutarchyArbExecutorV4.sol\":10837:10845  a.t.comp */\n      tag_244\n      dup2\n      tag_47\n      jump\t// in\n    tag_244:\n        /* \"contracts/FutarchyArbExecutorV4.sol\":10868:10875  compOut */\n      tag_245\n        /* \"contracts/FutarchyArbExecutorV4.sol\":10855:10858  a.f */\n      dup6\n      0xc0\n      dup5\n      add\n        /* \"contracts/FutarchyArbExecutorV4.sol\":10855:10865  a.f.router */\n      swap3\n        /* \"contracts/FutarchyArbExecutorV4.sol\":10847:10866  address(a.f.router) */\n      tag_246\n        /* \"contracts/FutarchyArbExecutorV4.sol\":10855:10865  a.f.router */\n      tag_232\n      dup6\n      tag_47\n      jump\t// in\n        /* \"contracts/FutarchyArbExecutorV4.sol\":10847:10866  address(a.f.router) */\n    tag_246:\n        /* \"contracts/FutarchyArbExecutorV4.sol\":10868:10875  compOut */\n      swap1\n      tag_80\n      jump\t// in\n    tag_245:\n        /* \"contracts/FutarchyArbExecutorV4.sol\":711:18294  contract FutarchyArbExecutorV4 {... */\n      0x40\n        /* \"contracts/FutarchyArbExecutorV4.sol\":10906:10917  a.t.yesComp */\n      dup3\n      add\n      swap6\n        /* \"contracts/FutarchyArbExecutorV4.sol\":10906:10927  a.t.yesComp.balanceOf */\n      tag_248\n        /* \"contracts/FutarchyArbExecutorV4.sol\":10906:10917  a.t.yesComp */\n      tag_232\n      dup9\n      tag_47\n      jump\t// in\n        /* \"contracts/FutarchyArbExecutorV4.sol\":10906:10927  a.t.yesComp.balanceOf */\n    tag_248:\n        /* \"contracts/FutarchyArbExecutorV4.sol\":711:18294  contract FutarchyArbExecutorV4 {... */\n      mload(0x40)\n      shl(0xe0, 0x70a08231)\n        /* \"contracts/FutarchyArbExecutorV4.sol\":10906:10942  a.t.yesComp.balanceOf(address(this)) */\n      dup2\n      mstore\n        /* \"contracts/FutarchyArbExecutorV4.sol\":10463:10467  this */\n      address\n        /* \"contracts/FutarchyArbExecutorV4.sol\":711:18294  contract FutarchyArbExecutorV4 {... */\n      0x04\n        /* \"contracts/FutarchyArbExecutorV4.sol\":10906:10942  a.t.yesComp.balanceOf(address(this)) */\n      dup3\n      add\n        /* \"contracts/FutarchyArbExecutorV4.sol\":711:18294  contract FutarchyArbExecutorV4 {... */\n      mstore\n      swap8\n      swap1\n        /* \"contracts/FutarchyArbExecutorV4.sol\":10513:10520  a.t.cur */\n      0x20\n      swap1\n        /* \"contracts/FutarchyArbExecutorV4.sol\":711:18294  contract FutarchyArbExecutorV4 {... */\n      dup10\n      swap1\n      0x24\n      swap1\n      dup3\n      swap1\n        /* \"contracts/FutarchyArbExecutorV4.sol\":10906:10942  a.t.yesComp.balanceOf(address(this)) */\n      gas\n      staticcall\n      swap8\n      dup9\n      iszero\n      tag_160\n      jumpi\n        /* \"contracts/FutarchyArbExecutorV4.sol\":10513:10516  a.t */\n      0x00\n        /* \"contracts/FutarchyArbExecutorV4.sol\":10906:10942  a.t.yesComp.balanceOf(address(this)) */\n      swap9\n      tag_253\n      jumpi\n        /* \"contracts/FutarchyArbExecutorV4.sol\":711:18294  contract FutarchyArbExecutorV4 {... */\n    tag_254:\n        /* \"contracts/FutarchyArbExecutorV4.sol\":10971:10981  a.t.noComp */\n      pop\n      0x60\n      dup5\n      add\n      swap1\n        /* \"contracts/FutarchyArbExecutorV4.sol\":10971:10991  a.t.noComp.balanceOf */\n      tag_255\n        /* \"contracts/FutarchyArbExecutorV4.sol\":10971:10981  a.t.noComp */\n      tag_232\n      dup4\n      tag_47\n      jump\t// in\n        /* \"contracts/FutarchyArbExecutorV4.sol\":10971:10991  a.t.noComp.balanceOf */\n    tag_255:\n        /* \"contracts/FutarchyArbExecutorV4.sol\":711:18294  contract FutarchyArbExecutorV4 {... */\n      mload(0x40)\n      shl(0xe0, 0x70a08231)\n        /* \"contracts/FutarchyArbExecutorV4.sol\":10971:11006  a.t.noComp.balanceOf(address(this)) */\n      dup2\n      mstore\n        /* \"contracts/FutarchyArbExecutorV4.sol\":10463:10467  this */\n      address\n        /* \"contracts/FutarchyArbExecutorV4.sol\":711:18294  contract FutarchyArbExecutorV4 {... */\n      0x04\n        /* \"contracts/FutarchyArbExecutorV4.sol\":10971:11006  a.t.noComp.balanceOf(address(this)) */\n      dup3\n      add\n        /* \"contracts/FutarchyArbExecutorV4.sol\":711:18294  contract FutarchyArbExecutorV4 {... */\n      mstore\n      swap1\n        /* \"contracts/FutarchyArbExecutorV4.sol\":10513:10520  a.t.cur */\n      0x20\n      swap1\n        /* \"contracts/FutarchyArbExecutorV4.sol\":711:18294  contract FutarchyArbExecutorV4 {... */\n      dup3\n      swap1\n      0x24\n      swap1\n      dup3\n      swap1\n        /* \"contracts/FutarchyArbExecutorV4.sol\":10971:11006  a.t.noComp.balanceOf(address(this)) */\n      gas\n      staticcall\n      swap1\n      dup2\n      iszero\n      tag_160\n      jumpi\n        /* \"contracts/FutarchyArbExecutorV4.sol\":10513:10516  a.t */\n      0x00\n        /* \"contracts/FutarchyArbExecutorV4.sol\":10971:11006  a.t.noComp.balanceOf(address(this)) */\n      swap2\n      tag_260\n      jumpi\n        /* \"contracts/FutarchyArbExecutorV4.sol\":711:18294  contract FutarchyArbExecutorV4 {... */\n    tag_261:\n        /* \"contracts/FutarchyArbExecutorV4.sol\":11016:11026  a.f.router */\n      pop\n        /* \"contracts/FutarchyArbExecutorV4.sol\":11016:11040  a.f.router.splitPosition */\n      tag_262\n        /* \"contracts/FutarchyArbExecutorV4.sol\":11016:11026  a.f.router */\n      tag_232\n      dup7\n      tag_47\n      jump\t// in\n        /* \"contracts/FutarchyArbExecutorV4.sol\":11016:11040  a.f.router.splitPosition */\n    tag_262:\n        /* \"contracts/FutarchyArbExecutorV4.sol\":11041:11053  a.f.proposal */\n      swap10\n        /* \"contracts/FutarchyArbExecutorV4.sol\":711:18294  contract FutarchyArbExecutorV4 {... */\n      0xe0\n        /* \"contracts/FutarchyArbExecutorV4.sol\":11041:11053  a.f.proposal */\n      dup8\n      add\n      swap11\n      tag_264\n      dup13\n      tag_47\n      jump\t// in\n    tag_264:\n        /* \"contracts/FutarchyArbExecutorV4.sol\":11055:11063  a.t.comp */\n      tag_265\n      dup10\n      tag_47\n      jump\t// in\n    tag_265:\n        /* \"contracts/FutarchyArbExecutorV4.sol\":11016:11073  a.f.router.splitPosition(a.f.proposal, a.t.comp, compOut) */\n      swap1\n      dup3\n      extcodesize\n      iszero\n      tag_114\n      jumpi\n        /* \"contracts/FutarchyArbExecutorV4.sol\":711:18294  contract FutarchyArbExecutorV4 {... */\n      mload(0x40)\n      shl(0xe7, 0x01abf045)\n        /* \"contracts/FutarchyArbExecutorV4.sol\":11016:11073  a.f.router.splitPosition(a.f.proposal, a.t.comp, compOut) */\n      dup2\n      mstore\n      sub(shl(0xa0, 0x01), 0x01)\n        /* \"contracts/FutarchyArbExecutorV4.sol\":711:18294  contract FutarchyArbExecutorV4 {... */\n      swap2\n      dup3\n      and\n      0x04\n        /* \"contracts/FutarchyArbExecutorV4.sol\":11016:11073  a.f.router.splitPosition(a.f.proposal, a.t.comp, compOut) */\n      dup3\n      add\n        /* \"contracts/FutarchyArbExecutorV4.sol\":711:18294  contract FutarchyArbExecutorV4 {... */\n      mstore\n      swap2\n      and\n      0x24\n      dup3\n      add\n      mstore\n      0x44\n      dup2\n      add\n      dup13\n      swap1\n      mstore\n      swap1\n      0x00\n      swap1\n      dup3\n      swap1\n      0x64\n      swap1\n      dup3\n      swap1\n      dup5\n      swap1\n        /* \"contracts/FutarchyArbExecutorV4.sol\":11016:11073  a.f.router.splitPosition(a.f.proposal, a.t.comp, compOut) */\n      gas\n      call\n      dup1\n      iszero\n      tag_160\n      jumpi\n      tag_271\n      jumpi\n        /* \"contracts/FutarchyArbExecutorV4.sol\":711:18294  contract FutarchyArbExecutorV4 {... */\n    tag_272:\n        /* \"contracts/FutarchyArbExecutorV4.sol\":11103:11114  a.t.yesComp */\n      pop\n        /* \"contracts/FutarchyArbExecutorV4.sol\":11103:11124  a.t.yesComp.balanceOf */\n      tag_273\n        /* \"contracts/FutarchyArbExecutorV4.sol\":11103:11114  a.t.yesComp */\n      tag_232\n      dup5\n      tag_47\n      jump\t// in\n        /* \"contracts/FutarchyArbExecutorV4.sol\":11103:11124  a.t.yesComp.balanceOf */\n    tag_273:\n        /* \"contracts/FutarchyArbExecutorV4.sol\":711:18294  contract FutarchyArbExecutorV4 {... */\n      mload(0x40)\n      shl(0xe0, 0x70a08231)\n        /* \"contracts/FutarchyArbExecutorV4.sol\":11103:11139  a.t.yesComp.balanceOf(address(this)) */\n      dup2\n      mstore\n        /* \"contracts/FutarchyArbExecutorV4.sol\":10463:10467  this */\n      address\n        /* \"contracts/FutarchyArbExecutorV4.sol\":711:18294  contract FutarchyArbExecutorV4 {... */\n      0x04\n        /* \"contracts/FutarchyArbExecutorV4.sol\":11103:11139  a.t.yesComp.balanceOf(address(this)) */\n      dup3\n      add\n        /* \"contracts/FutarchyArbExecutorV4.sol\":711:18294  contract FutarchyArbExecutorV4 {... */\n      mstore\n      swap2\n      swap1\n        /* \"contracts/FutarchyArbExecutorV4.sol\":10513:10520  a.t.cur */\n      0x20\n      swap1\n        /* \"contracts/FutarchyArbExecutorV4.sol\":711:18294  contract FutarchyArbExecutorV4 {... */\n      dup4\n      swap1\n      0x24\n      swap1\n      dup3\n      swap1\n        /* \"contracts/FutarchyArbExecutorV4.sol\":11103:11139  a.t.yesComp.balanceOf(address(this)) */\n      gas\n      staticcall\n      dup1\n      iszero\n      tag_160\n      jumpi\n        /* \"contracts/FutarchyArbExecutorV4.sol\":11103:11151  a.t.yesComp.balanceOf(address(this)) - yesBefore */\n      tag_278\n        /* \"contracts/FutarchyArbExecutorV4.sol\":11103:11139  a.t.yesComp.balanceOf(address(this)) */\n      swap3\n        /* \"contracts/FutarchyArbExecutorV4.sol\":10513:10516  a.t */\n      0x00\n        /* \"contracts/FutarchyArbExecutorV4.sol\":11103:11139  a.t.yesComp.balanceOf(address(this)) */\n      swap2\n      tag_418\n      jumpi\n        /* \"contracts/FutarchyArbExecutorV4.sol\":711:18294  contract FutarchyArbExecutorV4 {... */\n    tag_280:\n        /* \"contracts/FutarchyArbExecutorV4.sol\":11103:11151  a.t.yesComp.balanceOf(address(this)) - yesBefore */\n      pop\n      tag_52\n      jump\t// in\n    tag_278:\n        /* \"contracts/FutarchyArbExecutorV4.sol\":11180:11190  a.t.noComp */\n      swap1\n        /* \"contracts/FutarchyArbExecutorV4.sol\":11180:11200  a.t.noComp.balanceOf */\n      tag_281\n        /* \"contracts/FutarchyArbExecutorV4.sol\":11180:11190  a.t.noComp */\n      tag_232\n      dup6\n      tag_47\n      jump\t// in\n        /* \"contracts/FutarchyArbExecutorV4.sol\":11180:11200  a.t.noComp.balanceOf */\n    tag_281:\n        /* \"contracts/FutarchyArbExecutorV4.sol\":711:18294  contract FutarchyArbExecutorV4 {... */\n      mload(0x40)\n      shl(0xe0, 0x70a08231)\n        /* \"contracts/FutarchyArbExecutorV4.sol\":11180:11215  a.t.noComp.balanceOf(address(this)) */\n      dup2\n      mstore\n        /* \"contracts/FutarchyArbExecutorV4.sol\":10463:10467  this */\n      address\n        /* \"contracts/FutarchyArbExecutorV4.sol\":711:18294  contract FutarchyArbExecutorV4 {... */\n      0x04\n        /* \"contracts/FutarchyArbExecutorV4.sol\":11180:11215  a.t.noComp.balanceOf(address(this)) */\n      dup3\n      add\n        /* \"contracts/FutarchyArbExecutorV4.sol\":711:18294  contract FutarchyArbExecutorV4 {... */\n      mstore\n      swap1\n        /* \"contracts/FutarchyArbExecutorV4.sol\":10513:10520  a.t.cur */\n      0x20\n      swap1\n        /* \"contracts/FutarchyArbExecutorV4.sol\":711:18294  contract FutarchyArbExecutorV4 {... */\n      dup3\n      swap1\n      0x24\n      swap1\n      dup3\n      swap1\n        /* \"contracts/FutarchyArbExecutorV4.sol\":11180:11215  a.t.noComp.balanceOf(address(this)) */\n      gas\n      staticcall\n      swap1\n      dup2\n      iszero\n      tag_160\n      jumpi\n      dup12\n      swap3\n      dup4\n      swap3\n        /* \"contracts/FutarchyArbExecutorV4.sol\":11180:11226  a.t.noComp.balanceOf(address(this)) - noBefore */\n      tag_286\n        /* \"contracts/FutarchyArbExecutorV4.sol\":11180:11215  a.t.noComp.balanceOf(address(this)) */\n      swap3\n        /* \"contracts/FutarchyArbExecutorV4.sol\":10513:10516  a.t */\n      0x00\n        /* \"contracts/FutarchyArbExecutorV4.sol\":11180:11215  a.t.noComp.balanceOf(address(this)) */\n      swap2\n      tag_418\n      jumpi\n        /* \"contracts/FutarchyArbExecutorV4.sol\":11180:11226  a.t.noComp.balanceOf(address(this)) - noBefore */\n      pop\n      tag_52\n      jump\t// in\n    tag_286:\n        /* \"contracts/FutarchyArbExecutorV4.sol\":11240:11259  yesMinted < compOut */\n      swap3\n      lt\n        /* \"contracts/FutarchyArbExecutorV4.sol\":11240:11281  yesMinted < compOut || noMinted < compOut */\n      swap2\n      dup3\n      iszero\n      tag_289\n      jumpi\n        /* \"contracts/FutarchyArbExecutorV4.sol\":711:18294  contract FutarchyArbExecutorV4 {... */\n    tag_290:\n        /* \"contracts/FutarchyArbExecutorV4.sol\":11236:11301  if (yesMinted < compOut || noMinted < compOut) revert UnderMint() */\n      pop\n      pop\n      tag_291\n      jumpi\n        /* \"contracts/FutarchyArbExecutorV4.sol\":11470:11477  compOut */\n      tag_293\n        /* \"contracts/FutarchyArbExecutorV4.sol\":11380:11391  a.t.yesComp */\n      swap2\n        /* \"contracts/FutarchyArbExecutorV4.sol\":11455:11468  a.swapSpender */\n      tag_246\n        /* \"contracts/FutarchyArbExecutorV4.sol\":11443:11453  a.t.noComp */\n      tag_295\n        /* \"contracts/FutarchyArbExecutorV4.sol\":11380:11391  a.t.yesComp */\n      tag_296\n      dup12\n      swap5\n      tag_47\n      jump\t// in\n    tag_296:\n        /* \"contracts/FutarchyArbExecutorV4.sol\":11393:11406  a.swapSpender */\n      swap3\n        /* \"contracts/FutarchyArbExecutorV4.sol\":11408:11415  compOut */\n      tag_297\n        /* \"contracts/FutarchyArbExecutorV4.sol\":11393:11406  a.swapSpender */\n      dup6\n      0x0260\n      dup12\n      add\n      swap6\n      tag_246\n      dup8\n      tag_47\n      jump\t// in\n        /* \"contracts/FutarchyArbExecutorV4.sol\":11408:11415  compOut */\n    tag_297:\n        /* \"contracts/FutarchyArbExecutorV4.sol\":11443:11453  a.t.noComp */\n      tag_47\n      jump\t// in\n    tag_295:\n        /* \"contracts/FutarchyArbExecutorV4.sol\":11455:11468  a.swapSpender */\n      swap2\n      tag_47\n      jump\t// in\n        /* \"contracts/FutarchyArbExecutorV4.sol\":11470:11477  compOut */\n    tag_293:\n        /* \"contracts/FutarchyArbExecutorV4.sol\":11510:11520  a.t.yesCur */\n      0x80\n      dup4\n      add\n      swap2\n        /* \"contracts/FutarchyArbExecutorV4.sol\":11510:11530  a.t.yesCur.balanceOf */\n      tag_299\n        /* \"contracts/FutarchyArbExecutorV4.sol\":11510:11520  a.t.yesCur */\n      tag_232\n      dup5\n      tag_47\n      jump\t// in\n        /* \"contracts/FutarchyArbExecutorV4.sol\":11510:11530  a.t.yesCur.balanceOf */\n    tag_299:\n        /* \"contracts/FutarchyArbExecutorV4.sol\":711:18294  contract FutarchyArbExecutorV4 {... */\n      mload(0x40)\n      shl(0xe0, 0x70a08231)\n        /* \"contracts/FutarchyArbExecutorV4.sol\":11510:11545  a.t.yesCur.balanceOf(address(this)) */\n      dup2\n      mstore\n        /* \"contracts/FutarchyArbExecutorV4.sol\":10463:10467  this */\n      address\n        /* \"contracts/FutarchyArbExecutorV4.sol\":711:18294  contract FutarchyArbExecutorV4 {... */\n      0x04\n        /* \"contracts/FutarchyArbExecutorV4.sol\":11510:11545  a.t.yesCur.balanceOf(address(this)) */\n      dup3\n      add\n        /* \"contracts/FutarchyArbExecutorV4.sol\":711:18294  contract FutarchyArbExecutorV4 {... */\n      mstore\n      swap1\n        /* \"contracts/FutarchyArbExecutorV4.sol\":10513:10520  a.t.cur */\n      0x20\n      swap1\n        /* \"contracts/FutarchyArbExecutorV4.sol\":711:18294  contract FutarchyArbExecutorV4 {... */\n      dup3\n      swap1\n      0x24\n      swap1\n      dup3\n      swap1\n        /* \"contracts/FutarchyArbExecutorV4.sol\":11510:11545  a.t.yesCur.balanceOf(address(this)) */\n      gas\n      staticcall\n      swap1\n      dup2\n      iszero\n      tag_160\n      jumpi\n        /* \"contracts/FutarchyArbExecutorV4.sol\":10513:10516  a.t */\n      0x00\n        /* \"contracts/FutarchyArbExecutorV4.sol\":11510:11545  a.t.yesCur.balanceOf(address(this)) */\n      swap2\n      tag_304\n      jumpi\n        /* \"contracts/FutarchyArbExecutorV4.sol\":711:18294  contract FutarchyArbExecutorV4 {... */\n    tag_305:\n        /* \"contracts/FutarchyArbExecutorV4.sol\":11565:11580  a.yesSwapTarget */\n      pop\n        /* \"contracts/FutarchyArbExecutorV4.sol\":11555:11599  _safeCall(a.yesSwapTarget, a.yesSwapData, 0) */\n      tag_306\n        /* \"contracts/FutarchyArbExecutorV4.sol\":11565:11580  a.yesSwapTarget */\n      tag_307\n      0x01e0\n      dup8\n      add\n      tag_47\n      jump\t// in\n    tag_307:\n        /* \"contracts/FutarchyArbExecutorV4.sol\":711:18294  contract FutarchyArbExecutorV4 {... */\n      tag_308\n        /* \"contracts/FutarchyArbExecutorV4.sol\":11582:11595  a.yesSwapData */\n      tag_309\n      0x0200\n      dup10\n      add\n      dup10\n      tag_53\n      jump\t// in\n    tag_309:\n        /* \"contracts/FutarchyArbExecutorV4.sol\":711:18294  contract FutarchyArbExecutorV4 {... */\n      calldatasize\n      swap2\n      tag_54\n      jump\t// in\n    tag_308:\n        /* \"contracts/FutarchyArbExecutorV4.sol\":11555:11599  _safeCall(a.yesSwapTarget, a.yesSwapData, 0) */\n      swap1\n      tag_81\n      jump\t// in\n    tag_306:\n        /* \"contracts/FutarchyArbExecutorV4.sol\":11629:11649  a.t.yesCur.balanceOf */\n      tag_310\n        /* \"contracts/FutarchyArbExecutorV4.sol\":11629:11639  a.t.yesCur */\n      tag_232\n      dup6\n      tag_47\n      jump\t// in\n        /* \"contracts/FutarchyArbExecutorV4.sol\":11629:11649  a.t.yesCur.balanceOf */\n    tag_310:\n        /* \"contracts/FutarchyArbExecutorV4.sol\":711:18294  contract FutarchyArbExecutorV4 {... */\n      mload(0x40)\n      shl(0xe0, 0x70a08231)\n        /* \"contracts/FutarchyArbExecutorV4.sol\":11629:11664  a.t.yesCur.balanceOf(address(this)) */\n      dup2\n      mstore\n        /* \"contracts/FutarchyArbExecutorV4.sol\":10463:10467  this */\n      address\n        /* \"contracts/FutarchyArbExecutorV4.sol\":711:18294  contract FutarchyArbExecutorV4 {... */\n      0x04\n        /* \"contracts/FutarchyArbExecutorV4.sol\":11629:11664  a.t.yesCur.balanceOf(address(this)) */\n      dup3\n      add\n        /* \"contracts/FutarchyArbExecutorV4.sol\":711:18294  contract FutarchyArbExecutorV4 {... */\n      mstore\n      swap2\n      swap1\n        /* \"contracts/FutarchyArbExecutorV4.sol\":10513:10520  a.t.cur */\n      0x20\n      swap1\n        /* \"contracts/FutarchyArbExecutorV4.sol\":711:18294  contract FutarchyArbExecutorV4 {... */\n      dup4\n      swap1\n      0x24\n      swap1\n      dup3\n      swap1\n        /* \"contracts/FutarchyArbExecutorV4.sol\":11629:11664  a.t.yesCur.balanceOf(address(this)) */\n      gas\n      staticcall\n      dup1\n      iszero\n      tag_160\n      jumpi\n        /* \"contracts/FutarchyArbExecutorV4.sol\":11629:11677  a.t.yesCur.balanceOf(address(this)) - yCurBefore */\n      tag_315\n        /* \"contracts/FutarchyArbExecutorV4.sol\":11629:11664  a.t.yesCur.balanceOf(address(this)) */\n      swap3\n        /* \"contracts/FutarchyArbExecutorV4.sol\":10513:10516  a.t */\n      0x00\n        /* \"contracts/FutarchyArbExecutorV4.sol\":11629:11664  a.t.yesCur.balanceOf(address(this)) */\n      swap2\n      tag_418\n      jumpi\n        /* \"contracts/FutarchyArbExecutorV4.sol\":11629:11677  a.t.yesCur.balanceOf(address(this)) - yCurBefore */\n      pop\n      tag_52\n      jump\t// in\n    tag_315:\n        /* \"contracts/FutarchyArbExecutorV4.sol\":11703:11717  a.minYesCurOut */\n      swap5\n      0x0280\n      dup6\n      add\n        /* \"contracts/FutarchyArbExecutorV4.sol\":711:18294  contract FutarchyArbExecutorV4 {... */\n      calldataload\n        /* \"contracts/FutarchyArbExecutorV4.sol\":11691:11717  yesCurOut < a.minYesCurOut */\n      dup7\n      lt\n        /* \"contracts/FutarchyArbExecutorV4.sol\":11687:11740  if (yesCurOut < a.minYesCurOut) revert LowYesCurOut() */\n      tag_318\n      jumpi\n        /* \"contracts/FutarchyArbExecutorV4.sol\":11772:11781  a.t.noCur */\n      0xa0\n      dup6\n      add\n      swap2\n        /* \"contracts/FutarchyArbExecutorV4.sol\":11772:11791  a.t.noCur.balanceOf */\n      tag_320\n        /* \"contracts/FutarchyArbExecutorV4.sol\":11772:11781  a.t.noCur */\n      tag_232\n      dup5\n      tag_47\n      jump\t// in\n        /* \"contracts/FutarchyArbExecutorV4.sol\":11772:11791  a.t.noCur.balanceOf */\n    tag_320:\n        /* \"contracts/FutarchyArbExecutorV4.sol\":711:18294  contract FutarchyArbExecutorV4 {... */\n      mload(0x40)\n      shl(0xe0, 0x70a08231)\n        /* \"contracts/FutarchyArbExecutorV4.sol\":11772:11806  a.t.noCur.balanceOf(address(this)) */\n      dup2\n      mstore\n        /* \"contracts/FutarchyArbExecutorV4.sol\":10463:10467  this */\n      address\n        /* \"contracts/FutarchyArbExecutorV4.sol\":711:18294  contract FutarchyArbExecutorV4 {... */\n      0x04\n        /* \"contracts/FutarchyArbExecutorV4.sol\":11772:11806  a.t.noCur.balanceOf(address(this)) */\n      dup3\n      add\n        /* \"contracts/FutarchyArbExecutorV4.sol\":711:18294  contract FutarchyArbExecutorV4 {... */\n      mstore\n      swap1\n        /* \"contracts/FutarchyArbExecutorV4.sol\":10513:10520  a.t.cur */\n      0x20\n      swap1\n        /* \"contracts/FutarchyArbExecutorV4.sol\":711:18294  contract FutarchyArbExecutorV4 {... */\n      dup3\n      swap1\n      0x24\n      swap1\n      dup3\n      swap1\n        /* \"contracts/FutarchyArbExecutorV4.sol\":11772:11806  a.t.noCur.balanceOf(address(this)) */\n      gas\n      staticcall\n      swap1\n      dup2\n      iszero\n      tag_160\n      jumpi\n        /* \"contracts/FutarchyArbExecutorV4.sol\":10513:10516  a.t */\n      0x00\n        /* \"contracts/FutarchyArbExecutorV4.sol\":11772:11806  a.t.noCur.balanceOf(address(this)) */\n      swap2\n      tag_325\n      jumpi\n        /* \"contracts/FutarchyArbExecutorV4.sol\":711:18294  contract FutarchyArbExecutorV4 {... */\n    tag_326:\n        /* \"contracts/FutarchyArbExecutorV4.sol\":11826:11840  a.noSwapTarget */\n      pop\n        /* \"contracts/FutarchyArbExecutorV4.sol\":11816:11858  _safeCall(a.noSwapTarget, a.noSwapData, 0) */\n      tag_327\n        /* \"contracts/FutarchyArbExecutorV4.sol\":11826:11840  a.noSwapTarget */\n      tag_328\n      0x0220\n      dup10\n      add\n      tag_47\n      jump\t// in\n    tag_328:\n        /* \"contracts/FutarchyArbExecutorV4.sol\":711:18294  contract FutarchyArbExecutorV4 {... */\n      tag_308\n        /* \"contracts/FutarchyArbExecutorV4.sol\":11842:11854  a.noSwapData */\n      tag_309\n      0x0240\n      dup12\n      add\n      dup12\n      tag_53\n      jump\t// in\n        /* \"contracts/FutarchyArbExecutorV4.sol\":11816:11858  _safeCall(a.noSwapTarget, a.noSwapData, 0) */\n    tag_327:\n        /* \"contracts/FutarchyArbExecutorV4.sol\":11887:11906  a.t.noCur.balanceOf */\n      tag_331\n        /* \"contracts/FutarchyArbExecutorV4.sol\":11887:11896  a.t.noCur */\n      tag_232\n      dup6\n      tag_47\n      jump\t// in\n        /* \"contracts/FutarchyArbExecutorV4.sol\":11887:11906  a.t.noCur.balanceOf */\n    tag_331:\n        /* \"contracts/FutarchyArbExecutorV4.sol\":711:18294  contract FutarchyArbExecutorV4 {... */\n      mload(0x40)\n      shl(0xe0, 0x70a08231)\n        /* \"contracts/FutarchyArbExecutorV4.sol\":11887:11921  a.t.noCur.balanceOf(address(this)) */\n      dup2\n      mstore\n        /* \"contracts/FutarchyArbExecutorV4.sol\":10463:10467  this */\n      address\n        /* \"contracts/FutarchyArbExecutorV4.sol\":711:18294  contract FutarchyArbExecutorV4 {... */\n      0x04\n        /* \"contracts/FutarchyArbExecutorV4.sol\":11887:11921  a.t.noCur.balanceOf(address(this)) */\n      dup3\n      add\n        /* \"contracts/FutarchyArbExecutorV4.sol\":711:18294  contract FutarchyArbExecutorV4 {... */\n      mstore\n      swap2\n      swap1\n        /* \"contracts/FutarchyArbExecutorV4.sol\":10513:10520  a.t.cur */\n      0x20\n      swap1\n        /* \"contracts/FutarchyArbExecutorV4.sol\":711:18294  contract FutarchyArbExecutorV4 {... */\n      dup4\n      swap1\n      0x24\n      swap1\n      dup3\n      swap1\n        /* \"contracts/FutarchyArbExecutorV4.sol\":11887:11921  a.t.noCur.balanceOf(address(this)) */\n      gas\n      staticcall\n      dup1\n      iszero\n      tag_160\n      jumpi\n        /* \"contracts/FutarchyArbExecutorV4.sol\":11887:11934  a.t.noCur.balanceOf(address(this)) - nCurBefore */\n      tag_336\n        /* \"contracts/FutarchyArbExecutorV4.sol\":11887:11921  a.t.noCur.balanceOf(address(this)) */\n      swap3\n        /* \"contracts/FutarchyArbExecutorV4.sol\":10513:10516  a.t */\n      0x00\n        /* \"contracts/FutarchyArbExecutorV4.sol\":11887:11921  a.t.noCur.balanceOf(address(this)) */\n      swap2\n      tag_418\n      jumpi\n        /* \"contracts/FutarchyArbExecutorV4.sol\":11887:11934  a.t.noCur.balanceOf(address(this)) - nCurBefore */\n      pop\n      tag_52\n      jump\t// in\n    tag_336:\n        /* \"contracts/FutarchyArbExecutorV4.sol\":11959:11972  a.minNoCurOut */\n      swap10\n      0x02a0\n      dup8\n      add\n        /* \"contracts/FutarchyArbExecutorV4.sol\":711:18294  contract FutarchyArbExecutorV4 {... */\n      calldataload\n        /* \"contracts/FutarchyArbExecutorV4.sol\":11948:11972  noCurOut < a.minNoCurOut */\n      dup12\n      lt\n        /* \"contracts/FutarchyArbExecutorV4.sol\":11944:11994  if (noCurOut < a.minNoCurOut) revert LowNoCurOut() */\n      tag_339\n      jumpi\n        /* \"contracts/FutarchyArbExecutorV4.sol\":12048:12068  yesCurOut < noCurOut */\n      dup11\n      dup9\n      lt\n      iszero\n      tag_341\n      jumpi\n        /* \"contracts/FutarchyArbExecutorV4.sol\":12048:12091  yesCurOut < noCurOut ? yesCurOut : noCurOut */\n      dup8\n      swap2\n    tag_343:\n        /* \"contracts/FutarchyArbExecutorV4.sol\":12105:12118  mergeAmt == 0 */\n      dup3\n      iszero\n        /* \"contracts/FutarchyArbExecutorV4.sol\":12101:12143  if (mergeAmt == 0) revert NothingToMerge() */\n      tag_344\n      jumpi\n        /* \"contracts/FutarchyArbExecutorV4.sol\":12290:12315  a.f.router.mergePositions */\n      tag_295\n        /* \"contracts/FutarchyArbExecutorV4.sol\":12290:12300  a.f.router */\n      tag_232\n        /* \"contracts/FutarchyArbExecutorV4.sol\":12316:12328  a.f.proposal */\n      tag_348\n        /* \"contracts/FutarchyArbExecutorV4.sol\":12170:12180  a.t.yesCur */\n      swap3\n        /* \"contracts/FutarchyArbExecutorV4.sol\":12203:12211  mergeAmt */\n      tag_349\n        /* \"contracts/FutarchyArbExecutorV4.sol\":12170:12180  a.t.yesCur */\n      dup7\n      tag_350\n      dup13\n      tag_47\n      jump\t// in\n    tag_350:\n        /* \"contracts/FutarchyArbExecutorV4.sol\":12182:12201  address(a.f.router) */\n      tag_246\n        /* \"contracts/FutarchyArbExecutorV4.sol\":12190:12200  a.f.router */\n      tag_232\n      dup6\n      tag_47\n      jump\t// in\n        /* \"contracts/FutarchyArbExecutorV4.sol\":12203:12211  mergeAmt */\n    tag_349:\n        /* \"contracts/FutarchyArbExecutorV4.sol\":12271:12279  mergeAmt */\n      tag_297\n        /* \"contracts/FutarchyArbExecutorV4.sol\":12239:12248  a.t.noCur */\n      dup7\n      tag_350\n      dup11\n      tag_47\n      jump\t// in\n        /* \"contracts/FutarchyArbExecutorV4.sol\":12316:12328  a.f.proposal */\n    tag_348:\n        /* \"contracts/FutarchyArbExecutorV4.sol\":12330:12337  a.t.cur */\n      tag_357\n      dup7\n      tag_47\n      jump\t// in\n    tag_357:\n        /* \"contracts/FutarchyArbExecutorV4.sol\":12290:12348  a.f.router.mergePositions(a.f.proposal, a.t.cur, mergeAmt) */\n      swap1\n      dup3\n      extcodesize\n      iszero\n      tag_114\n      jumpi\n        /* \"contracts/FutarchyArbExecutorV4.sol\":711:18294  contract FutarchyArbExecutorV4 {... */\n      mload(0x40)\n      shl(0xe0, 0x7abef8d1)\n        /* \"contracts/FutarchyArbExecutorV4.sol\":12290:12348  a.f.router.mergePositions(a.f.proposal, a.t.cur, mergeAmt) */\n      dup2\n      mstore\n      sub(shl(0xa0, 0x01), 0x01)\n        /* \"contracts/FutarchyArbExecutorV4.sol\":711:18294  contract FutarchyArbExecutorV4 {... */\n      swap2\n      dup3\n      and\n      0x04\n        /* \"contracts/FutarchyArbExecutorV4.sol\":12290:12348  a.f.router.mergePositions(a.f.proposal, a.t.cur, mergeAmt) */\n      dup3\n      add\n        /* \"contracts/FutarchyArbExecutorV4.sol\":711:18294  contract FutarchyArbExecutorV4 {... */\n      mstore\n      swap2\n      and\n      0x24\n      dup3\n      add\n      mstore\n      0x44\n      dup2\n      add\n      dup4\n      swap1\n      mstore\n      swap1\n      0x00\n      swap1\n      dup3\n      swap1\n      0x64\n      swap1\n      dup3\n      swap1\n      dup5\n      swap1\n        /* \"contracts/FutarchyArbExecutorV4.sol\":12290:12348  a.f.router.mergePositions(a.f.proposal, a.t.cur, mergeAmt) */\n      gas\n      call\n      dup1\n      iszero\n      tag_160\n      jumpi\n      tag_363\n      jumpi\n        /* \"contracts/FutarchyArbExecutorV4.sol\":12048:12091  yesCurOut < noCurOut ? yesCurOut : noCurOut */\n    tag_364:\n        /* \"contracts/FutarchyArbExecutorV4.sol\":12432:12452  yesCurOut - mergeAmt */\n      pop\n      tag_365\n      dup2\n      dup9\n      tag_52\n      jump\t// in\n    tag_365:\n        /* \"contracts/FutarchyArbExecutorV4.sol\":12479:12498  noCurOut - mergeAmt */\n      swap2\n      tag_366\n      dup3\n      dup13\n      tag_52\n      jump\t// in\n    tag_366:\n        /* \"contracts/FutarchyArbExecutorV4.sol\":12509:12526  uint256 liqYesOut */\n      swap5\n        /* \"contracts/FutarchyArbExecutorV4.sol\":10513:10516  a.t */\n      0x00\n        /* \"contracts/FutarchyArbExecutorV4.sol\":12536:12552  uint256 liqNoOut */\n      swap5\n        /* \"contracts/FutarchyArbExecutorV4.sol\":10513:10516  a.t */\n      0x00\n        /* \"contracts/FutarchyArbExecutorV4.sol\":12567:12578  leftYes > 0 */\n      swap8\n      dup6\n        /* \"contracts/FutarchyArbExecutorV4.sol\":12563:13023  if (leftYes > 0) {... */\n      tag_367\n      jumpi\n        /* \"contracts/FutarchyArbExecutorV4.sol\":12048:12091  yesCurOut < noCurOut ? yesCurOut : noCurOut */\n    tag_368:\n        /* \"contracts/FutarchyArbExecutorV4.sol\":13036:13046  leftNo > 0 */\n      pop\n      dup7\n        /* \"contracts/FutarchyArbExecutorV4.sol\":13032:13481  if (leftNo > 0) {... */\n      tag_369\n      jumpi\n        /* \"contracts/FutarchyArbExecutorV4.sol\":12048:12091  yesCurOut < noCurOut ? yesCurOut : noCurOut */\n    tag_370:\n        /* \"contracts/FutarchyArbExecutorV4.sol\":13552:13559  a.t.cur */\n      pop\n      tag_232\n        /* \"contracts/FutarchyArbExecutorV4.sol\":13552:13569  a.t.cur.balanceOf */\n      tag_372\n        /* \"contracts/FutarchyArbExecutorV4.sol\":13552:13559  a.t.cur */\n      swap2\n      tag_47\n      jump\t// in\n        /* \"contracts/FutarchyArbExecutorV4.sol\":13552:13569  a.t.cur.balanceOf */\n    tag_372:\n        /* \"contracts/FutarchyArbExecutorV4.sol\":711:18294  contract FutarchyArbExecutorV4 {... */\n      mload(0x40)\n      shl(0xe0, 0x70a08231)\n        /* \"contracts/FutarchyArbExecutorV4.sol\":13552:13584  a.t.cur.balanceOf(address(this)) */\n      dup2\n      mstore\n        /* \"contracts/FutarchyArbExecutorV4.sol\":10463:10467  this */\n      address\n        /* \"contracts/FutarchyArbExecutorV4.sol\":711:18294  contract FutarchyArbExecutorV4 {... */\n      0x04\n        /* \"contracts/FutarchyArbExecutorV4.sol\":13552:13584  a.t.cur.balanceOf(address(this)) */\n      dup3\n      add\n        /* \"contracts/FutarchyArbExecutorV4.sol\":711:18294  contract FutarchyArbExecutorV4 {... */\n      mstore\n      swap1\n        /* \"contracts/FutarchyArbExecutorV4.sol\":10513:10520  a.t.cur */\n      0x20\n      swap1\n        /* \"contracts/FutarchyArbExecutorV4.sol\":711:18294  contract FutarchyArbExecutorV4 {... */\n      dup3\n      swap1\n      0x24\n      swap1\n      dup3\n      swap1\n        /* \"contracts/FutarchyArbExecutorV4.sol\":13552:13584  a.t.cur.balanceOf(address(this)) */\n      gas\n      staticcall\n      swap1\n      dup2\n      iszero\n      tag_160\n      jumpi\n        /* \"contracts/FutarchyArbExecutorV4.sol\":10513:10516  a.t */\n      0x00\n        /* \"contracts/FutarchyArbExecutorV4.sol\":13552:13584  a.t.cur.balanceOf(address(this)) */\n      swap2\n      tag_376\n      jumpi\n        /* \"contracts/FutarchyArbExecutorV4.sol\":12048:12091  yesCurOut < noCurOut ? yesCurOut : noCurOut */\n    tag_377:\n      pop\n      sub(shl(0xff, 0x01), 0x01)\n        /* \"contracts/FutarchyArbExecutorV4.sol\":13598:13634  curFinal > uint256(type(int256).max) */\n      dup2\n      gt\n        /* \"contracts/FutarchyArbExecutorV4.sol\":13598:13670  curFinal > uint256(type(int256).max) || cur0 > uint256(type(int256).max) */\n      dup1\n      iszero\n      tag_378\n      jumpi\n        /* \"contracts/FutarchyArbExecutorV4.sol\":12048:12091  yesCurOut < noCurOut ? yesCurOut : noCurOut */\n    tag_379:\n        /* \"contracts/FutarchyArbExecutorV4.sol\":13594:13696  if (curFinal > uint256(type(int256).max) || cur0 > uint256(type(int256).max)) revert BalanceTooLarge() */\n      tag_380\n      jumpi\n        /* \"contracts/FutarchyArbExecutorV4.sol\":13828:13839  a.minNetCur */\n      0x0320\n        /* \"contracts/FutarchyArbExecutorV4.sol\":13777:13808  int256(curFinal) - int256(cur0) */\n      swap2\n      tag_382\n      swap2\n      tag_57\n      jump\t// in\n    tag_382:\n        /* \"contracts/FutarchyArbExecutorV4.sol\":13828:13839  a.minNetCur */\n      swap7\n      add\n        /* \"contracts/FutarchyArbExecutorV4.sol\":711:18294  contract FutarchyArbExecutorV4 {... */\n      calldataload\n        /* \"contracts/FutarchyArbExecutorV4.sol\":13822:13839  net < a.minNetCur */\n      dup7\n      slt\n        /* \"contracts/FutarchyArbExecutorV4.sol\":13818:13870  if (net < a.minNetCur) revert NetCurBelowTolerance() */\n      tag_383\n      jumpi\n        /* \"contracts/FutarchyArbExecutorV4.sol\":13886:14027  SellExecuted(... */\n      0xca4202436e8d09dae0f884d1f04d2b4a4b2e34472419c7d71435f525d1e2d681\n        /* \"contracts/FutarchyArbExecutorV4.sol\":711:18294  contract FutarchyArbExecutorV4 {... */\n      swap10\n        /* \"contracts/FutarchyArbExecutorV4.sol\":13886:14027  SellExecuted(... */\n      tag_385\n        /* \"contracts/FutarchyArbExecutorV4.sol\":711:18294  contract FutarchyArbExecutorV4 {... */\n      swap8\n      dup11\n      mload(0x40)\n        /* \"contracts/FutarchyArbExecutorV4.sol\":13886:14027  SellExecuted(... */\n      swap12\n      dup13\n      swap12\n      dup13\n        /* \"contracts/FutarchyArbExecutorV4.sol\":711:18294  contract FutarchyArbExecutorV4 {... */\n      swap8\n      swap5\n      swap2\n      swap3\n      0x0140\n      swap10\n      swap7\n      swap4\n      swap13\n      swap12\n      swap11\n      swap8\n      swap5\n      swap2\n      swap13\n      0x0160\n      dup11\n      add\n      swap14\n      dup11\n      mstore\n      0x20\n      dup11\n      add\n      mstore\n      0x40\n      dup10\n      add\n      mstore\n      0x60\n      dup9\n      add\n      mstore\n      0x80\n      dup8\n      add\n      mstore\n      0xa0\n      dup7\n      add\n      mstore\n      0xc0\n      dup6\n      add\n      mstore\n      0xe0\n      dup5\n      add\n      mstore\n      0x0100\n      dup4\n      add\n      mstore\n      0x0120\n      dup3\n      add\n      mstore\n      add\n      mstore\n      jump\n        /* \"contracts/FutarchyArbExecutorV4.sol\":13886:14027  SellExecuted(... */\n    tag_385:\n      sub\n      swap1\n      log1\n        /* \"contracts/FutarchyArbExecutorV4.sol\":711:18294  contract FutarchyArbExecutorV4 {... */\n      stop\n        /* \"contracts/FutarchyArbExecutorV4.sol\":13818:13870  if (net < a.minNetCur) revert NetCurBelowTolerance() */\n    tag_383:\n        /* \"contracts/FutarchyArbExecutorV4.sol\":13848:13870  NetCurBelowTolerance() */\n      shl(0xe0, 0xd9b3452f)\n        /* \"contracts/FutarchyArbExecutorV4.sol\":10513:10516  a.t */\n      0x00\n        /* \"contracts/FutarchyArbExecutorV4.sol\":13848:13870  NetCurBelowTolerance() */\n      mstore\n        /* \"contracts/FutarchyArbExecutorV4.sol\":711:18294  contract FutarchyArbExecutorV4 {... */\n      0x04\n        /* \"contracts/FutarchyArbExecutorV4.sol\":10513:10516  a.t */\n      0x00\n        /* \"contracts/FutarchyArbExecutorV4.sol\":13848:13870  NetCurBelowTolerance() */\n      revert\n        /* \"contracts/FutarchyArbExecutorV4.sol\":13594:13696  if (curFinal > uint256(type(int256).max) || cur0 > uint256(type(int256).max)) revert BalanceTooLarge() */\n    tag_380:\n        /* \"contracts/FutarchyArbExecutorV4.sol\":13679:13696  BalanceTooLarge() */\n      shl(0xe1, 0x0748aac7)\n        /* \"contracts/FutarchyArbExecutorV4.sol\":10513:10516  a.t */\n      0x00\n        /* \"contracts/FutarchyArbExecutorV4.sol\":13679:13696  BalanceTooLarge() */\n      mstore\n        /* \"contracts/FutarchyArbExecutorV4.sol\":711:18294  contract FutarchyArbExecutorV4 {... */\n      0x04\n        /* \"contracts/FutarchyArbExecutorV4.sol\":10513:10516  a.t */\n      0x00\n        /* \"contracts/FutarchyArbExecutorV4.sol\":13679:13696  BalanceTooLarge() */\n      revert\n        /* \"contracts/FutarchyArbExecutorV4.sol\":13598:13670  curFinal > uint256(type(int256).max) || cur0 > uint256(type(int256).max) */\n    tag_378:\n      pop\n      sub(shl(0xff, 0x01), 0x01)\n        /* \"contracts/FutarchyArbExecutorV4.sol\":13638:13670  cur0 > uint256(type(int256).max) */\n      dup3\n      gt\n        /* \"contracts/FutarchyArbExecutorV4.sol\":13598:13670  curFinal > uint256(type(int256).max) || cur0 > uint256(type(int256).max) */\n      jump(tag_379)\n        /* \"contracts/FutarchyArbExecutorV4.sol\":13552:13584  a.t.cur.balanceOf(address(this)) */\n    tag_376:\n      tag_386\n      swap2\n      pop\n        /* \"contracts/FutarchyArbExecutorV4.sol\":10513:10520  a.t.cur */\n      0x20\n        /* \"contracts/FutarchyArbExecutorV4.sol\":13552:13584  a.t.cur.balanceOf(address(this)) */\n      returndatasize\n        /* \"contracts/FutarchyArbExecutorV4.sol\":10513:10520  a.t.cur */\n      0x20\n        /* \"contracts/FutarchyArbExecutorV4.sol\":13552:13584  a.t.cur.balanceOf(address(this)) */\n      gt\n      tag_387\n      jumpi\n    tag_388:\n      tag_389\n      dup2\n      dup4\n      tag_24\n      jump\t// in\n    tag_389:\n      dup2\n      add\n      swap1\n      tag_48\n      jump\t// in\n    tag_386:\n      0x00\n      jump(tag_377)\n    tag_387:\n      pop\n      returndatasize\n      jump(tag_388)\n        /* \"contracts/FutarchyArbExecutorV4.sol\":13032:13481  if (leftNo > 0) {... */\n    tag_369:\n        /* \"contracts/FutarchyArbExecutorV4.sol\":13104:13110  leftNo */\n      tag_390\n        /* \"contracts/FutarchyArbExecutorV4.sol\":13079:13088  a.t.noCur */\n      swap2\n      swap8\n      pop\n      tag_391\n      dup8\n      swap2\n      tag_47\n      jump\t// in\n    tag_391:\n        /* \"contracts/FutarchyArbExecutorV4.sol\":13090:13102  a.liqSpender */\n      tag_246\n      0x02c0\n      dup12\n      add\n      tag_47\n      jump\t// in\n        /* \"contracts/FutarchyArbExecutorV4.sol\":13104:13110  leftNo */\n    tag_390:\n        /* \"contracts/FutarchyArbExecutorV4.sol\":13142:13159  a.t.cur.balanceOf */\n      tag_393\n        /* \"contracts/FutarchyArbExecutorV4.sol\":13142:13149  a.t.cur */\n      tag_232\n      dup8\n      tag_47\n      jump\t// in\n        /* \"contracts/FutarchyArbExecutorV4.sol\":13142:13159  a.t.cur.balanceOf */\n    tag_393:\n        /* \"contracts/FutarchyArbExecutorV4.sol\":711:18294  contract FutarchyArbExecutorV4 {... */\n      mload(0x40)\n      shl(0xe0, 0x70a08231)\n        /* \"contracts/FutarchyArbExecutorV4.sol\":13142:13174  a.t.cur.balanceOf(address(this)) */\n      dup2\n      mstore\n        /* \"contracts/FutarchyArbExecutorV4.sol\":10463:10467  this */\n      address\n        /* \"contracts/FutarchyArbExecutorV4.sol\":711:18294  contract FutarchyArbExecutorV4 {... */\n      0x04\n        /* \"contracts/FutarchyArbExecutorV4.sol\":13142:13174  a.t.cur.balanceOf(address(this)) */\n      dup3\n      add\n        /* \"contracts/FutarchyArbExecutorV4.sol\":711:18294  contract FutarchyArbExecutorV4 {... */\n      mstore\n      swap1\n        /* \"contracts/FutarchyArbExecutorV4.sol\":10513:10520  a.t.cur */\n      0x20\n      swap1\n        /* \"contracts/FutarchyArbExecutorV4.sol\":711:18294  contract FutarchyArbExecutorV4 {... */\n      dup3\n      swap1\n      0x24\n      swap1\n      dup3\n      swap1\n        /* \"contracts/FutarchyArbExecutorV4.sol\":13142:13174  a.t.cur.balanceOf(address(this)) */\n      gas\n      staticcall\n      swap1\n      dup2\n      iszero\n      tag_160\n      jumpi\n        /* \"contracts/FutarchyArbExecutorV4.sol\":10513:10516  a.t */\n      0x00\n        /* \"contracts/FutarchyArbExecutorV4.sol\":13142:13174  a.t.cur.balanceOf(address(this)) */\n      swap2\n      tag_398\n      jumpi\n        /* \"contracts/FutarchyArbExecutorV4.sol\":13032:13481  if (leftNo > 0) {... */\n    tag_399:\n      pop\n        /* \"contracts/FutarchyArbExecutorV4.sol\":13386:13403  a.predNo.msgValue */\n      tag_400\n        /* \"contracts/FutarchyArbExecutorV4.sol\":13239:13247  a.predNo */\n      0x0300\n      dup10\n      add\n      dup10\n        /* \"contracts/FutarchyArbExecutorV4.sol\":711:18294  contract FutarchyArbExecutorV4 {... */\n      0x40\n        /* \"contracts/FutarchyArbExecutorV4.sol\":13386:13394  a.predNo */\n      tag_402\n        /* \"contracts/FutarchyArbExecutorV4.sol\":13366:13381  a.predNo.target */\n      tag_403\n        /* \"contracts/FutarchyArbExecutorV4.sol\":13366:13374  a.predNo */\n      tag_297\n        /* \"contracts/FutarchyArbExecutorV4.sol\":13239:13247  a.predNo */\n      dup6\n        /* \"contracts/FutarchyArbExecutorV4.sol\":13205:13342  _patchedCalldata(... */\n      tag_401\n        /* \"contracts/FutarchyArbExecutorV4.sol\":13239:13247  a.predNo */\n      dup15\n      dup8\n        /* \"contracts/FutarchyArbExecutorV4.sol\":13239:13252  a.predNo.data */\n      tag_405\n        /* \"contracts/FutarchyArbExecutorV4.sol\":13239:13247  a.predNo */\n      tag_406\n      dup6\n      dup4\n      tag_55\n      jump\t// in\n    tag_406:\n        /* \"contracts/FutarchyArbExecutorV4.sol\":10513:10520  a.t.cur */\n      0x20\n        /* \"contracts/FutarchyArbExecutorV4.sol\":13239:13252  a.predNo.data */\n      dup2\n      add\n      swap1\n      tag_53\n      jump\t// in\n    tag_405:\n        /* \"contracts/FutarchyArbExecutorV4.sol\":13254:13262  a.predNo */\n      swap3\n      swap1\n        /* \"contracts/FutarchyArbExecutorV4.sol\":711:18294  contract FutarchyArbExecutorV4 {... */\n      tag_407\n        /* \"contracts/FutarchyArbExecutorV4.sol\":10971:10981  a.t.noComp */\n      0x60\n        /* \"contracts/FutarchyArbExecutorV4.sol\":13254:13262  a.predNo */\n      tag_408\n      dup9\n      dup7\n      tag_55\n      jump\t// in\n    tag_408:\n        /* \"contracts/FutarchyArbExecutorV4.sol\":13254:13275  a.predNo.amountOffset */\n      add\n        /* \"contracts/FutarchyArbExecutorV4.sol\":711:18294  contract FutarchyArbExecutorV4 {... */\n      calldataload\n        /* \"contracts/FutarchyArbExecutorV4.sol\":13285:13293  a.predNo */\n      swap2\n        /* \"contracts/FutarchyArbExecutorV4.sol\":13308:13328  a.predNo.slippageBps */\n      tag_409\n        /* \"contracts/FutarchyArbExecutorV4.sol\":11772:11781  a.t.noCur */\n      0xa0\n        /* \"contracts/FutarchyArbExecutorV4.sol\":13308:13316  a.predNo */\n      tag_410\n        /* \"contracts/FutarchyArbExecutorV4.sol\":13285:13293  a.predNo */\n      dup11\n        /* \"contracts/FutarchyArbExecutorV4.sol\":11510:11520  a.t.yesCur */\n      0x80\n        /* \"contracts/FutarchyArbExecutorV4.sol\":13285:13293  a.predNo */\n      tag_411\n      dup3\n      dup12\n      tag_55\n      jump\t// in\n    tag_411:\n        /* \"contracts/FutarchyArbExecutorV4.sol\":13285:13306  a.predNo.minOutOffset */\n      add\n        /* \"contracts/FutarchyArbExecutorV4.sol\":711:18294  contract FutarchyArbExecutorV4 {... */\n      calldataload\n        /* \"contracts/FutarchyArbExecutorV4.sol\":13308:13316  a.predNo */\n      swap9\n      tag_55\n      jump\t// in\n    tag_410:\n        /* \"contracts/FutarchyArbExecutorV4.sol\":13308:13328  a.predNo.slippageBps */\n      add\n      tag_56\n      jump\t// in\n    tag_409:\n        /* \"contracts/FutarchyArbExecutorV4.sol\":711:18294  contract FutarchyArbExecutorV4 {... */\n      swap6\n      calldatasize\n      swap2\n      tag_54\n      jump\t// in\n    tag_407:\n        /* \"contracts/FutarchyArbExecutorV4.sol\":13205:13342  _patchedCalldata(... */\n      tag_84\n      jump\t// in\n    tag_401:\n        /* \"contracts/FutarchyArbExecutorV4.sol\":13366:13374  a.predNo */\n      swap6\n      tag_55\n      jump\t// in\n        /* \"contracts/FutarchyArbExecutorV4.sol\":13366:13381  a.predNo.target */\n    tag_403:\n        /* \"contracts/FutarchyArbExecutorV4.sol\":13386:13394  a.predNo */\n      swap4\n      dup14\n      tag_55\n      jump\t// in\n    tag_402:\n        /* \"contracts/FutarchyArbExecutorV4.sol\":13386:13403  a.predNo.msgValue */\n      add\n        /* \"contracts/FutarchyArbExecutorV4.sol\":711:18294  contract FutarchyArbExecutorV4 {... */\n      calldataload\n        /* \"contracts/FutarchyArbExecutorV4.sol\":13386:13403  a.predNo.msgValue */\n      swap2\n      tag_82\n      jump\t// in\n    tag_400:\n        /* \"contracts/FutarchyArbExecutorV4.sol\":13429:13446  a.t.cur.balanceOf */\n      tag_412\n        /* \"contracts/FutarchyArbExecutorV4.sol\":13429:13436  a.t.cur */\n      tag_232\n      dup9\n      tag_47\n      jump\t// in\n        /* \"contracts/FutarchyArbExecutorV4.sol\":13429:13446  a.t.cur.balanceOf */\n    tag_412:\n        /* \"contracts/FutarchyArbExecutorV4.sol\":711:18294  contract FutarchyArbExecutorV4 {... */\n      mload(0x40)\n      shl(0xe0, 0x70a08231)\n        /* \"contracts/FutarchyArbExecutorV4.sol\":13429:13461  a.t.cur.balanceOf(address(this)) */\n      dup2\n      mstore\n        /* \"contracts/FutarchyArbExecutorV4.sol\":10463:10467  this */\n      address\n        /* \"contracts/FutarchyArbExecutorV4.sol\":711:18294  contract FutarchyArbExecutorV4 {... */\n      0x04\n        /* \"contracts/FutarchyArbExecutorV4.sol\":13429:13461  a.t.cur.balanceOf(address(this)) */\n      dup3\n      add\n        /* \"contracts/FutarchyArbExecutorV4.sol\":711:18294  contract FutarchyArbExecutorV4 {... */\n      mstore\n      swap1\n        /* \"contracts/FutarchyArbExecutorV4.sol\":10513:10520  a.t.cur */\n      0x20\n      swap1\n        /* \"contracts/FutarchyArbExecutorV4.sol\":711:18294  contract FutarchyArbExecutorV4 {... */\n      dup3\n      swap1\n      0x24\n      swap1\n      dup3\n      swap1\n        /* \"contracts/FutarchyArbExecutorV4.sol\":13429:13461  a.t.cur.balanceOf(address(this)) */\n      gas\n      staticcall\n      swap1\n      dup2\n      iszero\n      tag_160\n      jumpi\n        /* \"contracts/FutarchyArbExecutorV4.sol\":13552:13569  a.t.cur.balanceOf */\n      tag_372\n        /* \"contracts/FutarchyArbExecutorV4.sol\":13429:13461  a.t.cur.balanceOf(address(this)) */\n      swap3\n        /* \"contracts/FutarchyArbExecutorV4.sol\":13552:13559  a.t.cur */\n      tag_232\n        /* \"contracts/FutarchyArbExecutorV4.sol\":13429:13461  a.t.cur.balanceOf(address(this)) */\n      swap3\n        /* \"contracts/FutarchyArbExecutorV4.sol\":13429:13470  a.t.cur.balanceOf(address(this)) - before */\n      tag_417\n        /* \"contracts/FutarchyArbExecutorV4.sol\":13429:13461  a.t.cur.balanceOf(address(this)) */\n      swap3\n        /* \"contracts/FutarchyArbExecutorV4.sol\":10513:10516  a.t */\n      0x00\n        /* \"contracts/FutarchyArbExecutorV4.sol\":13429:13461  a.t.cur.balanceOf(address(this)) */\n      swap2\n      tag_418\n      jumpi\n        /* \"contracts/FutarchyArbExecutorV4.sol\":13429:13470  a.t.cur.balanceOf(address(this)) - before */\n      pop\n      tag_52\n      jump\t// in\n    tag_417:\n        /* \"contracts/FutarchyArbExecutorV4.sol\":13032:13481  if (leftNo > 0) {... */\n      swap8\n      swap2\n      pop\n      jump(tag_370)\n        /* \"contracts/FutarchyArbExecutorV4.sol\":13429:13461  a.t.cur.balanceOf(address(this)) */\n    tag_418:\n      tag_420\n      swap2\n      pop\n        /* \"contracts/FutarchyArbExecutorV4.sol\":10513:10520  a.t.cur */\n      0x20\n        /* \"contracts/FutarchyArbExecutorV4.sol\":13429:13461  a.t.cur.balanceOf(address(this)) */\n      returndatasize\n        /* \"contracts/FutarchyArbExecutorV4.sol\":10513:10520  a.t.cur */\n      0x20\n        /* \"contracts/FutarchyArbExecutorV4.sol\":13429:13461  a.t.cur.balanceOf(address(this)) */\n      gt\n      tag_387\n      jumpi\n      tag_389\n      dup2\n      dup4\n      tag_24\n      jump\t// in\n    tag_420:\n      0x00\n      jump(tag_280)\n        /* \"contracts/FutarchyArbExecutorV4.sol\":13142:13174  a.t.cur.balanceOf(address(this)) */\n    tag_398:\n      tag_424\n      swap2\n      pop\n        /* \"contracts/FutarchyArbExecutorV4.sol\":10513:10520  a.t.cur */\n      0x20\n        /* \"contracts/FutarchyArbExecutorV4.sol\":13142:13174  a.t.cur.balanceOf(address(this)) */\n      returndatasize\n        /* \"contracts/FutarchyArbExecutorV4.sol\":10513:10520  a.t.cur */\n      0x20\n        /* \"contracts/FutarchyArbExecutorV4.sol\":13142:13174  a.t.cur.balanceOf(address(this)) */\n      gt\n      tag_387\n      jumpi\n      tag_389\n      dup2\n      dup4\n      tag_24\n      jump\t// in\n    tag_424:\n      0x00\n      jump(tag_399)\n        /* \"contracts/FutarchyArbExecutorV4.sol\":12563:13023  if (leftYes > 0) {... */\n    tag_367:\n        /* \"contracts/FutarchyArbExecutorV4.sol\":12637:12644  leftYes */\n      tag_428\n        /* \"contracts/FutarchyArbExecutorV4.sol\":12611:12621  a.t.yesCur */\n      swap2\n      swap7\n      pop\n      tag_429\n      dup7\n      swap2\n      tag_47\n      jump\t// in\n    tag_429:\n        /* \"contracts/FutarchyArbExecutorV4.sol\":12623:12635  a.liqSpender */\n      tag_246\n      0x02c0\n      dup13\n      add\n      tag_47\n      jump\t// in\n        /* \"contracts/FutarchyArbExecutorV4.sol\":12637:12644  leftYes */\n    tag_428:\n        /* \"contracts/FutarchyArbExecutorV4.sol\":12676:12693  a.t.cur.balanceOf */\n      tag_431\n        /* \"contracts/FutarchyArbExecutorV4.sol\":12676:12683  a.t.cur */\n      tag_232\n      dup3\n      tag_47\n      jump\t// in\n        /* \"contracts/FutarchyArbExecutorV4.sol\":12676:12693  a.t.cur.balanceOf */\n    tag_431:\n        /* \"contracts/FutarchyArbExecutorV4.sol\":711:18294  contract FutarchyArbExecutorV4 {... */\n      mload(0x40)\n      shl(0xe0, 0x70a08231)\n        /* \"contracts/FutarchyArbExecutorV4.sol\":12676:12708  a.t.cur.balanceOf(address(this)) */\n      dup2\n      mstore\n        /* \"contracts/FutarchyArbExecutorV4.sol\":10463:10467  this */\n      address\n        /* \"contracts/FutarchyArbExecutorV4.sol\":711:18294  contract FutarchyArbExecutorV4 {... */\n      0x04\n        /* \"contracts/FutarchyArbExecutorV4.sol\":12676:12708  a.t.cur.balanceOf(address(this)) */\n      dup3\n      add\n        /* \"contracts/FutarchyArbExecutorV4.sol\":711:18294  contract FutarchyArbExecutorV4 {... */\n      mstore\n      swap1\n        /* \"contracts/FutarchyArbExecutorV4.sol\":10513:10520  a.t.cur */\n      0x20\n      swap1\n        /* \"contracts/FutarchyArbExecutorV4.sol\":711:18294  contract FutarchyArbExecutorV4 {... */\n      dup3\n      swap1\n      0x24\n      swap1\n      dup3\n      swap1\n        /* \"contracts/FutarchyArbExecutorV4.sol\":12676:12708  a.t.cur.balanceOf(address(this)) */\n      gas\n      staticcall\n      swap1\n      dup2\n      iszero\n      tag_160\n      jumpi\n        /* \"contracts/FutarchyArbExecutorV4.sol\":10513:10516  a.t */\n      0x00\n        /* \"contracts/FutarchyArbExecutorV4.sol\":12676:12708  a.t.cur.balanceOf(address(this)) */\n      swap2\n      tag_436\n      jumpi\n        /* \"contracts/FutarchyArbExecutorV4.sol\":12563:13023  if (leftYes > 0) {... */\n    tag_437:\n        /* \"contracts/FutarchyArbExecutorV4.sol\":12773:12782  a.predYes */\n      pop\n        /* \"contracts/FutarchyArbExecutorV4.sol\":12926:12944  a.predYes.msgValue */\n      tag_438\n        /* \"contracts/FutarchyArbExecutorV4.sol\":12773:12782  a.predYes */\n      dup10\n      0x02e0\n      dup2\n      add\n        /* \"contracts/FutarchyArbExecutorV4.sol\":711:18294  contract FutarchyArbExecutorV4 {... */\n      0x40\n        /* \"contracts/FutarchyArbExecutorV4.sol\":12926:12935  a.predYes */\n      tag_402\n        /* \"contracts/FutarchyArbExecutorV4.sol\":12739:12881  _patchedCalldata(... */\n      tag_440\n        /* \"contracts/FutarchyArbExecutorV4.sol\":12773:12782  a.predYes */\n      dup11\n      dup6\n        /* \"contracts/FutarchyArbExecutorV4.sol\":12773:12787  a.predYes.data */\n      tag_441\n        /* \"contracts/FutarchyArbExecutorV4.sol\":12773:12782  a.predYes */\n      tag_406\n      dup8\n      dup4\n      tag_55\n      jump\t// in\n        /* \"contracts/FutarchyArbExecutorV4.sol\":12773:12787  a.predYes.data */\n    tag_441:\n        /* \"contracts/FutarchyArbExecutorV4.sol\":12789:12798  a.predYes */\n      swap3\n      swap1\n        /* \"contracts/FutarchyArbExecutorV4.sol\":711:18294  contract FutarchyArbExecutorV4 {... */\n      tag_407\n        /* \"contracts/FutarchyArbExecutorV4.sol\":10971:10981  a.t.noComp */\n      0x60\n        /* \"contracts/FutarchyArbExecutorV4.sol\":12789:12798  a.predYes */\n      tag_444\n      dup11\n      dup7\n      tag_55\n      jump\t// in\n    tag_444:\n        /* \"contracts/FutarchyArbExecutorV4.sol\":12789:12811  a.predYes.amountOffset */\n      add\n        /* \"contracts/FutarchyArbExecutorV4.sol\":711:18294  contract FutarchyArbExecutorV4 {... */\n      calldataload\n        /* \"contracts/FutarchyArbExecutorV4.sol\":12822:12831  a.predYes */\n      swap2\n        /* \"contracts/FutarchyArbExecutorV4.sol\":12846:12867  a.predYes.slippageBps */\n      tag_409\n        /* \"contracts/FutarchyArbExecutorV4.sol\":11772:11781  a.t.noCur */\n      0xa0\n        /* \"contracts/FutarchyArbExecutorV4.sol\":12846:12855  a.predYes */\n      tag_410\n        /* \"contracts/FutarchyArbExecutorV4.sol\":12822:12831  a.predYes */\n      dup13\n        /* \"contracts/FutarchyArbExecutorV4.sol\":11510:11520  a.t.yesCur */\n      0x80\n        /* \"contracts/FutarchyArbExecutorV4.sol\":12822:12831  a.predYes */\n      tag_411\n      dup3\n      dup12\n      tag_55\n      jump\t// in\n        /* \"contracts/FutarchyArbExecutorV4.sol\":12739:12881  _patchedCalldata(... */\n    tag_440:\n        /* \"contracts/FutarchyArbExecutorV4.sol\":12905:12914  a.predYes */\n      swap3\n        /* \"contracts/FutarchyArbExecutorV4.sol\":12905:12921  a.predYes.target */\n      tag_448\n        /* \"contracts/FutarchyArbExecutorV4.sol\":12905:12914  a.predYes */\n      tag_297\n      dup3\n      dup8\n      tag_55\n      jump\t// in\n        /* \"contracts/FutarchyArbExecutorV4.sol\":12905:12921  a.predYes.target */\n    tag_448:\n        /* \"contracts/FutarchyArbExecutorV4.sol\":12926:12935  a.predYes */\n      swap5\n      tag_55\n      jump\t// in\n        /* \"contracts/FutarchyArbExecutorV4.sol\":12926:12944  a.predYes.msgValue */\n    tag_438:\n        /* \"contracts/FutarchyArbExecutorV4.sol\":12971:12988  a.t.cur.balanceOf */\n      tag_450\n        /* \"contracts/FutarchyArbExecutorV4.sol\":12971:12978  a.t.cur */\n      tag_232\n      dup4\n      tag_47\n      jump\t// in\n        /* \"contracts/FutarchyArbExecutorV4.sol\":12971:12988  a.t.cur.balanceOf */\n    tag_450:\n        /* \"contracts/FutarchyArbExecutorV4.sol\":711:18294  contract FutarchyArbExecutorV4 {... */\n      mload(0x40)\n      shl(0xe0, 0x70a08231)\n        /* \"contracts/FutarchyArbExecutorV4.sol\":12971:13003  a.t.cur.balanceOf(address(this)) */\n      dup2\n      mstore\n        /* \"contracts/FutarchyArbExecutorV4.sol\":10463:10467  this */\n      address\n        /* \"contracts/FutarchyArbExecutorV4.sol\":711:18294  contract FutarchyArbExecutorV4 {... */\n      0x04\n        /* \"contracts/FutarchyArbExecutorV4.sol\":12971:13003  a.t.cur.balanceOf(address(this)) */\n      dup3\n      add\n        /* \"contracts/FutarchyArbExecutorV4.sol\":711:18294  contract FutarchyArbExecutorV4 {... */\n      mstore\n      swap2\n      swap1\n        /* \"contracts/FutarchyArbExecutorV4.sol\":10513:10520  a.t.cur */\n      0x20\n      swap1\n        /* \"contracts/FutarchyArbExecutorV4.sol\":711:18294  contract FutarchyArbExecutorV4 {... */\n      dup4\n      swap1\n      0x24\n      swap1\n      dup3\n      swap1\n        /* \"contracts/FutarchyArbExecutorV4.sol\":12971:13003  a.t.cur.balanceOf(address(this)) */\n      gas\n      staticcall\n      dup1\n      iszero\n      tag_160\n      jumpi\n        /* \"contracts/FutarchyArbExecutorV4.sol\":12971:13012  a.t.cur.balanceOf(address(this)) - before */\n      tag_455\n        /* \"contracts/FutarchyArbExecutorV4.sol\":12971:13003  a.t.cur.balanceOf(address(this)) */\n      swap3\n        /* \"contracts/FutarchyArbExecutorV4.sol\":10513:10516  a.t */\n      0x00\n        /* \"contracts/FutarchyArbExecutorV4.sol\":12971:13003  a.t.cur.balanceOf(address(this)) */\n      swap2\n      tag_418\n      jumpi\n        /* \"contracts/FutarchyArbExecutorV4.sol\":12971:13012  a.t.cur.balanceOf(address(this)) - before */\n      pop\n      tag_52\n      jump\t// in\n    tag_455:\n        /* \"contracts/FutarchyArbExecutorV4.sol\":12563:13023  if (leftYes > 0) {... */\n      swap5\n      0x00\n      jump(tag_368)\n        /* \"contracts/FutarchyArbExecutorV4.sol\":12676:12708  a.t.cur.balanceOf(address(this)) */\n    tag_436:\n      tag_462\n      swap2\n      pop\n        /* \"contracts/FutarchyArbExecutorV4.sol\":10513:10520  a.t.cur */\n      0x20\n        /* \"contracts/FutarchyArbExecutorV4.sol\":12676:12708  a.t.cur.balanceOf(address(this)) */\n      returndatasize\n        /* \"contracts/FutarchyArbExecutorV4.sol\":10513:10520  a.t.cur */\n      0x20\n        /* \"contracts/FutarchyArbExecutorV4.sol\":12676:12708  a.t.cur.balanceOf(address(this)) */\n      gt\n      tag_387\n      jumpi\n      tag_389\n      dup2\n      dup4\n      tag_24\n      jump\t// in\n    tag_462:\n      0x00\n      jump(tag_437)\n        /* \"contracts/FutarchyArbExecutorV4.sol\":12290:12348  a.f.router.mergePositions(a.f.proposal, a.t.cur, mergeAmt) */\n    tag_363:\n      dup1\n      tag_164\n        /* \"contracts/FutarchyArbExecutorV4.sol\":10513:10516  a.t */\n      0x00\n        /* \"contracts/FutarchyArbExecutorV4.sol\":12290:12348  a.f.router.mergePositions(a.f.proposal, a.t.cur, mergeAmt) */\n      tag_467\n      swap4\n      tag_24\n      jump\t// in\n    tag_467:\n      0x00\n      jump(tag_364)\n        /* \"contracts/FutarchyArbExecutorV4.sol\":12101:12143  if (mergeAmt == 0) revert NothingToMerge() */\n    tag_344:\n        /* \"contracts/FutarchyArbExecutorV4.sol\":12127:12143  NothingToMerge() */\n      shl(0xe1, 0x16a03411)\n        /* \"contracts/FutarchyArbExecutorV4.sol\":10513:10516  a.t */\n      0x00\n        /* \"contracts/FutarchyArbExecutorV4.sol\":12127:12143  NothingToMerge() */\n      mstore\n        /* \"contracts/FutarchyArbExecutorV4.sol\":711:18294  contract FutarchyArbExecutorV4 {... */\n      0x04\n        /* \"contracts/FutarchyArbExecutorV4.sol\":10513:10516  a.t */\n      0x00\n        /* \"contracts/FutarchyArbExecutorV4.sol\":12127:12143  NothingToMerge() */\n      revert\n        /* \"contracts/FutarchyArbExecutorV4.sol\":12048:12091  yesCurOut < noCurOut ? yesCurOut : noCurOut */\n    tag_341:\n      dup11\n      swap2\n      jump(tag_343)\n        /* \"contracts/FutarchyArbExecutorV4.sol\":11944:11994  if (noCurOut < a.minNoCurOut) revert LowNoCurOut() */\n    tag_339:\n        /* \"contracts/FutarchyArbExecutorV4.sol\":11981:11994  LowNoCurOut() */\n      shl(0xe0, 0x4bca4ffb)\n        /* \"contracts/FutarchyArbExecutorV4.sol\":10513:10516  a.t */\n      0x00\n        /* \"contracts/FutarchyArbExecutorV4.sol\":11981:11994  LowNoCurOut() */\n      mstore\n        /* \"contracts/FutarchyArbExecutorV4.sol\":711:18294  contract FutarchyArbExecutorV4 {... */\n      0x04\n        /* \"contracts/FutarchyArbExecutorV4.sol\":10513:10516  a.t */\n      0x00\n        /* \"contracts/FutarchyArbExecutorV4.sol\":11981:11994  LowNoCurOut() */\n      revert\n        /* \"contracts/FutarchyArbExecutorV4.sol\":11772:11806  a.t.noCur.balanceOf(address(this)) */\n    tag_325:\n      tag_472\n      swap2\n      pop\n        /* \"contracts/FutarchyArbExecutorV4.sol\":10513:10520  a.t.cur */\n      0x20\n        /* \"contracts/FutarchyArbExecutorV4.sol\":11772:11806  a.t.noCur.balanceOf(address(this)) */\n      returndatasize\n        /* \"contracts/FutarchyArbExecutorV4.sol\":10513:10520  a.t.cur */\n      0x20\n        /* \"contracts/FutarchyArbExecutorV4.sol\":11772:11806  a.t.noCur.balanceOf(address(this)) */\n      gt\n      tag_387\n      jumpi\n      tag_389\n      dup2\n      dup4\n      tag_24\n      jump\t// in\n    tag_472:\n      0x00\n      jump(tag_326)\n        /* \"contracts/FutarchyArbExecutorV4.sol\":11687:11740  if (yesCurOut < a.minYesCurOut) revert LowYesCurOut() */\n    tag_318:\n        /* \"contracts/FutarchyArbExecutorV4.sol\":11726:11740  LowYesCurOut() */\n      shl(0xe1, 0x3329ce53)\n        /* \"contracts/FutarchyArbExecutorV4.sol\":10513:10516  a.t */\n      0x00\n        /* \"contracts/FutarchyArbExecutorV4.sol\":11726:11740  LowYesCurOut() */\n      mstore\n        /* \"contracts/FutarchyArbExecutorV4.sol\":711:18294  contract FutarchyArbExecutorV4 {... */\n      0x04\n        /* \"contracts/FutarchyArbExecutorV4.sol\":10513:10516  a.t */\n      0x00\n        /* \"contracts/FutarchyArbExecutorV4.sol\":11726:11740  LowYesCurOut() */\n      revert\n        /* \"contracts/FutarchyArbExecutorV4.sol\":11510:11545  a.t.yesCur.balanceOf(address(this)) */\n    tag_304:\n      tag_480\n      swap2\n      pop\n        /* \"contracts/FutarchyArbExecutorV4.sol\":10513:10520  a.t.cur */\n      0x20\n        /* \"contracts/FutarchyArbExecutorV4.sol\":11510:11545  a.t.yesCur.balanceOf(address(this)) */\n      returndatasize\n        /* \"contracts/FutarchyArbExecutorV4.sol\":10513:10520  a.t.cur */\n      0x20\n        /* \"contracts/FutarchyArbExecutorV4.sol\":11510:11545  a.t.yesCur.balanceOf(address(this)) */\n      gt\n      tag_387\n      jumpi\n      tag_389\n      dup2\n      dup4\n      tag_24\n      jump\t// in\n    tag_480:\n      0x00\n      jump(tag_305)\n        /* \"contracts/FutarchyArbExecutorV4.sol\":11236:11301  if (yesMinted < compOut || noMinted < compOut) revert UnderMint() */\n    tag_291:\n        /* \"contracts/FutarchyArbExecutorV4.sol\":11290:11301  UnderMint() */\n      shl(0xe0, 0xe57c748d)\n        /* \"contracts/FutarchyArbExecutorV4.sol\":10513:10516  a.t */\n      0x00\n        /* \"contracts/FutarchyArbExecutorV4.sol\":11290:11301  UnderMint() */\n      mstore\n        /* \"contracts/FutarchyArbExecutorV4.sol\":711:18294  contract FutarchyArbExecutorV4 {... */\n      0x04\n        /* \"contracts/FutarchyArbExecutorV4.sol\":10513:10516  a.t */\n      0x00\n        /* \"contracts/FutarchyArbExecutorV4.sol\":11290:11301  UnderMint() */\n      revert\n        /* \"contracts/FutarchyArbExecutorV4.sol\":11240:11281  yesMinted < compOut || noMinted < compOut */\n    tag_289:\n        /* \"contracts/FutarchyArbExecutorV4.sol\":11263:11281  noMinted < compOut */\n      lt\n      swap1\n      pop\n        /* \"contracts/FutarchyArbExecutorV4.sol\":11240:11281  yesMinted < compOut || noMinted < compOut */\n      dup9\n      0x00\n      jump(tag_290)\n        /* \"contracts/FutarchyArbExecutorV4.sol\":11016:11073  a.f.router.splitPosition(a.f.proposal, a.t.comp, compOut) */\n    tag_271:\n      dup1\n      tag_164\n        /* \"contracts/FutarchyArbExecutorV4.sol\":10513:10516  a.t */\n      0x00\n        /* \"contracts/FutarchyArbExecutorV4.sol\":11016:11073  a.f.router.splitPosition(a.f.proposal, a.t.comp, compOut) */\n      tag_493\n      swap4\n      tag_24\n      jump\t// in\n    tag_493:\n      0x00\n      jump(tag_272)\n        /* \"contracts/FutarchyArbExecutorV4.sol\":10971:11006  a.t.noComp.balanceOf(address(this)) */\n    tag_260:\n      tag_494\n      swap2\n      pop\n        /* \"contracts/FutarchyArbExecutorV4.sol\":10513:10520  a.t.cur */\n      0x20\n        /* \"contracts/FutarchyArbExecutorV4.sol\":10971:11006  a.t.noComp.balanceOf(address(this)) */\n      returndatasize\n        /* \"contracts/FutarchyArbExecutorV4.sol\":10513:10520  a.t.cur */\n      0x20\n        /* \"contracts/FutarchyArbExecutorV4.sol\":10971:11006  a.t.noComp.balanceOf(address(this)) */\n      gt\n      tag_387\n      jumpi\n      tag_389\n      dup2\n      dup4\n      tag_24\n      jump\t// in\n    tag_494:\n      0x00\n      jump(tag_261)\n        /* \"contracts/FutarchyArbExecutorV4.sol\":10906:10942  a.t.yesComp.balanceOf(address(this)) */\n    tag_253:\n      tag_498\n      swap2\n      swap9\n      pop\n        /* \"contracts/FutarchyArbExecutorV4.sol\":10513:10520  a.t.cur */\n      0x20\n        /* \"contracts/FutarchyArbExecutorV4.sol\":10906:10942  a.t.yesComp.balanceOf(address(this)) */\n      returndatasize\n        /* \"contracts/FutarchyArbExecutorV4.sol\":10513:10520  a.t.cur */\n      0x20\n        /* \"contracts/FutarchyArbExecutorV4.sol\":10906:10942  a.t.yesComp.balanceOf(address(this)) */\n      gt\n      tag_387\n      jumpi\n      tag_389\n      dup2\n      dup4\n      tag_24\n      jump\t// in\n    tag_498:\n      swap7\n      0x00\n      jump(tag_254)\n        /* \"contracts/FutarchyArbExecutorV4.sol\":10717:10784  if (a.minCompOut > 0 && compOut < a.minCompOut) revert LowCompOut() */\n    tag_242:\n        /* \"contracts/FutarchyArbExecutorV4.sol\":10772:10784  LowCompOut() */\n      shl(0xe0, 0x4975cb09)\n        /* \"contracts/FutarchyArbExecutorV4.sol\":10513:10516  a.t */\n      0x00\n        /* \"contracts/FutarchyArbExecutorV4.sol\":10772:10784  LowCompOut() */\n      mstore\n        /* \"contracts/FutarchyArbExecutorV4.sol\":711:18294  contract FutarchyArbExecutorV4 {... */\n      0x04\n        /* \"contracts/FutarchyArbExecutorV4.sol\":10513:10516  a.t */\n      0x00\n        /* \"contracts/FutarchyArbExecutorV4.sol\":10772:10784  LowCompOut() */\n      revert\n        /* \"contracts/FutarchyArbExecutorV4.sol\":10721:10763  a.minCompOut > 0 && compOut < a.minCompOut */\n    tag_240:\n        /* \"contracts/FutarchyArbExecutorV4.sol\":10741:10763  compOut < a.minCompOut */\n      swap1\n      pop\n      dup5\n      lt\n        /* \"contracts/FutarchyArbExecutorV4.sol\":10721:10763  a.minCompOut > 0 && compOut < a.minCompOut */\n      0x00\n      jump(tag_241)\n        /* \"contracts/FutarchyArbExecutorV4.sol\":10513:10545  a.t.cur.balanceOf(address(this)) */\n    tag_236:\n      tag_502\n      swap2\n      pop\n        /* \"contracts/FutarchyArbExecutorV4.sol\":10513:10520  a.t.cur */\n      0x20\n        /* \"contracts/FutarchyArbExecutorV4.sol\":10513:10545  a.t.cur.balanceOf(address(this)) */\n      returndatasize\n        /* \"contracts/FutarchyArbExecutorV4.sol\":10513:10520  a.t.cur */\n      0x20\n        /* \"contracts/FutarchyArbExecutorV4.sol\":10513:10545  a.t.cur.balanceOf(address(this)) */\n      gt\n      tag_387\n      jumpi\n      tag_389\n      dup2\n      dup4\n      tag_24\n      jump\t// in\n    tag_502:\n      0x00\n      jump(tag_237)\n        /* \"contracts/FutarchyArbExecutorV4.sol\":10437:10487  if (msg.sender != address(this)) revert OnlySelf() */\n    tag_229:\n        /* \"contracts/FutarchyArbExecutorV4.sol\":10477:10487  OnlySelf() */\n      mstore(0x00, shl(0xe3, 0x029a949d))\n        /* \"contracts/FutarchyArbExecutorV4.sol\":711:18294  contract FutarchyArbExecutorV4 {... */\n      0x04\n        /* \"contracts/FutarchyArbExecutorV4.sol\":10477:10487  OnlySelf() */\n      0x00\n      revert\n        /* \"contracts/FutarchyArbExecutorV4.sol\":711:18294  contract FutarchyArbExecutorV4 {... */\n    tag_16:\n      jumpi(tag_114, callvalue)\n      tag_508\n      calldatasize\n      tag_5\n      jump\t// in\n    tag_508:\n        /* \"contracts/FutarchyArbExecutorV4.sol\":14190:14194  this */\n      address\n        /* \"contracts/FutarchyArbExecutorV4.sol\":14168:14178  msg.sender */\n      caller\n        /* \"contracts/FutarchyArbExecutorV4.sol\":14168:14195  msg.sender != address(this) */\n      sub\n        /* \"contracts/FutarchyArbExecutorV4.sol\":14164:14214  if (msg.sender != address(this)) revert OnlySelf() */\n      tag_229\n      jumpi\n        /* \"contracts/FutarchyArbExecutorV4.sol\":14240:14247  a.t.cur */\n      0x20\n      dup2\n      add\n        /* \"contracts/FutarchyArbExecutorV4.sol\":14240:14257  a.t.cur.balanceOf */\n      tag_511\n        /* \"contracts/FutarchyArbExecutorV4.sol\":14240:14247  a.t.cur */\n      tag_232\n      dup3\n      tag_47\n      jump\t// in\n        /* \"contracts/FutarchyArbExecutorV4.sol\":14240:14257  a.t.cur.balanceOf */\n    tag_511:\n        /* \"contracts/FutarchyArbExecutorV4.sol\":711:18294  contract FutarchyArbExecutorV4 {... */\n      mload(0x40)\n      shl(0xe0, 0x70a08231)\n        /* \"contracts/FutarchyArbExecutorV4.sol\":14240:14272  a.t.cur.balanceOf(address(this)) */\n      dup2\n      mstore\n        /* \"contracts/FutarchyArbExecutorV4.sol\":14190:14194  this */\n      address\n        /* \"contracts/FutarchyArbExecutorV4.sol\":711:18294  contract FutarchyArbExecutorV4 {... */\n      0x04\n        /* \"contracts/FutarchyArbExecutorV4.sol\":14240:14272  a.t.cur.balanceOf(address(this)) */\n      dup3\n      add\n        /* \"contracts/FutarchyArbExecutorV4.sol\":711:18294  contract FutarchyArbExecutorV4 {... */\n      mstore\n      swap1\n        /* \"contracts/FutarchyArbExecutorV4.sol\":14240:14247  a.t.cur */\n      0x20\n      swap1\n        /* \"contracts/FutarchyArbExecutorV4.sol\":711:18294  contract FutarchyArbExecutorV4 {... */\n      dup3\n      swap1\n      0x24\n      swap1\n      dup3\n      swap1\n        /* \"contracts/FutarchyArbExecutorV4.sol\":14240:14272  a.t.cur.balanceOf(address(this)) */\n      gas\n      staticcall\n      swap1\n      dup2\n      iszero\n      tag_160\n      jumpi\n        /* \"contracts/FutarchyArbExecutorV4.sol\":14240:14243  a.t */\n      0x00\n        /* \"contracts/FutarchyArbExecutorV4.sol\":14240:14272  a.t.cur.balanceOf(address(this)) */\n      swap2\n      tag_516\n      jumpi\n        /* \"contracts/FutarchyArbExecutorV4.sol\":711:18294  contract FutarchyArbExecutorV4 {... */\n    tag_517:\n        /* \"contracts/FutarchyArbExecutorV4.sol\":14324:14331  a.t.cur */\n      pop\n      tag_518\n      dup3\n      tag_47\n      jump\t// in\n    tag_518:\n        /* \"contracts/FutarchyArbExecutorV4.sol\":14341:14344  a.f */\n      swap1\n      0xc0\n      dup5\n      add\n        /* \"contracts/FutarchyArbExecutorV4.sol\":14341:14351  a.f.router */\n      swap4\n        /* \"contracts/FutarchyArbExecutorV4.sol\":14354:14367  a.amountCurIn */\n      tag_519\n        /* \"contracts/FutarchyArbExecutorV4.sol\":14333:14352  address(a.f.router) */\n      tag_520\n        /* \"contracts/FutarchyArbExecutorV4.sol\":14341:14351  a.f.router */\n      tag_232\n      dup8\n      tag_47\n      jump\t// in\n        /* \"contracts/FutarchyArbExecutorV4.sol\":14333:14352  address(a.f.router) */\n    tag_520:\n        /* \"contracts/FutarchyArbExecutorV4.sol\":14354:14367  a.amountCurIn */\n      swap4\n      0x0180\n      dup4\n      add\n        /* \"contracts/FutarchyArbExecutorV4.sol\":711:18294  contract FutarchyArbExecutorV4 {... */\n      calldataload\n        /* \"contracts/FutarchyArbExecutorV4.sol\":14354:14367  a.amountCurIn */\n      swap5\n      dup6\n      swap2\n      tag_80\n      jump\t// in\n    tag_519:\n        /* \"contracts/FutarchyArbExecutorV4.sol\":14378:14402  a.f.router.splitPosition */\n      tag_522\n        /* \"contracts/FutarchyArbExecutorV4.sol\":14378:14388  a.f.router */\n      tag_232\n      dup7\n      tag_47\n      jump\t// in\n        /* \"contracts/FutarchyArbExecutorV4.sol\":14378:14402  a.f.router.splitPosition */\n    tag_522:\n        /* \"contracts/FutarchyArbExecutorV4.sol\":14403:14415  a.f.proposal */\n      swap4\n        /* \"contracts/FutarchyArbExecutorV4.sol\":711:18294  contract FutarchyArbExecutorV4 {... */\n      0xe0\n        /* \"contracts/FutarchyArbExecutorV4.sol\":14403:14415  a.f.proposal */\n      dup3\n      add\n      swap5\n      tag_524\n      dup7\n      tag_47\n      jump\t// in\n    tag_524:\n        /* \"contracts/FutarchyArbExecutorV4.sol\":14417:14424  a.t.cur */\n      tag_525\n      dup4\n      tag_47\n      jump\t// in\n    tag_525:\n        /* \"contracts/FutarchyArbExecutorV4.sol\":14378:14440  a.f.router.splitPosition(a.f.proposal, a.t.cur, a.amountCurIn) */\n      swap1\n      dup3\n      extcodesize\n      iszero\n      tag_114\n      jumpi\n        /* \"contracts/FutarchyArbExecutorV4.sol\":711:18294  contract FutarchyArbExecutorV4 {... */\n      mload(0x40)\n      shl(0xe7, 0x01abf045)\n        /* \"contracts/FutarchyArbExecutorV4.sol\":14378:14440  a.f.router.splitPosition(a.f.proposal, a.t.cur, a.amountCurIn) */\n      dup2\n      mstore\n      sub(shl(0xa0, 0x01), 0x01)\n        /* \"contracts/FutarchyArbExecutorV4.sol\":711:18294  contract FutarchyArbExecutorV4 {... */\n      swap2\n      dup3\n      and\n      0x04\n        /* \"contracts/FutarchyArbExecutorV4.sol\":14378:14440  a.f.router.splitPosition(a.f.proposal, a.t.cur, a.amountCurIn) */\n      dup3\n      add\n        /* \"contracts/FutarchyArbExecutorV4.sol\":711:18294  contract FutarchyArbExecutorV4 {... */\n      mstore\n      swap2\n      and\n      0x24\n      dup3\n      add\n      mstore\n      0x44\n      dup2\n      add\n      dup7\n      swap1\n      mstore\n      swap1\n      0x00\n      swap1\n      dup3\n      swap1\n      0x64\n      swap1\n      dup3\n      swap1\n      dup5\n      swap1\n        /* \"contracts/FutarchyArbExecutorV4.sol\":14378:14440  a.f.router.splitPosition(a.f.proposal, a.t.cur, a.amountCurIn) */\n      gas\n      call\n      dup1\n      iszero\n      tag_160\n      jumpi\n      tag_531\n      jumpi\n        /* \"contracts/FutarchyArbExecutorV4.sol\":711:18294  contract FutarchyArbExecutorV4 {... */\n    tag_532:\n        /* \"contracts/FutarchyArbExecutorV4.sol\":14508:14518  a.t.yesCur */\n      pop\n        /* \"contracts/FutarchyArbExecutorV4.sol\":14600:14613  a.amountCurIn */\n      tag_533\n        /* \"contracts/FutarchyArbExecutorV4.sol\":14508:14518  a.t.yesCur */\n      dup5\n      tag_534\n      0x80\n      dup6\n      add\n      tag_47\n      jump\t// in\n    tag_534:\n        /* \"contracts/FutarchyArbExecutorV4.sol\":14534:14547  a.amountCurIn */\n      tag_535\n        /* \"contracts/FutarchyArbExecutorV4.sol\":14520:14532  a.buySpender */\n      dup3\n      0x0220\n      dup8\n      add\n      swap3\n      tag_246\n      dup5\n      tag_47\n      jump\t// in\n        /* \"contracts/FutarchyArbExecutorV4.sol\":14534:14547  a.amountCurIn */\n    tag_535:\n        /* \"contracts/FutarchyArbExecutorV4.sol\":14586:14598  a.buySpender */\n      tag_246\n        /* \"contracts/FutarchyArbExecutorV4.sol\":14575:14584  a.t.noCur */\n      tag_295\n      0xa0\n      dup8\n      add\n      tag_47\n      jump\t// in\n        /* \"contracts/FutarchyArbExecutorV4.sol\":14600:14613  a.amountCurIn */\n    tag_533:\n        /* \"contracts/FutarchyArbExecutorV4.sol\":711:18294  contract FutarchyArbExecutorV4 {... */\n      0x40\n        /* \"contracts/FutarchyArbExecutorV4.sol\":14647:14658  a.t.yesComp */\n      dup3\n      add\n      swap3\n        /* \"contracts/FutarchyArbExecutorV4.sol\":14647:14668  a.t.yesComp.balanceOf */\n      tag_539\n        /* \"contracts/FutarchyArbExecutorV4.sol\":14647:14658  a.t.yesComp */\n      tag_232\n      dup6\n      tag_47\n      jump\t// in\n        /* \"contracts/FutarchyArbExecutorV4.sol\":14647:14668  a.t.yesComp.balanceOf */\n    tag_539:\n        /* \"contracts/FutarchyArbExecutorV4.sol\":711:18294  contract FutarchyArbExecutorV4 {... */\n      mload(0x40)\n      shl(0xe0, 0x70a08231)\n        /* \"contracts/FutarchyArbExecutorV4.sol\":14647:14683  a.t.yesComp.balanceOf(address(this)) */\n      dup2\n      mstore\n        /* \"contracts/FutarchyArbExecutorV4.sol\":14190:14194  this */\n      address\n        /* \"contracts/FutarchyArbExecutorV4.sol\":711:18294  contract FutarchyArbExecutorV4 {... */\n      0x04\n        /* \"contracts/FutarchyArbExecutorV4.sol\":14647:14683  a.t.yesComp.balanceOf(address(this)) */\n      dup3\n      add\n        /* \"contracts/FutarchyArbExecutorV4.sol\":711:18294  contract FutarchyArbExecutorV4 {... */\n      mstore\n      swap1\n        /* \"contracts/FutarchyArbExecutorV4.sol\":14240:14247  a.t.cur */\n      0x20\n      swap1\n        /* \"contracts/FutarchyArbExecutorV4.sol\":711:18294  contract FutarchyArbExecutorV4 {... */\n      dup3\n      swap1\n      0x24\n      swap1\n      dup3\n      swap1\n        /* \"contracts/FutarchyArbExecutorV4.sol\":14647:14683  a.t.yesComp.balanceOf(address(this)) */\n      gas\n      staticcall\n      swap1\n      dup2\n      iszero\n      tag_160\n      jumpi\n        /* \"contracts/FutarchyArbExecutorV4.sol\":14240:14243  a.t */\n      0x00\n        /* \"contracts/FutarchyArbExecutorV4.sol\":14647:14683  a.t.yesComp.balanceOf(address(this)) */\n      swap2\n      tag_544\n      jumpi\n        /* \"contracts/FutarchyArbExecutorV4.sol\":711:18294  contract FutarchyArbExecutorV4 {... */\n    tag_545:\n        /* \"contracts/FutarchyArbExecutorV4.sol\":14703:14717  a.yesBuyTarget */\n      pop\n        /* \"contracts/FutarchyArbExecutorV4.sol\":14693:14735  _safeCall(a.yesBuyTarget, a.yesBuyData, 0) */\n      tag_546\n        /* \"contracts/FutarchyArbExecutorV4.sol\":14703:14717  a.yesBuyTarget */\n      tag_547\n      0x01a0\n      dup7\n      add\n      tag_47\n      jump\t// in\n    tag_547:\n        /* \"contracts/FutarchyArbExecutorV4.sol\":711:18294  contract FutarchyArbExecutorV4 {... */\n      tag_308\n        /* \"contracts/FutarchyArbExecutorV4.sol\":14719:14731  a.yesBuyData */\n      tag_309\n      0x01c0\n      dup9\n      add\n      dup9\n      tag_53\n      jump\t// in\n        /* \"contracts/FutarchyArbExecutorV4.sol\":14693:14735  _safeCall(a.yesBuyTarget, a.yesBuyData, 0) */\n    tag_546:\n        /* \"contracts/FutarchyArbExecutorV4.sol\":14766:14787  a.t.yesComp.balanceOf */\n      tag_550\n        /* \"contracts/FutarchyArbExecutorV4.sol\":14766:14777  a.t.yesComp */\n      tag_232\n      dup7\n      tag_47\n      jump\t// in\n        /* \"contracts/FutarchyArbExecutorV4.sol\":14766:14787  a.t.yesComp.balanceOf */\n    tag_550:\n        /* \"contracts/FutarchyArbExecutorV4.sol\":711:18294  contract FutarchyArbExecutorV4 {... */\n      mload(0x40)\n      shl(0xe0, 0x70a08231)\n        /* \"contracts/FutarchyArbExecutorV4.sol\":14766:14802  a.t.yesComp.balanceOf(address(this)) */\n      dup2\n      mstore\n        /* \"contracts/FutarchyArbExecutorV4.sol\":14190:14194  this */\n      address\n        /* \"contracts/FutarchyArbExecutorV4.sol\":711:18294  contract FutarchyArbExecutorV4 {... */\n      0x04\n        /* \"contracts/FutarchyArbExecutorV4.sol\":14766:14802  a.t.yesComp.balanceOf(address(this)) */\n      dup3\n      add\n        /* \"contracts/FutarchyArbExecutorV4.sol\":711:18294  contract FutarchyArbExecutorV4 {... */\n      mstore\n      swap2\n      swap1\n        /* \"contracts/FutarchyArbExecutorV4.sol\":14240:14247  a.t.cur */\n      0x20\n      swap1\n        /* \"contracts/FutarchyArbExecutorV4.sol\":711:18294  contract FutarchyArbExecutorV4 {... */\n      dup4\n      swap1\n      0x24\n      swap1\n      dup3\n      swap1\n        /* \"contracts/FutarchyArbExecutorV4.sol\":14766:14802  a.t.yesComp.balanceOf(address(this)) */\n      gas\n      staticcall\n      dup1\n      iszero\n      tag_160\n      jumpi\n        /* \"contracts/FutarchyArbExecutorV4.sol\":14766:14816  a.t.yesComp.balanceOf(address(this)) - yCompBefore */\n      tag_555\n        /* \"contracts/FutarchyArbExecutorV4.sol\":14766:14802  a.t.yesComp.balanceOf(address(this)) */\n      swap3\n        /* \"contracts/FutarchyArbExecutorV4.sol\":14240:14243  a.t */\n      0x00\n        /* \"contracts/FutarchyArbExecutorV4.sol\":14766:14802  a.t.yesComp.balanceOf(address(this)) */\n      swap2\n      tag_418\n      jumpi\n        /* \"contracts/FutarchyArbExecutorV4.sol\":14766:14816  a.t.yesComp.balanceOf(address(this)) - yCompBefore */\n      pop\n      tag_52\n      jump\t// in\n    tag_555:\n        /* \"contracts/FutarchyArbExecutorV4.sol\":14843:14858  a.minYesCompOut */\n      swap6\n      0x0240\n      dup5\n      add\n        /* \"contracts/FutarchyArbExecutorV4.sol\":711:18294  contract FutarchyArbExecutorV4 {... */\n      calldataload\n        /* \"contracts/FutarchyArbExecutorV4.sol\":14830:14858  yesCompOut < a.minYesCompOut */\n      dup8\n      lt\n        /* \"contracts/FutarchyArbExecutorV4.sol\":14826:14882  if (yesCompOut < a.minYesCompOut) revert LowYesCompOut() */\n      tag_558\n      jumpi\n        /* \"contracts/FutarchyArbExecutorV4.sol\":14915:14925  a.t.noComp */\n      0x60\n      dup5\n      add\n      swap8\n        /* \"contracts/FutarchyArbExecutorV4.sol\":14915:14935  a.t.noComp.balanceOf */\n      tag_560\n        /* \"contracts/FutarchyArbExecutorV4.sol\":14915:14925  a.t.noComp */\n      tag_232\n      dup11\n      tag_47\n      jump\t// in\n        /* \"contracts/FutarchyArbExecutorV4.sol\":14915:14935  a.t.noComp.balanceOf */\n    tag_560:\n        /* \"contracts/FutarchyArbExecutorV4.sol\":711:18294  contract FutarchyArbExecutorV4 {... */\n      mload(0x40)\n      shl(0xe0, 0x70a08231)\n        /* \"contracts/FutarchyArbExecutorV4.sol\":14915:14950  a.t.noComp.balanceOf(address(this)) */\n      dup2\n      mstore\n        /* \"contracts/FutarchyArbExecutorV4.sol\":14190:14194  this */\n      address\n        /* \"contracts/FutarchyArbExecutorV4.sol\":711:18294  contract FutarchyArbExecutorV4 {... */\n      0x04\n        /* \"contracts/FutarchyArbExecutorV4.sol\":14915:14950  a.t.noComp.balanceOf(address(this)) */\n      dup3\n      add\n        /* \"contracts/FutarchyArbExecutorV4.sol\":711:18294  contract FutarchyArbExecutorV4 {... */\n      mstore\n      swap1\n        /* \"contracts/FutarchyArbExecutorV4.sol\":14240:14247  a.t.cur */\n      0x20\n      swap1\n        /* \"contracts/FutarchyArbExecutorV4.sol\":711:18294  contract FutarchyArbExecutorV4 {... */\n      dup3\n      swap1\n      0x24\n      swap1\n      dup3\n      swap1\n        /* \"contracts/FutarchyArbExecutorV4.sol\":14915:14950  a.t.noComp.balanceOf(address(this)) */\n      gas\n      staticcall\n      swap1\n      dup2\n      iszero\n      tag_160\n      jumpi\n        /* \"contracts/FutarchyArbExecutorV4.sol\":14240:14243  a.t */\n      0x00\n        /* \"contracts/FutarchyArbExecutorV4.sol\":14915:14950  a.t.noComp.balanceOf(address(this)) */\n      swap2\n      tag_565\n      jumpi\n        /* \"contracts/FutarchyArbExecutorV4.sol\":711:18294  contract FutarchyArbExecutorV4 {... */\n    tag_566:\n        /* \"contracts/FutarchyArbExecutorV4.sol\":14970:14983  a.noBuyTarget */\n      pop\n        /* \"contracts/FutarchyArbExecutorV4.sol\":14960:15000  _safeCall(a.noBuyTarget, a.noBuyData, 0) */\n      tag_567\n        /* \"contracts/FutarchyArbExecutorV4.sol\":14970:14983  a.noBuyTarget */\n      tag_568\n      0x01e0\n      dup9\n      add\n      tag_47\n      jump\t// in\n    tag_568:\n        /* \"contracts/FutarchyArbExecutorV4.sol\":711:18294  contract FutarchyArbExecutorV4 {... */\n      tag_308\n        /* \"contracts/FutarchyArbExecutorV4.sol\":14985:14996  a.noBuyData */\n      tag_309\n      0x0200\n      dup11\n      add\n      dup11\n      tag_53\n      jump\t// in\n        /* \"contracts/FutarchyArbExecutorV4.sol\":14960:15000  _safeCall(a.noBuyTarget, a.noBuyData, 0) */\n    tag_567:\n        /* \"contracts/FutarchyArbExecutorV4.sol\":15030:15050  a.t.noComp.balanceOf */\n      tag_571\n        /* \"contracts/FutarchyArbExecutorV4.sol\":15030:15040  a.t.noComp */\n      tag_232\n      dup12\n      tag_47\n      jump\t// in\n        /* \"contracts/FutarchyArbExecutorV4.sol\":15030:15050  a.t.noComp.balanceOf */\n    tag_571:\n        /* \"contracts/FutarchyArbExecutorV4.sol\":711:18294  contract FutarchyArbExecutorV4 {... */\n      mload(0x40)\n      shl(0xe0, 0x70a08231)\n        /* \"contracts/FutarchyArbExecutorV4.sol\":15030:15065  a.t.noComp.balanceOf(address(this)) */\n      dup2\n      mstore\n        /* \"contracts/FutarchyArbExecutorV4.sol\":14190:14194  this */\n      address\n        /* \"contracts/FutarchyArbExecutorV4.sol\":711:18294  contract FutarchyArbExecutorV4 {... */\n      0x04\n        /* \"contracts/FutarchyArbExecutorV4.sol\":15030:15065  a.t.noComp.balanceOf(address(this)) */\n      dup3\n      add\n        /* \"contracts/FutarchyArbExecutorV4.sol\":711:18294  contract FutarchyArbExecutorV4 {... */\n      mstore\n      swap2\n      swap1\n        /* \"contracts/FutarchyArbExecutorV4.sol\":14240:14247  a.t.cur */\n      0x20\n      swap1\n        /* \"contracts/FutarchyArbExecutorV4.sol\":711:18294  contract FutarchyArbExecutorV4 {... */\n      dup4\n      swap1\n      0x24\n      swap1\n      dup3\n      swap1\n        /* \"contracts/FutarchyArbExecutorV4.sol\":15030:15065  a.t.noComp.balanceOf(address(this)) */\n      gas\n      staticcall\n      dup1\n      iszero\n      tag_160\n      jumpi\n        /* \"contracts/FutarchyArbExecutorV4.sol\":15030:15079  a.t.noComp.balanceOf(address(this)) - nCompBefore */\n      tag_576\n        /* \"contracts/FutarchyArbExecutorV4.sol\":15030:15065  a.t.noComp.balanceOf(address(this)) */\n      swap3\n        /* \"contracts/FutarchyArbExecutorV4.sol\":14240:14243  a.t */\n      0x00\n        /* \"contracts/FutarchyArbExecutorV4.sol\":15030:15065  a.t.noComp.balanceOf(address(this)) */\n      swap2\n      tag_418\n      jumpi\n        /* \"contracts/FutarchyArbExecutorV4.sol\":15030:15079  a.t.noComp.balanceOf(address(this)) - nCompBefore */\n      pop\n      tag_52\n      jump\t// in\n    tag_576:\n        /* \"contracts/FutarchyArbExecutorV4.sol\":15105:15119  a.minNoCompOut */\n      swap6\n      0x0260\n      dup7\n      add\n        /* \"contracts/FutarchyArbExecutorV4.sol\":711:18294  contract FutarchyArbExecutorV4 {... */\n      calldataload\n        /* \"contracts/FutarchyArbExecutorV4.sol\":15093:15119  noCompOut < a.minNoCompOut */\n      dup8\n      lt\n        /* \"contracts/FutarchyArbExecutorV4.sol\":15089:15142  if (noCompOut < a.minNoCompOut) revert LowNoCompOut() */\n      tag_579\n      jumpi\n        /* \"contracts/FutarchyArbExecutorV4.sol\":15232:15254  yesCompOut < noCompOut */\n      dup7\n      dup10\n      lt\n      iszero\n      tag_581\n      jumpi\n        /* \"contracts/FutarchyArbExecutorV4.sol\":15232:15279  yesCompOut < noCompOut ? yesCompOut : noCompOut */\n      dup9\n      swap10\n    tag_583:\n        /* \"contracts/FutarchyArbExecutorV4.sol\":15293:15306  mergeAmt == 0 */\n      dup11\n      iszero\n        /* \"contracts/FutarchyArbExecutorV4.sol\":15289:15331  if (mergeAmt == 0) revert NothingToMerge() */\n      tag_344\n      jumpi\n        /* \"contracts/FutarchyArbExecutorV4.sol\":15506:15518  a.f.proposal */\n      tag_586\n        /* \"contracts/FutarchyArbExecutorV4.sol\":15358:15369  a.t.yesComp */\n      swap3\n        /* \"contracts/FutarchyArbExecutorV4.sol\":15461:15469  mergeAmt */\n      tag_297\n        /* \"contracts/FutarchyArbExecutorV4.sol\":15358:15369  a.t.yesComp */\n      dup13\n        /* \"contracts/FutarchyArbExecutorV4.sol\":15428:15438  a.t.noComp */\n      tag_350\n        /* \"contracts/FutarchyArbExecutorV4.sol\":15480:15490  a.f.router */\n      tag_232\n        /* \"contracts/FutarchyArbExecutorV4.sol\":15358:15369  a.t.yesComp */\n      swap5\n        /* \"contracts/FutarchyArbExecutorV4.sol\":15392:15400  mergeAmt */\n      tag_297\n        /* \"contracts/FutarchyArbExecutorV4.sol\":15358:15369  a.t.yesComp */\n      dup4\n      tag_591\n        /* \"contracts/FutarchyArbExecutorV4.sol\":15480:15505  a.f.router.mergePositions */\n      tag_295\n        /* \"contracts/FutarchyArbExecutorV4.sol\":15358:15369  a.t.yesComp */\n      swap10\n      tag_47\n      jump\t// in\n    tag_591:\n        /* \"contracts/FutarchyArbExecutorV4.sol\":15371:15390  address(a.f.router) */\n      tag_246\n        /* \"contracts/FutarchyArbExecutorV4.sol\":15379:15389  a.f.router */\n      tag_232\n      dup10\n      tag_47\n      jump\t// in\n        /* \"contracts/FutarchyArbExecutorV4.sol\":15506:15518  a.f.proposal */\n    tag_586:\n        /* \"contracts/FutarchyArbExecutorV4.sol\":15520:15528  a.t.comp */\n      tag_597\n      dup6\n      tag_47\n      jump\t// in\n    tag_597:\n        /* \"contracts/FutarchyArbExecutorV4.sol\":15480:15539  a.f.router.mergePositions(a.f.proposal, a.t.comp, mergeAmt) */\n      swap1\n      dup3\n      extcodesize\n      iszero\n      tag_114\n      jumpi\n        /* \"contracts/FutarchyArbExecutorV4.sol\":711:18294  contract FutarchyArbExecutorV4 {... */\n      mload(0x40)\n      shl(0xe0, 0x7abef8d1)\n        /* \"contracts/FutarchyArbExecutorV4.sol\":15480:15539  a.f.router.mergePositions(a.f.proposal, a.t.comp, mergeAmt) */\n      dup2\n      mstore\n      sub(shl(0xa0, 0x01), 0x01)\n        /* \"contracts/FutarchyArbExecutorV4.sol\":711:18294  contract FutarchyArbExecutorV4 {... */\n      swap2\n      dup3\n      and\n      0x04\n        /* \"contracts/FutarchyArbExecutorV4.sol\":15480:15539  a.f.router.mergePositions(a.f.proposal, a.t.comp, mergeAmt) */\n      dup3\n      add\n        /* \"contracts/FutarchyArbExecutorV4.sol\":711:18294  contract FutarchyArbExecutorV4 {... */\n      mstore\n      swap2\n      and\n      0x24\n      dup3\n      add\n      mstore\n      0x44\n      dup2\n      add\n      dup10\n      swap1\n      mstore\n      swap1\n      0x00\n      swap1\n      dup3\n      swap1\n      0x64\n      swap1\n      dup3\n      swap1\n      dup5\n      swap1\n        /* \"contracts/FutarchyArbExecutorV4.sol\":15480:15539  a.f.router.mergePositions(a.f.proposal, a.t.comp, mergeAmt) */\n      gas\n      call\n      dup1\n      iszero\n      tag_160\n      jumpi\n      tag_603\n      jumpi\n        /* \"contracts/FutarchyArbExecutorV4.sol\":15232:15279  yesCompOut < noCompOut ? yesCompOut : noCompOut */\n    tag_604:\n        /* \"contracts/FutarchyArbExecutorV4.sol\":15669:15685  a.sellCompanyOps */\n      pop\n        /* \"contracts/FutarchyArbExecutorV4.sol\":16039:16056  a.t.cur.balanceOf */\n      tag_605\n        /* \"contracts/FutarchyArbExecutorV4.sol\":16039:16046  a.t.cur */\n      tag_232\n        /* \"contracts/FutarchyArbExecutorV4.sol\":15635:15742  _runExecute10Checked(... */\n      tag_607\n        /* \"contracts/FutarchyArbExecutorV4.sol\":15669:15685  a.sellCompanyOps */\n      dup10\n      tag_608\n      0x0280\n      dup9\n      add\n      dup9\n      tag_49\n      jump\t// in\n    tag_608:\n        /* \"contracts/FutarchyArbExecutorV4.sol\":15635:15742  _runExecute10Checked(... */\n      tag_75\n      jump\t// in\n    tag_607:\n        /* \"contracts/FutarchyArbExecutorV4.sol\":16039:16046  a.t.cur */\n      swap4\n      tag_47\n      jump\t// in\n        /* \"contracts/FutarchyArbExecutorV4.sol\":16039:16056  a.t.cur.balanceOf */\n    tag_605:\n        /* \"contracts/FutarchyArbExecutorV4.sol\":711:18294  contract FutarchyArbExecutorV4 {... */\n      mload(0x40)\n      shl(0xe0, 0x70a08231)\n        /* \"contracts/FutarchyArbExecutorV4.sol\":16039:16071  a.t.cur.balanceOf(address(this)) */\n      dup2\n      mstore\n        /* \"contracts/FutarchyArbExecutorV4.sol\":14190:14194  this */\n      address\n        /* \"contracts/FutarchyArbExecutorV4.sol\":711:18294  contract FutarchyArbExecutorV4 {... */\n      0x04\n        /* \"contracts/FutarchyArbExecutorV4.sol\":16039:16071  a.t.cur.balanceOf(address(this)) */\n      dup3\n      add\n        /* \"contracts/FutarchyArbExecutorV4.sol\":711:18294  contract FutarchyArbExecutorV4 {... */\n      mstore\n      swap1\n        /* \"contracts/FutarchyArbExecutorV4.sol\":14240:14247  a.t.cur */\n      0x20\n      swap1\n        /* \"contracts/FutarchyArbExecutorV4.sol\":711:18294  contract FutarchyArbExecutorV4 {... */\n      dup3\n      swap1\n      0x24\n      swap1\n      dup3\n      swap1\n        /* \"contracts/FutarchyArbExecutorV4.sol\":16039:16071  a.t.cur.balanceOf(address(this)) */\n      gas\n      staticcall\n      swap1\n      dup2\n      iszero\n      tag_160\n      jumpi\n        /* \"contracts/FutarchyArbExecutorV4.sol\":14240:14243  a.t */\n      0x00\n        /* \"contracts/FutarchyArbExecutorV4.sol\":16039:16071  a.t.cur.balanceOf(address(this)) */\n      swap2\n      tag_612\n      jumpi\n        /* \"contracts/FutarchyArbExecutorV4.sol\":15232:15279  yesCompOut < noCompOut ? yesCompOut : noCompOut */\n    tag_613:\n      pop\n      sub(shl(0xff, 0x01), 0x01)\n        /* \"contracts/FutarchyArbExecutorV4.sol\":16085:16121  curFinal > uint256(type(int256).max) */\n      dup2\n      gt\n        /* \"contracts/FutarchyArbExecutorV4.sol\":16085:16157  curFinal > uint256(type(int256).max) || cur0 > uint256(type(int256).max) */\n      dup1\n      iszero\n      tag_614\n      jumpi\n        /* \"contracts/FutarchyArbExecutorV4.sol\":15232:15279  yesCompOut < noCompOut ? yesCompOut : noCompOut */\n    tag_615:\n        /* \"contracts/FutarchyArbExecutorV4.sol\":16081:16183  if (curFinal > uint256(type(int256).max) || cur0 > uint256(type(int256).max)) revert BalanceTooLarge() */\n      tag_380\n      jumpi\n        /* \"contracts/FutarchyArbExecutorV4.sol\":16315:16326  a.minNetCur */\n      0x0340\n        /* \"contracts/FutarchyArbExecutorV4.sol\":16264:16295  int256(curFinal) - int256(cur0) */\n      swap2\n      tag_618\n      swap2\n      tag_57\n      jump\t// in\n    tag_618:\n        /* \"contracts/FutarchyArbExecutorV4.sol\":16315:16326  a.minNetCur */\n      swap3\n      add\n        /* \"contracts/FutarchyArbExecutorV4.sol\":711:18294  contract FutarchyArbExecutorV4 {... */\n      calldataload\n        /* \"contracts/FutarchyArbExecutorV4.sol\":16309:16326  net < a.minNetCur */\n      dup3\n      slt\n        /* \"contracts/FutarchyArbExecutorV4.sol\":16305:16357  if (net < a.minNetCur) revert NetCurBelowTolerance() */\n      tag_383\n      jumpi\n        /* \"contracts/FutarchyArbExecutorV4.sol\":711:18294  contract FutarchyArbExecutorV4 {... */\n      dup6\n        /* \"contracts/FutarchyArbExecutorV4.sol\":16373:16731  BuyExecuted(... */\n      0xc10039525f5b2267277206d3941570cb5f25bc01b6a317eed793cda290c891ce\n        /* \"contracts/FutarchyArbExecutorV4.sol\":711:18294  contract FutarchyArbExecutorV4 {... */\n      swap7\n        /* \"contracts/FutarchyArbExecutorV4.sol\":16373:16731  BuyExecuted(... */\n      tag_385\n        /* \"contracts/FutarchyArbExecutorV4.sol\":711:18294  contract FutarchyArbExecutorV4 {... */\n      swap5\n      mload(0x40)\n        /* \"contracts/FutarchyArbExecutorV4.sol\":16373:16731  BuyExecuted(... */\n      swap8\n      dup9\n      swap8\n      dup9\n        /* \"contracts/FutarchyArbExecutorV4.sol\":711:18294  contract FutarchyArbExecutorV4 {... */\n      swap4\n      swap1\n      swap8\n      swap7\n      swap6\n      swap3\n      0x01c0\n      swap6\n      swap3\n      0x01e0\n      dup7\n      add\n      swap10\n      dup7\n      mstore\n      0x20\n      dup7\n      add\n      mstore\n      0x40\n      dup6\n      add\n      mstore\n      0x60\n      dup5\n      add\n      mstore\n      0x80\n      dup4\n      add\n      mstore\n      0xa0\n      dup3\n      add\n      mstore\n        /* \"contracts/FutarchyArbExecutorV4.sol\":14240:14243  a.t */\n      0x00\n        /* \"contracts/FutarchyArbExecutorV4.sol\":711:18294  contract FutarchyArbExecutorV4 {... */\n      0xc0\n      dup3\n      add\n      mstore\n        /* \"contracts/FutarchyArbExecutorV4.sol\":14240:14243  a.t */\n      0x00\n        /* \"contracts/FutarchyArbExecutorV4.sol\":711:18294  contract FutarchyArbExecutorV4 {... */\n      0xe0\n      dup3\n      add\n      mstore\n        /* \"contracts/FutarchyArbExecutorV4.sol\":14240:14243  a.t */\n      0x00\n        /* \"contracts/FutarchyArbExecutorV4.sol\":711:18294  contract FutarchyArbExecutorV4 {... */\n      0x0100\n      dup3\n      add\n      mstore\n        /* \"contracts/FutarchyArbExecutorV4.sol\":14240:14243  a.t */\n      0x00\n        /* \"contracts/FutarchyArbExecutorV4.sol\":711:18294  contract FutarchyArbExecutorV4 {... */\n      0x0120\n      dup3\n      add\n      mstore\n        /* \"contracts/FutarchyArbExecutorV4.sol\":14240:14243  a.t */\n      0x00\n        /* \"contracts/FutarchyArbExecutorV4.sol\":711:18294  contract FutarchyArbExecutorV4 {... */\n      0x0140\n      dup3\n      add\n      mstore\n        /* \"contracts/FutarchyArbExecutorV4.sol\":14240:14243  a.t */\n      0x00\n        /* \"contracts/FutarchyArbExecutorV4.sol\":711:18294  contract FutarchyArbExecutorV4 {... */\n      0x0160\n      dup3\n      add\n      mstore\n        /* \"contracts/FutarchyArbExecutorV4.sol\":14240:14243  a.t */\n      0x00\n        /* \"contracts/FutarchyArbExecutorV4.sol\":711:18294  contract FutarchyArbExecutorV4 {... */\n      0x0180\n      dup3\n      add\n      mstore\n        /* \"contracts/FutarchyArbExecutorV4.sol\":14240:14243  a.t */\n      0x00\n        /* \"contracts/FutarchyArbExecutorV4.sol\":711:18294  contract FutarchyArbExecutorV4 {... */\n      0x01a0\n      dup3\n      add\n      mstore\n      add\n      mstore\n      jump\n        /* \"contracts/FutarchyArbExecutorV4.sol\":16085:16157  curFinal > uint256(type(int256).max) || cur0 > uint256(type(int256).max) */\n    tag_614:\n      pop\n      sub(shl(0xff, 0x01), 0x01)\n        /* \"contracts/FutarchyArbExecutorV4.sol\":16125:16157  cur0 > uint256(type(int256).max) */\n      dup3\n      gt\n        /* \"contracts/FutarchyArbExecutorV4.sol\":16085:16157  curFinal > uint256(type(int256).max) || cur0 > uint256(type(int256).max) */\n      jump(tag_615)\n        /* \"contracts/FutarchyArbExecutorV4.sol\":16039:16071  a.t.cur.balanceOf(address(this)) */\n    tag_612:\n      tag_622\n      swap2\n      pop\n        /* \"contracts/FutarchyArbExecutorV4.sol\":14240:14247  a.t.cur */\n      0x20\n        /* \"contracts/FutarchyArbExecutorV4.sol\":16039:16071  a.t.cur.balanceOf(address(this)) */\n      returndatasize\n        /* \"contracts/FutarchyArbExecutorV4.sol\":14240:14247  a.t.cur */\n      0x20\n        /* \"contracts/FutarchyArbExecutorV4.sol\":16039:16071  a.t.cur.balanceOf(address(this)) */\n      gt\n      tag_387\n      jumpi\n      tag_389\n      dup2\n      dup4\n      tag_24\n      jump\t// in\n    tag_622:\n      0x00\n      jump(tag_613)\n        /* \"contracts/FutarchyArbExecutorV4.sol\":15480:15539  a.f.router.mergePositions(a.f.proposal, a.t.comp, mergeAmt) */\n    tag_603:\n      dup1\n      tag_164\n        /* \"contracts/FutarchyArbExecutorV4.sol\":14240:14243  a.t */\n      0x00\n        /* \"contracts/FutarchyArbExecutorV4.sol\":15480:15539  a.f.router.mergePositions(a.f.proposal, a.t.comp, mergeAmt) */\n      tag_627\n      swap4\n      tag_24\n      jump\t// in\n    tag_627:\n      0x00\n      jump(tag_604)\n        /* \"contracts/FutarchyArbExecutorV4.sol\":15232:15279  yesCompOut < noCompOut ? yesCompOut : noCompOut */\n    tag_581:\n      dup7\n      swap10\n      jump(tag_583)\n        /* \"contracts/FutarchyArbExecutorV4.sol\":15089:15142  if (noCompOut < a.minNoCompOut) revert LowNoCompOut() */\n    tag_579:\n        /* \"contracts/FutarchyArbExecutorV4.sol\":15128:15142  LowNoCompOut() */\n      shl(0xe2, 0x1b15f3a3)\n        /* \"contracts/FutarchyArbExecutorV4.sol\":14240:14243  a.t */\n      0x00\n        /* \"contracts/FutarchyArbExecutorV4.sol\":15128:15142  LowNoCompOut() */\n      mstore\n        /* \"contracts/FutarchyArbExecutorV4.sol\":711:18294  contract FutarchyArbExecutorV4 {... */\n      0x04\n        /* \"contracts/FutarchyArbExecutorV4.sol\":14240:14243  a.t */\n      0x00\n        /* \"contracts/FutarchyArbExecutorV4.sol\":15128:15142  LowNoCompOut() */\n      revert\n        /* \"contracts/FutarchyArbExecutorV4.sol\":14915:14950  a.t.noComp.balanceOf(address(this)) */\n    tag_565:\n      tag_632\n      swap2\n      pop\n        /* \"contracts/FutarchyArbExecutorV4.sol\":14240:14247  a.t.cur */\n      0x20\n        /* \"contracts/FutarchyArbExecutorV4.sol\":14915:14950  a.t.noComp.balanceOf(address(this)) */\n      returndatasize\n        /* \"contracts/FutarchyArbExecutorV4.sol\":14240:14247  a.t.cur */\n      0x20\n        /* \"contracts/FutarchyArbExecutorV4.sol\":14915:14950  a.t.noComp.balanceOf(address(this)) */\n      gt\n      tag_387\n      jumpi\n      tag_389\n      dup2\n      dup4\n      tag_24\n      jump\t// in\n    tag_632:\n      0x00\n      jump(tag_566)\n        /* \"contracts/FutarchyArbExecutorV4.sol\":14826:14882  if (yesCompOut < a.minYesCompOut) revert LowYesCompOut() */\n    tag_558:\n        /* \"contracts/FutarchyArbExecutorV4.sol\":14867:14882  LowYesCompOut() */\n      shl(0xe1, 0x49d1e435)\n        /* \"contracts/FutarchyArbExecutorV4.sol\":14240:14243  a.t */\n      0x00\n        /* \"contracts/FutarchyArbExecutorV4.sol\":14867:14882  LowYesCompOut() */\n      mstore\n        /* \"contracts/FutarchyArbExecutorV4.sol\":711:18294  contract FutarchyArbExecutorV4 {... */\n      0x04\n        /* \"contracts/FutarchyArbExecutorV4.sol\":14240:14243  a.t */\n      0x00\n        /* \"contracts/FutarchyArbExecutorV4.sol\":14867:14882  LowYesCompOut() */\n      revert\n        /* \"contracts/FutarchyArbExecutorV4.sol\":14647:14683  a.t.yesComp.balanceOf(address(this)) */\n    tag_544:\n      tag_640\n      swap2\n      pop\n        /* \"contracts/FutarchyArbExecutorV4.sol\":14240:14247  a.t.cur */\n      0x20\n        /* \"contracts/FutarchyArbExecutorV4.sol\":14647:14683  a.t.yesComp.balanceOf(address(this)) */\n      returndatasize\n        /* \"contracts/FutarchyArbExecutorV4.sol\":14240:14247  a.t.cur */\n      0x20\n        /* \"contracts/FutarchyArbExecutorV4.sol\":14647:14683  a.t.yesComp.balanceOf(address(this)) */\n      gt\n      tag_387\n      jumpi\n      tag_389\n      dup2\n      dup4\n      tag_24\n      jump\t// in\n    tag_640:\n      0x00\n      jump(tag_545)\n        /* \"contracts/FutarchyArbExecutorV4.sol\":14378:14440  a.f.router.splitPosition(a.f.proposal, a.t.cur, a.amountCurIn) */\n    tag_531:\n      dup1\n      tag_164\n        /* \"contracts/FutarchyArbExecutorV4.sol\":14240:14243  a.t */\n      0x00\n        /* \"contracts/FutarchyArbExecutorV4.sol\":14378:14440  a.f.router.splitPosition(a.f.proposal, a.t.cur, a.amountCurIn) */\n      tag_645\n      swap4\n      tag_24\n      jump\t// in\n    tag_645:\n      0x00\n      jump(tag_532)\n        /* \"contracts/FutarchyArbExecutorV4.sol\":14240:14272  a.t.cur.balanceOf(address(this)) */\n    tag_516:\n      tag_646\n      swap2\n      pop\n        /* \"contracts/FutarchyArbExecutorV4.sol\":14240:14247  a.t.cur */\n      0x20\n        /* \"contracts/FutarchyArbExecutorV4.sol\":14240:14272  a.t.cur.balanceOf(address(this)) */\n      returndatasize\n        /* \"contracts/FutarchyArbExecutorV4.sol\":14240:14247  a.t.cur */\n      0x20\n        /* \"contracts/FutarchyArbExecutorV4.sol\":14240:14272  a.t.cur.balanceOf(address(this)) */\n      gt\n      tag_387\n      jumpi\n      tag_389\n      dup2\n      dup4\n      tag_24\n      jump\t// in\n    tag_646:\n      0x00\n      jump(tag_517)\n        /* \"contracts/FutarchyArbExecutorV4.sol\":711:18294  contract FutarchyArbExecutorV4 {... */\n    tag_17:\n      swap1\n      0x04\n      swap2\n      0x0144\n      gt\n      tag_114\n      jumpi\n      jump\t// out\n    tag_18:\n      swap2\n      swap1\n      0x0140\n      dup4\n      add\n      gt\n      tag_114\n      jumpi\n      jump\t// out\n    tag_20:\n      jumpi(tag_114, slt(add(not(0x03), calldatasize), 0x0180))\n      tag_656\n      calldatasize\n      tag_17\n      jump\t// in\n    tag_656:\n      calldataload(0x0144)\n      0xffffffffffffffff\n      dup2\n      gt\n      tag_114\n      jumpi\n      tag_659\n      swap1\n      calldatasize\n      swap1\n      0x04\n      add\n      tag_18\n      jump\t// in\n    tag_659:\n      calldataload(0x0164)\n        /* \"contracts/FutarchyArbExecutorV4.sol\":6451:6455  this */\n      swap2\n      address\n        /* \"contracts/FutarchyArbExecutorV4.sol\":6429:6439  msg.sender */\n      caller\n        /* \"contracts/FutarchyArbExecutorV4.sol\":6429:6456  msg.sender != address(this) */\n      sub\n        /* \"contracts/FutarchyArbExecutorV4.sol\":6425:6475  if (msg.sender != address(this)) revert OnlySelf() */\n      tag_229\n      jumpi\n        /* \"contracts/FutarchyArbExecutorV4.sol\":6497:6499  10 */\n      0x0a\n        /* \"contracts/FutarchyArbExecutorV4.sol\":6489:6499  count > 10 */\n      dup4\n      gt\n        /* \"contracts/FutarchyArbExecutorV4.sol\":6485:6522  if (count > 10) revert TooManyCalls() */\n      tag_663\n      jumpi\n      0x00\n        /* \"contracts/FutarchyArbExecutorV4.sol\":6572:6581  i < count */\n    tag_665:\n      dup4\n      dup2\n      lt\n      tag_666\n      jumpi\n        /* \"contracts/FutarchyArbExecutorV4.sol\":711:18294  contract FutarchyArbExecutorV4 {... */\n      stop\n        /* \"contracts/FutarchyArbExecutorV4.sol\":6583:6586  i++ */\n    tag_666:\n        /* \"contracts/FutarchyArbExecutorV4.sol\":6618:6628  targets[i] */\n      tag_668\n      tag_297\n      dup3\n      dup5\n      tag_61\n      jump\t// in\n    tag_668:\n      sub(shl(0xa0, 0x01), 0x01)\n        /* \"contracts/FutarchyArbExecutorV4.sol\":711:18294  contract FutarchyArbExecutorV4 {... */\n      dup2\n      and\n        /* \"contracts/FutarchyArbExecutorV4.sol\":6650:6665  t == address(0) */\n      iszero\n        /* \"contracts/FutarchyArbExecutorV4.sol\":6646:6675  if (t == address(0)) continue */\n      tag_670\n      jumpi\n      0x00\n        /* \"contracts/FutarchyArbExecutorV4.sol\":6730:6742  calldatas[i] */\n      dup1\n      swap2\n      dup2\n      tag_672\n      dup6\n      dup9\n      tag_62\n      jump\t// in\n    tag_672:\n        /* \"contracts/FutarchyArbExecutorV4.sol\":711:18294  contract FutarchyArbExecutorV4 {... */\n      swap2\n      swap1\n      tag_673\n      mload(0x40)\n      dup1\n      swap5\n      dup2\n      swap4\n      tag_22\n      jump\t// in\n    tag_673:\n        /* \"contracts/FutarchyArbExecutorV4.sol\":6723:6743  t.call(calldatas[i]) */\n      sub\n      swap3\n      gas\n      call\n      tag_674\n      tag_26\n      jump\t// in\n    tag_674:\n        /* \"contracts/FutarchyArbExecutorV4.sol\":6765:6768  !ok */\n      swap1\n      iszero\n        /* \"contracts/FutarchyArbExecutorV4.sol\":6761:6786  if (!ok) _revertWith(ret) */\n      tag_675\n      jumpi\n        /* \"contracts/FutarchyArbExecutorV4.sol\":6583:6586  i++ */\n      pop\n        /* \"contracts/FutarchyArbExecutorV4.sol\":711:18294  contract FutarchyArbExecutorV4 {... */\n      0x01\n        /* \"contracts/FutarchyArbExecutorV4.sol\":6583:6586  i++ */\n      swap1\n        /* \"contracts/FutarchyArbExecutorV4.sol\":6561:6570  uint256 i */\n    tag_677:\n        /* \"contracts/FutarchyArbExecutorV4.sol\":711:18294  contract FutarchyArbExecutorV4 {... */\n      add\n        /* \"contracts/FutarchyArbExecutorV4.sol\":6561:6570  uint256 i */\n      jump(tag_665)\n        /* \"contracts/FutarchyArbExecutorV4.sol\":6761:6786  if (!ok) _revertWith(ret) */\n    tag_675:\n        /* \"contracts/FutarchyArbExecutorV4.sol\":6782:6785  ret */\n      tag_63\n      jump\t// in\n        /* \"contracts/FutarchyArbExecutorV4.sol\":6646:6675  if (t == address(0)) continue */\n    tag_670:\n        /* \"contracts/FutarchyArbExecutorV4.sol\":6667:6675  continue */\n      pop\n        /* \"contracts/FutarchyArbExecutorV4.sol\":711:18294  contract FutarchyArbExecutorV4 {... */\n      0x01\n        /* \"contracts/FutarchyArbExecutorV4.sol\":6667:6675  continue */\n      swap1\n      jump(tag_677)\n        /* \"contracts/FutarchyArbExecutorV4.sol\":6485:6522  if (count > 10) revert TooManyCalls() */\n    tag_663:\n        /* \"contracts/FutarchyArbExecutorV4.sol\":6508:6522  TooManyCalls() */\n      mstore(0x00, shl(0xe0, 0xf5dedbff))\n        /* \"contracts/FutarchyArbExecutorV4.sol\":711:18294  contract FutarchyArbExecutorV4 {... */\n      0x04\n      0x00\n        /* \"contracts/FutarchyArbExecutorV4.sol\":6508:6522  TooManyCalls() */\n      revert\n        /* \"contracts/FutarchyArbExecutorV4.sol\":711:18294  contract FutarchyArbExecutorV4 {... */\n    tag_22:\n      swap1\n      dup1\n      swap3\n      swap2\n      dup3\n      calldatacopy\n      add\n      0x00\n      dup2\n      mstore\n      swap1\n      jump\t// out\n    tag_23:\n      mstore(0x00, shl(0xe0, 0x4e487b71))\n      mstore(0x04, 0x41)\n      revert(0x00, 0x24)\n    tag_24:\n      swap1\n      0x1f\n      dup1\n      not\n      swap2\n      add\n      and\n      dup2\n      add\n      swap1\n      dup2\n      lt\n      0xffffffffffffffff\n      dup3\n      gt\n      or\n      tag_678\n      jumpi\n      0x40\n      mstore\n      jump\t// out\n    tag_678:\n      tag_23\n      jump\t// in\n    tag_25:\n      0xffffffffffffffff\n      dup2\n      gt\n      tag_678\n      jumpi\n      0x1f\n      add\n      not(0x1f)\n      and\n      0x20\n      add\n      swap1\n      jump\t// out\n    tag_26:\n      jumpi(tag_682, iszero(returndatasize))\n      returndatasize\n      swap1\n      tag_684\n      dup3\n      tag_25\n      jump\t// in\n    tag_684:\n      swap2\n      tag_685\n      mload(0x40)\n      swap4\n      dup5\n      tag_24\n      jump\t// in\n    tag_685:\n      dup3\n      mstore\n      returndatasize\n      0x00\n      0x20\n      dup5\n      add\n      returndatacopy\n      jump\t// out\n    tag_682:\n      0x60\n      swap1\n      jump\t// out\n        /* \"contracts/FutarchyArbExecutorV4.sol\":6823:7117  function executeOne(address target, bytes calldata data) external payable returns (bytes memory) {... */\n    tag_27:\n        /* \"contracts/FutarchyArbExecutorV4.sol\":6956:6960  this */\n      address\n        /* \"contracts/FutarchyArbExecutorV4.sol\":6934:6944  msg.sender */\n      caller\n        /* \"contracts/FutarchyArbExecutorV4.sol\":6934:6961  msg.sender != address(this) */\n      sub\n        /* \"contracts/FutarchyArbExecutorV4.sol\":6930:6980  if (msg.sender != address(this)) revert OnlySelf() */\n      tag_229\n      jumpi\n        /* \"contracts/FutarchyArbExecutorV4.sol\":711:18294  contract FutarchyArbExecutorV4 {... */\n      dup3\n      0x00\n      swap4\n      swap3\n      dup5\n      swap4\n      mload(0x40)\n      swap3\n      dup4\n      swap3\n      dup4\n      calldatacopy\n      dup2\n      add\n      dup5\n      dup2\n      mstore\n        /* \"contracts/FutarchyArbExecutorV4.sol\":7020:7055  target.call{value: msg.value}(data) */\n      sub\n        /* \"contracts/FutarchyArbExecutorV4.sol\":7039:7048  msg.value */\n      swap2\n      callvalue\n        /* \"contracts/FutarchyArbExecutorV4.sol\":7020:7055  target.call{value: msg.value}(data) */\n      swap1\n      gas\n      call\n      tag_689\n      tag_26\n      jump\t// in\n    tag_689:\n        /* \"contracts/FutarchyArbExecutorV4.sol\":7069:7072  !ok */\n      swap1\n      iszero\n        /* \"contracts/FutarchyArbExecutorV4.sol\":7065:7090  if (!ok) _revertWith(ret) */\n      tag_675\n      jumpi\n        /* \"contracts/FutarchyArbExecutorV4.sol\":6823:7117  function executeOne(address target, bytes calldata data) external payable returns (bytes memory) {... */\n      swap1\n      jump\t// out\n        /* \"contracts/FutarchyArbExecutorV4.sol\":711:18294  contract FutarchyArbExecutorV4 {... */\n    tag_28:\n      swap1\n      0xa0\n      tag_692\n      dup2\n      tag_120\n      swap5\n      dup1\n      calldataload\n      tag_694\n      dup2\n      tag_1\n      jump\t// in\n    tag_694:\n      0x01\n      dup1\n      dup5\n      shl\n      sub\n      and\n      dup6\n      mstore\n      0x20\n      dup2\n      add\n      calldataload\n      tag_695\n      dup2\n      tag_1\n      jump\t// in\n    tag_695:\n      0x01\n      dup1\n      dup5\n      shl\n      sub\n      and\n      0x20\n      dup7\n      add\n      mstore\n      0x40\n      dup2\n      add\n      calldataload\n      tag_696\n      dup2\n      tag_1\n      jump\t// in\n    tag_696:\n      0x01\n      dup1\n      dup5\n      shl\n      sub\n      and\n      0x40\n      dup7\n      add\n      mstore\n      0x60\n      dup2\n      add\n      calldataload\n      tag_697\n      dup2\n      tag_1\n      jump\t// in\n    tag_697:\n      0x01\n      dup1\n      dup5\n      shl\n      sub\n      and\n      0x60\n      dup7\n      add\n      mstore\n      tag_698\n      0x80\n      dup3\n      add\n      calldataload\n      tag_699\n      dup2\n      tag_1\n      jump\t// in\n    tag_699:\n      sub(shl(0xa0, 0x01), 0x01)\n      and\n      0x80\n      dup8\n      add\n      mstore\n      jump\n    tag_698:\n      add\n      tag_2\n      jump\t// in\n    tag_692:\n      sub(shl(0xa0, 0x01), 0x01)\n      and\n      swap2\n      add\n      mstore\n      jump\n    tag_29:\n      0x20\n      dup1\n      swap2\n      dup1\n      calldataload\n      tag_700\n      dup2\n      tag_1\n      jump\t// in\n    tag_700:\n      sub(shl(0xa0, 0x01), 0x01)\n      and\n      dup5\n      mstore\n      add\n      calldataload\n      tag_692\n      dup2\n      tag_1\n      jump\t// in\n    tag_30:\n      0x60\n      dup1\n      swap2\n      dup1\n      calldataload\n      tag_702\n      dup2\n      tag_1\n      jump\t// in\n    tag_702:\n      sub(shl(0xa0, 0x01), 0x01)\n      and\n      dup5\n      mstore\n      0x20\n      dup2\n      add\n      calldataload\n      tag_703\n      dup2\n      tag_1\n      jump\t// in\n    tag_703:\n      sub(shl(0xa0, 0x01), 0x01)\n      and\n      0x20\n      dup6\n      add\n      mstore\n      0x40\n      dup2\n      add\n      calldataload\n      tag_704\n      dup2\n      tag_1\n      jump\t// in\n    tag_704:\n      sub(shl(0xa0, 0x01), 0x01)\n      and\n      0x40\n      dup6\n      add\n      mstore\n      add\n      calldataload\n      tag_692\n      dup2\n      tag_1\n      jump\t// in\n    tag_31:\n      swap1\n      calldataload\n      not(0x1e)\n      dup3\n      calldatasize\n      sub\n      add\n      dup2\n      slt\n      iszero\n      tag_114\n      jumpi\n      add\n      0x20\n      dup2\n      calldataload\n      swap2\n      add\n      swap2\n      0xffffffffffffffff\n      dup3\n      gt\n      tag_114\n      jumpi\n      dup2\n      calldatasize\n      sub\n      dup4\n      sgt\n      tag_114\n      jumpi\n      jump\t// out\n    tag_32:\n      swap1\n      dup1\n      0x20\n      swap4\n      swap3\n      dup2\n      dup5\n      mstore\n      dup5\n      dup5\n      add\n      calldatacopy\n      0x00\n      dup3\n      dup3\n      add\n      dup5\n      add\n      mstore\n      0x1f\n      add\n      not(0x1f)\n      and\n      add\n      add\n      swap1\n      jump\t// out\n    tag_33:\n      swap1\n      calldataload\n      not(0x029e)\n      dup3\n      calldatasize\n      sub\n      add\n      dup2\n      slt\n      iszero\n      tag_114\n      jumpi\n      add\n      swap1\n      jump\t// out\n    tag_34:\n      swap1\n      0x00\n      swap1\n    tag_714:\n      0x0a\n      dup3\n      lt\n      tag_715\n      jumpi\n      pop\n      pop\n      pop\n      jump\t// out\n    tag_715:\n      0x20\n      dup1\n      0x01\n      swap3\n      dup6\n      calldataload\n      tag_717\n      dup2\n      tag_1\n      jump\t// in\n    tag_717:\n      dup5\n      dup1\n      0xa0\n      shl\n      sub\n      and\n      dup2\n      mstore\n      add\n      swap4\n      add\n      swap2\n      add\n      swap1\n      swap2\n      jump(tag_714)\n    tag_35:\n      swap1\n      calldataload\n      not(0x013e)\n      dup3\n      calldatasize\n      sub\n      add\n      dup2\n      slt\n      iszero\n      tag_114\n      jumpi\n      add\n      swap1\n      jump\t// out\n    tag_36:\n      0x0140\n      dup3\n      add\n      swap2\n      0x00\n      dup2\n      dup4\n    tag_720:\n      0x0a\n      dup4\n      lt\n      tag_721\n      jumpi\n      pop\n      pop\n      pop\n      pop\n      pop\n      swap1\n      jump\t// out\n    tag_721:\n      swap1\n      swap2\n      swap3\n      swap4\n      swap5\n      0x20\n      dup1\n      tag_723\n      dup4\n      dup9\n      0x01\n      swap6\n      sub\n      dup8\n      mstore\n      tag_724\n      dup11\n      dup8\n      tag_31\n      jump\t// in\n    tag_724:\n      swap1\n      tag_32\n      jump\t// in\n    tag_723:\n      swap8\n      add\n      swap4\n      add\n      swap4\n      add\n      swap2\n      swap4\n      swap3\n      swap1\n      jump(tag_720)\n    tag_37:\n      0xff\n      dup2\n      and\n      sub\n      tag_114\n      jumpi\n      jump\t// out\n    tag_38:\n      calldataload\n      swap1\n      tag_120\n      dup3\n      tag_37\n      jump\t// in\n    tag_40:\n      0xffff\n      dup2\n      and\n      sub\n      tag_114\n      jumpi\n      jump\t// out\n    tag_41:\n      calldataload\n      swap1\n      tag_120\n      dup3\n      tag_40\n      jump\t// in\n    tag_43:\n      swap1\n      tag_121\n      swap1\n      tag_732\n      dup2\n      dup5\n      tag_34\n      jump\t// in\n    tag_732:\n      0x0280\n      tag_733\n      dup2\n      tag_734\n      tag_735\n      0x0140\n      dup9\n      add\n      dup9\n      tag_35\n      jump\t// in\n    tag_735:\n      0x02a0\n      0x0140\n      dup8\n      add\n      mstore\n      0x02a0\n      dup7\n      add\n      swap1\n      tag_36\n      jump\t// in\n    tag_734:\n      swap6\n      0x0160\n      dup2\n      add\n      calldataload\n      0x0160\n      dup7\n      add\n      mstore\n      tag_736\n      tag_737\n      0x0180\n      dup4\n      add\n      tag_2\n      jump\t// in\n    tag_737:\n      sub(shl(0xa0, 0x01), 0x01)\n      and\n      0x0180\n      dup8\n      add\n      mstore\n      jump\n    tag_736:\n      tag_738\n      tag_739\n      0x01a0\n      dup4\n      add\n      tag_2\n      jump\t// in\n    tag_739:\n      sub(shl(0xa0, 0x01), 0x01)\n      and\n      0x01a0\n      dup8\n      add\n      mstore\n      jump\n    tag_738:\n      tag_740\n      tag_741\n      0x01c0\n      dup4\n      add\n      tag_2\n      jump\t// in\n    tag_741:\n      sub(shl(0xa0, 0x01), 0x01)\n      and\n      0x01c0\n      dup8\n      add\n      mstore\n      jump\n    tag_740:\n      0x01e0\n      dup2\n      add\n      calldataload\n      0x01e0\n      dup7\n      add\n      mstore\n      0x0200\n      dup2\n      add\n      calldataload\n      0x0200\n      dup7\n      add\n      mstore\n      tag_742\n      tag_743\n      0x0220\n      dup4\n      add\n      tag_38\n      jump\t// in\n    tag_743:\n      0xff\n      and\n      0x0220\n      dup8\n      add\n      mstore\n      jump\n    tag_742:\n      0x0240\n      dup2\n      add\n      calldataload\n      0x0240\n      dup7\n      add\n      mstore\n      0x0260\n      dup2\n      add\n      calldataload\n      0x0260\n      dup7\n      add\n      mstore\n      add\n      tag_41\n      jump\t// in\n    tag_733:\n      0xffff\n      and\n      swap2\n      add\n      mstore\n      jump\n    tag_44:\n      swap1\n      calldataload\n      not(0xbe)\n      dup3\n      calldatasize\n      sub\n      add\n      dup2\n      slt\n      iszero\n      tag_114\n      jumpi\n      add\n      swap1\n      jump\t// out\n    tag_45:\n      swap1\n      dup2\n      calldataload\n      tag_746\n      dup2\n      tag_1\n      jump\t// in\n    tag_746:\n      sub(shl(0xa0, 0x01), 0x01)\n      and\n      dup2\n      mstore\n      0xa0\n      0xffff\n      dup2\n      tag_747\n      tag_748\n      0x20\n      dup8\n      add\n      dup8\n      tag_31\n      jump\t// in\n    tag_748:\n      0xc0\n      0x20\n      dup9\n      add\n      mstore\n      0xc0\n      dup8\n      add\n      swap2\n      tag_32\n      jump\t// in\n    tag_747:\n      swap5\n      0x40\n      dup2\n      add\n      calldataload\n      0x40\n      dup7\n      add\n      mstore\n      0x60\n      dup2\n      add\n      calldataload\n      0x60\n      dup7\n      add\n      mstore\n      0x80\n      dup2\n      add\n      calldataload\n      0x80\n      dup7\n      add\n      mstore\n      add\n      calldataload\n      tag_749\n      dup2\n      tag_40\n      jump\t// in\n    tag_749:\n      and\n      swap2\n      add\n      mstore\n      swap1\n      jump\t// out\n    tag_46:\n      mload(0x40)\n      returndatasize\n      0x00\n      dup3\n      returndatacopy\n      returndatasize\n      swap1\n      revert\n    tag_47:\n      calldataload\n      tag_121\n      dup2\n      tag_1\n      jump\t// in\n    tag_48:\n      swap1\n      dup2\n      0x20\n      swap2\n      sub\n      slt\n      tag_114\n      jumpi\n      mload\n      swap1\n      jump\t// out\n    tag_49:\n      swap1\n      calldataload\n      swap1\n      not(0x029e)\n      dup2\n      calldatasize\n      sub\n      add\n      dup3\n      slt\n      iszero\n      tag_114\n      jumpi\n      add\n      swap1\n      jump\t// out\n    tag_51:\n      mstore(0x00, shl(0xe0, 0x4e487b71))\n      mstore(0x04, 0x11)\n      revert(0x00, 0x24)\n    tag_52:\n      swap2\n      swap1\n      dup3\n      sub\n      swap2\n      dup3\n      gt\n      tag_755\n      jumpi\n      jump\t// out\n    tag_755:\n      tag_51\n      jump\t// in\n    tag_53:\n      swap1\n      calldataload\n      swap1\n      not(0x1e)\n      dup2\n      calldatasize\n      sub\n      add\n      dup3\n      slt\n      iszero\n      tag_114\n      jumpi\n      add\n      dup1\n      calldataload\n      swap1\n      0xffffffffffffffff\n      dup3\n      gt\n      tag_114\n      jumpi\n      0x20\n      add\n      swap2\n      dup2\n      calldatasize\n      sub\n      dup4\n      sgt\n      tag_114\n      jumpi\n      jump\t// out\n    tag_54:\n      swap3\n      swap2\n      swap3\n      tag_763\n      dup3\n      tag_25\n      jump\t// in\n    tag_763:\n      swap2\n      tag_764\n      mload(0x40)\n      swap4\n      dup5\n      tag_24\n      jump\t// in\n    tag_764:\n      dup3\n      swap5\n      dup2\n      dup5\n      mstore\n      dup2\n      dup4\n      add\n      gt\n      tag_114\n      jumpi\n      dup3\n      dup2\n      0x20\n      swap4\n      dup5\n      0x00\n      swap7\n      add\n      calldatacopy\n      add\n      add\n      mstore\n      jump\t// out\n    tag_55:\n      swap1\n      calldataload\n      swap1\n      not(0xbe)\n      dup2\n      calldatasize\n      sub\n      add\n      dup3\n      slt\n      iszero\n      tag_114\n      jumpi\n      add\n      swap1\n      jump\t// out\n    tag_56:\n      calldataload\n      tag_121\n      dup2\n      tag_40\n      jump\t// in\n    tag_57:\n      dup2\n      dup2\n      sub\n      swap3\n      swap2\n      0x00\n      sgt\n      dup1\n      iszero\n      dup3\n      dup6\n      sgt\n      and\n      swap2\n      dup5\n      slt\n      and\n      or\n      tag_755\n      jumpi\n      jump\t// out\n    tag_60:\n      mstore(0x00, shl(0xe0, 0x4e487b71))\n      mstore(0x04, 0x32)\n      revert(0x00, 0x24)\n    tag_61:\n      swap1\n      0x0a\n      dup2\n      lt\n      iszero\n      tag_772\n      jumpi\n      0x05\n      shl\n      add\n      swap1\n      jump\t// out\n    tag_772:\n      tag_60\n      jump\t// in\n    tag_62:\n      0x0a\n      dup3\n      lt\n      iszero\n      tag_772\n      jumpi\n      tag_776\n      swap2\n      0x05\n      shl\n      dup2\n      add\n      swap1\n      tag_53\n      jump\t// in\n    tag_776:\n      swap1\n      swap2\n      jump\t// out\n        /* \"contracts/FutarchyArbExecutorV4.sol\":18091:18256  function _revertWith(bytes memory ret) private pure {... */\n    tag_63:\n        /* \"contracts/FutarchyArbExecutorV4.sol\":711:18294  contract FutarchyArbExecutorV4 {... */\n      dup1\n      mload\n        /* \"contracts/FutarchyArbExecutorV4.sol\":18157:18172  ret.length == 0 */\n      iszero\n        /* \"contracts/FutarchyArbExecutorV4.sol\":18153:18193  if (ret.length == 0) revert CallFailed() */\n      tag_777\n      jumpi\n        /* \"contracts/FutarchyArbExecutorV4.sol\":18203:18250  assembly { revert(add(ret, 0x20), mload(ret)) } */\n      0x20\n      dup2\n      mload\n      swap2\n      add\n      revert\n        /* \"contracts/FutarchyArbExecutorV4.sol\":18153:18193  if (ret.length == 0) revert CallFailed() */\n    tag_777:\n        /* \"contracts/FutarchyArbExecutorV4.sol\":18181:18193  CallFailed() */\n      shl(0xe0, 0x3204506f)\n        /* \"contracts/FutarchyArbExecutorV4.sol\":18171:18172  0 */\n      0x00\n        /* \"contracts/FutarchyArbExecutorV4.sol\":18181:18193  CallFailed() */\n      mstore\n      0x04\n        /* \"contracts/FutarchyArbExecutorV4.sol\":18171:18172  0 */\n      0x00\n        /* \"contracts/FutarchyArbExecutorV4.sol\":18181:18193  CallFailed() */\n      revert\n        /* \"contracts/FutarchyArbExecutorV4.sol\":711:18294  contract FutarchyArbExecutorV4 {... */\n    tag_64:\n      swap2\n      swap1\n      0x0140\n      mload(0x40)\n      swap4\n      tag_779\n      dup3\n      dup7\n      tag_24\n      jump\t// in\n    tag_779:\n      dup5\n      swap2\n      dup2\n      add\n      swap3\n      dup4\n      gt\n      tag_114\n      jumpi\n      swap1\n    tag_782:\n      dup3\n      dup3\n      lt\n      tag_783\n      jumpi\n      pop\n      pop\n      pop\n      jump\t// out\n    tag_783:\n      0x20\n      dup1\n      swap2\n      dup4\n      calldataload\n      tag_785\n      dup2\n      tag_1\n      jump\t// in\n    tag_785:\n      dup2\n      mstore\n      add\n      swap2\n      add\n      swap1\n      jump(tag_782)\n    tag_65:\n      swap1\n      calldataload\n      swap1\n      not(0x013e)\n      dup2\n      calldatasize\n      sub\n      add\n      dup3\n      slt\n      iszero\n      tag_114\n      jumpi\n      add\n      swap1\n      jump\t// out\n    tag_66:\n      0x0140\n      mload(0x40)\n      swap2\n      tag_788\n      dup3\n      dup5\n      tag_24\n      jump\t// in\n    tag_788:\n      dup3\n      swap2\n      dup2\n      add\n      swap1\n      calldatasize\n      dup3\n      gt\n      tag_114\n      jumpi\n      dup1\n      swap3\n    tag_791:\n      dup3\n      dup5\n      lt\n      tag_792\n      jumpi\n      pop\n      pop\n      pop\n      pop\n      swap1\n      jump\t// out\n    tag_792:\n      dup4\n      calldataload\n      0xffffffffffffffff\n      dup2\n      gt\n      tag_114\n      jumpi\n      dup3\n      add\n      calldatasize\n      0x1f\n      dup3\n      add\n      slt\n      iszero\n      tag_114\n      jumpi\n      0x20\n      swap2\n      tag_798\n      dup4\n      swap3\n      calldatasize\n      swap1\n      dup5\n      dup2\n      calldataload\n      swap2\n      add\n      tag_54\n      jump\t// in\n    tag_798:\n      dup2\n      mstore\n      add\n      swap4\n      add\n      swap3\n      jump(tag_791)\n    tag_67:\n      calldataload\n      tag_121\n      dup2\n      tag_37\n      jump\t// in\n        /* \"contracts/FutarchyArbExecutorV4.sol\":5325:5340  type(uint8).max */\n    tag_69:\n      swap4\n      swap3\n      swap2\n      swap1\n      0x0180\n      dup6\n      add\n      swap1\n      0x00\n      dup7\n    tag_800:\n        /* \"contracts/FutarchyArbExecutorV4.sol\":711:18294  contract FutarchyArbExecutorV4 {... */\n      0x0a\n        /* \"contracts/FutarchyArbExecutorV4.sol\":5325:5340  type(uint8).max */\n      dup3\n      lt\n      tag_801\n      jumpi\n      pop\n      pop\n      0x0180\n      0x0140\n      dup8\n      add\n      mstore\n      pop\n      0x02c0\n      dup6\n      add\n      swap1\n      0x00\n    tag_803:\n        /* \"contracts/FutarchyArbExecutorV4.sol\":711:18294  contract FutarchyArbExecutorV4 {... */\n      0x0a\n        /* \"contracts/FutarchyArbExecutorV4.sol\":5325:5340  type(uint8).max */\n      dup2\n      lt\n      tag_804\n      jumpi\n      pop\n      pop\n      0x0160\n      swap2\n      pop\n      swap4\n      add\n        /* \"contracts/FutarchyArbExecutorV4.sol\":711:18294  contract FutarchyArbExecutorV4 {... */\n      mstore\n        /* \"contracts/FutarchyArbExecutorV4.sol\":5325:5340  type(uint8).max */\n      jump\t// out\n    tag_804:\n      swap1\n      swap2\n        /* \"contracts/FutarchyArbExecutorV4.sol\":711:18294  contract FutarchyArbExecutorV4 {... */\n      0x20\n        /* \"contracts/FutarchyArbExecutorV4.sol\":5325:5340  type(uint8).max */\n      dup1\n      tag_806\n      0x01\n      swap4\n      not(0x017f)\n      dup12\n      dup3\n      sub\n      add\n      dup8\n      mstore\n      dup8\n      mload\n      tag_3\n      jump\t// in\n    tag_806:\n        /* \"contracts/FutarchyArbExecutorV4.sol\":711:18294  contract FutarchyArbExecutorV4 {... */\n      swap6\n      add\n      swap5\n      swap4\n        /* \"contracts/FutarchyArbExecutorV4.sol\":5325:5340  type(uint8).max */\n      add\n      swap2\n      add\n      jump(tag_803)\n    tag_801:\n      dup3\n      mload\n      sub(shl(0xa0, 0x01), 0x01)\n        /* \"contracts/FutarchyArbExecutorV4.sol\":711:18294  contract FutarchyArbExecutorV4 {... */\n      and\n      dup2\n      mstore\n      0x20\n      swap3\n      dup4\n      add\n      swap3\n        /* \"contracts/FutarchyArbExecutorV4.sol\":5325:5340  type(uint8).max */\n      0x01\n      swap3\n      swap1\n      swap3\n      add\n      swap2\n        /* \"contracts/FutarchyArbExecutorV4.sol\":711:18294  contract FutarchyArbExecutorV4 {... */\n      add\n        /* \"contracts/FutarchyArbExecutorV4.sol\":5325:5340  type(uint8).max */\n      jump(tag_800)\n    tag_70:\n        /* \"contracts/FutarchyArbExecutorV4.sol\":711:18294  contract FutarchyArbExecutorV4 {... */\n      0xffff\n      and\n      0x2710\n        /* \"contracts/FutarchyArbExecutorV4.sol\":5325:5340  type(uint8).max */\n      sub\n      swap1\n        /* \"contracts/FutarchyArbExecutorV4.sol\":711:18294  contract FutarchyArbExecutorV4 {... */\n      0xffff\n        /* \"contracts/FutarchyArbExecutorV4.sol\":5325:5340  type(uint8).max */\n      dup3\n      gt\n      tag_755\n      jumpi\n      jump\t// out\n    tag_72:\n      dup2\n      dup2\n      mul\n      swap3\n      swap2\n      dup2\n      iszero\n      swap2\n      dup5\n      div\n      eq\n      or\n      iszero\n      tag_755\n      jumpi\n      jump\t// out\n        /* \"contracts/FutarchyArbExecutorV4.sol\":7997:10304  function _runExecute10Checked(... */\n    tag_74:\n        /* \"contracts/FutarchyArbExecutorV4.sol\":8274:8284  b.amountIn */\n      0x01e0\n      dup2\n      add\n        /* \"contracts/FutarchyArbExecutorV4.sol\":711:18294  contract FutarchyArbExecutorV4 {... */\n      calldataload\n        /* \"contracts/FutarchyArbExecutorV4.sol\":8317:8328  amount == 0 */\n      dup1\n      iszero\n        /* \"contracts/FutarchyArbExecutorV4.sol\":8313:8349  if (amount == 0) revert ZeroAmount() */\n      tag_811\n      jumpi\n        /* \"contracts/FutarchyArbExecutorV4.sol\":8363:8370  b.count */\n      0x0160\n      dup3\n      add\n        /* \"contracts/FutarchyArbExecutorV4.sol\":711:18294  contract FutarchyArbExecutorV4 {... */\n      calldataload\n        /* \"contracts/FutarchyArbExecutorV4.sol\":8363:8375  b.count > 10 */\n      swap2\n        /* \"contracts/FutarchyArbExecutorV4.sol\":8373:8375  10 */\n      0x0a\n        /* \"contracts/FutarchyArbExecutorV4.sol\":8363:8375  b.count > 10 */\n      dup4\n      gt\n        /* \"contracts/FutarchyArbExecutorV4.sol\":8359:8398  if (b.count > 10) revert TooManyCalls() */\n      tag_663\n      jumpi\n        /* \"contracts/FutarchyArbExecutorV4.sol\":8426:8443  IERC20(b.tokenIn) */\n      tag_815\n        /* \"contracts/FutarchyArbExecutorV4.sol\":8433:8442  b.tokenIn */\n      tag_232\n      0x0180\n      dup4\n      add\n      tag_47\n      jump\t// in\n        /* \"contracts/FutarchyArbExecutorV4.sol\":8426:8443  IERC20(b.tokenIn) */\n    tag_815:\n        /* \"contracts/FutarchyArbExecutorV4.sol\":8471:8489  IERC20(b.tokenOut) */\n      tag_817\n        /* \"contracts/FutarchyArbExecutorV4.sol\":8478:8488  b.tokenOut */\n      tag_232\n      0x01a0\n      dup5\n      add\n      tag_47\n      jump\t// in\n        /* \"contracts/FutarchyArbExecutorV4.sol\":8471:8489  IERC20(b.tokenOut) */\n    tag_817:\n        /* \"contracts/FutarchyArbExecutorV4.sol\":711:18294  contract FutarchyArbExecutorV4 {... */\n      swap4\n      tag_819\n      calldatasize\n      dup5\n      tag_64\n      jump\t// in\n    tag_819:\n        /* \"contracts/FutarchyArbExecutorV4.sol\":8620:8631  b.calldatas */\n      swap5\n        /* \"contracts/FutarchyArbExecutorV4.sol\":8595:8631  bytes[10] memory datas = b.calldatas */\n      tag_820\n        /* \"contracts/FutarchyArbExecutorV4.sol\":8620:8631  b.calldatas */\n      tag_821\n      0x0140\n      dup7\n      add\n      dup7\n      tag_65\n      jump\t// in\n    tag_821:\n        /* \"contracts/FutarchyArbExecutorV4.sol\":8595:8631  bytes[10] memory datas = b.calldatas */\n      tag_66\n      jump\t// in\n    tag_820:\n        /* \"contracts/FutarchyArbExecutorV4.sol\":8646:8658  b.patchIndex */\n      swap3\n      0x0220\n      dup6\n      add\n        /* \"contracts/FutarchyArbExecutorV4.sol\":711:18294  contract FutarchyArbExecutorV4 {... */\n      0xff\n        /* \"contracts/FutarchyArbExecutorV4.sol\":8646:8658  b.patchIndex */\n      dup1\n      tag_822\n      dup4\n      tag_67\n      jump\t// in\n    tag_822:\n        /* \"contracts/FutarchyArbExecutorV4.sol\":711:18294  contract FutarchyArbExecutorV4 {... */\n      and\n        /* \"contracts/FutarchyArbExecutorV4.sol\":8646:8672  b.patchIndex != PATCH_NONE */\n      sub\n        /* \"contracts/FutarchyArbExecutorV4.sol\":8642:8889  if (b.patchIndex != PATCH_NONE) {... */\n      tag_823\n      jumpi\n        /* \"contracts/FutarchyArbExecutorV4.sol\":7997:10304  function _runExecute10Checked(... */\n    tag_824:\n      pop\n        /* \"contracts/FutarchyArbExecutorV4.sol\":8949:8958  b.spender */\n      0x01c0\n      dup6\n      add\n        /* \"contracts/FutarchyArbExecutorV4.sol\":711:18294  contract FutarchyArbExecutorV4 {... */\n      dup7\n      sub(shl(0xa0, 0x01), 0x01)\n        /* \"contracts/FutarchyArbExecutorV4.sol\":8949:8958  b.spender */\n      tag_825\n      dup4\n      tag_47\n      jump\t// in\n    tag_825:\n        /* \"contracts/FutarchyArbExecutorV4.sol\":711:18294  contract FutarchyArbExecutorV4 {... */\n      and\n        /* \"contracts/FutarchyArbExecutorV4.sol\":8945:9018  if (b.spender != address(0)) _ensureAllowance(tokenIn, b.spender, amount) */\n      tag_826\n      jumpi\n        /* \"contracts/FutarchyArbExecutorV4.sol\":7997:10304  function _runExecute10Checked(... */\n    tag_827:\n      pop\n      pop\n        /* \"contracts/FutarchyArbExecutorV4.sol\":711:18294  contract FutarchyArbExecutorV4 {... */\n      mload(0x40)\n      shl(0xe0, 0x70a08231)\n        /* \"contracts/FutarchyArbExecutorV4.sol\":9080:9112  tokenIn.balanceOf(address(this)) */\n      dup2\n      mstore\n        /* \"contracts/FutarchyArbExecutorV4.sol\":9106:9110  this */\n      address\n        /* \"contracts/FutarchyArbExecutorV4.sol\":9080:9112  tokenIn.balanceOf(address(this)) */\n      0x04\n      dup3\n      add\n        /* \"contracts/FutarchyArbExecutorV4.sol\":711:18294  contract FutarchyArbExecutorV4 {... */\n      mstore\n      sub(shl(0xa0, 0x01), 0x01)\n      swap2\n      swap1\n      swap2\n      and\n      swap3\n      swap1\n      swap2\n        /* \"contracts/FutarchyArbExecutorV4.sol\":9080:9112  tokenIn.balanceOf(address(this)) */\n      0x20\n        /* \"contracts/FutarchyArbExecutorV4.sol\":711:18294  contract FutarchyArbExecutorV4 {... */\n      dup4\n      0x24\n      dup2\n      dup8\n        /* \"contracts/FutarchyArbExecutorV4.sol\":9080:9112  tokenIn.balanceOf(address(this)) */\n      gas\n      staticcall\n      swap3\n      dup4\n      iszero\n      tag_160\n      jumpi\n      0x00\n      swap4\n      tag_831\n      jumpi\n        /* \"contracts/FutarchyArbExecutorV4.sol\":7997:10304  function _runExecute10Checked(... */\n    tag_832:\n      pop\n        /* \"contracts/FutarchyArbExecutorV4.sol\":711:18294  contract FutarchyArbExecutorV4 {... */\n      mload(0x40)\n      shl(0xe0, 0x70a08231)\n        /* \"contracts/FutarchyArbExecutorV4.sol\":9142:9175  tokenOut.balanceOf(address(this)) */\n      dup2\n      mstore\n        /* \"contracts/FutarchyArbExecutorV4.sol\":9106:9110  this */\n      address\n        /* \"contracts/FutarchyArbExecutorV4.sol\":9080:9112  tokenIn.balanceOf(address(this)) */\n      0x04\n        /* \"contracts/FutarchyArbExecutorV4.sol\":9142:9175  tokenOut.balanceOf(address(this)) */\n      dup3\n      add\n        /* \"contracts/FutarchyArbExecutorV4.sol\":711:18294  contract FutarchyArbExecutorV4 {... */\n      mstore\n      sub(shl(0xa0, 0x01), 0x01)\n      swap2\n      swap1\n      swap2\n      and\n      swap8\n      swap1\n      swap5\n        /* \"contracts/FutarchyArbExecutorV4.sol\":9080:9112  tokenIn.balanceOf(address(this)) */\n      0x20\n        /* \"contracts/FutarchyArbExecutorV4.sol\":711:18294  contract FutarchyArbExecutorV4 {... */\n      dup7\n      0x24\n      dup2\n      dup13\n        /* \"contracts/FutarchyArbExecutorV4.sol\":9142:9175  tokenOut.balanceOf(address(this)) */\n      gas\n      staticcall\n      swap6\n      dup7\n      iszero\n      tag_160\n      jumpi\n      0x00\n      swap7\n      tag_836\n      jumpi\n        /* \"contracts/FutarchyArbExecutorV4.sol\":7997:10304  function _runExecute10Checked(... */\n    tag_837:\n        /* \"contracts/FutarchyArbExecutorV4.sol\":9106:9110  this */\n      pop\n      address\n        /* \"contracts/FutarchyArbExecutorV4.sol\":9263:9302  this.execute10(targets, datas, b.count) */\n      extcodesize\n      iszero\n      tag_114\n      jumpi\n      0x00\n        /* \"contracts/FutarchyArbExecutorV4.sol\":711:18294  contract FutarchyArbExecutorV4 {... */\n      swap2\n        /* \"contracts/FutarchyArbExecutorV4.sol\":9263:9302  this.execute10(targets, datas, b.count) */\n      tag_840\n        /* \"contracts/FutarchyArbExecutorV4.sol\":711:18294  contract FutarchyArbExecutorV4 {... */\n      mload(0x40)\n      swap5\n      dup6\n      swap4\n      dup5\n      swap4\n      shl(0xe2, 0x3dd6f8d7)\n        /* \"contracts/FutarchyArbExecutorV4.sol\":9263:9302  this.execute10(targets, datas, b.count) */\n      dup6\n      mstore\n        /* \"contracts/FutarchyArbExecutorV4.sol\":9080:9112  tokenIn.balanceOf(address(this)) */\n      0x04\n        /* \"contracts/FutarchyArbExecutorV4.sol\":9263:9302  this.execute10(targets, datas, b.count) */\n      dup6\n      add\n      tag_69\n      jump\t// in\n    tag_840:\n      sub\n        /* \"contracts/FutarchyArbExecutorV4.sol\":9106:9110  this */\n      dup2\n      dup4\n      address\n        /* \"contracts/FutarchyArbExecutorV4.sol\":9263:9302  this.execute10(targets, datas, b.count) */\n      gas\n      call\n      dup1\n      iszero\n      tag_160\n      jumpi\n      tag_843\n      jumpi\n        /* \"contracts/FutarchyArbExecutorV4.sol\":7997:10304  function _runExecute10Checked(... */\n    tag_844:\n      pop\n        /* \"contracts/FutarchyArbExecutorV4.sol\":711:18294  contract FutarchyArbExecutorV4 {... */\n      mload(0x40)\n      shl(0xe0, 0x70a08231)\n        /* \"contracts/FutarchyArbExecutorV4.sol\":9359:9391  tokenIn.balanceOf(address(this)) */\n      dup2\n      mstore\n        /* \"contracts/FutarchyArbExecutorV4.sol\":9106:9110  this */\n      address\n        /* \"contracts/FutarchyArbExecutorV4.sol\":9080:9112  tokenIn.balanceOf(address(this)) */\n      0x04\n        /* \"contracts/FutarchyArbExecutorV4.sol\":9359:9391  tokenIn.balanceOf(address(this)) */\n      dup3\n      add\n        /* \"contracts/FutarchyArbExecutorV4.sol\":711:18294  contract FutarchyArbExecutorV4 {... */\n      mstore\n      swap2\n        /* \"contracts/FutarchyArbExecutorV4.sol\":9080:9112  tokenIn.balanceOf(address(this)) */\n      0x20\n      swap1\n        /* \"contracts/FutarchyArbExecutorV4.sol\":711:18294  contract FutarchyArbExecutorV4 {... */\n      dup4\n      swap1\n      0x24\n      swap1\n      dup3\n      swap1\n        /* \"contracts/FutarchyArbExecutorV4.sol\":9359:9391  tokenIn.balanceOf(address(this)) */\n      gas\n      staticcall\n      swap2\n      dup3\n      iszero\n      tag_160\n      jumpi\n      0x00\n      swap3\n      tag_848\n      jumpi\n        /* \"contracts/FutarchyArbExecutorV4.sol\":7997:10304  function _runExecute10Checked(... */\n    tag_849:\n      pop\n        /* \"contracts/FutarchyArbExecutorV4.sol\":711:18294  contract FutarchyArbExecutorV4 {... */\n      mload(0x40)\n      shl(0xe0, 0x70a08231)\n        /* \"contracts/FutarchyArbExecutorV4.sol\":9420:9453  tokenOut.balanceOf(address(this)) */\n      dup2\n      mstore\n        /* \"contracts/FutarchyArbExecutorV4.sol\":9106:9110  this */\n      address\n        /* \"contracts/FutarchyArbExecutorV4.sol\":9080:9112  tokenIn.balanceOf(address(this)) */\n      0x04\n        /* \"contracts/FutarchyArbExecutorV4.sol\":9420:9453  tokenOut.balanceOf(address(this)) */\n      dup3\n      add\n        /* \"contracts/FutarchyArbExecutorV4.sol\":711:18294  contract FutarchyArbExecutorV4 {... */\n      mstore\n      swap6\n        /* \"contracts/FutarchyArbExecutorV4.sol\":9080:9112  tokenIn.balanceOf(address(this)) */\n      0x20\n      swap1\n        /* \"contracts/FutarchyArbExecutorV4.sol\":711:18294  contract FutarchyArbExecutorV4 {... */\n      dup8\n      swap1\n      0x24\n      swap1\n      dup3\n      swap1\n        /* \"contracts/FutarchyArbExecutorV4.sol\":9420:9453  tokenOut.balanceOf(address(this)) */\n      gas\n      staticcall\n      swap6\n      dup7\n      iszero\n      tag_160\n      jumpi\n      0x00\n      swap7\n      tag_853\n      jumpi\n        /* \"contracts/FutarchyArbExecutorV4.sol\":7997:10304  function _runExecute10Checked(... */\n    tag_854:\n        /* \"contracts/FutarchyArbExecutorV4.sol\":9480:9498  inBefore - inAfter */\n      pop\n      swap2\n      tag_855\n        /* \"contracts/FutarchyArbExecutorV4.sol\":9527:9547  outAfter - outBefore */\n      tag_856\n        /* \"contracts/FutarchyArbExecutorV4.sol\":9480:9498  inBefore - inAfter */\n      swap3\n      dup7\n      swap5\n      tag_52\n      jump\t// in\n    tag_855:\n        /* \"contracts/FutarchyArbExecutorV4.sol\":9527:9547  outAfter - outBefore */\n      swap6\n      tag_52\n      jump\t// in\n    tag_856:\n        /* \"contracts/FutarchyArbExecutorV4.sol\":9562:9577  spent != amount */\n      swap4\n      sub\n        /* \"contracts/FutarchyArbExecutorV4.sol\":9558:9601  if (spent != amount) revert SpentMismatch() */\n      tag_857\n      jumpi\n      0x00\n      swap2\n        /* \"contracts/FutarchyArbExecutorV4.sol\":9893:9907  b.minOutOffset */\n      0x0260\n      dup3\n      add\n        /* \"contracts/FutarchyArbExecutorV4.sol\":711:18294  contract FutarchyArbExecutorV4 {... */\n      calldataload\n        /* \"contracts/FutarchyArbExecutorV4.sol\":9893:9928  b.minOutOffset != type(uint256).max */\n      not\n        /* \"contracts/FutarchyArbExecutorV4.sol\":9889:10101  if (b.minOutOffset != type(uint256).max) {... */\n      tag_859\n      jumpi\n        /* \"contracts/FutarchyArbExecutorV4.sol\":7997:10304  function _runExecute10Checked(... */\n    tag_860:\n      pop\n        /* \"contracts/FutarchyArbExecutorV4.sol\":10131:10139  b.minOut */\n      0x0200\n      add\n        /* \"contracts/FutarchyArbExecutorV4.sol\":711:18294  contract FutarchyArbExecutorV4 {... */\n      calldataload\n      swap1\n        /* \"contracts/FutarchyArbExecutorV4.sol\":10131:10160  b.minOut > minOutFromSlippage */\n      dup1\n      dup3\n      gt\n      iszero\n      tag_861\n      jumpi\n        /* \"contracts/FutarchyArbExecutorV4.sol\":10131:10192  b.minOut > minOutFromSlippage ? b.minOut : minOutFromSlippage */\n      pop\n    tag_863:\n        /* \"contracts/FutarchyArbExecutorV4.sol\":10207:10221  minOutUsed > 0 */\n      dup1\n      iszero\n      iszero\n        /* \"contracts/FutarchyArbExecutorV4.sol\":10207:10246  minOutUsed > 0 && received < minOutUsed */\n      swap1\n      dup2\n      tag_864\n      jumpi\n        /* \"contracts/FutarchyArbExecutorV4.sol\":10131:10192  b.minOut > minOutFromSlippage ? b.minOut : minOutFromSlippage */\n    tag_865:\n        /* \"contracts/FutarchyArbExecutorV4.sol\":10203:10271  if (minOutUsed > 0 && received < minOutUsed) revert OutputBelowMin() */\n      pop\n      tag_866\n      jumpi\n        /* \"contracts/FutarchyArbExecutorV4.sol\":7997:10304  function _runExecute10Checked(... */\n      swap1\n      jump\t// out\n        /* \"contracts/FutarchyArbExecutorV4.sol\":10203:10271  if (minOutUsed > 0 && received < minOutUsed) revert OutputBelowMin() */\n    tag_866:\n        /* \"contracts/FutarchyArbExecutorV4.sol\":10255:10271  OutputBelowMin() */\n      mstore(0x00, shl(0xe0, 0x211aa2b9))\n        /* \"contracts/FutarchyArbExecutorV4.sol\":9080:9112  tokenIn.balanceOf(address(this)) */\n      0x04\n      0x00\n        /* \"contracts/FutarchyArbExecutorV4.sol\":10255:10271  OutputBelowMin() */\n      revert\n        /* \"contracts/FutarchyArbExecutorV4.sol\":10207:10246  minOutUsed > 0 && received < minOutUsed */\n    tag_864:\n        /* \"contracts/FutarchyArbExecutorV4.sol\":10225:10246  received < minOutUsed */\n      swap1\n      pop\n      dup2\n      lt\n        /* \"contracts/FutarchyArbExecutorV4.sol\":10207:10246  minOutUsed > 0 && received < minOutUsed */\n      0x00\n      jump(tag_865)\n        /* \"contracts/FutarchyArbExecutorV4.sol\":10131:10192  b.minOut > minOutFromSlippage ? b.minOut : minOutFromSlippage */\n    tag_861:\n      swap1\n      pop\n      jump(tag_863)\n        /* \"contracts/FutarchyArbExecutorV4.sol\":9889:10101  if (b.minOutOffset != type(uint256).max) {... */\n    tag_859:\n        /* \"contracts/FutarchyArbExecutorV4.sol\":10017:10030  b.slippageBps */\n      dup2\n      swap3\n      pop\n      0x0280\n        /* \"contracts/FutarchyArbExecutorV4.sol\":10131:10139  b.minOut */\n      0x0200\n        /* \"contracts/FutarchyArbExecutorV4.sol\":10017:10030  b.slippageBps */\n      swap3\n      add\n        /* \"contracts/FutarchyArbExecutorV4.sol\":711:18294  contract FutarchyArbExecutorV4 {... */\n      0xffff\n        /* \"contracts/FutarchyArbExecutorV4.sol\":10017:10030  b.slippageBps */\n      tag_868\n      dup3\n      tag_56\n      jump\t// in\n    tag_868:\n        /* \"contracts/FutarchyArbExecutorV4.sol\":711:18294  contract FutarchyArbExecutorV4 {... */\n      and\n        /* \"contracts/FutarchyArbExecutorV4.sol\":10016:10090  (b.slippageBps == 0) ? amount : (amount * (10000 - b.slippageBps)) / 10000 */\n      tag_869\n      jumpi\n      pop\n    tag_871:\n        /* \"contracts/FutarchyArbExecutorV4.sol\":9889:10101  if (b.minOutOffset != type(uint256).max) {... */\n      swap2\n      swap1\n      jump(tag_860)\n        /* \"contracts/FutarchyArbExecutorV4.sol\":10016:10090  (b.slippageBps == 0) ? amount : (amount * (10000 - b.slippageBps)) / 10000 */\n    tag_869:\n        /* \"contracts/FutarchyArbExecutorV4.sol\":10048:10090  (amount * (10000 - b.slippageBps)) / 10000 */\n      tag_872\n        /* \"contracts/FutarchyArbExecutorV4.sol\":10067:10080  b.slippageBps */\n      swap2\n        /* \"contracts/FutarchyArbExecutorV4.sol\":10049:10081  amount * (10000 - b.slippageBps) */\n      tag_873\n        /* \"contracts/FutarchyArbExecutorV4.sol\":10059:10080  10000 - b.slippageBps */\n      tag_874\n        /* \"contracts/FutarchyArbExecutorV4.sol\":10067:10080  b.slippageBps */\n      tag_875\n        /* \"contracts/FutarchyArbExecutorV4.sol\":10049:10081  amount * (10000 - b.slippageBps) */\n      tag_876\n        /* \"contracts/FutarchyArbExecutorV4.sol\":10067:10080  b.slippageBps */\n      swap5\n      tag_56\n      jump\t// in\n    tag_875:\n        /* \"contracts/FutarchyArbExecutorV4.sol\":10059:10080  10000 - b.slippageBps */\n      tag_70\n      jump\t// in\n    tag_874:\n        /* \"contracts/FutarchyArbExecutorV4.sol\":711:18294  contract FutarchyArbExecutorV4 {... */\n      0xffff\n      and\n        /* \"contracts/FutarchyArbExecutorV4.sol\":5325:5340  type(uint8).max */\n      swap1\n      jump\n        /* \"contracts/FutarchyArbExecutorV4.sol\":10049:10081  amount * (10000 - b.slippageBps) */\n    tag_873:\n      swap1\n      tag_72\n      jump\t// in\n    tag_876:\n        /* \"contracts/FutarchyArbExecutorV4.sol\":10059:10064  10000 */\n      0x2710\n        /* \"contracts/FutarchyArbExecutorV4.sol\":5325:5340  type(uint8).max */\n      swap1\n      div\n      swap1\n      jump\n        /* \"contracts/FutarchyArbExecutorV4.sol\":10048:10090  (amount * (10000 - b.slippageBps)) / 10000 */\n    tag_872:\n        /* \"contracts/FutarchyArbExecutorV4.sol\":10016:10090  (b.slippageBps == 0) ? amount : (amount * (10000 - b.slippageBps)) / 10000 */\n      jump(tag_871)\n        /* \"contracts/FutarchyArbExecutorV4.sol\":9558:9601  if (spent != amount) revert SpentMismatch() */\n    tag_857:\n        /* \"contracts/FutarchyArbExecutorV4.sol\":9586:9601  SpentMismatch() */\n      mstore(0x00, shl(0xe0, 0x9ef74a0d))\n        /* \"contracts/FutarchyArbExecutorV4.sol\":9080:9112  tokenIn.balanceOf(address(this)) */\n      0x04\n      0x00\n        /* \"contracts/FutarchyArbExecutorV4.sol\":9586:9601  SpentMismatch() */\n      revert\n        /* \"contracts/FutarchyArbExecutorV4.sol\":9420:9453  tokenOut.balanceOf(address(this)) */\n    tag_853:\n      dup6\n      swap4\n      swap2\n      swap7\n      pop\n        /* \"contracts/FutarchyArbExecutorV4.sol\":9527:9547  outAfter - outBefore */\n      tag_856\n        /* \"contracts/FutarchyArbExecutorV4.sol\":9420:9453  tokenOut.balanceOf(address(this)) */\n      swap3\n      tag_877\n        /* \"contracts/FutarchyArbExecutorV4.sol\":9480:9498  inBefore - inAfter */\n      tag_855\n        /* \"contracts/FutarchyArbExecutorV4.sol\":9420:9453  tokenOut.balanceOf(address(this)) */\n      swap3\n        /* \"contracts/FutarchyArbExecutorV4.sol\":9080:9112  tokenIn.balanceOf(address(this)) */\n      0x20\n        /* \"contracts/FutarchyArbExecutorV4.sol\":9420:9453  tokenOut.balanceOf(address(this)) */\n      returndatasize\n        /* \"contracts/FutarchyArbExecutorV4.sol\":9080:9112  tokenIn.balanceOf(address(this)) */\n      0x20\n        /* \"contracts/FutarchyArbExecutorV4.sol\":9420:9453  tokenOut.balanceOf(address(this)) */\n      gt\n      tag_387\n      jumpi\n      tag_389\n      dup2\n      dup4\n      tag_24\n      jump\t// in\n    tag_877:\n      swap8\n      swap3\n      swap5\n      pop\n      swap3\n      pop\n      jump(tag_854)\n        /* \"contracts/FutarchyArbExecutorV4.sol\":9359:9391  tokenIn.balanceOf(address(this)) */\n    tag_848:\n      tag_881\n      swap2\n      swap3\n      pop\n        /* \"contracts/FutarchyArbExecutorV4.sol\":9080:9112  tokenIn.balanceOf(address(this)) */\n      0x20\n        /* \"contracts/FutarchyArbExecutorV4.sol\":9359:9391  tokenIn.balanceOf(address(this)) */\n      returndatasize\n        /* \"contracts/FutarchyArbExecutorV4.sol\":9080:9112  tokenIn.balanceOf(address(this)) */\n      0x20\n        /* \"contracts/FutarchyArbExecutorV4.sol\":9359:9391  tokenIn.balanceOf(address(this)) */\n      gt\n      tag_387\n      jumpi\n      tag_389\n      dup2\n      dup4\n      tag_24\n      jump\t// in\n    tag_881:\n      swap1\n      0x00\n      jump(tag_849)\n        /* \"contracts/FutarchyArbExecutorV4.sol\":9263:9302  this.execute10(targets, datas, b.count) */\n    tag_843:\n      dup1\n      tag_164\n      0x00\n      tag_886\n      swap4\n      tag_24\n      jump\t// in\n    tag_886:\n      0x00\n      jump(tag_844)\n        /* \"contracts/FutarchyArbExecutorV4.sol\":9142:9175  tokenOut.balanceOf(address(this)) */\n    tag_836:\n      tag_887\n      swap2\n      swap7\n      pop\n        /* \"contracts/FutarchyArbExecutorV4.sol\":9080:9112  tokenIn.balanceOf(address(this)) */\n      0x20\n        /* \"contracts/FutarchyArbExecutorV4.sol\":9142:9175  tokenOut.balanceOf(address(this)) */\n      returndatasize\n        /* \"contracts/FutarchyArbExecutorV4.sol\":9080:9112  tokenIn.balanceOf(address(this)) */\n      0x20\n        /* \"contracts/FutarchyArbExecutorV4.sol\":9142:9175  tokenOut.balanceOf(address(this)) */\n      gt\n      tag_387\n      jumpi\n      tag_389\n      dup2\n      dup4\n      tag_24\n      jump\t// in\n    tag_887:\n      swap5\n      0x00\n      jump(tag_837)\n        /* \"contracts/FutarchyArbExecutorV4.sol\":9080:9112  tokenIn.balanceOf(address(this)) */\n    tag_831:\n      tag_891\n      swap2\n      swap4\n      pop\n      0x20\n      jumpi(tag_387, gt(0x20, returndatasize))\n      tag_389\n      dup2\n      dup4\n      tag_24\n      jump\t// in\n    tag_891:\n      swap2\n      0x00\n      jump(tag_832)\n        /* \"contracts/FutarchyArbExecutorV4.sol\":8945:9018  if (b.spender != address(0)) _ensureAllowance(tokenIn, b.spender, amount) */\n    tag_826:\n        /* \"contracts/FutarchyArbExecutorV4.sol\":9000:9009  b.spender */\n      tag_895\n        /* \"contracts/FutarchyArbExecutorV4.sol\":9011:9017  amount */\n      tag_896\n        /* \"contracts/FutarchyArbExecutorV4.sol\":9000:9009  b.spender */\n      swap3\n      tag_47\n      jump\t// in\n    tag_895:\n        /* \"contracts/FutarchyArbExecutorV4.sol\":9011:9017  amount */\n      dup4\n      tag_80\n      jump\t// in\n    tag_896:\n        /* \"contracts/FutarchyArbExecutorV4.sol\":8945:9018  if (b.spender != address(0)) _ensureAllowance(tokenIn, b.spender, amount) */\n      0x00\n      dup7\n      jump(tag_827)\n        /* \"contracts/FutarchyArbExecutorV4.sol\":8642:8889  if (b.patchIndex != PATCH_NONE) {... */\n    tag_823:\n        /* \"contracts/FutarchyArbExecutorV4.sol\":8373:8375  10 */\n      0x0a\n        /* \"contracts/FutarchyArbExecutorV4.sol\":711:18294  contract FutarchyArbExecutorV4 {... */\n      0xff\n        /* \"contracts/FutarchyArbExecutorV4.sol\":8692:8704  b.patchIndex */\n      tag_897\n      dup4\n      tag_67\n      jump\t// in\n    tag_897:\n        /* \"contracts/FutarchyArbExecutorV4.sol\":711:18294  contract FutarchyArbExecutorV4 {... */\n      and\n        /* \"contracts/FutarchyArbExecutorV4.sol\":8692:8710  b.patchIndex >= 10 */\n      lt\n      iszero\n        /* \"contracts/FutarchyArbExecutorV4.sol\":8688:8734  if (b.patchIndex >= 10) revert PatchIndexOOB() */\n      tag_898\n      jumpi\n        /* \"contracts/FutarchyArbExecutorV4.sol\":8809:8821  b.patchIndex */\n      dup1\n        /* \"contracts/FutarchyArbExecutorV4.sol\":8748:8878  datas[b.patchIndex] =... */\n      tag_900\n        /* \"contracts/FutarchyArbExecutorV4.sol\":8754:8766  b.patchIndex */\n      tag_905\n        /* \"contracts/FutarchyArbExecutorV4.sol\":8786:8878  _patchedCalldata(datas[b.patchIndex], b.amountOffset, amount, b.minOutOffset, b.slippageBps) */\n      tag_902\n        /* \"contracts/FutarchyArbExecutorV4.sol\":8803:8822  datas[b.patchIndex] */\n      tag_903\n      tag_904\n        /* \"contracts/FutarchyArbExecutorV4.sol\":8809:8821  b.patchIndex */\n      tag_905\n        /* \"contracts/FutarchyArbExecutorV4.sol\":8748:8878  datas[b.patchIndex] =... */\n      tag_906\n        /* \"contracts/FutarchyArbExecutorV4.sol\":8809:8821  b.patchIndex */\n      swap8\n      tag_67\n      jump\t// in\n    tag_905:\n        /* \"contracts/FutarchyArbExecutorV4.sol\":711:18294  contract FutarchyArbExecutorV4 {... */\n      0xff\n      and\n        /* \"contracts/FutarchyArbExecutorV4.sol\":5325:5340  type(uint8).max */\n      swap1\n      jump\n        /* \"contracts/FutarchyArbExecutorV4.sol\":8803:8822  datas[b.patchIndex] */\n    tag_904:\n      dup11\n      tag_61\n      jump\t// in\n    tag_903:\n      mload\n        /* \"contracts/FutarchyArbExecutorV4.sol\":8848:8862  b.minOutOffset */\n      0x0260\n      dup12\n      add\n        /* \"contracts/FutarchyArbExecutorV4.sol\":711:18294  contract FutarchyArbExecutorV4 {... */\n      calldataload\n        /* \"contracts/FutarchyArbExecutorV4.sol\":8824:8838  b.amountOffset */\n      dup13\n      0x0240\n      dup14\n      add\n        /* \"contracts/FutarchyArbExecutorV4.sol\":711:18294  contract FutarchyArbExecutorV4 {... */\n      calldataload\n        /* \"contracts/FutarchyArbExecutorV4.sol\":8864:8877  b.slippageBps */\n      tag_907\n      0x0280\n      dup16\n      add\n      tag_56\n      jump\t// in\n    tag_907:\n        /* \"contracts/FutarchyArbExecutorV4.sol\":8786:8878  _patchedCalldata(datas[b.patchIndex], b.amountOffset, amount, b.minOutOffset, b.slippageBps) */\n      swap4\n      tag_84\n      jump\t// in\n    tag_902:\n        /* \"contracts/FutarchyArbExecutorV4.sol\":8754:8766  b.patchIndex */\n      swap3\n      tag_67\n      jump\t// in\n        /* \"contracts/FutarchyArbExecutorV4.sol\":8748:8878  datas[b.patchIndex] =... */\n    tag_900:\n      swap1\n      tag_908\n      dup3\n      dup9\n      tag_61\n      jump\t// in\n    tag_908:\n      mstore\n      dup6\n      tag_61\n      jump\t// in\n    tag_906:\n      pop\n        /* \"contracts/FutarchyArbExecutorV4.sol\":8642:8889  if (b.patchIndex != PATCH_NONE) {... */\n      0x00\n      jump(tag_824)\n        /* \"contracts/FutarchyArbExecutorV4.sol\":8688:8734  if (b.patchIndex >= 10) revert PatchIndexOOB() */\n    tag_898:\n        /* \"contracts/FutarchyArbExecutorV4.sol\":8719:8734  PatchIndexOOB() */\n      mstore(0x00, shl(0xe0, 0x711cef1b))\n      revert(0x00, 0x04)\n        /* \"contracts/FutarchyArbExecutorV4.sol\":8313:8349  if (amount == 0) revert ZeroAmount() */\n    tag_811:\n        /* \"contracts/FutarchyArbExecutorV4.sol\":8337:8349  ZeroAmount() */\n      mstore(0x00, shl(0xe0, 0x1f2a2005))\n      revert(0x00, 0x04)\n        /* \"contracts/FutarchyArbExecutorV4.sol\":7997:10304  function _runExecute10Checked(... */\n    tag_75:\n      swap1\n        /* \"contracts/FutarchyArbExecutorV4.sol\":8250:8271  overrideAmountIn == 0 */\n      dup1\n      tag_909\n      jumpi\n        /* \"contracts/FutarchyArbExecutorV4.sol\":8274:8284  b.amountIn */\n      pop\n      0x01e0\n      dup2\n      add\n        /* \"contracts/FutarchyArbExecutorV4.sol\":711:18294  contract FutarchyArbExecutorV4 {... */\n      calldataload\n        /* \"contracts/FutarchyArbExecutorV4.sol\":8250:8303  overrideAmountIn == 0 ? b.amountIn : overrideAmountIn */\n    tag_911:\n        /* \"contracts/FutarchyArbExecutorV4.sol\":8317:8328  amount == 0 */\n      dup1\n      iszero\n        /* \"contracts/FutarchyArbExecutorV4.sol\":8313:8349  if (amount == 0) revert ZeroAmount() */\n      tag_811\n      jumpi\n        /* \"contracts/FutarchyArbExecutorV4.sol\":8363:8370  b.count */\n      0x0160\n      dup3\n      add\n        /* \"contracts/FutarchyArbExecutorV4.sol\":711:18294  contract FutarchyArbExecutorV4 {... */\n      calldataload\n        /* \"contracts/FutarchyArbExecutorV4.sol\":8363:8375  b.count > 10 */\n      swap2\n        /* \"contracts/FutarchyArbExecutorV4.sol\":8373:8375  10 */\n      0x0a\n        /* \"contracts/FutarchyArbExecutorV4.sol\":8363:8375  b.count > 10 */\n      dup4\n      gt\n        /* \"contracts/FutarchyArbExecutorV4.sol\":8359:8398  if (b.count > 10) revert TooManyCalls() */\n      tag_663\n      jumpi\n        /* \"contracts/FutarchyArbExecutorV4.sol\":8426:8443  IERC20(b.tokenIn) */\n      tag_815\n        /* \"contracts/FutarchyArbExecutorV4.sol\":8433:8442  b.tokenIn */\n      tag_232\n      0x0180\n      dup4\n      add\n      tag_47\n      jump\t// in\n        /* \"contracts/FutarchyArbExecutorV4.sol\":8250:8303  overrideAmountIn == 0 ? b.amountIn : overrideAmountIn */\n    tag_909:\n      jump(tag_911)\n        /* \"contracts/FutarchyArbExecutorV4.sol\":711:18294  contract FutarchyArbExecutorV4 {... */\n    tag_77:\n      swap1\n      dup2\n      0x20\n      swap2\n      sub\n      slt\n      tag_114\n      jumpi\n      mload\n      dup1\n      iszero\n      iszero\n      dup2\n      sub\n      tag_114\n      jumpi\n      swap1\n      jump\t// out\n        /* \"contracts/FutarchyArbExecutorV4.sol\":16772:17135  function _ensureAllowance(IERC20 token, address spender, uint256 need) internal {... */\n    tag_80:\n      swap2\n      swap1\n      swap2\n        /* \"contracts/FutarchyArbExecutorV4.sol\":16866:16875  need == 0 */\n      dup2\n      iszero\n        /* \"contracts/FutarchyArbExecutorV4.sol\":16862:16884  if (need == 0) return; */\n      tag_1014\n      jumpi\n        /* \"contracts/FutarchyArbExecutorV4.sol\":711:18294  contract FutarchyArbExecutorV4 {... */\n      mload(0x40)\n      shl(0xe1, 0x6eb1769f)\n        /* \"contracts/FutarchyArbExecutorV4.sol\":16907:16946  token.allowance(address(this), spender) */\n      dup2\n      mstore\n        /* \"contracts/FutarchyArbExecutorV4.sol\":16931:16935  this */\n      address\n        /* \"contracts/FutarchyArbExecutorV4.sol\":16907:16946  token.allowance(address(this), spender) */\n      0x04\n      dup3\n      add\n        /* \"contracts/FutarchyArbExecutorV4.sol\":711:18294  contract FutarchyArbExecutorV4 {... */\n      mstore\n      sub(shl(0xa0, 0x01), 0x01)\n      dup5\n      dup2\n      and\n      0x24\n      dup4\n      add\n      mstore\n      swap2\n      swap1\n      swap2\n      and\n      swap2\n      swap1\n        /* \"contracts/FutarchyArbExecutorV4.sol\":16907:16946  token.allowance(address(this), spender) */\n      0x20\n        /* \"contracts/FutarchyArbExecutorV4.sol\":711:18294  contract FutarchyArbExecutorV4 {... */\n      dup2\n      0x44\n      dup2\n      dup7\n        /* \"contracts/FutarchyArbExecutorV4.sol\":16907:16946  token.allowance(address(this), spender) */\n      gas\n      staticcall\n      swap1\n      dup2\n      iszero\n      tag_160\n      jumpi\n        /* \"contracts/FutarchyArbExecutorV4.sol\":16874:16875  0 */\n      0x00\n        /* \"contracts/FutarchyArbExecutorV4.sol\":16907:16946  token.allowance(address(this), spender) */\n      swap2\n      tag_1019\n      jumpi\n        /* \"contracts/FutarchyArbExecutorV4.sol\":16772:17135  function _ensureAllowance(IERC20 token, address spender, uint256 need) internal {... */\n    tag_1020:\n        /* \"contracts/FutarchyArbExecutorV4.sol\":16960:16970  cur < need */\n      pop\n      lt\n        /* \"contracts/FutarchyArbExecutorV4.sol\":16956:17129  if (cur < need) {... */\n      tag_1021\n      jumpi\n        /* \"contracts/FutarchyArbExecutorV4.sol\":16772:17135  function _ensureAllowance(IERC20 token, address spender, uint256 need) internal {... */\n      pop\n      pop\n      jump\t// out\n        /* \"contracts/FutarchyArbExecutorV4.sol\":16956:17129  if (cur < need) {... */\n    tag_1021:\n        /* \"contracts/FutarchyArbExecutorV4.sol\":711:18294  contract FutarchyArbExecutorV4 {... */\n      mload(0x40)\n      shl(0xe0, 0x095ea7b3)\n        /* \"contracts/FutarchyArbExecutorV4.sol\":16991:17016  token.approve(spender, 0) */\n      dup2\n      mstore\n      sub(shl(0xa0, 0x01), 0x01)\n        /* \"contracts/FutarchyArbExecutorV4.sol\":711:18294  contract FutarchyArbExecutorV4 {... */\n      dup4\n      and\n        /* \"contracts/FutarchyArbExecutorV4.sol\":16907:16946  token.allowance(address(this), spender) */\n      0x04\n        /* \"contracts/FutarchyArbExecutorV4.sol\":16991:17016  token.approve(spender, 0) */\n      dup3\n      add\n        /* \"contracts/FutarchyArbExecutorV4.sol\":711:18294  contract FutarchyArbExecutorV4 {... */\n      mstore\n        /* \"contracts/FutarchyArbExecutorV4.sol\":16874:16875  0 */\n      0x00\n        /* \"contracts/FutarchyArbExecutorV4.sol\":711:18294  contract FutarchyArbExecutorV4 {... */\n      0x24\n      dup3\n      add\n      mstore\n        /* \"contracts/FutarchyArbExecutorV4.sol\":16907:16946  token.allowance(address(this), spender) */\n      0x20\n        /* \"contracts/FutarchyArbExecutorV4.sol\":711:18294  contract FutarchyArbExecutorV4 {... */\n      dup2\n      dup1\n      0x44\n      dup2\n      add\n        /* \"contracts/FutarchyArbExecutorV4.sol\":16991:17016  token.approve(spender, 0) */\n      sub\n      dup2\n        /* \"contracts/FutarchyArbExecutorV4.sol\":16874:16875  0 */\n      0x00\n        /* \"contracts/FutarchyArbExecutorV4.sol\":16991:17016  token.approve(spender, 0) */\n      dup7\n      gas\n      call\n      swap1\n      dup2\n      iszero\n      tag_160\n      jumpi\n        /* \"contracts/FutarchyArbExecutorV4.sol\":16874:16875  0 */\n      0x00\n        /* \"contracts/FutarchyArbExecutorV4.sol\":16991:17016  token.approve(spender, 0) */\n      swap2\n      tag_1026\n      jumpi\n        /* \"contracts/FutarchyArbExecutorV4.sol\":16956:17129  if (cur < need) {... */\n    tag_1027:\n        /* \"contracts/FutarchyArbExecutorV4.sol\":16990:17016  !token.approve(spender, 0) */\n      pop\n      iszero\n        /* \"contracts/FutarchyArbExecutorV4.sol\":16986:17037  if (!token.approve(spender, 0)) revert CallFailed() */\n      tag_777\n      jumpi\n        /* \"contracts/FutarchyArbExecutorV4.sol\":711:18294  contract FutarchyArbExecutorV4 {... */\n      mload(0x40)\n      shl(0xe0, 0x095ea7b3)\n        /* \"contracts/FutarchyArbExecutorV4.sol\":17056:17097  token.approve(spender, type(uint256).max) */\n      dup2\n      mstore\n      sub(shl(0xa0, 0x01), 0x01)\n        /* \"contracts/FutarchyArbExecutorV4.sol\":711:18294  contract FutarchyArbExecutorV4 {... */\n      swap3\n      swap1\n      swap3\n      and\n        /* \"contracts/FutarchyArbExecutorV4.sol\":16907:16946  token.allowance(address(this), spender) */\n      0x04\n        /* \"contracts/FutarchyArbExecutorV4.sol\":17056:17097  token.approve(spender, type(uint256).max) */\n      dup4\n      add\n        /* \"contracts/FutarchyArbExecutorV4.sol\":711:18294  contract FutarchyArbExecutorV4 {... */\n      mstore\n      not(0x00)\n      0x24\n      dup4\n      add\n      mstore\n        /* \"contracts/FutarchyArbExecutorV4.sol\":16907:16946  token.allowance(address(this), spender) */\n      0x20\n      swap1\n        /* \"contracts/FutarchyArbExecutorV4.sol\":711:18294  contract FutarchyArbExecutorV4 {... */\n      dup3\n      swap1\n      0x44\n      swap1\n      dup3\n      swap1\n      0x00\n      swap1\n        /* \"contracts/FutarchyArbExecutorV4.sol\":17056:17097  token.approve(spender, type(uint256).max) */\n      gas\n      call\n      swap1\n      dup2\n      iszero\n      tag_160\n      jumpi\n        /* \"contracts/FutarchyArbExecutorV4.sol\":16874:16875  0 */\n      0x00\n        /* \"contracts/FutarchyArbExecutorV4.sol\":17056:17097  token.approve(spender, type(uint256).max) */\n      swap2\n      tag_1033\n      jumpi\n        /* \"contracts/FutarchyArbExecutorV4.sol\":16956:17129  if (cur < need) {... */\n    tag_1034:\n        /* \"contracts/FutarchyArbExecutorV4.sol\":17055:17097  !token.approve(spender, type(uint256).max) */\n      pop\n      iszero\n        /* \"contracts/FutarchyArbExecutorV4.sol\":17051:17118  if (!token.approve(spender, type(uint256).max)) revert CallFailed() */\n      tag_777\n      jumpi\n        /* \"contracts/FutarchyArbExecutorV4.sol\":16772:17135  function _ensureAllowance(IERC20 token, address spender, uint256 need) internal {... */\n      jump\t// out\n        /* \"contracts/FutarchyArbExecutorV4.sol\":17056:17097  token.approve(spender, type(uint256).max) */\n    tag_1033:\n      tag_1037\n      swap2\n      pop\n        /* \"contracts/FutarchyArbExecutorV4.sol\":16907:16946  token.allowance(address(this), spender) */\n      0x20\n        /* \"contracts/FutarchyArbExecutorV4.sol\":17056:17097  token.approve(spender, type(uint256).max) */\n      returndatasize\n        /* \"contracts/FutarchyArbExecutorV4.sol\":16907:16946  token.allowance(address(this), spender) */\n      0x20\n        /* \"contracts/FutarchyArbExecutorV4.sol\":17056:17097  token.approve(spender, type(uint256).max) */\n      gt\n      tag_1038\n      jumpi\n    tag_1039:\n      tag_1040\n      dup2\n      dup4\n      tag_24\n      jump\t// in\n    tag_1040:\n      dup2\n      add\n      swap1\n      tag_77\n      jump\t// in\n    tag_1037:\n      0x00\n      jump(tag_1034)\n    tag_1038:\n      pop\n      returndatasize\n      jump(tag_1039)\n        /* \"contracts/FutarchyArbExecutorV4.sol\":16991:17016  token.approve(spender, 0) */\n    tag_1026:\n      tag_1041\n      swap2\n      pop\n        /* \"contracts/FutarchyArbExecutorV4.sol\":16907:16946  token.allowance(address(this), spender) */\n      0x20\n        /* \"contracts/FutarchyArbExecutorV4.sol\":16991:17016  token.approve(spender, 0) */\n      returndatasize\n        /* \"contracts/FutarchyArbExecutorV4.sol\":16907:16946  token.allowance(address(this), spender) */\n      0x20\n        /* \"contracts/FutarchyArbExecutorV4.sol\":16991:17016  token.approve(spender, 0) */\n      gt\n      tag_1038\n      jumpi\n      tag_1040\n      dup2\n      dup4\n      tag_24\n      jump\t// in\n    tag_1041:\n      0x00\n      jump(tag_1027)\n        /* \"contracts/FutarchyArbExecutorV4.sol\":16907:16946  token.allowance(address(this), spender) */\n    tag_1019:\n      tag_1045\n      swap2\n      pop\n      0x20\n      jumpi(tag_387, gt(0x20, returndatasize))\n      tag_389\n      dup2\n      dup4\n      tag_24\n      jump\t// in\n    tag_1045:\n      0x00\n      jump(tag_1020)\n        /* \"contracts/FutarchyArbExecutorV4.sol\":16862:16884  if (need == 0) return; */\n    tag_1014:\n        /* \"contracts/FutarchyArbExecutorV4.sol\":16877:16884  return; */\n      pop\n      pop\n      pop\n      jump\t// out\n        /* \"contracts/FutarchyArbExecutorV4.sol\":17141:17332  function _safeCall(address target, bytes memory data, uint256 value) internal {... */\n    tag_81:\n        /* \"contracts/FutarchyArbExecutorV4.sol\":10513:10516  a.t */\n      0x00\n        /* \"contracts/FutarchyArbExecutorV4.sol\":17141:17332  function _safeCall(address target, bytes memory data, uint256 value) internal {... */\n      swap2\n      dup3\n      swap2\n        /* \"contracts/FutarchyArbExecutorV4.sol\":17259:17290  target.call{value: value}(data) */\n      dup3\n      0x20\n      dup4\n      mload\n      swap4\n      add\n      swap2\n      gas\n      call\n      tag_1049\n      tag_26\n      jump\t// in\n    tag_1049:\n        /* \"contracts/FutarchyArbExecutorV4.sol\":17304:17307  !ok */\n      swap1\n      iszero\n        /* \"contracts/FutarchyArbExecutorV4.sol\":17300:17325  if (!ok) _revertWith(ret) */\n      tag_675\n      jumpi\n        /* \"contracts/FutarchyArbExecutorV4.sol\":17141:17332  function _safeCall(address target, bytes memory data, uint256 value) internal {... */\n      pop\n      jump\t// out\n    tag_82:\n      swap1\n        /* \"contracts/FutarchyArbExecutorV4.sol\":17259:17290  target.call{value: value}(data) */\n      0x00\n        /* \"contracts/FutarchyArbExecutorV4.sol\":17141:17332  function _safeCall(address target, bytes memory data, uint256 value) internal {... */\n      swap3\n      swap2\n      dup4\n      swap3\n        /* \"contracts/FutarchyArbExecutorV4.sol\":17259:17290  target.call{value: value}(data) */\n      0x20\n      dup4\n      mload\n      swap4\n      add\n      swap2\n      gas\n      call\n      tag_1049\n      tag_26\n      jump\t// in\n        /* \"contracts/FutarchyArbExecutorV4.sol\":711:18294  contract FutarchyArbExecutorV4 {... */\n    tag_83:\n      swap1\n        /* \"contracts/FutarchyArbExecutorV4.sol\":17671:17673  32 */\n      0x20\n        /* \"contracts/FutarchyArbExecutorV4.sol\":711:18294  contract FutarchyArbExecutorV4 {... */\n      dup3\n      add\n      dup1\n      swap3\n      gt\n      tag_755\n      jumpi\n      jump\t// out\n        /* \"contracts/FutarchyArbExecutorV4.sol\":17338:18085  function _patchedCalldata(... */\n    tag_84:\n      swap2\n      swap1\n      swap5\n      swap4\n        /* \"contracts/FutarchyArbExecutorV4.sol\":17565:17578  cd = template */\n      dup3\n        /* \"contracts/FutarchyArbExecutorV4.sol\":711:18294  contract FutarchyArbExecutorV4 {... */\n      swap6\n      dup4\n      mload\n        /* \"contracts/FutarchyArbExecutorV4.sol\":17671:17673  32 */\n      0x20\n        /* \"contracts/FutarchyArbExecutorV4.sol\":711:18294  contract FutarchyArbExecutorV4 {... */\n      dup3\n      add\n      swap1\n      dup2\n      dup4\n      gt\n      tag_755\n      jumpi\n        /* \"contracts/FutarchyArbExecutorV4.sol\":17644:17673  cd.length < amountOffset + 32 */\n      lt\n        /* \"contracts/FutarchyArbExecutorV4.sol\":17640:17699  if (cd.length < amountOffset + 32) revert AmountOffsetOOB() */\n      tag_1059\n      jumpi\n        /* \"contracts/FutarchyArbExecutorV4.sol\":17709:17770  assembly { mstore(add(add(cd, 32), amountOffset), amountIn) } */\n      dup4\n      add\n        /* \"contracts/FutarchyArbExecutorV4.sol\":17671:17673  32 */\n      0x20\n        /* \"contracts/FutarchyArbExecutorV4.sol\":17709:17770  assembly { mstore(add(add(cd, 32), amountOffset), amountIn) } */\n      add\n      dup3\n      swap1\n      mstore\n        /* \"contracts/FutarchyArbExecutorV4.sol\":17783:17816  minOutOffset != type(uint256).max */\n      0x01\n      dup5\n      add\n        /* \"contracts/FutarchyArbExecutorV4.sol\":17779:18079  if (minOutOffset != type(uint256).max) {... */\n      tag_1061\n      jumpi\n        /* \"contracts/FutarchyArbExecutorV4.sol\":17338:18085  function _patchedCalldata(... */\n    tag_1062:\n      pop\n      pop\n      pop\n      pop\n      jump\t// out\n        /* \"contracts/FutarchyArbExecutorV4.sol\":17779:18079  if (minOutOffset != type(uint256).max) {... */\n    tag_1061:\n        /* \"contracts/FutarchyArbExecutorV4.sol\":711:18294  contract FutarchyArbExecutorV4 {... */\n      0xffff\n      dup2\n      and\n      tag_1063\n      jumpi\n        /* \"contracts/FutarchyArbExecutorV4.sol\":17849:17923  (slippageBps == 0) ? amountIn : (amountIn * (10000 - slippageBps)) / 10000 */\n      pop\n      swap2\n    tag_1065:\n        /* \"contracts/FutarchyArbExecutorV4.sol\":711:18294  contract FutarchyArbExecutorV4 {... */\n      dup2\n      mload\n        /* \"contracts/FutarchyArbExecutorV4.sol\":17953:17970  minOutOffset + 32 */\n      tag_1066\n      dup3\n      tag_83\n      jump\t// in\n    tag_1066:\n      gt\n        /* \"contracts/FutarchyArbExecutorV4.sol\":17937:17996  if (cd.length < minOutOffset + 32) revert MinOutOffsetOOB() */\n      tag_1067\n      jumpi\n        /* \"contracts/FutarchyArbExecutorV4.sol\":18010:18069  assembly { mstore(add(add(cd, 32), minOutOffset), minOut) } */\n      add\n        /* \"contracts/FutarchyArbExecutorV4.sol\":17671:17673  32 */\n      0x20\n        /* \"contracts/FutarchyArbExecutorV4.sol\":18010:18069  assembly { mstore(add(add(cd, 32), minOutOffset), minOut) } */\n      add\n      mstore\n        /* \"contracts/FutarchyArbExecutorV4.sol\":17779:18079  if (minOutOffset != type(uint256).max) {... */\n      0x00\n      dup1\n      dup1\n      dup1\n      jump(tag_1062)\n        /* \"contracts/FutarchyArbExecutorV4.sol\":17937:17996  if (cd.length < minOutOffset + 32) revert MinOutOffsetOOB() */\n    tag_1067:\n        /* \"contracts/FutarchyArbExecutorV4.sol\":17979:17996  MinOutOffsetOOB() */\n      mstore(0x00, shl(0xe2, 0x0f56d5d1))\n      revert(0x00, 0x04)\n        /* \"contracts/FutarchyArbExecutorV4.sol\":17849:17923  (slippageBps == 0) ? amountIn : (amountIn * (10000 - slippageBps)) / 10000 */\n    tag_1063:\n        /* \"contracts/FutarchyArbExecutorV4.sol\":17881:17923  (amountIn * (10000 - slippageBps)) / 10000 */\n      tag_1069\n        /* \"contracts/FutarchyArbExecutorV4.sol\":17894:17913  10000 - slippageBps */\n      swap2\n        /* \"contracts/FutarchyArbExecutorV4.sol\":17882:17914  amountIn * (10000 - slippageBps) */\n      tag_873\n        /* \"contracts/FutarchyArbExecutorV4.sol\":17894:17913  10000 - slippageBps */\n      tag_874\n        /* \"contracts/FutarchyArbExecutorV4.sol\":17882:17914  amountIn * (10000 - slippageBps) */\n      tag_876\n        /* \"contracts/FutarchyArbExecutorV4.sol\":17894:17913  10000 - slippageBps */\n      swap4\n      tag_70\n      jump\t// in\n        /* \"contracts/FutarchyArbExecutorV4.sol\":17881:17923  (amountIn * (10000 - slippageBps)) / 10000 */\n    tag_1069:\n        /* \"contracts/FutarchyArbExecutorV4.sol\":17849:17923  (slippageBps == 0) ? amountIn : (amountIn * (10000 - slippageBps)) / 10000 */\n      swap2\n      jump(tag_1065)\n        /* \"contracts/FutarchyArbExecutorV4.sol\":17640:17699  if (cd.length < amountOffset + 32) revert AmountOffsetOOB() */\n    tag_1059:\n        /* \"contracts/FutarchyArbExecutorV4.sol\":17682:17699  AmountOffsetOOB() */\n      mstore(0x00, shl(0xe0, 0xf3e07dc3))\n      revert(0x00, 0x04)\n\n    auxdata: 0xa264697066735822122041c4611641799e8f0205e8f56de50db4c18719a1f67f6029ac5d2931f3f32f4764736f6c63430008210033\n}\n","methodIdentifiers":{"buy_conditional_arbitrage(((address,address,address,address,address,address),(address,address),(address,address,address,address),uint256,address,bytes,address,bytes,address,uint256,uint256,(address[10],bytes[10],uint256,address,address,address,uint256,uint256,uint8,uint256,uint256,uint16),address,(address,bytes,uint256,uint256,uint256,uint16),(address,bytes,uint256,uint256,uint256,uint16),(address,bytes,uint256,uint256,uint256,uint16),(address,bytes,uint256,uint256,uint256,uint16),int256))":"e4d30e3d","execute10(address[10],bytes[10],uint256)":"f75be35c","executeOne(address,bytes)":"3e16b19c","runBuy(((address,address,address,address,address,address),(address,address),(address,address,address,address),uint256,address,bytes,address,bytes,address,uint256,uint256,(address[10],bytes[10],uint256,address,address,address,uint256,uint256,uint8,uint256,uint256,uint16),address,(address,bytes,uint256,uint256,uint256,uint16),(address,bytes,uint256,uint256,uint256,uint16),(address,bytes,uint256,uint256,uint256,uint16),(address,bytes,uint256,uint256,uint256,uint16),int256))":"5f66c633","runSell(((address,address,address,address,address,address),(address,address),(address,address,address,address),(address[10],bytes[10],uint256,address,address,address,uint256,uint256,uint8,uint256,uint256,uint16),uint256,uint256,address,bytes,address,bytes,address,uint256,uint256,address,(address,bytes,uint256,uint256,uint256,uint16),(address,bytes,uint256,uint256,uint256,uint16),int256))":"9862d8f7","runTrade((address[10],bytes[10],uint256,address,address,address,uint256,uint256,uint8,uint256,uint256,uint16))":"aaedc25f","runner()":"7a8ca615","sell_conditional_arbitrage(((address,address,address,address,address,address),(address,address),(address,address,address,address),(address[10],bytes[10],uint256,address,address,address,uint256,uint256,uint8,uint256,uint256,uint16),uint256,uint256,address,bytes,address,bytes,address,uint256,uint256,address,(address,bytes,uint256,uint256,uint256,uint16),(address,bytes,uint256,uint256,uint256,uint16),int256))":"c23756ae"},"id":1}