{"abi":[{"type":"receive","stateMutability":"payable"},{"type":"function","name":"execute20","inputs":[{"name":"count","type":"uint256","internalType":"uint256"},{"name":"targets","type":"address[20]","internalType":"address[20]"},{"name":"values","type":"uint256[20]","internalType":"uint256[20]"},{"name":"calldatas","type":"bytes[20]","internalType":"bytes[20]"}],"outputs":[],"stateMutability":"payable"},{"type":"function","name":"execute20WithResults","inputs":[{"name":"count","type":"uint256","internalType":"uint256"},{"name":"targets","type":"address[20]","internalType":"address[20]"},{"name":"values","type":"uint256[20]","internalType":"uint256[20]"},{"name":"calldatas","type":"bytes[20]","internalType":"bytes[20]"}],"outputs":[{"name":"success","type":"bool[20]","internalType":"bool[20]"},{"name":"results","type":"bytes[20]","internalType":"bytes[20]"}],"stateMutability":"payable"},{"type":"function","name":"executeBuyConditional","inputs":[{"name":"targets","type":"address[11]","internalType":"address[11]"},{"name":"values","type":"uint256[11]","internalType":"uint256[11]"},{"name":"calldatas","type":"bytes[11]","internalType":"bytes[11]"}],"outputs":[{"name":"results","type":"bytes[11]","internalType":"bytes[11]"}],"stateMutability":"payable"},{"type":"function","name":"executeOne","inputs":[{"name":"target","type":"address","internalType":"address"},{"name":"value","type":"uint256","internalType":"uint256"},{"name":"data","type":"bytes","internalType":"bytes"}],"outputs":[{"name":"","type":"bytes","internalType":"bytes"}],"stateMutability":"payable"},{"type":"function","name":"setApprovals","inputs":[{"name":"tokens","type":"address[5]","internalType":"address[5]"},{"name":"spenders","type":"address[5]","internalType":"address[5]"},{"name":"amounts","type":"uint256[5]","internalType":"uint256[5]"},{"name":"count","type":"uint256","internalType":"uint256"}],"outputs":[],"stateMutability":"nonpayable"},{"type":"event","name":"ApprovalSet","inputs":[{"name":"token","type":"address","indexed":true,"internalType":"address"},{"name":"spender","type":"address","indexed":true,"internalType":"address"},{"name":"amount","type":"uint256","indexed":false,"internalType":"uint256"}],"anonymous":false},{"type":"event","name":"BatchExecuted","inputs":[{"name":"callsExecuted","type":"uint256","indexed":false,"internalType":"uint256"}],"anonymous":false},{"type":"event","name":"CallExecuted","inputs":[{"name":"index","type":"uint256","indexed":false,"internalType":"uint256"},{"name":"target","type":"address","indexed":false,"internalType":"address"},{"name":"success","type":"bool","indexed":false,"internalType":"bool"}],"anonymous":false},{"type":"error","name":"CallFailed","inputs":[{"name":"index","type":"uint256","internalType":"uint256"}]},{"type":"error","name":"InvalidCount","inputs":[]},{"type":"error","name":"OnlySelf","inputs":[]}],"bytecode":{"object":"0x6080806040523460155761096f908161001a8239f35b5f80fdfe6080604052600436101561001a575b3615610018575f80fd5b005b5f3560e01c806347981b751461066f5780635527000c146105075780635b17f3c61461034c5780638dc01bdb146102615763d734c97d0361000e5761005e36610788565b90926102809360405192610072868561086f565b8536853760405194610084878761086f565b5f5b87811061025357503033036102445760148411610235575f969594965b84811061015c575050505060207fe9cc9bbe7de1cbb097a6357ca3182909488efe8d793e25665befc064a02d10a791604051908152a16040519283926102a08401915f855b60148210610140575050506102a090840152610520830191905f5b60148110610112575050500390f35b9193509160208061013060019361029f1989820301875287516107d7565b9501930191019084939291610103565b82511515815287965060209283019260019290920191016100e8565b959694956001906001600160a01b0361017d61017883866107fb565b61080c565b1661018d575b01969594966100a3565b5f8061019c61017884876107fb565b6101a684896107fb565b356101b18589610853565b9190826040519384928337810185815203925af16101cd6108a5565b6101d7838b6107fb565b526101e282896107fb565b90151590525f51602061091a5f395f51905f5261020261017883866107fb565b61020c838a6107fb565b51604080518581526001600160a01b0393909316602084015290151590820152606090a1610183565b631a49577b60e11b5f5260045ffd5b63029a949d60e31b5f5260045ffd5b606087820152602001610086565b6060366003190112610348576004356001600160a01b038116908181036103485760443567ffffffffffffffff811161034857366023820112156103485780600401359167ffffffffffffffff8311610348573660248484010111610348573033036102445760245f939283859460405193849301833781018481520391602435905af16102ed6108a5565b901591826103355760605f51602061091a5f395f51905f529161033194604051915f83526020830152156040820152a16040519182916020835260208301906107d7565b0390f35b6307f3476960e31b5f525f60045260245ffd5b5f80fd5b6102e036600319011261034857366101641161034857366102c411610348576102c43567ffffffffffffffff811161034857806004019036610164820111610348576040519061016061039f818461086f565b5f5b8181106104f9575050303303610244575f5b600b81101561047b575f806103ca610178846108f6565b8360051b906103e3600483610164019388010189610820565b91908260405193849283378101858152039235905af16104016108a5565b81156104685782915f51602061091a5f395f51905f529161042460019588610908565b5261042f8387610908565b5061043c610178846108f6565b604080518581526001600160a01b0392909216602083015291151591810191909152606090a1016103b3565b826307f3476960e31b5f5260045260245ffd5b827fe9cc9bbe7de1cbb097a6357ca3182909488efe8d793e25665befc064a02d10a76020604051600b8152a160405180916020820160208352610180830191905f5b600b81106104cc575050500390f35b919350916020806104e9600193601f1989820301875287516107d7565b95019301910190849392916104bd565b6060848201526020016103a1565b3461034857610200366003190112610348573660a41161034857366101441161034857366101e411610348576101e4353033036102445760058111610235575f5b81811061055157005b6001600160a01b03610565610178836108e4565b16610573575b600101610548565b61057f610178826108e4565b90600581101561065b578060051b6105998160a40161080c565b9061014401355f8060405193602085019063095ea7b360e01b825260018060a01b031694856024820152846044820152604481526105d860648261086f565b519082885af16105e66108a5565b901561033557805180610636575b50506040519081526001936001600160a01b0316907f831618689250168d97439719454d49da08400cc172d64eac411c802f0e28230990602090a3905061056b565b81602091810103126103485760200151801590811503610348576103355785806105f4565b634e487b7160e01b5f52603260045260245ffd5b61067836610788565b91903033036102445760148411610235575f5b8481106106bf577fe9cc9bbe7de1cbb097a6357ca3182909488efe8d793e25665befc064a02d10a7602086604051908152a1005b6001600160a01b036106d461017883866107fb565b166106e2575b60010161068b565b5f806106f161017884876107fb565b6106fb84866107fb565b356107068589610853565b9190826040519384928337810185815203925af16107226108a5565b50801561077557905f51602061091a5f395f51905f5260019261074861017884886107fb565b604080518581526001600160a01b0392909216602083015291151591810191909152606090a190506106da565b506307f3476960e31b5f5260045260245ffd5b906105406003198301126103485760043591806102a411610348576024918161052411610348576102a491610524359067ffffffffffffffff8211610348576102848201116103485760040190565b805180835260209291819084018484015e5f828201840152601f01601f1916010190565b90601481101561065b5760051b0190565b356001600160a01b03811681036103485790565b903590601e1981360301821215610348570180359067ffffffffffffffff82116103485760200191813603831361034857565b601482101561065b5761086b9160051b810190610820565b9091565b90601f8019910116810190811067ffffffffffffffff82111761089157604052565b634e487b7160e01b5f52604160045260245ffd5b3d156108df573d9067ffffffffffffffff821161089157604051916108d4601f8201601f19166020018461086f565b82523d5f602084013e565b606090565b600581101561065b5760051b60040190565b600b81101561065b5760051b60040190565b90600b81101561065b5760051b019056fe693669f5983b7a66f77192b45fa2d8c5f42f2696513ef1972bc5092a478e1705a264697066735822122010e9c749bf7f3c1cc25bb03cf3b701a230cf37de4e4d798a633613759f5061d364736f6c63430008210033","linkReferences":{}},"assembly":"    /* \"contracts/FutarchyBatchExecutorV2.sol\":421:5518  contract FutarchyBatchExecutorV2 {... */\n  0x80\n  dup1\n  0x40\n  mstore\n  jumpi(tag_1, callvalue)\n  dataSize(sub_0)\n  swap1\n  dup2\n  dataOffset(sub_0)\n  dup3\n  codecopy\n  return\ntag_1:\n  0x00\n  dup1\n  revert\nstop\n\nsub_0: assembly {\n        /* \"contracts/FutarchyBatchExecutorV2.sol\":421:5518  contract FutarchyBatchExecutorV2 {... */\n      mstore(0x40, 0x80)\n      jumpi(tag_13, iszero(lt(calldatasize, 0x04)))\n    tag_14:\n      jumpi(tag_15, iszero(calldatasize))\n      0x00\n      dup1\n      revert\n    tag_15:\n      stop\n    tag_13:\n      shr(0xe0, calldataload(0x00))\n      dup1\n      0x47981b75\n      eq\n      tag_17\n      jumpi\n      dup1\n      0x5527000c\n      eq\n      tag_19\n      jumpi\n      dup1\n      0x5b17f3c6\n      eq\n      tag_21\n      jumpi\n      dup1\n      0x8dc01bdb\n      eq\n      tag_23\n      jumpi\n      0xd734c97d\n      sub\n      tag_14\n      jumpi\n      tag_27\n      calldatasize\n      tag_1\n      jump\t// in\n    tag_27:\n      swap1\n      swap3\n      0x0280\n      swap4\n      mload(0x40)\n      swap3\n      tag_28\n      dup7\n      dup6\n      tag_7\n      jump\t// in\n    tag_28:\n      dup6\n      calldatasize\n      dup6\n      calldatacopy\n      mload(0x40)\n      swap5\n      tag_29\n      dup8\n      dup8\n      tag_7\n      jump\t// in\n    tag_29:\n      0x00\n    tag_30:\n      dup8\n      dup2\n      lt\n      tag_31\n      jumpi\n        /* \"contracts/FutarchyBatchExecutorV2.sol\":836:840  this */\n      pop\n      address\n        /* \"contracts/FutarchyBatchExecutorV2.sol\":814:824  msg.sender */\n      caller\n        /* \"contracts/FutarchyBatchExecutorV2.sol\":814:841  msg.sender != address(this) */\n      sub\n        /* \"contracts/FutarchyBatchExecutorV2.sol\":810:860  if (msg.sender != address(this)) revert OnlySelf() */\n      tag_33\n      jumpi\n        /* \"contracts/FutarchyBatchExecutorV2.sol\":421:5518  contract FutarchyBatchExecutorV2 {... */\n      0x14\n        /* \"contracts/FutarchyBatchExecutorV2.sol\":2541:2551  count > 20 */\n      dup5\n      gt\n        /* \"contracts/FutarchyBatchExecutorV2.sol\":2537:2574  if (count > 20) revert InvalidCount() */\n      tag_35\n      jumpi\n        /* \"contracts/FutarchyBatchExecutorV2.sol\":421:5518  contract FutarchyBatchExecutorV2 {... */\n      0x00\n        /* \"contracts/FutarchyBatchExecutorV2.sol\":2590:2603  uint256 i = 0 */\n      swap7\n      swap6\n      swap5\n      swap7\n        /* \"contracts/FutarchyBatchExecutorV2.sol\":2605:2614  i < count */\n    tag_37:\n      dup5\n      dup2\n      lt\n      tag_38\n      jumpi\n        /* \"contracts/FutarchyBatchExecutorV2.sol\":421:5518  contract FutarchyBatchExecutorV2 {... */\n      pop\n      pop\n      pop\n      pop\n      0x20\n        /* \"contracts/FutarchyBatchExecutorV2.sol\":2914:2934  BatchExecuted(count) */\n      0xe9cc9bbe7de1cbb097a6357ca3182909488efe8d793e25665befc064a02d10a7\n        /* \"contracts/FutarchyBatchExecutorV2.sol\":421:5518  contract FutarchyBatchExecutorV2 {... */\n      swap2\n      mload(0x40)\n      swap1\n      dup2\n      mstore\n        /* \"contracts/FutarchyBatchExecutorV2.sol\":2914:2934  BatchExecuted(count) */\n      log1\n        /* \"contracts/FutarchyBatchExecutorV2.sol\":421:5518  contract FutarchyBatchExecutorV2 {... */\n      mload(0x40)\n      swap3\n      dup4\n      swap3\n      0x02a0\n      dup5\n      add\n      swap2\n      0x00\n      dup6\n    tag_40:\n      0x14\n      dup3\n      lt\n      tag_41\n      jumpi\n      pop\n      pop\n      pop\n      0x02a0\n      swap1\n      dup5\n      add\n      mstore\n      0x0520\n      dup4\n      add\n      swap2\n      swap1\n      0x00\n    tag_43:\n      0x14\n      dup2\n      lt\n      tag_44\n      jumpi\n      pop\n      pop\n      pop\n      sub\n      swap1\n      return\n    tag_44:\n      swap2\n      swap4\n      pop\n      swap2\n      0x20\n      dup1\n      tag_46\n      0x01\n      swap4\n      not(0x029f)\n      dup10\n      dup3\n      sub\n      add\n      dup8\n      mstore\n      dup8\n      mload\n      tag_2\n      jump\t// in\n    tag_46:\n      swap6\n      add\n      swap4\n      add\n      swap2\n      add\n      swap1\n      dup5\n      swap4\n      swap3\n      swap2\n      jump(tag_43)\n    tag_41:\n      dup3\n      mload\n      iszero\n      iszero\n      dup2\n      mstore\n      dup8\n      swap7\n      pop\n      0x20\n      swap3\n      dup4\n      add\n      swap3\n      0x01\n      swap3\n      swap1\n      swap3\n      add\n      swap2\n      add\n      jump(tag_40)\n        /* \"contracts/FutarchyBatchExecutorV2.sol\":2590:2603  uint256 i = 0 */\n    tag_38:\n        /* \"contracts/FutarchyBatchExecutorV2.sol\":421:5518  contract FutarchyBatchExecutorV2 {... */\n      swap6\n      swap7\n      swap5\n      swap6\n      0x01\n      swap1\n      sub(shl(0xa0, 0x01), 0x01)\n        /* \"contracts/FutarchyBatchExecutorV2.sol\":2635:2645  targets[i] */\n      tag_47\n      tag_48\n        /* \"contracts/FutarchyBatchExecutorV2.sol\":421:5518  contract FutarchyBatchExecutorV2 {... */\n      dup4\n        /* \"contracts/FutarchyBatchExecutorV2.sol\":2635:2645  targets[i] */\n      dup7\n      tag_3\n      jump\t// in\n    tag_48:\n      tag_4\n      jump\t// in\n    tag_47:\n        /* \"contracts/FutarchyBatchExecutorV2.sol\":421:5518  contract FutarchyBatchExecutorV2 {... */\n      and\n        /* \"contracts/FutarchyBatchExecutorV2.sol\":2631:2830  if (targets[i] != address(0)) {... */\n      tag_49\n      jumpi\n        /* \"contracts/FutarchyBatchExecutorV2.sol\":2590:2603  uint256 i = 0 */\n    tag_50:\n        /* \"contracts/FutarchyBatchExecutorV2.sol\":421:5518  contract FutarchyBatchExecutorV2 {... */\n      add\n        /* \"contracts/FutarchyBatchExecutorV2.sol\":2590:2603  uint256 i = 0 */\n      swap7\n      swap6\n      swap5\n      swap7\n      jump(tag_37)\n        /* \"contracts/FutarchyBatchExecutorV2.sol\":2631:2830  if (targets[i] != address(0)) {... */\n    tag_49:\n        /* \"contracts/FutarchyBatchExecutorV2.sol\":421:5518  contract FutarchyBatchExecutorV2 {... */\n      0x00\n        /* \"contracts/FutarchyBatchExecutorV2.sol\":2706:2716  targets[i] */\n      dup1\n      tag_51\n      tag_48\n      dup5\n      dup8\n      tag_3\n      jump\t// in\n    tag_51:\n        /* \"contracts/FutarchyBatchExecutorV2.sol\":2729:2738  values[i] */\n      tag_53\n      dup5\n      dup10\n      tag_3\n      jump\t// in\n    tag_53:\n        /* \"contracts/FutarchyBatchExecutorV2.sol\":421:5518  contract FutarchyBatchExecutorV2 {... */\n      calldataload\n        /* \"contracts/FutarchyBatchExecutorV2.sol\":2740:2752  calldatas[i] */\n      tag_54\n      dup6\n      dup10\n      tag_6\n      jump\t// in\n    tag_54:\n        /* \"contracts/FutarchyBatchExecutorV2.sol\":421:5518  contract FutarchyBatchExecutorV2 {... */\n      swap2\n      swap1\n      dup3\n      mload(0x40)\n      swap4\n      dup5\n      swap3\n      dup4\n      calldatacopy\n      dup2\n      add\n      dup6\n      dup2\n      mstore\n        /* \"contracts/FutarchyBatchExecutorV2.sol\":2706:2753  targets[i].call{value: values[i]}(calldatas[i]) */\n      sub\n      swap3\n      gas\n      call\n      tag_55\n      tag_8\n      jump\t// in\n    tag_55:\n        /* \"contracts/FutarchyBatchExecutorV2.sol\":2679:2753  (success[i], results[i]) = targets[i].call{value: values[i]}(calldatas[i]) */\n      tag_56\n      dup4\n      dup12\n      tag_3\n      jump\t// in\n    tag_56:\n      mstore\n      tag_57\n      dup3\n      dup10\n      tag_3\n      jump\t// in\n    tag_57:\n        /* \"contracts/FutarchyBatchExecutorV2.sol\":421:5518  contract FutarchyBatchExecutorV2 {... */\n      swap1\n      iszero\n      iszero\n      swap1\n      mstore\n      mload(0x00)\n      codecopy(0x00, data_acb246042b17879f7126bdd612d9a36421fdd11dd3314cdb9c52e06772ba10cc, 0x20)\n      mload(0x00)\n      swap1\n      0x00\n      mstore\n        /* \"contracts/FutarchyBatchExecutorV2.sol\":2792:2802  targets[i] */\n      tag_58\n      tag_48\n      dup4\n      dup7\n      tag_3\n      jump\t// in\n    tag_58:\n        /* \"contracts/FutarchyBatchExecutorV2.sol\":2804:2814  success[i] */\n      tag_60\n      dup4\n      dup11\n      tag_3\n      jump\t// in\n    tag_60:\n        /* \"contracts/FutarchyBatchExecutorV2.sol\":421:5518  contract FutarchyBatchExecutorV2 {... */\n      mload\n      0x40\n      dup1\n      mload\n      dup6\n      dup2\n      mstore\n      sub(shl(0xa0, 0x01), 0x01)\n      swap4\n      swap1\n      swap4\n      and\n      0x20\n      dup5\n      add\n      mstore\n      swap1\n      iszero\n      iszero\n      swap1\n      dup3\n      add\n      mstore\n      0x60\n      swap1\n        /* \"contracts/FutarchyBatchExecutorV2.sol\":2776:2815  CallExecuted(i, targets[i], success[i]) */\n      log1\n        /* \"contracts/FutarchyBatchExecutorV2.sol\":2631:2830  if (targets[i] != address(0)) {... */\n      jump(tag_50)\n        /* \"contracts/FutarchyBatchExecutorV2.sol\":2537:2574  if (count > 20) revert InvalidCount() */\n    tag_35:\n        /* \"contracts/FutarchyBatchExecutorV2.sol\":1459:1473  InvalidCount() */\n      shl(0xe1, 0x1a49577b)\n        /* \"contracts/FutarchyBatchExecutorV2.sol\":421:5518  contract FutarchyBatchExecutorV2 {... */\n      0x00\n        /* \"contracts/FutarchyBatchExecutorV2.sol\":2560:2574  InvalidCount() */\n      mstore\n        /* \"contracts/FutarchyBatchExecutorV2.sol\":421:5518  contract FutarchyBatchExecutorV2 {... */\n      0x04\n      0x00\n        /* \"contracts/FutarchyBatchExecutorV2.sol\":2560:2574  InvalidCount() */\n      revert\n        /* \"contracts/FutarchyBatchExecutorV2.sol\":810:860  if (msg.sender != address(this)) revert OnlySelf() */\n    tag_33:\n        /* \"contracts/FutarchyBatchExecutorV2.sol\":850:860  OnlySelf() */\n      shl(0xe3, 0x029a949d)\n        /* \"contracts/FutarchyBatchExecutorV2.sol\":421:5518  contract FutarchyBatchExecutorV2 {... */\n      0x00\n        /* \"contracts/FutarchyBatchExecutorV2.sol\":850:860  OnlySelf() */\n      mstore\n        /* \"contracts/FutarchyBatchExecutorV2.sol\":421:5518  contract FutarchyBatchExecutorV2 {... */\n      0x04\n      0x00\n        /* \"contracts/FutarchyBatchExecutorV2.sol\":850:860  OnlySelf() */\n      revert\n        /* \"contracts/FutarchyBatchExecutorV2.sol\":421:5518  contract FutarchyBatchExecutorV2 {... */\n    tag_31:\n      0x60\n      dup8\n      dup3\n      add\n      mstore\n      0x20\n      add\n      jump(tag_30)\n    tag_23:\n      jumpi(tag_72, slt(add(not(0x03), calldatasize), 0x60))\n      calldataload(0x04)\n      sub(shl(0xa0, 0x01), 0x01)\n      dup2\n      and\n      swap1\n      dup2\n      dup2\n      sub\n      tag_72\n      jumpi\n      calldataload(0x44)\n      0xffffffffffffffff\n      dup2\n      gt\n      tag_72\n      jumpi\n      calldatasize\n      0x23\n      dup3\n      add\n      slt\n      iszero\n      tag_72\n      jumpi\n      dup1\n      0x04\n      add\n      calldataload\n      swap2\n      0xffffffffffffffff\n      dup4\n      gt\n      tag_72\n      jumpi\n      calldatasize\n      0x24\n      dup5\n      dup5\n      add\n      add\n      gt\n      tag_72\n      jumpi\n        /* \"contracts/FutarchyBatchExecutorV2.sol\":836:840  this */\n      address\n        /* \"contracts/FutarchyBatchExecutorV2.sol\":814:824  msg.sender */\n      caller\n        /* \"contracts/FutarchyBatchExecutorV2.sol\":814:841  msg.sender != address(this) */\n      sub\n        /* \"contracts/FutarchyBatchExecutorV2.sol\":810:860  if (msg.sender != address(this)) revert OnlySelf() */\n      tag_33\n      jumpi\n        /* \"contracts/FutarchyBatchExecutorV2.sol\":421:5518  contract FutarchyBatchExecutorV2 {... */\n      0x24\n      0x00\n      swap4\n      swap3\n      dup4\n      dup6\n      swap5\n      mload(0x40)\n      swap4\n      dup5\n      swap4\n      add\n      dup4\n      calldatacopy\n      dup2\n      add\n      dup5\n      dup2\n      mstore\n        /* \"contracts/FutarchyBatchExecutorV2.sol\":5285:5316  target.call{value: value}(data) */\n      sub\n        /* \"contracts/FutarchyBatchExecutorV2.sol\":421:5518  contract FutarchyBatchExecutorV2 {... */\n      swap2\n      calldataload(0x24)\n        /* \"contracts/FutarchyBatchExecutorV2.sol\":5285:5316  target.call{value: value}(data) */\n      swap1\n      gas\n      call\n      tag_76\n      tag_8\n      jump\t// in\n    tag_76:\n        /* \"contracts/FutarchyBatchExecutorV2.sol\":5330:5338  !success */\n      swap1\n      iszero\n        /* \"contracts/FutarchyBatchExecutorV2.sol\":5326:5360  if (!success) revert CallFailed(0) */\n      swap2\n      dup3\n      tag_77\n      jumpi\n        /* \"contracts/FutarchyBatchExecutorV2.sol\":421:5518  contract FutarchyBatchExecutorV2 {... */\n      0x60\n      mload(0x00)\n      codecopy(0x00, data_acb246042b17879f7126bdd612d9a36421fdd11dd3314cdb9c52e06772ba10cc, 0x20)\n      mload(0x00)\n      swap1\n      0x00\n      mstore\n      swap2\n      tag_79\n      swap5\n      mload(0x40)\n      swap2\n      0x00\n      dup4\n      mstore\n      0x20\n      dup4\n      add\n      mstore\n      iszero\n      0x40\n      dup3\n      add\n      mstore\n        /* \"contracts/FutarchyBatchExecutorV2.sol\":5375:5407  CallExecuted(0, target, success) */\n      log1\n        /* \"contracts/FutarchyBatchExecutorV2.sol\":421:5518  contract FutarchyBatchExecutorV2 {... */\n      mload(0x40)\n      swap2\n      dup3\n      swap2\n      0x20\n      dup4\n      mstore\n      0x20\n      dup4\n      add\n      swap1\n      tag_2\n      jump\t// in\n    tag_79:\n      sub\n      swap1\n      return\n        /* \"contracts/FutarchyBatchExecutorV2.sol\":5326:5360  if (!success) revert CallFailed(0) */\n    tag_77:\n        /* \"contracts/FutarchyBatchExecutorV2.sol\":1682:1695  CallFailed(i) */\n      shl(0xe3, 0x07f34769)\n        /* \"contracts/FutarchyBatchExecutorV2.sol\":421:5518  contract FutarchyBatchExecutorV2 {... */\n      0x00\n        /* \"contracts/FutarchyBatchExecutorV2.sol\":5347:5360  CallFailed(0) */\n      mstore\n        /* \"contracts/FutarchyBatchExecutorV2.sol\":421:5518  contract FutarchyBatchExecutorV2 {... */\n      mstore(0x04, 0x00)\n      0x24\n      0x00\n        /* \"contracts/FutarchyBatchExecutorV2.sol\":5347:5360  CallFailed(0) */\n      revert\n        /* \"contracts/FutarchyBatchExecutorV2.sol\":421:5518  contract FutarchyBatchExecutorV2 {... */\n    tag_72:\n      0x00\n      dup1\n      revert\n    tag_21:\n      jumpi(tag_72, slt(add(not(0x03), calldatasize), 0x02e0))\n      jumpi(tag_72, gt(0x0164, calldatasize))\n      jumpi(tag_72, gt(0x02c4, calldatasize))\n      calldataload(0x02c4)\n      0xffffffffffffffff\n      dup2\n      gt\n      tag_72\n      jumpi\n      dup1\n      0x04\n      add\n      swap1\n      calldatasize\n      0x0164\n      dup3\n      add\n      gt\n      tag_72\n      jumpi\n      mload(0x40)\n      swap1\n      0x0160\n      tag_90\n      dup2\n      dup5\n      tag_7\n      jump\t// in\n    tag_90:\n      0x00\n    tag_91:\n      dup2\n      dup2\n      lt\n      tag_92\n      jumpi\n        /* \"contracts/FutarchyBatchExecutorV2.sol\":836:840  this */\n      pop\n      pop\n      address\n        /* \"contracts/FutarchyBatchExecutorV2.sol\":814:824  msg.sender */\n      caller\n        /* \"contracts/FutarchyBatchExecutorV2.sol\":814:841  msg.sender != address(this) */\n      sub\n        /* \"contracts/FutarchyBatchExecutorV2.sol\":810:860  if (msg.sender != address(this)) revert OnlySelf() */\n      tag_33\n      jumpi\n        /* \"contracts/FutarchyBatchExecutorV2.sol\":421:5518  contract FutarchyBatchExecutorV2 {... */\n      0x00\n        /* \"contracts/FutarchyBatchExecutorV2.sol\":3402:3415  uint256 i = 0 */\n    tag_96:\n        /* \"contracts/FutarchyBatchExecutorV2.sol\":421:5518  contract FutarchyBatchExecutorV2 {... */\n      0x0b\n        /* \"contracts/FutarchyBatchExecutorV2.sol\":3417:3423  i < 11 */\n      dup2\n      lt\n      iszero\n      tag_97\n      jumpi\n        /* \"contracts/FutarchyBatchExecutorV2.sol\":421:5518  contract FutarchyBatchExecutorV2 {... */\n      0x00\n        /* \"contracts/FutarchyBatchExecutorV2.sol\":3478:3488  targets[i] */\n      dup1\n      tag_99\n      tag_48\n      dup5\n      tag_11\n      jump\t// in\n    tag_99:\n        /* \"contracts/FutarchyBatchExecutorV2.sol\":421:5518  contract FutarchyBatchExecutorV2 {... */\n      dup4\n      0x05\n      shl\n      swap1\n      tag_101\n      0x04\n      dup4\n      0x0164\n      add\n      swap4\n      dup9\n      add\n      add\n      dup10\n      tag_5\n      jump\t// in\n    tag_101:\n      swap2\n      swap1\n      dup3\n      mload(0x40)\n      swap4\n      dup5\n      swap3\n      dup4\n      calldatacopy\n      dup2\n      add\n      dup6\n      dup2\n      mstore\n        /* \"contracts/FutarchyBatchExecutorV2.sol\":3478:3525  targets[i].call{value: values[i]}(calldatas[i]) */\n      sub\n        /* \"contracts/FutarchyBatchExecutorV2.sol\":421:5518  contract FutarchyBatchExecutorV2 {... */\n      swap3\n      calldataload\n        /* \"contracts/FutarchyBatchExecutorV2.sol\":3478:3525  targets[i].call{value: values[i]}(calldatas[i]) */\n      swap1\n      gas\n      call\n      tag_102\n      tag_8\n      jump\t// in\n    tag_102:\n        /* \"contracts/FutarchyBatchExecutorV2.sol\":3543:3551  !success */\n      dup2\n      iszero\n        /* \"contracts/FutarchyBatchExecutorV2.sol\":3539:3573  if (!success) revert CallFailed(i) */\n      tag_103\n      jumpi\n        /* \"contracts/FutarchyBatchExecutorV2.sol\":3587:3606  results[i] = result */\n      dup3\n      swap2\n      mload(0x00)\n      codecopy(0x00, data_acb246042b17879f7126bdd612d9a36421fdd11dd3314cdb9c52e06772ba10cc, 0x20)\n      mload(0x00)\n      swap1\n      0x00\n      mstore\n      swap2\n      tag_105\n        /* \"contracts/FutarchyBatchExecutorV2.sol\":421:5518  contract FutarchyBatchExecutorV2 {... */\n      0x01\n        /* \"contracts/FutarchyBatchExecutorV2.sol\":3587:3606  results[i] = result */\n      swap6\n      dup9\n      tag_12\n      jump\t// in\n    tag_105:\n      mstore\n      tag_106\n      dup4\n      dup8\n      tag_12\n      jump\t// in\n    tag_106:\n      pop\n        /* \"contracts/FutarchyBatchExecutorV2.sol\":3641:3651  targets[i] */\n      tag_107\n      tag_48\n      dup5\n      tag_11\n      jump\t// in\n    tag_107:\n        /* \"contracts/FutarchyBatchExecutorV2.sol\":421:5518  contract FutarchyBatchExecutorV2 {... */\n      0x40\n      dup1\n      mload\n      dup6\n      dup2\n      mstore\n      sub(shl(0xa0, 0x01), 0x01)\n      swap3\n      swap1\n      swap3\n      and\n      0x20\n      dup4\n      add\n      mstore\n      swap2\n      iszero\n      iszero\n      swap2\n      dup2\n      add\n      swap2\n      swap1\n      swap2\n      mstore\n      0x60\n      swap1\n        /* \"contracts/FutarchyBatchExecutorV2.sol\":3625:3661  CallExecuted(i, targets[i], success) */\n      log1\n        /* \"contracts/FutarchyBatchExecutorV2.sol\":421:5518  contract FutarchyBatchExecutorV2 {... */\n      add\n        /* \"contracts/FutarchyBatchExecutorV2.sol\":3402:3415  uint256 i = 0 */\n      jump(tag_96)\n        /* \"contracts/FutarchyBatchExecutorV2.sol\":3539:3573  if (!success) revert CallFailed(i) */\n    tag_103:\n        /* \"contracts/FutarchyBatchExecutorV2.sol\":1682:1695  CallFailed(i) */\n      dup3\n      shl(0xe3, 0x07f34769)\n        /* \"contracts/FutarchyBatchExecutorV2.sol\":421:5518  contract FutarchyBatchExecutorV2 {... */\n      0x00\n        /* \"contracts/FutarchyBatchExecutorV2.sol\":3560:3573  CallFailed(i) */\n      mstore\n        /* \"contracts/FutarchyBatchExecutorV2.sol\":421:5518  contract FutarchyBatchExecutorV2 {... */\n      0x04\n      mstore\n      0x24\n      0x00\n        /* \"contracts/FutarchyBatchExecutorV2.sol\":3560:3573  CallFailed(i) */\n      revert\n        /* \"contracts/FutarchyBatchExecutorV2.sol\":3417:3423  i < 11 */\n    tag_97:\n      dup3\n        /* \"contracts/FutarchyBatchExecutorV2.sol\":3746:3763  BatchExecuted(11) */\n      0xe9cc9bbe7de1cbb097a6357ca3182909488efe8d793e25665befc064a02d10a7\n        /* \"contracts/FutarchyBatchExecutorV2.sol\":421:5518  contract FutarchyBatchExecutorV2 {... */\n      0x20\n      mload(0x40)\n      0x0b\n      dup2\n      mstore\n        /* \"contracts/FutarchyBatchExecutorV2.sol\":3746:3763  BatchExecuted(11) */\n      log1\n        /* \"contracts/FutarchyBatchExecutorV2.sol\":421:5518  contract FutarchyBatchExecutorV2 {... */\n      mload(0x40)\n      dup1\n      swap2\n      0x20\n      dup3\n      add\n      0x20\n      dup4\n      mstore\n      0x0180\n      dup4\n      add\n      swap2\n      swap1\n      0x00\n    tag_110:\n      0x0b\n      dup2\n      lt\n      tag_111\n      jumpi\n      pop\n      pop\n      pop\n      sub\n      swap1\n      return\n    tag_111:\n      swap2\n      swap4\n      pop\n      swap2\n      0x20\n      dup1\n      tag_113\n      0x01\n      swap4\n      not(0x1f)\n      dup10\n      dup3\n      sub\n      add\n      dup8\n      mstore\n      dup8\n      mload\n      tag_2\n      jump\t// in\n    tag_113:\n      swap6\n      add\n      swap4\n      add\n      swap2\n      add\n      swap1\n      dup5\n      swap4\n      swap3\n      swap2\n      jump(tag_110)\n    tag_92:\n      0x60\n      dup5\n      dup3\n      add\n      mstore\n      0x20\n      add\n      jump(tag_91)\n    tag_19:\n      jumpi(tag_72, callvalue)\n      jumpi(tag_72, slt(add(not(0x03), calldatasize), 0x0200))\n      jumpi(tag_72, gt(0xa4, calldatasize))\n      jumpi(tag_72, gt(0x0144, calldatasize))\n      jumpi(tag_72, gt(0x01e4, calldatasize))\n      calldataload(0x01e4)\n        /* \"contracts/FutarchyBatchExecutorV2.sol\":836:840  this */\n      address\n        /* \"contracts/FutarchyBatchExecutorV2.sol\":814:824  msg.sender */\n      caller\n        /* \"contracts/FutarchyBatchExecutorV2.sol\":814:841  msg.sender != address(this) */\n      sub\n        /* \"contracts/FutarchyBatchExecutorV2.sol\":810:860  if (msg.sender != address(this)) revert OnlySelf() */\n      tag_33\n      jumpi\n        /* \"contracts/FutarchyBatchExecutorV2.sol\":4184:4185  5 */\n      0x05\n        /* \"contracts/FutarchyBatchExecutorV2.sol\":4176:4185  count > 5 */\n      dup2\n      gt\n        /* \"contracts/FutarchyBatchExecutorV2.sol\":4172:4208  if (count > 5) revert InvalidCount() */\n      tag_35\n      jumpi\n        /* \"contracts/FutarchyBatchExecutorV2.sol\":421:5518  contract FutarchyBatchExecutorV2 {... */\n      0x00\n        /* \"contracts/FutarchyBatchExecutorV2.sol\":4239:4248  i < count */\n    tag_128:\n      dup2\n      dup2\n      lt\n      tag_129\n      jumpi\n        /* \"contracts/FutarchyBatchExecutorV2.sol\":421:5518  contract FutarchyBatchExecutorV2 {... */\n      stop\n        /* \"contracts/FutarchyBatchExecutorV2.sol\":4224:4237  uint256 i = 0 */\n    tag_129:\n      sub(shl(0xa0, 0x01), 0x01)\n        /* \"contracts/FutarchyBatchExecutorV2.sol\":4269:4278  tokens[i] */\n      tag_131\n      tag_48\n      dup4\n      tag_10\n      jump\t// in\n    tag_131:\n        /* \"contracts/FutarchyBatchExecutorV2.sol\":421:5518  contract FutarchyBatchExecutorV2 {... */\n      and\n        /* \"contracts/FutarchyBatchExecutorV2.sol\":4265:4338  if (tokens[i] != address(0)) _approve(tokens[i], spenders[i], amounts[i]) */\n      tag_133\n      jumpi\n        /* \"contracts/FutarchyBatchExecutorV2.sol\":4224:4237  uint256 i = 0 */\n    tag_134:\n        /* \"contracts/FutarchyBatchExecutorV2.sol\":421:5518  contract FutarchyBatchExecutorV2 {... */\n      0x01\n      add\n        /* \"contracts/FutarchyBatchExecutorV2.sol\":4224:4237  uint256 i = 0 */\n      jump(tag_128)\n        /* \"contracts/FutarchyBatchExecutorV2.sol\":4265:4338  if (tokens[i] != address(0)) _approve(tokens[i], spenders[i], amounts[i]) */\n    tag_133:\n        /* \"contracts/FutarchyBatchExecutorV2.sol\":4303:4312  tokens[i] */\n      tag_135\n      tag_48\n      dup3\n      tag_10\n      jump\t// in\n    tag_135:\n        /* \"contracts/FutarchyBatchExecutorV2.sol\":4314:4325  spenders[i] */\n      swap1\n        /* \"contracts/FutarchyBatchExecutorV2.sol\":4184:4185  5 */\n      0x05\n        /* \"contracts/FutarchyBatchExecutorV2.sol\":421:5518  contract FutarchyBatchExecutorV2 {... */\n      dup2\n      lt\n      iszero\n      tag_137\n      jumpi\n      dup1\n        /* \"contracts/FutarchyBatchExecutorV2.sol\":4184:4185  5 */\n      0x05\n        /* \"contracts/FutarchyBatchExecutorV2.sol\":421:5518  contract FutarchyBatchExecutorV2 {... */\n      shl\n        /* \"contracts/FutarchyBatchExecutorV2.sol\":4314:4325  spenders[i] */\n      tag_139\n        /* \"contracts/FutarchyBatchExecutorV2.sol\":421:5518  contract FutarchyBatchExecutorV2 {... */\n      dup2\n      0xa4\n      add\n        /* \"contracts/FutarchyBatchExecutorV2.sol\":4314:4325  spenders[i] */\n      tag_4\n      jump\t// in\n    tag_139:\n        /* \"contracts/FutarchyBatchExecutorV2.sol\":4327:4337  amounts[i] */\n      swap1\n        /* \"contracts/FutarchyBatchExecutorV2.sol\":421:5518  contract FutarchyBatchExecutorV2 {... */\n      0x0144\n      add\n      calldataload\n      0x00\n      dup1\n      mload(0x40)\n        /* \"contracts/FutarchyBatchExecutorV2.sol\":4639:4707  abi.encodeWithSignature(\"approve(address,uint256)\", spender, amount) */\n      swap4\n      0x20\n      dup6\n      add\n      swap1\n      shl(0xe0, 0x095ea7b3)\n      dup3\n      mstore\n        /* \"contracts/FutarchyBatchExecutorV2.sol\":421:5518  contract FutarchyBatchExecutorV2 {... */\n      0x01\n      dup1\n      0xa0\n      shl\n      sub\n      and\n        /* \"contracts/FutarchyBatchExecutorV2.sol\":4639:4707  abi.encodeWithSignature(\"approve(address,uint256)\", spender, amount) */\n      swap5\n      dup6\n      0x24\n      dup3\n      add\n        /* \"contracts/FutarchyBatchExecutorV2.sol\":421:5518  contract FutarchyBatchExecutorV2 {... */\n      mstore\n      dup5\n      0x44\n      dup3\n      add\n      mstore\n      0x44\n        /* \"contracts/FutarchyBatchExecutorV2.sol\":4639:4707  abi.encodeWithSignature(\"approve(address,uint256)\", spender, amount) */\n      dup2\n      mstore\n      tag_140\n      0x64\n      dup3\n      tag_7\n      jump\t// in\n    tag_140:\n        /* \"contracts/FutarchyBatchExecutorV2.sol\":4628:4708  token.call(abi.encodeWithSignature(\"approve(address,uint256)\", spender, amount)) */\n      mload\n      swap1\n      dup3\n      dup9\n      gas\n      call\n      tag_141\n      tag_8\n      jump\t// in\n    tag_141:\n        /* \"contracts/FutarchyBatchExecutorV2.sol\":4723:4731  !success */\n      swap1\n      iszero\n        /* \"contracts/FutarchyBatchExecutorV2.sol\":4719:4753  if (!success) revert CallFailed(0) */\n      tag_77\n      jumpi\n        /* \"contracts/FutarchyBatchExecutorV2.sol\":421:5518  contract FutarchyBatchExecutorV2 {... */\n      dup1\n      mload\n        /* \"contracts/FutarchyBatchExecutorV2.sol\":4809:4824  data.length > 0 */\n      dup1\n        /* \"contracts/FutarchyBatchExecutorV2.sol\":4805:4940  if (data.length > 0) {... */\n      tag_144\n      jumpi\n        /* \"contracts/FutarchyBatchExecutorV2.sol\":4265:4338  if (tokens[i] != address(0)) _approve(tokens[i], spenders[i], amounts[i]) */\n    tag_145:\n      pop\n      pop\n        /* \"contracts/FutarchyBatchExecutorV2.sol\":421:5518  contract FutarchyBatchExecutorV2 {... */\n      mload(0x40)\n      swap1\n      dup2\n      mstore\n      0x01\n      swap4\n      sub(shl(0xa0, 0x01), 0x01)\n      and\n      swap1\n        /* \"contracts/FutarchyBatchExecutorV2.sol\":4955:4990  ApprovalSet(token, spender, amount) */\n      0x831618689250168d97439719454d49da08400cc172d64eac411c802f0e282309\n      swap1\n        /* \"contracts/FutarchyBatchExecutorV2.sol\":4639:4707  abi.encodeWithSignature(\"approve(address,uint256)\", spender, amount) */\n      0x20\n      swap1\n        /* \"contracts/FutarchyBatchExecutorV2.sol\":4955:4990  ApprovalSet(token, spender, amount) */\n      log3\n        /* \"contracts/FutarchyBatchExecutorV2.sol\":4265:4338  if (tokens[i] != address(0)) _approve(tokens[i], spenders[i], amounts[i]) */\n      swap1\n      pop\n      jump(tag_134)\n        /* \"contracts/FutarchyBatchExecutorV2.sol\":4805:4940  if (data.length > 0) {... */\n    tag_144:\n        /* \"contracts/FutarchyBatchExecutorV2.sol\":4856:4880  abi.decode(data, (bool)) */\n      dup2\n        /* \"contracts/FutarchyBatchExecutorV2.sol\":4639:4707  abi.encodeWithSignature(\"approve(address,uint256)\", spender, amount) */\n      0x20\n        /* \"contracts/FutarchyBatchExecutorV2.sol\":4856:4880  abi.decode(data, (bool)) */\n      swap2\n      dup2\n      add\n        /* \"contracts/FutarchyBatchExecutorV2.sol\":421:5518  contract FutarchyBatchExecutorV2 {... */\n      sub\n      slt\n      tag_72\n      jumpi\n        /* \"contracts/FutarchyBatchExecutorV2.sol\":4639:4707  abi.encodeWithSignature(\"approve(address,uint256)\", spender, amount) */\n      0x20\n        /* \"contracts/FutarchyBatchExecutorV2.sol\":4856:4880  abi.decode(data, (bool)) */\n      add\n        /* \"contracts/FutarchyBatchExecutorV2.sol\":421:5518  contract FutarchyBatchExecutorV2 {... */\n      mload\n      dup1\n      iszero\n      swap1\n      dup2\n      iszero\n      sub\n      tag_72\n      jumpi\n        /* \"contracts/FutarchyBatchExecutorV2.sol\":4894:4929  if (!approved) revert CallFailed(0) */\n      tag_77\n      jumpi\n        /* \"contracts/FutarchyBatchExecutorV2.sol\":4805:4940  if (data.length > 0) {... */\n      dup6\n      dup1\n      jump(tag_145)\n        /* \"contracts/FutarchyBatchExecutorV2.sol\":421:5518  contract FutarchyBatchExecutorV2 {... */\n    tag_137:\n      mstore(0x00, shl(0xe0, 0x4e487b71))\n      mstore(0x04, 0x32)\n      revert(0x00, 0x24)\n    tag_17:\n      tag_152\n      calldatasize\n      tag_1\n      jump\t// in\n    tag_152:\n        /* \"contracts/FutarchyBatchExecutorV2.sol\":836:840  this */\n      swap2\n      swap1\n      address\n        /* \"contracts/FutarchyBatchExecutorV2.sol\":814:824  msg.sender */\n      caller\n        /* \"contracts/FutarchyBatchExecutorV2.sol\":814:841  msg.sender != address(this) */\n      sub\n        /* \"contracts/FutarchyBatchExecutorV2.sol\":810:860  if (msg.sender != address(this)) revert OnlySelf() */\n      tag_33\n      jumpi\n        /* \"contracts/FutarchyBatchExecutorV2.sol\":1448:1450  20 */\n      0x14\n        /* \"contracts/FutarchyBatchExecutorV2.sol\":1440:1450  count > 20 */\n      dup5\n      gt\n        /* \"contracts/FutarchyBatchExecutorV2.sol\":1436:1473  if (count > 20) revert InvalidCount() */\n      tag_35\n      jumpi\n        /* \"contracts/FutarchyBatchExecutorV2.sol\":421:5518  contract FutarchyBatchExecutorV2 {... */\n      0x00\n        /* \"contracts/FutarchyBatchExecutorV2.sol\":1504:1513  i < count */\n    tag_157:\n      dup5\n      dup2\n      lt\n      tag_158\n      jumpi\n        /* \"contracts/FutarchyBatchExecutorV2.sol\":1853:1873  BatchExecuted(count) */\n      0xe9cc9bbe7de1cbb097a6357ca3182909488efe8d793e25665befc064a02d10a7\n        /* \"contracts/FutarchyBatchExecutorV2.sol\":421:5518  contract FutarchyBatchExecutorV2 {... */\n      0x20\n      dup7\n      mload(0x40)\n      swap1\n      dup2\n      mstore\n        /* \"contracts/FutarchyBatchExecutorV2.sol\":1853:1873  BatchExecuted(count) */\n      log1\n        /* \"contracts/FutarchyBatchExecutorV2.sol\":421:5518  contract FutarchyBatchExecutorV2 {... */\n      stop\n        /* \"contracts/FutarchyBatchExecutorV2.sol\":1489:1502  uint256 i = 0 */\n    tag_158:\n      sub(shl(0xa0, 0x01), 0x01)\n        /* \"contracts/FutarchyBatchExecutorV2.sol\":1534:1544  targets[i] */\n      tag_160\n      tag_48\n      dup4\n      dup7\n      tag_3\n      jump\t// in\n    tag_160:\n        /* \"contracts/FutarchyBatchExecutorV2.sol\":421:5518  contract FutarchyBatchExecutorV2 {... */\n      and\n        /* \"contracts/FutarchyBatchExecutorV2.sol\":1530:1769  if (targets[i] != address(0)) {... */\n      tag_162\n      jumpi\n        /* \"contracts/FutarchyBatchExecutorV2.sol\":1489:1502  uint256 i = 0 */\n    tag_163:\n        /* \"contracts/FutarchyBatchExecutorV2.sol\":421:5518  contract FutarchyBatchExecutorV2 {... */\n      0x01\n      add\n        /* \"contracts/FutarchyBatchExecutorV2.sol\":1489:1502  uint256 i = 0 */\n      jump(tag_157)\n        /* \"contracts/FutarchyBatchExecutorV2.sol\":1530:1769  if (targets[i] != address(0)) {... */\n    tag_162:\n        /* \"contracts/FutarchyBatchExecutorV2.sol\":421:5518  contract FutarchyBatchExecutorV2 {... */\n      0x00\n        /* \"contracts/FutarchyBatchExecutorV2.sol\":1596:1606  targets[i] */\n      dup1\n      tag_164\n      tag_48\n      dup5\n      dup8\n      tag_3\n      jump\t// in\n    tag_164:\n        /* \"contracts/FutarchyBatchExecutorV2.sol\":1619:1628  values[i] */\n      tag_166\n      dup5\n      dup7\n      tag_3\n      jump\t// in\n    tag_166:\n        /* \"contracts/FutarchyBatchExecutorV2.sol\":421:5518  contract FutarchyBatchExecutorV2 {... */\n      calldataload\n        /* \"contracts/FutarchyBatchExecutorV2.sol\":1630:1642  calldatas[i] */\n      tag_167\n      dup6\n      dup10\n      tag_6\n      jump\t// in\n    tag_167:\n        /* \"contracts/FutarchyBatchExecutorV2.sol\":421:5518  contract FutarchyBatchExecutorV2 {... */\n      swap2\n      swap1\n      dup3\n      mload(0x40)\n      swap4\n      dup5\n      swap3\n      dup4\n      calldatacopy\n      dup2\n      add\n      dup6\n      dup2\n      mstore\n        /* \"contracts/FutarchyBatchExecutorV2.sol\":1596:1643  targets[i].call{value: values[i]}(calldatas[i]) */\n      sub\n      swap3\n      gas\n      call\n      tag_168\n      tag_8\n      jump\t// in\n    tag_168:\n      pop\n        /* \"contracts/FutarchyBatchExecutorV2.sol\":1665:1673  !success */\n      dup1\n      iszero\n        /* \"contracts/FutarchyBatchExecutorV2.sol\":1661:1695  if (!success) revert CallFailed(i) */\n      tag_169\n      jumpi\n        /* \"contracts/FutarchyBatchExecutorV2.sol\":1734:1744  targets[i] */\n      swap1\n      mload(0x00)\n      codecopy(0x00, data_acb246042b17879f7126bdd612d9a36421fdd11dd3314cdb9c52e06772ba10cc, 0x20)\n      mload(0x00)\n      swap1\n      0x00\n      mstore\n        /* \"contracts/FutarchyBatchExecutorV2.sol\":421:5518  contract FutarchyBatchExecutorV2 {... */\n      0x01\n        /* \"contracts/FutarchyBatchExecutorV2.sol\":1734:1744  targets[i] */\n      swap3\n      tag_171\n      tag_48\n      dup5\n      dup9\n      tag_3\n      jump\t// in\n    tag_171:\n        /* \"contracts/FutarchyBatchExecutorV2.sol\":421:5518  contract FutarchyBatchExecutorV2 {... */\n      0x40\n      dup1\n      mload\n      dup6\n      dup2\n      mstore\n      sub(shl(0xa0, 0x01), 0x01)\n      swap3\n      swap1\n      swap3\n      and\n      0x20\n      dup4\n      add\n      mstore\n      swap2\n      iszero\n      iszero\n      swap2\n      dup2\n      add\n      swap2\n      swap1\n      swap2\n      mstore\n      0x60\n      swap1\n        /* \"contracts/FutarchyBatchExecutorV2.sol\":1718:1754  CallExecuted(i, targets[i], success) */\n      log1\n        /* \"contracts/FutarchyBatchExecutorV2.sol\":1530:1769  if (targets[i] != address(0)) {... */\n      swap1\n      pop\n      jump(tag_163)\n        /* \"contracts/FutarchyBatchExecutorV2.sol\":1661:1695  if (!success) revert CallFailed(i) */\n    tag_169:\n        /* \"contracts/FutarchyBatchExecutorV2.sol\":1682:1695  CallFailed(i) */\n      pop\n      shl(0xe3, 0x07f34769)\n        /* \"contracts/FutarchyBatchExecutorV2.sol\":421:5518  contract FutarchyBatchExecutorV2 {... */\n      0x00\n        /* \"contracts/FutarchyBatchExecutorV2.sol\":1682:1695  CallFailed(i) */\n      mstore\n        /* \"contracts/FutarchyBatchExecutorV2.sol\":421:5518  contract FutarchyBatchExecutorV2 {... */\n      0x04\n      mstore\n      0x24\n      0x00\n        /* \"contracts/FutarchyBatchExecutorV2.sol\":1682:1695  CallFailed(i) */\n      revert\n        /* \"contracts/FutarchyBatchExecutorV2.sol\":421:5518  contract FutarchyBatchExecutorV2 {... */\n    tag_1:\n      swap1\n      0x0540\n      not(0x03)\n      dup4\n      add\n      slt\n      tag_72\n      jumpi\n      calldataload(0x04)\n      swap2\n      dup1\n      0x02a4\n      gt\n      tag_72\n      jumpi\n      0x24\n      swap2\n      dup2\n      0x0524\n      gt\n      tag_72\n      jumpi\n      0x02a4\n      swap2\n      calldataload(0x0524)\n      swap1\n      0xffffffffffffffff\n      dup3\n      gt\n      tag_72\n      jumpi\n      0x0284\n      dup3\n      add\n      gt\n      tag_72\n      jumpi\n      0x04\n      add\n      swap1\n      jump\t// out\n    tag_2:\n      dup1\n      mload\n      dup1\n      dup4\n      mstore\n      0x20\n      swap3\n      swap2\n      dup2\n      swap1\n      dup5\n      add\n      dup5\n      dup5\n      add\n      mcopy\n      0x00\n      dup3\n      dup3\n      add\n      dup5\n      add\n      mstore\n      0x1f\n      add\n      not(0x1f)\n      and\n      add\n      add\n      swap1\n      jump\t// out\n    tag_3:\n      swap1\n      0x14\n      dup2\n      lt\n      iszero\n      tag_137\n      jumpi\n      0x05\n      shl\n      add\n      swap1\n      jump\t// out\n    tag_4:\n      calldataload\n      sub(shl(0xa0, 0x01), 0x01)\n      dup2\n      and\n      dup2\n      sub\n      tag_72\n      jumpi\n      swap1\n      jump\t// out\n    tag_5:\n      swap1\n      calldataload\n      swap1\n      not(0x1e)\n      dup2\n      calldatasize\n      sub\n      add\n      dup3\n      slt\n      iszero\n      tag_72\n      jumpi\n      add\n      dup1\n      calldataload\n      swap1\n      0xffffffffffffffff\n      dup3\n      gt\n      tag_72\n      jumpi\n      0x20\n      add\n      swap2\n      dup2\n      calldatasize\n      sub\n      dup4\n      sgt\n      tag_72\n      jumpi\n      jump\t// out\n    tag_6:\n      0x14\n      dup3\n      lt\n      iszero\n      tag_137\n      jumpi\n      tag_196\n      swap2\n      0x05\n      shl\n      dup2\n      add\n      swap1\n      tag_5\n      jump\t// in\n    tag_196:\n      swap1\n      swap2\n      jump\t// out\n    tag_7:\n      swap1\n      0x1f\n      dup1\n      not\n      swap2\n      add\n      and\n      dup2\n      add\n      swap1\n      dup2\n      lt\n      0xffffffffffffffff\n      dup3\n      gt\n      or\n      tag_197\n      jumpi\n      0x40\n      mstore\n      jump\t// out\n    tag_197:\n      mstore(0x00, shl(0xe0, 0x4e487b71))\n      mstore(0x04, 0x41)\n      revert(0x00, 0x24)\n    tag_8:\n      jumpi(tag_199, iszero(returndatasize))\n      returndatasize\n      swap1\n      0xffffffffffffffff\n      dup3\n      gt\n      tag_197\n      jumpi\n      mload(0x40)\n      swap2\n      tag_203\n      0x1f\n      dup3\n      add\n      not(0x1f)\n      and\n      0x20\n      add\n      dup5\n      tag_7\n      jump\t// in\n    tag_203:\n      dup3\n      mstore\n      returndatasize\n      0x00\n      0x20\n      dup5\n      add\n      returndatacopy\n      jump\t// out\n    tag_199:\n      0x60\n      swap1\n      jump\t// out\n    tag_10:\n      0x05\n      dup2\n      lt\n      iszero\n      tag_137\n      jumpi\n      0x05\n      shl\n      0x04\n      add\n      swap1\n      jump\t// out\n    tag_11:\n      0x0b\n      dup2\n      lt\n      iszero\n      tag_137\n      jumpi\n      0x05\n      shl\n      0x04\n      add\n      swap1\n      jump\t// out\n    tag_12:\n      swap1\n      0x0b\n      dup2\n      lt\n      iszero\n      tag_137\n      jumpi\n      0x05\n      shl\n      add\n      swap1\n      jump\t// out\n    stop\n    data_acb246042b17879f7126bdd612d9a36421fdd11dd3314cdb9c52e06772ba10cc 693669f5983b7a66f77192b45fa2d8c5f42f2696513ef1972bc5092a478e1705\n\n    auxdata: 0xa264697066735822122010e9c749bf7f3c1cc25bb03cf3b701a230cf37de4e4d798a633613759f5061d364736f6c63430008210033\n}\n","methodIdentifiers":{"execute20(uint256,address[20],uint256[20],bytes[20])":"47981b75","execute20WithResults(uint256,address[20],uint256[20],bytes[20])":"d734c97d","executeBuyConditional(address[11],uint256[11],bytes[11])":"5b17f3c6","executeOne(address,uint256,bytes)":"8dc01bdb","setApprovals(address[5],address[5],uint256[5],uint256)":"5527000c"},"id":8}