{
  "abi": [
    {
      "type": "receive",
      "stateMutability": "payable"
    },
    {
      "type": "function",
      "name": "execute20",
      "inputs": [
        {
          "name": "count",
          "type": "uint256",
          "internalType": "uint256"
        },
        {
          "name": "targets",
          "type": "address[20]",
          "internalType": "address[20]"
        },
        {
          "name": "values",
          "type": "uint256[20]",
          "internalType": "uint256[20]"
        },
        {
          "name": "calldatas",
          "type": "bytes[20]",
          "internalType": "bytes[20]"
        }
      ],
      "outputs": [],
      "stateMutability": "payable"
    },
    {
      "type": "function",
      "name": "execute20WithResults",
      "inputs": [
        {
          "name": "count",
          "type": "uint256",
          "internalType": "uint256"
        },
        {
          "name": "targets",
          "type": "address[20]",
          "internalType": "address[20]"
        },
        {
          "name": "values",
          "type": "uint256[20]",
          "internalType": "uint256[20]"
        },
        {
          "name": "calldatas",
          "type": "bytes[20]",
          "internalType": "bytes[20]"
        }
      ],
      "outputs": [
        {
          "name": "success",
          "type": "bool[20]",
          "internalType": "bool[20]"
        },
        {
          "name": "results",
          "type": "bytes[20]",
          "internalType": "bytes[20]"
        }
      ],
      "stateMutability": "payable"
    },
    {
      "type": "function",
      "name": "executeBuyConditional",
      "inputs": [
        {
          "name": "targets",
          "type": "address[11]",
          "internalType": "address[11]"
        },
        {
          "name": "values",
          "type": "uint256[11]",
          "internalType": "uint256[11]"
        },
        {
          "name": "calldatas",
          "type": "bytes[11]",
          "internalType": "bytes[11]"
        }
      ],
      "outputs": [
        {
          "name": "results",
          "type": "bytes[11]",
          "internalType": "bytes[11]"
        }
      ],
      "stateMutability": "payable"
    },
    {
      "type": "function",
      "name": "executeOne",
      "inputs": [
        {
          "name": "target",
          "type": "address",
          "internalType": "address"
        },
        {
          "name": "value",
          "type": "uint256",
          "internalType": "uint256"
        },
        {
          "name": "data",
          "type": "bytes",
          "internalType": "bytes"
        }
      ],
      "outputs": [
        {
          "name": "",
          "type": "bytes",
          "internalType": "bytes"
        }
      ],
      "stateMutability": "payable"
    },
    {
      "type": "function",
      "name": "setApprovals",
      "inputs": [
        {
          "name": "tokens",
          "type": "address[5]",
          "internalType": "address[5]"
        },
        {
          "name": "spenders",
          "type": "address[5]",
          "internalType": "address[5]"
        },
        {
          "name": "amounts",
          "type": "uint256[5]",
          "internalType": "uint256[5]"
        },
        {
          "name": "count",
          "type": "uint256",
          "internalType": "uint256"
        }
      ],
      "outputs": [],
      "stateMutability": "nonpayable"
    },
    {
      "type": "event",
      "name": "ApprovalSet",
      "inputs": [
        {
          "name": "token",
          "type": "address",
          "indexed": true,
          "internalType": "address"
        },
        {
          "name": "spender",
          "type": "address",
          "indexed": true,
          "internalType": "address"
        },
        {
          "name": "amount",
          "type": "uint256",
          "indexed": false,
          "internalType": "uint256"
        }
      ],
      "anonymous": false
    },
    {
      "type": "event",
      "name": "BatchExecuted",
      "inputs": [
        {
          "name": "callsExecuted",
          "type": "uint256",
          "indexed": false,
          "internalType": "uint256"
        }
      ],
      "anonymous": false
    },
    {
      "type": "event",
      "name": "CallExecuted",
      "inputs": [
        {
          "name": "index",
          "type": "uint256",
          "indexed": false,
          "internalType": "uint256"
        },
        {
          "name": "target",
          "type": "address",
          "indexed": false,
          "internalType": "address"
        },
        {
          "name": "success",
          "type": "bool",
          "indexed": false,
          "internalType": "bool"
        }
      ],
      "anonymous": false
    },
    {
      "type": "error",
      "name": "CallFailed",
      "inputs": [
        {
          "name": "index",
          "type": "uint256",
          "internalType": "uint256"
        }
      ]
    },
    {
      "type": "error",
      "name": "InvalidCount",
      "inputs": []
    },
    {
      "type": "error",
      "name": "OnlySelf",
      "inputs": []
    }
  ],
  "bytecode": {
    "object": "0x6080806040523460155761096f908161001a8239f35b5f80fdfe6080604052600436101561001a575b3615610018575f80fd5b005b5f3560e01c806347981b751461066f5780635527000c146105075780635b17f3c61461034c5780638dc01bdb146102615763d734c97d0361000e5761005e36610788565b90926102809360405192610072868561086f565b8536853760405194610084878761086f565b5f5b87811061025357503033036102445760148411610235575f969594965b84811061015c575050505060207fe9cc9bbe7de1cbb097a6357ca3182909488efe8d793e25665befc064a02d10a791604051908152a16040519283926102a08401915f855b60148210610140575050506102a090840152610520830191905f5b60148110610112575050500390f35b9193509160208061013060019361029f1989820301875287516107d7565b9501930191019084939291610103565b82511515815287965060209283019260019290920191016100e8565b959694956001906001600160a01b0361017d61017883866107fb565b61080c565b1661018d575b01969594966100a3565b5f8061019c61017884876107fb565b6101a684896107fb565b356101b18589610853565b9190826040519384928337810185815203925af16101cd6108a5565b6101d7838b6107fb565b526101e282896107fb565b90151590525f51602061091a5f395f51905f5261020261017883866107fb565b61020c838a6107fb565b51604080518581526001600160a01b0393909316602084015290151590820152606090a1610183565b631a49577b60e11b5f5260045ffd5b63029a949d60e31b5f5260045ffd5b606087820152602001610086565b6060366003190112610348576004356001600160a01b038116908181036103485760443567ffffffffffffffff811161034857366023820112156103485780600401359167ffffffffffffffff8311610348573660248484010111610348573033036102445760245f939283859460405193849301833781018481520391602435905af16102ed6108a5565b901591826103355760605f51602061091a5f395f51905f529161033194604051915f83526020830152156040820152a16040519182916020835260208301906107d7565b0390f35b6307f3476960e31b5f525f60045260245ffd5b5f80fd5b6102e036600319011261034857366101641161034857366102c411610348576102c43567ffffffffffffffff811161034857806004019036610164820111610348576040519061016061039f818461086f565b5f5b8181106104f9575050303303610244575f5b600b81101561047b575f806103ca610178846108f6565b8360051b906103e3600483610164019388010189610820565b91908260405193849283378101858152039235905af16104016108a5565b81156104685782915f51602061091a5f395f51905f529161042460019588610908565b5261042f8387610908565b5061043c610178846108f6565b604080518581526001600160a01b0392909216602083015291151591810191909152606090a1016103b3565b826307f3476960e31b5f5260045260245ffd5b827fe9cc9bbe7de1cbb097a6357ca3182909488efe8d793e25665befc064a02d10a76020604051600b8152a160405180916020820160208352610180830191905f5b600b81106104cc575050500390f35b919350916020806104e9600193601f1989820301875287516107d7565b95019301910190849392916104bd565b6060848201526020016103a1565b3461034857610200366003190112610348573660a41161034857366101441161034857366101e411610348576101e4353033036102445760058111610235575f5b81811061055157005b6001600160a01b03610565610178836108e4565b16610573575b600101610548565b61057f610178826108e4565b90600581101561065b578060051b6105998160a40161080c565b9061014401355f8060405193602085019063095ea7b360e01b825260018060a01b031694856024820152846044820152604481526105d860648261086f565b519082885af16105e66108a5565b901561033557805180610636575b50506040519081526001936001600160a01b0316907f831618689250168d97439719454d49da08400cc172d64eac411c802f0e28230990602090a3905061056b565b81602091810103126103485760200151801590811503610348576103355785806105f4565b634e487b7160e01b5f52603260045260245ffd5b61067836610788565b91903033036102445760148411610235575f5b8481106106bf577fe9cc9bbe7de1cbb097a6357ca3182909488efe8d793e25665befc064a02d10a7602086604051908152a1005b6001600160a01b036106d461017883866107fb565b166106e2575b60010161068b565b5f806106f161017884876107fb565b6106fb84866107fb565b356107068589610853565b9190826040519384928337810185815203925af16107226108a5565b50801561077557905f51602061091a5f395f51905f5260019261074861017884886107fb565b604080518581526001600160a01b0392909216602083015291151591810191909152606090a190506106da565b506307f3476960e31b5f5260045260245ffd5b906105406003198301126103485760043591806102a411610348576024918161052411610348576102a491610524359067ffffffffffffffff8211610348576102848201116103485760040190565b805180835260209291819084018484015e5f828201840152601f01601f1916010190565b90601481101561065b5760051b0190565b356001600160a01b03811681036103485790565b903590601e1981360301821215610348570180359067ffffffffffffffff82116103485760200191813603831361034857565b601482101561065b5761086b9160051b810190610820565b9091565b90601f8019910116810190811067ffffffffffffffff82111761089157604052565b634e487b7160e01b5f52604160045260245ffd5b3d156108df573d9067ffffffffffffffff821161089157604051916108d4601f8201601f19166020018461086f565b82523d5f602084013e565b606090565b600581101561065b5760051b60040190565b600b81101561065b5760051b60040190565b90600b81101561065b5760051b019056fe693669f5983b7a66f77192b45fa2d8c5f42f2696513ef1972bc5092a478e1705a264697066735822122010e9c749bf7f3c1cc25bb03cf3b701a230cf37de4e4d798a633613759f5061d364736f6c63430008210033",
    "linkReferences": {}
  },
  "methodIdentifiers": {
    "execute20(uint256,address[20],uint256[20],bytes[20])": "47981b75",
    "execute20WithResults(uint256,address[20],uint256[20],bytes[20])": "d734c97d",
    "executeBuyConditional(address[11],uint256[11],bytes[11])": "5b17f3c6",
    "executeOne(address,uint256,bytes)": "8dc01bdb",
    "setApprovals(address[5],address[5],uint256[5],uint256)": "5527000c"
  },
  "id": 8
}