{"abi":[{"type":"constructor","inputs":[],"stateMutability":"nonpayable"},{"type":"receive","stateMutability":"payable"},{"type":"function","name":"buyPnkWithSdai","inputs":[{"name":"amountSdaiIn","type":"uint256","internalType":"uint256"},{"name":"minWethOut","type":"uint256","internalType":"uint256"},{"name":"minPnkOut","type":"uint256","internalType":"uint256"}],"outputs":[],"stateMutability":"nonpayable"},{"type":"function","name":"buy_conditional_arbitrage_balancer","inputs":[{"name":"sell_company_ops","type":"bytes","internalType":"bytes"},{"name":"balancer_router","type":"address","internalType":"address"},{"name":"balancer_vault","type":"address","internalType":"address"},{"name":"comp","type":"address","internalType":"address"},{"name":"cur","type":"address","internalType":"address"},{"name":"yes_has_higher_price","type":"bool","internalType":"bool"},{"name":"futarchy_router","type":"address","internalType":"address"},{"name":"proposal","type":"address","internalType":"address"},{"name":"yes_comp","type":"address","internalType":"address"},{"name":"no_comp","type":"address","internalType":"address"},{"name":"yes_cur","type":"address","internalType":"address"},{"name":"no_cur","type":"address","internalType":"address"},{"name":"yes_pool","type":"address","internalType":"address"},{"name":"no_pool","type":"address","internalType":"address"},{"name":"swapr_router","type":"address","internalType":"address"},{"name":"amount_sdai_in","type":"uint256","internalType":"uint256"},{"name":"min_out_final","type":"int256","internalType":"int256"}],"outputs":[],"stateMutability":"nonpayable"},{"type":"function","name":"buy_conditional_arbitrage_pnk","inputs":[{"name":"comp","type":"address","internalType":"address"},{"name":"cur","type":"address","internalType":"address"},{"name":"yes_has_higher_price","type":"bool","internalType":"bool"},{"name":"futarchy_router","type":"address","internalType":"address"},{"name":"proposal","type":"address","internalType":"address"},{"name":"yes_comp","type":"address","internalType":"address"},{"name":"no_comp","type":"address","internalType":"address"},{"name":"yes_cur","type":"address","internalType":"address"},{"name":"no_cur","type":"address","internalType":"address"},{"name":"yes_pool","type":"address","internalType":"address"},{"name":"no_pool","type":"address","internalType":"address"},{"name":"swapr_router","type":"address","internalType":"address"},{"name":"amount_sdai_in","type":"uint256","internalType":"uint256"},{"name":"min_out_final","type":"int256","internalType":"int256"}],"outputs":[],"stateMutability":"nonpayable"},{"type":"function","name":"owner","inputs":[],"outputs":[{"name":"","type":"address","internalType":"address"}],"stateMutability":"view"},{"type":"function","name":"sellPnkForSdai","inputs":[{"name":"amountPnkIn","type":"uint256","internalType":"uint256"},{"name":"minWethOut","type":"uint256","internalType":"uint256"},{"name":"minSdaiOut","type":"uint256","internalType":"uint256"}],"outputs":[],"stateMutability":"nonpayable"},{"type":"function","name":"sell_conditional_arbitrage_balancer","inputs":[{"name":"buy_company_ops","type":"bytes","internalType":"bytes"},{"name":"balancer_router","type":"address","internalType":"address"},{"name":"balancer_vault","type":"address","internalType":"address"},{"name":"comp","type":"address","internalType":"address"},{"name":"cur","type":"address","internalType":"address"},{"name":"futarchy_router","type":"address","internalType":"address"},{"name":"proposal","type":"address","internalType":"address"},{"name":"yes_comp","type":"address","internalType":"address"},{"name":"no_comp","type":"address","internalType":"address"},{"name":"yes_cur","type":"address","internalType":"address"},{"name":"no_cur","type":"address","internalType":"address"},{"name":"swapr_router","type":"address","internalType":"address"},{"name":"amount_sdai_in","type":"uint256","internalType":"uint256"},{"name":"min_out_final","type":"int256","internalType":"int256"}],"outputs":[],"stateMutability":"nonpayable"},{"type":"function","name":"sell_conditional_arbitrage_pnk","inputs":[{"name":"buy_company_ops","type":"bytes","internalType":"bytes"},{"name":"balancer_router","type":"address","internalType":"address"},{"name":"balancer_vault","type":"address","internalType":"address"},{"name":"comp","type":"address","internalType":"address"},{"name":"cur","type":"address","internalType":"address"},{"name":"futarchy_router","type":"address","internalType":"address"},{"name":"proposal","type":"address","internalType":"address"},{"name":"yes_comp","type":"address","internalType":"address"},{"name":"no_comp","type":"address","internalType":"address"},{"name":"yes_cur","type":"address","internalType":"address"},{"name":"no_cur","type":"address","internalType":"address"},{"name":"swapr_router","type":"address","internalType":"address"},{"name":"amount_sdai_in","type":"uint256","internalType":"uint256"},{"name":"min_out_final","type":"int256","internalType":"int256"}],"outputs":[],"stateMutability":"nonpayable"},{"type":"function","name":"sweepToken","inputs":[{"name":"token","type":"address","internalType":"contract IERC20"},{"name":"to","type":"address","internalType":"address"}],"outputs":[],"stateMutability":"nonpayable"},{"type":"function","name":"transferOwnership","inputs":[{"name":"newOwner","type":"address","internalType":"address"}],"outputs":[],"stateMutability":"nonpayable"},{"type":"function","name":"withdrawETH","inputs":[{"name":"to","type":"address","internalType":"address payable"},{"name":"amount","type":"uint256","internalType":"uint256"}],"outputs":[],"stateMutability":"nonpayable"},{"type":"function","name":"withdrawToken","inputs":[{"name":"token","type":"address","internalType":"contract IERC20"},{"name":"to","type":"address","internalType":"address"},{"name":"amount","type":"uint256","internalType":"uint256"}],"outputs":[],"stateMutability":"nonpayable"},{"type":"event","name":"BalancerBuyExecuted","inputs":[{"name":"router","type":"address","indexed":true,"internalType":"address"},{"name":"buyOps","type":"bytes","indexed":false,"internalType":"bytes"}],"anonymous":false},{"type":"event","name":"BalancerSellExecuted","inputs":[{"name":"router","type":"address","indexed":true,"internalType":"address"},{"name":"sellOps","type":"bytes","indexed":false,"internalType":"bytes"}],"anonymous":false},{"type":"event","name":"CompositeAcquired","inputs":[{"name":"comp","type":"address","indexed":true,"internalType":"address"},{"name":"amount","type":"uint256","indexed":false,"internalType":"uint256"}],"anonymous":false},{"type":"event","name":"CompositeSplitAttempted","inputs":[{"name":"comp","type":"address","indexed":true,"internalType":"address"},{"name":"amount","type":"uint256","indexed":false,"internalType":"uint256"},{"name":"ok","type":"bool","indexed":false,"internalType":"bool"}],"anonymous":false},{"type":"event","name":"ConditionalCollateralMerged","inputs":[{"name":"router","type":"address","indexed":true,"internalType":"address"},{"name":"proposal","type":"address","indexed":true,"internalType":"address"},{"name":"collateral","type":"address","indexed":true,"internalType":"address"},{"name":"amount","type":"uint256","indexed":false,"internalType":"uint256"}],"anonymous":false},{"type":"event","name":"ConditionalCollateralSplit","inputs":[{"name":"router","type":"address","indexed":true,"internalType":"address"},{"name":"proposal","type":"address","indexed":true,"internalType":"address"},{"name":"collateral","type":"address","indexed":true,"internalType":"address"},{"name":"amount","type":"uint256","indexed":false,"internalType":"uint256"}],"anonymous":false},{"type":"event","name":"InitialCollateralSnapshot","inputs":[{"name":"collateral","type":"address","indexed":true,"internalType":"address"},{"name":"balance","type":"uint256","indexed":false,"internalType":"uint256"}],"anonymous":false},{"type":"event","name":"MaxAllowanceEnsured","inputs":[{"name":"token","type":"address","indexed":true,"internalType":"address"},{"name":"spender","type":"address","indexed":true,"internalType":"address"},{"name":"allowance","type":"uint256","indexed":false,"internalType":"uint256"}],"anonymous":false},{"type":"event","name":"OwnershipTransferred","inputs":[{"name":"previousOwner","type":"address","indexed":true,"internalType":"address"},{"name":"newOwner","type":"address","indexed":true,"internalType":"address"}],"anonymous":false},{"type":"event","name":"Permit2AllowanceEnsured","inputs":[{"name":"token","type":"address","indexed":true,"internalType":"address"},{"name":"spender","type":"address","indexed":true,"internalType":"address"},{"name":"amount","type":"uint160","indexed":false,"internalType":"uint160"},{"name":"expiration","type":"uint48","indexed":false,"internalType":"uint48"}],"anonymous":false},{"type":"event","name":"ProfitVerified","inputs":[{"name":"initialBalance","type":"uint256","indexed":false,"internalType":"uint256"},{"name":"finalBalance","type":"uint256","indexed":false,"internalType":"uint256"},{"name":"minProfit","type":"int256","indexed":false,"internalType":"int256"}],"anonymous":false},{"type":"event","name":"SwaprExactInExecuted","inputs":[{"name":"router","type":"address","indexed":true,"internalType":"address"},{"name":"tokenIn","type":"address","indexed":true,"internalType":"address"},{"name":"tokenOut","type":"address","indexed":true,"internalType":"address"},{"name":"amountIn","type":"uint256","indexed":false,"internalType":"uint256"},{"name":"amountOut","type":"uint256","indexed":false,"internalType":"uint256"}],"anonymous":false},{"type":"event","name":"SwaprExactOutExecuted","inputs":[{"name":"router","type":"address","indexed":true,"internalType":"address"},{"name":"tokenIn","type":"address","indexed":true,"internalType":"address"},{"name":"tokenOut","type":"address","indexed":true,"internalType":"address"},{"name":"amountOut","type":"uint256","indexed":false,"internalType":"uint256"},{"name":"amountIn","type":"uint256","indexed":false,"internalType":"uint256"}],"anonymous":false},{"type":"error","name":"ApproveFailed","inputs":[]},{"type":"error","name":"ApproveResetFailed","inputs":[]},{"type":"error","name":"ApproveSetFailed","inputs":[]},{"type":"error","name":"BalanceTooLarge","inputs":[]},{"type":"error","name":"BalancerSwapFailed","inputs":[]},{"type":"error","name":"CompositeSplitFailed","inputs":[]},{"type":"error","name":"EthSendFailed","inputs":[]},{"type":"error","name":"InsufficientBalance","inputs":[]},{"type":"error","name":"InsufficientOutput","inputs":[]},{"type":"error","name":"InvalidComp","inputs":[]},{"type":"error","name":"InvalidPaths","inputs":[]},{"type":"error","name":"MinProfitNotMet","inputs":[]},{"type":"error","name":"NoBalance","inputs":[]},{"type":"error","name":"NotOwner","inputs":[]},{"type":"error","name":"RouterOrProposalZero","inputs":[]},{"type":"error","name":"SwapReturnedZero","inputs":[]},{"type":"error","name":"TokenAddressZero","inputs":[]},{"type":"error","name":"TransferFailed","inputs":[]},{"type":"error","name":"ZeroAddress","inputs":[]},{"type":"error","name":"ZeroAmount","inputs":[]}],"bytecode":{"object":"0x60808060405234604d575f80546001600160a01b031916339081178255907f8be0079c531659141344cd1fd0a4f28419497f9722a3daafe3b4186f6b6457e08180a361561890816100528239f35b5f80fdfe61014080604052600436101561001d575b50361561001b575f80fd5b005b5f610100525f3560e01c90816301e33667146135c457508063258836fe146134875780634782f779146134115780638da5cb5b146133ea578063ce12e70d146130a5578063d4b21c33146128d9578063de309fc314611a78578063de57a0ae14611252578063e7610d68146106c9578063ea9f3f09146101665763f2fde38b146100a7575f610010565b3461015f57602036600319011261015f576100c0613649565b61010051546001600160a01b038116913383900361014a576001600160a01b03169182156101355782907f8be0079c531659141344cd1fd0a4f28419497f9722a3daafe3b4186f6b6457e06101005161010051a36bffffffffffffffffffffffff60a01b161761010051556101005161010051f35b63d92e233d60e01b6101005152600461010051fd5b6330cd747160e01b6101005152600461010051fd5b6101005180fd5b3461015f576101743661373d565b6101005154919290916001600160a01b0316330361014a5780156106b45761019a6145bf565b61020f606091604051906101ae84836138f4565b60028252601f1984013660208401375f5160206154e35f395f51905f526101d483613a03565b525f5160206155035f395f51905f526101ec83613a24565b52604051809381926338ed173960e01b8352610100519489309260048601613deb565b0381610100515f5160206155c35f395f51905f525af180156105f057610691575b506040516370a0823160e01b8152306004820152926020846024815f5160206155035f395f51905f525afa9384156105f057610100519461065d575b5083156105a9578015159081610653575b5061058a5761028a614800565b610292615411565b9261029b613b44565b8160011c92838303838111610639576020946040516102ba87826138f4565b610100518152604051916102cd836138d9565b7f7e5870ac540adfd01a213c829f2231c309623eb10002000000000000000000e983526002888401526001604084015284830152608082015261030f84613a03565b5261031983613a03565b5060405161032786826138f4565b6101005181526040519061033a826138d9565b7fa91c413d8516164868f6cca19573fe38f88f598200020000000000000000015782526001878301526101005160408301526101005184830152608082015261038284613a24565b5261038c83613a24565b5060405161039a86826138f4565b610100518152604051916103ad836138d9565b5f5160206155235f395f51905f528352600287840152600460408401528383015260808201526103dc83613a34565b526103e682613a34565b506040516103f485826138f4565b61010051815260405190610407826138d9565b5f5160206155635f395f51905f528252600486830152600360408301526101005183830152608082015261043a83613a44565b5261044482613a44565b5060405161045285826138f4565b61010051815260405190610465826138d9565b5f5160206155435f395f51905f5282526003868301526101005160408301526101005183830152608082015261049a83613a54565b526104a482613a54565b506104af8651613ba3565b926104b984613a34565b528415159586610621575b604051916104d1836138aa565b3083526101005186840152306040840152610100519083015261050d604051948593849363945bcec960e01b8552610100519660048601613c9a565b0381610100515f5160206155a35f395f51905f525af180156105f0576105fe575b506040516370a0823160e01b8152306004820152818160248173af204776c7245bf4147c2612bf6e5972ee4837015afa9182156105f05761010051926105be575b505080156105a9578261059f575b505061058a576101005180f35b63bb2875c360e01b6101005152600461010051fd5b109050818061057d565b636165515360e11b6101005152600461010051fd5b90809250813d83116105e9575b6105d581836138f4565b810103126105e55751838061056f565b5f80fd5b503d6105cb565b6040513d61010051823e3d90fd5b61061c903d8061010051833e61061481836138f4565b810190613be5565b61052e565b61062a86613bd5565b61063385613a03565b526104c4565b634e487b7160e01b61010051526011600452602461010051fd5b905083108461027d565b9093506020813d602011610689575b81610679602093836138f4565b810103126105e55751928461026c565b3d915061066c565b6106af903d8061010051833e6106a781836138f4565b810190613dc3565b610230565b631f2a200560e01b6101005152600461010051fd5b3461015f576106d736613784565b9d509b5095939950969190975060018060a01b03610100515416330361014a576040516370a0823160e01b81523060048201529860208a6024816001600160a01b038b165afa998a156105f057610100519a61121e575b506040518a81526001600160a01b038816907fb2f03ce105b3cd1f9fccfa1de78c921cd3ad2f01048d3a832c7ebb893fd347b990602090a28a156106b4577337b60f4e9a31a64ccc0024dce7d0fd07eaa0f7b2196001600160a01b03841601611209576001600160a01b0384161580159390846111f8575b6111e3576001600160a01b0388161580156111d2575b80156111c1575b610135576001600160a01b038a161580156111b0575b801561119f575b61118a576107ec614113565b6107f4615411565b9b6107fd613ae5565b6020809e60405161080e83826138f4565b61010051815260405190610821826138d9565b5f5160206155435f395f51905f528252610100518483015260036040830152856060830152608082015261085484613a03565b5261085e83613a03565b5060405161086c83826138f4565b6101005181526040519061087f826138d9565b5f5160206155635f395f51905f5282526003848301526004604083015261010051606083015260808201526108b384613a24565b526108bd83613a24565b506040516108cb83826138f4565b610100518152604051906108de826138d9565b5f5160206155235f395f51905f52825260048483015260026040830152610100516060830152608082015261091284613a34565b5261091c83613a34565b506109278151613ba3565b9361093185613a03565b526040519161093f836138aa565b308352610100519083015230604083015261010051606083015261097c604051948593849363945bcec960e01b8552610100519660048601613c9a565b0381610100515f5160206155a35f395f51905f525af180156105f05761116f575b506040516370a0823160e01b81523060048201528c816024815f5160206155035f395f51905f525afa9081156105f0576101005191611142575b5080156105a9576101005161058a575f610a5e918e6109f461437e565b60405190610a036060836138f4565b6002825260409036908301375f5160206155035f395f51905f52610a2682613a03565b525f5160206154e35f395f51905f52610a3e82613a24565b526040516338ed173960e01b815293849283923091869060048601613deb565b0381835f5160206155c35f395f51905f525af1801561105357611128575b506040516370a0823160e01b8152306004820152908c826024816001600160a01b0385165afa918215611053575f926110f9575b506040518281526001600160a01b038216907f7ea2559d46b5ca1045280b94e6bd226dc4c60c15c514f72d0fc10c788c80822d908f90a281156110ea578c85806110d8575b1561105e5750610b0e866001600160a01b038316614a41565b6001600160a01b0386163b156105e5576040516301abf04560e71b8152915f9183918291610b4191908b6004850161399e565b0381836001600160a01b038a165af180156110535761103e575b505b6040516370a0823160e01b81523060048201528b816024816001600160a01b0386165afa9081156105f0576101005191611011575b508981610ffe575b50506040516370a0823160e01b815230600482015290508a816024816001600160a01b0386165afa9081156105f0576101005191610fd1575b508781610fbe575b50505080610fac575b610e09575b50506040516370a0823160e01b815230600482015286816024816001600160a01b0389165afa9081156105f0576101005191610ddc575b506040516370a0823160e01b81523060048201529387856024816001600160a01b0385165afa9081156105f05788956101005192610dab575b50602496859290918415610d85575050610c7293614c2f565b505b6040516370a0823160e01b815230600482015292839182906001600160a01b03165afa9283156105f0576101005193610d55575b50506001600160ff1b0382118015610d45575b610d305782610cca82846139c0565b12610d1b57610d117f318296ace369901373a62c2153c5e87356175630ec782af9e8b7c9385f3d1e8093604051938493846040919493926060820195825260208201520152565b0390a16101005180f35b63d433008b60e01b6101005152600461010051fd5b630748aac760e11b6101005152600461010051fd5b506001600160ff1b038111610cbb565b9080929350813d8311610d7e575b610d6d81836138f4565b810103126105e55751908380610ca8565b503d610d63565b9150809350610d98575b50505050610c74565b610da193614c2f565b5086808281610d8f565b8092508691963d8311610dd5575b610dc381836138f4565b810103126105e5575187946024610c59565b503d610db9565b90508681813d8311610e02575b610df381836138f4565b810103126105e5575188610c20565b503d610de9565b6040516370a0823160e01b815230600482015288816024816001600160a01b038b165afa9081156105f0576101005191610f7f575b506040516370a0823160e01b81523060048201526001600160a01b03871691908a81602481865afa9081156105f0576101005191610f52575b5080821015610f4a5750905b81610e90575b5050610be9565b610eae908390610ea9826001600160a01b038c16614a41565b614a41565b6001600160a01b0382163b1561015f57604051637abef8d160e01b8152610100518180610ee0858a896004850161399e565b03816101005160018060a01b0388165af180156105f057610f2f575b506040519081526001600160a01b038581169381169216905f5160206155835f395f51905f52908a90a487808080610e89565b61010051610f3c916138f4565b6101005161015f578a610efc565b905090610e83565b90508a81813d8311610f78575b610f6981836138f4565b810103126105e557518c610e77565b503d610f5f565b90508881813d8311610fa5575b610f9681836138f4565b810103126105e557518a610e3e565b503d610f8c565b506001600160a01b0382161515610be4565b610fc89287614c2f565b508a8087610bdb565b90508a81813d8311610ff7575b610fe881836138f4565b810103126105e557518c610bd3565b503d610fde565b6110089288614c2f565b508b8089610b9a565b90508b81813d8311611037575b61102881836138f4565b810103126105e557518d610b92565b503d61101e565b5f611048916138f4565b5f610100528c610b5b565b6040513d5f823e3d90fd5b905f807ff8e6e0bb33e12f1f8e97919c28e4df84e2aebf737d4bf32534deb9e737f228e6936040519081019063dbceb00560e01b8252866024820152602481526110a96044826138f4565b519082855af1906110b8613948565b506040805194855291151560208501526001600160a01b031692a2610b5d565b506001600160a01b0388161515610af5565b636165515360e11b5f5260045ffd5b9091508c81813d8311611121575b61111181836138f4565b810103126105e55751908e610ab0565b503d611107565b61113b903d805f833e6106a781836138f4565b508d610a7c565b90508c81813d8311611168575b61115981836138f4565b810103126105e557518e6109d7565b503d61114f565b611185903d8061010051833e61061481836138f4565b61099d565b6381c609f760e01b6101005152600461010051fd5b506001600160a01b038716156107e0565b506001600160a01b038916156107d9565b506001600160a01b038316156107c3565b506001600160a01b038216156107bc565b6301d7265360e41b6101005152600461010051fd5b506001600160a01b038616156107a6565b6342065b5760e01b6101005152600461010051fd5b9099506020813d60201161124a575b8161123a602093836138f4565b810103126105e55751988c61072e565b3d915061122d565b3461015f576101c036600319011261015f5761126c613649565b61127461365f565b60443591821515830361015f57611289613675565b9161129261368b565b9360a4356001600160a01b038116810361015f576112ae6136a1565b956112b76136b7565b956112c06136cd565b926112c96136e4565b966112d26136fb565b996112db613712565b61010051546101a4359c919891906001600160a01b0316330361014a576040516370a0823160e01b81523060048201529a60208c6024816001600160a01b038f165afa9b8c156105f057610100519c611a44575b5061018435156106b4577337b60f4e9a31a64ccc0024dce7d0fd07eaa0f7b2196001600160a01b03861601611209576001600160a01b038716158015611a33575b6111e3576001600160a01b038b16158015611a22575b8015611a11575b610135576001600160a01b038d16158015611a00575b80156119ef575b61118a576113c1876001600160a01b038d16614a41565b6001600160a01b0387163b1561015f576040516301abf04560e71b81528b81806113f88c610100519461018435916004850161399e565b03816101005160018060a01b038d165af180156105f057888f928e908c936119ca575b5060405161018435815260249460209490936001600160a01b0393841693918216929116907f96b6cd56b43ef9bd81ea4da2f5715eb8e6d0da9999e7cf964ae2932a20e0f0fd908690a46040516370a0823160e01b815230600482015292839182906001600160a01b03165afa9081156105f0576101005191611998575b506101843511611951576040516370a0823160e01b81523060048201526020816024816001600160a01b038e165afa9081156105f0576101005191611966575b506101843511611951576114ef6114f591614dc7565b91614dc7565b9115611922575061150b61018435858d8b614c2f565b90811561190d57611523916101843591848a8c614e57565b505b6040516370a0823160e01b81523060048201526020816024816001600160a01b0388165afa9081156105f05761010051916118db575b506040516370a0823160e01b81523060048201526020816024816001600160a01b0387165afa9081156105f05761010051916118a9575b50808210156118a15750925b836117da575b5050505050506040516370a0823160e01b81523060048201526020816024815f5160206154e35f395f51905f525afa9081156105f05761010051916117a8575b5080611799575b506040516370a0823160e01b8152306004820152906020826024816001600160a01b038a165afa9182156105f0576101005192611765575b506040516370a0823160e01b8152306004820152906020826024816001600160a01b0385165afa9182156105f0576101005192611728575b506024966020959493928592841561170257505061167893614c2f565b505b6040516370a0823160e01b815230600482015293849182906001600160a01b03165afa9182156105f05761010051926116ce575b506001600160ff1b0382118015610d4557610d305782610cca82846139c0565b9091506020813d6020116116fa575b816116ea602093836138f4565b810103126105e5575190836116ae565b3d91506116dd565b9150809350611715575b5050505061167a565b61171e93614c2f565b508580828161170c565b9094939291506020813d60201161175d575b81611747602093836138f4565b810103126105e55751929391929091602461165b565b3d915061173a565b9091506020813d602011611791575b81611781602093836138f4565b810103126105e557519087611623565b3d9150611774565b6117a290615001565b866115eb565b90506020813d6020116117d2575b816117c3602093836138f4565b810103126105e55751876115e4565b3d91506117b6565b6118029185916117f49083906001600160a01b0316614a41565b6001600160a01b0316614a41565b6001600160a01b0383163b1561015f57604051637abef8d160e01b815261010051818061183486868a6004850161399e565b03816101005160018060a01b0389165af180156105f057611886575b506040519182526001600160a01b039081169381169216905f5160206155835f395f51905f5290602090a48680808080806115a4565b61010051611893916138f4565b6101005161015f578a611850565b90509261159e565b90506020813d6020116118d3575b816118c4602093836138f4565b810103126105e557518d611592565b3d91506118b7565b90506020813d602011611905575b816118f6602093836138f4565b810103126105e557518c61155b565b3d91506118e9565b633ecbef8960e01b6101005152600461010051fd5b90506119336101843583898b614c2f565b90811561190d5761194b916101843591868e8c614e57565b50611525565b631e9acf1760e31b6101005152600461010051fd5b90506020813d602011611990575b81611981602093836138f4565b810103126105e557518f6114d9565b3d9150611974565b90506020813d6020116119c2575b816119b3602093836138f4565b810103126105e557518f611499565b3d91506119a6565b925050506119dd915061010051906138f4565b6101005161015f578c88888d5f61141b565b506001600160a01b038a16156113aa565b506001600160a01b038916156113a3565b506001600160a01b0384161561138d565b506001600160a01b03861615611386565b506001600160a01b03881615611370565b909b506020813d602011611a70575b81611a60602093836138f4565b810103126105e557519a8e61132f565b3d9150611a53565b3461015f5761022036600319011261015f576004356001600160401b03811161015f57611aa9903690600401613757565b90611ab261365f565b604435929091906001600160a01b038416840361015f57611ad1613675565b90611ada61368b565b60c05260a43593841515850361015f57611af26136a1565b95611afb6136b7565b90611b046136cd565b91611b0d6136e4565b98611b166136fb565b608052611b21613712565b61018435610120819052909a906001600160a01b038116900361015f576101a435996001600160a01b038b168b0361015f576101c4359a6001600160a01b038c168c0361015f5761010051546001600160a01b0316330361014a576040516370a0823160e01b815230600482015260c051602090829060249082906001600160a01b03165afa60e05260e051156105f0576101005160a05260e0516128a6575b506101e435156106b4576001600160a01b038416158015612895575b6111e35760c0516001600160a01b0316158015612884575b8015612873575b610135576080516001600160a01b0316158015612862575b8015612851575b61118a5760c051611c369085906001600160a01b0316614a41565b6001600160a01b0384163b1561015f576040516301abf04560e71b8152610100518180611c6d6101e43560c0518b6004850161399e565b03816101005160018060a01b038a165af180156105f057612836575b506040516101e435815260c0516001600160a01b0390811691878216918716907f96b6cd56b43ef9bd81ea4da2f5715eb8e6d0da9999e7cf964ae2932a20e0f0fd90602090a46040516370a0823160e01b8152306004820152608051602090829060249082906001600160a01b03165afa9081156105f0576101005191612804575b506101e4351161195157602460208e604051928380926370a0823160e01b825230600483015260018060a01b03165afa9081156105f05761010051916127d2575b506101e43511611951578b838e611d6e611d6861012051614dc7565b94614dc7565b94156127a05750505050611d8a6101e435878d60805190614c2f565b90811561190d57611da2916101e43591848f8f614e57565b505b6040516370a0823160e01b81523060048201526020816024816001600160a01b038a165afa9081156105f057610100519161276e575b506040516370a0823160e01b81523060048201526020816024816001600160a01b0387165afa9081156105f057610100519161273c575b50808210156127345750945b8561267d575b505050508161203a575b505050505050604051906370a0823160e01b825230600483015260208260248160018060a01b03608051165afa9182156105f0576101005192612006575b506040516370a0823160e01b81523060048201526020816024816001600160a01b0388165afa9081156105f0576101005191611fd4575b508215611fae5750611ebc925060c0519060805190614c2f565b505b6040516370a0823160e01b815230600482015260c051602090829060249082906001600160a01b03165afa9081156105f0576101005191611f7c575b506001600160ff1b0381118015611f6a575b610d305761020435611f2060a051836139c0565b12610d1b576040805160a0518152602081019290925261020435908201527f318296ace369901373a62c2153c5e87356175630ec782af9e8b7c9385f3d1e80908060608101610d11565b5060a0516001600160ff1b0310611f0c565b90506020813d602011611fa6575b81611f97602093836138f4565b810103126105e5575181611efa565b3d9150611f8a565b809250611fbe575b505050611ebe565b611fcb9260c05191614c2f565b50808080611fb6565b90506020813d602011611ffe575b81611fef602093836138f4565b810103126105e5575184611ea2565b3d9150611fe2565b9091506020813d602011612032575b81612022602093836138f4565b810103126105e557519083611e6b565b3d9150612015565b6001600160a01b0385165f5160206154e35f395f51905f52036120ec575050505050506040516370a0823160e01b81523060048201526020816024815f5160206154e35f395f51905f525afa9081156105f05761010051916120ba575b50806120ab575b505b828080808080611e2d565b6120b490615001565b8261209e565b90506020813d6020116120e4575b816120d5602093836138f4565b810103126105e5575183612097565b3d91506120c8565b836120fd575b5050505050506120a0565b6001600160a01b038316156101355761211f836001600160a01b038716613e28565b6001600160a01b038116612664575b508260041161015f57848301906080868303600319011261015f5760048601356001600160401b03811161015f578601948260238701121561015f57600486013591612179836139ec565b9661218760405198896138f4565b838852602088019060206004839660051b830101019086821161015f5760248101925b82841061251957505050506121c16044890161389d565b916064890135946001600160401b03861161015f57806023878c0101121561015f578560048b9788010135916020600484846121fc8261392d565b9b61220a6040519d8e6138f4565b828d52010101011161015f57602482918c010160208801376020610100519187010152875115612504576001600160a01b03818116906122498a613a03565b515116036124ea575b506040612260889398613a03565b51015260405195869163286f580d60e01b83526084830190608060048501525180915260a483019060a48160051b850101949161010051905b828210612436575050505081926122d19160248a01356024850152151560448401526003198382030160648401526101005194613ac1565b03816101005160018060a01b0386165af180156105f057612336575b7fde69c99d0290e9136275c349eb34d1087f4344a5eb3b4ce398f30cca48dacb0f925061232860405192839260018060a01b03169583613977565b0390a28280808080806120f2565b3d8061010051853e61234881856138f4565b83019260608185031261015f5780516001600160401b03811161015f5784612371918301613a64565b5060208101516001600160401b03811161015f57810184601f8201121561015f578051906020806123a1846139ec565b6123ae60405191826138f4565b848152019260051b8201019086821161015f57602001915b818310612416575050506040810151936001600160401b03851161015f577fde69c99d0290e9136275c349eb34d1087f4344a5eb3b4ce398f30cca48dacb0f946124109201613a64565b506122ed565b82516001600160a01b038116810361015f578152602092830192016123c6565b91939450919460a3198a8203018252855190608081019160018060a01b038151168252602081015192608060208401528351809152602060a0840194019061010051905b8082106124ae5750505060019260209260608084604087960151604085015201519101529701920192018994939192612299565b9091946020606060019260408951858060a01b038151168352858060a01b0385820151168584015201511515604082015201960192019061247a565b6001600160a01b03166124fc88613a03565b51528a612252565b634d95e03560e11b6101005152600461010051fd5b83356001600160401b03811161015f576004908301016080601f19828b03011261015f576040519061254a826138aa565b61255660208201613729565b825260408101356001600160401b03811161015f576020908201018a601f8201121561015f578035612587816139ec565b9161259560405193846138f4565b818352602060608185019302820101908d821161015f57602001915b8d8284106125e657505050509160806020949285948584015260608101356040840152013560608201528152019301926121aa565b83606091031261015f576040519060608201908282106001600160401b0383111761264a5760609260209260405261261d86613729565b815261262a838701613729565b8382015261263a6040870161389d565b60408201528152019201916125b1565b634e487b7160e01b61010051526041600452602461010051fd5b612677906001600160a01b038616614a41565b8761212e565b6126979183916117f49083906001600160a01b0316614a41565b6001600160a01b0381163b1561015f57604051637abef8d160e01b81526101005181806126c9888c886004850161399e565b03816101005160018060a01b0387165af180156105f057612719575b506040518481526001600160a01b038881169381169216905f5160206155835f395f51905f5290602090a488808080611e23565b61010051612726916138f4565b6101005161015f578a6126e5565b905094611e1d565b90506020813d602011612766575b81612757602093836138f4565b810103126105e557518d611e11565b3d915061274a565b90506020813d602011612798575b81612789602093836138f4565b810103126105e557518c611dda565b3d915061277c565b6127b09394506101e43592614c2f565b90811561190d576127cc918c91886101e4359360805190614e57565b50611da4565b90506020813d6020116127fc575b816127ed602093836138f4565b810103126105e557518e611d4c565b3d91506127e0565b90506020813d60201161282e575b8161281f602093836138f4565b810103126105e557518e611d0b565b3d9150612812565b61010051612843916138f4565b6101005161015f578d611c89565b506001600160a01b038c1615611c1b565b506001600160a01b038d1615611c14565b506001600160a01b03831615611bfc565b506001600160a01b03871615611bf5565b506001600160a01b03851615611bdd565b6020813d6020116128d1575b816128bf602093836138f4565b810103126105e5575160a0528d611bc1565b3d91506128b2565b346105e5576128e736613784565b9d91989994929795939c60018060a09e939d9e1b035f54163303613096576040516370a0823160e01b81523060048201529c8d806001600160a01b038e165a92602491602094fa9d8e15611053575f9e613061575b506040518e81526001600160a01b038d16907fb2f03ce105b3cd1f9fccfa1de78c921cd3ad2f01048d3a832c7ebb893fd347b990602090a2612987836001600160a01b038e16613e28565b6001600160a01b038116613048575b505f806040518386823780848101838152039082865af16129b5613948565b5015613039577f039f1e3426eb05ff8263467f0ccd63de0af468a20960885b56ee6fbb53ac1be6916129f560405192839260018060a01b03169583613977565b0390a26040516370a0823160e01b81523060048201526001600160a01b0384169290602081602481875afa908115611053575f91613007575b50837f7ea2559d46b5ca1045280b94e6bd226dc4c60c15c514f72d0fc10c788c80822d6020604051848152a280156110ea576001600160a01b038616948515159487908680612ff5575b15612f835790612a8791614a41565b853b156105e5576040516301abf04560e71b8152915f9183918291612ab191908c6004850161399e565b038183895af1801561105357612f6e575b505b6040516370a0823160e01b81523060048201526020816024816001600160a01b0386165afa9081156105f0576101005191612f3c575b508c81612f29575b50506040516370a0823160e01b815230600482015290506020816024816001600160a01b0386165afa9081156105f0576101005191612ef7575b508681612ee4575b50505080612ed2575b612d3f575b50506040516370a0823160e01b81523060048201529190506020826024816001600160a01b038b165afa9182156105f0576101005192612d0b575b506040516370a0823160e01b8152306004820152906020826024816001600160a01b0385165afa9182156105f0576101005192612cce575b5060249760209594939285928415612ca8575050612be293614c2f565b505b6040516370a0823160e01b815230600482015294859182906001600160a01b03165afa9283156105f0576101005193612c74575b5083612c2483856139c0565b12610d1b57612c57610d11917f318296ace369901373a62c2153c5e87356175630ec782af9e8b7c9385f3d1e80956139c0565b604051938493846040919493926060820195825260208201520152565b9092506020813d602011612ca0575b81612c90602093836138f4565b810103126105e557519184612c18565b3d9150612c83565b9150809350612cbb575b50505050612be4565b612cc493614c2f565b5086808281612cb2565b9094939291506020813d602011612d03575b81612ced602093836138f4565b810103126105e557519293919290916024612bc5565b3d9150612ce0565b9091506020813d602011612d37575b81612d27602093836138f4565b810103126105e557519088612b8d565b3d9150612d1a565b6040516370a0823160e01b8152306004820152916001600160a01b038a1690602084602481855afa9384156105f0576101005194612e9e575b506040516370a0823160e01b81523060048201526001600160a01b0387169490602081602481895afa9081156105f0576101005191612e6c575b5080821015612e645750935b84612dcc575b505050612b52565b610ea982612dd994614a41565b803b1561015f57604051637abef8d160e01b8152610100518180612e02868b896004850161399e565b038161010051865af180156105f057612e49575b506040519182526001600160a01b038681169316915f5160206155835f395f51905f5290602090a4878080808080612dc4565b61010051612e56916138f4565b6101005161015f578a612e16565b905093612dbe565b90506020813d602011612e96575b81612e87602093836138f4565b810103126105e557518e612db2565b3d9150612e7a565b9093506020813d602011612eca575b81612eba602093836138f4565b810103126105e55751928c612d78565b3d9150612ead565b506001600160a01b0383161515612b4d565b612eee9289614c2f565b508b8086612b44565b90506020813d602011612f21575b81612f12602093836138f4565b810103126105e557518d612b3c565b3d9150612f05565b612f33928a614c2f565b508c808c612b02565b90506020813d602011612f66575b81612f57602093836138f4565b810103126105e557518e612afa565b3d9150612f4a565b5f612f78916138f4565b5f610100528d612ac2565b9290505f807ff8e6e0bb33e12f1f8e97919c28e4df84e2aebf737d4bf32534deb9e737f228e69360405182602082019163dbceb00560e01b835286602482015260248152612fd26044826138f4565b51925af190612fdf613948565b50604080519182529115156020820152a2612ac4565b506001600160a01b038a161515612a78565b90506020813d602011613031575b81613022602093836138f4565b810103126105e557518e612a2e565b3d9150613015565b632e9f6e2b60e11b5f5260045ffd5b61305b906001600160a01b038d16614a41565b8f612996565b9b9d5060208c3d60201161308e575b8161307d602093836138f4565b810103126105e5578d9b519d61293c565b3d9150613070565b6330cd747160e01b5f5260045ffd5b346105e5576130b33661373d565b5f54919290916001600160a01b031633036130965780156133db576130d6614113565b6130de615411565b906130e7613ae5565b905f6020936040516130f986826138f4565b82815260405190613109826138d9565b5f5160206155435f395f51905f528252838783015260036040830152846060830152608082015261313985613a03565b5261314384613a03565b5060405161315186826138f4565b82815260405190613161826138d9565b5f5160206155635f395f51905f52825260038783015260046040830152836060830152608082015261319285613a24565b5261319c84613a24565b506040516131aa86826138f4565b828152604051906131ba826138d9565b5f5160206155235f395f51905f5282526004878301526002604083015283606083015260808201526131eb85613a34565b526131f584613a34565b506132008151613ba3565b9261320a84613a03565b5286151593846133c3575b61325460405194613225866138aa565b3086528488870152306040870152846060870152604051958694859463945bcec960e01b865260048601613c9a565b0381835f5160206155a35f395f51905f525af18015611053576133ab575b506040516370a0823160e01b81523060048201529382856024815f5160206155035f395f51905f525afa948515611053575f9561337c575b5084156110ea5781613372575b50613363575f916132c661437e565b604051916132d56060846138f4565b6002835260409036908401375f5160206155035f395f51905f526132f883613a03565b525f5160206154e35f395f51905f5261331083613a24565b5261333160405194859384936338ed173960e01b8552309260048601613deb565b0381835f5160206155c35f395f51905f525af180156110535761335057005b61001b903d805f833e6106a781836138f4565b63bb2875c360e01b5f5260045ffd5b90508310846132b7565b9094508281813d83116133a4575b61339481836138f4565b810103126105e5575193856132aa565b503d61338a565b6133be903d805f833e61061481836138f4565b613272565b6133cc88613bd5565b6133d585613a34565b52613215565b631f2a200560e01b5f5260045ffd5b346105e5575f3660031901126105e5575f546040516001600160a01b039091168152602090f35b346105e55760403660031901126105e5576004356001600160a01b038116908190036105e5575f546001600160a01b03163303613096578015613478575f80808093602435905af1613461613948565b501561346957005b632609239960e21b5f5260045ffd5b63d92e233d60e01b5f5260045ffd5b346105e55760403660031901126105e5576134a0613649565b6134a861365f565b5f549091906001600160a01b03163303613096576001600160a01b03821615613478576040516370a0823160e01b81523060048201526001600160a01b039190911691602082602481865afa918215611053575f9261358e575b5060405163a9059cbb60e01b81526001600160a01b0390911660048201526024810191909152906020908290815f81604481015b03925af1908115611053575f9161355f575b501561355057005b6312171d8360e31b5f5260045ffd5b613581915060203d602011613587575b61357981836138f4565b810190613915565b81613548565b503d61356f565b91506020823d6020116135bc575b816135a9602093836138f4565b810103126105e557905190613536613502565b3d915061359c565b346105e55760603660031901126105e5576135dd613649565b6135e561365f565b5f546001600160a01b03163303613096576001600160a01b038116156134785763a9059cbb60e01b83526001600160a01b039081166004840152604480356024850152602092849283915f91165af1908115611053575f9161355f57501561355057005b600435906001600160a01b03821682036105e557565b602435906001600160a01b03821682036105e557565b606435906001600160a01b03821682036105e557565b608435906001600160a01b03821682036105e557565b60c435906001600160a01b03821682036105e557565b60e435906001600160a01b03821682036105e557565b61010435906001600160a01b03821682036105e557565b61012435906001600160a01b03821682036105e557565b61014435906001600160a01b03821682036105e557565b61016435906001600160a01b03821682036105e557565b35906001600160a01b03821682036105e557565b60609060031901126105e557600435906024359060443590565b9181601f840112156105e5578235916001600160401b0383116105e557602083818601950101116105e557565b6101c06003198201126105e557600435906001600160401b0382116105e5576137af91600401613757565b90916024356001600160a01b03811681036105e557906044356001600160a01b03811681036105e557906064356001600160a01b03811681036105e557906084356001600160a01b03811681036105e5579060a4356001600160a01b03811681036105e5579060c4356001600160a01b03811681036105e5579060e4356001600160a01b03811681036105e55790610104356001600160a01b03811681036105e55790610124356001600160a01b03811681036105e55790610144356001600160a01b03811681036105e55790610164356001600160a01b03811681036105e5579061018435906101a43590565b359081151582036105e557565b608081019081106001600160401b038211176138c557604052565b634e487b7160e01b5f52604160045260245ffd5b60a081019081106001600160401b038211176138c557604052565b90601f801991011681019081106001600160401b038211176138c557604052565b908160209103126105e5575180151581036105e55790565b6001600160401b0381116138c557601f01601f191660200190565b3d15613972573d906139598261392d565b9161396760405193846138f4565b82523d5f602084013e565b606090565b90918060409360208452816020850152848401375f828201840152601f01601f1916010190565b6001600160a01b03918216815291166020820152604081019190915260600190565b81810392915f1380158285131691841216176139d857565b634e487b7160e01b5f52601160045260245ffd5b6001600160401b0381116138c55760051b60200190565b805115613a105760200190565b634e487b7160e01b5f52603260045260245ffd5b805160011015613a105760400190565b805160021015613a105760600190565b805160031015613a105760800190565b805160041015613a105760a00190565b9080601f830112156105e5578151613a7b816139ec565b92613a8960405194856138f4565b81845260208085019260051b8201019283116105e557602001905b828210613ab15750505090565b8151815260209182019101613aa4565b805180835260209291819084018484015e5f828201840152601f01601f1916010190565b60405160809190613af683826138f4565b6003815291601f1901825f5b828110613b0e57505050565b602090604051613b1d816138d9565b5f81525f838201525f60408201525f60608201526060608082015282828501015201613b02565b60405160c09190613b5583826138f4565b6005815291601f1901825f5b828110613b6d57505050565b602090604051613b7c816138d9565b5f81525f838201525f60408201525f60608201526060608082015282828501015201613b61565b90613bad826139ec565b613bba60405191826138f4565b8281528092613bcb601f19916139ec565b0190602036910137565b600160ff1b81146139d8575f0390565b6020818303126105e5578051906001600160401b0382116105e557019080601f830112156105e5578151613c18816139ec565b92613c2660405194856138f4565b81845260208085019260051b8201019283116105e557602001905b828210613c4e5750505090565b8151815260209182019101613c41565b90602080835192838152019201905f5b818110613c7b5750505090565b82516001600160a01b0316845260209384019390920191600101613c6e565b9493929161012086015f87526101206020880152825180915261014087019060206101408260051b8a01019401915f905b828210613d67575050505081613cea9187606094036040890152613c5e565b82516001600160a01b039081168784015260208085015115156080890152604085015190911660a08801529190920151151560c086015284820360e086015282518083529181019201905f5b818110613d5157505050610100661fffffffffffff91930152565b8251845260209384019390920191600101613d36565b90919294602080613db56001938d61013f1990820301865260a060808b5180518452858101518685015260408101516040850152606081015160608501520151918160808201520190613ac1565b970192019201909291613ccb565b906020828203126105e55781516001600160401b0381116105e557613de89201613a64565b90565b9063d141dd8493608093613e14929796978452602084015260a0604084015260a0830190613c5e565b6001600160a01b0390951660608201520152565b604051636eb1769f60e11b81523060048201526e22d473030f116ddee9f6b43ac78ba360248201526001600160a01b039190911690602081604481855afa908115611053575f916140e1575b5060018101613fee575b50604051636eb1769f60e11b81523060048201526e22d473030f116ddee9f6b43ac78ba36024820152602081604481855afa9081156110535782905f92613fad575b505f5160206154c35f395f51905f5260206e22d473030f116ddee9f6b43ac78ba393604051908152a36e22d473030f116ddee9f6b43ac78ba33b156105e5576040516387517c4560e01b8152600481018290526001600160a01b0392831660248201819052604482019390935265ffffffffffff60648201525f81608481836e22d473030f116ddee9f6b43ac78ba35af1801561105357613f9d575b50604080516001600160a01b03815265ffffffffffff60208201527f4871c6f66188da2f442cdab9920447df48710c721ba67e79f01001ebfa3d4ae99190a3565b5f613fa7916138f4565b5f613f5c565b9150506020813d602011613fe6575b81613fc9602093836138f4565b810103126105e55751815f5160206154c35f395f51905f52613ec0565b3d9150613fbc565b61406e575b60405163095ea7b360e01b81526e22d473030f116ddee9f6b43ac78ba360048201525f1960248201526020816044815f865af1908115611053575f9161404f575b5015614040575f613e7e565b632a69ce6b60e11b5f5260045ffd5b614068915060203d6020116135875761357981836138f4565b5f614034565b60405163095ea7b360e01b81526e22d473030f116ddee9f6b43ac78ba360048201525f60248201526020816044815f865af1908115611053575f916140c2575b50613ff35763097c3e9360e21b5f5260045ffd5b6140db915060203d6020116135875761357981836138f4565b5f6140ae565b90506020813d60201161410b575b816140fc602093836138f4565b810103126105e557515f613e74565b3d91506140ef565b604051636eb1769f60e11b81523060048201525f5160206155a35f395f51905f52602482015260208160448173af204776c7245bf4147c2612bf6e5972ee4837015afa908115611053575f9161434c575b5060018101614244575b50604051636eb1769f60e11b81523060048201525f5160206155a35f395f51905f52602482015260208160448173af204776c7245bf4147c2612bf6e5972ee4837015afa908115611053575f916141fe575b5073af204776c7245bf4147c2612bf6e5972ee4837015f5160206154c35f395f51905f5260205f5160206155a35f395f51905f5293604051908152a3565b90506020813d60201161423c575b81614219602093836138f4565b810103126105e5575173af204776c7245bf4147c2612bf6e5972ee4837016141c0565b3d915061420c565b6142c7575b60405163095ea7b360e01b81525f5160206155a35f395f51905f5260048201525f1960248201526020816044815f73af204776c7245bf4147c2612bf6e5972ee4837015af1908115611053575f916142a8575b5015614040575f61416e565b6142c1915060203d6020116135875761357981836138f4565b5f61429c565b60405163095ea7b360e01b81525f5160206155a35f395f51905f5260048201525f60248201526020816044815f73af204776c7245bf4147c2612bf6e5972ee4837015af1908115611053575f9161432d575b506142495763097c3e9360e21b5f5260045ffd5b614346915060203d6020116135875761357981836138f4565b5f614319565b90506020813d602011614376575b81614367602093836138f4565b810103126105e557515f614164565b3d915061435a565b604051636eb1769f60e11b81523060048201525f5160206155c35f395f51905f5260248201526020816044815f5160206155035f395f51905f525afa908115611053575f9161458d575b5060018101614493575b50604051636eb1769f60e11b81523060048201525f5160206155c35f395f51905f5260248201526020816044815f5160206155035f395f51905f525afa908115611053575f91614454575b505f5160206155035f395f51905f525f5160206154c35f395f51905f5260205f5160206155c35f395f51905f5293604051908152a3565b90506020813d60201161448b575b8161446f602093836138f4565b810103126105e557515f5160206155035f395f51905f5261441d565b3d9150614462565b61450f575b60405163095ea7b360e01b81525f5160206155c35f395f51905f5260048201525f1960248201526020816044815f5f5160206155035f395f51905f525af1908115611053575f916144f0575b5015614040575f6143d2565b614509915060203d6020116135875761357981836138f4565b5f6144e4565b60405163095ea7b360e01b81525f5160206155c35f395f51905f5260048201525f60248201526020816044815f5f5160206155035f395f51905f525af1908115611053575f9161456e575b506144985763097c3e9360e21b5f5260045ffd5b614587915060203d6020116135875761357981836138f4565b5f61455a565b90506020813d6020116145b7575b816145a8602093836138f4565b810103126105e557515f6143c8565b3d915061459b565b604051636eb1769f60e11b81523060048201525f5160206155c35f395f51905f5260248201526020816044815f5160206154e35f395f51905f525afa908115611053575f916147ce575b50600181016146d4575b50604051636eb1769f60e11b81523060048201525f5160206155c35f395f51905f5260248201526020816044815f5160206154e35f395f51905f525afa908115611053575f91614695575b505f5160206154e35f395f51905f525f5160206154c35f395f51905f5260205f5160206155c35f395f51905f5293604051908152a3565b90506020813d6020116146cc575b816146b0602093836138f4565b810103126105e557515f5160206154e35f395f51905f5261465e565b3d91506146a3565b614750575b60405163095ea7b360e01b81525f5160206155c35f395f51905f5260048201525f1960248201526020816044815f5f5160206154e35f395f51905f525af1908115611053575f91614731575b5015614040575f614613565b61474a915060203d6020116135875761357981836138f4565b5f614725565b60405163095ea7b360e01b81525f5160206155c35f395f51905f5260048201525f60248201526020816044815f5f5160206154e35f395f51905f525af1908115611053575f916147af575b506146d95763097c3e9360e21b5f5260045ffd5b6147c8915060203d6020116135875761357981836138f4565b5f61479b565b90506020813d6020116147f8575b816147e9602093836138f4565b810103126105e557515f614609565b3d91506147dc565b604051636eb1769f60e11b81523060048201525f5160206155a35f395f51905f5260248201526020816044815f5160206155035f395f51905f525afa908115611053575f91614a0f575b5060018101614915575b50604051636eb1769f60e11b81523060048201525f5160206155a35f395f51905f5260248201526020816044815f5160206155035f395f51905f525afa908115611053575f916148d6575b505f5160206155035f395f51905f525f5160206154c35f395f51905f5260205f5160206155a35f395f51905f5293604051908152a3565b90506020813d60201161490d575b816148f1602093836138f4565b810103126105e557515f5160206155035f395f51905f5261489f565b3d91506148e4565b614991575b60405163095ea7b360e01b81525f5160206155a35f395f51905f5260048201525f1960248201526020816044815f5f5160206155035f395f51905f525af1908115611053575f91614972575b5015614040575f614854565b61498b915060203d6020116135875761357981836138f4565b5f614966565b60405163095ea7b360e01b81525f5160206155a35f395f51905f5260048201525f60248201526020816044815f5f5160206155035f395f51905f525af1908115611053575f916149f0575b5061491a5763097c3e9360e21b5f5260045ffd5b614a09915060203d6020116135875761357981836138f4565b5f6149dc565b90506020813d602011614a39575b81614a2a602093836138f4565b810103126105e557515f61484a565b3d9150614a1d565b604051636eb1769f60e11b81523060048201526001600160a01b0383811660248301529190911690602081604481855afa908115611053575f91614bfd575b5060018101614b20575b50604051636eb1769f60e11b81523060048201526001600160a01b038316602482015291602083604481855afa928315611053575f93614aeb575b506040519283526001600160a01b0316915f5160206154c35f395f51905f5290602090a3565b9092506020813d602011614b18575b81614b07602093836138f4565b810103126105e55751916020614ac5565b3d9150614afa565b614b8b575b60405163095ea7b360e01b81526001600160a01b03831660048201525f1960248201526020816044815f865af1908115611053575f91614b6c575b5015614040575f614a8a565b614b85915060203d6020116135875761357981836138f4565b5f614b60565b60405163095ea7b360e01b81526001600160a01b03831660048201525f6024820181905260209082906044908290865af1908115611053575f91614bde575b50614b255763097c3e9360e21b5f5260045ffd5b614bf7915060203d6020116135875761357981836138f4565b5f614bca565b90506020813d602011614c27575b81614c18602093836138f4565b810103126105e557515f614a80565b3d9150614c0b565b929392906001600160a01b038216908115613478576001600160a01b03169182158015614db6575b614da7578515614d9e57614c6b9083614a41565b6040519460e086018681106001600160401b038211176138c557604052828652602086019360018060a01b0316938481526040870130815260608801428152608089019084825260a08a01925f845260c08b01945f86526040519b63178ca23160e31b8d5260018060a01b0390511660048d015260018060a01b0390511660248c015260018060a01b0390511660448b01525160648a01525160848901525160a488015260018060a01b0390511660c487015260208660e4815f865af1958615611053575f96614d69575b5060407f5daa39fce4745a2a9e6137131383e8405e80edb12e37c562f590c5f294ed19d5918782519182526020820152a4565b9095506020813d602011614d96575b81614d85602093836138f4565b810103126105e55751946040614d36565b3d9150614d78565b505f9450505050565b6381c609f760e01b5f5260045ffd5b506001600160a01b03841615614c57565b6001600160a01b03168015614e515760206004916040519283809263ddca3f4360e01b82525afa5f9181614e11575b50614e015750606490565b62ffffff8116613de85750606490565b9091506020813d602011614e49575b81614e2d602093836138f4565b810103126105e5575162ffffff811681036105e557905f614df6565b3d9150614e20565b50606490565b919594929391926001600160a01b03841692918315613478576001600160a01b03169384158015614ff0575b614da7578215614fe557614e979085614a41565b6040519061010082018281106001600160401b038211176138c557604052848252602082019760018060a01b03169586895262ffffff604084019116815260608301308152608084019042825262ffffff60a086019387855260c0870195865260e08701965f885260246040519e8f92631b67c43360e31b845260018060a01b03905116600484015260018060a01b03905116910152511660448c015260018060a01b0390511660648b01525160848a01525160a48901525160c488015260018060a01b0390511660e4870152602086610104815f865af1958615611053575f96614fb0575b5060407fcb3796b31ba09ffbc48bd2abe64550ce61698c9e170bed66c7f6c556118af6a3918782519182526020820152a4565b9095506020813d602011614fdd575b81614fcc602093836138f4565b810103126105e55751946040614f7d565b3d9150614fbf565b505f96505050505050565b506001600160a01b03881615614e83565b80156133db5761500f6145bf565b6150615f60609260405161502385826138f4565b60028152601f1985013660208301375f5160206154e35f395f51905f5261504982613a03565b525f5160206155035f395f51905f52610a3e82613a24565b0381835f5160206155c35f395f51905f525af18015611053576153f9575b506040516370a0823160e01b8152306004820152906020826024815f5160206155035f395f51905f525afa918215611053575f926153c5575b5081156110ea576150c7614800565b6150cf615411565b916150d8613b44565b928160011c938483038381116139d8575f9361531a916020976040516150fe8a826138f4565b8781526040519161510e836138d9565b7f7e5870ac540adfd01a213c829f2231c309623eb10002000000000000000000e9835260028b8401526001604084015289830152608082015261515085613a03565b5261515a84613a03565b5060405161516889826138f4565b86815260405190615178826138d9565b7fa91c413d8516164868f6cca19573fe38f88f5982000200000000000000000157825260018a830152876040830152878983015260808201526151ba85613a24565b526151c484613a24565b506040516151d289826138f4565b868152604051916151e2836138d9565b5f5160206155235f395f51905f52835260028a8401526004604084015288830152608082015261521184613a34565b5261521b83613a34565b5060405161522988826138f4565b85815260405190615239826138d9565b5f5160206155635f395f51905f528252600489830152600360408301528688830152608082015261526984613a44565b5261527383613a44565b5060405161528188826138f4565b85815260405190615291826138d9565b5f5160206155435f395f51905f528252600389830152866040830152868883015260808201526152c084613a54565b526152ca83613a54565b506152d58451613ba3565b906152df82613a34565b5284604051966152ee886138aa565b3088528189890152306040890152870152604051958694859463945bcec960e01b865260048601613c9a565b0381835f5160206155a35f395f51905f525af18015611053576153ad575b506040516370a0823160e01b8152306004820152818160248173af204776c7245bf4147c2612bf6e5972ee4837015afa918215611053575f9261537f575b5050156110ea57565b90809250813d83116153a6575b61539681836138f4565b810103126105e557515f80615376565b503d61538c565b6153c0903d805f833e61061481836138f4565b615338565b9091506020813d6020116153f1575b816153e1602093836138f4565b810103126105e55751905f6150b8565b3d91506153d4565b61540c903d805f833e6106a781836138f4565b61507f565b6040519061542060c0836138f4565b6005825260a0366020840137739c58bacc331c9aa871afd802db6379a98e80cedb6154bf8373af204776c7245bf4147c2612bf6e5972ee48370161546382613a03565b5273c0d871bd13ebdf5c4ff059d8243fb38210608bd661548282613a24565b525f5160206155035f395f51905f5261549a82613a34565b5273e0ed85f76d9c552478929fab44693e03f0899f236154b982613a44565b52613a54565b5256feb6174191c8a1b8338dcc8711e5edf88685ae0a57f03b361e2bdf8979f6288bd500000000000000000000000037b60f4e9a31a64ccc0024dce7d0fd07eaa0f7b30000000000000000000000006a023ccd1ff6f2045c3309768ead9e68f978f6e1a99fd9950b5d5dceeaf4939e221dca8ca9b938ab00010000000000000000002540d2cbc586dd8df50001cdba3f65cd4bbc32d596000200000000000000000154480d4f66cc41a1b6784a53a10890e5ece31d75c000020000000000000000014edc43ce728a1135c1396673372fa69f30fe424cb172093e4198538d75e54f3c2b000000000000000000000000ba12222222228d8ba445958a75a0704d566bf2c8000000000000000000000000e43e60736b1cb4a75ad25240e2f9a62bff65c0c0a26469706673582212208c55603480b5dea0d6c9eb34e30b942c1def1f75a57e0f376e07117d01f32b4364736f6c63430008210033","linkReferences":{}},"methodIdentifiers":{"buyPnkWithSdai(uint256,uint256,uint256)":"ce12e70d","buy_conditional_arbitrage_balancer(bytes,address,address,address,address,bool,address,address,address,address,address,address,address,address,address,uint256,int256)":"de309fc3","buy_conditional_arbitrage_pnk(address,address,bool,address,address,address,address,address,address,address,address,address,uint256,int256)":"de57a0ae","owner()":"8da5cb5b","sellPnkForSdai(uint256,uint256,uint256)":"ea9f3f09","sell_conditional_arbitrage_balancer(bytes,address,address,address,address,address,address,address,address,address,address,address,uint256,int256)":"d4b21c33","sell_conditional_arbitrage_pnk(bytes,address,address,address,address,address,address,address,address,address,address,address,uint256,int256)":"e7610d68","sweepToken(address,address)":"258836fe","transferOwnership(address)":"f2fde38b","withdrawETH(address,uint256)":"4782f779","withdrawToken(address,address,uint256)":"01e33667"},"id":2}