{"abi":[{"type":"constructor","inputs":[],"stateMutability":"nonpayable"},{"type":"receive","stateMutability":"payable"},{"type":"function","name":"buyPnkWithSdai","inputs":[{"name":"amt","type":"uint256","internalType":"uint256"},{"name":"","type":"uint256","internalType":"uint256"},{"name":"","type":"uint256","internalType":"uint256"}],"outputs":[],"stateMutability":"nonpayable"},{"type":"function","name":"buy_conditional_arbitrage_balancer","inputs":[{"name":"proposal","type":"address","internalType":"address"},{"name":"router","type":"address","internalType":"address"},{"name":"swaprRouter","type":"address","internalType":"address"},{"name":"batchRouter","type":"address","internalType":"address"},{"name":"sdaiYes","type":"address","internalType":"address"},{"name":"sdaiNo","type":"address","internalType":"address"},{"name":"gnoYes","type":"address","internalType":"address"},{"name":"gnoNo","type":"address","internalType":"address"},{"name":"balPool","type":"address","internalType":"address"},{"name":"gno","type":"address","internalType":"address"},{"name":"amt","type":"uint256","internalType":"uint256"},{"name":"minProfit","type":"int256","internalType":"int256"}],"outputs":[],"stateMutability":"nonpayable"},{"type":"function","name":"buy_conditional_arbitrage_pnk","inputs":[{"name":"proposal","type":"address","internalType":"address"},{"name":"router","type":"address","internalType":"address"},{"name":"swaprRouter","type":"address","internalType":"address"},{"name":"sdaiYes","type":"address","internalType":"address"},{"name":"sdaiNo","type":"address","internalType":"address"},{"name":"pnkYes","type":"address","internalType":"address"},{"name":"pnkNo","type":"address","internalType":"address"},{"name":"amt","type":"uint256","internalType":"uint256"},{"name":"minProfit","type":"int256","internalType":"int256"}],"outputs":[],"stateMutability":"nonpayable"},{"type":"function","name":"owner","inputs":[],"outputs":[{"name":"","type":"address","internalType":"address"}],"stateMutability":"view"},{"type":"function","name":"sellPnkForSdai","inputs":[{"name":"amt","type":"uint256","internalType":"uint256"},{"name":"","type":"uint256","internalType":"uint256"},{"name":"","type":"uint256","internalType":"uint256"}],"outputs":[],"stateMutability":"nonpayable"},{"type":"function","name":"sell_conditional_arbitrage_balancer","inputs":[{"name":"proposal","type":"address","internalType":"address"},{"name":"router","type":"address","internalType":"address"},{"name":"swaprRouter","type":"address","internalType":"address"},{"name":"batchRouter","type":"address","internalType":"address"},{"name":"sdaiYes","type":"address","internalType":"address"},{"name":"sdaiNo","type":"address","internalType":"address"},{"name":"gnoYes","type":"address","internalType":"address"},{"name":"gnoNo","type":"address","internalType":"address"},{"name":"balPool","type":"address","internalType":"address"},{"name":"gno","type":"address","internalType":"address"},{"name":"amt","type":"uint256","internalType":"uint256"},{"name":"minProfit","type":"int256","internalType":"int256"}],"outputs":[],"stateMutability":"nonpayable"},{"type":"function","name":"sell_conditional_arbitrage_pnk","inputs":[{"name":"proposal","type":"address","internalType":"address"},{"name":"router","type":"address","internalType":"address"},{"name":"swaprRouter","type":"address","internalType":"address"},{"name":"sdaiYes","type":"address","internalType":"address"},{"name":"sdaiNo","type":"address","internalType":"address"},{"name":"pnkYes","type":"address","internalType":"address"},{"name":"pnkNo","type":"address","internalType":"address"},{"name":"amt","type":"uint256","internalType":"uint256"},{"name":"minProfit","type":"int256","internalType":"int256"}],"outputs":[],"stateMutability":"nonpayable"},{"type":"function","name":"sweepToken","inputs":[{"name":"t","type":"address","internalType":"address"},{"name":"to","type":"address","internalType":"address"}],"outputs":[],"stateMutability":"nonpayable"},{"type":"function","name":"transferOwnership","inputs":[{"name":"newOwner","type":"address","internalType":"address"}],"outputs":[],"stateMutability":"nonpayable"},{"type":"function","name":"withdrawETH","inputs":[{"name":"to","type":"address","internalType":"address"},{"name":"a","type":"uint256","internalType":"uint256"}],"outputs":[],"stateMutability":"nonpayable"},{"type":"function","name":"withdrawToken","inputs":[{"name":"t","type":"address","internalType":"address"},{"name":"to","type":"address","internalType":"address"},{"name":"a","type":"uint256","internalType":"uint256"}],"outputs":[],"stateMutability":"nonpayable"},{"type":"event","name":"Profit","inputs":[{"name":"initial","type":"uint256","indexed":false,"internalType":"uint256"},{"name":"final_","type":"uint256","indexed":false,"internalType":"uint256"},{"name":"min","type":"int256","indexed":false,"internalType":"int256"}],"anonymous":false},{"type":"error","name":"Err","inputs":[{"name":"code","type":"uint8","internalType":"uint8"}]}],"bytecode":{"object":"0x608080604052346026575f80546001600160a01b031916331790556136f7908161002b8239f35b5f80fdfe608080604052600436101561001c575b50361561001a575f80fd5b005b5f905f3560e01c90816301e336671461192457508063258836fe146117f157806328c4be6e146112775780634782f779146111dc5780638da5cb5b146111b5578063ce12e70d1461118a578063dcab771914610dfc578063ea9f3f0914610dba578063f2fde38b14610d45578063f4067dc11461078b5763fc77fbe50361000f5734610788576100ab366119e6565b9b9a92909199959760018060a09b979b1b038c54163303610774576040516370a0823160e01b81523060048201529a60208c6024815f5160206136a25f395f51905f525afa9b8c15610769578d9c610735575b5061010888612f8f565b6001600160a01b03881693843b15610731576040516301abf04560e71b81526001600160a01b03871660048201525f5160206136a25f395f51905f52602482015260448101919091528d8160648183895af1801561068257908e9161071c575b50506040516370a0823160e01b81523060048201526020816024816001600160a01b038e165afa8015610682578e906106e8575b6101a991508c8b8a61332b565b602460208c604051928380926370a0823160e01b825230600483015260018060a01b03165afa801561065c578f90898e83926106af575b6101ec9394508c61332b565b9050808210156106a857505b6001600160a01b038c169461020d8a87613211565b6001600160a01b038816966102228b89613211565b813b156106a457604051637abef8d160e01b81526001600160a01b039182166004820152908416602482015260448101929092528e908290606490829084905af1801561068257908e9161068f575b50506001600160a01b031691610286836130d5565b6e22d473030f116ddee9f6b43ac78ba33b1561067e576040516387517c4560e01b8152600481018490526001600160a01b0392831660248201819052604482019390935265ffffffffffff60648201528d81608481836e22d473030f116ddee9f6b43ac78ba35af1801561068257908e91610669575b50610305612d23565b9161030e612d7c565b916040519161031c83611b87565b6001600160a01b031682525f5160206136a25f395f51905f526020830152604082015261034882611c6d565b5261035281611c6d565b506040516370a0823160e01b815230600482015290602082602481885afa91821561065c57908f949392918592610620575b50946103dd93929185966040519261039b84611bb7565b8352602083015260408201528460608201526103b682611c6d565b526103c081611c6d565b5060405194858094819363286f580d60e01b835260048301612e96565b03925af18015610615579160209160249594936105f3575b506040516370a0823160e01b815230600482015294859182905afa9283156105b3578a936105be575b50916020602493604051948580926370a0823160e01b82523060048301525afa9283156105b3578a9361057b575b509061046d9782878994610568575b50505082610555575b505050506134e5565b6040516370a0823160e01b8152306004820152906020826024815f5160206136a25f395f51905f525afa91821561054a578392610512575b50836104b18284611c29565b126104ff576104f97f80d0f673d1be90179571870eb0880302aa4060e1325934bd924a328aa752dccc9394604051938493846040919493926060820195825260208201520152565b0390a180f35b63081169f360e11b835260048052602483fd5b9091506020813d602011610542575b8161052e60209383611bef565b8101031261053e5751905f6104a5565b5f80fd5b3d9150610521565b6040513d85823e3d90fd5b61055e9361332b565b505f808481610464565b610572928761332b565b505f808761045b565b919092506020823d6020116105ab575b8161059860209383611bef565b8101031261053e5790519161046d61044c565b3d915061058b565b6040513d8c823e3d90fd5b92506020833d6020116105eb575b816105d960209383611bef565b8101031261053e57915191602061041e565b3d91506105cc565b61060e903d808f833e6106068183611bef565b810190612dce565b50506103f5565b6040513d8d823e3d90fd5b9392915093506020833d602011610654575b8161063f60209383611bef565b8101031261053e5791518e9391929184610384565b3d9150610632565b8f604051903d90823e3d90fd5b8161067391611bef565b61067e578c5f6102fc565b8c80fd5b8e604051903d90823e3d90fd5b8161069991611bef565b61067e578c5f610271565b8f80fd5b90506101f8565b505050506020813d6020116106e0575b816106cc60209383611bef565b8101031261053e57518e908190898e6101e0565b3d91506106bf565b506020813d602011610714575b8161070260209383611bef565b8101031261053e576101a9905161019c565b3d91506106f5565b8161072691611bef565b61067e578c5f610168565b8d80fd5b909b506020813d602011610761575b8161075160209383611bef565b8101031261053e57519a5f6100fe565b3d9150610744565b6040513d8f823e3d90fd5b63081169f360e11b8c52600160045260248cfd5b80fd5b50346107885761079a36611ae3565b98979560018060a099979493999695961b038954163303610d31576040516370a0823160e01b8152306004820152976020896024815f5160206136a25f395f51905f525afa9889156105b3578a99610cfb575b506107f790611f80565b6040516370a0823160e01b8152306004820152946020866024815f5160206136625f395f51905f525afa9586156105b3578a96610cc7575b50604051636eb1769f60e11b81523060048201526001600160a01b0388166024820181905298906020816044815f5160206136625f395f51905f525afa908115610c28578c91610c95575b5060018101610bb7575b50883b15610bb3576040516301abf04560e71b81526001600160a01b03909116600482018190525f5160206136625f395f51905f52602483015260448201979097528a81606481838d5af1801561061557908b91610b9a575b50506040516370a0823160e01b8152306004820152906020826024816001600160a01b0385165afa9081156106155785908c92610b62575b61092093508461332b565b506040516370a0823160e01b8152306004820152906020826024816001600160a01b0387165afa9182156105b3579085918b93610b29575b50926109639361332b565b506040516370a0823160e01b81523060048201526001600160a01b0391909116939091602083602481885afa928315610b1e578893610aea575b506040516370a0823160e01b8152306004820152926001600160a01b039190911690602084602481855afa938415610adf578994610aab575b50826109f0916109f5958082105f14610aa3575096613211565b613211565b823b15610a9f579060648592836040519586948593637abef8d160e01b855260048501525f5160206136a25f395f51905f52602485015260448401525af1801561054a57908391610a86575b50506040516370a0823160e01b8152306004820152906020826024815f5160206136a25f395f51905f525afa91821561054a5783926105125750836104b18284611c29565b81610a9091611bef565b610a9b57815f610a41565b5080fd5b8480fd5b905096613211565b93506020843d602011610ad7575b81610ac660209383611bef565b8101031261053e57925192826109d6565b3d9150610ab9565b6040513d8b823e3d90fd5b9092506020813d602011610b16575b81610b0660209383611bef565b8101031261053e5751915f61099d565b3d9150610af9565b6040513d8a823e3d90fd5b915091506020813d602011610b5a575b81610b4660209383611bef565b8101031261053e5751908490610963610958565b3d9150610b39565b9150506020823d602011610b92575b81610b7e60209383611bef565b8101031261053e5784610920925191610915565b3d9150610b71565b81610ba491611bef565b610baf57895f6108dd565b8980fd5b8a80fd5b610c33575b60405163095ea7b360e01b8152600481018a90525f1960248201526020816044818f5f5160206136625f395f51905f525af18015610c28571561088457610c1a9060203d602011610c21575b610c128183611bef565b810190611c11565b505f610884565b503d610c08565b6040513d8e823e3d90fd5b60405163095ea7b360e01b8152600481018a9052602481018c90526020816044818f5f5160206136625f395f51905f525af18015610c2857610c76575b50610bbc565b610c8e9060203d602011610c2157610c128183611bef565b505f610c70565b90506020813d602011610cbf575b81610cb060209383611bef565b8101031261053e57515f61087a565b3d9150610ca3565b9095506020813d602011610cf3575b81610ce360209383611bef565b8101031261053e5751945f61082f565b3d9150610cd6565b9098506020813d602011610d29575b81610d1760209383611bef565b8101031261053e5751976107f76107ed565b3d9150610d0a565b63081169f360e11b89526001600452602489fd5b503461078857602036600319011261078857610d5f6119ba565b8154906001600160a01b0382163303610da6576001600160a01b0316908115610d92576001600160a01b03191617815580f35b63081169f360e11b83526063600452602483fd5b63081169f360e11b83526001600452602483fd5b503461078857610dc936611ac9565b505081546001600160a01b03163303610de857610de590612611565b80f35b63081169f360e11b82526001600452602482fd5b503461078857610e0b36611ae3565b89549099989197939694959492906001600160a01b03163303610d31576040516370a0823160e01b8152306004820152976020896024815f5160206136a25f395f51905f525afa9889156105b3578a99611156575b50610e6a85612f8f565b6001600160a01b03851692833b15610bb3576040516301abf04560e71b81526001600160a01b03909116600482018190525f5160206136a25f395f51905f52602483015260448201929092528a8160648183885af1801561061557908b91611141575b50506040516370a0823160e01b81523060048201526020816024816001600160a01b038b165afa8015610615578b9061110d575b610f0e915089888761332b565b6040516370a0823160e01b81523060048201526020816024816001600160a01b038d165afa8015610c28578c906110d9575b610f4d9150848a8861332b565b808210156110d15750925b6001600160a01b03891693610f6d8786613211565b6001600160a01b03841692610f828885613211565b823b1561067e579060648d92836040519586948593637abef8d160e01b855260048501525f5160206136625f395f51905f52602485015260448401525af1801561061557908b916110bc575b50506040516370a0823160e01b81523060048201526020816024815f5160206136625f395f51905f525afa908115610615578b91611089575b50602493611016602092612611565b6040516370a0823160e01b815230600482015294859182905afa9283156105b3578a936105be5750916020602493604051948580926370a0823160e01b82523060048301525afa9283156105b3578a9361057b57509061046d9782878994610568575050508261055557505050506134e5565b90506020813d6020116110b4575b816110a460209383611bef565b8101031261053e57516024611007565b3d9150611097565b816110c691611bef565b610baf57895f610fce565b905092610f58565b506020813d602011611105575b816110f360209383611bef565b8101031261053e57610f4d9051610f40565b3d91506110e6565b506020813d602011611139575b8161112760209383611bef565b8101031261053e57610f0e9051610f01565b3d915061111a565b8161114b91611bef565b610baf57895f610ecd565b9098506020813d602011611182575b8161117260209383611bef565b8101031261053e5751975f610e60565b3d9150611165565b50346107885761119936611ac9565b505081546001600160a01b03163303610de857610de590611f80565b5034610788578060031936011261078857546040516001600160a01b039091168152602090f35b5034610788576040366003190112610788576111f66119ba565b81546001600160a01b03163303610de8578190819081908190602435906001600160a01b03165af13d15611272573d67ffffffffffffffff811161125e576040519061124c601f8201601f191660200183611bef565b81528260203d92013e5b156107885780f35b634e487b7160e01b83526041600452602483fd5b611256565b503461053e57611286366119e6565b9b9a969491989290999760018060a01b035f541633036117dd576040516370a0823160e01b81523060048201529a60208c6024815f5160206136a25f395f51905f525afa9b8c1561179e575f9c6117a9575b506112ef5f5160206136a25f395f51905f526130d5565b6e22d473030f116ddee9f6b43ac78ba33b1561053e576040516387517c4560e01b81525f5160206136a25f395f51905f5260048201526001600160a01b0392831660248201819052604482019390935265ffffffffffff60648201525f81608481836e22d473030f116ddee9f6b43ac78ba35af1801561179e57611788575b506113fd8d9283928d61137f612d23565b91611388612d7c565b91604051986113968a611b87565b6001600160a01b039081168a52166020890181905260408901879052976113bc83611c6d565b526113c682611c6d565b50604051916113d483611bb7565b5f5160206136a25f395f51905f528352602083015260408201528460608201526103b682611c6d565b03925af18015610c285761176e575b506040516370a0823160e01b8152306004820152602081602481855afa908115610c285789908d92611738575b506114449192613211565b6001600160a01b03881698893b15611734576040516301abf04560e71b81526001600160a01b03898116600483015291909116602482015260448101919091528a81606481838d5af1801561061557908b9161171f575b50506040516370a0823160e01b8152306004820152906020826024816001600160a01b0385165afa9081156106155785908c926116e7575b6114de93508461332b565b506040516370a0823160e01b8152306004820152906020826024816001600160a01b0387165afa9182156105b3579085918b936116ae575b50926115219361332b565b506040516370a0823160e01b81523060048201526001600160a01b0391909116939091602083602481885afa928315610b1e57889361167a575b506040516370a0823160e01b8152306004820152926001600160a01b039190911690602084602481855afa938415610adf578994611646575b50826109f0916115ae958082105f14610aa3575096613211565b823b15610a9f579060648592836040519586948593637abef8d160e01b855260018060a01b031660048501525f5160206136a25f395f51905f52602485015260448401525af1801561054a57908391610a865750506040516370a0823160e01b8152306004820152906020826024815f5160206136a25f395f51905f525afa91821561054a5783926105125750836104b18284611c29565b93506020843d602011611672575b8161166160209383611bef565b8101031261053e5792519282611594565b3d9150611654565b9092506020813d6020116116a6575b8161169660209383611bef565b8101031261053e5751915f61155b565b3d9150611689565b915091506020813d6020116116df575b816116cb60209383611bef565b8101031261053e5751908490611521611516565b3d91506116be565b9150506020823d602011611717575b8161170360209383611bef565b8101031261053e57846114de9251916114d3565b3d91506116f6565b8161172991611bef565b610baf57895f61149b565b8b80fd5b9150506020813d602011611766575b8161175460209383611bef565b8101031261053e575188611444611439565b3d9150611747565b611781903d808e833e6106068183611bef565b505061140c565b6113fd9d505f61179791611bef565b5f9c61136e565b6040513d5f823e3d90fd5b909b506020813d6020116117d5575b816117c560209383611bef565b8101031261053e57519a5f6112d8565b3d91506117b8565b63081169f360e11b5f52600160045260245ffd5b3461053e57604036600319011261053e5761180a6119ba565b6118126119d0565b5f549091906001600160a01b031633036117dd576040516370a0823160e01b81523060048201526001600160a01b039190911690602081602481855afa90811561179e575f916118f2575b508015159182611886575b5050905061187257005b63081169f360e11b5f52603260045260245ffd5b60405163a9059cbb60e01b81526001600160a01b03949094166004850152602484019190915260209150829060449082905f905af190811561179e575f916118d3575b5015808280611868565b6118ec915060203d602011610c2157610c128183611bef565b816118c9565b90506020813d60201161191c575b8161190d60209383611bef565b8101031261053e57518361185d565b3d9150611900565b3461053e57606036600319011261053e5761193d6119ba565b6119456119d0565b5f546001600160a01b031633036117dd5763a9059cbb60e01b83526001600160a01b039081166004840152604480356024850152602092849283915f91165af190811561179e575f9161199b575b501561187257005b6119b4915060203d602011610c2157610c128183611bef565b81611993565b600435906001600160a01b038216820361053e57565b602435906001600160a01b038216820361053e57565b61018090600319011261053e576004356001600160a01b038116810361053e57906024356001600160a01b038116810361053e57906044356001600160a01b038116810361053e57906064356001600160a01b038116810361053e57906084356001600160a01b038116810361053e579060a4356001600160a01b038116810361053e579060c4356001600160a01b038116810361053e579060e4356001600160a01b038116810361053e5790610104356001600160a01b038116810361053e5790610124356001600160a01b038116810361053e579061014435906101643590565b606090600319011261053e57600435906024359060443590565b61012090600319011261053e576004356001600160a01b038116810361053e57906024356001600160a01b038116810361053e57906044356001600160a01b038116810361053e57906064356001600160a01b038116810361053e57906084356001600160a01b038116810361053e579060a4356001600160a01b038116810361053e579060c4356001600160a01b038116810361053e579060e435906101043590565b6060810190811067ffffffffffffffff821117611ba357604052565b634e487b7160e01b5f52604160045260245ffd5b6080810190811067ffffffffffffffff821117611ba357604052565b60a0810190811067ffffffffffffffff821117611ba357604052565b90601f8019910116810190811067ffffffffffffffff821117611ba357604052565b9081602091031261053e5751801515810361053e5790565b81810392915f138015828513169184121617611c4157565b634e487b7160e01b5f52601160045260245ffd5b67ffffffffffffffff8111611ba35760051b60200190565b805115611c7a5760200190565b634e487b7160e01b5f52603260045260245ffd5b805160011015611c7a5760400190565b805160021015611c7a5760600190565b805160031015611c7a5760800190565b805160041015611c7a5760a00190565b60208183031261053e5780519067ffffffffffffffff821161053e57019080601f8301121561053e578151611d0281611c55565b92611d106040519485611bef565b81845260208085019260051b82010192831161053e57602001905b828210611d385750505090565b8151815260209182019101611d2b565b90602080835192838152019201905f5b818110611d655750505090565b82516001600160a01b0316845260209384019390920191600101611d58565b9493929161012086015f87526101206020880152825180915261014087019060206101408260051b8a01019401915f905b828210611e4b575050505081611dd49187606094036040890152611d48565b82516001600160a01b039081168784015260208085015115156080890152604085015190911660a08801529190920151151560c086015284820360e086015282518083529181019201905f5b818110611e3557505050916101005f19910152565b8251845260209384019390920191600101611e20565b9091929460208060c06001938d61013f199082030186528260808b518051845282810151838501526040810151604085015260608101516060850152015160a0608084015280519182918260a0860152018484015e5f828201840152601f01601f1916010197019493919091019101611db5565b9080601f8301121561053e578151611ed681611c55565b92611ee46040519485611bef565b81845260208085019260051b82010192831161053e57602001905b828210611f0c5750505090565b8151815260209182019101611eff565b9060208282031261053e57815167ffffffffffffffff811161053e57611f429201611ebf565b90565b91611f669194939483525f602084015260a0604084015260a0830190611d48565b6001600160a01b0390931660608201525f19608090910152565b80156125fd57604051636eb1769f60e11b815230600482015273ba12222222228d8ba445958a75a0704d566bf2c860248201526020816044815f5160206136a25f395f51905f525afa90811561179e575f916125cb575b50600181016124e3575b50611fea61343b565b90604051916080611ffb8185611bef565b60038452601f19015f5b8181106124ad5750505f906040519361201d85611bd3565b7f40d2cbc586dd8df50001cdba3f65cd4bbc32d5960002000000000000000001548552826020860152600360408601528360608601526020946040516120638782611bef565b848152608082015261207482611c6d565b5261207e81611c6d565b5060405161208b81611bd3565b7f480d4f66cc41a1b6784a53a10890e5ece31d75c000020000000000000000014e8152600386820152600460408201528360608201526040516120ce8782611bef565b84815260808201526120df82611c8e565b526120e981611c8e565b506040516120f681611bd3565b7fa99fd9950b5d5dceeaf4939e221dca8ca9b938ab0001000000000000000000258152600486820152600260408201528360608201526040516121398782611bef565b848152608082015261214a82611c9e565b5261215481611c9e565b506040519361216460c086611bef565b6005855260a0368787013761217885611c6d565b526121b86040519461218986611bb7565b3086528487870152306040870152846060870152604051958694859463945bcec960e01b865260048601611d84565b03818373ba12222222228d8ba445958a75a0704d566bf2c85af1801561179e5761248d575b506040516370a0823160e01b81523060048201529080826024815f5160206136825f395f51905f525afa91821561179e575f9261245e575b50811561244a57604051636eb1769f60e11b815230600482015273e43e60736b1cb4a75ad25240e2f9a62bff65c0c0602482015281816044815f5160206136825f395f51905f525afa90811561179e575f9161241d575b506001810161232a575b506122e5915f916040519061228c606083611bef565b6002825260409036908301375f5160206136825f395f51905f526122af82611c6d565b525f5160206136625f395f51905f526122c782611c8e565b526040516338ed173960e01b81529384928392309160048501611f45565b03818373e43e60736b1cb4a75ad25240e2f9a62bff65c0c05af1801561179e5761230c5750565b612327903d805f833e61231f8183611bef565b810190611f1c565b50565b6123ac575b60405163095ea7b360e01b815273e43e60736b1cb4a75ad25240e2f9a62bff65c0c060048201525f1960248201529181836044815f5f5160206136825f395f51905f525af191821561179e576122e5935f9361238f575b50915091612276565b6123a590823d8411610c2157610c128183611bef565b505f612386565b60405163095ea7b360e01b815273e43e60736b1cb4a75ad25240e2f9a62bff65c0c060048201525f602482015281816044815f5f5160206136825f395f51905f525af1801561179e57612400575b5061232f565b61241690823d8411610c2157610c128183611bef565b505f6123fa565b90508181813d8311612443575b6124348183611bef565b8101031261053e57515f61226c565b503d61242a565b63081169f360e11b5f52600360045260245ffd5b9080925081813d8311612486575b6124768183611bef565b8101031261053e5751905f612215565b503d61246c565b6124a8903d805f833e6124a08183611bef565b810190611cce565b6121dd565b6020906040516124bc81611bd3565b5f81525f838201525f60408201525f60608201526060608082015282828801015201612005565b612557575b60405163095ea7b360e01b815273ba12222222228d8ba445958a75a0704d566bf2c860048201525f1960248201526020816044815f5f5160206136a25f395f51905f525af1801561179e5715611fe1576125509060203d602011610c2157610c128183611bef565b505f611fe1565b60405163095ea7b360e01b815273ba12222222228d8ba445958a75a0704d566bf2c860048201525f60248201526020816044815f5f5160206136a25f395f51905f525af1801561179e576125ac575b506124e8565b6125c49060203d602011610c2157610c128183611bef565b505f6125a6565b90506020813d6020116125f5575b816125e660209383611bef565b8101031261053e57515f611fd7565b3d91506125d9565b63081169f360e11b5f52600260045260245ffd5b80156125fd57604051636eb1769f60e11b815230600482015273e43e60736b1cb4a75ad25240e2f9a62bff65c0c060248201526020816044815f5160206136625f395f51905f525afa90811561179e575f91612cf1575b5060018101612c09575b506126c55f6060926040516126878582611bef565b60028152601f1985013660208301375f5160206136625f395f51905f526126ad82611c6d565b525f5160206136825f395f51905f526122c782611c8e565b03818373e43e60736b1cb4a75ad25240e2f9a62bff65c0c05af1801561179e57612bf1575b506040516370a0823160e01b81523060048201526020816024815f5160206136825f395f51905f525afa90811561179e575f91612bbf575b50801561244a57604051636eb1769f60e11b815230600482015273ba12222222228d8ba445958a75a0704d566bf2c860248201526020816044815f5160206136825f395f51905f525afa90811561179e575f91612b8d575b5060018101612aa5575b5061278d61343b565b604051600183901c9360c06127a28184611bef565b60058352601f19015f5b818110612a71575050604051946127c286611bd3565b7f7e5870ac540adfd01a213c829f2231c309623eb10002000000000000000000e98652600260208701526001604087015280828701526020956040516128088882611bef565b5f8152608082015261281984611c6d565b5261282383611c6d565b5060405161283081611bd3565b7fa91c413d8516164868f6cca19573fe38f88f598200020000000000000000015781526001878201525f60408201525f838201526040516128718882611bef565b5f8152608082015261288284611c8e565b5261288c83611c8e565b50840393808511611c41575f612a37928196604051906128ab82611bd3565b7fa99fd9950b5d5dceeaf4939e221dca8ca9b938ab000100000000000000000025825260028a83015260046040830152828201526040516128ec8a82611bef565b83815260808201526128fd86611c9e565b5261290785611c9e565b5060405161291481611bd3565b7f480d4f66cc41a1b6784a53a10890e5ece31d75c000020000000000000000014e81526004898201526003604082015282828201526040516129568a82611bef565b838152608082015261296786611cae565b5261297185611cae565b5060405161297e81611bd3565b7f40d2cbc586dd8df50001cdba3f65cd4bbc32d596000200000000000000000154815260038982015282604082015282828201526040516129bf8a82611bef565b83815260808201526129d086611cbe565b526129da85611cbe565b50604051926129ea60c085611bef565b6005845260a0368a8601376129fe84611c9e565b528160405198612a0d8a611bb7565b308a52890152306040890152870152604051958694859463945bcec960e01b865260048601611d84565b03818373ba12222222228d8ba445958a75a0704d566bf2c85af1801561179e57612a5e5750565b612327903d805f833e6124a08183611bef565b602090604051612a8081611bd3565b5f81525f838201525f60408201525f85820152846080820152828287010152016127ac565b612b19575b60405163095ea7b360e01b815273ba12222222228d8ba445958a75a0704d566bf2c860048201525f1960248201526020816044815f5f5160206136825f395f51905f525af1801561179e571561278457612b129060203d602011610c2157610c128183611bef565b505f612784565b60405163095ea7b360e01b815273ba12222222228d8ba445958a75a0704d566bf2c860048201525f60248201526020816044815f5f5160206136825f395f51905f525af1801561179e57612b6e575b50612aaa565b612b869060203d602011610c2157610c128183611bef565b505f612b68565b90506020813d602011612bb7575b81612ba860209383611bef565b8101031261053e57515f61277a565b3d9150612b9b565b90506020813d602011612be9575b81612bda60209383611bef565b8101031261053e57515f612722565b3d9150612bcd565b612c04903d805f833e61231f8183611bef565b6126ea565b612c7d575b60405163095ea7b360e01b815273e43e60736b1cb4a75ad25240e2f9a62bff65c0c060048201525f1960248201526020816044815f5f5160206136625f395f51905f525af1801561179e571561267257612c769060203d602011610c2157610c128183611bef565b505f612672565b60405163095ea7b360e01b815273e43e60736b1cb4a75ad25240e2f9a62bff65c0c060048201525f60248201526020816044815f5f5160206136625f395f51905f525af1801561179e57612cd2575b50612c0e565b612cea9060203d602011610c2157610c128183611bef565b505f612ccc565b90506020813d602011612d1b575b81612d0c60209383611bef565b8101031261053e57515f612668565b3d9150612cff565b60408051909190612d348382611bef565b6001815291601f1901825f5b828110612d4c57505050565b602090604051612d5b81611bb7565b5f81526060838201525f60408201525f606082015282828501015201612d40565b60408051909190612d8d8382611bef565b6001815291601f1901825f5b828110612da557505050565b602090604051612db481611b87565b5f81525f838201525f604082015282828501015201612d99565b9160608383031261053e57825167ffffffffffffffff811161053e5782612df6918501611ebf565b92602081015167ffffffffffffffff811161053e57810183601f8201121561053e578051612e2381611c55565b91612e316040519384611bef565b81835260208084019260051b8201019086821161053e57602001915b818310612e765750505092604082015167ffffffffffffffff811161053e57611f429201611ebf565b82516001600160a01b038116810361053e57815260209283019201612e4d565b91906080830160808452815180915260a0840190602060a08260051b8701019301915f905b828210612ee55750505050602091925f19838201525f604082015260608183039101525f81520190565b90919293609f19878203018252845190608081019160018060a01b038151168252602081015192608060208401528351809152602060a084019401905f905b808210612f53575050506040808201519083015260609081015191015293602090810193926001019101612ebb565b9091946020606060019260408951858060a01b038151168352858060a01b03858201511685840152015115156040820152019601920190612f24565b604051636eb1769f60e11b81523060048201526001600160a01b0390911660248201819052906020816044815f5160206136a25f395f51905f525afa90811561179e575f916130a3575b5060018101612fe6575050565b613043575b60405163095ea7b360e01b815260048101919091525f1960248201526020816044815f5f5160206136a25f395f51905f525af1801561179e5761302b5750565b6123279060203d602011610c2157610c128183611bef565b60405163095ea7b360e01b81528160048201525f60248201526020816044815f5f5160206136a25f395f51905f525af1801561179e57613084575b50612feb565b61309c9060203d602011610c2157610c128183611bef565b505f61307e565b90506020813d6020116130cd575b816130be60209383611bef565b8101031261053e57515f612fd9565b3d91506130b1565b604051636eb1769f60e11b81523060048201526e22d473030f116ddee9f6b43ac78ba360248201526001600160a01b039190911690602081604481855afa90811561179e575f916131df575b506001810161312e575050565b613175575b60205f9160446040518094819363095ea7b360e01b83526e22d473030f116ddee9f6b43ac78ba36004840152811960248401525af1801561179e5761302b5750565b6040519063095ea7b360e01b82526e22d473030f116ddee9f6b43ac78ba360048301525f60248301526020826044815f855af190811561179e575f926020926131c2575b50915050613133565b6131d890833d8511610c2157610c128183611bef565b505f6131b9565b90506020813d602011613209575b816131fa60209383611bef565b8101031261053e57515f613121565b3d91506131ed565b604051636eb1769f60e11b81523060048201526001600160a01b0392831660248201819052929190911690602081604481855afa90811561179e575f916132f9575b506001810161326157505050565b61329a575b60209060445f93604051948593849263095ea7b360e01b84526004840152811960248401525af1801561179e5761302b5750565b6040519063095ea7b360e01b82528260048301525f60248301526020826044815f855af1801561179e575f936020936044926132dc575b509350509050613266565b6132f290853d8711610c2157610c128183611bef565b505f6132d1565b90506020813d602011613323575b8161331460209383611bef565b8101031261053e57515f613253565b3d9150613307565b91908315613433576001600160a01b03166133468382613211565b60405160e0810181811067ffffffffffffffff821117611ba35760409081529181526001600160a01b039283166020828101918252308385019081524260608501908152608085019889525f60a0860181815260c08701828152975163178ca23160e31b815296518916600488015294518816602487015291518716604486015251606485015296516084840152905160a48301529151831660c4820152939092849260e49284929091165af190811561179e575f91613404575090565b90506020813d60201161342b575b8161341f60209383611bef565b8101031261053e575190565b3d9150613412565b505050505f90565b6040519061344a60c083611bef565b6005825260a0366020840137739c58bacc331c9aa871afd802db6379a98e80cedb6134e2835f5160206136a25f395f51905f5261348682611c6d565b5273c0d871bd13ebdf5c4ff059d8243fb38210608bd66134a582611c8e565b525f5160206136825f395f51905f526134bd82611c9e565b5273e0ed85f76d9c552478929fab44693e03f0899f236134dc82611cae565b52611cbe565b52565b6040516370a0823160e01b81523060048201526001600160a01b0390921692909190602082602481875afa91821561179e575f9261362d575b506040516370a0823160e01b8152306004820152906001600160a01b0316602082602481845afa91821561179e575f926135f9575b50821515806135f0575b613569575b5050505050565b6109f0846135839481948082105f14610aa3575096613211565b6001600160a01b031690813b1561053e575f91606483926040519485938492637abef8d160e01b84528260048501525f5160206136a25f395f51905f52602485015260448401525af1801561179e576135e0575b80808080613562565b5f6135ea91611bef565b5f6135d7565b5081151561355d565b9091506020813d602011613625575b8161361560209383611bef565b8101031261053e5751905f613553565b3d9150613608565b9091506020813d602011613659575b8161364960209383611bef565b8101031261053e5751905f61351e565b3d915061363c56fe00000000000000000000000037b60f4e9a31a64ccc0024dce7d0fd07eaa0f7b30000000000000000000000006a023ccd1ff6f2045c3309768ead9e68f978f6e1000000000000000000000000af204776c7245bf4147c2612bf6e5972ee483701a2646970667358221220aa2521f41475a6e1aa852ee4ad8d4cac3adf88ccdc46b1c5849f174c4d32b33064736f6c63430008210033","linkReferences":{}},"methodIdentifiers":{"buyPnkWithSdai(uint256,uint256,uint256)":"ce12e70d","buy_conditional_arbitrage_balancer(address,address,address,address,address,address,address,address,address,address,uint256,int256)":"fc77fbe5","buy_conditional_arbitrage_pnk(address,address,address,address,address,address,address,uint256,int256)":"dcab7719","owner()":"8da5cb5b","sellPnkForSdai(uint256,uint256,uint256)":"ea9f3f09","sell_conditional_arbitrage_balancer(address,address,address,address,address,address,address,address,address,address,uint256,int256)":"28c4be6e","sell_conditional_arbitrage_pnk(address,address,address,address,address,address,address,uint256,int256)":"f4067dc1","sweepToken(address,address)":"258836fe","transferOwnership(address)":"f2fde38b","withdrawETH(address,uint256)":"4782f779","withdrawToken(address,address,uint256)":"01e33667"},"id":0}