{"abi":[{"type":"constructor","inputs":[],"stateMutability":"nonpayable"},{"type":"receive","stateMutability":"payable"},{"type":"function","name":"buyPnkWithSdai","inputs":[{"name":"amountSdaiIn","type":"uint256","internalType":"uint256"},{"name":"minWethOut","type":"uint256","internalType":"uint256"},{"name":"minPnkOut","type":"uint256","internalType":"uint256"}],"outputs":[],"stateMutability":"nonpayable"},{"type":"function","name":"buy_conditional_arbitrage_balancer","inputs":[{"name":"sell_company_ops","type":"bytes","internalType":"bytes"},{"name":"balancer_router","type":"address","internalType":"address"},{"name":"balancer_vault","type":"address","internalType":"address"},{"name":"comp","type":"address","internalType":"address"},{"name":"cur","type":"address","internalType":"address"},{"name":"yes_has_higher_price","type":"bool","internalType":"bool"},{"name":"futarchy_router","type":"address","internalType":"address"},{"name":"proposal","type":"address","internalType":"address"},{"name":"yes_comp","type":"address","internalType":"address"},{"name":"no_comp","type":"address","internalType":"address"},{"name":"yes_cur","type":"address","internalType":"address"},{"name":"no_cur","type":"address","internalType":"address"},{"name":"yes_pool","type":"address","internalType":"address"},{"name":"no_pool","type":"address","internalType":"address"},{"name":"swapr_router","type":"address","internalType":"address"},{"name":"amount_sdai_in","type":"uint256","internalType":"uint256"},{"name":"min_out_final","type":"int256","internalType":"int256"}],"outputs":[],"stateMutability":"nonpayable"},{"type":"function","name":"buy_conditional_arbitrage_pnk","inputs":[{"name":"comp","type":"address","internalType":"address"},{"name":"cur","type":"address","internalType":"address"},{"name":"yes_has_higher_price","type":"bool","internalType":"bool"},{"name":"futarchy_router","type":"address","internalType":"address"},{"name":"proposal","type":"address","internalType":"address"},{"name":"yes_comp","type":"address","internalType":"address"},{"name":"no_comp","type":"address","internalType":"address"},{"name":"yes_cur","type":"address","internalType":"address"},{"name":"no_cur","type":"address","internalType":"address"},{"name":"yes_pool","type":"address","internalType":"address"},{"name":"no_pool","type":"address","internalType":"address"},{"name":"swapr_router","type":"address","internalType":"address"},{"name":"amount_sdai_in","type":"uint256","internalType":"uint256"},{"name":"min_out_final","type":"int256","internalType":"int256"}],"outputs":[],"stateMutability":"nonpayable"},{"type":"function","name":"owner","inputs":[],"outputs":[{"name":"","type":"address","internalType":"address"}],"stateMutability":"view"},{"type":"function","name":"sellPnkForSdai","inputs":[{"name":"amountPnkIn","type":"uint256","internalType":"uint256"},{"name":"minWethOut","type":"uint256","internalType":"uint256"},{"name":"minSdaiOut","type":"uint256","internalType":"uint256"}],"outputs":[],"stateMutability":"nonpayable"},{"type":"function","name":"sell_conditional_arbitrage_balancer","inputs":[{"name":"buy_company_ops","type":"bytes","internalType":"bytes"},{"name":"balancer_router","type":"address","internalType":"address"},{"name":"balancer_vault","type":"address","internalType":"address"},{"name":"comp","type":"address","internalType":"address"},{"name":"cur","type":"address","internalType":"address"},{"name":"futarchy_router","type":"address","internalType":"address"},{"name":"proposal","type":"address","internalType":"address"},{"name":"yes_comp","type":"address","internalType":"address"},{"name":"no_comp","type":"address","internalType":"address"},{"name":"yes_cur","type":"address","internalType":"address"},{"name":"no_cur","type":"address","internalType":"address"},{"name":"swapr_router","type":"address","internalType":"address"},{"name":"amount_sdai_in","type":"uint256","internalType":"uint256"},{"name":"min_out_final","type":"int256","internalType":"int256"}],"outputs":[],"stateMutability":"nonpayable"},{"type":"function","name":"sell_conditional_arbitrage_pnk","inputs":[{"name":"buy_company_ops","type":"bytes","internalType":"bytes"},{"name":"balancer_router","type":"address","internalType":"address"},{"name":"balancer_vault","type":"address","internalType":"address"},{"name":"comp","type":"address","internalType":"address"},{"name":"cur","type":"address","internalType":"address"},{"name":"futarchy_router","type":"address","internalType":"address"},{"name":"proposal","type":"address","internalType":"address"},{"name":"yes_comp","type":"address","internalType":"address"},{"name":"no_comp","type":"address","internalType":"address"},{"name":"yes_cur","type":"address","internalType":"address"},{"name":"no_cur","type":"address","internalType":"address"},{"name":"swapr_router","type":"address","internalType":"address"},{"name":"amount_sdai_in","type":"uint256","internalType":"uint256"},{"name":"min_out_final","type":"int256","internalType":"int256"}],"outputs":[],"stateMutability":"nonpayable"},{"type":"function","name":"sweepToken","inputs":[{"name":"token","type":"address","internalType":"contract IERC20"},{"name":"to","type":"address","internalType":"address"}],"outputs":[],"stateMutability":"nonpayable"},{"type":"function","name":"transferOwnership","inputs":[{"name":"newOwner","type":"address","internalType":"address"}],"outputs":[],"stateMutability":"nonpayable"},{"type":"function","name":"withdrawETH","inputs":[{"name":"to","type":"address","internalType":"address payable"},{"name":"amount","type":"uint256","internalType":"uint256"}],"outputs":[],"stateMutability":"nonpayable"},{"type":"function","name":"withdrawToken","inputs":[{"name":"token","type":"address","internalType":"contract IERC20"},{"name":"to","type":"address","internalType":"address"},{"name":"amount","type":"uint256","internalType":"uint256"}],"outputs":[],"stateMutability":"nonpayable"},{"type":"event","name":"BalancerBuyExecuted","inputs":[{"name":"router","type":"address","indexed":true,"internalType":"address"},{"name":"buyOps","type":"bytes","indexed":false,"internalType":"bytes"}],"anonymous":false},{"type":"event","name":"BalancerSellExecuted","inputs":[{"name":"router","type":"address","indexed":true,"internalType":"address"},{"name":"sellOps","type":"bytes","indexed":false,"internalType":"bytes"}],"anonymous":false},{"type":"event","name":"CompositeAcquired","inputs":[{"name":"comp","type":"address","indexed":true,"internalType":"address"},{"name":"amount","type":"uint256","indexed":false,"internalType":"uint256"}],"anonymous":false},{"type":"event","name":"CompositeSplitAttempted","inputs":[{"name":"comp","type":"address","indexed":true,"internalType":"address"},{"name":"amount","type":"uint256","indexed":false,"internalType":"uint256"},{"name":"ok","type":"bool","indexed":false,"internalType":"bool"}],"anonymous":false},{"type":"event","name":"ConditionalCollateralMerged","inputs":[{"name":"router","type":"address","indexed":true,"internalType":"address"},{"name":"proposal","type":"address","indexed":true,"internalType":"address"},{"name":"collateral","type":"address","indexed":true,"internalType":"address"},{"name":"amount","type":"uint256","indexed":false,"internalType":"uint256"}],"anonymous":false},{"type":"event","name":"ConditionalCollateralSplit","inputs":[{"name":"router","type":"address","indexed":true,"internalType":"address"},{"name":"proposal","type":"address","indexed":true,"internalType":"address"},{"name":"collateral","type":"address","indexed":true,"internalType":"address"},{"name":"amount","type":"uint256","indexed":false,"internalType":"uint256"}],"anonymous":false},{"type":"event","name":"InitialCollateralSnapshot","inputs":[{"name":"collateral","type":"address","indexed":true,"internalType":"address"},{"name":"balance","type":"uint256","indexed":false,"internalType":"uint256"}],"anonymous":false},{"type":"event","name":"MaxAllowanceEnsured","inputs":[{"name":"token","type":"address","indexed":true,"internalType":"address"},{"name":"spender","type":"address","indexed":true,"internalType":"address"},{"name":"allowance","type":"uint256","indexed":false,"internalType":"uint256"}],"anonymous":false},{"type":"event","name":"OwnershipTransferred","inputs":[{"name":"previousOwner","type":"address","indexed":true,"internalType":"address"},{"name":"newOwner","type":"address","indexed":true,"internalType":"address"}],"anonymous":false},{"type":"event","name":"Permit2AllowanceEnsured","inputs":[{"name":"token","type":"address","indexed":true,"internalType":"address"},{"name":"spender","type":"address","indexed":true,"internalType":"address"},{"name":"amount","type":"uint160","indexed":false,"internalType":"uint160"},{"name":"expiration","type":"uint48","indexed":false,"internalType":"uint48"}],"anonymous":false},{"type":"event","name":"ProfitVerified","inputs":[{"name":"initialBalance","type":"uint256","indexed":false,"internalType":"uint256"},{"name":"finalBalance","type":"uint256","indexed":false,"internalType":"uint256"},{"name":"minProfit","type":"int256","indexed":false,"internalType":"int256"}],"anonymous":false},{"type":"event","name":"SwaprExactInExecuted","inputs":[{"name":"router","type":"address","indexed":true,"internalType":"address"},{"name":"tokenIn","type":"address","indexed":true,"internalType":"address"},{"name":"tokenOut","type":"address","indexed":true,"internalType":"address"},{"name":"amountIn","type":"uint256","indexed":false,"internalType":"uint256"},{"name":"amountOut","type":"uint256","indexed":false,"internalType":"uint256"}],"anonymous":false},{"type":"event","name":"SwaprExactOutExecuted","inputs":[{"name":"router","type":"address","indexed":true,"internalType":"address"},{"name":"tokenIn","type":"address","indexed":true,"internalType":"address"},{"name":"tokenOut","type":"address","indexed":true,"internalType":"address"},{"name":"amountOut","type":"uint256","indexed":false,"internalType":"uint256"},{"name":"amountIn","type":"uint256","indexed":false,"internalType":"uint256"}],"anonymous":false},{"type":"error","name":"ApproveFailed","inputs":[]},{"type":"error","name":"ApproveResetFailed","inputs":[]},{"type":"error","name":"ApproveSetFailed","inputs":[]},{"type":"error","name":"BalanceTooLarge","inputs":[]},{"type":"error","name":"BalancerSwapFailed","inputs":[]},{"type":"error","name":"CompositeSplitFailed","inputs":[]},{"type":"error","name":"EthSendFailed","inputs":[]},{"type":"error","name":"InsufficientBalance","inputs":[]},{"type":"error","name":"InsufficientOutput","inputs":[]},{"type":"error","name":"InvalidComp","inputs":[]},{"type":"error","name":"InvalidPaths","inputs":[]},{"type":"error","name":"MinProfitNotMet","inputs":[]},{"type":"error","name":"NoBalance","inputs":[]},{"type":"error","name":"NotOwner","inputs":[]},{"type":"error","name":"RouterOrProposalZero","inputs":[]},{"type":"error","name":"SwapReturnedZero","inputs":[]},{"type":"error","name":"TokenAddressZero","inputs":[]},{"type":"error","name":"TransferFailed","inputs":[]},{"type":"error","name":"ZeroAddress","inputs":[]},{"type":"error","name":"ZeroAmount","inputs":[]}],"bytecode":{"object":"0x60808060405234604d575f80546001600160a01b031916339081178255907f8be0079c531659141344cd1fd0a4f28419497f9722a3daafe3b4186f6b6457e08180a361561890816100528239f35b5f80fdfe61014080604052600436101561001d575b50361561001b575f80fd5b005b5f610100525f3560e01c90816301e33667146135c457508063258836fe146134875780634782f779146134115780638da5cb5b146133ea578063ce12e70d146130a5578063d4b21c33146128d9578063de309fc314611a78578063de57a0ae14611252578063e7610d68146106c9578063ea9f3f09146101665763f2fde38b146100a7575f610010565b3461015f57602036600319011261015f576100c0613649565b61010051546001600160a01b038116913383900361014a576001600160a01b03169182156101355782907f8be0079c531659141344cd1fd0a4f28419497f9722a3daafe3b4186f6b6457e06101005161010051a36bffffffffffffffffffffffff60a01b161761010051556101005161010051f35b63d92e233d60e01b6101005152600461010051fd5b6330cd747160e01b6101005152600461010051fd5b6101005180fd5b3461015f576101743661373d565b6101005154919290916001600160a01b0316330361014a5780156106b45761019a6145bf565b61020f606091604051906101ae84836138f4565b60028252601f1984013660208401375f5160206154e35f395f51905f526101d483613a03565b525f5160206155035f395f51905f526101ec83613a24565b52604051809381926338ed173960e01b8352610100519489309260048601613deb565b0381610100515f5160206155c35f395f51905f525af180156105f057610691575b506040516370a0823160e01b8152306004820152926020846024815f5160206155035f395f51905f525afa9384156105f057610100519461065d575b5083156105a9578015159081610653575b5061058a5761028a614800565b610292615411565b9261029b613b44565b8160011c92838303838111610639576020946040516102ba87826138f4565b610100518152604051916102cd836138d9565b7f7e5870ac540adfd01a213c829f2231c309623eb10002000000000000000000e983526002888401526001604084015284830152608082015261030f84613a03565b5261031983613a03565b5060405161032786826138f4565b6101005181526040519061033a826138d9565b7fa91c413d8516164868f6cca19573fe38f88f598200020000000000000000015782526001878301526101005160408301526101005184830152608082015261038284613a24565b5261038c83613a24565b5060405161039a86826138f4565b610100518152604051916103ad836138d9565b5f5160206155235f395f51905f528352600287840152600460408401528383015260808201526103dc83613a34565b526103e682613a34565b506040516103f485826138f4565b61010051815260405190610407826138d9565b5f5160206155635f395f51905f528252600486830152600360408301526101005183830152608082015261043a83613a44565b5261044482613a44565b5060405161045285826138f4565b61010051815260405190610465826138d9565b5f5160206155435f395f51905f5282526003868301526101005160408301526101005183830152608082015261049a83613a54565b526104a482613a54565b506104af8651613ba3565b926104b984613a34565b528415159586610621575b604051916104d1836138aa565b3083526101005186840152306040840152610100519083015261050d604051948593849363945bcec960e01b8552610100519660048601613c9a565b0381610100515f5160206155a35f395f51905f525af180156105f0576105fe575b506040516370a0823160e01b8152306004820152818160248173af204776c7245bf4147c2612bf6e5972ee4837015afa9182156105f05761010051926105be575b505080156105a9578261059f575b505061058a576101005180f35b63bb2875c360e01b6101005152600461010051fd5b109050818061057d565b636165515360e11b6101005152600461010051fd5b90809250813d83116105e9575b6105d581836138f4565b810103126105e55751838061056f565b5f80fd5b503d6105cb565b6040513d61010051823e3d90fd5b61061c903d8061010051833e61061481836138f4565b810190613be5565b61052e565b61062a86613bd5565b61063385613a03565b526104c4565b634e487b7160e01b61010051526011600452602461010051fd5b905083108461027d565b9093506020813d602011610689575b81610679602093836138f4565b810103126105e55751928461026c565b3d915061066c565b6106af903d8061010051833e6106a781836138f4565b810190613dc3565b610230565b631f2a200560e01b6101005152600461010051fd5b3461015f576106d736613784565b9d509b5095939950969190975060018060a01b03610100515416330361014a576040516370a0823160e01b81523060048201529860208a6024816001600160a01b038b165afa998a156105f057610100519a61121e575b506040518a81526001600160a01b038816907fb2f03ce105b3cd1f9fccfa1de78c921cd3ad2f01048d3a832c7ebb893fd347b990602090a28a156106b4577337b60f4e9a31a64ccc0024dce7d0fd07eaa0f7b2196001600160a01b03841601611209576001600160a01b0384161580159390846111f8575b6111e3576001600160a01b0388161580156111d2575b80156111c1575b610135576001600160a01b038a161580156111b0575b801561119f575b61118a576107ec614113565b6107f4615411565b9b6107fd613ae5565b6020809e60405161080e83826138f4565b61010051815260405190610821826138d9565b5f5160206155435f395f51905f528252610100518483015260036040830152856060830152608082015261085484613a03565b5261085e83613a03565b5060405161086c83826138f4565b6101005181526040519061087f826138d9565b5f5160206155635f395f51905f5282526003848301526004604083015261010051606083015260808201526108b384613a24565b526108bd83613a24565b506040516108cb83826138f4565b610100518152604051906108de826138d9565b5f5160206155235f395f51905f52825260048483015260026040830152610100516060830152608082015261091284613a34565b5261091c83613a34565b506109278151613ba3565b9361093185613a03565b526040519161093f836138aa565b308352610100519083015230604083015261010051606083015261097c604051948593849363945bcec960e01b8552610100519660048601613c9a565b0381610100515f5160206155a35f395f51905f525af180156105f05761116f575b506040516370a0823160e01b81523060048201528c816024815f5160206155035f395f51905f525afa9081156105f0576101005191611142575b5080156105a9576101005161058a575f610a5e918e6109f461437e565b60405190610a036060836138f4565b6002825260409036908301375f5160206155035f395f51905f52610a2682613a03565b525f5160206154e35f395f51905f52610a3e82613a24565b526040516338ed173960e01b815293849283923091869060048601613deb565b0381835f5160206155c35f395f51905f525af1801561105357611128575b506040516370a0823160e01b8152306004820152908c826024816001600160a01b0385165afa918215611053575f926110f9575b506040518281526001600160a01b038216907f7ea2559d46b5ca1045280b94e6bd226dc4c60c15c514f72d0fc10c788c80822d908f90a281156110ea578c85806110d8575b1561105e5750610b0e866001600160a01b038316614a41565b6001600160a01b0386163b156105e5576040516301abf04560e71b8152915f9183918291610b4191908b6004850161399e565b0381836001600160a01b038a165af180156110535761103e575b505b6040516370a0823160e01b81523060048201528b816024816001600160a01b0386165afa9081156105f0576101005191611011575b508981610ffe575b50506040516370a0823160e01b815230600482015290508a816024816001600160a01b0386165afa9081156105f0576101005191610fd1575b508781610fbe575b50505080610fac575b610e09575b50506040516370a0823160e01b815230600482015286816024816001600160a01b0389165afa9081156105f0576101005191610ddc575b506040516370a0823160e01b81523060048201529387856024816001600160a01b0385165afa9081156105f05788956101005192610dab575b50602496859290918415610d85575050610c7293614c2f565b505b6040516370a0823160e01b815230600482015292839182906001600160a01b03165afa9283156105f0576101005193610d55575b50506001600160ff1b0382118015610d45575b610d305782610cca82846139c0565b12610d1b57610d117f318296ace369901373a62c2153c5e87356175630ec782af9e8b7c9385f3d1e8093604051938493846040919493926060820195825260208201520152565b0390a16101005180f35b63d433008b60e01b6101005152600461010051fd5b630748aac760e11b6101005152600461010051fd5b506001600160ff1b038111610cbb565b9080929350813d8311610d7e575b610d6d81836138f4565b810103126105e55751908380610ca8565b503d610d63565b9150809350610d98575b50505050610c74565b610da193614c2f565b5086808281610d8f565b8092508691963d8311610dd5575b610dc381836138f4565b810103126105e5575187946024610c59565b503d610db9565b90508681813d8311610e02575b610df381836138f4565b810103126105e5575188610c20565b503d610de9565b6040516370a0823160e01b815230600482015288816024816001600160a01b038b165afa9081156105f0576101005191610f7f575b506040516370a0823160e01b81523060048201526001600160a01b03871691908a81602481865afa9081156105f0576101005191610f52575b5080821015610f4a5750905b81610e90575b5050610be9565b610eae908390610ea9826001600160a01b038c16614a41565b614a41565b6001600160a01b0382163b1561015f57604051637abef8d160e01b8152610100518180610ee0858a896004850161399e565b03816101005160018060a01b0388165af180156105f057610f2f575b506040519081526001600160a01b038581169381169216905f5160206155835f395f51905f52908a90a487808080610e89565b61010051610f3c916138f4565b6101005161015f578a610efc565b905090610e83565b90508a81813d8311610f78575b610f6981836138f4565b810103126105e557518c610e77565b503d610f5f565b90508881813d8311610fa5575b610f9681836138f4565b810103126105e557518a610e3e565b503d610f8c565b506001600160a01b0382161515610be4565b610fc89287614c2f565b508a8087610bdb565b90508a81813d8311610ff7575b610fe881836138f4565b810103126105e557518c610bd3565b503d610fde565b6110089288614c2f565b508b8089610b9a565b90508b81813d8311611037575b61102881836138f4565b810103126105e557518d610b92565b503d61101e565b5f611048916138f4565b5f610100528c610b5b565b6040513d5f823e3d90fd5b905f807ff8e6e0bb33e12f1f8e97919c28e4df84e2aebf737d4bf32534deb9e737f228e6936040519081019063dbceb00560e01b8252866024820152602481526110a96044826138f4565b519082855af1906110b8613948565b506040805194855291151560208501526001600160a01b031692a2610b5d565b506001600160a01b0388161515610af5565b636165515360e11b5f5260045ffd5b9091508c81813d8311611121575b61111181836138f4565b810103126105e55751908e610ab0565b503d611107565b61113b903d805f833e6106a781836138f4565b508d610a7c565b90508c81813d8311611168575b61115981836138f4565b810103126105e557518e6109d7565b503d61114f565b611185903d8061010051833e61061481836138f4565b61099d565b6381c609f760e01b6101005152600461010051fd5b506001600160a01b038716156107e0565b506001600160a01b038916156107d9565b506001600160a01b038316156107c3565b506001600160a01b038216156107bc565b6301d7265360e41b6101005152600461010051fd5b506001600160a01b038616156107a6565b6342065b5760e01b6101005152600461010051fd5b9099506020813d60201161124a575b8161123a602093836138f4565b810103126105e55751988c61072e565b3d915061122d565b3461015f576101c036600319011261015f5761126c613649565b61127461365f565b60443591821515830361015f57611289613675565b9161129261368b565b9360a4356001600160a01b038116810361015f576112ae6136a1565b956112b76136b7565b956112c06136cd565b926112c96136e4565b966112d26136fb565b996112db613712565b61010051546101a4359c919891906001600160a01b0316330361014a576040516370a0823160e01b81523060048201529a60208c6024816001600160a01b038f165afa9b8c156105f057610100519c611a44575b5061018435156106b4577337b60f4e9a31a64ccc0024dce7d0fd07eaa0f7b2196001600160a01b03861601611209576001600160a01b038716158015611a33575b6111e3576001600160a01b038b16158015611a22575b8015611a11575b610135576001600160a01b038d16158015611a00575b80156119ef575b61118a576113c1876001600160a01b038d16614a41565b6001600160a01b0387163b1561015f576040516301abf04560e71b81528b81806113f88c610100519461018435916004850161399e565b03816101005160018060a01b038d165af180156105f057888f928e908c936119ca575b5060405161018435815260249460209490936001600160a01b0393841693918216929116907f96b6cd56b43ef9bd81ea4da2f5715eb8e6d0da9999e7cf964ae2932a20e0f0fd908690a46040516370a0823160e01b815230600482015292839182906001600160a01b03165afa9081156105f0576101005191611998575b506101843511611951576040516370a0823160e01b81523060048201526020816024816001600160a01b038e165afa9081156105f0576101005191611966575b506101843511611951576114ef6114f591614dc7565b91614dc7565b9115611922575061150b61018435858d8b614c2f565b90811561190d57611523916101843591848a8c614e57565b505b6040516370a0823160e01b81523060048201526020816024816001600160a01b0388165afa9081156105f05761010051916118db575b506040516370a0823160e01b81523060048201526020816024816001600160a01b0387165afa9081156105f05761010051916118a9575b50808210156118a15750925b836117da575b5050505050506040516370a0823160e01b81523060048201526020816024815f5160206154e35f395f51905f525afa9081156105f05761010051916117a8575b5080611799575b506040516370a0823160e01b8152306004820152906020826024816001600160a01b038a165afa9182156105f0576101005192611765575b506040516370a0823160e01b8152306004820152906020826024816001600160a01b0385165afa9182156105f0576101005192611728575b506024966020959493928592841561170257505061167893614c2f565b505b6040516370a0823160e01b815230600482015293849182906001600160a01b03165afa9182156105f05761010051926116ce575b506001600160ff1b0382118015610d4557610d305782610cca82846139c0565b9091506020813d6020116116fa575b816116ea602093836138f4565b810103126105e5575190836116ae565b3d91506116dd565b9150809350611715575b5050505061167a565b61171e93614c2f565b508580828161170c565b9094939291506020813d60201161175d575b81611747602093836138f4565b810103126105e55751929391929091602461165b565b3d915061173a565b9091506020813d602011611791575b81611781602093836138f4565b810103126105e557519087611623565b3d9150611774565b6117a290615001565b866115eb565b90506020813d6020116117d2575b816117c3602093836138f4565b810103126105e55751876115e4565b3d91506117b6565b6118029185916117f49083906001600160a01b0316614a41565b6001600160a01b0316614a41565b6001600160a01b0383163b1561015f57604051637abef8d160e01b815261010051818061183486868a6004850161399e565b03816101005160018060a01b0389165af180156105f057611886575b506040519182526001600160a01b039081169381169216905f5160206155835f395f51905f5290602090a48680808080806115a4565b61010051611893916138f4565b6101005161015f578a611850565b90509261159e565b90506020813d6020116118d3575b816118c4602093836138f4565b810103126105e557518d611592565b3d91506118b7565b90506020813d602011611905575b816118f6602093836138f4565b810103126105e557518c61155b565b3d91506118e9565b633ecbef8960e01b6101005152600461010051fd5b90506119336101843583898b614c2f565b90811561190d5761194b916101843591868e8c614e57565b50611525565b631e9acf1760e31b6101005152600461010051fd5b90506020813d602011611990575b81611981602093836138f4565b810103126105e557518f6114d9565b3d9150611974565b90506020813d6020116119c2575b816119b3602093836138f4565b810103126105e557518f611499565b3d91506119a6565b925050506119dd915061010051906138f4565b6101005161015f578c88888d5f61141b565b506001600160a01b038a16156113aa565b506001600160a01b038916156113a3565b506001600160a01b0384161561138d565b506001600160a01b03861615611386565b506001600160a01b03881615611370565b909b506020813d602011611a70575b81611a60602093836138f4565b810103126105e557519a8e61132f565b3d9150611a53565b3461015f5761022036600319011261015f576004356001600160401b03811161015f57611aa9903690600401613757565b90611ab261365f565b604435929091906001600160a01b038416840361015f57611ad1613675565b90611ada61368b565b60c05260a43593841515850361015f57611af26136a1565b95611afb6136b7565b90611b046136cd565b91611b0d6136e4565b98611b166136fb565b608052611b21613712565b61018435610120819052909a906001600160a01b038116900361015f576101a435996001600160a01b038b168b0361015f576101c4359a6001600160a01b038c168c0361015f5761010051546001600160a01b0316330361014a576040516370a0823160e01b815230600482015260c051602090829060249082906001600160a01b03165afa60e05260e051156105f0576101005160a05260e0516128a6575b506101e435156106b4576001600160a01b038416158015612895575b6111e35760c0516001600160a01b0316158015612884575b8015612873575b610135576080516001600160a01b0316158015612862575b8015612851575b61118a5760c051611c369085906001600160a01b0316614a41565b6001600160a01b0384163b1561015f576040516301abf04560e71b8152610100518180611c6d6101e43560c0518b6004850161399e565b03816101005160018060a01b038a165af180156105f057612836575b506040516101e435815260c0516001600160a01b0390811691878216918716907f96b6cd56b43ef9bd81ea4da2f5715eb8e6d0da9999e7cf964ae2932a20e0f0fd90602090a46040516370a0823160e01b8152306004820152608051602090829060249082906001600160a01b03165afa9081156105f0576101005191612804575b506101e4351161195157602460208e604051928380926370a0823160e01b825230600483015260018060a01b03165afa9081156105f05761010051916127d2575b506101e43511611951578b838e611d6e611d6861012051614dc7565b94614dc7565b94156127a05750505050611d8a6101e435878d60805190614c2f565b90811561190d57611da2916101e43591848f8f614e57565b505b6040516370a0823160e01b81523060048201526020816024816001600160a01b038a165afa9081156105f057610100519161276e575b506040516370a0823160e01b81523060048201526020816024816001600160a01b0387165afa9081156105f057610100519161273c575b50808210156127345750945b8561267d575b505050508161203a575b505050505050604051906370a0823160e01b825230600483015260208260248160018060a01b03608051165afa9182156105f0576101005192612006575b506040516370a0823160e01b81523060048201526020816024816001600160a01b0388165afa9081156105f0576101005191611fd4575b508215611fae5750611ebc925060c0519060805190614c2f565b505b6040516370a0823160e01b815230600482015260c051602090829060249082906001600160a01b03165afa9081156105f0576101005191611f7c575b506001600160ff1b0381118015611f6a575b610d305761020435611f2060a051836139c0565b12610d1b576040805160a0518152602081019290925261020435908201527f318296ace369901373a62c2153c5e87356175630ec782af9e8b7c9385f3d1e80908060608101610d11565b5060a0516001600160ff1b0310611f0c565b90506020813d602011611fa6575b81611f97602093836138f4565b810103126105e5575181611efa565b3d9150611f8a565b809250611fbe575b505050611ebe565b611fcb9260c05191614c2f565b50808080611fb6565b90506020813d602011611ffe575b81611fef602093836138f4565b810103126105e5575184611ea2565b3d9150611fe2565b9091506020813d602011612032575b81612022602093836138f4565b810103126105e557519083611e6b565b3d9150612015565b6001600160a01b0385165f5160206154e35f395f51905f52036120ec575050505050506040516370a0823160e01b81523060048201526020816024815f5160206154e35f395f51905f525afa9081156105f05761010051916120ba575b50806120ab575b505b828080808080611e2d565b6120b490615001565b8261209e565b90506020813d6020116120e4575b816120d5602093836138f4565b810103126105e5575183612097565b3d91506120c8565b836120fd575b5050505050506120a0565b6001600160a01b038316156101355761211f836001600160a01b038716613e28565b6001600160a01b038116612664575b508260041161015f57848301906080868303600319011261015f5760048601356001600160401b03811161015f578601948260238701121561015f57600486013591612179836139ec565b9661218760405198896138f4565b838852602088019060206004839660051b830101019086821161015f5760248101925b82841061251957505050506121c16044890161389d565b916064890135946001600160401b03861161015f57806023878c0101121561015f578560048b9788010135916020600484846121fc8261392d565b9b61220a6040519d8e6138f4565b828d52010101011161015f57602482918c010160208801376020610100519187010152875115612504576001600160a01b03818116906122498a613a03565b515116036124ea575b506040612260889398613a03565b51015260405195869163286f580d60e01b83526084830190608060048501525180915260a483019060a48160051b850101949161010051905b828210612436575050505081926122d19160248a01356024850152151560448401526003198382030160648401526101005194613ac1565b03816101005160018060a01b0386165af180156105f057612336575b7fde69c99d0290e9136275c349eb34d1087f4344a5eb3b4ce398f30cca48dacb0f925061232860405192839260018060a01b03169583613977565b0390a28280808080806120f2565b3d8061010051853e61234881856138f4565b83019260608185031261015f5780516001600160401b03811161015f5784612371918301613a64565b5060208101516001600160401b03811161015f57810184601f8201121561015f578051906020806123a1846139ec565b6123ae60405191826138f4565b848152019260051b8201019086821161015f57602001915b818310612416575050506040810151936001600160401b03851161015f577fde69c99d0290e9136275c349eb34d1087f4344a5eb3b4ce398f30cca48dacb0f946124109201613a64565b506122ed565b82516001600160a01b038116810361015f578152602092830192016123c6565b91939450919460a3198a8203018252855190608081019160018060a01b038151168252602081015192608060208401528351809152602060a0840194019061010051905b8082106124ae5750505060019260209260608084604087960151604085015201519101529701920192018994939192612299565b9091946020606060019260408951858060a01b038151168352858060a01b0385820151168584015201511515604082015201960192019061247a565b6001600160a01b03166124fc88613a03565b51528a612252565b634d95e03560e11b6101005152600461010051fd5b83356001600160401b03811161015f576004908301016080601f19828b03011261015f576040519061254a826138aa565b61255660208201613729565b825260408101356001600160401b03811161015f576020908201018a601f8201121561015f578035612587816139ec565b9161259560405193846138f4565b818352602060608185019302820101908d821161015f57602001915b8d8284106125e657505050509160806020949285948584015260608101356040840152013560608201528152019301926121aa565b83606091031261015f576040519060608201908282106001600160401b0383111761264a5760609260209260405261261d86613729565b815261262a838701613729565b8382015261263a6040870161389d565b60408201528152019201916125b1565b634e487b7160e01b61010051526041600452602461010051fd5b612677906001600160a01b038616614a41565b8761212e565b6126979183916117f49083906001600160a01b0316614a41565b6001600160a01b0381163b1561015f57604051637abef8d160e01b81526101005181806126c9888c886004850161399e565b03816101005160018060a01b0387165af180156105f057612719575b506040518481526001600160a01b038881169381169216905f5160206155835f395f51905f5290602090a488808080611e23565b61010051612726916138f4565b6101005161015f578a6126e5565b905094611e1d565b90506020813d602011612766575b81612757602093836138f4565b810103126105e557518d611e11565b3d915061274a565b90506020813d602011612798575b81612789602093836138f4565b810103126105e557518c611dda565b3d915061277c565b6127b09394506101e43592614c2f565b90811561190d576127cc918c91886101e4359360805190614e57565b50611da4565b90506020813d6020116127fc575b816127ed602093836138f4565b810103126105e557518e611d4c565b3d91506127e0565b90506020813d60201161282e575b8161281f602093836138f4565b810103126105e557518e611d0b565b3d9150612812565b61010051612843916138f4565b6101005161015f578d611c89565b506001600160a01b038c1615611c1b565b506001600160a01b038d1615611c14565b506001600160a01b03831615611bfc565b506001600160a01b03871615611bf5565b506001600160a01b03851615611bdd565b6020813d6020116128d1575b816128bf602093836138f4565b810103126105e5575160a0528d611bc1565b3d91506128b2565b346105e5576128e736613784565b9d91989994929795939c60018060a09e939d9e1b035f54163303613096576040516370a0823160e01b81523060048201529c8d806001600160a01b038e165a92602491602094fa9d8e15611053575f9e613061575b506040518e81526001600160a01b038d16907fb2f03ce105b3cd1f9fccfa1de78c921cd3ad2f01048d3a832c7ebb893fd347b990602090a2612987836001600160a01b038e16613e28565b6001600160a01b038116613048575b505f806040518386823780848101838152039082865af16129b5613948565b5015613039577f039f1e3426eb05ff8263467f0ccd63de0af468a20960885b56ee6fbb53ac1be6916129f560405192839260018060a01b03169583613977565b0390a26040516370a0823160e01b81523060048201526001600160a01b0384169290602081602481875afa908115611053575f91613007575b50837f7ea2559d46b5ca1045280b94e6bd226dc4c60c15c514f72d0fc10c788c80822d6020604051848152a280156110ea576001600160a01b038616948515159487908680612ff5575b15612f835790612a8791614a41565b853b156105e5576040516301abf04560e71b8152915f9183918291612ab191908c6004850161399e565b038183895af1801561105357612f6e575b505b6040516370a0823160e01b81523060048201526020816024816001600160a01b0386165afa9081156105f0576101005191612f3c575b508c81612f29575b50506040516370a0823160e01b815230600482015290506020816024816001600160a01b0386165afa9081156105f0576101005191612ef7575b508681612ee4575b50505080612ed2575b612d3f575b50506040516370a0823160e01b81523060048201529190506020826024816001600160a01b038b165afa9182156105f0576101005192612d0b575b506040516370a0823160e01b8152306004820152906020826024816001600160a01b0385165afa9182156105f0576101005192612cce575b5060249760209594939285928415612ca8575050612be293614c2f565b505b6040516370a0823160e01b815230600482015294859182906001600160a01b03165afa9283156105f0576101005193612c74575b5083612c2483856139c0565b12610d1b57612c57610d11917f318296ace369901373a62c2153c5e87356175630ec782af9e8b7c9385f3d1e80956139c0565b604051938493846040919493926060820195825260208201520152565b9092506020813d602011612ca0575b81612c90602093836138f4565b810103126105e557519184612c18565b3d9150612c83565b9150809350612cbb575b50505050612be4565b612cc493614c2f565b5086808281612cb2565b9094939291506020813d602011612d03575b81612ced602093836138f4565b810103126105e557519293919290916024612bc5565b3d9150612ce0565b9091506020813d602011612d37575b81612d27602093836138f4565b810103126105e557519088612b8d565b3d9150612d1a565b6040516370a0823160e01b8152306004820152916001600160a01b038a1690602084602481855afa9384156105f0576101005194612e9e575b506040516370a0823160e01b81523060048201526001600160a01b0387169490602081602481895afa9081156105f0576101005191612e6c575b5080821015612e645750935b84612dcc575b505050612b52565b610ea982612dd994614a41565b803b1561015f57604051637abef8d160e01b8152610100518180612e02868b896004850161399e565b038161010051865af180156105f057612e49575b506040519182526001600160a01b038681169316915f5160206155835f395f51905f5290602090a4878080808080612dc4565b61010051612e56916138f4565b6101005161015f578a612e16565b905093612dbe565b90506020813d602011612e96575b81612e87602093836138f4565b810103126105e557518e612db2565b3d9150612e7a565b9093506020813d602011612eca575b81612eba602093836138f4565b810103126105e55751928c612d78565b3d9150612ead565b506001600160a01b0383161515612b4d565b612eee9289614c2f565b508b8086612b44565b90506020813d602011612f21575b81612f12602093836138f4565b810103126105e557518d612b3c565b3d9150612f05565b612f33928a614c2f565b508c808c612b02565b90506020813d602011612f66575b81612f57602093836138f4565b810103126105e557518e612afa565b3d9150612f4a565b5f612f78916138f4565b5f610100528d612ac2565b9290505f807ff8e6e0bb33e12f1f8e97919c28e4df84e2aebf737d4bf32534deb9e737f228e69360405182602082019163dbceb00560e01b835286602482015260248152612fd26044826138f4565b51925af190612fdf613948565b50604080519182529115156020820152a2612ac4565b506001600160a01b038a161515612a78565b90506020813d602011613031575b81613022602093836138f4565b810103126105e557518e612a2e565b3d9150613015565b632e9f6e2b60e11b5f5260045ffd5b61305b906001600160a01b038d16614a41565b8f612996565b9b9d5060208c3d60201161308e575b8161307d602093836138f4565b810103126105e5578d9b519d61293c565b3d9150613070565b6330cd747160e01b5f5260045ffd5b346105e5576130b33661373d565b5f54919290916001600160a01b031633036130965780156133db576130d6614113565b6130de615411565b906130e7613ae5565b905f6020936040516130f986826138f4565b82815260405190613109826138d9565b5f5160206155435f395f51905f528252838783015260036040830152846060830152608082015261313985613a03565b5261314384613a03565b5060405161315186826138f4565b82815260405190613161826138d9565b5f5160206155635f395f51905f52825260038783015260046040830152836060830152608082015261319285613a24565b5261319c84613a24565b506040516131aa86826138f4565b828152604051906131ba826138d9565b5f5160206155235f395f51905f5282526004878301526002604083015283606083015260808201526131eb85613a34565b526131f584613a34565b506132008151613ba3565b9261320a84613a03565b5286151593846133c3575b61325460405194613225866138aa565b3086528488870152306040870152846060870152604051958694859463945bcec960e01b865260048601613c9a565b0381835f5160206155a35f395f51905f525af18015611053576133ab575b506040516370a0823160e01b81523060048201529382856024815f5160206155035f395f51905f525afa948515611053575f9561337c575b5084156110ea5781613372575b50613363575f916132c661437e565b604051916132d56060846138f4565b6002835260409036908401375f5160206155035f395f51905f526132f883613a03565b525f5160206154e35f395f51905f5261331083613a24565b5261333160405194859384936338ed173960e01b8552309260048601613deb565b0381835f5160206155c35f395f51905f525af180156110535761335057005b61001b903d805f833e6106a781836138f4565b63bb2875c360e01b5f5260045ffd5b90508310846132b7565b9094508281813d83116133a4575b61339481836138f4565b810103126105e5575193856132aa565b503d61338a565b6133be903d805f833e61061481836138f4565b613272565b6133cc88613bd5565b6133d585613a34565b52613215565b631f2a200560e01b5f5260045ffd5b346105e5575f3660031901126105e5575f546040516001600160a01b039091168152602090f35b346105e55760403660031901126105e5576004356001600160a01b038116908190036105e5575f546001600160a01b03163303613096578015613478575f80808093602435905af1613461613948565b501561346957005b632609239960e21b5f5260045ffd5b63d92e233d60e01b5f5260045ffd5b346105e55760403660031901126105e5576134a0613649565b6134a861365f565b5f549091906001600160a01b03163303613096576001600160a01b03821615613478576040516370a0823160e01b81523060048201526001600160a01b039190911691602082602481865afa918215611053575f9261358e575b5060405163a9059cbb60e01b81526001600160a01b0390911660048201526024810191909152906020908290815f81604481015b03925af1908115611053575f9161355f575b501561355057005b6312171d8360e31b5f5260045ffd5b613581915060203d602011613587575b61357981836138f4565b810190613915565b81613548565b503d61356f565b91506020823d6020116135bc575b816135a9602093836138f4565b810103126105e557905190613536613502565b3d915061359c565b346105e55760603660031901126105e5576135dd613649565b6135e561365f565b5f546001600160a01b03163303613096576001600160a01b038116156134785763a9059cbb60e01b83526001600160a01b039081166004840152604480356024850152602092849283915f91165af1908115611053575f9161355f57501561355057005b600435906001600160a01b03821682036105e557565b602435906001600160a01b03821682036105e557565b606435906001600160a01b03821682036105e557565b608435906001600160a01b03821682036105e557565b60c435906001600160a01b03821682036105e557565b60e435906001600160a01b03821682036105e557565b61010435906001600160a01b03821682036105e557565b61012435906001600160a01b03821682036105e557565b61014435906001600160a01b03821682036105e557565b61016435906001600160a01b03821682036105e557565b35906001600160a01b03821682036105e557565b60609060031901126105e557600435906024359060443590565b9181601f840112156105e5578235916001600160401b0383116105e557602083818601950101116105e557565b6101c06003198201126105e557600435906001600160401b0382116105e5576137af91600401613757565b90916024356001600160a01b03811681036105e557906044356001600160a01b03811681036105e557906064356001600160a01b03811681036105e557906084356001600160a01b03811681036105e5579060a4356001600160a01b03811681036105e5579060c4356001600160a01b03811681036105e5579060e4356001600160a01b03811681036105e55790610104356001600160a01b03811681036105e55790610124356001600160a01b03811681036105e55790610144356001600160a01b03811681036105e55790610164356001600160a01b03811681036105e5579061018435906101a43590565b359081151582036105e557565b608081019081106001600160401b038211176138c557604052565b634e487b7160e01b5f52604160045260245ffd5b60a081019081106001600160401b038211176138c557604052565b90601f801991011681019081106001600160401b038211176138c557604052565b908160209103126105e5575180151581036105e55790565b6001600160401b0381116138c557601f01601f191660200190565b3d15613972573d906139598261392d565b9161396760405193846138f4565b82523d5f602084013e565b606090565b90918060409360208452816020850152848401375f828201840152601f01601f1916010190565b6001600160a01b03918216815291166020820152604081019190915260600190565b81810392915f1380158285131691841216176139d857565b634e487b7160e01b5f52601160045260245ffd5b6001600160401b0381116138c55760051b60200190565b805115613a105760200190565b634e487b7160e01b5f52603260045260245ffd5b805160011015613a105760400190565b805160021015613a105760600190565b805160031015613a105760800190565b805160041015613a105760a00190565b9080601f830112156105e5578151613a7b816139ec565b92613a8960405194856138f4565b81845260208085019260051b8201019283116105e557602001905b828210613ab15750505090565b8151815260209182019101613aa4565b805180835260209291819084018484015e5f828201840152601f01601f1916010190565b60405160809190613af683826138f4565b6003815291601f1901825f5b828110613b0e57505050565b602090604051613b1d816138d9565b5f81525f838201525f60408201525f60608201526060608082015282828501015201613b02565b60405160c09190613b5583826138f4565b6005815291601f1901825f5b828110613b6d57505050565b602090604051613b7c816138d9565b5f81525f838201525f60408201525f60608201526060608082015282828501015201613b61565b90613bad826139ec565b613bba60405191826138f4565b8281528092613bcb601f19916139ec565b0190602036910137565b600160ff1b81146139d8575f0390565b6020818303126105e5578051906001600160401b0382116105e557019080601f830112156105e5578151613c18816139ec565b92613c2660405194856138f4565b81845260208085019260051b8201019283116105e557602001905b828210613c4e5750505090565b8151815260209182019101613c41565b90602080835192838152019201905f5b818110613c7b5750505090565b82516001600160a01b0316845260209384019390920191600101613c6e565b9493929161012086015f87526101206020880152825180915261014087019060206101408260051b8a01019401915f905b828210613d67575050505081613cea9187606094036040890152613c5e565b82516001600160a01b039081168784015260208085015115156080890152604085015190911660a08801529190920151151560c086015284820360e086015282518083529181019201905f5b818110613d5157505050610100661fffffffffffff91930152565b8251845260209384019390920191600101613d36565b90919294602080613db56001938d61013f1990820301865260a060808b5180518452858101518685015260408101516040850152606081015160608501520151918160808201520190613ac1565b970192019201909291613ccb565b906020828203126105e55781516001600160401b0381116105e557613de89201613a64565b90565b9063d141dd8493608093613e14929796978452602084015260a0604084015260a0830190613c5e565b6001600160a01b0390951660608201520152565b604051636eb1769f60e11b81523060048201526e22d473030f116ddee9f6b43ac78ba360248201526001600160a01b039190911690602081604481855afa908115611053575f916140e1575b5060018101613fee575b50604051636eb1769f60e11b81523060048201526e22d473030f116ddee9f6b43ac78ba36024820152602081604481855afa9081156110535782905f92613fad575b505f5160206154c35f395f51905f5260206e22d473030f116ddee9f6b43ac78ba393604051908152a36e22d473030f116ddee9f6b43ac78ba33b156105e5576040516387517c4560e01b8152600481018290526001600160a01b0392831660248201819052604482019390935265ffffffffffff60648201525f81608481836e22d473030f116ddee9f6b43ac78ba35af1801561105357613f9d575b50604080516001600160a01b03815265ffffffffffff60208201527f4871c6f66188da2f442cdab9920447df48710c721ba67e79f01001ebfa3d4ae99190a3565b5f613fa7916138f4565b5f613f5c565b9150506020813d602011613fe6575b81613fc9602093836138f4565b810103126105e55751815f5160206154c35f395f51905f52613ec0565b3d9150613fbc565b61406e575b60405163095ea7b360e01b81526e22d473030f116ddee9f6b43ac78ba360048201525f1960248201526020816044815f865af1908115611053575f9161404f575b5015614040575f613e7e565b632a69ce6b60e11b5f5260045ffd5b614068915060203d6020116135875761357981836138f4565b5f614034565b60405163095ea7b360e01b81526e22d473030f116ddee9f6b43ac78ba360048201525f60248201526020816044815f865af1908115611053575f916140c2575b50613ff35763097c3e9360e21b5f5260045ffd5b6140db915060203d6020116135875761357981836138f4565b5f6140ae565b90506020813d60201161410b575b816140fc602093836138f4565b810103126105e557515f613e74565b3d91506140ef565b604051636eb1769f60e11b81523060048201525f5160206155a35f395f51905f52602482015260208160448173af204776c7245bf4147c2612bf6e5972ee4837015afa908115611053575f9161434c575b5060018101614244575b50604051636eb1769f60e11b81523060048201525f5160206155a35f395f51905f52602482015260208160448173af204776c7245bf4147c2612bf6e5972ee4837015afa908115611053575f916141fe575b5073af204776c7245bf4147c2612bf6e5972ee4837015f5160206154c35f395f51905f5260205f5160206155a35f395f51905f5293604051908152a3565b90506020813d60201161423c575b81614219602093836138f4565b810103126105e5575173af204776c7245bf4147c2612bf6e5972ee4837016141c0565b3d915061420c565b6142c7575b60405163095ea7b360e01b81525f5160206155a35f395f51905f5260048201525f1960248201526020816044815f73af204776c7245bf4147c2612bf6e5972ee4837015af1908115611053575f916142a8575b5015614040575f61416e565b6142c1915060203d6020116135875761357981836138f4565b5f61429c565b60405163095ea7b360e01b81525f5160206155a35f395f51905f5260048201525f60248201526020816044815f73af204776c7245bf4147c2612bf6e5972ee4837015af1908115611053575f9161432d575b506142495763097c3e9360e21b5f5260045ffd5b614346915060203d6020116135875761357981836138f4565b5f614319565b90506020813d602011614376575b81614367602093836138f4565b810103126105e557515f614164565b3d915061435a565b604051636eb1769f60e11b81523060048201525f5160206155c35f395f51905f5260248201526020816044815f5160206155035f395f51905f525afa908115611053575f9161458d575b5060018101614493575b50604051636eb1769f60e11b81523060048201525f5160206155c35f395f51905f5260248201526020816044815f5160206155035f395f51905f525afa908115611053575f91614454575b505f5160206155035f395f51905f525f5160206154c35f395f51905f5260205f5160206155c35f395f51905f5293604051908152a3565b90506020813d60201161448b575b8161446f602093836138f4565b810103126105e557515f5160206155035f395f51905f5261441d565b3d9150614462565b61450f575b60405163095ea7b360e01b81525f5160206155c35f395f51905f5260048201525f1960248201526020816044815f5f5160206155035f395f51905f525af1908115611053575f916144f0575b5015614040575f6143d2565b614509915060203d6020116135875761357981836138f4565b5f6144e4565b60405163095ea7b360e01b81525f5160206155c35f395f51905f5260048201525f60248201526020816044815f5f5160206155035f395f51905f525af1908115611053575f9161456e575b506144985763097c3e9360e21b5f5260045ffd5b614587915060203d6020116135875761357981836138f4565b5f61455a565b90506020813d6020116145b7575b816145a8602093836138f4565b810103126105e557515f6143c8565b3d915061459b565b604051636eb1769f60e11b81523060048201525f5160206155c35f395f51905f5260248201526020816044815f5160206154e35f395f51905f525afa908115611053575f916147ce575b50600181016146d4575b50604051636eb1769f60e11b81523060048201525f5160206155c35f395f51905f5260248201526020816044815f5160206154e35f395f51905f525afa908115611053575f91614695575b505f5160206154e35f395f51905f525f5160206154c35f395f51905f5260205f5160206155c35f395f51905f5293604051908152a3565b90506020813d6020116146cc575b816146b0602093836138f4565b810103126105e557515f5160206154e35f395f51905f5261465e565b3d91506146a3565b614750575b60405163095ea7b360e01b81525f5160206155c35f395f51905f5260048201525f1960248201526020816044815f5f5160206154e35f395f51905f525af1908115611053575f91614731575b5015614040575f614613565b61474a915060203d6020116135875761357981836138f4565b5f614725565b60405163095ea7b360e01b81525f5160206155c35f395f51905f5260048201525f60248201526020816044815f5f5160206154e35f395f51905f525af1908115611053575f916147af575b506146d95763097c3e9360e21b5f5260045ffd5b6147c8915060203d6020116135875761357981836138f4565b5f61479b565b90506020813d6020116147f8575b816147e9602093836138f4565b810103126105e557515f614609565b3d91506147dc565b604051636eb1769f60e11b81523060048201525f5160206155a35f395f51905f5260248201526020816044815f5160206155035f395f51905f525afa908115611053575f91614a0f575b5060018101614915575b50604051636eb1769f60e11b81523060048201525f5160206155a35f395f51905f5260248201526020816044815f5160206155035f395f51905f525afa908115611053575f916148d6575b505f5160206155035f395f51905f525f5160206154c35f395f51905f5260205f5160206155a35f395f51905f5293604051908152a3565b90506020813d60201161490d575b816148f1602093836138f4565b810103126105e557515f5160206155035f395f51905f5261489f565b3d91506148e4565b614991575b60405163095ea7b360e01b81525f5160206155a35f395f51905f5260048201525f1960248201526020816044815f5f5160206155035f395f51905f525af1908115611053575f91614972575b5015614040575f614854565b61498b915060203d6020116135875761357981836138f4565b5f614966565b60405163095ea7b360e01b81525f5160206155a35f395f51905f5260048201525f60248201526020816044815f5f5160206155035f395f51905f525af1908115611053575f916149f0575b5061491a5763097c3e9360e21b5f5260045ffd5b614a09915060203d6020116135875761357981836138f4565b5f6149dc565b90506020813d602011614a39575b81614a2a602093836138f4565b810103126105e557515f61484a565b3d9150614a1d565b604051636eb1769f60e11b81523060048201526001600160a01b0383811660248301529190911690602081604481855afa908115611053575f91614bfd575b5060018101614b20575b50604051636eb1769f60e11b81523060048201526001600160a01b038316602482015291602083604481855afa928315611053575f93614aeb575b506040519283526001600160a01b0316915f5160206154c35f395f51905f5290602090a3565b9092506020813d602011614b18575b81614b07602093836138f4565b810103126105e55751916020614ac5565b3d9150614afa565b614b8b575b60405163095ea7b360e01b81526001600160a01b03831660048201525f1960248201526020816044815f865af1908115611053575f91614b6c575b5015614040575f614a8a565b614b85915060203d6020116135875761357981836138f4565b5f614b60565b60405163095ea7b360e01b81526001600160a01b03831660048201525f6024820181905260209082906044908290865af1908115611053575f91614bde575b50614b255763097c3e9360e21b5f5260045ffd5b614bf7915060203d6020116135875761357981836138f4565b5f614bca565b90506020813d602011614c27575b81614c18602093836138f4565b810103126105e557515f614a80565b3d9150614c0b565b929392906001600160a01b038216908115613478576001600160a01b03169182158015614db6575b614da7578515614d9e57614c6b9083614a41565b6040519460e086018681106001600160401b038211176138c557604052828652602086019360018060a01b0316938481526040870130815260608801428152608089019084825260a08a01925f845260c08b01945f86526040519b63178ca23160e31b8d5260018060a01b0390511660048d015260018060a01b0390511660248c015260018060a01b0390511660448b01525160648a01525160848901525160a488015260018060a01b0390511660c487015260208660e4815f865af1958615611053575f96614d69575b5060407f5daa39fce4745a2a9e6137131383e8405e80edb12e37c562f590c5f294ed19d5918782519182526020820152a4565b9095506020813d602011614d96575b81614d85602093836138f4565b810103126105e55751946040614d36565b3d9150614d78565b505f9450505050565b6381c609f760e01b5f5260045ffd5b506001600160a01b03841615614c57565b6001600160a01b03168015614e515760206004916040519283809263ddca3f4360e01b82525afa5f9181614e11575b50614e015750606490565b62ffffff8116613de85750606490565b9091506020813d602011614e49575b81614e2d602093836138f4565b810103126105e5575162ffffff811681036105e557905f614df6565b3d9150614e20565b50606490565b919594929391926001600160a01b03841692918315613478576001600160a01b03169384158015614ff0575b614da7578215614fe557614e979085614a41565b6040519061010082018281106001600160401b038211176138c557604052848252602082019760018060a01b03169586895262ffffff604084019116815260608301308152608084019042825262ffffff60a086019387855260c0870195865260e08701965f885260246040519e8f92631b67c43360e31b845260018060a01b03905116600484015260018060a01b03905116910152511660448c015260018060a01b0390511660648b01525160848a01525160a48901525160c488015260018060a01b0390511660e4870152602086610104815f865af1958615611053575f96614fb0575b5060407fcb3796b31ba09ffbc48bd2abe64550ce61698c9e170bed66c7f6c556118af6a3918782519182526020820152a4565b9095506020813d602011614fdd575b81614fcc602093836138f4565b810103126105e55751946040614f7d565b3d9150614fbf565b505f96505050505050565b506001600160a01b03881615614e83565b80156133db5761500f6145bf565b6150615f60609260405161502385826138f4565b60028152601f1985013660208301375f5160206154e35f395f51905f5261504982613a03565b525f5160206155035f395f51905f52610a3e82613a24565b0381835f5160206155c35f395f51905f525af18015611053576153f9575b506040516370a0823160e01b8152306004820152906020826024815f5160206155035f395f51905f525afa918215611053575f926153c5575b5081156110ea576150c7614800565b6150cf615411565b916150d8613b44565b928160011c938483038381116139d8575f9361531a916020976040516150fe8a826138f4565b8781526040519161510e836138d9565b7f7e5870ac540adfd01a213c829f2231c309623eb10002000000000000000000e9835260028b8401526001604084015289830152608082015261515085613a03565b5261515a84613a03565b5060405161516889826138f4565b86815260405190615178826138d9565b7fa91c413d8516164868f6cca19573fe38f88f5982000200000000000000000157825260018a830152876040830152878983015260808201526151ba85613a24565b526151c484613a24565b506040516151d289826138f4565b868152604051916151e2836138d9565b5f5160206155235f395f51905f52835260028a8401526004604084015288830152608082015261521184613a34565b5261521b83613a34565b5060405161522988826138f4565b85815260405190615239826138d9565b5f5160206155635f395f51905f528252600489830152600360408301528688830152608082015261526984613a44565b5261527383613a44565b5060405161528188826138f4565b85815260405190615291826138d9565b5f5160206155435f395f51905f528252600389830152866040830152868883015260808201526152c084613a54565b526152ca83613a54565b506152d58451613ba3565b906152df82613a34565b5284604051966152ee886138aa565b3088528189890152306040890152870152604051958694859463945bcec960e01b865260048601613c9a565b0381835f5160206155a35f395f51905f525af18015611053576153ad575b506040516370a0823160e01b8152306004820152818160248173af204776c7245bf4147c2612bf6e5972ee4837015afa918215611053575f9261537f575b5050156110ea57565b90809250813d83116153a6575b61539681836138f4565b810103126105e557515f80615376565b503d61538c565b6153c0903d805f833e61061481836138f4565b615338565b9091506020813d6020116153f1575b816153e1602093836138f4565b810103126105e55751905f6150b8565b3d91506153d4565b61540c903d805f833e6106a781836138f4565b61507f565b6040519061542060c0836138f4565b6005825260a0366020840137739c58bacc331c9aa871afd802db6379a98e80cedb6154bf8373af204776c7245bf4147c2612bf6e5972ee48370161546382613a03565b5273c0d871bd13ebdf5c4ff059d8243fb38210608bd661548282613a24565b525f5160206155035f395f51905f5261549a82613a34565b5273e0ed85f76d9c552478929fab44693e03f0899f236154b982613a44565b52613a54565b5256feb6174191c8a1b8338dcc8711e5edf88685ae0a57f03b361e2bdf8979f6288bd500000000000000000000000037b60f4e9a31a64ccc0024dce7d0fd07eaa0f7b30000000000000000000000006a023ccd1ff6f2045c3309768ead9e68f978f6e1a99fd9950b5d5dceeaf4939e221dca8ca9b938ab00010000000000000000002540d2cbc586dd8df50001cdba3f65cd4bbc32d596000200000000000000000154480d4f66cc41a1b6784a53a10890e5ece31d75c000020000000000000000014edc43ce728a1135c1396673372fa69f30fe424cb172093e4198538d75e54f3c2b000000000000000000000000ba12222222228d8ba445958a75a0704d566bf2c8000000000000000000000000e43e60736b1cb4a75ad25240e2f9a62bff65c0c0a26469706673582212208c55603480b5dea0d6c9eb34e30b942c1def1f75a57e0f376e07117d01f32b4364736f6c63430008210033","linkReferences":{}},"assembly":"    /* \"contracts/FutarchyArbExecutorV5.sol\":5111:41903  contract FutarchyArbExecutorV5 {... */\n  0x80\n  dup1\n  0x40\n  mstore\n  jumpi(tag_1, callvalue)\n    /* \"contracts/FutarchyArbExecutorV5.sol\":24640:24658  owner = msg.sender */\n  0x00\n    /* \"contracts/FutarchyArbExecutorV5.sol\":5111:41903  contract FutarchyArbExecutorV5 {... */\n  dup1\n  sload\n  not(sub(shl(0xa0, 0x01), 0x01))\n  and\n    /* \"contracts/FutarchyArbExecutorV5.sol\":24648:24658  msg.sender */\n  caller\n    /* \"contracts/FutarchyArbExecutorV5.sol\":5111:41903  contract FutarchyArbExecutorV5 {... */\n  swap1\n  dup2\n  or\n  dup3\n  sstore\n    /* \"contracts/FutarchyArbExecutorV5.sol\":24648:24658  msg.sender */\n  swap1\n    /* \"contracts/FutarchyArbExecutorV5.sol\":24673:24717  OwnershipTransferred(address(0), msg.sender) */\n  0x8be0079c531659141344cd1fd0a4f28419497f9722a3daafe3b4186f6b6457e0\n    /* \"contracts/FutarchyArbExecutorV5.sol\":24640:24658  owner = msg.sender */\n  dup2\n  dup1\n    /* \"contracts/FutarchyArbExecutorV5.sol\":24673:24717  OwnershipTransferred(address(0), msg.sender) */\n  log3\n    /* \"contracts/FutarchyArbExecutorV5.sol\":5111:41903  contract FutarchyArbExecutorV5 {... */\n  dataSize(sub_0)\n  swap1\n  dup2\n  dataOffset(sub_0)\n  dup3\n  codecopy\n  return\ntag_1:\n  0x00\n  dup1\n  revert\nstop\n\nsub_0: assembly {\n        /* \"contracts/FutarchyArbExecutorV5.sol\":5111:41903  contract FutarchyArbExecutorV5 {... */\n      0x0140\n      dup1\n      0x40\n      mstore\n      jumpi(tag_57, iszero(lt(calldatasize, 0x04)))\n    tag_58:\n      pop\n      jumpi(tag_59, iszero(calldatasize))\n      0x00\n      dup1\n      revert\n    tag_59:\n      stop\n    tag_57:\n      mstore(0x0100, 0x00)\n      shr(0xe0, calldataload(0x00))\n      swap1\n      dup2\n      0x01e33667\n      eq\n      tag_61\n      jumpi\n      pop\n      dup1\n      0x258836fe\n      eq\n      tag_63\n      jumpi\n      dup1\n      0x4782f779\n      eq\n      tag_65\n      jumpi\n      dup1\n      0x8da5cb5b\n      eq\n      tag_67\n      jumpi\n      dup1\n      0xce12e70d\n      eq\n      tag_69\n      jumpi\n      dup1\n      0xd4b21c33\n      eq\n      tag_71\n      jumpi\n      dup1\n      0xde309fc3\n      eq\n      tag_73\n      jumpi\n      dup1\n      0xde57a0ae\n      eq\n      tag_75\n      jumpi\n      dup1\n      0xe7610d68\n      eq\n      tag_77\n      jumpi\n      dup1\n      0xea9f3f09\n      eq\n      tag_79\n      jumpi\n      0xf2fde38b\n      eq\n      tag_81\n      jumpi\n      0x00\n      jump(tag_58)\n    tag_81:\n      jumpi(tag_85, callvalue)\n      jumpi(tag_85, slt(add(not(0x03), calldatasize), 0x20))\n      tag_87\n      tag_1\n      jump\t// in\n    tag_87:\n      sload(mload(0x0100))\n      sub(shl(0xa0, 0x01), 0x01)\n      dup2\n      and\n      swap2\n        /* \"contracts/FutarchyArbExecutorV5.sol\":24554:24564  msg.sender */\n      caller\n        /* \"contracts/FutarchyArbExecutorV5.sol\":24554:24573  msg.sender != owner */\n      dup4\n      swap1\n      sub\n        /* \"contracts/FutarchyArbExecutorV5.sol\":24550:24592  if (msg.sender != owner) revert NotOwner() */\n      tag_88\n      jumpi\n      sub(shl(0xa0, 0x01), 0x01)\n        /* \"contracts/FutarchyArbExecutorV5.sol\":5111:41903  contract FutarchyArbExecutorV5 {... */\n      and\n      swap2\n        /* \"contracts/FutarchyArbExecutorV5.sol\":41771:41793  newOwner == address(0) */\n      dup3\n      iszero\n        /* \"contracts/FutarchyArbExecutorV5.sol\":41767:41815  if (newOwner == address(0)) revert ZeroAddress() */\n      tag_90\n      jumpi\n        /* \"contracts/FutarchyArbExecutorV5.sol\":5111:41903  contract FutarchyArbExecutorV5 {... */\n      dup3\n      swap1\n        /* \"contracts/FutarchyArbExecutorV5.sol\":41830:41867  OwnershipTransferred(owner, newOwner) */\n      0x8be0079c531659141344cd1fd0a4f28419497f9722a3daafe3b4186f6b6457e0\n        /* \"contracts/FutarchyArbExecutorV5.sol\":5111:41903  contract FutarchyArbExecutorV5 {... */\n      mload(0x0100)\n      mload(0x0100)\n        /* \"contracts/FutarchyArbExecutorV5.sol\":41830:41867  OwnershipTransferred(owner, newOwner) */\n      log3\n        /* \"contracts/FutarchyArbExecutorV5.sol\":5111:41903  contract FutarchyArbExecutorV5 {... */\n      shl(0xa0, 0xffffffffffffffffffffffff)\n      and\n      or\n      mload(0x0100)\n      sstore\n      return(mload(0x0100), mload(0x0100))\n        /* \"contracts/FutarchyArbExecutorV5.sol\":41767:41815  if (newOwner == address(0)) revert ZeroAddress() */\n    tag_90:\n        /* \"contracts/FutarchyArbExecutorV5.sol\":41123:41136  ZeroAddress() */\n      shl(0xe0, 0xd92e233d)\n        /* \"contracts/FutarchyArbExecutorV5.sol\":5111:41903  contract FutarchyArbExecutorV5 {... */\n      mload(0x0100)\n        /* \"contracts/FutarchyArbExecutorV5.sol\":41802:41815  ZeroAddress() */\n      mstore\n        /* \"contracts/FutarchyArbExecutorV5.sol\":5111:41903  contract FutarchyArbExecutorV5 {... */\n      0x04\n      mload(0x0100)\n        /* \"contracts/FutarchyArbExecutorV5.sol\":41802:41815  ZeroAddress() */\n      revert\n        /* \"contracts/FutarchyArbExecutorV5.sol\":24550:24592  if (msg.sender != owner) revert NotOwner() */\n    tag_88:\n        /* \"contracts/FutarchyArbExecutorV5.sol\":24582:24592  NotOwner() */\n      shl(0xe0, 0x30cd7471)\n        /* \"contracts/FutarchyArbExecutorV5.sol\":5111:41903  contract FutarchyArbExecutorV5 {... */\n      mload(0x0100)\n        /* \"contracts/FutarchyArbExecutorV5.sol\":24582:24592  NotOwner() */\n      mstore\n        /* \"contracts/FutarchyArbExecutorV5.sol\":5111:41903  contract FutarchyArbExecutorV5 {... */\n      0x04\n      mload(0x0100)\n        /* \"contracts/FutarchyArbExecutorV5.sol\":24582:24592  NotOwner() */\n      revert\n        /* \"contracts/FutarchyArbExecutorV5.sol\":5111:41903  contract FutarchyArbExecutorV5 {... */\n    tag_85:\n      mload(0x0100)\n      dup1\n      revert\n    tag_79:\n      jumpi(tag_85, callvalue)\n      tag_94\n      calldatasize\n      tag_12\n      jump\t// in\n    tag_94:\n      sload(mload(0x0100))\n      swap2\n      swap3\n      swap1\n      swap2\n      sub(shl(0xa0, 0x01), 0x01)\n      and\n        /* \"contracts/FutarchyArbExecutorV5.sol\":24554:24564  msg.sender */\n      caller\n        /* \"contracts/FutarchyArbExecutorV5.sol\":24554:24573  msg.sender != owner */\n      sub\n        /* \"contracts/FutarchyArbExecutorV5.sol\":24550:24592  if (msg.sender != owner) revert NotOwner() */\n      tag_88\n      jumpi\n        /* \"contracts/FutarchyArbExecutorV5.sol\":11725:11741  amountPnkIn == 0 */\n      dup1\n      iszero\n        /* \"contracts/FutarchyArbExecutorV5.sol\":11721:11762  if (amountPnkIn == 0) revert ZeroAmount() */\n      tag_97\n      jumpi\n        /* \"contracts/FutarchyArbExecutorV5.sol\":11875:11890  SWAPR_V2_ROUTER */\n      tag_99\n      tag_49\n      jump\t// in\n    tag_99:\n        /* \"contracts/FutarchyArbExecutorV5.sol\":12019:12160  IUniswapV2Router02(SWAPR_V2_ROUTER)... */\n      tag_100\n        /* \"contracts/FutarchyArbExecutorV5.sol\":6225:6267  0x37b60f4E9A31A64cCc0024dce7D0fD07eAA0F7B3 */\n      0x60\n        /* \"contracts/FutarchyArbExecutorV5.sol\":5111:41903  contract FutarchyArbExecutorV5 {... */\n      swap2\n      mload(0x40)\n      swap1\n      tag_101\n      dup5\n      dup4\n      tag_18\n      jump\t// in\n    tag_101:\n        /* \"contracts/FutarchyArbExecutorV5.sol\":11942:11943  2 */\n      0x02\n        /* \"contracts/FutarchyArbExecutorV5.sol\":6316:6358  0xBA12222222228d8Ba445958a75a0704d566BF2C8 */\n      dup3\n      mstore\n      not(0x1f)\n        /* \"contracts/FutarchyArbExecutorV5.sol\":6408:6450  0xE43e60736b1cb4a75ad25240E2f9a62Bff65c0C0 */\n      dup5\n      add\n        /* \"contracts/FutarchyArbExecutorV5.sol\":5111:41903  contract FutarchyArbExecutorV5 {... */\n      calldatasize\n        /* \"contracts/FutarchyArbExecutorV5.sol\":6408:6450  0xE43e60736b1cb4a75ad25240E2f9a62Bff65c0C0 */\n      0x20\n      dup5\n      add\n        /* \"contracts/FutarchyArbExecutorV5.sol\":7034:7100  0xa99fd9950b5d5dceeaf4939e221dca8ca9b938ab000100000000000000000025 */\n      calldatacopy\n      mload(0x00)\n      codecopy(0x00, data_18faf74e4df68828d272c60758edf9513e53936ca0737ceb17921c958804ed9a, 0x20)\n      mload(0x00)\n      swap1\n      0x00\n      mstore\n        /* \"contracts/FutarchyArbExecutorV5.sol\":11954:11976  pathOut[0] = TOKEN_PNK */\n      tag_102\n      dup4\n      tag_29\n      jump\t// in\n    tag_102:\n        /* \"contracts/FutarchyArbExecutorV5.sol\":6225:6267  0x37b60f4E9A31A64cCc0024dce7D0fD07eAA0F7B3 */\n      mstore\n      mload(0x00)\n      codecopy(0x00, data_1f08a6407959cd4837ddd9fea2fe35b0c34facc789c2626b8e87092b4372c0eb, 0x20)\n      mload(0x00)\n      swap1\n      0x00\n      mstore\n        /* \"contracts/FutarchyArbExecutorV5.sol\":11986:12009  pathOut[1] = TOKEN_WETH */\n      tag_103\n      dup4\n      tag_30\n      jump\t// in\n    tag_103:\n        /* \"contracts/FutarchyArbExecutorV5.sol\":6225:6267  0x37b60f4E9A31A64cCc0024dce7D0fD07eAA0F7B3 */\n      mstore\n        /* \"contracts/FutarchyArbExecutorV5.sol\":5111:41903  contract FutarchyArbExecutorV5 {... */\n      mload(0x40)\n      dup1\n      swap4\n      dup2\n      swap3\n      shl(0xe0, 0x38ed1739)\n        /* \"contracts/FutarchyArbExecutorV5.sol\":12019:12160  IUniswapV2Router02(SWAPR_V2_ROUTER)... */\n      dup4\n      mstore\n        /* \"contracts/FutarchyArbExecutorV5.sol\":11740:11741  0 */\n      mload(0x0100)\n        /* \"contracts/FutarchyArbExecutorV5.sol\":12135:12139  this */\n      swap5\n      dup10\n      address\n        /* \"contracts/FutarchyArbExecutorV5.sol\":12019:12160  IUniswapV2Router02(SWAPR_V2_ROUTER)... */\n      swap3\n        /* \"contracts/FutarchyArbExecutorV5.sol\":5111:41903  contract FutarchyArbExecutorV5 {... */\n      0x04\n        /* \"contracts/FutarchyArbExecutorV5.sol\":12019:12160  IUniswapV2Router02(SWAPR_V2_ROUTER)... */\n      dup7\n      add\n      tag_44\n      jump\t// in\n    tag_100:\n      sub\n        /* \"contracts/FutarchyArbExecutorV5.sol\":11740:11741  0 */\n      dup2\n      mload(0x0100)\n      mload(0x00)\n      codecopy(0x00, data_fed9ab35569d274633c0afa3fe164e41b182bd84c5e7e43031c6f2c1b23e65bf, 0x20)\n      mload(0x00)\n      swap1\n      0x00\n      mstore\n        /* \"contracts/FutarchyArbExecutorV5.sol\":12019:12160  IUniswapV2Router02(SWAPR_V2_ROUTER)... */\n      gas\n      call\n      dup1\n      iszero\n      tag_153\n      jumpi\n      tag_106\n      jumpi\n        /* \"contracts/FutarchyArbExecutorV5.sol\":5111:41903  contract FutarchyArbExecutorV5 {... */\n    tag_107:\n      pop\n      mload(0x40)\n      shl(0xe0, 0x70a08231)\n        /* \"contracts/FutarchyArbExecutorV5.sol\":12219:12262  IERC20(TOKEN_WETH).balanceOf(address(this)) */\n      dup2\n      mstore\n        /* \"contracts/FutarchyArbExecutorV5.sol\":12135:12139  this */\n      address\n        /* \"contracts/FutarchyArbExecutorV5.sol\":5111:41903  contract FutarchyArbExecutorV5 {... */\n      0x04\n        /* \"contracts/FutarchyArbExecutorV5.sol\":12219:12262  IERC20(TOKEN_WETH).balanceOf(address(this)) */\n      dup3\n      add\n        /* \"contracts/FutarchyArbExecutorV5.sol\":5111:41903  contract FutarchyArbExecutorV5 {... */\n      mstore\n      swap3\n        /* \"contracts/FutarchyArbExecutorV5.sol\":6408:6450  0xE43e60736b1cb4a75ad25240E2f9a62Bff65c0C0 */\n      0x20\n        /* \"contracts/FutarchyArbExecutorV5.sol\":5111:41903  contract FutarchyArbExecutorV5 {... */\n      dup5\n        /* \"contracts/FutarchyArbExecutorV5.sol\":12219:12262  IERC20(TOKEN_WETH).balanceOf(address(this)) */\n      0x24\n        /* \"contracts/FutarchyArbExecutorV5.sol\":5111:41903  contract FutarchyArbExecutorV5 {... */\n      dup2\n      mload(0x00)\n      codecopy(0x00, data_1f08a6407959cd4837ddd9fea2fe35b0c34facc789c2626b8e87092b4372c0eb, 0x20)\n      mload(0x00)\n      swap1\n      0x00\n      mstore\n        /* \"contracts/FutarchyArbExecutorV5.sol\":12219:12262  IERC20(TOKEN_WETH).balanceOf(address(this)) */\n      gas\n      staticcall\n      swap4\n      dup5\n      iszero\n      tag_153\n      jumpi\n        /* \"contracts/FutarchyArbExecutorV5.sol\":11740:11741  0 */\n      mload(0x0100)\n        /* \"contracts/FutarchyArbExecutorV5.sol\":12219:12262  IERC20(TOKEN_WETH).balanceOf(address(this)) */\n      swap5\n      tag_110\n      jumpi\n        /* \"contracts/FutarchyArbExecutorV5.sol\":5111:41903  contract FutarchyArbExecutorV5 {... */\n    tag_111:\n        /* \"contracts/FutarchyArbExecutorV5.sol\":12276:12288  wethBal == 0 */\n      pop\n      dup4\n      iszero\n        /* \"contracts/FutarchyArbExecutorV5.sol\":12272:12308  if (wethBal == 0) revert NoBalance() */\n      tag_157\n      jumpi\n        /* \"contracts/FutarchyArbExecutorV5.sol\":12322:12336  minWethOut > 0 */\n      dup1\n      iszero\n      iszero\n        /* \"contracts/FutarchyArbExecutorV5.sol\":12322:12360  minWethOut > 0 && wethBal < minWethOut */\n      swap1\n      dup2\n      tag_114\n      jumpi\n        /* \"contracts/FutarchyArbExecutorV5.sol\":5111:41903  contract FutarchyArbExecutorV5 {... */\n    tag_115:\n        /* \"contracts/FutarchyArbExecutorV5.sol\":12318:12389  if (minWethOut > 0 && wethBal < minWethOut) revert InsufficientOutput() */\n      pop\n      tag_161\n      jumpi\n        /* \"contracts/FutarchyArbExecutorV5.sol\":12532:12546  BALANCER_VAULT */\n      tag_118\n      tag_50\n      jump\t// in\n    tag_118:\n        /* \"contracts/FutarchyArbExecutorV5.sol\":12584:12601  _pnkAssetsOrder() */\n      tag_119\n      tag_56\n      jump\t// in\n    tag_119:\n        /* \"contracts/FutarchyArbExecutorV5.sol\":12658:12695  new IBalancerVault.BatchSwapStep[](5) */\n      swap3\n      tag_120\n      tag_37\n      jump\t// in\n    tag_120:\n        /* \"contracts/FutarchyArbExecutorV5.sol\":5111:41903  contract FutarchyArbExecutorV5 {... */\n      dup2\n        /* \"contracts/FutarchyArbExecutorV5.sol\":11994:11995  1 */\n      0x01\n        /* \"contracts/FutarchyArbExecutorV5.sol\":5111:41903  contract FutarchyArbExecutorV5 {... */\n      shr\n      swap3\n      dup4\n      dup4\n      sub\n      dup4\n      dup2\n      gt\n      tag_121\n      jumpi\n      0x20\n      swap5\n      mload(0x40)\n      tag_123\n      dup8\n      dup3\n      tag_18\n      jump\t// in\n    tag_123:\n        /* \"contracts/FutarchyArbExecutorV5.sol\":11740:11741  0 */\n      mload(0x0100)\n        /* \"contracts/FutarchyArbExecutorV5.sol\":5111:41903  contract FutarchyArbExecutorV5 {... */\n      dup2\n      mstore\n      mload(0x40)\n      swap2\n      tag_124\n      dup4\n      tag_17\n      jump\t// in\n    tag_124:\n        /* \"contracts/FutarchyArbExecutorV5.sol\":6701:6767  0x7e5870ac540adfd01a213c829f2231c309623eb10002000000000000000000e9 */\n      0x7e5870ac540adfd01a213c829f2231c309623eb10002000000000000000000e9\n        /* \"contracts/FutarchyArbExecutorV5.sol\":6225:6267  0x37b60f4E9A31A64cCc0024dce7D0fD07eAA0F7B3 */\n      dup4\n      mstore\n        /* \"contracts/FutarchyArbExecutorV5.sol\":11942:11943  2 */\n      0x02\n        /* \"contracts/FutarchyArbExecutorV5.sol\":12858:13000  IBalancerVault.BatchSwapStep({... */\n      dup9\n      dup5\n      add\n        /* \"contracts/FutarchyArbExecutorV5.sol\":6225:6267  0x37b60f4E9A31A64cCc0024dce7D0fD07eAA0F7B3 */\n      mstore\n        /* \"contracts/FutarchyArbExecutorV5.sol\":11994:11995  1 */\n      0x01\n        /* \"contracts/FutarchyArbExecutorV5.sol\":5111:41903  contract FutarchyArbExecutorV5 {... */\n      0x40\n        /* \"contracts/FutarchyArbExecutorV5.sol\":12858:13000  IBalancerVault.BatchSwapStep({... */\n      dup5\n      add\n        /* \"contracts/FutarchyArbExecutorV5.sol\":6225:6267  0x37b60f4E9A31A64cCc0024dce7D0fD07eAA0F7B3 */\n      mstore\n        /* \"contracts/FutarchyArbExecutorV5.sol\":12858:13000  IBalancerVault.BatchSwapStep({... */\n      dup5\n      dup4\n      add\n        /* \"contracts/FutarchyArbExecutorV5.sol\":6225:6267  0x37b60f4E9A31A64cCc0024dce7D0fD07eAA0F7B3 */\n      mstore\n        /* \"contracts/FutarchyArbExecutorV5.sol\":12858:13000  IBalancerVault.BatchSwapStep({... */\n      0x80\n      dup3\n      add\n        /* \"contracts/FutarchyArbExecutorV5.sol\":6225:6267  0x37b60f4E9A31A64cCc0024dce7D0fD07eAA0F7B3 */\n      mstore\n        /* \"contracts/FutarchyArbExecutorV5.sol\":12847:13000  swaps[0] = IBalancerVault.BatchSwapStep({... */\n      tag_125\n      dup5\n      tag_29\n      jump\t// in\n    tag_125:\n      mstore\n      tag_126\n      dup4\n      tag_29\n      jump\t// in\n    tag_126:\n      pop\n        /* \"contracts/FutarchyArbExecutorV5.sol\":5111:41903  contract FutarchyArbExecutorV5 {... */\n      mload(0x40)\n      tag_127\n      dup7\n      dup3\n      tag_18\n      jump\t// in\n    tag_127:\n        /* \"contracts/FutarchyArbExecutorV5.sol\":11740:11741  0 */\n      mload(0x0100)\n        /* \"contracts/FutarchyArbExecutorV5.sol\":5111:41903  contract FutarchyArbExecutorV5 {... */\n      dup2\n      mstore\n      mload(0x40)\n      swap1\n      tag_128\n      dup3\n      tag_17\n      jump\t// in\n    tag_128:\n        /* \"contracts/FutarchyArbExecutorV5.sol\":6590:6656  0xa91c413d8516164868f6cca19573fe38f88f5982000200000000000000000157 */\n      0xa91c413d8516164868f6cca19573fe38f88f5982000200000000000000000157\n        /* \"contracts/FutarchyArbExecutorV5.sol\":6225:6267  0x37b60f4E9A31A64cCc0024dce7D0fD07eAA0F7B3 */\n      dup3\n      mstore\n        /* \"contracts/FutarchyArbExecutorV5.sol\":11994:11995  1 */\n      0x01\n        /* \"contracts/FutarchyArbExecutorV5.sol\":13021:13160  IBalancerVault.BatchSwapStep({... */\n      dup8\n      dup4\n      add\n        /* \"contracts/FutarchyArbExecutorV5.sol\":6225:6267  0x37b60f4E9A31A64cCc0024dce7D0fD07eAA0F7B3 */\n      mstore\n        /* \"contracts/FutarchyArbExecutorV5.sol\":11740:11741  0 */\n      mload(0x0100)\n        /* \"contracts/FutarchyArbExecutorV5.sol\":5111:41903  contract FutarchyArbExecutorV5 {... */\n      0x40\n        /* \"contracts/FutarchyArbExecutorV5.sol\":13021:13160  IBalancerVault.BatchSwapStep({... */\n      dup4\n      add\n        /* \"contracts/FutarchyArbExecutorV5.sol\":6225:6267  0x37b60f4E9A31A64cCc0024dce7D0fD07eAA0F7B3 */\n      mstore\n        /* \"contracts/FutarchyArbExecutorV5.sol\":11740:11741  0 */\n      mload(0x0100)\n        /* \"contracts/FutarchyArbExecutorV5.sol\":13021:13160  IBalancerVault.BatchSwapStep({... */\n      dup5\n      dup4\n      add\n        /* \"contracts/FutarchyArbExecutorV5.sol\":6225:6267  0x37b60f4E9A31A64cCc0024dce7D0fD07eAA0F7B3 */\n      mstore\n        /* \"contracts/FutarchyArbExecutorV5.sol\":12858:13000  IBalancerVault.BatchSwapStep({... */\n      0x80\n        /* \"contracts/FutarchyArbExecutorV5.sol\":13021:13160  IBalancerVault.BatchSwapStep({... */\n      dup3\n      add\n        /* \"contracts/FutarchyArbExecutorV5.sol\":6225:6267  0x37b60f4E9A31A64cCc0024dce7D0fD07eAA0F7B3 */\n      mstore\n        /* \"contracts/FutarchyArbExecutorV5.sol\":13010:13160  swaps[1] = IBalancerVault.BatchSwapStep({... */\n      tag_129\n      dup5\n      tag_30\n      jump\t// in\n    tag_129:\n      mstore\n      tag_130\n      dup4\n      tag_30\n      jump\t// in\n    tag_130:\n      pop\n        /* \"contracts/FutarchyArbExecutorV5.sol\":5111:41903  contract FutarchyArbExecutorV5 {... */\n      mload(0x40)\n      tag_131\n      dup7\n      dup3\n      tag_18\n      jump\t// in\n    tag_131:\n        /* \"contracts/FutarchyArbExecutorV5.sol\":11740:11741  0 */\n      mload(0x0100)\n        /* \"contracts/FutarchyArbExecutorV5.sol\":5111:41903  contract FutarchyArbExecutorV5 {... */\n      dup2\n      mstore\n      mload(0x40)\n      swap2\n      tag_132\n      dup4\n      tag_17\n      jump\t// in\n    tag_132:\n      mload(0x00)\n      codecopy(0x00, data_6a768ce7dd29682ca8651cedf43ef435380ee90c92e8ceb8428caf6b41d02b1e, 0x20)\n      mload(0x00)\n      swap1\n      0x00\n      mstore\n        /* \"contracts/FutarchyArbExecutorV5.sol\":6225:6267  0x37b60f4E9A31A64cCc0024dce7D0fD07eAA0F7B3 */\n      dup4\n      mstore\n        /* \"contracts/FutarchyArbExecutorV5.sol\":11942:11943  2 */\n      0x02\n        /* \"contracts/FutarchyArbExecutorV5.sol\":13258:13401  IBalancerVault.BatchSwapStep({... */\n      dup8\n      dup5\n      add\n        /* \"contracts/FutarchyArbExecutorV5.sol\":6225:6267  0x37b60f4E9A31A64cCc0024dce7D0fD07eAA0F7B3 */\n      mstore\n        /* \"contracts/FutarchyArbExecutorV5.sol\":5111:41903  contract FutarchyArbExecutorV5 {... */\n      0x04\n      0x40\n        /* \"contracts/FutarchyArbExecutorV5.sol\":13258:13401  IBalancerVault.BatchSwapStep({... */\n      dup5\n      add\n        /* \"contracts/FutarchyArbExecutorV5.sol\":6225:6267  0x37b60f4E9A31A64cCc0024dce7D0fD07eAA0F7B3 */\n      mstore\n        /* \"contracts/FutarchyArbExecutorV5.sol\":13258:13401  IBalancerVault.BatchSwapStep({... */\n      dup4\n      dup4\n      add\n        /* \"contracts/FutarchyArbExecutorV5.sol\":6225:6267  0x37b60f4E9A31A64cCc0024dce7D0fD07eAA0F7B3 */\n      mstore\n        /* \"contracts/FutarchyArbExecutorV5.sol\":12858:13000  IBalancerVault.BatchSwapStep({... */\n      0x80\n        /* \"contracts/FutarchyArbExecutorV5.sol\":13258:13401  IBalancerVault.BatchSwapStep({... */\n      dup3\n      add\n        /* \"contracts/FutarchyArbExecutorV5.sol\":6225:6267  0x37b60f4E9A31A64cCc0024dce7D0fD07eAA0F7B3 */\n      mstore\n        /* \"contracts/FutarchyArbExecutorV5.sol\":13247:13401  swaps[2] = IBalancerVault.BatchSwapStep({... */\n      tag_133\n      dup4\n      tag_31\n      jump\t// in\n    tag_133:\n      mstore\n      tag_134\n      dup3\n      tag_31\n      jump\t// in\n    tag_134:\n      pop\n        /* \"contracts/FutarchyArbExecutorV5.sol\":5111:41903  contract FutarchyArbExecutorV5 {... */\n      mload(0x40)\n      tag_135\n      dup6\n      dup3\n      tag_18\n      jump\t// in\n    tag_135:\n        /* \"contracts/FutarchyArbExecutorV5.sol\":11740:11741  0 */\n      mload(0x0100)\n        /* \"contracts/FutarchyArbExecutorV5.sol\":5111:41903  contract FutarchyArbExecutorV5 {... */\n      dup2\n      mstore\n      mload(0x40)\n      swap1\n      tag_136\n      dup3\n      tag_17\n      jump\t// in\n    tag_136:\n      mload(0x00)\n      codecopy(0x00, data_a9d90bf0c84ce4451e39083a58090a10a0fbe54d1cc426b0f3f264b80dafbc72, 0x20)\n      mload(0x00)\n      swap1\n      0x00\n      mstore\n        /* \"contracts/FutarchyArbExecutorV5.sol\":6225:6267  0x37b60f4E9A31A64cCc0024dce7D0fD07eAA0F7B3 */\n      dup3\n      mstore\n        /* \"contracts/FutarchyArbExecutorV5.sol\":5111:41903  contract FutarchyArbExecutorV5 {... */\n      0x04\n        /* \"contracts/FutarchyArbExecutorV5.sol\":13422:13561  IBalancerVault.BatchSwapStep({... */\n      dup7\n      dup4\n      add\n        /* \"contracts/FutarchyArbExecutorV5.sol\":6225:6267  0x37b60f4E9A31A64cCc0024dce7D0fD07eAA0F7B3 */\n      mstore\n        /* \"contracts/FutarchyArbExecutorV5.sol\":13517:13518  3 */\n      0x03\n        /* \"contracts/FutarchyArbExecutorV5.sol\":5111:41903  contract FutarchyArbExecutorV5 {... */\n      0x40\n        /* \"contracts/FutarchyArbExecutorV5.sol\":13422:13561  IBalancerVault.BatchSwapStep({... */\n      dup4\n      add\n        /* \"contracts/FutarchyArbExecutorV5.sol\":6225:6267  0x37b60f4E9A31A64cCc0024dce7D0fD07eAA0F7B3 */\n      mstore\n        /* \"contracts/FutarchyArbExecutorV5.sol\":11740:11741  0 */\n      mload(0x0100)\n        /* \"contracts/FutarchyArbExecutorV5.sol\":13422:13561  IBalancerVault.BatchSwapStep({... */\n      dup4\n      dup4\n      add\n        /* \"contracts/FutarchyArbExecutorV5.sol\":6225:6267  0x37b60f4E9A31A64cCc0024dce7D0fD07eAA0F7B3 */\n      mstore\n        /* \"contracts/FutarchyArbExecutorV5.sol\":12858:13000  IBalancerVault.BatchSwapStep({... */\n      0x80\n        /* \"contracts/FutarchyArbExecutorV5.sol\":13422:13561  IBalancerVault.BatchSwapStep({... */\n      dup3\n      add\n        /* \"contracts/FutarchyArbExecutorV5.sol\":6225:6267  0x37b60f4E9A31A64cCc0024dce7D0fD07eAA0F7B3 */\n      mstore\n        /* \"contracts/FutarchyArbExecutorV5.sol\":13411:13561  swaps[3] = IBalancerVault.BatchSwapStep({... */\n      tag_137\n      dup4\n      tag_32\n      jump\t// in\n    tag_137:\n      mstore\n      tag_138\n      dup3\n      tag_32\n      jump\t// in\n    tag_138:\n      pop\n        /* \"contracts/FutarchyArbExecutorV5.sol\":5111:41903  contract FutarchyArbExecutorV5 {... */\n      mload(0x40)\n      tag_139\n      dup6\n      dup3\n      tag_18\n      jump\t// in\n    tag_139:\n        /* \"contracts/FutarchyArbExecutorV5.sol\":11740:11741  0 */\n      mload(0x0100)\n        /* \"contracts/FutarchyArbExecutorV5.sol\":5111:41903  contract FutarchyArbExecutorV5 {... */\n      dup2\n      mstore\n      mload(0x40)\n      swap1\n      tag_140\n      dup3\n      tag_17\n      jump\t// in\n    tag_140:\n      mload(0x00)\n      codecopy(0x00, data_969cee0ab77f941c5d213a1db6cb2116b0c84035b9046a9d8b5a62de89aab7e9, 0x20)\n      mload(0x00)\n      swap1\n      0x00\n      mstore\n        /* \"contracts/FutarchyArbExecutorV5.sol\":6225:6267  0x37b60f4E9A31A64cCc0024dce7D0fD07eAA0F7B3 */\n      dup3\n      mstore\n        /* \"contracts/FutarchyArbExecutorV5.sol\":13517:13518  3 */\n      0x03\n        /* \"contracts/FutarchyArbExecutorV5.sol\":13582:13721  IBalancerVault.BatchSwapStep({... */\n      dup7\n      dup4\n      add\n        /* \"contracts/FutarchyArbExecutorV5.sol\":6225:6267  0x37b60f4E9A31A64cCc0024dce7D0fD07eAA0F7B3 */\n      mstore\n        /* \"contracts/FutarchyArbExecutorV5.sol\":11740:11741  0 */\n      mload(0x0100)\n        /* \"contracts/FutarchyArbExecutorV5.sol\":5111:41903  contract FutarchyArbExecutorV5 {... */\n      0x40\n        /* \"contracts/FutarchyArbExecutorV5.sol\":13582:13721  IBalancerVault.BatchSwapStep({... */\n      dup4\n      add\n        /* \"contracts/FutarchyArbExecutorV5.sol\":6225:6267  0x37b60f4E9A31A64cCc0024dce7D0fD07eAA0F7B3 */\n      mstore\n        /* \"contracts/FutarchyArbExecutorV5.sol\":11740:11741  0 */\n      mload(0x0100)\n        /* \"contracts/FutarchyArbExecutorV5.sol\":13582:13721  IBalancerVault.BatchSwapStep({... */\n      dup4\n      dup4\n      add\n        /* \"contracts/FutarchyArbExecutorV5.sol\":6225:6267  0x37b60f4E9A31A64cCc0024dce7D0fD07eAA0F7B3 */\n      mstore\n        /* \"contracts/FutarchyArbExecutorV5.sol\":12858:13000  IBalancerVault.BatchSwapStep({... */\n      0x80\n        /* \"contracts/FutarchyArbExecutorV5.sol\":13582:13721  IBalancerVault.BatchSwapStep({... */\n      dup3\n      add\n        /* \"contracts/FutarchyArbExecutorV5.sol\":6225:6267  0x37b60f4E9A31A64cCc0024dce7D0fD07eAA0F7B3 */\n      mstore\n        /* \"contracts/FutarchyArbExecutorV5.sol\":13571:13721  swaps[4] = IBalancerVault.BatchSwapStep({... */\n      tag_141\n      dup4\n      tag_33\n      jump\t// in\n    tag_141:\n      mstore\n      tag_142\n      dup3\n      tag_33\n      jump\t// in\n    tag_142:\n      pop\n        /* \"contracts/FutarchyArbExecutorV5.sol\":13823:13850  new int256[](assets.length) */\n      tag_143\n        /* \"contracts/FutarchyArbExecutorV5.sol\":6225:6267  0x37b60f4E9A31A64cCc0024dce7D0fD07eAA0F7B3 */\n      dup7\n      mload\n        /* \"contracts/FutarchyArbExecutorV5.sol\":13823:13850  new int256[](assets.length) */\n      tag_38\n      jump\t// in\n    tag_143:\n        /* \"contracts/FutarchyArbExecutorV5.sol\":13918:13956  limits[PNK_IDX_WETH] = int256(wethBal) */\n      swap3\n      tag_144\n      dup5\n      tag_31\n      jump\t// in\n    tag_144:\n        /* \"contracts/FutarchyArbExecutorV5.sol\":6225:6267  0x37b60f4E9A31A64cCc0024dce7D0fD07eAA0F7B3 */\n      mstore\n        /* \"contracts/FutarchyArbExecutorV5.sol\":13970:13984  minSdaiOut > 0 */\n      dup5\n      iszero\n      iszero\n        /* \"contracts/FutarchyArbExecutorV5.sol\":13966:14115  if (minSdaiOut > 0) {... */\n      swap6\n      dup7\n      tag_145\n      jumpi\n        /* \"contracts/FutarchyArbExecutorV5.sol\":5111:41903  contract FutarchyArbExecutorV5 {... */\n    tag_146:\n      mload(0x40)\n      swap2\n      tag_147\n      dup4\n      tag_16\n      jump\t// in\n    tag_147:\n        /* \"contracts/FutarchyArbExecutorV5.sol\":12135:12139  this */\n      address\n        /* \"contracts/FutarchyArbExecutorV5.sol\":6225:6267  0x37b60f4E9A31A64cCc0024dce7D0fD07eAA0F7B3 */\n      dup4\n      mstore\n        /* \"contracts/FutarchyArbExecutorV5.sol\":11740:11741  0 */\n      mload(0x0100)\n        /* \"contracts/FutarchyArbExecutorV5.sol\":14170:14326  IBalancerVault.FundManagement({... */\n      dup7\n      dup5\n      add\n        /* \"contracts/FutarchyArbExecutorV5.sol\":7556:7557  2 */\n      mstore\n        /* \"contracts/FutarchyArbExecutorV5.sol\":12135:12139  this */\n      address\n        /* \"contracts/FutarchyArbExecutorV5.sol\":5111:41903  contract FutarchyArbExecutorV5 {... */\n      0x40\n        /* \"contracts/FutarchyArbExecutorV5.sol\":14170:14326  IBalancerVault.FundManagement({... */\n      dup5\n      add\n        /* \"contracts/FutarchyArbExecutorV5.sol\":6225:6267  0x37b60f4E9A31A64cCc0024dce7D0fD07eAA0F7B3 */\n      mstore\n        /* \"contracts/FutarchyArbExecutorV5.sol\":11740:11741  0 */\n      mload(0x0100)\n        /* \"contracts/FutarchyArbExecutorV5.sol\":14170:14326  IBalancerVault.FundManagement({... */\n      swap1\n      dup4\n      add\n        /* \"contracts/FutarchyArbExecutorV5.sol\":7556:7557  2 */\n      mstore\n        /* \"contracts/FutarchyArbExecutorV5.sol\":14337:14479  IBalancerVault(BALANCER_VAULT)... */\n      tag_148\n        /* \"contracts/FutarchyArbExecutorV5.sol\":5111:41903  contract FutarchyArbExecutorV5 {... */\n      mload(0x40)\n      swap5\n      dup6\n      swap4\n      dup5\n      swap4\n      shl(0xe0, 0x945bcec9)\n        /* \"contracts/FutarchyArbExecutorV5.sol\":14337:14479  IBalancerVault(BALANCER_VAULT)... */\n      dup6\n      mstore\n        /* \"contracts/FutarchyArbExecutorV5.sol\":11740:11741  0 */\n      mload(0x0100)\n        /* \"contracts/FutarchyArbExecutorV5.sol\":14337:14479  IBalancerVault(BALANCER_VAULT)... */\n      swap7\n        /* \"contracts/FutarchyArbExecutorV5.sol\":5111:41903  contract FutarchyArbExecutorV5 {... */\n      0x04\n        /* \"contracts/FutarchyArbExecutorV5.sol\":14337:14479  IBalancerVault(BALANCER_VAULT)... */\n      dup7\n      add\n      tag_42\n      jump\t// in\n    tag_148:\n      sub\n        /* \"contracts/FutarchyArbExecutorV5.sol\":11740:11741  0 */\n      dup2\n      mload(0x0100)\n      mload(0x00)\n      codecopy(0x00, data_d91414ac4175376259ecb6d3ea005aa1ae1e7573d53a4ea2b2fc89eb70155797, 0x20)\n      mload(0x00)\n      swap1\n      0x00\n      mstore\n        /* \"contracts/FutarchyArbExecutorV5.sol\":14337:14479  IBalancerVault(BALANCER_VAULT)... */\n      gas\n      call\n      dup1\n      iszero\n      tag_153\n      jumpi\n      tag_151\n      jumpi\n        /* \"contracts/FutarchyArbExecutorV5.sol\":5111:41903  contract FutarchyArbExecutorV5 {... */\n    tag_152:\n      pop\n      mload(0x40)\n      shl(0xe0, 0x70a08231)\n        /* \"contracts/FutarchyArbExecutorV5.sol\":14542:14585  IERC20(TOKEN_SDAI).balanceOf(address(this)) */\n      dup2\n      mstore\n        /* \"contracts/FutarchyArbExecutorV5.sol\":12135:12139  this */\n      address\n        /* \"contracts/FutarchyArbExecutorV5.sol\":5111:41903  contract FutarchyArbExecutorV5 {... */\n      0x04\n        /* \"contracts/FutarchyArbExecutorV5.sol\":14542:14585  IERC20(TOKEN_SDAI).balanceOf(address(this)) */\n      dup3\n      add\n        /* \"contracts/FutarchyArbExecutorV5.sol\":5111:41903  contract FutarchyArbExecutorV5 {... */\n      mstore\n        /* \"contracts/FutarchyArbExecutorV5.sol\":14542:14585  IERC20(TOKEN_SDAI).balanceOf(address(this)) */\n      dup2\n        /* \"contracts/FutarchyArbExecutorV5.sol\":5111:41903  contract FutarchyArbExecutorV5 {... */\n      dup2\n        /* \"contracts/FutarchyArbExecutorV5.sol\":12219:12262  IERC20(TOKEN_WETH).balanceOf(address(this)) */\n      0x24\n        /* \"contracts/FutarchyArbExecutorV5.sol\":5111:41903  contract FutarchyArbExecutorV5 {... */\n      dup2\n        /* \"contracts/FutarchyArbExecutorV5.sol\":6052:6094  0xaf204776c7245bF4147c2612BF6e5972Ee483701 */\n      0xaf204776c7245bf4147c2612bf6e5972ee483701\n        /* \"contracts/FutarchyArbExecutorV5.sol\":14542:14585  IERC20(TOKEN_SDAI).balanceOf(address(this)) */\n      gas\n      staticcall\n      swap2\n      dup3\n      iszero\n      tag_153\n      jumpi\n        /* \"contracts/FutarchyArbExecutorV5.sol\":11740:11741  0 */\n      mload(0x0100)\n        /* \"contracts/FutarchyArbExecutorV5.sol\":14542:14585  IERC20(TOKEN_SDAI).balanceOf(address(this)) */\n      swap3\n      tag_155\n      jumpi\n        /* \"contracts/FutarchyArbExecutorV5.sol\":5111:41903  contract FutarchyArbExecutorV5 {... */\n    tag_156:\n        /* \"contracts/FutarchyArbExecutorV5.sol\":14599:14611  sdaiBal == 0 */\n      pop\n      pop\n      dup1\n      iszero\n        /* \"contracts/FutarchyArbExecutorV5.sol\":14595:14631  if (sdaiBal == 0) revert NoBalance() */\n      tag_157\n      jumpi\n        /* \"contracts/FutarchyArbExecutorV5.sol\":14645:14683  minSdaiOut > 0 && sdaiBal < minSdaiOut */\n      dup3\n      tag_159\n      jumpi\n        /* \"contracts/FutarchyArbExecutorV5.sol\":5111:41903  contract FutarchyArbExecutorV5 {... */\n    tag_160:\n        /* \"contracts/FutarchyArbExecutorV5.sol\":14641:14712  if (minSdaiOut > 0 && sdaiBal < minSdaiOut) revert InsufficientOutput() */\n      pop\n      pop\n      tag_161\n      jumpi\n        /* \"contracts/FutarchyArbExecutorV5.sol\":5111:41903  contract FutarchyArbExecutorV5 {... */\n      mload(0x0100)\n      dup1\n      return\n        /* \"contracts/FutarchyArbExecutorV5.sol\":14641:14712  if (minSdaiOut > 0 && sdaiBal < minSdaiOut) revert InsufficientOutput() */\n    tag_161:\n        /* \"contracts/FutarchyArbExecutorV5.sol\":10778:10798  InsufficientOutput() */\n      shl(0xe0, 0xbb2875c3)\n        /* \"contracts/FutarchyArbExecutorV5.sol\":11740:11741  0 */\n      mload(0x0100)\n        /* \"contracts/FutarchyArbExecutorV5.sol\":14692:14712  InsufficientOutput() */\n      mstore\n        /* \"contracts/FutarchyArbExecutorV5.sol\":5111:41903  contract FutarchyArbExecutorV5 {... */\n      0x04\n        /* \"contracts/FutarchyArbExecutorV5.sol\":11740:11741  0 */\n      mload(0x0100)\n        /* \"contracts/FutarchyArbExecutorV5.sol\":14692:14712  InsufficientOutput() */\n      revert\n        /* \"contracts/FutarchyArbExecutorV5.sol\":14645:14683  minSdaiOut > 0 && sdaiBal < minSdaiOut */\n    tag_159:\n        /* \"contracts/FutarchyArbExecutorV5.sol\":14663:14683  sdaiBal < minSdaiOut */\n      lt\n      swap1\n      pop\n        /* \"contracts/FutarchyArbExecutorV5.sol\":14645:14683  minSdaiOut > 0 && sdaiBal < minSdaiOut */\n      dup2\n      dup1\n      jump(tag_160)\n        /* \"contracts/FutarchyArbExecutorV5.sol\":14595:14631  if (sdaiBal == 0) revert NoBalance() */\n    tag_157:\n        /* \"contracts/FutarchyArbExecutorV5.sol\":10706:10717  NoBalance() */\n      shl(0xe1, 0x61655153)\n        /* \"contracts/FutarchyArbExecutorV5.sol\":11740:11741  0 */\n      mload(0x0100)\n        /* \"contracts/FutarchyArbExecutorV5.sol\":14620:14631  NoBalance() */\n      mstore\n        /* \"contracts/FutarchyArbExecutorV5.sol\":5111:41903  contract FutarchyArbExecutorV5 {... */\n      0x04\n        /* \"contracts/FutarchyArbExecutorV5.sol\":11740:11741  0 */\n      mload(0x0100)\n        /* \"contracts/FutarchyArbExecutorV5.sol\":14620:14631  NoBalance() */\n      revert\n        /* \"contracts/FutarchyArbExecutorV5.sol\":14542:14585  IERC20(TOKEN_SDAI).balanceOf(address(this)) */\n    tag_155:\n      swap1\n      dup1\n      swap3\n      pop\n      dup2\n      returndatasize\n      dup4\n      gt\n      tag_163\n      jumpi\n    tag_164:\n      tag_165\n      dup2\n      dup4\n      tag_18\n      jump\t// in\n    tag_165:\n      dup2\n      add\n        /* \"contracts/FutarchyArbExecutorV5.sol\":5111:41903  contract FutarchyArbExecutorV5 {... */\n      sub\n      slt\n      tag_166\n      jumpi\n      mload\n        /* \"contracts/FutarchyArbExecutorV5.sol\":14542:14585  IERC20(TOKEN_SDAI).balanceOf(address(this)) */\n      dup4\n      dup1\n      jump(tag_156)\n        /* \"contracts/FutarchyArbExecutorV5.sol\":5111:41903  contract FutarchyArbExecutorV5 {... */\n    tag_166:\n      0x00\n      dup1\n      revert\n        /* \"contracts/FutarchyArbExecutorV5.sol\":14542:14585  IERC20(TOKEN_SDAI).balanceOf(address(this)) */\n    tag_163:\n      pop\n      returndatasize\n      jump(tag_164)\n    tag_153:\n        /* \"contracts/FutarchyArbExecutorV5.sol\":5111:41903  contract FutarchyArbExecutorV5 {... */\n      mload(0x40)\n      returndatasize\n        /* \"contracts/FutarchyArbExecutorV5.sol\":11740:11741  0 */\n      mload(0x0100)\n        /* \"contracts/FutarchyArbExecutorV5.sol\":5111:41903  contract FutarchyArbExecutorV5 {... */\n      dup3\n      returndatacopy\n      returndatasize\n      swap1\n      revert\n        /* \"contracts/FutarchyArbExecutorV5.sol\":14337:14479  IBalancerVault(BALANCER_VAULT)... */\n    tag_151:\n      tag_168\n      swap1\n      returndatasize\n        /* \"contracts/FutarchyArbExecutorV5.sol\":11740:11741  0 */\n      dup1\n      mload(0x0100)\n        /* \"contracts/FutarchyArbExecutorV5.sol\":14337:14479  IBalancerVault(BALANCER_VAULT)... */\n      dup4\n      returndatacopy\n      tag_169\n      dup2\n      dup4\n      tag_18\n      jump\t// in\n    tag_169:\n      dup2\n      add\n      swap1\n      tag_40\n      jump\t// in\n    tag_168:\n      jump(tag_152)\n        /* \"contracts/FutarchyArbExecutorV5.sol\":13966:14115  if (minSdaiOut > 0) {... */\n    tag_145:\n        /* \"contracts/FutarchyArbExecutorV5.sol\":14085:14104  -int256(minSdaiOut) */\n      tag_170\n      dup7\n      tag_39\n      jump\t// in\n    tag_170:\n        /* \"contracts/FutarchyArbExecutorV5.sol\":14062:14104  limits[PNK_IDX_SDAI] = -int256(minSdaiOut) */\n      tag_171\n      dup6\n      tag_29\n      jump\t// in\n    tag_171:\n        /* \"contracts/FutarchyArbExecutorV5.sol\":6225:6267  0x37b60f4E9A31A64cCc0024dce7D0fD07eAA0F7B3 */\n      mstore\n        /* \"contracts/FutarchyArbExecutorV5.sol\":13966:14115  if (minSdaiOut > 0) {... */\n      jump(tag_146)\n        /* \"contracts/FutarchyArbExecutorV5.sol\":5111:41903  contract FutarchyArbExecutorV5 {... */\n    tag_121:\n      shl(0xe0, 0x4e487b71)\n        /* \"contracts/FutarchyArbExecutorV5.sol\":11740:11741  0 */\n      mload(0x0100)\n        /* \"contracts/FutarchyArbExecutorV5.sol\":5111:41903  contract FutarchyArbExecutorV5 {... */\n      mstore\n      mstore(0x04, 0x11)\n        /* \"contracts/FutarchyArbExecutorV5.sol\":12219:12262  IERC20(TOKEN_WETH).balanceOf(address(this)) */\n      0x24\n        /* \"contracts/FutarchyArbExecutorV5.sol\":11740:11741  0 */\n      mload(0x0100)\n        /* \"contracts/FutarchyArbExecutorV5.sol\":5111:41903  contract FutarchyArbExecutorV5 {... */\n      revert\n        /* \"contracts/FutarchyArbExecutorV5.sol\":12322:12360  minWethOut > 0 && wethBal < minWethOut */\n    tag_114:\n        /* \"contracts/FutarchyArbExecutorV5.sol\":12340:12360  wethBal < minWethOut */\n      swap1\n      pop\n      dup4\n      lt\n        /* \"contracts/FutarchyArbExecutorV5.sol\":12322:12360  minWethOut > 0 && wethBal < minWethOut */\n      dup5\n      jump(tag_115)\n        /* \"contracts/FutarchyArbExecutorV5.sol\":12219:12262  IERC20(TOKEN_WETH).balanceOf(address(this)) */\n    tag_110:\n      swap1\n      swap4\n      pop\n        /* \"contracts/FutarchyArbExecutorV5.sol\":6408:6450  0xE43e60736b1cb4a75ad25240E2f9a62Bff65c0C0 */\n      0x20\n        /* \"contracts/FutarchyArbExecutorV5.sol\":12219:12262  IERC20(TOKEN_WETH).balanceOf(address(this)) */\n      dup2\n      returndatasize\n        /* \"contracts/FutarchyArbExecutorV5.sol\":6408:6450  0xE43e60736b1cb4a75ad25240E2f9a62Bff65c0C0 */\n      0x20\n        /* \"contracts/FutarchyArbExecutorV5.sol\":12219:12262  IERC20(TOKEN_WETH).balanceOf(address(this)) */\n      gt\n      tag_172\n      jumpi\n    tag_173:\n      dup2\n      tag_174\n        /* \"contracts/FutarchyArbExecutorV5.sol\":5111:41903  contract FutarchyArbExecutorV5 {... */\n      0x20\n        /* \"contracts/FutarchyArbExecutorV5.sol\":12219:12262  IERC20(TOKEN_WETH).balanceOf(address(this)) */\n      swap4\n      dup4\n      tag_18\n      jump\t// in\n    tag_174:\n      dup2\n      add\n        /* \"contracts/FutarchyArbExecutorV5.sol\":5111:41903  contract FutarchyArbExecutorV5 {... */\n      sub\n      slt\n      tag_166\n      jumpi\n      mload\n        /* \"contracts/FutarchyArbExecutorV5.sol\":12219:12262  IERC20(TOKEN_WETH).balanceOf(address(this)) */\n      swap3\n      dup5\n      jump(tag_111)\n    tag_172:\n      returndatasize\n      swap2\n      pop\n      jump(tag_173)\n        /* \"contracts/FutarchyArbExecutorV5.sol\":12019:12160  IUniswapV2Router02(SWAPR_V2_ROUTER)... */\n    tag_106:\n      tag_177\n      swap1\n      returndatasize\n        /* \"contracts/FutarchyArbExecutorV5.sol\":11740:11741  0 */\n      dup1\n      mload(0x0100)\n        /* \"contracts/FutarchyArbExecutorV5.sol\":12019:12160  IUniswapV2Router02(SWAPR_V2_ROUTER)... */\n      dup4\n      returndatacopy\n      tag_178\n      dup2\n      dup4\n      tag_18\n      jump\t// in\n    tag_178:\n      dup2\n      add\n      swap1\n      tag_43\n      jump\t// in\n    tag_177:\n      jump(tag_107)\n        /* \"contracts/FutarchyArbExecutorV5.sol\":11721:11762  if (amountPnkIn == 0) revert ZeroAmount() */\n    tag_97:\n        /* \"contracts/FutarchyArbExecutorV5.sol\":8826:8838  ZeroAmount() */\n      shl(0xe0, 0x1f2a2005)\n        /* \"contracts/FutarchyArbExecutorV5.sol\":11740:11741  0 */\n      mload(0x0100)\n        /* \"contracts/FutarchyArbExecutorV5.sol\":11750:11762  ZeroAmount() */\n      mstore\n        /* \"contracts/FutarchyArbExecutorV5.sol\":5111:41903  contract FutarchyArbExecutorV5 {... */\n      0x04\n        /* \"contracts/FutarchyArbExecutorV5.sol\":11740:11741  0 */\n      mload(0x0100)\n        /* \"contracts/FutarchyArbExecutorV5.sol\":11750:11762  ZeroAmount() */\n      revert\n        /* \"contracts/FutarchyArbExecutorV5.sol\":5111:41903  contract FutarchyArbExecutorV5 {... */\n    tag_77:\n      jumpi(tag_85, callvalue)\n      tag_181\n      calldatasize\n      tag_14\n      jump\t// in\n    tag_181:\n      swap14\n      pop\n      swap12\n      pop\n      swap6\n      swap4\n      swap10\n      pop\n      swap7\n      swap2\n      swap1\n      swap8\n      pop\n      0x01\n      dup1\n      0xa0\n      shl\n      sub\n      sload(mload(0x0100))\n      and\n        /* \"contracts/FutarchyArbExecutorV5.sol\":24554:24564  msg.sender */\n      caller\n        /* \"contracts/FutarchyArbExecutorV5.sol\":24554:24573  msg.sender != owner */\n      sub\n        /* \"contracts/FutarchyArbExecutorV5.sol\":24550:24592  if (msg.sender != owner) revert NotOwner() */\n      tag_88\n      jumpi\n        /* \"contracts/FutarchyArbExecutorV5.sol\":5111:41903  contract FutarchyArbExecutorV5 {... */\n      mload(0x40)\n      shl(0xe0, 0x70a08231)\n        /* \"contracts/FutarchyArbExecutorV5.sol\":16044:16080  IERC20(cur).balanceOf(address(this)) */\n      dup2\n      mstore\n        /* \"contracts/FutarchyArbExecutorV5.sol\":16074:16078  this */\n      address\n        /* \"contracts/FutarchyArbExecutorV5.sol\":5111:41903  contract FutarchyArbExecutorV5 {... */\n      0x04\n        /* \"contracts/FutarchyArbExecutorV5.sol\":16044:16080  IERC20(cur).balanceOf(address(this)) */\n      dup3\n      add\n        /* \"contracts/FutarchyArbExecutorV5.sol\":5111:41903  contract FutarchyArbExecutorV5 {... */\n      mstore\n      swap9\n      0x20\n      dup11\n        /* \"contracts/FutarchyArbExecutorV5.sol\":16044:16080  IERC20(cur).balanceOf(address(this)) */\n      0x24\n        /* \"contracts/FutarchyArbExecutorV5.sol\":5111:41903  contract FutarchyArbExecutorV5 {... */\n      dup2\n      sub(shl(0xa0, 0x01), 0x01)\n      dup12\n      and\n        /* \"contracts/FutarchyArbExecutorV5.sol\":16044:16080  IERC20(cur).balanceOf(address(this)) */\n      gas\n      staticcall\n      swap10\n      dup11\n      iszero\n      tag_153\n      jumpi\n        /* \"contracts/FutarchyArbExecutorV5.sol\":5111:41903  contract FutarchyArbExecutorV5 {... */\n      mload(0x0100)\n        /* \"contracts/FutarchyArbExecutorV5.sol\":16044:16080  IERC20(cur).balanceOf(address(this)) */\n      swap11\n      tag_186\n      jumpi\n        /* \"contracts/FutarchyArbExecutorV5.sol\":5111:41903  contract FutarchyArbExecutorV5 {... */\n    tag_187:\n      pop\n      mload(0x40)\n      dup11\n      dup2\n      mstore\n      sub(shl(0xa0, 0x01), 0x01)\n      dup9\n      and\n      swap1\n        /* \"contracts/FutarchyArbExecutorV5.sol\":16095:16146  InitialCollateralSnapshot(cur, initial_cur_balance) */\n      0xb2f03ce105b3cd1f9fccfa1de78c921cd3ad2f01048d3a832c7ebb893fd347b9\n      swap1\n        /* \"contracts/FutarchyArbExecutorV5.sol\":5111:41903  contract FutarchyArbExecutorV5 {... */\n      0x20\n      swap1\n        /* \"contracts/FutarchyArbExecutorV5.sol\":16095:16146  InitialCollateralSnapshot(cur, initial_cur_balance) */\n      log2\n        /* \"contracts/FutarchyArbExecutorV5.sol\":16161:16180  amount_sdai_in == 0 */\n      dup11\n      iszero\n        /* \"contracts/FutarchyArbExecutorV5.sol\":16157:16201  if (amount_sdai_in == 0) revert ZeroAmount() */\n      tag_97\n      jumpi\n      not(0x37b60f4e9a31a64ccc0024dce7d0fd07eaa0f7b2)\n      sub(shl(0xa0, 0x01), 0x01)\n        /* \"contracts/FutarchyArbExecutorV5.sol\":5111:41903  contract FutarchyArbExecutorV5 {... */\n      dup5\n      and\n        /* \"contracts/FutarchyArbExecutorV5.sol\":16215:16232  comp != TOKEN_PNK */\n      add\n        /* \"contracts/FutarchyArbExecutorV5.sol\":16211:16254  if (comp != TOKEN_PNK) revert InvalidComp() */\n      tag_190\n      jumpi\n      sub(shl(0xa0, 0x01), 0x01)\n        /* \"contracts/FutarchyArbExecutorV5.sol\":5111:41903  contract FutarchyArbExecutorV5 {... */\n      dup5\n      and\n        /* \"contracts/FutarchyArbExecutorV5.sol\":16268:16297  futarchy_router == address(0) */\n      iszero\n        /* \"contracts/FutarchyArbExecutorV5.sol\":16268:16323  futarchy_router == address(0) || proposal == address(0) */\n      dup1\n      iszero\n      swap4\n      swap1\n      dup5\n      tag_192\n      jumpi\n        /* \"contracts/FutarchyArbExecutorV5.sol\":5111:41903  contract FutarchyArbExecutorV5 {... */\n    tag_193:\n        /* \"contracts/FutarchyArbExecutorV5.sol\":16264:16354  if (futarchy_router == address(0) || proposal == address(0)) revert RouterOrProposalZero() */\n      tag_194\n      jumpi\n      sub(shl(0xa0, 0x01), 0x01)\n        /* \"contracts/FutarchyArbExecutorV5.sol\":5111:41903  contract FutarchyArbExecutorV5 {... */\n      dup9\n      and\n        /* \"contracts/FutarchyArbExecutorV5.sol\":16368:16385  cur == address(0) */\n      iszero\n        /* \"contracts/FutarchyArbExecutorV5.sol\":16368:16411  cur == address(0) || yes_comp == address(0) */\n      dup1\n      iszero\n      tag_196\n      jumpi\n        /* \"contracts/FutarchyArbExecutorV5.sol\":5111:41903  contract FutarchyArbExecutorV5 {... */\n    tag_197:\n        /* \"contracts/FutarchyArbExecutorV5.sol\":16368:16436  cur == address(0) || yes_comp == address(0) || no_comp == address(0) */\n      dup1\n      iszero\n      tag_198\n      jumpi\n        /* \"contracts/FutarchyArbExecutorV5.sol\":5111:41903  contract FutarchyArbExecutorV5 {... */\n    tag_199:\n        /* \"contracts/FutarchyArbExecutorV5.sol\":16364:16458  if (cur == address(0) || yes_comp == address(0) || no_comp == address(0)) revert ZeroAddress() */\n      tag_90\n      jumpi\n      sub(shl(0xa0, 0x01), 0x01)\n        /* \"contracts/FutarchyArbExecutorV5.sol\":5111:41903  contract FutarchyArbExecutorV5 {... */\n      dup11\n      and\n        /* \"contracts/FutarchyArbExecutorV5.sol\":16472:16493  yes_cur == address(0) */\n      iszero\n        /* \"contracts/FutarchyArbExecutorV5.sol\":16472:16517  yes_cur == address(0) || no_cur == address(0) */\n      dup1\n      iszero\n      tag_202\n      jumpi\n        /* \"contracts/FutarchyArbExecutorV5.sol\":5111:41903  contract FutarchyArbExecutorV5 {... */\n    tag_203:\n        /* \"contracts/FutarchyArbExecutorV5.sol\":16472:16547  yes_cur == address(0) || no_cur == address(0) || swapr_router == address(0) */\n      dup1\n      iszero\n      tag_204\n      jumpi\n        /* \"contracts/FutarchyArbExecutorV5.sol\":5111:41903  contract FutarchyArbExecutorV5 {... */\n    tag_205:\n        /* \"contracts/FutarchyArbExecutorV5.sol\":16468:16574  if (yes_cur == address(0) || no_cur == address(0) || swapr_router == address(0)) revert TokenAddressZero() */\n      tag_206\n      jumpi\n        /* \"contracts/FutarchyArbExecutorV5.sol\":8931:8945  BALANCER_VAULT */\n      tag_208\n      tag_47\n      jump\t// in\n    tag_208:\n        /* \"contracts/FutarchyArbExecutorV5.sol\":9013:9030  _pnkAssetsOrder() */\n      tag_209\n      tag_56\n      jump\t// in\n    tag_209:\n        /* \"contracts/FutarchyArbExecutorV5.sol\":9172:9209  new IBalancerVault.BatchSwapStep[](3) */\n      swap12\n      tag_210\n      tag_36\n      jump\t// in\n    tag_210:\n        /* \"contracts/FutarchyArbExecutorV5.sol\":5111:41903  contract FutarchyArbExecutorV5 {... */\n      0x20\n      dup1\n      swap15\n      mload(0x40)\n      tag_211\n      dup4\n      dup3\n      tag_18\n      jump\t// in\n    tag_211:\n      mload(0x0100)\n      dup2\n      mstore\n      mload(0x40)\n      swap1\n      tag_212\n      dup3\n      tag_17\n      jump\t// in\n    tag_212:\n      mload(0x00)\n      codecopy(0x00, data_969cee0ab77f941c5d213a1db6cb2116b0c84035b9046a9d8b5a62de89aab7e9, 0x20)\n      mload(0x00)\n      swap1\n      0x00\n      mstore\n        /* \"contracts/FutarchyArbExecutorV5.sol\":6225:6267  0x37b60f4E9A31A64cCc0024dce7D0fD07eAA0F7B3 */\n      dup3\n      mstore\n        /* \"contracts/FutarchyArbExecutorV5.sol\":5111:41903  contract FutarchyArbExecutorV5 {... */\n      mload(0x0100)\n        /* \"contracts/FutarchyArbExecutorV5.sol\":9230:9380  IBalancerVault.BatchSwapStep({... */\n      dup5\n      dup4\n      add\n        /* \"contracts/FutarchyArbExecutorV5.sol\":6225:6267  0x37b60f4E9A31A64cCc0024dce7D0fD07eAA0F7B3 */\n      mstore\n        /* \"contracts/FutarchyArbExecutorV5.sol\":9207:9208  3 */\n      0x03\n        /* \"contracts/FutarchyArbExecutorV5.sol\":5111:41903  contract FutarchyArbExecutorV5 {... */\n      0x40\n        /* \"contracts/FutarchyArbExecutorV5.sol\":9230:9380  IBalancerVault.BatchSwapStep({... */\n      dup4\n      add\n        /* \"contracts/FutarchyArbExecutorV5.sol\":6225:6267  0x37b60f4E9A31A64cCc0024dce7D0fD07eAA0F7B3 */\n      mstore\n        /* \"contracts/FutarchyArbExecutorV5.sol\":9230:9380  IBalancerVault.BatchSwapStep({... */\n      dup6\n      0x60\n      dup4\n      add\n        /* \"contracts/FutarchyArbExecutorV5.sol\":6225:6267  0x37b60f4E9A31A64cCc0024dce7D0fD07eAA0F7B3 */\n      mstore\n        /* \"contracts/FutarchyArbExecutorV5.sol\":9230:9380  IBalancerVault.BatchSwapStep({... */\n      0x80\n      dup3\n      add\n        /* \"contracts/FutarchyArbExecutorV5.sol\":6225:6267  0x37b60f4E9A31A64cCc0024dce7D0fD07eAA0F7B3 */\n      mstore\n        /* \"contracts/FutarchyArbExecutorV5.sol\":9219:9380  swaps[0] = IBalancerVault.BatchSwapStep({... */\n      tag_213\n      dup5\n      tag_29\n      jump\t// in\n    tag_213:\n      mstore\n      tag_214\n      dup4\n      tag_29\n      jump\t// in\n    tag_214:\n      pop\n        /* \"contracts/FutarchyArbExecutorV5.sol\":5111:41903  contract FutarchyArbExecutorV5 {... */\n      mload(0x40)\n      tag_215\n      dup4\n      dup3\n      tag_18\n      jump\t// in\n    tag_215:\n      mload(0x0100)\n      dup2\n      mstore\n      mload(0x40)\n      swap1\n      tag_216\n      dup3\n      tag_17\n      jump\t// in\n    tag_216:\n      mload(0x00)\n      codecopy(0x00, data_a9d90bf0c84ce4451e39083a58090a10a0fbe54d1cc426b0f3f264b80dafbc72, 0x20)\n      mload(0x00)\n      swap1\n      0x00\n      mstore\n        /* \"contracts/FutarchyArbExecutorV5.sol\":6225:6267  0x37b60f4E9A31A64cCc0024dce7D0fD07eAA0F7B3 */\n      dup3\n      mstore\n        /* \"contracts/FutarchyArbExecutorV5.sol\":9207:9208  3 */\n      0x03\n        /* \"contracts/FutarchyArbExecutorV5.sol\":9401:9540  IBalancerVault.BatchSwapStep({... */\n      dup5\n      dup4\n      add\n        /* \"contracts/FutarchyArbExecutorV5.sol\":6225:6267  0x37b60f4E9A31A64cCc0024dce7D0fD07eAA0F7B3 */\n      mstore\n        /* \"contracts/FutarchyArbExecutorV5.sol\":5111:41903  contract FutarchyArbExecutorV5 {... */\n      0x04\n      0x40\n        /* \"contracts/FutarchyArbExecutorV5.sol\":9401:9540  IBalancerVault.BatchSwapStep({... */\n      dup4\n      add\n        /* \"contracts/FutarchyArbExecutorV5.sol\":6225:6267  0x37b60f4E9A31A64cCc0024dce7D0fD07eAA0F7B3 */\n      mstore\n        /* \"contracts/FutarchyArbExecutorV5.sol\":5111:41903  contract FutarchyArbExecutorV5 {... */\n      mload(0x0100)\n        /* \"contracts/FutarchyArbExecutorV5.sol\":9230:9380  IBalancerVault.BatchSwapStep({... */\n      0x60\n        /* \"contracts/FutarchyArbExecutorV5.sol\":9401:9540  IBalancerVault.BatchSwapStep({... */\n      dup4\n      add\n        /* \"contracts/FutarchyArbExecutorV5.sol\":6225:6267  0x37b60f4E9A31A64cCc0024dce7D0fD07eAA0F7B3 */\n      mstore\n        /* \"contracts/FutarchyArbExecutorV5.sol\":9230:9380  IBalancerVault.BatchSwapStep({... */\n      0x80\n        /* \"contracts/FutarchyArbExecutorV5.sol\":9401:9540  IBalancerVault.BatchSwapStep({... */\n      dup3\n      add\n        /* \"contracts/FutarchyArbExecutorV5.sol\":6225:6267  0x37b60f4E9A31A64cCc0024dce7D0fD07eAA0F7B3 */\n      mstore\n        /* \"contracts/FutarchyArbExecutorV5.sol\":9390:9540  swaps[1] = IBalancerVault.BatchSwapStep({... */\n      tag_217\n      dup5\n      tag_30\n      jump\t// in\n    tag_217:\n      mstore\n      tag_218\n      dup4\n      tag_30\n      jump\t// in\n    tag_218:\n      pop\n        /* \"contracts/FutarchyArbExecutorV5.sol\":5111:41903  contract FutarchyArbExecutorV5 {... */\n      mload(0x40)\n      tag_219\n      dup4\n      dup3\n      tag_18\n      jump\t// in\n    tag_219:\n      mload(0x0100)\n      dup2\n      mstore\n      mload(0x40)\n      swap1\n      tag_220\n      dup3\n      tag_17\n      jump\t// in\n    tag_220:\n      mload(0x00)\n      codecopy(0x00, data_6a768ce7dd29682ca8651cedf43ef435380ee90c92e8ceb8428caf6b41d02b1e, 0x20)\n      mload(0x00)\n      swap1\n      0x00\n      mstore\n        /* \"contracts/FutarchyArbExecutorV5.sol\":6225:6267  0x37b60f4E9A31A64cCc0024dce7D0fD07eAA0F7B3 */\n      dup3\n      mstore\n        /* \"contracts/FutarchyArbExecutorV5.sol\":5111:41903  contract FutarchyArbExecutorV5 {... */\n      0x04\n        /* \"contracts/FutarchyArbExecutorV5.sol\":9561:9700  IBalancerVault.BatchSwapStep({... */\n      dup5\n      dup4\n      add\n        /* \"contracts/FutarchyArbExecutorV5.sol\":6225:6267  0x37b60f4E9A31A64cCc0024dce7D0fD07eAA0F7B3 */\n      mstore\n        /* \"contracts/FutarchyArbExecutorV5.sol\":9656:9657  2 */\n      0x02\n        /* \"contracts/FutarchyArbExecutorV5.sol\":5111:41903  contract FutarchyArbExecutorV5 {... */\n      0x40\n        /* \"contracts/FutarchyArbExecutorV5.sol\":9561:9700  IBalancerVault.BatchSwapStep({... */\n      dup4\n      add\n        /* \"contracts/FutarchyArbExecutorV5.sol\":6225:6267  0x37b60f4E9A31A64cCc0024dce7D0fD07eAA0F7B3 */\n      mstore\n        /* \"contracts/FutarchyArbExecutorV5.sol\":5111:41903  contract FutarchyArbExecutorV5 {... */\n      mload(0x0100)\n        /* \"contracts/FutarchyArbExecutorV5.sol\":9230:9380  IBalancerVault.BatchSwapStep({... */\n      0x60\n        /* \"contracts/FutarchyArbExecutorV5.sol\":9561:9700  IBalancerVault.BatchSwapStep({... */\n      dup4\n      add\n        /* \"contracts/FutarchyArbExecutorV5.sol\":6225:6267  0x37b60f4E9A31A64cCc0024dce7D0fD07eAA0F7B3 */\n      mstore\n        /* \"contracts/FutarchyArbExecutorV5.sol\":9230:9380  IBalancerVault.BatchSwapStep({... */\n      0x80\n        /* \"contracts/FutarchyArbExecutorV5.sol\":9561:9700  IBalancerVault.BatchSwapStep({... */\n      dup3\n      add\n        /* \"contracts/FutarchyArbExecutorV5.sol\":6225:6267  0x37b60f4E9A31A64cCc0024dce7D0fD07eAA0F7B3 */\n      mstore\n        /* \"contracts/FutarchyArbExecutorV5.sol\":9550:9700  swaps[2] = IBalancerVault.BatchSwapStep({... */\n      tag_221\n      dup5\n      tag_31\n      jump\t// in\n    tag_221:\n      mstore\n      tag_222\n      dup4\n      tag_31\n      jump\t// in\n    tag_222:\n      pop\n        /* \"contracts/FutarchyArbExecutorV5.sol\":9802:9829  new int256[](assets.length) */\n      tag_223\n        /* \"contracts/FutarchyArbExecutorV5.sol\":6225:6267  0x37b60f4E9A31A64cCc0024dce7D0fD07eAA0F7B3 */\n      dup2\n      mload\n        /* \"contracts/FutarchyArbExecutorV5.sol\":9802:9829  new int256[](assets.length) */\n      tag_38\n      jump\t// in\n    tag_223:\n        /* \"contracts/FutarchyArbExecutorV5.sol\":9897:9940  limits[PNK_IDX_SDAI] = int256(amountSdaiIn) */\n      swap4\n      tag_224\n      dup6\n      tag_29\n      jump\t// in\n    tag_224:\n        /* \"contracts/FutarchyArbExecutorV5.sol\":6225:6267  0x37b60f4E9A31A64cCc0024dce7D0fD07eAA0F7B3 */\n      mstore\n        /* \"contracts/FutarchyArbExecutorV5.sol\":5111:41903  contract FutarchyArbExecutorV5 {... */\n      mload(0x40)\n      swap2\n      tag_225\n      dup4\n      tag_16\n      jump\t// in\n    tag_225:\n        /* \"contracts/FutarchyArbExecutorV5.sol\":16074:16078  this */\n      address\n        /* \"contracts/FutarchyArbExecutorV5.sol\":6225:6267  0x37b60f4E9A31A64cCc0024dce7D0fD07eAA0F7B3 */\n      dup4\n      mstore\n        /* \"contracts/FutarchyArbExecutorV5.sol\":5111:41903  contract FutarchyArbExecutorV5 {... */\n      mload(0x0100)\n        /* \"contracts/FutarchyArbExecutorV5.sol\":10227:10383  IBalancerVault.FundManagement({... */\n      swap1\n      dup4\n      add\n        /* \"contracts/FutarchyArbExecutorV5.sol\":7556:7557  2 */\n      mstore\n        /* \"contracts/FutarchyArbExecutorV5.sol\":16074:16078  this */\n      address\n        /* \"contracts/FutarchyArbExecutorV5.sol\":5111:41903  contract FutarchyArbExecutorV5 {... */\n      0x40\n        /* \"contracts/FutarchyArbExecutorV5.sol\":10227:10383  IBalancerVault.FundManagement({... */\n      dup4\n      add\n        /* \"contracts/FutarchyArbExecutorV5.sol\":6225:6267  0x37b60f4E9A31A64cCc0024dce7D0fD07eAA0F7B3 */\n      mstore\n        /* \"contracts/FutarchyArbExecutorV5.sol\":5111:41903  contract FutarchyArbExecutorV5 {... */\n      mload(0x0100)\n        /* \"contracts/FutarchyArbExecutorV5.sol\":9230:9380  IBalancerVault.BatchSwapStep({... */\n      0x60\n        /* \"contracts/FutarchyArbExecutorV5.sol\":10227:10383  IBalancerVault.FundManagement({... */\n      dup4\n      add\n        /* \"contracts/FutarchyArbExecutorV5.sol\":7556:7557  2 */\n      mstore\n        /* \"contracts/FutarchyArbExecutorV5.sol\":10423:10565  IBalancerVault(BALANCER_VAULT)... */\n      tag_226\n        /* \"contracts/FutarchyArbExecutorV5.sol\":5111:41903  contract FutarchyArbExecutorV5 {... */\n      mload(0x40)\n      swap5\n      dup6\n      swap4\n      dup5\n      swap4\n      shl(0xe0, 0x945bcec9)\n        /* \"contracts/FutarchyArbExecutorV5.sol\":10423:10565  IBalancerVault(BALANCER_VAULT)... */\n      dup6\n      mstore\n        /* \"contracts/FutarchyArbExecutorV5.sol\":5111:41903  contract FutarchyArbExecutorV5 {... */\n      mload(0x0100)\n        /* \"contracts/FutarchyArbExecutorV5.sol\":10423:10565  IBalancerVault(BALANCER_VAULT)... */\n      swap7\n        /* \"contracts/FutarchyArbExecutorV5.sol\":5111:41903  contract FutarchyArbExecutorV5 {... */\n      0x04\n        /* \"contracts/FutarchyArbExecutorV5.sol\":10423:10565  IBalancerVault(BALANCER_VAULT)... */\n      dup7\n      add\n      tag_42\n      jump\t// in\n    tag_226:\n      sub\n        /* \"contracts/FutarchyArbExecutorV5.sol\":5111:41903  contract FutarchyArbExecutorV5 {... */\n      dup2\n      mload(0x0100)\n      mload(0x00)\n      codecopy(0x00, data_d91414ac4175376259ecb6d3ea005aa1ae1e7573d53a4ea2b2fc89eb70155797, 0x20)\n      mload(0x00)\n      swap1\n      0x00\n      mstore\n        /* \"contracts/FutarchyArbExecutorV5.sol\":10423:10565  IBalancerVault(BALANCER_VAULT)... */\n      gas\n      call\n      dup1\n      iszero\n      tag_153\n      jumpi\n      tag_229\n      jumpi\n        /* \"contracts/FutarchyArbExecutorV5.sol\":5111:41903  contract FutarchyArbExecutorV5 {... */\n    tag_230:\n      pop\n      mload(0x40)\n      shl(0xe0, 0x70a08231)\n        /* \"contracts/FutarchyArbExecutorV5.sol\":10628:10671  IERC20(TOKEN_WETH).balanceOf(address(this)) */\n      dup2\n      mstore\n        /* \"contracts/FutarchyArbExecutorV5.sol\":16074:16078  this */\n      address\n        /* \"contracts/FutarchyArbExecutorV5.sol\":5111:41903  contract FutarchyArbExecutorV5 {... */\n      0x04\n        /* \"contracts/FutarchyArbExecutorV5.sol\":10628:10671  IERC20(TOKEN_WETH).balanceOf(address(this)) */\n      dup3\n      add\n        /* \"contracts/FutarchyArbExecutorV5.sol\":5111:41903  contract FutarchyArbExecutorV5 {... */\n      mstore\n        /* \"contracts/FutarchyArbExecutorV5.sol\":10628:10671  IERC20(TOKEN_WETH).balanceOf(address(this)) */\n      dup13\n        /* \"contracts/FutarchyArbExecutorV5.sol\":5111:41903  contract FutarchyArbExecutorV5 {... */\n      dup2\n        /* \"contracts/FutarchyArbExecutorV5.sol\":16044:16080  IERC20(cur).balanceOf(address(this)) */\n      0x24\n        /* \"contracts/FutarchyArbExecutorV5.sol\":5111:41903  contract FutarchyArbExecutorV5 {... */\n      dup2\n      mload(0x00)\n      codecopy(0x00, data_1f08a6407959cd4837ddd9fea2fe35b0c34facc789c2626b8e87092b4372c0eb, 0x20)\n      mload(0x00)\n      swap1\n      0x00\n      mstore\n        /* \"contracts/FutarchyArbExecutorV5.sol\":10628:10671  IERC20(TOKEN_WETH).balanceOf(address(this)) */\n      gas\n      staticcall\n      swap1\n      dup2\n      iszero\n      tag_153\n      jumpi\n        /* \"contracts/FutarchyArbExecutorV5.sol\":5111:41903  contract FutarchyArbExecutorV5 {... */\n      mload(0x0100)\n        /* \"contracts/FutarchyArbExecutorV5.sol\":10628:10671  IERC20(TOKEN_WETH).balanceOf(address(this)) */\n      swap2\n      tag_233\n      jumpi\n        /* \"contracts/FutarchyArbExecutorV5.sol\":5111:41903  contract FutarchyArbExecutorV5 {... */\n    tag_234:\n        /* \"contracts/FutarchyArbExecutorV5.sol\":10685:10697  wethBal == 0 */\n      pop\n      dup1\n      iszero\n        /* \"contracts/FutarchyArbExecutorV5.sol\":10681:10717  if (wethBal == 0) revert NoBalance() */\n      tag_157\n      jumpi\n        /* \"contracts/FutarchyArbExecutorV5.sol\":10727:10798  if (minWethOut > 0 && wethBal < minWethOut) revert InsufficientOutput() */\n      jumpi(tag_161, mload(0x0100))\n      0x00\n        /* \"contracts/FutarchyArbExecutorV5.sol\":11056:11189  IUniswapV2Router02(SWAPR_V2_ROUTER)... */\n      tag_239\n        /* \"contracts/FutarchyArbExecutorV5.sol\":10921:10936  SWAPR_V2_ROUTER */\n      swap2\n      dup15\n      tag_240\n      tag_48\n      jump\t// in\n    tag_240:\n        /* \"contracts/FutarchyArbExecutorV5.sol\":5111:41903  contract FutarchyArbExecutorV5 {... */\n      mload(0x40)\n      swap1\n      tag_241\n        /* \"contracts/FutarchyArbExecutorV5.sol\":6225:6267  0x37b60f4E9A31A64cCc0024dce7D0fD07eAA0F7B3 */\n      0x60\n        /* \"contracts/FutarchyArbExecutorV5.sol\":5111:41903  contract FutarchyArbExecutorV5 {... */\n      dup4\n      tag_18\n      jump\t// in\n    tag_241:\n        /* \"contracts/FutarchyArbExecutorV5.sol\":9656:9657  2 */\n      0x02\n        /* \"contracts/FutarchyArbExecutorV5.sol\":6316:6358  0xBA12222222228d8Ba445958a75a0704d566BF2C8 */\n      dup3\n      mstore\n        /* \"contracts/FutarchyArbExecutorV5.sol\":6408:6450  0xE43e60736b1cb4a75ad25240E2f9a62Bff65c0C0 */\n      0x40\n      swap1\n        /* \"contracts/FutarchyArbExecutorV5.sol\":5111:41903  contract FutarchyArbExecutorV5 {... */\n      calldatasize\n      swap1\n        /* \"contracts/FutarchyArbExecutorV5.sol\":6408:6450  0xE43e60736b1cb4a75ad25240E2f9a62Bff65c0C0 */\n      dup4\n      add\n        /* \"contracts/FutarchyArbExecutorV5.sol\":7034:7100  0xa99fd9950b5d5dceeaf4939e221dca8ca9b938ab000100000000000000000025 */\n      calldatacopy\n      mload(0x00)\n      codecopy(0x00, data_1f08a6407959cd4837ddd9fea2fe35b0c34facc789c2626b8e87092b4372c0eb, 0x20)\n      mload(0x00)\n      swap1\n      0x00\n      mstore\n        /* \"contracts/FutarchyArbExecutorV5.sol\":10997:11017  path[0] = TOKEN_WETH */\n      tag_242\n      dup3\n      tag_29\n      jump\t// in\n    tag_242:\n        /* \"contracts/FutarchyArbExecutorV5.sol\":6225:6267  0x37b60f4E9A31A64cCc0024dce7D0fD07eAA0F7B3 */\n      mstore\n      mload(0x00)\n      codecopy(0x00, data_18faf74e4df68828d272c60758edf9513e53936ca0737ceb17921c958804ed9a, 0x20)\n      mload(0x00)\n      swap1\n      0x00\n      mstore\n        /* \"contracts/FutarchyArbExecutorV5.sol\":11027:11046  path[1] = TOKEN_PNK */\n      tag_243\n      dup3\n      tag_30\n      jump\t// in\n    tag_243:\n        /* \"contracts/FutarchyArbExecutorV5.sol\":6225:6267  0x37b60f4E9A31A64cCc0024dce7D0fD07eAA0F7B3 */\n      mstore\n        /* \"contracts/FutarchyArbExecutorV5.sol\":5111:41903  contract FutarchyArbExecutorV5 {... */\n      mload(0x40)\n      shl(0xe0, 0x38ed1739)\n        /* \"contracts/FutarchyArbExecutorV5.sol\":11056:11189  IUniswapV2Router02(SWAPR_V2_ROUTER)... */\n      dup2\n      mstore\n        /* \"contracts/FutarchyArbExecutorV5.sol\":5111:41903  contract FutarchyArbExecutorV5 {... */\n      swap4\n      dup5\n      swap3\n      dup4\n      swap3\n        /* \"contracts/FutarchyArbExecutorV5.sol\":16074:16078  this */\n      address\n      swap2\n      dup7\n      swap1\n        /* \"contracts/FutarchyArbExecutorV5.sol\":5111:41903  contract FutarchyArbExecutorV5 {... */\n      0x04\n        /* \"contracts/FutarchyArbExecutorV5.sol\":11056:11189  IUniswapV2Router02(SWAPR_V2_ROUTER)... */\n      dup7\n      add\n      tag_44\n      jump\t// in\n    tag_239:\n      sub\n      dup2\n      dup4\n      mload(0x00)\n      codecopy(0x00, data_fed9ab35569d274633c0afa3fe164e41b182bd84c5e7e43031c6f2c1b23e65bf, 0x20)\n      mload(0x00)\n      swap1\n      0x00\n      mstore\n      gas\n      call\n      dup1\n      iszero\n      tag_262\n      jumpi\n      tag_246\n      jumpi\n        /* \"contracts/FutarchyArbExecutorV5.sol\":5111:41903  contract FutarchyArbExecutorV5 {... */\n    tag_247:\n      pop\n      mload(0x40)\n      shl(0xe0, 0x70a08231)\n        /* \"contracts/FutarchyArbExecutorV5.sol\":16994:17031  IERC20(comp).balanceOf(address(this)) */\n      dup2\n      mstore\n        /* \"contracts/FutarchyArbExecutorV5.sol\":16074:16078  this */\n      address\n        /* \"contracts/FutarchyArbExecutorV5.sol\":5111:41903  contract FutarchyArbExecutorV5 {... */\n      0x04\n        /* \"contracts/FutarchyArbExecutorV5.sol\":16994:17031  IERC20(comp).balanceOf(address(this)) */\n      dup3\n      add\n        /* \"contracts/FutarchyArbExecutorV5.sol\":5111:41903  contract FutarchyArbExecutorV5 {... */\n      mstore\n      swap1\n      dup13\n      dup3\n        /* \"contracts/FutarchyArbExecutorV5.sol\":16044:16080  IERC20(cur).balanceOf(address(this)) */\n      0x24\n        /* \"contracts/FutarchyArbExecutorV5.sol\":5111:41903  contract FutarchyArbExecutorV5 {... */\n      dup2\n      sub(shl(0xa0, 0x01), 0x01)\n      dup6\n      and\n        /* \"contracts/FutarchyArbExecutorV5.sol\":16994:17031  IERC20(comp).balanceOf(address(this)) */\n      gas\n      staticcall\n      swap2\n      dup3\n      iszero\n      tag_262\n      jumpi\n      0x00\n      swap3\n      tag_250\n      jumpi\n        /* \"contracts/FutarchyArbExecutorV5.sol\":5111:41903  contract FutarchyArbExecutorV5 {... */\n    tag_251:\n      pop\n      mload(0x40)\n      dup3\n      dup2\n      mstore\n      sub(shl(0xa0, 0x01), 0x01)\n      dup3\n      and\n      swap1\n        /* \"contracts/FutarchyArbExecutorV5.sol\":17046:17082  CompositeAcquired(comp, compBalance) */\n      0x7ea2559d46b5ca1045280b94e6bd226dc4c60c15c514f72d0fc10c788c80822d\n      swap1\n        /* \"contracts/FutarchyArbExecutorV5.sol\":5111:41903  contract FutarchyArbExecutorV5 {... */\n      dup16\n      swap1\n        /* \"contracts/FutarchyArbExecutorV5.sol\":17046:17082  CompositeAcquired(comp, compBalance) */\n      log2\n        /* \"contracts/FutarchyArbExecutorV5.sol\":17096:17112  compBalance == 0 */\n      dup2\n      iszero\n        /* \"contracts/FutarchyArbExecutorV5.sol\":17092:17132  if (compBalance == 0) revert NoBalance() */\n      tag_252\n      jumpi\n        /* \"contracts/FutarchyArbExecutorV5.sol\":17203:17258  futarchy_router != address(0) && proposal != address(0) */\n      dup13\n      dup6\n      dup1\n      tag_254\n      jumpi\n        /* \"contracts/FutarchyArbExecutorV5.sol\":5111:41903  contract FutarchyArbExecutorV5 {... */\n    tag_255:\n        /* \"contracts/FutarchyArbExecutorV5.sol\":17199:17610  if (futarchy_router != address(0) && proposal != address(0)) {... */\n      iszero\n      tag_256\n      jumpi\n      pop\n        /* \"contracts/FutarchyArbExecutorV5.sol\":17308:17323  futarchy_router */\n      tag_258\n        /* \"contracts/FutarchyArbExecutorV5.sol\":5111:41903  contract FutarchyArbExecutorV5 {... */\n      dup7\n      sub(shl(0xa0, 0x01), 0x01)\n      dup4\n      and\n        /* \"contracts/FutarchyArbExecutorV5.sol\":17308:17323  futarchy_router */\n      tag_51\n      jump\t// in\n    tag_258:\n      sub(shl(0xa0, 0x01), 0x01)\n        /* \"contracts/FutarchyArbExecutorV5.sol\":5111:41903  contract FutarchyArbExecutorV5 {... */\n      dup7\n      and\n        /* \"contracts/FutarchyArbExecutorV5.sol\":17338:17413  IFutarchyRouter(futarchy_router).splitPosition(proposal, comp, compBalance) */\n      extcodesize\n      iszero\n      tag_166\n      jumpi\n        /* \"contracts/FutarchyArbExecutorV5.sol\":5111:41903  contract FutarchyArbExecutorV5 {... */\n      mload(0x40)\n      shl(0xe7, 0x01abf045)\n        /* \"contracts/FutarchyArbExecutorV5.sol\":17338:17413  IFutarchyRouter(futarchy_router).splitPosition(proposal, comp, compBalance) */\n      dup2\n      mstore\n        /* \"contracts/FutarchyArbExecutorV5.sol\":5111:41903  contract FutarchyArbExecutorV5 {... */\n      swap2\n      0x00\n      swap2\n      dup4\n      swap2\n      dup3\n      swap2\n        /* \"contracts/FutarchyArbExecutorV5.sol\":17338:17413  IFutarchyRouter(futarchy_router).splitPosition(proposal, comp, compBalance) */\n      tag_261\n      swap2\n        /* \"contracts/FutarchyArbExecutorV5.sol\":5111:41903  contract FutarchyArbExecutorV5 {... */\n      swap1\n        /* \"contracts/FutarchyArbExecutorV5.sol\":17338:17413  IFutarchyRouter(futarchy_router).splitPosition(proposal, comp, compBalance) */\n      dup12\n        /* \"contracts/FutarchyArbExecutorV5.sol\":5111:41903  contract FutarchyArbExecutorV5 {... */\n      0x04\n        /* \"contracts/FutarchyArbExecutorV5.sol\":17338:17413  IFutarchyRouter(futarchy_router).splitPosition(proposal, comp, compBalance) */\n      dup6\n      add\n      tag_25\n      jump\t// in\n    tag_261:\n      sub\n        /* \"contracts/FutarchyArbExecutorV5.sol\":5111:41903  contract FutarchyArbExecutorV5 {... */\n      dup2\n      dup4\n      sub(shl(0xa0, 0x01), 0x01)\n      dup11\n      and\n        /* \"contracts/FutarchyArbExecutorV5.sol\":17338:17413  IFutarchyRouter(futarchy_router).splitPosition(proposal, comp, compBalance) */\n      gas\n      call\n      dup1\n      iszero\n      tag_262\n      jumpi\n      tag_264\n      jumpi\n        /* \"contracts/FutarchyArbExecutorV5.sol\":17199:17610  if (futarchy_router != address(0) && proposal != address(0)) {... */\n    tag_265:\n      pop\n    tag_266:\n        /* \"contracts/FutarchyArbExecutorV5.sol\":5111:41903  contract FutarchyArbExecutorV5 {... */\n      mload(0x40)\n      shl(0xe0, 0x70a08231)\n        /* \"contracts/FutarchyArbExecutorV5.sol\":17742:17783  IERC20(yes_comp).balanceOf(address(this)) */\n      dup2\n      mstore\n        /* \"contracts/FutarchyArbExecutorV5.sol\":16074:16078  this */\n      address\n        /* \"contracts/FutarchyArbExecutorV5.sol\":5111:41903  contract FutarchyArbExecutorV5 {... */\n      0x04\n        /* \"contracts/FutarchyArbExecutorV5.sol\":17742:17783  IERC20(yes_comp).balanceOf(address(this)) */\n      dup3\n      add\n        /* \"contracts/FutarchyArbExecutorV5.sol\":5111:41903  contract FutarchyArbExecutorV5 {... */\n      mstore\n      dup12\n      dup2\n        /* \"contracts/FutarchyArbExecutorV5.sol\":16044:16080  IERC20(cur).balanceOf(address(this)) */\n      0x24\n        /* \"contracts/FutarchyArbExecutorV5.sol\":5111:41903  contract FutarchyArbExecutorV5 {... */\n      dup2\n      sub(shl(0xa0, 0x01), 0x01)\n      dup7\n      and\n        /* \"contracts/FutarchyArbExecutorV5.sol\":17742:17783  IERC20(yes_comp).balanceOf(address(this)) */\n      gas\n      staticcall\n      swap1\n      dup2\n      iszero\n      tag_153\n      jumpi\n        /* \"contracts/FutarchyArbExecutorV5.sol\":5111:41903  contract FutarchyArbExecutorV5 {... */\n      mload(0x0100)\n        /* \"contracts/FutarchyArbExecutorV5.sol\":17742:17783  IERC20(yes_comp).balanceOf(address(this)) */\n      swap2\n      tag_269\n      jumpi\n        /* \"contracts/FutarchyArbExecutorV5.sol\":17199:17610  if (futarchy_router != address(0) && proposal != address(0)) {... */\n    tag_270:\n        /* \"contracts/FutarchyArbExecutorV5.sol\":17797:17811  yesCompBal > 0 */\n      pop\n      dup10\n      dup2\n        /* \"contracts/FutarchyArbExecutorV5.sol\":17793:17874  if (yesCompBal > 0) _swaprExactIn(swapr_router, yes_comp, yes_cur, yesCompBal, 0) */\n      tag_271\n      jumpi\n        /* \"contracts/FutarchyArbExecutorV5.sol\":17199:17610  if (futarchy_router != address(0) && proposal != address(0)) {... */\n    tag_272:\n      pop\n      pop\n        /* \"contracts/FutarchyArbExecutorV5.sol\":5111:41903  contract FutarchyArbExecutorV5 {... */\n      mload(0x40)\n      shl(0xe0, 0x70a08231)\n        /* \"contracts/FutarchyArbExecutorV5.sol\":17904:17944  IERC20(no_comp).balanceOf(address(this)) */\n      dup2\n      mstore\n        /* \"contracts/FutarchyArbExecutorV5.sol\":16074:16078  this */\n      address\n        /* \"contracts/FutarchyArbExecutorV5.sol\":5111:41903  contract FutarchyArbExecutorV5 {... */\n      0x04\n        /* \"contracts/FutarchyArbExecutorV5.sol\":17904:17944  IERC20(no_comp).balanceOf(address(this)) */\n      dup3\n      add\n        /* \"contracts/FutarchyArbExecutorV5.sol\":5111:41903  contract FutarchyArbExecutorV5 {... */\n      mstore\n      swap1\n      pop\n      dup11\n      dup2\n        /* \"contracts/FutarchyArbExecutorV5.sol\":16044:16080  IERC20(cur).balanceOf(address(this)) */\n      0x24\n        /* \"contracts/FutarchyArbExecutorV5.sol\":5111:41903  contract FutarchyArbExecutorV5 {... */\n      dup2\n      sub(shl(0xa0, 0x01), 0x01)\n      dup7\n      and\n        /* \"contracts/FutarchyArbExecutorV5.sol\":17904:17944  IERC20(no_comp).balanceOf(address(this)) */\n      gas\n      staticcall\n      swap1\n      dup2\n      iszero\n      tag_153\n      jumpi\n        /* \"contracts/FutarchyArbExecutorV5.sol\":5111:41903  contract FutarchyArbExecutorV5 {... */\n      mload(0x0100)\n        /* \"contracts/FutarchyArbExecutorV5.sol\":17904:17944  IERC20(no_comp).balanceOf(address(this)) */\n      swap2\n      tag_275\n      jumpi\n        /* \"contracts/FutarchyArbExecutorV5.sol\":17199:17610  if (futarchy_router != address(0) && proposal != address(0)) {... */\n    tag_276:\n        /* \"contracts/FutarchyArbExecutorV5.sol\":17958:17971  noCompBal > 0 */\n      pop\n      dup8\n      dup2\n        /* \"contracts/FutarchyArbExecutorV5.sol\":17954:18031  if (noCompBal > 0) _swaprExactIn(swapr_router, no_comp, no_cur, noCompBal, 0) */\n      tag_277\n      jumpi\n        /* \"contracts/FutarchyArbExecutorV5.sol\":17199:17610  if (futarchy_router != address(0) && proposal != address(0)) {... */\n    tag_278:\n        /* \"contracts/FutarchyArbExecutorV5.sol\":18143:18198  futarchy_router != address(0) && proposal != address(0) */\n      pop\n      pop\n      pop\n      dup1\n      tag_279\n      jumpi\n        /* \"contracts/FutarchyArbExecutorV5.sol\":17199:17610  if (futarchy_router != address(0) && proposal != address(0)) {... */\n    tag_280:\n        /* \"contracts/FutarchyArbExecutorV5.sol\":18139:18877  if (futarchy_router != address(0) && proposal != address(0)) {... */\n      tag_281\n      jumpi\n        /* \"contracts/FutarchyArbExecutorV5.sol\":17199:17610  if (futarchy_router != address(0) && proposal != address(0)) {... */\n    tag_282:\n      pop\n      pop\n        /* \"contracts/FutarchyArbExecutorV5.sol\":5111:41903  contract FutarchyArbExecutorV5 {... */\n      mload(0x40)\n      shl(0xe0, 0x70a08231)\n        /* \"contracts/FutarchyArbExecutorV5.sol\":19018:19058  IERC20(yes_cur).balanceOf(address(this)) */\n      dup2\n      mstore\n        /* \"contracts/FutarchyArbExecutorV5.sol\":16074:16078  this */\n      address\n        /* \"contracts/FutarchyArbExecutorV5.sol\":5111:41903  contract FutarchyArbExecutorV5 {... */\n      0x04\n        /* \"contracts/FutarchyArbExecutorV5.sol\":19018:19058  IERC20(yes_cur).balanceOf(address(this)) */\n      dup3\n      add\n        /* \"contracts/FutarchyArbExecutorV5.sol\":5111:41903  contract FutarchyArbExecutorV5 {... */\n      mstore\n      dup7\n      dup2\n        /* \"contracts/FutarchyArbExecutorV5.sol\":16044:16080  IERC20(cur).balanceOf(address(this)) */\n      0x24\n        /* \"contracts/FutarchyArbExecutorV5.sol\":5111:41903  contract FutarchyArbExecutorV5 {... */\n      dup2\n      sub(shl(0xa0, 0x01), 0x01)\n      dup10\n      and\n        /* \"contracts/FutarchyArbExecutorV5.sol\":19018:19058  IERC20(yes_cur).balanceOf(address(this)) */\n      gas\n      staticcall\n      swap1\n      dup2\n      iszero\n      tag_153\n      jumpi\n        /* \"contracts/FutarchyArbExecutorV5.sol\":5111:41903  contract FutarchyArbExecutorV5 {... */\n      mload(0x0100)\n        /* \"contracts/FutarchyArbExecutorV5.sol\":19018:19058  IERC20(yes_cur).balanceOf(address(this)) */\n      swap2\n      tag_285\n      jumpi\n        /* \"contracts/FutarchyArbExecutorV5.sol\":17199:17610  if (futarchy_router != address(0) && proposal != address(0)) {... */\n    tag_286:\n      pop\n        /* \"contracts/FutarchyArbExecutorV5.sol\":5111:41903  contract FutarchyArbExecutorV5 {... */\n      mload(0x40)\n      shl(0xe0, 0x70a08231)\n        /* \"contracts/FutarchyArbExecutorV5.sol\":19088:19127  IERC20(no_cur).balanceOf(address(this)) */\n      dup2\n      mstore\n        /* \"contracts/FutarchyArbExecutorV5.sol\":16074:16078  this */\n      address\n        /* \"contracts/FutarchyArbExecutorV5.sol\":5111:41903  contract FutarchyArbExecutorV5 {... */\n      0x04\n        /* \"contracts/FutarchyArbExecutorV5.sol\":19088:19127  IERC20(no_cur).balanceOf(address(this)) */\n      dup3\n      add\n        /* \"contracts/FutarchyArbExecutorV5.sol\":5111:41903  contract FutarchyArbExecutorV5 {... */\n      mstore\n      swap4\n      dup8\n      dup6\n        /* \"contracts/FutarchyArbExecutorV5.sol\":16044:16080  IERC20(cur).balanceOf(address(this)) */\n      0x24\n        /* \"contracts/FutarchyArbExecutorV5.sol\":5111:41903  contract FutarchyArbExecutorV5 {... */\n      dup2\n      sub(shl(0xa0, 0x01), 0x01)\n      dup6\n      and\n        /* \"contracts/FutarchyArbExecutorV5.sol\":19088:19127  IERC20(no_cur).balanceOf(address(this)) */\n      gas\n      staticcall\n      swap1\n      dup2\n      iszero\n      tag_153\n      jumpi\n        /* \"contracts/FutarchyArbExecutorV5.sol\":5111:41903  contract FutarchyArbExecutorV5 {... */\n      dup9\n      swap6\n      mload(0x0100)\n        /* \"contracts/FutarchyArbExecutorV5.sol\":19088:19127  IERC20(no_cur).balanceOf(address(this)) */\n      swap3\n      tag_289\n      jumpi\n        /* \"contracts/FutarchyArbExecutorV5.sol\":17199:17610  if (futarchy_router != address(0) && proposal != address(0)) {... */\n    tag_290:\n      pop\n        /* \"contracts/FutarchyArbExecutorV5.sol\":16044:16080  IERC20(cur).balanceOf(address(this)) */\n      0x24\n      swap7\n        /* \"contracts/FutarchyArbExecutorV5.sol\":19141:19155  yesCurLeft > 0 */\n      dup6\n      swap3\n      swap1\n      swap2\n      dup5\n      iszero\n      tag_291\n      jumpi\n        /* \"contracts/FutarchyArbExecutorV5.sol\":19157:19213  _swaprExactIn(swapr_router, yes_cur, cur, yesCurLeft, 0) */\n      pop\n      pop\n      tag_293\n      swap4\n      tag_52\n      jump\t// in\n    tag_293:\n      pop\n        /* \"contracts/FutarchyArbExecutorV5.sol\":19137:19301  if (yesCurLeft > 0) _swaprExactIn(swapr_router, yes_cur, cur, yesCurLeft, 0);... */\n    tag_294:\n        /* \"contracts/FutarchyArbExecutorV5.sol\":5111:41903  contract FutarchyArbExecutorV5 {... */\n      mload(0x40)\n      shl(0xe0, 0x70a08231)\n        /* \"contracts/FutarchyArbExecutorV5.sol\":19423:19459  IERC20(cur).balanceOf(address(this)) */\n      dup2\n      mstore\n        /* \"contracts/FutarchyArbExecutorV5.sol\":16074:16078  this */\n      address\n        /* \"contracts/FutarchyArbExecutorV5.sol\":5111:41903  contract FutarchyArbExecutorV5 {... */\n      0x04\n        /* \"contracts/FutarchyArbExecutorV5.sol\":19423:19459  IERC20(cur).balanceOf(address(this)) */\n      dup3\n      add\n        /* \"contracts/FutarchyArbExecutorV5.sol\":5111:41903  contract FutarchyArbExecutorV5 {... */\n      mstore\n      swap3\n      dup4\n      swap2\n      dup3\n      swap1\n      sub(shl(0xa0, 0x01), 0x01)\n      and\n        /* \"contracts/FutarchyArbExecutorV5.sol\":19423:19459  IERC20(cur).balanceOf(address(this)) */\n      gas\n      staticcall\n      swap3\n      dup4\n      iszero\n      tag_153\n      jumpi\n        /* \"contracts/FutarchyArbExecutorV5.sol\":5111:41903  contract FutarchyArbExecutorV5 {... */\n      mload(0x0100)\n        /* \"contracts/FutarchyArbExecutorV5.sol\":19423:19459  IERC20(cur).balanceOf(address(this)) */\n      swap4\n      tag_297\n      jumpi\n        /* \"contracts/FutarchyArbExecutorV5.sol\":19137:19301  if (yesCurLeft > 0) _swaprExactIn(swapr_router, yes_cur, cur, yesCurLeft, 0);... */\n    tag_298:\n      pop\n      pop\n      sub(shl(0xff, 0x01), 0x01)\n        /* \"contracts/FutarchyArbExecutorV5.sol\":19473:19518  final_cur_balance > uint256(type(int256).max) */\n      dup3\n      gt\n        /* \"contracts/FutarchyArbExecutorV5.sol\":19473:19569  final_cur_balance > uint256(type(int256).max) || initial_cur_balance > uint256(type(int256).max) */\n      dup1\n      iszero\n      tag_299\n      jumpi\n        /* \"contracts/FutarchyArbExecutorV5.sol\":19137:19301  if (yesCurLeft > 0) _swaprExactIn(swapr_router, yes_cur, cur, yesCurLeft, 0);... */\n    tag_300:\n        /* \"contracts/FutarchyArbExecutorV5.sol\":19469:19620  if (final_cur_balance > uint256(type(int256).max) || initial_cur_balance > uint256(type(int256).max)) {... */\n      tag_301\n      jumpi\n        /* \"contracts/FutarchyArbExecutorV5.sol\":19709:19764  int256(final_cur_balance) - int256(initial_cur_balance) */\n      dup3\n      tag_303\n      dup3\n      dup5\n      tag_26\n      jump\t// in\n    tag_303:\n        /* \"contracts/FutarchyArbExecutorV5.sol\":19778:19806  signedProfit < min_out_final */\n      slt\n        /* \"contracts/FutarchyArbExecutorV5.sol\":19774:19832  if (signedProfit < min_out_final) revert MinProfitNotMet() */\n      tag_304\n      jumpi\n        /* \"contracts/FutarchyArbExecutorV5.sol\":19847:19916  ProfitVerified(initial_cur_balance, final_cur_balance, min_out_final) */\n      tag_306\n      0x318296ace369901373a62c2153c5e87356175630ec782af9e8b7c9385f3d1e80\n        /* \"contracts/FutarchyArbExecutorV5.sol\":5111:41903  contract FutarchyArbExecutorV5 {... */\n      swap4\n      mload(0x40)\n        /* \"contracts/FutarchyArbExecutorV5.sol\":19847:19916  ProfitVerified(initial_cur_balance, final_cur_balance, min_out_final) */\n      swap4\n      dup5\n      swap4\n      dup5\n        /* \"contracts/FutarchyArbExecutorV5.sol\":5111:41903  contract FutarchyArbExecutorV5 {... */\n      0x40\n      swap2\n      swap5\n      swap4\n      swap3\n      0x60\n      dup3\n      add\n      swap6\n      dup3\n      mstore\n      0x20\n      dup3\n      add\n      mstore\n      add\n      mstore\n      jump\n        /* \"contracts/FutarchyArbExecutorV5.sol\":19847:19916  ProfitVerified(initial_cur_balance, final_cur_balance, min_out_final) */\n    tag_306:\n      sub\n      swap1\n      log1\n        /* \"contracts/FutarchyArbExecutorV5.sol\":5111:41903  contract FutarchyArbExecutorV5 {... */\n      mload(0x0100)\n      dup1\n      return\n        /* \"contracts/FutarchyArbExecutorV5.sol\":19774:19832  if (signedProfit < min_out_final) revert MinProfitNotMet() */\n    tag_304:\n        /* \"contracts/FutarchyArbExecutorV5.sol\":40735:40752  MinProfitNotMet() */\n      shl(0xe0, 0xd433008b)\n        /* \"contracts/FutarchyArbExecutorV5.sol\":5111:41903  contract FutarchyArbExecutorV5 {... */\n      mload(0x0100)\n        /* \"contracts/FutarchyArbExecutorV5.sol\":19815:19832  MinProfitNotMet() */\n      mstore\n        /* \"contracts/FutarchyArbExecutorV5.sol\":5111:41903  contract FutarchyArbExecutorV5 {... */\n      0x04\n      mload(0x0100)\n        /* \"contracts/FutarchyArbExecutorV5.sol\":19815:19832  MinProfitNotMet() */\n      revert\n        /* \"contracts/FutarchyArbExecutorV5.sol\":19469:19620  if (final_cur_balance > uint256(type(int256).max) || initial_cur_balance > uint256(type(int256).max)) {... */\n    tag_301:\n        /* \"contracts/FutarchyArbExecutorV5.sol\":36399:36416  BalanceTooLarge() */\n      shl(0xe1, 0x0748aac7)\n        /* \"contracts/FutarchyArbExecutorV5.sol\":5111:41903  contract FutarchyArbExecutorV5 {... */\n      mload(0x0100)\n        /* \"contracts/FutarchyArbExecutorV5.sol\":19592:19609  BalanceTooLarge() */\n      mstore\n        /* \"contracts/FutarchyArbExecutorV5.sol\":5111:41903  contract FutarchyArbExecutorV5 {... */\n      0x04\n      mload(0x0100)\n        /* \"contracts/FutarchyArbExecutorV5.sol\":19592:19609  BalanceTooLarge() */\n      revert\n        /* \"contracts/FutarchyArbExecutorV5.sol\":19473:19569  final_cur_balance > uint256(type(int256).max) || initial_cur_balance > uint256(type(int256).max) */\n    tag_299:\n      pop\n      sub(shl(0xff, 0x01), 0x01)\n        /* \"contracts/FutarchyArbExecutorV5.sol\":19522:19569  initial_cur_balance > uint256(type(int256).max) */\n      dup2\n      gt\n        /* \"contracts/FutarchyArbExecutorV5.sol\":19473:19569  final_cur_balance > uint256(type(int256).max) || initial_cur_balance > uint256(type(int256).max) */\n      jump(tag_300)\n        /* \"contracts/FutarchyArbExecutorV5.sol\":19423:19459  IERC20(cur).balanceOf(address(this)) */\n    tag_297:\n      swap1\n      dup1\n      swap3\n      swap4\n      pop\n      dup2\n      returndatasize\n      dup4\n      gt\n      tag_307\n      jumpi\n    tag_308:\n      tag_309\n      dup2\n      dup4\n      tag_18\n      jump\t// in\n    tag_309:\n      dup2\n      add\n        /* \"contracts/FutarchyArbExecutorV5.sol\":5111:41903  contract FutarchyArbExecutorV5 {... */\n      sub\n      slt\n      tag_166\n      jumpi\n      mload\n        /* \"contracts/FutarchyArbExecutorV5.sol\":19423:19459  IERC20(cur).balanceOf(address(this)) */\n      swap1\n      dup4\n      dup1\n      jump(tag_298)\n    tag_307:\n      pop\n      returndatasize\n      jump(tag_308)\n        /* \"contracts/FutarchyArbExecutorV5.sol\":19137:19301  if (yesCurLeft > 0) _swaprExactIn(swapr_router, yes_cur, cur, yesCurLeft, 0);... */\n    tag_291:\n        /* \"contracts/FutarchyArbExecutorV5.sol\":19232:19245  noCurLeft > 0 */\n      swap2\n      pop\n      dup1\n      swap4\n      pop\n        /* \"contracts/FutarchyArbExecutorV5.sol\":19228:19301  if (noCurLeft > 0) _swaprExactIn(swapr_router, no_cur, cur, noCurLeft, 0) */\n      tag_312\n      jumpi\n        /* \"contracts/FutarchyArbExecutorV5.sol\":19137:19301  if (yesCurLeft > 0) _swaprExactIn(swapr_router, yes_cur, cur, yesCurLeft, 0);... */\n    tag_313:\n      pop\n      pop\n      pop\n      pop\n      jump(tag_294)\n        /* \"contracts/FutarchyArbExecutorV5.sol\":19228:19301  if (noCurLeft > 0) _swaprExactIn(swapr_router, no_cur, cur, noCurLeft, 0) */\n    tag_312:\n        /* \"contracts/FutarchyArbExecutorV5.sol\":19247:19301  _swaprExactIn(swapr_router, no_cur, cur, noCurLeft, 0) */\n      tag_314\n      swap4\n      tag_52\n      jump\t// in\n    tag_314:\n      pop\n        /* \"contracts/FutarchyArbExecutorV5.sol\":19228:19301  if (noCurLeft > 0) _swaprExactIn(swapr_router, no_cur, cur, noCurLeft, 0) */\n      dup7\n      dup1\n      dup3\n      dup2\n      jump(tag_313)\n        /* \"contracts/FutarchyArbExecutorV5.sol\":19088:19127  IERC20(no_cur).balanceOf(address(this)) */\n    tag_289:\n      dup1\n      swap3\n      pop\n      dup7\n      swap2\n      swap7\n      returndatasize\n      dup4\n      gt\n      tag_315\n      jumpi\n    tag_316:\n      tag_317\n      dup2\n      dup4\n      tag_18\n      jump\t// in\n    tag_317:\n      dup2\n      add\n        /* \"contracts/FutarchyArbExecutorV5.sol\":5111:41903  contract FutarchyArbExecutorV5 {... */\n      sub\n      slt\n      tag_166\n      jumpi\n      mload\n      dup8\n      swap5\n        /* \"contracts/FutarchyArbExecutorV5.sol\":16044:16080  IERC20(cur).balanceOf(address(this)) */\n      0x24\n        /* \"contracts/FutarchyArbExecutorV5.sol\":19088:19127  IERC20(no_cur).balanceOf(address(this)) */\n      jump(tag_290)\n    tag_315:\n      pop\n      returndatasize\n      jump(tag_316)\n        /* \"contracts/FutarchyArbExecutorV5.sol\":19018:19058  IERC20(yes_cur).balanceOf(address(this)) */\n    tag_285:\n      swap1\n      pop\n      dup7\n      dup2\n      dup2\n      returndatasize\n      dup4\n      gt\n      tag_320\n      jumpi\n    tag_321:\n      tag_322\n      dup2\n      dup4\n      tag_18\n      jump\t// in\n    tag_322:\n      dup2\n      add\n        /* \"contracts/FutarchyArbExecutorV5.sol\":5111:41903  contract FutarchyArbExecutorV5 {... */\n      sub\n      slt\n      tag_166\n      jumpi\n      mload\n        /* \"contracts/FutarchyArbExecutorV5.sol\":19018:19058  IERC20(yes_cur).balanceOf(address(this)) */\n      dup9\n      jump(tag_286)\n    tag_320:\n      pop\n      returndatasize\n      jump(tag_321)\n        /* \"contracts/FutarchyArbExecutorV5.sol\":18139:18877  if (futarchy_router != address(0) && proposal != address(0)) {... */\n    tag_281:\n        /* \"contracts/FutarchyArbExecutorV5.sol\":5111:41903  contract FutarchyArbExecutorV5 {... */\n      mload(0x40)\n      shl(0xe0, 0x70a08231)\n        /* \"contracts/FutarchyArbExecutorV5.sol\":18234:18274  IERC20(yes_cur).balanceOf(address(this)) */\n      dup2\n      mstore\n        /* \"contracts/FutarchyArbExecutorV5.sol\":16074:16078  this */\n      address\n        /* \"contracts/FutarchyArbExecutorV5.sol\":5111:41903  contract FutarchyArbExecutorV5 {... */\n      0x04\n        /* \"contracts/FutarchyArbExecutorV5.sol\":18234:18274  IERC20(yes_cur).balanceOf(address(this)) */\n      dup3\n      add\n        /* \"contracts/FutarchyArbExecutorV5.sol\":5111:41903  contract FutarchyArbExecutorV5 {... */\n      mstore\n      dup9\n      dup2\n        /* \"contracts/FutarchyArbExecutorV5.sol\":16044:16080  IERC20(cur).balanceOf(address(this)) */\n      0x24\n        /* \"contracts/FutarchyArbExecutorV5.sol\":5111:41903  contract FutarchyArbExecutorV5 {... */\n      dup2\n      sub(shl(0xa0, 0x01), 0x01)\n      dup12\n      and\n        /* \"contracts/FutarchyArbExecutorV5.sol\":18234:18274  IERC20(yes_cur).balanceOf(address(this)) */\n      gas\n      staticcall\n      swap1\n      dup2\n      iszero\n      tag_153\n      jumpi\n        /* \"contracts/FutarchyArbExecutorV5.sol\":5111:41903  contract FutarchyArbExecutorV5 {... */\n      mload(0x0100)\n        /* \"contracts/FutarchyArbExecutorV5.sol\":18234:18274  IERC20(yes_cur).balanceOf(address(this)) */\n      swap2\n      tag_327\n      jumpi\n        /* \"contracts/FutarchyArbExecutorV5.sol\":18139:18877  if (futarchy_router != address(0) && proposal != address(0)) {... */\n    tag_328:\n      pop\n        /* \"contracts/FutarchyArbExecutorV5.sol\":5111:41903  contract FutarchyArbExecutorV5 {... */\n      mload(0x40)\n      shl(0xe0, 0x70a08231)\n        /* \"contracts/FutarchyArbExecutorV5.sol\":18307:18346  IERC20(no_cur).balanceOf(address(this)) */\n      dup2\n      mstore\n        /* \"contracts/FutarchyArbExecutorV5.sol\":16074:16078  this */\n      address\n        /* \"contracts/FutarchyArbExecutorV5.sol\":5111:41903  contract FutarchyArbExecutorV5 {... */\n      0x04\n        /* \"contracts/FutarchyArbExecutorV5.sol\":18307:18346  IERC20(no_cur).balanceOf(address(this)) */\n      dup3\n      add\n        /* \"contracts/FutarchyArbExecutorV5.sol\":5111:41903  contract FutarchyArbExecutorV5 {... */\n      mstore\n      sub(shl(0xa0, 0x01), 0x01)\n      dup8\n      and\n      swap2\n      swap1\n        /* \"contracts/FutarchyArbExecutorV5.sol\":18307:18346  IERC20(no_cur).balanceOf(address(this)) */\n      dup11\n        /* \"contracts/FutarchyArbExecutorV5.sol\":5111:41903  contract FutarchyArbExecutorV5 {... */\n      dup2\n        /* \"contracts/FutarchyArbExecutorV5.sol\":16044:16080  IERC20(cur).balanceOf(address(this)) */\n      0x24\n        /* \"contracts/FutarchyArbExecutorV5.sol\":5111:41903  contract FutarchyArbExecutorV5 {... */\n      dup2\n      dup7\n        /* \"contracts/FutarchyArbExecutorV5.sol\":18307:18346  IERC20(no_cur).balanceOf(address(this)) */\n      gas\n      staticcall\n      swap1\n      dup2\n      iszero\n      tag_153\n      jumpi\n        /* \"contracts/FutarchyArbExecutorV5.sol\":5111:41903  contract FutarchyArbExecutorV5 {... */\n      mload(0x0100)\n        /* \"contracts/FutarchyArbExecutorV5.sol\":18307:18346  IERC20(no_cur).balanceOf(address(this)) */\n      swap2\n      tag_331\n      jumpi\n        /* \"contracts/FutarchyArbExecutorV5.sol\":18139:18877  if (futarchy_router != address(0) && proposal != address(0)) {... */\n    tag_332:\n      pop\n        /* \"contracts/FutarchyArbExecutorV5.sol\":18379:18399  yesCurBal < noCurBal */\n      dup1\n      dup3\n      lt\n      iszero\n      tag_333\n      jumpi\n        /* \"contracts/FutarchyArbExecutorV5.sol\":18379:18422  yesCurBal < noCurBal ? yesCurBal : noCurBal */\n      pop\n      swap1\n    tag_335:\n        /* \"contracts/FutarchyArbExecutorV5.sol\":18440:18452  mergeAmt > 0 */\n      dup2\n        /* \"contracts/FutarchyArbExecutorV5.sol\":18436:18867  if (mergeAmt > 0) {... */\n      tag_336\n      jumpi\n        /* \"contracts/FutarchyArbExecutorV5.sol\":18379:18422  yesCurBal < noCurBal ? yesCurBal : noCurBal */\n    tag_337:\n        /* \"contracts/FutarchyArbExecutorV5.sol\":18139:18877  if (futarchy_router != address(0) && proposal != address(0)) {... */\n      pop\n      pop\n      jump(tag_282)\n        /* \"contracts/FutarchyArbExecutorV5.sol\":18436:18867  if (mergeAmt > 0) {... */\n    tag_336:\n        /* \"contracts/FutarchyArbExecutorV5.sol\":18654:18669  futarchy_router */\n      tag_338\n      swap1\n        /* \"contracts/FutarchyArbExecutorV5.sol\":5111:41903  contract FutarchyArbExecutorV5 {... */\n      dup4\n      swap1\n        /* \"contracts/FutarchyArbExecutorV5.sol\":18584:18599  futarchy_router */\n      tag_339\n        /* \"contracts/FutarchyArbExecutorV5.sol\":5111:41903  contract FutarchyArbExecutorV5 {... */\n      dup3\n      sub(shl(0xa0, 0x01), 0x01)\n      dup13\n      and\n        /* \"contracts/FutarchyArbExecutorV5.sol\":18584:18599  futarchy_router */\n      tag_51\n      jump\t// in\n    tag_339:\n        /* \"contracts/FutarchyArbExecutorV5.sol\":18654:18669  futarchy_router */\n      tag_51\n      jump\t// in\n    tag_338:\n      sub(shl(0xa0, 0x01), 0x01)\n        /* \"contracts/FutarchyArbExecutorV5.sol\":5111:41903  contract FutarchyArbExecutorV5 {... */\n      dup3\n      and\n        /* \"contracts/FutarchyArbExecutorV5.sol\":18688:18760  IFutarchyRouter(futarchy_router).mergePositions(proposal, cur, mergeAmt) */\n      extcodesize\n      iszero\n      tag_85\n      jumpi\n        /* \"contracts/FutarchyArbExecutorV5.sol\":5111:41903  contract FutarchyArbExecutorV5 {... */\n      mload(0x40)\n      shl(0xe0, 0x7abef8d1)\n        /* \"contracts/FutarchyArbExecutorV5.sol\":18688:18760  IFutarchyRouter(futarchy_router).mergePositions(proposal, cur, mergeAmt) */\n      dup2\n      mstore\n        /* \"contracts/FutarchyArbExecutorV5.sol\":5111:41903  contract FutarchyArbExecutorV5 {... */\n      mload(0x0100)\n      dup2\n      dup1\n        /* \"contracts/FutarchyArbExecutorV5.sol\":18688:18760  IFutarchyRouter(futarchy_router).mergePositions(proposal, cur, mergeAmt) */\n      tag_342\n      dup6\n      dup11\n      dup10\n        /* \"contracts/FutarchyArbExecutorV5.sol\":5111:41903  contract FutarchyArbExecutorV5 {... */\n      0x04\n        /* \"contracts/FutarchyArbExecutorV5.sol\":18688:18760  IFutarchyRouter(futarchy_router).mergePositions(proposal, cur, mergeAmt) */\n      dup6\n      add\n      tag_25\n      jump\t// in\n    tag_342:\n      sub\n        /* \"contracts/FutarchyArbExecutorV5.sol\":5111:41903  contract FutarchyArbExecutorV5 {... */\n      dup2\n      mload(0x0100)\n      0x01\n      dup1\n      0xa0\n      shl\n      sub\n      dup9\n      and\n        /* \"contracts/FutarchyArbExecutorV5.sol\":18688:18760  IFutarchyRouter(futarchy_router).mergePositions(proposal, cur, mergeAmt) */\n      gas\n      call\n      dup1\n      iszero\n      tag_153\n      jumpi\n      tag_345\n      jumpi\n        /* \"contracts/FutarchyArbExecutorV5.sol\":18436:18867  if (mergeAmt > 0) {... */\n    tag_346:\n      pop\n        /* \"contracts/FutarchyArbExecutorV5.sol\":5111:41903  contract FutarchyArbExecutorV5 {... */\n      mload(0x40)\n      swap1\n      dup2\n      mstore\n      sub(shl(0xa0, 0x01), 0x01)\n      dup6\n      dup2\n      and\n      swap4\n      dup2\n      and\n      swap3\n      and\n      swap1\n      mload(0x00)\n      codecopy(0x00, data_c5aaa74a06ee65ab0e09cb193417f995c1069cf1fd250a86afdf2022e97f16ad, 0x20)\n      mload(0x00)\n      swap1\n      0x00\n      mstore\n        /* \"contracts/FutarchyArbExecutorV5.sol\":18783:18852  ConditionalCollateralMerged(futarchy_router, proposal, cur, mergeAmt) */\n      swap1\n        /* \"contracts/FutarchyArbExecutorV5.sol\":5111:41903  contract FutarchyArbExecutorV5 {... */\n      dup11\n      swap1\n        /* \"contracts/FutarchyArbExecutorV5.sol\":18783:18852  ConditionalCollateralMerged(futarchy_router, proposal, cur, mergeAmt) */\n      log4\n        /* \"contracts/FutarchyArbExecutorV5.sol\":18436:18867  if (mergeAmt > 0) {... */\n      dup8\n      dup1\n      dup1\n      dup1\n      jump(tag_337)\n        /* \"contracts/FutarchyArbExecutorV5.sol\":18688:18760  IFutarchyRouter(futarchy_router).mergePositions(proposal, cur, mergeAmt) */\n    tag_345:\n        /* \"contracts/FutarchyArbExecutorV5.sol\":5111:41903  contract FutarchyArbExecutorV5 {... */\n      mload(0x0100)\n        /* \"contracts/FutarchyArbExecutorV5.sol\":18688:18760  IFutarchyRouter(futarchy_router).mergePositions(proposal, cur, mergeAmt) */\n      tag_347\n      swap2\n      tag_18\n      jump\t// in\n    tag_347:\n        /* \"contracts/FutarchyArbExecutorV5.sol\":5111:41903  contract FutarchyArbExecutorV5 {... */\n      jumpi(tag_85, mload(0x0100))\n        /* \"contracts/FutarchyArbExecutorV5.sol\":18688:18760  IFutarchyRouter(futarchy_router).mergePositions(proposal, cur, mergeAmt) */\n      dup11\n      jump(tag_346)\n        /* \"contracts/FutarchyArbExecutorV5.sol\":18379:18422  yesCurBal < noCurBal ? yesCurBal : noCurBal */\n    tag_333:\n      swap1\n      pop\n      swap1\n      jump(tag_335)\n        /* \"contracts/FutarchyArbExecutorV5.sol\":18307:18346  IERC20(no_cur).balanceOf(address(this)) */\n    tag_331:\n      swap1\n      pop\n      dup11\n      dup2\n      dup2\n      returndatasize\n      dup4\n      gt\n      tag_350\n      jumpi\n    tag_351:\n      tag_352\n      dup2\n      dup4\n      tag_18\n      jump\t// in\n    tag_352:\n      dup2\n      add\n        /* \"contracts/FutarchyArbExecutorV5.sol\":5111:41903  contract FutarchyArbExecutorV5 {... */\n      sub\n      slt\n      tag_166\n      jumpi\n      mload\n        /* \"contracts/FutarchyArbExecutorV5.sol\":18307:18346  IERC20(no_cur).balanceOf(address(this)) */\n      dup13\n      jump(tag_332)\n    tag_350:\n      pop\n      returndatasize\n      jump(tag_351)\n        /* \"contracts/FutarchyArbExecutorV5.sol\":18234:18274  IERC20(yes_cur).balanceOf(address(this)) */\n    tag_327:\n      swap1\n      pop\n      dup9\n      dup2\n      dup2\n      returndatasize\n      dup4\n      gt\n      tag_355\n      jumpi\n    tag_356:\n      tag_357\n      dup2\n      dup4\n      tag_18\n      jump\t// in\n    tag_357:\n      dup2\n      add\n        /* \"contracts/FutarchyArbExecutorV5.sol\":5111:41903  contract FutarchyArbExecutorV5 {... */\n      sub\n      slt\n      tag_166\n      jumpi\n      mload\n        /* \"contracts/FutarchyArbExecutorV5.sol\":18234:18274  IERC20(yes_cur).balanceOf(address(this)) */\n      dup11\n      jump(tag_328)\n    tag_355:\n      pop\n      returndatasize\n      jump(tag_356)\n        /* \"contracts/FutarchyArbExecutorV5.sol\":18143:18198  futarchy_router != address(0) && proposal != address(0) */\n    tag_279:\n      pop\n      sub(shl(0xa0, 0x01), 0x01)\n        /* \"contracts/FutarchyArbExecutorV5.sol\":5111:41903  contract FutarchyArbExecutorV5 {... */\n      dup3\n      and\n        /* \"contracts/FutarchyArbExecutorV5.sol\":18176:18198  proposal != address(0) */\n      iszero\n      iszero\n        /* \"contracts/FutarchyArbExecutorV5.sol\":18143:18198  futarchy_router != address(0) && proposal != address(0) */\n      jump(tag_280)\n        /* \"contracts/FutarchyArbExecutorV5.sol\":17954:18031  if (noCompBal > 0) _swaprExactIn(swapr_router, no_comp, no_cur, noCompBal, 0) */\n    tag_277:\n        /* \"contracts/FutarchyArbExecutorV5.sol\":17973:18031  _swaprExactIn(swapr_router, no_comp, no_cur, noCompBal, 0) */\n      tag_360\n      swap3\n      dup8\n      tag_52\n      jump\t// in\n    tag_360:\n      pop\n        /* \"contracts/FutarchyArbExecutorV5.sol\":17954:18031  if (noCompBal > 0) _swaprExactIn(swapr_router, no_comp, no_cur, noCompBal, 0) */\n      dup11\n      dup1\n      dup8\n      jump(tag_278)\n        /* \"contracts/FutarchyArbExecutorV5.sol\":17904:17944  IERC20(no_comp).balanceOf(address(this)) */\n    tag_275:\n      swap1\n      pop\n      dup11\n      dup2\n      dup2\n      returndatasize\n      dup4\n      gt\n      tag_361\n      jumpi\n    tag_362:\n      tag_363\n      dup2\n      dup4\n      tag_18\n      jump\t// in\n    tag_363:\n      dup2\n      add\n        /* \"contracts/FutarchyArbExecutorV5.sol\":5111:41903  contract FutarchyArbExecutorV5 {... */\n      sub\n      slt\n      tag_166\n      jumpi\n      mload\n        /* \"contracts/FutarchyArbExecutorV5.sol\":17904:17944  IERC20(no_comp).balanceOf(address(this)) */\n      dup13\n      jump(tag_276)\n    tag_361:\n      pop\n      returndatasize\n      jump(tag_362)\n        /* \"contracts/FutarchyArbExecutorV5.sol\":17793:17874  if (yesCompBal > 0) _swaprExactIn(swapr_router, yes_comp, yes_cur, yesCompBal, 0) */\n    tag_271:\n        /* \"contracts/FutarchyArbExecutorV5.sol\":17813:17874  _swaprExactIn(swapr_router, yes_comp, yes_cur, yesCompBal, 0) */\n      tag_366\n      swap3\n      dup9\n      tag_52\n      jump\t// in\n    tag_366:\n      pop\n        /* \"contracts/FutarchyArbExecutorV5.sol\":17793:17874  if (yesCompBal > 0) _swaprExactIn(swapr_router, yes_comp, yes_cur, yesCompBal, 0) */\n      dup12\n      dup1\n      dup10\n      jump(tag_272)\n        /* \"contracts/FutarchyArbExecutorV5.sol\":17742:17783  IERC20(yes_comp).balanceOf(address(this)) */\n    tag_269:\n      swap1\n      pop\n      dup12\n      dup2\n      dup2\n      returndatasize\n      dup4\n      gt\n      tag_367\n      jumpi\n    tag_368:\n      tag_369\n      dup2\n      dup4\n      tag_18\n      jump\t// in\n    tag_369:\n      dup2\n      add\n        /* \"contracts/FutarchyArbExecutorV5.sol\":5111:41903  contract FutarchyArbExecutorV5 {... */\n      sub\n      slt\n      tag_166\n      jumpi\n      mload\n        /* \"contracts/FutarchyArbExecutorV5.sol\":17742:17783  IERC20(yes_comp).balanceOf(address(this)) */\n      dup14\n      jump(tag_270)\n    tag_367:\n      pop\n      returndatasize\n      jump(tag_368)\n        /* \"contracts/FutarchyArbExecutorV5.sol\":17338:17413  IFutarchyRouter(futarchy_router).splitPosition(proposal, comp, compBalance) */\n    tag_264:\n      0x00\n      tag_372\n      swap2\n      tag_18\n      jump\t// in\n    tag_372:\n      0x00\n        /* \"contracts/FutarchyArbExecutorV5.sol\":5111:41903  contract FutarchyArbExecutorV5 {... */\n      0x0100\n      mstore\n        /* \"contracts/FutarchyArbExecutorV5.sol\":17338:17413  IFutarchyRouter(futarchy_router).splitPosition(proposal, comp, compBalance) */\n      dup13\n      jump(tag_265)\n    tag_262:\n        /* \"contracts/FutarchyArbExecutorV5.sol\":5111:41903  contract FutarchyArbExecutorV5 {... */\n      mload(0x40)\n      returndatasize\n      0x00\n      dup3\n      returndatacopy\n      returndatasize\n      swap1\n      revert\n        /* \"contracts/FutarchyArbExecutorV5.sol\":17199:17610  if (futarchy_router != address(0) && proposal != address(0)) {... */\n    tag_256:\n        /* \"contracts/FutarchyArbExecutorV5.sol\":5111:41903  contract FutarchyArbExecutorV5 {... */\n      swap1\n      0x00\n      dup1\n        /* \"contracts/FutarchyArbExecutorV5.sol\":17553:17599  CompositeSplitAttempted(comp, compBalance, ok) */\n      0xf8e6e0bb33e12f1f8e97919c28e4df84e2aebf737d4bf32534deb9e737f228e6\n        /* \"contracts/FutarchyArbExecutorV5.sol\":5111:41903  contract FutarchyArbExecutorV5 {... */\n      swap4\n      mload(0x40)\n        /* \"contracts/FutarchyArbExecutorV5.sol\":17467:17533  abi.encodeWithSelector(ICompositeLike.split.selector, compBalance) */\n      swap1\n      dup2\n      add\n        /* \"contracts/FutarchyArbExecutorV5.sol\":38488:38517  ICompositeLike.split.selector */\n      swap1\n      shl(0xe0, 0xdbceb005)\n        /* \"contracts/FutarchyArbExecutorV5.sol\":17467:17533  abi.encodeWithSelector(ICompositeLike.split.selector, compBalance) */\n      dup3\n      mstore\n      dup7\n        /* \"contracts/FutarchyArbExecutorV5.sol\":16044:16080  IERC20(cur).balanceOf(address(this)) */\n      0x24\n        /* \"contracts/FutarchyArbExecutorV5.sol\":17467:17533  abi.encodeWithSelector(ICompositeLike.split.selector, compBalance) */\n      dup3\n      add\n        /* \"contracts/FutarchyArbExecutorV5.sol\":5111:41903  contract FutarchyArbExecutorV5 {... */\n      mstore\n        /* \"contracts/FutarchyArbExecutorV5.sol\":16044:16080  IERC20(cur).balanceOf(address(this)) */\n      0x24\n        /* \"contracts/FutarchyArbExecutorV5.sol\":17467:17533  abi.encodeWithSelector(ICompositeLike.split.selector, compBalance) */\n      dup2\n      mstore\n      tag_373\n      0x44\n      dup3\n      tag_18\n      jump\t// in\n    tag_373:\n        /* \"contracts/FutarchyArbExecutorV5.sol\":17457:17534  comp.call(abi.encodeWithSelector(ICompositeLike.split.selector, compBalance)) */\n      mload\n      swap1\n      dup3\n      dup6\n      gas\n      call\n      swap1\n      tag_374\n      tag_22\n      jump\t// in\n    tag_374:\n      pop\n        /* \"contracts/FutarchyArbExecutorV5.sol\":5111:41903  contract FutarchyArbExecutorV5 {... */\n      0x40\n      dup1\n      mload\n      swap5\n      dup6\n      mstore\n      swap2\n      iszero\n      iszero\n      0x20\n      dup6\n      add\n      mstore\n      sub(shl(0xa0, 0x01), 0x01)\n      and\n      swap3\n        /* \"contracts/FutarchyArbExecutorV5.sol\":17553:17599  CompositeSplitAttempted(comp, compBalance, ok) */\n      log2\n        /* \"contracts/FutarchyArbExecutorV5.sol\":17199:17610  if (futarchy_router != address(0) && proposal != address(0)) {... */\n      jump(tag_266)\n        /* \"contracts/FutarchyArbExecutorV5.sol\":17203:17258  futarchy_router != address(0) && proposal != address(0) */\n    tag_254:\n      pop\n      sub(shl(0xa0, 0x01), 0x01)\n        /* \"contracts/FutarchyArbExecutorV5.sol\":5111:41903  contract FutarchyArbExecutorV5 {... */\n      dup9\n      and\n        /* \"contracts/FutarchyArbExecutorV5.sol\":17236:17258  proposal != address(0) */\n      iszero\n      iszero\n        /* \"contracts/FutarchyArbExecutorV5.sol\":17203:17258  futarchy_router != address(0) && proposal != address(0) */\n      jump(tag_255)\n        /* \"contracts/FutarchyArbExecutorV5.sol\":17092:17132  if (compBalance == 0) revert NoBalance() */\n    tag_252:\n        /* \"contracts/FutarchyArbExecutorV5.sol\":10706:10717  NoBalance() */\n      shl(0xe1, 0x61655153)\n      0x00\n        /* \"contracts/FutarchyArbExecutorV5.sol\":17121:17132  NoBalance() */\n      mstore\n        /* \"contracts/FutarchyArbExecutorV5.sol\":5111:41903  contract FutarchyArbExecutorV5 {... */\n      0x04\n      0x00\n        /* \"contracts/FutarchyArbExecutorV5.sol\":17121:17132  NoBalance() */\n      revert\n        /* \"contracts/FutarchyArbExecutorV5.sol\":16994:17031  IERC20(comp).balanceOf(address(this)) */\n    tag_250:\n      swap1\n      swap2\n      pop\n      dup13\n      dup2\n      dup2\n      returndatasize\n      dup4\n      gt\n      tag_376\n      jumpi\n    tag_377:\n      tag_378\n      dup2\n      dup4\n      tag_18\n      jump\t// in\n    tag_378:\n      dup2\n      add\n        /* \"contracts/FutarchyArbExecutorV5.sol\":5111:41903  contract FutarchyArbExecutorV5 {... */\n      sub\n      slt\n      tag_166\n      jumpi\n      mload\n        /* \"contracts/FutarchyArbExecutorV5.sol\":16994:17031  IERC20(comp).balanceOf(address(this)) */\n      swap1\n      dup15\n      jump(tag_251)\n    tag_376:\n      pop\n      returndatasize\n      jump(tag_377)\n        /* \"contracts/FutarchyArbExecutorV5.sol\":11056:11189  IUniswapV2Router02(SWAPR_V2_ROUTER)... */\n    tag_246:\n      tag_381\n      swap1\n      returndatasize\n      dup1\n      0x00\n      dup4\n      returndatacopy\n      tag_178\n      dup2\n      dup4\n      tag_18\n      jump\t// in\n    tag_381:\n      pop\n      dup14\n      jump(tag_247)\n        /* \"contracts/FutarchyArbExecutorV5.sol\":10628:10671  IERC20(TOKEN_WETH).balanceOf(address(this)) */\n    tag_233:\n      swap1\n      pop\n      dup13\n      dup2\n      dup2\n      returndatasize\n      dup4\n      gt\n      tag_383\n      jumpi\n    tag_384:\n      tag_385\n      dup2\n      dup4\n      tag_18\n      jump\t// in\n    tag_385:\n      dup2\n      add\n        /* \"contracts/FutarchyArbExecutorV5.sol\":5111:41903  contract FutarchyArbExecutorV5 {... */\n      sub\n      slt\n      tag_166\n      jumpi\n      mload\n        /* \"contracts/FutarchyArbExecutorV5.sol\":10628:10671  IERC20(TOKEN_WETH).balanceOf(address(this)) */\n      dup15\n      jump(tag_234)\n    tag_383:\n      pop\n      returndatasize\n      jump(tag_384)\n        /* \"contracts/FutarchyArbExecutorV5.sol\":10423:10565  IBalancerVault(BALANCER_VAULT)... */\n    tag_229:\n      tag_388\n      swap1\n      returndatasize\n        /* \"contracts/FutarchyArbExecutorV5.sol\":5111:41903  contract FutarchyArbExecutorV5 {... */\n      dup1\n      mload(0x0100)\n        /* \"contracts/FutarchyArbExecutorV5.sol\":10423:10565  IBalancerVault(BALANCER_VAULT)... */\n      dup4\n      returndatacopy\n      tag_169\n      dup2\n      dup4\n      tag_18\n      jump\t// in\n    tag_388:\n      jump(tag_230)\n        /* \"contracts/FutarchyArbExecutorV5.sol\":16468:16574  if (yes_cur == address(0) || no_cur == address(0) || swapr_router == address(0)) revert TokenAddressZero() */\n    tag_206:\n        /* \"contracts/FutarchyArbExecutorV5.sol\":31681:31699  TokenAddressZero() */\n      shl(0xe0, 0x81c609f7)\n        /* \"contracts/FutarchyArbExecutorV5.sol\":5111:41903  contract FutarchyArbExecutorV5 {... */\n      mload(0x0100)\n        /* \"contracts/FutarchyArbExecutorV5.sol\":16556:16574  TokenAddressZero() */\n      mstore\n        /* \"contracts/FutarchyArbExecutorV5.sol\":5111:41903  contract FutarchyArbExecutorV5 {... */\n      0x04\n      mload(0x0100)\n        /* \"contracts/FutarchyArbExecutorV5.sol\":16556:16574  TokenAddressZero() */\n      revert\n        /* \"contracts/FutarchyArbExecutorV5.sol\":16472:16547  yes_cur == address(0) || no_cur == address(0) || swapr_router == address(0) */\n    tag_204:\n      pop\n      sub(shl(0xa0, 0x01), 0x01)\n        /* \"contracts/FutarchyArbExecutorV5.sol\":5111:41903  contract FutarchyArbExecutorV5 {... */\n      dup8\n      and\n        /* \"contracts/FutarchyArbExecutorV5.sol\":16521:16547  swapr_router == address(0) */\n      iszero\n        /* \"contracts/FutarchyArbExecutorV5.sol\":16472:16547  yes_cur == address(0) || no_cur == address(0) || swapr_router == address(0) */\n      jump(tag_205)\n        /* \"contracts/FutarchyArbExecutorV5.sol\":16472:16517  yes_cur == address(0) || no_cur == address(0) */\n    tag_202:\n      pop\n      sub(shl(0xa0, 0x01), 0x01)\n        /* \"contracts/FutarchyArbExecutorV5.sol\":5111:41903  contract FutarchyArbExecutorV5 {... */\n      dup10\n      and\n        /* \"contracts/FutarchyArbExecutorV5.sol\":16497:16517  no_cur == address(0) */\n      iszero\n        /* \"contracts/FutarchyArbExecutorV5.sol\":16472:16517  yes_cur == address(0) || no_cur == address(0) */\n      jump(tag_203)\n        /* \"contracts/FutarchyArbExecutorV5.sol\":16368:16436  cur == address(0) || yes_comp == address(0) || no_comp == address(0) */\n    tag_198:\n      pop\n      sub(shl(0xa0, 0x01), 0x01)\n        /* \"contracts/FutarchyArbExecutorV5.sol\":5111:41903  contract FutarchyArbExecutorV5 {... */\n      dup4\n      and\n        /* \"contracts/FutarchyArbExecutorV5.sol\":16415:16436  no_comp == address(0) */\n      iszero\n        /* \"contracts/FutarchyArbExecutorV5.sol\":16368:16436  cur == address(0) || yes_comp == address(0) || no_comp == address(0) */\n      jump(tag_199)\n        /* \"contracts/FutarchyArbExecutorV5.sol\":16368:16411  cur == address(0) || yes_comp == address(0) */\n    tag_196:\n      pop\n      sub(shl(0xa0, 0x01), 0x01)\n        /* \"contracts/FutarchyArbExecutorV5.sol\":5111:41903  contract FutarchyArbExecutorV5 {... */\n      dup3\n      and\n        /* \"contracts/FutarchyArbExecutorV5.sol\":16389:16411  yes_comp == address(0) */\n      iszero\n        /* \"contracts/FutarchyArbExecutorV5.sol\":16368:16411  cur == address(0) || yes_comp == address(0) */\n      jump(tag_197)\n        /* \"contracts/FutarchyArbExecutorV5.sol\":16264:16354  if (futarchy_router == address(0) || proposal == address(0)) revert RouterOrProposalZero() */\n    tag_194:\n        /* \"contracts/FutarchyArbExecutorV5.sol\":31457:31479  RouterOrProposalZero() */\n      shl(0xe4, 0x01d72653)\n        /* \"contracts/FutarchyArbExecutorV5.sol\":5111:41903  contract FutarchyArbExecutorV5 {... */\n      mload(0x0100)\n        /* \"contracts/FutarchyArbExecutorV5.sol\":16332:16354  RouterOrProposalZero() */\n      mstore\n        /* \"contracts/FutarchyArbExecutorV5.sol\":5111:41903  contract FutarchyArbExecutorV5 {... */\n      0x04\n      mload(0x0100)\n        /* \"contracts/FutarchyArbExecutorV5.sol\":16332:16354  RouterOrProposalZero() */\n      revert\n        /* \"contracts/FutarchyArbExecutorV5.sol\":16268:16323  futarchy_router == address(0) || proposal == address(0) */\n    tag_192:\n      pop\n      sub(shl(0xa0, 0x01), 0x01)\n        /* \"contracts/FutarchyArbExecutorV5.sol\":5111:41903  contract FutarchyArbExecutorV5 {... */\n      dup7\n      and\n        /* \"contracts/FutarchyArbExecutorV5.sol\":16301:16323  proposal == address(0) */\n      iszero\n        /* \"contracts/FutarchyArbExecutorV5.sol\":16268:16323  futarchy_router == address(0) || proposal == address(0) */\n      jump(tag_193)\n        /* \"contracts/FutarchyArbExecutorV5.sol\":16211:16254  if (comp != TOKEN_PNK) revert InvalidComp() */\n    tag_190:\n        /* \"contracts/FutarchyArbExecutorV5.sol\":20904:20917  InvalidComp() */\n      shl(0xe0, 0x42065b57)\n        /* \"contracts/FutarchyArbExecutorV5.sol\":5111:41903  contract FutarchyArbExecutorV5 {... */\n      mload(0x0100)\n        /* \"contracts/FutarchyArbExecutorV5.sol\":16241:16254  InvalidComp() */\n      mstore\n        /* \"contracts/FutarchyArbExecutorV5.sol\":5111:41903  contract FutarchyArbExecutorV5 {... */\n      0x04\n      mload(0x0100)\n        /* \"contracts/FutarchyArbExecutorV5.sol\":16241:16254  InvalidComp() */\n      revert\n        /* \"contracts/FutarchyArbExecutorV5.sol\":16044:16080  IERC20(cur).balanceOf(address(this)) */\n    tag_186:\n      swap1\n      swap10\n      pop\n        /* \"contracts/FutarchyArbExecutorV5.sol\":5111:41903  contract FutarchyArbExecutorV5 {... */\n      0x20\n        /* \"contracts/FutarchyArbExecutorV5.sol\":16044:16080  IERC20(cur).balanceOf(address(this)) */\n      dup2\n      returndatasize\n        /* \"contracts/FutarchyArbExecutorV5.sol\":5111:41903  contract FutarchyArbExecutorV5 {... */\n      0x20\n        /* \"contracts/FutarchyArbExecutorV5.sol\":16044:16080  IERC20(cur).balanceOf(address(this)) */\n      gt\n      tag_390\n      jumpi\n    tag_391:\n      dup2\n      tag_392\n        /* \"contracts/FutarchyArbExecutorV5.sol\":5111:41903  contract FutarchyArbExecutorV5 {... */\n      0x20\n        /* \"contracts/FutarchyArbExecutorV5.sol\":16044:16080  IERC20(cur).balanceOf(address(this)) */\n      swap4\n      dup4\n      tag_18\n      jump\t// in\n    tag_392:\n      dup2\n      add\n        /* \"contracts/FutarchyArbExecutorV5.sol\":5111:41903  contract FutarchyArbExecutorV5 {... */\n      sub\n      slt\n      tag_166\n      jumpi\n      mload\n        /* \"contracts/FutarchyArbExecutorV5.sol\":16044:16080  IERC20(cur).balanceOf(address(this)) */\n      swap9\n      dup13\n      jump(tag_187)\n    tag_390:\n      returndatasize\n      swap2\n      pop\n      jump(tag_391)\n        /* \"contracts/FutarchyArbExecutorV5.sol\":5111:41903  contract FutarchyArbExecutorV5 {... */\n    tag_75:\n      jumpi(tag_85, callvalue)\n      jumpi(tag_85, slt(add(not(0x03), calldatasize), 0x01c0))\n      tag_399\n      tag_1\n      jump\t// in\n    tag_399:\n      tag_400\n      tag_2\n      jump\t// in\n    tag_400:\n      calldataload(0x44)\n      swap2\n      dup3\n      iszero\n      iszero\n      dup4\n      sub\n      tag_85\n      jumpi\n      tag_403\n      tag_3\n      jump\t// in\n    tag_403:\n      swap2\n      tag_404\n      tag_4\n      jump\t// in\n    tag_404:\n      swap4\n      calldataload(0xa4)\n      sub(shl(0xa0, 0x01), 0x01)\n      dup2\n      and\n      dup2\n      sub\n      tag_85\n      jumpi\n      tag_407\n      tag_5\n      jump\t// in\n    tag_407:\n      swap6\n      tag_408\n      tag_6\n      jump\t// in\n    tag_408:\n      swap6\n      tag_409\n      tag_7\n      jump\t// in\n    tag_409:\n      swap3\n      tag_410\n      tag_8\n      jump\t// in\n    tag_410:\n      swap7\n      tag_411\n      tag_9\n      jump\t// in\n    tag_411:\n      swap10\n      tag_412\n      tag_10\n      jump\t// in\n    tag_412:\n      sload(mload(0x0100))\n      calldataload(0x01a4)\n      swap13\n      swap2\n      swap9\n      swap2\n      swap1\n      sub(shl(0xa0, 0x01), 0x01)\n      and\n        /* \"contracts/FutarchyArbExecutorV5.sol\":24554:24564  msg.sender */\n      caller\n        /* \"contracts/FutarchyArbExecutorV5.sol\":24554:24573  msg.sender != owner */\n      sub\n        /* \"contracts/FutarchyArbExecutorV5.sol\":24550:24592  if (msg.sender != owner) revert NotOwner() */\n      tag_88\n      jumpi\n        /* \"contracts/FutarchyArbExecutorV5.sol\":5111:41903  contract FutarchyArbExecutorV5 {... */\n      mload(0x40)\n      shl(0xe0, 0x70a08231)\n        /* \"contracts/FutarchyArbExecutorV5.sol\":20773:20809  IERC20(cur).balanceOf(address(this)) */\n      dup2\n      mstore\n        /* \"contracts/FutarchyArbExecutorV5.sol\":20803:20807  this */\n      address\n        /* \"contracts/FutarchyArbExecutorV5.sol\":5111:41903  contract FutarchyArbExecutorV5 {... */\n      0x04\n        /* \"contracts/FutarchyArbExecutorV5.sol\":20773:20809  IERC20(cur).balanceOf(address(this)) */\n      dup3\n      add\n        /* \"contracts/FutarchyArbExecutorV5.sol\":5111:41903  contract FutarchyArbExecutorV5 {... */\n      mstore\n      swap11\n      0x20\n      dup13\n      0x24\n      dup2\n      sub(shl(0xa0, 0x01), 0x01)\n      dup16\n      and\n        /* \"contracts/FutarchyArbExecutorV5.sol\":20773:20809  IERC20(cur).balanceOf(address(this)) */\n      gas\n      staticcall\n      swap12\n      dup13\n      iszero\n      tag_153\n      jumpi\n        /* \"contracts/FutarchyArbExecutorV5.sol\":5111:41903  contract FutarchyArbExecutorV5 {... */\n      mload(0x0100)\n        /* \"contracts/FutarchyArbExecutorV5.sol\":20773:20809  IERC20(cur).balanceOf(address(this)) */\n      swap13\n      tag_417\n      jumpi\n        /* \"contracts/FutarchyArbExecutorV5.sol\":5111:41903  contract FutarchyArbExecutorV5 {... */\n    tag_418:\n      pop\n      calldataload(0x0184)\n        /* \"contracts/FutarchyArbExecutorV5.sol\":20824:20843  amount_sdai_in == 0 */\n      iszero\n        /* \"contracts/FutarchyArbExecutorV5.sol\":20820:20864  if (amount_sdai_in == 0) revert ZeroAmount() */\n      tag_97\n      jumpi\n      not(0x37b60f4e9a31a64ccc0024dce7d0fd07eaa0f7b2)\n      sub(shl(0xa0, 0x01), 0x01)\n        /* \"contracts/FutarchyArbExecutorV5.sol\":5111:41903  contract FutarchyArbExecutorV5 {... */\n      dup7\n      and\n        /* \"contracts/FutarchyArbExecutorV5.sol\":20878:20895  comp != TOKEN_PNK */\n      add\n        /* \"contracts/FutarchyArbExecutorV5.sol\":20874:20917  if (comp != TOKEN_PNK) revert InvalidComp() */\n      tag_190\n      jumpi\n      sub(shl(0xa0, 0x01), 0x01)\n        /* \"contracts/FutarchyArbExecutorV5.sol\":5111:41903  contract FutarchyArbExecutorV5 {... */\n      dup8\n      and\n        /* \"contracts/FutarchyArbExecutorV5.sol\":20931:20960  futarchy_router == address(0) */\n      iszero\n        /* \"contracts/FutarchyArbExecutorV5.sol\":20931:20986  futarchy_router == address(0) || proposal == address(0) */\n      dup1\n      iszero\n      tag_423\n      jumpi\n        /* \"contracts/FutarchyArbExecutorV5.sol\":5111:41903  contract FutarchyArbExecutorV5 {... */\n    tag_424:\n        /* \"contracts/FutarchyArbExecutorV5.sol\":20927:21017  if (futarchy_router == address(0) || proposal == address(0)) revert RouterOrProposalZero() */\n      tag_194\n      jumpi\n      sub(shl(0xa0, 0x01), 0x01)\n        /* \"contracts/FutarchyArbExecutorV5.sol\":5111:41903  contract FutarchyArbExecutorV5 {... */\n      dup12\n      and\n        /* \"contracts/FutarchyArbExecutorV5.sol\":21031:21048  cur == address(0) */\n      iszero\n        /* \"contracts/FutarchyArbExecutorV5.sol\":21031:21074  cur == address(0) || yes_comp == address(0) */\n      dup1\n      iszero\n      tag_427\n      jumpi\n        /* \"contracts/FutarchyArbExecutorV5.sol\":5111:41903  contract FutarchyArbExecutorV5 {... */\n    tag_428:\n        /* \"contracts/FutarchyArbExecutorV5.sol\":21031:21099  cur == address(0) || yes_comp == address(0) || no_comp == address(0) */\n      dup1\n      iszero\n      tag_429\n      jumpi\n        /* \"contracts/FutarchyArbExecutorV5.sol\":5111:41903  contract FutarchyArbExecutorV5 {... */\n    tag_430:\n        /* \"contracts/FutarchyArbExecutorV5.sol\":21027:21121  if (cur == address(0) || yes_comp == address(0) || no_comp == address(0)) revert ZeroAddress() */\n      tag_90\n      jumpi\n      sub(shl(0xa0, 0x01), 0x01)\n        /* \"contracts/FutarchyArbExecutorV5.sol\":5111:41903  contract FutarchyArbExecutorV5 {... */\n      dup14\n      and\n        /* \"contracts/FutarchyArbExecutorV5.sol\":21135:21156  yes_cur == address(0) */\n      iszero\n        /* \"contracts/FutarchyArbExecutorV5.sol\":21135:21180  yes_cur == address(0) || no_cur == address(0) */\n      dup1\n      iszero\n      tag_433\n      jumpi\n        /* \"contracts/FutarchyArbExecutorV5.sol\":5111:41903  contract FutarchyArbExecutorV5 {... */\n    tag_434:\n        /* \"contracts/FutarchyArbExecutorV5.sol\":21135:21210  yes_cur == address(0) || no_cur == address(0) || swapr_router == address(0) */\n      dup1\n      iszero\n      tag_435\n      jumpi\n        /* \"contracts/FutarchyArbExecutorV5.sol\":5111:41903  contract FutarchyArbExecutorV5 {... */\n    tag_436:\n        /* \"contracts/FutarchyArbExecutorV5.sol\":21131:21237  if (yes_cur == address(0) || no_cur == address(0) || swapr_router == address(0)) revert TokenAddressZero() */\n      tag_206\n      jumpi\n        /* \"contracts/FutarchyArbExecutorV5.sol\":21348:21363  futarchy_router */\n      tag_439\n        /* \"contracts/FutarchyArbExecutorV5.sol\":5111:41903  contract FutarchyArbExecutorV5 {... */\n      dup8\n      sub(shl(0xa0, 0x01), 0x01)\n      dup14\n      and\n        /* \"contracts/FutarchyArbExecutorV5.sol\":21348:21363  futarchy_router */\n      tag_51\n      jump\t// in\n    tag_439:\n      sub(shl(0xa0, 0x01), 0x01)\n        /* \"contracts/FutarchyArbExecutorV5.sol\":5111:41903  contract FutarchyArbExecutorV5 {... */\n      dup8\n      and\n        /* \"contracts/FutarchyArbExecutorV5.sol\":21374:21451  IFutarchyRouter(futarchy_router).splitPosition(proposal, cur, amount_sdai_in) */\n      extcodesize\n      iszero\n      tag_85\n      jumpi\n        /* \"contracts/FutarchyArbExecutorV5.sol\":5111:41903  contract FutarchyArbExecutorV5 {... */\n      mload(0x40)\n      shl(0xe7, 0x01abf045)\n        /* \"contracts/FutarchyArbExecutorV5.sol\":21374:21451  IFutarchyRouter(futarchy_router).splitPosition(proposal, cur, amount_sdai_in) */\n      dup2\n      mstore\n        /* \"contracts/FutarchyArbExecutorV5.sol\":5111:41903  contract FutarchyArbExecutorV5 {... */\n      dup12\n      dup2\n      dup1\n        /* \"contracts/FutarchyArbExecutorV5.sol\":21374:21451  IFutarchyRouter(futarchy_router).splitPosition(proposal, cur, amount_sdai_in) */\n      tag_442\n        /* \"contracts/FutarchyArbExecutorV5.sol\":5111:41903  contract FutarchyArbExecutorV5 {... */\n      dup13\n      mload(0x0100)\n      swap5\n      calldataload(0x0184)\n        /* \"contracts/FutarchyArbExecutorV5.sol\":21374:21451  IFutarchyRouter(futarchy_router).splitPosition(proposal, cur, amount_sdai_in) */\n      swap2\n        /* \"contracts/FutarchyArbExecutorV5.sol\":5111:41903  contract FutarchyArbExecutorV5 {... */\n      0x04\n        /* \"contracts/FutarchyArbExecutorV5.sol\":21374:21451  IFutarchyRouter(futarchy_router).splitPosition(proposal, cur, amount_sdai_in) */\n      dup6\n      add\n      tag_25\n      jump\t// in\n    tag_442:\n      sub\n        /* \"contracts/FutarchyArbExecutorV5.sol\":5111:41903  contract FutarchyArbExecutorV5 {... */\n      dup2\n      mload(0x0100)\n      0x01\n      dup1\n      0xa0\n      shl\n      sub\n      dup14\n      and\n        /* \"contracts/FutarchyArbExecutorV5.sol\":21374:21451  IFutarchyRouter(futarchy_router).splitPosition(proposal, cur, amount_sdai_in) */\n      gas\n      call\n      dup1\n      iszero\n      tag_153\n      jumpi\n      dup9\n      dup16\n      swap3\n      dup15\n      swap1\n      dup13\n      swap4\n      tag_445\n      jumpi\n        /* \"contracts/FutarchyArbExecutorV5.sol\":5111:41903  contract FutarchyArbExecutorV5 {... */\n    tag_446:\n      pop\n      mload(0x40)\n      calldataload(0x0184)\n      dup2\n      mstore\n      0x24\n      swap5\n      0x20\n      swap5\n      swap1\n      swap4\n      sub(shl(0xa0, 0x01), 0x01)\n      swap4\n      dup5\n      and\n      swap4\n      swap2\n      dup3\n      and\n      swap3\n      swap2\n      and\n      swap1\n        /* \"contracts/FutarchyArbExecutorV5.sol\":21466:21540  ConditionalCollateralSplit(futarchy_router, proposal, cur, amount_sdai_in) */\n      0x96b6cd56b43ef9bd81ea4da2f5715eb8e6d0da9999e7cf964ae2932a20e0f0fd\n      swap1\n        /* \"contracts/FutarchyArbExecutorV5.sol\":5111:41903  contract FutarchyArbExecutorV5 {... */\n      dup7\n      swap1\n        /* \"contracts/FutarchyArbExecutorV5.sol\":21466:21540  ConditionalCollateralSplit(futarchy_router, proposal, cur, amount_sdai_in) */\n      log4\n        /* \"contracts/FutarchyArbExecutorV5.sol\":5111:41903  contract FutarchyArbExecutorV5 {... */\n      mload(0x40)\n      shl(0xe0, 0x70a08231)\n        /* \"contracts/FutarchyArbExecutorV5.sol\":21634:21674  IERC20(yes_cur).balanceOf(address(this)) */\n      dup2\n      mstore\n        /* \"contracts/FutarchyArbExecutorV5.sol\":20803:20807  this */\n      address\n        /* \"contracts/FutarchyArbExecutorV5.sol\":5111:41903  contract FutarchyArbExecutorV5 {... */\n      0x04\n        /* \"contracts/FutarchyArbExecutorV5.sol\":21634:21674  IERC20(yes_cur).balanceOf(address(this)) */\n      dup3\n      add\n        /* \"contracts/FutarchyArbExecutorV5.sol\":5111:41903  contract FutarchyArbExecutorV5 {... */\n      mstore\n      swap3\n      dup4\n      swap2\n      dup3\n      swap1\n      sub(shl(0xa0, 0x01), 0x01)\n      and\n        /* \"contracts/FutarchyArbExecutorV5.sol\":21634:21674  IERC20(yes_cur).balanceOf(address(this)) */\n      gas\n      staticcall\n      swap1\n      dup2\n      iszero\n      tag_153\n      jumpi\n        /* \"contracts/FutarchyArbExecutorV5.sol\":5111:41903  contract FutarchyArbExecutorV5 {... */\n      mload(0x0100)\n        /* \"contracts/FutarchyArbExecutorV5.sol\":21634:21674  IERC20(yes_cur).balanceOf(address(this)) */\n      swap2\n      tag_449\n      jumpi\n        /* \"contracts/FutarchyArbExecutorV5.sol\":5111:41903  contract FutarchyArbExecutorV5 {... */\n    tag_450:\n      pop\n      calldataload(0x0184)\n      gt\n        /* \"contracts/FutarchyArbExecutorV5.sol\":21630:21721  if (IERC20(yes_cur).balanceOf(address(this)) < amount_sdai_in) revert InsufficientBalance() */\n      tag_457\n      jumpi\n        /* \"contracts/FutarchyArbExecutorV5.sol\":5111:41903  contract FutarchyArbExecutorV5 {... */\n      mload(0x40)\n      shl(0xe0, 0x70a08231)\n        /* \"contracts/FutarchyArbExecutorV5.sol\":21735:21774  IERC20(no_cur).balanceOf(address(this)) */\n      dup2\n      mstore\n        /* \"contracts/FutarchyArbExecutorV5.sol\":20803:20807  this */\n      address\n        /* \"contracts/FutarchyArbExecutorV5.sol\":5111:41903  contract FutarchyArbExecutorV5 {... */\n      0x04\n        /* \"contracts/FutarchyArbExecutorV5.sol\":21735:21774  IERC20(no_cur).balanceOf(address(this)) */\n      dup3\n      add\n        /* \"contracts/FutarchyArbExecutorV5.sol\":5111:41903  contract FutarchyArbExecutorV5 {... */\n      mstore\n      0x20\n      dup2\n      0x24\n      dup2\n      sub(shl(0xa0, 0x01), 0x01)\n      dup15\n      and\n        /* \"contracts/FutarchyArbExecutorV5.sol\":21735:21774  IERC20(no_cur).balanceOf(address(this)) */\n      gas\n      staticcall\n      swap1\n      dup2\n      iszero\n      tag_153\n      jumpi\n        /* \"contracts/FutarchyArbExecutorV5.sol\":5111:41903  contract FutarchyArbExecutorV5 {... */\n      mload(0x0100)\n        /* \"contracts/FutarchyArbExecutorV5.sol\":21735:21774  IERC20(no_cur).balanceOf(address(this)) */\n      swap2\n      tag_455\n      jumpi\n        /* \"contracts/FutarchyArbExecutorV5.sol\":5111:41903  contract FutarchyArbExecutorV5 {... */\n    tag_456:\n      pop\n      calldataload(0x0184)\n      gt\n        /* \"contracts/FutarchyArbExecutorV5.sol\":21731:21821  if (IERC20(no_cur).balanceOf(address(this)) < amount_sdai_in) revert InsufficientBalance() */\n      tag_457\n      jumpi\n        /* \"contracts/FutarchyArbExecutorV5.sol\":21895:21922  _poolFeeOrDefault(yes_pool) */\n      tag_459\n        /* \"contracts/FutarchyArbExecutorV5.sol\":21947:21973  _poolFeeOrDefault(no_pool) */\n      tag_460\n        /* \"contracts/FutarchyArbExecutorV5.sol\":21895:21922  _poolFeeOrDefault(yes_pool) */\n      swap2\n      tag_53\n      jump\t// in\n    tag_459:\n        /* \"contracts/FutarchyArbExecutorV5.sol\":21947:21973  _poolFeeOrDefault(no_pool) */\n      swap2\n      tag_53\n      jump\t// in\n    tag_460:\n        /* \"contracts/FutarchyArbExecutorV5.sol\":21983:22543  if (yes_has_higher_price) {... */\n      swap2\n      iszero\n      tag_461\n      jumpi\n        /* \"contracts/FutarchyArbExecutorV5.sol\":5111:41903  contract FutarchyArbExecutorV5 {... */\n      pop\n        /* \"contracts/FutarchyArbExecutorV5.sol\":22044:22109  _swaprExactIn(swapr_router, yes_cur, yes_comp, amount_sdai_in, 0) */\n      tag_463\n        /* \"contracts/FutarchyArbExecutorV5.sol\":5111:41903  contract FutarchyArbExecutorV5 {... */\n      calldataload(0x0184)\n        /* \"contracts/FutarchyArbExecutorV5.sol\":22044:22109  _swaprExactIn(swapr_router, yes_cur, yes_comp, amount_sdai_in, 0) */\n      dup6\n      dup14\n      dup12\n      tag_52\n      jump\t// in\n    tag_463:\n        /* \"contracts/FutarchyArbExecutorV5.sol\":22127:22142  yesCompOut == 0 */\n      swap1\n      dup2\n      iszero\n        /* \"contracts/FutarchyArbExecutorV5.sol\":22123:22169  if (yesCompOut == 0) revert SwapReturnedZero() */\n      tag_464\n      jumpi\n        /* \"contracts/FutarchyArbExecutorV5.sol\":22183:22263  _swaprExactOut(swapr_router, no_cur, no_comp, noFee, yesCompOut, amount_sdai_in) */\n      tag_466\n        /* \"contracts/FutarchyArbExecutorV5.sol\":5111:41903  contract FutarchyArbExecutorV5 {... */\n      swap2\n      calldataload(0x0184)\n        /* \"contracts/FutarchyArbExecutorV5.sol\":22183:22263  _swaprExactOut(swapr_router, no_cur, no_comp, noFee, yesCompOut, amount_sdai_in) */\n      swap2\n      dup5\n      dup11\n      dup13\n      tag_54\n      jump\t// in\n    tag_466:\n      pop\n        /* \"contracts/FutarchyArbExecutorV5.sol\":21983:22543  if (yes_has_higher_price) {... */\n    tag_467:\n        /* \"contracts/FutarchyArbExecutorV5.sol\":5111:41903  contract FutarchyArbExecutorV5 {... */\n      mload(0x40)\n      shl(0xe0, 0x70a08231)\n        /* \"contracts/FutarchyArbExecutorV5.sol\":22655:22696  IERC20(yes_comp).balanceOf(address(this)) */\n      dup2\n      mstore\n        /* \"contracts/FutarchyArbExecutorV5.sol\":20803:20807  this */\n      address\n        /* \"contracts/FutarchyArbExecutorV5.sol\":5111:41903  contract FutarchyArbExecutorV5 {... */\n      0x04\n        /* \"contracts/FutarchyArbExecutorV5.sol\":22655:22696  IERC20(yes_comp).balanceOf(address(this)) */\n      dup3\n      add\n        /* \"contracts/FutarchyArbExecutorV5.sol\":5111:41903  contract FutarchyArbExecutorV5 {... */\n      mstore\n      0x20\n      dup2\n      0x24\n      dup2\n      sub(shl(0xa0, 0x01), 0x01)\n      dup9\n      and\n        /* \"contracts/FutarchyArbExecutorV5.sol\":22655:22696  IERC20(yes_comp).balanceOf(address(this)) */\n      gas\n      staticcall\n      swap1\n      dup2\n      iszero\n      tag_153\n      jumpi\n        /* \"contracts/FutarchyArbExecutorV5.sol\":5111:41903  contract FutarchyArbExecutorV5 {... */\n      mload(0x0100)\n        /* \"contracts/FutarchyArbExecutorV5.sol\":22655:22696  IERC20(yes_comp).balanceOf(address(this)) */\n      swap2\n      tag_470\n      jumpi\n        /* \"contracts/FutarchyArbExecutorV5.sol\":21983:22543  if (yes_has_higher_price) {... */\n    tag_471:\n      pop\n        /* \"contracts/FutarchyArbExecutorV5.sol\":5111:41903  contract FutarchyArbExecutorV5 {... */\n      mload(0x40)\n      shl(0xe0, 0x70a08231)\n        /* \"contracts/FutarchyArbExecutorV5.sol\":22726:22766  IERC20(no_comp).balanceOf(address(this)) */\n      dup2\n      mstore\n        /* \"contracts/FutarchyArbExecutorV5.sol\":20803:20807  this */\n      address\n        /* \"contracts/FutarchyArbExecutorV5.sol\":5111:41903  contract FutarchyArbExecutorV5 {... */\n      0x04\n        /* \"contracts/FutarchyArbExecutorV5.sol\":22726:22766  IERC20(no_comp).balanceOf(address(this)) */\n      dup3\n      add\n        /* \"contracts/FutarchyArbExecutorV5.sol\":5111:41903  contract FutarchyArbExecutorV5 {... */\n      mstore\n      0x20\n      dup2\n      0x24\n      dup2\n      sub(shl(0xa0, 0x01), 0x01)\n      dup8\n      and\n        /* \"contracts/FutarchyArbExecutorV5.sol\":22726:22766  IERC20(no_comp).balanceOf(address(this)) */\n      gas\n      staticcall\n      swap1\n      dup2\n      iszero\n      tag_153\n      jumpi\n        /* \"contracts/FutarchyArbExecutorV5.sol\":5111:41903  contract FutarchyArbExecutorV5 {... */\n      mload(0x0100)\n        /* \"contracts/FutarchyArbExecutorV5.sol\":22726:22766  IERC20(no_comp).balanceOf(address(this)) */\n      swap2\n      tag_474\n      jumpi\n        /* \"contracts/FutarchyArbExecutorV5.sol\":21983:22543  if (yes_has_higher_price) {... */\n    tag_475:\n      pop\n        /* \"contracts/FutarchyArbExecutorV5.sol\":22795:22817  yesCompBal < noCompBal */\n      dup1\n      dup3\n      lt\n      iszero\n      tag_476\n      jumpi\n        /* \"contracts/FutarchyArbExecutorV5.sol\":22795:22842  yesCompBal < noCompBal ? yesCompBal : noCompBal */\n      pop\n      swap3\n    tag_478:\n        /* \"contracts/FutarchyArbExecutorV5.sol\":22856:22868  mergeAmt > 0 */\n      dup4\n        /* \"contracts/FutarchyArbExecutorV5.sol\":22852:23192  if (mergeAmt > 0) {... */\n      tag_479\n      jumpi\n        /* \"contracts/FutarchyArbExecutorV5.sol\":22795:22842  yesCompBal < noCompBal ? yesCompBal : noCompBal */\n    tag_480:\n        /* \"contracts/FutarchyArbExecutorV5.sol\":5111:41903  contract FutarchyArbExecutorV5 {... */\n      pop\n      pop\n      pop\n      pop\n      pop\n      pop\n      mload(0x40)\n      shl(0xe0, 0x70a08231)\n        /* \"contracts/FutarchyArbExecutorV5.sol\":23288:23330  IERC20(TOKEN_PNK).balanceOf(address(this)) */\n      dup2\n      mstore\n        /* \"contracts/FutarchyArbExecutorV5.sol\":20803:20807  this */\n      address\n        /* \"contracts/FutarchyArbExecutorV5.sol\":5111:41903  contract FutarchyArbExecutorV5 {... */\n      0x04\n        /* \"contracts/FutarchyArbExecutorV5.sol\":23288:23330  IERC20(TOKEN_PNK).balanceOf(address(this)) */\n      dup3\n      add\n        /* \"contracts/FutarchyArbExecutorV5.sol\":5111:41903  contract FutarchyArbExecutorV5 {... */\n      mstore\n      0x20\n        /* \"contracts/FutarchyArbExecutorV5.sol\":23288:23330  IERC20(TOKEN_PNK).balanceOf(address(this)) */\n      dup2\n        /* \"contracts/FutarchyArbExecutorV5.sol\":5111:41903  contract FutarchyArbExecutorV5 {... */\n      0x24\n        /* \"contracts/FutarchyArbExecutorV5.sol\":23288:23330  IERC20(TOKEN_PNK).balanceOf(address(this)) */\n      dup2\n      mload(0x00)\n      codecopy(0x00, data_18faf74e4df68828d272c60758edf9513e53936ca0737ceb17921c958804ed9a, 0x20)\n      mload(0x00)\n      swap1\n      0x00\n      mstore\n      gas\n      staticcall\n      swap1\n      dup2\n      iszero\n      tag_153\n      jumpi\n        /* \"contracts/FutarchyArbExecutorV5.sol\":5111:41903  contract FutarchyArbExecutorV5 {... */\n      mload(0x0100)\n        /* \"contracts/FutarchyArbExecutorV5.sol\":23288:23330  IERC20(TOKEN_PNK).balanceOf(address(this)) */\n      swap2\n      tag_483\n      jumpi\n        /* \"contracts/FutarchyArbExecutorV5.sol\":22795:22842  yesCompBal < noCompBal ? yesCompBal : noCompBal */\n    tag_484:\n        /* \"contracts/FutarchyArbExecutorV5.sol\":23344:23354  pnkBal > 0 */\n      pop\n      dup1\n        /* \"contracts/FutarchyArbExecutorV5.sol\":23340:23385  if (pnkBal > 0) _sellPnkForSdai(pnkBal, 0, 0) */\n      tag_485\n      jumpi\n        /* \"contracts/FutarchyArbExecutorV5.sol\":22795:22842  yesCompBal < noCompBal ? yesCompBal : noCompBal */\n    tag_486:\n      pop\n        /* \"contracts/FutarchyArbExecutorV5.sol\":5111:41903  contract FutarchyArbExecutorV5 {... */\n      mload(0x40)\n      shl(0xe0, 0x70a08231)\n        /* \"contracts/FutarchyArbExecutorV5.sol\":23519:23559  IERC20(yes_cur).balanceOf(address(this)) */\n      dup2\n      mstore\n        /* \"contracts/FutarchyArbExecutorV5.sol\":20803:20807  this */\n      address\n        /* \"contracts/FutarchyArbExecutorV5.sol\":5111:41903  contract FutarchyArbExecutorV5 {... */\n      0x04\n        /* \"contracts/FutarchyArbExecutorV5.sol\":23519:23559  IERC20(yes_cur).balanceOf(address(this)) */\n      dup3\n      add\n        /* \"contracts/FutarchyArbExecutorV5.sol\":5111:41903  contract FutarchyArbExecutorV5 {... */\n      mstore\n      swap1\n      0x20\n      dup3\n      0x24\n      dup2\n      sub(shl(0xa0, 0x01), 0x01)\n      dup11\n      and\n        /* \"contracts/FutarchyArbExecutorV5.sol\":23519:23559  IERC20(yes_cur).balanceOf(address(this)) */\n      gas\n      staticcall\n      swap2\n      dup3\n      iszero\n      tag_153\n      jumpi\n        /* \"contracts/FutarchyArbExecutorV5.sol\":5111:41903  contract FutarchyArbExecutorV5 {... */\n      mload(0x0100)\n        /* \"contracts/FutarchyArbExecutorV5.sol\":23519:23559  IERC20(yes_cur).balanceOf(address(this)) */\n      swap3\n      tag_489\n      jumpi\n        /* \"contracts/FutarchyArbExecutorV5.sol\":22795:22842  yesCompBal < noCompBal ? yesCompBal : noCompBal */\n    tag_490:\n      pop\n        /* \"contracts/FutarchyArbExecutorV5.sol\":5111:41903  contract FutarchyArbExecutorV5 {... */\n      mload(0x40)\n      shl(0xe0, 0x70a08231)\n        /* \"contracts/FutarchyArbExecutorV5.sol\":23589:23628  IERC20(no_cur).balanceOf(address(this)) */\n      dup2\n      mstore\n        /* \"contracts/FutarchyArbExecutorV5.sol\":20803:20807  this */\n      address\n        /* \"contracts/FutarchyArbExecutorV5.sol\":5111:41903  contract FutarchyArbExecutorV5 {... */\n      0x04\n        /* \"contracts/FutarchyArbExecutorV5.sol\":23589:23628  IERC20(no_cur).balanceOf(address(this)) */\n      dup3\n      add\n        /* \"contracts/FutarchyArbExecutorV5.sol\":5111:41903  contract FutarchyArbExecutorV5 {... */\n      mstore\n      swap1\n      0x20\n      dup3\n      0x24\n      dup2\n      sub(shl(0xa0, 0x01), 0x01)\n      dup6\n      and\n        /* \"contracts/FutarchyArbExecutorV5.sol\":23589:23628  IERC20(no_cur).balanceOf(address(this)) */\n      gas\n      staticcall\n      swap2\n      dup3\n      iszero\n      tag_153\n      jumpi\n        /* \"contracts/FutarchyArbExecutorV5.sol\":5111:41903  contract FutarchyArbExecutorV5 {... */\n      mload(0x0100)\n        /* \"contracts/FutarchyArbExecutorV5.sol\":23589:23628  IERC20(no_cur).balanceOf(address(this)) */\n      swap3\n      tag_493\n      jumpi\n        /* \"contracts/FutarchyArbExecutorV5.sol\":22795:22842  yesCompBal < noCompBal ? yesCompBal : noCompBal */\n    tag_494:\n      pop\n        /* \"contracts/FutarchyArbExecutorV5.sol\":5111:41903  contract FutarchyArbExecutorV5 {... */\n      0x24\n      swap7\n      0x20\n      swap6\n        /* \"contracts/FutarchyArbExecutorV5.sol\":23642:23656  yesCurLeft > 0 */\n      swap5\n      swap4\n      swap3\n      dup6\n      swap3\n      dup5\n      iszero\n      tag_495\n      jumpi\n        /* \"contracts/FutarchyArbExecutorV5.sol\":23658:23714  _swaprExactIn(swapr_router, yes_cur, cur, yesCurLeft, 0) */\n      pop\n      pop\n      tag_497\n      swap4\n      tag_52\n      jump\t// in\n    tag_497:\n      pop\n        /* \"contracts/FutarchyArbExecutorV5.sol\":23638:23802  if (yesCurLeft > 0) _swaprExactIn(swapr_router, yes_cur, cur, yesCurLeft, 0);... */\n    tag_498:\n        /* \"contracts/FutarchyArbExecutorV5.sol\":5111:41903  contract FutarchyArbExecutorV5 {... */\n      mload(0x40)\n      shl(0xe0, 0x70a08231)\n        /* \"contracts/FutarchyArbExecutorV5.sol\":23873:23909  IERC20(cur).balanceOf(address(this)) */\n      dup2\n      mstore\n        /* \"contracts/FutarchyArbExecutorV5.sol\":20803:20807  this */\n      address\n        /* \"contracts/FutarchyArbExecutorV5.sol\":5111:41903  contract FutarchyArbExecutorV5 {... */\n      0x04\n        /* \"contracts/FutarchyArbExecutorV5.sol\":23873:23909  IERC20(cur).balanceOf(address(this)) */\n      dup3\n      add\n        /* \"contracts/FutarchyArbExecutorV5.sol\":5111:41903  contract FutarchyArbExecutorV5 {... */\n      mstore\n      swap4\n      dup5\n      swap2\n      dup3\n      swap1\n      sub(shl(0xa0, 0x01), 0x01)\n      and\n        /* \"contracts/FutarchyArbExecutorV5.sol\":23873:23909  IERC20(cur).balanceOf(address(this)) */\n      gas\n      staticcall\n      swap2\n      dup3\n      iszero\n      tag_153\n      jumpi\n        /* \"contracts/FutarchyArbExecutorV5.sol\":5111:41903  contract FutarchyArbExecutorV5 {... */\n      mload(0x0100)\n        /* \"contracts/FutarchyArbExecutorV5.sol\":23873:23909  IERC20(cur).balanceOf(address(this)) */\n      swap3\n      tag_501\n      jumpi\n        /* \"contracts/FutarchyArbExecutorV5.sol\":23638:23802  if (yesCurLeft > 0) _swaprExactIn(swapr_router, yes_cur, cur, yesCurLeft, 0);... */\n    tag_502:\n      pop\n      sub(shl(0xff, 0x01), 0x01)\n        /* \"contracts/FutarchyArbExecutorV5.sol\":23923:23968  final_cur_balance > uint256(type(int256).max) */\n      dup3\n      gt\n        /* \"contracts/FutarchyArbExecutorV5.sol\":23923:24019  final_cur_balance > uint256(type(int256).max) || initial_cur_balance > uint256(type(int256).max) */\n      dup1\n      iszero\n      tag_299\n      jumpi\n        /* \"contracts/FutarchyArbExecutorV5.sol\":23919:24070  if (final_cur_balance > uint256(type(int256).max) || initial_cur_balance > uint256(type(int256).max)) {... */\n      tag_301\n      jumpi\n        /* \"contracts/FutarchyArbExecutorV5.sol\":24159:24214  int256(final_cur_balance) - int256(initial_cur_balance) */\n      dup3\n      tag_303\n      dup3\n      dup5\n      tag_26\n      jump\t// in\n        /* \"contracts/FutarchyArbExecutorV5.sol\":23873:23909  IERC20(cur).balanceOf(address(this)) */\n    tag_501:\n      swap1\n      swap2\n      pop\n        /* \"contracts/FutarchyArbExecutorV5.sol\":5111:41903  contract FutarchyArbExecutorV5 {... */\n      0x20\n        /* \"contracts/FutarchyArbExecutorV5.sol\":23873:23909  IERC20(cur).balanceOf(address(this)) */\n      dup2\n      returndatasize\n        /* \"contracts/FutarchyArbExecutorV5.sol\":5111:41903  contract FutarchyArbExecutorV5 {... */\n      0x20\n        /* \"contracts/FutarchyArbExecutorV5.sol\":23873:23909  IERC20(cur).balanceOf(address(this)) */\n      gt\n      tag_511\n      jumpi\n    tag_512:\n      dup2\n      tag_513\n        /* \"contracts/FutarchyArbExecutorV5.sol\":5111:41903  contract FutarchyArbExecutorV5 {... */\n      0x20\n        /* \"contracts/FutarchyArbExecutorV5.sol\":23873:23909  IERC20(cur).balanceOf(address(this)) */\n      swap4\n      dup4\n      tag_18\n      jump\t// in\n    tag_513:\n      dup2\n      add\n        /* \"contracts/FutarchyArbExecutorV5.sol\":5111:41903  contract FutarchyArbExecutorV5 {... */\n      sub\n      slt\n      tag_166\n      jumpi\n      mload\n        /* \"contracts/FutarchyArbExecutorV5.sol\":23873:23909  IERC20(cur).balanceOf(address(this)) */\n      swap1\n      dup4\n      jump(tag_502)\n    tag_511:\n      returndatasize\n      swap2\n      pop\n      jump(tag_512)\n        /* \"contracts/FutarchyArbExecutorV5.sol\":23638:23802  if (yesCurLeft > 0) _swaprExactIn(swapr_router, yes_cur, cur, yesCurLeft, 0);... */\n    tag_495:\n        /* \"contracts/FutarchyArbExecutorV5.sol\":23733:23746  noCurLeft > 0 */\n      swap2\n      pop\n      dup1\n      swap4\n      pop\n        /* \"contracts/FutarchyArbExecutorV5.sol\":23729:23802  if (noCurLeft > 0) _swaprExactIn(swapr_router, no_cur, cur, noCurLeft, 0) */\n      tag_516\n      jumpi\n        /* \"contracts/FutarchyArbExecutorV5.sol\":23638:23802  if (yesCurLeft > 0) _swaprExactIn(swapr_router, yes_cur, cur, yesCurLeft, 0);... */\n    tag_517:\n      pop\n      pop\n      pop\n      pop\n      jump(tag_498)\n        /* \"contracts/FutarchyArbExecutorV5.sol\":23729:23802  if (noCurLeft > 0) _swaprExactIn(swapr_router, no_cur, cur, noCurLeft, 0) */\n    tag_516:\n        /* \"contracts/FutarchyArbExecutorV5.sol\":23748:23802  _swaprExactIn(swapr_router, no_cur, cur, noCurLeft, 0) */\n      tag_518\n      swap4\n      tag_52\n      jump\t// in\n    tag_518:\n      pop\n        /* \"contracts/FutarchyArbExecutorV5.sol\":23729:23802  if (noCurLeft > 0) _swaprExactIn(swapr_router, no_cur, cur, noCurLeft, 0) */\n      dup6\n      dup1\n      dup3\n      dup2\n      jump(tag_517)\n        /* \"contracts/FutarchyArbExecutorV5.sol\":23589:23628  IERC20(no_cur).balanceOf(address(this)) */\n    tag_493:\n      swap1\n      swap5\n      swap4\n      swap3\n      swap2\n      pop\n        /* \"contracts/FutarchyArbExecutorV5.sol\":5111:41903  contract FutarchyArbExecutorV5 {... */\n      0x20\n        /* \"contracts/FutarchyArbExecutorV5.sol\":23589:23628  IERC20(no_cur).balanceOf(address(this)) */\n      dup2\n      returndatasize\n        /* \"contracts/FutarchyArbExecutorV5.sol\":5111:41903  contract FutarchyArbExecutorV5 {... */\n      0x20\n        /* \"contracts/FutarchyArbExecutorV5.sol\":23589:23628  IERC20(no_cur).balanceOf(address(this)) */\n      gt\n      tag_519\n      jumpi\n    tag_520:\n      dup2\n      tag_521\n        /* \"contracts/FutarchyArbExecutorV5.sol\":5111:41903  contract FutarchyArbExecutorV5 {... */\n      0x20\n        /* \"contracts/FutarchyArbExecutorV5.sol\":23589:23628  IERC20(no_cur).balanceOf(address(this)) */\n      swap4\n      dup4\n      tag_18\n      jump\t// in\n    tag_521:\n      dup2\n      add\n        /* \"contracts/FutarchyArbExecutorV5.sol\":5111:41903  contract FutarchyArbExecutorV5 {... */\n      sub\n      slt\n      tag_166\n      jumpi\n      mload\n      swap3\n      swap4\n        /* \"contracts/FutarchyArbExecutorV5.sol\":23589:23628  IERC20(no_cur).balanceOf(address(this)) */\n      swap2\n      swap3\n      swap1\n      swap2\n        /* \"contracts/FutarchyArbExecutorV5.sol\":5111:41903  contract FutarchyArbExecutorV5 {... */\n      0x24\n        /* \"contracts/FutarchyArbExecutorV5.sol\":23589:23628  IERC20(no_cur).balanceOf(address(this)) */\n      jump(tag_494)\n    tag_519:\n      returndatasize\n      swap2\n      pop\n      jump(tag_520)\n        /* \"contracts/FutarchyArbExecutorV5.sol\":23519:23559  IERC20(yes_cur).balanceOf(address(this)) */\n    tag_489:\n      swap1\n      swap2\n      pop\n        /* \"contracts/FutarchyArbExecutorV5.sol\":5111:41903  contract FutarchyArbExecutorV5 {... */\n      0x20\n        /* \"contracts/FutarchyArbExecutorV5.sol\":23519:23559  IERC20(yes_cur).balanceOf(address(this)) */\n      dup2\n      returndatasize\n        /* \"contracts/FutarchyArbExecutorV5.sol\":5111:41903  contract FutarchyArbExecutorV5 {... */\n      0x20\n        /* \"contracts/FutarchyArbExecutorV5.sol\":23519:23559  IERC20(yes_cur).balanceOf(address(this)) */\n      gt\n      tag_524\n      jumpi\n    tag_525:\n      dup2\n      tag_526\n        /* \"contracts/FutarchyArbExecutorV5.sol\":5111:41903  contract FutarchyArbExecutorV5 {... */\n      0x20\n        /* \"contracts/FutarchyArbExecutorV5.sol\":23519:23559  IERC20(yes_cur).balanceOf(address(this)) */\n      swap4\n      dup4\n      tag_18\n      jump\t// in\n    tag_526:\n      dup2\n      add\n        /* \"contracts/FutarchyArbExecutorV5.sol\":5111:41903  contract FutarchyArbExecutorV5 {... */\n      sub\n      slt\n      tag_166\n      jumpi\n      mload\n        /* \"contracts/FutarchyArbExecutorV5.sol\":23519:23559  IERC20(yes_cur).balanceOf(address(this)) */\n      swap1\n      dup8\n      jump(tag_490)\n    tag_524:\n      returndatasize\n      swap2\n      pop\n      jump(tag_525)\n        /* \"contracts/FutarchyArbExecutorV5.sol\":23340:23385  if (pnkBal > 0) _sellPnkForSdai(pnkBal, 0, 0) */\n    tag_485:\n        /* \"contracts/FutarchyArbExecutorV5.sol\":23356:23385  _sellPnkForSdai(pnkBal, 0, 0) */\n      tag_529\n      swap1\n      tag_55\n      jump\t// in\n    tag_529:\n        /* \"contracts/FutarchyArbExecutorV5.sol\":23340:23385  if (pnkBal > 0) _sellPnkForSdai(pnkBal, 0, 0) */\n      dup7\n      jump(tag_486)\n        /* \"contracts/FutarchyArbExecutorV5.sol\":23288:23330  IERC20(TOKEN_PNK).balanceOf(address(this)) */\n    tag_483:\n      swap1\n      pop\n        /* \"contracts/FutarchyArbExecutorV5.sol\":5111:41903  contract FutarchyArbExecutorV5 {... */\n      0x20\n        /* \"contracts/FutarchyArbExecutorV5.sol\":23288:23330  IERC20(TOKEN_PNK).balanceOf(address(this)) */\n      dup2\n      returndatasize\n        /* \"contracts/FutarchyArbExecutorV5.sol\":5111:41903  contract FutarchyArbExecutorV5 {... */\n      0x20\n        /* \"contracts/FutarchyArbExecutorV5.sol\":23288:23330  IERC20(TOKEN_PNK).balanceOf(address(this)) */\n      gt\n      tag_530\n      jumpi\n    tag_531:\n      dup2\n      tag_532\n        /* \"contracts/FutarchyArbExecutorV5.sol\":5111:41903  contract FutarchyArbExecutorV5 {... */\n      0x20\n        /* \"contracts/FutarchyArbExecutorV5.sol\":23288:23330  IERC20(TOKEN_PNK).balanceOf(address(this)) */\n      swap4\n      dup4\n      tag_18\n      jump\t// in\n    tag_532:\n      dup2\n      add\n        /* \"contracts/FutarchyArbExecutorV5.sol\":5111:41903  contract FutarchyArbExecutorV5 {... */\n      sub\n      slt\n      tag_166\n      jumpi\n      mload\n        /* \"contracts/FutarchyArbExecutorV5.sol\":23288:23330  IERC20(TOKEN_PNK).balanceOf(address(this)) */\n      dup8\n      jump(tag_484)\n    tag_530:\n      returndatasize\n      swap2\n      pop\n      jump(tag_531)\n        /* \"contracts/FutarchyArbExecutorV5.sol\":22852:23192  if (mergeAmt > 0) {... */\n    tag_479:\n        /* \"contracts/FutarchyArbExecutorV5.sol\":22989:23004  futarchy_router */\n      tag_535\n      swap2\n        /* \"contracts/FutarchyArbExecutorV5.sol\":5111:41903  contract FutarchyArbExecutorV5 {... */\n      dup6\n      swap2\n        /* \"contracts/FutarchyArbExecutorV5.sol\":22922:22937  futarchy_router */\n      tag_536\n      swap1\n        /* \"contracts/FutarchyArbExecutorV5.sol\":5111:41903  contract FutarchyArbExecutorV5 {... */\n      dup4\n      swap1\n      sub(shl(0xa0, 0x01), 0x01)\n      and\n        /* \"contracts/FutarchyArbExecutorV5.sol\":22922:22937  futarchy_router */\n      tag_51\n      jump\t// in\n    tag_536:\n      sub(shl(0xa0, 0x01), 0x01)\n        /* \"contracts/FutarchyArbExecutorV5.sol\":5111:41903  contract FutarchyArbExecutorV5 {... */\n      and\n        /* \"contracts/FutarchyArbExecutorV5.sol\":22989:23004  futarchy_router */\n      tag_51\n      jump\t// in\n    tag_535:\n      sub(shl(0xa0, 0x01), 0x01)\n        /* \"contracts/FutarchyArbExecutorV5.sol\":5111:41903  contract FutarchyArbExecutorV5 {... */\n      dup4\n      and\n        /* \"contracts/FutarchyArbExecutorV5.sol\":23019:23092  IFutarchyRouter(futarchy_router).mergePositions(proposal, comp, mergeAmt) */\n      extcodesize\n      iszero\n      tag_85\n      jumpi\n        /* \"contracts/FutarchyArbExecutorV5.sol\":5111:41903  contract FutarchyArbExecutorV5 {... */\n      mload(0x40)\n      shl(0xe0, 0x7abef8d1)\n        /* \"contracts/FutarchyArbExecutorV5.sol\":23019:23092  IFutarchyRouter(futarchy_router).mergePositions(proposal, comp, mergeAmt) */\n      dup2\n      mstore\n        /* \"contracts/FutarchyArbExecutorV5.sol\":5111:41903  contract FutarchyArbExecutorV5 {... */\n      mload(0x0100)\n      dup2\n      dup1\n        /* \"contracts/FutarchyArbExecutorV5.sol\":23019:23092  IFutarchyRouter(futarchy_router).mergePositions(proposal, comp, mergeAmt) */\n      tag_539\n      dup7\n      dup7\n      dup11\n        /* \"contracts/FutarchyArbExecutorV5.sol\":5111:41903  contract FutarchyArbExecutorV5 {... */\n      0x04\n        /* \"contracts/FutarchyArbExecutorV5.sol\":23019:23092  IFutarchyRouter(futarchy_router).mergePositions(proposal, comp, mergeAmt) */\n      dup6\n      add\n      tag_25\n      jump\t// in\n    tag_539:\n      sub\n        /* \"contracts/FutarchyArbExecutorV5.sol\":5111:41903  contract FutarchyArbExecutorV5 {... */\n      dup2\n      mload(0x0100)\n      0x01\n      dup1\n      0xa0\n      shl\n      sub\n      dup10\n      and\n        /* \"contracts/FutarchyArbExecutorV5.sol\":23019:23092  IFutarchyRouter(futarchy_router).mergePositions(proposal, comp, mergeAmt) */\n      gas\n      call\n      dup1\n      iszero\n      tag_153\n      jumpi\n      tag_542\n      jumpi\n        /* \"contracts/FutarchyArbExecutorV5.sol\":22852:23192  if (mergeAmt > 0) {... */\n    tag_543:\n      pop\n        /* \"contracts/FutarchyArbExecutorV5.sol\":5111:41903  contract FutarchyArbExecutorV5 {... */\n      mload(0x40)\n      swap2\n      dup3\n      mstore\n      sub(shl(0xa0, 0x01), 0x01)\n      swap1\n      dup2\n      and\n      swap4\n      dup2\n      and\n      swap3\n      and\n      swap1\n      mload(0x00)\n      codecopy(0x00, data_c5aaa74a06ee65ab0e09cb193417f995c1069cf1fd250a86afdf2022e97f16ad, 0x20)\n      mload(0x00)\n      swap1\n      0x00\n      mstore\n        /* \"contracts/FutarchyArbExecutorV5.sol\":23111:23181  ConditionalCollateralMerged(futarchy_router, proposal, comp, mergeAmt) */\n      swap1\n        /* \"contracts/FutarchyArbExecutorV5.sol\":5111:41903  contract FutarchyArbExecutorV5 {... */\n      0x20\n      swap1\n        /* \"contracts/FutarchyArbExecutorV5.sol\":23111:23181  ConditionalCollateralMerged(futarchy_router, proposal, comp, mergeAmt) */\n      log4\n        /* \"contracts/FutarchyArbExecutorV5.sol\":22852:23192  if (mergeAmt > 0) {... */\n      dup7\n      dup1\n      dup1\n      dup1\n      dup1\n      dup1\n      jump(tag_480)\n        /* \"contracts/FutarchyArbExecutorV5.sol\":23019:23092  IFutarchyRouter(futarchy_router).mergePositions(proposal, comp, mergeAmt) */\n    tag_542:\n        /* \"contracts/FutarchyArbExecutorV5.sol\":5111:41903  contract FutarchyArbExecutorV5 {... */\n      mload(0x0100)\n        /* \"contracts/FutarchyArbExecutorV5.sol\":23019:23092  IFutarchyRouter(futarchy_router).mergePositions(proposal, comp, mergeAmt) */\n      tag_544\n      swap2\n      tag_18\n      jump\t// in\n    tag_544:\n        /* \"contracts/FutarchyArbExecutorV5.sol\":5111:41903  contract FutarchyArbExecutorV5 {... */\n      jumpi(tag_85, mload(0x0100))\n        /* \"contracts/FutarchyArbExecutorV5.sol\":23019:23092  IFutarchyRouter(futarchy_router).mergePositions(proposal, comp, mergeAmt) */\n      dup11\n      jump(tag_543)\n        /* \"contracts/FutarchyArbExecutorV5.sol\":22795:22842  yesCompBal < noCompBal ? yesCompBal : noCompBal */\n    tag_476:\n      swap1\n      pop\n      swap3\n      jump(tag_478)\n        /* \"contracts/FutarchyArbExecutorV5.sol\":22726:22766  IERC20(no_comp).balanceOf(address(this)) */\n    tag_474:\n      swap1\n      pop\n        /* \"contracts/FutarchyArbExecutorV5.sol\":5111:41903  contract FutarchyArbExecutorV5 {... */\n      0x20\n        /* \"contracts/FutarchyArbExecutorV5.sol\":22726:22766  IERC20(no_comp).balanceOf(address(this)) */\n      dup2\n      returndatasize\n        /* \"contracts/FutarchyArbExecutorV5.sol\":5111:41903  contract FutarchyArbExecutorV5 {... */\n      0x20\n        /* \"contracts/FutarchyArbExecutorV5.sol\":22726:22766  IERC20(no_comp).balanceOf(address(this)) */\n      gt\n      tag_547\n      jumpi\n    tag_548:\n      dup2\n      tag_549\n        /* \"contracts/FutarchyArbExecutorV5.sol\":5111:41903  contract FutarchyArbExecutorV5 {... */\n      0x20\n        /* \"contracts/FutarchyArbExecutorV5.sol\":22726:22766  IERC20(no_comp).balanceOf(address(this)) */\n      swap4\n      dup4\n      tag_18\n      jump\t// in\n    tag_549:\n      dup2\n      add\n        /* \"contracts/FutarchyArbExecutorV5.sol\":5111:41903  contract FutarchyArbExecutorV5 {... */\n      sub\n      slt\n      tag_166\n      jumpi\n      mload\n        /* \"contracts/FutarchyArbExecutorV5.sol\":22726:22766  IERC20(no_comp).balanceOf(address(this)) */\n      dup14\n      jump(tag_475)\n    tag_547:\n      returndatasize\n      swap2\n      pop\n      jump(tag_548)\n        /* \"contracts/FutarchyArbExecutorV5.sol\":22655:22696  IERC20(yes_comp).balanceOf(address(this)) */\n    tag_470:\n      swap1\n      pop\n        /* \"contracts/FutarchyArbExecutorV5.sol\":5111:41903  contract FutarchyArbExecutorV5 {... */\n      0x20\n        /* \"contracts/FutarchyArbExecutorV5.sol\":22655:22696  IERC20(yes_comp).balanceOf(address(this)) */\n      dup2\n      returndatasize\n        /* \"contracts/FutarchyArbExecutorV5.sol\":5111:41903  contract FutarchyArbExecutorV5 {... */\n      0x20\n        /* \"contracts/FutarchyArbExecutorV5.sol\":22655:22696  IERC20(yes_comp).balanceOf(address(this)) */\n      gt\n      tag_552\n      jumpi\n    tag_553:\n      dup2\n      tag_554\n        /* \"contracts/FutarchyArbExecutorV5.sol\":5111:41903  contract FutarchyArbExecutorV5 {... */\n      0x20\n        /* \"contracts/FutarchyArbExecutorV5.sol\":22655:22696  IERC20(yes_comp).balanceOf(address(this)) */\n      swap4\n      dup4\n      tag_18\n      jump\t// in\n    tag_554:\n      dup2\n      add\n        /* \"contracts/FutarchyArbExecutorV5.sol\":5111:41903  contract FutarchyArbExecutorV5 {... */\n      sub\n      slt\n      tag_166\n      jumpi\n      mload\n        /* \"contracts/FutarchyArbExecutorV5.sol\":22655:22696  IERC20(yes_comp).balanceOf(address(this)) */\n      dup13\n      jump(tag_471)\n    tag_552:\n      returndatasize\n      swap2\n      pop\n      jump(tag_553)\n        /* \"contracts/FutarchyArbExecutorV5.sol\":22123:22169  if (yesCompOut == 0) revert SwapReturnedZero() */\n    tag_464:\n        /* \"contracts/FutarchyArbExecutorV5.sol\":32880:32898  SwapReturnedZero() */\n      shl(0xe0, 0x3ecbef89)\n        /* \"contracts/FutarchyArbExecutorV5.sol\":5111:41903  contract FutarchyArbExecutorV5 {... */\n      mload(0x0100)\n        /* \"contracts/FutarchyArbExecutorV5.sol\":22151:22169  SwapReturnedZero() */\n      mstore\n        /* \"contracts/FutarchyArbExecutorV5.sol\":5111:41903  contract FutarchyArbExecutorV5 {... */\n      0x04\n      mload(0x0100)\n        /* \"contracts/FutarchyArbExecutorV5.sol\":22151:22169  SwapReturnedZero() */\n      revert\n        /* \"contracts/FutarchyArbExecutorV5.sol\":21983:22543  if (yes_has_higher_price) {... */\n    tag_461:\n        /* \"contracts/FutarchyArbExecutorV5.sol\":5111:41903  contract FutarchyArbExecutorV5 {... */\n      swap1\n      pop\n        /* \"contracts/FutarchyArbExecutorV5.sol\":22314:22377  _swaprExactIn(swapr_router, no_cur, no_comp, amount_sdai_in, 0) */\n      tag_557\n        /* \"contracts/FutarchyArbExecutorV5.sol\":5111:41903  contract FutarchyArbExecutorV5 {... */\n      calldataload(0x0184)\n        /* \"contracts/FutarchyArbExecutorV5.sol\":22314:22377  _swaprExactIn(swapr_router, no_cur, no_comp, amount_sdai_in, 0) */\n      dup4\n      dup10\n      dup12\n      tag_52\n      jump\t// in\n    tag_557:\n        /* \"contracts/FutarchyArbExecutorV5.sol\":22395:22409  noCompOut == 0 */\n      swap1\n      dup2\n      iszero\n        /* \"contracts/FutarchyArbExecutorV5.sol\":22391:22436  if (noCompOut == 0) revert SwapReturnedZero() */\n      tag_464\n      jumpi\n        /* \"contracts/FutarchyArbExecutorV5.sol\":22450:22532  _swaprExactOut(swapr_router, yes_cur, yes_comp, yesFee, noCompOut, amount_sdai_in) */\n      tag_560\n      swap2\n        /* \"contracts/FutarchyArbExecutorV5.sol\":5111:41903  contract FutarchyArbExecutorV5 {... */\n      calldataload(0x0184)\n      swap2\n      dup7\n      dup15\n        /* \"contracts/FutarchyArbExecutorV5.sol\":22450:22532  _swaprExactOut(swapr_router, yes_cur, yes_comp, yesFee, noCompOut, amount_sdai_in) */\n      dup13\n      tag_54\n      jump\t// in\n    tag_560:\n      pop\n        /* \"contracts/FutarchyArbExecutorV5.sol\":21983:22543  if (yes_has_higher_price) {... */\n      jump(tag_467)\n        /* \"contracts/FutarchyArbExecutorV5.sol\":21731:21821  if (IERC20(no_cur).balanceOf(address(this)) < amount_sdai_in) revert InsufficientBalance() */\n    tag_457:\n        /* \"contracts/FutarchyArbExecutorV5.sol\":32162:32183  InsufficientBalance() */\n      shl(0xe3, 0x1e9acf17)\n        /* \"contracts/FutarchyArbExecutorV5.sol\":5111:41903  contract FutarchyArbExecutorV5 {... */\n      mload(0x0100)\n        /* \"contracts/FutarchyArbExecutorV5.sol\":21800:21821  InsufficientBalance() */\n      mstore\n        /* \"contracts/FutarchyArbExecutorV5.sol\":5111:41903  contract FutarchyArbExecutorV5 {... */\n      0x04\n      mload(0x0100)\n        /* \"contracts/FutarchyArbExecutorV5.sol\":21800:21821  InsufficientBalance() */\n      revert\n        /* \"contracts/FutarchyArbExecutorV5.sol\":21735:21774  IERC20(no_cur).balanceOf(address(this)) */\n    tag_455:\n      swap1\n      pop\n        /* \"contracts/FutarchyArbExecutorV5.sol\":5111:41903  contract FutarchyArbExecutorV5 {... */\n      0x20\n        /* \"contracts/FutarchyArbExecutorV5.sol\":21735:21774  IERC20(no_cur).balanceOf(address(this)) */\n      dup2\n      returndatasize\n        /* \"contracts/FutarchyArbExecutorV5.sol\":5111:41903  contract FutarchyArbExecutorV5 {... */\n      0x20\n        /* \"contracts/FutarchyArbExecutorV5.sol\":21735:21774  IERC20(no_cur).balanceOf(address(this)) */\n      gt\n      tag_561\n      jumpi\n    tag_562:\n      dup2\n      tag_563\n        /* \"contracts/FutarchyArbExecutorV5.sol\":5111:41903  contract FutarchyArbExecutorV5 {... */\n      0x20\n        /* \"contracts/FutarchyArbExecutorV5.sol\":21735:21774  IERC20(no_cur).balanceOf(address(this)) */\n      swap4\n      dup4\n      tag_18\n      jump\t// in\n    tag_563:\n      dup2\n      add\n        /* \"contracts/FutarchyArbExecutorV5.sol\":5111:41903  contract FutarchyArbExecutorV5 {... */\n      sub\n      slt\n      tag_166\n      jumpi\n      mload\n        /* \"contracts/FutarchyArbExecutorV5.sol\":21735:21774  IERC20(no_cur).balanceOf(address(this)) */\n      dup16\n      jump(tag_456)\n    tag_561:\n      returndatasize\n      swap2\n      pop\n      jump(tag_562)\n        /* \"contracts/FutarchyArbExecutorV5.sol\":21634:21674  IERC20(yes_cur).balanceOf(address(this)) */\n    tag_449:\n      swap1\n      pop\n        /* \"contracts/FutarchyArbExecutorV5.sol\":5111:41903  contract FutarchyArbExecutorV5 {... */\n      0x20\n        /* \"contracts/FutarchyArbExecutorV5.sol\":21634:21674  IERC20(yes_cur).balanceOf(address(this)) */\n      dup2\n      returndatasize\n        /* \"contracts/FutarchyArbExecutorV5.sol\":5111:41903  contract FutarchyArbExecutorV5 {... */\n      0x20\n        /* \"contracts/FutarchyArbExecutorV5.sol\":21634:21674  IERC20(yes_cur).balanceOf(address(this)) */\n      gt\n      tag_566\n      jumpi\n    tag_567:\n      dup2\n      tag_568\n        /* \"contracts/FutarchyArbExecutorV5.sol\":5111:41903  contract FutarchyArbExecutorV5 {... */\n      0x20\n        /* \"contracts/FutarchyArbExecutorV5.sol\":21634:21674  IERC20(yes_cur).balanceOf(address(this)) */\n      swap4\n      dup4\n      tag_18\n      jump\t// in\n    tag_568:\n      dup2\n      add\n        /* \"contracts/FutarchyArbExecutorV5.sol\":5111:41903  contract FutarchyArbExecutorV5 {... */\n      sub\n      slt\n      tag_166\n      jumpi\n      mload\n        /* \"contracts/FutarchyArbExecutorV5.sol\":21634:21674  IERC20(yes_cur).balanceOf(address(this)) */\n      dup16\n      jump(tag_450)\n    tag_566:\n      returndatasize\n      swap2\n      pop\n      jump(tag_567)\n        /* \"contracts/FutarchyArbExecutorV5.sol\":21374:21451  IFutarchyRouter(futarchy_router).splitPosition(proposal, cur, amount_sdai_in) */\n    tag_445:\n        /* \"contracts/FutarchyArbExecutorV5.sol\":5111:41903  contract FutarchyArbExecutorV5 {... */\n      swap3\n      pop\n      pop\n      pop\n        /* \"contracts/FutarchyArbExecutorV5.sol\":21374:21451  IFutarchyRouter(futarchy_router).splitPosition(proposal, cur, amount_sdai_in) */\n      tag_571\n        /* \"contracts/FutarchyArbExecutorV5.sol\":5111:41903  contract FutarchyArbExecutorV5 {... */\n      swap2\n      pop\n      mload(0x0100)\n        /* \"contracts/FutarchyArbExecutorV5.sol\":21374:21451  IFutarchyRouter(futarchy_router).splitPosition(proposal, cur, amount_sdai_in) */\n      swap1\n      tag_18\n      jump\t// in\n    tag_571:\n        /* \"contracts/FutarchyArbExecutorV5.sol\":5111:41903  contract FutarchyArbExecutorV5 {... */\n      jumpi(tag_85, mload(0x0100))\n        /* \"contracts/FutarchyArbExecutorV5.sol\":21374:21451  IFutarchyRouter(futarchy_router).splitPosition(proposal, cur, amount_sdai_in) */\n      dup13\n      dup9\n      dup9\n      dup14\n      0x00\n      jump(tag_446)\n        /* \"contracts/FutarchyArbExecutorV5.sol\":21135:21210  yes_cur == address(0) || no_cur == address(0) || swapr_router == address(0) */\n    tag_435:\n      pop\n      sub(shl(0xa0, 0x01), 0x01)\n        /* \"contracts/FutarchyArbExecutorV5.sol\":5111:41903  contract FutarchyArbExecutorV5 {... */\n      dup11\n      and\n        /* \"contracts/FutarchyArbExecutorV5.sol\":21184:21210  swapr_router == address(0) */\n      iszero\n        /* \"contracts/FutarchyArbExecutorV5.sol\":21135:21210  yes_cur == address(0) || no_cur == address(0) || swapr_router == address(0) */\n      jump(tag_436)\n        /* \"contracts/FutarchyArbExecutorV5.sol\":21135:21180  yes_cur == address(0) || no_cur == address(0) */\n    tag_433:\n      pop\n      sub(shl(0xa0, 0x01), 0x01)\n        /* \"contracts/FutarchyArbExecutorV5.sol\":5111:41903  contract FutarchyArbExecutorV5 {... */\n      dup10\n      and\n        /* \"contracts/FutarchyArbExecutorV5.sol\":21160:21180  no_cur == address(0) */\n      iszero\n        /* \"contracts/FutarchyArbExecutorV5.sol\":21135:21180  yes_cur == address(0) || no_cur == address(0) */\n      jump(tag_434)\n        /* \"contracts/FutarchyArbExecutorV5.sol\":21031:21099  cur == address(0) || yes_comp == address(0) || no_comp == address(0) */\n    tag_429:\n      pop\n      sub(shl(0xa0, 0x01), 0x01)\n        /* \"contracts/FutarchyArbExecutorV5.sol\":5111:41903  contract FutarchyArbExecutorV5 {... */\n      dup5\n      and\n        /* \"contracts/FutarchyArbExecutorV5.sol\":21078:21099  no_comp == address(0) */\n      iszero\n        /* \"contracts/FutarchyArbExecutorV5.sol\":21031:21099  cur == address(0) || yes_comp == address(0) || no_comp == address(0) */\n      jump(tag_430)\n        /* \"contracts/FutarchyArbExecutorV5.sol\":21031:21074  cur == address(0) || yes_comp == address(0) */\n    tag_427:\n      pop\n      sub(shl(0xa0, 0x01), 0x01)\n        /* \"contracts/FutarchyArbExecutorV5.sol\":5111:41903  contract FutarchyArbExecutorV5 {... */\n      dup7\n      and\n        /* \"contracts/FutarchyArbExecutorV5.sol\":21052:21074  yes_comp == address(0) */\n      iszero\n        /* \"contracts/FutarchyArbExecutorV5.sol\":21031:21074  cur == address(0) || yes_comp == address(0) */\n      jump(tag_428)\n        /* \"contracts/FutarchyArbExecutorV5.sol\":20931:20986  futarchy_router == address(0) || proposal == address(0) */\n    tag_423:\n      pop\n      sub(shl(0xa0, 0x01), 0x01)\n        /* \"contracts/FutarchyArbExecutorV5.sol\":5111:41903  contract FutarchyArbExecutorV5 {... */\n      dup9\n      and\n        /* \"contracts/FutarchyArbExecutorV5.sol\":20964:20986  proposal == address(0) */\n      iszero\n        /* \"contracts/FutarchyArbExecutorV5.sol\":20931:20986  futarchy_router == address(0) || proposal == address(0) */\n      jump(tag_424)\n        /* \"contracts/FutarchyArbExecutorV5.sol\":20773:20809  IERC20(cur).balanceOf(address(this)) */\n    tag_417:\n      swap1\n      swap12\n      pop\n        /* \"contracts/FutarchyArbExecutorV5.sol\":5111:41903  contract FutarchyArbExecutorV5 {... */\n      0x20\n        /* \"contracts/FutarchyArbExecutorV5.sol\":20773:20809  IERC20(cur).balanceOf(address(this)) */\n      dup2\n      returndatasize\n        /* \"contracts/FutarchyArbExecutorV5.sol\":5111:41903  contract FutarchyArbExecutorV5 {... */\n      0x20\n        /* \"contracts/FutarchyArbExecutorV5.sol\":20773:20809  IERC20(cur).balanceOf(address(this)) */\n      gt\n      tag_574\n      jumpi\n    tag_575:\n      dup2\n      tag_576\n        /* \"contracts/FutarchyArbExecutorV5.sol\":5111:41903  contract FutarchyArbExecutorV5 {... */\n      0x20\n        /* \"contracts/FutarchyArbExecutorV5.sol\":20773:20809  IERC20(cur).balanceOf(address(this)) */\n      swap4\n      dup4\n      tag_18\n      jump\t// in\n    tag_576:\n      dup2\n      add\n        /* \"contracts/FutarchyArbExecutorV5.sol\":5111:41903  contract FutarchyArbExecutorV5 {... */\n      sub\n      slt\n      tag_166\n      jumpi\n      mload\n        /* \"contracts/FutarchyArbExecutorV5.sol\":20773:20809  IERC20(cur).balanceOf(address(this)) */\n      swap11\n      dup15\n      jump(tag_418)\n    tag_574:\n      returndatasize\n      swap2\n      pop\n      jump(tag_575)\n        /* \"contracts/FutarchyArbExecutorV5.sol\":5111:41903  contract FutarchyArbExecutorV5 {... */\n    tag_73:\n      jumpi(tag_85, callvalue)\n      jumpi(tag_85, slt(add(not(0x03), calldatasize), 0x0220))\n      calldataload(0x04)\n      sub(shl(0x40, 0x01), 0x01)\n      dup2\n      gt\n      tag_85\n      jumpi\n      tag_585\n      swap1\n      calldatasize\n      swap1\n      0x04\n      add\n      tag_13\n      jump\t// in\n    tag_585:\n      swap1\n      tag_586\n      tag_2\n      jump\t// in\n    tag_586:\n      calldataload(0x44)\n      swap3\n      swap1\n      swap2\n      swap1\n      sub(shl(0xa0, 0x01), 0x01)\n      dup5\n      and\n      dup5\n      sub\n      tag_85\n      jumpi\n      tag_589\n      tag_3\n      jump\t// in\n    tag_589:\n      swap1\n      tag_590\n      tag_4\n      jump\t// in\n    tag_590:\n      0xc0\n      mstore\n      calldataload(0xa4)\n      swap4\n      dup5\n      iszero\n      iszero\n      dup6\n      sub\n      tag_85\n      jumpi\n      tag_593\n      tag_5\n      jump\t// in\n    tag_593:\n      swap6\n      tag_594\n      tag_6\n      jump\t// in\n    tag_594:\n      swap1\n      tag_595\n      tag_7\n      jump\t// in\n    tag_595:\n      swap2\n      tag_596\n      tag_8\n      jump\t// in\n    tag_596:\n      swap9\n      tag_597\n      tag_9\n      jump\t// in\n    tag_597:\n      0x80\n      mstore\n      tag_598\n      tag_10\n      jump\t// in\n    tag_598:\n      calldataload(0x0184)\n      0x0120\n      dup2\n      swap1\n      mstore\n      swap1\n      swap11\n      swap1\n      sub(shl(0xa0, 0x01), 0x01)\n      dup2\n      and\n      swap1\n      sub\n      tag_85\n      jumpi\n      calldataload(0x01a4)\n      swap10\n      sub(shl(0xa0, 0x01), 0x01)\n      dup12\n      and\n      dup12\n      sub\n      tag_85\n      jumpi\n      calldataload(0x01c4)\n      swap11\n      sub(shl(0xa0, 0x01), 0x01)\n      dup13\n      and\n      dup13\n      sub\n      tag_85\n      jumpi\n      and(sub(shl(0xa0, 0x01), 0x01), sload(mload(0x0100)))\n        /* \"contracts/FutarchyArbExecutorV5.sol\":24554:24564  msg.sender */\n      caller\n        /* \"contracts/FutarchyArbExecutorV5.sol\":24554:24573  msg.sender != owner */\n      sub\n        /* \"contracts/FutarchyArbExecutorV5.sol\":24550:24592  if (msg.sender != owner) revert NotOwner() */\n      tag_88\n      jumpi\n        /* \"contracts/FutarchyArbExecutorV5.sol\":5111:41903  contract FutarchyArbExecutorV5 {... */\n      mload(0x40)\n      shl(0xe0, 0x70a08231)\n        /* \"contracts/FutarchyArbExecutorV5.sol\":31288:31324  IERC20(cur).balanceOf(address(this)) */\n      dup2\n      mstore\n        /* \"contracts/FutarchyArbExecutorV5.sol\":31318:31322  this */\n      address\n        /* \"contracts/FutarchyArbExecutorV5.sol\":5111:41903  contract FutarchyArbExecutorV5 {... */\n      0x04\n        /* \"contracts/FutarchyArbExecutorV5.sol\":31288:31324  IERC20(cur).balanceOf(address(this)) */\n      dup3\n      add\n        /* \"contracts/FutarchyArbExecutorV5.sol\":5111:41903  contract FutarchyArbExecutorV5 {... */\n      mstore\n        /* \"contracts/FutarchyArbExecutorV5.sol\":31288:31299  IERC20(cur) */\n      mload(0xc0)\n        /* \"contracts/FutarchyArbExecutorV5.sol\":5111:41903  contract FutarchyArbExecutorV5 {... */\n      0x20\n      swap1\n      dup3\n      swap1\n      0x24\n      swap1\n      dup3\n      swap1\n      sub(shl(0xa0, 0x01), 0x01)\n      and\n        /* \"contracts/FutarchyArbExecutorV5.sol\":31288:31324  IERC20(cur).balanceOf(address(this)) */\n      gas\n      staticcall\n      0xe0\n      mstore\n      jumpi(tag_153, iszero(mload(0xe0)))\n        /* \"contracts/FutarchyArbExecutorV5.sol\":5111:41903  contract FutarchyArbExecutorV5 {... */\n      mload(0x0100)\n        /* \"contracts/FutarchyArbExecutorV5.sol\":31288:31324  IERC20(cur).balanceOf(address(this)) */\n      0xa0\n      mstore\n      jumpi(tag_609, mload(0xe0))\n        /* \"contracts/FutarchyArbExecutorV5.sol\":5111:41903  contract FutarchyArbExecutorV5 {... */\n    tag_610:\n      pop\n      calldataload(0x01e4)\n        /* \"contracts/FutarchyArbExecutorV5.sol\":31339:31358  amount_sdai_in == 0 */\n      iszero\n        /* \"contracts/FutarchyArbExecutorV5.sol\":31335:31379  if (amount_sdai_in == 0) revert ZeroAmount() */\n      tag_97\n      jumpi\n      sub(shl(0xa0, 0x01), 0x01)\n        /* \"contracts/FutarchyArbExecutorV5.sol\":5111:41903  contract FutarchyArbExecutorV5 {... */\n      dup5\n      and\n        /* \"contracts/FutarchyArbExecutorV5.sol\":31393:31422  futarchy_router == address(0) */\n      iszero\n        /* \"contracts/FutarchyArbExecutorV5.sol\":31393:31448  futarchy_router == address(0) || proposal == address(0) */\n      dup1\n      iszero\n      tag_613\n      jumpi\n        /* \"contracts/FutarchyArbExecutorV5.sol\":5111:41903  contract FutarchyArbExecutorV5 {... */\n    tag_614:\n        /* \"contracts/FutarchyArbExecutorV5.sol\":31389:31479  if (futarchy_router == address(0) || proposal == address(0)) revert RouterOrProposalZero() */\n      tag_194\n      jumpi\n        /* \"contracts/FutarchyArbExecutorV5.sol\":31288:31299  IERC20(cur) */\n      mload(0xc0)\n      sub(shl(0xa0, 0x01), 0x01)\n        /* \"contracts/FutarchyArbExecutorV5.sol\":5111:41903  contract FutarchyArbExecutorV5 {... */\n      and\n        /* \"contracts/FutarchyArbExecutorV5.sol\":31493:31510  cur == address(0) */\n      iszero\n        /* \"contracts/FutarchyArbExecutorV5.sol\":31493:31536  cur == address(0) || yes_comp == address(0) */\n      dup1\n      iszero\n      tag_617\n      jumpi\n        /* \"contracts/FutarchyArbExecutorV5.sol\":5111:41903  contract FutarchyArbExecutorV5 {... */\n    tag_618:\n        /* \"contracts/FutarchyArbExecutorV5.sol\":31493:31561  cur == address(0) || yes_comp == address(0) || no_comp == address(0) */\n      dup1\n      iszero\n      tag_619\n      jumpi\n        /* \"contracts/FutarchyArbExecutorV5.sol\":5111:41903  contract FutarchyArbExecutorV5 {... */\n    tag_620:\n        /* \"contracts/FutarchyArbExecutorV5.sol\":31489:31583  if (cur == address(0) || yes_comp == address(0) || no_comp == address(0)) revert ZeroAddress() */\n      tag_90\n      jumpi\n        /* \"contracts/FutarchyArbExecutorV5.sol\":31597:31618  yes_cur == address(0) */\n      mload(0x80)\n      sub(shl(0xa0, 0x01), 0x01)\n        /* \"contracts/FutarchyArbExecutorV5.sol\":5111:41903  contract FutarchyArbExecutorV5 {... */\n      and\n        /* \"contracts/FutarchyArbExecutorV5.sol\":31597:31618  yes_cur == address(0) */\n      iszero\n        /* \"contracts/FutarchyArbExecutorV5.sol\":31597:31642  yes_cur == address(0) || no_cur == address(0) */\n      dup1\n      iszero\n      tag_623\n      jumpi\n        /* \"contracts/FutarchyArbExecutorV5.sol\":5111:41903  contract FutarchyArbExecutorV5 {... */\n    tag_624:\n        /* \"contracts/FutarchyArbExecutorV5.sol\":31597:31672  yes_cur == address(0) || no_cur == address(0) || swapr_router == address(0) */\n      dup1\n      iszero\n      tag_625\n      jumpi\n        /* \"contracts/FutarchyArbExecutorV5.sol\":5111:41903  contract FutarchyArbExecutorV5 {... */\n    tag_626:\n        /* \"contracts/FutarchyArbExecutorV5.sol\":31593:31699  if (yes_cur == address(0) || no_cur == address(0) || swapr_router == address(0)) revert TokenAddressZero() */\n      tag_206\n      jumpi\n        /* \"contracts/FutarchyArbExecutorV5.sol\":31288:31299  IERC20(cur) */\n      mload(0xc0)\n        /* \"contracts/FutarchyArbExecutorV5.sol\":31810:31825  futarchy_router */\n      tag_629\n      swap1\n        /* \"contracts/FutarchyArbExecutorV5.sol\":5111:41903  contract FutarchyArbExecutorV5 {... */\n      dup6\n      swap1\n      sub(shl(0xa0, 0x01), 0x01)\n      and\n        /* \"contracts/FutarchyArbExecutorV5.sol\":31810:31825  futarchy_router */\n      tag_51\n      jump\t// in\n    tag_629:\n      sub(shl(0xa0, 0x01), 0x01)\n        /* \"contracts/FutarchyArbExecutorV5.sol\":5111:41903  contract FutarchyArbExecutorV5 {... */\n      dup5\n      and\n        /* \"contracts/FutarchyArbExecutorV5.sol\":31836:31913  IFutarchyRouter(futarchy_router).splitPosition(proposal, cur, amount_sdai_in) */\n      extcodesize\n      iszero\n      tag_85\n      jumpi\n        /* \"contracts/FutarchyArbExecutorV5.sol\":5111:41903  contract FutarchyArbExecutorV5 {... */\n      mload(0x40)\n      shl(0xe7, 0x01abf045)\n        /* \"contracts/FutarchyArbExecutorV5.sol\":31836:31913  IFutarchyRouter(futarchy_router).splitPosition(proposal, cur, amount_sdai_in) */\n      dup2\n      mstore\n        /* \"contracts/FutarchyArbExecutorV5.sol\":5111:41903  contract FutarchyArbExecutorV5 {... */\n      mload(0x0100)\n      dup2\n      dup1\n        /* \"contracts/FutarchyArbExecutorV5.sol\":31836:31913  IFutarchyRouter(futarchy_router).splitPosition(proposal, cur, amount_sdai_in) */\n      tag_632\n        /* \"contracts/FutarchyArbExecutorV5.sol\":5111:41903  contract FutarchyArbExecutorV5 {... */\n      calldataload(0x01e4)\n        /* \"contracts/FutarchyArbExecutorV5.sol\":31836:31913  IFutarchyRouter(futarchy_router).splitPosition(proposal, cur, amount_sdai_in) */\n      mload(0xc0)\n      dup12\n        /* \"contracts/FutarchyArbExecutorV5.sol\":5111:41903  contract FutarchyArbExecutorV5 {... */\n      0x04\n        /* \"contracts/FutarchyArbExecutorV5.sol\":31836:31913  IFutarchyRouter(futarchy_router).splitPosition(proposal, cur, amount_sdai_in) */\n      dup6\n      add\n      tag_25\n      jump\t// in\n    tag_632:\n      sub\n        /* \"contracts/FutarchyArbExecutorV5.sol\":5111:41903  contract FutarchyArbExecutorV5 {... */\n      dup2\n      mload(0x0100)\n      0x01\n      dup1\n      0xa0\n      shl\n      sub\n      dup11\n      and\n        /* \"contracts/FutarchyArbExecutorV5.sol\":31836:31913  IFutarchyRouter(futarchy_router).splitPosition(proposal, cur, amount_sdai_in) */\n      gas\n      call\n      dup1\n      iszero\n      tag_153\n      jumpi\n      tag_635\n      jumpi\n        /* \"contracts/FutarchyArbExecutorV5.sol\":5111:41903  contract FutarchyArbExecutorV5 {... */\n    tag_636:\n      pop\n      mload(0x40)\n      calldataload(0x01e4)\n      dup2\n      mstore\n        /* \"contracts/FutarchyArbExecutorV5.sol\":31288:31299  IERC20(cur) */\n      mload(0xc0)\n      sub(shl(0xa0, 0x01), 0x01)\n        /* \"contracts/FutarchyArbExecutorV5.sol\":5111:41903  contract FutarchyArbExecutorV5 {... */\n      swap1\n      dup2\n      and\n      swap2\n      dup8\n      dup3\n      and\n      swap2\n      dup8\n      and\n      swap1\n        /* \"contracts/FutarchyArbExecutorV5.sol\":31928:32002  ConditionalCollateralSplit(futarchy_router, proposal, cur, amount_sdai_in) */\n      0x96b6cd56b43ef9bd81ea4da2f5715eb8e6d0da9999e7cf964ae2932a20e0f0fd\n      swap1\n        /* \"contracts/FutarchyArbExecutorV5.sol\":5111:41903  contract FutarchyArbExecutorV5 {... */\n      0x20\n      swap1\n        /* \"contracts/FutarchyArbExecutorV5.sol\":31928:32002  ConditionalCollateralSplit(futarchy_router, proposal, cur, amount_sdai_in) */\n      log4\n        /* \"contracts/FutarchyArbExecutorV5.sol\":5111:41903  contract FutarchyArbExecutorV5 {... */\n      mload(0x40)\n      shl(0xe0, 0x70a08231)\n        /* \"contracts/FutarchyArbExecutorV5.sol\":32096:32136  IERC20(yes_cur).balanceOf(address(this)) */\n      dup2\n      mstore\n        /* \"contracts/FutarchyArbExecutorV5.sol\":31318:31322  this */\n      address\n        /* \"contracts/FutarchyArbExecutorV5.sol\":5111:41903  contract FutarchyArbExecutorV5 {... */\n      0x04\n        /* \"contracts/FutarchyArbExecutorV5.sol\":32096:32136  IERC20(yes_cur).balanceOf(address(this)) */\n      dup3\n      add\n        /* \"contracts/FutarchyArbExecutorV5.sol\":5111:41903  contract FutarchyArbExecutorV5 {... */\n      mstore\n        /* \"contracts/FutarchyArbExecutorV5.sol\":31597:31618  yes_cur == address(0) */\n      mload(0x80)\n        /* \"contracts/FutarchyArbExecutorV5.sol\":5111:41903  contract FutarchyArbExecutorV5 {... */\n      0x20\n      swap1\n      dup3\n      swap1\n      0x24\n      swap1\n      dup3\n      swap1\n      sub(shl(0xa0, 0x01), 0x01)\n      and\n        /* \"contracts/FutarchyArbExecutorV5.sol\":32096:32136  IERC20(yes_cur).balanceOf(address(this)) */\n      gas\n      staticcall\n      swap1\n      dup2\n      iszero\n      tag_153\n      jumpi\n        /* \"contracts/FutarchyArbExecutorV5.sol\":5111:41903  contract FutarchyArbExecutorV5 {... */\n      mload(0x0100)\n        /* \"contracts/FutarchyArbExecutorV5.sol\":32096:32136  IERC20(yes_cur).balanceOf(address(this)) */\n      swap2\n      tag_639\n      jumpi\n        /* \"contracts/FutarchyArbExecutorV5.sol\":5111:41903  contract FutarchyArbExecutorV5 {... */\n    tag_640:\n      pop\n      calldataload(0x01e4)\n      gt\n        /* \"contracts/FutarchyArbExecutorV5.sol\":32092:32183  if (IERC20(yes_cur).balanceOf(address(this)) < amount_sdai_in) revert InsufficientBalance() */\n      tag_457\n      jumpi\n        /* \"contracts/FutarchyArbExecutorV5.sol\":5111:41903  contract FutarchyArbExecutorV5 {... */\n      0x24\n      0x20\n      dup15\n      mload(0x40)\n      swap3\n      dup4\n      dup1\n      swap3\n      shl(0xe0, 0x70a08231)\n        /* \"contracts/FutarchyArbExecutorV5.sol\":32197:32236  IERC20(no_cur).balanceOf(address(this)) */\n      dup3\n      mstore\n        /* \"contracts/FutarchyArbExecutorV5.sol\":31318:31322  this */\n      address\n        /* \"contracts/FutarchyArbExecutorV5.sol\":5111:41903  contract FutarchyArbExecutorV5 {... */\n      0x04\n        /* \"contracts/FutarchyArbExecutorV5.sol\":32197:32236  IERC20(no_cur).balanceOf(address(this)) */\n      dup4\n      add\n        /* \"contracts/FutarchyArbExecutorV5.sol\":5111:41903  contract FutarchyArbExecutorV5 {... */\n      mstore\n      0x01\n      dup1\n      0xa0\n      shl\n      sub\n      and\n        /* \"contracts/FutarchyArbExecutorV5.sol\":32197:32236  IERC20(no_cur).balanceOf(address(this)) */\n      gas\n      staticcall\n      swap1\n      dup2\n      iszero\n      tag_153\n      jumpi\n        /* \"contracts/FutarchyArbExecutorV5.sol\":5111:41903  contract FutarchyArbExecutorV5 {... */\n      mload(0x0100)\n        /* \"contracts/FutarchyArbExecutorV5.sol\":32197:32236  IERC20(no_cur).balanceOf(address(this)) */\n      swap2\n      tag_645\n      jumpi\n        /* \"contracts/FutarchyArbExecutorV5.sol\":5111:41903  contract FutarchyArbExecutorV5 {... */\n    tag_646:\n      pop\n      calldataload(0x01e4)\n      gt\n        /* \"contracts/FutarchyArbExecutorV5.sol\":32193:32283  if (IERC20(no_cur).balanceOf(address(this)) < amount_sdai_in) revert InsufficientBalance() */\n      tag_457\n      jumpi\n        /* \"contracts/FutarchyArbExecutorV5.sol\":32357:32384  _poolFeeOrDefault(yes_pool) */\n      dup12\n      dup4\n      dup15\n        /* \"contracts/FutarchyArbExecutorV5.sol\":32409:32435  _poolFeeOrDefault(no_pool) */\n      tag_649\n        /* \"contracts/FutarchyArbExecutorV5.sol\":32357:32384  _poolFeeOrDefault(yes_pool) */\n      tag_650\n      mload(0x0120)\n      tag_53\n      jump\t// in\n    tag_650:\n        /* \"contracts/FutarchyArbExecutorV5.sol\":32409:32435  _poolFeeOrDefault(no_pool) */\n      swap5\n      tag_53\n      jump\t// in\n    tag_649:\n        /* \"contracts/FutarchyArbExecutorV5.sol\":32445:33005  if (yes_has_higher_price) {... */\n      swap5\n      iszero\n      tag_651\n      jumpi\n        /* \"contracts/FutarchyArbExecutorV5.sol\":5111:41903  contract FutarchyArbExecutorV5 {... */\n      pop\n      pop\n      pop\n      pop\n        /* \"contracts/FutarchyArbExecutorV5.sol\":32506:32571  _swaprExactIn(swapr_router, yes_cur, yes_comp, amount_sdai_in, 0) */\n      tag_653\n        /* \"contracts/FutarchyArbExecutorV5.sol\":5111:41903  contract FutarchyArbExecutorV5 {... */\n      calldataload(0x01e4)\n        /* \"contracts/FutarchyArbExecutorV5.sol\":32506:32571  _swaprExactIn(swapr_router, yes_cur, yes_comp, amount_sdai_in, 0) */\n      dup8\n      dup14\n      mload(0x80)\n      swap1\n      tag_52\n      jump\t// in\n    tag_653:\n        /* \"contracts/FutarchyArbExecutorV5.sol\":32589:32604  yesCompOut == 0 */\n      swap1\n      dup2\n      iszero\n        /* \"contracts/FutarchyArbExecutorV5.sol\":32585:32631  if (yesCompOut == 0) revert SwapReturnedZero() */\n      tag_464\n      jumpi\n        /* \"contracts/FutarchyArbExecutorV5.sol\":32645:32725  _swaprExactOut(swapr_router, no_cur, no_comp, noFee, yesCompOut, amount_sdai_in) */\n      tag_656\n      swap2\n        /* \"contracts/FutarchyArbExecutorV5.sol\":5111:41903  contract FutarchyArbExecutorV5 {... */\n      calldataload(0x01e4)\n      swap2\n      dup5\n      dup16\n      dup16\n        /* \"contracts/FutarchyArbExecutorV5.sol\":32645:32725  _swaprExactOut(swapr_router, no_cur, no_comp, noFee, yesCompOut, amount_sdai_in) */\n      tag_54\n      jump\t// in\n    tag_656:\n      pop\n        /* \"contracts/FutarchyArbExecutorV5.sol\":32445:33005  if (yes_has_higher_price) {... */\n    tag_657:\n        /* \"contracts/FutarchyArbExecutorV5.sol\":5111:41903  contract FutarchyArbExecutorV5 {... */\n      mload(0x40)\n      shl(0xe0, 0x70a08231)\n        /* \"contracts/FutarchyArbExecutorV5.sol\":33279:33320  IERC20(yes_comp).balanceOf(address(this)) */\n      dup2\n      mstore\n        /* \"contracts/FutarchyArbExecutorV5.sol\":31318:31322  this */\n      address\n        /* \"contracts/FutarchyArbExecutorV5.sol\":5111:41903  contract FutarchyArbExecutorV5 {... */\n      0x04\n        /* \"contracts/FutarchyArbExecutorV5.sol\":33279:33320  IERC20(yes_comp).balanceOf(address(this)) */\n      dup3\n      add\n        /* \"contracts/FutarchyArbExecutorV5.sol\":5111:41903  contract FutarchyArbExecutorV5 {... */\n      mstore\n      0x20\n      dup2\n      0x24\n      dup2\n      sub(shl(0xa0, 0x01), 0x01)\n      dup11\n      and\n        /* \"contracts/FutarchyArbExecutorV5.sol\":33279:33320  IERC20(yes_comp).balanceOf(address(this)) */\n      gas\n      staticcall\n      swap1\n      dup2\n      iszero\n      tag_153\n      jumpi\n        /* \"contracts/FutarchyArbExecutorV5.sol\":5111:41903  contract FutarchyArbExecutorV5 {... */\n      mload(0x0100)\n        /* \"contracts/FutarchyArbExecutorV5.sol\":33279:33320  IERC20(yes_comp).balanceOf(address(this)) */\n      swap2\n      tag_660\n      jumpi\n        /* \"contracts/FutarchyArbExecutorV5.sol\":32445:33005  if (yes_has_higher_price) {... */\n    tag_661:\n      pop\n        /* \"contracts/FutarchyArbExecutorV5.sol\":5111:41903  contract FutarchyArbExecutorV5 {... */\n      mload(0x40)\n      shl(0xe0, 0x70a08231)\n        /* \"contracts/FutarchyArbExecutorV5.sol\":33350:33390  IERC20(no_comp).balanceOf(address(this)) */\n      dup2\n      mstore\n        /* \"contracts/FutarchyArbExecutorV5.sol\":31318:31322  this */\n      address\n        /* \"contracts/FutarchyArbExecutorV5.sol\":5111:41903  contract FutarchyArbExecutorV5 {... */\n      0x04\n        /* \"contracts/FutarchyArbExecutorV5.sol\":33350:33390  IERC20(no_comp).balanceOf(address(this)) */\n      dup3\n      add\n        /* \"contracts/FutarchyArbExecutorV5.sol\":5111:41903  contract FutarchyArbExecutorV5 {... */\n      mstore\n      0x20\n      dup2\n      0x24\n      dup2\n      sub(shl(0xa0, 0x01), 0x01)\n      dup8\n      and\n        /* \"contracts/FutarchyArbExecutorV5.sol\":33350:33390  IERC20(no_comp).balanceOf(address(this)) */\n      gas\n      staticcall\n      swap1\n      dup2\n      iszero\n      tag_153\n      jumpi\n        /* \"contracts/FutarchyArbExecutorV5.sol\":5111:41903  contract FutarchyArbExecutorV5 {... */\n      mload(0x0100)\n        /* \"contracts/FutarchyArbExecutorV5.sol\":33350:33390  IERC20(no_comp).balanceOf(address(this)) */\n      swap2\n      tag_664\n      jumpi\n        /* \"contracts/FutarchyArbExecutorV5.sol\":32445:33005  if (yes_has_higher_price) {... */\n    tag_665:\n      pop\n        /* \"contracts/FutarchyArbExecutorV5.sol\":33419:33441  yesCompBal < noCompBal */\n      dup1\n      dup3\n      lt\n      iszero\n      tag_666\n      jumpi\n        /* \"contracts/FutarchyArbExecutorV5.sol\":33419:33466  yesCompBal < noCompBal ? yesCompBal : noCompBal */\n      pop\n      swap5\n    tag_668:\n        /* \"contracts/FutarchyArbExecutorV5.sol\":33480:33492  mergeAmt > 0 */\n      dup6\n        /* \"contracts/FutarchyArbExecutorV5.sol\":33476:33969  if (mergeAmt > 0) {... */\n      tag_669\n      jumpi\n        /* \"contracts/FutarchyArbExecutorV5.sol\":33419:33466  yesCompBal < noCompBal ? yesCompBal : noCompBal */\n    tag_670:\n        /* \"contracts/FutarchyArbExecutorV5.sol\":33480:33492  mergeAmt > 0 */\n      pop\n      pop\n      pop\n      pop\n      dup2\n        /* \"contracts/FutarchyArbExecutorV5.sol\":34356:35684  if (mergeAmt > 0) {... */\n      tag_671\n      jumpi\n        /* \"contracts/FutarchyArbExecutorV5.sol\":33419:33466  yesCompBal < noCompBal ? yesCompBal : noCompBal */\n    tag_672:\n        /* \"contracts/FutarchyArbExecutorV5.sol\":5111:41903  contract FutarchyArbExecutorV5 {... */\n      pop\n      pop\n      pop\n      pop\n      pop\n      pop\n      mload(0x40)\n      swap1\n      shl(0xe0, 0x70a08231)\n        /* \"contracts/FutarchyArbExecutorV5.sol\":35825:35865  IERC20(yes_cur).balanceOf(address(this)) */\n      dup3\n      mstore\n        /* \"contracts/FutarchyArbExecutorV5.sol\":31318:31322  this */\n      address\n        /* \"contracts/FutarchyArbExecutorV5.sol\":5111:41903  contract FutarchyArbExecutorV5 {... */\n      0x04\n        /* \"contracts/FutarchyArbExecutorV5.sol\":35825:35865  IERC20(yes_cur).balanceOf(address(this)) */\n      dup4\n      add\n        /* \"contracts/FutarchyArbExecutorV5.sol\":5111:41903  contract FutarchyArbExecutorV5 {... */\n      mstore\n      0x20\n      dup3\n      0x24\n      dup2\n      0x01\n      dup1\n      0xa0\n      shl\n      sub\n        /* \"contracts/FutarchyArbExecutorV5.sol\":31597:31618  yes_cur == address(0) */\n      mload(0x80)\n        /* \"contracts/FutarchyArbExecutorV5.sol\":5111:41903  contract FutarchyArbExecutorV5 {... */\n      and\n        /* \"contracts/FutarchyArbExecutorV5.sol\":35825:35865  IERC20(yes_cur).balanceOf(address(this)) */\n      gas\n      staticcall\n      swap2\n      dup3\n      iszero\n      tag_153\n      jumpi\n        /* \"contracts/FutarchyArbExecutorV5.sol\":5111:41903  contract FutarchyArbExecutorV5 {... */\n      mload(0x0100)\n        /* \"contracts/FutarchyArbExecutorV5.sol\":35825:35865  IERC20(yes_cur).balanceOf(address(this)) */\n      swap3\n      tag_675\n      jumpi\n        /* \"contracts/FutarchyArbExecutorV5.sol\":33419:33466  yesCompBal < noCompBal ? yesCompBal : noCompBal */\n    tag_676:\n      pop\n        /* \"contracts/FutarchyArbExecutorV5.sol\":5111:41903  contract FutarchyArbExecutorV5 {... */\n      mload(0x40)\n      shl(0xe0, 0x70a08231)\n        /* \"contracts/FutarchyArbExecutorV5.sol\":35895:35934  IERC20(no_cur).balanceOf(address(this)) */\n      dup2\n      mstore\n        /* \"contracts/FutarchyArbExecutorV5.sol\":31318:31322  this */\n      address\n        /* \"contracts/FutarchyArbExecutorV5.sol\":5111:41903  contract FutarchyArbExecutorV5 {... */\n      0x04\n        /* \"contracts/FutarchyArbExecutorV5.sol\":35895:35934  IERC20(no_cur).balanceOf(address(this)) */\n      dup3\n      add\n        /* \"contracts/FutarchyArbExecutorV5.sol\":5111:41903  contract FutarchyArbExecutorV5 {... */\n      mstore\n      0x20\n      dup2\n      0x24\n      dup2\n      sub(shl(0xa0, 0x01), 0x01)\n      dup9\n      and\n        /* \"contracts/FutarchyArbExecutorV5.sol\":35895:35934  IERC20(no_cur).balanceOf(address(this)) */\n      gas\n      staticcall\n      swap1\n      dup2\n      iszero\n      tag_153\n      jumpi\n        /* \"contracts/FutarchyArbExecutorV5.sol\":5111:41903  contract FutarchyArbExecutorV5 {... */\n      mload(0x0100)\n        /* \"contracts/FutarchyArbExecutorV5.sol\":35895:35934  IERC20(no_cur).balanceOf(address(this)) */\n      swap2\n      tag_679\n      jumpi\n        /* \"contracts/FutarchyArbExecutorV5.sol\":33419:33466  yesCompBal < noCompBal ? yesCompBal : noCompBal */\n    tag_680:\n      pop\n        /* \"contracts/FutarchyArbExecutorV5.sol\":35948:35962  yesCurLeft > 0 */\n      dup3\n      iszero\n      tag_681\n      jumpi\n        /* \"contracts/FutarchyArbExecutorV5.sol\":35964:36020  _swaprExactIn(swapr_router, yes_cur, cur, yesCurLeft, 0) */\n      pop\n      tag_683\n      swap3\n      pop\n      mload(0xc0)\n      swap1\n      mload(0x80)\n      swap1\n      tag_52\n      jump\t// in\n    tag_683:\n      pop\n        /* \"contracts/FutarchyArbExecutorV5.sol\":35944:36108  if (yesCurLeft > 0) _swaprExactIn(swapr_router, yes_cur, cur, yesCurLeft, 0);... */\n    tag_684:\n        /* \"contracts/FutarchyArbExecutorV5.sol\":5111:41903  contract FutarchyArbExecutorV5 {... */\n      mload(0x40)\n      shl(0xe0, 0x70a08231)\n        /* \"contracts/FutarchyArbExecutorV5.sol\":36230:36266  IERC20(cur).balanceOf(address(this)) */\n      dup2\n      mstore\n        /* \"contracts/FutarchyArbExecutorV5.sol\":31318:31322  this */\n      address\n        /* \"contracts/FutarchyArbExecutorV5.sol\":5111:41903  contract FutarchyArbExecutorV5 {... */\n      0x04\n        /* \"contracts/FutarchyArbExecutorV5.sol\":36230:36266  IERC20(cur).balanceOf(address(this)) */\n      dup3\n      add\n        /* \"contracts/FutarchyArbExecutorV5.sol\":5111:41903  contract FutarchyArbExecutorV5 {... */\n      mstore\n        /* \"contracts/FutarchyArbExecutorV5.sol\":31288:31299  IERC20(cur) */\n      mload(0xc0)\n        /* \"contracts/FutarchyArbExecutorV5.sol\":5111:41903  contract FutarchyArbExecutorV5 {... */\n      0x20\n      swap1\n      dup3\n      swap1\n      0x24\n      swap1\n      dup3\n      swap1\n      sub(shl(0xa0, 0x01), 0x01)\n      and\n        /* \"contracts/FutarchyArbExecutorV5.sol\":36230:36266  IERC20(cur).balanceOf(address(this)) */\n      gas\n      staticcall\n      swap1\n      dup2\n      iszero\n      tag_153\n      jumpi\n        /* \"contracts/FutarchyArbExecutorV5.sol\":5111:41903  contract FutarchyArbExecutorV5 {... */\n      mload(0x0100)\n        /* \"contracts/FutarchyArbExecutorV5.sol\":36230:36266  IERC20(cur).balanceOf(address(this)) */\n      swap2\n      tag_687\n      jumpi\n        /* \"contracts/FutarchyArbExecutorV5.sol\":35944:36108  if (yesCurLeft > 0) _swaprExactIn(swapr_router, yes_cur, cur, yesCurLeft, 0);... */\n    tag_688:\n      pop\n      sub(shl(0xff, 0x01), 0x01)\n        /* \"contracts/FutarchyArbExecutorV5.sol\":36280:36325  final_cur_balance > uint256(type(int256).max) */\n      dup2\n      gt\n        /* \"contracts/FutarchyArbExecutorV5.sol\":36280:36376  final_cur_balance > uint256(type(int256).max) || initial_cur_balance > uint256(type(int256).max) */\n      dup1\n      iszero\n      tag_689\n      jumpi\n        /* \"contracts/FutarchyArbExecutorV5.sol\":35944:36108  if (yesCurLeft > 0) _swaprExactIn(swapr_router, yes_cur, cur, yesCurLeft, 0);... */\n    tag_690:\n        /* \"contracts/FutarchyArbExecutorV5.sol\":36276:36427  if (final_cur_balance > uint256(type(int256).max) || initial_cur_balance > uint256(type(int256).max)) {... */\n      tag_301\n      jumpi\n        /* \"contracts/FutarchyArbExecutorV5.sol\":5111:41903  contract FutarchyArbExecutorV5 {... */\n      calldataload(0x0204)\n        /* \"contracts/FutarchyArbExecutorV5.sol\":36516:36571  int256(final_cur_balance) - int256(initial_cur_balance) */\n      tag_693\n        /* \"contracts/FutarchyArbExecutorV5.sol\":36544:36571  int256(initial_cur_balance) */\n      mload(0xa0)\n        /* \"contracts/FutarchyArbExecutorV5.sol\":36516:36571  int256(final_cur_balance) - int256(initial_cur_balance) */\n      dup4\n      tag_26\n      jump\t// in\n    tag_693:\n        /* \"contracts/FutarchyArbExecutorV5.sol\":36585:36613  signedProfit < min_out_final */\n      slt\n        /* \"contracts/FutarchyArbExecutorV5.sol\":36581:36639  if (signedProfit < min_out_final) revert MinProfitNotMet() */\n      tag_304\n      jumpi\n        /* \"contracts/FutarchyArbExecutorV5.sol\":5111:41903  contract FutarchyArbExecutorV5 {... */\n      0x40\n      dup1\n      mload\n        /* \"contracts/FutarchyArbExecutorV5.sol\":36654:36723  ProfitVerified(initial_cur_balance, final_cur_balance, min_out_final) */\n      mload(0xa0)\n        /* \"contracts/FutarchyArbExecutorV5.sol\":5111:41903  contract FutarchyArbExecutorV5 {... */\n      dup2\n      mstore\n      0x20\n      dup2\n      add\n      swap3\n      swap1\n      swap3\n      mstore\n      calldataload(0x0204)\n      swap1\n      dup3\n      add\n      mstore\n        /* \"contracts/FutarchyArbExecutorV5.sol\":36654:36723  ProfitVerified(initial_cur_balance, final_cur_balance, min_out_final) */\n      0x318296ace369901373a62c2153c5e87356175630ec782af9e8b7c9385f3d1e80\n      swap1\n        /* \"contracts/FutarchyArbExecutorV5.sol\":5111:41903  contract FutarchyArbExecutorV5 {... */\n      dup1\n      0x60\n      dup2\n      add\n        /* \"contracts/FutarchyArbExecutorV5.sol\":36654:36723  ProfitVerified(initial_cur_balance, final_cur_balance, min_out_final) */\n      tag_306\n        /* \"contracts/FutarchyArbExecutorV5.sol\":5111:41903  contract FutarchyArbExecutorV5 {... */\n      jump\n        /* \"contracts/FutarchyArbExecutorV5.sol\":36280:36376  final_cur_balance > uint256(type(int256).max) || initial_cur_balance > uint256(type(int256).max) */\n    tag_689:\n      pop\n        /* \"contracts/FutarchyArbExecutorV5.sol\":36329:36376  initial_cur_balance > uint256(type(int256).max) */\n      lt(sub(shl(0xff, 0x01), 0x01), mload(0xa0))\n        /* \"contracts/FutarchyArbExecutorV5.sol\":36280:36376  final_cur_balance > uint256(type(int256).max) || initial_cur_balance > uint256(type(int256).max) */\n      jump(tag_690)\n        /* \"contracts/FutarchyArbExecutorV5.sol\":36230:36266  IERC20(cur).balanceOf(address(this)) */\n    tag_687:\n      swap1\n      pop\n        /* \"contracts/FutarchyArbExecutorV5.sol\":5111:41903  contract FutarchyArbExecutorV5 {... */\n      0x20\n        /* \"contracts/FutarchyArbExecutorV5.sol\":36230:36266  IERC20(cur).balanceOf(address(this)) */\n      dup2\n      returndatasize\n        /* \"contracts/FutarchyArbExecutorV5.sol\":5111:41903  contract FutarchyArbExecutorV5 {... */\n      0x20\n        /* \"contracts/FutarchyArbExecutorV5.sol\":36230:36266  IERC20(cur).balanceOf(address(this)) */\n      gt\n      tag_697\n      jumpi\n    tag_698:\n      dup2\n      tag_699\n        /* \"contracts/FutarchyArbExecutorV5.sol\":5111:41903  contract FutarchyArbExecutorV5 {... */\n      0x20\n        /* \"contracts/FutarchyArbExecutorV5.sol\":36230:36266  IERC20(cur).balanceOf(address(this)) */\n      swap4\n      dup4\n      tag_18\n      jump\t// in\n    tag_699:\n      dup2\n      add\n        /* \"contracts/FutarchyArbExecutorV5.sol\":5111:41903  contract FutarchyArbExecutorV5 {... */\n      sub\n      slt\n      tag_166\n      jumpi\n      mload\n        /* \"contracts/FutarchyArbExecutorV5.sol\":36230:36266  IERC20(cur).balanceOf(address(this)) */\n      dup2\n      jump(tag_688)\n    tag_697:\n      returndatasize\n      swap2\n      pop\n      jump(tag_698)\n        /* \"contracts/FutarchyArbExecutorV5.sol\":35944:36108  if (yesCurLeft > 0) _swaprExactIn(swapr_router, yes_cur, cur, yesCurLeft, 0);... */\n    tag_681:\n        /* \"contracts/FutarchyArbExecutorV5.sol\":36039:36052  noCurLeft > 0 */\n      dup1\n      swap3\n      pop\n        /* \"contracts/FutarchyArbExecutorV5.sol\":36035:36108  if (noCurLeft > 0) _swaprExactIn(swapr_router, no_cur, cur, noCurLeft, 0) */\n      tag_702\n      jumpi\n        /* \"contracts/FutarchyArbExecutorV5.sol\":35944:36108  if (yesCurLeft > 0) _swaprExactIn(swapr_router, yes_cur, cur, yesCurLeft, 0);... */\n    tag_703:\n      pop\n      pop\n      pop\n      jump(tag_684)\n        /* \"contracts/FutarchyArbExecutorV5.sol\":36035:36108  if (noCurLeft > 0) _swaprExactIn(swapr_router, no_cur, cur, noCurLeft, 0) */\n    tag_702:\n        /* \"contracts/FutarchyArbExecutorV5.sol\":36054:36108  _swaprExactIn(swapr_router, no_cur, cur, noCurLeft, 0) */\n      tag_704\n      swap3\n      mload(0xc0)\n      swap2\n      tag_52\n      jump\t// in\n    tag_704:\n      pop\n        /* \"contracts/FutarchyArbExecutorV5.sol\":36035:36108  if (noCurLeft > 0) _swaprExactIn(swapr_router, no_cur, cur, noCurLeft, 0) */\n      dup1\n      dup1\n      dup1\n      jump(tag_703)\n        /* \"contracts/FutarchyArbExecutorV5.sol\":35895:35934  IERC20(no_cur).balanceOf(address(this)) */\n    tag_679:\n      swap1\n      pop\n        /* \"contracts/FutarchyArbExecutorV5.sol\":5111:41903  contract FutarchyArbExecutorV5 {... */\n      0x20\n        /* \"contracts/FutarchyArbExecutorV5.sol\":35895:35934  IERC20(no_cur).balanceOf(address(this)) */\n      dup2\n      returndatasize\n        /* \"contracts/FutarchyArbExecutorV5.sol\":5111:41903  contract FutarchyArbExecutorV5 {... */\n      0x20\n        /* \"contracts/FutarchyArbExecutorV5.sol\":35895:35934  IERC20(no_cur).balanceOf(address(this)) */\n      gt\n      tag_705\n      jumpi\n    tag_706:\n      dup2\n      tag_707\n        /* \"contracts/FutarchyArbExecutorV5.sol\":5111:41903  contract FutarchyArbExecutorV5 {... */\n      0x20\n        /* \"contracts/FutarchyArbExecutorV5.sol\":35895:35934  IERC20(no_cur).balanceOf(address(this)) */\n      swap4\n      dup4\n      tag_18\n      jump\t// in\n    tag_707:\n      dup2\n      add\n        /* \"contracts/FutarchyArbExecutorV5.sol\":5111:41903  contract FutarchyArbExecutorV5 {... */\n      sub\n      slt\n      tag_166\n      jumpi\n      mload\n        /* \"contracts/FutarchyArbExecutorV5.sol\":35895:35934  IERC20(no_cur).balanceOf(address(this)) */\n      dup5\n      jump(tag_680)\n    tag_705:\n      returndatasize\n      swap2\n      pop\n      jump(tag_706)\n        /* \"contracts/FutarchyArbExecutorV5.sol\":35825:35865  IERC20(yes_cur).balanceOf(address(this)) */\n    tag_675:\n      swap1\n      swap2\n      pop\n        /* \"contracts/FutarchyArbExecutorV5.sol\":5111:41903  contract FutarchyArbExecutorV5 {... */\n      0x20\n        /* \"contracts/FutarchyArbExecutorV5.sol\":35825:35865  IERC20(yes_cur).balanceOf(address(this)) */\n      dup2\n      returndatasize\n        /* \"contracts/FutarchyArbExecutorV5.sol\":5111:41903  contract FutarchyArbExecutorV5 {... */\n      0x20\n        /* \"contracts/FutarchyArbExecutorV5.sol\":35825:35865  IERC20(yes_cur).balanceOf(address(this)) */\n      gt\n      tag_710\n      jumpi\n    tag_711:\n      dup2\n      tag_712\n        /* \"contracts/FutarchyArbExecutorV5.sol\":5111:41903  contract FutarchyArbExecutorV5 {... */\n      0x20\n        /* \"contracts/FutarchyArbExecutorV5.sol\":35825:35865  IERC20(yes_cur).balanceOf(address(this)) */\n      swap4\n      dup4\n      tag_18\n      jump\t// in\n    tag_712:\n      dup2\n      add\n        /* \"contracts/FutarchyArbExecutorV5.sol\":5111:41903  contract FutarchyArbExecutorV5 {... */\n      sub\n      slt\n      tag_166\n      jumpi\n      mload\n        /* \"contracts/FutarchyArbExecutorV5.sol\":35825:35865  IERC20(yes_cur).balanceOf(address(this)) */\n      swap1\n      dup4\n      jump(tag_676)\n    tag_710:\n      returndatasize\n      swap2\n      pop\n      jump(tag_711)\n        /* \"contracts/FutarchyArbExecutorV5.sol\":34356:35684  if (mergeAmt > 0) {... */\n    tag_671:\n      sub(shl(0xa0, 0x01), 0x01)\n        /* \"contracts/FutarchyArbExecutorV5.sol\":5111:41903  contract FutarchyArbExecutorV5 {... */\n      dup6\n      and\n      mload(0x00)\n      codecopy(0x00, data_18faf74e4df68828d272c60758edf9513e53936ca0737ceb17921c958804ed9a, 0x20)\n      mload(0x00)\n      swap1\n      0x00\n      mstore\n        /* \"contracts/FutarchyArbExecutorV5.sol\":34392:34409  comp == TOKEN_PNK */\n      sub\n        /* \"contracts/FutarchyArbExecutorV5.sol\":6225:6267  0x37b60f4E9A31A64cCc0024dce7D0fD07eAA0F7B3 */\n      tag_715\n      jumpi\n        /* \"contracts/FutarchyArbExecutorV5.sol\":5111:41903  contract FutarchyArbExecutorV5 {... */\n      pop\n      pop\n      pop\n      pop\n      pop\n      pop\n      mload(0x40)\n      shl(0xe0, 0x70a08231)\n        /* \"contracts/FutarchyArbExecutorV5.sol\":34510:34552  IERC20(TOKEN_PNK).balanceOf(address(this)) */\n      dup2\n      mstore\n        /* \"contracts/FutarchyArbExecutorV5.sol\":31318:31322  this */\n      address\n        /* \"contracts/FutarchyArbExecutorV5.sol\":5111:41903  contract FutarchyArbExecutorV5 {... */\n      0x04\n        /* \"contracts/FutarchyArbExecutorV5.sol\":34510:34552  IERC20(TOKEN_PNK).balanceOf(address(this)) */\n      dup3\n      add\n        /* \"contracts/FutarchyArbExecutorV5.sol\":5111:41903  contract FutarchyArbExecutorV5 {... */\n      mstore\n      0x20\n        /* \"contracts/FutarchyArbExecutorV5.sol\":34510:34552  IERC20(TOKEN_PNK).balanceOf(address(this)) */\n      dup2\n        /* \"contracts/FutarchyArbExecutorV5.sol\":5111:41903  contract FutarchyArbExecutorV5 {... */\n      0x24\n        /* \"contracts/FutarchyArbExecutorV5.sol\":34510:34552  IERC20(TOKEN_PNK).balanceOf(address(this)) */\n      dup2\n      mload(0x00)\n      codecopy(0x00, data_18faf74e4df68828d272c60758edf9513e53936ca0737ceb17921c958804ed9a, 0x20)\n      mload(0x00)\n      swap1\n      0x00\n      mstore\n      gas\n      staticcall\n      swap1\n      dup2\n      iszero\n      tag_153\n      jumpi\n        /* \"contracts/FutarchyArbExecutorV5.sol\":5111:41903  contract FutarchyArbExecutorV5 {... */\n      mload(0x0100)\n        /* \"contracts/FutarchyArbExecutorV5.sol\":34510:34552  IERC20(TOKEN_PNK).balanceOf(address(this)) */\n      swap2\n      tag_719\n      jumpi\n        /* \"contracts/FutarchyArbExecutorV5.sol\":34388:35674  if (comp == TOKEN_PNK) {... */\n    tag_720:\n        /* \"contracts/FutarchyArbExecutorV5.sol\":34574:34584  pnkBal > 0 */\n      pop\n      dup1\n        /* \"contracts/FutarchyArbExecutorV5.sol\":34570:34615  if (pnkBal > 0) _sellPnkForSdai(pnkBal, 0, 0) */\n      tag_721\n      jumpi\n        /* \"contracts/FutarchyArbExecutorV5.sol\":34388:35674  if (comp == TOKEN_PNK) {... */\n    tag_722:\n      pop\n    tag_723:\n        /* \"contracts/FutarchyArbExecutorV5.sol\":34356:35684  if (mergeAmt > 0) {... */\n      dup3\n      dup1\n      dup1\n      dup1\n      dup1\n      dup1\n      jump(tag_672)\n        /* \"contracts/FutarchyArbExecutorV5.sol\":34570:34615  if (pnkBal > 0) _sellPnkForSdai(pnkBal, 0, 0) */\n    tag_721:\n        /* \"contracts/FutarchyArbExecutorV5.sol\":34586:34615  _sellPnkForSdai(pnkBal, 0, 0) */\n      tag_724\n      swap1\n      tag_55\n      jump\t// in\n    tag_724:\n        /* \"contracts/FutarchyArbExecutorV5.sol\":34570:34615  if (pnkBal > 0) _sellPnkForSdai(pnkBal, 0, 0) */\n      dup3\n      jump(tag_722)\n        /* \"contracts/FutarchyArbExecutorV5.sol\":34510:34552  IERC20(TOKEN_PNK).balanceOf(address(this)) */\n    tag_719:\n      swap1\n      pop\n        /* \"contracts/FutarchyArbExecutorV5.sol\":5111:41903  contract FutarchyArbExecutorV5 {... */\n      0x20\n        /* \"contracts/FutarchyArbExecutorV5.sol\":34510:34552  IERC20(TOKEN_PNK).balanceOf(address(this)) */\n      dup2\n      returndatasize\n        /* \"contracts/FutarchyArbExecutorV5.sol\":5111:41903  contract FutarchyArbExecutorV5 {... */\n      0x20\n        /* \"contracts/FutarchyArbExecutorV5.sol\":34510:34552  IERC20(TOKEN_PNK).balanceOf(address(this)) */\n      gt\n      tag_725\n      jumpi\n    tag_726:\n      dup2\n      tag_727\n        /* \"contracts/FutarchyArbExecutorV5.sol\":5111:41903  contract FutarchyArbExecutorV5 {... */\n      0x20\n        /* \"contracts/FutarchyArbExecutorV5.sol\":34510:34552  IERC20(TOKEN_PNK).balanceOf(address(this)) */\n      swap4\n      dup4\n      tag_18\n      jump\t// in\n    tag_727:\n      dup2\n      add\n        /* \"contracts/FutarchyArbExecutorV5.sol\":5111:41903  contract FutarchyArbExecutorV5 {... */\n      sub\n      slt\n      tag_166\n      jumpi\n      mload\n        /* \"contracts/FutarchyArbExecutorV5.sol\":34510:34552  IERC20(TOKEN_PNK).balanceOf(address(this)) */\n      dup4\n      jump(tag_720)\n    tag_725:\n      returndatasize\n      swap2\n      pop\n      jump(tag_726)\n        /* \"contracts/FutarchyArbExecutorV5.sol\":34388:35674  if (comp == TOKEN_PNK) {... */\n    tag_715:\n        /* \"contracts/FutarchyArbExecutorV5.sol\":34640:34667  sell_company_ops.length > 0 */\n      dup4\n        /* \"contracts/FutarchyArbExecutorV5.sol\":34636:35674  if (sell_company_ops.length > 0) {... */\n      tag_730\n      jumpi\n        /* \"contracts/FutarchyArbExecutorV5.sol\":34388:35674  if (comp == TOKEN_PNK) {... */\n    tag_731:\n      pop\n      pop\n      pop\n      pop\n      pop\n      pop\n      jump(tag_723)\n        /* \"contracts/FutarchyArbExecutorV5.sol\":34636:35674  if (sell_company_ops.length > 0) {... */\n    tag_730:\n      sub(shl(0xa0, 0x01), 0x01)\n        /* \"contracts/FutarchyArbExecutorV5.sol\":5111:41903  contract FutarchyArbExecutorV5 {... */\n      dup4\n      and\n        /* \"contracts/FutarchyArbExecutorV5.sol\":34691:34720  balancer_router == address(0) */\n      iszero\n        /* \"contracts/FutarchyArbExecutorV5.sol\":34687:34742  if (balancer_router == address(0)) revert ZeroAddress() */\n      tag_90\n      jumpi\n        /* \"contracts/FutarchyArbExecutorV5.sol\":34798:34813  balancer_router */\n      tag_734\n        /* \"contracts/FutarchyArbExecutorV5.sol\":5111:41903  contract FutarchyArbExecutorV5 {... */\n      dup4\n      sub(shl(0xa0, 0x01), 0x01)\n      dup8\n      and\n        /* \"contracts/FutarchyArbExecutorV5.sol\":34798:34813  balancer_router */\n      tag_45\n      jump\t// in\n    tag_734:\n      sub(shl(0xa0, 0x01), 0x01)\n        /* \"contracts/FutarchyArbExecutorV5.sol\":5111:41903  contract FutarchyArbExecutorV5 {... */\n      dup2\n      and\n        /* \"contracts/FutarchyArbExecutorV5.sol\":34832:34915  if (balancer_vault != address(0)) _ensureMaxAllowance(IERC20(comp), balancer_vault) */\n      tag_735\n      jumpi\n        /* \"contracts/FutarchyArbExecutorV5.sol\":34636:35674  if (sell_company_ops.length > 0) {... */\n    tag_736:\n        /* \"contracts/FutarchyArbExecutorV5.sol\":6225:6267  0x37b60f4E9A31A64cCc0024dce7D0fD07eAA0F7B3 */\n      pop\n      dup3\n        /* \"contracts/FutarchyArbExecutorV5.sol\":5111:41903  contract FutarchyArbExecutorV5 {... */\n      0x04\n        /* \"contracts/FutarchyArbExecutorV5.sol\":6225:6267  0x37b60f4E9A31A64cCc0024dce7D0fD07eAA0F7B3 */\n      gt\n      tag_85\n      jumpi\n        /* \"contracts/FutarchyArbExecutorV5.sol\":35151:35291  abi.decode(... */\n      dup5\n      dup4\n      add\n      swap1\n        /* \"contracts/FutarchyArbExecutorV5.sol\":5111:41903  contract FutarchyArbExecutorV5 {... */\n      0x80\n        /* \"contracts/FutarchyArbExecutorV5.sol\":6225:6267  0x37b60f4E9A31A64cCc0024dce7D0fD07eAA0F7B3 */\n      dup7\n      dup4\n      sub\n      not(0x03)\n      add\n      slt\n      tag_85\n      jumpi\n        /* \"contracts/FutarchyArbExecutorV5.sol\":5111:41903  contract FutarchyArbExecutorV5 {... */\n      0x04\n        /* \"contracts/FutarchyArbExecutorV5.sol\":6225:6267  0x37b60f4E9A31A64cCc0024dce7D0fD07eAA0F7B3 */\n      dup7\n      add\n      calldataload\n      sub(shl(0x40, 0x01), 0x01)\n      dup2\n      gt\n      tag_85\n      jumpi\n      dup7\n      add\n      swap5\n      dup3\n      0x23\n      dup8\n      add\n      slt\n      iszero\n      tag_85\n      jumpi\n        /* \"contracts/FutarchyArbExecutorV5.sol\":5111:41903  contract FutarchyArbExecutorV5 {... */\n      0x04\n        /* \"contracts/FutarchyArbExecutorV5.sol\":6225:6267  0x37b60f4E9A31A64cCc0024dce7D0fD07eAA0F7B3 */\n      dup7\n      add\n      calldataload\n      swap2\n      tag_745\n      dup4\n      tag_28\n      jump\t// in\n    tag_745:\n        /* \"contracts/FutarchyArbExecutorV5.sol\":5111:41903  contract FutarchyArbExecutorV5 {... */\n      swap7\n      tag_746\n      mload(0x40)\n      swap9\n      dup10\n      tag_18\n      jump\t// in\n    tag_746:\n        /* \"contracts/FutarchyArbExecutorV5.sol\":6225:6267  0x37b60f4E9A31A64cCc0024dce7D0fD07eAA0F7B3 */\n      dup4\n      dup9\n      mstore\n        /* \"contracts/FutarchyArbExecutorV5.sol\":5111:41903  contract FutarchyArbExecutorV5 {... */\n      0x20\n        /* \"contracts/FutarchyArbExecutorV5.sol\":6225:6267  0x37b60f4E9A31A64cCc0024dce7D0fD07eAA0F7B3 */\n      dup9\n      add\n      swap1\n        /* \"contracts/FutarchyArbExecutorV5.sol\":5111:41903  contract FutarchyArbExecutorV5 {... */\n      0x20\n      0x04\n        /* \"contracts/FutarchyArbExecutorV5.sol\":6225:6267  0x37b60f4E9A31A64cCc0024dce7D0fD07eAA0F7B3 */\n      dup4\n      swap7\n      0x05\n      shl\n      dup4\n      add\n      add\n      add\n      swap1\n      dup7\n      dup3\n      gt\n      tag_85\n      jumpi\n        /* \"contracts/FutarchyArbExecutorV5.sol\":5111:41903  contract FutarchyArbExecutorV5 {... */\n      0x24\n        /* \"contracts/FutarchyArbExecutorV5.sol\":6225:6267  0x37b60f4E9A31A64cCc0024dce7D0fD07eAA0F7B3 */\n      dup2\n      add\n      swap3\n    tag_749:\n      dup3\n      dup5\n      lt\n      tag_750\n      jumpi\n      pop\n      pop\n      pop\n      pop\n        /* \"contracts/FutarchyArbExecutorV5.sol\":5111:41903  contract FutarchyArbExecutorV5 {... */\n      tag_752\n      0x44\n        /* \"contracts/FutarchyArbExecutorV5.sol\":6225:6267  0x37b60f4E9A31A64cCc0024dce7D0fD07eAA0F7B3 */\n      dup10\n      add\n        /* \"contracts/FutarchyArbExecutorV5.sol\":5111:41903  contract FutarchyArbExecutorV5 {... */\n      tag_15\n      jump\t// in\n    tag_752:\n        /* \"contracts/FutarchyArbExecutorV5.sol\":6225:6267  0x37b60f4E9A31A64cCc0024dce7D0fD07eAA0F7B3 */\n      swap2\n        /* \"contracts/FutarchyArbExecutorV5.sol\":5111:41903  contract FutarchyArbExecutorV5 {... */\n      0x64\n        /* \"contracts/FutarchyArbExecutorV5.sol\":6225:6267  0x37b60f4E9A31A64cCc0024dce7D0fD07eAA0F7B3 */\n      dup10\n      add\n      calldataload\n      swap5\n      sub(shl(0x40, 0x01), 0x01)\n      dup7\n      gt\n      tag_85\n      jumpi\n      dup1\n      0x23\n      dup8\n      dup13\n      add\n      add\n      slt\n      iszero\n      tag_85\n      jumpi\n      dup6\n        /* \"contracts/FutarchyArbExecutorV5.sol\":5111:41903  contract FutarchyArbExecutorV5 {... */\n      0x04\n        /* \"contracts/FutarchyArbExecutorV5.sol\":6225:6267  0x37b60f4E9A31A64cCc0024dce7D0fD07eAA0F7B3 */\n      dup12\n      swap8\n      dup9\n      add\n      add\n      calldataload\n      swap2\n        /* \"contracts/FutarchyArbExecutorV5.sol\":5111:41903  contract FutarchyArbExecutorV5 {... */\n      0x20\n      0x04\n        /* \"contracts/FutarchyArbExecutorV5.sol\":6225:6267  0x37b60f4E9A31A64cCc0024dce7D0fD07eAA0F7B3 */\n      dup5\n      dup5\n      tag_757\n      dup3\n      tag_21\n      jump\t// in\n    tag_757:\n        /* \"contracts/FutarchyArbExecutorV5.sol\":5111:41903  contract FutarchyArbExecutorV5 {... */\n      swap12\n      tag_758\n      mload(0x40)\n      swap14\n      dup15\n      tag_18\n      jump\t// in\n    tag_758:\n        /* \"contracts/FutarchyArbExecutorV5.sol\":6225:6267  0x37b60f4E9A31A64cCc0024dce7D0fD07eAA0F7B3 */\n      dup3\n      dup14\n      mstore\n      add\n      add\n      add\n      add\n      gt\n      tag_85\n      jumpi\n        /* \"contracts/FutarchyArbExecutorV5.sol\":5111:41903  contract FutarchyArbExecutorV5 {... */\n      0x24\n        /* \"contracts/FutarchyArbExecutorV5.sol\":6225:6267  0x37b60f4E9A31A64cCc0024dce7D0fD07eAA0F7B3 */\n      dup3\n      swap2\n      dup13\n      add\n      add\n        /* \"contracts/FutarchyArbExecutorV5.sol\":5111:41903  contract FutarchyArbExecutorV5 {... */\n      0x20\n        /* \"contracts/FutarchyArbExecutorV5.sol\":6225:6267  0x37b60f4E9A31A64cCc0024dce7D0fD07eAA0F7B3 */\n      dup9\n      add\n        /* \"contracts/FutarchyArbExecutorV5.sol\":5111:41903  contract FutarchyArbExecutorV5 {... */\n      calldatacopy\n      0x20\n      mload(0x0100)\n      swap2\n      dup8\n      add\n      add\n      mstore\n        /* \"contracts/FutarchyArbExecutorV5.sol\":6225:6267  0x37b60f4E9A31A64cCc0024dce7D0fD07eAA0F7B3 */\n      dup8\n      mload\n        /* \"contracts/FutarchyArbExecutorV5.sol\":35313:35330  paths.length == 0 */\n      iszero\n        /* \"contracts/FutarchyArbExecutorV5.sol\":35309:35353  if (paths.length == 0) revert InvalidPaths() */\n      tag_761\n      jumpi\n      sub(shl(0xa0, 0x01), 0x01)\n        /* \"contracts/FutarchyArbExecutorV5.sol\":5111:41903  contract FutarchyArbExecutorV5 {... */\n      dup2\n      dup2\n      and\n      swap1\n        /* \"contracts/FutarchyArbExecutorV5.sol\":35375:35383  paths[0] */\n      tag_763\n      dup11\n      tag_29\n      jump\t// in\n    tag_763:\n      mload\n        /* \"contracts/FutarchyArbExecutorV5.sol\":6225:6267  0x37b60f4E9A31A64cCc0024dce7D0fD07eAA0F7B3 */\n      mload\n        /* \"contracts/FutarchyArbExecutorV5.sol\":5111:41903  contract FutarchyArbExecutorV5 {... */\n      and\n        /* \"contracts/FutarchyArbExecutorV5.sol\":35375:35399  paths[0].tokenIn != comp */\n      sub\n        /* \"contracts/FutarchyArbExecutorV5.sol\":35371:35424  if (paths[0].tokenIn != comp) paths[0].tokenIn = comp */\n      tag_764\n      jumpi\n        /* \"contracts/FutarchyArbExecutorV5.sol\":6225:6267  0x37b60f4E9A31A64cCc0024dce7D0fD07eAA0F7B3 */\n    tag_765:\n        /* \"contracts/FutarchyArbExecutorV5.sol\":35442:35450  paths[0] */\n      pop\n        /* \"contracts/FutarchyArbExecutorV5.sol\":5111:41903  contract FutarchyArbExecutorV5 {... */\n      0x40\n        /* \"contracts/FutarchyArbExecutorV5.sol\":35442:35450  paths[0] */\n      tag_766\n      dup9\n      swap4\n      swap9\n      tag_29\n      jump\t// in\n    tag_766:\n      mload\n        /* \"contracts/FutarchyArbExecutorV5.sol\":35442:35464  paths[0].exactAmountIn */\n      add\n        /* \"contracts/FutarchyArbExecutorV5.sol\":6225:6267  0x37b60f4E9A31A64cCc0024dce7D0fD07eAA0F7B3 */\n      mstore\n        /* \"contracts/FutarchyArbExecutorV5.sol\":5111:41903  contract FutarchyArbExecutorV5 {... */\n      mload(0x40)\n      swap6\n      dup7\n      swap2\n      shl(0xe0, 0x286f580d)\n        /* \"contracts/FutarchyArbExecutorV5.sol\":35494:35581  IBalancerBatchRouter(balancer_router).swapExactIn(paths, deadline, wethIsEth, userData) */\n      dup4\n      mstore\n        /* \"contracts/FutarchyArbExecutorV5.sol\":5111:41903  contract FutarchyArbExecutorV5 {... */\n      0x84\n        /* \"contracts/FutarchyArbExecutorV5.sol\":6225:6267  0x37b60f4E9A31A64cCc0024dce7D0fD07eAA0F7B3 */\n      dup4\n      add\n        /* \"contracts/FutarchyArbExecutorV5.sol\":35494:35581  IBalancerBatchRouter(balancer_router).swapExactIn(paths, deadline, wethIsEth, userData) */\n      swap1\n        /* \"contracts/FutarchyArbExecutorV5.sol\":5111:41903  contract FutarchyArbExecutorV5 {... */\n      0x80\n      0x04\n        /* \"contracts/FutarchyArbExecutorV5.sol\":35494:35581  IBalancerBatchRouter(balancer_router).swapExactIn(paths, deadline, wethIsEth, userData) */\n      dup6\n      add\n        /* \"contracts/FutarchyArbExecutorV5.sol\":6225:6267  0x37b60f4E9A31A64cCc0024dce7D0fD07eAA0F7B3 */\n      mstore\n      mload\n        /* \"contracts/FutarchyArbExecutorV5.sol\":5111:41903  contract FutarchyArbExecutorV5 {... */\n      dup1\n      swap2\n      mstore\n      0xa4\n      dup4\n      add\n        /* \"contracts/FutarchyArbExecutorV5.sol\":6225:6267  0x37b60f4E9A31A64cCc0024dce7D0fD07eAA0F7B3 */\n      swap1\n        /* \"contracts/FutarchyArbExecutorV5.sol\":5111:41903  contract FutarchyArbExecutorV5 {... */\n      0xa4\n        /* \"contracts/FutarchyArbExecutorV5.sol\":6225:6267  0x37b60f4E9A31A64cCc0024dce7D0fD07eAA0F7B3 */\n      dup2\n      0x05\n      shl\n      dup6\n      add\n      add\n      swap5\n        /* \"contracts/FutarchyArbExecutorV5.sol\":5111:41903  contract FutarchyArbExecutorV5 {... */\n      swap2\n      mload(0x0100)\n        /* \"contracts/FutarchyArbExecutorV5.sol\":6225:6267  0x37b60f4E9A31A64cCc0024dce7D0fD07eAA0F7B3 */\n      swap1\n    tag_767:\n      dup3\n      dup3\n      lt\n      tag_768\n      jumpi\n      pop\n      pop\n      pop\n      pop\n      dup2\n      swap3\n      tag_770\n      swap2\n        /* \"contracts/FutarchyArbExecutorV5.sol\":5111:41903  contract FutarchyArbExecutorV5 {... */\n      0x24\n        /* \"contracts/FutarchyArbExecutorV5.sol\":6225:6267  0x37b60f4E9A31A64cCc0024dce7D0fD07eAA0F7B3 */\n      dup11\n      add\n        /* \"contracts/FutarchyArbExecutorV5.sol\":5111:41903  contract FutarchyArbExecutorV5 {... */\n      calldataload\n      0x24\n        /* \"contracts/FutarchyArbExecutorV5.sol\":6225:6267  0x37b60f4E9A31A64cCc0024dce7D0fD07eAA0F7B3 */\n      dup6\n      add\n        /* \"contracts/FutarchyArbExecutorV5.sol\":5111:41903  contract FutarchyArbExecutorV5 {... */\n      mstore\n      iszero\n      iszero\n      0x44\n        /* \"contracts/FutarchyArbExecutorV5.sol\":6225:6267  0x37b60f4E9A31A64cCc0024dce7D0fD07eAA0F7B3 */\n      dup5\n      add\n        /* \"contracts/FutarchyArbExecutorV5.sol\":5111:41903  contract FutarchyArbExecutorV5 {... */\n      mstore\n      not(0x03)\n        /* \"contracts/FutarchyArbExecutorV5.sol\":6225:6267  0x37b60f4E9A31A64cCc0024dce7D0fD07eAA0F7B3 */\n      dup4\n      dup3\n      sub\n      add\n        /* \"contracts/FutarchyArbExecutorV5.sol\":5111:41903  contract FutarchyArbExecutorV5 {... */\n      0x64\n        /* \"contracts/FutarchyArbExecutorV5.sol\":6225:6267  0x37b60f4E9A31A64cCc0024dce7D0fD07eAA0F7B3 */\n      dup5\n      add\n      mstore\n        /* \"contracts/FutarchyArbExecutorV5.sol\":5111:41903  contract FutarchyArbExecutorV5 {... */\n      mload(0x0100)\n        /* \"contracts/FutarchyArbExecutorV5.sol\":6225:6267  0x37b60f4E9A31A64cCc0024dce7D0fD07eAA0F7B3 */\n      swap5\n      tag_35\n      jump\t// in\n    tag_770:\n        /* \"contracts/FutarchyArbExecutorV5.sol\":35494:35581  IBalancerBatchRouter(balancer_router).swapExactIn(paths, deadline, wethIsEth, userData) */\n      sub\n        /* \"contracts/FutarchyArbExecutorV5.sol\":5111:41903  contract FutarchyArbExecutorV5 {... */\n      dup2\n      mload(0x0100)\n      0x01\n      dup1\n      0xa0\n      shl\n      sub\n      dup7\n      and\n        /* \"contracts/FutarchyArbExecutorV5.sol\":35494:35581  IBalancerBatchRouter(balancer_router).swapExactIn(paths, deadline, wethIsEth, userData) */\n      gas\n      call\n      dup1\n      iszero\n      tag_153\n      jumpi\n      tag_773\n      jumpi\n        /* \"contracts/FutarchyArbExecutorV5.sol\":6225:6267  0x37b60f4E9A31A64cCc0024dce7D0fD07eAA0F7B3 */\n    tag_774:\n        /* \"contracts/FutarchyArbExecutorV5.sol\":35604:35659  BalancerSellExecuted(balancer_router, sell_company_ops) */\n      0xde69c99d0290e9136275c349eb34d1087f4344a5eb3b4ce398f30cca48dacb0f\n        /* \"contracts/FutarchyArbExecutorV5.sol\":5111:41903  contract FutarchyArbExecutorV5 {... */\n      swap3\n      pop\n        /* \"contracts/FutarchyArbExecutorV5.sol\":35604:35659  BalancerSellExecuted(balancer_router, sell_company_ops) */\n      tag_775\n        /* \"contracts/FutarchyArbExecutorV5.sol\":5111:41903  contract FutarchyArbExecutorV5 {... */\n      mload(0x40)\n      swap3\n      dup4\n      swap3\n      0x01\n      dup1\n      0xa0\n      shl\n      sub\n      and\n        /* \"contracts/FutarchyArbExecutorV5.sol\":35604:35659  BalancerSellExecuted(balancer_router, sell_company_ops) */\n      swap6\n      dup4\n      tag_23\n      jump\t// in\n    tag_775:\n      sub\n      swap1\n      log2\n        /* \"contracts/FutarchyArbExecutorV5.sol\":34636:35674  if (sell_company_ops.length > 0) {... */\n      dup3\n      dup1\n      dup1\n      dup1\n      dup1\n      dup1\n      jump(tag_731)\n        /* \"contracts/FutarchyArbExecutorV5.sol\":35494:35581  IBalancerBatchRouter(balancer_router).swapExactIn(paths, deadline, wethIsEth, userData) */\n    tag_773:\n      returndatasize\n        /* \"contracts/FutarchyArbExecutorV5.sol\":5111:41903  contract FutarchyArbExecutorV5 {... */\n      dup1\n      mload(0x0100)\n        /* \"contracts/FutarchyArbExecutorV5.sol\":35494:35581  IBalancerBatchRouter(balancer_router).swapExactIn(paths, deadline, wethIsEth, userData) */\n      dup6\n      returndatacopy\n      tag_776\n      dup2\n      dup6\n      tag_18\n      jump\t// in\n    tag_776:\n      dup4\n      add\n        /* \"contracts/FutarchyArbExecutorV5.sol\":6225:6267  0x37b60f4E9A31A64cCc0024dce7D0fD07eAA0F7B3 */\n      swap3\n        /* \"contracts/FutarchyArbExecutorV5.sol\":5111:41903  contract FutarchyArbExecutorV5 {... */\n      0x60\n        /* \"contracts/FutarchyArbExecutorV5.sol\":6225:6267  0x37b60f4E9A31A64cCc0024dce7D0fD07eAA0F7B3 */\n      dup2\n      dup6\n      sub\n      slt\n      tag_85\n      jumpi\n      dup1\n      mload\n      sub(shl(0x40, 0x01), 0x01)\n      dup2\n      gt\n      tag_85\n      jumpi\n      dup5\n      tag_781\n      swap2\n      dup4\n      add\n      tag_34\n      jump\t// in\n    tag_781:\n      pop\n        /* \"contracts/FutarchyArbExecutorV5.sol\":5111:41903  contract FutarchyArbExecutorV5 {... */\n      0x20\n        /* \"contracts/FutarchyArbExecutorV5.sol\":6225:6267  0x37b60f4E9A31A64cCc0024dce7D0fD07eAA0F7B3 */\n      dup2\n      add\n      mload\n      sub(shl(0x40, 0x01), 0x01)\n      dup2\n      gt\n      tag_85\n      jumpi\n      dup2\n      add\n      dup5\n      0x1f\n      dup3\n      add\n      slt\n      iszero\n      tag_85\n      jumpi\n      dup1\n      mload\n      swap1\n        /* \"contracts/FutarchyArbExecutorV5.sol\":5111:41903  contract FutarchyArbExecutorV5 {... */\n      0x20\n        /* \"contracts/FutarchyArbExecutorV5.sol\":6225:6267  0x37b60f4E9A31A64cCc0024dce7D0fD07eAA0F7B3 */\n      dup1\n      tag_786\n      dup5\n      tag_28\n      jump\t// in\n    tag_786:\n        /* \"contracts/FutarchyArbExecutorV5.sol\":5111:41903  contract FutarchyArbExecutorV5 {... */\n      tag_787\n      mload(0x40)\n      swap2\n      dup3\n      tag_18\n      jump\t// in\n    tag_787:\n        /* \"contracts/FutarchyArbExecutorV5.sol\":6225:6267  0x37b60f4E9A31A64cCc0024dce7D0fD07eAA0F7B3 */\n      dup5\n      dup2\n      mstore\n      add\n      swap3\n      0x05\n      shl\n      dup3\n      add\n      add\n      swap1\n      dup7\n      dup3\n      gt\n      tag_85\n      jumpi\n        /* \"contracts/FutarchyArbExecutorV5.sol\":5111:41903  contract FutarchyArbExecutorV5 {... */\n      0x20\n        /* \"contracts/FutarchyArbExecutorV5.sol\":6225:6267  0x37b60f4E9A31A64cCc0024dce7D0fD07eAA0F7B3 */\n      add\n      swap2\n    tag_790:\n      dup2\n      dup4\n      lt\n      tag_791\n      jumpi\n      pop\n      pop\n      pop\n        /* \"contracts/FutarchyArbExecutorV5.sol\":5111:41903  contract FutarchyArbExecutorV5 {... */\n      0x40\n        /* \"contracts/FutarchyArbExecutorV5.sol\":6225:6267  0x37b60f4E9A31A64cCc0024dce7D0fD07eAA0F7B3 */\n      dup2\n      add\n      mload\n      swap4\n      sub(shl(0x40, 0x01), 0x01)\n      dup6\n      gt\n      tag_85\n      jumpi\n        /* \"contracts/FutarchyArbExecutorV5.sol\":35604:35659  BalancerSellExecuted(balancer_router, sell_company_ops) */\n      0xde69c99d0290e9136275c349eb34d1087f4344a5eb3b4ce398f30cca48dacb0f\n        /* \"contracts/FutarchyArbExecutorV5.sol\":6225:6267  0x37b60f4E9A31A64cCc0024dce7D0fD07eAA0F7B3 */\n      swap5\n      tag_795\n      swap3\n      add\n      tag_34\n      jump\t// in\n    tag_795:\n      pop\n        /* \"contracts/FutarchyArbExecutorV5.sol\":35494:35581  IBalancerBatchRouter(balancer_router).swapExactIn(paths, deadline, wethIsEth, userData) */\n      jump(tag_774)\n        /* \"contracts/FutarchyArbExecutorV5.sol\":6225:6267  0x37b60f4E9A31A64cCc0024dce7D0fD07eAA0F7B3 */\n    tag_791:\n      dup3\n      mload\n      sub(shl(0xa0, 0x01), 0x01)\n        /* \"contracts/FutarchyArbExecutorV5.sol\":5111:41903  contract FutarchyArbExecutorV5 {... */\n      dup2\n      and\n      dup2\n      sub\n      tag_85\n      jumpi\n        /* \"contracts/FutarchyArbExecutorV5.sol\":6225:6267  0x37b60f4E9A31A64cCc0024dce7D0fD07eAA0F7B3 */\n      dup2\n      mstore\n        /* \"contracts/FutarchyArbExecutorV5.sol\":5111:41903  contract FutarchyArbExecutorV5 {... */\n      0x20\n        /* \"contracts/FutarchyArbExecutorV5.sol\":6225:6267  0x37b60f4E9A31A64cCc0024dce7D0fD07eAA0F7B3 */\n      swap3\n      dup4\n      add\n      swap3\n      add\n      jump(tag_790)\n    tag_768:\n      swap2\n      swap4\n      swap5\n      pop\n      swap2\n      swap5\n      not(0xa3)\n      dup11\n      dup3\n      sub\n      add\n      dup3\n      mstore\n      dup6\n      mload\n      swap1\n        /* \"contracts/FutarchyArbExecutorV5.sol\":5111:41903  contract FutarchyArbExecutorV5 {... */\n      0x80\n        /* \"contracts/FutarchyArbExecutorV5.sol\":6225:6267  0x37b60f4E9A31A64cCc0024dce7D0fD07eAA0F7B3 */\n      dup2\n      add\n        /* \"contracts/FutarchyArbExecutorV5.sol\":5111:41903  contract FutarchyArbExecutorV5 {... */\n      swap2\n      0x01\n      dup1\n      0xa0\n      shl\n      sub\n        /* \"contracts/FutarchyArbExecutorV5.sol\":6225:6267  0x37b60f4E9A31A64cCc0024dce7D0fD07eAA0F7B3 */\n      dup2\n      mload\n        /* \"contracts/FutarchyArbExecutorV5.sol\":5111:41903  contract FutarchyArbExecutorV5 {... */\n      and\n      dup3\n      mstore\n      0x20\n        /* \"contracts/FutarchyArbExecutorV5.sol\":6225:6267  0x37b60f4E9A31A64cCc0024dce7D0fD07eAA0F7B3 */\n      dup2\n      add\n      mload\n      swap3\n        /* \"contracts/FutarchyArbExecutorV5.sol\":5111:41903  contract FutarchyArbExecutorV5 {... */\n      0x80\n      0x20\n        /* \"contracts/FutarchyArbExecutorV5.sol\":6225:6267  0x37b60f4E9A31A64cCc0024dce7D0fD07eAA0F7B3 */\n      dup5\n      add\n      mstore\n      dup4\n      mload\n        /* \"contracts/FutarchyArbExecutorV5.sol\":5111:41903  contract FutarchyArbExecutorV5 {... */\n      dup1\n      swap2\n      mstore\n      0x20\n      0xa0\n      dup5\n      add\n        /* \"contracts/FutarchyArbExecutorV5.sol\":6225:6267  0x37b60f4E9A31A64cCc0024dce7D0fD07eAA0F7B3 */\n      swap5\n      add\n        /* \"contracts/FutarchyArbExecutorV5.sol\":5111:41903  contract FutarchyArbExecutorV5 {... */\n      swap1\n      mload(0x0100)\n        /* \"contracts/FutarchyArbExecutorV5.sol\":6225:6267  0x37b60f4E9A31A64cCc0024dce7D0fD07eAA0F7B3 */\n      swap1\n    tag_798:\n      dup1\n      dup3\n      lt\n      tag_799\n      jumpi\n      pop\n      pop\n      pop\n        /* \"contracts/FutarchyArbExecutorV5.sol\":5111:41903  contract FutarchyArbExecutorV5 {... */\n      0x01\n        /* \"contracts/FutarchyArbExecutorV5.sol\":6225:6267  0x37b60f4E9A31A64cCc0024dce7D0fD07eAA0F7B3 */\n      swap3\n        /* \"contracts/FutarchyArbExecutorV5.sol\":5111:41903  contract FutarchyArbExecutorV5 {... */\n      0x20\n        /* \"contracts/FutarchyArbExecutorV5.sol\":6225:6267  0x37b60f4E9A31A64cCc0024dce7D0fD07eAA0F7B3 */\n      swap3\n        /* \"contracts/FutarchyArbExecutorV5.sol\":5111:41903  contract FutarchyArbExecutorV5 {... */\n      0x60\n        /* \"contracts/FutarchyArbExecutorV5.sol\":6225:6267  0x37b60f4E9A31A64cCc0024dce7D0fD07eAA0F7B3 */\n      dup1\n      dup5\n        /* \"contracts/FutarchyArbExecutorV5.sol\":5111:41903  contract FutarchyArbExecutorV5 {... */\n      0x40\n        /* \"contracts/FutarchyArbExecutorV5.sol\":6225:6267  0x37b60f4E9A31A64cCc0024dce7D0fD07eAA0F7B3 */\n      dup8\n      swap7\n      add\n      mload\n        /* \"contracts/FutarchyArbExecutorV5.sol\":5111:41903  contract FutarchyArbExecutorV5 {... */\n      0x40\n        /* \"contracts/FutarchyArbExecutorV5.sol\":6225:6267  0x37b60f4E9A31A64cCc0024dce7D0fD07eAA0F7B3 */\n      dup6\n      add\n        /* \"contracts/FutarchyArbExecutorV5.sol\":5111:41903  contract FutarchyArbExecutorV5 {... */\n      mstore\n        /* \"contracts/FutarchyArbExecutorV5.sol\":6225:6267  0x37b60f4E9A31A64cCc0024dce7D0fD07eAA0F7B3 */\n      add\n      mload\n      swap2\n      add\n        /* \"contracts/FutarchyArbExecutorV5.sol\":5111:41903  contract FutarchyArbExecutorV5 {... */\n      mstore\n        /* \"contracts/FutarchyArbExecutorV5.sol\":6225:6267  0x37b60f4E9A31A64cCc0024dce7D0fD07eAA0F7B3 */\n      swap8\n      add\n      swap3\n      add\n      swap3\n      add\n      dup10\n      swap5\n      swap4\n      swap2\n      swap3\n      jump(tag_767)\n    tag_799:\n      swap1\n      swap2\n      swap5\n        /* \"contracts/FutarchyArbExecutorV5.sol\":5111:41903  contract FutarchyArbExecutorV5 {... */\n      0x20\n      0x60\n      0x01\n        /* \"contracts/FutarchyArbExecutorV5.sol\":6225:6267  0x37b60f4E9A31A64cCc0024dce7D0fD07eAA0F7B3 */\n      swap3\n        /* \"contracts/FutarchyArbExecutorV5.sol\":5111:41903  contract FutarchyArbExecutorV5 {... */\n      0x40\n        /* \"contracts/FutarchyArbExecutorV5.sol\":6225:6267  0x37b60f4E9A31A64cCc0024dce7D0fD07eAA0F7B3 */\n      dup10\n      mload\n        /* \"contracts/FutarchyArbExecutorV5.sol\":5111:41903  contract FutarchyArbExecutorV5 {... */\n      dup6\n      dup1\n      0xa0\n      shl\n      sub\n        /* \"contracts/FutarchyArbExecutorV5.sol\":6225:6267  0x37b60f4E9A31A64cCc0024dce7D0fD07eAA0F7B3 */\n      dup2\n      mload\n        /* \"contracts/FutarchyArbExecutorV5.sol\":5111:41903  contract FutarchyArbExecutorV5 {... */\n      and\n      dup4\n      mstore\n      dup6\n      dup1\n      0xa0\n      shl\n      sub\n        /* \"contracts/FutarchyArbExecutorV5.sol\":6225:6267  0x37b60f4E9A31A64cCc0024dce7D0fD07eAA0F7B3 */\n      dup6\n      dup3\n      add\n      mload\n        /* \"contracts/FutarchyArbExecutorV5.sol\":5111:41903  contract FutarchyArbExecutorV5 {... */\n      and\n        /* \"contracts/FutarchyArbExecutorV5.sol\":6225:6267  0x37b60f4E9A31A64cCc0024dce7D0fD07eAA0F7B3 */\n      dup6\n      dup5\n      add\n        /* \"contracts/FutarchyArbExecutorV5.sol\":5111:41903  contract FutarchyArbExecutorV5 {... */\n      mstore\n        /* \"contracts/FutarchyArbExecutorV5.sol\":6225:6267  0x37b60f4E9A31A64cCc0024dce7D0fD07eAA0F7B3 */\n      add\n      mload\n        /* \"contracts/FutarchyArbExecutorV5.sol\":5111:41903  contract FutarchyArbExecutorV5 {... */\n      iszero\n      iszero\n      0x40\n        /* \"contracts/FutarchyArbExecutorV5.sol\":6225:6267  0x37b60f4E9A31A64cCc0024dce7D0fD07eAA0F7B3 */\n      dup3\n      add\n        /* \"contracts/FutarchyArbExecutorV5.sol\":5111:41903  contract FutarchyArbExecutorV5 {... */\n      mstore\n        /* \"contracts/FutarchyArbExecutorV5.sol\":6225:6267  0x37b60f4E9A31A64cCc0024dce7D0fD07eAA0F7B3 */\n      add\n      swap7\n      add\n      swap3\n      add\n      swap1\n      jump(tag_798)\n        /* \"contracts/FutarchyArbExecutorV5.sol\":35371:35424  if (paths[0].tokenIn != comp) paths[0].tokenIn = comp */\n    tag_764:\n      sub(shl(0xa0, 0x01), 0x01)\n        /* \"contracts/FutarchyArbExecutorV5.sol\":5111:41903  contract FutarchyArbExecutorV5 {... */\n      and\n        /* \"contracts/FutarchyArbExecutorV5.sol\":35401:35409  paths[0] */\n      tag_801\n      dup9\n      tag_29\n      jump\t// in\n    tag_801:\n      mload\n        /* \"contracts/FutarchyArbExecutorV5.sol\":6225:6267  0x37b60f4E9A31A64cCc0024dce7D0fD07eAA0F7B3 */\n      mstore\n        /* \"contracts/FutarchyArbExecutorV5.sol\":35371:35424  if (paths[0].tokenIn != comp) paths[0].tokenIn = comp */\n      dup11\n      jump(tag_765)\n        /* \"contracts/FutarchyArbExecutorV5.sol\":35309:35353  if (paths.length == 0) revert InvalidPaths() */\n    tag_761:\n        /* \"contracts/FutarchyArbExecutorV5.sol\":35339:35353  InvalidPaths() */\n      shl(0xe1, 0x4d95e035)\n        /* \"contracts/FutarchyArbExecutorV5.sol\":5111:41903  contract FutarchyArbExecutorV5 {... */\n      mload(0x0100)\n        /* \"contracts/FutarchyArbExecutorV5.sol\":35339:35353  InvalidPaths() */\n      mstore\n        /* \"contracts/FutarchyArbExecutorV5.sol\":5111:41903  contract FutarchyArbExecutorV5 {... */\n      0x04\n      mload(0x0100)\n        /* \"contracts/FutarchyArbExecutorV5.sol\":35339:35353  InvalidPaths() */\n      revert\n        /* \"contracts/FutarchyArbExecutorV5.sol\":6225:6267  0x37b60f4E9A31A64cCc0024dce7D0fD07eAA0F7B3 */\n    tag_750:\n      dup4\n      calldataload\n      sub(shl(0x40, 0x01), 0x01)\n      dup2\n      gt\n      tag_85\n      jumpi\n        /* \"contracts/FutarchyArbExecutorV5.sol\":5111:41903  contract FutarchyArbExecutorV5 {... */\n      0x04\n        /* \"contracts/FutarchyArbExecutorV5.sol\":6225:6267  0x37b60f4E9A31A64cCc0024dce7D0fD07eAA0F7B3 */\n      swap1\n      dup4\n      add\n      add\n        /* \"contracts/FutarchyArbExecutorV5.sol\":5111:41903  contract FutarchyArbExecutorV5 {... */\n      0x80\n        /* \"contracts/FutarchyArbExecutorV5.sol\":6408:6450  0xE43e60736b1cb4a75ad25240E2f9a62Bff65c0C0 */\n      not(0x1f)\n        /* \"contracts/FutarchyArbExecutorV5.sol\":6225:6267  0x37b60f4E9A31A64cCc0024dce7D0fD07eAA0F7B3 */\n      dup3\n      dup12\n      sub\n      add\n      slt\n      tag_85\n      jumpi\n        /* \"contracts/FutarchyArbExecutorV5.sol\":5111:41903  contract FutarchyArbExecutorV5 {... */\n      mload(0x40)\n      swap1\n      tag_806\n      dup3\n      tag_16\n      jump\t// in\n    tag_806:\n      tag_807\n      0x20\n        /* \"contracts/FutarchyArbExecutorV5.sol\":6225:6267  0x37b60f4E9A31A64cCc0024dce7D0fD07eAA0F7B3 */\n      dup3\n      add\n        /* \"contracts/FutarchyArbExecutorV5.sol\":5111:41903  contract FutarchyArbExecutorV5 {... */\n      tag_11\n      jump\t// in\n    tag_807:\n        /* \"contracts/FutarchyArbExecutorV5.sol\":6225:6267  0x37b60f4E9A31A64cCc0024dce7D0fD07eAA0F7B3 */\n      dup3\n      mstore\n        /* \"contracts/FutarchyArbExecutorV5.sol\":5111:41903  contract FutarchyArbExecutorV5 {... */\n      0x40\n        /* \"contracts/FutarchyArbExecutorV5.sol\":6225:6267  0x37b60f4E9A31A64cCc0024dce7D0fD07eAA0F7B3 */\n      dup2\n      add\n      calldataload\n      sub(shl(0x40, 0x01), 0x01)\n      dup2\n      gt\n      tag_85\n      jumpi\n        /* \"contracts/FutarchyArbExecutorV5.sol\":5111:41903  contract FutarchyArbExecutorV5 {... */\n      0x20\n        /* \"contracts/FutarchyArbExecutorV5.sol\":6225:6267  0x37b60f4E9A31A64cCc0024dce7D0fD07eAA0F7B3 */\n      swap1\n      dup3\n      add\n      add\n      dup11\n      0x1f\n      dup3\n      add\n      slt\n      iszero\n      tag_85\n      jumpi\n      dup1\n      calldataload\n      tag_812\n      dup2\n      tag_28\n      jump\t// in\n    tag_812:\n        /* \"contracts/FutarchyArbExecutorV5.sol\":5111:41903  contract FutarchyArbExecutorV5 {... */\n      swap2\n      tag_813\n      mload(0x40)\n      swap4\n      dup5\n      tag_18\n      jump\t// in\n    tag_813:\n        /* \"contracts/FutarchyArbExecutorV5.sol\":6225:6267  0x37b60f4E9A31A64cCc0024dce7D0fD07eAA0F7B3 */\n      dup2\n      dup4\n      mstore\n        /* \"contracts/FutarchyArbExecutorV5.sol\":5111:41903  contract FutarchyArbExecutorV5 {... */\n      0x20\n      0x60\n        /* \"contracts/FutarchyArbExecutorV5.sol\":6225:6267  0x37b60f4E9A31A64cCc0024dce7D0fD07eAA0F7B3 */\n      dup2\n      dup6\n      add\n      swap4\n      mul\n      dup3\n      add\n      add\n      swap1\n      dup14\n      dup3\n      gt\n      tag_85\n      jumpi\n        /* \"contracts/FutarchyArbExecutorV5.sol\":5111:41903  contract FutarchyArbExecutorV5 {... */\n      0x20\n        /* \"contracts/FutarchyArbExecutorV5.sol\":6225:6267  0x37b60f4E9A31A64cCc0024dce7D0fD07eAA0F7B3 */\n      add\n      swap2\n    tag_816:\n      dup14\n      dup3\n      dup5\n      lt\n      tag_817\n      jumpi\n      pop\n      pop\n      pop\n      pop\n      swap2\n        /* \"contracts/FutarchyArbExecutorV5.sol\":5111:41903  contract FutarchyArbExecutorV5 {... */\n      0x80\n      0x20\n        /* \"contracts/FutarchyArbExecutorV5.sol\":6225:6267  0x37b60f4E9A31A64cCc0024dce7D0fD07eAA0F7B3 */\n      swap5\n      swap3\n      dup6\n      swap5\n      dup6\n      dup5\n      add\n      mstore\n        /* \"contracts/FutarchyArbExecutorV5.sol\":5111:41903  contract FutarchyArbExecutorV5 {... */\n      0x60\n        /* \"contracts/FutarchyArbExecutorV5.sol\":6225:6267  0x37b60f4E9A31A64cCc0024dce7D0fD07eAA0F7B3 */\n      dup2\n      add\n        /* \"contracts/FutarchyArbExecutorV5.sol\":5111:41903  contract FutarchyArbExecutorV5 {... */\n      calldataload\n      0x40\n        /* \"contracts/FutarchyArbExecutorV5.sol\":6225:6267  0x37b60f4E9A31A64cCc0024dce7D0fD07eAA0F7B3 */\n      dup5\n      add\n      mstore\n      add\n        /* \"contracts/FutarchyArbExecutorV5.sol\":5111:41903  contract FutarchyArbExecutorV5 {... */\n      calldataload\n      0x60\n        /* \"contracts/FutarchyArbExecutorV5.sol\":6225:6267  0x37b60f4E9A31A64cCc0024dce7D0fD07eAA0F7B3 */\n      dup3\n      add\n      mstore\n      dup2\n      mstore\n      add\n      swap4\n      add\n      swap3\n      jump(tag_749)\n    tag_817:\n      dup4\n        /* \"contracts/FutarchyArbExecutorV5.sol\":5111:41903  contract FutarchyArbExecutorV5 {... */\n      0x60\n        /* \"contracts/FutarchyArbExecutorV5.sol\":6225:6267  0x37b60f4E9A31A64cCc0024dce7D0fD07eAA0F7B3 */\n      swap2\n      sub\n      slt\n      tag_85\n      jumpi\n        /* \"contracts/FutarchyArbExecutorV5.sol\":5111:41903  contract FutarchyArbExecutorV5 {... */\n      mload(0x40)\n      swap1\n      0x60\n      dup3\n      add\n      swap1\n      dup3\n      dup3\n      lt\n      sub(shl(0x40, 0x01), 0x01)\n      dup4\n      gt\n      or\n      tag_821\n      jumpi\n      0x60\n      swap3\n      0x20\n      swap3\n      0x40\n      mstore\n      tag_823\n      dup7\n      tag_11\n      jump\t// in\n    tag_823:\n        /* \"contracts/FutarchyArbExecutorV5.sol\":6225:6267  0x37b60f4E9A31A64cCc0024dce7D0fD07eAA0F7B3 */\n      dup2\n      mstore\n        /* \"contracts/FutarchyArbExecutorV5.sol\":5111:41903  contract FutarchyArbExecutorV5 {... */\n      tag_824\n        /* \"contracts/FutarchyArbExecutorV5.sol\":6225:6267  0x37b60f4E9A31A64cCc0024dce7D0fD07eAA0F7B3 */\n      dup4\n      dup8\n      add\n        /* \"contracts/FutarchyArbExecutorV5.sol\":5111:41903  contract FutarchyArbExecutorV5 {... */\n      tag_11\n      jump\t// in\n    tag_824:\n        /* \"contracts/FutarchyArbExecutorV5.sol\":6225:6267  0x37b60f4E9A31A64cCc0024dce7D0fD07eAA0F7B3 */\n      dup4\n      dup3\n      add\n      mstore\n        /* \"contracts/FutarchyArbExecutorV5.sol\":5111:41903  contract FutarchyArbExecutorV5 {... */\n      tag_825\n      0x40\n        /* \"contracts/FutarchyArbExecutorV5.sol\":6225:6267  0x37b60f4E9A31A64cCc0024dce7D0fD07eAA0F7B3 */\n      dup8\n      add\n        /* \"contracts/FutarchyArbExecutorV5.sol\":5111:41903  contract FutarchyArbExecutorV5 {... */\n      tag_15\n      jump\t// in\n    tag_825:\n      0x40\n        /* \"contracts/FutarchyArbExecutorV5.sol\":6225:6267  0x37b60f4E9A31A64cCc0024dce7D0fD07eAA0F7B3 */\n      dup3\n      add\n      mstore\n      dup2\n      mstore\n      add\n      swap3\n      add\n      swap2\n      jump(tag_816)\n        /* \"contracts/FutarchyArbExecutorV5.sol\":5111:41903  contract FutarchyArbExecutorV5 {... */\n    tag_821:\n      mstore(mload(0x0100), shl(0xe0, 0x4e487b71))\n      mstore(0x04, 0x41)\n      revert(mload(0x0100), 0x24)\n        /* \"contracts/FutarchyArbExecutorV5.sol\":34832:34915  if (balancer_vault != address(0)) _ensureMaxAllowance(IERC20(comp), balancer_vault) */\n    tag_735:\n        /* \"contracts/FutarchyArbExecutorV5.sol\":34900:34914  balancer_vault */\n      tag_826\n      swap1\n      sub(shl(0xa0, 0x01), 0x01)\n        /* \"contracts/FutarchyArbExecutorV5.sol\":5111:41903  contract FutarchyArbExecutorV5 {... */\n      dup7\n      and\n        /* \"contracts/FutarchyArbExecutorV5.sol\":34900:34914  balancer_vault */\n      tag_51\n      jump\t// in\n    tag_826:\n        /* \"contracts/FutarchyArbExecutorV5.sol\":34832:34915  if (balancer_vault != address(0)) _ensureMaxAllowance(IERC20(comp), balancer_vault) */\n      dup8\n      jump(tag_736)\n        /* \"contracts/FutarchyArbExecutorV5.sol\":33476:33969  if (mergeAmt > 0) {... */\n    tag_669:\n        /* \"contracts/FutarchyArbExecutorV5.sol\":33684:33699  futarchy_router */\n      tag_827\n      swap2\n        /* \"contracts/FutarchyArbExecutorV5.sol\":5111:41903  contract FutarchyArbExecutorV5 {... */\n      dup4\n      swap2\n        /* \"contracts/FutarchyArbExecutorV5.sol\":33617:33632  futarchy_router */\n      tag_536\n      swap1\n        /* \"contracts/FutarchyArbExecutorV5.sol\":5111:41903  contract FutarchyArbExecutorV5 {... */\n      dup4\n      swap1\n      sub(shl(0xa0, 0x01), 0x01)\n      and\n        /* \"contracts/FutarchyArbExecutorV5.sol\":33617:33632  futarchy_router */\n      tag_51\n      jump\t// in\n        /* \"contracts/FutarchyArbExecutorV5.sol\":33684:33699  futarchy_router */\n    tag_827:\n      sub(shl(0xa0, 0x01), 0x01)\n        /* \"contracts/FutarchyArbExecutorV5.sol\":5111:41903  contract FutarchyArbExecutorV5 {... */\n      dup2\n      and\n        /* \"contracts/FutarchyArbExecutorV5.sol\":33714:33787  IFutarchyRouter(futarchy_router).mergePositions(proposal, comp, mergeAmt) */\n      extcodesize\n      iszero\n      tag_85\n      jumpi\n        /* \"contracts/FutarchyArbExecutorV5.sol\":5111:41903  contract FutarchyArbExecutorV5 {... */\n      mload(0x40)\n      shl(0xe0, 0x7abef8d1)\n        /* \"contracts/FutarchyArbExecutorV5.sol\":33714:33787  IFutarchyRouter(futarchy_router).mergePositions(proposal, comp, mergeAmt) */\n      dup2\n      mstore\n        /* \"contracts/FutarchyArbExecutorV5.sol\":5111:41903  contract FutarchyArbExecutorV5 {... */\n      mload(0x0100)\n      dup2\n      dup1\n        /* \"contracts/FutarchyArbExecutorV5.sol\":33714:33787  IFutarchyRouter(futarchy_router).mergePositions(proposal, comp, mergeAmt) */\n      tag_831\n      dup9\n      dup13\n      dup9\n        /* \"contracts/FutarchyArbExecutorV5.sol\":5111:41903  contract FutarchyArbExecutorV5 {... */\n      0x04\n        /* \"contracts/FutarchyArbExecutorV5.sol\":33714:33787  IFutarchyRouter(futarchy_router).mergePositions(proposal, comp, mergeAmt) */\n      dup6\n      add\n      tag_25\n      jump\t// in\n    tag_831:\n      sub\n        /* \"contracts/FutarchyArbExecutorV5.sol\":5111:41903  contract FutarchyArbExecutorV5 {... */\n      dup2\n      mload(0x0100)\n      0x01\n      dup1\n      0xa0\n      shl\n      sub\n      dup8\n      and\n        /* \"contracts/FutarchyArbExecutorV5.sol\":33714:33787  IFutarchyRouter(futarchy_router).mergePositions(proposal, comp, mergeAmt) */\n      gas\n      call\n      dup1\n      iszero\n      tag_153\n      jumpi\n      tag_834\n      jumpi\n        /* \"contracts/FutarchyArbExecutorV5.sol\":33476:33969  if (mergeAmt > 0) {... */\n    tag_835:\n      pop\n        /* \"contracts/FutarchyArbExecutorV5.sol\":5111:41903  contract FutarchyArbExecutorV5 {... */\n      mload(0x40)\n      dup5\n      dup2\n      mstore\n      sub(shl(0xa0, 0x01), 0x01)\n      dup9\n      dup2\n      and\n      swap4\n      dup2\n      and\n      swap3\n      and\n      swap1\n      mload(0x00)\n      codecopy(0x00, data_c5aaa74a06ee65ab0e09cb193417f995c1069cf1fd250a86afdf2022e97f16ad, 0x20)\n      mload(0x00)\n      swap1\n      0x00\n      mstore\n        /* \"contracts/FutarchyArbExecutorV5.sol\":33888:33958  ConditionalCollateralMerged(futarchy_router, proposal, comp, mergeAmt) */\n      swap1\n        /* \"contracts/FutarchyArbExecutorV5.sol\":5111:41903  contract FutarchyArbExecutorV5 {... */\n      0x20\n      swap1\n        /* \"contracts/FutarchyArbExecutorV5.sol\":33888:33958  ConditionalCollateralMerged(futarchy_router, proposal, comp, mergeAmt) */\n      log4\n        /* \"contracts/FutarchyArbExecutorV5.sol\":33476:33969  if (mergeAmt > 0) {... */\n      dup9\n      dup1\n      dup1\n      dup1\n      jump(tag_670)\n        /* \"contracts/FutarchyArbExecutorV5.sol\":33714:33787  IFutarchyRouter(futarchy_router).mergePositions(proposal, comp, mergeAmt) */\n    tag_834:\n        /* \"contracts/FutarchyArbExecutorV5.sol\":5111:41903  contract FutarchyArbExecutorV5 {... */\n      mload(0x0100)\n        /* \"contracts/FutarchyArbExecutorV5.sol\":33714:33787  IFutarchyRouter(futarchy_router).mergePositions(proposal, comp, mergeAmt) */\n      tag_836\n      swap2\n      tag_18\n      jump\t// in\n    tag_836:\n        /* \"contracts/FutarchyArbExecutorV5.sol\":5111:41903  contract FutarchyArbExecutorV5 {... */\n      jumpi(tag_85, mload(0x0100))\n        /* \"contracts/FutarchyArbExecutorV5.sol\":33714:33787  IFutarchyRouter(futarchy_router).mergePositions(proposal, comp, mergeAmt) */\n      dup11\n      jump(tag_835)\n        /* \"contracts/FutarchyArbExecutorV5.sol\":33419:33466  yesCompBal < noCompBal ? yesCompBal : noCompBal */\n    tag_666:\n      swap1\n      pop\n      swap5\n      jump(tag_668)\n        /* \"contracts/FutarchyArbExecutorV5.sol\":33350:33390  IERC20(no_comp).balanceOf(address(this)) */\n    tag_664:\n      swap1\n      pop\n        /* \"contracts/FutarchyArbExecutorV5.sol\":5111:41903  contract FutarchyArbExecutorV5 {... */\n      0x20\n        /* \"contracts/FutarchyArbExecutorV5.sol\":33350:33390  IERC20(no_comp).balanceOf(address(this)) */\n      dup2\n      returndatasize\n        /* \"contracts/FutarchyArbExecutorV5.sol\":5111:41903  contract FutarchyArbExecutorV5 {... */\n      0x20\n        /* \"contracts/FutarchyArbExecutorV5.sol\":33350:33390  IERC20(no_comp).balanceOf(address(this)) */\n      gt\n      tag_839\n      jumpi\n    tag_840:\n      dup2\n      tag_841\n        /* \"contracts/FutarchyArbExecutorV5.sol\":5111:41903  contract FutarchyArbExecutorV5 {... */\n      0x20\n        /* \"contracts/FutarchyArbExecutorV5.sol\":33350:33390  IERC20(no_comp).balanceOf(address(this)) */\n      swap4\n      dup4\n      tag_18\n      jump\t// in\n    tag_841:\n      dup2\n      add\n        /* \"contracts/FutarchyArbExecutorV5.sol\":5111:41903  contract FutarchyArbExecutorV5 {... */\n      sub\n      slt\n      tag_166\n      jumpi\n      mload\n        /* \"contracts/FutarchyArbExecutorV5.sol\":33350:33390  IERC20(no_comp).balanceOf(address(this)) */\n      dup14\n      jump(tag_665)\n    tag_839:\n      returndatasize\n      swap2\n      pop\n      jump(tag_840)\n        /* \"contracts/FutarchyArbExecutorV5.sol\":33279:33320  IERC20(yes_comp).balanceOf(address(this)) */\n    tag_660:\n      swap1\n      pop\n        /* \"contracts/FutarchyArbExecutorV5.sol\":5111:41903  contract FutarchyArbExecutorV5 {... */\n      0x20\n        /* \"contracts/FutarchyArbExecutorV5.sol\":33279:33320  IERC20(yes_comp).balanceOf(address(this)) */\n      dup2\n      returndatasize\n        /* \"contracts/FutarchyArbExecutorV5.sol\":5111:41903  contract FutarchyArbExecutorV5 {... */\n      0x20\n        /* \"contracts/FutarchyArbExecutorV5.sol\":33279:33320  IERC20(yes_comp).balanceOf(address(this)) */\n      gt\n      tag_844\n      jumpi\n    tag_845:\n      dup2\n      tag_846\n        /* \"contracts/FutarchyArbExecutorV5.sol\":5111:41903  contract FutarchyArbExecutorV5 {... */\n      0x20\n        /* \"contracts/FutarchyArbExecutorV5.sol\":33279:33320  IERC20(yes_comp).balanceOf(address(this)) */\n      swap4\n      dup4\n      tag_18\n      jump\t// in\n    tag_846:\n      dup2\n      add\n        /* \"contracts/FutarchyArbExecutorV5.sol\":5111:41903  contract FutarchyArbExecutorV5 {... */\n      sub\n      slt\n      tag_166\n      jumpi\n      mload\n        /* \"contracts/FutarchyArbExecutorV5.sol\":33279:33320  IERC20(yes_comp).balanceOf(address(this)) */\n      dup13\n      jump(tag_661)\n    tag_844:\n      returndatasize\n      swap2\n      pop\n      jump(tag_845)\n        /* \"contracts/FutarchyArbExecutorV5.sol\":32445:33005  if (yes_has_higher_price) {... */\n    tag_651:\n        /* \"contracts/FutarchyArbExecutorV5.sol\":32776:32839  _swaprExactIn(swapr_router, no_cur, no_comp, amount_sdai_in, 0) */\n      tag_849\n        /* \"contracts/FutarchyArbExecutorV5.sol\":5111:41903  contract FutarchyArbExecutorV5 {... */\n      swap4\n      swap5\n      pop\n      calldataload(0x01e4)\n        /* \"contracts/FutarchyArbExecutorV5.sol\":32776:32839  _swaprExactIn(swapr_router, no_cur, no_comp, amount_sdai_in, 0) */\n      swap3\n      tag_52\n      jump\t// in\n    tag_849:\n        /* \"contracts/FutarchyArbExecutorV5.sol\":32857:32871  noCompOut == 0 */\n      swap1\n      dup2\n      iszero\n        /* \"contracts/FutarchyArbExecutorV5.sol\":32853:32898  if (noCompOut == 0) revert SwapReturnedZero() */\n      tag_464\n      jumpi\n        /* \"contracts/FutarchyArbExecutorV5.sol\":32912:32994  _swaprExactOut(swapr_router, yes_cur, yes_comp, yesFee, noCompOut, amount_sdai_in) */\n      tag_852\n        /* \"contracts/FutarchyArbExecutorV5.sol\":5111:41903  contract FutarchyArbExecutorV5 {... */\n      swap2\n      dup13\n      swap2\n      dup9\n      calldataload(0x01e4)\n        /* \"contracts/FutarchyArbExecutorV5.sol\":32912:32994  _swaprExactOut(swapr_router, yes_cur, yes_comp, yesFee, noCompOut, amount_sdai_in) */\n      swap4\n      mload(0x80)\n      swap1\n      tag_54\n      jump\t// in\n    tag_852:\n      pop\n        /* \"contracts/FutarchyArbExecutorV5.sol\":32445:33005  if (yes_has_higher_price) {... */\n      jump(tag_657)\n        /* \"contracts/FutarchyArbExecutorV5.sol\":32197:32236  IERC20(no_cur).balanceOf(address(this)) */\n    tag_645:\n      swap1\n      pop\n        /* \"contracts/FutarchyArbExecutorV5.sol\":5111:41903  contract FutarchyArbExecutorV5 {... */\n      0x20\n        /* \"contracts/FutarchyArbExecutorV5.sol\":32197:32236  IERC20(no_cur).balanceOf(address(this)) */\n      dup2\n      returndatasize\n        /* \"contracts/FutarchyArbExecutorV5.sol\":5111:41903  contract FutarchyArbExecutorV5 {... */\n      0x20\n        /* \"contracts/FutarchyArbExecutorV5.sol\":32197:32236  IERC20(no_cur).balanceOf(address(this)) */\n      gt\n      tag_853\n      jumpi\n    tag_854:\n      dup2\n      tag_855\n        /* \"contracts/FutarchyArbExecutorV5.sol\":5111:41903  contract FutarchyArbExecutorV5 {... */\n      0x20\n        /* \"contracts/FutarchyArbExecutorV5.sol\":32197:32236  IERC20(no_cur).balanceOf(address(this)) */\n      swap4\n      dup4\n      tag_18\n      jump\t// in\n    tag_855:\n      dup2\n      add\n        /* \"contracts/FutarchyArbExecutorV5.sol\":5111:41903  contract FutarchyArbExecutorV5 {... */\n      sub\n      slt\n      tag_166\n      jumpi\n      mload\n        /* \"contracts/FutarchyArbExecutorV5.sol\":32197:32236  IERC20(no_cur).balanceOf(address(this)) */\n      dup15\n      jump(tag_646)\n    tag_853:\n      returndatasize\n      swap2\n      pop\n      jump(tag_854)\n        /* \"contracts/FutarchyArbExecutorV5.sol\":32096:32136  IERC20(yes_cur).balanceOf(address(this)) */\n    tag_639:\n      swap1\n      pop\n        /* \"contracts/FutarchyArbExecutorV5.sol\":5111:41903  contract FutarchyArbExecutorV5 {... */\n      0x20\n        /* \"contracts/FutarchyArbExecutorV5.sol\":32096:32136  IERC20(yes_cur).balanceOf(address(this)) */\n      dup2\n      returndatasize\n        /* \"contracts/FutarchyArbExecutorV5.sol\":5111:41903  contract FutarchyArbExecutorV5 {... */\n      0x20\n        /* \"contracts/FutarchyArbExecutorV5.sol\":32096:32136  IERC20(yes_cur).balanceOf(address(this)) */\n      gt\n      tag_858\n      jumpi\n    tag_859:\n      dup2\n      tag_860\n        /* \"contracts/FutarchyArbExecutorV5.sol\":5111:41903  contract FutarchyArbExecutorV5 {... */\n      0x20\n        /* \"contracts/FutarchyArbExecutorV5.sol\":32096:32136  IERC20(yes_cur).balanceOf(address(this)) */\n      swap4\n      dup4\n      tag_18\n      jump\t// in\n    tag_860:\n      dup2\n      add\n        /* \"contracts/FutarchyArbExecutorV5.sol\":5111:41903  contract FutarchyArbExecutorV5 {... */\n      sub\n      slt\n      tag_166\n      jumpi\n      mload\n        /* \"contracts/FutarchyArbExecutorV5.sol\":32096:32136  IERC20(yes_cur).balanceOf(address(this)) */\n      dup15\n      jump(tag_640)\n    tag_858:\n      returndatasize\n      swap2\n      pop\n      jump(tag_859)\n        /* \"contracts/FutarchyArbExecutorV5.sol\":31836:31913  IFutarchyRouter(futarchy_router).splitPosition(proposal, cur, amount_sdai_in) */\n    tag_635:\n        /* \"contracts/FutarchyArbExecutorV5.sol\":5111:41903  contract FutarchyArbExecutorV5 {... */\n      mload(0x0100)\n        /* \"contracts/FutarchyArbExecutorV5.sol\":31836:31913  IFutarchyRouter(futarchy_router).splitPosition(proposal, cur, amount_sdai_in) */\n      tag_863\n      swap2\n      tag_18\n      jump\t// in\n    tag_863:\n        /* \"contracts/FutarchyArbExecutorV5.sol\":5111:41903  contract FutarchyArbExecutorV5 {... */\n      jumpi(tag_85, mload(0x0100))\n        /* \"contracts/FutarchyArbExecutorV5.sol\":31836:31913  IFutarchyRouter(futarchy_router).splitPosition(proposal, cur, amount_sdai_in) */\n      dup14\n      jump(tag_636)\n        /* \"contracts/FutarchyArbExecutorV5.sol\":31597:31672  yes_cur == address(0) || no_cur == address(0) || swapr_router == address(0) */\n    tag_625:\n      pop\n      sub(shl(0xa0, 0x01), 0x01)\n        /* \"contracts/FutarchyArbExecutorV5.sol\":5111:41903  contract FutarchyArbExecutorV5 {... */\n      dup13\n      and\n        /* \"contracts/FutarchyArbExecutorV5.sol\":31646:31672  swapr_router == address(0) */\n      iszero\n        /* \"contracts/FutarchyArbExecutorV5.sol\":31597:31672  yes_cur == address(0) || no_cur == address(0) || swapr_router == address(0) */\n      jump(tag_626)\n        /* \"contracts/FutarchyArbExecutorV5.sol\":31597:31642  yes_cur == address(0) || no_cur == address(0) */\n    tag_623:\n      pop\n      sub(shl(0xa0, 0x01), 0x01)\n        /* \"contracts/FutarchyArbExecutorV5.sol\":5111:41903  contract FutarchyArbExecutorV5 {... */\n      dup14\n      and\n        /* \"contracts/FutarchyArbExecutorV5.sol\":31622:31642  no_cur == address(0) */\n      iszero\n        /* \"contracts/FutarchyArbExecutorV5.sol\":31597:31642  yes_cur == address(0) || no_cur == address(0) */\n      jump(tag_624)\n        /* \"contracts/FutarchyArbExecutorV5.sol\":31493:31561  cur == address(0) || yes_comp == address(0) || no_comp == address(0) */\n    tag_619:\n      pop\n      sub(shl(0xa0, 0x01), 0x01)\n        /* \"contracts/FutarchyArbExecutorV5.sol\":5111:41903  contract FutarchyArbExecutorV5 {... */\n      dup4\n      and\n        /* \"contracts/FutarchyArbExecutorV5.sol\":31540:31561  no_comp == address(0) */\n      iszero\n        /* \"contracts/FutarchyArbExecutorV5.sol\":31493:31561  cur == address(0) || yes_comp == address(0) || no_comp == address(0) */\n      jump(tag_620)\n        /* \"contracts/FutarchyArbExecutorV5.sol\":31493:31536  cur == address(0) || yes_comp == address(0) */\n    tag_617:\n      pop\n      sub(shl(0xa0, 0x01), 0x01)\n        /* \"contracts/FutarchyArbExecutorV5.sol\":5111:41903  contract FutarchyArbExecutorV5 {... */\n      dup8\n      and\n        /* \"contracts/FutarchyArbExecutorV5.sol\":31514:31536  yes_comp == address(0) */\n      iszero\n        /* \"contracts/FutarchyArbExecutorV5.sol\":31493:31536  cur == address(0) || yes_comp == address(0) */\n      jump(tag_618)\n        /* \"contracts/FutarchyArbExecutorV5.sol\":31393:31448  futarchy_router == address(0) || proposal == address(0) */\n    tag_613:\n      pop\n      sub(shl(0xa0, 0x01), 0x01)\n        /* \"contracts/FutarchyArbExecutorV5.sol\":5111:41903  contract FutarchyArbExecutorV5 {... */\n      dup6\n      and\n        /* \"contracts/FutarchyArbExecutorV5.sol\":31426:31448  proposal == address(0) */\n      iszero\n        /* \"contracts/FutarchyArbExecutorV5.sol\":31393:31448  futarchy_router == address(0) || proposal == address(0) */\n      jump(tag_614)\n        /* \"contracts/FutarchyArbExecutorV5.sol\":31288:31324  IERC20(cur).balanceOf(address(this)) */\n    tag_609:\n        /* \"contracts/FutarchyArbExecutorV5.sol\":5111:41903  contract FutarchyArbExecutorV5 {... */\n      0x20\n        /* \"contracts/FutarchyArbExecutorV5.sol\":31288:31324  IERC20(cur).balanceOf(address(this)) */\n      dup2\n      returndatasize\n        /* \"contracts/FutarchyArbExecutorV5.sol\":5111:41903  contract FutarchyArbExecutorV5 {... */\n      0x20\n        /* \"contracts/FutarchyArbExecutorV5.sol\":31288:31324  IERC20(cur).balanceOf(address(this)) */\n      gt\n      tag_866\n      jumpi\n    tag_867:\n      dup2\n      tag_868\n        /* \"contracts/FutarchyArbExecutorV5.sol\":5111:41903  contract FutarchyArbExecutorV5 {... */\n      0x20\n        /* \"contracts/FutarchyArbExecutorV5.sol\":31288:31324  IERC20(cur).balanceOf(address(this)) */\n      swap4\n      dup4\n      tag_18\n      jump\t// in\n    tag_868:\n      dup2\n      add\n        /* \"contracts/FutarchyArbExecutorV5.sol\":5111:41903  contract FutarchyArbExecutorV5 {... */\n      sub\n      slt\n      tag_166\n      jumpi\n      mload\n        /* \"contracts/FutarchyArbExecutorV5.sol\":31288:31324  IERC20(cur).balanceOf(address(this)) */\n      0xa0\n      mstore\n      dup14\n      jump(tag_610)\n    tag_866:\n      returndatasize\n      swap2\n      pop\n      jump(tag_867)\n        /* \"contracts/FutarchyArbExecutorV5.sol\":5111:41903  contract FutarchyArbExecutorV5 {... */\n    tag_71:\n      jumpi(tag_166, callvalue)\n      tag_873\n      calldatasize\n      tag_14\n      jump\t// in\n    tag_873:\n      swap14\n      swap2\n      swap9\n      swap10\n      swap5\n      swap3\n      swap8\n      swap6\n      swap4\n      swap13\n      0x01\n      dup1\n      0xa0\n      swap15\n      swap4\n      swap14\n      swap15\n      shl\n      sub\n      sload(0x00)\n      and\n        /* \"contracts/FutarchyArbExecutorV5.sol\":24554:24564  msg.sender */\n      caller\n        /* \"contracts/FutarchyArbExecutorV5.sol\":24554:24573  msg.sender != owner */\n      sub\n        /* \"contracts/FutarchyArbExecutorV5.sol\":24550:24592  if (msg.sender != owner) revert NotOwner() */\n      tag_874\n      jumpi\n        /* \"contracts/FutarchyArbExecutorV5.sol\":5111:41903  contract FutarchyArbExecutorV5 {... */\n      mload(0x40)\n      shl(0xe0, 0x70a08231)\n        /* \"contracts/FutarchyArbExecutorV5.sol\":37368:37404  IERC20(cur).balanceOf(address(this)) */\n      dup2\n      mstore\n        /* \"contracts/FutarchyArbExecutorV5.sol\":37398:37402  this */\n      address\n        /* \"contracts/FutarchyArbExecutorV5.sol\":5111:41903  contract FutarchyArbExecutorV5 {... */\n      0x04\n        /* \"contracts/FutarchyArbExecutorV5.sol\":37368:37404  IERC20(cur).balanceOf(address(this)) */\n      dup3\n      add\n        /* \"contracts/FutarchyArbExecutorV5.sol\":5111:41903  contract FutarchyArbExecutorV5 {... */\n      mstore\n      swap13\n      dup14\n      dup1\n      sub(shl(0xa0, 0x01), 0x01)\n      dup15\n      and\n        /* \"contracts/FutarchyArbExecutorV5.sol\":37368:37404  IERC20(cur).balanceOf(address(this)) */\n      gas\n      swap3\n      0x24\n      swap2\n        /* \"contracts/FutarchyArbExecutorV5.sol\":5111:41903  contract FutarchyArbExecutorV5 {... */\n      0x20\n        /* \"contracts/FutarchyArbExecutorV5.sol\":37368:37404  IERC20(cur).balanceOf(address(this)) */\n      swap5\n      staticcall\n      swap14\n      dup15\n      iszero\n      tag_262\n      jumpi\n        /* \"contracts/FutarchyArbExecutorV5.sol\":5111:41903  contract FutarchyArbExecutorV5 {... */\n      0x00\n        /* \"contracts/FutarchyArbExecutorV5.sol\":37368:37404  IERC20(cur).balanceOf(address(this)) */\n      swap15\n      tag_878\n      jumpi\n        /* \"contracts/FutarchyArbExecutorV5.sol\":5111:41903  contract FutarchyArbExecutorV5 {... */\n    tag_879:\n      pop\n      mload(0x40)\n      dup15\n      dup2\n      mstore\n      sub(shl(0xa0, 0x01), 0x01)\n      dup14\n      and\n      swap1\n        /* \"contracts/FutarchyArbExecutorV5.sol\":37419:37470  InitialCollateralSnapshot(cur, initial_cur_balance) */\n      0xb2f03ce105b3cd1f9fccfa1de78c921cd3ad2f01048d3a832c7ebb893fd347b9\n      swap1\n        /* \"contracts/FutarchyArbExecutorV5.sol\":5111:41903  contract FutarchyArbExecutorV5 {... */\n      0x20\n      swap1\n        /* \"contracts/FutarchyArbExecutorV5.sol\":37419:37470  InitialCollateralSnapshot(cur, initial_cur_balance) */\n      log2\n        /* \"contracts/FutarchyArbExecutorV5.sol\":37588:37603  balancer_router */\n      tag_880\n        /* \"contracts/FutarchyArbExecutorV5.sol\":5111:41903  contract FutarchyArbExecutorV5 {... */\n      dup4\n      sub(shl(0xa0, 0x01), 0x01)\n      dup15\n      and\n        /* \"contracts/FutarchyArbExecutorV5.sol\":37588:37603  balancer_router */\n      tag_45\n      jump\t// in\n    tag_880:\n      sub(shl(0xa0, 0x01), 0x01)\n        /* \"contracts/FutarchyArbExecutorV5.sol\":5111:41903  contract FutarchyArbExecutorV5 {... */\n      dup2\n      and\n        /* \"contracts/FutarchyArbExecutorV5.sol\":37614:37696  if (balancer_vault != address(0)) _ensureMaxAllowance(IERC20(cur), balancer_vault) */\n      tag_881\n      jumpi\n        /* \"contracts/FutarchyArbExecutorV5.sol\":5111:41903  contract FutarchyArbExecutorV5 {... */\n    tag_882:\n      pop\n      0x00\n      dup1\n      mload(0x40)\n      dup4\n      dup7\n      dup3\n      calldatacopy\n      dup1\n      dup5\n      dup2\n      add\n      dup4\n      dup2\n      mstore\n        /* \"contracts/FutarchyArbExecutorV5.sol\":37760:37797  balancer_router.call(buy_company_ops) */\n      sub\n      swap1\n      dup3\n      dup7\n      gas\n      call\n      tag_883\n      tag_22\n      jump\t// in\n    tag_883:\n      pop\n        /* \"contracts/FutarchyArbExecutorV5.sol\":37811:37814  !ok */\n      iszero\n        /* \"contracts/FutarchyArbExecutorV5.sol\":37807:37843  if (!ok) revert BalancerSwapFailed() */\n      tag_884\n      jumpi\n        /* \"contracts/FutarchyArbExecutorV5.sol\":37858:37911  BalancerBuyExecuted(balancer_router, buy_company_ops) */\n      0x039f1e3426eb05ff8263467f0ccd63de0af468a20960885b56ee6fbb53ac1be6\n        /* \"contracts/FutarchyArbExecutorV5.sol\":5111:41903  contract FutarchyArbExecutorV5 {... */\n      swap2\n        /* \"contracts/FutarchyArbExecutorV5.sol\":37858:37911  BalancerBuyExecuted(balancer_router, buy_company_ops) */\n      tag_886\n        /* \"contracts/FutarchyArbExecutorV5.sol\":5111:41903  contract FutarchyArbExecutorV5 {... */\n      mload(0x40)\n      swap3\n      dup4\n      swap3\n      0x01\n      dup1\n      0xa0\n      shl\n      sub\n      and\n        /* \"contracts/FutarchyArbExecutorV5.sol\":37858:37911  BalancerBuyExecuted(balancer_router, buy_company_ops) */\n      swap6\n      dup4\n      tag_23\n      jump\t// in\n    tag_886:\n      sub\n      swap1\n      log2\n        /* \"contracts/FutarchyArbExecutorV5.sol\":5111:41903  contract FutarchyArbExecutorV5 {... */\n      mload(0x40)\n      shl(0xe0, 0x70a08231)\n        /* \"contracts/FutarchyArbExecutorV5.sol\":37997:38034  IERC20(comp).balanceOf(address(this)) */\n      dup2\n      mstore\n        /* \"contracts/FutarchyArbExecutorV5.sol\":37398:37402  this */\n      address\n        /* \"contracts/FutarchyArbExecutorV5.sol\":5111:41903  contract FutarchyArbExecutorV5 {... */\n      0x04\n        /* \"contracts/FutarchyArbExecutorV5.sol\":37997:38034  IERC20(comp).balanceOf(address(this)) */\n      dup3\n      add\n        /* \"contracts/FutarchyArbExecutorV5.sol\":5111:41903  contract FutarchyArbExecutorV5 {... */\n      mstore\n      sub(shl(0xa0, 0x01), 0x01)\n      dup5\n      and\n      swap3\n      swap1\n      0x20\n      dup2\n        /* \"contracts/FutarchyArbExecutorV5.sol\":37368:37404  IERC20(cur).balanceOf(address(this)) */\n      0x24\n        /* \"contracts/FutarchyArbExecutorV5.sol\":5111:41903  contract FutarchyArbExecutorV5 {... */\n      dup2\n      dup8\n        /* \"contracts/FutarchyArbExecutorV5.sol\":37997:38034  IERC20(comp).balanceOf(address(this)) */\n      gas\n      staticcall\n      swap1\n      dup2\n      iszero\n      tag_262\n      jumpi\n        /* \"contracts/FutarchyArbExecutorV5.sol\":5111:41903  contract FutarchyArbExecutorV5 {... */\n      0x00\n        /* \"contracts/FutarchyArbExecutorV5.sol\":37997:38034  IERC20(comp).balanceOf(address(this)) */\n      swap2\n      tag_889\n      jumpi\n        /* \"contracts/FutarchyArbExecutorV5.sol\":5111:41903  contract FutarchyArbExecutorV5 {... */\n    tag_890:\n      pop\n      dup4\n        /* \"contracts/FutarchyArbExecutorV5.sol\":38049:38085  CompositeAcquired(comp, compBalance) */\n      0x7ea2559d46b5ca1045280b94e6bd226dc4c60c15c514f72d0fc10c788c80822d\n        /* \"contracts/FutarchyArbExecutorV5.sol\":5111:41903  contract FutarchyArbExecutorV5 {... */\n      0x20\n      mload(0x40)\n      dup5\n      dup2\n      mstore\n        /* \"contracts/FutarchyArbExecutorV5.sol\":38049:38085  CompositeAcquired(comp, compBalance) */\n      log2\n        /* \"contracts/FutarchyArbExecutorV5.sol\":38099:38115  compBalance == 0 */\n      dup1\n      iszero\n        /* \"contracts/FutarchyArbExecutorV5.sol\":38095:38135  if (compBalance == 0) revert NoBalance() */\n      tag_252\n      jumpi\n      sub(shl(0xa0, 0x01), 0x01)\n        /* \"contracts/FutarchyArbExecutorV5.sol\":5111:41903  contract FutarchyArbExecutorV5 {... */\n      dup7\n      and\n      swap5\n        /* \"contracts/FutarchyArbExecutorV5.sol\":38206:38235  futarchy_router != address(0) */\n      dup6\n      iszero\n      iszero\n      swap5\n        /* \"contracts/FutarchyArbExecutorV5.sol\":5111:41903  contract FutarchyArbExecutorV5 {... */\n      dup8\n      swap1\n        /* \"contracts/FutarchyArbExecutorV5.sol\":38206:38235  futarchy_router != address(0) */\n      dup7\n      dup1\n        /* \"contracts/FutarchyArbExecutorV5.sol\":38206:38261  futarchy_router != address(0) && proposal != address(0) */\n      tag_893\n      jumpi\n        /* \"contracts/FutarchyArbExecutorV5.sol\":5111:41903  contract FutarchyArbExecutorV5 {... */\n    tag_894:\n        /* \"contracts/FutarchyArbExecutorV5.sol\":38202:38608  if (futarchy_router != address(0) && proposal != address(0)) {... */\n      iszero\n      tag_895\n      jumpi\n        /* \"contracts/FutarchyArbExecutorV5.sol\":38311:38326  futarchy_router */\n      swap1\n      tag_897\n      swap2\n      tag_51\n      jump\t// in\n    tag_897:\n        /* \"contracts/FutarchyArbExecutorV5.sol\":38341:38416  IFutarchyRouter(futarchy_router).splitPosition(proposal, comp, compBalance) */\n      dup6\n      extcodesize\n      iszero\n      tag_166\n      jumpi\n        /* \"contracts/FutarchyArbExecutorV5.sol\":5111:41903  contract FutarchyArbExecutorV5 {... */\n      mload(0x40)\n      shl(0xe7, 0x01abf045)\n        /* \"contracts/FutarchyArbExecutorV5.sol\":38341:38416  IFutarchyRouter(futarchy_router).splitPosition(proposal, comp, compBalance) */\n      dup2\n      mstore\n        /* \"contracts/FutarchyArbExecutorV5.sol\":5111:41903  contract FutarchyArbExecutorV5 {... */\n      swap2\n      0x00\n      swap2\n      dup4\n      swap2\n      dup3\n      swap2\n        /* \"contracts/FutarchyArbExecutorV5.sol\":38341:38416  IFutarchyRouter(futarchy_router).splitPosition(proposal, comp, compBalance) */\n      tag_900\n      swap2\n        /* \"contracts/FutarchyArbExecutorV5.sol\":5111:41903  contract FutarchyArbExecutorV5 {... */\n      swap1\n        /* \"contracts/FutarchyArbExecutorV5.sol\":38341:38416  IFutarchyRouter(futarchy_router).splitPosition(proposal, comp, compBalance) */\n      dup13\n        /* \"contracts/FutarchyArbExecutorV5.sol\":5111:41903  contract FutarchyArbExecutorV5 {... */\n      0x04\n        /* \"contracts/FutarchyArbExecutorV5.sol\":38341:38416  IFutarchyRouter(futarchy_router).splitPosition(proposal, comp, compBalance) */\n      dup6\n      add\n      tag_25\n      jump\t// in\n    tag_900:\n      sub\n      dup2\n      dup4\n      dup10\n      gas\n      call\n      dup1\n      iszero\n      tag_262\n      jumpi\n      tag_903\n      jumpi\n        /* \"contracts/FutarchyArbExecutorV5.sol\":38202:38608  if (futarchy_router != address(0) && proposal != address(0)) {... */\n    tag_904:\n      pop\n    tag_905:\n        /* \"contracts/FutarchyArbExecutorV5.sol\":5111:41903  contract FutarchyArbExecutorV5 {... */\n      mload(0x40)\n      shl(0xe0, 0x70a08231)\n        /* \"contracts/FutarchyArbExecutorV5.sol\":38740:38781  IERC20(yes_comp).balanceOf(address(this)) */\n      dup2\n      mstore\n        /* \"contracts/FutarchyArbExecutorV5.sol\":37398:37402  this */\n      address\n        /* \"contracts/FutarchyArbExecutorV5.sol\":5111:41903  contract FutarchyArbExecutorV5 {... */\n      0x04\n        /* \"contracts/FutarchyArbExecutorV5.sol\":38740:38781  IERC20(yes_comp).balanceOf(address(this)) */\n      dup3\n      add\n        /* \"contracts/FutarchyArbExecutorV5.sol\":5111:41903  contract FutarchyArbExecutorV5 {... */\n      mstore\n      0x20\n      dup2\n        /* \"contracts/FutarchyArbExecutorV5.sol\":37368:37404  IERC20(cur).balanceOf(address(this)) */\n      0x24\n        /* \"contracts/FutarchyArbExecutorV5.sol\":5111:41903  contract FutarchyArbExecutorV5 {... */\n      dup2\n      sub(shl(0xa0, 0x01), 0x01)\n      dup7\n      and\n        /* \"contracts/FutarchyArbExecutorV5.sol\":38740:38781  IERC20(yes_comp).balanceOf(address(this)) */\n      gas\n      staticcall\n      swap1\n      dup2\n      iszero\n      tag_153\n      jumpi\n        /* \"contracts/FutarchyArbExecutorV5.sol\":5111:41903  contract FutarchyArbExecutorV5 {... */\n      mload(0x0100)\n        /* \"contracts/FutarchyArbExecutorV5.sol\":38740:38781  IERC20(yes_comp).balanceOf(address(this)) */\n      swap2\n      tag_908\n      jumpi\n        /* \"contracts/FutarchyArbExecutorV5.sol\":38202:38608  if (futarchy_router != address(0) && proposal != address(0)) {... */\n    tag_909:\n        /* \"contracts/FutarchyArbExecutorV5.sol\":38795:38809  yesCompBal > 0 */\n      pop\n      dup13\n      dup2\n        /* \"contracts/FutarchyArbExecutorV5.sol\":38791:38872  if (yesCompBal > 0) _swaprExactIn(swapr_router, yes_comp, yes_cur, yesCompBal, 0) */\n      tag_910\n      jumpi\n        /* \"contracts/FutarchyArbExecutorV5.sol\":38202:38608  if (futarchy_router != address(0) && proposal != address(0)) {... */\n    tag_911:\n      pop\n      pop\n        /* \"contracts/FutarchyArbExecutorV5.sol\":5111:41903  contract FutarchyArbExecutorV5 {... */\n      mload(0x40)\n      shl(0xe0, 0x70a08231)\n        /* \"contracts/FutarchyArbExecutorV5.sol\":38902:38942  IERC20(no_comp).balanceOf(address(this)) */\n      dup2\n      mstore\n        /* \"contracts/FutarchyArbExecutorV5.sol\":37398:37402  this */\n      address\n        /* \"contracts/FutarchyArbExecutorV5.sol\":5111:41903  contract FutarchyArbExecutorV5 {... */\n      0x04\n        /* \"contracts/FutarchyArbExecutorV5.sol\":38902:38942  IERC20(no_comp).balanceOf(address(this)) */\n      dup3\n      add\n        /* \"contracts/FutarchyArbExecutorV5.sol\":5111:41903  contract FutarchyArbExecutorV5 {... */\n      mstore\n      swap1\n      pop\n      0x20\n      dup2\n        /* \"contracts/FutarchyArbExecutorV5.sol\":37368:37404  IERC20(cur).balanceOf(address(this)) */\n      0x24\n        /* \"contracts/FutarchyArbExecutorV5.sol\":5111:41903  contract FutarchyArbExecutorV5 {... */\n      dup2\n      sub(shl(0xa0, 0x01), 0x01)\n      dup7\n      and\n        /* \"contracts/FutarchyArbExecutorV5.sol\":38902:38942  IERC20(no_comp).balanceOf(address(this)) */\n      gas\n      staticcall\n      swap1\n      dup2\n      iszero\n      tag_153\n      jumpi\n        /* \"contracts/FutarchyArbExecutorV5.sol\":5111:41903  contract FutarchyArbExecutorV5 {... */\n      mload(0x0100)\n        /* \"contracts/FutarchyArbExecutorV5.sol\":38902:38942  IERC20(no_comp).balanceOf(address(this)) */\n      swap2\n      tag_914\n      jumpi\n        /* \"contracts/FutarchyArbExecutorV5.sol\":38202:38608  if (futarchy_router != address(0) && proposal != address(0)) {... */\n    tag_915:\n        /* \"contracts/FutarchyArbExecutorV5.sol\":38956:38969  noCompBal > 0 */\n      pop\n      dup7\n      dup2\n        /* \"contracts/FutarchyArbExecutorV5.sol\":38952:39029  if (noCompBal > 0) _swaprExactIn(swapr_router, no_comp, no_cur, noCompBal, 0) */\n      tag_916\n      jumpi\n        /* \"contracts/FutarchyArbExecutorV5.sol\":38202:38608  if (futarchy_router != address(0) && proposal != address(0)) {... */\n    tag_917:\n        /* \"contracts/FutarchyArbExecutorV5.sol\":39140:39195  futarchy_router != address(0) && proposal != address(0) */\n      pop\n      pop\n      pop\n      dup1\n      tag_918\n      jumpi\n        /* \"contracts/FutarchyArbExecutorV5.sol\":38202:38608  if (futarchy_router != address(0) && proposal != address(0)) {... */\n    tag_919:\n        /* \"contracts/FutarchyArbExecutorV5.sol\":39136:39874  if (futarchy_router != address(0) && proposal != address(0)) {... */\n      tag_920\n      jumpi\n        /* \"contracts/FutarchyArbExecutorV5.sol\":38202:38608  if (futarchy_router != address(0) && proposal != address(0)) {... */\n    tag_921:\n      pop\n      pop\n        /* \"contracts/FutarchyArbExecutorV5.sol\":5111:41903  contract FutarchyArbExecutorV5 {... */\n      mload(0x40)\n      shl(0xe0, 0x70a08231)\n        /* \"contracts/FutarchyArbExecutorV5.sol\":40098:40138  IERC20(yes_cur).balanceOf(address(this)) */\n      dup2\n      mstore\n        /* \"contracts/FutarchyArbExecutorV5.sol\":37398:37402  this */\n      address\n        /* \"contracts/FutarchyArbExecutorV5.sol\":5111:41903  contract FutarchyArbExecutorV5 {... */\n      0x04\n        /* \"contracts/FutarchyArbExecutorV5.sol\":40098:40138  IERC20(yes_cur).balanceOf(address(this)) */\n      dup3\n      add\n        /* \"contracts/FutarchyArbExecutorV5.sol\":5111:41903  contract FutarchyArbExecutorV5 {... */\n      mstore\n      swap2\n      swap1\n      pop\n      0x20\n      dup3\n        /* \"contracts/FutarchyArbExecutorV5.sol\":37368:37404  IERC20(cur).balanceOf(address(this)) */\n      0x24\n        /* \"contracts/FutarchyArbExecutorV5.sol\":5111:41903  contract FutarchyArbExecutorV5 {... */\n      dup2\n      sub(shl(0xa0, 0x01), 0x01)\n      dup12\n      and\n        /* \"contracts/FutarchyArbExecutorV5.sol\":40098:40138  IERC20(yes_cur).balanceOf(address(this)) */\n      gas\n      staticcall\n      swap2\n      dup3\n      iszero\n      tag_153\n      jumpi\n        /* \"contracts/FutarchyArbExecutorV5.sol\":5111:41903  contract FutarchyArbExecutorV5 {... */\n      mload(0x0100)\n        /* \"contracts/FutarchyArbExecutorV5.sol\":40098:40138  IERC20(yes_cur).balanceOf(address(this)) */\n      swap3\n      tag_924\n      jumpi\n        /* \"contracts/FutarchyArbExecutorV5.sol\":38202:38608  if (futarchy_router != address(0) && proposal != address(0)) {... */\n    tag_925:\n      pop\n        /* \"contracts/FutarchyArbExecutorV5.sol\":5111:41903  contract FutarchyArbExecutorV5 {... */\n      mload(0x40)\n      shl(0xe0, 0x70a08231)\n        /* \"contracts/FutarchyArbExecutorV5.sol\":40168:40207  IERC20(no_cur).balanceOf(address(this)) */\n      dup2\n      mstore\n        /* \"contracts/FutarchyArbExecutorV5.sol\":37398:37402  this */\n      address\n        /* \"contracts/FutarchyArbExecutorV5.sol\":5111:41903  contract FutarchyArbExecutorV5 {... */\n      0x04\n        /* \"contracts/FutarchyArbExecutorV5.sol\":40168:40207  IERC20(no_cur).balanceOf(address(this)) */\n      dup3\n      add\n        /* \"contracts/FutarchyArbExecutorV5.sol\":5111:41903  contract FutarchyArbExecutorV5 {... */\n      mstore\n      swap1\n      0x20\n      dup3\n        /* \"contracts/FutarchyArbExecutorV5.sol\":37368:37404  IERC20(cur).balanceOf(address(this)) */\n      0x24\n        /* \"contracts/FutarchyArbExecutorV5.sol\":5111:41903  contract FutarchyArbExecutorV5 {... */\n      dup2\n      sub(shl(0xa0, 0x01), 0x01)\n      dup6\n      and\n        /* \"contracts/FutarchyArbExecutorV5.sol\":40168:40207  IERC20(no_cur).balanceOf(address(this)) */\n      gas\n      staticcall\n      swap2\n      dup3\n      iszero\n      tag_153\n      jumpi\n        /* \"contracts/FutarchyArbExecutorV5.sol\":5111:41903  contract FutarchyArbExecutorV5 {... */\n      mload(0x0100)\n        /* \"contracts/FutarchyArbExecutorV5.sol\":40168:40207  IERC20(no_cur).balanceOf(address(this)) */\n      swap3\n      tag_928\n      jumpi\n        /* \"contracts/FutarchyArbExecutorV5.sol\":38202:38608  if (futarchy_router != address(0) && proposal != address(0)) {... */\n    tag_929:\n      pop\n        /* \"contracts/FutarchyArbExecutorV5.sol\":37368:37404  IERC20(cur).balanceOf(address(this)) */\n      0x24\n      swap8\n        /* \"contracts/FutarchyArbExecutorV5.sol\":5111:41903  contract FutarchyArbExecutorV5 {... */\n      0x20\n      swap6\n        /* \"contracts/FutarchyArbExecutorV5.sol\":40221:40235  yesCurLeft > 0 */\n      swap5\n      swap4\n      swap3\n      dup6\n      swap3\n      dup5\n      iszero\n      tag_930\n      jumpi\n        /* \"contracts/FutarchyArbExecutorV5.sol\":40237:40293  _swaprExactIn(swapr_router, yes_cur, cur, yesCurLeft, 0) */\n      pop\n      pop\n      tag_932\n      swap4\n      tag_52\n      jump\t// in\n    tag_932:\n      pop\n        /* \"contracts/FutarchyArbExecutorV5.sol\":40217:40381  if (yesCurLeft > 0) _swaprExactIn(swapr_router, yes_cur, cur, yesCurLeft, 0);... */\n    tag_933:\n        /* \"contracts/FutarchyArbExecutorV5.sol\":5111:41903  contract FutarchyArbExecutorV5 {... */\n      mload(0x40)\n      shl(0xe0, 0x70a08231)\n        /* \"contracts/FutarchyArbExecutorV5.sol\":40503:40539  IERC20(cur).balanceOf(address(this)) */\n      dup2\n      mstore\n        /* \"contracts/FutarchyArbExecutorV5.sol\":37398:37402  this */\n      address\n        /* \"contracts/FutarchyArbExecutorV5.sol\":5111:41903  contract FutarchyArbExecutorV5 {... */\n      0x04\n        /* \"contracts/FutarchyArbExecutorV5.sol\":40503:40539  IERC20(cur).balanceOf(address(this)) */\n      dup3\n      add\n        /* \"contracts/FutarchyArbExecutorV5.sol\":5111:41903  contract FutarchyArbExecutorV5 {... */\n      mstore\n      swap5\n      dup6\n      swap2\n      dup3\n      swap1\n      sub(shl(0xa0, 0x01), 0x01)\n      and\n        /* \"contracts/FutarchyArbExecutorV5.sol\":40503:40539  IERC20(cur).balanceOf(address(this)) */\n      gas\n      staticcall\n      swap3\n      dup4\n      iszero\n      tag_153\n      jumpi\n        /* \"contracts/FutarchyArbExecutorV5.sol\":5111:41903  contract FutarchyArbExecutorV5 {... */\n      mload(0x0100)\n        /* \"contracts/FutarchyArbExecutorV5.sol\":40503:40539  IERC20(cur).balanceOf(address(this)) */\n      swap4\n      tag_936\n      jumpi\n        /* \"contracts/FutarchyArbExecutorV5.sol\":40217:40381  if (yesCurLeft > 0) _swaprExactIn(swapr_router, yes_cur, cur, yesCurLeft, 0);... */\n    tag_937:\n        /* \"contracts/FutarchyArbExecutorV5.sol\":40629:40684  int256(final_cur_balance) - int256(initial_cur_balance) */\n      pop\n      dup4\n      tag_938\n      dup4\n      dup6\n      tag_26\n      jump\t// in\n    tag_938:\n        /* \"contracts/FutarchyArbExecutorV5.sol\":40698:40726  signedProfit < min_out_final */\n      slt\n        /* \"contracts/FutarchyArbExecutorV5.sol\":40694:40752  if (signedProfit < min_out_final) revert MinProfitNotMet() */\n      tag_304\n      jumpi\n        /* \"contracts/FutarchyArbExecutorV5.sol\":40880:40918  min_out_final - int256(amount_sdai_in) */\n      tag_941\n        /* \"contracts/FutarchyArbExecutorV5.sol\":40825:40919  ProfitVerified(initial_cur_balance, final_cur_balance, min_out_final - int256(amount_sdai_in)) */\n      tag_306\n        /* \"contracts/FutarchyArbExecutorV5.sol\":40880:40918  min_out_final - int256(amount_sdai_in) */\n      swap2\n        /* \"contracts/FutarchyArbExecutorV5.sol\":40825:40919  ProfitVerified(initial_cur_balance, final_cur_balance, min_out_final - int256(amount_sdai_in)) */\n      0x318296ace369901373a62c2153c5e87356175630ec782af9e8b7c9385f3d1e80\n        /* \"contracts/FutarchyArbExecutorV5.sol\":40880:40918  min_out_final - int256(amount_sdai_in) */\n      swap6\n      tag_26\n      jump\t// in\n    tag_941:\n        /* \"contracts/FutarchyArbExecutorV5.sol\":5111:41903  contract FutarchyArbExecutorV5 {... */\n      mload(0x40)\n        /* \"contracts/FutarchyArbExecutorV5.sol\":40825:40919  ProfitVerified(initial_cur_balance, final_cur_balance, min_out_final - int256(amount_sdai_in)) */\n      swap4\n      dup5\n      swap4\n      dup5\n        /* \"contracts/FutarchyArbExecutorV5.sol\":5111:41903  contract FutarchyArbExecutorV5 {... */\n      0x40\n      swap2\n      swap5\n      swap4\n      swap3\n      0x60\n      dup3\n      add\n      swap6\n      dup3\n      mstore\n      0x20\n      dup3\n      add\n      mstore\n      add\n      mstore\n      jump\n        /* \"contracts/FutarchyArbExecutorV5.sol\":40503:40539  IERC20(cur).balanceOf(address(this)) */\n    tag_936:\n      swap1\n      swap3\n      pop\n        /* \"contracts/FutarchyArbExecutorV5.sol\":5111:41903  contract FutarchyArbExecutorV5 {... */\n      0x20\n        /* \"contracts/FutarchyArbExecutorV5.sol\":40503:40539  IERC20(cur).balanceOf(address(this)) */\n      dup2\n      returndatasize\n        /* \"contracts/FutarchyArbExecutorV5.sol\":5111:41903  contract FutarchyArbExecutorV5 {... */\n      0x20\n        /* \"contracts/FutarchyArbExecutorV5.sol\":40503:40539  IERC20(cur).balanceOf(address(this)) */\n      gt\n      tag_943\n      jumpi\n    tag_944:\n      dup2\n      tag_945\n        /* \"contracts/FutarchyArbExecutorV5.sol\":5111:41903  contract FutarchyArbExecutorV5 {... */\n      0x20\n        /* \"contracts/FutarchyArbExecutorV5.sol\":40503:40539  IERC20(cur).balanceOf(address(this)) */\n      swap4\n      dup4\n      tag_18\n      jump\t// in\n    tag_945:\n      dup2\n      add\n        /* \"contracts/FutarchyArbExecutorV5.sol\":5111:41903  contract FutarchyArbExecutorV5 {... */\n      sub\n      slt\n      tag_166\n      jumpi\n      mload\n        /* \"contracts/FutarchyArbExecutorV5.sol\":40503:40539  IERC20(cur).balanceOf(address(this)) */\n      swap2\n      dup5\n      jump(tag_937)\n    tag_943:\n      returndatasize\n      swap2\n      pop\n      jump(tag_944)\n        /* \"contracts/FutarchyArbExecutorV5.sol\":40217:40381  if (yesCurLeft > 0) _swaprExactIn(swapr_router, yes_cur, cur, yesCurLeft, 0);... */\n    tag_930:\n        /* \"contracts/FutarchyArbExecutorV5.sol\":40312:40325  noCurLeft > 0 */\n      swap2\n      pop\n      dup1\n      swap4\n      pop\n        /* \"contracts/FutarchyArbExecutorV5.sol\":40308:40381  if (noCurLeft > 0) _swaprExactIn(swapr_router, no_cur, cur, noCurLeft, 0) */\n      tag_948\n      jumpi\n        /* \"contracts/FutarchyArbExecutorV5.sol\":40217:40381  if (yesCurLeft > 0) _swaprExactIn(swapr_router, yes_cur, cur, yesCurLeft, 0);... */\n    tag_949:\n      pop\n      pop\n      pop\n      pop\n      jump(tag_933)\n        /* \"contracts/FutarchyArbExecutorV5.sol\":40308:40381  if (noCurLeft > 0) _swaprExactIn(swapr_router, no_cur, cur, noCurLeft, 0) */\n    tag_948:\n        /* \"contracts/FutarchyArbExecutorV5.sol\":40327:40381  _swaprExactIn(swapr_router, no_cur, cur, noCurLeft, 0) */\n      tag_950\n      swap4\n      tag_52\n      jump\t// in\n    tag_950:\n      pop\n        /* \"contracts/FutarchyArbExecutorV5.sol\":40308:40381  if (noCurLeft > 0) _swaprExactIn(swapr_router, no_cur, cur, noCurLeft, 0) */\n      dup7\n      dup1\n      dup3\n      dup2\n      jump(tag_949)\n        /* \"contracts/FutarchyArbExecutorV5.sol\":40168:40207  IERC20(no_cur).balanceOf(address(this)) */\n    tag_928:\n      swap1\n      swap5\n      swap4\n      swap3\n      swap2\n      pop\n        /* \"contracts/FutarchyArbExecutorV5.sol\":5111:41903  contract FutarchyArbExecutorV5 {... */\n      0x20\n        /* \"contracts/FutarchyArbExecutorV5.sol\":40168:40207  IERC20(no_cur).balanceOf(address(this)) */\n      dup2\n      returndatasize\n        /* \"contracts/FutarchyArbExecutorV5.sol\":5111:41903  contract FutarchyArbExecutorV5 {... */\n      0x20\n        /* \"contracts/FutarchyArbExecutorV5.sol\":40168:40207  IERC20(no_cur).balanceOf(address(this)) */\n      gt\n      tag_951\n      jumpi\n    tag_952:\n      dup2\n      tag_953\n        /* \"contracts/FutarchyArbExecutorV5.sol\":5111:41903  contract FutarchyArbExecutorV5 {... */\n      0x20\n        /* \"contracts/FutarchyArbExecutorV5.sol\":40168:40207  IERC20(no_cur).balanceOf(address(this)) */\n      swap4\n      dup4\n      tag_18\n      jump\t// in\n    tag_953:\n      dup2\n      add\n        /* \"contracts/FutarchyArbExecutorV5.sol\":5111:41903  contract FutarchyArbExecutorV5 {... */\n      sub\n      slt\n      tag_166\n      jumpi\n      mload\n      swap3\n      swap4\n        /* \"contracts/FutarchyArbExecutorV5.sol\":40168:40207  IERC20(no_cur).balanceOf(address(this)) */\n      swap2\n      swap3\n      swap1\n      swap2\n        /* \"contracts/FutarchyArbExecutorV5.sol\":37368:37404  IERC20(cur).balanceOf(address(this)) */\n      0x24\n        /* \"contracts/FutarchyArbExecutorV5.sol\":40168:40207  IERC20(no_cur).balanceOf(address(this)) */\n      jump(tag_929)\n    tag_951:\n      returndatasize\n      swap2\n      pop\n      jump(tag_952)\n        /* \"contracts/FutarchyArbExecutorV5.sol\":40098:40138  IERC20(yes_cur).balanceOf(address(this)) */\n    tag_924:\n      swap1\n      swap2\n      pop\n        /* \"contracts/FutarchyArbExecutorV5.sol\":5111:41903  contract FutarchyArbExecutorV5 {... */\n      0x20\n        /* \"contracts/FutarchyArbExecutorV5.sol\":40098:40138  IERC20(yes_cur).balanceOf(address(this)) */\n      dup2\n      returndatasize\n        /* \"contracts/FutarchyArbExecutorV5.sol\":5111:41903  contract FutarchyArbExecutorV5 {... */\n      0x20\n        /* \"contracts/FutarchyArbExecutorV5.sol\":40098:40138  IERC20(yes_cur).balanceOf(address(this)) */\n      gt\n      tag_956\n      jumpi\n    tag_957:\n      dup2\n      tag_958\n        /* \"contracts/FutarchyArbExecutorV5.sol\":5111:41903  contract FutarchyArbExecutorV5 {... */\n      0x20\n        /* \"contracts/FutarchyArbExecutorV5.sol\":40098:40138  IERC20(yes_cur).balanceOf(address(this)) */\n      swap4\n      dup4\n      tag_18\n      jump\t// in\n    tag_958:\n      dup2\n      add\n        /* \"contracts/FutarchyArbExecutorV5.sol\":5111:41903  contract FutarchyArbExecutorV5 {... */\n      sub\n      slt\n      tag_166\n      jumpi\n      mload\n        /* \"contracts/FutarchyArbExecutorV5.sol\":40098:40138  IERC20(yes_cur).balanceOf(address(this)) */\n      swap1\n      dup9\n      jump(tag_925)\n    tag_956:\n      returndatasize\n      swap2\n      pop\n      jump(tag_957)\n        /* \"contracts/FutarchyArbExecutorV5.sol\":39136:39874  if (futarchy_router != address(0) && proposal != address(0)) {... */\n    tag_920:\n        /* \"contracts/FutarchyArbExecutorV5.sol\":5111:41903  contract FutarchyArbExecutorV5 {... */\n      mload(0x40)\n      shl(0xe0, 0x70a08231)\n        /* \"contracts/FutarchyArbExecutorV5.sol\":39231:39271  IERC20(yes_cur).balanceOf(address(this)) */\n      dup2\n      mstore\n        /* \"contracts/FutarchyArbExecutorV5.sol\":37398:37402  this */\n      address\n        /* \"contracts/FutarchyArbExecutorV5.sol\":5111:41903  contract FutarchyArbExecutorV5 {... */\n      0x04\n        /* \"contracts/FutarchyArbExecutorV5.sol\":39231:39271  IERC20(yes_cur).balanceOf(address(this)) */\n      dup3\n      add\n        /* \"contracts/FutarchyArbExecutorV5.sol\":5111:41903  contract FutarchyArbExecutorV5 {... */\n      mstore\n      swap2\n      sub(shl(0xa0, 0x01), 0x01)\n      dup11\n      and\n      swap1\n      0x20\n      dup5\n        /* \"contracts/FutarchyArbExecutorV5.sol\":37368:37404  IERC20(cur).balanceOf(address(this)) */\n      0x24\n        /* \"contracts/FutarchyArbExecutorV5.sol\":5111:41903  contract FutarchyArbExecutorV5 {... */\n      dup2\n      dup6\n        /* \"contracts/FutarchyArbExecutorV5.sol\":39231:39271  IERC20(yes_cur).balanceOf(address(this)) */\n      gas\n      staticcall\n      swap4\n      dup5\n      iszero\n      tag_153\n      jumpi\n        /* \"contracts/FutarchyArbExecutorV5.sol\":5111:41903  contract FutarchyArbExecutorV5 {... */\n      mload(0x0100)\n        /* \"contracts/FutarchyArbExecutorV5.sol\":39231:39271  IERC20(yes_cur).balanceOf(address(this)) */\n      swap5\n      tag_963\n      jumpi\n        /* \"contracts/FutarchyArbExecutorV5.sol\":39136:39874  if (futarchy_router != address(0) && proposal != address(0)) {... */\n    tag_964:\n      pop\n        /* \"contracts/FutarchyArbExecutorV5.sol\":5111:41903  contract FutarchyArbExecutorV5 {... */\n      mload(0x40)\n      shl(0xe0, 0x70a08231)\n        /* \"contracts/FutarchyArbExecutorV5.sol\":39304:39343  IERC20(no_cur).balanceOf(address(this)) */\n      dup2\n      mstore\n        /* \"contracts/FutarchyArbExecutorV5.sol\":37398:37402  this */\n      address\n        /* \"contracts/FutarchyArbExecutorV5.sol\":5111:41903  contract FutarchyArbExecutorV5 {... */\n      0x04\n        /* \"contracts/FutarchyArbExecutorV5.sol\":39304:39343  IERC20(no_cur).balanceOf(address(this)) */\n      dup3\n      add\n        /* \"contracts/FutarchyArbExecutorV5.sol\":5111:41903  contract FutarchyArbExecutorV5 {... */\n      mstore\n      sub(shl(0xa0, 0x01), 0x01)\n      dup8\n      and\n      swap5\n      swap1\n      0x20\n      dup2\n        /* \"contracts/FutarchyArbExecutorV5.sol\":37368:37404  IERC20(cur).balanceOf(address(this)) */\n      0x24\n        /* \"contracts/FutarchyArbExecutorV5.sol\":5111:41903  contract FutarchyArbExecutorV5 {... */\n      dup2\n      dup10\n        /* \"contracts/FutarchyArbExecutorV5.sol\":39304:39343  IERC20(no_cur).balanceOf(address(this)) */\n      gas\n      staticcall\n      swap1\n      dup2\n      iszero\n      tag_153\n      jumpi\n        /* \"contracts/FutarchyArbExecutorV5.sol\":5111:41903  contract FutarchyArbExecutorV5 {... */\n      mload(0x0100)\n        /* \"contracts/FutarchyArbExecutorV5.sol\":39304:39343  IERC20(no_cur).balanceOf(address(this)) */\n      swap2\n      tag_967\n      jumpi\n        /* \"contracts/FutarchyArbExecutorV5.sol\":39136:39874  if (futarchy_router != address(0) && proposal != address(0)) {... */\n    tag_968:\n      pop\n        /* \"contracts/FutarchyArbExecutorV5.sol\":39376:39396  yesCurBal < noCurBal */\n      dup1\n      dup3\n      lt\n      iszero\n      tag_969\n      jumpi\n        /* \"contracts/FutarchyArbExecutorV5.sol\":39376:39419  yesCurBal < noCurBal ? yesCurBal : noCurBal */\n      pop\n      swap4\n    tag_971:\n        /* \"contracts/FutarchyArbExecutorV5.sol\":39437:39449  mergeAmt > 0 */\n      dup5\n        /* \"contracts/FutarchyArbExecutorV5.sol\":39433:39864  if (mergeAmt > 0) {... */\n      tag_972\n      jumpi\n        /* \"contracts/FutarchyArbExecutorV5.sol\":39376:39419  yesCurBal < noCurBal ? yesCurBal : noCurBal */\n    tag_973:\n        /* \"contracts/FutarchyArbExecutorV5.sol\":39136:39874  if (futarchy_router != address(0) && proposal != address(0)) {... */\n      pop\n      pop\n      pop\n      jump(tag_921)\n        /* \"contracts/FutarchyArbExecutorV5.sol\":39433:39864  if (mergeAmt > 0) {... */\n    tag_972:\n        /* \"contracts/FutarchyArbExecutorV5.sol\":39581:39596  futarchy_router */\n      tag_339\n      dup3\n        /* \"contracts/FutarchyArbExecutorV5.sol\":39651:39666  futarchy_router */\n      tag_975\n        /* \"contracts/FutarchyArbExecutorV5.sol\":39581:39596  futarchy_router */\n      swap5\n      tag_51\n      jump\t// in\n        /* \"contracts/FutarchyArbExecutorV5.sol\":39651:39666  futarchy_router */\n    tag_975:\n        /* \"contracts/FutarchyArbExecutorV5.sol\":39685:39757  IFutarchyRouter(futarchy_router).mergePositions(proposal, cur, mergeAmt) */\n      dup1\n      extcodesize\n      iszero\n      tag_85\n      jumpi\n        /* \"contracts/FutarchyArbExecutorV5.sol\":5111:41903  contract FutarchyArbExecutorV5 {... */\n      mload(0x40)\n      shl(0xe0, 0x7abef8d1)\n        /* \"contracts/FutarchyArbExecutorV5.sol\":39685:39757  IFutarchyRouter(futarchy_router).mergePositions(proposal, cur, mergeAmt) */\n      dup2\n      mstore\n        /* \"contracts/FutarchyArbExecutorV5.sol\":5111:41903  contract FutarchyArbExecutorV5 {... */\n      mload(0x0100)\n      dup2\n      dup1\n        /* \"contracts/FutarchyArbExecutorV5.sol\":39685:39757  IFutarchyRouter(futarchy_router).mergePositions(proposal, cur, mergeAmt) */\n      tag_978\n      dup7\n      dup12\n      dup10\n        /* \"contracts/FutarchyArbExecutorV5.sol\":5111:41903  contract FutarchyArbExecutorV5 {... */\n      0x04\n        /* \"contracts/FutarchyArbExecutorV5.sol\":39685:39757  IFutarchyRouter(futarchy_router).mergePositions(proposal, cur, mergeAmt) */\n      dup6\n      add\n      tag_25\n      jump\t// in\n    tag_978:\n      sub\n        /* \"contracts/FutarchyArbExecutorV5.sol\":5111:41903  contract FutarchyArbExecutorV5 {... */\n      dup2\n      mload(0x0100)\n        /* \"contracts/FutarchyArbExecutorV5.sol\":39685:39757  IFutarchyRouter(futarchy_router).mergePositions(proposal, cur, mergeAmt) */\n      dup7\n      gas\n      call\n      dup1\n      iszero\n      tag_153\n      jumpi\n      tag_981\n      jumpi\n        /* \"contracts/FutarchyArbExecutorV5.sol\":39433:39864  if (mergeAmt > 0) {... */\n    tag_982:\n      pop\n        /* \"contracts/FutarchyArbExecutorV5.sol\":5111:41903  contract FutarchyArbExecutorV5 {... */\n      mload(0x40)\n      swap2\n      dup3\n      mstore\n      sub(shl(0xa0, 0x01), 0x01)\n      dup7\n      dup2\n      and\n      swap4\n      and\n      swap2\n      mload(0x00)\n      codecopy(0x00, data_c5aaa74a06ee65ab0e09cb193417f995c1069cf1fd250a86afdf2022e97f16ad, 0x20)\n      mload(0x00)\n      swap1\n      0x00\n      mstore\n        /* \"contracts/FutarchyArbExecutorV5.sol\":39780:39849  ConditionalCollateralMerged(futarchy_router, proposal, cur, mergeAmt) */\n      swap1\n        /* \"contracts/FutarchyArbExecutorV5.sol\":5111:41903  contract FutarchyArbExecutorV5 {... */\n      0x20\n      swap1\n        /* \"contracts/FutarchyArbExecutorV5.sol\":39780:39849  ConditionalCollateralMerged(futarchy_router, proposal, cur, mergeAmt) */\n      log4\n        /* \"contracts/FutarchyArbExecutorV5.sol\":39433:39864  if (mergeAmt > 0) {... */\n      dup8\n      dup1\n      dup1\n      dup1\n      dup1\n      dup1\n      jump(tag_973)\n        /* \"contracts/FutarchyArbExecutorV5.sol\":39685:39757  IFutarchyRouter(futarchy_router).mergePositions(proposal, cur, mergeAmt) */\n    tag_981:\n        /* \"contracts/FutarchyArbExecutorV5.sol\":5111:41903  contract FutarchyArbExecutorV5 {... */\n      mload(0x0100)\n        /* \"contracts/FutarchyArbExecutorV5.sol\":39685:39757  IFutarchyRouter(futarchy_router).mergePositions(proposal, cur, mergeAmt) */\n      tag_983\n      swap2\n      tag_18\n      jump\t// in\n    tag_983:\n        /* \"contracts/FutarchyArbExecutorV5.sol\":5111:41903  contract FutarchyArbExecutorV5 {... */\n      jumpi(tag_85, mload(0x0100))\n        /* \"contracts/FutarchyArbExecutorV5.sol\":39685:39757  IFutarchyRouter(futarchy_router).mergePositions(proposal, cur, mergeAmt) */\n      dup11\n      jump(tag_982)\n        /* \"contracts/FutarchyArbExecutorV5.sol\":39376:39419  yesCurBal < noCurBal ? yesCurBal : noCurBal */\n    tag_969:\n      swap1\n      pop\n      swap4\n      jump(tag_971)\n        /* \"contracts/FutarchyArbExecutorV5.sol\":39304:39343  IERC20(no_cur).balanceOf(address(this)) */\n    tag_967:\n      swap1\n      pop\n        /* \"contracts/FutarchyArbExecutorV5.sol\":5111:41903  contract FutarchyArbExecutorV5 {... */\n      0x20\n        /* \"contracts/FutarchyArbExecutorV5.sol\":39304:39343  IERC20(no_cur).balanceOf(address(this)) */\n      dup2\n      returndatasize\n        /* \"contracts/FutarchyArbExecutorV5.sol\":5111:41903  contract FutarchyArbExecutorV5 {... */\n      0x20\n        /* \"contracts/FutarchyArbExecutorV5.sol\":39304:39343  IERC20(no_cur).balanceOf(address(this)) */\n      gt\n      tag_986\n      jumpi\n    tag_987:\n      dup2\n      tag_988\n        /* \"contracts/FutarchyArbExecutorV5.sol\":5111:41903  contract FutarchyArbExecutorV5 {... */\n      0x20\n        /* \"contracts/FutarchyArbExecutorV5.sol\":39304:39343  IERC20(no_cur).balanceOf(address(this)) */\n      swap4\n      dup4\n      tag_18\n      jump\t// in\n    tag_988:\n      dup2\n      add\n        /* \"contracts/FutarchyArbExecutorV5.sol\":5111:41903  contract FutarchyArbExecutorV5 {... */\n      sub\n      slt\n      tag_166\n      jumpi\n      mload\n        /* \"contracts/FutarchyArbExecutorV5.sol\":39304:39343  IERC20(no_cur).balanceOf(address(this)) */\n      dup15\n      jump(tag_968)\n    tag_986:\n      returndatasize\n      swap2\n      pop\n      jump(tag_987)\n        /* \"contracts/FutarchyArbExecutorV5.sol\":39231:39271  IERC20(yes_cur).balanceOf(address(this)) */\n    tag_963:\n      swap1\n      swap4\n      pop\n        /* \"contracts/FutarchyArbExecutorV5.sol\":5111:41903  contract FutarchyArbExecutorV5 {... */\n      0x20\n        /* \"contracts/FutarchyArbExecutorV5.sol\":39231:39271  IERC20(yes_cur).balanceOf(address(this)) */\n      dup2\n      returndatasize\n        /* \"contracts/FutarchyArbExecutorV5.sol\":5111:41903  contract FutarchyArbExecutorV5 {... */\n      0x20\n        /* \"contracts/FutarchyArbExecutorV5.sol\":39231:39271  IERC20(yes_cur).balanceOf(address(this)) */\n      gt\n      tag_991\n      jumpi\n    tag_992:\n      dup2\n      tag_993\n        /* \"contracts/FutarchyArbExecutorV5.sol\":5111:41903  contract FutarchyArbExecutorV5 {... */\n      0x20\n        /* \"contracts/FutarchyArbExecutorV5.sol\":39231:39271  IERC20(yes_cur).balanceOf(address(this)) */\n      swap4\n      dup4\n      tag_18\n      jump\t// in\n    tag_993:\n      dup2\n      add\n        /* \"contracts/FutarchyArbExecutorV5.sol\":5111:41903  contract FutarchyArbExecutorV5 {... */\n      sub\n      slt\n      tag_166\n      jumpi\n      mload\n        /* \"contracts/FutarchyArbExecutorV5.sol\":39231:39271  IERC20(yes_cur).balanceOf(address(this)) */\n      swap3\n      dup13\n      jump(tag_964)\n    tag_991:\n      returndatasize\n      swap2\n      pop\n      jump(tag_992)\n        /* \"contracts/FutarchyArbExecutorV5.sol\":39140:39195  futarchy_router != address(0) && proposal != address(0) */\n    tag_918:\n      pop\n      sub(shl(0xa0, 0x01), 0x01)\n        /* \"contracts/FutarchyArbExecutorV5.sol\":5111:41903  contract FutarchyArbExecutorV5 {... */\n      dup4\n      and\n        /* \"contracts/FutarchyArbExecutorV5.sol\":39173:39195  proposal != address(0) */\n      iszero\n      iszero\n        /* \"contracts/FutarchyArbExecutorV5.sol\":39140:39195  futarchy_router != address(0) && proposal != address(0) */\n      jump(tag_919)\n        /* \"contracts/FutarchyArbExecutorV5.sol\":38952:39029  if (noCompBal > 0) _swaprExactIn(swapr_router, no_comp, no_cur, noCompBal, 0) */\n    tag_916:\n        /* \"contracts/FutarchyArbExecutorV5.sol\":38971:39029  _swaprExactIn(swapr_router, no_comp, no_cur, noCompBal, 0) */\n      tag_996\n      swap3\n      dup10\n      tag_52\n      jump\t// in\n    tag_996:\n      pop\n        /* \"contracts/FutarchyArbExecutorV5.sol\":38952:39029  if (noCompBal > 0) _swaprExactIn(swapr_router, no_comp, no_cur, noCompBal, 0) */\n      dup12\n      dup1\n      dup7\n      jump(tag_917)\n        /* \"contracts/FutarchyArbExecutorV5.sol\":38902:38942  IERC20(no_comp).balanceOf(address(this)) */\n    tag_914:\n      swap1\n      pop\n        /* \"contracts/FutarchyArbExecutorV5.sol\":5111:41903  contract FutarchyArbExecutorV5 {... */\n      0x20\n        /* \"contracts/FutarchyArbExecutorV5.sol\":38902:38942  IERC20(no_comp).balanceOf(address(this)) */\n      dup2\n      returndatasize\n        /* \"contracts/FutarchyArbExecutorV5.sol\":5111:41903  contract FutarchyArbExecutorV5 {... */\n      0x20\n        /* \"contracts/FutarchyArbExecutorV5.sol\":38902:38942  IERC20(no_comp).balanceOf(address(this)) */\n      gt\n      tag_997\n      jumpi\n    tag_998:\n      dup2\n      tag_999\n        /* \"contracts/FutarchyArbExecutorV5.sol\":5111:41903  contract FutarchyArbExecutorV5 {... */\n      0x20\n        /* \"contracts/FutarchyArbExecutorV5.sol\":38902:38942  IERC20(no_comp).balanceOf(address(this)) */\n      swap4\n      dup4\n      tag_18\n      jump\t// in\n    tag_999:\n      dup2\n      add\n        /* \"contracts/FutarchyArbExecutorV5.sol\":5111:41903  contract FutarchyArbExecutorV5 {... */\n      sub\n      slt\n      tag_166\n      jumpi\n      mload\n        /* \"contracts/FutarchyArbExecutorV5.sol\":38902:38942  IERC20(no_comp).balanceOf(address(this)) */\n      dup14\n      jump(tag_915)\n    tag_997:\n      returndatasize\n      swap2\n      pop\n      jump(tag_998)\n        /* \"contracts/FutarchyArbExecutorV5.sol\":38791:38872  if (yesCompBal > 0) _swaprExactIn(swapr_router, yes_comp, yes_cur, yesCompBal, 0) */\n    tag_910:\n        /* \"contracts/FutarchyArbExecutorV5.sol\":38811:38872  _swaprExactIn(swapr_router, yes_comp, yes_cur, yesCompBal, 0) */\n      tag_1002\n      swap3\n      dup11\n      tag_52\n      jump\t// in\n    tag_1002:\n      pop\n        /* \"contracts/FutarchyArbExecutorV5.sol\":38791:38872  if (yesCompBal > 0) _swaprExactIn(swapr_router, yes_comp, yes_cur, yesCompBal, 0) */\n      dup13\n      dup1\n      dup13\n      jump(tag_911)\n        /* \"contracts/FutarchyArbExecutorV5.sol\":38740:38781  IERC20(yes_comp).balanceOf(address(this)) */\n    tag_908:\n      swap1\n      pop\n        /* \"contracts/FutarchyArbExecutorV5.sol\":5111:41903  contract FutarchyArbExecutorV5 {... */\n      0x20\n        /* \"contracts/FutarchyArbExecutorV5.sol\":38740:38781  IERC20(yes_comp).balanceOf(address(this)) */\n      dup2\n      returndatasize\n        /* \"contracts/FutarchyArbExecutorV5.sol\":5111:41903  contract FutarchyArbExecutorV5 {... */\n      0x20\n        /* \"contracts/FutarchyArbExecutorV5.sol\":38740:38781  IERC20(yes_comp).balanceOf(address(this)) */\n      gt\n      tag_1003\n      jumpi\n    tag_1004:\n      dup2\n      tag_1005\n        /* \"contracts/FutarchyArbExecutorV5.sol\":5111:41903  contract FutarchyArbExecutorV5 {... */\n      0x20\n        /* \"contracts/FutarchyArbExecutorV5.sol\":38740:38781  IERC20(yes_comp).balanceOf(address(this)) */\n      swap4\n      dup4\n      tag_18\n      jump\t// in\n    tag_1005:\n      dup2\n      add\n        /* \"contracts/FutarchyArbExecutorV5.sol\":5111:41903  contract FutarchyArbExecutorV5 {... */\n      sub\n      slt\n      tag_166\n      jumpi\n      mload\n        /* \"contracts/FutarchyArbExecutorV5.sol\":38740:38781  IERC20(yes_comp).balanceOf(address(this)) */\n      dup15\n      jump(tag_909)\n    tag_1003:\n      returndatasize\n      swap2\n      pop\n      jump(tag_1004)\n        /* \"contracts/FutarchyArbExecutorV5.sol\":38341:38416  IFutarchyRouter(futarchy_router).splitPosition(proposal, comp, compBalance) */\n    tag_903:\n        /* \"contracts/FutarchyArbExecutorV5.sol\":5111:41903  contract FutarchyArbExecutorV5 {... */\n      0x00\n        /* \"contracts/FutarchyArbExecutorV5.sol\":38341:38416  IFutarchyRouter(futarchy_router).splitPosition(proposal, comp, compBalance) */\n      tag_1008\n      swap2\n      tag_18\n      jump\t// in\n    tag_1008:\n        /* \"contracts/FutarchyArbExecutorV5.sol\":5111:41903  contract FutarchyArbExecutorV5 {... */\n      mstore(0x0100, 0x00)\n        /* \"contracts/FutarchyArbExecutorV5.sol\":38341:38416  IFutarchyRouter(futarchy_router).splitPosition(proposal, comp, compBalance) */\n      dup14\n      jump(tag_904)\n        /* \"contracts/FutarchyArbExecutorV5.sol\":38202:38608  if (futarchy_router != address(0) && proposal != address(0)) {... */\n    tag_895:\n        /* \"contracts/FutarchyArbExecutorV5.sol\":5111:41903  contract FutarchyArbExecutorV5 {... */\n      swap3\n      swap1\n      pop\n      0x00\n      dup1\n        /* \"contracts/FutarchyArbExecutorV5.sol\":38551:38597  CompositeSplitAttempted(comp, compBalance, ok) */\n      0xf8e6e0bb33e12f1f8e97919c28e4df84e2aebf737d4bf32534deb9e737f228e6\n        /* \"contracts/FutarchyArbExecutorV5.sol\":5111:41903  contract FutarchyArbExecutorV5 {... */\n      swap4\n      mload(0x40)\n        /* \"contracts/FutarchyArbExecutorV5.sol\":38465:38531  abi.encodeWithSelector(ICompositeLike.split.selector, compBalance) */\n      dup3\n        /* \"contracts/FutarchyArbExecutorV5.sol\":5111:41903  contract FutarchyArbExecutorV5 {... */\n      0x20\n        /* \"contracts/FutarchyArbExecutorV5.sol\":38465:38531  abi.encodeWithSelector(ICompositeLike.split.selector, compBalance) */\n      dup3\n      add\n        /* \"contracts/FutarchyArbExecutorV5.sol\":38488:38517  ICompositeLike.split.selector */\n      swap2\n      shl(0xe0, 0xdbceb005)\n        /* \"contracts/FutarchyArbExecutorV5.sol\":38465:38531  abi.encodeWithSelector(ICompositeLike.split.selector, compBalance) */\n      dup4\n      mstore\n      dup7\n        /* \"contracts/FutarchyArbExecutorV5.sol\":37368:37404  IERC20(cur).balanceOf(address(this)) */\n      0x24\n        /* \"contracts/FutarchyArbExecutorV5.sol\":38465:38531  abi.encodeWithSelector(ICompositeLike.split.selector, compBalance) */\n      dup3\n      add\n        /* \"contracts/FutarchyArbExecutorV5.sol\":5111:41903  contract FutarchyArbExecutorV5 {... */\n      mstore\n        /* \"contracts/FutarchyArbExecutorV5.sol\":37368:37404  IERC20(cur).balanceOf(address(this)) */\n      0x24\n        /* \"contracts/FutarchyArbExecutorV5.sol\":38465:38531  abi.encodeWithSelector(ICompositeLike.split.selector, compBalance) */\n      dup2\n      mstore\n      tag_1009\n      0x44\n      dup3\n      tag_18\n      jump\t// in\n    tag_1009:\n        /* \"contracts/FutarchyArbExecutorV5.sol\":38455:38532  comp.call(abi.encodeWithSelector(ICompositeLike.split.selector, compBalance)) */\n      mload\n      swap3\n      gas\n      call\n      swap1\n      tag_1010\n      tag_22\n      jump\t// in\n    tag_1010:\n      pop\n        /* \"contracts/FutarchyArbExecutorV5.sol\":5111:41903  contract FutarchyArbExecutorV5 {... */\n      0x40\n      dup1\n      mload\n      swap2\n      dup3\n      mstore\n      swap2\n      iszero\n      iszero\n      0x20\n      dup3\n      add\n      mstore\n        /* \"contracts/FutarchyArbExecutorV5.sol\":38551:38597  CompositeSplitAttempted(comp, compBalance, ok) */\n      log2\n        /* \"contracts/FutarchyArbExecutorV5.sol\":38202:38608  if (futarchy_router != address(0) && proposal != address(0)) {... */\n      jump(tag_905)\n        /* \"contracts/FutarchyArbExecutorV5.sol\":38206:38261  futarchy_router != address(0) && proposal != address(0) */\n    tag_893:\n      pop\n      sub(shl(0xa0, 0x01), 0x01)\n        /* \"contracts/FutarchyArbExecutorV5.sol\":5111:41903  contract FutarchyArbExecutorV5 {... */\n      dup11\n      and\n        /* \"contracts/FutarchyArbExecutorV5.sol\":38239:38261  proposal != address(0) */\n      iszero\n      iszero\n        /* \"contracts/FutarchyArbExecutorV5.sol\":38206:38261  futarchy_router != address(0) && proposal != address(0) */\n      jump(tag_894)\n        /* \"contracts/FutarchyArbExecutorV5.sol\":37997:38034  IERC20(comp).balanceOf(address(this)) */\n    tag_889:\n      swap1\n      pop\n        /* \"contracts/FutarchyArbExecutorV5.sol\":5111:41903  contract FutarchyArbExecutorV5 {... */\n      0x20\n        /* \"contracts/FutarchyArbExecutorV5.sol\":37997:38034  IERC20(comp).balanceOf(address(this)) */\n      dup2\n      returndatasize\n        /* \"contracts/FutarchyArbExecutorV5.sol\":5111:41903  contract FutarchyArbExecutorV5 {... */\n      0x20\n        /* \"contracts/FutarchyArbExecutorV5.sol\":37997:38034  IERC20(comp).balanceOf(address(this)) */\n      gt\n      tag_1012\n      jumpi\n    tag_1013:\n      dup2\n      tag_1014\n        /* \"contracts/FutarchyArbExecutorV5.sol\":5111:41903  contract FutarchyArbExecutorV5 {... */\n      0x20\n        /* \"contracts/FutarchyArbExecutorV5.sol\":37997:38034  IERC20(comp).balanceOf(address(this)) */\n      swap4\n      dup4\n      tag_18\n      jump\t// in\n    tag_1014:\n      dup2\n      add\n        /* \"contracts/FutarchyArbExecutorV5.sol\":5111:41903  contract FutarchyArbExecutorV5 {... */\n      sub\n      slt\n      tag_166\n      jumpi\n      mload\n        /* \"contracts/FutarchyArbExecutorV5.sol\":37997:38034  IERC20(comp).balanceOf(address(this)) */\n      dup15\n      jump(tag_890)\n    tag_1012:\n      returndatasize\n      swap2\n      pop\n      jump(tag_1013)\n        /* \"contracts/FutarchyArbExecutorV5.sol\":37807:37843  if (!ok) revert BalancerSwapFailed() */\n    tag_884:\n        /* \"contracts/FutarchyArbExecutorV5.sol\":37823:37843  BalancerSwapFailed() */\n      shl(0xe1, 0x2e9f6e2b)\n        /* \"contracts/FutarchyArbExecutorV5.sol\":5111:41903  contract FutarchyArbExecutorV5 {... */\n      0x00\n        /* \"contracts/FutarchyArbExecutorV5.sol\":37823:37843  BalancerSwapFailed() */\n      mstore\n        /* \"contracts/FutarchyArbExecutorV5.sol\":5111:41903  contract FutarchyArbExecutorV5 {... */\n      0x04\n      0x00\n        /* \"contracts/FutarchyArbExecutorV5.sol\":37823:37843  BalancerSwapFailed() */\n      revert\n        /* \"contracts/FutarchyArbExecutorV5.sol\":37614:37696  if (balancer_vault != address(0)) _ensureMaxAllowance(IERC20(cur), balancer_vault) */\n    tag_881:\n        /* \"contracts/FutarchyArbExecutorV5.sol\":37681:37695  balancer_vault */\n      tag_1017\n      swap1\n      sub(shl(0xa0, 0x01), 0x01)\n        /* \"contracts/FutarchyArbExecutorV5.sol\":5111:41903  contract FutarchyArbExecutorV5 {... */\n      dup14\n      and\n        /* \"contracts/FutarchyArbExecutorV5.sol\":37681:37695  balancer_vault */\n      tag_51\n      jump\t// in\n    tag_1017:\n        /* \"contracts/FutarchyArbExecutorV5.sol\":37614:37696  if (balancer_vault != address(0)) _ensureMaxAllowance(IERC20(cur), balancer_vault) */\n      dup16\n      jump(tag_882)\n        /* \"contracts/FutarchyArbExecutorV5.sol\":37368:37404  IERC20(cur).balanceOf(address(this)) */\n    tag_878:\n      swap12\n      swap14\n      pop\n        /* \"contracts/FutarchyArbExecutorV5.sol\":5111:41903  contract FutarchyArbExecutorV5 {... */\n      0x20\n        /* \"contracts/FutarchyArbExecutorV5.sol\":37368:37404  IERC20(cur).balanceOf(address(this)) */\n      dup13\n      returndatasize\n        /* \"contracts/FutarchyArbExecutorV5.sol\":5111:41903  contract FutarchyArbExecutorV5 {... */\n      0x20\n        /* \"contracts/FutarchyArbExecutorV5.sol\":37368:37404  IERC20(cur).balanceOf(address(this)) */\n      gt\n      tag_1018\n      jumpi\n    tag_1019:\n      dup2\n      tag_1020\n        /* \"contracts/FutarchyArbExecutorV5.sol\":5111:41903  contract FutarchyArbExecutorV5 {... */\n      0x20\n        /* \"contracts/FutarchyArbExecutorV5.sol\":37368:37404  IERC20(cur).balanceOf(address(this)) */\n      swap4\n      dup4\n      tag_18\n      jump\t// in\n    tag_1020:\n      dup2\n      add\n        /* \"contracts/FutarchyArbExecutorV5.sol\":5111:41903  contract FutarchyArbExecutorV5 {... */\n      sub\n      slt\n      tag_166\n      jumpi\n      dup14\n      swap12\n      mload\n        /* \"contracts/FutarchyArbExecutorV5.sol\":37368:37404  IERC20(cur).balanceOf(address(this)) */\n      swap14\n      jump(tag_879)\n    tag_1018:\n      returndatasize\n      swap2\n      pop\n      jump(tag_1019)\n        /* \"contracts/FutarchyArbExecutorV5.sol\":24550:24592  if (msg.sender != owner) revert NotOwner() */\n    tag_874:\n        /* \"contracts/FutarchyArbExecutorV5.sol\":24582:24592  NotOwner() */\n      shl(0xe0, 0x30cd7471)\n        /* \"contracts/FutarchyArbExecutorV5.sol\":5111:41903  contract FutarchyArbExecutorV5 {... */\n      0x00\n        /* \"contracts/FutarchyArbExecutorV5.sol\":24582:24592  NotOwner() */\n      mstore\n        /* \"contracts/FutarchyArbExecutorV5.sol\":5111:41903  contract FutarchyArbExecutorV5 {... */\n      0x04\n      0x00\n        /* \"contracts/FutarchyArbExecutorV5.sol\":24582:24592  NotOwner() */\n      revert\n        /* \"contracts/FutarchyArbExecutorV5.sol\":5111:41903  contract FutarchyArbExecutorV5 {... */\n    tag_69:\n      jumpi(tag_166, callvalue)\n      tag_1025\n      calldatasize\n      tag_12\n      jump\t// in\n    tag_1025:\n      sload(0x00)\n      swap2\n      swap3\n      swap1\n      swap2\n      sub(shl(0xa0, 0x01), 0x01)\n      and\n        /* \"contracts/FutarchyArbExecutorV5.sol\":24554:24564  msg.sender */\n      caller\n        /* \"contracts/FutarchyArbExecutorV5.sol\":24554:24573  msg.sender != owner */\n      sub\n        /* \"contracts/FutarchyArbExecutorV5.sol\":24550:24592  if (msg.sender != owner) revert NotOwner() */\n      tag_874\n      jumpi\n        /* \"contracts/FutarchyArbExecutorV5.sol\":8800:8817  amountSdaiIn == 0 */\n      dup1\n      iszero\n        /* \"contracts/FutarchyArbExecutorV5.sol\":8796:8838  if (amountSdaiIn == 0) revert ZeroAmount() */\n      tag_1028\n      jumpi\n        /* \"contracts/FutarchyArbExecutorV5.sol\":8931:8945  BALANCER_VAULT */\n      tag_1030\n      tag_47\n      jump\t// in\n    tag_1030:\n        /* \"contracts/FutarchyArbExecutorV5.sol\":9013:9030  _pnkAssetsOrder() */\n      tag_1031\n      tag_56\n      jump\t// in\n    tag_1031:\n        /* \"contracts/FutarchyArbExecutorV5.sol\":9172:9209  new IBalancerVault.BatchSwapStep[](3) */\n      swap1\n      tag_1032\n      tag_36\n      jump\t// in\n    tag_1032:\n        /* \"contracts/FutarchyArbExecutorV5.sol\":5111:41903  contract FutarchyArbExecutorV5 {... */\n      swap1\n      0x00\n      0x20\n      swap4\n      mload(0x40)\n      tag_1033\n      dup7\n      dup3\n      tag_18\n      jump\t// in\n    tag_1033:\n      dup3\n      dup2\n      mstore\n      mload(0x40)\n      swap1\n      tag_1034\n      dup3\n      tag_17\n      jump\t// in\n    tag_1034:\n      mload(0x00)\n      codecopy(0x00, data_969cee0ab77f941c5d213a1db6cb2116b0c84035b9046a9d8b5a62de89aab7e9, 0x20)\n      mload(0x00)\n      swap1\n      0x00\n      mstore\n        /* \"contracts/FutarchyArbExecutorV5.sol\":6225:6267  0x37b60f4E9A31A64cCc0024dce7D0fD07eAA0F7B3 */\n      dup3\n      mstore\n        /* \"contracts/FutarchyArbExecutorV5.sol\":9230:9380  IBalancerVault.BatchSwapStep({... */\n      dup4\n      dup8\n      dup4\n      add\n        /* \"contracts/FutarchyArbExecutorV5.sol\":6225:6267  0x37b60f4E9A31A64cCc0024dce7D0fD07eAA0F7B3 */\n      mstore\n        /* \"contracts/FutarchyArbExecutorV5.sol\":9207:9208  3 */\n      0x03\n        /* \"contracts/FutarchyArbExecutorV5.sol\":5111:41903  contract FutarchyArbExecutorV5 {... */\n      0x40\n        /* \"contracts/FutarchyArbExecutorV5.sol\":9230:9380  IBalancerVault.BatchSwapStep({... */\n      dup4\n      add\n        /* \"contracts/FutarchyArbExecutorV5.sol\":6225:6267  0x37b60f4E9A31A64cCc0024dce7D0fD07eAA0F7B3 */\n      mstore\n        /* \"contracts/FutarchyArbExecutorV5.sol\":9230:9380  IBalancerVault.BatchSwapStep({... */\n      dup5\n      0x60\n      dup4\n      add\n        /* \"contracts/FutarchyArbExecutorV5.sol\":6225:6267  0x37b60f4E9A31A64cCc0024dce7D0fD07eAA0F7B3 */\n      mstore\n        /* \"contracts/FutarchyArbExecutorV5.sol\":9230:9380  IBalancerVault.BatchSwapStep({... */\n      0x80\n      dup3\n      add\n        /* \"contracts/FutarchyArbExecutorV5.sol\":6225:6267  0x37b60f4E9A31A64cCc0024dce7D0fD07eAA0F7B3 */\n      mstore\n        /* \"contracts/FutarchyArbExecutorV5.sol\":9219:9380  swaps[0] = IBalancerVault.BatchSwapStep({... */\n      tag_1035\n      dup6\n      tag_29\n      jump\t// in\n    tag_1035:\n      mstore\n      tag_1036\n      dup5\n      tag_29\n      jump\t// in\n    tag_1036:\n      pop\n        /* \"contracts/FutarchyArbExecutorV5.sol\":5111:41903  contract FutarchyArbExecutorV5 {... */\n      mload(0x40)\n      tag_1037\n      dup7\n      dup3\n      tag_18\n      jump\t// in\n    tag_1037:\n      dup3\n      dup2\n      mstore\n      mload(0x40)\n      swap1\n      tag_1038\n      dup3\n      tag_17\n      jump\t// in\n    tag_1038:\n      mload(0x00)\n      codecopy(0x00, data_a9d90bf0c84ce4451e39083a58090a10a0fbe54d1cc426b0f3f264b80dafbc72, 0x20)\n      mload(0x00)\n      swap1\n      0x00\n      mstore\n        /* \"contracts/FutarchyArbExecutorV5.sol\":6225:6267  0x37b60f4E9A31A64cCc0024dce7D0fD07eAA0F7B3 */\n      dup3\n      mstore\n        /* \"contracts/FutarchyArbExecutorV5.sol\":9207:9208  3 */\n      0x03\n        /* \"contracts/FutarchyArbExecutorV5.sol\":9401:9540  IBalancerVault.BatchSwapStep({... */\n      dup8\n      dup4\n      add\n        /* \"contracts/FutarchyArbExecutorV5.sol\":6225:6267  0x37b60f4E9A31A64cCc0024dce7D0fD07eAA0F7B3 */\n      mstore\n        /* \"contracts/FutarchyArbExecutorV5.sol\":5111:41903  contract FutarchyArbExecutorV5 {... */\n      0x04\n      0x40\n        /* \"contracts/FutarchyArbExecutorV5.sol\":9401:9540  IBalancerVault.BatchSwapStep({... */\n      dup4\n      add\n        /* \"contracts/FutarchyArbExecutorV5.sol\":6225:6267  0x37b60f4E9A31A64cCc0024dce7D0fD07eAA0F7B3 */\n      mstore\n        /* \"contracts/FutarchyArbExecutorV5.sol\":9401:9540  IBalancerVault.BatchSwapStep({... */\n      dup4\n        /* \"contracts/FutarchyArbExecutorV5.sol\":9230:9380  IBalancerVault.BatchSwapStep({... */\n      0x60\n        /* \"contracts/FutarchyArbExecutorV5.sol\":9401:9540  IBalancerVault.BatchSwapStep({... */\n      dup4\n      add\n        /* \"contracts/FutarchyArbExecutorV5.sol\":6225:6267  0x37b60f4E9A31A64cCc0024dce7D0fD07eAA0F7B3 */\n      mstore\n        /* \"contracts/FutarchyArbExecutorV5.sol\":9230:9380  IBalancerVault.BatchSwapStep({... */\n      0x80\n        /* \"contracts/FutarchyArbExecutorV5.sol\":9401:9540  IBalancerVault.BatchSwapStep({... */\n      dup3\n      add\n        /* \"contracts/FutarchyArbExecutorV5.sol\":6225:6267  0x37b60f4E9A31A64cCc0024dce7D0fD07eAA0F7B3 */\n      mstore\n        /* \"contracts/FutarchyArbExecutorV5.sol\":9390:9540  swaps[1] = IBalancerVault.BatchSwapStep({... */\n      tag_1039\n      dup6\n      tag_30\n      jump\t// in\n    tag_1039:\n      mstore\n      tag_1040\n      dup5\n      tag_30\n      jump\t// in\n    tag_1040:\n      pop\n        /* \"contracts/FutarchyArbExecutorV5.sol\":5111:41903  contract FutarchyArbExecutorV5 {... */\n      mload(0x40)\n      tag_1041\n      dup7\n      dup3\n      tag_18\n      jump\t// in\n    tag_1041:\n      dup3\n      dup2\n      mstore\n      mload(0x40)\n      swap1\n      tag_1042\n      dup3\n      tag_17\n      jump\t// in\n    tag_1042:\n      mload(0x00)\n      codecopy(0x00, data_6a768ce7dd29682ca8651cedf43ef435380ee90c92e8ceb8428caf6b41d02b1e, 0x20)\n      mload(0x00)\n      swap1\n      0x00\n      mstore\n        /* \"contracts/FutarchyArbExecutorV5.sol\":6225:6267  0x37b60f4E9A31A64cCc0024dce7D0fD07eAA0F7B3 */\n      dup3\n      mstore\n        /* \"contracts/FutarchyArbExecutorV5.sol\":5111:41903  contract FutarchyArbExecutorV5 {... */\n      0x04\n        /* \"contracts/FutarchyArbExecutorV5.sol\":9561:9700  IBalancerVault.BatchSwapStep({... */\n      dup8\n      dup4\n      add\n        /* \"contracts/FutarchyArbExecutorV5.sol\":6225:6267  0x37b60f4E9A31A64cCc0024dce7D0fD07eAA0F7B3 */\n      mstore\n        /* \"contracts/FutarchyArbExecutorV5.sol\":9656:9657  2 */\n      0x02\n        /* \"contracts/FutarchyArbExecutorV5.sol\":5111:41903  contract FutarchyArbExecutorV5 {... */\n      0x40\n        /* \"contracts/FutarchyArbExecutorV5.sol\":9561:9700  IBalancerVault.BatchSwapStep({... */\n      dup4\n      add\n        /* \"contracts/FutarchyArbExecutorV5.sol\":6225:6267  0x37b60f4E9A31A64cCc0024dce7D0fD07eAA0F7B3 */\n      mstore\n        /* \"contracts/FutarchyArbExecutorV5.sol\":9561:9700  IBalancerVault.BatchSwapStep({... */\n      dup4\n        /* \"contracts/FutarchyArbExecutorV5.sol\":9230:9380  IBalancerVault.BatchSwapStep({... */\n      0x60\n        /* \"contracts/FutarchyArbExecutorV5.sol\":9561:9700  IBalancerVault.BatchSwapStep({... */\n      dup4\n      add\n        /* \"contracts/FutarchyArbExecutorV5.sol\":6225:6267  0x37b60f4E9A31A64cCc0024dce7D0fD07eAA0F7B3 */\n      mstore\n        /* \"contracts/FutarchyArbExecutorV5.sol\":9230:9380  IBalancerVault.BatchSwapStep({... */\n      0x80\n        /* \"contracts/FutarchyArbExecutorV5.sol\":9561:9700  IBalancerVault.BatchSwapStep({... */\n      dup3\n      add\n        /* \"contracts/FutarchyArbExecutorV5.sol\":6225:6267  0x37b60f4E9A31A64cCc0024dce7D0fD07eAA0F7B3 */\n      mstore\n        /* \"contracts/FutarchyArbExecutorV5.sol\":9550:9700  swaps[2] = IBalancerVault.BatchSwapStep({... */\n      tag_1043\n      dup6\n      tag_31\n      jump\t// in\n    tag_1043:\n      mstore\n      tag_1044\n      dup5\n      tag_31\n      jump\t// in\n    tag_1044:\n      pop\n        /* \"contracts/FutarchyArbExecutorV5.sol\":9802:9829  new int256[](assets.length) */\n      tag_1045\n        /* \"contracts/FutarchyArbExecutorV5.sol\":6225:6267  0x37b60f4E9A31A64cCc0024dce7D0fD07eAA0F7B3 */\n      dup2\n      mload\n        /* \"contracts/FutarchyArbExecutorV5.sol\":9802:9829  new int256[](assets.length) */\n      tag_38\n      jump\t// in\n    tag_1045:\n        /* \"contracts/FutarchyArbExecutorV5.sol\":9897:9940  limits[PNK_IDX_SDAI] = int256(amountSdaiIn) */\n      swap3\n      tag_1046\n      dup5\n      tag_29\n      jump\t// in\n    tag_1046:\n        /* \"contracts/FutarchyArbExecutorV5.sol\":6225:6267  0x37b60f4E9A31A64cCc0024dce7D0fD07eAA0F7B3 */\n      mstore\n        /* \"contracts/FutarchyArbExecutorV5.sol\":9954:9968  minWethOut > 0 */\n      dup7\n      iszero\n      iszero\n        /* \"contracts/FutarchyArbExecutorV5.sol\":9950:10099  if (minWethOut > 0) {... */\n      swap4\n      dup5\n      tag_1047\n      jumpi\n        /* \"contracts/FutarchyArbExecutorV5.sol\":5111:41903  contract FutarchyArbExecutorV5 {... */\n    tag_1048:\n        /* \"contracts/FutarchyArbExecutorV5.sol\":10423:10565  IBalancerVault(BALANCER_VAULT)... */\n      tag_1049\n        /* \"contracts/FutarchyArbExecutorV5.sol\":5111:41903  contract FutarchyArbExecutorV5 {... */\n      mload(0x40)\n      swap5\n      tag_1050\n      dup7\n      tag_16\n      jump\t// in\n    tag_1050:\n        /* \"contracts/FutarchyArbExecutorV5.sol\":10287:10291  this */\n      address\n        /* \"contracts/FutarchyArbExecutorV5.sol\":6225:6267  0x37b60f4E9A31A64cCc0024dce7D0fD07eAA0F7B3 */\n      dup7\n      mstore\n        /* \"contracts/FutarchyArbExecutorV5.sol\":10227:10383  IBalancerVault.FundManagement({... */\n      dup5\n      dup9\n      dup8\n      add\n        /* \"contracts/FutarchyArbExecutorV5.sol\":7556:7557  2 */\n      mstore\n        /* \"contracts/FutarchyArbExecutorV5.sol\":10287:10291  this */\n      address\n        /* \"contracts/FutarchyArbExecutorV5.sol\":5111:41903  contract FutarchyArbExecutorV5 {... */\n      0x40\n        /* \"contracts/FutarchyArbExecutorV5.sol\":10227:10383  IBalancerVault.FundManagement({... */\n      dup8\n      add\n        /* \"contracts/FutarchyArbExecutorV5.sol\":6225:6267  0x37b60f4E9A31A64cCc0024dce7D0fD07eAA0F7B3 */\n      mstore\n        /* \"contracts/FutarchyArbExecutorV5.sol\":10227:10383  IBalancerVault.FundManagement({... */\n      dup5\n        /* \"contracts/FutarchyArbExecutorV5.sol\":9230:9380  IBalancerVault.BatchSwapStep({... */\n      0x60\n        /* \"contracts/FutarchyArbExecutorV5.sol\":10227:10383  IBalancerVault.FundManagement({... */\n      dup8\n      add\n        /* \"contracts/FutarchyArbExecutorV5.sol\":7556:7557  2 */\n      mstore\n        /* \"contracts/FutarchyArbExecutorV5.sol\":5111:41903  contract FutarchyArbExecutorV5 {... */\n      mload(0x40)\n      swap6\n      dup7\n      swap5\n      dup6\n      swap5\n      shl(0xe0, 0x945bcec9)\n        /* \"contracts/FutarchyArbExecutorV5.sol\":10423:10565  IBalancerVault(BALANCER_VAULT)... */\n      dup7\n      mstore\n        /* \"contracts/FutarchyArbExecutorV5.sol\":5111:41903  contract FutarchyArbExecutorV5 {... */\n      0x04\n        /* \"contracts/FutarchyArbExecutorV5.sol\":10423:10565  IBalancerVault(BALANCER_VAULT)... */\n      dup7\n      add\n      tag_42\n      jump\t// in\n    tag_1049:\n      sub\n      dup2\n      dup4\n      mload(0x00)\n      codecopy(0x00, data_d91414ac4175376259ecb6d3ea005aa1ae1e7573d53a4ea2b2fc89eb70155797, 0x20)\n      mload(0x00)\n      swap1\n      0x00\n      mstore\n      gas\n      call\n      dup1\n      iszero\n      tag_262\n      jumpi\n      tag_1053\n      jumpi\n        /* \"contracts/FutarchyArbExecutorV5.sol\":5111:41903  contract FutarchyArbExecutorV5 {... */\n    tag_1054:\n      pop\n      mload(0x40)\n      shl(0xe0, 0x70a08231)\n        /* \"contracts/FutarchyArbExecutorV5.sol\":10628:10671  IERC20(TOKEN_WETH).balanceOf(address(this)) */\n      dup2\n      mstore\n        /* \"contracts/FutarchyArbExecutorV5.sol\":10287:10291  this */\n      address\n        /* \"contracts/FutarchyArbExecutorV5.sol\":5111:41903  contract FutarchyArbExecutorV5 {... */\n      0x04\n        /* \"contracts/FutarchyArbExecutorV5.sol\":10628:10671  IERC20(TOKEN_WETH).balanceOf(address(this)) */\n      dup3\n      add\n        /* \"contracts/FutarchyArbExecutorV5.sol\":5111:41903  contract FutarchyArbExecutorV5 {... */\n      mstore\n      swap4\n        /* \"contracts/FutarchyArbExecutorV5.sol\":10628:10671  IERC20(TOKEN_WETH).balanceOf(address(this)) */\n      dup3\n        /* \"contracts/FutarchyArbExecutorV5.sol\":5111:41903  contract FutarchyArbExecutorV5 {... */\n      dup6\n        /* \"contracts/FutarchyArbExecutorV5.sol\":10628:10671  IERC20(TOKEN_WETH).balanceOf(address(this)) */\n      0x24\n        /* \"contracts/FutarchyArbExecutorV5.sol\":5111:41903  contract FutarchyArbExecutorV5 {... */\n      dup2\n      mload(0x00)\n      codecopy(0x00, data_1f08a6407959cd4837ddd9fea2fe35b0c34facc789c2626b8e87092b4372c0eb, 0x20)\n      mload(0x00)\n      swap1\n      0x00\n      mstore\n        /* \"contracts/FutarchyArbExecutorV5.sol\":10628:10671  IERC20(TOKEN_WETH).balanceOf(address(this)) */\n      gas\n      staticcall\n      swap5\n      dup6\n      iszero\n      tag_262\n      jumpi\n        /* \"contracts/FutarchyArbExecutorV5.sol\":5111:41903  contract FutarchyArbExecutorV5 {... */\n      0x00\n        /* \"contracts/FutarchyArbExecutorV5.sol\":10628:10671  IERC20(TOKEN_WETH).balanceOf(address(this)) */\n      swap6\n      tag_1057\n      jumpi\n        /* \"contracts/FutarchyArbExecutorV5.sol\":5111:41903  contract FutarchyArbExecutorV5 {... */\n    tag_1058:\n        /* \"contracts/FutarchyArbExecutorV5.sol\":10685:10697  wethBal == 0 */\n      pop\n      dup5\n      iszero\n        /* \"contracts/FutarchyArbExecutorV5.sol\":10681:10717  if (wethBal == 0) revert NoBalance() */\n      tag_252\n      jumpi\n        /* \"contracts/FutarchyArbExecutorV5.sol\":10731:10769  minWethOut > 0 && wethBal < minWethOut */\n      dup2\n      tag_1061\n      jumpi\n        /* \"contracts/FutarchyArbExecutorV5.sol\":5111:41903  contract FutarchyArbExecutorV5 {... */\n    tag_1062:\n        /* \"contracts/FutarchyArbExecutorV5.sol\":10727:10798  if (minWethOut > 0 && wethBal < minWethOut) revert InsufficientOutput() */\n      pop\n      tag_1063\n      jumpi\n        /* \"contracts/FutarchyArbExecutorV5.sol\":5111:41903  contract FutarchyArbExecutorV5 {... */\n      0x00\n        /* \"contracts/FutarchyArbExecutorV5.sol\":10921:10936  SWAPR_V2_ROUTER */\n      swap2\n      tag_1065\n      tag_48\n      jump\t// in\n    tag_1065:\n        /* \"contracts/FutarchyArbExecutorV5.sol\":5111:41903  contract FutarchyArbExecutorV5 {... */\n      mload(0x40)\n      swap2\n      tag_1066\n        /* \"contracts/FutarchyArbExecutorV5.sol\":6225:6267  0x37b60f4E9A31A64cCc0024dce7D0fD07eAA0F7B3 */\n      0x60\n        /* \"contracts/FutarchyArbExecutorV5.sol\":5111:41903  contract FutarchyArbExecutorV5 {... */\n      dup5\n      tag_18\n      jump\t// in\n    tag_1066:\n        /* \"contracts/FutarchyArbExecutorV5.sol\":9656:9657  2 */\n      0x02\n        /* \"contracts/FutarchyArbExecutorV5.sol\":6316:6358  0xBA12222222228d8Ba445958a75a0704d566BF2C8 */\n      dup4\n      mstore\n        /* \"contracts/FutarchyArbExecutorV5.sol\":6408:6450  0xE43e60736b1cb4a75ad25240E2f9a62Bff65c0C0 */\n      0x40\n      swap1\n        /* \"contracts/FutarchyArbExecutorV5.sol\":5111:41903  contract FutarchyArbExecutorV5 {... */\n      calldatasize\n      swap1\n        /* \"contracts/FutarchyArbExecutorV5.sol\":6408:6450  0xE43e60736b1cb4a75ad25240E2f9a62Bff65c0C0 */\n      dup5\n      add\n        /* \"contracts/FutarchyArbExecutorV5.sol\":7034:7100  0xa99fd9950b5d5dceeaf4939e221dca8ca9b938ab000100000000000000000025 */\n      calldatacopy\n      mload(0x00)\n      codecopy(0x00, data_1f08a6407959cd4837ddd9fea2fe35b0c34facc789c2626b8e87092b4372c0eb, 0x20)\n      mload(0x00)\n      swap1\n      0x00\n      mstore\n        /* \"contracts/FutarchyArbExecutorV5.sol\":10997:11017  path[0] = TOKEN_WETH */\n      tag_1067\n      dup4\n      tag_29\n      jump\t// in\n    tag_1067:\n        /* \"contracts/FutarchyArbExecutorV5.sol\":6225:6267  0x37b60f4E9A31A64cCc0024dce7D0fD07eAA0F7B3 */\n      mstore\n      mload(0x00)\n      codecopy(0x00, data_18faf74e4df68828d272c60758edf9513e53936ca0737ceb17921c958804ed9a, 0x20)\n      mload(0x00)\n      swap1\n      0x00\n      mstore\n        /* \"contracts/FutarchyArbExecutorV5.sol\":11027:11046  path[1] = TOKEN_PNK */\n      tag_1068\n      dup4\n      tag_30\n      jump\t// in\n    tag_1068:\n        /* \"contracts/FutarchyArbExecutorV5.sol\":6225:6267  0x37b60f4E9A31A64cCc0024dce7D0fD07eAA0F7B3 */\n      mstore\n        /* \"contracts/FutarchyArbExecutorV5.sol\":11056:11189  IUniswapV2Router02(SWAPR_V2_ROUTER)... */\n      tag_1069\n        /* \"contracts/FutarchyArbExecutorV5.sol\":5111:41903  contract FutarchyArbExecutorV5 {... */\n      mload(0x40)\n      swap5\n      dup6\n      swap4\n      dup5\n      swap4\n      shl(0xe0, 0x38ed1739)\n        /* \"contracts/FutarchyArbExecutorV5.sol\":11056:11189  IUniswapV2Router02(SWAPR_V2_ROUTER)... */\n      dup6\n      mstore\n        /* \"contracts/FutarchyArbExecutorV5.sol\":10287:10291  this */\n      address\n        /* \"contracts/FutarchyArbExecutorV5.sol\":11056:11189  IUniswapV2Router02(SWAPR_V2_ROUTER)... */\n      swap3\n        /* \"contracts/FutarchyArbExecutorV5.sol\":5111:41903  contract FutarchyArbExecutorV5 {... */\n      0x04\n        /* \"contracts/FutarchyArbExecutorV5.sol\":11056:11189  IUniswapV2Router02(SWAPR_V2_ROUTER)... */\n      dup7\n      add\n      tag_44\n      jump\t// in\n    tag_1069:\n      sub\n      dup2\n      dup4\n      mload(0x00)\n      codecopy(0x00, data_fed9ab35569d274633c0afa3fe164e41b182bd84c5e7e43031c6f2c1b23e65bf, 0x20)\n      mload(0x00)\n      swap1\n      0x00\n      mstore\n      gas\n      call\n      dup1\n      iszero\n      tag_262\n      jumpi\n      tag_1072\n      jumpi\n        /* \"contracts/FutarchyArbExecutorV5.sol\":5111:41903  contract FutarchyArbExecutorV5 {... */\n      stop\n        /* \"contracts/FutarchyArbExecutorV5.sol\":11056:11189  IUniswapV2Router02(SWAPR_V2_ROUTER)... */\n    tag_1072:\n      tag_59\n      swap1\n      returndatasize\n      dup1\n        /* \"contracts/FutarchyArbExecutorV5.sol\":5111:41903  contract FutarchyArbExecutorV5 {... */\n      0x00\n        /* \"contracts/FutarchyArbExecutorV5.sol\":11056:11189  IUniswapV2Router02(SWAPR_V2_ROUTER)... */\n      dup4\n      returndatacopy\n      tag_178\n      dup2\n      dup4\n      tag_18\n      jump\t// in\n        /* \"contracts/FutarchyArbExecutorV5.sol\":10727:10798  if (minWethOut > 0 && wethBal < minWethOut) revert InsufficientOutput() */\n    tag_1063:\n        /* \"contracts/FutarchyArbExecutorV5.sol\":10778:10798  InsufficientOutput() */\n      shl(0xe0, 0xbb2875c3)\n        /* \"contracts/FutarchyArbExecutorV5.sol\":5111:41903  contract FutarchyArbExecutorV5 {... */\n      0x00\n        /* \"contracts/FutarchyArbExecutorV5.sol\":10778:10798  InsufficientOutput() */\n      mstore\n        /* \"contracts/FutarchyArbExecutorV5.sol\":5111:41903  contract FutarchyArbExecutorV5 {... */\n      0x04\n      0x00\n        /* \"contracts/FutarchyArbExecutorV5.sol\":10778:10798  InsufficientOutput() */\n      revert\n        /* \"contracts/FutarchyArbExecutorV5.sol\":10731:10769  minWethOut > 0 && wethBal < minWethOut */\n    tag_1061:\n        /* \"contracts/FutarchyArbExecutorV5.sol\":10749:10769  wethBal < minWethOut */\n      swap1\n      pop\n      dup4\n      lt\n        /* \"contracts/FutarchyArbExecutorV5.sol\":10731:10769  minWethOut > 0 && wethBal < minWethOut */\n      dup5\n      jump(tag_1062)\n        /* \"contracts/FutarchyArbExecutorV5.sol\":10628:10671  IERC20(TOKEN_WETH).balanceOf(address(this)) */\n    tag_1057:\n      swap1\n      swap5\n      pop\n      dup3\n      dup2\n      dup2\n      returndatasize\n      dup4\n      gt\n      tag_1076\n      jumpi\n    tag_1077:\n      tag_1078\n      dup2\n      dup4\n      tag_18\n      jump\t// in\n    tag_1078:\n      dup2\n      add\n        /* \"contracts/FutarchyArbExecutorV5.sol\":5111:41903  contract FutarchyArbExecutorV5 {... */\n      sub\n      slt\n      tag_166\n      jumpi\n      mload\n        /* \"contracts/FutarchyArbExecutorV5.sol\":10628:10671  IERC20(TOKEN_WETH).balanceOf(address(this)) */\n      swap4\n      dup6\n      jump(tag_1058)\n    tag_1076:\n      pop\n      returndatasize\n      jump(tag_1077)\n        /* \"contracts/FutarchyArbExecutorV5.sol\":10423:10565  IBalancerVault(BALANCER_VAULT)... */\n    tag_1053:\n      tag_1081\n      swap1\n      returndatasize\n      dup1\n        /* \"contracts/FutarchyArbExecutorV5.sol\":5111:41903  contract FutarchyArbExecutorV5 {... */\n      0x00\n        /* \"contracts/FutarchyArbExecutorV5.sol\":10423:10565  IBalancerVault(BALANCER_VAULT)... */\n      dup4\n      returndatacopy\n      tag_169\n      dup2\n      dup4\n      tag_18\n      jump\t// in\n    tag_1081:\n      jump(tag_1054)\n        /* \"contracts/FutarchyArbExecutorV5.sol\":9950:10099  if (minWethOut > 0) {... */\n    tag_1047:\n        /* \"contracts/FutarchyArbExecutorV5.sol\":10069:10088  -int256(minWethOut) */\n      tag_1083\n      dup9\n      tag_39\n      jump\t// in\n    tag_1083:\n        /* \"contracts/FutarchyArbExecutorV5.sol\":10046:10088  limits[PNK_IDX_WETH] = -int256(minWethOut) */\n      tag_1084\n      dup6\n      tag_31\n      jump\t// in\n    tag_1084:\n        /* \"contracts/FutarchyArbExecutorV5.sol\":6225:6267  0x37b60f4E9A31A64cCc0024dce7D0fD07eAA0F7B3 */\n      mstore\n        /* \"contracts/FutarchyArbExecutorV5.sol\":9950:10099  if (minWethOut > 0) {... */\n      jump(tag_1048)\n        /* \"contracts/FutarchyArbExecutorV5.sol\":8796:8838  if (amountSdaiIn == 0) revert ZeroAmount() */\n    tag_1028:\n        /* \"contracts/FutarchyArbExecutorV5.sol\":8826:8838  ZeroAmount() */\n      shl(0xe0, 0x1f2a2005)\n        /* \"contracts/FutarchyArbExecutorV5.sol\":5111:41903  contract FutarchyArbExecutorV5 {... */\n      0x00\n        /* \"contracts/FutarchyArbExecutorV5.sol\":8826:8838  ZeroAmount() */\n      mstore\n        /* \"contracts/FutarchyArbExecutorV5.sol\":5111:41903  contract FutarchyArbExecutorV5 {... */\n      0x04\n      0x00\n        /* \"contracts/FutarchyArbExecutorV5.sol\":8826:8838  ZeroAmount() */\n      revert\n        /* \"contracts/FutarchyArbExecutorV5.sol\":5111:41903  contract FutarchyArbExecutorV5 {... */\n    tag_67:\n      jumpi(tag_166, callvalue)\n      jumpi(tag_166, slt(add(not(0x03), calldatasize), 0x00))\n      sload(0x00)\n      mload(0x40)\n      sub(shl(0xa0, 0x01), 0x01)\n      swap1\n      swap2\n      and\n      dup2\n      mstore\n      0x20\n      swap1\n      return\n    tag_65:\n      jumpi(tag_166, callvalue)\n      jumpi(tag_166, slt(add(not(0x03), calldatasize), 0x40))\n      calldataload(0x04)\n      sub(shl(0xa0, 0x01), 0x01)\n      dup2\n      and\n      swap1\n      dup2\n      swap1\n      sub\n      tag_166\n      jumpi\n      and(sub(shl(0xa0, 0x01), 0x01), sload(0x00))\n        /* \"contracts/FutarchyArbExecutorV5.sol\":24554:24564  msg.sender */\n      caller\n        /* \"contracts/FutarchyArbExecutorV5.sol\":24554:24573  msg.sender != owner */\n      sub\n        /* \"contracts/FutarchyArbExecutorV5.sol\":24550:24592  if (msg.sender != owner) revert NotOwner() */\n      tag_874\n      jumpi\n        /* \"contracts/FutarchyArbExecutorV5.sol\":41552:41568  to == address(0) */\n      dup1\n      iszero\n        /* \"contracts/FutarchyArbExecutorV5.sol\":41548:41590  if (to == address(0)) revert ZeroAddress() */\n      tag_1097\n      jumpi\n        /* \"contracts/FutarchyArbExecutorV5.sol\":5111:41903  contract FutarchyArbExecutorV5 {... */\n      0x00\n      dup1\n      dup1\n      dup1\n      swap4\n      calldataload(0x24)\n        /* \"contracts/FutarchyArbExecutorV5.sol\":41613:41639  to.call{value: amount}(\"\") */\n      swap1\n      gas\n      call\n      tag_1099\n      tag_22\n      jump\t// in\n    tag_1099:\n      pop\n        /* \"contracts/FutarchyArbExecutorV5.sol\":41653:41656  !ok */\n      iszero\n        /* \"contracts/FutarchyArbExecutorV5.sol\":41649:41680  if (!ok) revert EthSendFailed() */\n      tag_1100\n      jumpi\n        /* \"contracts/FutarchyArbExecutorV5.sol\":5111:41903  contract FutarchyArbExecutorV5 {... */\n      stop\n        /* \"contracts/FutarchyArbExecutorV5.sol\":41649:41680  if (!ok) revert EthSendFailed() */\n    tag_1100:\n        /* \"contracts/FutarchyArbExecutorV5.sol\":41665:41680  EthSendFailed() */\n      shl(0xe2, 0x26092399)\n        /* \"contracts/FutarchyArbExecutorV5.sol\":5111:41903  contract FutarchyArbExecutorV5 {... */\n      0x00\n        /* \"contracts/FutarchyArbExecutorV5.sol\":41665:41680  EthSendFailed() */\n      mstore\n        /* \"contracts/FutarchyArbExecutorV5.sol\":5111:41903  contract FutarchyArbExecutorV5 {... */\n      0x04\n      0x00\n        /* \"contracts/FutarchyArbExecutorV5.sol\":41665:41680  EthSendFailed() */\n      revert\n        /* \"contracts/FutarchyArbExecutorV5.sol\":41548:41590  if (to == address(0)) revert ZeroAddress() */\n    tag_1097:\n        /* \"contracts/FutarchyArbExecutorV5.sol\":41123:41136  ZeroAddress() */\n      shl(0xe0, 0xd92e233d)\n        /* \"contracts/FutarchyArbExecutorV5.sol\":5111:41903  contract FutarchyArbExecutorV5 {... */\n      0x00\n        /* \"contracts/FutarchyArbExecutorV5.sol\":41577:41590  ZeroAddress() */\n      mstore\n        /* \"contracts/FutarchyArbExecutorV5.sol\":5111:41903  contract FutarchyArbExecutorV5 {... */\n      0x04\n      0x00\n        /* \"contracts/FutarchyArbExecutorV5.sol\":41577:41590  ZeroAddress() */\n      revert\n        /* \"contracts/FutarchyArbExecutorV5.sol\":5111:41903  contract FutarchyArbExecutorV5 {... */\n    tag_63:\n      jumpi(tag_166, callvalue)\n      jumpi(tag_166, slt(add(not(0x03), calldatasize), 0x40))\n      tag_1106\n      tag_1\n      jump\t// in\n    tag_1106:\n      tag_1107\n      tag_2\n      jump\t// in\n    tag_1107:\n      sload(0x00)\n      swap1\n      swap2\n      swap1\n      sub(shl(0xa0, 0x01), 0x01)\n      and\n        /* \"contracts/FutarchyArbExecutorV5.sol\":24554:24564  msg.sender */\n      caller\n        /* \"contracts/FutarchyArbExecutorV5.sol\":24554:24573  msg.sender != owner */\n      sub\n        /* \"contracts/FutarchyArbExecutorV5.sol\":24550:24592  if (msg.sender != owner) revert NotOwner() */\n      tag_874\n      jumpi\n      sub(shl(0xa0, 0x01), 0x01)\n        /* \"contracts/FutarchyArbExecutorV5.sol\":5111:41903  contract FutarchyArbExecutorV5 {... */\n      dup3\n      and\n        /* \"contracts/FutarchyArbExecutorV5.sol\":41294:41310  to == address(0) */\n      iszero\n        /* \"contracts/FutarchyArbExecutorV5.sol\":41290:41332  if (to == address(0)) revert ZeroAddress() */\n      tag_1097\n      jumpi\n        /* \"contracts/FutarchyArbExecutorV5.sol\":5111:41903  contract FutarchyArbExecutorV5 {... */\n      mload(0x40)\n      shl(0xe0, 0x70a08231)\n        /* \"contracts/FutarchyArbExecutorV5.sol\":41356:41386  token.balanceOf(address(this)) */\n      dup2\n      mstore\n        /* \"contracts/FutarchyArbExecutorV5.sol\":41380:41384  this */\n      address\n        /* \"contracts/FutarchyArbExecutorV5.sol\":5111:41903  contract FutarchyArbExecutorV5 {... */\n      0x04\n        /* \"contracts/FutarchyArbExecutorV5.sol\":41356:41386  token.balanceOf(address(this)) */\n      dup3\n      add\n        /* \"contracts/FutarchyArbExecutorV5.sol\":5111:41903  contract FutarchyArbExecutorV5 {... */\n      mstore\n      sub(shl(0xa0, 0x01), 0x01)\n      swap2\n      swap1\n      swap2\n      and\n      swap2\n      0x20\n      dup3\n      0x24\n      dup2\n      dup7\n        /* \"contracts/FutarchyArbExecutorV5.sol\":41356:41386  token.balanceOf(address(this)) */\n      gas\n      staticcall\n      swap2\n      dup3\n      iszero\n      tag_262\n      jumpi\n        /* \"contracts/FutarchyArbExecutorV5.sol\":5111:41903  contract FutarchyArbExecutorV5 {... */\n      0x00\n        /* \"contracts/FutarchyArbExecutorV5.sol\":41356:41386  token.balanceOf(address(this)) */\n      swap3\n      tag_1114\n      jumpi\n        /* \"contracts/FutarchyArbExecutorV5.sol\":5111:41903  contract FutarchyArbExecutorV5 {... */\n    tag_1115:\n      pop\n      mload(0x40)\n      shl(0xe0, 0xa9059cbb)\n        /* \"contracts/FutarchyArbExecutorV5.sol\":41401:41424  token.transfer(to, bal) */\n      dup2\n      mstore\n      sub(shl(0xa0, 0x01), 0x01)\n        /* \"contracts/FutarchyArbExecutorV5.sol\":5111:41903  contract FutarchyArbExecutorV5 {... */\n      swap1\n      swap2\n      and\n      0x04\n        /* \"contracts/FutarchyArbExecutorV5.sol\":41401:41424  token.transfer(to, bal) */\n      dup3\n      add\n        /* \"contracts/FutarchyArbExecutorV5.sol\":5111:41903  contract FutarchyArbExecutorV5 {... */\n      mstore\n      0x24\n      dup2\n      add\n      swap2\n      swap1\n      swap2\n      mstore\n      swap1\n      0x20\n      swap1\n      dup3\n      swap1\n      dup2\n      0x00\n      dup2\n      0x44\n      dup2\n      add\n        /* \"contracts/FutarchyArbExecutorV5.sol\":41401:41424  token.transfer(to, bal) */\n    tag_1116:\n      sub\n      swap3\n      gas\n      call\n      swap1\n      dup2\n      iszero\n      tag_262\n      jumpi\n        /* \"contracts/FutarchyArbExecutorV5.sol\":5111:41903  contract FutarchyArbExecutorV5 {... */\n      0x00\n        /* \"contracts/FutarchyArbExecutorV5.sol\":41401:41424  token.transfer(to, bal) */\n      swap2\n      tag_1119\n      jumpi\n        /* \"contracts/FutarchyArbExecutorV5.sol\":5111:41903  contract FutarchyArbExecutorV5 {... */\n    tag_1120:\n        /* \"contracts/FutarchyArbExecutorV5.sol\":41400:41424  !token.transfer(to, bal) */\n      pop\n      iszero\n        /* \"contracts/FutarchyArbExecutorV5.sol\":41396:41449  if (!token.transfer(to, bal)) revert TransferFailed() */\n      tag_1121\n      jumpi\n        /* \"contracts/FutarchyArbExecutorV5.sol\":5111:41903  contract FutarchyArbExecutorV5 {... */\n      stop\n        /* \"contracts/FutarchyArbExecutorV5.sol\":41396:41449  if (!token.transfer(to, bal)) revert TransferFailed() */\n    tag_1121:\n        /* \"contracts/FutarchyArbExecutorV5.sol\":41186:41202  TransferFailed() */\n      shl(0xe3, 0x12171d83)\n        /* \"contracts/FutarchyArbExecutorV5.sol\":5111:41903  contract FutarchyArbExecutorV5 {... */\n      0x00\n        /* \"contracts/FutarchyArbExecutorV5.sol\":41433:41449  TransferFailed() */\n      mstore\n        /* \"contracts/FutarchyArbExecutorV5.sol\":5111:41903  contract FutarchyArbExecutorV5 {... */\n      0x04\n      0x00\n        /* \"contracts/FutarchyArbExecutorV5.sol\":41433:41449  TransferFailed() */\n      revert\n        /* \"contracts/FutarchyArbExecutorV5.sol\":41401:41424  token.transfer(to, bal) */\n    tag_1119:\n      tag_1123\n      swap2\n      pop\n        /* \"contracts/FutarchyArbExecutorV5.sol\":5111:41903  contract FutarchyArbExecutorV5 {... */\n      0x20\n        /* \"contracts/FutarchyArbExecutorV5.sol\":41401:41424  token.transfer(to, bal) */\n      returndatasize\n        /* \"contracts/FutarchyArbExecutorV5.sol\":5111:41903  contract FutarchyArbExecutorV5 {... */\n      0x20\n        /* \"contracts/FutarchyArbExecutorV5.sol\":41401:41424  token.transfer(to, bal) */\n      gt\n      tag_1124\n      jumpi\n    tag_1125:\n      tag_1126\n      dup2\n      dup4\n      tag_18\n      jump\t// in\n    tag_1126:\n      dup2\n      add\n      swap1\n      tag_19\n      jump\t// in\n    tag_1123:\n      dup2\n      jump(tag_1120)\n    tag_1124:\n      pop\n      returndatasize\n      jump(tag_1125)\n        /* \"contracts/FutarchyArbExecutorV5.sol\":41356:41386  token.balanceOf(address(this)) */\n    tag_1114:\n      swap2\n      pop\n        /* \"contracts/FutarchyArbExecutorV5.sol\":5111:41903  contract FutarchyArbExecutorV5 {... */\n      0x20\n        /* \"contracts/FutarchyArbExecutorV5.sol\":41356:41386  token.balanceOf(address(this)) */\n      dup3\n      returndatasize\n        /* \"contracts/FutarchyArbExecutorV5.sol\":5111:41903  contract FutarchyArbExecutorV5 {... */\n      0x20\n        /* \"contracts/FutarchyArbExecutorV5.sol\":41356:41386  token.balanceOf(address(this)) */\n      gt\n      tag_1127\n      jumpi\n    tag_1128:\n      dup2\n      tag_1129\n        /* \"contracts/FutarchyArbExecutorV5.sol\":5111:41903  contract FutarchyArbExecutorV5 {... */\n      0x20\n        /* \"contracts/FutarchyArbExecutorV5.sol\":41356:41386  token.balanceOf(address(this)) */\n      swap4\n      dup4\n      tag_18\n      jump\t// in\n    tag_1129:\n      dup2\n      add\n        /* \"contracts/FutarchyArbExecutorV5.sol\":5111:41903  contract FutarchyArbExecutorV5 {... */\n      sub\n      slt\n      tag_166\n      jumpi\n      swap1\n      mload\n      swap1\n        /* \"contracts/FutarchyArbExecutorV5.sol\":41401:41424  token.transfer(to, bal) */\n      tag_1116\n        /* \"contracts/FutarchyArbExecutorV5.sol\":41356:41386  token.balanceOf(address(this)) */\n      jump(tag_1115)\n    tag_1127:\n      returndatasize\n      swap2\n      pop\n      jump(tag_1128)\n        /* \"contracts/FutarchyArbExecutorV5.sol\":5111:41903  contract FutarchyArbExecutorV5 {... */\n    tag_61:\n      jumpi(tag_166, callvalue)\n      jumpi(tag_166, slt(add(not(0x03), calldatasize), 0x60))\n      tag_1136\n      tag_1\n      jump\t// in\n    tag_1136:\n      tag_1137\n      tag_2\n      jump\t// in\n    tag_1137:\n      and(sub(shl(0xa0, 0x01), 0x01), sload(0x00))\n        /* \"contracts/FutarchyArbExecutorV5.sol\":24554:24564  msg.sender */\n      caller\n        /* \"contracts/FutarchyArbExecutorV5.sol\":24554:24573  msg.sender != owner */\n      sub\n        /* \"contracts/FutarchyArbExecutorV5.sol\":24550:24592  if (msg.sender != owner) revert NotOwner() */\n      tag_874\n      jumpi\n      sub(shl(0xa0, 0x01), 0x01)\n        /* \"contracts/FutarchyArbExecutorV5.sol\":5111:41903  contract FutarchyArbExecutorV5 {... */\n      dup2\n      and\n        /* \"contracts/FutarchyArbExecutorV5.sol\":41098:41114  to == address(0) */\n      iszero\n        /* \"contracts/FutarchyArbExecutorV5.sol\":41094:41136  if (to == address(0)) revert ZeroAddress() */\n      tag_1097\n      jumpi\n      shl(0xe0, 0xa9059cbb)\n        /* \"contracts/FutarchyArbExecutorV5.sol\":41151:41177  token.transfer(to, amount) */\n      dup4\n      mstore\n      sub(shl(0xa0, 0x01), 0x01)\n        /* \"contracts/FutarchyArbExecutorV5.sol\":5111:41903  contract FutarchyArbExecutorV5 {... */\n      swap1\n      dup2\n      and\n      0x04\n        /* \"contracts/FutarchyArbExecutorV5.sol\":41151:41177  token.transfer(to, amount) */\n      dup5\n      add\n        /* \"contracts/FutarchyArbExecutorV5.sol\":5111:41903  contract FutarchyArbExecutorV5 {... */\n      mstore\n      0x44\n      dup1\n      calldataload\n      0x24\n      dup6\n      add\n      mstore\n      0x20\n      swap3\n        /* \"contracts/FutarchyArbExecutorV5.sol\":41151:41177  token.transfer(to, amount) */\n      dup5\n      swap3\n      dup4\n      swap2\n      0x00\n      swap2\n        /* \"contracts/FutarchyArbExecutorV5.sol\":5111:41903  contract FutarchyArbExecutorV5 {... */\n      and\n        /* \"contracts/FutarchyArbExecutorV5.sol\":41151:41177  token.transfer(to, amount) */\n      gas\n      call\n      swap1\n      dup2\n      iszero\n      tag_262\n      jumpi\n        /* \"contracts/FutarchyArbExecutorV5.sol\":5111:41903  contract FutarchyArbExecutorV5 {... */\n      0x00\n        /* \"contracts/FutarchyArbExecutorV5.sol\":41151:41177  token.transfer(to, amount) */\n      swap2\n      tag_1119\n      jumpi\n        /* \"contracts/FutarchyArbExecutorV5.sol\":41150:41177  !token.transfer(to, amount) */\n      pop\n      iszero\n        /* \"contracts/FutarchyArbExecutorV5.sol\":41146:41202  if (!token.transfer(to, amount)) revert TransferFailed() */\n      tag_1121\n      jumpi\n        /* \"contracts/FutarchyArbExecutorV5.sol\":5111:41903  contract FutarchyArbExecutorV5 {... */\n      stop\n    tag_1:\n      calldataload(0x04)\n      swap1\n      sub(shl(0xa0, 0x01), 0x01)\n      dup3\n      and\n      dup3\n      sub\n      tag_166\n      jumpi\n      jump\t// out\n    tag_2:\n      calldataload(0x24)\n      swap1\n      sub(shl(0xa0, 0x01), 0x01)\n      dup3\n      and\n      dup3\n      sub\n      tag_166\n      jumpi\n      jump\t// out\n    tag_3:\n      calldataload(0x64)\n      swap1\n      sub(shl(0xa0, 0x01), 0x01)\n      dup3\n      and\n      dup3\n      sub\n      tag_166\n      jumpi\n      jump\t// out\n    tag_4:\n      calldataload(0x84)\n      swap1\n      sub(shl(0xa0, 0x01), 0x01)\n      dup3\n      and\n      dup3\n      sub\n      tag_166\n      jumpi\n      jump\t// out\n    tag_5:\n      calldataload(0xc4)\n      swap1\n      sub(shl(0xa0, 0x01), 0x01)\n      dup3\n      and\n      dup3\n      sub\n      tag_166\n      jumpi\n      jump\t// out\n    tag_6:\n      calldataload(0xe4)\n      swap1\n      sub(shl(0xa0, 0x01), 0x01)\n      dup3\n      and\n      dup3\n      sub\n      tag_166\n      jumpi\n      jump\t// out\n    tag_7:\n      calldataload(0x0104)\n      swap1\n      sub(shl(0xa0, 0x01), 0x01)\n      dup3\n      and\n      dup3\n      sub\n      tag_166\n      jumpi\n      jump\t// out\n    tag_8:\n      calldataload(0x0124)\n      swap1\n      sub(shl(0xa0, 0x01), 0x01)\n      dup3\n      and\n      dup3\n      sub\n      tag_166\n      jumpi\n      jump\t// out\n    tag_9:\n      calldataload(0x0144)\n      swap1\n      sub(shl(0xa0, 0x01), 0x01)\n      dup3\n      and\n      dup3\n      sub\n      tag_166\n      jumpi\n      jump\t// out\n    tag_10:\n      calldataload(0x0164)\n      swap1\n      sub(shl(0xa0, 0x01), 0x01)\n      dup3\n      and\n      dup3\n      sub\n      tag_166\n      jumpi\n      jump\t// out\n    tag_11:\n      calldataload\n      swap1\n      sub(shl(0xa0, 0x01), 0x01)\n      dup3\n      and\n      dup3\n      sub\n      tag_166\n      jumpi\n      jump\t// out\n    tag_12:\n      0x60\n      swap1\n      not(0x03)\n      add\n      slt\n      tag_166\n      jumpi\n      calldataload(0x04)\n      swap1\n      calldataload(0x24)\n      swap1\n      calldataload(0x44)\n      swap1\n      jump\t// out\n    tag_13:\n      swap2\n      dup2\n      0x1f\n      dup5\n      add\n      slt\n      iszero\n      tag_166\n      jumpi\n      dup3\n      calldataload\n      swap2\n      sub(shl(0x40, 0x01), 0x01)\n      dup4\n      gt\n      tag_166\n      jumpi\n      0x20\n      dup4\n      dup2\n      dup7\n      add\n      swap6\n      add\n      add\n      gt\n      tag_166\n      jumpi\n      jump\t// out\n    tag_14:\n      0x01c0\n      not(0x03)\n      dup3\n      add\n      slt\n      tag_166\n      jumpi\n      calldataload(0x04)\n      swap1\n      sub(shl(0x40, 0x01), 0x01)\n      dup3\n      gt\n      tag_166\n      jumpi\n      tag_1187\n      swap2\n      0x04\n      add\n      tag_13\n      jump\t// in\n    tag_1187:\n      swap1\n      swap2\n      calldataload(0x24)\n      sub(shl(0xa0, 0x01), 0x01)\n      dup2\n      and\n      dup2\n      sub\n      tag_166\n      jumpi\n      swap1\n      calldataload(0x44)\n      sub(shl(0xa0, 0x01), 0x01)\n      dup2\n      and\n      dup2\n      sub\n      tag_166\n      jumpi\n      swap1\n      calldataload(0x64)\n      sub(shl(0xa0, 0x01), 0x01)\n      dup2\n      and\n      dup2\n      sub\n      tag_166\n      jumpi\n      swap1\n      calldataload(0x84)\n      sub(shl(0xa0, 0x01), 0x01)\n      dup2\n      and\n      dup2\n      sub\n      tag_166\n      jumpi\n      swap1\n      calldataload(0xa4)\n      sub(shl(0xa0, 0x01), 0x01)\n      dup2\n      and\n      dup2\n      sub\n      tag_166\n      jumpi\n      swap1\n      calldataload(0xc4)\n      sub(shl(0xa0, 0x01), 0x01)\n      dup2\n      and\n      dup2\n      sub\n      tag_166\n      jumpi\n      swap1\n      calldataload(0xe4)\n      sub(shl(0xa0, 0x01), 0x01)\n      dup2\n      and\n      dup2\n      sub\n      tag_166\n      jumpi\n      swap1\n      calldataload(0x0104)\n      sub(shl(0xa0, 0x01), 0x01)\n      dup2\n      and\n      dup2\n      sub\n      tag_166\n      jumpi\n      swap1\n      calldataload(0x0124)\n      sub(shl(0xa0, 0x01), 0x01)\n      dup2\n      and\n      dup2\n      sub\n      tag_166\n      jumpi\n      swap1\n      calldataload(0x0144)\n      sub(shl(0xa0, 0x01), 0x01)\n      dup2\n      and\n      dup2\n      sub\n      tag_166\n      jumpi\n      swap1\n      calldataload(0x0164)\n      sub(shl(0xa0, 0x01), 0x01)\n      dup2\n      and\n      dup2\n      sub\n      tag_166\n      jumpi\n      swap1\n      calldataload(0x0184)\n      swap1\n      calldataload(0x01a4)\n      swap1\n      jump\t// out\n    tag_15:\n      calldataload\n      swap1\n      dup2\n      iszero\n      iszero\n      dup3\n      sub\n      tag_166\n      jumpi\n      jump\t// out\n    tag_16:\n      0x80\n      dup2\n      add\n      swap1\n      dup2\n      lt\n      sub(shl(0x40, 0x01), 0x01)\n      dup3\n      gt\n      or\n      tag_1212\n      jumpi\n      0x40\n      mstore\n      jump\t// out\n    tag_1212:\n      mstore(0x00, shl(0xe0, 0x4e487b71))\n      mstore(0x04, 0x41)\n      revert(0x00, 0x24)\n    tag_17:\n        /* \"contracts/FutarchyArbExecutorV5.sol\":6316:6358  0xBA12222222228d8Ba445958a75a0704d566BF2C8 */\n      0xa0\n        /* \"contracts/FutarchyArbExecutorV5.sol\":5111:41903  contract FutarchyArbExecutorV5 {... */\n      dup2\n      add\n      swap1\n      dup2\n      lt\n      sub(shl(0x40, 0x01), 0x01)\n      dup3\n      gt\n      or\n      tag_1212\n      jumpi\n      0x40\n      mstore\n      jump\t// out\n    tag_18:\n      swap1\n      0x1f\n        /* \"contracts/FutarchyArbExecutorV5.sol\":6408:6450  0xE43e60736b1cb4a75ad25240E2f9a62Bff65c0C0 */\n      dup1\n      not\n        /* \"contracts/FutarchyArbExecutorV5.sol\":5111:41903  contract FutarchyArbExecutorV5 {... */\n      swap2\n      add\n      and\n      dup2\n      add\n      swap1\n      dup2\n      lt\n      sub(shl(0x40, 0x01), 0x01)\n      dup3\n      gt\n      or\n      tag_1212\n      jumpi\n      0x40\n      mstore\n      jump\t// out\n    tag_19:\n      swap1\n      dup2\n      0x20\n      swap2\n      sub\n      slt\n      tag_166\n      jumpi\n      mload\n      dup1\n      iszero\n      iszero\n      dup2\n      sub\n      tag_166\n      jumpi\n      swap1\n      jump\t// out\n    tag_21:\n      sub(shl(0x40, 0x01), 0x01)\n      dup2\n      gt\n      tag_1212\n      jumpi\n      0x1f\n      add\n      not(0x1f)\n      and\n      0x20\n      add\n      swap1\n      jump\t// out\n    tag_22:\n      jumpi(tag_1224, iszero(returndatasize))\n      returndatasize\n      swap1\n      tag_1226\n      dup3\n      tag_21\n      jump\t// in\n    tag_1226:\n      swap2\n      tag_1227\n      mload(0x40)\n      swap4\n      dup5\n      tag_18\n      jump\t// in\n    tag_1227:\n      dup3\n      mstore\n      returndatasize\n      0x00\n      0x20\n      dup5\n      add\n      returndatacopy\n      jump\t// out\n    tag_1224:\n      0x60\n      swap1\n      jump\t// out\n    tag_23:\n      swap1\n      swap2\n      dup1\n      0x40\n      swap4\n      0x20\n      dup5\n      mstore\n      dup2\n      0x20\n      dup6\n      add\n      mstore\n      dup5\n      dup5\n      add\n      calldatacopy\n      0x00\n      dup3\n      dup3\n      add\n      dup5\n      add\n      mstore\n      0x1f\n      add\n      not(0x1f)\n      and\n      add\n      add\n      swap1\n      jump\t// out\n    tag_25:\n      sub(shl(0xa0, 0x01), 0x01)\n      swap2\n      dup3\n      and\n      dup2\n      mstore\n      swap2\n      and\n      0x20\n      dup3\n      add\n      mstore\n      0x40\n      dup2\n      add\n      swap2\n      swap1\n      swap2\n      mstore\n      0x60\n      add\n      swap1\n      jump\t// out\n    tag_26:\n      dup2\n      dup2\n      sub\n      swap3\n      swap2\n      0x00\n      sgt\n      dup1\n      iszero\n      dup3\n      dup6\n      sgt\n      and\n      swap2\n      dup5\n      slt\n      and\n      or\n      tag_1229\n      jumpi\n      jump\t// out\n    tag_1229:\n      mstore(0x00, shl(0xe0, 0x4e487b71))\n      mstore(0x04, 0x11)\n      revert(0x00, 0x24)\n        /* \"contracts/FutarchyArbExecutorV5.sol\":6225:6267  0x37b60f4E9A31A64cCc0024dce7D0fD07eAA0F7B3 */\n    tag_28:\n      sub(shl(0x40, 0x01), 0x01)\n      dup2\n      gt\n      tag_1212\n      jumpi\n      0x05\n      shl\n      0x20\n      add\n      swap1\n      jump\t// out\n    tag_29:\n      dup1\n      mload\n      iszero\n      tag_1233\n      jumpi\n      0x20\n      add\n      swap1\n      jump\t// out\n    tag_1233:\n        /* \"contracts/FutarchyArbExecutorV5.sol\":5111:41903  contract FutarchyArbExecutorV5 {... */\n      shl(0xe0, 0x4e487b71)\n      0x00\n        /* \"contracts/FutarchyArbExecutorV5.sol\":6225:6267  0x37b60f4E9A31A64cCc0024dce7D0fD07eAA0F7B3 */\n      mstore\n      mstore(0x04, 0x32)\n      0x24\n        /* \"contracts/FutarchyArbExecutorV5.sol\":5111:41903  contract FutarchyArbExecutorV5 {... */\n      0x00\n        /* \"contracts/FutarchyArbExecutorV5.sol\":6225:6267  0x37b60f4E9A31A64cCc0024dce7D0fD07eAA0F7B3 */\n      revert\n    tag_30:\n      dup1\n      mload\n        /* \"contracts/FutarchyArbExecutorV5.sol\":9396:9397  1 */\n      0x01\n        /* \"contracts/FutarchyArbExecutorV5.sol\":6225:6267  0x37b60f4E9A31A64cCc0024dce7D0fD07eAA0F7B3 */\n      lt\n      iszero\n      tag_1233\n      jumpi\n      0x40\n      add\n      swap1\n      jump\t// out\n    tag_31:\n      dup1\n      mload\n        /* \"contracts/FutarchyArbExecutorV5.sol\":9656:9657  2 */\n      0x02\n        /* \"contracts/FutarchyArbExecutorV5.sol\":6225:6267  0x37b60f4E9A31A64cCc0024dce7D0fD07eAA0F7B3 */\n      lt\n      iszero\n      tag_1233\n      jumpi\n      0x60\n      add\n      swap1\n      jump\t// out\n    tag_32:\n      dup1\n      mload\n        /* \"contracts/FutarchyArbExecutorV5.sol\":13517:13518  3 */\n      0x03\n        /* \"contracts/FutarchyArbExecutorV5.sol\":6225:6267  0x37b60f4E9A31A64cCc0024dce7D0fD07eAA0F7B3 */\n      lt\n      iszero\n      tag_1233\n      jumpi\n      0x80\n      add\n      swap1\n      jump\t// out\n    tag_33:\n      dup1\n      mload\n        /* \"contracts/FutarchyArbExecutorV5.sol\":12019:12160  IUniswapV2Router02(SWAPR_V2_ROUTER)... */\n      0x04\n        /* \"contracts/FutarchyArbExecutorV5.sol\":6225:6267  0x37b60f4E9A31A64cCc0024dce7D0fD07eAA0F7B3 */\n      lt\n      iszero\n      tag_1233\n      jumpi\n      0xa0\n      add\n      swap1\n      jump\t// out\n    tag_34:\n      swap1\n      dup1\n      0x1f\n      dup4\n      add\n      slt\n      iszero\n      tag_166\n      jumpi\n      dup2\n      mload\n      tag_1245\n      dup2\n      tag_28\n      jump\t// in\n    tag_1245:\n        /* \"contracts/FutarchyArbExecutorV5.sol\":5111:41903  contract FutarchyArbExecutorV5 {... */\n      swap3\n      tag_1246\n      mload(0x40)\n      swap5\n      dup6\n      tag_18\n      jump\t// in\n    tag_1246:\n        /* \"contracts/FutarchyArbExecutorV5.sol\":6225:6267  0x37b60f4E9A31A64cCc0024dce7D0fD07eAA0F7B3 */\n      dup2\n      dup5\n      mstore\n      0x20\n      dup1\n      dup6\n      add\n      swap3\n      0x05\n      shl\n      dup3\n      add\n      add\n      swap3\n      dup4\n      gt\n      tag_166\n      jumpi\n      0x20\n      add\n      swap1\n    tag_1249:\n      dup3\n      dup3\n      lt\n      tag_1250\n      jumpi\n      pop\n      pop\n      pop\n      swap1\n      jump\t// out\n    tag_1250:\n        /* \"contracts/FutarchyArbExecutorV5.sol\":5111:41903  contract FutarchyArbExecutorV5 {... */\n      dup2\n      mload\n        /* \"contracts/FutarchyArbExecutorV5.sol\":6225:6267  0x37b60f4E9A31A64cCc0024dce7D0fD07eAA0F7B3 */\n      dup2\n      mstore\n      0x20\n      swap2\n      dup3\n      add\n      swap2\n      add\n      jump(tag_1249)\n    tag_35:\n      dup1\n      mload\n        /* \"contracts/FutarchyArbExecutorV5.sol\":5111:41903  contract FutarchyArbExecutorV5 {... */\n      dup1\n      dup4\n      mstore\n      0x20\n      swap3\n        /* \"contracts/FutarchyArbExecutorV5.sol\":6225:6267  0x37b60f4E9A31A64cCc0024dce7D0fD07eAA0F7B3 */\n      swap2\n      dup2\n      swap1\n      dup5\n      add\n        /* \"contracts/FutarchyArbExecutorV5.sol\":5111:41903  contract FutarchyArbExecutorV5 {... */\n      dup5\n      dup5\n      add\n        /* \"contracts/FutarchyArbExecutorV5.sol\":6225:6267  0x37b60f4E9A31A64cCc0024dce7D0fD07eAA0F7B3 */\n      mcopy\n      0x00\n      dup3\n      dup3\n      add\n      dup5\n      add\n      mstore\n        /* \"contracts/FutarchyArbExecutorV5.sol\":5111:41903  contract FutarchyArbExecutorV5 {... */\n      0x1f\n      add\n      not(0x1f)\n      and\n        /* \"contracts/FutarchyArbExecutorV5.sol\":6225:6267  0x37b60f4E9A31A64cCc0024dce7D0fD07eAA0F7B3 */\n      add\n      add\n      swap1\n      jump\t// out\n        /* \"contracts/FutarchyArbExecutorV5.sol\":6316:6358  0xBA12222222228d8Ba445958a75a0704d566BF2C8 */\n    tag_36:\n        /* \"contracts/FutarchyArbExecutorV5.sol\":5111:41903  contract FutarchyArbExecutorV5 {... */\n      mload(0x40)\n        /* \"contracts/FutarchyArbExecutorV5.sol\":6225:6267  0x37b60f4E9A31A64cCc0024dce7D0fD07eAA0F7B3 */\n      0x80\n      swap2\n        /* \"contracts/FutarchyArbExecutorV5.sol\":5111:41903  contract FutarchyArbExecutorV5 {... */\n      swap1\n      tag_1254\n        /* \"contracts/FutarchyArbExecutorV5.sol\":6225:6267  0x37b60f4E9A31A64cCc0024dce7D0fD07eAA0F7B3 */\n      dup4\n        /* \"contracts/FutarchyArbExecutorV5.sol\":5111:41903  contract FutarchyArbExecutorV5 {... */\n      dup3\n      tag_18\n      jump\t// in\n    tag_1254:\n        /* \"contracts/FutarchyArbExecutorV5.sol\":9207:9208  3 */\n      0x03\n        /* \"contracts/FutarchyArbExecutorV5.sol\":6316:6358  0xBA12222222228d8Ba445958a75a0704d566BF2C8 */\n      dup2\n      mstore\n      swap2\n      not(0x1f)\n      add\n      dup3\n      0x00\n    tag_1257:\n      dup3\n      dup2\n      lt\n      tag_1258\n      jumpi\n      pop\n      pop\n      pop\n      jump\t// out\n    tag_1258:\n      0x20\n        /* \"contracts/FutarchyArbExecutorV5.sol\":5111:41903  contract FutarchyArbExecutorV5 {... */\n      swap1\n      mload(0x40)\n      tag_1260\n      dup2\n      tag_17\n      jump\t// in\n    tag_1260:\n      0x00\n        /* \"contracts/FutarchyArbExecutorV5.sol\":6316:6358  0xBA12222222228d8Ba445958a75a0704d566BF2C8 */\n      dup2\n      mstore\n      0x00\n      dup4\n      dup3\n      add\n      mstore\n      0x00\n        /* \"contracts/FutarchyArbExecutorV5.sol\":5111:41903  contract FutarchyArbExecutorV5 {... */\n      0x40\n        /* \"contracts/FutarchyArbExecutorV5.sol\":6316:6358  0xBA12222222228d8Ba445958a75a0704d566BF2C8 */\n      dup3\n      add\n      mstore\n      0x00\n      0x60\n      dup3\n      add\n      mstore\n      0x60\n      0x80\n      dup3\n      add\n      mstore\n      dup3\n      dup3\n      dup6\n      add\n      add\n      mstore\n      add\n      jump(tag_1257)\n    tag_37:\n        /* \"contracts/FutarchyArbExecutorV5.sol\":5111:41903  contract FutarchyArbExecutorV5 {... */\n      mload(0x40)\n        /* \"contracts/FutarchyArbExecutorV5.sol\":6225:6267  0x37b60f4E9A31A64cCc0024dce7D0fD07eAA0F7B3 */\n      0xc0\n      swap2\n        /* \"contracts/FutarchyArbExecutorV5.sol\":5111:41903  contract FutarchyArbExecutorV5 {... */\n      swap1\n      tag_1263\n        /* \"contracts/FutarchyArbExecutorV5.sol\":6225:6267  0x37b60f4E9A31A64cCc0024dce7D0fD07eAA0F7B3 */\n      dup4\n        /* \"contracts/FutarchyArbExecutorV5.sol\":5111:41903  contract FutarchyArbExecutorV5 {... */\n      dup3\n      tag_18\n      jump\t// in\n    tag_1263:\n        /* \"contracts/FutarchyArbExecutorV5.sol\":12693:12694  5 */\n      0x05\n        /* \"contracts/FutarchyArbExecutorV5.sol\":6316:6358  0xBA12222222228d8Ba445958a75a0704d566BF2C8 */\n      dup2\n      mstore\n      swap2\n      not(0x1f)\n      add\n      dup3\n      0x00\n    tag_1266:\n      dup3\n      dup2\n      lt\n      tag_1267\n      jumpi\n      pop\n      pop\n      pop\n      jump\t// out\n    tag_1267:\n      0x20\n        /* \"contracts/FutarchyArbExecutorV5.sol\":5111:41903  contract FutarchyArbExecutorV5 {... */\n      swap1\n      mload(0x40)\n      tag_1269\n      dup2\n      tag_17\n      jump\t// in\n    tag_1269:\n      0x00\n        /* \"contracts/FutarchyArbExecutorV5.sol\":6316:6358  0xBA12222222228d8Ba445958a75a0704d566BF2C8 */\n      dup2\n      mstore\n      0x00\n      dup4\n      dup3\n      add\n      mstore\n      0x00\n        /* \"contracts/FutarchyArbExecutorV5.sol\":5111:41903  contract FutarchyArbExecutorV5 {... */\n      0x40\n        /* \"contracts/FutarchyArbExecutorV5.sol\":6316:6358  0xBA12222222228d8Ba445958a75a0704d566BF2C8 */\n      dup3\n      add\n      mstore\n      0x00\n      0x60\n      dup3\n      add\n      mstore\n      0x60\n      0x80\n      dup3\n      add\n      mstore\n      dup3\n      dup3\n      dup6\n      add\n      add\n      mstore\n      add\n      jump(tag_1266)\n        /* \"contracts/FutarchyArbExecutorV5.sol\":7034:7100  0xa99fd9950b5d5dceeaf4939e221dca8ca9b938ab000100000000000000000025 */\n    tag_38:\n      swap1\n        /* \"contracts/FutarchyArbExecutorV5.sol\":6316:6358  0xBA12222222228d8Ba445958a75a0704d566BF2C8 */\n      tag_1270\n      dup3\n      tag_28\n      jump\t// in\n    tag_1270:\n        /* \"contracts/FutarchyArbExecutorV5.sol\":5111:41903  contract FutarchyArbExecutorV5 {... */\n      tag_1271\n      mload(0x40)\n      swap2\n      dup3\n      tag_18\n      jump\t// in\n    tag_1271:\n        /* \"contracts/FutarchyArbExecutorV5.sol\":6316:6358  0xBA12222222228d8Ba445958a75a0704d566BF2C8 */\n      dup3\n      dup2\n      mstore\n        /* \"contracts/FutarchyArbExecutorV5.sol\":7034:7100  0xa99fd9950b5d5dceeaf4939e221dca8ca9b938ab000100000000000000000025 */\n      dup1\n        /* \"contracts/FutarchyArbExecutorV5.sol\":6408:6450  0xE43e60736b1cb4a75ad25240E2f9a62Bff65c0C0 */\n      swap3\n        /* \"contracts/FutarchyArbExecutorV5.sol\":7034:7100  0xa99fd9950b5d5dceeaf4939e221dca8ca9b938ab000100000000000000000025 */\n      tag_1272\n        /* \"contracts/FutarchyArbExecutorV5.sol\":6408:6450  0xE43e60736b1cb4a75ad25240E2f9a62Bff65c0C0 */\n      not(0x1f)\n        /* \"contracts/FutarchyArbExecutorV5.sol\":7034:7100  0xa99fd9950b5d5dceeaf4939e221dca8ca9b938ab000100000000000000000025 */\n      swap2\n      tag_28\n      jump\t// in\n    tag_1272:\n      add\n      swap1\n      0x20\n      calldatasize\n      swap2\n      add\n      calldatacopy\n      jump\t// out\n        /* \"contracts/FutarchyArbExecutorV5.sol\":7508:7509  0 */\n    tag_39:\n      shl(0xff, 0x01)\n      dup2\n      eq\n      tag_1229\n      jumpi\n      0x00\n      sub\n      swap1\n      jump\t// out\n        /* \"contracts/FutarchyArbExecutorV5.sol\":7634:7650  9007199254740991 */\n    tag_40:\n      0x20\n      dup2\n      dup4\n      sub\n      slt\n      tag_166\n      jumpi\n      dup1\n      mload\n      swap1\n      sub(shl(0x40, 0x01), 0x01)\n      dup3\n      gt\n      tag_166\n      jumpi\n      add\n      swap1\n      dup1\n      0x1f\n      dup4\n      add\n      slt\n      iszero\n      tag_166\n      jumpi\n      dup2\n      mload\n      tag_1281\n      dup2\n      tag_28\n      jump\t// in\n    tag_1281:\n        /* \"contracts/FutarchyArbExecutorV5.sol\":5111:41903  contract FutarchyArbExecutorV5 {... */\n      swap3\n      tag_1282\n      mload(0x40)\n      swap5\n      dup6\n      tag_18\n      jump\t// in\n    tag_1282:\n        /* \"contracts/FutarchyArbExecutorV5.sol\":7634:7650  9007199254740991 */\n      dup2\n      dup5\n      mstore\n      0x20\n      dup1\n      dup6\n      add\n      swap3\n      0x05\n      shl\n      dup3\n      add\n      add\n      swap3\n      dup4\n      gt\n      tag_166\n      jumpi\n      0x20\n      add\n      swap1\n    tag_1285:\n      dup3\n      dup3\n      lt\n      tag_1286\n      jumpi\n      pop\n      pop\n      pop\n      swap1\n      jump\t// out\n    tag_1286:\n      dup2\n      mload\n      dup2\n      mstore\n      0x20\n      swap2\n      dup3\n      add\n      swap2\n      add\n      jump(tag_1285)\n    tag_41:\n      swap1\n        /* \"contracts/FutarchyArbExecutorV5.sol\":5111:41903  contract FutarchyArbExecutorV5 {... */\n      0x20\n        /* \"contracts/FutarchyArbExecutorV5.sol\":6225:6267  0x37b60f4E9A31A64cCc0024dce7D0fD07eAA0F7B3 */\n      dup1\n      dup4\n      mload\n        /* \"contracts/FutarchyArbExecutorV5.sol\":5111:41903  contract FutarchyArbExecutorV5 {... */\n      swap3\n      dup4\n      dup2\n      mstore\n      add\n        /* \"contracts/FutarchyArbExecutorV5.sol\":6225:6267  0x37b60f4E9A31A64cCc0024dce7D0fD07eAA0F7B3 */\n      swap3\n      add\n        /* \"contracts/FutarchyArbExecutorV5.sol\":7634:7650  9007199254740991 */\n      swap1\n      0x00\n    tag_1288:\n      dup2\n      dup2\n      lt\n      tag_1289\n      jumpi\n      pop\n      pop\n      pop\n      swap1\n      jump\t// out\n    tag_1289:\n      dup3\n      mload\n      sub(shl(0xa0, 0x01), 0x01)\n        /* \"contracts/FutarchyArbExecutorV5.sol\":5111:41903  contract FutarchyArbExecutorV5 {... */\n      and\n      dup5\n      mstore\n      0x20\n        /* \"contracts/FutarchyArbExecutorV5.sol\":7634:7650  9007199254740991 */\n      swap4\n      dup5\n      add\n      swap4\n        /* \"contracts/FutarchyArbExecutorV5.sol\":6225:6267  0x37b60f4E9A31A64cCc0024dce7D0fD07eAA0F7B3 */\n      swap1\n      swap3\n      add\n      swap2\n        /* \"contracts/FutarchyArbExecutorV5.sol\":7634:7650  9007199254740991 */\n      0x01\n      add\n      jump(tag_1288)\n    tag_42:\n      swap5\n      swap4\n      swap3\n      swap2\n      0x0120\n      dup7\n      add\n      0x00\n      dup8\n      mstore\n      0x0120\n      0x20\n      dup9\n      add\n      mstore\n        /* \"contracts/FutarchyArbExecutorV5.sol\":6225:6267  0x37b60f4E9A31A64cCc0024dce7D0fD07eAA0F7B3 */\n      dup3\n      mload\n        /* \"contracts/FutarchyArbExecutorV5.sol\":5111:41903  contract FutarchyArbExecutorV5 {... */\n      dup1\n      swap2\n      mstore\n      0x0140\n      dup8\n      add\n        /* \"contracts/FutarchyArbExecutorV5.sol\":7634:7650  9007199254740991 */\n      swap1\n      0x20\n        /* \"contracts/FutarchyArbExecutorV5.sol\":5111:41903  contract FutarchyArbExecutorV5 {... */\n      0x0140\n        /* \"contracts/FutarchyArbExecutorV5.sol\":7634:7650  9007199254740991 */\n      dup3\n      0x05\n      shl\n      dup11\n      add\n      add\n        /* \"contracts/FutarchyArbExecutorV5.sol\":6225:6267  0x37b60f4E9A31A64cCc0024dce7D0fD07eAA0F7B3 */\n      swap5\n      add\n        /* \"contracts/FutarchyArbExecutorV5.sol\":7634:7650  9007199254740991 */\n      swap2\n      0x00\n      swap1\n    tag_1291:\n      dup3\n      dup3\n      lt\n      tag_1292\n      jumpi\n      pop\n      pop\n      pop\n      pop\n      dup2\n      tag_1294\n      swap2\n      dup8\n      0x60\n      swap5\n      sub\n      0x40\n      dup10\n      add\n      mstore\n      tag_41\n      jump\t// in\n    tag_1294:\n      dup3\n      mload\n      sub(shl(0xa0, 0x01), 0x01)\n        /* \"contracts/FutarchyArbExecutorV5.sol\":5111:41903  contract FutarchyArbExecutorV5 {... */\n      swap1\n      dup2\n      and\n        /* \"contracts/FutarchyArbExecutorV5.sol\":7634:7650  9007199254740991 */\n      dup8\n      dup5\n      add\n        /* \"contracts/FutarchyArbExecutorV5.sol\":5111:41903  contract FutarchyArbExecutorV5 {... */\n      mstore\n        /* \"contracts/FutarchyArbExecutorV5.sol\":7634:7650  9007199254740991 */\n      0x20\n      dup1\n      dup6\n      add\n      mload\n        /* \"contracts/FutarchyArbExecutorV5.sol\":5111:41903  contract FutarchyArbExecutorV5 {... */\n      iszero\n      iszero\n        /* \"contracts/FutarchyArbExecutorV5.sol\":7634:7650  9007199254740991 */\n      0x80\n      dup10\n      add\n        /* \"contracts/FutarchyArbExecutorV5.sol\":5111:41903  contract FutarchyArbExecutorV5 {... */\n      mstore\n        /* \"contracts/FutarchyArbExecutorV5.sol\":7634:7650  9007199254740991 */\n      0x40\n      dup6\n      add\n      mload\n        /* \"contracts/FutarchyArbExecutorV5.sol\":5111:41903  contract FutarchyArbExecutorV5 {... */\n      swap1\n      swap2\n      and\n      0xa0\n        /* \"contracts/FutarchyArbExecutorV5.sol\":7634:7650  9007199254740991 */\n      dup9\n      add\n        /* \"contracts/FutarchyArbExecutorV5.sol\":5111:41903  contract FutarchyArbExecutorV5 {... */\n      mstore\n        /* \"contracts/FutarchyArbExecutorV5.sol\":7634:7650  9007199254740991 */\n      swap2\n      swap1\n      swap3\n      add\n      mload\n        /* \"contracts/FutarchyArbExecutorV5.sol\":5111:41903  contract FutarchyArbExecutorV5 {... */\n      iszero\n      iszero\n        /* \"contracts/FutarchyArbExecutorV5.sol\":7634:7650  9007199254740991 */\n      0xc0\n      dup7\n      add\n        /* \"contracts/FutarchyArbExecutorV5.sol\":5111:41903  contract FutarchyArbExecutorV5 {... */\n      mstore\n        /* \"contracts/FutarchyArbExecutorV5.sol\":7634:7650  9007199254740991 */\n      dup5\n      dup3\n      sub\n      0xe0\n      dup7\n      add\n      mstore\n        /* \"contracts/FutarchyArbExecutorV5.sol\":6225:6267  0x37b60f4E9A31A64cCc0024dce7D0fD07eAA0F7B3 */\n      dup3\n      mload\n        /* \"contracts/FutarchyArbExecutorV5.sol\":5111:41903  contract FutarchyArbExecutorV5 {... */\n      dup1\n      dup4\n      mstore\n      swap2\n      dup2\n      add\n      swap3\n        /* \"contracts/FutarchyArbExecutorV5.sol\":6225:6267  0x37b60f4E9A31A64cCc0024dce7D0fD07eAA0F7B3 */\n      add\n      swap1\n      0x00\n        /* \"contracts/FutarchyArbExecutorV5.sol\":7634:7650  9007199254740991 */\n    tag_1295:\n      dup2\n      dup2\n      lt\n      tag_1296\n      jumpi\n      pop\n      pop\n      pop\n      0x0100\n      0x1fffffffffffff\n      swap2\n      swap4\n      add\n        /* \"contracts/FutarchyArbExecutorV5.sol\":5111:41903  contract FutarchyArbExecutorV5 {... */\n      mstore\n        /* \"contracts/FutarchyArbExecutorV5.sol\":7634:7650  9007199254740991 */\n      jump\t// out\n    tag_1296:\n      dup3\n      mload\n        /* \"contracts/FutarchyArbExecutorV5.sol\":5111:41903  contract FutarchyArbExecutorV5 {... */\n      dup5\n      mstore\n        /* \"contracts/FutarchyArbExecutorV5.sol\":7634:7650  9007199254740991 */\n      0x20\n      swap4\n      dup5\n      add\n      swap4\n        /* \"contracts/FutarchyArbExecutorV5.sol\":6225:6267  0x37b60f4E9A31A64cCc0024dce7D0fD07eAA0F7B3 */\n      swap1\n      swap3\n      add\n      swap2\n        /* \"contracts/FutarchyArbExecutorV5.sol\":7634:7650  9007199254740991 */\n      0x01\n      add\n      jump(tag_1295)\n    tag_1292:\n      swap1\n      swap2\n      swap3\n      swap5\n      0x20\n      dup1\n      tag_1298\n      0x01\n      swap4\n      dup14\n      not(0x013f)\n      swap1\n      dup3\n      sub\n      add\n      dup7\n      mstore\n      0xa0\n      0x80\n      dup12\n      mload\n      dup1\n      mload\n        /* \"contracts/FutarchyArbExecutorV5.sol\":5111:41903  contract FutarchyArbExecutorV5 {... */\n      dup5\n      mstore\n        /* \"contracts/FutarchyArbExecutorV5.sol\":7634:7650  9007199254740991 */\n      dup6\n      dup2\n      add\n      mload\n      dup7\n      dup6\n      add\n        /* \"contracts/FutarchyArbExecutorV5.sol\":5111:41903  contract FutarchyArbExecutorV5 {... */\n      mstore\n        /* \"contracts/FutarchyArbExecutorV5.sol\":7634:7650  9007199254740991 */\n      0x40\n      dup2\n      add\n      mload\n      0x40\n      dup6\n      add\n        /* \"contracts/FutarchyArbExecutorV5.sol\":5111:41903  contract FutarchyArbExecutorV5 {... */\n      mstore\n        /* \"contracts/FutarchyArbExecutorV5.sol\":7634:7650  9007199254740991 */\n      0x60\n      dup2\n      add\n      mload\n      0x60\n      dup6\n      add\n        /* \"contracts/FutarchyArbExecutorV5.sol\":5111:41903  contract FutarchyArbExecutorV5 {... */\n      mstore\n        /* \"contracts/FutarchyArbExecutorV5.sol\":7634:7650  9007199254740991 */\n      add\n      mload\n      swap2\n      dup2\n      0x80\n      dup3\n      add\n      mstore\n      add\n      swap1\n      tag_35\n      jump\t// in\n    tag_1298:\n        /* \"contracts/FutarchyArbExecutorV5.sol\":6225:6267  0x37b60f4E9A31A64cCc0024dce7D0fD07eAA0F7B3 */\n      swap8\n      add\n        /* \"contracts/FutarchyArbExecutorV5.sol\":7634:7650  9007199254740991 */\n      swap3\n      add\n      swap3\n      add\n      swap1\n      swap3\n      swap2\n      jump(tag_1291)\n        /* \"contracts/FutarchyArbExecutorV5.sol\":7716:7726  3510754692 */\n    tag_43:\n      swap1\n      0x20\n      dup3\n      dup3\n      sub\n      slt\n      tag_166\n      jumpi\n      dup2\n      mload\n      sub(shl(0x40, 0x01), 0x01)\n      dup2\n      gt\n      tag_166\n      jumpi\n      tag_1303\n      swap3\n      add\n      tag_34\n      jump\t// in\n    tag_1303:\n      swap1\n      jump\t// out\n    tag_44:\n      swap1\n      0xd141dd84\n      swap4\n      0x80\n      swap4\n      tag_1304\n      swap3\n      swap8\n      swap7\n      swap8\n        /* \"contracts/FutarchyArbExecutorV5.sol\":5111:41903  contract FutarchyArbExecutorV5 {... */\n      dup5\n      mstore\n        /* \"contracts/FutarchyArbExecutorV5.sol\":7716:7726  3510754692 */\n      0x20\n      dup5\n      add\n        /* \"contracts/FutarchyArbExecutorV5.sol\":5111:41903  contract FutarchyArbExecutorV5 {... */\n      mstore\n        /* \"contracts/FutarchyArbExecutorV5.sol\":7716:7726  3510754692 */\n      0xa0\n      0x40\n      dup5\n      add\n      mstore\n      0xa0\n      dup4\n      add\n      swap1\n      tag_41\n      jump\t// in\n    tag_1304:\n      sub(shl(0xa0, 0x01), 0x01)\n        /* \"contracts/FutarchyArbExecutorV5.sol\":5111:41903  contract FutarchyArbExecutorV5 {... */\n      swap1\n      swap6\n      and\n        /* \"contracts/FutarchyArbExecutorV5.sol\":7716:7726  3510754692 */\n      0x60\n      dup3\n      add\n        /* \"contracts/FutarchyArbExecutorV5.sol\":5111:41903  contract FutarchyArbExecutorV5 {... */\n      mstore\n        /* \"contracts/FutarchyArbExecutorV5.sol\":7716:7726  3510754692 */\n      add\n        /* \"contracts/FutarchyArbExecutorV5.sol\":5111:41903  contract FutarchyArbExecutorV5 {... */\n      mstore\n        /* \"contracts/FutarchyArbExecutorV5.sol\":7716:7726  3510754692 */\n      jump\t// out\n        /* \"contracts/FutarchyArbExecutorV5.sol\":26936:27368  function _ensurePermit2Approvals(IERC20 token, address router) internal {... */\n    tag_45:\n        /* \"contracts/FutarchyArbExecutorV5.sol\":5111:41903  contract FutarchyArbExecutorV5 {... */\n      mload(0x40)\n      shl(0xe1, 0x6eb1769f)\n        /* \"contracts/FutarchyArbExecutorV5.sol\":26482:26521  token.allowance(address(this), spender) */\n      dup2\n      mstore\n        /* \"contracts/FutarchyArbExecutorV5.sol\":26506:26510  this */\n      address\n        /* \"contracts/FutarchyArbExecutorV5.sol\":26482:26521  token.allowance(address(this), spender) */\n      0x04\n      dup3\n      add\n        /* \"contracts/FutarchyArbExecutorV5.sol\":5111:41903  contract FutarchyArbExecutorV5 {... */\n      mstore\n        /* \"contracts/FutarchyArbExecutorV5.sol\":24861:24903  0x000000000022D473030F116dDEE9F6B43aC78BA3 */\n      0x22d473030f116ddee9f6b43ac78ba3\n        /* \"contracts/FutarchyArbExecutorV5.sol\":5111:41903  contract FutarchyArbExecutorV5 {... */\n      0x24\n      dup3\n      add\n      mstore\n      sub(shl(0xa0, 0x01), 0x01)\n      swap2\n      swap1\n      swap2\n      and\n      swap1\n      0x20\n      dup2\n        /* \"contracts/FutarchyArbExecutorV5.sol\":26482:26521  token.allowance(address(this), spender) */\n      0x44\n        /* \"contracts/FutarchyArbExecutorV5.sol\":5111:41903  contract FutarchyArbExecutorV5 {... */\n      dup2\n      dup6\n        /* \"contracts/FutarchyArbExecutorV5.sol\":26482:26521  token.allowance(address(this), spender) */\n      gas\n      staticcall\n      swap1\n      dup2\n      iszero\n      tag_262\n      jumpi\n      0x00\n      swap2\n      tag_1307\n      jumpi\n        /* \"contracts/FutarchyArbExecutorV5.sol\":26936:27368  function _ensurePermit2Approvals(IERC20 token, address router) internal {... */\n    tag_1308:\n      pop\n        /* \"contracts/FutarchyArbExecutorV5.sol\":26535:26559  cur != type(uint256).max */\n      0x01\n      dup2\n      add\n        /* \"contracts/FutarchyArbExecutorV5.sol\":26531:26746  if (cur != type(uint256).max) {... */\n      tag_1309\n      jumpi\n        /* \"contracts/FutarchyArbExecutorV5.sol\":26936:27368  function _ensurePermit2Approvals(IERC20 token, address router) internal {... */\n    tag_1310:\n      pop\n        /* \"contracts/FutarchyArbExecutorV5.sol\":5111:41903  contract FutarchyArbExecutorV5 {... */\n      mload(0x40)\n      shl(0xe1, 0x6eb1769f)\n        /* \"contracts/FutarchyArbExecutorV5.sol\":26805:26844  token.allowance(address(this), spender) */\n      dup2\n      mstore\n        /* \"contracts/FutarchyArbExecutorV5.sol\":26506:26510  this */\n      address\n        /* \"contracts/FutarchyArbExecutorV5.sol\":26482:26521  token.allowance(address(this), spender) */\n      0x04\n        /* \"contracts/FutarchyArbExecutorV5.sol\":26805:26844  token.allowance(address(this), spender) */\n      dup3\n      add\n        /* \"contracts/FutarchyArbExecutorV5.sol\":5111:41903  contract FutarchyArbExecutorV5 {... */\n      mstore\n        /* \"contracts/FutarchyArbExecutorV5.sol\":24861:24903  0x000000000022D473030F116dDEE9F6B43aC78BA3 */\n      0x22d473030f116ddee9f6b43ac78ba3\n        /* \"contracts/FutarchyArbExecutorV5.sol\":5111:41903  contract FutarchyArbExecutorV5 {... */\n      0x24\n      dup3\n      add\n      mstore\n      0x20\n      dup2\n        /* \"contracts/FutarchyArbExecutorV5.sol\":26482:26521  token.allowance(address(this), spender) */\n      0x44\n        /* \"contracts/FutarchyArbExecutorV5.sol\":5111:41903  contract FutarchyArbExecutorV5 {... */\n      dup2\n        /* \"contracts/FutarchyArbExecutorV5.sol\":26805:26844  token.allowance(address(this), spender) */\n      dup6\n      gas\n      staticcall\n      swap1\n      dup2\n      iszero\n      tag_262\n      jumpi\n      dup3\n      swap1\n      0x00\n      swap3\n      tag_1313\n      jumpi\n        /* \"contracts/FutarchyArbExecutorV5.sol\":26936:27368  function _ensurePermit2Approvals(IERC20 token, address router) internal {... */\n    tag_1314:\n        /* \"contracts/FutarchyArbExecutorV5.sol\":5111:41903  contract FutarchyArbExecutorV5 {... */\n      pop\n      mload(0x00)\n      codecopy(0x00, data_0b5ddea07e196d6e9e89075559a4d11120dfd8a9a32fde422e414a54b80481bd, 0x20)\n      mload(0x00)\n      swap1\n      0x00\n      mstore\n      0x20\n        /* \"contracts/FutarchyArbExecutorV5.sol\":24861:24903  0x000000000022D473030F116dDEE9F6B43aC78BA3 */\n      0x22d473030f116ddee9f6b43ac78ba3\n        /* \"contracts/FutarchyArbExecutorV5.sol\":5111:41903  contract FutarchyArbExecutorV5 {... */\n      swap4\n      mload(0x40)\n      swap1\n      dup2\n      mstore\n        /* \"contracts/FutarchyArbExecutorV5.sol\":26760:26845  MaxAllowanceEnsured(address(token), spender, token.allowance(address(this), spender)) */\n      log3\n        /* \"contracts/FutarchyArbExecutorV5.sol\":24861:24903  0x000000000022D473030F116dDEE9F6B43aC78BA3 */\n      0x22d473030f116ddee9f6b43ac78ba3\n        /* \"contracts/FutarchyArbExecutorV5.sol\":27200:27274  IPermit2(PERMIT2).approve(address(token), router, MAX_UINT160, MAX_UINT48) */\n      extcodesize\n      iszero\n      tag_166\n      jumpi\n        /* \"contracts/FutarchyArbExecutorV5.sol\":5111:41903  contract FutarchyArbExecutorV5 {... */\n      mload(0x40)\n      shl(0xe0, 0x87517c45)\n        /* \"contracts/FutarchyArbExecutorV5.sol\":27200:27274  IPermit2(PERMIT2).approve(address(token), router, MAX_UINT160, MAX_UINT48) */\n      dup2\n      mstore\n        /* \"contracts/FutarchyArbExecutorV5.sol\":26482:26521  token.allowance(address(this), spender) */\n      0x04\n        /* \"contracts/FutarchyArbExecutorV5.sol\":27200:27274  IPermit2(PERMIT2).approve(address(token), router, MAX_UINT160, MAX_UINT48) */\n      dup2\n      add\n        /* \"contracts/FutarchyArbExecutorV5.sol\":5111:41903  contract FutarchyArbExecutorV5 {... */\n      dup3\n      swap1\n      mstore\n      sub(shl(0xa0, 0x01), 0x01)\n      swap3\n      dup4\n      and\n        /* \"contracts/FutarchyArbExecutorV5.sol\":25010:25026  type(uint48).max */\n      0x24\n      dup3\n      add\n        /* \"contracts/FutarchyArbExecutorV5.sol\":5111:41903  contract FutarchyArbExecutorV5 {... */\n      dup2\n      swap1\n      mstore\n        /* \"contracts/FutarchyArbExecutorV5.sol\":26482:26521  token.allowance(address(this), spender) */\n      0x44\n        /* \"contracts/FutarchyArbExecutorV5.sol\":25010:25026  type(uint48).max */\n      dup3\n      add\n        /* \"contracts/FutarchyArbExecutorV5.sol\":5111:41903  contract FutarchyArbExecutorV5 {... */\n      swap4\n      swap1\n      swap4\n      mstore\n        /* \"contracts/FutarchyArbExecutorV5.sol\":25010:25026  type(uint48).max */\n      0xffffffffffff\n      0x64\n      dup3\n      add\n      mstore\n      0x00\n        /* \"contracts/FutarchyArbExecutorV5.sol\":5111:41903  contract FutarchyArbExecutorV5 {... */\n      dup2\n        /* \"contracts/FutarchyArbExecutorV5.sol\":27200:27274  IPermit2(PERMIT2).approve(address(token), router, MAX_UINT160, MAX_UINT48) */\n      0x84\n        /* \"contracts/FutarchyArbExecutorV5.sol\":5111:41903  contract FutarchyArbExecutorV5 {... */\n      dup2\n      dup4\n        /* \"contracts/FutarchyArbExecutorV5.sol\":24861:24903  0x000000000022D473030F116dDEE9F6B43aC78BA3 */\n      0x22d473030f116ddee9f6b43ac78ba3\n        /* \"contracts/FutarchyArbExecutorV5.sol\":27200:27274  IPermit2(PERMIT2).approve(address(token), router, MAX_UINT160, MAX_UINT48) */\n      gas\n      call\n      dup1\n      iszero\n      tag_262\n      jumpi\n      tag_1319\n      jumpi\n        /* \"contracts/FutarchyArbExecutorV5.sol\":26936:27368  function _ensurePermit2Approvals(IERC20 token, address router) internal {... */\n    tag_1320:\n      pop\n        /* \"contracts/FutarchyArbExecutorV5.sol\":5111:41903  contract FutarchyArbExecutorV5 {... */\n      0x40\n      dup1\n      mload\n      sub(shl(0xa0, 0x01), 0x01)\n      dup2\n      mstore\n        /* \"contracts/FutarchyArbExecutorV5.sol\":25010:25026  type(uint48).max */\n      0xffffffffffff\n        /* \"contracts/FutarchyArbExecutorV5.sol\":5111:41903  contract FutarchyArbExecutorV5 {... */\n      0x20\n        /* \"contracts/FutarchyArbExecutorV5.sol\":25010:25026  type(uint48).max */\n      dup3\n      add\n      mstore\n        /* \"contracts/FutarchyArbExecutorV5.sol\":27289:27361  Permit2AllowanceEnsured(address(token), router, MAX_UINT160, MAX_UINT48) */\n      0x4871c6f66188da2f442cdab9920447df48710c721ba67e79f01001ebfa3d4ae9\n      swap2\n        /* \"contracts/FutarchyArbExecutorV5.sol\":5111:41903  contract FutarchyArbExecutorV5 {... */\n      swap1\n        /* \"contracts/FutarchyArbExecutorV5.sol\":27289:27361  Permit2AllowanceEnsured(address(token), router, MAX_UINT160, MAX_UINT48) */\n      log3\n        /* \"contracts/FutarchyArbExecutorV5.sol\":26936:27368  function _ensurePermit2Approvals(IERC20 token, address router) internal {... */\n      jump\t// out\n        /* \"contracts/FutarchyArbExecutorV5.sol\":27200:27274  IPermit2(PERMIT2).approve(address(token), router, MAX_UINT160, MAX_UINT48) */\n    tag_1319:\n      0x00\n      tag_1321\n      swap2\n      tag_18\n      jump\t// in\n    tag_1321:\n      0x00\n      jump(tag_1320)\n        /* \"contracts/FutarchyArbExecutorV5.sol\":26805:26844  token.allowance(address(this), spender) */\n    tag_1313:\n      swap2\n      pop\n      pop\n        /* \"contracts/FutarchyArbExecutorV5.sol\":5111:41903  contract FutarchyArbExecutorV5 {... */\n      0x20\n        /* \"contracts/FutarchyArbExecutorV5.sol\":26805:26844  token.allowance(address(this), spender) */\n      dup2\n      returndatasize\n        /* \"contracts/FutarchyArbExecutorV5.sol\":5111:41903  contract FutarchyArbExecutorV5 {... */\n      0x20\n        /* \"contracts/FutarchyArbExecutorV5.sol\":26805:26844  token.allowance(address(this), spender) */\n      gt\n      tag_1322\n      jumpi\n    tag_1323:\n      dup2\n      tag_1324\n        /* \"contracts/FutarchyArbExecutorV5.sol\":5111:41903  contract FutarchyArbExecutorV5 {... */\n      0x20\n        /* \"contracts/FutarchyArbExecutorV5.sol\":26805:26844  token.allowance(address(this), spender) */\n      swap4\n      dup4\n      tag_18\n      jump\t// in\n    tag_1324:\n      dup2\n      add\n        /* \"contracts/FutarchyArbExecutorV5.sol\":5111:41903  contract FutarchyArbExecutorV5 {... */\n      sub\n      slt\n      tag_166\n      jumpi\n      mload\n      dup2\n      mload(0x00)\n      codecopy(0x00, data_0b5ddea07e196d6e9e89075559a4d11120dfd8a9a32fde422e414a54b80481bd, 0x20)\n      mload(0x00)\n      swap1\n      0x00\n      mstore\n        /* \"contracts/FutarchyArbExecutorV5.sol\":26805:26844  token.allowance(address(this), spender) */\n      jump(tag_1314)\n    tag_1322:\n      returndatasize\n      swap2\n      pop\n      jump(tag_1323)\n        /* \"contracts/FutarchyArbExecutorV5.sol\":26531:26746  if (cur != type(uint256).max) {... */\n    tag_1309:\n        /* \"contracts/FutarchyArbExecutorV5.sol\":26575:26648  if (cur != 0) if (!token.approve(spender, 0)) revert ApproveResetFailed() */\n      tag_1327\n      jumpi\n        /* \"contracts/FutarchyArbExecutorV5.sol\":26531:26746  if (cur != type(uint256).max) {... */\n    tag_1328:\n        /* \"contracts/FutarchyArbExecutorV5.sol\":5111:41903  contract FutarchyArbExecutorV5 {... */\n      mload(0x40)\n      shl(0xe0, 0x095ea7b3)\n        /* \"contracts/FutarchyArbExecutorV5.sol\":26667:26708  token.approve(spender, type(uint256).max) */\n      dup2\n      mstore\n        /* \"contracts/FutarchyArbExecutorV5.sol\":24861:24903  0x000000000022D473030F116dDEE9F6B43aC78BA3 */\n      0x22d473030f116ddee9f6b43ac78ba3\n        /* \"contracts/FutarchyArbExecutorV5.sol\":26482:26521  token.allowance(address(this), spender) */\n      0x04\n        /* \"contracts/FutarchyArbExecutorV5.sol\":26667:26708  token.approve(spender, type(uint256).max) */\n      dup3\n      add\n        /* \"contracts/FutarchyArbExecutorV5.sol\":5111:41903  contract FutarchyArbExecutorV5 {... */\n      mstore\n      not(0x00)\n      0x24\n      dup3\n      add\n      mstore\n      0x20\n      dup2\n        /* \"contracts/FutarchyArbExecutorV5.sol\":26482:26521  token.allowance(address(this), spender) */\n      0x44\n        /* \"contracts/FutarchyArbExecutorV5.sol\":5111:41903  contract FutarchyArbExecutorV5 {... */\n      dup2\n      0x00\n        /* \"contracts/FutarchyArbExecutorV5.sol\":26667:26708  token.approve(spender, type(uint256).max) */\n      dup7\n      gas\n      call\n      swap1\n      dup2\n      iszero\n      tag_262\n      jumpi\n      0x00\n      swap2\n      tag_1331\n      jumpi\n        /* \"contracts/FutarchyArbExecutorV5.sol\":26531:26746  if (cur != type(uint256).max) {... */\n    tag_1332:\n        /* \"contracts/FutarchyArbExecutorV5.sol\":26666:26708  !token.approve(spender, type(uint256).max) */\n      pop\n      iszero\n        /* \"contracts/FutarchyArbExecutorV5.sol\":26662:26735  if (!token.approve(spender, type(uint256).max)) revert ApproveSetFailed() */\n      tag_1333\n      jumpi\n        /* \"contracts/FutarchyArbExecutorV5.sol\":26531:26746  if (cur != type(uint256).max) {... */\n      0x00\n      jump(tag_1310)\n        /* \"contracts/FutarchyArbExecutorV5.sol\":26662:26735  if (!token.approve(spender, type(uint256).max)) revert ApproveSetFailed() */\n    tag_1333:\n        /* \"contracts/FutarchyArbExecutorV5.sol\":26717:26735  ApproveSetFailed() */\n      mstore(0x00, shl(0xe1, 0x2a69ce6b))\n        /* \"contracts/FutarchyArbExecutorV5.sol\":26482:26521  token.allowance(address(this), spender) */\n      0x04\n      0x00\n        /* \"contracts/FutarchyArbExecutorV5.sol\":26717:26735  ApproveSetFailed() */\n      revert\n        /* \"contracts/FutarchyArbExecutorV5.sol\":26667:26708  token.approve(spender, type(uint256).max) */\n    tag_1331:\n      tag_1335\n      swap2\n      pop\n        /* \"contracts/FutarchyArbExecutorV5.sol\":5111:41903  contract FutarchyArbExecutorV5 {... */\n      0x20\n        /* \"contracts/FutarchyArbExecutorV5.sol\":26667:26708  token.approve(spender, type(uint256).max) */\n      returndatasize\n        /* \"contracts/FutarchyArbExecutorV5.sol\":5111:41903  contract FutarchyArbExecutorV5 {... */\n      0x20\n        /* \"contracts/FutarchyArbExecutorV5.sol\":26667:26708  token.approve(spender, type(uint256).max) */\n      gt\n      tag_1124\n      jumpi\n      tag_1126\n      dup2\n      dup4\n      tag_18\n      jump\t// in\n    tag_1335:\n      0x00\n      jump(tag_1332)\n        /* \"contracts/FutarchyArbExecutorV5.sol\":26575:26648  if (cur != 0) if (!token.approve(spender, 0)) revert ApproveResetFailed() */\n    tag_1327:\n        /* \"contracts/FutarchyArbExecutorV5.sol\":5111:41903  contract FutarchyArbExecutorV5 {... */\n      mload(0x40)\n      shl(0xe0, 0x095ea7b3)\n        /* \"contracts/FutarchyArbExecutorV5.sol\":26594:26619  token.approve(spender, 0) */\n      dup2\n      mstore\n        /* \"contracts/FutarchyArbExecutorV5.sol\":24861:24903  0x000000000022D473030F116dDEE9F6B43aC78BA3 */\n      0x22d473030f116ddee9f6b43ac78ba3\n        /* \"contracts/FutarchyArbExecutorV5.sol\":26482:26521  token.allowance(address(this), spender) */\n      0x04\n        /* \"contracts/FutarchyArbExecutorV5.sol\":26594:26619  token.approve(spender, 0) */\n      dup3\n      add\n        /* \"contracts/FutarchyArbExecutorV5.sol\":5111:41903  contract FutarchyArbExecutorV5 {... */\n      mstore\n      0x00\n      0x24\n      dup3\n      add\n      mstore\n      0x20\n        /* \"contracts/FutarchyArbExecutorV5.sol\":26594:26619  token.approve(spender, 0) */\n      dup2\n        /* \"contracts/FutarchyArbExecutorV5.sol\":26482:26521  token.allowance(address(this), spender) */\n      0x44\n        /* \"contracts/FutarchyArbExecutorV5.sol\":26594:26619  token.approve(spender, 0) */\n      dup2\n      0x00\n      dup7\n      gas\n      call\n      swap1\n      dup2\n      iszero\n      tag_262\n      jumpi\n      0x00\n      swap2\n      tag_1341\n      jumpi\n        /* \"contracts/FutarchyArbExecutorV5.sol\":26575:26648  if (cur != 0) if (!token.approve(spender, 0)) revert ApproveResetFailed() */\n    tag_1342:\n        /* \"contracts/FutarchyArbExecutorV5.sol\":26593:26619  !token.approve(spender, 0) */\n      pop\n        /* \"contracts/FutarchyArbExecutorV5.sol\":26575:26648  if (cur != 0) if (!token.approve(spender, 0)) revert ApproveResetFailed() */\n      tag_1328\n        /* \"contracts/FutarchyArbExecutorV5.sol\":26589:26648  if (!token.approve(spender, 0)) revert ApproveResetFailed() */\n      jumpi\n        /* \"contracts/FutarchyArbExecutorV5.sol\":26628:26648  ApproveResetFailed() */\n      mstore(0x00, shl(0xe2, 0x097c3e93))\n        /* \"contracts/FutarchyArbExecutorV5.sol\":26482:26521  token.allowance(address(this), spender) */\n      0x04\n      0x00\n        /* \"contracts/FutarchyArbExecutorV5.sol\":26628:26648  ApproveResetFailed() */\n      revert\n        /* \"contracts/FutarchyArbExecutorV5.sol\":26594:26619  token.approve(spender, 0) */\n    tag_1341:\n      tag_1345\n      swap2\n      pop\n        /* \"contracts/FutarchyArbExecutorV5.sol\":5111:41903  contract FutarchyArbExecutorV5 {... */\n      0x20\n        /* \"contracts/FutarchyArbExecutorV5.sol\":26594:26619  token.approve(spender, 0) */\n      returndatasize\n        /* \"contracts/FutarchyArbExecutorV5.sol\":5111:41903  contract FutarchyArbExecutorV5 {... */\n      0x20\n        /* \"contracts/FutarchyArbExecutorV5.sol\":26594:26619  token.approve(spender, 0) */\n      gt\n      tag_1124\n      jumpi\n      tag_1126\n      dup2\n      dup4\n      tag_18\n      jump\t// in\n    tag_1345:\n      0x00\n      jump(tag_1342)\n        /* \"contracts/FutarchyArbExecutorV5.sol\":26482:26521  token.allowance(address(this), spender) */\n    tag_1307:\n      swap1\n      pop\n        /* \"contracts/FutarchyArbExecutorV5.sol\":5111:41903  contract FutarchyArbExecutorV5 {... */\n      0x20\n        /* \"contracts/FutarchyArbExecutorV5.sol\":26482:26521  token.allowance(address(this), spender) */\n      dup2\n      returndatasize\n        /* \"contracts/FutarchyArbExecutorV5.sol\":5111:41903  contract FutarchyArbExecutorV5 {... */\n      0x20\n        /* \"contracts/FutarchyArbExecutorV5.sol\":26482:26521  token.allowance(address(this), spender) */\n      gt\n      tag_1349\n      jumpi\n    tag_1350:\n      dup2\n      tag_1351\n        /* \"contracts/FutarchyArbExecutorV5.sol\":5111:41903  contract FutarchyArbExecutorV5 {... */\n      0x20\n        /* \"contracts/FutarchyArbExecutorV5.sol\":26482:26521  token.allowance(address(this), spender) */\n      swap4\n      dup4\n      tag_18\n      jump\t// in\n    tag_1351:\n      dup2\n      add\n        /* \"contracts/FutarchyArbExecutorV5.sol\":5111:41903  contract FutarchyArbExecutorV5 {... */\n      sub\n      slt\n      tag_166\n      jumpi\n      mload\n        /* \"contracts/FutarchyArbExecutorV5.sol\":26482:26521  token.allowance(address(this), spender) */\n      0x00\n      jump(tag_1308)\n    tag_1349:\n      returndatasize\n      swap2\n      pop\n      jump(tag_1350)\n        /* \"contracts/FutarchyArbExecutorV5.sol\":26389:26852  function _ensureMaxAllowance(IERC20 token, address spender) internal {... */\n    tag_47:\n        /* \"contracts/FutarchyArbExecutorV5.sol\":5111:41903  contract FutarchyArbExecutorV5 {... */\n      mload(0x40)\n      shl(0xe1, 0x6eb1769f)\n        /* \"contracts/FutarchyArbExecutorV5.sol\":26482:26521  token.allowance(address(this), spender) */\n      dup2\n      mstore\n        /* \"contracts/FutarchyArbExecutorV5.sol\":26506:26510  this */\n      address\n        /* \"contracts/FutarchyArbExecutorV5.sol\":26482:26521  token.allowance(address(this), spender) */\n      0x04\n      dup3\n      add\n        /* \"contracts/FutarchyArbExecutorV5.sol\":5111:41903  contract FutarchyArbExecutorV5 {... */\n      mstore\n      mload(0x00)\n      codecopy(0x00, data_d91414ac4175376259ecb6d3ea005aa1ae1e7573d53a4ea2b2fc89eb70155797, 0x20)\n      mload(0x00)\n      swap1\n      0x00\n      mstore\n      0x24\n      dup3\n      add\n      mstore\n      0x20\n      dup2\n        /* \"contracts/FutarchyArbExecutorV5.sol\":26482:26521  token.allowance(address(this), spender) */\n      0x44\n        /* \"contracts/FutarchyArbExecutorV5.sol\":5111:41903  contract FutarchyArbExecutorV5 {... */\n      dup2\n      0xaf204776c7245bf4147c2612bf6e5972ee483701\n        /* \"contracts/FutarchyArbExecutorV5.sol\":26482:26521  token.allowance(address(this), spender) */\n      gas\n      staticcall\n      swap1\n      dup2\n      iszero\n      tag_262\n      jumpi\n      0x00\n      swap2\n      tag_1356\n      jumpi\n        /* \"contracts/FutarchyArbExecutorV5.sol\":26389:26852  function _ensureMaxAllowance(IERC20 token, address spender) internal {... */\n    tag_1357:\n      pop\n        /* \"contracts/FutarchyArbExecutorV5.sol\":26535:26559  cur != type(uint256).max */\n      0x01\n      dup2\n      add\n        /* \"contracts/FutarchyArbExecutorV5.sol\":26531:26746  if (cur != type(uint256).max) {... */\n      tag_1358\n      jumpi\n        /* \"contracts/FutarchyArbExecutorV5.sol\":26389:26852  function _ensureMaxAllowance(IERC20 token, address spender) internal {... */\n    tag_1359:\n      pop\n        /* \"contracts/FutarchyArbExecutorV5.sol\":5111:41903  contract FutarchyArbExecutorV5 {... */\n      mload(0x40)\n      shl(0xe1, 0x6eb1769f)\n        /* \"contracts/FutarchyArbExecutorV5.sol\":26805:26844  token.allowance(address(this), spender) */\n      dup2\n      mstore\n        /* \"contracts/FutarchyArbExecutorV5.sol\":26506:26510  this */\n      address\n        /* \"contracts/FutarchyArbExecutorV5.sol\":26482:26521  token.allowance(address(this), spender) */\n      0x04\n        /* \"contracts/FutarchyArbExecutorV5.sol\":26805:26844  token.allowance(address(this), spender) */\n      dup3\n      add\n        /* \"contracts/FutarchyArbExecutorV5.sol\":5111:41903  contract FutarchyArbExecutorV5 {... */\n      mstore\n      mload(0x00)\n      codecopy(0x00, data_d91414ac4175376259ecb6d3ea005aa1ae1e7573d53a4ea2b2fc89eb70155797, 0x20)\n      mload(0x00)\n      swap1\n      0x00\n      mstore\n      0x24\n      dup3\n      add\n      mstore\n      0x20\n      dup2\n        /* \"contracts/FutarchyArbExecutorV5.sol\":26482:26521  token.allowance(address(this), spender) */\n      0x44\n        /* \"contracts/FutarchyArbExecutorV5.sol\":5111:41903  contract FutarchyArbExecutorV5 {... */\n      dup2\n      0xaf204776c7245bf4147c2612bf6e5972ee483701\n        /* \"contracts/FutarchyArbExecutorV5.sol\":26805:26844  token.allowance(address(this), spender) */\n      gas\n      staticcall\n      swap1\n      dup2\n      iszero\n      tag_262\n      jumpi\n      0x00\n      swap2\n      tag_1362\n      jumpi\n        /* \"contracts/FutarchyArbExecutorV5.sol\":26389:26852  function _ensureMaxAllowance(IERC20 token, address spender) internal {... */\n    tag_1363:\n        /* \"contracts/FutarchyArbExecutorV5.sol\":5111:41903  contract FutarchyArbExecutorV5 {... */\n      pop\n      0xaf204776c7245bf4147c2612bf6e5972ee483701\n      mload(0x00)\n      codecopy(0x00, data_0b5ddea07e196d6e9e89075559a4d11120dfd8a9a32fde422e414a54b80481bd, 0x20)\n      mload(0x00)\n      swap1\n      0x00\n      mstore\n      0x20\n      mload(0x00)\n      codecopy(0x00, data_d91414ac4175376259ecb6d3ea005aa1ae1e7573d53a4ea2b2fc89eb70155797, 0x20)\n      mload(0x00)\n      swap1\n      0x00\n      mstore\n      swap4\n      mload(0x40)\n      swap1\n      dup2\n      mstore\n        /* \"contracts/FutarchyArbExecutorV5.sol\":26760:26845  MaxAllowanceEnsured(address(token), spender, token.allowance(address(this), spender)) */\n      log3\n        /* \"contracts/FutarchyArbExecutorV5.sol\":26389:26852  function _ensureMaxAllowance(IERC20 token, address spender) internal {... */\n      jump\t// out\n        /* \"contracts/FutarchyArbExecutorV5.sol\":26805:26844  token.allowance(address(this), spender) */\n    tag_1362:\n      swap1\n      pop\n        /* \"contracts/FutarchyArbExecutorV5.sol\":5111:41903  contract FutarchyArbExecutorV5 {... */\n      0x20\n        /* \"contracts/FutarchyArbExecutorV5.sol\":26805:26844  token.allowance(address(this), spender) */\n      dup2\n      returndatasize\n        /* \"contracts/FutarchyArbExecutorV5.sol\":5111:41903  contract FutarchyArbExecutorV5 {... */\n      0x20\n        /* \"contracts/FutarchyArbExecutorV5.sol\":26805:26844  token.allowance(address(this), spender) */\n      gt\n      tag_1364\n      jumpi\n    tag_1365:\n      dup2\n      tag_1366\n        /* \"contracts/FutarchyArbExecutorV5.sol\":5111:41903  contract FutarchyArbExecutorV5 {... */\n      0x20\n        /* \"contracts/FutarchyArbExecutorV5.sol\":26805:26844  token.allowance(address(this), spender) */\n      swap4\n      dup4\n      tag_18\n      jump\t// in\n    tag_1366:\n      dup2\n      add\n        /* \"contracts/FutarchyArbExecutorV5.sol\":5111:41903  contract FutarchyArbExecutorV5 {... */\n      sub\n      slt\n      tag_166\n      jumpi\n      mload\n      0xaf204776c7245bf4147c2612bf6e5972ee483701\n        /* \"contracts/FutarchyArbExecutorV5.sol\":26805:26844  token.allowance(address(this), spender) */\n      jump(tag_1363)\n    tag_1364:\n      returndatasize\n      swap2\n      pop\n      jump(tag_1365)\n        /* \"contracts/FutarchyArbExecutorV5.sol\":26531:26746  if (cur != type(uint256).max) {... */\n    tag_1358:\n        /* \"contracts/FutarchyArbExecutorV5.sol\":26575:26648  if (cur != 0) if (!token.approve(spender, 0)) revert ApproveResetFailed() */\n      tag_1369\n      jumpi\n        /* \"contracts/FutarchyArbExecutorV5.sol\":26531:26746  if (cur != type(uint256).max) {... */\n    tag_1370:\n        /* \"contracts/FutarchyArbExecutorV5.sol\":5111:41903  contract FutarchyArbExecutorV5 {... */\n      mload(0x40)\n      shl(0xe0, 0x095ea7b3)\n        /* \"contracts/FutarchyArbExecutorV5.sol\":26667:26708  token.approve(spender, type(uint256).max) */\n      dup2\n      mstore\n      mload(0x00)\n      codecopy(0x00, data_d91414ac4175376259ecb6d3ea005aa1ae1e7573d53a4ea2b2fc89eb70155797, 0x20)\n      mload(0x00)\n      swap1\n      0x00\n      mstore\n        /* \"contracts/FutarchyArbExecutorV5.sol\":26482:26521  token.allowance(address(this), spender) */\n      0x04\n        /* \"contracts/FutarchyArbExecutorV5.sol\":26667:26708  token.approve(spender, type(uint256).max) */\n      dup3\n      add\n        /* \"contracts/FutarchyArbExecutorV5.sol\":5111:41903  contract FutarchyArbExecutorV5 {... */\n      mstore\n      not(0x00)\n      0x24\n      dup3\n      add\n      mstore\n      0x20\n      dup2\n        /* \"contracts/FutarchyArbExecutorV5.sol\":26482:26521  token.allowance(address(this), spender) */\n      0x44\n        /* \"contracts/FutarchyArbExecutorV5.sol\":5111:41903  contract FutarchyArbExecutorV5 {... */\n      dup2\n      0x00\n      0xaf204776c7245bf4147c2612bf6e5972ee483701\n        /* \"contracts/FutarchyArbExecutorV5.sol\":26667:26708  token.approve(spender, type(uint256).max) */\n      gas\n      call\n      swap1\n      dup2\n      iszero\n      tag_262\n      jumpi\n      0x00\n      swap2\n      tag_1373\n      jumpi\n        /* \"contracts/FutarchyArbExecutorV5.sol\":26531:26746  if (cur != type(uint256).max) {... */\n    tag_1374:\n        /* \"contracts/FutarchyArbExecutorV5.sol\":26666:26708  !token.approve(spender, type(uint256).max) */\n      pop\n      iszero\n        /* \"contracts/FutarchyArbExecutorV5.sol\":26662:26735  if (!token.approve(spender, type(uint256).max)) revert ApproveSetFailed() */\n      tag_1333\n      jumpi\n        /* \"contracts/FutarchyArbExecutorV5.sol\":26531:26746  if (cur != type(uint256).max) {... */\n      0x00\n      jump(tag_1359)\n        /* \"contracts/FutarchyArbExecutorV5.sol\":26667:26708  token.approve(spender, type(uint256).max) */\n    tag_1373:\n      tag_1377\n      swap2\n      pop\n        /* \"contracts/FutarchyArbExecutorV5.sol\":5111:41903  contract FutarchyArbExecutorV5 {... */\n      0x20\n        /* \"contracts/FutarchyArbExecutorV5.sol\":26667:26708  token.approve(spender, type(uint256).max) */\n      returndatasize\n        /* \"contracts/FutarchyArbExecutorV5.sol\":5111:41903  contract FutarchyArbExecutorV5 {... */\n      0x20\n        /* \"contracts/FutarchyArbExecutorV5.sol\":26667:26708  token.approve(spender, type(uint256).max) */\n      gt\n      tag_1124\n      jumpi\n      tag_1126\n      dup2\n      dup4\n      tag_18\n      jump\t// in\n    tag_1377:\n      0x00\n      jump(tag_1374)\n        /* \"contracts/FutarchyArbExecutorV5.sol\":26575:26648  if (cur != 0) if (!token.approve(spender, 0)) revert ApproveResetFailed() */\n    tag_1369:\n        /* \"contracts/FutarchyArbExecutorV5.sol\":5111:41903  contract FutarchyArbExecutorV5 {... */\n      mload(0x40)\n      shl(0xe0, 0x095ea7b3)\n        /* \"contracts/FutarchyArbExecutorV5.sol\":26594:26619  token.approve(spender, 0) */\n      dup2\n      mstore\n      mload(0x00)\n      codecopy(0x00, data_d91414ac4175376259ecb6d3ea005aa1ae1e7573d53a4ea2b2fc89eb70155797, 0x20)\n      mload(0x00)\n      swap1\n      0x00\n      mstore\n        /* \"contracts/FutarchyArbExecutorV5.sol\":26482:26521  token.allowance(address(this), spender) */\n      0x04\n        /* \"contracts/FutarchyArbExecutorV5.sol\":26594:26619  token.approve(spender, 0) */\n      dup3\n      add\n        /* \"contracts/FutarchyArbExecutorV5.sol\":5111:41903  contract FutarchyArbExecutorV5 {... */\n      mstore\n      0x00\n      0x24\n      dup3\n      add\n      mstore\n      0x20\n        /* \"contracts/FutarchyArbExecutorV5.sol\":26594:26619  token.approve(spender, 0) */\n      dup2\n        /* \"contracts/FutarchyArbExecutorV5.sol\":26482:26521  token.allowance(address(this), spender) */\n      0x44\n        /* \"contracts/FutarchyArbExecutorV5.sol\":26594:26619  token.approve(spender, 0) */\n      dup2\n      0x00\n        /* \"contracts/FutarchyArbExecutorV5.sol\":5111:41903  contract FutarchyArbExecutorV5 {... */\n      0xaf204776c7245bf4147c2612bf6e5972ee483701\n        /* \"contracts/FutarchyArbExecutorV5.sol\":26594:26619  token.approve(spender, 0) */\n      gas\n      call\n      swap1\n      dup2\n      iszero\n      tag_262\n      jumpi\n      0x00\n      swap2\n      tag_1383\n      jumpi\n        /* \"contracts/FutarchyArbExecutorV5.sol\":26575:26648  if (cur != 0) if (!token.approve(spender, 0)) revert ApproveResetFailed() */\n    tag_1384:\n        /* \"contracts/FutarchyArbExecutorV5.sol\":26593:26619  !token.approve(spender, 0) */\n      pop\n        /* \"contracts/FutarchyArbExecutorV5.sol\":26575:26648  if (cur != 0) if (!token.approve(spender, 0)) revert ApproveResetFailed() */\n      tag_1370\n        /* \"contracts/FutarchyArbExecutorV5.sol\":26589:26648  if (!token.approve(spender, 0)) revert ApproveResetFailed() */\n      jumpi\n        /* \"contracts/FutarchyArbExecutorV5.sol\":26628:26648  ApproveResetFailed() */\n      mstore(0x00, shl(0xe2, 0x097c3e93))\n        /* \"contracts/FutarchyArbExecutorV5.sol\":26482:26521  token.allowance(address(this), spender) */\n      0x04\n      0x00\n        /* \"contracts/FutarchyArbExecutorV5.sol\":26628:26648  ApproveResetFailed() */\n      revert\n        /* \"contracts/FutarchyArbExecutorV5.sol\":26594:26619  token.approve(spender, 0) */\n    tag_1383:\n      tag_1387\n      swap2\n      pop\n        /* \"contracts/FutarchyArbExecutorV5.sol\":5111:41903  contract FutarchyArbExecutorV5 {... */\n      0x20\n        /* \"contracts/FutarchyArbExecutorV5.sol\":26594:26619  token.approve(spender, 0) */\n      returndatasize\n        /* \"contracts/FutarchyArbExecutorV5.sol\":5111:41903  contract FutarchyArbExecutorV5 {... */\n      0x20\n        /* \"contracts/FutarchyArbExecutorV5.sol\":26594:26619  token.approve(spender, 0) */\n      gt\n      tag_1124\n      jumpi\n      tag_1126\n      dup2\n      dup4\n      tag_18\n      jump\t// in\n    tag_1387:\n      0x00\n      jump(tag_1384)\n        /* \"contracts/FutarchyArbExecutorV5.sol\":26482:26521  token.allowance(address(this), spender) */\n    tag_1356:\n      swap1\n      pop\n        /* \"contracts/FutarchyArbExecutorV5.sol\":5111:41903  contract FutarchyArbExecutorV5 {... */\n      0x20\n        /* \"contracts/FutarchyArbExecutorV5.sol\":26482:26521  token.allowance(address(this), spender) */\n      dup2\n      returndatasize\n        /* \"contracts/FutarchyArbExecutorV5.sol\":5111:41903  contract FutarchyArbExecutorV5 {... */\n      0x20\n        /* \"contracts/FutarchyArbExecutorV5.sol\":26482:26521  token.allowance(address(this), spender) */\n      gt\n      tag_1391\n      jumpi\n    tag_1392:\n      dup2\n      tag_1393\n        /* \"contracts/FutarchyArbExecutorV5.sol\":5111:41903  contract FutarchyArbExecutorV5 {... */\n      0x20\n        /* \"contracts/FutarchyArbExecutorV5.sol\":26482:26521  token.allowance(address(this), spender) */\n      swap4\n      dup4\n      tag_18\n      jump\t// in\n    tag_1393:\n      dup2\n      add\n        /* \"contracts/FutarchyArbExecutorV5.sol\":5111:41903  contract FutarchyArbExecutorV5 {... */\n      sub\n      slt\n      tag_166\n      jumpi\n      mload\n        /* \"contracts/FutarchyArbExecutorV5.sol\":26482:26521  token.allowance(address(this), spender) */\n      0x00\n      jump(tag_1357)\n    tag_1391:\n      returndatasize\n      swap2\n      pop\n      jump(tag_1392)\n        /* \"contracts/FutarchyArbExecutorV5.sol\":26389:26852  function _ensureMaxAllowance(IERC20 token, address spender) internal {... */\n    tag_48:\n        /* \"contracts/FutarchyArbExecutorV5.sol\":5111:41903  contract FutarchyArbExecutorV5 {... */\n      mload(0x40)\n      shl(0xe1, 0x6eb1769f)\n        /* \"contracts/FutarchyArbExecutorV5.sol\":26482:26521  token.allowance(address(this), spender) */\n      dup2\n      mstore\n        /* \"contracts/FutarchyArbExecutorV5.sol\":26506:26510  this */\n      address\n        /* \"contracts/FutarchyArbExecutorV5.sol\":26482:26521  token.allowance(address(this), spender) */\n      0x04\n      dup3\n      add\n        /* \"contracts/FutarchyArbExecutorV5.sol\":5111:41903  contract FutarchyArbExecutorV5 {... */\n      mstore\n      mload(0x00)\n      codecopy(0x00, data_fed9ab35569d274633c0afa3fe164e41b182bd84c5e7e43031c6f2c1b23e65bf, 0x20)\n      mload(0x00)\n      swap1\n      0x00\n      mstore\n      0x24\n      dup3\n      add\n      mstore\n      0x20\n      dup2\n        /* \"contracts/FutarchyArbExecutorV5.sol\":26482:26521  token.allowance(address(this), spender) */\n      0x44\n        /* \"contracts/FutarchyArbExecutorV5.sol\":5111:41903  contract FutarchyArbExecutorV5 {... */\n      dup2\n      mload(0x00)\n      codecopy(0x00, data_1f08a6407959cd4837ddd9fea2fe35b0c34facc789c2626b8e87092b4372c0eb, 0x20)\n      mload(0x00)\n      swap1\n      0x00\n      mstore\n        /* \"contracts/FutarchyArbExecutorV5.sol\":26482:26521  token.allowance(address(this), spender) */\n      gas\n      staticcall\n      swap1\n      dup2\n      iszero\n      tag_262\n      jumpi\n      0x00\n      swap2\n      tag_1398\n      jumpi\n        /* \"contracts/FutarchyArbExecutorV5.sol\":26389:26852  function _ensureMaxAllowance(IERC20 token, address spender) internal {... */\n    tag_1399:\n      pop\n        /* \"contracts/FutarchyArbExecutorV5.sol\":26535:26559  cur != type(uint256).max */\n      0x01\n      dup2\n      add\n        /* \"contracts/FutarchyArbExecutorV5.sol\":26531:26746  if (cur != type(uint256).max) {... */\n      tag_1400\n      jumpi\n        /* \"contracts/FutarchyArbExecutorV5.sol\":26389:26852  function _ensureMaxAllowance(IERC20 token, address spender) internal {... */\n    tag_1401:\n      pop\n        /* \"contracts/FutarchyArbExecutorV5.sol\":5111:41903  contract FutarchyArbExecutorV5 {... */\n      mload(0x40)\n      shl(0xe1, 0x6eb1769f)\n        /* \"contracts/FutarchyArbExecutorV5.sol\":26805:26844  token.allowance(address(this), spender) */\n      dup2\n      mstore\n        /* \"contracts/FutarchyArbExecutorV5.sol\":26506:26510  this */\n      address\n        /* \"contracts/FutarchyArbExecutorV5.sol\":26482:26521  token.allowance(address(this), spender) */\n      0x04\n        /* \"contracts/FutarchyArbExecutorV5.sol\":26805:26844  token.allowance(address(this), spender) */\n      dup3\n      add\n        /* \"contracts/FutarchyArbExecutorV5.sol\":5111:41903  contract FutarchyArbExecutorV5 {... */\n      mstore\n      mload(0x00)\n      codecopy(0x00, data_fed9ab35569d274633c0afa3fe164e41b182bd84c5e7e43031c6f2c1b23e65bf, 0x20)\n      mload(0x00)\n      swap1\n      0x00\n      mstore\n      0x24\n      dup3\n      add\n      mstore\n      0x20\n      dup2\n        /* \"contracts/FutarchyArbExecutorV5.sol\":26482:26521  token.allowance(address(this), spender) */\n      0x44\n        /* \"contracts/FutarchyArbExecutorV5.sol\":5111:41903  contract FutarchyArbExecutorV5 {... */\n      dup2\n      mload(0x00)\n      codecopy(0x00, data_1f08a6407959cd4837ddd9fea2fe35b0c34facc789c2626b8e87092b4372c0eb, 0x20)\n      mload(0x00)\n      swap1\n      0x00\n      mstore\n        /* \"contracts/FutarchyArbExecutorV5.sol\":26805:26844  token.allowance(address(this), spender) */\n      gas\n      staticcall\n      swap1\n      dup2\n      iszero\n      tag_262\n      jumpi\n      0x00\n      swap2\n      tag_1404\n      jumpi\n        /* \"contracts/FutarchyArbExecutorV5.sol\":26389:26852  function _ensureMaxAllowance(IERC20 token, address spender) internal {... */\n    tag_1405:\n        /* \"contracts/FutarchyArbExecutorV5.sol\":5111:41903  contract FutarchyArbExecutorV5 {... */\n      pop\n      mload(0x00)\n      codecopy(0x00, data_1f08a6407959cd4837ddd9fea2fe35b0c34facc789c2626b8e87092b4372c0eb, 0x20)\n      mload(0x00)\n      swap1\n      0x00\n      mstore\n      mload(0x00)\n      codecopy(0x00, data_0b5ddea07e196d6e9e89075559a4d11120dfd8a9a32fde422e414a54b80481bd, 0x20)\n      mload(0x00)\n      swap1\n      0x00\n      mstore\n      0x20\n      mload(0x00)\n      codecopy(0x00, data_fed9ab35569d274633c0afa3fe164e41b182bd84c5e7e43031c6f2c1b23e65bf, 0x20)\n      mload(0x00)\n      swap1\n      0x00\n      mstore\n      swap4\n      mload(0x40)\n      swap1\n      dup2\n      mstore\n        /* \"contracts/FutarchyArbExecutorV5.sol\":26760:26845  MaxAllowanceEnsured(address(token), spender, token.allowance(address(this), spender)) */\n      log3\n        /* \"contracts/FutarchyArbExecutorV5.sol\":26389:26852  function _ensureMaxAllowance(IERC20 token, address spender) internal {... */\n      jump\t// out\n        /* \"contracts/FutarchyArbExecutorV5.sol\":26805:26844  token.allowance(address(this), spender) */\n    tag_1404:\n      swap1\n      pop\n        /* \"contracts/FutarchyArbExecutorV5.sol\":5111:41903  contract FutarchyArbExecutorV5 {... */\n      0x20\n        /* \"contracts/FutarchyArbExecutorV5.sol\":26805:26844  token.allowance(address(this), spender) */\n      dup2\n      returndatasize\n        /* \"contracts/FutarchyArbExecutorV5.sol\":5111:41903  contract FutarchyArbExecutorV5 {... */\n      0x20\n        /* \"contracts/FutarchyArbExecutorV5.sol\":26805:26844  token.allowance(address(this), spender) */\n      gt\n      tag_1406\n      jumpi\n    tag_1407:\n      dup2\n      tag_1408\n        /* \"contracts/FutarchyArbExecutorV5.sol\":5111:41903  contract FutarchyArbExecutorV5 {... */\n      0x20\n        /* \"contracts/FutarchyArbExecutorV5.sol\":26805:26844  token.allowance(address(this), spender) */\n      swap4\n      dup4\n      tag_18\n      jump\t// in\n    tag_1408:\n      dup2\n      add\n        /* \"contracts/FutarchyArbExecutorV5.sol\":5111:41903  contract FutarchyArbExecutorV5 {... */\n      sub\n      slt\n      tag_166\n      jumpi\n      mload\n      mload(0x00)\n      codecopy(0x00, data_1f08a6407959cd4837ddd9fea2fe35b0c34facc789c2626b8e87092b4372c0eb, 0x20)\n      mload(0x00)\n      swap1\n      0x00\n      mstore\n        /* \"contracts/FutarchyArbExecutorV5.sol\":26805:26844  token.allowance(address(this), spender) */\n      jump(tag_1405)\n    tag_1406:\n      returndatasize\n      swap2\n      pop\n      jump(tag_1407)\n        /* \"contracts/FutarchyArbExecutorV5.sol\":26531:26746  if (cur != type(uint256).max) {... */\n    tag_1400:\n        /* \"contracts/FutarchyArbExecutorV5.sol\":26575:26648  if (cur != 0) if (!token.approve(spender, 0)) revert ApproveResetFailed() */\n      tag_1411\n      jumpi\n        /* \"contracts/FutarchyArbExecutorV5.sol\":26531:26746  if (cur != type(uint256).max) {... */\n    tag_1412:\n        /* \"contracts/FutarchyArbExecutorV5.sol\":5111:41903  contract FutarchyArbExecutorV5 {... */\n      mload(0x40)\n      shl(0xe0, 0x095ea7b3)\n        /* \"contracts/FutarchyArbExecutorV5.sol\":26667:26708  token.approve(spender, type(uint256).max) */\n      dup2\n      mstore\n      mload(0x00)\n      codecopy(0x00, data_fed9ab35569d274633c0afa3fe164e41b182bd84c5e7e43031c6f2c1b23e65bf, 0x20)\n      mload(0x00)\n      swap1\n      0x00\n      mstore\n        /* \"contracts/FutarchyArbExecutorV5.sol\":26482:26521  token.allowance(address(this), spender) */\n      0x04\n        /* \"contracts/FutarchyArbExecutorV5.sol\":26667:26708  token.approve(spender, type(uint256).max) */\n      dup3\n      add\n        /* \"contracts/FutarchyArbExecutorV5.sol\":5111:41903  contract FutarchyArbExecutorV5 {... */\n      mstore\n      not(0x00)\n      0x24\n      dup3\n      add\n      mstore\n      0x20\n      dup2\n        /* \"contracts/FutarchyArbExecutorV5.sol\":26482:26521  token.allowance(address(this), spender) */\n      0x44\n        /* \"contracts/FutarchyArbExecutorV5.sol\":5111:41903  contract FutarchyArbExecutorV5 {... */\n      dup2\n      0x00\n      mload(0x00)\n      codecopy(0x00, data_1f08a6407959cd4837ddd9fea2fe35b0c34facc789c2626b8e87092b4372c0eb, 0x20)\n      mload(0x00)\n      swap1\n      0x00\n      mstore\n        /* \"contracts/FutarchyArbExecutorV5.sol\":26667:26708  token.approve(spender, type(uint256).max) */\n      gas\n      call\n      swap1\n      dup2\n      iszero\n      tag_262\n      jumpi\n      0x00\n      swap2\n      tag_1415\n      jumpi\n        /* \"contracts/FutarchyArbExecutorV5.sol\":26531:26746  if (cur != type(uint256).max) {... */\n    tag_1416:\n        /* \"contracts/FutarchyArbExecutorV5.sol\":26666:26708  !token.approve(spender, type(uint256).max) */\n      pop\n      iszero\n        /* \"contracts/FutarchyArbExecutorV5.sol\":26662:26735  if (!token.approve(spender, type(uint256).max)) revert ApproveSetFailed() */\n      tag_1333\n      jumpi\n        /* \"contracts/FutarchyArbExecutorV5.sol\":26531:26746  if (cur != type(uint256).max) {... */\n      0x00\n      jump(tag_1401)\n        /* \"contracts/FutarchyArbExecutorV5.sol\":26667:26708  token.approve(spender, type(uint256).max) */\n    tag_1415:\n      tag_1419\n      swap2\n      pop\n        /* \"contracts/FutarchyArbExecutorV5.sol\":5111:41903  contract FutarchyArbExecutorV5 {... */\n      0x20\n        /* \"contracts/FutarchyArbExecutorV5.sol\":26667:26708  token.approve(spender, type(uint256).max) */\n      returndatasize\n        /* \"contracts/FutarchyArbExecutorV5.sol\":5111:41903  contract FutarchyArbExecutorV5 {... */\n      0x20\n        /* \"contracts/FutarchyArbExecutorV5.sol\":26667:26708  token.approve(spender, type(uint256).max) */\n      gt\n      tag_1124\n      jumpi\n      tag_1126\n      dup2\n      dup4\n      tag_18\n      jump\t// in\n    tag_1419:\n      0x00\n      jump(tag_1416)\n        /* \"contracts/FutarchyArbExecutorV5.sol\":26575:26648  if (cur != 0) if (!token.approve(spender, 0)) revert ApproveResetFailed() */\n    tag_1411:\n        /* \"contracts/FutarchyArbExecutorV5.sol\":5111:41903  contract FutarchyArbExecutorV5 {... */\n      mload(0x40)\n      shl(0xe0, 0x095ea7b3)\n        /* \"contracts/FutarchyArbExecutorV5.sol\":26594:26619  token.approve(spender, 0) */\n      dup2\n      mstore\n      mload(0x00)\n      codecopy(0x00, data_fed9ab35569d274633c0afa3fe164e41b182bd84c5e7e43031c6f2c1b23e65bf, 0x20)\n      mload(0x00)\n      swap1\n      0x00\n      mstore\n        /* \"contracts/FutarchyArbExecutorV5.sol\":26482:26521  token.allowance(address(this), spender) */\n      0x04\n        /* \"contracts/FutarchyArbExecutorV5.sol\":26594:26619  token.approve(spender, 0) */\n      dup3\n      add\n        /* \"contracts/FutarchyArbExecutorV5.sol\":5111:41903  contract FutarchyArbExecutorV5 {... */\n      mstore\n      0x00\n      0x24\n      dup3\n      add\n      mstore\n      0x20\n        /* \"contracts/FutarchyArbExecutorV5.sol\":26594:26619  token.approve(spender, 0) */\n      dup2\n        /* \"contracts/FutarchyArbExecutorV5.sol\":26482:26521  token.allowance(address(this), spender) */\n      0x44\n        /* \"contracts/FutarchyArbExecutorV5.sol\":26594:26619  token.approve(spender, 0) */\n      dup2\n      0x00\n      mload(0x00)\n      codecopy(0x00, data_1f08a6407959cd4837ddd9fea2fe35b0c34facc789c2626b8e87092b4372c0eb, 0x20)\n      mload(0x00)\n      swap1\n      0x00\n      mstore\n      gas\n      call\n      swap1\n      dup2\n      iszero\n      tag_262\n      jumpi\n      0x00\n      swap2\n      tag_1425\n      jumpi\n        /* \"contracts/FutarchyArbExecutorV5.sol\":26575:26648  if (cur != 0) if (!token.approve(spender, 0)) revert ApproveResetFailed() */\n    tag_1426:\n        /* \"contracts/FutarchyArbExecutorV5.sol\":26593:26619  !token.approve(spender, 0) */\n      pop\n        /* \"contracts/FutarchyArbExecutorV5.sol\":26575:26648  if (cur != 0) if (!token.approve(spender, 0)) revert ApproveResetFailed() */\n      tag_1412\n        /* \"contracts/FutarchyArbExecutorV5.sol\":26589:26648  if (!token.approve(spender, 0)) revert ApproveResetFailed() */\n      jumpi\n        /* \"contracts/FutarchyArbExecutorV5.sol\":26628:26648  ApproveResetFailed() */\n      mstore(0x00, shl(0xe2, 0x097c3e93))\n        /* \"contracts/FutarchyArbExecutorV5.sol\":26482:26521  token.allowance(address(this), spender) */\n      0x04\n      0x00\n        /* \"contracts/FutarchyArbExecutorV5.sol\":26628:26648  ApproveResetFailed() */\n      revert\n        /* \"contracts/FutarchyArbExecutorV5.sol\":26594:26619  token.approve(spender, 0) */\n    tag_1425:\n      tag_1429\n      swap2\n      pop\n        /* \"contracts/FutarchyArbExecutorV5.sol\":5111:41903  contract FutarchyArbExecutorV5 {... */\n      0x20\n        /* \"contracts/FutarchyArbExecutorV5.sol\":26594:26619  token.approve(spender, 0) */\n      returndatasize\n        /* \"contracts/FutarchyArbExecutorV5.sol\":5111:41903  contract FutarchyArbExecutorV5 {... */\n      0x20\n        /* \"contracts/FutarchyArbExecutorV5.sol\":26594:26619  token.approve(spender, 0) */\n      gt\n      tag_1124\n      jumpi\n      tag_1126\n      dup2\n      dup4\n      tag_18\n      jump\t// in\n    tag_1429:\n      0x00\n      jump(tag_1426)\n        /* \"contracts/FutarchyArbExecutorV5.sol\":26482:26521  token.allowance(address(this), spender) */\n    tag_1398:\n      swap1\n      pop\n        /* \"contracts/FutarchyArbExecutorV5.sol\":5111:41903  contract FutarchyArbExecutorV5 {... */\n      0x20\n        /* \"contracts/FutarchyArbExecutorV5.sol\":26482:26521  token.allowance(address(this), spender) */\n      dup2\n      returndatasize\n        /* \"contracts/FutarchyArbExecutorV5.sol\":5111:41903  contract FutarchyArbExecutorV5 {... */\n      0x20\n        /* \"contracts/FutarchyArbExecutorV5.sol\":26482:26521  token.allowance(address(this), spender) */\n      gt\n      tag_1433\n      jumpi\n    tag_1434:\n      dup2\n      tag_1435\n        /* \"contracts/FutarchyArbExecutorV5.sol\":5111:41903  contract FutarchyArbExecutorV5 {... */\n      0x20\n        /* \"contracts/FutarchyArbExecutorV5.sol\":26482:26521  token.allowance(address(this), spender) */\n      swap4\n      dup4\n      tag_18\n      jump\t// in\n    tag_1435:\n      dup2\n      add\n        /* \"contracts/FutarchyArbExecutorV5.sol\":5111:41903  contract FutarchyArbExecutorV5 {... */\n      sub\n      slt\n      tag_166\n      jumpi\n      mload\n        /* \"contracts/FutarchyArbExecutorV5.sol\":26482:26521  token.allowance(address(this), spender) */\n      0x00\n      jump(tag_1399)\n    tag_1433:\n      returndatasize\n      swap2\n      pop\n      jump(tag_1434)\n        /* \"contracts/FutarchyArbExecutorV5.sol\":26389:26852  function _ensureMaxAllowance(IERC20 token, address spender) internal {... */\n    tag_49:\n        /* \"contracts/FutarchyArbExecutorV5.sol\":5111:41903  contract FutarchyArbExecutorV5 {... */\n      mload(0x40)\n      shl(0xe1, 0x6eb1769f)\n        /* \"contracts/FutarchyArbExecutorV5.sol\":26482:26521  token.allowance(address(this), spender) */\n      dup2\n      mstore\n        /* \"contracts/FutarchyArbExecutorV5.sol\":26506:26510  this */\n      address\n        /* \"contracts/FutarchyArbExecutorV5.sol\":26482:26521  token.allowance(address(this), spender) */\n      0x04\n      dup3\n      add\n        /* \"contracts/FutarchyArbExecutorV5.sol\":5111:41903  contract FutarchyArbExecutorV5 {... */\n      mstore\n      mload(0x00)\n      codecopy(0x00, data_fed9ab35569d274633c0afa3fe164e41b182bd84c5e7e43031c6f2c1b23e65bf, 0x20)\n      mload(0x00)\n      swap1\n      0x00\n      mstore\n      0x24\n      dup3\n      add\n      mstore\n      0x20\n      dup2\n        /* \"contracts/FutarchyArbExecutorV5.sol\":26482:26521  token.allowance(address(this), spender) */\n      0x44\n        /* \"contracts/FutarchyArbExecutorV5.sol\":5111:41903  contract FutarchyArbExecutorV5 {... */\n      dup2\n      mload(0x00)\n      codecopy(0x00, data_18faf74e4df68828d272c60758edf9513e53936ca0737ceb17921c958804ed9a, 0x20)\n      mload(0x00)\n      swap1\n      0x00\n      mstore\n        /* \"contracts/FutarchyArbExecutorV5.sol\":26482:26521  token.allowance(address(this), spender) */\n      gas\n      staticcall\n      swap1\n      dup2\n      iszero\n      tag_262\n      jumpi\n      0x00\n      swap2\n      tag_1440\n      jumpi\n        /* \"contracts/FutarchyArbExecutorV5.sol\":26389:26852  function _ensureMaxAllowance(IERC20 token, address spender) internal {... */\n    tag_1441:\n      pop\n        /* \"contracts/FutarchyArbExecutorV5.sol\":26535:26559  cur != type(uint256).max */\n      0x01\n      dup2\n      add\n        /* \"contracts/FutarchyArbExecutorV5.sol\":26531:26746  if (cur != type(uint256).max) {... */\n      tag_1442\n      jumpi\n        /* \"contracts/FutarchyArbExecutorV5.sol\":26389:26852  function _ensureMaxAllowance(IERC20 token, address spender) internal {... */\n    tag_1443:\n      pop\n        /* \"contracts/FutarchyArbExecutorV5.sol\":5111:41903  contract FutarchyArbExecutorV5 {... */\n      mload(0x40)\n      shl(0xe1, 0x6eb1769f)\n        /* \"contracts/FutarchyArbExecutorV5.sol\":26805:26844  token.allowance(address(this), spender) */\n      dup2\n      mstore\n        /* \"contracts/FutarchyArbExecutorV5.sol\":26506:26510  this */\n      address\n        /* \"contracts/FutarchyArbExecutorV5.sol\":26482:26521  token.allowance(address(this), spender) */\n      0x04\n        /* \"contracts/FutarchyArbExecutorV5.sol\":26805:26844  token.allowance(address(this), spender) */\n      dup3\n      add\n        /* \"contracts/FutarchyArbExecutorV5.sol\":5111:41903  contract FutarchyArbExecutorV5 {... */\n      mstore\n      mload(0x00)\n      codecopy(0x00, data_fed9ab35569d274633c0afa3fe164e41b182bd84c5e7e43031c6f2c1b23e65bf, 0x20)\n      mload(0x00)\n      swap1\n      0x00\n      mstore\n      0x24\n      dup3\n      add\n      mstore\n      0x20\n      dup2\n        /* \"contracts/FutarchyArbExecutorV5.sol\":26482:26521  token.allowance(address(this), spender) */\n      0x44\n        /* \"contracts/FutarchyArbExecutorV5.sol\":5111:41903  contract FutarchyArbExecutorV5 {... */\n      dup2\n      mload(0x00)\n      codecopy(0x00, data_18faf74e4df68828d272c60758edf9513e53936ca0737ceb17921c958804ed9a, 0x20)\n      mload(0x00)\n      swap1\n      0x00\n      mstore\n        /* \"contracts/FutarchyArbExecutorV5.sol\":26805:26844  token.allowance(address(this), spender) */\n      gas\n      staticcall\n      swap1\n      dup2\n      iszero\n      tag_262\n      jumpi\n      0x00\n      swap2\n      tag_1446\n      jumpi\n        /* \"contracts/FutarchyArbExecutorV5.sol\":26389:26852  function _ensureMaxAllowance(IERC20 token, address spender) internal {... */\n    tag_1447:\n        /* \"contracts/FutarchyArbExecutorV5.sol\":5111:41903  contract FutarchyArbExecutorV5 {... */\n      pop\n      mload(0x00)\n      codecopy(0x00, data_18faf74e4df68828d272c60758edf9513e53936ca0737ceb17921c958804ed9a, 0x20)\n      mload(0x00)\n      swap1\n      0x00\n      mstore\n      mload(0x00)\n      codecopy(0x00, data_0b5ddea07e196d6e9e89075559a4d11120dfd8a9a32fde422e414a54b80481bd, 0x20)\n      mload(0x00)\n      swap1\n      0x00\n      mstore\n      0x20\n      mload(0x00)\n      codecopy(0x00, data_fed9ab35569d274633c0afa3fe164e41b182bd84c5e7e43031c6f2c1b23e65bf, 0x20)\n      mload(0x00)\n      swap1\n      0x00\n      mstore\n      swap4\n      mload(0x40)\n      swap1\n      dup2\n      mstore\n        /* \"contracts/FutarchyArbExecutorV5.sol\":26760:26845  MaxAllowanceEnsured(address(token), spender, token.allowance(address(this), spender)) */\n      log3\n        /* \"contracts/FutarchyArbExecutorV5.sol\":26389:26852  function _ensureMaxAllowance(IERC20 token, address spender) internal {... */\n      jump\t// out\n        /* \"contracts/FutarchyArbExecutorV5.sol\":26805:26844  token.allowance(address(this), spender) */\n    tag_1446:\n      swap1\n      pop\n        /* \"contracts/FutarchyArbExecutorV5.sol\":5111:41903  contract FutarchyArbExecutorV5 {... */\n      0x20\n        /* \"contracts/FutarchyArbExecutorV5.sol\":26805:26844  token.allowance(address(this), spender) */\n      dup2\n      returndatasize\n        /* \"contracts/FutarchyArbExecutorV5.sol\":5111:41903  contract FutarchyArbExecutorV5 {... */\n      0x20\n        /* \"contracts/FutarchyArbExecutorV5.sol\":26805:26844  token.allowance(address(this), spender) */\n      gt\n      tag_1448\n      jumpi\n    tag_1449:\n      dup2\n      tag_1450\n        /* \"contracts/FutarchyArbExecutorV5.sol\":5111:41903  contract FutarchyArbExecutorV5 {... */\n      0x20\n        /* \"contracts/FutarchyArbExecutorV5.sol\":26805:26844  token.allowance(address(this), spender) */\n      swap4\n      dup4\n      tag_18\n      jump\t// in\n    tag_1450:\n      dup2\n      add\n        /* \"contracts/FutarchyArbExecutorV5.sol\":5111:41903  contract FutarchyArbExecutorV5 {... */\n      sub\n      slt\n      tag_166\n      jumpi\n      mload\n      mload(0x00)\n      codecopy(0x00, data_18faf74e4df68828d272c60758edf9513e53936ca0737ceb17921c958804ed9a, 0x20)\n      mload(0x00)\n      swap1\n      0x00\n      mstore\n        /* \"contracts/FutarchyArbExecutorV5.sol\":26805:26844  token.allowance(address(this), spender) */\n      jump(tag_1447)\n    tag_1448:\n      returndatasize\n      swap2\n      pop\n      jump(tag_1449)\n        /* \"contracts/FutarchyArbExecutorV5.sol\":26531:26746  if (cur != type(uint256).max) {... */\n    tag_1442:\n        /* \"contracts/FutarchyArbExecutorV5.sol\":26575:26648  if (cur != 0) if (!token.approve(spender, 0)) revert ApproveResetFailed() */\n      tag_1453\n      jumpi\n        /* \"contracts/FutarchyArbExecutorV5.sol\":26531:26746  if (cur != type(uint256).max) {... */\n    tag_1454:\n        /* \"contracts/FutarchyArbExecutorV5.sol\":5111:41903  contract FutarchyArbExecutorV5 {... */\n      mload(0x40)\n      shl(0xe0, 0x095ea7b3)\n        /* \"contracts/FutarchyArbExecutorV5.sol\":26667:26708  token.approve(spender, type(uint256).max) */\n      dup2\n      mstore\n      mload(0x00)\n      codecopy(0x00, data_fed9ab35569d274633c0afa3fe164e41b182bd84c5e7e43031c6f2c1b23e65bf, 0x20)\n      mload(0x00)\n      swap1\n      0x00\n      mstore\n        /* \"contracts/FutarchyArbExecutorV5.sol\":26482:26521  token.allowance(address(this), spender) */\n      0x04\n        /* \"contracts/FutarchyArbExecutorV5.sol\":26667:26708  token.approve(spender, type(uint256).max) */\n      dup3\n      add\n        /* \"contracts/FutarchyArbExecutorV5.sol\":5111:41903  contract FutarchyArbExecutorV5 {... */\n      mstore\n      not(0x00)\n      0x24\n      dup3\n      add\n      mstore\n      0x20\n      dup2\n        /* \"contracts/FutarchyArbExecutorV5.sol\":26482:26521  token.allowance(address(this), spender) */\n      0x44\n        /* \"contracts/FutarchyArbExecutorV5.sol\":5111:41903  contract FutarchyArbExecutorV5 {... */\n      dup2\n      0x00\n      mload(0x00)\n      codecopy(0x00, data_18faf74e4df68828d272c60758edf9513e53936ca0737ceb17921c958804ed9a, 0x20)\n      mload(0x00)\n      swap1\n      0x00\n      mstore\n        /* \"contracts/FutarchyArbExecutorV5.sol\":26667:26708  token.approve(spender, type(uint256).max) */\n      gas\n      call\n      swap1\n      dup2\n      iszero\n      tag_262\n      jumpi\n      0x00\n      swap2\n      tag_1457\n      jumpi\n        /* \"contracts/FutarchyArbExecutorV5.sol\":26531:26746  if (cur != type(uint256).max) {... */\n    tag_1458:\n        /* \"contracts/FutarchyArbExecutorV5.sol\":26666:26708  !token.approve(spender, type(uint256).max) */\n      pop\n      iszero\n        /* \"contracts/FutarchyArbExecutorV5.sol\":26662:26735  if (!token.approve(spender, type(uint256).max)) revert ApproveSetFailed() */\n      tag_1333\n      jumpi\n        /* \"contracts/FutarchyArbExecutorV5.sol\":26531:26746  if (cur != type(uint256).max) {... */\n      0x00\n      jump(tag_1443)\n        /* \"contracts/FutarchyArbExecutorV5.sol\":26667:26708  token.approve(spender, type(uint256).max) */\n    tag_1457:\n      tag_1461\n      swap2\n      pop\n        /* \"contracts/FutarchyArbExecutorV5.sol\":5111:41903  contract FutarchyArbExecutorV5 {... */\n      0x20\n        /* \"contracts/FutarchyArbExecutorV5.sol\":26667:26708  token.approve(spender, type(uint256).max) */\n      returndatasize\n        /* \"contracts/FutarchyArbExecutorV5.sol\":5111:41903  contract FutarchyArbExecutorV5 {... */\n      0x20\n        /* \"contracts/FutarchyArbExecutorV5.sol\":26667:26708  token.approve(spender, type(uint256).max) */\n      gt\n      tag_1124\n      jumpi\n      tag_1126\n      dup2\n      dup4\n      tag_18\n      jump\t// in\n    tag_1461:\n      0x00\n      jump(tag_1458)\n        /* \"contracts/FutarchyArbExecutorV5.sol\":26575:26648  if (cur != 0) if (!token.approve(spender, 0)) revert ApproveResetFailed() */\n    tag_1453:\n        /* \"contracts/FutarchyArbExecutorV5.sol\":5111:41903  contract FutarchyArbExecutorV5 {... */\n      mload(0x40)\n      shl(0xe0, 0x095ea7b3)\n        /* \"contracts/FutarchyArbExecutorV5.sol\":26594:26619  token.approve(spender, 0) */\n      dup2\n      mstore\n      mload(0x00)\n      codecopy(0x00, data_fed9ab35569d274633c0afa3fe164e41b182bd84c5e7e43031c6f2c1b23e65bf, 0x20)\n      mload(0x00)\n      swap1\n      0x00\n      mstore\n        /* \"contracts/FutarchyArbExecutorV5.sol\":26482:26521  token.allowance(address(this), spender) */\n      0x04\n        /* \"contracts/FutarchyArbExecutorV5.sol\":26594:26619  token.approve(spender, 0) */\n      dup3\n      add\n        /* \"contracts/FutarchyArbExecutorV5.sol\":5111:41903  contract FutarchyArbExecutorV5 {... */\n      mstore\n      0x00\n      0x24\n      dup3\n      add\n      mstore\n      0x20\n        /* \"contracts/FutarchyArbExecutorV5.sol\":26594:26619  token.approve(spender, 0) */\n      dup2\n        /* \"contracts/FutarchyArbExecutorV5.sol\":26482:26521  token.allowance(address(this), spender) */\n      0x44\n        /* \"contracts/FutarchyArbExecutorV5.sol\":26594:26619  token.approve(spender, 0) */\n      dup2\n      0x00\n      mload(0x00)\n      codecopy(0x00, data_18faf74e4df68828d272c60758edf9513e53936ca0737ceb17921c958804ed9a, 0x20)\n      mload(0x00)\n      swap1\n      0x00\n      mstore\n      gas\n      call\n      swap1\n      dup2\n      iszero\n      tag_262\n      jumpi\n      0x00\n      swap2\n      tag_1467\n      jumpi\n        /* \"contracts/FutarchyArbExecutorV5.sol\":26575:26648  if (cur != 0) if (!token.approve(spender, 0)) revert ApproveResetFailed() */\n    tag_1468:\n        /* \"contracts/FutarchyArbExecutorV5.sol\":26593:26619  !token.approve(spender, 0) */\n      pop\n        /* \"contracts/FutarchyArbExecutorV5.sol\":26575:26648  if (cur != 0) if (!token.approve(spender, 0)) revert ApproveResetFailed() */\n      tag_1454\n        /* \"contracts/FutarchyArbExecutorV5.sol\":26589:26648  if (!token.approve(spender, 0)) revert ApproveResetFailed() */\n      jumpi\n        /* \"contracts/FutarchyArbExecutorV5.sol\":26628:26648  ApproveResetFailed() */\n      mstore(0x00, shl(0xe2, 0x097c3e93))\n        /* \"contracts/FutarchyArbExecutorV5.sol\":26482:26521  token.allowance(address(this), spender) */\n      0x04\n      0x00\n        /* \"contracts/FutarchyArbExecutorV5.sol\":26628:26648  ApproveResetFailed() */\n      revert\n        /* \"contracts/FutarchyArbExecutorV5.sol\":26594:26619  token.approve(spender, 0) */\n    tag_1467:\n      tag_1471\n      swap2\n      pop\n        /* \"contracts/FutarchyArbExecutorV5.sol\":5111:41903  contract FutarchyArbExecutorV5 {... */\n      0x20\n        /* \"contracts/FutarchyArbExecutorV5.sol\":26594:26619  token.approve(spender, 0) */\n      returndatasize\n        /* \"contracts/FutarchyArbExecutorV5.sol\":5111:41903  contract FutarchyArbExecutorV5 {... */\n      0x20\n        /* \"contracts/FutarchyArbExecutorV5.sol\":26594:26619  token.approve(spender, 0) */\n      gt\n      tag_1124\n      jumpi\n      tag_1126\n      dup2\n      dup4\n      tag_18\n      jump\t// in\n    tag_1471:\n      0x00\n      jump(tag_1468)\n        /* \"contracts/FutarchyArbExecutorV5.sol\":26482:26521  token.allowance(address(this), spender) */\n    tag_1440:\n      swap1\n      pop\n        /* \"contracts/FutarchyArbExecutorV5.sol\":5111:41903  contract FutarchyArbExecutorV5 {... */\n      0x20\n        /* \"contracts/FutarchyArbExecutorV5.sol\":26482:26521  token.allowance(address(this), spender) */\n      dup2\n      returndatasize\n        /* \"contracts/FutarchyArbExecutorV5.sol\":5111:41903  contract FutarchyArbExecutorV5 {... */\n      0x20\n        /* \"contracts/FutarchyArbExecutorV5.sol\":26482:26521  token.allowance(address(this), spender) */\n      gt\n      tag_1475\n      jumpi\n    tag_1476:\n      dup2\n      tag_1477\n        /* \"contracts/FutarchyArbExecutorV5.sol\":5111:41903  contract FutarchyArbExecutorV5 {... */\n      0x20\n        /* \"contracts/FutarchyArbExecutorV5.sol\":26482:26521  token.allowance(address(this), spender) */\n      swap4\n      dup4\n      tag_18\n      jump\t// in\n    tag_1477:\n      dup2\n      add\n        /* \"contracts/FutarchyArbExecutorV5.sol\":5111:41903  contract FutarchyArbExecutorV5 {... */\n      sub\n      slt\n      tag_166\n      jumpi\n      mload\n        /* \"contracts/FutarchyArbExecutorV5.sol\":26482:26521  token.allowance(address(this), spender) */\n      0x00\n      jump(tag_1441)\n    tag_1475:\n      returndatasize\n      swap2\n      pop\n      jump(tag_1476)\n        /* \"contracts/FutarchyArbExecutorV5.sol\":26389:26852  function _ensureMaxAllowance(IERC20 token, address spender) internal {... */\n    tag_50:\n        /* \"contracts/FutarchyArbExecutorV5.sol\":5111:41903  contract FutarchyArbExecutorV5 {... */\n      mload(0x40)\n      shl(0xe1, 0x6eb1769f)\n        /* \"contracts/FutarchyArbExecutorV5.sol\":26482:26521  token.allowance(address(this), spender) */\n      dup2\n      mstore\n        /* \"contracts/FutarchyArbExecutorV5.sol\":26506:26510  this */\n      address\n        /* \"contracts/FutarchyArbExecutorV5.sol\":26482:26521  token.allowance(address(this), spender) */\n      0x04\n      dup3\n      add\n        /* \"contracts/FutarchyArbExecutorV5.sol\":5111:41903  contract FutarchyArbExecutorV5 {... */\n      mstore\n      mload(0x00)\n      codecopy(0x00, data_d91414ac4175376259ecb6d3ea005aa1ae1e7573d53a4ea2b2fc89eb70155797, 0x20)\n      mload(0x00)\n      swap1\n      0x00\n      mstore\n      0x24\n      dup3\n      add\n      mstore\n      0x20\n      dup2\n        /* \"contracts/FutarchyArbExecutorV5.sol\":26482:26521  token.allowance(address(this), spender) */\n      0x44\n        /* \"contracts/FutarchyArbExecutorV5.sol\":5111:41903  contract FutarchyArbExecutorV5 {... */\n      dup2\n      mload(0x00)\n      codecopy(0x00, data_1f08a6407959cd4837ddd9fea2fe35b0c34facc789c2626b8e87092b4372c0eb, 0x20)\n      mload(0x00)\n      swap1\n      0x00\n      mstore\n        /* \"contracts/FutarchyArbExecutorV5.sol\":26482:26521  token.allowance(address(this), spender) */\n      gas\n      staticcall\n      swap1\n      dup2\n      iszero\n      tag_262\n      jumpi\n      0x00\n      swap2\n      tag_1482\n      jumpi\n        /* \"contracts/FutarchyArbExecutorV5.sol\":26389:26852  function _ensureMaxAllowance(IERC20 token, address spender) internal {... */\n    tag_1483:\n      pop\n        /* \"contracts/FutarchyArbExecutorV5.sol\":26535:26559  cur != type(uint256).max */\n      0x01\n      dup2\n      add\n        /* \"contracts/FutarchyArbExecutorV5.sol\":26531:26746  if (cur != type(uint256).max) {... */\n      tag_1484\n      jumpi\n        /* \"contracts/FutarchyArbExecutorV5.sol\":26389:26852  function _ensureMaxAllowance(IERC20 token, address spender) internal {... */\n    tag_1485:\n      pop\n        /* \"contracts/FutarchyArbExecutorV5.sol\":5111:41903  contract FutarchyArbExecutorV5 {... */\n      mload(0x40)\n      shl(0xe1, 0x6eb1769f)\n        /* \"contracts/FutarchyArbExecutorV5.sol\":26805:26844  token.allowance(address(this), spender) */\n      dup2\n      mstore\n        /* \"contracts/FutarchyArbExecutorV5.sol\":26506:26510  this */\n      address\n        /* \"contracts/FutarchyArbExecutorV5.sol\":26482:26521  token.allowance(address(this), spender) */\n      0x04\n        /* \"contracts/FutarchyArbExecutorV5.sol\":26805:26844  token.allowance(address(this), spender) */\n      dup3\n      add\n        /* \"contracts/FutarchyArbExecutorV5.sol\":5111:41903  contract FutarchyArbExecutorV5 {... */\n      mstore\n      mload(0x00)\n      codecopy(0x00, data_d91414ac4175376259ecb6d3ea005aa1ae1e7573d53a4ea2b2fc89eb70155797, 0x20)\n      mload(0x00)\n      swap1\n      0x00\n      mstore\n      0x24\n      dup3\n      add\n      mstore\n      0x20\n      dup2\n        /* \"contracts/FutarchyArbExecutorV5.sol\":26482:26521  token.allowance(address(this), spender) */\n      0x44\n        /* \"contracts/FutarchyArbExecutorV5.sol\":5111:41903  contract FutarchyArbExecutorV5 {... */\n      dup2\n      mload(0x00)\n      codecopy(0x00, data_1f08a6407959cd4837ddd9fea2fe35b0c34facc789c2626b8e87092b4372c0eb, 0x20)\n      mload(0x00)\n      swap1\n      0x00\n      mstore\n        /* \"contracts/FutarchyArbExecutorV5.sol\":26805:26844  token.allowance(address(this), spender) */\n      gas\n      staticcall\n      swap1\n      dup2\n      iszero\n      tag_262\n      jumpi\n      0x00\n      swap2\n      tag_1488\n      jumpi\n        /* \"contracts/FutarchyArbExecutorV5.sol\":26389:26852  function _ensureMaxAllowance(IERC20 token, address spender) internal {... */\n    tag_1489:\n        /* \"contracts/FutarchyArbExecutorV5.sol\":5111:41903  contract FutarchyArbExecutorV5 {... */\n      pop\n      mload(0x00)\n      codecopy(0x00, data_1f08a6407959cd4837ddd9fea2fe35b0c34facc789c2626b8e87092b4372c0eb, 0x20)\n      mload(0x00)\n      swap1\n      0x00\n      mstore\n      mload(0x00)\n      codecopy(0x00, data_0b5ddea07e196d6e9e89075559a4d11120dfd8a9a32fde422e414a54b80481bd, 0x20)\n      mload(0x00)\n      swap1\n      0x00\n      mstore\n      0x20\n      mload(0x00)\n      codecopy(0x00, data_d91414ac4175376259ecb6d3ea005aa1ae1e7573d53a4ea2b2fc89eb70155797, 0x20)\n      mload(0x00)\n      swap1\n      0x00\n      mstore\n      swap4\n      mload(0x40)\n      swap1\n      dup2\n      mstore\n        /* \"contracts/FutarchyArbExecutorV5.sol\":26760:26845  MaxAllowanceEnsured(address(token), spender, token.allowance(address(this), spender)) */\n      log3\n        /* \"contracts/FutarchyArbExecutorV5.sol\":26389:26852  function _ensureMaxAllowance(IERC20 token, address spender) internal {... */\n      jump\t// out\n        /* \"contracts/FutarchyArbExecutorV5.sol\":26805:26844  token.allowance(address(this), spender) */\n    tag_1488:\n      swap1\n      pop\n        /* \"contracts/FutarchyArbExecutorV5.sol\":5111:41903  contract FutarchyArbExecutorV5 {... */\n      0x20\n        /* \"contracts/FutarchyArbExecutorV5.sol\":26805:26844  token.allowance(address(this), spender) */\n      dup2\n      returndatasize\n        /* \"contracts/FutarchyArbExecutorV5.sol\":5111:41903  contract FutarchyArbExecutorV5 {... */\n      0x20\n        /* \"contracts/FutarchyArbExecutorV5.sol\":26805:26844  token.allowance(address(this), spender) */\n      gt\n      tag_1490\n      jumpi\n    tag_1491:\n      dup2\n      tag_1492\n        /* \"contracts/FutarchyArbExecutorV5.sol\":5111:41903  contract FutarchyArbExecutorV5 {... */\n      0x20\n        /* \"contracts/FutarchyArbExecutorV5.sol\":26805:26844  token.allowance(address(this), spender) */\n      swap4\n      dup4\n      tag_18\n      jump\t// in\n    tag_1492:\n      dup2\n      add\n        /* \"contracts/FutarchyArbExecutorV5.sol\":5111:41903  contract FutarchyArbExecutorV5 {... */\n      sub\n      slt\n      tag_166\n      jumpi\n      mload\n      mload(0x00)\n      codecopy(0x00, data_1f08a6407959cd4837ddd9fea2fe35b0c34facc789c2626b8e87092b4372c0eb, 0x20)\n      mload(0x00)\n      swap1\n      0x00\n      mstore\n        /* \"contracts/FutarchyArbExecutorV5.sol\":26805:26844  token.allowance(address(this), spender) */\n      jump(tag_1489)\n    tag_1490:\n      returndatasize\n      swap2\n      pop\n      jump(tag_1491)\n        /* \"contracts/FutarchyArbExecutorV5.sol\":26531:26746  if (cur != type(uint256).max) {... */\n    tag_1484:\n        /* \"contracts/FutarchyArbExecutorV5.sol\":26575:26648  if (cur != 0) if (!token.approve(spender, 0)) revert ApproveResetFailed() */\n      tag_1495\n      jumpi\n        /* \"contracts/FutarchyArbExecutorV5.sol\":26531:26746  if (cur != type(uint256).max) {... */\n    tag_1496:\n        /* \"contracts/FutarchyArbExecutorV5.sol\":5111:41903  contract FutarchyArbExecutorV5 {... */\n      mload(0x40)\n      shl(0xe0, 0x095ea7b3)\n        /* \"contracts/FutarchyArbExecutorV5.sol\":26667:26708  token.approve(spender, type(uint256).max) */\n      dup2\n      mstore\n      mload(0x00)\n      codecopy(0x00, data_d91414ac4175376259ecb6d3ea005aa1ae1e7573d53a4ea2b2fc89eb70155797, 0x20)\n      mload(0x00)\n      swap1\n      0x00\n      mstore\n        /* \"contracts/FutarchyArbExecutorV5.sol\":26482:26521  token.allowance(address(this), spender) */\n      0x04\n        /* \"contracts/FutarchyArbExecutorV5.sol\":26667:26708  token.approve(spender, type(uint256).max) */\n      dup3\n      add\n        /* \"contracts/FutarchyArbExecutorV5.sol\":5111:41903  contract FutarchyArbExecutorV5 {... */\n      mstore\n      not(0x00)\n      0x24\n      dup3\n      add\n      mstore\n      0x20\n      dup2\n        /* \"contracts/FutarchyArbExecutorV5.sol\":26482:26521  token.allowance(address(this), spender) */\n      0x44\n        /* \"contracts/FutarchyArbExecutorV5.sol\":5111:41903  contract FutarchyArbExecutorV5 {... */\n      dup2\n      0x00\n      mload(0x00)\n      codecopy(0x00, data_1f08a6407959cd4837ddd9fea2fe35b0c34facc789c2626b8e87092b4372c0eb, 0x20)\n      mload(0x00)\n      swap1\n      0x00\n      mstore\n        /* \"contracts/FutarchyArbExecutorV5.sol\":26667:26708  token.approve(spender, type(uint256).max) */\n      gas\n      call\n      swap1\n      dup2\n      iszero\n      tag_262\n      jumpi\n      0x00\n      swap2\n      tag_1499\n      jumpi\n        /* \"contracts/FutarchyArbExecutorV5.sol\":26531:26746  if (cur != type(uint256).max) {... */\n    tag_1500:\n        /* \"contracts/FutarchyArbExecutorV5.sol\":26666:26708  !token.approve(spender, type(uint256).max) */\n      pop\n      iszero\n        /* \"contracts/FutarchyArbExecutorV5.sol\":26662:26735  if (!token.approve(spender, type(uint256).max)) revert ApproveSetFailed() */\n      tag_1333\n      jumpi\n        /* \"contracts/FutarchyArbExecutorV5.sol\":26531:26746  if (cur != type(uint256).max) {... */\n      0x00\n      jump(tag_1485)\n        /* \"contracts/FutarchyArbExecutorV5.sol\":26667:26708  token.approve(spender, type(uint256).max) */\n    tag_1499:\n      tag_1503\n      swap2\n      pop\n        /* \"contracts/FutarchyArbExecutorV5.sol\":5111:41903  contract FutarchyArbExecutorV5 {... */\n      0x20\n        /* \"contracts/FutarchyArbExecutorV5.sol\":26667:26708  token.approve(spender, type(uint256).max) */\n      returndatasize\n        /* \"contracts/FutarchyArbExecutorV5.sol\":5111:41903  contract FutarchyArbExecutorV5 {... */\n      0x20\n        /* \"contracts/FutarchyArbExecutorV5.sol\":26667:26708  token.approve(spender, type(uint256).max) */\n      gt\n      tag_1124\n      jumpi\n      tag_1126\n      dup2\n      dup4\n      tag_18\n      jump\t// in\n    tag_1503:\n      0x00\n      jump(tag_1500)\n        /* \"contracts/FutarchyArbExecutorV5.sol\":26575:26648  if (cur != 0) if (!token.approve(spender, 0)) revert ApproveResetFailed() */\n    tag_1495:\n        /* \"contracts/FutarchyArbExecutorV5.sol\":5111:41903  contract FutarchyArbExecutorV5 {... */\n      mload(0x40)\n      shl(0xe0, 0x095ea7b3)\n        /* \"contracts/FutarchyArbExecutorV5.sol\":26594:26619  token.approve(spender, 0) */\n      dup2\n      mstore\n      mload(0x00)\n      codecopy(0x00, data_d91414ac4175376259ecb6d3ea005aa1ae1e7573d53a4ea2b2fc89eb70155797, 0x20)\n      mload(0x00)\n      swap1\n      0x00\n      mstore\n        /* \"contracts/FutarchyArbExecutorV5.sol\":26482:26521  token.allowance(address(this), spender) */\n      0x04\n        /* \"contracts/FutarchyArbExecutorV5.sol\":26594:26619  token.approve(spender, 0) */\n      dup3\n      add\n        /* \"contracts/FutarchyArbExecutorV5.sol\":5111:41903  contract FutarchyArbExecutorV5 {... */\n      mstore\n      0x00\n      0x24\n      dup3\n      add\n      mstore\n      0x20\n        /* \"contracts/FutarchyArbExecutorV5.sol\":26594:26619  token.approve(spender, 0) */\n      dup2\n        /* \"contracts/FutarchyArbExecutorV5.sol\":26482:26521  token.allowance(address(this), spender) */\n      0x44\n        /* \"contracts/FutarchyArbExecutorV5.sol\":26594:26619  token.approve(spender, 0) */\n      dup2\n      0x00\n      mload(0x00)\n      codecopy(0x00, data_1f08a6407959cd4837ddd9fea2fe35b0c34facc789c2626b8e87092b4372c0eb, 0x20)\n      mload(0x00)\n      swap1\n      0x00\n      mstore\n      gas\n      call\n      swap1\n      dup2\n      iszero\n      tag_262\n      jumpi\n      0x00\n      swap2\n      tag_1509\n      jumpi\n        /* \"contracts/FutarchyArbExecutorV5.sol\":26575:26648  if (cur != 0) if (!token.approve(spender, 0)) revert ApproveResetFailed() */\n    tag_1510:\n        /* \"contracts/FutarchyArbExecutorV5.sol\":26593:26619  !token.approve(spender, 0) */\n      pop\n        /* \"contracts/FutarchyArbExecutorV5.sol\":26575:26648  if (cur != 0) if (!token.approve(spender, 0)) revert ApproveResetFailed() */\n      tag_1496\n        /* \"contracts/FutarchyArbExecutorV5.sol\":26589:26648  if (!token.approve(spender, 0)) revert ApproveResetFailed() */\n      jumpi\n        /* \"contracts/FutarchyArbExecutorV5.sol\":26628:26648  ApproveResetFailed() */\n      mstore(0x00, shl(0xe2, 0x097c3e93))\n        /* \"contracts/FutarchyArbExecutorV5.sol\":26482:26521  token.allowance(address(this), spender) */\n      0x04\n      0x00\n        /* \"contracts/FutarchyArbExecutorV5.sol\":26628:26648  ApproveResetFailed() */\n      revert\n        /* \"contracts/FutarchyArbExecutorV5.sol\":26594:26619  token.approve(spender, 0) */\n    tag_1509:\n      tag_1513\n      swap2\n      pop\n        /* \"contracts/FutarchyArbExecutorV5.sol\":5111:41903  contract FutarchyArbExecutorV5 {... */\n      0x20\n        /* \"contracts/FutarchyArbExecutorV5.sol\":26594:26619  token.approve(spender, 0) */\n      returndatasize\n        /* \"contracts/FutarchyArbExecutorV5.sol\":5111:41903  contract FutarchyArbExecutorV5 {... */\n      0x20\n        /* \"contracts/FutarchyArbExecutorV5.sol\":26594:26619  token.approve(spender, 0) */\n      gt\n      tag_1124\n      jumpi\n      tag_1126\n      dup2\n      dup4\n      tag_18\n      jump\t// in\n    tag_1513:\n      0x00\n      jump(tag_1510)\n        /* \"contracts/FutarchyArbExecutorV5.sol\":26482:26521  token.allowance(address(this), spender) */\n    tag_1482:\n      swap1\n      pop\n        /* \"contracts/FutarchyArbExecutorV5.sol\":5111:41903  contract FutarchyArbExecutorV5 {... */\n      0x20\n        /* \"contracts/FutarchyArbExecutorV5.sol\":26482:26521  token.allowance(address(this), spender) */\n      dup2\n      returndatasize\n        /* \"contracts/FutarchyArbExecutorV5.sol\":5111:41903  contract FutarchyArbExecutorV5 {... */\n      0x20\n        /* \"contracts/FutarchyArbExecutorV5.sol\":26482:26521  token.allowance(address(this), spender) */\n      gt\n      tag_1517\n      jumpi\n    tag_1518:\n      dup2\n      tag_1519\n        /* \"contracts/FutarchyArbExecutorV5.sol\":5111:41903  contract FutarchyArbExecutorV5 {... */\n      0x20\n        /* \"contracts/FutarchyArbExecutorV5.sol\":26482:26521  token.allowance(address(this), spender) */\n      swap4\n      dup4\n      tag_18\n      jump\t// in\n    tag_1519:\n      dup2\n      add\n        /* \"contracts/FutarchyArbExecutorV5.sol\":5111:41903  contract FutarchyArbExecutorV5 {... */\n      sub\n      slt\n      tag_166\n      jumpi\n      mload\n        /* \"contracts/FutarchyArbExecutorV5.sol\":26482:26521  token.allowance(address(this), spender) */\n      0x00\n      jump(tag_1483)\n    tag_1517:\n      returndatasize\n      swap2\n      pop\n      jump(tag_1518)\n        /* \"contracts/FutarchyArbExecutorV5.sol\":26389:26852  function _ensureMaxAllowance(IERC20 token, address spender) internal {... */\n    tag_51:\n        /* \"contracts/FutarchyArbExecutorV5.sol\":5111:41903  contract FutarchyArbExecutorV5 {... */\n      mload(0x40)\n      shl(0xe1, 0x6eb1769f)\n        /* \"contracts/FutarchyArbExecutorV5.sol\":26482:26521  token.allowance(address(this), spender) */\n      dup2\n      mstore\n        /* \"contracts/FutarchyArbExecutorV5.sol\":26506:26510  this */\n      address\n        /* \"contracts/FutarchyArbExecutorV5.sol\":26482:26521  token.allowance(address(this), spender) */\n      0x04\n      dup3\n      add\n        /* \"contracts/FutarchyArbExecutorV5.sol\":5111:41903  contract FutarchyArbExecutorV5 {... */\n      mstore\n      sub(shl(0xa0, 0x01), 0x01)\n      dup4\n      dup2\n      and\n      0x24\n      dup4\n      add\n      mstore\n      swap2\n      swap1\n      swap2\n      and\n      swap1\n        /* \"contracts/FutarchyArbExecutorV5.sol\":26482:26521  token.allowance(address(this), spender) */\n      0x20\n        /* \"contracts/FutarchyArbExecutorV5.sol\":5111:41903  contract FutarchyArbExecutorV5 {... */\n      dup2\n      0x44\n      dup2\n      dup6\n        /* \"contracts/FutarchyArbExecutorV5.sol\":26482:26521  token.allowance(address(this), spender) */\n      gas\n      staticcall\n      swap1\n      dup2\n      iszero\n      tag_262\n      jumpi\n      0x00\n      swap2\n      tag_1525\n      jumpi\n        /* \"contracts/FutarchyArbExecutorV5.sol\":26389:26852  function _ensureMaxAllowance(IERC20 token, address spender) internal {... */\n    tag_1526:\n      pop\n        /* \"contracts/FutarchyArbExecutorV5.sol\":26535:26559  cur != type(uint256).max */\n      0x01\n      dup2\n      add\n        /* \"contracts/FutarchyArbExecutorV5.sol\":26531:26746  if (cur != type(uint256).max) {... */\n      tag_1527\n      jumpi\n        /* \"contracts/FutarchyArbExecutorV5.sol\":26389:26852  function _ensureMaxAllowance(IERC20 token, address spender) internal {... */\n    tag_1528:\n      pop\n        /* \"contracts/FutarchyArbExecutorV5.sol\":5111:41903  contract FutarchyArbExecutorV5 {... */\n      mload(0x40)\n      shl(0xe1, 0x6eb1769f)\n        /* \"contracts/FutarchyArbExecutorV5.sol\":26805:26844  token.allowance(address(this), spender) */\n      dup2\n      mstore\n        /* \"contracts/FutarchyArbExecutorV5.sol\":26506:26510  this */\n      address\n        /* \"contracts/FutarchyArbExecutorV5.sol\":26482:26521  token.allowance(address(this), spender) */\n      0x04\n        /* \"contracts/FutarchyArbExecutorV5.sol\":26805:26844  token.allowance(address(this), spender) */\n      dup3\n      add\n        /* \"contracts/FutarchyArbExecutorV5.sol\":5111:41903  contract FutarchyArbExecutorV5 {... */\n      mstore\n      sub(shl(0xa0, 0x01), 0x01)\n      dup4\n      and\n      0x24\n      dup3\n      add\n      mstore\n      swap2\n        /* \"contracts/FutarchyArbExecutorV5.sol\":26482:26521  token.allowance(address(this), spender) */\n      0x20\n        /* \"contracts/FutarchyArbExecutorV5.sol\":5111:41903  contract FutarchyArbExecutorV5 {... */\n      dup4\n      0x44\n      dup2\n        /* \"contracts/FutarchyArbExecutorV5.sol\":26805:26844  token.allowance(address(this), spender) */\n      dup6\n      gas\n      staticcall\n      swap3\n      dup4\n      iszero\n      tag_262\n      jumpi\n      0x00\n      swap4\n      tag_1532\n      jumpi\n        /* \"contracts/FutarchyArbExecutorV5.sol\":26389:26852  function _ensureMaxAllowance(IERC20 token, address spender) internal {... */\n    tag_1533:\n      pop\n        /* \"contracts/FutarchyArbExecutorV5.sol\":5111:41903  contract FutarchyArbExecutorV5 {... */\n      mload(0x40)\n      swap3\n      dup4\n      mstore\n      sub(shl(0xa0, 0x01), 0x01)\n      and\n      swap2\n      mload(0x00)\n      codecopy(0x00, data_0b5ddea07e196d6e9e89075559a4d11120dfd8a9a32fde422e414a54b80481bd, 0x20)\n      mload(0x00)\n      swap1\n      0x00\n      mstore\n        /* \"contracts/FutarchyArbExecutorV5.sol\":26760:26845  MaxAllowanceEnsured(address(token), spender, token.allowance(address(this), spender)) */\n      swap1\n        /* \"contracts/FutarchyArbExecutorV5.sol\":26482:26521  token.allowance(address(this), spender) */\n      0x20\n      swap1\n        /* \"contracts/FutarchyArbExecutorV5.sol\":26760:26845  MaxAllowanceEnsured(address(token), spender, token.allowance(address(this), spender)) */\n      log3\n        /* \"contracts/FutarchyArbExecutorV5.sol\":26389:26852  function _ensureMaxAllowance(IERC20 token, address spender) internal {... */\n      jump\t// out\n        /* \"contracts/FutarchyArbExecutorV5.sol\":26805:26844  token.allowance(address(this), spender) */\n    tag_1532:\n      swap1\n      swap3\n      pop\n        /* \"contracts/FutarchyArbExecutorV5.sol\":26482:26521  token.allowance(address(this), spender) */\n      0x20\n        /* \"contracts/FutarchyArbExecutorV5.sol\":26805:26844  token.allowance(address(this), spender) */\n      dup2\n      returndatasize\n        /* \"contracts/FutarchyArbExecutorV5.sol\":26482:26521  token.allowance(address(this), spender) */\n      0x20\n        /* \"contracts/FutarchyArbExecutorV5.sol\":26805:26844  token.allowance(address(this), spender) */\n      gt\n      tag_1534\n      jumpi\n    tag_1535:\n      dup2\n      tag_1536\n        /* \"contracts/FutarchyArbExecutorV5.sol\":5111:41903  contract FutarchyArbExecutorV5 {... */\n      0x20\n        /* \"contracts/FutarchyArbExecutorV5.sol\":26805:26844  token.allowance(address(this), spender) */\n      swap4\n      dup4\n      tag_18\n      jump\t// in\n    tag_1536:\n      dup2\n      add\n        /* \"contracts/FutarchyArbExecutorV5.sol\":5111:41903  contract FutarchyArbExecutorV5 {... */\n      sub\n      slt\n      tag_166\n      jumpi\n      mload\n      swap2\n        /* \"contracts/FutarchyArbExecutorV5.sol\":26482:26521  token.allowance(address(this), spender) */\n      0x20\n        /* \"contracts/FutarchyArbExecutorV5.sol\":26805:26844  token.allowance(address(this), spender) */\n      jump(tag_1533)\n    tag_1534:\n      returndatasize\n      swap2\n      pop\n      jump(tag_1535)\n        /* \"contracts/FutarchyArbExecutorV5.sol\":26531:26746  if (cur != type(uint256).max) {... */\n    tag_1527:\n        /* \"contracts/FutarchyArbExecutorV5.sol\":26575:26648  if (cur != 0) if (!token.approve(spender, 0)) revert ApproveResetFailed() */\n      tag_1539\n      jumpi\n        /* \"contracts/FutarchyArbExecutorV5.sol\":26531:26746  if (cur != type(uint256).max) {... */\n    tag_1540:\n        /* \"contracts/FutarchyArbExecutorV5.sol\":5111:41903  contract FutarchyArbExecutorV5 {... */\n      mload(0x40)\n      shl(0xe0, 0x095ea7b3)\n        /* \"contracts/FutarchyArbExecutorV5.sol\":26667:26708  token.approve(spender, type(uint256).max) */\n      dup2\n      mstore\n      sub(shl(0xa0, 0x01), 0x01)\n        /* \"contracts/FutarchyArbExecutorV5.sol\":5111:41903  contract FutarchyArbExecutorV5 {... */\n      dup4\n      and\n        /* \"contracts/FutarchyArbExecutorV5.sol\":26482:26521  token.allowance(address(this), spender) */\n      0x04\n        /* \"contracts/FutarchyArbExecutorV5.sol\":26667:26708  token.approve(spender, type(uint256).max) */\n      dup3\n      add\n        /* \"contracts/FutarchyArbExecutorV5.sol\":5111:41903  contract FutarchyArbExecutorV5 {... */\n      mstore\n      not(0x00)\n      0x24\n      dup3\n      add\n      mstore\n        /* \"contracts/FutarchyArbExecutorV5.sol\":26482:26521  token.allowance(address(this), spender) */\n      0x20\n        /* \"contracts/FutarchyArbExecutorV5.sol\":5111:41903  contract FutarchyArbExecutorV5 {... */\n      dup2\n        /* \"contracts/FutarchyArbExecutorV5.sol\":26667:26708  token.approve(spender, type(uint256).max) */\n      0x44\n        /* \"contracts/FutarchyArbExecutorV5.sol\":5111:41903  contract FutarchyArbExecutorV5 {... */\n      dup2\n      0x00\n        /* \"contracts/FutarchyArbExecutorV5.sol\":26667:26708  token.approve(spender, type(uint256).max) */\n      dup7\n      gas\n      call\n      swap1\n      dup2\n      iszero\n      tag_262\n      jumpi\n      0x00\n      swap2\n      tag_1543\n      jumpi\n        /* \"contracts/FutarchyArbExecutorV5.sol\":26531:26746  if (cur != type(uint256).max) {... */\n    tag_1544:\n        /* \"contracts/FutarchyArbExecutorV5.sol\":26666:26708  !token.approve(spender, type(uint256).max) */\n      pop\n      iszero\n        /* \"contracts/FutarchyArbExecutorV5.sol\":26662:26735  if (!token.approve(spender, type(uint256).max)) revert ApproveSetFailed() */\n      tag_1333\n      jumpi\n        /* \"contracts/FutarchyArbExecutorV5.sol\":26531:26746  if (cur != type(uint256).max) {... */\n      0x00\n      jump(tag_1528)\n        /* \"contracts/FutarchyArbExecutorV5.sol\":26667:26708  token.approve(spender, type(uint256).max) */\n    tag_1543:\n      tag_1547\n      swap2\n      pop\n        /* \"contracts/FutarchyArbExecutorV5.sol\":26482:26521  token.allowance(address(this), spender) */\n      0x20\n        /* \"contracts/FutarchyArbExecutorV5.sol\":26667:26708  token.approve(spender, type(uint256).max) */\n      returndatasize\n        /* \"contracts/FutarchyArbExecutorV5.sol\":26482:26521  token.allowance(address(this), spender) */\n      0x20\n        /* \"contracts/FutarchyArbExecutorV5.sol\":26667:26708  token.approve(spender, type(uint256).max) */\n      gt\n      tag_1124\n      jumpi\n      tag_1126\n      dup2\n      dup4\n      tag_18\n      jump\t// in\n    tag_1547:\n      0x00\n      jump(tag_1544)\n        /* \"contracts/FutarchyArbExecutorV5.sol\":26575:26648  if (cur != 0) if (!token.approve(spender, 0)) revert ApproveResetFailed() */\n    tag_1539:\n        /* \"contracts/FutarchyArbExecutorV5.sol\":5111:41903  contract FutarchyArbExecutorV5 {... */\n      mload(0x40)\n      shl(0xe0, 0x095ea7b3)\n        /* \"contracts/FutarchyArbExecutorV5.sol\":26594:26619  token.approve(spender, 0) */\n      dup2\n      mstore\n      sub(shl(0xa0, 0x01), 0x01)\n        /* \"contracts/FutarchyArbExecutorV5.sol\":5111:41903  contract FutarchyArbExecutorV5 {... */\n      dup4\n      and\n        /* \"contracts/FutarchyArbExecutorV5.sol\":26482:26521  token.allowance(address(this), spender) */\n      0x04\n        /* \"contracts/FutarchyArbExecutorV5.sol\":26594:26619  token.approve(spender, 0) */\n      dup3\n      add\n        /* \"contracts/FutarchyArbExecutorV5.sol\":5111:41903  contract FutarchyArbExecutorV5 {... */\n      mstore\n      0x00\n      0x24\n      dup3\n      add\n      dup2\n      swap1\n      mstore\n        /* \"contracts/FutarchyArbExecutorV5.sol\":26482:26521  token.allowance(address(this), spender) */\n      0x20\n      swap1\n        /* \"contracts/FutarchyArbExecutorV5.sol\":5111:41903  contract FutarchyArbExecutorV5 {... */\n      dup3\n      swap1\n        /* \"contracts/FutarchyArbExecutorV5.sol\":26594:26619  token.approve(spender, 0) */\n      0x44\n      swap1\n        /* \"contracts/FutarchyArbExecutorV5.sol\":5111:41903  contract FutarchyArbExecutorV5 {... */\n      dup3\n      swap1\n        /* \"contracts/FutarchyArbExecutorV5.sol\":26594:26619  token.approve(spender, 0) */\n      dup7\n      gas\n      call\n      swap1\n      dup2\n      iszero\n      tag_262\n      jumpi\n      0x00\n      swap2\n      tag_1553\n      jumpi\n        /* \"contracts/FutarchyArbExecutorV5.sol\":26575:26648  if (cur != 0) if (!token.approve(spender, 0)) revert ApproveResetFailed() */\n    tag_1554:\n        /* \"contracts/FutarchyArbExecutorV5.sol\":26593:26619  !token.approve(spender, 0) */\n      pop\n        /* \"contracts/FutarchyArbExecutorV5.sol\":26575:26648  if (cur != 0) if (!token.approve(spender, 0)) revert ApproveResetFailed() */\n      tag_1540\n        /* \"contracts/FutarchyArbExecutorV5.sol\":26589:26648  if (!token.approve(spender, 0)) revert ApproveResetFailed() */\n      jumpi\n        /* \"contracts/FutarchyArbExecutorV5.sol\":26628:26648  ApproveResetFailed() */\n      mstore(0x00, shl(0xe2, 0x097c3e93))\n        /* \"contracts/FutarchyArbExecutorV5.sol\":26482:26521  token.allowance(address(this), spender) */\n      0x04\n      0x00\n        /* \"contracts/FutarchyArbExecutorV5.sol\":26628:26648  ApproveResetFailed() */\n      revert\n        /* \"contracts/FutarchyArbExecutorV5.sol\":26594:26619  token.approve(spender, 0) */\n    tag_1553:\n      tag_1557\n      swap2\n      pop\n        /* \"contracts/FutarchyArbExecutorV5.sol\":26482:26521  token.allowance(address(this), spender) */\n      0x20\n        /* \"contracts/FutarchyArbExecutorV5.sol\":26594:26619  token.approve(spender, 0) */\n      returndatasize\n        /* \"contracts/FutarchyArbExecutorV5.sol\":26482:26521  token.allowance(address(this), spender) */\n      0x20\n        /* \"contracts/FutarchyArbExecutorV5.sol\":26594:26619  token.approve(spender, 0) */\n      gt\n      tag_1124\n      jumpi\n      tag_1126\n      dup2\n      dup4\n      tag_18\n      jump\t// in\n    tag_1557:\n      0x00\n      jump(tag_1554)\n        /* \"contracts/FutarchyArbExecutorV5.sol\":26482:26521  token.allowance(address(this), spender) */\n    tag_1525:\n      swap1\n      pop\n      0x20\n      dup2\n      jumpi(tag_1561, gt(0x20, returndatasize))\n    tag_1562:\n      dup2\n      tag_1563\n        /* \"contracts/FutarchyArbExecutorV5.sol\":5111:41903  contract FutarchyArbExecutorV5 {... */\n      0x20\n        /* \"contracts/FutarchyArbExecutorV5.sol\":26482:26521  token.allowance(address(this), spender) */\n      swap4\n      dup4\n      tag_18\n      jump\t// in\n    tag_1563:\n      dup2\n      add\n        /* \"contracts/FutarchyArbExecutorV5.sol\":5111:41903  contract FutarchyArbExecutorV5 {... */\n      sub\n      slt\n      tag_166\n      jumpi\n      mload\n        /* \"contracts/FutarchyArbExecutorV5.sol\":26482:26521  token.allowance(address(this), spender) */\n      0x00\n      jump(tag_1526)\n    tag_1561:\n      returndatasize\n      swap2\n      pop\n      jump(tag_1562)\n        /* \"contracts/FutarchyArbExecutorV5.sol\":27440:28384  function _swaprExactIn(address swapr_router, address tokenIn, address tokenOut, uint256 amountIn, uint256 minOut)... */\n    tag_52:\n      swap3\n      swap4\n      swap3\n      swap1\n      sub(shl(0xa0, 0x01), 0x01)\n        /* \"contracts/FutarchyArbExecutorV5.sol\":5111:41903  contract FutarchyArbExecutorV5 {... */\n      dup3\n      and\n      swap1\n        /* \"contracts/FutarchyArbExecutorV5.sol\":27625:27651  swapr_router == address(0) */\n      dup2\n      iszero\n        /* \"contracts/FutarchyArbExecutorV5.sol\":27621:27673  if (swapr_router == address(0)) revert ZeroAddress() */\n      tag_1097\n      jumpi\n      sub(shl(0xa0, 0x01), 0x01)\n        /* \"contracts/FutarchyArbExecutorV5.sol\":5111:41903  contract FutarchyArbExecutorV5 {... */\n      and\n      swap2\n        /* \"contracts/FutarchyArbExecutorV5.sol\":27687:27708  tokenIn == address(0) */\n      dup3\n      iszero\n        /* \"contracts/FutarchyArbExecutorV5.sol\":27687:27734  tokenIn == address(0) || tokenOut == address(0) */\n      dup1\n      iszero\n      tag_1568\n      jumpi\n        /* \"contracts/FutarchyArbExecutorV5.sol\":27440:28384  function _swaprExactIn(address swapr_router, address tokenIn, address tokenOut, uint256 amountIn, uint256 minOut)... */\n    tag_1569:\n        /* \"contracts/FutarchyArbExecutorV5.sol\":27683:27761  if (tokenIn == address(0) || tokenOut == address(0)) revert TokenAddressZero() */\n      tag_1570\n      jumpi\n        /* \"contracts/FutarchyArbExecutorV5.sol\":27775:27788  amountIn == 0 */\n      dup6\n      iszero\n        /* \"contracts/FutarchyArbExecutorV5.sol\":27771:27798  if (amountIn == 0) return 0 */\n      tag_1572\n      jumpi\n        /* \"contracts/FutarchyArbExecutorV5.sol\":27845:27857  swapr_router */\n      tag_1574\n      swap1\n      dup4\n      tag_51\n      jump\t// in\n    tag_1574:\n        /* \"contracts/FutarchyArbExecutorV5.sol\":5111:41903  contract FutarchyArbExecutorV5 {... */\n      mload(0x40)\n      swap5\n      0xe0\n      dup7\n      add\n      dup7\n      dup2\n      lt\n      sub(shl(0x40, 0x01), 0x01)\n      dup3\n      gt\n      or\n      tag_1212\n      jumpi\n      0x40\n      mstore\n        /* \"contracts/FutarchyArbExecutorV5.sol\":6225:6267  0x37b60f4E9A31A64cCc0024dce7D0fD07eAA0F7B3 */\n      dup3\n      dup7\n      mstore\n        /* \"contracts/FutarchyArbExecutorV5.sol\":27921:28214  IAlgebraSwapRouter.ExactInputSingleParams({... */\n      0x20\n      dup7\n      add\n        /* \"contracts/FutarchyArbExecutorV5.sol\":5111:41903  contract FutarchyArbExecutorV5 {... */\n      swap4\n      0x01\n      dup1\n      0xa0\n      shl\n      sub\n      and\n        /* \"contracts/FutarchyArbExecutorV5.sol\":6225:6267  0x37b60f4E9A31A64cCc0024dce7D0fD07eAA0F7B3 */\n      swap4\n      dup5\n      dup2\n      mstore\n        /* \"contracts/FutarchyArbExecutorV5.sol\":5111:41903  contract FutarchyArbExecutorV5 {... */\n      0x40\n        /* \"contracts/FutarchyArbExecutorV5.sol\":27921:28214  IAlgebraSwapRouter.ExactInputSingleParams({... */\n      dup8\n      add\n        /* \"contracts/FutarchyArbExecutorV5.sol\":28058:28062  this */\n      address\n        /* \"contracts/FutarchyArbExecutorV5.sol\":6225:6267  0x37b60f4E9A31A64cCc0024dce7D0fD07eAA0F7B3 */\n      dup2\n      mstore\n        /* \"contracts/FutarchyArbExecutorV5.sol\":27921:28214  IAlgebraSwapRouter.ExactInputSingleParams({... */\n      0x60\n      dup9\n      add\n        /* \"contracts/FutarchyArbExecutorV5.sol\":28087:28102  block.timestamp */\n      timestamp\n        /* \"contracts/FutarchyArbExecutorV5.sol\":6225:6267  0x37b60f4E9A31A64cCc0024dce7D0fD07eAA0F7B3 */\n      dup2\n      mstore\n        /* \"contracts/FutarchyArbExecutorV5.sol\":27921:28214  IAlgebraSwapRouter.ExactInputSingleParams({... */\n      0x80\n      dup10\n      add\n        /* \"contracts/FutarchyArbExecutorV5.sol\":6225:6267  0x37b60f4E9A31A64cCc0024dce7D0fD07eAA0F7B3 */\n      swap1\n      dup5\n      dup3\n      mstore\n        /* \"contracts/FutarchyArbExecutorV5.sol\":27921:28214  IAlgebraSwapRouter.ExactInputSingleParams({... */\n      0xa0\n      dup11\n      add\n        /* \"contracts/FutarchyArbExecutorV5.sol\":6225:6267  0x37b60f4E9A31A64cCc0024dce7D0fD07eAA0F7B3 */\n      swap3\n        /* \"contracts/FutarchyArbExecutorV5.sol\":5111:41903  contract FutarchyArbExecutorV5 {... */\n      0x00\n        /* \"contracts/FutarchyArbExecutorV5.sol\":6225:6267  0x37b60f4E9A31A64cCc0024dce7D0fD07eAA0F7B3 */\n      dup5\n      mstore\n        /* \"contracts/FutarchyArbExecutorV5.sol\":27921:28214  IAlgebraSwapRouter.ExactInputSingleParams({... */\n      0xc0\n      dup12\n      add\n        /* \"contracts/FutarchyArbExecutorV5.sol\":6225:6267  0x37b60f4E9A31A64cCc0024dce7D0fD07eAA0F7B3 */\n      swap5\n        /* \"contracts/FutarchyArbExecutorV5.sol\":5111:41903  contract FutarchyArbExecutorV5 {... */\n      0x00\n        /* \"contracts/FutarchyArbExecutorV5.sol\":6225:6267  0x37b60f4E9A31A64cCc0024dce7D0fD07eAA0F7B3 */\n      dup7\n      mstore\n        /* \"contracts/FutarchyArbExecutorV5.sol\":5111:41903  contract FutarchyArbExecutorV5 {... */\n      mload(0x40)\n      swap12\n      shl(0xe3, 0x178ca231)\n        /* \"contracts/FutarchyArbExecutorV5.sol\":28236:28288  IAlgebraSwapRouter(swapr_router).exactInputSingle(p) */\n      dup14\n      mstore\n        /* \"contracts/FutarchyArbExecutorV5.sol\":5111:41903  contract FutarchyArbExecutorV5 {... */\n      0x01\n      dup1\n      0xa0\n      shl\n      sub\n      swap1\n      mload\n      and\n        /* \"contracts/FutarchyArbExecutorV5.sol\":28236:28288  IAlgebraSwapRouter(swapr_router).exactInputSingle(p) */\n      0x04\n      dup14\n      add\n        /* \"contracts/FutarchyArbExecutorV5.sol\":5111:41903  contract FutarchyArbExecutorV5 {... */\n      mstore\n      0x01\n      dup1\n      0xa0\n      shl\n      sub\n      swap1\n      mload\n      and\n      0x24\n      dup13\n      add\n      mstore\n      0x01\n      dup1\n      0xa0\n      shl\n      sub\n      swap1\n      mload\n      and\n      0x44\n      dup12\n      add\n      mstore\n      mload\n      0x64\n      dup11\n      add\n      mstore\n      mload\n      0x84\n      dup10\n      add\n      mstore\n      mload\n      0xa4\n      dup9\n      add\n      mstore\n      0x01\n      dup1\n      0xa0\n      shl\n      sub\n      swap1\n      mload\n      and\n      0xc4\n      dup8\n      add\n      mstore\n        /* \"contracts/FutarchyArbExecutorV5.sol\":27921:28214  IAlgebraSwapRouter.ExactInputSingleParams({... */\n      0x20\n        /* \"contracts/FutarchyArbExecutorV5.sol\":28236:28288  IAlgebraSwapRouter(swapr_router).exactInputSingle(p) */\n      dup7\n      0xe4\n      dup2\n        /* \"contracts/FutarchyArbExecutorV5.sol\":5111:41903  contract FutarchyArbExecutorV5 {... */\n      0x00\n        /* \"contracts/FutarchyArbExecutorV5.sol\":28236:28288  IAlgebraSwapRouter(swapr_router).exactInputSingle(p) */\n      dup7\n      gas\n      call\n      swap6\n      dup7\n      iszero\n      tag_262\n      jumpi\n        /* \"contracts/FutarchyArbExecutorV5.sol\":5111:41903  contract FutarchyArbExecutorV5 {... */\n      0x00\n        /* \"contracts/FutarchyArbExecutorV5.sol\":28236:28288  IAlgebraSwapRouter(swapr_router).exactInputSingle(p) */\n      swap7\n      tag_1579\n      jumpi\n        /* \"contracts/FutarchyArbExecutorV5.sol\":27440:28384  function _swaprExactIn(address swapr_router, address tokenIn, address tokenOut, uint256 amountIn, uint256 minOut)... */\n    tag_1580:\n        /* \"contracts/FutarchyArbExecutorV5.sol\":28224:28288  amountOut = IAlgebraSwapRouter(swapr_router).exactInputSingle(p) */\n      pop\n        /* \"contracts/FutarchyArbExecutorV5.sol\":5111:41903  contract FutarchyArbExecutorV5 {... */\n      0x40\n        /* \"contracts/FutarchyArbExecutorV5.sol\":28303:28377  SwaprExactInExecuted(swapr_router, tokenIn, tokenOut, amountIn, amountOut) */\n      0x5daa39fce4745a2a9e6137131383e8405e80edb12e37c562f590c5f294ed19d5\n        /* \"contracts/FutarchyArbExecutorV5.sol\":28224:28288  amountOut = IAlgebraSwapRouter(swapr_router).exactInputSingle(p) */\n      swap2\n      dup8\n        /* \"contracts/FutarchyArbExecutorV5.sol\":5111:41903  contract FutarchyArbExecutorV5 {... */\n      dup3\n      mload\n      swap2\n      dup3\n      mstore\n        /* \"contracts/FutarchyArbExecutorV5.sol\":27921:28214  IAlgebraSwapRouter.ExactInputSingleParams({... */\n      0x20\n        /* \"contracts/FutarchyArbExecutorV5.sol\":5111:41903  contract FutarchyArbExecutorV5 {... */\n      dup3\n      add\n      mstore\n        /* \"contracts/FutarchyArbExecutorV5.sol\":28303:28377  SwaprExactInExecuted(swapr_router, tokenIn, tokenOut, amountIn, amountOut) */\n      log4\n        /* \"contracts/FutarchyArbExecutorV5.sol\":27440:28384  function _swaprExactIn(address swapr_router, address tokenIn, address tokenOut, uint256 amountIn, uint256 minOut)... */\n      jump\t// out\n        /* \"contracts/FutarchyArbExecutorV5.sol\":28236:28288  IAlgebraSwapRouter(swapr_router).exactInputSingle(p) */\n    tag_1579:\n      swap1\n      swap6\n      pop\n        /* \"contracts/FutarchyArbExecutorV5.sol\":27921:28214  IAlgebraSwapRouter.ExactInputSingleParams({... */\n      0x20\n        /* \"contracts/FutarchyArbExecutorV5.sol\":28236:28288  IAlgebraSwapRouter(swapr_router).exactInputSingle(p) */\n      dup2\n      returndatasize\n        /* \"contracts/FutarchyArbExecutorV5.sol\":27921:28214  IAlgebraSwapRouter.ExactInputSingleParams({... */\n      0x20\n        /* \"contracts/FutarchyArbExecutorV5.sol\":28236:28288  IAlgebraSwapRouter(swapr_router).exactInputSingle(p) */\n      gt\n      tag_1581\n      jumpi\n    tag_1582:\n      dup2\n      tag_1583\n        /* \"contracts/FutarchyArbExecutorV5.sol\":5111:41903  contract FutarchyArbExecutorV5 {... */\n      0x20\n        /* \"contracts/FutarchyArbExecutorV5.sol\":28236:28288  IAlgebraSwapRouter(swapr_router).exactInputSingle(p) */\n      swap4\n      dup4\n      tag_18\n      jump\t// in\n    tag_1583:\n      dup2\n      add\n        /* \"contracts/FutarchyArbExecutorV5.sol\":5111:41903  contract FutarchyArbExecutorV5 {... */\n      sub\n      slt\n      tag_166\n      jumpi\n      mload\n      swap5\n      0x40\n        /* \"contracts/FutarchyArbExecutorV5.sol\":28236:28288  IAlgebraSwapRouter(swapr_router).exactInputSingle(p) */\n      jump(tag_1580)\n    tag_1581:\n      returndatasize\n      swap2\n      pop\n      jump(tag_1582)\n        /* \"contracts/FutarchyArbExecutorV5.sol\":27771:27798  if (amountIn == 0) return 0 */\n    tag_1572:\n      pop\n        /* \"contracts/FutarchyArbExecutorV5.sol\":5111:41903  contract FutarchyArbExecutorV5 {... */\n      0x00\n      swap5\n      pop\n      pop\n      pop\n      pop\n        /* \"contracts/FutarchyArbExecutorV5.sol\":27790:27798  return 0 */\n      jump\t// out\n        /* \"contracts/FutarchyArbExecutorV5.sol\":27683:27761  if (tokenIn == address(0) || tokenOut == address(0)) revert TokenAddressZero() */\n    tag_1570:\n        /* \"contracts/FutarchyArbExecutorV5.sol\":31681:31699  TokenAddressZero() */\n      shl(0xe0, 0x81c609f7)\n        /* \"contracts/FutarchyArbExecutorV5.sol\":5111:41903  contract FutarchyArbExecutorV5 {... */\n      0x00\n        /* \"contracts/FutarchyArbExecutorV5.sol\":27743:27761  TokenAddressZero() */\n      mstore\n      0x04\n        /* \"contracts/FutarchyArbExecutorV5.sol\":5111:41903  contract FutarchyArbExecutorV5 {... */\n      0x00\n        /* \"contracts/FutarchyArbExecutorV5.sol\":27743:27761  TokenAddressZero() */\n      revert\n        /* \"contracts/FutarchyArbExecutorV5.sol\":27687:27734  tokenIn == address(0) || tokenOut == address(0) */\n    tag_1568:\n      pop\n      sub(shl(0xa0, 0x01), 0x01)\n        /* \"contracts/FutarchyArbExecutorV5.sol\":5111:41903  contract FutarchyArbExecutorV5 {... */\n      dup5\n      and\n        /* \"contracts/FutarchyArbExecutorV5.sol\":27712:27734  tokenOut == address(0) */\n      iszero\n        /* \"contracts/FutarchyArbExecutorV5.sol\":27687:27734  tokenIn == address(0) || tokenOut == address(0) */\n      jump(tag_1569)\n        /* \"contracts/FutarchyArbExecutorV5.sol\":29583:29888  function _poolFeeOrDefault(address pool) internal view returns (uint24) {... */\n    tag_53:\n      sub(shl(0xa0, 0x01), 0x01)\n        /* \"contracts/FutarchyArbExecutorV5.sol\":5111:41903  contract FutarchyArbExecutorV5 {... */\n      and\n        /* \"contracts/FutarchyArbExecutorV5.sol\":29669:29687  pool == address(0) */\n      dup1\n      iszero\n        /* \"contracts/FutarchyArbExecutorV5.sol\":29665:29710  if (pool == address(0)) return DEFAULT_V3_FEE */\n      tag_1586\n      jumpi\n        /* \"contracts/FutarchyArbExecutorV5.sol\":29724:29750  IUniswapV3Pool(pool).fee() */\n      0x20\n      0x04\n        /* \"contracts/FutarchyArbExecutorV5.sol\":5111:41903  contract FutarchyArbExecutorV5 {... */\n      swap2\n      mload(0x40)\n      swap3\n      dup4\n      dup1\n      swap3\n      shl(0xe0, 0xddca3f43)\n        /* \"contracts/FutarchyArbExecutorV5.sol\":29724:29750  IUniswapV3Pool(pool).fee() */\n      dup3\n      mstore\n      gas\n      staticcall\n        /* \"contracts/FutarchyArbExecutorV5.sol\":6316:6358  0xBA12222222228d8Ba445958a75a0704d566BF2C8 */\n      0x00\n      swap2\n        /* \"contracts/FutarchyArbExecutorV5.sol\":29724:29750  IUniswapV3Pool(pool).fee() */\n      dup2\n      tag_1588\n      jumpi\n        /* \"contracts/FutarchyArbExecutorV5.sol\":29583:29888  function _poolFeeOrDefault(address pool) internal view returns (uint24) {... */\n    tag_1589:\n      pop\n        /* \"contracts/FutarchyArbExecutorV5.sol\":29720:29882  try IUniswapV3Pool(pool).fee() returns (uint24 f) {... */\n      tag_1590\n      jumpi\n        /* \"contracts/FutarchyArbExecutorV5.sol\":29850:29871  return DEFAULT_V3_FEE */\n      pop\n        /* \"contracts/FutarchyArbExecutorV5.sol\":29564:29567  100 */\n      0x64\n        /* \"contracts/FutarchyArbExecutorV5.sol\":29850:29871  return DEFAULT_V3_FEE */\n      swap1\n      jump\t// out\n        /* \"contracts/FutarchyArbExecutorV5.sol\":29720:29882  try IUniswapV3Pool(pool).fee() returns (uint24 f) {... */\n    tag_1590:\n        /* \"contracts/FutarchyArbExecutorV5.sol\":5111:41903  contract FutarchyArbExecutorV5 {... */\n      0xffffff\n      dup2\n      and\n      tag_1303\n      jumpi\n        /* \"contracts/FutarchyArbExecutorV5.sol\":29791:29818  f == 0 ? DEFAULT_V3_FEE : f */\n      pop\n        /* \"contracts/FutarchyArbExecutorV5.sol\":29564:29567  100 */\n      0x64\n        /* \"contracts/FutarchyArbExecutorV5.sol\":29784:29818  return f == 0 ? DEFAULT_V3_FEE : f */\n      swap1\n      jump\t// out\n        /* \"contracts/FutarchyArbExecutorV5.sol\":29724:29750  IUniswapV3Pool(pool).fee() */\n    tag_1588:\n      swap1\n      swap2\n      pop\n      0x20\n      dup2\n      jumpi(tag_1595, gt(0x20, returndatasize))\n    tag_1596:\n      dup2\n      tag_1597\n      0x20\n      swap4\n      dup4\n      tag_18\n      jump\t// in\n    tag_1597:\n      dup2\n      add\n        /* \"contracts/FutarchyArbExecutorV5.sol\":29564:29567  100 */\n      sub\n      slt\n      tag_166\n      jumpi\n      mload\n        /* \"contracts/FutarchyArbExecutorV5.sol\":5111:41903  contract FutarchyArbExecutorV5 {... */\n      0xffffff\n      dup2\n      and\n        /* \"contracts/FutarchyArbExecutorV5.sol\":29564:29567  100 */\n      dup2\n      sub\n      tag_166\n      jumpi\n        /* \"contracts/FutarchyArbExecutorV5.sol\":29724:29750  IUniswapV3Pool(pool).fee() */\n      swap1\n      0x00\n      jump(tag_1589)\n    tag_1595:\n      returndatasize\n      swap2\n      pop\n      jump(tag_1596)\n        /* \"contracts/FutarchyArbExecutorV5.sol\":29665:29710  if (pool == address(0)) return DEFAULT_V3_FEE */\n    tag_1586:\n        /* \"contracts/FutarchyArbExecutorV5.sol\":29689:29710  return DEFAULT_V3_FEE */\n      pop\n        /* \"contracts/FutarchyArbExecutorV5.sol\":29564:29567  100 */\n      0x64\n        /* \"contracts/FutarchyArbExecutorV5.sol\":29689:29710  return DEFAULT_V3_FEE */\n      swap1\n      jump\t// out\n        /* \"contracts/FutarchyArbExecutorV5.sol\":28479:29516  function _swaprExactOut(... */\n    tag_54:\n      swap2\n      swap6\n      swap5\n      swap3\n      swap4\n      swap2\n      swap3\n      sub(shl(0xa0, 0x01), 0x01)\n        /* \"contracts/FutarchyArbExecutorV5.sol\":5111:41903  contract FutarchyArbExecutorV5 {... */\n      dup5\n      and\n      swap3\n        /* \"contracts/FutarchyArbExecutorV5.sol\":28479:29516  function _swaprExactOut(... */\n      swap2\n        /* \"contracts/FutarchyArbExecutorV5.sol\":28710:28736  swapr_router == address(0) */\n      dup4\n      iszero\n        /* \"contracts/FutarchyArbExecutorV5.sol\":28706:28758  if (swapr_router == address(0)) revert ZeroAddress() */\n      tag_1097\n      jumpi\n      sub(shl(0xa0, 0x01), 0x01)\n        /* \"contracts/FutarchyArbExecutorV5.sol\":5111:41903  contract FutarchyArbExecutorV5 {... */\n      and\n      swap4\n        /* \"contracts/FutarchyArbExecutorV5.sol\":28772:28793  tokenIn == address(0) */\n      dup5\n      iszero\n        /* \"contracts/FutarchyArbExecutorV5.sol\":28772:28819  tokenIn == address(0) || tokenOut == address(0) */\n      dup1\n      iszero\n      tag_1604\n      jumpi\n        /* \"contracts/FutarchyArbExecutorV5.sol\":28479:29516  function _swaprExactOut(... */\n    tag_1605:\n        /* \"contracts/FutarchyArbExecutorV5.sol\":28768:28846  if (tokenIn == address(0) || tokenOut == address(0)) revert TokenAddressZero() */\n      tag_1570\n      jumpi\n        /* \"contracts/FutarchyArbExecutorV5.sol\":28860:28874  amountOut == 0 */\n      dup3\n      iszero\n        /* \"contracts/FutarchyArbExecutorV5.sol\":28856:28884  if (amountOut == 0) return 0 */\n      tag_1608\n      jumpi\n        /* \"contracts/FutarchyArbExecutorV5.sol\":28931:28943  swapr_router */\n      tag_1610\n      swap1\n      dup6\n      tag_51\n      jump\t// in\n    tag_1610:\n        /* \"contracts/FutarchyArbExecutorV5.sol\":5111:41903  contract FutarchyArbExecutorV5 {... */\n      mload(0x40)\n      swap1\n      0x0100\n      dup3\n      add\n      dup3\n      dup2\n      lt\n      sub(shl(0x40, 0x01), 0x01)\n      dup3\n      gt\n      or\n      tag_1212\n      jumpi\n      0x40\n      mstore\n        /* \"contracts/FutarchyArbExecutorV5.sol\":6225:6267  0x37b60f4E9A31A64cCc0024dce7D0fD07eAA0F7B3 */\n      dup5\n      dup3\n      mstore\n        /* \"contracts/FutarchyArbExecutorV5.sol\":29014:29339  ISwapRouterV3ExactOutput.ExactOutputSingleParams({... */\n      0x20\n      dup3\n      add\n        /* \"contracts/FutarchyArbExecutorV5.sol\":5111:41903  contract FutarchyArbExecutorV5 {... */\n      swap8\n      0x01\n      dup1\n      0xa0\n      shl\n      sub\n      and\n        /* \"contracts/FutarchyArbExecutorV5.sol\":6225:6267  0x37b60f4E9A31A64cCc0024dce7D0fD07eAA0F7B3 */\n      swap6\n      dup7\n      dup10\n      mstore\n        /* \"contracts/FutarchyArbExecutorV5.sol\":5111:41903  contract FutarchyArbExecutorV5 {... */\n      0xffffff\n      0x40\n        /* \"contracts/FutarchyArbExecutorV5.sol\":29014:29339  ISwapRouterV3ExactOutput.ExactOutputSingleParams({... */\n      dup5\n      add\n        /* \"contracts/FutarchyArbExecutorV5.sol\":5111:41903  contract FutarchyArbExecutorV5 {... */\n      swap2\n      and\n      dup2\n      mstore\n        /* \"contracts/FutarchyArbExecutorV5.sol\":29014:29339  ISwapRouterV3ExactOutput.ExactOutputSingleParams({... */\n      0x60\n      dup4\n      add\n        /* \"contracts/FutarchyArbExecutorV5.sol\":29180:29184  this */\n      address\n        /* \"contracts/FutarchyArbExecutorV5.sol\":6225:6267  0x37b60f4E9A31A64cCc0024dce7D0fD07eAA0F7B3 */\n      dup2\n      mstore\n        /* \"contracts/FutarchyArbExecutorV5.sol\":29014:29339  ISwapRouterV3ExactOutput.ExactOutputSingleParams({... */\n      0x80\n      dup5\n      add\n        /* \"contracts/FutarchyArbExecutorV5.sol\":29209:29224  block.timestamp */\n      swap1\n      timestamp\n        /* \"contracts/FutarchyArbExecutorV5.sol\":6225:6267  0x37b60f4E9A31A64cCc0024dce7D0fD07eAA0F7B3 */\n      dup3\n      mstore\n        /* \"contracts/FutarchyArbExecutorV5.sol\":5111:41903  contract FutarchyArbExecutorV5 {... */\n      0xffffff\n        /* \"contracts/FutarchyArbExecutorV5.sol\":29014:29339  ISwapRouterV3ExactOutput.ExactOutputSingleParams({... */\n      0xa0\n      dup7\n      add\n        /* \"contracts/FutarchyArbExecutorV5.sol\":6225:6267  0x37b60f4E9A31A64cCc0024dce7D0fD07eAA0F7B3 */\n      swap4\n      dup8\n      dup6\n      mstore\n        /* \"contracts/FutarchyArbExecutorV5.sol\":29014:29339  ISwapRouterV3ExactOutput.ExactOutputSingleParams({... */\n      0xc0\n      dup8\n      add\n        /* \"contracts/FutarchyArbExecutorV5.sol\":6225:6267  0x37b60f4E9A31A64cCc0024dce7D0fD07eAA0F7B3 */\n      swap6\n      dup7\n      mstore\n        /* \"contracts/FutarchyArbExecutorV5.sol\":29014:29339  ISwapRouterV3ExactOutput.ExactOutputSingleParams({... */\n      0xe0\n      dup8\n      add\n        /* \"contracts/FutarchyArbExecutorV5.sol\":6225:6267  0x37b60f4E9A31A64cCc0024dce7D0fD07eAA0F7B3 */\n      swap7\n        /* \"contracts/FutarchyArbExecutorV5.sol\":6316:6358  0xBA12222222228d8Ba445958a75a0704d566BF2C8 */\n      0x00\n        /* \"contracts/FutarchyArbExecutorV5.sol\":6225:6267  0x37b60f4E9A31A64cCc0024dce7D0fD07eAA0F7B3 */\n      dup9\n      mstore\n        /* \"contracts/FutarchyArbExecutorV5.sol\":5111:41903  contract FutarchyArbExecutorV5 {... */\n      0x24\n      mload(0x40)\n      swap15\n      dup16\n      swap3\n      shl(0xe3, 0x1b67c433)\n        /* \"contracts/FutarchyArbExecutorV5.sol\":29360:29419  ISwapRouterV3ExactOutput(swapr_router).exactOutputSingle(p) */\n      dup5\n      mstore\n        /* \"contracts/FutarchyArbExecutorV5.sol\":5111:41903  contract FutarchyArbExecutorV5 {... */\n      0x01\n      dup1\n      0xa0\n      shl\n      sub\n      swap1\n      mload\n      and\n        /* \"contracts/FutarchyArbExecutorV5.sol\":29360:29419  ISwapRouterV3ExactOutput(swapr_router).exactOutputSingle(p) */\n      0x04\n      dup5\n      add\n        /* \"contracts/FutarchyArbExecutorV5.sol\":5111:41903  contract FutarchyArbExecutorV5 {... */\n      mstore\n      0x01\n      dup1\n      0xa0\n      shl\n      sub\n      swap1\n      mload\n      and\n      swap2\n      add\n      mstore\n      mload\n      and\n      0x44\n      dup13\n      add\n      mstore\n      0x01\n      dup1\n      0xa0\n      shl\n      sub\n      swap1\n      mload\n      and\n      0x64\n      dup12\n      add\n      mstore\n      mload\n      0x84\n      dup11\n      add\n      mstore\n      mload\n      0xa4\n      dup10\n      add\n      mstore\n      mload\n      0xc4\n      dup9\n      add\n      mstore\n      0x01\n      dup1\n      0xa0\n      shl\n      sub\n      swap1\n      mload\n      and\n      0xe4\n      dup8\n      add\n      mstore\n        /* \"contracts/FutarchyArbExecutorV5.sol\":29014:29339  ISwapRouterV3ExactOutput.ExactOutputSingleParams({... */\n      0x20\n        /* \"contracts/FutarchyArbExecutorV5.sol\":29360:29419  ISwapRouterV3ExactOutput(swapr_router).exactOutputSingle(p) */\n      dup7\n      0x0104\n      dup2\n        /* \"contracts/FutarchyArbExecutorV5.sol\":6316:6358  0xBA12222222228d8Ba445958a75a0704d566BF2C8 */\n      0x00\n        /* \"contracts/FutarchyArbExecutorV5.sol\":29360:29419  ISwapRouterV3ExactOutput(swapr_router).exactOutputSingle(p) */\n      dup7\n      gas\n      call\n      swap6\n      dup7\n      iszero\n      tag_262\n      jumpi\n        /* \"contracts/FutarchyArbExecutorV5.sol\":6316:6358  0xBA12222222228d8Ba445958a75a0704d566BF2C8 */\n      0x00\n        /* \"contracts/FutarchyArbExecutorV5.sol\":29360:29419  ISwapRouterV3ExactOutput(swapr_router).exactOutputSingle(p) */\n      swap7\n      tag_1615\n      jumpi\n        /* \"contracts/FutarchyArbExecutorV5.sol\":28479:29516  function _swaprExactOut(... */\n    tag_1616:\n        /* \"contracts/FutarchyArbExecutorV5.sol\":29349:29419  amountIn = ISwapRouterV3ExactOutput(swapr_router).exactOutputSingle(p) */\n      pop\n        /* \"contracts/FutarchyArbExecutorV5.sol\":5111:41903  contract FutarchyArbExecutorV5 {... */\n      0x40\n        /* \"contracts/FutarchyArbExecutorV5.sol\":29434:29509  SwaprExactOutExecuted(swapr_router, tokenIn, tokenOut, amountOut, amountIn) */\n      0xcb3796b31ba09ffbc48bd2abe64550ce61698c9e170bed66c7f6c556118af6a3\n        /* \"contracts/FutarchyArbExecutorV5.sol\":29349:29419  amountIn = ISwapRouterV3ExactOutput(swapr_router).exactOutputSingle(p) */\n      swap2\n      dup8\n        /* \"contracts/FutarchyArbExecutorV5.sol\":5111:41903  contract FutarchyArbExecutorV5 {... */\n      dup3\n      mload\n      swap2\n      dup3\n      mstore\n        /* \"contracts/FutarchyArbExecutorV5.sol\":29014:29339  ISwapRouterV3ExactOutput.ExactOutputSingleParams({... */\n      0x20\n        /* \"contracts/FutarchyArbExecutorV5.sol\":5111:41903  contract FutarchyArbExecutorV5 {... */\n      dup3\n      add\n      mstore\n        /* \"contracts/FutarchyArbExecutorV5.sol\":29434:29509  SwaprExactOutExecuted(swapr_router, tokenIn, tokenOut, amountOut, amountIn) */\n      log4\n        /* \"contracts/FutarchyArbExecutorV5.sol\":28479:29516  function _swaprExactOut(... */\n      jump\t// out\n        /* \"contracts/FutarchyArbExecutorV5.sol\":29360:29419  ISwapRouterV3ExactOutput(swapr_router).exactOutputSingle(p) */\n    tag_1615:\n      swap1\n      swap6\n      pop\n        /* \"contracts/FutarchyArbExecutorV5.sol\":29014:29339  ISwapRouterV3ExactOutput.ExactOutputSingleParams({... */\n      0x20\n        /* \"contracts/FutarchyArbExecutorV5.sol\":29360:29419  ISwapRouterV3ExactOutput(swapr_router).exactOutputSingle(p) */\n      dup2\n      returndatasize\n        /* \"contracts/FutarchyArbExecutorV5.sol\":29014:29339  ISwapRouterV3ExactOutput.ExactOutputSingleParams({... */\n      0x20\n        /* \"contracts/FutarchyArbExecutorV5.sol\":29360:29419  ISwapRouterV3ExactOutput(swapr_router).exactOutputSingle(p) */\n      gt\n      tag_1617\n      jumpi\n    tag_1618:\n      dup2\n      tag_1619\n        /* \"contracts/FutarchyArbExecutorV5.sol\":5111:41903  contract FutarchyArbExecutorV5 {... */\n      0x20\n        /* \"contracts/FutarchyArbExecutorV5.sol\":29360:29419  ISwapRouterV3ExactOutput(swapr_router).exactOutputSingle(p) */\n      swap4\n      dup4\n      tag_18\n      jump\t// in\n    tag_1619:\n      dup2\n      add\n        /* \"contracts/FutarchyArbExecutorV5.sol\":5111:41903  contract FutarchyArbExecutorV5 {... */\n      sub\n      slt\n      tag_166\n      jumpi\n      mload\n      swap5\n      0x40\n        /* \"contracts/FutarchyArbExecutorV5.sol\":29360:29419  ISwapRouterV3ExactOutput(swapr_router).exactOutputSingle(p) */\n      jump(tag_1616)\n    tag_1617:\n      returndatasize\n      swap2\n      pop\n      jump(tag_1618)\n        /* \"contracts/FutarchyArbExecutorV5.sol\":28856:28884  if (amountOut == 0) return 0 */\n    tag_1608:\n      pop\n        /* \"contracts/FutarchyArbExecutorV5.sol\":6316:6358  0xBA12222222228d8Ba445958a75a0704d566BF2C8 */\n      0x00\n      swap7\n      pop\n      pop\n      pop\n      pop\n      pop\n      pop\n        /* \"contracts/FutarchyArbExecutorV5.sol\":28876:28884  return 0 */\n      jump\t// out\n        /* \"contracts/FutarchyArbExecutorV5.sol\":28772:28819  tokenIn == address(0) || tokenOut == address(0) */\n    tag_1604:\n      pop\n      sub(shl(0xa0, 0x01), 0x01)\n        /* \"contracts/FutarchyArbExecutorV5.sol\":5111:41903  contract FutarchyArbExecutorV5 {... */\n      dup9\n      and\n        /* \"contracts/FutarchyArbExecutorV5.sol\":28797:28819  tokenOut == address(0) */\n      iszero\n        /* \"contracts/FutarchyArbExecutorV5.sol\":28772:28819  tokenIn == address(0) || tokenOut == address(0) */\n      jump(tag_1605)\n        /* \"contracts/FutarchyArbExecutorV5.sol\":11616:14719  function _sellPnkForSdai(uint256 amountPnkIn, uint256 minWethOut, uint256 minSdaiOut) internal {... */\n    tag_55:\n        /* \"contracts/FutarchyArbExecutorV5.sol\":11725:11741  amountPnkIn == 0 */\n      dup1\n      iszero\n        /* \"contracts/FutarchyArbExecutorV5.sol\":11721:11762  if (amountPnkIn == 0) revert ZeroAmount() */\n      tag_1028\n      jumpi\n        /* \"contracts/FutarchyArbExecutorV5.sol\":11875:11890  SWAPR_V2_ROUTER */\n      tag_1624\n      tag_49\n      jump\t// in\n    tag_1624:\n        /* \"contracts/FutarchyArbExecutorV5.sol\":12019:12160  IUniswapV2Router02(SWAPR_V2_ROUTER)... */\n      tag_1625\n        /* \"contracts/FutarchyArbExecutorV5.sol\":5111:41903  contract FutarchyArbExecutorV5 {... */\n      0x00\n        /* \"contracts/FutarchyArbExecutorV5.sol\":6225:6267  0x37b60f4E9A31A64cCc0024dce7D0fD07eAA0F7B3 */\n      0x60\n        /* \"contracts/FutarchyArbExecutorV5.sol\":5111:41903  contract FutarchyArbExecutorV5 {... */\n      swap3\n      mload(0x40)\n      tag_1626\n      dup6\n      dup3\n      tag_18\n      jump\t// in\n    tag_1626:\n        /* \"contracts/FutarchyArbExecutorV5.sol\":11942:11943  2 */\n      0x02\n        /* \"contracts/FutarchyArbExecutorV5.sol\":6316:6358  0xBA12222222228d8Ba445958a75a0704d566BF2C8 */\n      dup2\n      mstore\n      not(0x1f)\n        /* \"contracts/FutarchyArbExecutorV5.sol\":6408:6450  0xE43e60736b1cb4a75ad25240E2f9a62Bff65c0C0 */\n      dup6\n      add\n        /* \"contracts/FutarchyArbExecutorV5.sol\":7034:7100  0xa99fd9950b5d5dceeaf4939e221dca8ca9b938ab000100000000000000000025 */\n      calldatasize\n        /* \"contracts/FutarchyArbExecutorV5.sol\":6408:6450  0xE43e60736b1cb4a75ad25240E2f9a62Bff65c0C0 */\n      0x20\n      dup4\n      add\n        /* \"contracts/FutarchyArbExecutorV5.sol\":7034:7100  0xa99fd9950b5d5dceeaf4939e221dca8ca9b938ab000100000000000000000025 */\n      calldatacopy\n      mload(0x00)\n      codecopy(0x00, data_18faf74e4df68828d272c60758edf9513e53936ca0737ceb17921c958804ed9a, 0x20)\n      mload(0x00)\n      swap1\n      0x00\n      mstore\n        /* \"contracts/FutarchyArbExecutorV5.sol\":11954:11976  pathOut[0] = TOKEN_PNK */\n      tag_1627\n      dup3\n      tag_29\n      jump\t// in\n    tag_1627:\n        /* \"contracts/FutarchyArbExecutorV5.sol\":6225:6267  0x37b60f4E9A31A64cCc0024dce7D0fD07eAA0F7B3 */\n      mstore\n      mload(0x00)\n      codecopy(0x00, data_1f08a6407959cd4837ddd9fea2fe35b0c34facc789c2626b8e87092b4372c0eb, 0x20)\n      mload(0x00)\n      swap1\n      0x00\n      mstore\n        /* \"contracts/FutarchyArbExecutorV5.sol\":11986:12009  pathOut[1] = TOKEN_WETH */\n      tag_243\n      dup3\n      tag_30\n      jump\t// in\n        /* \"contracts/FutarchyArbExecutorV5.sol\":12019:12160  IUniswapV2Router02(SWAPR_V2_ROUTER)... */\n    tag_1625:\n      sub\n      dup2\n      dup4\n      mload(0x00)\n      codecopy(0x00, data_fed9ab35569d274633c0afa3fe164e41b182bd84c5e7e43031c6f2c1b23e65bf, 0x20)\n      mload(0x00)\n      swap1\n      0x00\n      mstore\n      gas\n      call\n      dup1\n      iszero\n      tag_262\n      jumpi\n      tag_1631\n      jumpi\n        /* \"contracts/FutarchyArbExecutorV5.sol\":11616:14719  function _sellPnkForSdai(uint256 amountPnkIn, uint256 minWethOut, uint256 minSdaiOut) internal {... */\n    tag_1632:\n      pop\n        /* \"contracts/FutarchyArbExecutorV5.sol\":5111:41903  contract FutarchyArbExecutorV5 {... */\n      mload(0x40)\n      shl(0xe0, 0x70a08231)\n        /* \"contracts/FutarchyArbExecutorV5.sol\":12219:12262  IERC20(TOKEN_WETH).balanceOf(address(this)) */\n      dup2\n      mstore\n        /* \"contracts/FutarchyArbExecutorV5.sol\":12135:12139  this */\n      address\n        /* \"contracts/FutarchyArbExecutorV5.sol\":12019:12160  IUniswapV2Router02(SWAPR_V2_ROUTER)... */\n      0x04\n        /* \"contracts/FutarchyArbExecutorV5.sol\":12219:12262  IERC20(TOKEN_WETH).balanceOf(address(this)) */\n      dup3\n      add\n        /* \"contracts/FutarchyArbExecutorV5.sol\":5111:41903  contract FutarchyArbExecutorV5 {... */\n      mstore\n      swap1\n        /* \"contracts/FutarchyArbExecutorV5.sol\":6408:6450  0xE43e60736b1cb4a75ad25240E2f9a62Bff65c0C0 */\n      0x20\n        /* \"contracts/FutarchyArbExecutorV5.sol\":5111:41903  contract FutarchyArbExecutorV5 {... */\n      dup3\n        /* \"contracts/FutarchyArbExecutorV5.sol\":12219:12262  IERC20(TOKEN_WETH).balanceOf(address(this)) */\n      0x24\n        /* \"contracts/FutarchyArbExecutorV5.sol\":5111:41903  contract FutarchyArbExecutorV5 {... */\n      dup2\n      mload(0x00)\n      codecopy(0x00, data_1f08a6407959cd4837ddd9fea2fe35b0c34facc789c2626b8e87092b4372c0eb, 0x20)\n      mload(0x00)\n      swap1\n      0x00\n      mstore\n        /* \"contracts/FutarchyArbExecutorV5.sol\":12219:12262  IERC20(TOKEN_WETH).balanceOf(address(this)) */\n      gas\n      staticcall\n      swap2\n      dup3\n      iszero\n      tag_262\n      jumpi\n        /* \"contracts/FutarchyArbExecutorV5.sol\":5111:41903  contract FutarchyArbExecutorV5 {... */\n      0x00\n        /* \"contracts/FutarchyArbExecutorV5.sol\":12219:12262  IERC20(TOKEN_WETH).balanceOf(address(this)) */\n      swap3\n      tag_1635\n      jumpi\n        /* \"contracts/FutarchyArbExecutorV5.sol\":11616:14719  function _sellPnkForSdai(uint256 amountPnkIn, uint256 minWethOut, uint256 minSdaiOut) internal {... */\n    tag_1636:\n        /* \"contracts/FutarchyArbExecutorV5.sol\":12276:12288  wethBal == 0 */\n      pop\n      dup2\n      iszero\n        /* \"contracts/FutarchyArbExecutorV5.sol\":12272:12308  if (wethBal == 0) revert NoBalance() */\n      tag_252\n      jumpi\n        /* \"contracts/FutarchyArbExecutorV5.sol\":12532:12546  BALANCER_VAULT */\n      tag_1639\n      tag_50\n      jump\t// in\n    tag_1639:\n        /* \"contracts/FutarchyArbExecutorV5.sol\":12584:12601  _pnkAssetsOrder() */\n      tag_1640\n      tag_56\n      jump\t// in\n    tag_1640:\n        /* \"contracts/FutarchyArbExecutorV5.sol\":12658:12695  new IBalancerVault.BatchSwapStep[](5) */\n      swap2\n      tag_1641\n      tag_37\n      jump\t// in\n    tag_1641:\n        /* \"contracts/FutarchyArbExecutorV5.sol\":5111:41903  contract FutarchyArbExecutorV5 {... */\n      swap3\n      dup2\n        /* \"contracts/FutarchyArbExecutorV5.sol\":11994:11995  1 */\n      0x01\n        /* \"contracts/FutarchyArbExecutorV5.sol\":5111:41903  contract FutarchyArbExecutorV5 {... */\n      shr\n      swap4\n      dup5\n      dup4\n      sub\n      dup4\n      dup2\n      gt\n      tag_1229\n      jumpi\n      0x00\n      swap4\n        /* \"contracts/FutarchyArbExecutorV5.sol\":14337:14479  IBalancerVault(BALANCER_VAULT)... */\n      tag_1644\n        /* \"contracts/FutarchyArbExecutorV5.sol\":5111:41903  contract FutarchyArbExecutorV5 {... */\n      swap2\n      0x20\n      swap8\n      mload(0x40)\n      tag_1645\n      dup11\n      dup3\n      tag_18\n      jump\t// in\n    tag_1645:\n      dup8\n      dup2\n      mstore\n      mload(0x40)\n      swap2\n      tag_1646\n      dup4\n      tag_17\n      jump\t// in\n    tag_1646:\n        /* \"contracts/FutarchyArbExecutorV5.sol\":6701:6767  0x7e5870ac540adfd01a213c829f2231c309623eb10002000000000000000000e9 */\n      0x7e5870ac540adfd01a213c829f2231c309623eb10002000000000000000000e9\n        /* \"contracts/FutarchyArbExecutorV5.sol\":6225:6267  0x37b60f4E9A31A64cCc0024dce7D0fD07eAA0F7B3 */\n      dup4\n      mstore\n        /* \"contracts/FutarchyArbExecutorV5.sol\":11942:11943  2 */\n      0x02\n        /* \"contracts/FutarchyArbExecutorV5.sol\":12858:13000  IBalancerVault.BatchSwapStep({... */\n      dup12\n      dup5\n      add\n        /* \"contracts/FutarchyArbExecutorV5.sol\":6225:6267  0x37b60f4E9A31A64cCc0024dce7D0fD07eAA0F7B3 */\n      mstore\n        /* \"contracts/FutarchyArbExecutorV5.sol\":11994:11995  1 */\n      0x01\n        /* \"contracts/FutarchyArbExecutorV5.sol\":5111:41903  contract FutarchyArbExecutorV5 {... */\n      0x40\n        /* \"contracts/FutarchyArbExecutorV5.sol\":12858:13000  IBalancerVault.BatchSwapStep({... */\n      dup5\n      add\n        /* \"contracts/FutarchyArbExecutorV5.sol\":6225:6267  0x37b60f4E9A31A64cCc0024dce7D0fD07eAA0F7B3 */\n      mstore\n        /* \"contracts/FutarchyArbExecutorV5.sol\":12858:13000  IBalancerVault.BatchSwapStep({... */\n      dup10\n      dup4\n      add\n        /* \"contracts/FutarchyArbExecutorV5.sol\":6225:6267  0x37b60f4E9A31A64cCc0024dce7D0fD07eAA0F7B3 */\n      mstore\n        /* \"contracts/FutarchyArbExecutorV5.sol\":12858:13000  IBalancerVault.BatchSwapStep({... */\n      0x80\n      dup3\n      add\n        /* \"contracts/FutarchyArbExecutorV5.sol\":6225:6267  0x37b60f4E9A31A64cCc0024dce7D0fD07eAA0F7B3 */\n      mstore\n        /* \"contracts/FutarchyArbExecutorV5.sol\":12847:13000  swaps[0] = IBalancerVault.BatchSwapStep({... */\n      tag_1647\n      dup6\n      tag_29\n      jump\t// in\n    tag_1647:\n      mstore\n      tag_1648\n      dup5\n      tag_29\n      jump\t// in\n    tag_1648:\n      pop\n        /* \"contracts/FutarchyArbExecutorV5.sol\":5111:41903  contract FutarchyArbExecutorV5 {... */\n      mload(0x40)\n      tag_1649\n      dup10\n      dup3\n      tag_18\n      jump\t// in\n    tag_1649:\n      dup7\n      dup2\n      mstore\n      mload(0x40)\n      swap1\n      tag_1650\n      dup3\n      tag_17\n      jump\t// in\n    tag_1650:\n        /* \"contracts/FutarchyArbExecutorV5.sol\":6590:6656  0xa91c413d8516164868f6cca19573fe38f88f5982000200000000000000000157 */\n      0xa91c413d8516164868f6cca19573fe38f88f5982000200000000000000000157\n        /* \"contracts/FutarchyArbExecutorV5.sol\":6225:6267  0x37b60f4E9A31A64cCc0024dce7D0fD07eAA0F7B3 */\n      dup3\n      mstore\n        /* \"contracts/FutarchyArbExecutorV5.sol\":11994:11995  1 */\n      0x01\n        /* \"contracts/FutarchyArbExecutorV5.sol\":13021:13160  IBalancerVault.BatchSwapStep({... */\n      dup11\n      dup4\n      add\n        /* \"contracts/FutarchyArbExecutorV5.sol\":6225:6267  0x37b60f4E9A31A64cCc0024dce7D0fD07eAA0F7B3 */\n      mstore\n        /* \"contracts/FutarchyArbExecutorV5.sol\":13021:13160  IBalancerVault.BatchSwapStep({... */\n      dup8\n        /* \"contracts/FutarchyArbExecutorV5.sol\":5111:41903  contract FutarchyArbExecutorV5 {... */\n      0x40\n        /* \"contracts/FutarchyArbExecutorV5.sol\":13021:13160  IBalancerVault.BatchSwapStep({... */\n      dup4\n      add\n        /* \"contracts/FutarchyArbExecutorV5.sol\":6225:6267  0x37b60f4E9A31A64cCc0024dce7D0fD07eAA0F7B3 */\n      mstore\n        /* \"contracts/FutarchyArbExecutorV5.sol\":13021:13160  IBalancerVault.BatchSwapStep({... */\n      dup8\n      dup10\n      dup4\n      add\n        /* \"contracts/FutarchyArbExecutorV5.sol\":6225:6267  0x37b60f4E9A31A64cCc0024dce7D0fD07eAA0F7B3 */\n      mstore\n        /* \"contracts/FutarchyArbExecutorV5.sol\":12858:13000  IBalancerVault.BatchSwapStep({... */\n      0x80\n        /* \"contracts/FutarchyArbExecutorV5.sol\":13021:13160  IBalancerVault.BatchSwapStep({... */\n      dup3\n      add\n        /* \"contracts/FutarchyArbExecutorV5.sol\":6225:6267  0x37b60f4E9A31A64cCc0024dce7D0fD07eAA0F7B3 */\n      mstore\n        /* \"contracts/FutarchyArbExecutorV5.sol\":13010:13160  swaps[1] = IBalancerVault.BatchSwapStep({... */\n      tag_1651\n      dup6\n      tag_30\n      jump\t// in\n    tag_1651:\n      mstore\n      tag_1652\n      dup5\n      tag_30\n      jump\t// in\n    tag_1652:\n      pop\n        /* \"contracts/FutarchyArbExecutorV5.sol\":5111:41903  contract FutarchyArbExecutorV5 {... */\n      mload(0x40)\n      tag_1653\n      dup10\n      dup3\n      tag_18\n      jump\t// in\n    tag_1653:\n      dup7\n      dup2\n      mstore\n      mload(0x40)\n      swap2\n      tag_1654\n      dup4\n      tag_17\n      jump\t// in\n    tag_1654:\n      mload(0x00)\n      codecopy(0x00, data_6a768ce7dd29682ca8651cedf43ef435380ee90c92e8ceb8428caf6b41d02b1e, 0x20)\n      mload(0x00)\n      swap1\n      0x00\n      mstore\n        /* \"contracts/FutarchyArbExecutorV5.sol\":6225:6267  0x37b60f4E9A31A64cCc0024dce7D0fD07eAA0F7B3 */\n      dup4\n      mstore\n        /* \"contracts/FutarchyArbExecutorV5.sol\":11942:11943  2 */\n      0x02\n        /* \"contracts/FutarchyArbExecutorV5.sol\":13258:13401  IBalancerVault.BatchSwapStep({... */\n      dup11\n      dup5\n      add\n        /* \"contracts/FutarchyArbExecutorV5.sol\":6225:6267  0x37b60f4E9A31A64cCc0024dce7D0fD07eAA0F7B3 */\n      mstore\n        /* \"contracts/FutarchyArbExecutorV5.sol\":12019:12160  IUniswapV2Router02(SWAPR_V2_ROUTER)... */\n      0x04\n        /* \"contracts/FutarchyArbExecutorV5.sol\":5111:41903  contract FutarchyArbExecutorV5 {... */\n      0x40\n        /* \"contracts/FutarchyArbExecutorV5.sol\":13258:13401  IBalancerVault.BatchSwapStep({... */\n      dup5\n      add\n        /* \"contracts/FutarchyArbExecutorV5.sol\":6225:6267  0x37b60f4E9A31A64cCc0024dce7D0fD07eAA0F7B3 */\n      mstore\n        /* \"contracts/FutarchyArbExecutorV5.sol\":13258:13401  IBalancerVault.BatchSwapStep({... */\n      dup9\n      dup4\n      add\n        /* \"contracts/FutarchyArbExecutorV5.sol\":6225:6267  0x37b60f4E9A31A64cCc0024dce7D0fD07eAA0F7B3 */\n      mstore\n        /* \"contracts/FutarchyArbExecutorV5.sol\":12858:13000  IBalancerVault.BatchSwapStep({... */\n      0x80\n        /* \"contracts/FutarchyArbExecutorV5.sol\":13258:13401  IBalancerVault.BatchSwapStep({... */\n      dup3\n      add\n        /* \"contracts/FutarchyArbExecutorV5.sol\":6225:6267  0x37b60f4E9A31A64cCc0024dce7D0fD07eAA0F7B3 */\n      mstore\n        /* \"contracts/FutarchyArbExecutorV5.sol\":13247:13401  swaps[2] = IBalancerVault.BatchSwapStep({... */\n      tag_1655\n      dup5\n      tag_31\n      jump\t// in\n    tag_1655:\n      mstore\n      tag_1656\n      dup4\n      tag_31\n      jump\t// in\n    tag_1656:\n      pop\n        /* \"contracts/FutarchyArbExecutorV5.sol\":5111:41903  contract FutarchyArbExecutorV5 {... */\n      mload(0x40)\n      tag_1657\n      dup9\n      dup3\n      tag_18\n      jump\t// in\n    tag_1657:\n      dup6\n      dup2\n      mstore\n      mload(0x40)\n      swap1\n      tag_1658\n      dup3\n      tag_17\n      jump\t// in\n    tag_1658:\n      mload(0x00)\n      codecopy(0x00, data_a9d90bf0c84ce4451e39083a58090a10a0fbe54d1cc426b0f3f264b80dafbc72, 0x20)\n      mload(0x00)\n      swap1\n      0x00\n      mstore\n        /* \"contracts/FutarchyArbExecutorV5.sol\":6225:6267  0x37b60f4E9A31A64cCc0024dce7D0fD07eAA0F7B3 */\n      dup3\n      mstore\n        /* \"contracts/FutarchyArbExecutorV5.sol\":12019:12160  IUniswapV2Router02(SWAPR_V2_ROUTER)... */\n      0x04\n        /* \"contracts/FutarchyArbExecutorV5.sol\":13422:13561  IBalancerVault.BatchSwapStep({... */\n      dup10\n      dup4\n      add\n        /* \"contracts/FutarchyArbExecutorV5.sol\":6225:6267  0x37b60f4E9A31A64cCc0024dce7D0fD07eAA0F7B3 */\n      mstore\n        /* \"contracts/FutarchyArbExecutorV5.sol\":13517:13518  3 */\n      0x03\n        /* \"contracts/FutarchyArbExecutorV5.sol\":5111:41903  contract FutarchyArbExecutorV5 {... */\n      0x40\n        /* \"contracts/FutarchyArbExecutorV5.sol\":13422:13561  IBalancerVault.BatchSwapStep({... */\n      dup4\n      add\n        /* \"contracts/FutarchyArbExecutorV5.sol\":6225:6267  0x37b60f4E9A31A64cCc0024dce7D0fD07eAA0F7B3 */\n      mstore\n        /* \"contracts/FutarchyArbExecutorV5.sol\":13422:13561  IBalancerVault.BatchSwapStep({... */\n      dup7\n      dup9\n      dup4\n      add\n        /* \"contracts/FutarchyArbExecutorV5.sol\":6225:6267  0x37b60f4E9A31A64cCc0024dce7D0fD07eAA0F7B3 */\n      mstore\n        /* \"contracts/FutarchyArbExecutorV5.sol\":12858:13000  IBalancerVault.BatchSwapStep({... */\n      0x80\n        /* \"contracts/FutarchyArbExecutorV5.sol\":13422:13561  IBalancerVault.BatchSwapStep({... */\n      dup3\n      add\n        /* \"contracts/FutarchyArbExecutorV5.sol\":6225:6267  0x37b60f4E9A31A64cCc0024dce7D0fD07eAA0F7B3 */\n      mstore\n        /* \"contracts/FutarchyArbExecutorV5.sol\":13411:13561  swaps[3] = IBalancerVault.BatchSwapStep({... */\n      tag_1659\n      dup5\n      tag_32\n      jump\t// in\n    tag_1659:\n      mstore\n      tag_1660\n      dup4\n      tag_32\n      jump\t// in\n    tag_1660:\n      pop\n        /* \"contracts/FutarchyArbExecutorV5.sol\":5111:41903  contract FutarchyArbExecutorV5 {... */\n      mload(0x40)\n      tag_1661\n      dup9\n      dup3\n      tag_18\n      jump\t// in\n    tag_1661:\n      dup6\n      dup2\n      mstore\n      mload(0x40)\n      swap1\n      tag_1662\n      dup3\n      tag_17\n      jump\t// in\n    tag_1662:\n      mload(0x00)\n      codecopy(0x00, data_969cee0ab77f941c5d213a1db6cb2116b0c84035b9046a9d8b5a62de89aab7e9, 0x20)\n      mload(0x00)\n      swap1\n      0x00\n      mstore\n        /* \"contracts/FutarchyArbExecutorV5.sol\":6225:6267  0x37b60f4E9A31A64cCc0024dce7D0fD07eAA0F7B3 */\n      dup3\n      mstore\n        /* \"contracts/FutarchyArbExecutorV5.sol\":13517:13518  3 */\n      0x03\n        /* \"contracts/FutarchyArbExecutorV5.sol\":13582:13721  IBalancerVault.BatchSwapStep({... */\n      dup10\n      dup4\n      add\n        /* \"contracts/FutarchyArbExecutorV5.sol\":6225:6267  0x37b60f4E9A31A64cCc0024dce7D0fD07eAA0F7B3 */\n      mstore\n        /* \"contracts/FutarchyArbExecutorV5.sol\":13582:13721  IBalancerVault.BatchSwapStep({... */\n      dup7\n        /* \"contracts/FutarchyArbExecutorV5.sol\":5111:41903  contract FutarchyArbExecutorV5 {... */\n      0x40\n        /* \"contracts/FutarchyArbExecutorV5.sol\":13582:13721  IBalancerVault.BatchSwapStep({... */\n      dup4\n      add\n        /* \"contracts/FutarchyArbExecutorV5.sol\":6225:6267  0x37b60f4E9A31A64cCc0024dce7D0fD07eAA0F7B3 */\n      mstore\n        /* \"contracts/FutarchyArbExecutorV5.sol\":13582:13721  IBalancerVault.BatchSwapStep({... */\n      dup7\n      dup9\n      dup4\n      add\n        /* \"contracts/FutarchyArbExecutorV5.sol\":6225:6267  0x37b60f4E9A31A64cCc0024dce7D0fD07eAA0F7B3 */\n      mstore\n        /* \"contracts/FutarchyArbExecutorV5.sol\":12858:13000  IBalancerVault.BatchSwapStep({... */\n      0x80\n        /* \"contracts/FutarchyArbExecutorV5.sol\":13582:13721  IBalancerVault.BatchSwapStep({... */\n      dup3\n      add\n        /* \"contracts/FutarchyArbExecutorV5.sol\":6225:6267  0x37b60f4E9A31A64cCc0024dce7D0fD07eAA0F7B3 */\n      mstore\n        /* \"contracts/FutarchyArbExecutorV5.sol\":13571:13721  swaps[4] = IBalancerVault.BatchSwapStep({... */\n      tag_1663\n      dup5\n      tag_33\n      jump\t// in\n    tag_1663:\n      mstore\n      tag_1664\n      dup4\n      tag_33\n      jump\t// in\n    tag_1664:\n      pop\n        /* \"contracts/FutarchyArbExecutorV5.sol\":13823:13850  new int256[](assets.length) */\n      tag_1665\n        /* \"contracts/FutarchyArbExecutorV5.sol\":6225:6267  0x37b60f4E9A31A64cCc0024dce7D0fD07eAA0F7B3 */\n      dup5\n      mload\n        /* \"contracts/FutarchyArbExecutorV5.sol\":13823:13850  new int256[](assets.length) */\n      tag_38\n      jump\t// in\n    tag_1665:\n        /* \"contracts/FutarchyArbExecutorV5.sol\":13918:13956  limits[PNK_IDX_WETH] = int256(wethBal) */\n      swap1\n      tag_1666\n      dup3\n      tag_31\n      jump\t// in\n    tag_1666:\n        /* \"contracts/FutarchyArbExecutorV5.sol\":6225:6267  0x37b60f4E9A31A64cCc0024dce7D0fD07eAA0F7B3 */\n      mstore\n        /* \"contracts/FutarchyArbExecutorV5.sol\":5111:41903  contract FutarchyArbExecutorV5 {... */\n      dup5\n      mload(0x40)\n      swap7\n      tag_1667\n      dup9\n      tag_16\n      jump\t// in\n    tag_1667:\n        /* \"contracts/FutarchyArbExecutorV5.sol\":12135:12139  this */\n      address\n        /* \"contracts/FutarchyArbExecutorV5.sol\":6225:6267  0x37b60f4E9A31A64cCc0024dce7D0fD07eAA0F7B3 */\n      dup9\n      mstore\n        /* \"contracts/FutarchyArbExecutorV5.sol\":14170:14326  IBalancerVault.FundManagement({... */\n      dup2\n      dup10\n      dup10\n      add\n        /* \"contracts/FutarchyArbExecutorV5.sol\":7556:7557  2 */\n      mstore\n        /* \"contracts/FutarchyArbExecutorV5.sol\":12135:12139  this */\n      address\n        /* \"contracts/FutarchyArbExecutorV5.sol\":5111:41903  contract FutarchyArbExecutorV5 {... */\n      0x40\n        /* \"contracts/FutarchyArbExecutorV5.sol\":14170:14326  IBalancerVault.FundManagement({... */\n      dup10\n      add\n        /* \"contracts/FutarchyArbExecutorV5.sol\":6225:6267  0x37b60f4E9A31A64cCc0024dce7D0fD07eAA0F7B3 */\n      mstore\n        /* \"contracts/FutarchyArbExecutorV5.sol\":14170:14326  IBalancerVault.FundManagement({... */\n      dup8\n      add\n        /* \"contracts/FutarchyArbExecutorV5.sol\":7556:7557  2 */\n      mstore\n        /* \"contracts/FutarchyArbExecutorV5.sol\":5111:41903  contract FutarchyArbExecutorV5 {... */\n      mload(0x40)\n      swap6\n      dup7\n      swap5\n      dup6\n      swap5\n      shl(0xe0, 0x945bcec9)\n        /* \"contracts/FutarchyArbExecutorV5.sol\":14337:14479  IBalancerVault(BALANCER_VAULT)... */\n      dup7\n      mstore\n        /* \"contracts/FutarchyArbExecutorV5.sol\":12019:12160  IUniswapV2Router02(SWAPR_V2_ROUTER)... */\n      0x04\n        /* \"contracts/FutarchyArbExecutorV5.sol\":14337:14479  IBalancerVault(BALANCER_VAULT)... */\n      dup7\n      add\n      tag_42\n      jump\t// in\n    tag_1644:\n      sub\n      dup2\n      dup4\n      mload(0x00)\n      codecopy(0x00, data_d91414ac4175376259ecb6d3ea005aa1ae1e7573d53a4ea2b2fc89eb70155797, 0x20)\n      mload(0x00)\n      swap1\n      0x00\n      mstore\n      gas\n      call\n      dup1\n      iszero\n      tag_262\n      jumpi\n      tag_1670\n      jumpi\n        /* \"contracts/FutarchyArbExecutorV5.sol\":11616:14719  function _sellPnkForSdai(uint256 amountPnkIn, uint256 minWethOut, uint256 minSdaiOut) internal {... */\n    tag_1671:\n      pop\n        /* \"contracts/FutarchyArbExecutorV5.sol\":5111:41903  contract FutarchyArbExecutorV5 {... */\n      mload(0x40)\n      shl(0xe0, 0x70a08231)\n        /* \"contracts/FutarchyArbExecutorV5.sol\":14542:14585  IERC20(TOKEN_SDAI).balanceOf(address(this)) */\n      dup2\n      mstore\n        /* \"contracts/FutarchyArbExecutorV5.sol\":12135:12139  this */\n      address\n        /* \"contracts/FutarchyArbExecutorV5.sol\":12019:12160  IUniswapV2Router02(SWAPR_V2_ROUTER)... */\n      0x04\n        /* \"contracts/FutarchyArbExecutorV5.sol\":14542:14585  IERC20(TOKEN_SDAI).balanceOf(address(this)) */\n      dup3\n      add\n        /* \"contracts/FutarchyArbExecutorV5.sol\":5111:41903  contract FutarchyArbExecutorV5 {... */\n      mstore\n        /* \"contracts/FutarchyArbExecutorV5.sol\":14542:14585  IERC20(TOKEN_SDAI).balanceOf(address(this)) */\n      dup2\n        /* \"contracts/FutarchyArbExecutorV5.sol\":5111:41903  contract FutarchyArbExecutorV5 {... */\n      dup2\n        /* \"contracts/FutarchyArbExecutorV5.sol\":12219:12262  IERC20(TOKEN_WETH).balanceOf(address(this)) */\n      0x24\n        /* \"contracts/FutarchyArbExecutorV5.sol\":5111:41903  contract FutarchyArbExecutorV5 {... */\n      dup2\n        /* \"contracts/FutarchyArbExecutorV5.sol\":6052:6094  0xaf204776c7245bF4147c2612BF6e5972Ee483701 */\n      0xaf204776c7245bf4147c2612bf6e5972ee483701\n        /* \"contracts/FutarchyArbExecutorV5.sol\":14542:14585  IERC20(TOKEN_SDAI).balanceOf(address(this)) */\n      gas\n      staticcall\n      swap2\n      dup3\n      iszero\n      tag_262\n      jumpi\n      0x00\n      swap3\n      tag_1674\n      jumpi\n        /* \"contracts/FutarchyArbExecutorV5.sol\":11616:14719  function _sellPnkForSdai(uint256 amountPnkIn, uint256 minWethOut, uint256 minSdaiOut) internal {... */\n    tag_1675:\n        /* \"contracts/FutarchyArbExecutorV5.sol\":14599:14611  sdaiBal == 0 */\n      pop\n      pop\n      iszero\n        /* \"contracts/FutarchyArbExecutorV5.sol\":14595:14631  if (sdaiBal == 0) revert NoBalance() */\n      tag_252\n      jumpi\n        /* \"contracts/FutarchyArbExecutorV5.sol\":11616:14719  function _sellPnkForSdai(uint256 amountPnkIn, uint256 minWethOut, uint256 minSdaiOut) internal {... */\n      jump\t// out\n        /* \"contracts/FutarchyArbExecutorV5.sol\":14542:14585  IERC20(TOKEN_SDAI).balanceOf(address(this)) */\n    tag_1674:\n      swap1\n      dup1\n      swap3\n      pop\n      dup2\n      returndatasize\n      dup4\n      gt\n      tag_1678\n      jumpi\n    tag_1679:\n      tag_1680\n      dup2\n      dup4\n      tag_18\n      jump\t// in\n    tag_1680:\n      dup2\n      add\n        /* \"contracts/FutarchyArbExecutorV5.sol\":5111:41903  contract FutarchyArbExecutorV5 {... */\n      sub\n      slt\n      tag_166\n      jumpi\n      mload\n        /* \"contracts/FutarchyArbExecutorV5.sol\":14542:14585  IERC20(TOKEN_SDAI).balanceOf(address(this)) */\n      0x00\n      dup1\n      jump(tag_1675)\n    tag_1678:\n      pop\n      returndatasize\n      jump(tag_1679)\n        /* \"contracts/FutarchyArbExecutorV5.sol\":14337:14479  IBalancerVault(BALANCER_VAULT)... */\n    tag_1670:\n      tag_1683\n      swap1\n      returndatasize\n      dup1\n      0x00\n      dup4\n      returndatacopy\n      tag_169\n      dup2\n      dup4\n      tag_18\n      jump\t// in\n    tag_1683:\n      jump(tag_1671)\n        /* \"contracts/FutarchyArbExecutorV5.sol\":12219:12262  IERC20(TOKEN_WETH).balanceOf(address(this)) */\n    tag_1635:\n      swap1\n      swap2\n      pop\n        /* \"contracts/FutarchyArbExecutorV5.sol\":6408:6450  0xE43e60736b1cb4a75ad25240E2f9a62Bff65c0C0 */\n      0x20\n        /* \"contracts/FutarchyArbExecutorV5.sol\":12219:12262  IERC20(TOKEN_WETH).balanceOf(address(this)) */\n      dup2\n      returndatasize\n        /* \"contracts/FutarchyArbExecutorV5.sol\":6408:6450  0xE43e60736b1cb4a75ad25240E2f9a62Bff65c0C0 */\n      0x20\n        /* \"contracts/FutarchyArbExecutorV5.sol\":12219:12262  IERC20(TOKEN_WETH).balanceOf(address(this)) */\n      gt\n      tag_1685\n      jumpi\n    tag_1686:\n      dup2\n      tag_1687\n        /* \"contracts/FutarchyArbExecutorV5.sol\":5111:41903  contract FutarchyArbExecutorV5 {... */\n      0x20\n        /* \"contracts/FutarchyArbExecutorV5.sol\":12219:12262  IERC20(TOKEN_WETH).balanceOf(address(this)) */\n      swap4\n      dup4\n      tag_18\n      jump\t// in\n    tag_1687:\n      dup2\n      add\n        /* \"contracts/FutarchyArbExecutorV5.sol\":5111:41903  contract FutarchyArbExecutorV5 {... */\n      sub\n      slt\n      tag_166\n      jumpi\n      mload\n        /* \"contracts/FutarchyArbExecutorV5.sol\":12219:12262  IERC20(TOKEN_WETH).balanceOf(address(this)) */\n      swap1\n      0x00\n      jump(tag_1636)\n    tag_1685:\n      returndatasize\n      swap2\n      pop\n      jump(tag_1686)\n        /* \"contracts/FutarchyArbExecutorV5.sol\":12019:12160  IUniswapV2Router02(SWAPR_V2_ROUTER)... */\n    tag_1631:\n      tag_1690\n      swap1\n      returndatasize\n      dup1\n        /* \"contracts/FutarchyArbExecutorV5.sol\":5111:41903  contract FutarchyArbExecutorV5 {... */\n      0x00\n        /* \"contracts/FutarchyArbExecutorV5.sol\":12019:12160  IUniswapV2Router02(SWAPR_V2_ROUTER)... */\n      dup4\n      returndatacopy\n      tag_178\n      dup2\n      dup4\n      tag_18\n      jump\t// in\n    tag_1690:\n      jump(tag_1632)\n        /* \"contracts/FutarchyArbExecutorV5.sol\":7830:8121  function _pnkAssetsOrder() internal pure returns (address[] memory assets) {... */\n    tag_56:\n        /* \"contracts/FutarchyArbExecutorV5.sol\":5111:41903  contract FutarchyArbExecutorV5 {... */\n      mload(0x40)\n      swap1\n      tag_1692\n        /* \"contracts/FutarchyArbExecutorV5.sol\":6225:6267  0x37b60f4E9A31A64cCc0024dce7D0fD07eAA0F7B3 */\n      0xc0\n        /* \"contracts/FutarchyArbExecutorV5.sol\":5111:41903  contract FutarchyArbExecutorV5 {... */\n      dup4\n      tag_18\n      jump\t// in\n    tag_1692:\n        /* \"contracts/FutarchyArbExecutorV5.sol\":7938:7939  5 */\n      0x05\n        /* \"contracts/FutarchyArbExecutorV5.sol\":6316:6358  0xBA12222222228d8Ba445958a75a0704d566BF2C8 */\n      dup3\n      mstore\n        /* \"contracts/FutarchyArbExecutorV5.sol\":6225:6267  0x37b60f4E9A31A64cCc0024dce7D0fD07eAA0F7B3 */\n      0xa0\n        /* \"contracts/FutarchyArbExecutorV5.sol\":7034:7100  0xa99fd9950b5d5dceeaf4939e221dca8ca9b938ab000100000000000000000025 */\n      calldatasize\n        /* \"contracts/FutarchyArbExecutorV5.sol\":6225:6267  0x37b60f4E9A31A64cCc0024dce7D0fD07eAA0F7B3 */\n      0x20\n        /* \"contracts/FutarchyArbExecutorV5.sol\":6408:6450  0xE43e60736b1cb4a75ad25240E2f9a62Bff65c0C0 */\n      dup5\n      add\n        /* \"contracts/FutarchyArbExecutorV5.sol\":7034:7100  0xa99fd9950b5d5dceeaf4939e221dca8ca9b938ab000100000000000000000025 */\n      calldatacopy\n        /* \"contracts/FutarchyArbExecutorV5.sol\":7419:7461  0x9C58BAcC331c9aa871AFD802DB6379a98e80CEdb */\n      0x9c58bacc331c9aa871afd802db6379a98e80cedb\n        /* \"contracts/FutarchyArbExecutorV5.sol\":8080:8107  assets[4] = PNK_ASSET_5_GNO */\n      tag_1693\n        /* \"contracts/FutarchyArbExecutorV5.sol\":7915:7940  assets = new address[](5) */\n      dup4\n        /* \"contracts/FutarchyArbExecutorV5.sol\":6052:6094  0xaf204776c7245bF4147c2612BF6e5972Ee483701 */\n      0xaf204776c7245bf4147c2612bf6e5972ee483701\n        /* \"contracts/FutarchyArbExecutorV5.sol\":7950:7972  assets[0] = TOKEN_SDAI */\n      tag_1694\n      dup3\n      tag_29\n      jump\t// in\n    tag_1694:\n        /* \"contracts/FutarchyArbExecutorV5.sol\":6225:6267  0x37b60f4E9A31A64cCc0024dce7D0fD07eAA0F7B3 */\n      mstore\n        /* \"contracts/FutarchyArbExecutorV5.sol\":7239:7281  0xC0d871bD13eBdf5c4ff059D8243Fb38210608bD6 */\n      0xc0d871bd13ebdf5c4ff059d8243fb38210608bd6\n        /* \"contracts/FutarchyArbExecutorV5.sol\":7982:8005  assets[1] = PNK_ASSET_2 */\n      tag_1695\n      dup3\n      tag_30\n      jump\t// in\n    tag_1695:\n        /* \"contracts/FutarchyArbExecutorV5.sol\":6225:6267  0x37b60f4E9A31A64cCc0024dce7D0fD07eAA0F7B3 */\n      mstore\n      mload(0x00)\n      codecopy(0x00, data_1f08a6407959cd4837ddd9fea2fe35b0c34facc789c2626b8e87092b4372c0eb, 0x20)\n      mload(0x00)\n      swap1\n      0x00\n      mstore\n        /* \"contracts/FutarchyArbExecutorV5.sol\":8015:8037  assets[2] = TOKEN_WETH */\n      tag_1696\n      dup3\n      tag_31\n      jump\t// in\n    tag_1696:\n        /* \"contracts/FutarchyArbExecutorV5.sol\":6225:6267  0x37b60f4E9A31A64cCc0024dce7D0fD07eAA0F7B3 */\n      mstore\n        /* \"contracts/FutarchyArbExecutorV5.sol\":7327:7369  0xE0eD85F76D9C552478929fab44693E03F0899F23 */\n      0xe0ed85f76d9c552478929fab44693e03f0899f23\n        /* \"contracts/FutarchyArbExecutorV5.sol\":8047:8070  assets[3] = PNK_ASSET_4 */\n      tag_1697\n      dup3\n      tag_32\n      jump\t// in\n    tag_1697:\n        /* \"contracts/FutarchyArbExecutorV5.sol\":6225:6267  0x37b60f4E9A31A64cCc0024dce7D0fD07eAA0F7B3 */\n      mstore\n        /* \"contracts/FutarchyArbExecutorV5.sol\":8080:8107  assets[4] = PNK_ASSET_5_GNO */\n      tag_33\n      jump\t// in\n    tag_1693:\n        /* \"contracts/FutarchyArbExecutorV5.sol\":6225:6267  0x37b60f4E9A31A64cCc0024dce7D0fD07eAA0F7B3 */\n      mstore\n        /* \"contracts/FutarchyArbExecutorV5.sol\":7830:8121  function _pnkAssetsOrder() internal pure returns (address[] memory assets) {... */\n      jump\t// out\n    stop\n    data_0b5ddea07e196d6e9e89075559a4d11120dfd8a9a32fde422e414a54b80481bd b6174191c8a1b8338dcc8711e5edf88685ae0a57f03b361e2bdf8979f6288bd5\n    data_18faf74e4df68828d272c60758edf9513e53936ca0737ceb17921c958804ed9a 00000000000000000000000037b60f4e9a31a64ccc0024dce7d0fd07eaa0f7b3\n    data_1f08a6407959cd4837ddd9fea2fe35b0c34facc789c2626b8e87092b4372c0eb 0000000000000000000000006a023ccd1ff6f2045c3309768ead9e68f978f6e1\n    data_6a768ce7dd29682ca8651cedf43ef435380ee90c92e8ceb8428caf6b41d02b1e a99fd9950b5d5dceeaf4939e221dca8ca9b938ab000100000000000000000025\n    data_969cee0ab77f941c5d213a1db6cb2116b0c84035b9046a9d8b5a62de89aab7e9 40d2cbc586dd8df50001cdba3f65cd4bbc32d596000200000000000000000154\n    data_a9d90bf0c84ce4451e39083a58090a10a0fbe54d1cc426b0f3f264b80dafbc72 480d4f66cc41a1b6784a53a10890e5ece31d75c000020000000000000000014e\n    data_c5aaa74a06ee65ab0e09cb193417f995c1069cf1fd250a86afdf2022e97f16ad dc43ce728a1135c1396673372fa69f30fe424cb172093e4198538d75e54f3c2b\n    data_d91414ac4175376259ecb6d3ea005aa1ae1e7573d53a4ea2b2fc89eb70155797 000000000000000000000000ba12222222228d8ba445958a75a0704d566bf2c8\n    data_fed9ab35569d274633c0afa3fe164e41b182bd84c5e7e43031c6f2c1b23e65bf 000000000000000000000000e43e60736b1cb4a75ad25240e2f9a62bff65c0c0\n\n    auxdata: 0xa26469706673582212208c55603480b5dea0d6c9eb34e30b942c1def1f75a57e0f376e07117d01f32b4364736f6c63430008210033\n}\n","methodIdentifiers":{"buyPnkWithSdai(uint256,uint256,uint256)":"ce12e70d","buy_conditional_arbitrage_balancer(bytes,address,address,address,address,bool,address,address,address,address,address,address,address,address,address,uint256,int256)":"de309fc3","buy_conditional_arbitrage_pnk(address,address,bool,address,address,address,address,address,address,address,address,address,uint256,int256)":"de57a0ae","owner()":"8da5cb5b","sellPnkForSdai(uint256,uint256,uint256)":"ea9f3f09","sell_conditional_arbitrage_balancer(bytes,address,address,address,address,address,address,address,address,address,address,address,uint256,int256)":"d4b21c33","sell_conditional_arbitrage_pnk(bytes,address,address,address,address,address,address,address,address,address,address,address,uint256,int256)":"e7610d68","sweepToken(address,address)":"258836fe","transferOwnership(address)":"f2fde38b","withdrawETH(address,uint256)":"4782f779","withdrawToken(address,address,uint256)":"01e33667"},"id":2}