{"abi":[{"type":"fallback","stateMutability":"payable"},{"type":"receive","stateMutability":"payable"},{"type":"function","name":"execute","inputs":[{"name":"calls","type":"tuple[]","internalType":"struct FutarchyBatchExecutor.Call[]","components":[{"name":"target","type":"address","internalType":"address"},{"name":"value","type":"uint256","internalType":"uint256"},{"name":"data","type":"bytes","internalType":"bytes"}]}],"outputs":[],"stateMutability":"payable"},{"type":"function","name":"executeBuyConditional","inputs":[{"name":"","type":"bytes","internalType":"bytes"}],"outputs":[],"stateMutability":"payable"},{"type":"function","name":"executeSellConditional","inputs":[{"name":"","type":"bytes","internalType":"bytes"}],"outputs":[],"stateMutability":"payable"},{"type":"function","name":"executeWithResults","inputs":[{"name":"calls","type":"tuple[]","internalType":"struct FutarchyBatchExecutor.Call[]","components":[{"name":"target","type":"address","internalType":"address"},{"name":"value","type":"uint256","internalType":"uint256"},{"name":"data","type":"bytes","internalType":"bytes"}]}],"outputs":[{"name":"results","type":"bytes[]","internalType":"bytes[]"}],"stateMutability":"payable"},{"type":"function","name":"setApprovals","inputs":[{"name":"tokens","type":"address[]","internalType":"address[]"},{"name":"spenders","type":"address[]","internalType":"address[]"},{"name":"amounts","type":"uint256[]","internalType":"uint256[]"}],"outputs":[],"stateMutability":"nonpayable"},{"type":"event","name":"ApprovalSet","inputs":[{"name":"token","type":"address","indexed":true,"internalType":"address"},{"name":"spender","type":"address","indexed":true,"internalType":"address"},{"name":"amount","type":"uint256","indexed":false,"internalType":"uint256"}],"anonymous":false},{"type":"event","name":"BatchExecuted","inputs":[{"name":"callsExecuted","type":"uint256","indexed":false,"internalType":"uint256"}],"anonymous":false},{"type":"event","name":"CallExecuted","inputs":[{"name":"target","type":"address","indexed":true,"internalType":"address"},{"name":"value","type":"uint256","indexed":false,"internalType":"uint256"},{"name":"data","type":"bytes","indexed":false,"internalType":"bytes"},{"name":"success","type":"bool","indexed":false,"internalType":"bool"}],"anonymous":false},{"type":"error","name":"ApprovalFailed","inputs":[]},{"type":"error","name":"ApprovalReturnedFalse","inputs":[]},{"type":"error","name":"CallFailed","inputs":[{"name":"index","type":"uint256","internalType":"uint256"},{"name":"returnData","type":"bytes","internalType":"bytes"}]},{"type":"error","name":"InsufficientBalance","inputs":[]},{"type":"error","name":"InvalidAuthority","inputs":[]},{"type":"error","name":"LengthMismatch","inputs":[]}],"bytecode":{"object":"0x60808060405234601557610767908161001a8239f35b5f80fdfe60806040526004361015610010575b005b5f3560e01c80631e86b5141461025e5780633f707e6b146101d55780635c96612d146101d05780636de9a38a146101d057639f616ef60361000e5760203660031901126101cc576004356001600160401b0381116101cc57610076903690600401610413565b3033036101bd5761008681610527565b9161009460405193846104f2565b818352601f196100a383610527565b015f5b8181106101ac5750505f5b82811061014a57837fe9cc9bbe7de1cbb097a6357ca3182909488efe8d793e25665befc064a02d10a7602085604051908152a16040518091602082016020835281518091526040830190602060408260051b8601019301915f905b82821061011b57505050500390f35b9193600191939550602061013a8192603f198a82030186528851610496565b960192019201859493919261010c565b61016561016061015b83868661053e565b61057b565b61067d565b901561018b5790600191610179828761063a565b52610184818661063a565b50016100b1565b604051635c0dee5d60e01b81529182916101a89160048401610620565b0390fd5b8060606020809388010152016100a6565b636f6a1b8760e11b5f5260045ffd5b5f80fd5b610443565b60203660031901126101cc576004356001600160401b0381116101cc57610200903690600401610413565b903033036101bd575f5b82811061023e577fe9cc9bbe7de1cbb097a6357ca3182909488efe8d793e25665befc064a02d10a7602084604051908152a1005b61024f61016061015b83868661053e565b901561018b575060010161020a565b346101cc5760603660031901126101cc576004356001600160401b0381116101cc5761028e903690600401610413565b6024356001600160401b0381116101cc576102ad903690600401610413565b9190926044356001600160401b0381116101cc576102cf903690600401610413565b9290923033036101bd57848214801590610409575b6103fa575f5b8281106102f357005b6103066103018285876104ba565b6104de565b9061031561030182898b6104ba565b6103208285896104ba565b355f8060405193602085019063095ea7b360e01b825260018060a01b0316948560248201528460448201526044815261035a6064826104f2565b519082885af161036861064e565b90156103eb578051806103b7575b50506040519081526001936001600160a01b0316907f831618689250168d97439719454d49da08400cc172d64eac411c802f0e28230990602090a3016102ea565b81602091810103126101cc57602001518015908115036101cc576103dc578a80610376565b637a58cf0d60e11b5f5260045ffd5b6340b27c2160e11b5f5260045ffd5b631fec674760e31b5f5260045ffd5b50808214156102e4565b9181601f840112156101cc578235916001600160401b0383116101cc576020808501948460051b0101116101cc57565b60203660031901126101cc576004356001600160401b0381116101cc57366023820112156101cc578060040135906001600160401b0382116101cc5736602483830101116101cc5750503033036101bd57005b805180835260209291819084018484015e5f828201840152601f01601f1916010190565b91908110156104ca5760051b0190565b634e487b7160e01b5f52603260045260245ffd5b356001600160a01b03811681036101cc5790565b90601f801991011681019081106001600160401b0382111761051357604052565b634e487b7160e01b5f52604160045260245ffd5b6001600160401b0381116105135760051b60200190565b91908110156104ca5760051b81013590605e19813603018212156101cc570190565b6001600160401b03811161051357601f01601f191660200190565b6060813603126101cc5760405190606082018281106001600160401b038211176105135760405280356001600160a01b03811681036101cc578252602081013560208301526040810135906001600160401b0382116101cc570136601f820112156101cc5780356105eb81610560565b916105f960405193846104f2565b81835236602083830101116101cc57815f9260208093018386013783010152604082015290565b604090610637939281528160208201520190610496565b90565b80518210156104ca5760209160051b010190565b3d15610678573d9061065f82610560565b9161066d60405193846104f2565b82523d5f602084013e565b606090565b90602082019081518015159081610727575b506107185760018060a01b03835116917fd6ccaa80f602e884644c27c8f83689468df0b077a05fb3b05cb6d2e1cb6b859c5f8083516040880196875191602083519301915af16106dd61064e565b94819660018060a01b03905116935190519161070b6040519384938452606060208501526060840190610496565b90151560408301520390a2565b631e9acf1760e31b5f5260045ffd5b905047105f61068f56fea2646970667358221220993e2397614c99d292b70c679539d3263cb61f405003257fc0f15a1bfbcc87ec64736f6c63430008210033","linkReferences":{}},"assembly":"    /* \"contracts/FutarchyBatchExecutor.sol\":576:6562  contract FutarchyBatchExecutor {... */\n  0x80\n  dup1\n  0x40\n  mstore\n  jumpi(tag_1, callvalue)\n  dataSize(sub_0)\n  swap1\n  dup2\n  dataOffset(sub_0)\n  dup3\n  codecopy\n  return\ntag_1:\n  0x00\n  dup1\n  revert\nstop\n\nsub_0: assembly {\n        /* \"contracts/FutarchyBatchExecutor.sol\":576:6562  contract FutarchyBatchExecutor {... */\n      mstore(0x40, 0x80)\n      jumpi(tag_15, iszero(lt(calldatasize, 0x04)))\n    tag_16:\n      stop\n    tag_15:\n      shr(0xe0, calldataload(0x00))\n      dup1\n      0x1e86b514\n      eq\n      tag_19\n      jumpi\n      dup1\n      0x3f707e6b\n      eq\n      tag_21\n      jumpi\n      dup1\n      0x5c96612d\n      eq\n      tag_25\n      jumpi\n      dup1\n      0x6de9a38a\n      eq\n      tag_25\n      jumpi\n      0x9f616ef6\n      sub\n      tag_16\n      jumpi\n      jumpi(tag_31, slt(add(not(0x03), calldatasize), 0x20))\n      calldataload(0x04)\n      sub(shl(0x40, 0x01), 0x01)\n      dup2\n      gt\n      tag_31\n      jumpi\n      tag_33\n      swap1\n      calldatasize\n      swap1\n      0x04\n      add\n      tag_1\n      jump\t// in\n    tag_33:\n        /* \"contracts/FutarchyBatchExecutor.sol\":2046:2050  this */\n      address\n        /* \"contracts/FutarchyBatchExecutor.sol\":2024:2034  msg.sender */\n      caller\n        /* \"contracts/FutarchyBatchExecutor.sol\":2024:2051  msg.sender != address(this) */\n      sub\n        /* \"contracts/FutarchyBatchExecutor.sol\":2020:2078  if (msg.sender != address(this)) revert InvalidAuthority() */\n      tag_34\n      jumpi\n        /* \"contracts/FutarchyBatchExecutor.sol\":576:6562  contract FutarchyBatchExecutor {... */\n      tag_36\n      dup2\n      tag_7\n      jump\t// in\n    tag_36:\n      swap2\n      tag_37\n      mload(0x40)\n      swap4\n      dup5\n      tag_6\n      jump\t// in\n    tag_37:\n      dup2\n      dup4\n      mstore\n      not(0x1f)\n      tag_38\n      dup4\n      tag_7\n      jump\t// in\n    tag_38:\n      add\n      0x00\n    tag_39:\n      dup2\n      dup2\n      lt\n      tag_40\n      jumpi\n        /* \"contracts/FutarchyBatchExecutor.sol\":2140:2153  uint256 i = 0 */\n      pop\n      pop\n        /* \"contracts/FutarchyBatchExecutor.sol\":576:6562  contract FutarchyBatchExecutor {... */\n      0x00\n        /* \"contracts/FutarchyBatchExecutor.sol\":2155:2171  i < calls.length */\n    tag_42:\n      dup3\n      dup2\n      lt\n      tag_43\n      jumpi\n        /* \"contracts/FutarchyBatchExecutor.sol\":576:6562  contract FutarchyBatchExecutor {... */\n      dup4\n        /* \"contracts/FutarchyBatchExecutor.sol\":2434:2461  BatchExecuted(calls.length) */\n      0xe9cc9bbe7de1cbb097a6357ca3182909488efe8d793e25665befc064a02d10a7\n        /* \"contracts/FutarchyBatchExecutor.sol\":576:6562  contract FutarchyBatchExecutor {... */\n      0x20\n      dup6\n      mload(0x40)\n      swap1\n      dup2\n      mstore\n        /* \"contracts/FutarchyBatchExecutor.sol\":2434:2461  BatchExecuted(calls.length) */\n      log1\n        /* \"contracts/FutarchyBatchExecutor.sol\":576:6562  contract FutarchyBatchExecutor {... */\n      mload(0x40)\n      dup1\n      swap2\n      0x20\n      dup3\n      add\n      0x20\n      dup4\n      mstore\n      dup2\n      mload\n      dup1\n      swap2\n      mstore\n      0x40\n      dup4\n      add\n      swap1\n      0x20\n      0x40\n      dup3\n      0x05\n      shl\n      dup7\n      add\n      add\n      swap4\n      add\n      swap2\n      0x00\n      swap1\n    tag_45:\n      dup3\n      dup3\n      lt\n      tag_46\n      jumpi\n      pop\n      pop\n      pop\n      pop\n      sub\n      swap1\n      return\n    tag_46:\n      swap2\n      swap4\n      0x01\n      swap2\n      swap4\n      swap6\n      pop\n      0x20\n      tag_48\n      dup2\n      swap3\n      not(0x3f)\n      dup11\n      dup3\n      sub\n      add\n      dup7\n      mstore\n      dup9\n      mload\n      tag_3\n      jump\t// in\n    tag_48:\n      swap7\n      add\n      swap3\n      add\n      swap3\n      add\n      dup6\n      swap5\n      swap4\n      swap2\n      swap3\n      jump(tag_45)\n        /* \"contracts/FutarchyBatchExecutor.sol\":2140:2153  uint256 i = 0 */\n    tag_43:\n        /* \"contracts/FutarchyBatchExecutor.sol\":2230:2252  _executeCall(calls[i]) */\n      tag_49\n      tag_50\n        /* \"contracts/FutarchyBatchExecutor.sol\":2243:2251  calls[i] */\n      tag_51\n      dup4\n      dup7\n      dup7\n      tag_8\n      jump\t// in\n    tag_51:\n        /* \"contracts/FutarchyBatchExecutor.sol\":2230:2252  _executeCall(calls[i]) */\n      tag_10\n      jump\t// in\n    tag_50:\n      tag_14\n      jump\t// in\n    tag_49:\n        /* \"contracts/FutarchyBatchExecutor.sol\":2270:2278  !success */\n      swap1\n      iszero\n        /* \"contracts/FutarchyBatchExecutor.sol\":2266:2312  if (!success) revert CallFailed(i, returnData) */\n      tag_52\n      jumpi\n        /* \"contracts/FutarchyBatchExecutor.sol\":2326:2349  results[i] = returnData */\n      swap1\n        /* \"contracts/FutarchyBatchExecutor.sol\":576:6562  contract FutarchyBatchExecutor {... */\n      0x01\n        /* \"contracts/FutarchyBatchExecutor.sol\":2326:2349  results[i] = returnData */\n      swap2\n      tag_54\n      dup3\n      dup8\n      tag_12\n      jump\t// in\n    tag_54:\n      mstore\n      tag_55\n      dup2\n      dup7\n      tag_12\n      jump\t// in\n    tag_55:\n      pop\n        /* \"contracts/FutarchyBatchExecutor.sol\":576:6562  contract FutarchyBatchExecutor {... */\n      add\n        /* \"contracts/FutarchyBatchExecutor.sol\":2140:2153  uint256 i = 0 */\n      jump(tag_42)\n        /* \"contracts/FutarchyBatchExecutor.sol\":2266:2312  if (!success) revert CallFailed(i, returnData) */\n    tag_52:\n        /* \"contracts/FutarchyBatchExecutor.sol\":576:6562  contract FutarchyBatchExecutor {... */\n      mload(0x40)\n      shl(0xe0, 0x5c0dee5d)\n        /* \"contracts/FutarchyBatchExecutor.sol\":2287:2312  CallFailed(i, returnData) */\n      dup2\n      mstore\n        /* \"contracts/FutarchyBatchExecutor.sol\":576:6562  contract FutarchyBatchExecutor {... */\n      swap2\n      dup3\n      swap2\n        /* \"contracts/FutarchyBatchExecutor.sol\":2287:2312  CallFailed(i, returnData) */\n      tag_56\n      swap2\n        /* \"contracts/FutarchyBatchExecutor.sol\":576:6562  contract FutarchyBatchExecutor {... */\n      0x04\n        /* \"contracts/FutarchyBatchExecutor.sol\":2287:2312  CallFailed(i, returnData) */\n      dup5\n      add\n      tag_11\n      jump\t// in\n    tag_56:\n      sub\n      swap1\n      revert\n        /* \"contracts/FutarchyBatchExecutor.sol\":576:6562  contract FutarchyBatchExecutor {... */\n    tag_40:\n      dup1\n      0x60\n      0x20\n      dup1\n      swap4\n      dup9\n      add\n      add\n      mstore\n      add\n      jump(tag_39)\n        /* \"contracts/FutarchyBatchExecutor.sol\":2020:2078  if (msg.sender != address(this)) revert InvalidAuthority() */\n    tag_34:\n        /* \"contracts/FutarchyBatchExecutor.sol\":3004:3022  InvalidAuthority() */\n      shl(0xe1, 0x6f6a1b87)\n        /* \"contracts/FutarchyBatchExecutor.sol\":576:6562  contract FutarchyBatchExecutor {... */\n      0x00\n        /* \"contracts/FutarchyBatchExecutor.sol\":2060:2078  InvalidAuthority() */\n      mstore\n        /* \"contracts/FutarchyBatchExecutor.sol\":576:6562  contract FutarchyBatchExecutor {... */\n      0x04\n      0x00\n        /* \"contracts/FutarchyBatchExecutor.sol\":2060:2078  InvalidAuthority() */\n      revert\n        /* \"contracts/FutarchyBatchExecutor.sol\":576:6562  contract FutarchyBatchExecutor {... */\n    tag_31:\n      0x00\n      dup1\n      revert\n    tag_25:\n      tag_2\n      jump\t// in\n    tag_21:\n      jumpi(tag_31, slt(add(not(0x03), calldatasize), 0x20))\n      calldataload(0x04)\n      sub(shl(0x40, 0x01), 0x01)\n      dup2\n      gt\n      tag_31\n      jumpi\n      tag_61\n      swap1\n      calldatasize\n      swap1\n      0x04\n      add\n      tag_1\n      jump\t// in\n    tag_61:\n        /* \"contracts/FutarchyBatchExecutor.sol\":1554:1558  this */\n      swap1\n      address\n        /* \"contracts/FutarchyBatchExecutor.sol\":1532:1542  msg.sender */\n      caller\n        /* \"contracts/FutarchyBatchExecutor.sol\":1532:1559  msg.sender != address(this) */\n      sub\n        /* \"contracts/FutarchyBatchExecutor.sol\":1528:1586  if (msg.sender != address(this)) revert InvalidAuthority() */\n      tag_34\n      jumpi\n        /* \"contracts/FutarchyBatchExecutor.sol\":576:6562  contract FutarchyBatchExecutor {... */\n      0x00\n        /* \"contracts/FutarchyBatchExecutor.sol\":4682:4698  i < calls.length */\n    tag_64:\n      dup3\n      dup2\n      lt\n      tag_65\n      jumpi\n        /* \"contracts/FutarchyBatchExecutor.sol\":4924:4951  BatchExecuted(calls.length) */\n      0xe9cc9bbe7de1cbb097a6357ca3182909488efe8d793e25665befc064a02d10a7\n        /* \"contracts/FutarchyBatchExecutor.sol\":576:6562  contract FutarchyBatchExecutor {... */\n      0x20\n      dup5\n      mload(0x40)\n      swap1\n      dup2\n      mstore\n        /* \"contracts/FutarchyBatchExecutor.sol\":4924:4951  BatchExecuted(calls.length) */\n      log1\n        /* \"contracts/FutarchyBatchExecutor.sol\":576:6562  contract FutarchyBatchExecutor {... */\n      stop\n        /* \"contracts/FutarchyBatchExecutor.sol\":4667:4680  uint256 i = 0 */\n    tag_65:\n        /* \"contracts/FutarchyBatchExecutor.sol\":4757:4779  _executeCall(calls[i]) */\n      tag_67\n      tag_50\n        /* \"contracts/FutarchyBatchExecutor.sol\":4770:4778  calls[i] */\n      tag_51\n      dup4\n      dup7\n      dup7\n      tag_8\n      jump\t// in\n        /* \"contracts/FutarchyBatchExecutor.sol\":4757:4779  _executeCall(calls[i]) */\n    tag_67:\n        /* \"contracts/FutarchyBatchExecutor.sol\":4797:4805  !success */\n      swap1\n      iszero\n        /* \"contracts/FutarchyBatchExecutor.sol\":4793:4839  if (!success) revert CallFailed(i, returnData) */\n      tag_52\n      jumpi\n        /* \"contracts/FutarchyBatchExecutor.sol\":576:6562  contract FutarchyBatchExecutor {... */\n      pop\n      0x01\n      add\n        /* \"contracts/FutarchyBatchExecutor.sol\":4667:4680  uint256 i = 0 */\n      jump(tag_64)\n        /* \"contracts/FutarchyBatchExecutor.sol\":576:6562  contract FutarchyBatchExecutor {... */\n    tag_19:\n      jumpi(tag_31, callvalue)\n      jumpi(tag_31, slt(add(not(0x03), calldatasize), 0x60))\n      calldataload(0x04)\n      sub(shl(0x40, 0x01), 0x01)\n      dup2\n      gt\n      tag_31\n      jumpi\n      tag_79\n      swap1\n      calldatasize\n      swap1\n      0x04\n      add\n      tag_1\n      jump\t// in\n    tag_79:\n      calldataload(0x24)\n      sub(shl(0x40, 0x01), 0x01)\n      dup2\n      gt\n      tag_31\n      jumpi\n      tag_82\n      swap1\n      calldatasize\n      swap1\n      0x04\n      add\n      tag_1\n      jump\t// in\n    tag_82:\n      swap2\n      swap1\n      swap3\n      calldataload(0x44)\n      sub(shl(0x40, 0x01), 0x01)\n      dup2\n      gt\n      tag_31\n      jumpi\n      tag_85\n      swap1\n      calldatasize\n      swap1\n      0x04\n      add\n      tag_1\n      jump\t// in\n    tag_85:\n        /* \"contracts/FutarchyBatchExecutor.sol\":2990:2994  this */\n      swap3\n      swap1\n      swap3\n      address\n        /* \"contracts/FutarchyBatchExecutor.sol\":2968:2978  msg.sender */\n      caller\n        /* \"contracts/FutarchyBatchExecutor.sol\":2968:2995  msg.sender != address(this) */\n      sub\n        /* \"contracts/FutarchyBatchExecutor.sol\":2964:3022  if (msg.sender != address(this)) revert InvalidAuthority() */\n      tag_34\n      jumpi\n        /* \"contracts/FutarchyBatchExecutor.sol\":3036:3068  tokens.length != spenders.length */\n      dup5\n      dup3\n      eq\n      dup1\n      iszero\n        /* \"contracts/FutarchyBatchExecutor.sol\":3036:3103  tokens.length != spenders.length || tokens.length != amounts.length */\n      swap1\n      tag_88\n      jumpi\n        /* \"contracts/FutarchyBatchExecutor.sol\":576:6562  contract FutarchyBatchExecutor {... */\n    tag_89:\n        /* \"contracts/FutarchyBatchExecutor.sol\":3032:3128  if (tokens.length != spenders.length || tokens.length != amounts.length) revert LengthMismatch() */\n      tag_90\n      jumpi\n        /* \"contracts/FutarchyBatchExecutor.sol\":576:6562  contract FutarchyBatchExecutor {... */\n      0x00\n        /* \"contracts/FutarchyBatchExecutor.sol\":3159:3176  i < tokens.length */\n    tag_92:\n      dup3\n      dup2\n      lt\n      tag_93\n      jumpi\n        /* \"contracts/FutarchyBatchExecutor.sol\":576:6562  contract FutarchyBatchExecutor {... */\n      stop\n        /* \"contracts/FutarchyBatchExecutor.sol\":3144:3157  uint256 i = 0 */\n    tag_93:\n        /* \"contracts/FutarchyBatchExecutor.sol\":3202:3211  tokens[i] */\n      tag_95\n      tag_96\n      dup3\n      dup6\n      dup8\n      tag_4\n      jump\t// in\n    tag_96:\n      tag_5\n      jump\t// in\n    tag_95:\n        /* \"contracts/FutarchyBatchExecutor.sol\":3213:3224  spenders[i] */\n      swap1\n      tag_97\n      tag_96\n      dup3\n      dup10\n      dup12\n      tag_4\n      jump\t// in\n    tag_97:\n        /* \"contracts/FutarchyBatchExecutor.sol\":3226:3236  amounts[i] */\n      tag_99\n      dup3\n      dup6\n      dup10\n      tag_4\n      jump\t// in\n    tag_99:\n        /* \"contracts/FutarchyBatchExecutor.sol\":576:6562  contract FutarchyBatchExecutor {... */\n      calldataload\n      0x00\n      dup1\n      mload(0x40)\n        /* \"contracts/FutarchyBatchExecutor.sol\":5959:6027  abi.encodeWithSignature(\"approve(address,uint256)\", spender, amount) */\n      swap4\n        /* \"contracts/FutarchyBatchExecutor.sol\":576:6562  contract FutarchyBatchExecutor {... */\n      0x20\n        /* \"contracts/FutarchyBatchExecutor.sol\":5959:6027  abi.encodeWithSignature(\"approve(address,uint256)\", spender, amount) */\n      dup6\n      add\n      swap1\n      shl(0xe0, 0x095ea7b3)\n      dup3\n      mstore\n        /* \"contracts/FutarchyBatchExecutor.sol\":576:6562  contract FutarchyBatchExecutor {... */\n      0x01\n      dup1\n      0xa0\n      shl\n      sub\n      and\n        /* \"contracts/FutarchyBatchExecutor.sol\":5959:6027  abi.encodeWithSignature(\"approve(address,uint256)\", spender, amount) */\n      swap5\n      dup6\n        /* \"contracts/FutarchyBatchExecutor.sol\":576:6562  contract FutarchyBatchExecutor {... */\n      0x24\n        /* \"contracts/FutarchyBatchExecutor.sol\":5959:6027  abi.encodeWithSignature(\"approve(address,uint256)\", spender, amount) */\n      dup3\n      add\n        /* \"contracts/FutarchyBatchExecutor.sol\":576:6562  contract FutarchyBatchExecutor {... */\n      mstore\n      dup5\n      0x44\n      dup3\n      add\n      mstore\n      0x44\n        /* \"contracts/FutarchyBatchExecutor.sol\":5959:6027  abi.encodeWithSignature(\"approve(address,uint256)\", spender, amount) */\n      dup2\n      mstore\n      tag_100\n      0x64\n      dup3\n      tag_6\n      jump\t// in\n    tag_100:\n        /* \"contracts/FutarchyBatchExecutor.sol\":6080:6096  token.call(data) */\n      mload\n      swap1\n      dup3\n      dup9\n      gas\n      call\n      tag_101\n      tag_13\n      jump\t// in\n    tag_101:\n        /* \"contracts/FutarchyBatchExecutor.sol\":6110:6118  !success */\n      swap1\n      iszero\n        /* \"contracts/FutarchyBatchExecutor.sol\":6106:6143  if (!success) revert ApprovalFailed() */\n      tag_102\n      jumpi\n        /* \"contracts/FutarchyBatchExecutor.sol\":576:6562  contract FutarchyBatchExecutor {... */\n      dup1\n      mload\n        /* \"contracts/FutarchyBatchExecutor.sol\":6200:6221  returnData.length > 0 */\n      dup1\n        /* \"contracts/FutarchyBatchExecutor.sol\":6196:6290  if (returnData.length > 0) if (!abi.decode(returnData, (bool))) revert ApprovalReturnedFalse() */\n      tag_104\n      jumpi\n        /* \"contracts/FutarchyBatchExecutor.sol\":3144:3157  uint256 i = 0 */\n    tag_105:\n      pop\n      pop\n        /* \"contracts/FutarchyBatchExecutor.sol\":576:6562  contract FutarchyBatchExecutor {... */\n      mload(0x40)\n      swap1\n      dup2\n      mstore\n      0x01\n      swap4\n      sub(shl(0xa0, 0x01), 0x01)\n      and\n      swap1\n        /* \"contracts/FutarchyBatchExecutor.sol\":6306:6341  ApprovalSet(token, spender, amount) */\n      0x831618689250168d97439719454d49da08400cc172d64eac411c802f0e282309\n      swap1\n        /* \"contracts/FutarchyBatchExecutor.sol\":576:6562  contract FutarchyBatchExecutor {... */\n      0x20\n      swap1\n        /* \"contracts/FutarchyBatchExecutor.sol\":6306:6341  ApprovalSet(token, spender, amount) */\n      log3\n        /* \"contracts/FutarchyBatchExecutor.sol\":576:6562  contract FutarchyBatchExecutor {... */\n      add\n        /* \"contracts/FutarchyBatchExecutor.sol\":3144:3157  uint256 i = 0 */\n      jump(tag_92)\n        /* \"contracts/FutarchyBatchExecutor.sol\":6196:6290  if (returnData.length > 0) if (!abi.decode(returnData, (bool))) revert ApprovalReturnedFalse() */\n    tag_104:\n        /* \"contracts/FutarchyBatchExecutor.sol\":6228:6258  abi.decode(returnData, (bool)) */\n      dup2\n        /* \"contracts/FutarchyBatchExecutor.sol\":576:6562  contract FutarchyBatchExecutor {... */\n      0x20\n        /* \"contracts/FutarchyBatchExecutor.sol\":6228:6258  abi.decode(returnData, (bool)) */\n      swap2\n      dup2\n      add\n        /* \"contracts/FutarchyBatchExecutor.sol\":576:6562  contract FutarchyBatchExecutor {... */\n      sub\n      slt\n      tag_31\n      jumpi\n      0x20\n        /* \"contracts/FutarchyBatchExecutor.sol\":6228:6258  abi.decode(returnData, (bool)) */\n      add\n        /* \"contracts/FutarchyBatchExecutor.sol\":576:6562  contract FutarchyBatchExecutor {... */\n      mload\n      dup1\n      iszero\n      swap1\n      dup2\n      iszero\n      sub\n      tag_31\n      jumpi\n        /* \"contracts/FutarchyBatchExecutor.sol\":6223:6290  if (!abi.decode(returnData, (bool))) revert ApprovalReturnedFalse() */\n      tag_110\n      jumpi\n        /* \"contracts/FutarchyBatchExecutor.sol\":6196:6290  if (returnData.length > 0) if (!abi.decode(returnData, (bool))) revert ApprovalReturnedFalse() */\n      dup11\n      dup1\n      jump(tag_105)\n        /* \"contracts/FutarchyBatchExecutor.sol\":6223:6290  if (!abi.decode(returnData, (bool))) revert ApprovalReturnedFalse() */\n    tag_110:\n        /* \"contracts/FutarchyBatchExecutor.sol\":6267:6290  ApprovalReturnedFalse() */\n      shl(0xe1, 0x7a58cf0d)\n        /* \"contracts/FutarchyBatchExecutor.sol\":576:6562  contract FutarchyBatchExecutor {... */\n      0x00\n        /* \"contracts/FutarchyBatchExecutor.sol\":6267:6290  ApprovalReturnedFalse() */\n      mstore\n        /* \"contracts/FutarchyBatchExecutor.sol\":576:6562  contract FutarchyBatchExecutor {... */\n      0x04\n      0x00\n        /* \"contracts/FutarchyBatchExecutor.sol\":6267:6290  ApprovalReturnedFalse() */\n      revert\n        /* \"contracts/FutarchyBatchExecutor.sol\":6106:6143  if (!success) revert ApprovalFailed() */\n    tag_102:\n        /* \"contracts/FutarchyBatchExecutor.sol\":6127:6143  ApprovalFailed() */\n      shl(0xe1, 0x40b27c21)\n        /* \"contracts/FutarchyBatchExecutor.sol\":576:6562  contract FutarchyBatchExecutor {... */\n      0x00\n        /* \"contracts/FutarchyBatchExecutor.sol\":6127:6143  ApprovalFailed() */\n      mstore\n        /* \"contracts/FutarchyBatchExecutor.sol\":576:6562  contract FutarchyBatchExecutor {... */\n      0x04\n      0x00\n        /* \"contracts/FutarchyBatchExecutor.sol\":6127:6143  ApprovalFailed() */\n      revert\n        /* \"contracts/FutarchyBatchExecutor.sol\":3032:3128  if (tokens.length != spenders.length || tokens.length != amounts.length) revert LengthMismatch() */\n    tag_90:\n        /* \"contracts/FutarchyBatchExecutor.sol\":3112:3128  LengthMismatch() */\n      shl(0xe3, 0x1fec6747)\n        /* \"contracts/FutarchyBatchExecutor.sol\":576:6562  contract FutarchyBatchExecutor {... */\n      0x00\n        /* \"contracts/FutarchyBatchExecutor.sol\":3112:3128  LengthMismatch() */\n      mstore\n        /* \"contracts/FutarchyBatchExecutor.sol\":576:6562  contract FutarchyBatchExecutor {... */\n      0x04\n      0x00\n        /* \"contracts/FutarchyBatchExecutor.sol\":3112:3128  LengthMismatch() */\n      revert\n        /* \"contracts/FutarchyBatchExecutor.sol\":3036:3103  tokens.length != spenders.length || tokens.length != amounts.length */\n    tag_88:\n        /* \"contracts/FutarchyBatchExecutor.sol\":3072:3103  tokens.length != amounts.length */\n      pop\n      dup1\n      dup3\n      eq\n      iszero\n        /* \"contracts/FutarchyBatchExecutor.sol\":3036:3103  tokens.length != spenders.length || tokens.length != amounts.length */\n      jump(tag_89)\n        /* \"contracts/FutarchyBatchExecutor.sol\":576:6562  contract FutarchyBatchExecutor {... */\n    tag_1:\n      swap2\n      dup2\n      0x1f\n      dup5\n      add\n      slt\n      iszero\n      tag_31\n      jumpi\n      dup3\n      calldataload\n      swap2\n      sub(shl(0x40, 0x01), 0x01)\n      dup4\n      gt\n      tag_31\n      jumpi\n      0x20\n      dup1\n      dup6\n      add\n      swap5\n      dup5\n      0x05\n      shl\n      add\n      add\n      gt\n      tag_31\n      jumpi\n      jump\t// out\n    tag_2:\n      jumpi(tag_31, slt(add(not(0x03), calldatasize), 0x20))\n      calldataload(0x04)\n      sub(shl(0x40, 0x01), 0x01)\n      dup2\n      gt\n      tag_31\n      jumpi\n      calldatasize\n      0x23\n      dup3\n      add\n      slt\n      iszero\n      tag_31\n      jumpi\n      dup1\n      0x04\n      add\n      calldataload\n      swap1\n      sub(shl(0x40, 0x01), 0x01)\n      dup3\n      gt\n      tag_31\n      jumpi\n      calldatasize\n      0x24\n      dup4\n      dup4\n      add\n      add\n      gt\n      tag_31\n      jumpi\n      pop\n        /* \"contracts/FutarchyBatchExecutor.sol\":4179:4183  this */\n      pop\n      address\n        /* \"contracts/FutarchyBatchExecutor.sol\":4157:4167  msg.sender */\n      caller\n        /* \"contracts/FutarchyBatchExecutor.sol\":4157:4184  msg.sender != address(this) */\n      sub\n        /* \"contracts/FutarchyBatchExecutor.sol\":4153:4211  if (msg.sender != address(this)) revert InvalidAuthority() */\n      tag_34\n      jumpi\n        /* \"contracts/FutarchyBatchExecutor.sol\":576:6562  contract FutarchyBatchExecutor {... */\n      stop\n    tag_3:\n      dup1\n      mload\n      dup1\n      dup4\n      mstore\n      0x20\n      swap3\n      swap2\n      dup2\n      swap1\n      dup5\n      add\n      dup5\n      dup5\n      add\n      mcopy\n      0x00\n      dup3\n      dup3\n      add\n      dup5\n      add\n      mstore\n      0x1f\n      add\n      not(0x1f)\n      and\n      add\n      add\n      swap1\n      jump\t// out\n    tag_4:\n      swap2\n      swap1\n      dup2\n      lt\n      iszero\n      tag_130\n      jumpi\n      0x05\n      shl\n      add\n      swap1\n      jump\t// out\n    tag_130:\n      mstore(0x00, shl(0xe0, 0x4e487b71))\n      mstore(0x04, 0x32)\n      revert(0x00, 0x24)\n    tag_5:\n      calldataload\n      sub(shl(0xa0, 0x01), 0x01)\n      dup2\n      and\n      dup2\n      sub\n      tag_31\n      jumpi\n      swap1\n      jump\t// out\n    tag_6:\n      swap1\n      0x1f\n      dup1\n      not\n      swap2\n      add\n      and\n      dup2\n      add\n      swap1\n      dup2\n      lt\n      sub(shl(0x40, 0x01), 0x01)\n      dup3\n      gt\n      or\n      tag_134\n      jumpi\n      0x40\n      mstore\n      jump\t// out\n    tag_134:\n      mstore(0x00, shl(0xe0, 0x4e487b71))\n      mstore(0x04, 0x41)\n      revert(0x00, 0x24)\n    tag_7:\n      sub(shl(0x40, 0x01), 0x01)\n      dup2\n      gt\n      tag_134\n      jumpi\n      0x05\n      shl\n      0x20\n      add\n      swap1\n      jump\t// out\n    tag_8:\n      swap2\n      swap1\n      dup2\n      lt\n      iszero\n      tag_130\n      jumpi\n      0x05\n      shl\n      dup2\n      add\n      calldataload\n      swap1\n      not(0x5e)\n      dup2\n      calldatasize\n      sub\n      add\n      dup3\n      slt\n      iszero\n      tag_31\n      jumpi\n      add\n      swap1\n      jump\t// out\n    tag_9:\n      sub(shl(0x40, 0x01), 0x01)\n      dup2\n      gt\n      tag_134\n      jumpi\n      0x1f\n      add\n      not(0x1f)\n      and\n      0x20\n      add\n      swap1\n      jump\t// out\n    tag_10:\n      0x60\n      dup2\n      calldatasize\n      sub\n      slt\n      tag_31\n      jumpi\n      mload(0x40)\n      swap1\n      0x60\n      dup3\n      add\n      dup3\n      dup2\n      lt\n      sub(shl(0x40, 0x01), 0x01)\n      dup3\n      gt\n      or\n      tag_134\n      jumpi\n      0x40\n      mstore\n      dup1\n      calldataload\n      sub(shl(0xa0, 0x01), 0x01)\n      dup2\n      and\n      dup2\n      sub\n      tag_31\n      jumpi\n      dup3\n      mstore\n      0x20\n      dup2\n      add\n      calldataload\n      0x20\n      dup4\n      add\n      mstore\n      0x40\n      dup2\n      add\n      calldataload\n      swap1\n      sub(shl(0x40, 0x01), 0x01)\n      dup3\n      gt\n      tag_31\n      jumpi\n      add\n      calldatasize\n      0x1f\n      dup3\n      add\n      slt\n      iszero\n      tag_31\n      jumpi\n      dup1\n      calldataload\n      tag_154\n      dup2\n      tag_9\n      jump\t// in\n    tag_154:\n      swap2\n      tag_155\n      mload(0x40)\n      swap4\n      dup5\n      tag_6\n      jump\t// in\n    tag_155:\n      dup2\n      dup4\n      mstore\n      calldatasize\n      0x20\n      dup4\n      dup4\n      add\n      add\n      gt\n      tag_31\n      jumpi\n      dup2\n      0x00\n      swap3\n      0x20\n      dup1\n      swap4\n      add\n      dup4\n      dup7\n      add\n      calldatacopy\n      dup4\n      add\n      add\n      mstore\n      0x40\n      dup3\n      add\n      mstore\n      swap1\n      jump\t// out\n    tag_11:\n      0x40\n      swap1\n      tag_158\n      swap4\n      swap3\n      dup2\n      mstore\n      dup2\n      0x20\n      dup3\n      add\n      mstore\n      add\n      swap1\n      tag_3\n      jump\t// in\n    tag_158:\n      swap1\n      jump\t// out\n    tag_12:\n      dup1\n      mload\n      dup3\n      lt\n      iszero\n      tag_130\n      jumpi\n      0x20\n      swap2\n      0x05\n      shl\n      add\n      add\n      swap1\n      jump\t// out\n    tag_13:\n      jumpi(tag_161, iszero(returndatasize))\n      returndatasize\n      swap1\n      tag_163\n      dup3\n      tag_9\n      jump\t// in\n    tag_163:\n      swap2\n      tag_164\n      mload(0x40)\n      swap4\n      dup5\n      tag_6\n      jump\t// in\n    tag_164:\n      dup3\n      mstore\n      returndatasize\n      0x00\n      0x20\n      dup5\n      add\n      returndatacopy\n      jump\t// out\n    tag_161:\n      0x60\n      swap1\n      jump\t// out\n        /* \"contracts/FutarchyBatchExecutor.sol\":5183:5608  function _executeCall(Call memory call) internal returns (bool success, bytes memory returnData) {... */\n    tag_14:\n      swap1\n        /* \"contracts/FutarchyBatchExecutor.sol\":5365:5375  call.value */\n      0x20\n      dup3\n      add\n        /* \"contracts/FutarchyBatchExecutor.sol\":576:6562  contract FutarchyBatchExecutor {... */\n      swap1\n      dup2\n      mload\n        /* \"contracts/FutarchyBatchExecutor.sol\":5365:5379  call.value > 0 */\n      dup1\n      iszero\n      iszero\n        /* \"contracts/FutarchyBatchExecutor.sol\":5365:5417  call.value > 0 && address(this).balance < call.value */\n      swap1\n      dup2\n      tag_166\n      jumpi\n        /* \"contracts/FutarchyBatchExecutor.sol\":5183:5608  function _executeCall(Call memory call) internal returns (bool success, bytes memory returnData) {... */\n    tag_167:\n        /* \"contracts/FutarchyBatchExecutor.sol\":5361:5447  if (call.value > 0 && address(this).balance < call.value) revert InsufficientBalance() */\n      pop\n      tag_168\n      jumpi\n        /* \"contracts/FutarchyBatchExecutor.sol\":576:6562  contract FutarchyBatchExecutor {... */\n      0x01\n      dup1\n      0xa0\n      shl\n      sub\n      dup4\n      mload\n      and\n      swap2\n        /* \"contracts/FutarchyBatchExecutor.sol\":5544:5601  CallExecuted(call.target, call.value, call.data, success) */\n      0xd6ccaa80f602e884644c27c8f83689468df0b077a05fb3b05cb6d2e1cb6b859c\n      0x00\n        /* \"contracts/FutarchyBatchExecutor.sol\":576:6562  contract FutarchyBatchExecutor {... */\n      dup1\n      dup4\n      mload\n        /* \"contracts/FutarchyBatchExecutor.sol\":5518:5527  call.data */\n      0x40\n      dup9\n      add\n      swap7\n      dup8\n      mload\n        /* \"contracts/FutarchyBatchExecutor.sol\":5482:5528  call.target.call{value: call.value}(call.data) */\n      swap2\n        /* \"contracts/FutarchyBatchExecutor.sol\":5365:5375  call.value */\n      0x20\n        /* \"contracts/FutarchyBatchExecutor.sol\":5482:5528  call.target.call{value: call.value}(call.data) */\n      dup4\n      mload\n      swap4\n      add\n      swap2\n      gas\n      call\n      tag_170\n      tag_13\n      jump\t// in\n    tag_170:\n        /* \"contracts/FutarchyBatchExecutor.sol\":5458:5528  (success, returnData) = call.target.call{value: call.value}(call.data) */\n      swap5\n      dup2\n        /* \"contracts/FutarchyBatchExecutor.sol\":576:6562  contract FutarchyBatchExecutor {... */\n      swap7\n      0x01\n      dup1\n      0xa0\n      shl\n      sub\n      swap1\n      mload\n      and\n      swap4\n      mload\n        /* \"contracts/FutarchyBatchExecutor.sol\":5582:5591  call.data */\n      swap1\n      mload\n        /* \"contracts/FutarchyBatchExecutor.sol\":576:6562  contract FutarchyBatchExecutor {... */\n      swap2\n      tag_171\n        /* \"contracts/FutarchyBatchExecutor.sol\":5518:5527  call.data */\n      0x40\n        /* \"contracts/FutarchyBatchExecutor.sol\":576:6562  contract FutarchyBatchExecutor {... */\n      mload\n      swap4\n      dup5\n      swap4\n      dup5\n      mstore\n      0x60\n        /* \"contracts/FutarchyBatchExecutor.sol\":5365:5375  call.value */\n      0x20\n        /* \"contracts/FutarchyBatchExecutor.sol\":576:6562  contract FutarchyBatchExecutor {... */\n      dup6\n      add\n      mstore\n      0x60\n      dup5\n      add\n      swap1\n      tag_3\n      jump\t// in\n    tag_171:\n      swap1\n      iszero\n      iszero\n        /* \"contracts/FutarchyBatchExecutor.sol\":5518:5527  call.data */\n      0x40\n        /* \"contracts/FutarchyBatchExecutor.sol\":576:6562  contract FutarchyBatchExecutor {... */\n      dup4\n      add\n      mstore\n        /* \"contracts/FutarchyBatchExecutor.sol\":5544:5601  CallExecuted(call.target, call.value, call.data, success) */\n      sub\n      swap1\n      log2\n        /* \"contracts/FutarchyBatchExecutor.sol\":5183:5608  function _executeCall(Call memory call) internal returns (bool success, bytes memory returnData) {... */\n      jump\t// out\n        /* \"contracts/FutarchyBatchExecutor.sol\":5361:5447  if (call.value > 0 && address(this).balance < call.value) revert InsufficientBalance() */\n    tag_168:\n        /* \"contracts/FutarchyBatchExecutor.sol\":5426:5447  InsufficientBalance() */\n      mstore(0x00, shl(0xe3, 0x1e9acf17))\n      revert(0x00, 0x04)\n        /* \"contracts/FutarchyBatchExecutor.sol\":5365:5417  call.value > 0 && address(this).balance < call.value */\n    tag_166:\n        /* \"contracts/FutarchyBatchExecutor.sol\":5383:5404  address(this).balance */\n      swap1\n      pop\n      selfbalance\n        /* \"contracts/FutarchyBatchExecutor.sol\":5383:5417  address(this).balance < call.value */\n      lt\n        /* \"contracts/FutarchyBatchExecutor.sol\":5365:5417  call.value > 0 && address(this).balance < call.value */\n      0x00\n      jump(tag_167)\n\n    auxdata: 0xa2646970667358221220993e2397614c99d292b70c679539d3263cb61f405003257fc0f15a1bfbcc87ec64736f6c63430008210033\n}\n","methodIdentifiers":{"execute((address,uint256,bytes)[])":"3f707e6b","executeBuyConditional(bytes)":"6de9a38a","executeSellConditional(bytes)":"5c96612d","executeWithResults((address,uint256,bytes)[])":"9f616ef6","setApprovals(address[],address[],uint256[])":"1e86b514"},"id":4}