{"abi":[{"type":"constructor","inputs":[{"name":"_zkVerifier","type":"address","internalType":"address"},{"name":"_paymaster","type":"address","internalType":"address"},{"name":"_providers","type":"address[]","internalType":"address[]"}],"stateMutability":"nonpayable"},{"type":"receive","stateMutability":"payable"},{"type":"function","name":"addFlashloanProvider","inputs":[{"name":"provider","type":"address","internalType":"address"}],"outputs":[],"stateMutability":"nonpayable"},{"type":"function","name":"authorizeTreasuryAccess","inputs":[{"name":"account","type":"address","internalType":"address"}],"outputs":[],"stateMutability":"nonpayable"},{"type":"function","name":"batchResolve","inputs":[{"name":"intentIds","type":"uint256[]","internalType":"uint256[]"},{"name":"solvers","type":"address[]","internalType":"address[]"}],"outputs":[],"stateMutability":"nonpayable"},{"type":"function","name":"checkCompliance","inputs":[{"name":"entity","type":"address","internalType":"address"},{"name":"requiredFlags","type":"uint256","internalType":"uint256"}],"outputs":[{"name":"","type":"bool","internalType":"bool"}],"stateMutability":"view"},{"type":"function","name":"closeAuction","inputs":[{"name":"auctionId","type":"uint256","internalType":"uint256"}],"outputs":[],"stateMutability":"nonpayable"},{"type":"function","name":"commitBid","inputs":[{"name":"auctionId","type":"uint256","internalType":"uint256"},{"name":"commitHash","type":"bytes32","internalType":"bytes32"}],"outputs":[],"stateMutability":"nonpayable"},{"type":"function","name":"depositToTreasury","inputs":[{"name":"token","type":"address","internalType":"address"},{"name":"amount","type":"uint256","internalType":"uint256"}],"outputs":[],"stateMutability":"nonpayable"},{"type":"function","name":"executeFlashloan","inputs":[{"name":"token","type":"address","internalType":"address"},{"name":"amount","type":"uint256","internalType":"uint256"},{"name":"data","type":"bytes","internalType":"bytes"}],"outputs":[],"stateMutability":"nonpayable"},{"type":"function","name":"failoverRoute","inputs":[{"name":"intentId","type":"uint256","internalType":"uint256"},{"name":"venue","type":"address","internalType":"address"}],"outputs":[],"stateMutability":"nonpayable"},{"type":"function","name":"flashloanProviders","inputs":[{"name":"","type":"uint256","internalType":"uint256"}],"outputs":[{"name":"","type":"address","internalType":"address"}],"stateMutability":"view"},{"type":"function","name":"getReputation","inputs":[{"name":"solver","type":"address","internalType":"address"}],"outputs":[{"name":"","type":"int256","internalType":"int256"}],"stateMutability":"view"},{"type":"function","name":"getTopSolversByReputation","inputs":[{"name":"solverList","type":"address[]","internalType":"address[]"},{"name":"topN","type":"uint256","internalType":"uint256"}],"outputs":[{"name":"topSolvers","type":"address[]","internalType":"address[]"}],"stateMutability":"view"},{"type":"function","name":"openAuction","inputs":[{"name":"auctionId","type":"uint256","internalType":"uint256"}],"outputs":[],"stateMutability":"nonpayable"},{"type":"function","name":"owner","inputs":[],"outputs":[{"name":"","type":"address","internalType":"address"}],"stateMutability":"view"},{"type":"function","name":"paymaster","inputs":[],"outputs":[{"name":"","type":"address","internalType":"address"}],"stateMutability":"view"},{"type":"function","name":"resolveIntent","inputs":[{"name":"intentId","type":"uint256","internalType":"uint256"},{"name":"solver","type":"address","internalType":"address"},{"name":"execData","type":"bytes","internalType":"bytes"}],"outputs":[],"stateMutability":"nonpayable"},{"type":"function","name":"revealBid","inputs":[{"name":"auctionId","type":"uint256","internalType":"uint256"},{"name":"value","type":"uint256","internalType":"uint256"},{"name":"salt","type":"bytes32","internalType":"bytes32"}],"outputs":[],"stateMutability":"nonpayable"},{"type":"function","name":"sealExecution","inputs":[{"name":"intentId","type":"uint256","internalType":"uint256"}],"outputs":[{"name":"seal","type":"bytes32","internalType":"bytes32"}],"stateMutability":"view"},{"type":"function","name":"setComplianceFlags","inputs":[{"name":"entity","type":"address","internalType":"address"},{"name":"flags","type":"uint256","internalType":"uint256"}],"outputs":[],"stateMutability":"nonpayable"},{"type":"function","name":"settleAuction","inputs":[{"name":"auctionId","type":"uint256","internalType":"uint256"},{"name":"solvers","type":"address[]","internalType":"address[]"}],"outputs":[{"name":"winner","type":"address","internalType":"address"}],"stateMutability":"nonpayable"},{"type":"function","name":"submitIntent","inputs":[{"name":"intentId","type":"uint256","internalType":"uint256"},{"name":"intentData","type":"bytes","internalType":"bytes"}],"outputs":[],"stateMutability":"nonpayable"},{"type":"function","name":"updatePaymaster","inputs":[{"name":"newPaymaster","type":"address","internalType":"address"}],"outputs":[],"stateMutability":"nonpayable"},{"type":"function","name":"updateReputation","inputs":[{"name":"solver","type":"address","internalType":"address"},{"name":"delta","type":"int256","internalType":"int256"}],"outputs":[],"stateMutability":"nonpayable"},{"type":"function","name":"updateZKVerifier","inputs":[{"name":"newVerifier","type":"address","internalType":"address"}],"outputs":[],"stateMutability":"nonpayable"},{"type":"function","name":"withdrawFromTreasury","inputs":[{"name":"token","type":"address","internalType":"address"},{"name":"amount","type":"uint256","internalType":"uint256"},{"name":"","type":"address","internalType":"address"}],"outputs":[],"stateMutability":"nonpayable"},{"type":"function","name":"zkVerifier","inputs":[],"outputs":[{"name":"","type":"address","internalType":"address"}],"stateMutability":"view"},{"type":"event","name":"AuctionSettled","inputs":[{"name":"auctionId","type":"uint256","indexed":true,"internalType":"uint256"},{"name":"winner","type":"address","indexed":true,"internalType":"address"},{"name":"winningBid","type":"uint256","indexed":false,"internalType":"uint256"}],"anonymous":false},{"type":"event","name":"BatchExecuted","inputs":[{"name":"batchId","type":"uint256","indexed":true,"internalType":"uint256"},{"name":"solvers","type":"address[]","indexed":false,"internalType":"address[]"}],"anonymous":false},{"type":"event","name":"BidCommitted","inputs":[{"name":"auctionId","type":"uint256","indexed":true,"internalType":"uint256"},{"name":"solver","type":"address","indexed":true,"internalType":"address"},{"name":"commitHash","type":"bytes32","indexed":false,"internalType":"bytes32"}],"anonymous":false},{"type":"event","name":"BidRevealed","inputs":[{"name":"auctionId","type":"uint256","indexed":true,"internalType":"uint256"},{"name":"solver","type":"address","indexed":true,"internalType":"address"},{"name":"bidValue","type":"uint256","indexed":false,"internalType":"uint256"}],"anonymous":false},{"type":"event","name":"IntentResolved","inputs":[{"name":"intentId","type":"uint256","indexed":true,"internalType":"uint256"},{"name":"solver","type":"address","indexed":true,"internalType":"address"},{"name":"value","type":"uint256","indexed":false,"internalType":"uint256"}],"anonymous":false},{"type":"event","name":"IntentSubmitted","inputs":[{"name":"intentId","type":"uint256","indexed":true,"internalType":"uint256"},{"name":"submitter","type":"address","indexed":true,"internalType":"address"}],"anonymous":false},{"type":"event","name":"ReputationUpdated","inputs":[{"name":"solver","type":"address","indexed":true,"internalType":"address"},{"name":"delta","type":"int256","indexed":false,"internalType":"int256"}],"anonymous":false},{"type":"event","name":"TreasuryDeposit","inputs":[{"name":"token","type":"address","indexed":true,"internalType":"address"},{"name":"amount","type":"uint256","indexed":false,"internalType":"uint256"},{"name":"logAmount","type":"uint256","indexed":false,"internalType":"uint256"}],"anonymous":false},{"type":"error","name":"AuctionClosed","inputs":[]},{"type":"error","name":"ComplianceViolation","inputs":[]},{"type":"error","name":"ExecutionFailed","inputs":[]},{"type":"error","name":"FlashloanFailed","inputs":[]},{"type":"error","name":"InvalidBid","inputs":[]},{"type":"error","name":"InvalidIntent","inputs":[]},{"type":"error","name":"MEVDetected","inputs":[]},{"type":"error","name":"NonReentrant","inputs":[]},{"type":"error","name":"ReputationSlash","inputs":[]},{"type":"error","name":"Unauthorized","inputs":[]}],"bytecode":{"object":"0x60a06040523461020257611c568038038061001981610206565b9283398101606082820312610202576100318261022b565b9161003e6020820161022b565b604082015190916001600160401b03821161020257019282601f85011215610202578351926001600160401b0384116101d6578360051b946020610083818801610206565b8096815201906020829782010192831161020257602001905b8282106101ea57505060015f8190553360805280546001600160a01b039384166001600160a01b031991821617909155600280549490931693169290921790555051906001600160401b0382116101d6576801000000000000000082116101d657600354826003558083106101ab575b509060035f5260205f20915f5b82811061018e57335f52600b60205260405f20600160ff19825416179055604051611a16908161024082396080518181816101b5015281816109a301528181610bd301528181610c7d01528181610df1015281816113130152818161138d01528181611469015281816114c701526115da0152f35b81516001600160a01b031681850155602090910190600101610119565b60035f52828060205f20019103905f5b8281106101c957505061010c565b5f828201556001016101bb565b634e487b7160e01b5f52604160045260245ffd5b602080916101f78461022b565b81520191019061009c565b5f80fd5b6040519190601f01601f191682016001600160401b038111838210176101d657604052565b51906001600160a01b03821682036102025756fe6080604052600436101561001a575b3615610018575f80fd5b005b5f5f3560e01c806301d38886146115bf578063156e101e1461153d57806316e4cbf9146115155780631edc8f91146114b4578063236ed8f314611456578063268968e514611372578063350a26bf146112f8578063424f84a7146111b65780634c25f93114610f045780634d380a0d14610e3b5780634da98a4014610dd557806358ad27bf14610d915780636a08b51114610c5e578063745a1b2a14610bb75780638bd80fc5146109d25780638da5cb5b1461098d5780639468cb611461090957806397ae02af146105bc5780639c89a0e214610583578063affcdf4b146104dd578063bbbc7b8414610471578063ca2a9d30146103e1578063d00d3b3114610238578063d6df096d1461020f578063daf6a3f6146101995763ed3310bd14610143575061000e565b346101965760403660031901126101965761015c61162a565b6001600160a01b03168152600860205260408120546024359081160361018757602060405160018152f35b6324e31fc560e21b8152600490fd5b80fd5b5034610196576020366003190112610196576101b361162a565b7f00000000000000000000000000000000000000000000000000000000000000006001600160a01b031633036102015760018060a01b03166001600160601b0360a01b600254161760025580f35b6282b42960e81b8252600482fd5b50346101965780600319360112610196576001546040516001600160a01b039091168152602090f35b503461019657604036600319011261019657600435906024356001600160401b0381116103dd5761026d9036906004016116b0565b80939193156103ce57818352600460205260408320906001600160401b0381116103ba5761029b82546117d4565b601f8111610368575b5083601f821160011461030557849582939495926102fa575b50508160011b915f199060031b1c19161790555b33907ffcfc7a08f94642cd2a303de0e0704c8d185e9955dfbead5df60d537176b4f3e88380a380f35b013590505f806102bd565b601f198216958386526020862091865b88811061035057508360019596979810610337575b505050811b0190556102d1565b01355f19600384901b60f8161c191690555f808061032a565b90926020600181928686013581550194019101610315565b818111156102a45782855260208520601f830160051c90602084106103b2575b81601f9101920160051c0390855b8281106103a45750506102a4565b808760019284015501610396565b869150610388565b634e487b7160e01b84526041600452602484fd5b633edae5df60e11b8352600483fd5b5080fd5b5034610196576060366003190112610196576103fb61162a565b60243590610407611656565b50338352600b60205260ff60408420541615610463576001600160a01b0316808352600a60205260408320548211610454578252600a60205261044f604083209182546117c7565b905580f35b632b3f6d1160e21b8352600483fd5b6282b42960e81b8352600483fd5b50346101965760603660031901126101965761048b61162a565b906044356001600160401b0381116103dd576104ab9036906004016116b0565b9060028354146104ce57829360026104c79455602435906118cb565b6001815580f35b6349cb68ab60e11b8352600483fd5b5034610196576020366003190112610196576004358082526005602052604082205460405190602082019283526001600160601b03199060601b16604082015242605482015260548152610532607482611709565b519020801e60ff0360ff811161056f576020925060405190838201928352604082015260408152610564606082611709565b519020604051908152f35b634e487b7160e01b83526011600452602483fd5b5034610196576020366003190112610196576020906040906001600160a01b036105ab61162a565b168152600783522054604051908152f35b5034610196576040366003190112610196576004356024356001600160401b038111610905576105f0903690600401611755565b81835260066020526040832092600184019384549260ff84166108f657610617815161186a565b938396845b83518110156106ce576001600160a01b0361063782866118a9565b511660018060a01b03165f528460205260405f2060ff600282015416156106c4576001015498891e60ff039960ff8b116106b0578a81029a818c041490151760081b156106a3576001919061069961068e826118bd565b9b60081c918a6118a9565b5201965b9661061c565b63ad251c2787526004601cfd5b634e487b7160e01b88526011600452602488fd5b506001019661069d565b508685878a95861561086e576106e38761186a565b835b8881106108d757506106f681611977565b5f198801908882116108c3579061070c916118a9565b5196610718825161186a565b918493855b83811061087d5750505050811561086e57600182111561082a576101006001600160a01b0361074b8361189c565b5116935b8381106107c15750505050602080957fc9f72b276a388619c6d185d146697036241880c36654b1a3ffdad07c24038d9992945b610100600160a81b0319909616600886901b610100600160a81b0316179095556040519485526001600160a01b039390931693849390a3604051908152f35b6107cb81846118a9565b5160405160208101916001600160601b03199060601b168252601481526107f3603482611709565b5190201e828110610808575b5060010161074f565b909450905060016001600160a01b0361082186856118a9565b511694906107ff565b6020967fc9f72b276a388619c6d185d146697036241880c36654b1a3ffdad07c24038d999350879250906001600160a01b03906108669061189c565b511694610782565b63c6388ef760e01b8352600483fd5b808b61088b600193856118a9565b5114610898575b0161071d565b818060a01b036108a882866118a9565b51166108bd6108b6896118bd565b98886118a9565b52610892565b634e487b7160e01b85526011600452602485fd5b806108e4600192866118a9565b516108ef82856118a9565b52016106e5565b6336b6b46d60e01b8352600483fd5b8280fd5b5034610196576040366003190112610196576004356024359080835260066020526040832060ff6001820154161561097e5760018060a01b0333165f526020528160405f20556040519182527f8f88859fb40f8fd203fb728f30d86a47819ece47e647bf37001c2b204d74fd0460203393a380f35b6336b6b46d60e01b8452600484fd5b50346101965780600319360112610196576040517f00000000000000000000000000000000000000000000000000000000000000006001600160a01b03168152602090f35b5034610196576040366003190112610196576004356001600160401b0381116103dd57610a03903690600401611755565b90602435908251808311610baf575b610a1b9061186a565b90805b8451811015610a6b576001906001600160a01b03610a3c82886118a9565b511683526007602052604083205483811315610a64575b610a5d82866118a9565b5201610a1e565b5082610a53565b508391610a78835161186a565b93825b8451811015610a99578080610a92600193896118a9565b5201610a7b565b5090839291610aa782611977565b610ab08161186a565b93610abc8282516117c7565b9284925b808410610b16578686604051918291602083016020845282518091526020604085019301915b818110610af4575050500390f35b82516001600160a01b0316845285945060209384019390920191600101610ae6565b610b2c610b2685879996976117ba565b836118a9565b5191865b8451811015610b9f576001600160a01b03610b4b82876118a9565b51168852600760205283604089205414610b6757600101610b30565b6001929691949597989350610b82838060a01b0391876118a9565b5116610b8e82896118a9565b525b01939594959392919093610ac0565b5092939596915093600190610b90565b915081610a12565b503461019657602036600319011261019657610bd161162a565b7f00000000000000000000000000000000000000000000000000000000000000006001600160a01b031633036102015760035468010000000000000000811015610c4a57806001610c2592016003556116dd565b81546001600160a01b0393841660039290921b91821b9390911b191691909117905580f35b634e487b7160e01b83526041600452602483fd5b503461019657604036600319011261019657610c7861162a565b6024357f00000000000000000000000000000000000000000000000000000000000000006001600160a01b0316330361046357828112908115610d8b57600160ff1b8114610d77578084035b1e60ff0360ff81116108c35781810292600160ff1b8214166108c357818305149015171561056f5761010090059060018060a01b031690818352600760205260408320805490828201918584841291129080158216911516176108c35783927f21b93f5364d09d606ec33450e45ad2e33958e3dac6c4f771ed1218f1eca47db59260209255604051908152a2808252600760205281604081205412610d67575080f35b8152600760205280604081205580f35b634e487b7160e01b84526011600452602484fd5b80610cc4565b50346101965760203660031901126101965760043590600354821015610196576020610dbc836116dd565b905460405160039290921b1c6001600160a01b03168152f35b503461019657604036600319011261019657610def61162a565b7f00000000000000000000000000000000000000000000000000000000000000006001600160a01b03163303610201576001600160a01b03168152600860205260408120602435905580f35b5034610196576060366003190112610196576004356024359080835260066020526040832060ff60018201541661097e57335f90815260209190915260409020600281018054909160ff8216610ef5576040516020810190868252604435604082015260408152610ead606082611709565b519020815403610ef557908460018093015560ff19161790556040519182527f86d2fbc9069d34216ebc65b38ce840528d3f8cac0c86d2aaa7ab6a9db8bc35d360203393a380f35b63c6388ef760e01b8652600486fd5b346111b25760603660031901126111b257600435610f20611640565b906044356001600160401b0381116111b257610f409036906004016116b0565b91909260025f54146111a35760025f5560018060a01b03811693845f526007602052606460405f205412611194575f838152600560205260409020546001600160a01b031661112257621000ae8411611122576001546001600160a01b031680611140575b5060405160208101908482526001600160601b03198460601b16604082015285836054830137610fe86054828881015f838201520301601f198101835282611709565b5190201e60ff0360ff811161110e57606411611131575f918291856040519182378086810184815203915af461101c61180c565b5015611122577fb5c70dfdfecb7cc39b872e9a3360b1e0a9c6a3bf580ee56cd2eb71664ccd857360208493835f526005825260405f20856001600160601b0360a01b825416179055604051908152a3600a1e60ff0360ff811161110e5780600a0290600a82050361110e576101009005815f52600760205260405f20805490828201915f848412911290801582169115161761110e5783927f21b93f5364d09d606ec33450e45ad2e33958e3dac6c4f771ed1218f1eca47db59260209255604051908152a2805f5260076020525f6040812054126110fb575b60015f55005b5f5260076020525f6040812055806110f5565b634e487b7160e01b5f52601160045260245ffd5b632b3f6d1160e21b5f5260045ffd5b63623513eb60e01b5f5260045ffd5b5f80916040516020810190632ae132ff60e11b82526020602482015261117c8161116e604482018c8a61184a565b03601f198101835282611709565b51915afa61118861180c565b50156111225785610fa5565b632f3424c160e01b5f5260045ffd5b6349cb68ab60e11b5f5260045ffd5b5f80fd5b346111b25760403660031901126111b2576004356001600160401b0381116111b2576111e6903690600401611680565b906024356001600160401b0381116111b257611206903690600401611680565b9160025f54146111a3578284036112e95761012c84116111225760405160208101916001600160fb1b0386116111b257602082611256928860051b8091873781010301601f198101835282611709565b5190201e60ff039260ff841161110e575f5b8181106112e157505060405191806020840160208552526040830191905f5b8181106112bb57857f3c7546ea6213d639e7de5c441a4abe5e41931f976097e9e5db39896bc2f648c586860387a260015f55005b909192602080600192838060a01b036112d38861166c565b168152019401929101611287565b600101611268565b633edae5df60e11b5f5260045ffd5b346111b25760203660031901126111b25761131161162a565b7f00000000000000000000000000000000000000000000000000000000000000006001600160a01b03163303611364576001600160a01b03165f908152600b60205260409020805460ff19166001179055005b6282b42960e81b5f5260045ffd5b346111b25760403660031901126111b25761138b611640565b7f00000000000000000000000000000000000000000000000000000000000000006001600160a01b03163303611364576004355f52600460205260405f2090604051915f908054906113dc826117d4565b916001811690811561143f575060011461140d575b505090825f93849303915af461140561180c565b501561112257005b9091505f5260205f205f905b82821061142b5750508201825f6113f1565b600181602092548488015201910190611419565b60ff1916865250508015150283019050825f6113f1565b346111b25760203660031901126111b2577f00000000000000000000000000000000000000000000000000000000000000006001600160a01b03163303611364576004355f908152600660205260409020600101805460ff19169055005b346111b25760203660031901126111b2577f00000000000000000000000000000000000000000000000000000000000000006001600160a01b03163303611364576004355f526006602052600160405f2001600160ff198254161790555f80f35b346111b2575f3660031901126111b2576002546040516001600160a01b039091168152602090f35b346111b25760403660031901126111b25761155661162a565b6001600160a01b03165f818152600a602052604090208054602435919061157e9083906117ba565b9055801e60ff0360ff811161110e577fb68e8301ad7468a283824a6592dd711e09b95af56caa96757e636a4a8588bf299160409182519182526020820152a2005b346111b25760203660031901126111b2576115d861162a565b7f00000000000000000000000000000000000000000000000000000000000000006001600160a01b0316330361136457600180546001600160a01b0319166001600160a01b0392909216919091179055005b600435906001600160a01b03821682036111b257565b602435906001600160a01b03821682036111b257565b604435906001600160a01b03821682036111b257565b35906001600160a01b03821682036111b257565b9181601f840112156111b2578235916001600160401b0383116111b2576020808501948460051b0101116111b257565b9181601f840112156111b2578235916001600160401b0383116111b257602083818601950101116111b257565b6003548110156116f55760035f5260205f2001905f90565b634e487b7160e01b5f52603260045260245ffd5b90601f801991011681019081106001600160401b0382111761172a57604052565b634e487b7160e01b5f52604160045260245ffd5b6001600160401b03811161172a5760051b60200190565b9080601f830112156111b257813561176c8161173e565b9261177a6040519485611709565b81845260208085019260051b8201019283116111b257602001905b8282106117a25750505090565b602080916117af8461166c565b815201910190611795565b9190820180921161110e57565b9190820391821161110e57565b90600182811c92168015611802575b60208310146117ee57565b634e487b7160e01b5f52602260045260245ffd5b91607f16916117e3565b3d15611845573d906001600160401b03821161172a576040519161183a601f8201601f191660200184611709565b82523d5f602084013e565b606090565b908060209392818452848401375f828201840152601f01601f1916010190565b906118748261173e565b6118816040519182611709565b8281528092611892601f199161173e565b0190602036910137565b8051156116f55760200190565b80518210156116f55760209160051b010190565b5f19811461110e5760010190565b929091821e60ff0360ff811161110e57600a11611968575f5b600354811015611968575f806118f9836116dd565b60018060a01b0391549060031b1c1660405182602082019163701195a160e11b835260018060a01b038b166024820152896044820152606060648201526119488161116e608482018c8c61184a565b51925af161195461180c565b50611961576001016118e4565b5050505050565b6301fabd5b60e71b5f5260045ffd5b8051905f81528160051b81019260208201935b60208501918183116119d9578251958051878111156119cc575b6020820152601f190180518781116119a457506020909691949295939601525b91909261198a565b50509290939194506119c4565b945050505256fea26469706673582212209e6575a39d2b4fbadafaf52ace7842bf7a9b49b67e788c3301f4c67f7d40d70d64736f6c63430008210033","linkReferences":{}},"assembly":"    /* \"contracts/InstitutionalSolverSystem.sol\":572:15637  contract InstitutionalSolverSystem {... */\n  mstore(0x40, 0xa0)\n  jumpi(tag_17, callvalue)\n  bytecodeSize\n  dup1\n  codesize\n  sub\n  dup1\n  tag_5\n  dup2\n  tag_1\n  jump\t// in\ntag_5:\n  swap3\n  dup4\n  codecopy\n  dup2\n  add\n  0x60\n  dup3\n  dup3\n  sub\n  slt\n  tag_17\n  jumpi\n  tag_8\n  dup3\n  tag_2\n  jump\t// in\ntag_8:\n  swap2\n  tag_9\n  0x20\n  dup3\n  add\n  tag_2\n  jump\t// in\ntag_9:\n  0x40\n  dup3\n  add\n  mload\n  swap1\n  swap2\n  sub(shl(0x40, 0x01), 0x01)\n  dup3\n  gt\n  tag_17\n  jumpi\n  add\n  swap3\n  dup3\n  0x1f\n  dup6\n  add\n  slt\n  iszero\n  tag_17\n  jumpi\n  dup4\n  mload\n  swap3\n  sub(shl(0x40, 0x01), 0x01)\n  dup5\n  gt\n  tag_24\n  jumpi\n  dup4\n  0x05\n  shl\n  swap5\n  0x20\n  tag_16\n  dup2\n  dup9\n  add\n  tag_1\n  jump\t// in\ntag_16:\n  dup1\n  swap7\n  dup2\n  mstore\n  add\n  swap1\n  0x20\n  dup3\n  swap8\n  dup3\n  add\n  add\n  swap3\n  dup4\n  gt\n  tag_17\n  jumpi\n  0x20\n  add\n  swap1\ntag_19:\n  dup3\n  dup3\n  lt\n  tag_20\n  jumpi\n  pop\n  pop\n    /* \"contracts/InstitutionalSolverSystem.sol\":1843:1844  1 */\n  0x01\n  0x00\n    /* \"contracts/InstitutionalSolverSystem.sol\":572:15637  contract InstitutionalSolverSystem {... */\n  dup2\n  swap1\n  sstore\n    /* \"contracts/InstitutionalSolverSystem.sol\":3435:3445  msg.sender */\n  caller\n    /* \"contracts/InstitutionalSolverSystem.sol\":3427:3445  owner = msg.sender */\n  0x80\n  mstore\n    /* \"contracts/InstitutionalSolverSystem.sol\":572:15637  contract InstitutionalSolverSystem {... */\n  dup1\n  sload\n  sub(shl(0xa0, 0x01), 0x01)\n  swap4\n  dup5\n  and\n  not(sub(shl(0xa0, 0x01), 0x01))\n  swap2\n  dup3\n  and\n  or\n  swap1\n  swap2\n  sstore\n    /* \"contracts/InstitutionalSolverSystem.sol\":3489:3511  paymaster = _paymaster */\n  0x02\n    /* \"contracts/InstitutionalSolverSystem.sol\":572:15637  contract InstitutionalSolverSystem {... */\n  dup1\n  sload\n  swap5\n  swap1\n  swap4\n  and\n  swap4\n  and\n  swap3\n  swap1\n  swap3\n  or\n  swap1\n  sstore\n  pop\n  mload\n  swap1\n  sub(shl(0x40, 0x01), 0x01)\n  dup3\n  gt\n  tag_24\n  jumpi\n  0x010000000000000000\n  dup3\n  gt\n  tag_24\n  jumpi\n    /* \"contracts/InstitutionalSolverSystem.sol\":3521:3552  flashloanProviders = _providers */\n  0x03\n    /* \"contracts/InstitutionalSolverSystem.sol\":572:15637  contract InstitutionalSolverSystem {... */\n  sload\n  dup3\n    /* \"contracts/InstitutionalSolverSystem.sol\":3521:3552  flashloanProviders = _providers */\n  0x03\n    /* \"contracts/InstitutionalSolverSystem.sol\":572:15637  contract InstitutionalSolverSystem {... */\n  sstore\n  dup1\n  dup4\n  lt\n  tag_26\n  jumpi\ntag_27:\n  pop\n  swap1\n    /* \"contracts/InstitutionalSolverSystem.sol\":3521:3552  flashloanProviders = _providers */\n  0x03\n  0x00\n    /* \"contracts/InstitutionalSolverSystem.sol\":572:15637  contract InstitutionalSolverSystem {... */\n  mstore\n  keccak256(0x00, 0x20)\n  swap2\n  0x00\ntag_28:\n  dup3\n  dup2\n  lt\n  tag_29\n  jumpi\n    /* \"contracts/InstitutionalSolverSystem.sol\":3435:3445  msg.sender */\n  caller\n  0x00\n    /* \"contracts/InstitutionalSolverSystem.sol\":572:15637  contract InstitutionalSolverSystem {... */\n  mstore\n    /* \"contracts/InstitutionalSolverSystem.sol\":3562:3580  treasuryAuthorized */\n  0x0b\n    /* \"contracts/InstitutionalSolverSystem.sol\":572:15637  contract InstitutionalSolverSystem {... */\n  0x20\n  mstore\n  keccak256(0x00, 0x40)\n    /* \"contracts/InstitutionalSolverSystem.sol\":1843:1844  1 */\n  0x01\n    /* \"contracts/InstitutionalSolverSystem.sol\":572:15637  contract InstitutionalSolverSystem {... */\n  not(0xff)\n  dup3\n  sload\n  and\n  or\n  swap1\n  sstore\n  mload(0x40)\n  dataSize(sub_0)\n  swap1\n  dup2\n  dataOffset(sub_0)\n  dup3\n  codecopy\n    /* \"contracts/InstitutionalSolverSystem.sol\":3427:3445  owner = msg.sender */\n  0x80\n    /* \"contracts/InstitutionalSolverSystem.sol\":572:15637  contract InstitutionalSolverSystem {... */\n  mload\n  dup2\n  assignImmutable(\"0x71e5aa733ba7f8a0c5bcd527844c36ca3be5207ad50dafbb495a9ddba4e4ae54\")\n  return\ntag_29:\n  dup2\n  mload\n  sub(shl(0xa0, 0x01), 0x01)\n  and\n  dup2\n  dup6\n  add\n  sstore\n  0x20\n  swap1\n  swap2\n  add\n  swap1\n    /* \"contracts/InstitutionalSolverSystem.sol\":1843:1844  1 */\n  0x01\n    /* \"contracts/InstitutionalSolverSystem.sol\":572:15637  contract InstitutionalSolverSystem {... */\n  add\n  jump(tag_28)\ntag_26:\n    /* \"contracts/InstitutionalSolverSystem.sol\":3521:3552  flashloanProviders = _providers */\n  0x03\n  0x00\n    /* \"contracts/InstitutionalSolverSystem.sol\":572:15637  contract InstitutionalSolverSystem {... */\n  mstore\n  dup3\n  dup1\n  keccak256(0x00, 0x20)\n  add\n  swap2\n  sub\n  swap1\n  0x00\ntag_31:\n  dup3\n  dup2\n  lt\n  tag_32\n  jumpi\n  pop\n  pop\n  jump(tag_27)\ntag_32:\n  0x00\n  dup3\n  dup3\n  add\n  sstore\n    /* \"contracts/InstitutionalSolverSystem.sol\":1843:1844  1 */\n  0x01\n    /* \"contracts/InstitutionalSolverSystem.sol\":572:15637  contract InstitutionalSolverSystem {... */\n  add\n  jump(tag_31)\ntag_24:\n  mstore(0x00, shl(0xe0, 0x4e487b71))\n  mstore(0x04, 0x41)\n  revert(0x00, 0x24)\ntag_20:\n  0x20\n  dup1\n  swap2\n  tag_34\n  dup5\n  tag_2\n  jump\t// in\ntag_34:\n  dup2\n  mstore\n  add\n  swap2\n  add\n  swap1\n  jump(tag_19)\ntag_17:\n  0x00\n  dup1\n  revert\ntag_1:\n  mload(0x40)\n  swap2\n  swap1\n  0x1f\n  add\n  not(0x1f)\n  and\n  dup3\n  add\n  sub(shl(0x40, 0x01), 0x01)\n  dup2\n  gt\n  dup4\n  dup3\n  lt\n  or\n  tag_24\n  jumpi\n  0x40\n  mstore\n  jump\t// out\ntag_2:\n  mload\n  swap1\n  sub(shl(0xa0, 0x01), 0x01)\n  dup3\n  and\n  dup3\n  sub\n  tag_17\n  jumpi\n  jump\t// out\nstop\n\nsub_0: assembly {\n        /* \"contracts/InstitutionalSolverSystem.sol\":572:15637  contract InstitutionalSolverSystem {... */\n      mstore(0x40, 0x80)\n      jumpi(tag_22, iszero(lt(calldatasize, 0x04)))\n    tag_23:\n      jumpi(tag_24, iszero(calldatasize))\n      0x00\n      dup1\n      revert\n    tag_24:\n      stop\n    tag_22:\n      0x00\n      shr(0xe0, calldataload(0x00))\n      dup1\n      0x01d38886\n      eq\n      tag_26\n      jumpi\n      dup1\n      0x156e101e\n      eq\n      tag_28\n      jumpi\n      dup1\n      0x16e4cbf9\n      eq\n      tag_30\n      jumpi\n      dup1\n      0x1edc8f91\n      eq\n      tag_32\n      jumpi\n      dup1\n      0x236ed8f3\n      eq\n      tag_34\n      jumpi\n      dup1\n      0x268968e5\n      eq\n      tag_36\n      jumpi\n      dup1\n      0x350a26bf\n      eq\n      tag_38\n      jumpi\n      dup1\n      0x424f84a7\n      eq\n      tag_40\n      jumpi\n      dup1\n      0x4c25f931\n      eq\n      tag_42\n      jumpi\n      dup1\n      0x4d380a0d\n      eq\n      tag_44\n      jumpi\n      dup1\n      0x4da98a40\n      eq\n      tag_46\n      jumpi\n      dup1\n      0x58ad27bf\n      eq\n      tag_48\n      jumpi\n      dup1\n      0x6a08b511\n      eq\n      tag_50\n      jumpi\n      dup1\n      0x745a1b2a\n      eq\n      tag_52\n      jumpi\n      dup1\n      0x8bd80fc5\n      eq\n      tag_54\n      jumpi\n      dup1\n      0x8da5cb5b\n      eq\n      tag_56\n      jumpi\n      dup1\n      0x9468cb61\n      eq\n      tag_58\n      jumpi\n      dup1\n      0x97ae02af\n      eq\n      tag_60\n      jumpi\n      dup1\n      0x9c89a0e2\n      eq\n      tag_62\n      jumpi\n      dup1\n      0xaffcdf4b\n      eq\n      tag_64\n      jumpi\n      dup1\n      0xbbbc7b84\n      eq\n      tag_66\n      jumpi\n      dup1\n      0xca2a9d30\n      eq\n      tag_68\n      jumpi\n      dup1\n      0xd00d3b31\n      eq\n      tag_70\n      jumpi\n      dup1\n      0xd6df096d\n      eq\n      tag_72\n      jumpi\n      dup1\n      0xdaf6a3f6\n      eq\n      tag_74\n      jumpi\n      0xed3310bd\n      eq\n      tag_76\n      jumpi\n      pop\n      jump(tag_23)\n    tag_76:\n      jumpi(tag_80, callvalue)\n      jumpi(tag_80, slt(add(not(0x03), calldatasize), 0x40))\n      tag_82\n      tag_1\n      jump\t// in\n    tag_82:\n      sub(shl(0xa0, 0x01), 0x01)\n      and\n      dup2\n      mstore\n        /* \"contracts/InstitutionalSolverSystem.sol\":11496:11511  complianceFlags */\n      0x08\n        /* \"contracts/InstitutionalSolverSystem.sol\":572:15637  contract InstitutionalSolverSystem {... */\n      0x20\n      mstore\n      0x40\n      dup2\n      keccak256\n      sload\n      calldataload(0x24)\n        /* \"contracts/InstitutionalSolverSystem.sol\":11534:11555  flags & requiredFlags */\n      swap1\n      dup2\n      and\n        /* \"contracts/InstitutionalSolverSystem.sol\":11533:11573  (flags & requiredFlags) != requiredFlags */\n      sub\n        /* \"contracts/InstitutionalSolverSystem.sol\":11529:11603  if ((flags & requiredFlags) != requiredFlags) revert ComplianceViolation() */\n      tag_83\n      jumpi\n        /* \"contracts/InstitutionalSolverSystem.sol\":572:15637  contract InstitutionalSolverSystem {... */\n      0x20\n      mload(0x40)\n      0x01\n      dup2\n      mstore\n      return\n        /* \"contracts/InstitutionalSolverSystem.sol\":11529:11603  if ((flags & requiredFlags) != requiredFlags) revert ComplianceViolation() */\n    tag_83:\n      shl(0xe2, 0x24e31fc5)\n        /* \"contracts/InstitutionalSolverSystem.sol\":11582:11603  ComplianceViolation() */\n      dup2\n      mstore\n        /* \"contracts/InstitutionalSolverSystem.sol\":572:15637  contract InstitutionalSolverSystem {... */\n      0x04\n      swap1\n        /* \"contracts/InstitutionalSolverSystem.sol\":11582:11603  ComplianceViolation() */\n      revert\n        /* \"contracts/InstitutionalSolverSystem.sol\":572:15637  contract InstitutionalSolverSystem {... */\n    tag_80:\n      dup1\n      revert\n    tag_74:\n      pop\n      jumpi(tag_80, callvalue)\n      jumpi(tag_80, slt(add(not(0x03), calldatasize), 0x20))\n      tag_89\n      tag_1\n      jump\t// in\n    tag_89:\n        /* \"contracts/InstitutionalSolverSystem.sol\":3075:3080  owner */\n      immutable(\"0x71e5aa733ba7f8a0c5bcd527844c36ca3be5207ad50dafbb495a9ddba4e4ae54\")\n      sub(shl(0xa0, 0x01), 0x01)\n        /* \"contracts/InstitutionalSolverSystem.sol\":572:15637  contract InstitutionalSolverSystem {... */\n      and\n        /* \"contracts/InstitutionalSolverSystem.sol\":3061:3071  msg.sender */\n      caller\n        /* \"contracts/InstitutionalSolverSystem.sol\":3061:3080  msg.sender != owner */\n      sub\n        /* \"contracts/InstitutionalSolverSystem.sol\":3057:3103  if (msg.sender != owner) revert Unauthorized() */\n      tag_90\n      jumpi\n        /* \"contracts/InstitutionalSolverSystem.sol\":572:15637  contract InstitutionalSolverSystem {... */\n      0x01\n      dup1\n      0xa0\n      shl\n      sub\n      and\n      shl(0xa0, sub(shl(0x60, 0x01), 0x01))\n        /* \"contracts/InstitutionalSolverSystem.sol\":13307:13331  paymaster = newPaymaster */\n      0x02\n        /* \"contracts/InstitutionalSolverSystem.sol\":572:15637  contract InstitutionalSolverSystem {... */\n      sload\n      and\n      or\n        /* \"contracts/InstitutionalSolverSystem.sol\":13307:13331  paymaster = newPaymaster */\n      0x02\n        /* \"contracts/InstitutionalSolverSystem.sol\":572:15637  contract InstitutionalSolverSystem {... */\n      sstore\n      dup1\n      return\n        /* \"contracts/InstitutionalSolverSystem.sol\":3057:3103  if (msg.sender != owner) revert Unauthorized() */\n    tag_90:\n      shl(0xe8, 0x82b429)\n        /* \"contracts/InstitutionalSolverSystem.sol\":3089:3103  Unauthorized() */\n      dup3\n      mstore\n        /* \"contracts/InstitutionalSolverSystem.sol\":572:15637  contract InstitutionalSolverSystem {... */\n      0x04\n        /* \"contracts/InstitutionalSolverSystem.sol\":3089:3103  Unauthorized() */\n      dup3\n      revert\n        /* \"contracts/InstitutionalSolverSystem.sol\":572:15637  contract InstitutionalSolverSystem {... */\n    tag_72:\n      pop\n      jumpi(tag_80, callvalue)\n      dup1\n      add(calldatasize, not(0x03))\n      slt\n      tag_80\n      jumpi\n      sload(0x01)\n      mload(0x40)\n      sub(shl(0xa0, 0x01), 0x01)\n      swap1\n      swap2\n      and\n      dup2\n      mstore\n      0x20\n      swap1\n      return\n    tag_70:\n      pop\n      jumpi(tag_80, callvalue)\n      jumpi(tag_80, slt(add(not(0x03), calldatasize), 0x40))\n      calldataload(0x04)\n      swap1\n      calldataload(0x24)\n      sub(shl(0x40, 0x01), 0x01)\n      dup2\n      gt\n      tag_100\n      jumpi\n      tag_102\n      swap1\n      calldatasize\n      swap1\n      0x04\n      add\n      tag_6\n      jump\t// in\n    tag_102:\n        /* \"contracts/InstitutionalSolverSystem.sol\":3754:3776  intentData.length == 0 */\n      dup1\n      swap4\n      swap2\n      swap4\n      iszero\n        /* \"contracts/InstitutionalSolverSystem.sol\":3750:3800  if (intentData.length == 0) revert InvalidIntent() */\n      tag_103\n      jumpi\n        /* \"contracts/InstitutionalSolverSystem.sol\":572:15637  contract InstitutionalSolverSystem {... */\n      dup2\n      dup4\n      mstore\n      mstore(0x20, 0x04)\n      0x40\n      dup4\n      keccak256\n      swap1\n      sub(shl(0x40, 0x01), 0x01)\n      dup2\n      gt\n      tag_105\n      jumpi\n      tag_107\n      dup3\n      sload\n      tag_13\n      jump\t// in\n    tag_107:\n      0x1f\n      dup2\n      gt\n      tag_108\n      jumpi\n    tag_109:\n      pop\n      dup4\n      0x1f\n      dup3\n      gt\n      0x01\n      eq\n      tag_110\n      jumpi\n      dup5\n      swap6\n      dup3\n      swap4\n      swap5\n      swap6\n      swap3\n      tag_112\n      jumpi\n    tag_113:\n      pop\n      pop\n      dup2\n      0x01\n      shl\n      swap2\n      not(0x00)\n      swap1\n      0x03\n      shl\n      shr\n      not\n      and\n      or\n      swap1\n      sstore\n    tag_114:\n        /* \"contracts/InstitutionalSolverSystem.sol\":3881:3891  msg.sender */\n      caller\n        /* \"contracts/InstitutionalSolverSystem.sol\":3855:3892  IntentSubmitted(intentId, msg.sender) */\n      swap1\n      0xfcfc7a08f94642cd2a303de0e0704c8d185e9955dfbead5df60d537176b4f3e8\n      dup4\n      dup1\n      log3\n        /* \"contracts/InstitutionalSolverSystem.sol\":572:15637  contract InstitutionalSolverSystem {... */\n      dup1\n      return\n    tag_112:\n      add\n      calldataload\n      swap1\n      pop\n      0x00\n      dup1\n      jump(tag_113)\n    tag_110:\n        /* \"contracts/InstitutionalSolverSystem.sol\":5441:5468  abi.encodePacked(intentIds) */\n      not(0x1f)\n        /* \"contracts/InstitutionalSolverSystem.sol\":572:15637  contract InstitutionalSolverSystem {... */\n      dup3\n      and\n      swap6\n      dup4\n      dup7\n      mstore\n      0x20\n      dup7\n      keccak256\n      swap2\n      dup7\n    tag_115:\n      dup9\n      dup2\n      lt\n      tag_116\n      jumpi\n      pop\n      dup4\n      0x01\n      swap6\n      swap7\n      swap8\n      swap9\n      lt\n      tag_118\n      jumpi\n    tag_119:\n      pop\n      pop\n      pop\n      dup2\n      shl\n      add\n      swap1\n      sstore\n      jump(tag_114)\n    tag_118:\n      add\n      calldataload\n      not(0x00)\n      0x03\n      dup5\n      swap1\n      shl\n      0xf8\n      and\n      shr\n      not\n      and\n      swap1\n      sstore\n      0x00\n      dup1\n      dup1\n      jump(tag_119)\n    tag_116:\n      swap1\n      swap3\n      0x20\n      0x01\n      dup2\n      swap3\n      dup7\n      dup7\n      add\n      calldataload\n      dup2\n      sstore\n      add\n      swap5\n      add\n      swap2\n      add\n      jump(tag_115)\n    tag_108:\n      dup2\n      dup2\n      gt\n      iszero\n      tag_109\n      jumpi\n      dup3\n      dup6\n      mstore\n      0x20\n      dup6\n      keccak256\n      0x1f\n      dup4\n      add\n      0x05\n      shr\n      swap1\n      0x20\n      dup5\n      lt\n      tag_122\n      jumpi\n    tag_123:\n      dup2\n      0x1f\n      swap2\n      add\n      swap3\n      add\n      0x05\n      shr\n      sub\n      swap1\n      dup6\n    tag_124:\n      dup3\n      dup2\n      lt\n      tag_125\n      jumpi\n      pop\n      pop\n      jump(tag_109)\n    tag_125:\n      dup1\n      dup8\n      0x01\n      swap3\n      dup5\n      add\n      sstore\n      add\n      jump(tag_124)\n    tag_122:\n      dup7\n      swap2\n      pop\n      jump(tag_123)\n    tag_105:\n      shl(0xe0, 0x4e487b71)\n      dup5\n      mstore\n      mstore(0x04, 0x41)\n      0x24\n      dup5\n      revert\n        /* \"contracts/InstitutionalSolverSystem.sol\":3750:3800  if (intentData.length == 0) revert InvalidIntent() */\n    tag_103:\n      shl(0xe1, 0x3edae5df)\n        /* \"contracts/InstitutionalSolverSystem.sol\":3785:3800  InvalidIntent() */\n      dup4\n      mstore\n        /* \"contracts/InstitutionalSolverSystem.sol\":572:15637  contract InstitutionalSolverSystem {... */\n      0x04\n        /* \"contracts/InstitutionalSolverSystem.sol\":5311:5326  InvalidIntent() */\n      dup4\n        /* \"contracts/InstitutionalSolverSystem.sol\":3785:3800  InvalidIntent() */\n      revert\n        /* \"contracts/InstitutionalSolverSystem.sol\":572:15637  contract InstitutionalSolverSystem {... */\n    tag_100:\n      pop\n      dup1\n      revert\n    tag_68:\n      pop\n      jumpi(tag_80, callvalue)\n      jumpi(tag_80, slt(add(not(0x03), calldatasize), 0x60))\n      tag_131\n      tag_1\n      jump\t// in\n    tag_131:\n      calldataload(0x24)\n      swap1\n      tag_132\n      tag_3\n      jump\t// in\n    tag_132:\n      pop\n        /* \"contracts/InstitutionalSolverSystem.sol\":12145:12155  msg.sender */\n      caller\n        /* \"contracts/InstitutionalSolverSystem.sol\":572:15637  contract InstitutionalSolverSystem {... */\n      dup4\n      mstore\n        /* \"contracts/InstitutionalSolverSystem.sol\":12126:12144  treasuryAuthorized */\n      0x0b\n        /* \"contracts/InstitutionalSolverSystem.sol\":572:15637  contract InstitutionalSolverSystem {... */\n      0x20\n      mstore\n      0xff\n      0x40\n      dup5\n      keccak256\n      sload\n      and\n        /* \"contracts/InstitutionalSolverSystem.sol\":12125:12156  !treasuryAuthorized[msg.sender] */\n      iszero\n        /* \"contracts/InstitutionalSolverSystem.sol\":12121:12179  if (!treasuryAuthorized[msg.sender]) revert Unauthorized() */\n      tag_133\n      jumpi\n      sub(shl(0xa0, 0x01), 0x01)\n        /* \"contracts/InstitutionalSolverSystem.sol\":572:15637  contract InstitutionalSolverSystem {... */\n      and\n      dup1\n      dup4\n      mstore\n        /* \"contracts/InstitutionalSolverSystem.sol\":12193:12209  treasuryBalances */\n      0x0a\n        /* \"contracts/InstitutionalSolverSystem.sol\":572:15637  contract InstitutionalSolverSystem {... */\n      0x20\n      mstore\n      0x40\n      dup4\n      keccak256\n      sload\n        /* \"contracts/InstitutionalSolverSystem.sol\":12193:12225  treasuryBalances[token] < amount */\n      dup3\n      gt\n        /* \"contracts/InstitutionalSolverSystem.sol\":12189:12251  if (treasuryBalances[token] < amount) revert ExecutionFailed() */\n      tag_135\n      jumpi\n        /* \"contracts/InstitutionalSolverSystem.sol\":572:15637  contract InstitutionalSolverSystem {... */\n      dup3\n      mstore\n        /* \"contracts/InstitutionalSolverSystem.sol\":12193:12209  treasuryBalances */\n      0x0a\n        /* \"contracts/InstitutionalSolverSystem.sol\":572:15637  contract InstitutionalSolverSystem {... */\n      0x20\n      mstore\n        /* \"contracts/InstitutionalSolverSystem.sol\":12262:12295  treasuryBalances[token] -= amount */\n      tag_137\n        /* \"contracts/InstitutionalSolverSystem.sol\":572:15637  contract InstitutionalSolverSystem {... */\n      0x40\n      dup4\n      keccak256\n      swap2\n      dup3\n      sload\n        /* \"contracts/InstitutionalSolverSystem.sol\":12262:12295  treasuryBalances[token] -= amount */\n      tag_12\n      jump\t// in\n    tag_137:\n        /* \"contracts/InstitutionalSolverSystem.sol\":572:15637  contract InstitutionalSolverSystem {... */\n      swap1\n      sstore\n      dup1\n      return\n        /* \"contracts/InstitutionalSolverSystem.sol\":12189:12251  if (treasuryBalances[token] < amount) revert ExecutionFailed() */\n    tag_135:\n      shl(0xe2, 0x2b3f6d11)\n        /* \"contracts/InstitutionalSolverSystem.sol\":12234:12251  ExecutionFailed() */\n      dup4\n      mstore\n        /* \"contracts/InstitutionalSolverSystem.sol\":572:15637  contract InstitutionalSolverSystem {... */\n      0x04\n        /* \"contracts/InstitutionalSolverSystem.sol\":13038:13055  ExecutionFailed() */\n      dup4\n        /* \"contracts/InstitutionalSolverSystem.sol\":12234:12251  ExecutionFailed() */\n      revert\n        /* \"contracts/InstitutionalSolverSystem.sol\":12121:12179  if (!treasuryAuthorized[msg.sender]) revert Unauthorized() */\n    tag_133:\n      shl(0xe8, 0x82b429)\n        /* \"contracts/InstitutionalSolverSystem.sol\":12165:12179  Unauthorized() */\n      dup4\n      mstore\n        /* \"contracts/InstitutionalSolverSystem.sol\":572:15637  contract InstitutionalSolverSystem {... */\n      0x04\n        /* \"contracts/InstitutionalSolverSystem.sol\":3089:3103  Unauthorized() */\n      dup4\n        /* \"contracts/InstitutionalSolverSystem.sol\":12165:12179  Unauthorized() */\n      revert\n        /* \"contracts/InstitutionalSolverSystem.sol\":572:15637  contract InstitutionalSolverSystem {... */\n    tag_66:\n      pop\n      jumpi(tag_80, callvalue)\n      jumpi(tag_80, slt(add(not(0x03), calldatasize), 0x60))\n      tag_142\n      tag_1\n      jump\t// in\n    tag_142:\n      swap1\n      calldataload(0x44)\n      sub(shl(0x40, 0x01), 0x01)\n      dup2\n      gt\n      tag_100\n      jumpi\n      tag_145\n      swap1\n      calldatasize\n      swap1\n      0x04\n      add\n      tag_6\n      jump\t// in\n    tag_145:\n      swap1\n        /* \"contracts/InstitutionalSolverSystem.sol\":3184:3185  2 */\n      0x02\n        /* \"contracts/InstitutionalSolverSystem.sol\":572:15637  contract InstitutionalSolverSystem {... */\n      dup4\n      sload\n        /* \"contracts/InstitutionalSolverSystem.sol\":3165:3185  reentrancyGuard == 2 */\n      eq\n        /* \"contracts/InstitutionalSolverSystem.sol\":3161:3208  if (reentrancyGuard == 2) revert NonReentrant() */\n      tag_146\n      jumpi\n        /* \"contracts/InstitutionalSolverSystem.sol\":572:15637  contract InstitutionalSolverSystem {... */\n      dup3\n      swap4\n        /* \"contracts/InstitutionalSolverSystem.sol\":3184:3185  2 */\n      0x02\n        /* \"contracts/InstitutionalSolverSystem.sol\":3247:3248  _ */\n      tag_148\n        /* \"contracts/InstitutionalSolverSystem.sol\":572:15637  contract InstitutionalSolverSystem {... */\n      swap5\n      sstore\n      calldataload(0x24)\n        /* \"contracts/InstitutionalSolverSystem.sol\":3247:3248  _ */\n      swap1\n      tag_20\n      jump\t// in\n    tag_148:\n        /* \"contracts/InstitutionalSolverSystem.sol\":572:15637  contract InstitutionalSolverSystem {... */\n      0x01\n      dup2\n      sstore\n      dup1\n      return\n        /* \"contracts/InstitutionalSolverSystem.sol\":3161:3208  if (reentrancyGuard == 2) revert NonReentrant() */\n    tag_146:\n      shl(0xe1, 0x49cb68ab)\n        /* \"contracts/InstitutionalSolverSystem.sol\":3194:3208  NonReentrant() */\n      dup4\n      mstore\n        /* \"contracts/InstitutionalSolverSystem.sol\":572:15637  contract InstitutionalSolverSystem {... */\n      0x04\n        /* \"contracts/InstitutionalSolverSystem.sol\":3194:3208  NonReentrant() */\n      dup4\n      revert\n        /* \"contracts/InstitutionalSolverSystem.sol\":572:15637  contract InstitutionalSolverSystem {... */\n    tag_64:\n      pop\n      jumpi(tag_80, callvalue)\n      jumpi(tag_80, slt(add(not(0x03), calldatasize), 0x20))\n      calldataload(0x04)\n      dup1\n      dup3\n      mstore\n        /* \"contracts/InstitutionalSolverSystem.sol\":12681:12690  resolvers */\n      0x05\n        /* \"contracts/InstitutionalSolverSystem.sol\":572:15637  contract InstitutionalSolverSystem {... */\n      0x20\n      mstore\n      0x40\n      dup3\n      keccak256\n        /* \"contracts/InstitutionalSolverSystem.sol\":2497:2500  100 */\n      sload\n        /* \"contracts/InstitutionalSolverSystem.sol\":572:15637  contract InstitutionalSolverSystem {... */\n      mload(0x40)\n        /* \"contracts/InstitutionalSolverSystem.sol\":12654:12718  abi.encodePacked(intentId, resolvers[intentId], block.timestamp) */\n      swap1\n        /* \"contracts/InstitutionalSolverSystem.sol\":572:15637  contract InstitutionalSolverSystem {... */\n      0x20\n        /* \"contracts/InstitutionalSolverSystem.sol\":12654:12718  abi.encodePacked(intentId, resolvers[intentId], block.timestamp) */\n      dup3\n      add\n        /* \"contracts/InstitutionalSolverSystem.sol\":572:15637  contract InstitutionalSolverSystem {... */\n      swap3\n      dup4\n      mstore\n      sub(shl(0x60, 0x01), 0x01)\n        /* \"contracts/InstitutionalSolverSystem.sol\":2497:2500  100 */\n      not\n      swap1\n      0x60\n      shl\n      and\n        /* \"contracts/InstitutionalSolverSystem.sol\":572:15637  contract InstitutionalSolverSystem {... */\n      0x40\n      dup3\n      add\n        /* \"contracts/InstitutionalSolverSystem.sol\":2497:2500  100 */\n      mstore\n        /* \"contracts/InstitutionalSolverSystem.sol\":12702:12717  block.timestamp */\n      timestamp\n        /* \"contracts/InstitutionalSolverSystem.sol\":572:15637  contract InstitutionalSolverSystem {... */\n      0x54\n      dup3\n      add\n      mstore\n      0x54\n        /* \"contracts/InstitutionalSolverSystem.sol\":12654:12718  abi.encodePacked(intentId, resolvers[intentId], block.timestamp) */\n      dup2\n      mstore\n      tag_153\n      0x74\n      dup3\n      tag_8\n      jump\t// in\n    tag_153:\n        /* \"contracts/InstitutionalSolverSystem.sol\":572:15637  contract InstitutionalSolverSystem {... */\n      mload\n        /* \"contracts/InstitutionalSolverSystem.sol\":12644:12719  keccak256(abi.encodePacked(intentId, resolvers[intentId], block.timestamp)) */\n      swap1\n      keccak256\n        /* \"lib/solady/src/utils/clz/LibBit.sol\":6183:6227  assembly {... */\n      dup1\n      clz\n        /* \"contracts/InstitutionalSolverSystem.sol\":12834:12837  255 */\n      0xff\n        /* \"contracts/InstitutionalSolverSystem.sol\":572:15637  contract InstitutionalSolverSystem {... */\n      sub\n        /* \"contracts/InstitutionalSolverSystem.sol\":12834:12837  255 */\n      0xff\n        /* \"contracts/InstitutionalSolverSystem.sol\":572:15637  contract InstitutionalSolverSystem {... */\n      dup2\n      gt\n      tag_154\n      jumpi\n      0x20\n      swap3\n      pop\n      mload(0x40)\n        /* \"contracts/InstitutionalSolverSystem.sol\":12808:12853  abi.encodePacked(rawSeal, 255 - leadingZeros) */\n      swap1\n      dup4\n      dup3\n      add\n        /* \"contracts/InstitutionalSolverSystem.sol\":572:15637  contract InstitutionalSolverSystem {... */\n      swap3\n      dup4\n      mstore\n      0x40\n      dup3\n      add\n      mstore\n      0x40\n        /* \"contracts/InstitutionalSolverSystem.sol\":12808:12853  abi.encodePacked(rawSeal, 255 - leadingZeros) */\n      dup2\n      mstore\n      tag_156\n        /* \"contracts/InstitutionalSolverSystem.sol\":2497:2500  100 */\n      0x60\n        /* \"contracts/InstitutionalSolverSystem.sol\":12808:12853  abi.encodePacked(rawSeal, 255 - leadingZeros) */\n      dup3\n      tag_8\n      jump\t// in\n    tag_156:\n        /* \"contracts/InstitutionalSolverSystem.sol\":572:15637  contract InstitutionalSolverSystem {... */\n      mload\n        /* \"contracts/InstitutionalSolverSystem.sol\":12798:12854  keccak256(abi.encodePacked(rawSeal, 255 - leadingZeros)) */\n      swap1\n      keccak256\n        /* \"contracts/InstitutionalSolverSystem.sol\":572:15637  contract InstitutionalSolverSystem {... */\n      mload(0x40)\n      swap1\n      dup2\n      mstore\n      return\n    tag_154:\n      shl(0xe0, 0x4e487b71)\n      dup4\n      mstore\n      mstore(0x04, 0x11)\n      0x24\n      dup4\n      revert\n    tag_62:\n      pop\n      jumpi(tag_80, callvalue)\n      jumpi(tag_80, slt(add(not(0x03), calldatasize), 0x20))\n      0x20\n      swap1\n      0x40\n      swap1\n      sub(shl(0xa0, 0x01), 0x01)\n      tag_161\n      tag_1\n      jump\t// in\n    tag_161:\n      and\n      dup2\n      mstore\n        /* \"contracts/InstitutionalSolverSystem.sol\":10388:10398  reputation */\n      0x07\n        /* \"contracts/InstitutionalSolverSystem.sol\":572:15637  contract InstitutionalSolverSystem {... */\n      dup4\n      mstore\n      keccak256\n      sload\n      mload(0x40)\n      swap1\n      dup2\n      mstore\n      return\n    tag_60:\n      pop\n      jumpi(tag_80, callvalue)\n      jumpi(tag_80, slt(add(not(0x03), calldatasize), 0x40))\n      calldataload(0x04)\n      calldataload(0x24)\n      sub(shl(0x40, 0x01), 0x01)\n      dup2\n      gt\n      tag_166\n      jumpi\n      tag_168\n      swap1\n      calldatasize\n      swap1\n      0x04\n      add\n      tag_10\n      jump\t// in\n    tag_168:\n      dup2\n      dup4\n      mstore\n        /* \"contracts/InstitutionalSolverSystem.sol\":7017:7025  auctions */\n      0x06\n        /* \"contracts/InstitutionalSolverSystem.sol\":572:15637  contract InstitutionalSolverSystem {... */\n      0x20\n      mstore\n      0x40\n      dup4\n      keccak256\n        /* \"contracts/InstitutionalSolverSystem.sol\":7050:7064  auction.isOpen */\n      swap3\n        /* \"contracts/InstitutionalSolverSystem.sol\":572:15637  contract InstitutionalSolverSystem {... */\n      0x01\n        /* \"contracts/InstitutionalSolverSystem.sol\":7050:7064  auction.isOpen */\n      dup5\n      add\n        /* \"contracts/InstitutionalSolverSystem.sol\":572:15637  contract InstitutionalSolverSystem {... */\n      swap4\n      dup5\n      sload\n      swap3\n      0xff\n      dup5\n      and\n        /* \"contracts/InstitutionalSolverSystem.sol\":7046:7088  if (auction.isOpen) revert AuctionClosed() */\n      tag_169\n      jumpi\n        /* \"contracts/InstitutionalSolverSystem.sol\":7185:7214  new uint256[](solvers.length) */\n      tag_171\n        /* \"contracts/InstitutionalSolverSystem.sol\":572:15637  contract InstitutionalSolverSystem {... */\n      dup2\n      mload\n        /* \"contracts/InstitutionalSolverSystem.sol\":7185:7214  new uint256[](solvers.length) */\n      tag_16\n      jump\t// in\n    tag_171:\n        /* \"contracts/InstitutionalSolverSystem.sol\":7224:7246  uint256 validCount = 0 */\n      swap4\n      dup4\n        /* \"contracts/InstitutionalSolverSystem.sol\":7262:7275  uint256 i = 0 */\n      swap7\n      dup5\n    tag_172:\n        /* \"contracts/InstitutionalSolverSystem.sol\":572:15637  contract InstitutionalSolverSystem {... */\n      dup4\n      mload\n        /* \"contracts/InstitutionalSolverSystem.sol\":7277:7295  i < solvers.length */\n      dup2\n      lt\n      iszero\n      tag_173\n      jumpi\n      sub(shl(0xa0, 0x01), 0x01)\n        /* \"contracts/InstitutionalSolverSystem.sol\":7343:7353  solvers[i] */\n      tag_175\n      dup3\n      dup7\n      tag_18\n      jump\t// in\n    tag_175:\n        /* \"contracts/InstitutionalSolverSystem.sol\":572:15637  contract InstitutionalSolverSystem {... */\n      mload\n      and\n      0x01\n      dup1\n      0xa0\n      shl\n      sub\n      and\n      0x00\n      mstore\n      dup5\n      0x20\n      mstore\n      keccak256(0x00, 0x40)\n      0xff\n        /* \"contracts/InstitutionalSolverSystem.sol\":7373:7385  bid.revealed */\n      0x02\n      dup3\n      add\n        /* \"contracts/InstitutionalSolverSystem.sol\":572:15637  contract InstitutionalSolverSystem {... */\n      sload\n      and\n        /* \"contracts/InstitutionalSolverSystem.sol\":7372:7385  !bid.revealed */\n      iszero\n        /* \"contracts/InstitutionalSolverSystem.sol\":7368:7499  if (!bid.revealed) {... */\n      tag_176\n      jumpi\n        /* \"contracts/InstitutionalSolverSystem.sol\":572:15637  contract InstitutionalSolverSystem {... */\n      0x01\n        /* \"contracts/InstitutionalSolverSystem.sol\":7633:7648  bid.revealValue */\n      add\n        /* \"contracts/InstitutionalSolverSystem.sol\":572:15637  contract InstitutionalSolverSystem {... */\n      sload\n        /* \"lib/solady/src/utils/clz/LibBit.sol\":6183:6227  assembly {... */\n      swap9\n      dup10\n      clz\n        /* \"contracts/InstitutionalSolverSystem.sol\":572:15637  contract InstitutionalSolverSystem {... */\n      0xff\n      sub\n      swap10\n      0xff\n      dup12\n      gt\n      tag_178\n      jumpi\n        /* \"lib/solady/src/utils/clz/FixedPointMathLib.sol\":27229:27569  assembly {... */\n      dup11\n      dup2\n      mul\n      swap11\n      dup2\n      dup13\n      div\n      eq\n      swap1\n      iszero\n      or\n      0x08\n      shl\n      iszero\n      tag_180\n      jumpi\n        /* \"contracts/InstitutionalSolverSystem.sol\":572:15637  contract InstitutionalSolverSystem {... */\n      0x01\n      swap2\n        /* \"contracts/InstitutionalSolverSystem.sol\":7804:7816  validCount++ */\n      swap1\n        /* \"contracts/InstitutionalSolverSystem.sol\":7790:7832  effectiveBids[validCount++] = effectiveBid */\n      tag_182\n        /* \"contracts/InstitutionalSolverSystem.sol\":7804:7816  validCount++ */\n      tag_183\n      dup3\n      tag_19\n      jump\t// in\n    tag_183:\n        /* \"lib/solady/src/utils/clz/FixedPointMathLib.sol\":27229:27569  assembly {... */\n      swap12\n      0x08\n      shr\n        /* \"contracts/InstitutionalSolverSystem.sol\":7790:7832  effectiveBids[validCount++] = effectiveBid */\n      swap2\n      dup11\n      tag_18\n      jump\t// in\n    tag_182:\n        /* \"contracts/InstitutionalSolverSystem.sol\":572:15637  contract InstitutionalSolverSystem {... */\n      mstore\n      add\n        /* \"contracts/InstitutionalSolverSystem.sol\":7262:7275  uint256 i = 0 */\n      swap7\n    tag_184:\n      swap7\n      jump(tag_172)\n        /* \"lib/solady/src/utils/clz/FixedPointMathLib.sol\":27229:27569  assembly {... */\n    tag_180:\n      0xad251c27\n      dup8\n      mstore\n        /* \"contracts/InstitutionalSolverSystem.sol\":572:15637  contract InstitutionalSolverSystem {... */\n      0x04\n        /* \"lib/solady/src/utils/clz/FixedPointMathLib.sol\":27229:27569  assembly {... */\n      0x1c\n      revert\n        /* \"contracts/InstitutionalSolverSystem.sol\":572:15637  contract InstitutionalSolverSystem {... */\n    tag_178:\n      shl(0xe0, 0x4e487b71)\n      dup9\n      mstore\n      mstore(0x04, 0x11)\n      0x24\n      dup9\n      revert\n        /* \"contracts/InstitutionalSolverSystem.sol\":7368:7499  if (!bid.revealed) {... */\n    tag_176:\n        /* \"contracts/InstitutionalSolverSystem.sol\":572:15637  contract InstitutionalSolverSystem {... */\n      pop\n      0x01\n      add\n        /* \"contracts/InstitutionalSolverSystem.sol\":7476:7484  continue */\n      swap7\n      jump(tag_184)\n        /* \"contracts/InstitutionalSolverSystem.sol\":7277:7295  i < solvers.length */\n    tag_173:\n      pop\n      dup7\n      dup6\n      dup8\n      dup11\n      swap6\n        /* \"contracts/InstitutionalSolverSystem.sol\":7916:7931  validCount == 0 */\n      dup7\n      iszero\n        /* \"contracts/InstitutionalSolverSystem.sol\":7912:7952  if (validCount == 0) revert InvalidBid() */\n      tag_199\n      jumpi\n        /* \"contracts/InstitutionalSolverSystem.sol\":8048:8073  new uint256[](validCount) */\n      tag_187\n      dup8\n      tag_16\n      jump\t// in\n    tag_187:\n        /* \"contracts/InstitutionalSolverSystem.sol\":8088:8101  uint256 i = 0 */\n      dup4\n        /* \"contracts/InstitutionalSolverSystem.sol\":8103:8117  i < validCount */\n    tag_188:\n      dup9\n      dup2\n      lt\n      tag_189\n      jumpi\n        /* \"contracts/InstitutionalSolverSystem.sol\":8267:8277  sortedBids */\n      pop\n      tag_191\n      dup2\n      tag_21\n      jump\t// in\n    tag_191:\n      not(0x00)\n        /* \"contracts/InstitutionalSolverSystem.sol\":572:15637  contract InstitutionalSolverSystem {... */\n      dup9\n      add\n      swap1\n      dup9\n      dup3\n      gt\n      tag_192\n      jumpi\n        /* \"contracts/InstitutionalSolverSystem.sol\":8370:8396  sortedBids[validCount - 1] */\n      swap1\n      tag_194\n      swap2\n      tag_18\n      jump\t// in\n    tag_194:\n        /* \"contracts/InstitutionalSolverSystem.sol\":572:15637  contract InstitutionalSolverSystem {... */\n      mload\n      swap7\n        /* \"contracts/InstitutionalSolverSystem.sol\":8430:8459  new address[](solvers.length) */\n      tag_195\n        /* \"contracts/InstitutionalSolverSystem.sol\":572:15637  contract InstitutionalSolverSystem {... */\n      dup3\n      mload\n        /* \"contracts/InstitutionalSolverSystem.sol\":8430:8459  new address[](solvers.length) */\n      tag_16\n      jump\t// in\n    tag_195:\n        /* \"contracts/InstitutionalSolverSystem.sol\":8469:8489  uint256 tieCount = 0 */\n      swap2\n      dup5\n        /* \"contracts/InstitutionalSolverSystem.sol\":8549:8562  uint256 i = 0 */\n      swap4\n      dup6\n        /* \"contracts/InstitutionalSolverSystem.sol\":8564:8578  i < validCount */\n    tag_196:\n      dup4\n      dup2\n      lt\n      tag_197\n      jumpi\n        /* \"contracts/InstitutionalSolverSystem.sol\":8772:8785  tieCount == 0 */\n      pop\n      pop\n      pop\n      pop\n      dup2\n      iszero\n        /* \"contracts/InstitutionalSolverSystem.sol\":8768:8806  if (tieCount == 0) revert InvalidBid() */\n      tag_199\n      jumpi\n        /* \"contracts/InstitutionalSolverSystem.sol\":572:15637  contract InstitutionalSolverSystem {... */\n      0x01\n        /* \"contracts/InstitutionalSolverSystem.sol\":8821:8833  tieCount > 1 */\n      dup3\n      gt\n        /* \"contracts/InstitutionalSolverSystem.sol\":572:15637  contract InstitutionalSolverSystem {... */\n      iszero\n      tag_201\n      jumpi\n        /* \"contracts/InstitutionalSolverSystem.sol\":7772:7775  256 */\n      0x0100\n      sub(shl(0xa0, 0x01), 0x01)\n        /* \"contracts/InstitutionalSolverSystem.sol\":8963:8970  ties[0] */\n      tag_203\n      dup4\n      tag_17\n      jump\t// in\n    tag_203:\n        /* \"contracts/InstitutionalSolverSystem.sol\":572:15637  contract InstitutionalSolverSystem {... */\n      mload\n      and\n        /* \"contracts/InstitutionalSolverSystem.sol\":8989:9002  uint256 j = 0 */\n      swap4\n        /* \"contracts/InstitutionalSolverSystem.sol\":9004:9016  j < tieCount */\n    tag_204:\n      dup4\n      dup2\n      lt\n      tag_205\n      jumpi\n        /* \"contracts/InstitutionalSolverSystem.sol\":9383:9401  winner = tieWinner */\n      pop\n      pop\n      pop\n      pop\n        /* \"contracts/InstitutionalSolverSystem.sol\":572:15637  contract InstitutionalSolverSystem {... */\n      0x20\n        /* \"contracts/InstitutionalSolverSystem.sol\":9383:9401  winner = tieWinner */\n      dup1\n      swap6\n        /* \"contracts/InstitutionalSolverSystem.sol\":9507:9548  AuctionSettled(auctionId, winner, maxBid) */\n      0xc9f72b276a388619c6d185d146697036241880c36654b1a3ffdad07c24038d99\n        /* \"contracts/InstitutionalSolverSystem.sol\":9383:9401  winner = tieWinner */\n      swap3\n        /* \"contracts/InstitutionalSolverSystem.sol\":8817:9459  if (tieCount > 1) {... */\n      swap5\n    tag_207:\n      not(sub(shl(0xa8, 0x01), 0x0100))\n        /* \"contracts/InstitutionalSolverSystem.sol\":572:15637  contract InstitutionalSolverSystem {... */\n      swap1\n      swap7\n      and\n      0x08\n      dup7\n      swap1\n      shl\n      sub(shl(0xa8, 0x01), 0x0100)\n      and\n      or\n      swap1\n      swap6\n      sstore\n      mload(0x40)\n      swap5\n      dup6\n      mstore\n      sub(shl(0xa0, 0x01), 0x01)\n      swap4\n      swap1\n      swap4\n      and\n      swap4\n      dup5\n      swap4\n        /* \"contracts/InstitutionalSolverSystem.sol\":9507:9548  AuctionSettled(auctionId, winner, maxBid) */\n      swap1\n      log3\n        /* \"contracts/InstitutionalSolverSystem.sol\":572:15637  contract InstitutionalSolverSystem {... */\n      mload(0x40)\n      swap1\n      dup2\n      mstore\n      return\n        /* \"contracts/InstitutionalSolverSystem.sol\":8989:9002  uint256 j = 0 */\n    tag_205:\n        /* \"contracts/InstitutionalSolverSystem.sol\":9079:9086  ties[j] */\n      tag_208\n      dup2\n      dup5\n      tag_18\n      jump\t// in\n    tag_208:\n        /* \"contracts/InstitutionalSolverSystem.sol\":572:15637  contract InstitutionalSolverSystem {... */\n      mload\n      mload(0x40)\n      0x20\n        /* \"contracts/InstitutionalSolverSystem.sol\":9062:9087  abi.encodePacked(ties[j]) */\n      dup2\n      add\n        /* \"contracts/InstitutionalSolverSystem.sol\":2497:2500  100 */\n      swap2\n      not(sub(shl(0x60, 0x01), 0x01))\n      swap1\n      0x60\n      shl\n      and\n      dup3\n      mstore\n        /* \"contracts/InstitutionalSolverSystem.sol\":9062:9087  abi.encodePacked(ties[j]) */\n      0x14\n      dup2\n      mstore\n      tag_209\n      0x34\n      dup3\n      tag_8\n      jump\t// in\n    tag_209:\n        /* \"contracts/InstitutionalSolverSystem.sol\":572:15637  contract InstitutionalSolverSystem {... */\n      mload\n        /* \"contracts/InstitutionalSolverSystem.sol\":9052:9088  keccak256(abi.encodePacked(ties[j])) */\n      swap1\n      keccak256\n        /* \"lib/solady/src/utils/clz/LibBit.sol\":6183:6227  assembly {... */\n      clz\n        /* \"contracts/InstitutionalSolverSystem.sol\":9171:9186  clzVal < minClz */\n      dup3\n      dup2\n      lt\n        /* \"contracts/InstitutionalSolverSystem.sol\":9167:9285  if (clzVal < minClz) {... */\n      tag_210\n      jumpi\n        /* \"contracts/InstitutionalSolverSystem.sol\":8989:9002  uint256 j = 0 */\n    tag_211:\n        /* \"contracts/InstitutionalSolverSystem.sol\":572:15637  contract InstitutionalSolverSystem {... */\n      pop\n      0x01\n      add\n        /* \"contracts/InstitutionalSolverSystem.sol\":8989:9002  uint256 j = 0 */\n      jump(tag_204)\n        /* \"contracts/InstitutionalSolverSystem.sol\":9167:9285  if (clzVal < minClz) {... */\n    tag_210:\n        /* \"contracts/InstitutionalSolverSystem.sol\":9210:9225  minClz = clzVal */\n      swap1\n      swap5\n      pop\n      swap1\n      pop\n        /* \"contracts/InstitutionalSolverSystem.sol\":572:15637  contract InstitutionalSolverSystem {... */\n      0x01\n      sub(shl(0xa0, 0x01), 0x01)\n        /* \"contracts/InstitutionalSolverSystem.sol\":9259:9266  ties[j] */\n      tag_212\n        /* \"contracts/InstitutionalSolverSystem.sol\":9210:9225  minClz = clzVal */\n      dup7\n        /* \"contracts/InstitutionalSolverSystem.sol\":9259:9266  ties[j] */\n      dup6\n      tag_18\n      jump\t// in\n    tag_212:\n        /* \"contracts/InstitutionalSolverSystem.sol\":572:15637  contract InstitutionalSolverSystem {... */\n      mload\n      and\n        /* \"contracts/InstitutionalSolverSystem.sol\":9167:9285  if (clzVal < minClz) {... */\n      swap5\n      swap1\n      jump(tag_211)\n        /* \"contracts/InstitutionalSolverSystem.sol\":8817:9459  if (tieCount > 1) {... */\n    tag_201:\n        /* \"contracts/InstitutionalSolverSystem.sol\":572:15637  contract InstitutionalSolverSystem {... */\n      0x20\n      swap7\n        /* \"contracts/InstitutionalSolverSystem.sol\":9507:9548  AuctionSettled(auctionId, winner, maxBid) */\n      0xc9f72b276a388619c6d185d146697036241880c36654b1a3ffdad07c24038d99\n      swap4\n      pop\n        /* \"contracts/InstitutionalSolverSystem.sol\":572:15637  contract InstitutionalSolverSystem {... */\n      dup8\n      swap3\n      pop\n      swap1\n      sub(shl(0xa0, 0x01), 0x01)\n      swap1\n        /* \"contracts/InstitutionalSolverSystem.sol\":9441:9448  ties[0] */\n      tag_213\n      swap1\n      tag_17\n      jump\t// in\n    tag_213:\n        /* \"contracts/InstitutionalSolverSystem.sol\":572:15637  contract InstitutionalSolverSystem {... */\n      mload\n      and\n        /* \"contracts/InstitutionalSolverSystem.sol\":8817:9459  if (tieCount > 1) {... */\n      swap5\n      jump(tag_207)\n        /* \"contracts/InstitutionalSolverSystem.sol\":8768:8806  if (tieCount == 0) revert InvalidBid() */\n    tag_199:\n      shl(0xe0, 0xc6388ef7)\n        /* \"contracts/InstitutionalSolverSystem.sol\":8794:8806  InvalidBid() */\n      dup4\n      mstore\n        /* \"contracts/InstitutionalSolverSystem.sol\":572:15637  contract InstitutionalSolverSystem {... */\n      0x04\n        /* \"contracts/InstitutionalSolverSystem.sol\":6637:6649  InvalidBid() */\n      dup4\n        /* \"contracts/InstitutionalSolverSystem.sol\":8794:8806  InvalidBid() */\n      revert\n        /* \"contracts/InstitutionalSolverSystem.sol\":8549:8562  uint256 i = 0 */\n    tag_197:\n        /* \"contracts/InstitutionalSolverSystem.sol\":8599:8615  effectiveBids[i] */\n      dup1\n      dup12\n      tag_214\n        /* \"contracts/InstitutionalSolverSystem.sol\":572:15637  contract InstitutionalSolverSystem {... */\n      0x01\n        /* \"contracts/InstitutionalSolverSystem.sol\":8599:8615  effectiveBids[i] */\n      swap4\n      dup6\n      tag_18\n      jump\t// in\n    tag_214:\n        /* \"contracts/InstitutionalSolverSystem.sol\":572:15637  contract InstitutionalSolverSystem {... */\n      mload\n        /* \"contracts/InstitutionalSolverSystem.sol\":8599:8625  effectiveBids[i] == maxBid */\n      eq\n        /* \"contracts/InstitutionalSolverSystem.sol\":8595:8689  if (effectiveBids[i] == maxBid) {... */\n      tag_215\n      jumpi\n        /* \"contracts/InstitutionalSolverSystem.sol\":8549:8562  uint256 i = 0 */\n    tag_216:\n        /* \"contracts/InstitutionalSolverSystem.sol\":572:15637  contract InstitutionalSolverSystem {... */\n      add\n        /* \"contracts/InstitutionalSolverSystem.sol\":8549:8562  uint256 i = 0 */\n      jump(tag_196)\n        /* \"contracts/InstitutionalSolverSystem.sol\":8595:8689  if (effectiveBids[i] == maxBid) {... */\n    tag_215:\n        /* \"contracts/InstitutionalSolverSystem.sol\":572:15637  contract InstitutionalSolverSystem {... */\n      dup2\n      dup1\n      0xa0\n      shl\n      sub\n        /* \"contracts/InstitutionalSolverSystem.sol\":8664:8674  solvers[i] */\n      tag_217\n      dup3\n      dup7\n      tag_18\n      jump\t// in\n    tag_217:\n        /* \"contracts/InstitutionalSolverSystem.sol\":572:15637  contract InstitutionalSolverSystem {... */\n      mload\n      and\n        /* \"contracts/InstitutionalSolverSystem.sol\":8645:8674  ties[tieCount++] = solvers[i] */\n      tag_218\n        /* \"contracts/InstitutionalSolverSystem.sol\":8650:8660  tieCount++ */\n      tag_219\n      dup10\n      tag_19\n      jump\t// in\n    tag_219:\n        /* \"contracts/InstitutionalSolverSystem.sol\":8645:8674  ties[tieCount++] = solvers[i] */\n      swap9\n      dup9\n      tag_18\n      jump\t// in\n    tag_218:\n        /* \"contracts/InstitutionalSolverSystem.sol\":572:15637  contract InstitutionalSolverSystem {... */\n      mstore\n        /* \"contracts/InstitutionalSolverSystem.sol\":8595:8689  if (effectiveBids[i] == maxBid) {... */\n      jump(tag_216)\n        /* \"contracts/InstitutionalSolverSystem.sol\":572:15637  contract InstitutionalSolverSystem {... */\n    tag_192:\n      shl(0xe0, 0x4e487b71)\n      dup6\n      mstore\n      mstore(0x04, 0x11)\n      0x24\n      dup6\n      revert\n        /* \"contracts/InstitutionalSolverSystem.sol\":8088:8101  uint256 i = 0 */\n    tag_189:\n        /* \"contracts/InstitutionalSolverSystem.sol\":8150:8166  effectiveBids[i] */\n      dup1\n      tag_220\n        /* \"contracts/InstitutionalSolverSystem.sol\":572:15637  contract InstitutionalSolverSystem {... */\n      0x01\n        /* \"contracts/InstitutionalSolverSystem.sol\":8150:8166  effectiveBids[i] */\n      swap3\n      dup7\n      tag_18\n      jump\t// in\n    tag_220:\n        /* \"contracts/InstitutionalSolverSystem.sol\":572:15637  contract InstitutionalSolverSystem {... */\n      mload\n        /* \"contracts/InstitutionalSolverSystem.sol\":8134:8166  sortedBids[i] = effectiveBids[i] */\n      tag_221\n      dup3\n      dup6\n      tag_18\n      jump\t// in\n    tag_221:\n        /* \"contracts/InstitutionalSolverSystem.sol\":572:15637  contract InstitutionalSolverSystem {... */\n      mstore\n      add\n        /* \"contracts/InstitutionalSolverSystem.sol\":8088:8101  uint256 i = 0 */\n      jump(tag_188)\n        /* \"contracts/InstitutionalSolverSystem.sol\":7046:7088  if (auction.isOpen) revert AuctionClosed() */\n    tag_169:\n      shl(0xe0, 0x36b6b46d)\n        /* \"contracts/InstitutionalSolverSystem.sol\":7073:7088  AuctionClosed() */\n      dup4\n      mstore\n        /* \"contracts/InstitutionalSolverSystem.sol\":572:15637  contract InstitutionalSolverSystem {... */\n      0x04\n        /* \"contracts/InstitutionalSolverSystem.sol\":6534:6549  AuctionClosed() */\n      dup4\n        /* \"contracts/InstitutionalSolverSystem.sol\":7073:7088  AuctionClosed() */\n      revert\n        /* \"contracts/InstitutionalSolverSystem.sol\":572:15637  contract InstitutionalSolverSystem {... */\n    tag_166:\n      dup3\n      dup1\n      revert\n    tag_58:\n      pop\n      jumpi(tag_80, callvalue)\n      jumpi(tag_80, slt(add(not(0x03), calldatasize), 0x40))\n      calldataload(0x04)\n      calldataload(0x24)\n      swap1\n      dup1\n      dup4\n      mstore\n        /* \"contracts/InstitutionalSolverSystem.sol\":6155:6163  auctions */\n      0x06\n        /* \"contracts/InstitutionalSolverSystem.sol\":572:15637  contract InstitutionalSolverSystem {... */\n      0x20\n      mstore\n      0x40\n      dup4\n      keccak256\n      0xff\n      0x01\n        /* \"contracts/InstitutionalSolverSystem.sol\":6189:6203  auction.isOpen */\n      dup3\n      add\n        /* \"contracts/InstitutionalSolverSystem.sol\":572:15637  contract InstitutionalSolverSystem {... */\n      sload\n      and\n        /* \"contracts/InstitutionalSolverSystem.sol\":6188:6203  !auction.isOpen */\n      iszero\n        /* \"contracts/InstitutionalSolverSystem.sol\":6184:6227  if (!auction.isOpen) revert AuctionClosed() */\n      tag_226\n      jumpi\n        /* \"contracts/InstitutionalSolverSystem.sol\":572:15637  contract InstitutionalSolverSystem {... */\n      0x01\n      dup1\n      0xa0\n      shl\n      sub\n        /* \"contracts/InstitutionalSolverSystem.sol\":6251:6261  msg.sender */\n      caller\n        /* \"contracts/InstitutionalSolverSystem.sol\":572:15637  contract InstitutionalSolverSystem {... */\n      and\n      0x00\n      mstore\n      0x20\n      mstore\n      dup2\n      keccak256(0x00, 0x40)\n      sstore\n      mload(0x40)\n      swap2\n      dup3\n      mstore\n        /* \"contracts/InstitutionalSolverSystem.sol\":6301:6348  BidCommitted(auctionId, msg.sender, commitHash) */\n      0x8f88859fb40f8fd203fb728f30d86a47819ece47e647bf37001c2b204d74fd04\n        /* \"contracts/InstitutionalSolverSystem.sol\":572:15637  contract InstitutionalSolverSystem {... */\n      0x20\n        /* \"contracts/InstitutionalSolverSystem.sol\":6251:6261  msg.sender */\n      caller\n        /* \"contracts/InstitutionalSolverSystem.sol\":6301:6348  BidCommitted(auctionId, msg.sender, commitHash) */\n      swap4\n      log3\n        /* \"contracts/InstitutionalSolverSystem.sol\":572:15637  contract InstitutionalSolverSystem {... */\n      dup1\n      return\n        /* \"contracts/InstitutionalSolverSystem.sol\":6184:6227  if (!auction.isOpen) revert AuctionClosed() */\n    tag_226:\n      shl(0xe0, 0x36b6b46d)\n        /* \"contracts/InstitutionalSolverSystem.sol\":6212:6227  AuctionClosed() */\n      dup5\n      mstore\n        /* \"contracts/InstitutionalSolverSystem.sol\":572:15637  contract InstitutionalSolverSystem {... */\n      0x04\n        /* \"contracts/InstitutionalSolverSystem.sol\":6534:6549  AuctionClosed() */\n      dup5\n        /* \"contracts/InstitutionalSolverSystem.sol\":6212:6227  AuctionClosed() */\n      revert\n        /* \"contracts/InstitutionalSolverSystem.sol\":572:15637  contract InstitutionalSolverSystem {... */\n    tag_56:\n      pop\n      jumpi(tag_80, callvalue)\n      dup1\n      add(calldatasize, not(0x03))\n      slt\n      tag_80\n      jumpi\n      mload(0x40)\n        /* \"contracts/InstitutionalSolverSystem.sol\":1773:1803  address public immutable owner */\n      immutable(\"0x71e5aa733ba7f8a0c5bcd527844c36ca3be5207ad50dafbb495a9ddba4e4ae54\")\n      sub(shl(0xa0, 0x01), 0x01)\n        /* \"contracts/InstitutionalSolverSystem.sol\":572:15637  contract InstitutionalSolverSystem {... */\n      and\n      dup2\n      mstore\n      0x20\n      swap1\n      return\n    tag_54:\n      pop\n      jumpi(tag_80, callvalue)\n      jumpi(tag_80, slt(add(not(0x03), calldatasize), 0x40))\n      calldataload(0x04)\n      sub(shl(0x40, 0x01), 0x01)\n      dup2\n      gt\n      tag_100\n      jumpi\n      tag_238\n      swap1\n      calldatasize\n      swap1\n      0x04\n      add\n      tag_10\n      jump\t// in\n    tag_238:\n      swap1\n      calldataload(0x24)\n      swap1\n      dup3\n      mload\n        /* \"contracts/InstitutionalSolverSystem.sol\":13916:13940  topN > solverList.length */\n      dup1\n      dup4\n      gt\n        /* \"contracts/InstitutionalSolverSystem.sol\":13912:13966  if (topN > solverList.length) topN = solverList.length */\n      tag_239\n      jumpi\n        /* \"contracts/InstitutionalSolverSystem.sol\":572:15637  contract InstitutionalSolverSystem {... */\n    tag_240:\n        /* \"contracts/InstitutionalSolverSystem.sol\":14053:14085  new uint256[](solverList.length) */\n      tag_241\n      swap1\n      tag_16\n      jump\t// in\n    tag_241:\n        /* \"contracts/InstitutionalSolverSystem.sol\":14100:14113  uint256 i = 0 */\n      swap1\n      dup1\n    tag_242:\n        /* \"contracts/InstitutionalSolverSystem.sol\":572:15637  contract InstitutionalSolverSystem {... */\n      dup5\n      mload\n        /* \"contracts/InstitutionalSolverSystem.sol\":14115:14136  i < solverList.length */\n      dup2\n      lt\n      iszero\n      tag_243\n      jumpi\n        /* \"contracts/InstitutionalSolverSystem.sol\":572:15637  contract InstitutionalSolverSystem {... */\n      0x01\n      swap1\n      sub(shl(0xa0, 0x01), 0x01)\n        /* \"contracts/InstitutionalSolverSystem.sol\":14239:14252  solverList[i] */\n      tag_245\n        /* \"contracts/InstitutionalSolverSystem.sol\":572:15637  contract InstitutionalSolverSystem {... */\n      dup3\n        /* \"contracts/InstitutionalSolverSystem.sol\":14239:14252  solverList[i] */\n      dup9\n      tag_18\n      jump\t// in\n    tag_245:\n        /* \"contracts/InstitutionalSolverSystem.sol\":572:15637  contract InstitutionalSolverSystem {... */\n      mload\n      and\n      dup4\n      mstore\n        /* \"contracts/InstitutionalSolverSystem.sol\":14228:14238  reputation */\n      0x07\n        /* \"contracts/InstitutionalSolverSystem.sol\":572:15637  contract InstitutionalSolverSystem {... */\n      0x20\n      mstore\n      0x40\n      dup4\n      keccak256\n      sload\n        /* \"contracts/InstitutionalSolverSystem.sol\":14346:14353  rep > 0 */\n      dup4\n      dup2\n      sgt\n        /* \"contracts/InstitutionalSolverSystem.sol\":572:15637  contract InstitutionalSolverSystem {... */\n      iszero\n      tag_246\n      jumpi\n        /* \"contracts/InstitutionalSolverSystem.sol\":14346:14372  rep > 0 ? uint256(rep) : 0 */\n    tag_248:\n        /* \"contracts/InstitutionalSolverSystem.sol\":14329:14372  reputations[i] = rep > 0 ? uint256(rep) : 0 */\n      tag_249\n      dup3\n      dup7\n      tag_18\n      jump\t// in\n    tag_249:\n        /* \"contracts/InstitutionalSolverSystem.sol\":572:15637  contract InstitutionalSolverSystem {... */\n      mstore\n      add\n        /* \"contracts/InstitutionalSolverSystem.sol\":14100:14113  uint256 i = 0 */\n      jump(tag_242)\n        /* \"contracts/InstitutionalSolverSystem.sol\":14346:14372  rep > 0 ? uint256(rep) : 0 */\n    tag_246:\n      pop\n      dup3\n      jump(tag_248)\n        /* \"contracts/InstitutionalSolverSystem.sol\":14115:14136  i < solverList.length */\n    tag_243:\n      pop\n      dup4\n      swap2\n        /* \"contracts/InstitutionalSolverSystem.sol\":14537:14569  new uint256[](solverList.length) */\n      tag_250\n        /* \"contracts/InstitutionalSolverSystem.sol\":572:15637  contract InstitutionalSolverSystem {... */\n      dup4\n      mload\n        /* \"contracts/InstitutionalSolverSystem.sol\":14537:14569  new uint256[](solverList.length) */\n      tag_16\n      jump\t// in\n    tag_250:\n        /* \"contracts/InstitutionalSolverSystem.sol\":14584:14597  uint256 i = 0 */\n      swap4\n      dup3\n    tag_251:\n        /* \"contracts/InstitutionalSolverSystem.sol\":572:15637  contract InstitutionalSolverSystem {... */\n      dup5\n      mload\n        /* \"contracts/InstitutionalSolverSystem.sol\":14599:14620  i < solverList.length */\n      dup2\n      lt\n      iszero\n      tag_252\n      jumpi\n        /* \"contracts/InstitutionalSolverSystem.sol\":14637:14651  indices[i] = i */\n      dup1\n      dup1\n      tag_254\n        /* \"contracts/InstitutionalSolverSystem.sol\":572:15637  contract InstitutionalSolverSystem {... */\n      0x01\n        /* \"contracts/InstitutionalSolverSystem.sol\":14637:14651  indices[i] = i */\n      swap4\n      dup10\n      tag_18\n      jump\t// in\n    tag_254:\n        /* \"contracts/InstitutionalSolverSystem.sol\":572:15637  contract InstitutionalSolverSystem {... */\n      mstore\n      add\n        /* \"contracts/InstitutionalSolverSystem.sol\":14584:14597  uint256 i = 0 */\n      jump(tag_251)\n        /* \"contracts/InstitutionalSolverSystem.sol\":14599:14620  i < solverList.length */\n    tag_252:\n      pop\n      swap1\n      dup4\n      swap3\n      swap2\n        /* \"contracts/InstitutionalSolverSystem.sol\":14800:14811  reputations */\n      tag_255\n      dup3\n      tag_21\n      jump\t// in\n    tag_255:\n        /* \"contracts/InstitutionalSolverSystem.sol\":14894:14913  new address[](topN) */\n      tag_256\n      dup2\n      tag_16\n      jump\t// in\n    tag_256:\n        /* \"contracts/InstitutionalSolverSystem.sol\":572:15637  contract InstitutionalSolverSystem {... */\n      swap4\n        /* \"contracts/InstitutionalSolverSystem.sol\":14942:14966  solverList.length - topN */\n      tag_257\n        /* \"contracts/InstitutionalSolverSystem.sol\":572:15637  contract InstitutionalSolverSystem {... */\n      dup3\n      dup3\n      mload\n        /* \"contracts/InstitutionalSolverSystem.sol\":14942:14966  solverList.length - topN */\n      tag_12\n      jump\t// in\n    tag_257:\n        /* \"contracts/InstitutionalSolverSystem.sol\":14981:14994  uint256 i = 0 */\n      swap3\n      dup5\n        /* \"contracts/InstitutionalSolverSystem.sol\":14976:15565  for (uint256 i = 0; i < topN;) {... */\n      swap3\n        /* \"contracts/InstitutionalSolverSystem.sol\":14996:15004  i < topN */\n    tag_258:\n      dup1\n      dup5\n      lt\n      tag_259\n      jumpi\n        /* \"contracts/InstitutionalSolverSystem.sol\":572:15637  contract InstitutionalSolverSystem {... */\n      dup7\n      dup7\n      mload(0x40)\n      swap2\n      dup3\n      swap2\n      0x20\n      dup4\n      add\n      0x20\n      dup5\n      mstore\n      dup3\n      mload\n      dup1\n      swap2\n      mstore\n      0x20\n      0x40\n      dup6\n      add\n      swap4\n      add\n      swap2\n    tag_261:\n      dup2\n      dup2\n      lt\n      tag_262\n      jumpi\n      pop\n      pop\n      pop\n      sub\n      swap1\n      return\n    tag_262:\n      dup3\n      mload\n      sub(shl(0xa0, 0x01), 0x01)\n      and\n      dup5\n      mstore\n      dup6\n      swap5\n      pop\n      0x20\n      swap4\n      dup5\n      add\n      swap4\n      swap1\n      swap3\n      add\n      swap2\n      0x01\n      add\n      jump(tag_261)\n        /* \"contracts/InstitutionalSolverSystem.sol\":14981:14994  uint256 i = 0 */\n    tag_259:\n        /* \"contracts/InstitutionalSolverSystem.sol\":15095:15120  reputations[startIdx + i] */\n      tag_264\n        /* \"contracts/InstitutionalSolverSystem.sol\":15107:15119  startIdx + i */\n      tag_265\n      dup6\n      dup8\n      swap10\n      swap7\n      swap8\n      tag_11\n      jump\t// in\n    tag_265:\n        /* \"contracts/InstitutionalSolverSystem.sol\":15095:15120  reputations[startIdx + i] */\n      dup4\n      tag_18\n      jump\t// in\n    tag_264:\n        /* \"contracts/InstitutionalSolverSystem.sol\":572:15637  contract InstitutionalSolverSystem {... */\n      mload\n        /* \"contracts/InstitutionalSolverSystem.sol\":15139:15152  uint256 j = 0 */\n      swap2\n      dup7\n    tag_266:\n        /* \"contracts/InstitutionalSolverSystem.sol\":572:15637  contract InstitutionalSolverSystem {... */\n      dup5\n      mload\n        /* \"contracts/InstitutionalSolverSystem.sol\":15154:15175  j < solverList.length */\n      dup2\n      lt\n      iszero\n      tag_267\n      jumpi\n      sub(shl(0xa0, 0x01), 0x01)\n        /* \"contracts/InstitutionalSolverSystem.sol\":15277:15290  solverList[j] */\n      tag_269\n      dup3\n      dup8\n      tag_18\n      jump\t// in\n    tag_269:\n        /* \"contracts/InstitutionalSolverSystem.sol\":572:15637  contract InstitutionalSolverSystem {... */\n      mload\n      and\n      dup9\n      mstore\n        /* \"contracts/InstitutionalSolverSystem.sol\":14228:14238  reputation */\n      0x07\n        /* \"contracts/InstitutionalSolverSystem.sol\":572:15637  contract InstitutionalSolverSystem {... */\n      0x20\n      mstore\n      dup4\n      0x40\n      dup10\n      keccak256\n      sload\n        /* \"contracts/InstitutionalSolverSystem.sol\":15266:15312  reputation[solverList[j]] == int256(targetRep) */\n      eq\n        /* \"contracts/InstitutionalSolverSystem.sol\":15262:15411  if (reputation[solverList[j]] == int256(targetRep)) {... */\n      tag_270\n      jumpi\n        /* \"contracts/InstitutionalSolverSystem.sol\":572:15637  contract InstitutionalSolverSystem {... */\n      0x01\n      add\n        /* \"contracts/InstitutionalSolverSystem.sol\":15139:15152  uint256 j = 0 */\n      jump(tag_266)\n        /* \"contracts/InstitutionalSolverSystem.sol\":15262:15411  if (reputation[solverList[j]] == int256(targetRep)) {... */\n    tag_270:\n        /* \"contracts/InstitutionalSolverSystem.sol\":572:15637  contract InstitutionalSolverSystem {... */\n      0x01\n      swap3\n      swap7\n      swap2\n      swap5\n      swap6\n      swap8\n      swap9\n      swap4\n      pop\n        /* \"contracts/InstitutionalSolverSystem.sol\":15352:15365  solverList[j] */\n      tag_272\n        /* \"contracts/InstitutionalSolverSystem.sol\":572:15637  contract InstitutionalSolverSystem {... */\n      dup4\n      dup1\n      0xa0\n      shl\n      sub\n        /* \"contracts/InstitutionalSolverSystem.sol\":15352:15365  solverList[j] */\n      swap2\n      dup8\n      tag_18\n      jump\t// in\n    tag_272:\n        /* \"contracts/InstitutionalSolverSystem.sol\":572:15637  contract InstitutionalSolverSystem {... */\n      mload\n      and\n        /* \"contracts/InstitutionalSolverSystem.sol\":15336:15365  topSolvers[i] = solverList[j] */\n      tag_273\n      dup3\n      dup10\n      tag_18\n      jump\t// in\n    tag_273:\n        /* \"contracts/InstitutionalSolverSystem.sol\":572:15637  contract InstitutionalSolverSystem {... */\n      mstore\n        /* \"contracts/InstitutionalSolverSystem.sol\":15134:15496  for (uint256 j = 0; j < solverList.length;) {... */\n    tag_274:\n        /* \"contracts/InstitutionalSolverSystem.sol\":572:15637  contract InstitutionalSolverSystem {... */\n      add\n        /* \"contracts/InstitutionalSolverSystem.sol\":14981:14994  uint256 i = 0 */\n      swap4\n      swap6\n      swap5\n      swap6\n      swap4\n      swap3\n      swap2\n      swap1\n      swap4\n      jump(tag_258)\n        /* \"contracts/InstitutionalSolverSystem.sol\":15154:15175  j < solverList.length */\n    tag_267:\n      pop\n      swap3\n      swap4\n      swap6\n      swap7\n      swap2\n      pop\n      swap4\n        /* \"contracts/InstitutionalSolverSystem.sol\":572:15637  contract InstitutionalSolverSystem {... */\n      0x01\n        /* \"contracts/InstitutionalSolverSystem.sol\":15154:15175  j < solverList.length */\n      swap1\n      jump(tag_274)\n        /* \"contracts/InstitutionalSolverSystem.sol\":13912:13966  if (topN > solverList.length) topN = solverList.length */\n    tag_239:\n        /* \"contracts/InstitutionalSolverSystem.sol\":13942:13966  topN = solverList.length */\n      swap2\n      pop\n      dup2\n        /* \"contracts/InstitutionalSolverSystem.sol\":13912:13966  if (topN > solverList.length) topN = solverList.length */\n      jump(tag_240)\n        /* \"contracts/InstitutionalSolverSystem.sol\":572:15637  contract InstitutionalSolverSystem {... */\n    tag_52:\n      pop\n      jumpi(tag_80, callvalue)\n      jumpi(tag_80, slt(add(not(0x03), calldatasize), 0x20))\n      tag_279\n      tag_1\n      jump\t// in\n    tag_279:\n        /* \"contracts/InstitutionalSolverSystem.sol\":3075:3080  owner */\n      immutable(\"0x71e5aa733ba7f8a0c5bcd527844c36ca3be5207ad50dafbb495a9ddba4e4ae54\")\n      sub(shl(0xa0, 0x01), 0x01)\n        /* \"contracts/InstitutionalSolverSystem.sol\":572:15637  contract InstitutionalSolverSystem {... */\n      and\n        /* \"contracts/InstitutionalSolverSystem.sol\":3061:3071  msg.sender */\n      caller\n        /* \"contracts/InstitutionalSolverSystem.sol\":3061:3080  msg.sender != owner */\n      sub\n        /* \"contracts/InstitutionalSolverSystem.sol\":3057:3103  if (msg.sender != owner) revert Unauthorized() */\n      tag_90\n      jumpi\n        /* \"contracts/InstitutionalSolverSystem.sol\":11149:11167  flashloanProviders */\n      0x03\n        /* \"contracts/InstitutionalSolverSystem.sol\":572:15637  contract InstitutionalSolverSystem {... */\n      sload\n      0x010000000000000000\n      dup2\n      lt\n      iszero\n      tag_282\n      jumpi\n      dup1\n      0x01\n      tag_284\n      swap3\n      add\n        /* \"contracts/InstitutionalSolverSystem.sol\":11149:11167  flashloanProviders */\n      0x03\n        /* \"contracts/InstitutionalSolverSystem.sol\":572:15637  contract InstitutionalSolverSystem {... */\n      sstore\n      tag_7\n      jump\t// in\n    tag_284:\n      dup2\n      sload\n      sub(shl(0xa0, 0x01), 0x01)\n      swap4\n      dup5\n      and\n        /* \"contracts/InstitutionalSolverSystem.sol\":11149:11167  flashloanProviders */\n      0x03\n        /* \"contracts/InstitutionalSolverSystem.sol\":572:15637  contract InstitutionalSolverSystem {... */\n      swap3\n      swap1\n      swap3\n      shl\n      swap2\n      dup3\n      shl\n      swap4\n      swap1\n      swap2\n      shl\n      not\n      and\n      swap2\n      swap1\n      swap2\n      or\n      swap1\n      sstore\n      dup1\n      return\n    tag_282:\n      shl(0xe0, 0x4e487b71)\n      dup4\n      mstore\n      mstore(0x04, 0x41)\n      0x24\n      dup4\n      revert\n    tag_50:\n      pop\n      jumpi(tag_80, callvalue)\n      jumpi(tag_80, slt(add(not(0x03), calldatasize), 0x40))\n      tag_289\n      tag_1\n      jump\t// in\n    tag_289:\n      calldataload(0x24)\n        /* \"contracts/InstitutionalSolverSystem.sol\":3075:3080  owner */\n      immutable(\"0x71e5aa733ba7f8a0c5bcd527844c36ca3be5207ad50dafbb495a9ddba4e4ae54\")\n      sub(shl(0xa0, 0x01), 0x01)\n        /* \"contracts/InstitutionalSolverSystem.sol\":572:15637  contract InstitutionalSolverSystem {... */\n      and\n        /* \"contracts/InstitutionalSolverSystem.sol\":3061:3071  msg.sender */\n      caller\n        /* \"contracts/InstitutionalSolverSystem.sol\":3061:3080  msg.sender != owner */\n      sub\n        /* \"contracts/InstitutionalSolverSystem.sol\":3057:3103  if (msg.sender != owner) revert Unauthorized() */\n      tag_133\n      jumpi\n        /* \"contracts/InstitutionalSolverSystem.sol\":9746:9755  delta < 0 */\n      dup3\n      dup2\n      slt\n      swap1\n        /* \"contracts/InstitutionalSolverSystem.sol\":9746:9772  delta < 0 ? -delta : delta */\n      dup2\n      iszero\n      tag_292\n      jumpi\n      shl(0xff, 0x01)\n        /* \"contracts/InstitutionalSolverSystem.sol\":572:15637  contract InstitutionalSolverSystem {... */\n      dup2\n      eq\n      tag_294\n      jumpi\n      dup1\n      dup5\n      sub\n        /* \"contracts/InstitutionalSolverSystem.sol\":9746:9772  delta < 0 ? -delta : delta */\n    tag_296:\n        /* \"lib/solady/src/utils/clz/LibBit.sol\":6183:6227  assembly {... */\n      clz\n        /* \"contracts/InstitutionalSolverSystem.sol\":9856:9859  255 */\n      0xff\n        /* \"contracts/InstitutionalSolverSystem.sol\":572:15637  contract InstitutionalSolverSystem {... */\n      sub\n        /* \"contracts/InstitutionalSolverSystem.sol\":9856:9859  255 */\n      0xff\n        /* \"contracts/InstitutionalSolverSystem.sol\":572:15637  contract InstitutionalSolverSystem {... */\n      dup2\n      gt\n      tag_192\n      jumpi\n      dup2\n      dup2\n      mul\n      swap3\n      shl(0xff, 0x01)\n      dup3\n      eq\n      and\n      tag_192\n      jumpi\n      dup2\n      dup4\n      sdiv\n      eq\n      swap1\n      iszero\n      or\n      iszero\n      tag_154\n      jumpi\n        /* \"contracts/InstitutionalSolverSystem.sol\":9990:9993  256 */\n      0x0100\n        /* \"contracts/InstitutionalSolverSystem.sol\":572:15637  contract InstitutionalSolverSystem {... */\n      swap1\n      sdiv\n      swap1\n      0x01\n      dup1\n      0xa0\n      shl\n      sub\n      and\n      swap1\n      dup2\n      dup4\n      mstore\n        /* \"contracts/InstitutionalSolverSystem.sol\":10004:10014  reputation */\n      0x07\n        /* \"contracts/InstitutionalSolverSystem.sol\":572:15637  contract InstitutionalSolverSystem {... */\n      0x20\n      mstore\n      0x40\n      dup4\n      keccak256\n      dup1\n      sload\n      swap1\n      dup3\n      dup3\n      add\n      swap2\n      dup6\n      dup5\n      dup5\n      slt\n      swap2\n      slt\n      swap1\n      dup1\n      iszero\n      dup3\n      and\n      swap2\n      iszero\n      and\n      or\n      tag_192\n      jumpi\n      dup4\n      swap3\n        /* \"contracts/InstitutionalSolverSystem.sol\":10052:10090  ReputationUpdated(solver, scaledDelta) */\n      0x21b93f5364d09d606ec33450e45ad2e33958e3dac6c4f771ed1218f1eca47db5\n        /* \"contracts/InstitutionalSolverSystem.sol\":572:15637  contract InstitutionalSolverSystem {... */\n      swap3\n      0x20\n      swap3\n      sstore\n      mload(0x40)\n      swap1\n      dup2\n      mstore\n        /* \"contracts/InstitutionalSolverSystem.sol\":10052:10090  ReputationUpdated(solver, scaledDelta) */\n      log2\n        /* \"contracts/InstitutionalSolverSystem.sol\":572:15637  contract InstitutionalSolverSystem {... */\n      dup1\n      dup3\n      mstore\n        /* \"contracts/InstitutionalSolverSystem.sol\":10004:10014  reputation */\n      0x07\n        /* \"contracts/InstitutionalSolverSystem.sol\":572:15637  contract InstitutionalSolverSystem {... */\n      0x20\n      mstore\n      dup2\n      0x40\n      dup2\n      keccak256\n      sload\n        /* \"contracts/InstitutionalSolverSystem.sol\":10105:10127  reputation[solver] < 0 */\n      slt\n        /* \"contracts/InstitutionalSolverSystem.sol\":10101:10151  if (reputation[solver] < 0) reputation[solver] = 0 */\n      tag_305\n      jumpi\n        /* \"contracts/InstitutionalSolverSystem.sol\":572:15637  contract InstitutionalSolverSystem {... */\n      pop\n      dup1\n      return\n        /* \"contracts/InstitutionalSolverSystem.sol\":10101:10151  if (reputation[solver] < 0) reputation[solver] = 0 */\n    tag_305:\n        /* \"contracts/InstitutionalSolverSystem.sol\":572:15637  contract InstitutionalSolverSystem {... */\n      dup2\n      mstore\n        /* \"contracts/InstitutionalSolverSystem.sol\":10004:10014  reputation */\n      0x07\n        /* \"contracts/InstitutionalSolverSystem.sol\":572:15637  contract InstitutionalSolverSystem {... */\n      0x20\n      mstore\n      dup1\n      0x40\n      dup2\n      keccak256\n      sstore\n      dup1\n      return\n    tag_294:\n      shl(0xe0, 0x4e487b71)\n      dup5\n      mstore\n      mstore(0x04, 0x11)\n      0x24\n      dup5\n      revert\n        /* \"contracts/InstitutionalSolverSystem.sol\":9746:9772  delta < 0 ? -delta : delta */\n    tag_292:\n      dup1\n      jump(tag_296)\n        /* \"contracts/InstitutionalSolverSystem.sol\":572:15637  contract InstitutionalSolverSystem {... */\n    tag_48:\n      pop\n      jumpi(tag_80, callvalue)\n      jumpi(tag_80, slt(add(not(0x03), calldatasize), 0x20))\n      calldataload(0x04)\n      swap1\n        /* \"contracts/InstitutionalSolverSystem.sol\":1912:1947  address[] public flashloanProviders */\n      0x03\n        /* \"contracts/InstitutionalSolverSystem.sol\":572:15637  contract InstitutionalSolverSystem {... */\n      sload\n        /* \"contracts/InstitutionalSolverSystem.sol\":1912:1947  address[] public flashloanProviders */\n      dup3\n      lt\n      iszero\n      tag_80\n      jumpi\n        /* \"contracts/InstitutionalSolverSystem.sol\":572:15637  contract InstitutionalSolverSystem {... */\n      0x20\n        /* \"contracts/InstitutionalSolverSystem.sol\":1912:1947  address[] public flashloanProviders */\n      tag_313\n      dup4\n      tag_7\n      jump\t// in\n    tag_313:\n        /* \"contracts/InstitutionalSolverSystem.sol\":572:15637  contract InstitutionalSolverSystem {... */\n      swap1\n      sload\n      mload(0x40)\n        /* \"contracts/InstitutionalSolverSystem.sol\":1912:1947  address[] public flashloanProviders */\n      0x03\n        /* \"contracts/InstitutionalSolverSystem.sol\":572:15637  contract InstitutionalSolverSystem {... */\n      swap3\n      swap1\n      swap3\n      shl\n      shr\n      sub(shl(0xa0, 0x01), 0x01)\n      and\n      dup2\n      mstore\n      return\n    tag_46:\n      pop\n      jumpi(tag_80, callvalue)\n      jumpi(tag_80, slt(add(not(0x03), calldatasize), 0x40))\n      tag_318\n      tag_1\n      jump\t// in\n    tag_318:\n        /* \"contracts/InstitutionalSolverSystem.sol\":3075:3080  owner */\n      immutable(\"0x71e5aa733ba7f8a0c5bcd527844c36ca3be5207ad50dafbb495a9ddba4e4ae54\")\n      sub(shl(0xa0, 0x01), 0x01)\n        /* \"contracts/InstitutionalSolverSystem.sol\":572:15637  contract InstitutionalSolverSystem {... */\n      and\n        /* \"contracts/InstitutionalSolverSystem.sol\":3061:3071  msg.sender */\n      caller\n        /* \"contracts/InstitutionalSolverSystem.sol\":3061:3080  msg.sender != owner */\n      sub\n        /* \"contracts/InstitutionalSolverSystem.sol\":3057:3103  if (msg.sender != owner) revert Unauthorized() */\n      tag_90\n      jumpi\n      sub(shl(0xa0, 0x01), 0x01)\n        /* \"contracts/InstitutionalSolverSystem.sol\":572:15637  contract InstitutionalSolverSystem {... */\n      and\n      dup2\n      mstore\n        /* \"contracts/InstitutionalSolverSystem.sol\":11335:11350  complianceFlags */\n      0x08\n        /* \"contracts/InstitutionalSolverSystem.sol\":572:15637  contract InstitutionalSolverSystem {... */\n      0x20\n      mstore\n      0x40\n      dup2\n      keccak256\n      calldataload(0x24)\n      swap1\n      sstore\n      dup1\n      return\n    tag_44:\n      pop\n      jumpi(tag_80, callvalue)\n      jumpi(tag_80, slt(add(not(0x03), calldatasize), 0x60))\n      calldataload(0x04)\n      calldataload(0x24)\n      swap1\n      dup1\n      dup4\n      mstore\n        /* \"contracts/InstitutionalSolverSystem.sol\":6478:6486  auctions */\n      0x06\n        /* \"contracts/InstitutionalSolverSystem.sol\":572:15637  contract InstitutionalSolverSystem {... */\n      0x20\n      mstore\n      0x40\n      dup4\n      keccak256\n      0xff\n      0x01\n        /* \"contracts/InstitutionalSolverSystem.sol\":6511:6525  auction.isOpen */\n      dup3\n      add\n        /* \"contracts/InstitutionalSolverSystem.sol\":572:15637  contract InstitutionalSolverSystem {... */\n      sload\n      and\n        /* \"contracts/InstitutionalSolverSystem.sol\":6507:6549  if (auction.isOpen) revert AuctionClosed() */\n      tag_226\n      jumpi\n        /* \"contracts/InstitutionalSolverSystem.sol\":6591:6601  msg.sender */\n      caller\n      0x00\n        /* \"contracts/InstitutionalSolverSystem.sol\":572:15637  contract InstitutionalSolverSystem {... */\n      swap1\n      dup2\n      mstore\n      0x20\n      swap2\n      swap1\n      swap2\n      mstore\n      0x40\n      swap1\n      keccak256\n        /* \"contracts/InstitutionalSolverSystem.sol\":6616:6628  bid.revealed */\n      0x02\n      dup2\n      add\n        /* \"contracts/InstitutionalSolverSystem.sol\":572:15637  contract InstitutionalSolverSystem {... */\n      dup1\n      sload\n        /* \"contracts/InstitutionalSolverSystem.sol\":6616:6628  bid.revealed */\n      swap1\n      swap2\n        /* \"contracts/InstitutionalSolverSystem.sol\":572:15637  contract InstitutionalSolverSystem {... */\n      0xff\n      dup3\n      and\n        /* \"contracts/InstitutionalSolverSystem.sol\":6612:6649  if (bid.revealed) revert InvalidBid() */\n      tag_330\n      jumpi\n        /* \"contracts/InstitutionalSolverSystem.sol\":572:15637  contract InstitutionalSolverSystem {... */\n      mload(0x40)\n      0x20\n        /* \"contracts/InstitutionalSolverSystem.sol\":6673:6702  abi.encodePacked(value, salt) */\n      dup2\n      add\n        /* \"contracts/InstitutionalSolverSystem.sol\":572:15637  contract InstitutionalSolverSystem {... */\n      swap1\n      dup7\n      dup3\n      mstore\n      calldataload(0x44)\n      0x40\n      dup3\n      add\n      mstore\n      0x40\n        /* \"contracts/InstitutionalSolverSystem.sol\":6673:6702  abi.encodePacked(value, salt) */\n      dup2\n      mstore\n      tag_329\n        /* \"contracts/InstitutionalSolverSystem.sol\":572:15637  contract InstitutionalSolverSystem {... */\n      0x60\n        /* \"contracts/InstitutionalSolverSystem.sol\":6673:6702  abi.encodePacked(value, salt) */\n      dup3\n      tag_8\n      jump\t// in\n    tag_329:\n        /* \"contracts/InstitutionalSolverSystem.sol\":572:15637  contract InstitutionalSolverSystem {... */\n      mload\n        /* \"contracts/InstitutionalSolverSystem.sol\":6663:6703  keccak256(abi.encodePacked(value, salt)) */\n      swap1\n      keccak256\n        /* \"contracts/InstitutionalSolverSystem.sol\":572:15637  contract InstitutionalSolverSystem {... */\n      dup2\n      sload\n        /* \"contracts/InstitutionalSolverSystem.sol\":6663:6721  keccak256(abi.encodePacked(value, salt)) != bid.commitHash */\n      sub\n        /* \"contracts/InstitutionalSolverSystem.sol\":6659:6742  if (keccak256(abi.encodePacked(value, salt)) != bid.commitHash) revert InvalidBid() */\n      tag_330\n      jumpi\n        /* \"contracts/InstitutionalSolverSystem.sol\":6753:6768  bid.revealValue */\n      swap1\n      dup5\n        /* \"contracts/InstitutionalSolverSystem.sol\":572:15637  contract InstitutionalSolverSystem {... */\n      0x01\n        /* \"contracts/InstitutionalSolverSystem.sol\":6753:6768  bid.revealValue */\n      dup1\n      swap4\n      add\n        /* \"contracts/InstitutionalSolverSystem.sol\":572:15637  contract InstitutionalSolverSystem {... */\n      sstore\n      not(0xff)\n      and\n      or\n      swap1\n      sstore\n      mload(0x40)\n      swap2\n      dup3\n      mstore\n        /* \"contracts/InstitutionalSolverSystem.sol\":6820:6861  BidRevealed(auctionId, msg.sender, value) */\n      0x86d2fbc9069d34216ebc65b38ce840528d3f8cac0c86d2aaa7ab6a9db8bc35d3\n        /* \"contracts/InstitutionalSolverSystem.sol\":572:15637  contract InstitutionalSolverSystem {... */\n      0x20\n        /* \"contracts/InstitutionalSolverSystem.sol\":6591:6601  msg.sender */\n      caller\n        /* \"contracts/InstitutionalSolverSystem.sol\":6820:6861  BidRevealed(auctionId, msg.sender, value) */\n      swap4\n      log3\n        /* \"contracts/InstitutionalSolverSystem.sol\":572:15637  contract InstitutionalSolverSystem {... */\n      dup1\n      return\n        /* \"contracts/InstitutionalSolverSystem.sol\":6659:6742  if (keccak256(abi.encodePacked(value, salt)) != bid.commitHash) revert InvalidBid() */\n    tag_330:\n      shl(0xe0, 0xc6388ef7)\n        /* \"contracts/InstitutionalSolverSystem.sol\":6730:6742  InvalidBid() */\n      dup7\n      mstore\n        /* \"contracts/InstitutionalSolverSystem.sol\":572:15637  contract InstitutionalSolverSystem {... */\n      0x04\n        /* \"contracts/InstitutionalSolverSystem.sol\":6637:6649  InvalidBid() */\n      dup7\n        /* \"contracts/InstitutionalSolverSystem.sol\":6730:6742  InvalidBid() */\n      revert\n        /* \"contracts/InstitutionalSolverSystem.sol\":572:15637  contract InstitutionalSolverSystem {... */\n    tag_42:\n      jumpi(tag_337, callvalue)\n      jumpi(tag_337, slt(add(not(0x03), calldatasize), 0x60))\n      calldataload(0x04)\n      tag_336\n      tag_2\n      jump\t// in\n    tag_336:\n      swap1\n      calldataload(0x44)\n      sub(shl(0x40, 0x01), 0x01)\n      dup2\n      gt\n      tag_337\n      jumpi\n      tag_339\n      swap1\n      calldatasize\n      swap1\n      0x04\n      add\n      tag_6\n      jump\t// in\n    tag_339:\n      swap2\n      swap1\n      swap3\n        /* \"contracts/InstitutionalSolverSystem.sol\":3184:3185  2 */\n      0x02\n        /* \"contracts/InstitutionalSolverSystem.sol\":572:15637  contract InstitutionalSolverSystem {... */\n      sload(0x00)\n        /* \"contracts/InstitutionalSolverSystem.sol\":3165:3185  reentrancyGuard == 2 */\n      eq\n        /* \"contracts/InstitutionalSolverSystem.sol\":3161:3208  if (reentrancyGuard == 2) revert NonReentrant() */\n      tag_340\n      jumpi\n        /* \"contracts/InstitutionalSolverSystem.sol\":3184:3185  2 */\n      0x02\n        /* \"contracts/InstitutionalSolverSystem.sol\":572:15637  contract InstitutionalSolverSystem {... */\n      0x00\n      sstore\n      0x01\n      dup1\n      0xa0\n      shl\n      sub\n      dup2\n      and\n      swap4\n      dup5\n      0x00\n      mstore\n        /* \"contracts/InstitutionalSolverSystem.sol\":4115:4125  reputation */\n      0x07\n        /* \"contracts/InstitutionalSolverSystem.sol\":572:15637  contract InstitutionalSolverSystem {... */\n      0x20\n      mstore\n        /* \"contracts/InstitutionalSolverSystem.sol\":2497:2500  100 */\n      0x64\n        /* \"contracts/InstitutionalSolverSystem.sol\":572:15637  contract InstitutionalSolverSystem {... */\n      sload(keccak256(0x00, 0x40))\n        /* \"contracts/InstitutionalSolverSystem.sol\":4115:4158  reputation[solver] < int256(MIN_REPUTATION) */\n      slt\n        /* \"contracts/InstitutionalSolverSystem.sol\":4111:4184  if (reputation[solver] < int256(MIN_REPUTATION)) revert ReputationSlash() */\n      tag_342\n      jumpi\n        /* \"contracts/InstitutionalSolverSystem.sol\":572:15637  contract InstitutionalSolverSystem {... */\n      0x00\n      dup4\n      dup2\n      mstore\n        /* \"contracts/InstitutionalSolverSystem.sol\":4199:4208  resolvers */\n      0x05\n        /* \"contracts/InstitutionalSolverSystem.sol\":572:15637  contract InstitutionalSolverSystem {... */\n      0x20\n      mstore\n      0x40\n      swap1\n      keccak256\n        /* \"contracts/InstitutionalSolverSystem.sol\":2497:2500  100 */\n      sload\n      sub(shl(0xa0, 0x01), 0x01)\n        /* \"contracts/InstitutionalSolverSystem.sol\":572:15637  contract InstitutionalSolverSystem {... */\n      and\n        /* \"contracts/InstitutionalSolverSystem.sol\":4195:4258  if (resolvers[intentId] != address(0)) revert ExecutionFailed() */\n      tag_356\n      jumpi\n        /* \"contracts/InstitutionalSolverSystem.sol\":4290:4303  16780000 / 16 */\n      0x1000ae\n        /* \"contracts/InstitutionalSolverSystem.sol\":4272:4303  execData.length > 16780000 / 16 */\n      dup5\n      gt\n        /* \"contracts/InstitutionalSolverSystem.sol\":4268:4329  if (execData.length > 16780000 / 16) revert ExecutionFailed() */\n      tag_356\n      jumpi\n        /* \"contracts/InstitutionalSolverSystem.sol\":572:15637  contract InstitutionalSolverSystem {... */\n      0x01\n        /* \"contracts/InstitutionalSolverSystem.sol\":2497:2500  100 */\n      sload\n      sub(shl(0xa0, 0x01), 0x01)\n        /* \"contracts/InstitutionalSolverSystem.sol\":572:15637  contract InstitutionalSolverSystem {... */\n      and\n      dup1\n        /* \"contracts/InstitutionalSolverSystem.sol\":4367:4574  if (zkVerifier != address(0)) {... */\n      tag_348\n      jumpi\n        /* \"contracts/InstitutionalSolverSystem.sol\":572:15637  contract InstitutionalSolverSystem {... */\n    tag_349:\n      pop\n      mload(0x40)\n      0x20\n        /* \"contracts/InstitutionalSolverSystem.sol\":4655:4699  abi.encodePacked(intentId, solver, execData) */\n      dup2\n      add\n        /* \"contracts/InstitutionalSolverSystem.sol\":572:15637  contract InstitutionalSolverSystem {... */\n      swap1\n      dup5\n      dup3\n      mstore\n      sub(shl(0x60, 0x01), 0x01)\n        /* \"contracts/InstitutionalSolverSystem.sol\":2497:2500  100 */\n      not\n      dup5\n        /* \"contracts/InstitutionalSolverSystem.sol\":572:15637  contract InstitutionalSolverSystem {... */\n      0x60\n        /* \"contracts/InstitutionalSolverSystem.sol\":2497:2500  100 */\n      shl\n      and\n        /* \"contracts/InstitutionalSolverSystem.sol\":572:15637  contract InstitutionalSolverSystem {... */\n      0x40\n        /* \"contracts/InstitutionalSolverSystem.sol\":2497:2500  100 */\n      dup3\n      add\n      mstore\n      dup6\n      dup4\n      0x54\n      dup4\n      add\n      calldatacopy\n        /* \"contracts/InstitutionalSolverSystem.sol\":4655:4699  abi.encodePacked(intentId, solver, execData) */\n      tag_350\n        /* \"contracts/InstitutionalSolverSystem.sol\":2497:2500  100 */\n      0x54\n      dup3\n      dup9\n      dup2\n      add\n        /* \"contracts/InstitutionalSolverSystem.sol\":572:15637  contract InstitutionalSolverSystem {... */\n      0x00\n        /* \"contracts/InstitutionalSolverSystem.sol\":2497:2500  100 */\n      dup4\n      dup3\n      add\n      mstore\n        /* \"contracts/InstitutionalSolverSystem.sol\":4655:4699  abi.encodePacked(intentId, solver, execData) */\n      sub\n      add\n        /* \"contracts/InstitutionalSolverSystem.sol\":5441:5468  abi.encodePacked(intentIds) */\n      not(0x1f)\n        /* \"contracts/InstitutionalSolverSystem.sol\":4655:4699  abi.encodePacked(intentId, solver, execData) */\n      dup2\n      add\n      dup4\n      mstore\n      dup3\n      tag_8\n      jump\t// in\n    tag_350:\n        /* \"contracts/InstitutionalSolverSystem.sol\":572:15637  contract InstitutionalSolverSystem {... */\n      mload\n        /* \"contracts/InstitutionalSolverSystem.sol\":4645:4700  keccak256(abi.encodePacked(intentId, solver, execData)) */\n      swap1\n      keccak256\n        /* \"lib/solady/src/utils/clz/LibBit.sol\":6183:6227  assembly {... */\n      clz\n        /* \"contracts/InstitutionalSolverSystem.sol\":4728:4731  255 */\n      0xff\n        /* \"contracts/InstitutionalSolverSystem.sol\":572:15637  contract InstitutionalSolverSystem {... */\n      sub\n        /* \"contracts/InstitutionalSolverSystem.sol\":4728:4731  255 */\n      0xff\n        /* \"contracts/InstitutionalSolverSystem.sol\":572:15637  contract InstitutionalSolverSystem {... */\n      dup2\n      gt\n      tag_362\n      jumpi\n        /* \"contracts/InstitutionalSolverSystem.sol\":2497:2500  100 */\n      0x64\n      gt\n        /* \"contracts/InstitutionalSolverSystem.sol\":4772:4811  if (entropy < 100) revert MEVDetected() */\n      tag_353\n      jumpi\n        /* \"contracts/InstitutionalSolverSystem.sol\":572:15637  contract InstitutionalSolverSystem {... */\n      0x00\n      swap2\n      dup3\n      swap2\n      dup6\n      mload(0x40)\n        /* \"contracts/InstitutionalSolverSystem.sol\":2497:2500  100 */\n      swap2\n      dup3\n      calldatacopy\n      dup1\n      dup7\n      dup2\n      add\n      dup5\n      dup2\n      mstore\n        /* \"contracts/InstitutionalSolverSystem.sol\":4866:4895  solver.delegatecall(execData) */\n      sub\n      swap2\n      gas\n      delegatecall\n      tag_355\n      tag_14\n      jump\t// in\n    tag_355:\n      pop\n        /* \"contracts/InstitutionalSolverSystem.sol\":4909:4917  !success */\n      iszero\n        /* \"contracts/InstitutionalSolverSystem.sol\":4905:4943  if (!success) revert ExecutionFailed() */\n      tag_356\n      jumpi\n        /* \"contracts/InstitutionalSolverSystem.sol\":4997:5046  IntentResolved(intentId, solver, execData.length) */\n      0xb5c70dfdfecb7cc39b872e9a3360b1e0a9c6a3bf580ee56cd2eb71664ccd8573\n        /* \"contracts/InstitutionalSolverSystem.sol\":572:15637  contract InstitutionalSolverSystem {... */\n      0x20\n      dup5\n      swap4\n      dup4\n      0x00\n      mstore\n        /* \"contracts/InstitutionalSolverSystem.sol\":4199:4208  resolvers */\n      0x05\n        /* \"contracts/InstitutionalSolverSystem.sol\":572:15637  contract InstitutionalSolverSystem {... */\n      dup3\n      mstore\n      keccak256(0x00, 0x40)\n      dup6\n      shl(0xa0, sub(shl(0x60, 0x01), 0x01))\n      dup3\n      sload\n      and\n      or\n      swap1\n      sstore\n      mload(0x40)\n      swap1\n      dup2\n      mstore\n        /* \"contracts/InstitutionalSolverSystem.sol\":4997:5046  IntentResolved(intentId, solver, execData.length) */\n      log3\n        /* \"contracts/InstitutionalSolverSystem.sol\":5136:5138  10 */\n      0x0a\n        /* \"lib/solady/src/utils/clz/LibBit.sol\":6183:6227  assembly {... */\n      clz\n        /* \"contracts/InstitutionalSolverSystem.sol\":4728:4731  255 */\n      0xff\n        /* \"contracts/InstitutionalSolverSystem.sol\":572:15637  contract InstitutionalSolverSystem {... */\n      sub\n        /* \"contracts/InstitutionalSolverSystem.sol\":4728:4731  255 */\n      0xff\n        /* \"contracts/InstitutionalSolverSystem.sol\":572:15637  contract InstitutionalSolverSystem {... */\n      dup2\n      gt\n      tag_362\n      jumpi\n      dup1\n        /* \"contracts/InstitutionalSolverSystem.sol\":5136:5138  10 */\n      0x0a\n        /* \"contracts/InstitutionalSolverSystem.sol\":572:15637  contract InstitutionalSolverSystem {... */\n      mul\n      swap1\n        /* \"contracts/InstitutionalSolverSystem.sol\":5136:5138  10 */\n      0x0a\n        /* \"contracts/InstitutionalSolverSystem.sol\":572:15637  contract InstitutionalSolverSystem {... */\n      dup3\n      sdiv\n      sub\n      tag_362\n      jumpi\n        /* \"contracts/InstitutionalSolverSystem.sol\":9990:9993  256 */\n      0x0100\n        /* \"contracts/InstitutionalSolverSystem.sol\":572:15637  contract InstitutionalSolverSystem {... */\n      swap1\n      sdiv\n      dup2\n      0x00\n      mstore\n        /* \"contracts/InstitutionalSolverSystem.sol\":4115:4125  reputation */\n      0x07\n        /* \"contracts/InstitutionalSolverSystem.sol\":572:15637  contract InstitutionalSolverSystem {... */\n      0x20\n      mstore\n      keccak256(0x00, 0x40)\n      dup1\n      sload\n      swap1\n      dup3\n      dup3\n      add\n      swap2\n      0x00\n      dup5\n      dup5\n      slt\n      swap2\n      slt\n      swap1\n      dup1\n      iszero\n      dup3\n      and\n      swap2\n      iszero\n      and\n      or\n      tag_362\n      jumpi\n      dup4\n      swap3\n        /* \"contracts/InstitutionalSolverSystem.sol\":10052:10090  ReputationUpdated(solver, scaledDelta) */\n      0x21b93f5364d09d606ec33450e45ad2e33958e3dac6c4f771ed1218f1eca47db5\n        /* \"contracts/InstitutionalSolverSystem.sol\":572:15637  contract InstitutionalSolverSystem {... */\n      swap3\n      0x20\n      swap3\n      sstore\n      mload(0x40)\n      swap1\n      dup2\n      mstore\n        /* \"contracts/InstitutionalSolverSystem.sol\":10052:10090  ReputationUpdated(solver, scaledDelta) */\n      log2\n        /* \"contracts/InstitutionalSolverSystem.sol\":572:15637  contract InstitutionalSolverSystem {... */\n      dup1\n      0x00\n      mstore\n        /* \"contracts/InstitutionalSolverSystem.sol\":4115:4125  reputation */\n      0x07\n        /* \"contracts/InstitutionalSolverSystem.sol\":572:15637  contract InstitutionalSolverSystem {... */\n      0x20\n      mstore\n      0x00\n      0x40\n      dup2\n      keccak256\n      sload\n        /* \"contracts/InstitutionalSolverSystem.sol\":10105:10127  reputation[solver] < 0 */\n      slt\n        /* \"contracts/InstitutionalSolverSystem.sol\":10101:10151  if (reputation[solver] < 0) reputation[solver] = 0 */\n      tag_364\n      jumpi\n        /* \"contracts/InstitutionalSolverSystem.sol\":572:15637  contract InstitutionalSolverSystem {... */\n    tag_365:\n      sstore(0x00, 0x01)\n      stop\n        /* \"contracts/InstitutionalSolverSystem.sol\":10101:10151  if (reputation[solver] < 0) reputation[solver] = 0 */\n    tag_364:\n      0x00\n        /* \"contracts/InstitutionalSolverSystem.sol\":572:15637  contract InstitutionalSolverSystem {... */\n      mstore\n        /* \"contracts/InstitutionalSolverSystem.sol\":4115:4125  reputation */\n      0x07\n        /* \"contracts/InstitutionalSolverSystem.sol\":572:15637  contract InstitutionalSolverSystem {... */\n      0x20\n      mstore\n      0x00\n      0x40\n      dup2\n      keccak256\n      sstore\n        /* \"contracts/InstitutionalSolverSystem.sol\":10101:10151  if (reputation[solver] < 0) reputation[solver] = 0 */\n      dup1\n      jump(tag_365)\n        /* \"contracts/InstitutionalSolverSystem.sol\":572:15637  contract InstitutionalSolverSystem {... */\n    tag_362:\n      mstore(0x00, shl(0xe0, 0x4e487b71))\n      mstore(0x04, 0x11)\n      revert(0x00, 0x24)\n        /* \"contracts/InstitutionalSolverSystem.sol\":4905:4943  if (!success) revert ExecutionFailed() */\n    tag_356:\n        /* \"contracts/InstitutionalSolverSystem.sol\":13038:13055  ExecutionFailed() */\n      shl(0xe2, 0x2b3f6d11)\n        /* \"contracts/InstitutionalSolverSystem.sol\":572:15637  contract InstitutionalSolverSystem {... */\n      0x00\n        /* \"contracts/InstitutionalSolverSystem.sol\":4926:4943  ExecutionFailed() */\n      mstore\n        /* \"contracts/InstitutionalSolverSystem.sol\":572:15637  contract InstitutionalSolverSystem {... */\n      0x04\n      0x00\n        /* \"contracts/InstitutionalSolverSystem.sol\":4926:4943  ExecutionFailed() */\n      revert\n        /* \"contracts/InstitutionalSolverSystem.sol\":4772:4811  if (entropy < 100) revert MEVDetected() */\n    tag_353:\n        /* \"contracts/InstitutionalSolverSystem.sol\":4798:4811  MEVDetected() */\n      shl(0xe0, 0x623513eb)\n        /* \"contracts/InstitutionalSolverSystem.sol\":572:15637  contract InstitutionalSolverSystem {... */\n      0x00\n        /* \"contracts/InstitutionalSolverSystem.sol\":4798:4811  MEVDetected() */\n      mstore\n        /* \"contracts/InstitutionalSolverSystem.sol\":572:15637  contract InstitutionalSolverSystem {... */\n      0x04\n      0x00\n        /* \"contracts/InstitutionalSolverSystem.sol\":4798:4811  MEVDetected() */\n      revert\n        /* \"contracts/InstitutionalSolverSystem.sol\":4367:4574  if (zkVerifier != address(0)) {... */\n    tag_348:\n        /* \"contracts/InstitutionalSolverSystem.sol\":572:15637  contract InstitutionalSolverSystem {... */\n      0x00\n      dup1\n      swap2\n      mload(0x40)\n      0x20\n        /* \"contracts/InstitutionalSolverSystem.sol\":4453:4508  abi.encodeWithSignature(\"verifyProof(bytes)\", execData) */\n      dup2\n      add\n      swap1\n      shl(0xe1, 0x2ae132ff)\n      dup3\n      mstore\n        /* \"contracts/InstitutionalSolverSystem.sol\":572:15637  contract InstitutionalSolverSystem {... */\n      0x20\n      0x24\n        /* \"contracts/InstitutionalSolverSystem.sol\":4453:4508  abi.encodeWithSignature(\"verifyProof(bytes)\", execData) */\n      dup3\n      add\n        /* \"contracts/InstitutionalSolverSystem.sol\":2497:2500  100 */\n      mstore\n        /* \"contracts/InstitutionalSolverSystem.sol\":4453:4508  abi.encodeWithSignature(\"verifyProof(bytes)\", execData) */\n      tag_366\n        /* \"contracts/InstitutionalSolverSystem.sol\":2497:2500  100 */\n      dup2\n      tag_367\n        /* \"contracts/InstitutionalSolverSystem.sol\":572:15637  contract InstitutionalSolverSystem {... */\n      0x44\n        /* \"contracts/InstitutionalSolverSystem.sol\":2497:2500  100 */\n      dup3\n      add\n      dup13\n      dup11\n      tag_15\n      jump\t// in\n    tag_367:\n        /* \"contracts/InstitutionalSolverSystem.sol\":4453:4508  abi.encodeWithSignature(\"verifyProof(bytes)\", execData) */\n      sub\n        /* \"contracts/InstitutionalSolverSystem.sol\":5441:5468  abi.encodePacked(intentIds) */\n      not(0x1f)\n        /* \"contracts/InstitutionalSolverSystem.sol\":4453:4508  abi.encodeWithSignature(\"verifyProof(bytes)\", execData) */\n      dup2\n      add\n      dup4\n      mstore\n      dup3\n      tag_8\n      jump\t// in\n    tag_366:\n        /* \"contracts/InstitutionalSolverSystem.sol\":4431:4509  zkVerifier.staticcall(abi.encodeWithSignature(\"verifyProof(bytes)\", execData)) */\n      mload\n      swap2\n      gas\n      staticcall\n      tag_368\n      tag_14\n      jump\t// in\n    tag_368:\n      pop\n        /* \"contracts/InstitutionalSolverSystem.sol\":4527:4537  !zkSuccess */\n      iszero\n        /* \"contracts/InstitutionalSolverSystem.sol\":4523:4563  if (!zkSuccess) revert ExecutionFailed() */\n      tag_356\n      jumpi\n        /* \"contracts/InstitutionalSolverSystem.sol\":4367:4574  if (zkVerifier != address(0)) {... */\n      dup6\n      jump(tag_349)\n        /* \"contracts/InstitutionalSolverSystem.sol\":4111:4184  if (reputation[solver] < int256(MIN_REPUTATION)) revert ReputationSlash() */\n    tag_342:\n        /* \"contracts/InstitutionalSolverSystem.sol\":4167:4184  ReputationSlash() */\n      shl(0xe0, 0x2f3424c1)\n        /* \"contracts/InstitutionalSolverSystem.sol\":572:15637  contract InstitutionalSolverSystem {... */\n      0x00\n        /* \"contracts/InstitutionalSolverSystem.sol\":4167:4184  ReputationSlash() */\n      mstore\n        /* \"contracts/InstitutionalSolverSystem.sol\":572:15637  contract InstitutionalSolverSystem {... */\n      0x04\n      0x00\n        /* \"contracts/InstitutionalSolverSystem.sol\":4167:4184  ReputationSlash() */\n      revert\n        /* \"contracts/InstitutionalSolverSystem.sol\":3161:3208  if (reentrancyGuard == 2) revert NonReentrant() */\n    tag_340:\n        /* \"contracts/InstitutionalSolverSystem.sol\":3194:3208  NonReentrant() */\n      shl(0xe1, 0x49cb68ab)\n        /* \"contracts/InstitutionalSolverSystem.sol\":572:15637  contract InstitutionalSolverSystem {... */\n      0x00\n        /* \"contracts/InstitutionalSolverSystem.sol\":3194:3208  NonReentrant() */\n      mstore\n        /* \"contracts/InstitutionalSolverSystem.sol\":572:15637  contract InstitutionalSolverSystem {... */\n      0x04\n      0x00\n        /* \"contracts/InstitutionalSolverSystem.sol\":3194:3208  NonReentrant() */\n      revert\n        /* \"contracts/InstitutionalSolverSystem.sol\":572:15637  contract InstitutionalSolverSystem {... */\n    tag_337:\n      0x00\n      dup1\n      revert\n    tag_40:\n      jumpi(tag_337, callvalue)\n      jumpi(tag_337, slt(add(not(0x03), calldatasize), 0x40))\n      calldataload(0x04)\n      sub(shl(0x40, 0x01), 0x01)\n      dup2\n      gt\n      tag_337\n      jumpi\n      tag_377\n      swap1\n      calldatasize\n      swap1\n      0x04\n      add\n      tag_5\n      jump\t// in\n    tag_377:\n      swap1\n      calldataload(0x24)\n      sub(shl(0x40, 0x01), 0x01)\n      dup2\n      gt\n      tag_337\n      jumpi\n      tag_380\n      swap1\n      calldatasize\n      swap1\n      0x04\n      add\n      tag_5\n      jump\t// in\n    tag_380:\n      swap2\n        /* \"contracts/InstitutionalSolverSystem.sol\":3184:3185  2 */\n      0x02\n        /* \"contracts/InstitutionalSolverSystem.sol\":572:15637  contract InstitutionalSolverSystem {... */\n      sload(0x00)\n        /* \"contracts/InstitutionalSolverSystem.sol\":3165:3185  reentrancyGuard == 2 */\n      eq\n        /* \"contracts/InstitutionalSolverSystem.sol\":3161:3208  if (reentrancyGuard == 2) revert NonReentrant() */\n      tag_340\n      jumpi\n        /* \"contracts/InstitutionalSolverSystem.sol\":5268:5302  intentIds.length != solvers.length */\n      dup3\n      dup5\n      sub\n        /* \"contracts/InstitutionalSolverSystem.sol\":5264:5326  if (intentIds.length != solvers.length) revert InvalidIntent() */\n      tag_383\n      jumpi\n        /* \"contracts/InstitutionalSolverSystem.sol\":5359:5376  60000000 / 200000 */\n      0x012c\n        /* \"contracts/InstitutionalSolverSystem.sol\":5340:5376  intentIds.length > 60000000 / 200000 */\n      dup5\n      gt\n        /* \"contracts/InstitutionalSolverSystem.sol\":5336:5402  if (intentIds.length > 60000000 / 200000) revert ExecutionFailed() */\n      tag_356\n      jumpi\n        /* \"contracts/InstitutionalSolverSystem.sol\":572:15637  contract InstitutionalSolverSystem {... */\n      mload(0x40)\n      0x20\n        /* \"contracts/InstitutionalSolverSystem.sol\":5441:5468  abi.encodePacked(intentIds) */\n      dup2\n      add\n      swap2\n      sub(shl(0xfb, 0x01), 0x01)\n        /* \"contracts/InstitutionalSolverSystem.sol\":572:15637  contract InstitutionalSolverSystem {... */\n      dup7\n      gt\n      tag_337\n      jumpi\n      0x20\n      dup3\n        /* \"contracts/InstitutionalSolverSystem.sol\":5441:5468  abi.encodePacked(intentIds) */\n      tag_389\n        /* \"contracts/InstitutionalSolverSystem.sol\":572:15637  contract InstitutionalSolverSystem {... */\n      swap3\n      dup9\n      0x05\n      shl\n      dup1\n      swap2\n      dup8\n      calldatacopy\n      dup2\n      add\n        /* \"contracts/InstitutionalSolverSystem.sol\":5441:5468  abi.encodePacked(intentIds) */\n      sub\n      add\n      not(0x1f)\n      dup2\n      add\n      dup4\n      mstore\n      dup3\n      tag_8\n      jump\t// in\n    tag_389:\n        /* \"contracts/InstitutionalSolverSystem.sol\":572:15637  contract InstitutionalSolverSystem {... */\n      mload\n        /* \"contracts/InstitutionalSolverSystem.sol\":5431:5469  keccak256(abi.encodePacked(intentIds)) */\n      swap1\n      keccak256\n        /* \"lib/solady/src/utils/clz/LibBit.sol\":6183:6227  assembly {... */\n      clz\n        /* \"contracts/InstitutionalSolverSystem.sol\":5497:5500  255 */\n      0xff\n        /* \"contracts/InstitutionalSolverSystem.sol\":572:15637  contract InstitutionalSolverSystem {... */\n      sub\n      swap3\n        /* \"contracts/InstitutionalSolverSystem.sol\":5497:5500  255 */\n      0xff\n        /* \"contracts/InstitutionalSolverSystem.sol\":572:15637  contract InstitutionalSolverSystem {... */\n      dup5\n      gt\n      tag_362\n      jumpi\n      0x00\n        /* \"contracts/InstitutionalSolverSystem.sol\":5563:5583  i < intentIds.length */\n    tag_392:\n      dup2\n      dup2\n      lt\n      tag_393\n      jumpi\n        /* \"contracts/InstitutionalSolverSystem.sol\":572:15637  contract InstitutionalSolverSystem {... */\n      pop\n      pop\n      mload(0x40)\n      swap2\n      dup1\n      0x20\n      dup5\n      add\n      0x20\n      dup6\n      mstore\n      mstore\n      0x40\n      dup4\n      add\n      swap2\n      swap1\n      0x00\n    tag_395:\n      dup2\n      dup2\n      lt\n      tag_396\n      jumpi\n        /* \"contracts/InstitutionalSolverSystem.sol\":5719:5750  BatchExecuted(batchId, solvers) */\n      dup6\n      0x3c7546ea6213d639e7de5c441a4abe5e41931f976097e9e5db39896bc2f648c5\n      dup7\n      dup7\n      sub\n      dup8\n      log2\n        /* \"contracts/InstitutionalSolverSystem.sol\":572:15637  contract InstitutionalSolverSystem {... */\n      sstore(0x00, 0x01)\n      stop\n    tag_396:\n      swap1\n      swap2\n      swap3\n      0x20\n      dup1\n      0x01\n      swap3\n      dup4\n      dup1\n      0xa0\n      shl\n      sub\n      tag_398\n      dup9\n      tag_4\n      jump\t// in\n    tag_398:\n      and\n      dup2\n      mstore\n      add\n      swap5\n      add\n      swap3\n      swap2\n      add\n      jump(tag_395)\n        /* \"contracts/InstitutionalSolverSystem.sol\":5548:5561  uint256 i = 0 */\n    tag_393:\n        /* \"contracts/InstitutionalSolverSystem.sol\":572:15637  contract InstitutionalSolverSystem {... */\n      0x01\n      add\n        /* \"contracts/InstitutionalSolverSystem.sol\":5548:5561  uint256 i = 0 */\n      jump(tag_392)\n        /* \"contracts/InstitutionalSolverSystem.sol\":5264:5326  if (intentIds.length != solvers.length) revert InvalidIntent() */\n    tag_383:\n        /* \"contracts/InstitutionalSolverSystem.sol\":5311:5326  InvalidIntent() */\n      shl(0xe1, 0x3edae5df)\n        /* \"contracts/InstitutionalSolverSystem.sol\":572:15637  contract InstitutionalSolverSystem {... */\n      0x00\n        /* \"contracts/InstitutionalSolverSystem.sol\":5311:5326  InvalidIntent() */\n      mstore\n        /* \"contracts/InstitutionalSolverSystem.sol\":572:15637  contract InstitutionalSolverSystem {... */\n      0x04\n      0x00\n        /* \"contracts/InstitutionalSolverSystem.sol\":5311:5326  InvalidIntent() */\n      revert\n        /* \"contracts/InstitutionalSolverSystem.sol\":572:15637  contract InstitutionalSolverSystem {... */\n    tag_38:\n      jumpi(tag_337, callvalue)\n      jumpi(tag_337, slt(add(not(0x03), calldatasize), 0x20))\n      tag_403\n      tag_1\n      jump\t// in\n    tag_403:\n        /* \"contracts/InstitutionalSolverSystem.sol\":3075:3080  owner */\n      immutable(\"0x71e5aa733ba7f8a0c5bcd527844c36ca3be5207ad50dafbb495a9ddba4e4ae54\")\n      sub(shl(0xa0, 0x01), 0x01)\n        /* \"contracts/InstitutionalSolverSystem.sol\":572:15637  contract InstitutionalSolverSystem {... */\n      and\n        /* \"contracts/InstitutionalSolverSystem.sol\":3061:3071  msg.sender */\n      caller\n        /* \"contracts/InstitutionalSolverSystem.sol\":3061:3080  msg.sender != owner */\n      sub\n        /* \"contracts/InstitutionalSolverSystem.sol\":3057:3103  if (msg.sender != owner) revert Unauthorized() */\n      tag_404\n      jumpi\n      sub(shl(0xa0, 0x01), 0x01)\n        /* \"contracts/InstitutionalSolverSystem.sol\":572:15637  contract InstitutionalSolverSystem {... */\n      and\n      0x00\n      swap1\n      dup2\n      mstore\n        /* \"contracts/InstitutionalSolverSystem.sol\":12439:12457  treasuryAuthorized */\n      0x0b\n        /* \"contracts/InstitutionalSolverSystem.sol\":572:15637  contract InstitutionalSolverSystem {... */\n      0x20\n      mstore\n      0x40\n      swap1\n      keccak256\n      dup1\n      sload\n      not(0xff)\n      and\n      0x01\n      or\n      swap1\n      sstore\n      stop\n        /* \"contracts/InstitutionalSolverSystem.sol\":3057:3103  if (msg.sender != owner) revert Unauthorized() */\n    tag_404:\n        /* \"contracts/InstitutionalSolverSystem.sol\":3089:3103  Unauthorized() */\n      shl(0xe8, 0x82b429)\n        /* \"contracts/InstitutionalSolverSystem.sol\":572:15637  contract InstitutionalSolverSystem {... */\n      0x00\n        /* \"contracts/InstitutionalSolverSystem.sol\":3089:3103  Unauthorized() */\n      mstore\n        /* \"contracts/InstitutionalSolverSystem.sol\":572:15637  contract InstitutionalSolverSystem {... */\n      0x04\n      0x00\n        /* \"contracts/InstitutionalSolverSystem.sol\":3089:3103  Unauthorized() */\n      revert\n        /* \"contracts/InstitutionalSolverSystem.sol\":572:15637  contract InstitutionalSolverSystem {... */\n    tag_36:\n      jumpi(tag_337, callvalue)\n      jumpi(tag_337, slt(add(not(0x03), calldatasize), 0x40))\n      tag_410\n      tag_2\n      jump\t// in\n    tag_410:\n        /* \"contracts/InstitutionalSolverSystem.sol\":3075:3080  owner */\n      immutable(\"0x71e5aa733ba7f8a0c5bcd527844c36ca3be5207ad50dafbb495a9ddba4e4ae54\")\n      sub(shl(0xa0, 0x01), 0x01)\n        /* \"contracts/InstitutionalSolverSystem.sol\":572:15637  contract InstitutionalSolverSystem {... */\n      and\n        /* \"contracts/InstitutionalSolverSystem.sol\":3061:3071  msg.sender */\n      caller\n        /* \"contracts/InstitutionalSolverSystem.sol\":3061:3080  msg.sender != owner */\n      sub\n        /* \"contracts/InstitutionalSolverSystem.sol\":3057:3103  if (msg.sender != owner) revert Unauthorized() */\n      tag_404\n      jumpi\n        /* \"contracts/InstitutionalSolverSystem.sol\":572:15637  contract InstitutionalSolverSystem {... */\n      mstore(0x00, calldataload(0x04))\n      mstore(0x20, 0x04)\n      keccak256(0x00, 0x40)\n      swap1\n      mload(0x40)\n      swap2\n      0x00\n      swap1\n      dup1\n      sload\n      swap1\n      tag_413\n      dup3\n      tag_13\n      jump\t// in\n    tag_413:\n      swap2\n      0x01\n      dup2\n      and\n      swap1\n      dup2\n      iszero\n      tag_414\n      jumpi\n      pop\n      0x01\n      eq\n      tag_416\n      jumpi\n    tag_417:\n        /* \"contracts/InstitutionalSolverSystem.sol\":12970:13007  venue.delegatecall(intents[intentId]) */\n      pop\n      pop\n      swap1\n      dup3\n        /* \"contracts/InstitutionalSolverSystem.sol\":572:15637  contract InstitutionalSolverSystem {... */\n      0x00\n        /* \"contracts/InstitutionalSolverSystem.sol\":12970:13007  venue.delegatecall(intents[intentId]) */\n      swap4\n      dup5\n      swap4\n      sub\n      swap2\n      gas\n      delegatecall\n      tag_418\n      tag_14\n      jump\t// in\n    tag_418:\n      pop\n        /* \"contracts/InstitutionalSolverSystem.sol\":13021:13029  !success */\n      iszero\n        /* \"contracts/InstitutionalSolverSystem.sol\":13017:13055  if (!success) revert ExecutionFailed() */\n      tag_356\n      jumpi\n        /* \"contracts/InstitutionalSolverSystem.sol\":572:15637  contract InstitutionalSolverSystem {... */\n      stop\n    tag_416:\n      swap1\n      swap2\n      pop\n      0x00\n      mstore\n      keccak256(0x00, 0x20)\n      0x00\n      swap1\n    tag_421:\n      dup3\n      dup3\n      lt\n      tag_422\n      jumpi\n      pop\n      pop\n      dup3\n      add\n      dup3\n      0x00\n      jump(tag_417)\n    tag_422:\n      0x01\n      dup2\n      0x20\n      swap3\n      sload\n      dup5\n      dup9\n      add\n      mstore\n      add\n      swap2\n      add\n      swap1\n      jump(tag_421)\n    tag_414:\n      not(0xff)\n      and\n      dup7\n      mstore\n      pop\n      pop\n      dup1\n      iszero\n      iszero\n      mul\n      dup4\n      add\n      swap1\n      pop\n      dup3\n      0x00\n      jump(tag_417)\n    tag_34:\n      jumpi(tag_337, callvalue)\n      jumpi(tag_337, slt(add(not(0x03), calldatasize), 0x20))\n        /* \"contracts/InstitutionalSolverSystem.sol\":3075:3080  owner */\n      immutable(\"0x71e5aa733ba7f8a0c5bcd527844c36ca3be5207ad50dafbb495a9ddba4e4ae54\")\n      sub(shl(0xa0, 0x01), 0x01)\n        /* \"contracts/InstitutionalSolverSystem.sol\":572:15637  contract InstitutionalSolverSystem {... */\n      and\n        /* \"contracts/InstitutionalSolverSystem.sol\":3061:3071  msg.sender */\n      caller\n        /* \"contracts/InstitutionalSolverSystem.sol\":3061:3080  msg.sender != owner */\n      sub\n        /* \"contracts/InstitutionalSolverSystem.sol\":3057:3103  if (msg.sender != owner) revert Unauthorized() */\n      tag_404\n      jumpi\n        /* \"contracts/InstitutionalSolverSystem.sol\":572:15637  contract InstitutionalSolverSystem {... */\n      calldataload(0x04)\n      0x00\n      swap1\n      dup2\n      mstore\n        /* \"contracts/InstitutionalSolverSystem.sol\":6000:6008  auctions */\n      0x06\n        /* \"contracts/InstitutionalSolverSystem.sol\":572:15637  contract InstitutionalSolverSystem {... */\n      0x20\n      mstore\n      0x40\n      swap1\n      keccak256\n      0x01\n        /* \"contracts/InstitutionalSolverSystem.sol\":6000:6026  auctions[auctionId].isOpen */\n      add\n        /* \"contracts/InstitutionalSolverSystem.sol\":572:15637  contract InstitutionalSolverSystem {... */\n      dup1\n      sload\n      not(0xff)\n      and\n      swap1\n      sstore\n      stop\n    tag_32:\n      jumpi(tag_337, callvalue)\n      jumpi(tag_337, slt(add(not(0x03), calldatasize), 0x20))\n        /* \"contracts/InstitutionalSolverSystem.sol\":3075:3080  owner */\n      immutable(\"0x71e5aa733ba7f8a0c5bcd527844c36ca3be5207ad50dafbb495a9ddba4e4ae54\")\n      sub(shl(0xa0, 0x01), 0x01)\n        /* \"contracts/InstitutionalSolverSystem.sol\":572:15637  contract InstitutionalSolverSystem {... */\n      and\n        /* \"contracts/InstitutionalSolverSystem.sol\":3061:3071  msg.sender */\n      caller\n        /* \"contracts/InstitutionalSolverSystem.sol\":3061:3080  msg.sender != owner */\n      sub\n        /* \"contracts/InstitutionalSolverSystem.sol\":3057:3103  if (msg.sender != owner) revert Unauthorized() */\n      tag_404\n      jumpi\n        /* \"contracts/InstitutionalSolverSystem.sol\":572:15637  contract InstitutionalSolverSystem {... */\n      mstore(0x00, calldataload(0x04))\n        /* \"contracts/InstitutionalSolverSystem.sol\":5884:5892  auctions */\n      0x06\n        /* \"contracts/InstitutionalSolverSystem.sol\":572:15637  contract InstitutionalSolverSystem {... */\n      0x20\n      mstore\n      0x01\n      keccak256(0x00, 0x40)\n        /* \"contracts/InstitutionalSolverSystem.sol\":5884:5910  auctions[auctionId].isOpen */\n      add\n        /* \"contracts/InstitutionalSolverSystem.sol\":572:15637  contract InstitutionalSolverSystem {... */\n      0x01\n      not(0xff)\n      dup3\n      sload\n      and\n      or\n      swap1\n      sstore\n      0x00\n      dup1\n      return\n    tag_30:\n      jumpi(tag_337, callvalue)\n      jumpi(tag_337, slt(add(not(0x03), calldatasize), 0x00))\n        /* \"contracts/InstitutionalSolverSystem.sol\":1882:1906  address public paymaster */\n      0x02\n        /* \"contracts/InstitutionalSolverSystem.sol\":572:15637  contract InstitutionalSolverSystem {... */\n      sload\n      mload(0x40)\n      sub(shl(0xa0, 0x01), 0x01)\n      swap1\n      swap2\n      and\n      dup2\n      mstore\n      0x20\n      swap1\n      return\n    tag_28:\n      jumpi(tag_337, callvalue)\n      jumpi(tag_337, slt(add(not(0x03), calldatasize), 0x40))\n      tag_444\n      tag_1\n      jump\t// in\n    tag_444:\n      sub(shl(0xa0, 0x01), 0x01)\n      and\n      0x00\n      dup2\n      dup2\n      mstore\n        /* \"contracts/InstitutionalSolverSystem.sol\":11767:11783  treasuryBalances */\n      0x0a\n        /* \"contracts/InstitutionalSolverSystem.sol\":572:15637  contract InstitutionalSolverSystem {... */\n      0x20\n      mstore\n      0x40\n      swap1\n      keccak256\n      dup1\n      sload\n      calldataload(0x24)\n      swap2\n      swap1\n        /* \"contracts/InstitutionalSolverSystem.sol\":11767:11800  treasuryBalances[token] += amount */\n      tag_445\n      swap1\n        /* \"contracts/InstitutionalSolverSystem.sol\":572:15637  contract InstitutionalSolverSystem {... */\n      dup4\n      swap1\n        /* \"contracts/InstitutionalSolverSystem.sol\":11767:11800  treasuryBalances[token] += amount */\n      tag_11\n      jump\t// in\n    tag_445:\n        /* \"contracts/InstitutionalSolverSystem.sol\":572:15637  contract InstitutionalSolverSystem {... */\n      swap1\n      sstore\n        /* \"lib/solady/src/utils/clz/LibBit.sol\":6183:6227  assembly {... */\n      dup1\n      clz\n        /* \"contracts/InstitutionalSolverSystem.sol\":11880:11883  255 */\n      0xff\n        /* \"contracts/InstitutionalSolverSystem.sol\":572:15637  contract InstitutionalSolverSystem {... */\n      sub\n        /* \"contracts/InstitutionalSolverSystem.sol\":11880:11883  255 */\n      0xff\n        /* \"contracts/InstitutionalSolverSystem.sol\":572:15637  contract InstitutionalSolverSystem {... */\n      dup2\n      gt\n      tag_362\n      jumpi\n        /* \"contracts/InstitutionalSolverSystem.sol\":11920:11961  TreasuryDeposit(token, amount, logAmount) */\n      0xb68e8301ad7468a283824a6592dd711e09b95af56caa96757e636a4a8588bf29\n        /* \"contracts/InstitutionalSolverSystem.sol\":572:15637  contract InstitutionalSolverSystem {... */\n      swap2\n      0x40\n      swap2\n      dup3\n      mload\n      swap2\n      dup3\n      mstore\n      0x20\n      dup3\n      add\n      mstore\n        /* \"contracts/InstitutionalSolverSystem.sol\":11920:11961  TreasuryDeposit(token, amount, logAmount) */\n      log2\n        /* \"contracts/InstitutionalSolverSystem.sol\":572:15637  contract InstitutionalSolverSystem {... */\n      stop\n    tag_26:\n      jumpi(tag_337, callvalue)\n      jumpi(tag_337, slt(add(not(0x03), calldatasize), 0x20))\n      tag_452\n      tag_1\n      jump\t// in\n    tag_452:\n        /* \"contracts/InstitutionalSolverSystem.sol\":3075:3080  owner */\n      immutable(\"0x71e5aa733ba7f8a0c5bcd527844c36ca3be5207ad50dafbb495a9ddba4e4ae54\")\n      sub(shl(0xa0, 0x01), 0x01)\n        /* \"contracts/InstitutionalSolverSystem.sol\":572:15637  contract InstitutionalSolverSystem {... */\n      and\n        /* \"contracts/InstitutionalSolverSystem.sol\":3061:3071  msg.sender */\n      caller\n        /* \"contracts/InstitutionalSolverSystem.sol\":3061:3080  msg.sender != owner */\n      sub\n        /* \"contracts/InstitutionalSolverSystem.sol\":3057:3103  if (msg.sender != owner) revert Unauthorized() */\n      tag_404\n      jumpi\n        /* \"contracts/InstitutionalSolverSystem.sol\":572:15637  contract InstitutionalSolverSystem {... */\n      0x01\n      dup1\n      sload\n      not(sub(shl(0xa0, 0x01), 0x01))\n      and\n      sub(shl(0xa0, 0x01), 0x01)\n      swap3\n      swap1\n      swap3\n      and\n      swap2\n      swap1\n      swap2\n      or\n      swap1\n      sstore\n      stop\n    tag_1:\n      calldataload(0x04)\n      swap1\n      sub(shl(0xa0, 0x01), 0x01)\n      dup3\n      and\n      dup3\n      sub\n      tag_337\n      jumpi\n      jump\t// out\n    tag_2:\n      calldataload(0x24)\n      swap1\n      sub(shl(0xa0, 0x01), 0x01)\n      dup3\n      and\n      dup3\n      sub\n      tag_337\n      jumpi\n      jump\t// out\n    tag_3:\n      calldataload(0x44)\n      swap1\n      sub(shl(0xa0, 0x01), 0x01)\n      dup3\n      and\n      dup3\n      sub\n      tag_337\n      jumpi\n      jump\t// out\n    tag_4:\n      calldataload\n      swap1\n      sub(shl(0xa0, 0x01), 0x01)\n      dup3\n      and\n      dup3\n      sub\n      tag_337\n      jumpi\n      jump\t// out\n    tag_5:\n      swap2\n      dup2\n      0x1f\n      dup5\n      add\n      slt\n      iszero\n      tag_337\n      jumpi\n      dup3\n      calldataload\n      swap2\n      sub(shl(0x40, 0x01), 0x01)\n      dup4\n      gt\n      tag_337\n      jumpi\n      0x20\n      dup1\n      dup6\n      add\n      swap5\n      dup5\n      0x05\n      shl\n      add\n      add\n      gt\n      tag_337\n      jumpi\n      jump\t// out\n    tag_6:\n      swap2\n      dup2\n      0x1f\n      dup5\n      add\n      slt\n      iszero\n      tag_337\n      jumpi\n      dup3\n      calldataload\n      swap2\n      sub(shl(0x40, 0x01), 0x01)\n      dup4\n      gt\n      tag_337\n      jumpi\n      0x20\n      dup4\n      dup2\n      dup7\n      add\n      swap6\n      add\n      add\n      gt\n      tag_337\n      jumpi\n      jump\t// out\n    tag_7:\n        /* \"contracts/InstitutionalSolverSystem.sol\":1912:1947  address[] public flashloanProviders */\n      0x03\n        /* \"contracts/InstitutionalSolverSystem.sol\":572:15637  contract InstitutionalSolverSystem {... */\n      sload\n      dup2\n      lt\n      iszero\n      tag_475\n      jumpi\n        /* \"contracts/InstitutionalSolverSystem.sol\":1912:1947  address[] public flashloanProviders */\n      0x03\n      0x00\n        /* \"contracts/InstitutionalSolverSystem.sol\":572:15637  contract InstitutionalSolverSystem {... */\n      mstore\n      keccak256(0x00, 0x20)\n      add\n      swap1\n      0x00\n      swap1\n      jump\t// out\n    tag_475:\n      mstore(0x00, shl(0xe0, 0x4e487b71))\n      mstore(0x04, 0x32)\n      revert(0x00, 0x24)\n    tag_8:\n      swap1\n      0x1f\n        /* \"contracts/InstitutionalSolverSystem.sol\":5441:5468  abi.encodePacked(intentIds) */\n      dup1\n      not\n        /* \"contracts/InstitutionalSolverSystem.sol\":572:15637  contract InstitutionalSolverSystem {... */\n      swap2\n      add\n      and\n      dup2\n      add\n      swap1\n      dup2\n      lt\n      sub(shl(0x40, 0x01), 0x01)\n      dup3\n      gt\n      or\n      tag_477\n      jumpi\n      0x40\n      mstore\n      jump\t// out\n    tag_477:\n      mstore(0x00, shl(0xe0, 0x4e487b71))\n      mstore(0x04, 0x41)\n      revert(0x00, 0x24)\n    tag_9:\n      sub(shl(0x40, 0x01), 0x01)\n      dup2\n      gt\n      tag_477\n      jumpi\n      0x05\n      shl\n      0x20\n      add\n      swap1\n      jump\t// out\n    tag_10:\n      swap1\n      dup1\n      0x1f\n      dup4\n      add\n      slt\n      iszero\n      tag_337\n      jumpi\n      dup2\n      calldataload\n      tag_483\n      dup2\n      tag_9\n      jump\t// in\n    tag_483:\n      swap3\n      tag_484\n      mload(0x40)\n      swap5\n      dup6\n      tag_8\n      jump\t// in\n    tag_484:\n      dup2\n      dup5\n      mstore\n      0x20\n      dup1\n      dup6\n      add\n      swap3\n      0x05\n      shl\n      dup3\n      add\n      add\n      swap3\n      dup4\n      gt\n      tag_337\n      jumpi\n      0x20\n      add\n      swap1\n    tag_487:\n      dup3\n      dup3\n      lt\n      tag_488\n      jumpi\n      pop\n      pop\n      pop\n      swap1\n      jump\t// out\n    tag_488:\n      0x20\n      dup1\n      swap2\n      tag_490\n      dup5\n      tag_4\n      jump\t// in\n    tag_490:\n      dup2\n      mstore\n      add\n      swap2\n      add\n      swap1\n      jump(tag_487)\n    tag_11:\n      swap2\n      swap1\n      dup3\n      add\n      dup1\n      swap3\n      gt\n      tag_362\n      jumpi\n      jump\t// out\n    tag_12:\n      swap2\n      swap1\n      dup3\n      sub\n      swap2\n      dup3\n      gt\n      tag_362\n      jumpi\n      jump\t// out\n    tag_13:\n      swap1\n      0x01\n      dup3\n      dup2\n      shr\n      swap3\n      and\n      dup1\n      iszero\n      tag_495\n      jumpi\n    tag_496:\n      0x20\n      dup4\n      lt\n      eq\n      tag_497\n      jumpi\n      jump\t// out\n    tag_497:\n      mstore(0x00, shl(0xe0, 0x4e487b71))\n      mstore(0x04, 0x22)\n      revert(0x00, 0x24)\n    tag_495:\n      swap2\n      0x7f\n      and\n      swap2\n      jump(tag_496)\n    tag_14:\n      jumpi(tag_499, iszero(returndatasize))\n      returndatasize\n      swap1\n      sub(shl(0x40, 0x01), 0x01)\n      dup3\n      gt\n      tag_477\n      jumpi\n      mload(0x40)\n      swap2\n      tag_503\n        /* \"contracts/InstitutionalSolverSystem.sol\":5441:5468  abi.encodePacked(intentIds) */\n      0x1f\n        /* \"contracts/InstitutionalSolverSystem.sol\":572:15637  contract InstitutionalSolverSystem {... */\n      dup3\n      add\n      not(0x1f)\n      and\n      0x20\n      add\n      dup5\n      tag_8\n      jump\t// in\n    tag_503:\n      dup3\n      mstore\n      returndatasize\n      0x00\n      0x20\n      dup5\n      add\n      returndatacopy\n      jump\t// out\n    tag_499:\n      0x60\n      swap1\n      jump\t// out\n        /* \"contracts/InstitutionalSolverSystem.sol\":2497:2500  100 */\n    tag_15:\n      swap1\n      dup1\n        /* \"contracts/InstitutionalSolverSystem.sol\":572:15637  contract InstitutionalSolverSystem {... */\n      0x20\n        /* \"contracts/InstitutionalSolverSystem.sol\":2497:2500  100 */\n      swap4\n      swap3\n        /* \"contracts/InstitutionalSolverSystem.sol\":572:15637  contract InstitutionalSolverSystem {... */\n      dup2\n      dup5\n      mstore\n      dup5\n      dup5\n      add\n        /* \"contracts/InstitutionalSolverSystem.sol\":2497:2500  100 */\n      calldatacopy\n      0x00\n      dup3\n      dup3\n      add\n      dup5\n      add\n      mstore\n        /* \"contracts/InstitutionalSolverSystem.sol\":572:15637  contract InstitutionalSolverSystem {... */\n      0x1f\n      add\n      not(0x1f)\n      and\n        /* \"contracts/InstitutionalSolverSystem.sol\":2497:2500  100 */\n      add\n      add\n      swap1\n      jump\t// out\n        /* \"contracts/InstitutionalSolverSystem.sol\":572:15637  contract InstitutionalSolverSystem {... */\n    tag_16:\n      swap1\n      tag_505\n      dup3\n      tag_9\n      jump\t// in\n    tag_505:\n      tag_506\n      mload(0x40)\n      swap2\n      dup3\n      tag_8\n      jump\t// in\n    tag_506:\n      dup3\n      dup2\n      mstore\n      dup1\n        /* \"contracts/InstitutionalSolverSystem.sol\":5441:5468  abi.encodePacked(intentIds) */\n      swap3\n        /* \"contracts/InstitutionalSolverSystem.sol\":572:15637  contract InstitutionalSolverSystem {... */\n      tag_507\n        /* \"contracts/InstitutionalSolverSystem.sol\":5441:5468  abi.encodePacked(intentIds) */\n      not(0x1f)\n        /* \"contracts/InstitutionalSolverSystem.sol\":572:15637  contract InstitutionalSolverSystem {... */\n      swap2\n      tag_9\n      jump\t// in\n    tag_507:\n      add\n      swap1\n      0x20\n      calldatasize\n      swap2\n      add\n      calldatacopy\n      jump\t// out\n    tag_17:\n      dup1\n      mload\n      iszero\n      tag_475\n      jumpi\n      0x20\n      add\n      swap1\n      jump\t// out\n    tag_18:\n      dup1\n      mload\n      dup3\n      lt\n      iszero\n      tag_475\n      jumpi\n      0x20\n      swap2\n      0x05\n      shl\n      add\n      add\n      swap1\n      jump\t// out\n    tag_19:\n      not(0x00)\n      dup2\n      eq\n      tag_362\n      jumpi\n      0x01\n      add\n      swap1\n      jump\t// out\n        /* \"contracts/InstitutionalSolverSystem.sol\":10475:11066  function executeFlashloan(address token, uint256 amount, bytes calldata data) external nonReentrant {... */\n    tag_20:\n      swap3\n      swap1\n      swap2\n        /* \"lib/solady/src/utils/clz/LibBit.sol\":6183:6227  assembly {... */\n      dup3\n      clz\n        /* \"contracts/InstitutionalSolverSystem.sol\":10641:10644  255 */\n      0xff\n        /* \"contracts/InstitutionalSolverSystem.sol\":572:15637  contract InstitutionalSolverSystem {... */\n      sub\n        /* \"contracts/InstitutionalSolverSystem.sol\":10641:10644  255 */\n      0xff\n        /* \"contracts/InstitutionalSolverSystem.sol\":572:15637  contract InstitutionalSolverSystem {... */\n      dup2\n      gt\n      tag_362\n      jumpi\n        /* \"contracts/InstitutionalSolverSystem.sol\":10662:10664  10 */\n      0x0a\n      gt\n        /* \"contracts/InstitutionalSolverSystem.sol\":10637:10690  if (255 - leadingZeros < 10) revert FlashloanFailed() */\n      tag_519\n      jumpi\n      0x00\n        /* \"contracts/InstitutionalSolverSystem.sol\":10706:10719  uint256 i = 0 */\n    tag_518:\n        /* \"contracts/InstitutionalSolverSystem.sol\":10725:10743  flashloanProviders */\n      0x03\n        /* \"contracts/InstitutionalSolverSystem.sol\":572:15637  contract InstitutionalSolverSystem {... */\n      sload\n        /* \"contracts/InstitutionalSolverSystem.sol\":10721:10750  i < flashloanProviders.length */\n      dup2\n      lt\n      iszero\n      tag_519\n      jumpi\n      0x00\n        /* \"contracts/InstitutionalSolverSystem.sol\":10785:10806  flashloanProviders[i] */\n      dup1\n      tag_521\n      dup4\n      tag_7\n      jump\t// in\n    tag_521:\n        /* \"contracts/InstitutionalSolverSystem.sol\":572:15637  contract InstitutionalSolverSystem {... */\n      0x01\n      dup1\n      0xa0\n      shl\n      sub\n      swap2\n      sload\n      swap1\n        /* \"contracts/InstitutionalSolverSystem.sol\":10725:10743  flashloanProviders */\n      0x03\n        /* \"contracts/InstitutionalSolverSystem.sol\":572:15637  contract InstitutionalSolverSystem {... */\n      shl\n      shr\n      and\n      mload(0x40)\n        /* \"contracts/InstitutionalSolverSystem.sol\":10829:10909  abi.encodeWithSignature(\"flashLoan(address,uint256,bytes)\", token, amount, data) */\n      dup3\n      0x20\n      dup3\n      add\n      swap2\n      shl(0xe1, 0x701195a1)\n      dup4\n      mstore\n        /* \"contracts/InstitutionalSolverSystem.sol\":572:15637  contract InstitutionalSolverSystem {... */\n      0x01\n      dup1\n      0xa0\n      shl\n      sub\n      dup12\n      and\n        /* \"contracts/InstitutionalSolverSystem.sol\":10829:10909  abi.encodeWithSignature(\"flashLoan(address,uint256,bytes)\", token, amount, data) */\n      0x24\n      dup3\n      add\n        /* \"contracts/InstitutionalSolverSystem.sol\":572:15637  contract InstitutionalSolverSystem {... */\n      mstore\n      dup10\n      0x44\n      dup3\n      add\n      mstore\n      0x60\n      0x64\n      dup3\n      add\n      mstore\n        /* \"contracts/InstitutionalSolverSystem.sol\":10829:10909  abi.encodeWithSignature(\"flashLoan(address,uint256,bytes)\", token, amount, data) */\n      tag_522\n        /* \"contracts/InstitutionalSolverSystem.sol\":572:15637  contract InstitutionalSolverSystem {... */\n      dup2\n      tag_367\n      0x84\n      dup3\n      add\n      dup13\n      dup13\n      tag_15\n      jump\t// in\n        /* \"contracts/InstitutionalSolverSystem.sol\":10829:10909  abi.encodeWithSignature(\"flashLoan(address,uint256,bytes)\", token, amount, data) */\n    tag_522:\n        /* \"contracts/InstitutionalSolverSystem.sol\":10785:10923  flashloanProviders[i].call(... */\n      mload\n      swap3\n      gas\n      call\n      tag_524\n      tag_14\n      jump\t// in\n    tag_524:\n      pop\n        /* \"contracts/InstitutionalSolverSystem.sol\":10937:10957  if (success) return; */\n      tag_525\n      jumpi\n        /* \"contracts/InstitutionalSolverSystem.sol\":572:15637  contract InstitutionalSolverSystem {... */\n      0x01\n      add\n        /* \"contracts/InstitutionalSolverSystem.sol\":10706:10719  uint256 i = 0 */\n      jump(tag_518)\n        /* \"contracts/InstitutionalSolverSystem.sol\":10937:10957  if (success) return; */\n    tag_525:\n        /* \"contracts/InstitutionalSolverSystem.sol\":10950:10957  return; */\n      pop\n      pop\n      pop\n      pop\n      pop\n      jump\t// out\n        /* \"contracts/InstitutionalSolverSystem.sol\":10721:10750  i < flashloanProviders.length */\n    tag_519:\n        /* \"contracts/InstitutionalSolverSystem.sol\":10673:10690  FlashloanFailed() */\n      shl(0xe7, 0x01fabd5b)\n      0x00\n        /* \"contracts/InstitutionalSolverSystem.sol\":11042:11059  FlashloanFailed() */\n      mstore\n        /* \"contracts/InstitutionalSolverSystem.sol\":10829:10909  abi.encodeWithSignature(\"flashLoan(address,uint256,bytes)\", token, amount, data) */\n      0x04\n      0x00\n        /* \"contracts/InstitutionalSolverSystem.sol\":11042:11059  FlashloanFailed() */\n      revert\n        /* \"lib/solady/src/utils/LibSort.sol\":840:1860  function insertionSort(uint256[] memory a) internal pure {... */\n    tag_21:\n        /* \"lib/solady/src/utils/LibSort.sol\":950:1854  assembly {... */\n      dup1\n      mload\n      swap1\n      0x00\n      dup2\n      mstore\n      dup2\n      0x05\n      shl\n      dup2\n      add\n      swap3\n      0x20\n      dup3\n      add\n      swap4\n    tag_527:\n      0x20\n      dup6\n      add\n      swap2\n      dup2\n      dup4\n      gt\n      tag_528\n      jumpi\n      dup3\n      mload\n      swap6\n      dup1\n      mload\n      dup8\n      dup2\n      gt\n      iszero\n      tag_530\n      jumpi\n    tag_532:\n      0x20\n      dup3\n      add\n      mstore\n      not(0x1f)\n      add\n      dup1\n      mload\n      dup8\n      dup2\n      gt\n      tag_532\n      jumpi\n      pop\n      0x20\n      swap1\n      swap7\n      swap2\n      swap5\n      swap3\n      swap6\n      swap4\n      swap7\n      add\n      mstore\n    tag_535:\n      swap2\n      swap1\n      swap3\n      jump(tag_527)\n    tag_530:\n      pop\n      pop\n      swap3\n      swap1\n      swap4\n      swap2\n      swap5\n      pop\n      jump(tag_535)\n    tag_528:\n      swap5\n      pop\n      pop\n      pop\n      mstore\n        /* \"lib/solady/src/utils/LibSort.sol\":840:1860  function insertionSort(uint256[] memory a) internal pure {... */\n      jump\t// out\n\n    auxdata: 0xa26469706673582212209e6575a39d2b4fbadafaf52ace7842bf7a9b49b67e788c3301f4c67f7d40d70d64736f6c63430008210033\n}\n","methodIdentifiers":{"addFlashloanProvider(address)":"745a1b2a","authorizeTreasuryAccess(address)":"350a26bf","batchResolve(uint256[],address[])":"424f84a7","checkCompliance(address,uint256)":"ed3310bd","closeAuction(uint256)":"236ed8f3","commitBid(uint256,bytes32)":"9468cb61","depositToTreasury(address,uint256)":"156e101e","executeFlashloan(address,uint256,bytes)":"bbbc7b84","failoverRoute(uint256,address)":"268968e5","flashloanProviders(uint256)":"58ad27bf","getReputation(address)":"9c89a0e2","getTopSolversByReputation(address[],uint256)":"8bd80fc5","openAuction(uint256)":"1edc8f91","owner()":"8da5cb5b","paymaster()":"16e4cbf9","resolveIntent(uint256,address,bytes)":"4c25f931","revealBid(uint256,uint256,bytes32)":"4d380a0d","sealExecution(uint256)":"affcdf4b","setComplianceFlags(address,uint256)":"4da98a40","settleAuction(uint256,address[])":"97ae02af","submitIntent(uint256,bytes)":"d00d3b31","updatePaymaster(address)":"daf6a3f6","updateReputation(address,int256)":"6a08b511","updateZKVerifier(address)":"01d38886","withdrawFromTreasury(address,uint256,address)":"ca2a9d30","zkVerifier()":"d6df096d"},"id":10}