{"abi":[{"type":"constructor","inputs":[],"stateMutability":"nonpayable"},{"type":"receive","stateMutability":"payable"},{"type":"function","name":"execute10","inputs":[{"name":"targets","type":"address[10]","internalType":"address[10]"},{"name":"calldatas","type":"bytes[10]","internalType":"bytes[10]"},{"name":"count","type":"uint256","internalType":"uint256"}],"outputs":[],"stateMutability":"payable"},{"type":"function","name":"executeOne","inputs":[{"name":"target","type":"address","internalType":"address"},{"name":"data","type":"bytes","internalType":"bytes"}],"outputs":[{"name":"","type":"bytes","internalType":"bytes"}],"stateMutability":"payable"},{"type":"function","name":"owner","inputs":[],"outputs":[{"name":"","type":"address","internalType":"address"}],"stateMutability":"view"},{"type":"function","name":"rescueToken","inputs":[{"name":"token","type":"address","internalType":"address"},{"name":"amount","type":"uint256","internalType":"uint256"}],"outputs":[],"stateMutability":"nonpayable"},{"type":"event","name":"BatchExecuted","inputs":[{"name":"callsExecuted","type":"uint256","indexed":false,"internalType":"uint256"}],"anonymous":false},{"type":"event","name":"CallExecuted","inputs":[{"name":"target","type":"address","indexed":true,"internalType":"address"},{"name":"data","type":"bytes","indexed":false,"internalType":"bytes"},{"name":"success","type":"bool","indexed":false,"internalType":"bool"}],"anonymous":false},{"type":"error","name":"CallFailed","inputs":[{"name":"index","type":"uint256","internalType":"uint256"},{"name":"returnData","type":"bytes","internalType":"bytes"}]},{"type":"error","name":"EthTransferFailed","inputs":[]},{"type":"error","name":"OnlyOwner","inputs":[]},{"type":"error","name":"SingleCallFailed","inputs":[]},{"type":"error","name":"TooManyCalls","inputs":[]},{"type":"error","name":"TransferFailed","inputs":[]}],"bytecode":{"object":"0x60a08060405234603657336080526105d4908161003b8239608051818181609401528181610227015281816102af01526103890152f35b5f80fdfe608080604052600436101561001c575b50361561001a575f80fd5b005b5f3560e01c90816333f3d6281461036a575080633e16b19c146102565780638da5cb5b146102125763f75be35c14610054575f61000f565b61018036600319011261020e57366101441161020e576101443567ffffffffffffffff811161020e5780600401906101443691011161020e5761016435907f00000000000000000000000000000000000000000000000000000000000000006001600160a01b031633036101ff57600a82116101f0575f5b828110610100577fe9cc9bbe7de1cbb097a6357ca3182909488efe8d793e25665befc064a02d10a7602084604051908152a1005b6001600160a01b0361011961011483610521565b610547565b16610127575b6001016100cc565b5f8061013561011484610521565b81610140858761055b565b9190826040519384928337810182815203925af161015c6104b0565b81156101c25750906001917f6eb7af0fe8761c066484ab6b41c49a1eecb9025e21f258e3e7f0ef3631d67b4a6101b861019761011485610521565b6101a1858861055b565b929094604051938493898060a01b031696846104ef565b0390a2905061011f565b826101ec604051928392635c0dee5d60e01b84526004840152604060248401526044830190610456565b0390fd5b63f5dedbff60e01b5f5260045ffd5b635fc483c560e01b5f5260045ffd5b5f80fd5b3461020e575f36600319011261020e576040517f00000000000000000000000000000000000000000000000000000000000000006001600160a01b03168152602090f35b604036600319011261020e5761026a610440565b60243567ffffffffffffffff811161020e573660238201121561020e5780600401359067ffffffffffffffff821161020e576024810190602483369201011161020e577f00000000000000000000000000000000000000000000000000000000000000006001600160a01b031633036101ff575f806040518484823780858101838152039034875af16102fb6104b0565b92811561035b57610357946103407f6eb7af0fe8761c066484ab6b41c49a1eecb9025e21f258e3e7f0ef3631d67b4a9360405193849360018060a01b031696846104ef565b0390a2604051918291602083526020830190610456565b0390f35b631232b02d60e31b5f5260045ffd5b3461020e57604036600319011261020e57610383610440565b906024357f00000000000000000000000000000000000000000000000000000000000000006001600160a01b0316338190036101ff575f9384936001600160a01b0382166103f2575050829182915af16103db6104b0565b50156103e357005b630db2c7f160e31b5f5260045ffd5b849193602082019363a9059cbb60e01b8552602483015260448201526044815261041d60648261047a565b51925af16104296104b0565b501561043157005b6312171d8360e31b5f5260045ffd5b600435906001600160a01b038216820361020e57565b805180835260209291819084018484015e5f828201840152601f01601f1916010190565b90601f8019910116810190811067ffffffffffffffff82111761049c57604052565b634e487b7160e01b5f52604160045260245ffd5b3d156104ea573d9067ffffffffffffffff821161049c57604051916104df601f8201601f19166020018461047a565b82523d5f602084013e565b606090565b918060609160209396959660408652816040870152838601375f828286010152601f8019910116830101931515910152565b600a8110156105335760051b60040190565b634e487b7160e01b5f52603260045260245ffd5b356001600160a01b038116810361020e5790565b90600a8110156105335760051b81013590601e198136030182121561020e57019081359167ffffffffffffffff831161020e57602001823603811361020e57919056fea2646970667358221220f6a26ffe0d07015f811dfbd36646a1adbbfe98da739f6f883e81264beba48fa764736f6c63430008210033","linkReferences":{}},"assembly":"    /* \"contracts/PectraWrapper.sol\":230:2577  contract PectraWrapper {... */\n  0xa0\n  dup1\n  0x40\n  mstore\n  jumpi(tag_1, callvalue)\n    /* \"contracts/PectraWrapper.sol\":718:728  msg.sender */\n  caller\n    /* \"contracts/PectraWrapper.sol\":710:728  owner = msg.sender */\n  0x80\n  mstore\n    /* \"contracts/PectraWrapper.sol\":230:2577  contract PectraWrapper {... */\n  dataSize(sub_0)\n  swap1\n  dup2\n  dataOffset(sub_0)\n  dup3\n  codecopy\n    /* \"contracts/PectraWrapper.sol\":710:728  owner = msg.sender */\n  0x80\n    /* \"contracts/PectraWrapper.sol\":230:2577  contract PectraWrapper {... */\n  mload\n  dup2\n  assignImmutable(\"0x9ebf88998590eb5ab79498ed10dfd7f23e3493a3e0211fc7c91abad2eeb9ab65\")\n  return\ntag_1:\n  0x00\n  dup1\n  revert\nstop\n\nsub_0: assembly {\n        /* \"contracts/PectraWrapper.sol\":230:2577  contract PectraWrapper {... */\n      0x80\n      dup1\n      0x40\n      mstore\n      jumpi(tag_9, iszero(lt(calldatasize, 0x04)))\n    tag_10:\n      pop\n      jumpi(tag_11, iszero(calldatasize))\n      0x00\n      dup1\n      revert\n    tag_11:\n      stop\n    tag_9:\n      shr(0xe0, calldataload(0x00))\n      swap1\n      dup2\n      0x33f3d628\n      eq\n      tag_13\n      jumpi\n      pop\n      dup1\n      0x3e16b19c\n      eq\n      tag_15\n      jumpi\n      dup1\n      0x8da5cb5b\n      eq\n      tag_17\n      jumpi\n      0xf75be35c\n      eq\n      tag_19\n      jumpi\n      0x00\n      jump(tag_10)\n    tag_19:\n      jumpi(tag_27, slt(add(not(0x03), calldatasize), 0x0180))\n      jumpi(tag_27, gt(0x0144, calldatasize))\n      calldataload(0x0144)\n      0xffffffffffffffff\n      dup2\n      gt\n      tag_27\n      jumpi\n      dup1\n      0x04\n      add\n      swap1\n      0x0144\n      calldatasize\n      swap2\n      add\n      gt\n      tag_27\n      jumpi\n      calldataload(0x0164)\n      swap1\n        /* \"contracts/PectraWrapper.sol\":790:795  owner */\n      immutable(\"0x9ebf88998590eb5ab79498ed10dfd7f23e3493a3e0211fc7c91abad2eeb9ab65\")\n      sub(shl(0xa0, 0x01), 0x01)\n        /* \"contracts/PectraWrapper.sol\":230:2577  contract PectraWrapper {... */\n      and\n        /* \"contracts/PectraWrapper.sol\":776:786  msg.sender */\n      caller\n        /* \"contracts/PectraWrapper.sol\":776:795  msg.sender != owner */\n      sub\n        /* \"contracts/PectraWrapper.sol\":772:815  if (msg.sender != owner) revert OnlyOwner() */\n      tag_29\n      jumpi\n        /* \"contracts/PectraWrapper.sol\":1159:1161  10 */\n      0x0a\n        /* \"contracts/PectraWrapper.sol\":1151:1161  count > 10 */\n      dup3\n      gt\n        /* \"contracts/PectraWrapper.sol\":1147:1184  if (count > 10) revert TooManyCalls() */\n      tag_31\n      jumpi\n        /* \"contracts/PectraWrapper.sol\":230:2577  contract PectraWrapper {... */\n      0x00\n        /* \"contracts/PectraWrapper.sol\":1215:1224  i < count */\n    tag_33:\n      dup3\n      dup2\n      lt\n      tag_34\n      jumpi\n        /* \"contracts/PectraWrapper.sol\":1593:1613  BatchExecuted(count) */\n      0xe9cc9bbe7de1cbb097a6357ca3182909488efe8d793e25665befc064a02d10a7\n        /* \"contracts/PectraWrapper.sol\":230:2577  contract PectraWrapper {... */\n      0x20\n      dup5\n      mload(0x40)\n      swap1\n      dup2\n      mstore\n        /* \"contracts/PectraWrapper.sol\":1593:1613  BatchExecuted(count) */\n      log1\n        /* \"contracts/PectraWrapper.sol\":230:2577  contract PectraWrapper {... */\n      stop\n        /* \"contracts/PectraWrapper.sol\":1200:1213  uint256 i = 0 */\n    tag_34:\n      sub(shl(0xa0, 0x01), 0x01)\n        /* \"contracts/PectraWrapper.sol\":1245:1255  targets[i] */\n      tag_36\n      tag_37\n      dup4\n      tag_6\n      jump\t// in\n    tag_37:\n      tag_7\n      jump\t// in\n    tag_36:\n        /* \"contracts/PectraWrapper.sol\":230:2577  contract PectraWrapper {... */\n      and\n        /* \"contracts/PectraWrapper.sol\":1241:1509  if (targets[i] != address(0)) {... */\n      tag_38\n      jumpi\n        /* \"contracts/PectraWrapper.sol\":1200:1213  uint256 i = 0 */\n    tag_39:\n        /* \"contracts/PectraWrapper.sol\":230:2577  contract PectraWrapper {... */\n      0x01\n      add\n        /* \"contracts/PectraWrapper.sol\":1200:1213  uint256 i = 0 */\n      jump(tag_33)\n        /* \"contracts/PectraWrapper.sol\":1241:1509  if (targets[i] != address(0)) {... */\n    tag_38:\n        /* \"contracts/PectraWrapper.sol\":230:2577  contract PectraWrapper {... */\n      0x00\n        /* \"contracts/PectraWrapper.sol\":1331:1341  targets[i] */\n      dup1\n      tag_40\n      tag_37\n      dup5\n      tag_6\n      jump\t// in\n    tag_40:\n        /* \"contracts/PectraWrapper.sol\":1347:1359  calldatas[i] */\n      dup2\n      tag_42\n      dup6\n      dup8\n      tag_8\n      jump\t// in\n    tag_42:\n        /* \"contracts/PectraWrapper.sol\":230:2577  contract PectraWrapper {... */\n      swap2\n      swap1\n      dup3\n      mload(0x40)\n      swap4\n      dup5\n      swap3\n      dup4\n      calldatacopy\n      dup2\n      add\n      dup3\n      dup2\n      mstore\n        /* \"contracts/PectraWrapper.sol\":1331:1360  targets[i].call(calldatas[i]) */\n      sub\n      swap3\n      gas\n      call\n      tag_43\n      tag_4\n      jump\t// in\n    tag_43:\n        /* \"contracts/PectraWrapper.sol\":1382:1390  !success */\n      dup2\n      iszero\n        /* \"contracts/PectraWrapper.sol\":1378:1424  if (!success) revert CallFailed(i, returnData) */\n      tag_44\n      jumpi\n        /* \"contracts/PectraWrapper.sol\":1460:1470  targets[i] */\n      pop\n      swap1\n        /* \"contracts/PectraWrapper.sol\":230:2577  contract PectraWrapper {... */\n      0x01\n        /* \"contracts/PectraWrapper.sol\":1460:1470  targets[i] */\n      swap2\n        /* \"contracts/PectraWrapper.sol\":1447:1494  CallExecuted(targets[i], calldatas[i], success) */\n      0x6eb7af0fe8761c066484ab6b41c49a1eecb9025e21f258e3e7f0ef3631d67b4a\n      tag_46\n        /* \"contracts/PectraWrapper.sol\":1460:1470  targets[i] */\n      tag_47\n      tag_37\n      dup6\n      tag_6\n      jump\t// in\n    tag_47:\n        /* \"contracts/PectraWrapper.sol\":1472:1484  calldatas[i] */\n      tag_49\n      dup6\n      dup9\n      tag_8\n      jump\t// in\n    tag_49:\n        /* \"contracts/PectraWrapper.sol\":230:2577  contract PectraWrapper {... */\n      swap3\n      swap1\n      swap5\n      mload(0x40)\n      swap4\n      dup5\n      swap4\n      dup10\n      dup1\n      0xa0\n      shl\n      sub\n      and\n        /* \"contracts/PectraWrapper.sol\":1447:1494  CallExecuted(targets[i], calldatas[i], success) */\n      swap7\n      dup5\n      tag_5\n      jump\t// in\n    tag_46:\n      sub\n      swap1\n      log2\n        /* \"contracts/PectraWrapper.sol\":1241:1509  if (targets[i] != address(0)) {... */\n      swap1\n      pop\n      jump(tag_39)\n        /* \"contracts/PectraWrapper.sol\":1378:1424  if (!success) revert CallFailed(i, returnData) */\n    tag_44:\n        /* \"contracts/PectraWrapper.sol\":230:2577  contract PectraWrapper {... */\n      dup3\n      tag_50\n      mload(0x40)\n        /* \"contracts/PectraWrapper.sol\":1399:1424  CallFailed(i, returnData) */\n      swap3\n      dup4\n      swap3\n      shl(0xe0, 0x5c0dee5d)\n      dup5\n      mstore\n        /* \"contracts/PectraWrapper.sol\":230:2577  contract PectraWrapper {... */\n      0x04\n        /* \"contracts/PectraWrapper.sol\":1399:1424  CallFailed(i, returnData) */\n      dup5\n      add\n        /* \"contracts/PectraWrapper.sol\":230:2577  contract PectraWrapper {... */\n      mstore\n      0x40\n      0x24\n      dup5\n      add\n      mstore\n      0x44\n      dup4\n      add\n      swap1\n      tag_2\n      jump\t// in\n    tag_50:\n        /* \"contracts/PectraWrapper.sol\":1399:1424  CallFailed(i, returnData) */\n      sub\n      swap1\n      revert\n        /* \"contracts/PectraWrapper.sol\":1147:1184  if (count > 10) revert TooManyCalls() */\n    tag_31:\n        /* \"contracts/PectraWrapper.sol\":1170:1184  TooManyCalls() */\n      shl(0xe0, 0xf5dedbff)\n        /* \"contracts/PectraWrapper.sol\":230:2577  contract PectraWrapper {... */\n      0x00\n        /* \"contracts/PectraWrapper.sol\":1170:1184  TooManyCalls() */\n      mstore\n        /* \"contracts/PectraWrapper.sol\":230:2577  contract PectraWrapper {... */\n      0x04\n      0x00\n        /* \"contracts/PectraWrapper.sol\":1170:1184  TooManyCalls() */\n      revert\n        /* \"contracts/PectraWrapper.sol\":772:815  if (msg.sender != owner) revert OnlyOwner() */\n    tag_29:\n        /* \"contracts/PectraWrapper.sol\":804:815  OnlyOwner() */\n      shl(0xe0, 0x5fc483c5)\n        /* \"contracts/PectraWrapper.sol\":230:2577  contract PectraWrapper {... */\n      0x00\n        /* \"contracts/PectraWrapper.sol\":804:815  OnlyOwner() */\n      mstore\n        /* \"contracts/PectraWrapper.sol\":230:2577  contract PectraWrapper {... */\n      0x04\n      0x00\n        /* \"contracts/PectraWrapper.sol\":804:815  OnlyOwner() */\n      revert\n        /* \"contracts/PectraWrapper.sol\":230:2577  contract PectraWrapper {... */\n    tag_27:\n      0x00\n      dup1\n      revert\n    tag_17:\n      jumpi(tag_27, callvalue)\n      jumpi(tag_27, slt(add(not(0x03), calldatasize), 0x00))\n      mload(0x40)\n        /* \"contracts/PectraWrapper.sol\":434:464  address public immutable owner */\n      immutable(\"0x9ebf88998590eb5ab79498ed10dfd7f23e3493a3e0211fc7c91abad2eeb9ab65\")\n      sub(shl(0xa0, 0x01), 0x01)\n        /* \"contracts/PectraWrapper.sol\":230:2577  contract PectraWrapper {... */\n      and\n      dup2\n      mstore\n      0x20\n      swap1\n      return\n    tag_15:\n      jumpi(tag_27, slt(add(not(0x03), calldatasize), 0x40))\n      tag_57\n      tag_1\n      jump\t// in\n    tag_57:\n      calldataload(0x24)\n      0xffffffffffffffff\n      dup2\n      gt\n      tag_27\n      jumpi\n      calldatasize\n      0x23\n      dup3\n      add\n      slt\n      iszero\n      tag_27\n      jumpi\n      dup1\n      0x04\n      add\n      calldataload\n      swap1\n      0xffffffffffffffff\n      dup3\n      gt\n      tag_27\n      jumpi\n      0x24\n      dup2\n      add\n      swap1\n      0x24\n      dup4\n      calldatasize\n      swap3\n      add\n      add\n      gt\n      tag_27\n      jumpi\n        /* \"contracts/PectraWrapper.sol\":790:795  owner */\n      immutable(\"0x9ebf88998590eb5ab79498ed10dfd7f23e3493a3e0211fc7c91abad2eeb9ab65\")\n      sub(shl(0xa0, 0x01), 0x01)\n        /* \"contracts/PectraWrapper.sol\":230:2577  contract PectraWrapper {... */\n      and\n        /* \"contracts/PectraWrapper.sol\":776:786  msg.sender */\n      caller\n        /* \"contracts/PectraWrapper.sol\":776:795  msg.sender != owner */\n      sub\n        /* \"contracts/PectraWrapper.sol\":772:815  if (msg.sender != owner) revert OnlyOwner() */\n      tag_29\n      jumpi\n        /* \"contracts/PectraWrapper.sol\":230:2577  contract PectraWrapper {... */\n      0x00\n      dup1\n      mload(0x40)\n      dup5\n      dup5\n      dup3\n      calldatacopy\n      dup1\n      dup6\n      dup2\n      add\n      dup4\n      dup2\n      mstore\n        /* \"contracts/PectraWrapper.sol\":1834:1869  target.call{value: msg.value}(data) */\n      sub\n        /* \"contracts/PectraWrapper.sol\":1853:1862  msg.value */\n      swap1\n      callvalue\n        /* \"contracts/PectraWrapper.sol\":1834:1869  target.call{value: msg.value}(data) */\n      dup8\n      gas\n      call\n      tag_68\n      tag_4\n      jump\t// in\n    tag_68:\n        /* \"contracts/PectraWrapper.sol\":1883:1891  !success */\n      swap3\n      dup2\n      iszero\n        /* \"contracts/PectraWrapper.sol\":1879:1918  if (!success) revert SingleCallFailed() */\n      tag_69\n      jumpi\n        /* \"contracts/PectraWrapper.sol\":230:2577  contract PectraWrapper {... */\n      tag_71\n      swap5\n        /* \"contracts/PectraWrapper.sol\":1933:1968  CallExecuted(target, data, success) */\n      tag_72\n      0x6eb7af0fe8761c066484ab6b41c49a1eecb9025e21f258e3e7f0ef3631d67b4a\n        /* \"contracts/PectraWrapper.sol\":230:2577  contract PectraWrapper {... */\n      swap4\n      mload(0x40)\n      swap4\n      dup5\n      swap4\n      0x01\n      dup1\n      0xa0\n      shl\n      sub\n      and\n        /* \"contracts/PectraWrapper.sol\":1933:1968  CallExecuted(target, data, success) */\n      swap7\n      dup5\n      tag_5\n      jump\t// in\n    tag_72:\n      sub\n      swap1\n      log2\n        /* \"contracts/PectraWrapper.sol\":230:2577  contract PectraWrapper {... */\n      mload(0x40)\n      swap2\n      dup3\n      swap2\n      0x20\n      dup4\n      mstore\n      0x20\n      dup4\n      add\n      swap1\n      tag_2\n      jump\t// in\n    tag_71:\n      sub\n      swap1\n      return\n        /* \"contracts/PectraWrapper.sol\":1879:1918  if (!success) revert SingleCallFailed() */\n    tag_69:\n        /* \"contracts/PectraWrapper.sol\":1900:1918  SingleCallFailed() */\n      shl(0xe3, 0x1232b02d)\n        /* \"contracts/PectraWrapper.sol\":230:2577  contract PectraWrapper {... */\n      0x00\n        /* \"contracts/PectraWrapper.sol\":1900:1918  SingleCallFailed() */\n      mstore\n        /* \"contracts/PectraWrapper.sol\":230:2577  contract PectraWrapper {... */\n      0x04\n      0x00\n        /* \"contracts/PectraWrapper.sol\":1900:1918  SingleCallFailed() */\n      revert\n        /* \"contracts/PectraWrapper.sol\":230:2577  contract PectraWrapper {... */\n    tag_13:\n      jumpi(tag_27, callvalue)\n      jumpi(tag_27, slt(add(not(0x03), calldatasize), 0x40))\n      tag_77\n      tag_1\n      jump\t// in\n    tag_77:\n      swap1\n      calldataload(0x24)\n        /* \"contracts/PectraWrapper.sol\":790:795  owner */\n      immutable(\"0x9ebf88998590eb5ab79498ed10dfd7f23e3493a3e0211fc7c91abad2eeb9ab65\")\n      sub(shl(0xa0, 0x01), 0x01)\n        /* \"contracts/PectraWrapper.sol\":230:2577  contract PectraWrapper {... */\n      and\n        /* \"contracts/PectraWrapper.sol\":776:786  msg.sender */\n      caller\n        /* \"contracts/PectraWrapper.sol\":776:795  msg.sender != owner */\n      dup2\n      swap1\n      sub\n        /* \"contracts/PectraWrapper.sol\":772:815  if (msg.sender != owner) revert OnlyOwner() */\n      tag_29\n      jumpi\n        /* \"contracts/PectraWrapper.sol\":230:2577  contract PectraWrapper {... */\n      0x00\n      swap4\n      dup5\n      swap4\n      sub(shl(0xa0, 0x01), 0x01)\n      dup3\n      and\n      tag_80\n      jumpi\n        /* \"contracts/PectraWrapper.sol\":2190:2228  payable(owner).call{value: amount}(\"\") */\n      pop\n      pop\n      dup3\n      swap2\n      dup3\n      swap2\n      gas\n      call\n      tag_82\n      tag_4\n      jump\t// in\n    tag_82:\n      pop\n        /* \"contracts/PectraWrapper.sol\":2246:2251  !sent */\n      iszero\n        /* \"contracts/PectraWrapper.sol\":2242:2279  if (!sent) revert EthTransferFailed() */\n      tag_83\n      jumpi\n        /* \"contracts/PectraWrapper.sol\":230:2577  contract PectraWrapper {... */\n      stop\n        /* \"contracts/PectraWrapper.sol\":2242:2279  if (!sent) revert EthTransferFailed() */\n    tag_83:\n        /* \"contracts/PectraWrapper.sol\":2260:2279  EthTransferFailed() */\n      shl(0xe3, 0x0db2c7f1)\n        /* \"contracts/PectraWrapper.sol\":230:2577  contract PectraWrapper {... */\n      0x00\n        /* \"contracts/PectraWrapper.sol\":2260:2279  EthTransferFailed() */\n      mstore\n        /* \"contracts/PectraWrapper.sol\":230:2577  contract PectraWrapper {... */\n      0x04\n      0x00\n        /* \"contracts/PectraWrapper.sol\":2260:2279  EthTransferFailed() */\n      revert\n        /* \"contracts/PectraWrapper.sol\":2136:2533  if (token == address(0)) {... */\n    tag_80:\n        /* \"contracts/PectraWrapper.sol\":2403:2470  abi.encodeWithSignature(\"transfer(address,uint256)\", owner, amount) */\n      dup5\n      swap2\n      swap4\n        /* \"contracts/PectraWrapper.sol\":230:2577  contract PectraWrapper {... */\n      0x20\n        /* \"contracts/PectraWrapper.sol\":2403:2470  abi.encodeWithSignature(\"transfer(address,uint256)\", owner, amount) */\n      dup3\n      add\n      swap4\n      shl(0xe0, 0xa9059cbb)\n      dup6\n      mstore\n        /* \"contracts/PectraWrapper.sol\":230:2577  contract PectraWrapper {... */\n      0x24\n        /* \"contracts/PectraWrapper.sol\":2403:2470  abi.encodeWithSignature(\"transfer(address,uint256)\", owner, amount) */\n      dup4\n      add\n        /* \"contracts/PectraWrapper.sol\":230:2577  contract PectraWrapper {... */\n      mstore\n      0x44\n      dup3\n      add\n      mstore\n      0x44\n        /* \"contracts/PectraWrapper.sol\":2403:2470  abi.encodeWithSignature(\"transfer(address,uint256)\", owner, amount) */\n      dup2\n      mstore\n      tag_86\n      0x64\n      dup3\n      tag_3\n      jump\t// in\n    tag_86:\n        /* \"contracts/PectraWrapper.sol\":2392:2471  token.call(abi.encodeWithSignature(\"transfer(address,uint256)\", owner, amount)) */\n      mload\n      swap3\n      gas\n      call\n      tag_87\n      tag_4\n      jump\t// in\n    tag_87:\n      pop\n        /* \"contracts/PectraWrapper.sol\":2489:2497  !success */\n      iszero\n        /* \"contracts/PectraWrapper.sol\":2485:2522  if (!success) revert TransferFailed() */\n      tag_88\n      jumpi\n        /* \"contracts/PectraWrapper.sol\":230:2577  contract PectraWrapper {... */\n      stop\n        /* \"contracts/PectraWrapper.sol\":2485:2522  if (!success) revert TransferFailed() */\n    tag_88:\n        /* \"contracts/PectraWrapper.sol\":2506:2522  TransferFailed() */\n      shl(0xe3, 0x12171d83)\n        /* \"contracts/PectraWrapper.sol\":230:2577  contract PectraWrapper {... */\n      0x00\n        /* \"contracts/PectraWrapper.sol\":2506:2522  TransferFailed() */\n      mstore\n        /* \"contracts/PectraWrapper.sol\":230:2577  contract PectraWrapper {... */\n      0x04\n      0x00\n        /* \"contracts/PectraWrapper.sol\":2506:2522  TransferFailed() */\n      revert\n        /* \"contracts/PectraWrapper.sol\":230:2577  contract PectraWrapper {... */\n    tag_1:\n      calldataload(0x04)\n      swap1\n      sub(shl(0xa0, 0x01), 0x01)\n      dup3\n      and\n      dup3\n      sub\n      tag_27\n      jumpi\n      jump\t// out\n    tag_2:\n      dup1\n      mload\n      dup1\n      dup4\n      mstore\n      0x20\n      swap3\n      swap2\n      dup2\n      swap1\n      dup5\n      add\n      dup5\n      dup5\n      add\n      mcopy\n      0x00\n      dup3\n      dup3\n      add\n      dup5\n      add\n      mstore\n      0x1f\n      add\n      not(0x1f)\n      and\n      add\n      add\n      swap1\n      jump\t// out\n    tag_3:\n      swap1\n      0x1f\n      dup1\n      not\n      swap2\n      add\n      and\n      dup2\n      add\n      swap1\n      dup2\n      lt\n      0xffffffffffffffff\n      dup3\n      gt\n      or\n      tag_92\n      jumpi\n      0x40\n      mstore\n      jump\t// out\n    tag_92:\n      mstore(0x00, shl(0xe0, 0x4e487b71))\n      mstore(0x04, 0x41)\n      revert(0x00, 0x24)\n    tag_4:\n      jumpi(tag_94, iszero(returndatasize))\n      returndatasize\n      swap1\n      0xffffffffffffffff\n      dup3\n      gt\n      tag_92\n      jumpi\n      mload(0x40)\n      swap2\n      tag_98\n      0x1f\n      dup3\n      add\n      not(0x1f)\n      and\n      0x20\n      add\n      dup5\n      tag_3\n      jump\t// in\n    tag_98:\n      dup3\n      mstore\n      returndatasize\n      0x00\n      0x20\n      dup5\n      add\n      returndatacopy\n      jump\t// out\n    tag_94:\n      0x60\n      swap1\n      jump\t// out\n    tag_5:\n      swap2\n      dup1\n      0x60\n      swap2\n      0x20\n      swap4\n      swap7\n      swap6\n      swap7\n      0x40\n      dup7\n      mstore\n      dup2\n      0x40\n      dup8\n      add\n      mstore\n      dup4\n      dup7\n      add\n      calldatacopy\n      0x00\n      dup3\n      dup3\n      dup7\n      add\n      add\n      mstore\n      0x1f\n      dup1\n      not\n      swap2\n      add\n      and\n      dup4\n      add\n      add\n      swap4\n      iszero\n      iszero\n      swap2\n      add\n      mstore\n      jump\t// out\n    tag_6:\n      0x0a\n      dup2\n      lt\n      iszero\n      tag_100\n      jumpi\n      0x05\n      shl\n      0x04\n      add\n      swap1\n      jump\t// out\n    tag_100:\n      mstore(0x00, shl(0xe0, 0x4e487b71))\n      mstore(0x04, 0x32)\n      revert(0x00, 0x24)\n    tag_7:\n      calldataload\n      sub(shl(0xa0, 0x01), 0x01)\n      dup2\n      and\n      dup2\n      sub\n      tag_27\n      jumpi\n      swap1\n      jump\t// out\n    tag_8:\n      swap1\n      0x0a\n      dup2\n      lt\n      iszero\n      tag_100\n      jumpi\n      0x05\n      shl\n      dup2\n      add\n      calldataload\n      swap1\n      not(0x1e)\n      dup2\n      calldatasize\n      sub\n      add\n      dup3\n      slt\n      iszero\n      tag_27\n      jumpi\n      add\n      swap1\n      dup2\n      calldataload\n      swap2\n      0xffffffffffffffff\n      dup4\n      gt\n      tag_27\n      jumpi\n      0x20\n      add\n      dup3\n      calldatasize\n      sub\n      dup2\n      sgt\n      tag_27\n      jumpi\n      swap2\n      swap1\n      jump\t// out\n\n    auxdata: 0xa2646970667358221220f6a26ffe0d07015f811dfbd36646a1adbbfe98da739f6f883e81264beba48fa764736f6c63430008210033\n}\n","methodIdentifiers":{"execute10(address[10],bytes[10],uint256)":"f75be35c","executeOne(address,bytes)":"3e16b19c","owner()":"8da5cb5b","rescueToken(address,uint256)":"33f3d628"},"id":11}