{"abi":[{"type":"constructor","inputs":[],"stateMutability":"nonpayable"},{"type":"receive","stateMutability":"payable"},{"type":"function","name":"execute10","inputs":[{"name":"targets","type":"address[10]","internalType":"address[10]"},{"name":"calldatas","type":"bytes[10]","internalType":"bytes[10]"},{"name":"count","type":"uint256","internalType":"uint256"}],"outputs":[],"stateMutability":"payable"},{"type":"function","name":"executeOne","inputs":[{"name":"target","type":"address","internalType":"address"},{"name":"data","type":"bytes","internalType":"bytes"}],"outputs":[{"name":"","type":"bytes","internalType":"bytes"}],"stateMutability":"payable"},{"type":"function","name":"owner","inputs":[],"outputs":[{"name":"","type":"address","internalType":"address"}],"stateMutability":"view"},{"type":"function","name":"rescueToken","inputs":[{"name":"token","type":"address","internalType":"address"},{"name":"amount","type":"uint256","internalType":"uint256"}],"outputs":[],"stateMutability":"nonpayable"},{"type":"event","name":"BatchExecuted","inputs":[{"name":"callsExecuted","type":"uint256","indexed":false,"internalType":"uint256"}],"anonymous":false},{"type":"event","name":"CallExecuted","inputs":[{"name":"target","type":"address","indexed":true,"internalType":"address"},{"name":"data","type":"bytes","indexed":false,"internalType":"bytes"},{"name":"success","type":"bool","indexed":false,"internalType":"bool"}],"anonymous":false},{"type":"error","name":"CallFailed","inputs":[{"name":"index","type":"uint256","internalType":"uint256"},{"name":"returnData","type":"bytes","internalType":"bytes"}]},{"type":"error","name":"EthTransferFailed","inputs":[]},{"type":"error","name":"OnlyOwner","inputs":[]},{"type":"error","name":"SingleCallFailed","inputs":[]},{"type":"error","name":"TooManyCalls","inputs":[]},{"type":"error","name":"TransferFailed","inputs":[]}],"bytecode":{"object":"0x60a0806040523460365733608052610606908161003b8239608051818181609501528181610238015281816102c101526103ab0152f35b5f80fdfe608080604052600436101561001c575b50361561001a575f80fd5b005b5f3560e01c90816333f3d6281461038c575080633e16b19c146102675780638da5cb5b146102235763f75be35c14610054575f61000f565b61018036600319011261021f57366101441161021f576101443567ffffffffffffffff811161021f5780600401906101443691011161021f576101643590337f00000000000000000000000000000000000000000000000000000000000000006001600160a01b0316141580610215575b61020657600a82116101f7575f5b828110610107577fe9cc9bbe7de1cbb097a6357ca3182909488efe8d793e25665befc064a02d10a7602084604051908152a1005b6001600160a01b0361012061011b83610553565b610579565b1661012e575b6001016100d3565b5f8061013c61011b84610553565b81610147858761058d565b9190826040519384928337810182815203925af16101636104e2565b81156101c95750906001917f6eb7af0fe8761c066484ab6b41c49a1eecb9025e21f258e3e7f0ef3631d67b4a6101bf61019e61011b85610553565b6101a8858861058d565b929094604051938493898060a01b03169684610521565b0390a29050610126565b826101f3604051928392635c0dee5d60e01b84526004840152604060248401526044830190610488565b0390fd5b63f5dedbff60e01b5f5260045ffd5b635fc483c560e01b5f5260045ffd5b50303314156100c5565b5f80fd5b3461021f575f36600319011261021f576040517f00000000000000000000000000000000000000000000000000000000000000006001600160a01b03168152602090f35b604036600319011261021f5761027b610472565b60243567ffffffffffffffff811161021f573660238201121561021f5780600401359067ffffffffffffffff821161021f576024810190602483369201011161021f57337f00000000000000000000000000000000000000000000000000000000000000006001600160a01b0316141580610382575b610206575f806040518484823780858101838152039034875af16103136104e2565b9281156103735761036f946103587f6eb7af0fe8761c066484ab6b41c49a1eecb9025e21f258e3e7f0ef3631d67b4a9360405193849360018060a01b03169684610521565b0390a2604051918291602083526020830190610488565b0390f35b631232b02d60e31b5f5260045ffd5b50303314156102f1565b3461021f57604036600319011261021f576103a5610472565b906024357f00000000000000000000000000000000000000000000000000000000000000006001600160a01b03163381141580610468575b610206575f9384936001600160a01b03821661041a575050829182915af16104036104e2565b501561040b57005b630db2c7f160e31b5f5260045ffd5b849193602082019363a9059cbb60e01b855260248301526044820152604481526104456064826104ac565b51925af16104516104e2565b501561045957005b6312171d8360e31b5f5260045ffd5b50303314156103dd565b600435906001600160a01b038216820361021f57565b805180835260209291819084018484015e5f828201840152601f01601f1916010190565b90601f8019910116810190811067ffffffffffffffff8211176104ce57604052565b634e487b7160e01b5f52604160045260245ffd5b3d1561051c573d9067ffffffffffffffff82116104ce5760405191610511601f8201601f1916602001846104ac565b82523d5f602084013e565b606090565b918060609160209396959660408652816040870152838601375f828286010152601f8019910116830101931515910152565b600a8110156105655760051b60040190565b634e487b7160e01b5f52603260045260245ffd5b356001600160a01b038116810361021f5790565b90600a8110156105655760051b81013590601e198136030182121561021f57019081359167ffffffffffffffff831161021f57602001823603811361021f57919056fea26469706673582212204dac7f6d72eb82d966102b12bbaf1a48ed2c7bea57574a447320756b0065a36564736f6c63430008210033","linkReferences":{}},"methodIdentifiers":{"execute10(address[10],bytes[10],uint256)":"f75be35c","executeOne(address,bytes)":"3e16b19c","owner()":"8da5cb5b","rescueToken(address,uint256)":"33f3d628"},"id":5}