{"abi":[{"type":"function","name":"execute","inputs":[{"name":"target","type":"address","internalType":"address"},{"name":"value","type":"uint256","internalType":"uint256"},{"name":"data","type":"bytes","internalType":"bytes"}],"outputs":[{"name":"","type":"bytes","internalType":"bytes"}],"stateMutability":"payable"},{"type":"function","name":"test","inputs":[],"outputs":[],"stateMutability":"payable"},{"type":"event","name":"TestExecuted","inputs":[{"name":"caller","type":"address","indexed":false,"internalType":"address"},{"name":"value","type":"uint256","indexed":false,"internalType":"uint256"}],"anonymous":false},{"type":"error","name":"CallFailed","inputs":[]},{"type":"error","name":"OnlySelf","inputs":[]}],"bytecode":{"object":"0x608080604052346015576101e2908161001a8239f35b5f80fdfe6080806040526004361015610012575f80fd5b5f3560e01c908163b61d27f614610072575063f8a8fd6d14610032575f80fd5b5f36600319011261006e577f6be926737056d5e79d2c898c6835a6762397715de85c7071699800e7722b2da260408051338152346020820152a1005b5f80fd5b606036600319011261006e57600435906001600160a01b038216820361006e576044359167ffffffffffffffff831161006e573660238401121561006e5782600401359167ffffffffffffffff831161006e57366024848601011161006e5730330361019d5780835f95946024879601833781018481520391602435905af13d15610195573d9067ffffffffffffffff82116101815760405191601f8101601f19908116603f0116830167ffffffffffffffff8111848210176101815760405282523d5f602084013e5b15610172576040602091815192839181835280519182918282860152018484015e5f828201840152601f01601f19168101030190f35b633204506f60e01b5f5260045ffd5b634e487b7160e01b5f52604160045260245ffd5b60609061013c565b63029a949d60e31b5f5260045ffdfea2646970667358221220dddd865b781be31763b302f5c6813f52323945052b573406f06c0f9ca0c98cbe64736f6c63430008210033","linkReferences":{}},"assembly":"    /* \"contracts/SimpleEIP7702Test.sol\":157:840  contract SimpleEIP7702Test {... */\n  0x80\n  dup1\n  0x40\n  mstore\n  jumpi(tag_1, callvalue)\n  dataSize(sub_0)\n  swap1\n  dup2\n  dataOffset(sub_0)\n  dup3\n  codecopy\n  return\ntag_1:\n  0x00\n  dup1\n  revert\nstop\n\nsub_0: assembly {\n        /* \"contracts/SimpleEIP7702Test.sol\":157:840  contract SimpleEIP7702Test {... */\n      0x80\n      dup1\n      0x40\n      mstore\n      jumpi(tag_1, iszero(lt(calldatasize, 0x04)))\n      0x00\n      dup1\n      revert\n    tag_1:\n      shr(0xe0, calldataload(0x00))\n      swap1\n      dup2\n      0xb61d27f6\n      eq\n      tag_3\n      jumpi\n      pop\n      0xf8a8fd6d\n      eq\n      tag_5\n      jumpi\n      0x00\n      dup1\n      revert\n    tag_5:\n      jumpi(tag_7, slt(add(not(0x03), calldatasize), 0x00))\n        /* \"contracts/SimpleEIP7702Test.sol\":415:450  TestExecuted(msg.sender, msg.value) */\n      0x6be926737056d5e79d2c898c6835a6762397715de85c7071699800e7722b2da2\n        /* \"contracts/SimpleEIP7702Test.sol\":157:840  contract SimpleEIP7702Test {... */\n      0x40\n      dup1\n      mload\n        /* \"contracts/SimpleEIP7702Test.sol\":428:438  msg.sender */\n      caller\n        /* \"contracts/SimpleEIP7702Test.sol\":157:840  contract SimpleEIP7702Test {... */\n      dup2\n      mstore\n        /* \"contracts/SimpleEIP7702Test.sol\":440:449  msg.value */\n      callvalue\n        /* \"contracts/SimpleEIP7702Test.sol\":157:840  contract SimpleEIP7702Test {... */\n      0x20\n      dup3\n      add\n      mstore\n        /* \"contracts/SimpleEIP7702Test.sol\":415:450  TestExecuted(msg.sender, msg.value) */\n      log1\n        /* \"contracts/SimpleEIP7702Test.sol\":157:840  contract SimpleEIP7702Test {... */\n      stop\n    tag_7:\n      0x00\n      dup1\n      revert\n    tag_3:\n      jumpi(tag_7, slt(add(not(0x03), calldatasize), 0x60))\n      calldataload(0x04)\n      swap1\n      sub(shl(0xa0, 0x01), 0x01)\n      dup3\n      and\n      dup3\n      sub\n      tag_7\n      jumpi\n      calldataload(0x44)\n      swap2\n      0xffffffffffffffff\n      dup4\n      gt\n      tag_7\n      jumpi\n      calldatasize\n      0x23\n      dup5\n      add\n      slt\n      iszero\n      tag_7\n      jumpi\n      dup3\n      0x04\n      add\n      calldataload\n      swap2\n      0xffffffffffffffff\n      dup4\n      gt\n      tag_7\n      jumpi\n      calldatasize\n      0x24\n      dup5\n      dup7\n      add\n      add\n      gt\n      tag_7\n      jumpi\n        /* \"contracts/SimpleEIP7702Test.sol\":661:665  this */\n      address\n        /* \"contracts/SimpleEIP7702Test.sol\":639:649  msg.sender */\n      caller\n        /* \"contracts/SimpleEIP7702Test.sol\":639:666  msg.sender != address(this) */\n      sub\n        /* \"contracts/SimpleEIP7702Test.sol\":635:685  if (msg.sender != address(this)) revert OnlySelf() */\n      tag_21\n      jumpi\n        /* \"contracts/SimpleEIP7702Test.sol\":157:840  contract SimpleEIP7702Test {... */\n      dup1\n      dup4\n      0x00\n      swap6\n      swap5\n      0x24\n      dup8\n      swap7\n      add\n      dup4\n      calldatacopy\n      dup2\n      add\n      dup5\n      dup2\n      mstore\n        /* \"contracts/SimpleEIP7702Test.sol\":733:764  target.call{value: value}(data) */\n      sub\n        /* \"contracts/SimpleEIP7702Test.sol\":157:840  contract SimpleEIP7702Test {... */\n      swap2\n      calldataload(0x24)\n        /* \"contracts/SimpleEIP7702Test.sol\":733:764  target.call{value: value}(data) */\n      swap1\n      gas\n      call\n        /* \"contracts/SimpleEIP7702Test.sol\":157:840  contract SimpleEIP7702Test {... */\n      jumpi(tag_23, iszero(returndatasize))\n      returndatasize\n      swap1\n      0xffffffffffffffff\n      dup3\n      gt\n      tag_27\n      jumpi\n      mload(0x40)\n      swap2\n      0x1f\n      dup2\n      add\n      not(0x1f)\n      swap1\n      dup2\n      and\n      0x3f\n      add\n      and\n      dup4\n      add\n      0xffffffffffffffff\n      dup2\n      gt\n      dup5\n      dup3\n      lt\n      or\n      tag_27\n      jumpi\n      0x40\n      mstore\n      dup3\n      mstore\n      returndatasize\n      0x00\n      0x20\n      dup5\n      add\n      returndatacopy\n    tag_29:\n        /* \"contracts/SimpleEIP7702Test.sol\":778:786  !success */\n      iszero\n        /* \"contracts/SimpleEIP7702Test.sol\":774:807  if (!success) revert CallFailed() */\n      tag_30\n      jumpi\n        /* \"contracts/SimpleEIP7702Test.sol\":157:840  contract SimpleEIP7702Test {... */\n      0x40\n      0x20\n      swap2\n      dup2\n      mload\n      swap3\n      dup4\n      swap2\n      dup2\n      dup4\n      mstore\n      dup1\n      mload\n      swap2\n      dup3\n      swap2\n      dup3\n      dup3\n      dup7\n      add\n      mstore\n      add\n      dup5\n      dup5\n      add\n      mcopy\n      0x00\n      dup3\n      dup3\n      add\n      dup5\n      add\n      mstore\n      0x1f\n      add\n      not(0x1f)\n      and\n      dup2\n      add\n      sub\n      add\n      swap1\n      return\n        /* \"contracts/SimpleEIP7702Test.sol\":774:807  if (!success) revert CallFailed() */\n    tag_30:\n        /* \"contracts/SimpleEIP7702Test.sol\":795:807  CallFailed() */\n      shl(0xe0, 0x3204506f)\n        /* \"contracts/SimpleEIP7702Test.sol\":157:840  contract SimpleEIP7702Test {... */\n      0x00\n        /* \"contracts/SimpleEIP7702Test.sol\":795:807  CallFailed() */\n      mstore\n        /* \"contracts/SimpleEIP7702Test.sol\":157:840  contract SimpleEIP7702Test {... */\n      0x04\n      0x00\n        /* \"contracts/SimpleEIP7702Test.sol\":795:807  CallFailed() */\n      revert\n        /* \"contracts/SimpleEIP7702Test.sol\":157:840  contract SimpleEIP7702Test {... */\n    tag_27:\n      mstore(0x00, shl(0xe0, 0x4e487b71))\n      mstore(0x04, 0x41)\n      revert(0x00, 0x24)\n    tag_23:\n      0x60\n      swap1\n      jump(tag_29)\n        /* \"contracts/SimpleEIP7702Test.sol\":635:685  if (msg.sender != address(this)) revert OnlySelf() */\n    tag_21:\n        /* \"contracts/SimpleEIP7702Test.sol\":675:685  OnlySelf() */\n      shl(0xe3, 0x029a949d)\n        /* \"contracts/SimpleEIP7702Test.sol\":157:840  contract SimpleEIP7702Test {... */\n      0x00\n        /* \"contracts/SimpleEIP7702Test.sol\":675:685  OnlySelf() */\n      mstore\n        /* \"contracts/SimpleEIP7702Test.sol\":157:840  contract SimpleEIP7702Test {... */\n      0x04\n      0x00\n        /* \"contracts/SimpleEIP7702Test.sol\":675:685  OnlySelf() */\n      revert\n\n    auxdata: 0xa2646970667358221220dddd865b781be31763b302f5c6813f52323945052b573406f06c0f9ca0c98cbe64736f6c63430008210033\n}\n","methodIdentifiers":{"execute(address,uint256,bytes)":"b61d27f6","test()":"f8a8fd6d"},"id":13}