{"abi":[{"type":"constructor","inputs":[{"name":"_owner","type":"address","internalType":"address"}],"stateMutability":"nonpayable"},{"type":"receive","stateMutability":"payable"},{"type":"function","name":"approveToken","inputs":[{"name":"token","type":"address","internalType":"address"},{"name":"spender","type":"address","internalType":"address"},{"name":"amount","type":"uint256","internalType":"uint256"}],"outputs":[],"stateMutability":"nonpayable"},{"type":"function","name":"executeArbitrage","inputs":[{"name":"calls","type":"tuple[]","internalType":"struct FutarchyArbitrageExecutorV2.Call[]","components":[{"name":"target","type":"address","internalType":"address"},{"name":"callData","type":"bytes","internalType":"bytes"}]},{"name":"profitToken","type":"address","internalType":"address"},{"name":"minProfit","type":"uint256","internalType":"uint256"}],"outputs":[{"name":"profit","type":"uint256","internalType":"uint256"}],"stateMutability":"nonpayable"},{"type":"function","name":"getBalance","inputs":[{"name":"token","type":"address","internalType":"address"}],"outputs":[{"name":"","type":"uint256","internalType":"uint256"}],"stateMutability":"view"},{"type":"function","name":"multicall","inputs":[{"name":"calls","type":"tuple[]","internalType":"struct FutarchyArbitrageExecutorV2.Call[]","components":[{"name":"target","type":"address","internalType":"address"},{"name":"callData","type":"bytes","internalType":"bytes"}]}],"outputs":[],"stateMutability":"nonpayable"},{"type":"function","name":"owner","inputs":[],"outputs":[{"name":"","type":"address","internalType":"address"}],"stateMutability":"view"},{"type":"function","name":"withdrawETH","inputs":[],"outputs":[],"stateMutability":"nonpayable"},{"type":"function","name":"withdrawToken","inputs":[{"name":"token","type":"address","internalType":"address"},{"name":"amount","type":"uint256","internalType":"uint256"}],"outputs":[],"stateMutability":"nonpayable"},{"type":"event","name":"ArbitrageExecuted","inputs":[{"name":"profit","type":"uint256","indexed":false,"internalType":"uint256"}],"anonymous":false},{"type":"event","name":"TokensWithdrawn","inputs":[{"name":"token","type":"address","indexed":true,"internalType":"address"},{"name":"amount","type":"uint256","indexed":false,"internalType":"uint256"}],"anonymous":false},{"type":"error","name":"CallFailed","inputs":[]},{"type":"error","name":"EthTransferFailed","inputs":[]},{"type":"error","name":"InsufficientBalance","inputs":[]},{"type":"error","name":"InsufficientProfit","inputs":[]},{"type":"error","name":"OnlyOwner","inputs":[]},{"type":"error","name":"TransferFailed","inputs":[]},{"type":"error","name":"ZeroAddress","inputs":[]}],"bytecode":{"object":"0x60a0346100a157601f610a4038819003918201601f19168301916001600160401b038311848410176100a5578084926020946040528339810103126100a157516001600160a01b0381168082036100a157156100925760805260405161098690816100ba823960805181818160ce015281816103c80152818161041a0152818161058d0152818161064601526106e60152f35b63d92e233d60e01b5f5260045ffd5b5f80fd5b634e487b7160e01b5f52604160045260245ffdfe6080604052600436101561001a575b3615610018575f80fd5b005b5f3560e01c8063245f29dd146100895780638da5cb5b146100845780639e281a981461007f578063caa5c23f1461007a578063da3e339714610075578063e086e5ec146100705763f8b2cb4f0361000e57610746565b6106d4565b610618565b610559565b6103f7565b6103b3565b3461036d57606036600319011261036d5760043567ffffffffffffffff811161036d576100ba903690600401610371565b90602435916100c8836103a2565b604435927f0000000000000000000000000000000000000000000000000000000000000000906001600160a01b038216330361035e576370a0823160e01b6080908152306084526001600160a01b03919091169290602090602481865afa93841561026a575f9461032f575b5f5b8281106102b75750506040516370a0823160e01b8152306004820152939050602084602481865afa93841561026a575f94610286575b508084111561027e5761017f9084610917565b935b841061026f57826101dc575b6101d8847fc3dff9ec2a9266191f204f1e39b6d5cebfc2c3d718964dd6699f5e8e6d010fb0604051806101c584829190602083019252565b0390a16040519081529081906020820190565b0390f35b60405163a9059cbb60e01b81526001600160a01b039190911660048201526024810192909252602090829060449082905f905af190811561026a575f9161023b575b501561022c5781808061018d565b6312171d8360e31b5f5260045ffd5b61025d915060203d602011610263575b6102558183610807565b810190610938565b8261021e565b503d61024b565b61084a565b632723fc7560e11b5f5260045ffd5b505f93610181565b6102a991945060203d6020116102b0575b6102a18183610807565b81019061083b565b928561016c565b503d610297565b5f806102cc6102c7848787610855565b61088b565b816102e56102db868989610855565b6020810190610898565b91906102f6604051809481936108cb565b03925af16103026108d8565b90156103115750600101610136565b80511561032057805190602001fd5b633204506f60e01b5f5260045ffd5b935060203d602011610357575b80610349610351926107df565b608001610829565b93610134565b503d61033c565b635fc483c560e01b5f5260045ffd5b5f80fd5b9181601f8401121561036d5782359167ffffffffffffffff831161036d576020808501948460051b01011161036d57565b6001600160a01b0381160361036d57565b3461036d575f36600319011261036d576040517f00000000000000000000000000000000000000000000000000000000000000006001600160a01b03168152602090f35b3461036d57604036600319011261036d57600435610414816103a2565b602435907f00000000000000000000000000000000000000000000000000000000000000006001600160a01b038116330361035e576040516370a0823160e01b81523060048201526001600160a01b0392909216929182602082602481885afa91821561026a575f92610538575b5080610523575091505b8161049357005b60405163a9059cbb60e01b81526001600160a01b03919091166004820152602481018290526020816044815f875af190811561026a575f91610504575b501561022c576040519081527f6352c5382c4a4578e712449ca65e83cdb392d045dfcf1cad9615189db2da244b90602090a2005b61051d915060203d602011610263576102558183610807565b5f6104d0565b111561048c57631e9acf1760e31b5f5260045ffd5b61055291925060203d6020116102b0576102a18183610807565b905f610482565b3461036d57602036600319011261036d5760043567ffffffffffffffff811161036d5761058a903690600401610371565b907f00000000000000000000000000000000000000000000000000000000000000006001600160a01b0316330361035e575f5b8281106105c657005b5f806105d3838686610855565b356105dd816103a2565b816105ec6102db868989610855565b91906105fd604051809481936108cb565b03925af16106096108d8565b901561031157506001016105bd565b3461036d57606036600319011261036d57600435610635816103a2565b602435610641816103a2565b6044357f00000000000000000000000000000000000000000000000000000000000000006001600160a01b0316330361035e5760405163095ea7b360e01b81526001600160a01b0390921660048301526024820152906020908290815f816044810103926001600160a01b03165af1801561026a576106bc57005b6100189060203d602011610263576102558183610807565b3461036d575f36600319011261036d577f00000000000000000000000000000000000000000000000000000000000000006001600160a01b03163381900361035e5747908161071f57005b5f80809381935af161072f6108d8565b501561073757005b630db2c7f160e31b5f5260045ffd5b3461036d57602036600319011261036d5760246020600435610767816103a2565b6040516370a0823160e01b815230600482015292839182906001600160a01b03165afa801561026a576101d8915f916107ac575b506040519081529081906020820190565b6107c5915060203d6020116102b0576102a18183610807565b5f61079b565b634e487b7160e01b5f52604160045260245ffd5b601f80199101166080016080811067ffffffffffffffff82111761080257604052565b6107cb565b90601f8019910116810190811067ffffffffffffffff82111761080257604052565b602090607f19011261036d5760805190565b9081602091031261036d575190565b6040513d5f823e3d90fd5b91908110156108775760051b81013590603e198136030182121561036d570190565b634e487b7160e01b5f52603260045260245ffd5b35610895816103a2565b90565b903590601e198136030182121561036d570180359067ffffffffffffffff821161036d5760200191813603831361036d57565b908092918237015f815290565b3d15610912573d9067ffffffffffffffff82116108025760405191610907601f8201601f191660200184610807565b82523d5f602084013e565b606090565b9190820391821161092457565b634e487b7160e01b5f52601160045260245ffd5b9081602091031261036d5751801515810361036d579056fea26469706673582212202c58b9a875eb9b88c217bd7e90248ad53c3da5e0d57d10695ca87b78a5f2751b64736f6c63430008210033","linkReferences":{}},"assembly":"    /* \"contracts/FutarchyArbitrageExecutorV2.sol\":495:5110  contract FutarchyArbitrageExecutorV2 {... */\n  0xa0\n  jumpi(tag_7, callvalue)\n  0x1f\n  bytecodeSize\n  codesize\n  dup2\n  swap1\n  sub\n  swap2\n  dup3\n  add\n  not(0x1f)\n  and\n  dup4\n  add\n  swap2\n  sub(shl(0x40, 0x01), 0x01)\n  dup4\n  gt\n  dup5\n  dup5\n  lt\n  or\n  tag_3\n  jumpi\n  dup1\n  dup5\n  swap3\n  0x20\n  swap5\n  0x40\n  mstore\n  dup4\n  codecopy\n  dup2\n  add\n  sub\n  slt\n  tag_7\n  jumpi\n  mload\n  sub(shl(0xa0, 0x01), 0x01)\n  dup2\n  and\n  dup1\n  dup3\n  sub\n  tag_7\n  jumpi\n    /* \"contracts/FutarchyArbitrageExecutorV2.sol\":1119:1139  _owner == address(0) */\n  iszero\n    /* \"contracts/FutarchyArbitrageExecutorV2.sol\":1115:1161  if (_owner == address(0)) revert ZeroAddress() */\n  tag_9\n  jumpi\n    /* \"contracts/FutarchyArbitrageExecutorV2.sol\":1171:1185  owner = _owner */\n  0x80\n  mstore\n    /* \"contracts/FutarchyArbitrageExecutorV2.sol\":495:5110  contract FutarchyArbitrageExecutorV2 {... */\n  mload(0x40)\n  dataSize(sub_0)\n  swap1\n  dup2\n  dataOffset(sub_0)\n  dup3\n  codecopy\n    /* \"contracts/FutarchyArbitrageExecutorV2.sol\":1171:1185  owner = _owner */\n  0x80\n    /* \"contracts/FutarchyArbitrageExecutorV2.sol\":495:5110  contract FutarchyArbitrageExecutorV2 {... */\n  mload\n  dup2\n  assignImmutable(\"0xfa7b04dd395b082c00ffb1be4290a48131a953cd45c80902499cd653c922b794\")\n  return\n    /* \"contracts/FutarchyArbitrageExecutorV2.sol\":1115:1161  if (_owner == address(0)) revert ZeroAddress() */\ntag_9:\n    /* \"contracts/FutarchyArbitrageExecutorV2.sol\":1148:1161  ZeroAddress() */\n  mstore(0x00, shl(0xe0, 0xd92e233d))\n  revert(0x00, 0x04)\n    /* \"contracts/FutarchyArbitrageExecutorV2.sol\":495:5110  contract FutarchyArbitrageExecutorV2 {... */\ntag_7:\n  0x00\n  dup1\n  revert\ntag_3:\n  mstore(0x00, shl(0xe0, 0x4e487b71))\n  mstore(0x04, 0x41)\n  revert(0x00, 0x24)\nstop\n\nsub_0: assembly {\n        /* \"contracts/FutarchyArbitrageExecutorV2.sol\":495:5110  contract FutarchyArbitrageExecutorV2 {... */\n      mstore(0x40, 0x80)\n      jumpi(tag_27, iszero(lt(calldatasize, 0x04)))\n    tag_28:\n      jumpi(tag_29, iszero(calldatasize))\n      0x00\n      dup1\n      revert\n    tag_29:\n      stop\n    tag_27:\n      shr(0xe0, calldataload(0x00))\n      dup1\n      0x245f29dd\n      eq\n      tag_31\n      jumpi\n      dup1\n      0x8da5cb5b\n      eq\n      tag_33\n      jumpi\n      dup1\n      0x9e281a98\n      eq\n      tag_35\n      jumpi\n      dup1\n      0xcaa5c23f\n      eq\n      tag_37\n      jumpi\n      dup1\n      0xda3e3397\n      eq\n      tag_39\n      jumpi\n      dup1\n      0xe086e5ec\n      eq\n      tag_41\n      jumpi\n      0xf8b2cb4f\n      sub\n      tag_28\n      jumpi\n      tag_12\n      jump\t// in\n    tag_41:\n      tag_11\n      jump\t// in\n    tag_39:\n      tag_10\n      jump\t// in\n    tag_37:\n      tag_9\n      jump\t// in\n    tag_35:\n      tag_8\n      jump\t// in\n    tag_33:\n      tag_7\n      jump\t// in\n    tag_31:\n      jumpi(tag_49, callvalue)\n      jumpi(tag_49, slt(add(not(0x03), calldatasize), 0x60))\n      calldataload(0x04)\n      0xffffffffffffffff\n      dup2\n      gt\n      tag_49\n      jumpi\n      tag_51\n      swap1\n      calldatasize\n      swap1\n      0x04\n      add\n      tag_1\n      jump\t// in\n    tag_51:\n      swap1\n      calldataload(0x24)\n      swap2\n      tag_52\n      dup4\n      tag_2\n      jump\t// in\n    tag_52:\n      calldataload(0x44)\n        /* \"contracts/FutarchyArbitrageExecutorV2.sol\":1028:1033  owner */\n      swap3\n      immutable(\"0xfa7b04dd395b082c00ffb1be4290a48131a953cd45c80902499cd653c922b794\")\n      swap1\n      sub(shl(0xa0, 0x01), 0x01)\n        /* \"contracts/FutarchyArbitrageExecutorV2.sol\":495:5110  contract FutarchyArbitrageExecutorV2 {... */\n      dup3\n      and\n        /* \"contracts/FutarchyArbitrageExecutorV2.sol\":1014:1024  msg.sender */\n      caller\n        /* \"contracts/FutarchyArbitrageExecutorV2.sol\":1014:1033  msg.sender != owner */\n      sub\n        /* \"contracts/FutarchyArbitrageExecutorV2.sol\":1010:1053  if (msg.sender != owner) revert OnlyOwner() */\n      tag_54\n      jumpi\n      shl(0xe0, 0x70a08231)\n        /* \"contracts/FutarchyArbitrageExecutorV2.sol\":495:5110  contract FutarchyArbitrageExecutorV2 {... */\n      0x80\n        /* \"contracts/FutarchyArbitrageExecutorV2.sol\":2493:2537  IERC20(profitToken).balanceOf(address(this)) */\n      swap1\n      dup2\n      mstore\n        /* \"contracts/FutarchyArbitrageExecutorV2.sol\":2531:2535  this */\n      address\n        /* \"contracts/FutarchyArbitrageExecutorV2.sol\":2493:2537  IERC20(profitToken).balanceOf(address(this)) */\n      0x84\n        /* \"contracts/FutarchyArbitrageExecutorV2.sol\":495:5110  contract FutarchyArbitrageExecutorV2 {... */\n      mstore\n      sub(shl(0xa0, 0x01), 0x01)\n      swap2\n      swap1\n      swap2\n      and\n      swap3\n      swap1\n      0x20\n      swap1\n        /* \"contracts/FutarchyArbitrageExecutorV2.sol\":2493:2537  IERC20(profitToken).balanceOf(address(this)) */\n      0x24\n        /* \"contracts/FutarchyArbitrageExecutorV2.sol\":495:5110  contract FutarchyArbitrageExecutorV2 {... */\n      dup2\n      dup7\n        /* \"contracts/FutarchyArbitrageExecutorV2.sol\":2493:2537  IERC20(profitToken).balanceOf(address(this)) */\n      gas\n      staticcall\n      swap4\n      dup5\n      iszero\n      tag_80\n      jumpi\n        /* \"contracts/FutarchyArbitrageExecutorV2.sol\":495:5110  contract FutarchyArbitrageExecutorV2 {... */\n      0x00\n        /* \"contracts/FutarchyArbitrageExecutorV2.sol\":2493:2537  IERC20(profitToken).balanceOf(address(this)) */\n      swap5\n      tag_59\n      jumpi\n        /* \"contracts/FutarchyArbitrageExecutorV2.sol\":495:5110  contract FutarchyArbitrageExecutorV2 {... */\n    tag_60:\n      0x00\n        /* \"contracts/FutarchyArbitrageExecutorV2.sol\":2597:2613  i < calls.length */\n    tag_61:\n      dup3\n      dup2\n      lt\n      tag_62\n      jumpi\n      pop\n      pop\n        /* \"contracts/FutarchyArbitrageExecutorV2.sol\":495:5110  contract FutarchyArbitrageExecutorV2 {... */\n      mload(0x40)\n      shl(0xe0, 0x70a08231)\n        /* \"contracts/FutarchyArbitrageExecutorV2.sol\":3162:3206  IERC20(profitToken).balanceOf(address(this)) */\n      dup2\n      mstore\n        /* \"contracts/FutarchyArbitrageExecutorV2.sol\":2531:2535  this */\n      address\n        /* \"contracts/FutarchyArbitrageExecutorV2.sol\":495:5110  contract FutarchyArbitrageExecutorV2 {... */\n      0x04\n        /* \"contracts/FutarchyArbitrageExecutorV2.sol\":3162:3206  IERC20(profitToken).balanceOf(address(this)) */\n      dup3\n      add\n        /* \"contracts/FutarchyArbitrageExecutorV2.sol\":495:5110  contract FutarchyArbitrageExecutorV2 {... */\n      mstore\n      swap4\n      swap1\n      pop\n      0x20\n      dup5\n      0x24\n      dup2\n        /* \"contracts/FutarchyArbitrageExecutorV2.sol\":3162:3206  IERC20(profitToken).balanceOf(address(this)) */\n      dup7\n      gas\n      staticcall\n      swap4\n      dup5\n      iszero\n      tag_80\n      jumpi\n        /* \"contracts/FutarchyArbitrageExecutorV2.sol\":495:5110  contract FutarchyArbitrageExecutorV2 {... */\n      0x00\n        /* \"contracts/FutarchyArbitrageExecutorV2.sol\":3162:3206  IERC20(profitToken).balanceOf(address(this)) */\n      swap5\n      tag_67\n      jumpi\n        /* \"contracts/FutarchyArbitrageExecutorV2.sol\":2577:3101  for (uint256 i = 0; i < calls.length;) {... */\n    tag_68:\n      pop\n        /* \"contracts/FutarchyArbitrageExecutorV2.sol\":3225:3253  balanceAfter > balanceBefore */\n      dup1\n      dup5\n      gt\n      iszero\n      tag_69\n      jumpi\n        /* \"contracts/FutarchyArbitrageExecutorV2.sol\":3256:3284  balanceAfter - balanceBefore */\n      tag_71\n      swap1\n      dup5\n      tag_24\n      jump\t// in\n    tag_71:\n        /* \"contracts/FutarchyArbitrageExecutorV2.sol\":3225:3288  balanceAfter > balanceBefore ? balanceAfter - balanceBefore : 0 */\n      swap4\n    tag_72:\n        /* \"contracts/FutarchyArbitrageExecutorV2.sol\":3336:3354  profit < minProfit */\n      dup5\n      lt\n        /* \"contracts/FutarchyArbitrageExecutorV2.sol\":3332:3383  if (profit < minProfit) revert InsufficientProfit() */\n      tag_73\n      jumpi\n        /* \"contracts/FutarchyArbitrageExecutorV2.sol\":3448:3464  balanceAfter > 0 */\n      dup3\n        /* \"contracts/FutarchyArbitrageExecutorV2.sol\":3444:3545  if (balanceAfter > 0) if (!IERC20(profitToken).transfer(owner, balanceAfter)) revert TransferFailed() */\n      tag_75\n      jumpi\n        /* \"contracts/FutarchyArbitrageExecutorV2.sol\":3225:3288  balanceAfter > balanceBefore ? balanceAfter - balanceBefore : 0 */\n    tag_76:\n        /* \"contracts/FutarchyArbitrageExecutorV2.sol\":495:5110  contract FutarchyArbitrageExecutorV2 {... */\n      tag_77\n      dup5\n        /* \"contracts/FutarchyArbitrageExecutorV2.sol\":3561:3586  ArbitrageExecuted(profit) */\n      0xc3dff9ec2a9266191f204f1e39b6d5cebfc2c3d718964dd6699f5e8e6d010fb0\n        /* \"contracts/FutarchyArbitrageExecutorV2.sol\":495:5110  contract FutarchyArbitrageExecutorV2 {... */\n      mload(0x40)\n        /* \"contracts/FutarchyArbitrageExecutorV2.sol\":3561:3586  ArbitrageExecuted(profit) */\n      dup1\n      tag_78\n      dup5\n      dup3\n        /* \"contracts/FutarchyArbitrageExecutorV2.sol\":495:5110  contract FutarchyArbitrageExecutorV2 {... */\n      swap2\n      swap1\n      0x20\n      dup4\n      add\n      swap3\n      mstore\n      jump\n        /* \"contracts/FutarchyArbitrageExecutorV2.sol\":3561:3586  ArbitrageExecuted(profit) */\n    tag_78:\n      sub\n      swap1\n      log1\n        /* \"contracts/FutarchyArbitrageExecutorV2.sol\":495:5110  contract FutarchyArbitrageExecutorV2 {... */\n      mload(0x40)\n      swap1\n      dup2\n      mstore\n      swap1\n      dup2\n      swap1\n      0x20\n      dup3\n      add\n      swap1\n      jump\n    tag_77:\n      sub\n      swap1\n      return\n        /* \"contracts/FutarchyArbitrageExecutorV2.sol\":3444:3545  if (balanceAfter > 0) if (!IERC20(profitToken).transfer(owner, balanceAfter)) revert TransferFailed() */\n    tag_75:\n        /* \"contracts/FutarchyArbitrageExecutorV2.sol\":495:5110  contract FutarchyArbitrageExecutorV2 {... */\n      mload(0x40)\n      shl(0xe0, 0xa9059cbb)\n        /* \"contracts/FutarchyArbitrageExecutorV2.sol\":3471:3520  IERC20(profitToken).transfer(owner, balanceAfter) */\n      dup2\n      mstore\n      sub(shl(0xa0, 0x01), 0x01)\n        /* \"contracts/FutarchyArbitrageExecutorV2.sol\":495:5110  contract FutarchyArbitrageExecutorV2 {... */\n      swap2\n      swap1\n      swap2\n      and\n      0x04\n        /* \"contracts/FutarchyArbitrageExecutorV2.sol\":3471:3520  IERC20(profitToken).transfer(owner, balanceAfter) */\n      dup3\n      add\n        /* \"contracts/FutarchyArbitrageExecutorV2.sol\":495:5110  contract FutarchyArbitrageExecutorV2 {... */\n      mstore\n      0x24\n      dup2\n      add\n      swap3\n      swap1\n      swap3\n      mstore\n      0x20\n      swap1\n      dup3\n      swap1\n      0x44\n      swap1\n      dup3\n      swap1\n      0x00\n      swap1\n        /* \"contracts/FutarchyArbitrageExecutorV2.sol\":3471:3520  IERC20(profitToken).transfer(owner, balanceAfter) */\n      gas\n      call\n      swap1\n      dup2\n      iszero\n      tag_80\n      jumpi\n        /* \"contracts/FutarchyArbitrageExecutorV2.sol\":495:5110  contract FutarchyArbitrageExecutorV2 {... */\n      0x00\n        /* \"contracts/FutarchyArbitrageExecutorV2.sol\":3471:3520  IERC20(profitToken).transfer(owner, balanceAfter) */\n      swap2\n      tag_82\n      jumpi\n        /* \"contracts/FutarchyArbitrageExecutorV2.sol\":3444:3545  if (balanceAfter > 0) if (!IERC20(profitToken).transfer(owner, balanceAfter)) revert TransferFailed() */\n    tag_83:\n        /* \"contracts/FutarchyArbitrageExecutorV2.sol\":3470:3520  !IERC20(profitToken).transfer(owner, balanceAfter) */\n      pop\n      iszero\n        /* \"contracts/FutarchyArbitrageExecutorV2.sol\":3466:3545  if (!IERC20(profitToken).transfer(owner, balanceAfter)) revert TransferFailed() */\n      tag_84\n      jumpi\n        /* \"contracts/FutarchyArbitrageExecutorV2.sol\":3444:3545  if (balanceAfter > 0) if (!IERC20(profitToken).transfer(owner, balanceAfter)) revert TransferFailed() */\n      dup2\n      dup1\n      dup1\n      jump(tag_76)\n        /* \"contracts/FutarchyArbitrageExecutorV2.sol\":3466:3545  if (!IERC20(profitToken).transfer(owner, balanceAfter)) revert TransferFailed() */\n    tag_84:\n        /* \"contracts/FutarchyArbitrageExecutorV2.sol\":3529:3545  TransferFailed() */\n      shl(0xe3, 0x12171d83)\n        /* \"contracts/FutarchyArbitrageExecutorV2.sol\":495:5110  contract FutarchyArbitrageExecutorV2 {... */\n      0x00\n        /* \"contracts/FutarchyArbitrageExecutorV2.sol\":3529:3545  TransferFailed() */\n      mstore\n        /* \"contracts/FutarchyArbitrageExecutorV2.sol\":495:5110  contract FutarchyArbitrageExecutorV2 {... */\n      0x04\n      0x00\n        /* \"contracts/FutarchyArbitrageExecutorV2.sol\":3529:3545  TransferFailed() */\n      revert\n        /* \"contracts/FutarchyArbitrageExecutorV2.sol\":3471:3520  IERC20(profitToken).transfer(owner, balanceAfter) */\n    tag_82:\n      tag_86\n      swap2\n      pop\n        /* \"contracts/FutarchyArbitrageExecutorV2.sol\":495:5110  contract FutarchyArbitrageExecutorV2 {... */\n      0x20\n        /* \"contracts/FutarchyArbitrageExecutorV2.sol\":3471:3520  IERC20(profitToken).transfer(owner, balanceAfter) */\n      returndatasize\n        /* \"contracts/FutarchyArbitrageExecutorV2.sol\":495:5110  contract FutarchyArbitrageExecutorV2 {... */\n      0x20\n        /* \"contracts/FutarchyArbitrageExecutorV2.sol\":3471:3520  IERC20(profitToken).transfer(owner, balanceAfter) */\n      gt\n      tag_87\n      jumpi\n    tag_88:\n      tag_89\n      dup2\n      dup4\n      tag_15\n      jump\t// in\n    tag_89:\n      dup2\n      add\n      swap1\n      tag_25\n      jump\t// in\n    tag_86:\n      dup3\n      jump(tag_83)\n    tag_87:\n      pop\n      returndatasize\n      jump(tag_88)\n    tag_80:\n      tag_18\n      jump\t// in\n        /* \"contracts/FutarchyArbitrageExecutorV2.sol\":3332:3383  if (profit < minProfit) revert InsufficientProfit() */\n    tag_73:\n        /* \"contracts/FutarchyArbitrageExecutorV2.sol\":3363:3383  InsufficientProfit() */\n      shl(0xe1, 0x2723fc75)\n        /* \"contracts/FutarchyArbitrageExecutorV2.sol\":495:5110  contract FutarchyArbitrageExecutorV2 {... */\n      0x00\n        /* \"contracts/FutarchyArbitrageExecutorV2.sol\":3363:3383  InsufficientProfit() */\n      mstore\n        /* \"contracts/FutarchyArbitrageExecutorV2.sol\":495:5110  contract FutarchyArbitrageExecutorV2 {... */\n      0x04\n      0x00\n        /* \"contracts/FutarchyArbitrageExecutorV2.sol\":3363:3383  InsufficientProfit() */\n      revert\n        /* \"contracts/FutarchyArbitrageExecutorV2.sol\":3225:3288  balanceAfter > balanceBefore ? balanceAfter - balanceBefore : 0 */\n    tag_69:\n      pop\n        /* \"contracts/FutarchyArbitrageExecutorV2.sol\":495:5110  contract FutarchyArbitrageExecutorV2 {... */\n      0x00\n        /* \"contracts/FutarchyArbitrageExecutorV2.sol\":3225:3288  balanceAfter > balanceBefore ? balanceAfter - balanceBefore : 0 */\n      swap4\n      jump(tag_72)\n        /* \"contracts/FutarchyArbitrageExecutorV2.sol\":3162:3206  IERC20(profitToken).balanceOf(address(this)) */\n    tag_67:\n      tag_90\n      swap2\n      swap5\n      pop\n        /* \"contracts/FutarchyArbitrageExecutorV2.sol\":495:5110  contract FutarchyArbitrageExecutorV2 {... */\n      0x20\n        /* \"contracts/FutarchyArbitrageExecutorV2.sol\":3162:3206  IERC20(profitToken).balanceOf(address(this)) */\n      returndatasize\n        /* \"contracts/FutarchyArbitrageExecutorV2.sol\":495:5110  contract FutarchyArbitrageExecutorV2 {... */\n      0x20\n        /* \"contracts/FutarchyArbitrageExecutorV2.sol\":3162:3206  IERC20(profitToken).balanceOf(address(this)) */\n      gt\n      tag_91\n      jumpi\n    tag_92:\n      tag_93\n      dup2\n      dup4\n      tag_15\n      jump\t// in\n    tag_93:\n      dup2\n      add\n      swap1\n      tag_17\n      jump\t// in\n    tag_90:\n      swap3\n      dup6\n      jump(tag_68)\n    tag_91:\n      pop\n      returndatasize\n      jump(tag_92)\n        /* \"contracts/FutarchyArbitrageExecutorV2.sol\":2582:2595  uint256 i = 0 */\n    tag_62:\n        /* \"contracts/FutarchyArbitrageExecutorV2.sol\":495:5110  contract FutarchyArbitrageExecutorV2 {... */\n      0x00\n        /* \"contracts/FutarchyArbitrageExecutorV2.sol\":2668:2676  calls[i] */\n      dup1\n        /* \"contracts/FutarchyArbitrageExecutorV2.sol\":2668:2683  calls[i].target */\n      tag_94\n        /* \"contracts/FutarchyArbitrageExecutorV2.sol\":2668:2676  calls[i] */\n      tag_95\n      dup5\n      dup8\n      dup8\n      tag_19\n      jump\t// in\n    tag_95:\n        /* \"contracts/FutarchyArbitrageExecutorV2.sol\":2668:2683  calls[i].target */\n      tag_20\n      jump\t// in\n    tag_94:\n        /* \"contracts/FutarchyArbitrageExecutorV2.sol\":2689:2697  calls[i] */\n      dup2\n        /* \"contracts/FutarchyArbitrageExecutorV2.sol\":2689:2706  calls[i].callData */\n      tag_96\n        /* \"contracts/FutarchyArbitrageExecutorV2.sol\":2689:2697  calls[i] */\n      tag_97\n      dup7\n      dup10\n      dup10\n      tag_19\n      jump\t// in\n    tag_97:\n        /* \"contracts/FutarchyArbitrageExecutorV2.sol\":495:5110  contract FutarchyArbitrageExecutorV2 {... */\n      0x20\n        /* \"contracts/FutarchyArbitrageExecutorV2.sol\":2689:2706  calls[i].callData */\n      dup2\n      add\n      swap1\n      tag_21\n      jump\t// in\n    tag_96:\n        /* \"contracts/FutarchyArbitrageExecutorV2.sol\":495:5110  contract FutarchyArbitrageExecutorV2 {... */\n      swap2\n      swap1\n      tag_98\n      mload(0x40)\n      dup1\n      swap5\n      dup2\n      swap4\n      tag_22\n      jump\t// in\n    tag_98:\n        /* \"contracts/FutarchyArbitrageExecutorV2.sol\":2668:2707  calls[i].target.call(calls[i].callData) */\n      sub\n      swap3\n      gas\n      call\n      tag_99\n      tag_23\n      jump\t// in\n    tag_99:\n        /* \"contracts/FutarchyArbitrageExecutorV2.sol\":2725:2733  !success */\n      swap1\n      iszero\n        /* \"contracts/FutarchyArbitrageExecutorV2.sol\":2721:3032  if (!success) {... */\n      tag_100\n      jumpi\n        /* \"contracts/FutarchyArbitrageExecutorV2.sol\":495:5110  contract FutarchyArbitrageExecutorV2 {... */\n      pop\n      0x01\n      add\n        /* \"contracts/FutarchyArbitrageExecutorV2.sol\":2582:2595  uint256 i = 0 */\n      jump(tag_61)\n        /* \"contracts/FutarchyArbitrageExecutorV2.sol\":2721:3032  if (!success) {... */\n    tag_100:\n        /* \"contracts/FutarchyArbitrageExecutorV2.sol\":495:5110  contract FutarchyArbitrageExecutorV2 {... */\n      dup1\n      mload\n        /* \"contracts/FutarchyArbitrageExecutorV2.sol\":2757:2774  result.length > 0 */\n      iszero\n        /* \"contracts/FutarchyArbitrageExecutorV2.sol\":2757:2770  result.length */\n      tag_102\n      jumpi\n        /* \"contracts/FutarchyArbitrageExecutorV2.sol\":2798:2934  assembly {... */\n      dup1\n      mload\n      swap1\n        /* \"contracts/FutarchyArbitrageExecutorV2.sol\":495:5110  contract FutarchyArbitrageExecutorV2 {... */\n      0x20\n        /* \"contracts/FutarchyArbitrageExecutorV2.sol\":2798:2934  assembly {... */\n      add\n      revert\n        /* \"contracts/FutarchyArbitrageExecutorV2.sol\":2753:3018  if (result.length > 0) {... */\n    tag_102:\n        /* \"contracts/FutarchyArbitrageExecutorV2.sol\":2987:2999  CallFailed() */\n      shl(0xe0, 0x3204506f)\n        /* \"contracts/FutarchyArbitrageExecutorV2.sol\":495:5110  contract FutarchyArbitrageExecutorV2 {... */\n      0x00\n        /* \"contracts/FutarchyArbitrageExecutorV2.sol\":2987:2999  CallFailed() */\n      mstore\n        /* \"contracts/FutarchyArbitrageExecutorV2.sol\":495:5110  contract FutarchyArbitrageExecutorV2 {... */\n      0x04\n      0x00\n        /* \"contracts/FutarchyArbitrageExecutorV2.sol\":2987:2999  CallFailed() */\n      revert\n        /* \"contracts/FutarchyArbitrageExecutorV2.sol\":2493:2537  IERC20(profitToken).balanceOf(address(this)) */\n    tag_59:\n      swap4\n      pop\n        /* \"contracts/FutarchyArbitrageExecutorV2.sol\":495:5110  contract FutarchyArbitrageExecutorV2 {... */\n      0x20\n        /* \"contracts/FutarchyArbitrageExecutorV2.sol\":2493:2537  IERC20(profitToken).balanceOf(address(this)) */\n      returndatasize\n        /* \"contracts/FutarchyArbitrageExecutorV2.sol\":495:5110  contract FutarchyArbitrageExecutorV2 {... */\n      0x20\n        /* \"contracts/FutarchyArbitrageExecutorV2.sol\":2493:2537  IERC20(profitToken).balanceOf(address(this)) */\n      gt\n      tag_104\n      jumpi\n    tag_105:\n      dup1\n      tag_106\n      tag_107\n      swap3\n      tag_14\n      jump\t// in\n    tag_106:\n        /* \"contracts/FutarchyArbitrageExecutorV2.sol\":495:5110  contract FutarchyArbitrageExecutorV2 {... */\n      0x80\n        /* \"contracts/FutarchyArbitrageExecutorV2.sol\":2493:2537  IERC20(profitToken).balanceOf(address(this)) */\n      add\n      tag_16\n      jump\t// in\n    tag_107:\n      swap4\n      jump(tag_60)\n    tag_104:\n      pop\n      returndatasize\n      jump(tag_105)\n        /* \"contracts/FutarchyArbitrageExecutorV2.sol\":1010:1053  if (msg.sender != owner) revert OnlyOwner() */\n    tag_54:\n        /* \"contracts/FutarchyArbitrageExecutorV2.sol\":1042:1053  OnlyOwner() */\n      shl(0xe0, 0x5fc483c5)\n        /* \"contracts/FutarchyArbitrageExecutorV2.sol\":495:5110  contract FutarchyArbitrageExecutorV2 {... */\n      0x00\n        /* \"contracts/FutarchyArbitrageExecutorV2.sol\":1042:1053  OnlyOwner() */\n      mstore\n        /* \"contracts/FutarchyArbitrageExecutorV2.sol\":495:5110  contract FutarchyArbitrageExecutorV2 {... */\n      0x04\n      0x00\n        /* \"contracts/FutarchyArbitrageExecutorV2.sol\":1042:1053  OnlyOwner() */\n      revert\n        /* \"contracts/FutarchyArbitrageExecutorV2.sol\":495:5110  contract FutarchyArbitrageExecutorV2 {... */\n    tag_49:\n      0x00\n      dup1\n      revert\n    tag_1:\n      swap2\n      dup2\n      0x1f\n      dup5\n      add\n      slt\n      iszero\n      tag_49\n      jumpi\n      dup3\n      calldataload\n      swap2\n      0xffffffffffffffff\n      dup4\n      gt\n      tag_49\n      jumpi\n      0x20\n      dup1\n      dup6\n      add\n      swap5\n      dup5\n      0x05\n      shl\n      add\n      add\n      gt\n      tag_49\n      jumpi\n      jump\t// out\n    tag_2:\n      sub(shl(0xa0, 0x01), 0x01)\n      dup2\n      and\n      sub\n      tag_49\n      jumpi\n      jump\t// out\n    tag_7:\n      jumpi(tag_49, callvalue)\n      jumpi(tag_49, slt(add(not(0x03), calldatasize), 0x00))\n      mload(0x40)\n        /* \"contracts/FutarchyArbitrageExecutorV2.sol\":539:569  address public immutable owner */\n      immutable(\"0xfa7b04dd395b082c00ffb1be4290a48131a953cd45c80902499cd653c922b794\")\n      sub(shl(0xa0, 0x01), 0x01)\n        /* \"contracts/FutarchyArbitrageExecutorV2.sol\":495:5110  contract FutarchyArbitrageExecutorV2 {... */\n      and\n      dup2\n      mstore\n      0x20\n      swap1\n      return\n    tag_8:\n      jumpi(tag_49, callvalue)\n      jumpi(tag_49, slt(add(not(0x03), calldatasize), 0x40))\n      calldataload(0x04)\n      tag_124\n      dup2\n      tag_2\n      jump\t// in\n    tag_124:\n      calldataload(0x24)\n        /* \"contracts/FutarchyArbitrageExecutorV2.sol\":1028:1033  owner */\n      swap1\n      immutable(\"0xfa7b04dd395b082c00ffb1be4290a48131a953cd45c80902499cd653c922b794\")\n      sub(shl(0xa0, 0x01), 0x01)\n        /* \"contracts/FutarchyArbitrageExecutorV2.sol\":495:5110  contract FutarchyArbitrageExecutorV2 {... */\n      dup2\n      and\n        /* \"contracts/FutarchyArbitrageExecutorV2.sol\":1014:1024  msg.sender */\n      caller\n        /* \"contracts/FutarchyArbitrageExecutorV2.sol\":1014:1033  msg.sender != owner */\n      sub\n        /* \"contracts/FutarchyArbitrageExecutorV2.sol\":1010:1053  if (msg.sender != owner) revert OnlyOwner() */\n      tag_54\n      jumpi\n        /* \"contracts/FutarchyArbitrageExecutorV2.sol\":495:5110  contract FutarchyArbitrageExecutorV2 {... */\n      mload(0x40)\n      shl(0xe0, 0x70a08231)\n        /* \"contracts/FutarchyArbitrageExecutorV2.sol\":3845:3883  IERC20(token).balanceOf(address(this)) */\n      dup2\n      mstore\n        /* \"contracts/FutarchyArbitrageExecutorV2.sol\":3877:3881  this */\n      address\n        /* \"contracts/FutarchyArbitrageExecutorV2.sol\":495:5110  contract FutarchyArbitrageExecutorV2 {... */\n      0x04\n        /* \"contracts/FutarchyArbitrageExecutorV2.sol\":3845:3883  IERC20(token).balanceOf(address(this)) */\n      dup3\n      add\n        /* \"contracts/FutarchyArbitrageExecutorV2.sol\":495:5110  contract FutarchyArbitrageExecutorV2 {... */\n      mstore\n      sub(shl(0xa0, 0x01), 0x01)\n      swap3\n      swap1\n      swap3\n      and\n      swap3\n      swap2\n      dup3\n      0x20\n      dup3\n      0x24\n      dup2\n      dup9\n        /* \"contracts/FutarchyArbitrageExecutorV2.sol\":3845:3883  IERC20(token).balanceOf(address(this)) */\n      gas\n      staticcall\n      swap2\n      dup3\n      iszero\n      tag_80\n      jumpi\n      0x00\n      swap3\n      tag_131\n      jumpi\n        /* \"contracts/FutarchyArbitrageExecutorV2.sol\":495:5110  contract FutarchyArbitrageExecutorV2 {... */\n    tag_132:\n      pop\n        /* \"contracts/FutarchyArbitrageExecutorV2.sol\":3898:3909  amount == 0 */\n      dup1\n      tag_133\n      jumpi\n      pop\n        /* \"contracts/FutarchyArbitrageExecutorV2.sol\":3911:3927  amount = balance */\n      swap2\n      pop\n        /* \"contracts/FutarchyArbitrageExecutorV2.sol\":3894:3992  if (amount == 0) amount = balance;... */\n    tag_135:\n        /* \"contracts/FutarchyArbitrageExecutorV2.sol\":4007:4017  amount > 0 */\n      dup2\n        /* \"contracts/FutarchyArbitrageExecutorV2.sol\":4003:4160  if (amount > 0) {... */\n      tag_136\n      jumpi\n        /* \"contracts/FutarchyArbitrageExecutorV2.sol\":495:5110  contract FutarchyArbitrageExecutorV2 {... */\n      stop\n        /* \"contracts/FutarchyArbitrageExecutorV2.sol\":4003:4160  if (amount > 0) {... */\n    tag_136:\n        /* \"contracts/FutarchyArbitrageExecutorV2.sol\":495:5110  contract FutarchyArbitrageExecutorV2 {... */\n      mload(0x40)\n      shl(0xe0, 0xa9059cbb)\n        /* \"contracts/FutarchyArbitrageExecutorV2.sol\":4038:4075  IERC20(token).transfer(owner, amount) */\n      dup2\n      mstore\n      sub(shl(0xa0, 0x01), 0x01)\n        /* \"contracts/FutarchyArbitrageExecutorV2.sol\":495:5110  contract FutarchyArbitrageExecutorV2 {... */\n      swap2\n      swap1\n      swap2\n      and\n      0x04\n        /* \"contracts/FutarchyArbitrageExecutorV2.sol\":4038:4075  IERC20(token).transfer(owner, amount) */\n      dup3\n      add\n        /* \"contracts/FutarchyArbitrageExecutorV2.sol\":495:5110  contract FutarchyArbitrageExecutorV2 {... */\n      mstore\n      0x24\n      dup2\n      add\n      dup3\n      swap1\n      mstore\n      0x20\n      dup2\n      0x44\n      dup2\n      0x00\n        /* \"contracts/FutarchyArbitrageExecutorV2.sol\":4038:4075  IERC20(token).transfer(owner, amount) */\n      dup8\n      gas\n      call\n      swap1\n      dup2\n      iszero\n      tag_80\n      jumpi\n      0x00\n      swap2\n      tag_141\n      jumpi\n        /* \"contracts/FutarchyArbitrageExecutorV2.sol\":4003:4160  if (amount > 0) {... */\n    tag_142:\n        /* \"contracts/FutarchyArbitrageExecutorV2.sol\":4037:4075  !IERC20(token).transfer(owner, amount) */\n      pop\n      iszero\n        /* \"contracts/FutarchyArbitrageExecutorV2.sol\":4033:4100  if (!IERC20(token).transfer(owner, amount)) revert TransferFailed() */\n      tag_84\n      jumpi\n        /* \"contracts/FutarchyArbitrageExecutorV2.sol\":495:5110  contract FutarchyArbitrageExecutorV2 {... */\n      mload(0x40)\n      swap1\n      dup2\n      mstore\n        /* \"contracts/FutarchyArbitrageExecutorV2.sol\":4119:4149  TokensWithdrawn(token, amount) */\n      0x6352c5382c4a4578e712449ca65e83cdb392d045dfcf1cad9615189db2da244b\n      swap1\n        /* \"contracts/FutarchyArbitrageExecutorV2.sol\":495:5110  contract FutarchyArbitrageExecutorV2 {... */\n      0x20\n      swap1\n        /* \"contracts/FutarchyArbitrageExecutorV2.sol\":4119:4149  TokensWithdrawn(token, amount) */\n      log2\n        /* \"contracts/FutarchyArbitrageExecutorV2.sol\":495:5110  contract FutarchyArbitrageExecutorV2 {... */\n      stop\n        /* \"contracts/FutarchyArbitrageExecutorV2.sol\":4038:4075  IERC20(token).transfer(owner, amount) */\n    tag_141:\n      tag_146\n      swap2\n      pop\n        /* \"contracts/FutarchyArbitrageExecutorV2.sol\":495:5110  contract FutarchyArbitrageExecutorV2 {... */\n      0x20\n        /* \"contracts/FutarchyArbitrageExecutorV2.sol\":4038:4075  IERC20(token).transfer(owner, amount) */\n      returndatasize\n        /* \"contracts/FutarchyArbitrageExecutorV2.sol\":495:5110  contract FutarchyArbitrageExecutorV2 {... */\n      0x20\n        /* \"contracts/FutarchyArbitrageExecutorV2.sol\":4038:4075  IERC20(token).transfer(owner, amount) */\n      gt\n      tag_87\n      jumpi\n      tag_89\n      dup2\n      dup4\n      tag_15\n      jump\t// in\n    tag_146:\n      0x00\n      jump(tag_142)\n        /* \"contracts/FutarchyArbitrageExecutorV2.sol\":3894:3992  if (amount == 0) amount = balance;... */\n    tag_133:\n        /* \"contracts/FutarchyArbitrageExecutorV2.sol\":3946:3962  amount > balance */\n      gt\n        /* \"contracts/FutarchyArbitrageExecutorV2.sol\":3942:3992  if (amount > balance) revert InsufficientBalance() */\n      iszero\n        /* \"contracts/FutarchyArbitrageExecutorV2.sol\":3894:3992  if (amount == 0) amount = balance;... */\n      tag_135\n        /* \"contracts/FutarchyArbitrageExecutorV2.sol\":3942:3992  if (amount > balance) revert InsufficientBalance() */\n      jumpi\n        /* \"contracts/FutarchyArbitrageExecutorV2.sol\":3971:3992  InsufficientBalance() */\n      mstore(0x00, shl(0xe3, 0x1e9acf17))\n        /* \"contracts/FutarchyArbitrageExecutorV2.sol\":495:5110  contract FutarchyArbitrageExecutorV2 {... */\n      0x04\n      0x00\n        /* \"contracts/FutarchyArbitrageExecutorV2.sol\":3971:3992  InsufficientBalance() */\n      revert\n        /* \"contracts/FutarchyArbitrageExecutorV2.sol\":3845:3883  IERC20(token).balanceOf(address(this)) */\n    tag_131:\n      tag_152\n      swap2\n      swap3\n      pop\n        /* \"contracts/FutarchyArbitrageExecutorV2.sol\":495:5110  contract FutarchyArbitrageExecutorV2 {... */\n      0x20\n        /* \"contracts/FutarchyArbitrageExecutorV2.sol\":3845:3883  IERC20(token).balanceOf(address(this)) */\n      returndatasize\n        /* \"contracts/FutarchyArbitrageExecutorV2.sol\":495:5110  contract FutarchyArbitrageExecutorV2 {... */\n      0x20\n        /* \"contracts/FutarchyArbitrageExecutorV2.sol\":3845:3883  IERC20(token).balanceOf(address(this)) */\n      gt\n      tag_91\n      jumpi\n      tag_93\n      dup2\n      dup4\n      tag_15\n      jump\t// in\n    tag_152:\n      swap1\n      0x00\n      jump(tag_132)\n        /* \"contracts/FutarchyArbitrageExecutorV2.sol\":495:5110  contract FutarchyArbitrageExecutorV2 {... */\n    tag_9:\n      jumpi(tag_49, callvalue)\n      jumpi(tag_49, slt(add(not(0x03), calldatasize), 0x20))\n      calldataload(0x04)\n      0xffffffffffffffff\n      dup2\n      gt\n      tag_49\n      jumpi\n      tag_162\n      swap1\n      calldatasize\n      swap1\n      0x04\n      add\n      tag_1\n      jump\t// in\n    tag_162:\n      swap1\n        /* \"contracts/FutarchyArbitrageExecutorV2.sol\":1028:1033  owner */\n      immutable(\"0xfa7b04dd395b082c00ffb1be4290a48131a953cd45c80902499cd653c922b794\")\n      sub(shl(0xa0, 0x01), 0x01)\n        /* \"contracts/FutarchyArbitrageExecutorV2.sol\":495:5110  contract FutarchyArbitrageExecutorV2 {... */\n      and\n        /* \"contracts/FutarchyArbitrageExecutorV2.sol\":1014:1024  msg.sender */\n      caller\n        /* \"contracts/FutarchyArbitrageExecutorV2.sol\":1014:1033  msg.sender != owner */\n      sub\n        /* \"contracts/FutarchyArbitrageExecutorV2.sol\":1010:1053  if (msg.sender != owner) revert OnlyOwner() */\n      tag_54\n      jumpi\n      0x00\n        /* \"contracts/FutarchyArbitrageExecutorV2.sol\":1413:1429  i < calls.length */\n    tag_165:\n      dup3\n      dup2\n      lt\n      tag_166\n      jumpi\n        /* \"contracts/FutarchyArbitrageExecutorV2.sol\":495:5110  contract FutarchyArbitrageExecutorV2 {... */\n      stop\n        /* \"contracts/FutarchyArbitrageExecutorV2.sol\":1398:1411  uint256 i = 0 */\n    tag_166:\n      0x00\n        /* \"contracts/FutarchyArbitrageExecutorV2.sol\":1484:1492  calls[i] */\n      dup1\n      tag_168\n      dup4\n      dup7\n      dup7\n      tag_19\n      jump\t// in\n    tag_168:\n        /* \"contracts/FutarchyArbitrageExecutorV2.sol\":495:5110  contract FutarchyArbitrageExecutorV2 {... */\n      calldataload\n      tag_169\n      dup2\n      tag_2\n      jump\t// in\n    tag_169:\n        /* \"contracts/FutarchyArbitrageExecutorV2.sol\":1505:1513  calls[i] */\n      dup2\n        /* \"contracts/FutarchyArbitrageExecutorV2.sol\":1505:1522  calls[i].callData */\n      tag_170\n        /* \"contracts/FutarchyArbitrageExecutorV2.sol\":1505:1513  calls[i] */\n      tag_97\n      dup7\n      dup10\n      dup10\n      tag_19\n      jump\t// in\n        /* \"contracts/FutarchyArbitrageExecutorV2.sol\":1505:1522  calls[i].callData */\n    tag_170:\n        /* \"contracts/FutarchyArbitrageExecutorV2.sol\":495:5110  contract FutarchyArbitrageExecutorV2 {... */\n      swap2\n      swap1\n      tag_172\n      mload(0x40)\n      dup1\n      swap5\n      dup2\n      swap4\n      tag_22\n      jump\t// in\n    tag_172:\n        /* \"contracts/FutarchyArbitrageExecutorV2.sol\":1484:1523  calls[i].target.call(calls[i].callData) */\n      sub\n      swap3\n      gas\n      call\n      tag_173\n      tag_23\n      jump\t// in\n    tag_173:\n        /* \"contracts/FutarchyArbitrageExecutorV2.sol\":1541:1549  !success */\n      swap1\n      iszero\n        /* \"contracts/FutarchyArbitrageExecutorV2.sol\":1537:1917  if (!success) {... */\n      tag_100\n      jumpi\n        /* \"contracts/FutarchyArbitrageExecutorV2.sol\":495:5110  contract FutarchyArbitrageExecutorV2 {... */\n      pop\n      0x01\n      add\n        /* \"contracts/FutarchyArbitrageExecutorV2.sol\":1398:1411  uint256 i = 0 */\n      jump(tag_165)\n        /* \"contracts/FutarchyArbitrageExecutorV2.sol\":495:5110  contract FutarchyArbitrageExecutorV2 {... */\n    tag_10:\n      jumpi(tag_49, callvalue)\n      jumpi(tag_49, slt(add(not(0x03), calldatasize), 0x60))\n      calldataload(0x04)\n      tag_182\n      dup2\n      tag_2\n      jump\t// in\n    tag_182:\n      calldataload(0x24)\n      tag_183\n      dup2\n      tag_2\n      jump\t// in\n    tag_183:\n      calldataload(0x44)\n        /* \"contracts/FutarchyArbitrageExecutorV2.sol\":1028:1033  owner */\n      immutable(\"0xfa7b04dd395b082c00ffb1be4290a48131a953cd45c80902499cd653c922b794\")\n      sub(shl(0xa0, 0x01), 0x01)\n        /* \"contracts/FutarchyArbitrageExecutorV2.sol\":495:5110  contract FutarchyArbitrageExecutorV2 {... */\n      and\n        /* \"contracts/FutarchyArbitrageExecutorV2.sol\":1014:1024  msg.sender */\n      caller\n        /* \"contracts/FutarchyArbitrageExecutorV2.sol\":1014:1033  msg.sender != owner */\n      sub\n        /* \"contracts/FutarchyArbitrageExecutorV2.sol\":1010:1053  if (msg.sender != owner) revert OnlyOwner() */\n      tag_54\n      jumpi\n        /* \"contracts/FutarchyArbitrageExecutorV2.sol\":495:5110  contract FutarchyArbitrageExecutorV2 {... */\n      mload(0x40)\n      shl(0xe0, 0x095ea7b3)\n        /* \"contracts/FutarchyArbitrageExecutorV2.sol\":5009:5047  IERC20(token).approve(spender, amount) */\n      dup2\n      mstore\n      sub(shl(0xa0, 0x01), 0x01)\n        /* \"contracts/FutarchyArbitrageExecutorV2.sol\":495:5110  contract FutarchyArbitrageExecutorV2 {... */\n      swap1\n      swap3\n      and\n      0x04\n        /* \"contracts/FutarchyArbitrageExecutorV2.sol\":5009:5047  IERC20(token).approve(spender, amount) */\n      dup4\n      add\n        /* \"contracts/FutarchyArbitrageExecutorV2.sol\":495:5110  contract FutarchyArbitrageExecutorV2 {... */\n      mstore\n      0x24\n      dup3\n      add\n      mstore\n      swap1\n      0x20\n      swap1\n      dup3\n      swap1\n      dup2\n      0x00\n      dup2\n      0x44\n      dup2\n      add\n        /* \"contracts/FutarchyArbitrageExecutorV2.sol\":5009:5047  IERC20(token).approve(spender, amount) */\n      sub\n      swap3\n      sub(shl(0xa0, 0x01), 0x01)\n        /* \"contracts/FutarchyArbitrageExecutorV2.sol\":495:5110  contract FutarchyArbitrageExecutorV2 {... */\n      and\n        /* \"contracts/FutarchyArbitrageExecutorV2.sol\":5009:5047  IERC20(token).approve(spender, amount) */\n      gas\n      call\n      dup1\n      iszero\n      tag_80\n      jumpi\n      tag_190\n      jumpi\n        /* \"contracts/FutarchyArbitrageExecutorV2.sol\":495:5110  contract FutarchyArbitrageExecutorV2 {... */\n      stop\n        /* \"contracts/FutarchyArbitrageExecutorV2.sol\":5009:5047  IERC20(token).approve(spender, amount) */\n    tag_190:\n      tag_29\n      swap1\n        /* \"contracts/FutarchyArbitrageExecutorV2.sol\":495:5110  contract FutarchyArbitrageExecutorV2 {... */\n      0x20\n        /* \"contracts/FutarchyArbitrageExecutorV2.sol\":5009:5047  IERC20(token).approve(spender, amount) */\n      returndatasize\n        /* \"contracts/FutarchyArbitrageExecutorV2.sol\":495:5110  contract FutarchyArbitrageExecutorV2 {... */\n      0x20\n        /* \"contracts/FutarchyArbitrageExecutorV2.sol\":5009:5047  IERC20(token).approve(spender, amount) */\n      gt\n      tag_87\n      jumpi\n      tag_89\n      dup2\n      dup4\n      tag_15\n      jump\t// in\n        /* \"contracts/FutarchyArbitrageExecutorV2.sol\":495:5110  contract FutarchyArbitrageExecutorV2 {... */\n    tag_11:\n      jumpi(tag_49, callvalue)\n      jumpi(tag_49, slt(add(not(0x03), calldatasize), 0x00))\n        /* \"contracts/FutarchyArbitrageExecutorV2.sol\":1028:1033  owner */\n      immutable(\"0xfa7b04dd395b082c00ffb1be4290a48131a953cd45c80902499cd653c922b794\")\n      sub(shl(0xa0, 0x01), 0x01)\n        /* \"contracts/FutarchyArbitrageExecutorV2.sol\":495:5110  contract FutarchyArbitrageExecutorV2 {... */\n      and\n        /* \"contracts/FutarchyArbitrageExecutorV2.sol\":1014:1024  msg.sender */\n      caller\n        /* \"contracts/FutarchyArbitrageExecutorV2.sol\":1014:1033  msg.sender != owner */\n      dup2\n      swap1\n      sub\n        /* \"contracts/FutarchyArbitrageExecutorV2.sol\":1010:1053  if (msg.sender != owner) revert OnlyOwner() */\n      tag_54\n      jumpi\n        /* \"contracts/FutarchyArbitrageExecutorV2.sol\":4300:4321  address(this).balance */\n      selfbalance\n        /* \"contracts/FutarchyArbitrageExecutorV2.sol\":4335:4346  balance > 0 */\n      swap1\n      dup2\n        /* \"contracts/FutarchyArbitrageExecutorV2.sol\":4331:4484  if (balance > 0) {... */\n      tag_202\n      jumpi\n        /* \"contracts/FutarchyArbitrageExecutorV2.sol\":495:5110  contract FutarchyArbitrageExecutorV2 {... */\n      stop\n        /* \"contracts/FutarchyArbitrageExecutorV2.sol\":4331:4484  if (balance > 0) {... */\n    tag_202:\n        /* \"contracts/FutarchyArbitrageExecutorV2.sol\":495:5110  contract FutarchyArbitrageExecutorV2 {... */\n      0x00\n        /* \"contracts/FutarchyArbitrageExecutorV2.sol\":4380:4419  payable(owner).call{value: balance}(\"\") */\n      dup1\n      dup1\n      swap4\n      dup2\n      swap4\n      gas\n      call\n      tag_204\n      tag_23\n      jump\t// in\n    tag_204:\n      pop\n        /* \"contracts/FutarchyArbitrageExecutorV2.sol\":4437:4445  !success */\n      iszero\n        /* \"contracts/FutarchyArbitrageExecutorV2.sol\":4433:4473  if (!success) revert EthTransferFailed() */\n      tag_205\n      jumpi\n        /* \"contracts/FutarchyArbitrageExecutorV2.sol\":495:5110  contract FutarchyArbitrageExecutorV2 {... */\n      stop\n        /* \"contracts/FutarchyArbitrageExecutorV2.sol\":4433:4473  if (!success) revert EthTransferFailed() */\n    tag_205:\n        /* \"contracts/FutarchyArbitrageExecutorV2.sol\":4454:4473  EthTransferFailed() */\n      shl(0xe3, 0x0db2c7f1)\n        /* \"contracts/FutarchyArbitrageExecutorV2.sol\":495:5110  contract FutarchyArbitrageExecutorV2 {... */\n      0x00\n        /* \"contracts/FutarchyArbitrageExecutorV2.sol\":4454:4473  EthTransferFailed() */\n      mstore\n        /* \"contracts/FutarchyArbitrageExecutorV2.sol\":495:5110  contract FutarchyArbitrageExecutorV2 {... */\n      0x04\n      0x00\n        /* \"contracts/FutarchyArbitrageExecutorV2.sol\":4454:4473  EthTransferFailed() */\n      revert\n        /* \"contracts/FutarchyArbitrageExecutorV2.sol\":495:5110  contract FutarchyArbitrageExecutorV2 {... */\n    tag_12:\n      jumpi(tag_49, callvalue)\n      jumpi(tag_49, slt(add(not(0x03), calldatasize), 0x20))\n        /* \"contracts/FutarchyArbitrageExecutorV2.sol\":4694:4732  IERC20(token).balanceOf(address(this)) */\n      0x24\n        /* \"contracts/FutarchyArbitrageExecutorV2.sol\":495:5110  contract FutarchyArbitrageExecutorV2 {... */\n      0x20\n      calldataload(0x04)\n      tag_211\n      dup2\n      tag_2\n      jump\t// in\n    tag_211:\n      mload(0x40)\n      shl(0xe0, 0x70a08231)\n        /* \"contracts/FutarchyArbitrageExecutorV2.sol\":4694:4732  IERC20(token).balanceOf(address(this)) */\n      dup2\n      mstore\n        /* \"contracts/FutarchyArbitrageExecutorV2.sol\":4726:4730  this */\n      address\n        /* \"contracts/FutarchyArbitrageExecutorV2.sol\":495:5110  contract FutarchyArbitrageExecutorV2 {... */\n      0x04\n        /* \"contracts/FutarchyArbitrageExecutorV2.sol\":4694:4732  IERC20(token).balanceOf(address(this)) */\n      dup3\n      add\n        /* \"contracts/FutarchyArbitrageExecutorV2.sol\":495:5110  contract FutarchyArbitrageExecutorV2 {... */\n      mstore\n      swap3\n      dup4\n      swap2\n      dup3\n      swap1\n      sub(shl(0xa0, 0x01), 0x01)\n      and\n        /* \"contracts/FutarchyArbitrageExecutorV2.sol\":4694:4732  IERC20(token).balanceOf(address(this)) */\n      gas\n      staticcall\n      dup1\n      iszero\n      tag_80\n      jumpi\n        /* \"contracts/FutarchyArbitrageExecutorV2.sol\":495:5110  contract FutarchyArbitrageExecutorV2 {... */\n      tag_77\n        /* \"contracts/FutarchyArbitrageExecutorV2.sol\":4694:4732  IERC20(token).balanceOf(address(this)) */\n      swap2\n      0x00\n      swap2\n      tag_215\n      jumpi\n        /* \"contracts/FutarchyArbitrageExecutorV2.sol\":495:5110  contract FutarchyArbitrageExecutorV2 {... */\n    tag_216:\n      pop\n      mload(0x40)\n      swap1\n      dup2\n      mstore\n      swap1\n      dup2\n      swap1\n      0x20\n      dup3\n      add\n      swap1\n      jump\n        /* \"contracts/FutarchyArbitrageExecutorV2.sol\":4694:4732  IERC20(token).balanceOf(address(this)) */\n    tag_215:\n      tag_217\n      swap2\n      pop\n        /* \"contracts/FutarchyArbitrageExecutorV2.sol\":495:5110  contract FutarchyArbitrageExecutorV2 {... */\n      0x20\n        /* \"contracts/FutarchyArbitrageExecutorV2.sol\":4694:4732  IERC20(token).balanceOf(address(this)) */\n      returndatasize\n        /* \"contracts/FutarchyArbitrageExecutorV2.sol\":495:5110  contract FutarchyArbitrageExecutorV2 {... */\n      0x20\n        /* \"contracts/FutarchyArbitrageExecutorV2.sol\":4694:4732  IERC20(token).balanceOf(address(this)) */\n      gt\n      tag_91\n      jumpi\n      tag_93\n      dup2\n      dup4\n      tag_15\n      jump\t// in\n    tag_217:\n      0x00\n      jump(tag_216)\n        /* \"contracts/FutarchyArbitrageExecutorV2.sol\":495:5110  contract FutarchyArbitrageExecutorV2 {... */\n    tag_13:\n      mstore(0x00, shl(0xe0, 0x4e487b71))\n      mstore(0x04, 0x41)\n      revert(0x00, 0x24)\n    tag_14:\n      0x1f\n      dup1\n      not\n      swap2\n      add\n      and\n      0x80\n      add\n      0x80\n      dup2\n      lt\n      0xffffffffffffffff\n      dup3\n      gt\n      or\n      tag_221\n      jumpi\n      0x40\n      mstore\n      jump\t// out\n    tag_221:\n      tag_13\n      jump\t// in\n    tag_15:\n      swap1\n      0x1f\n      dup1\n      not\n      swap2\n      add\n      and\n      dup2\n      add\n      swap1\n      dup2\n      lt\n      0xffffffffffffffff\n      dup3\n      gt\n      or\n      tag_221\n      jumpi\n      0x40\n      mstore\n      jump\t// out\n    tag_16:\n      0x20\n      swap1\n        /* \"contracts/FutarchyArbitrageExecutorV2.sol\":2493:2537  IERC20(profitToken).balanceOf(address(this)) */\n      not(0x7f)\n        /* \"contracts/FutarchyArbitrageExecutorV2.sol\":495:5110  contract FutarchyArbitrageExecutorV2 {... */\n      add\n      slt\n      tag_49\n      jumpi\n      mload(0x80)\n      swap1\n      jump\t// out\n    tag_17:\n      swap1\n      dup2\n      0x20\n      swap2\n      sub\n      slt\n      tag_49\n      jumpi\n      mload\n      swap1\n      jump\t// out\n    tag_18:\n      mload(0x40)\n      returndatasize\n      0x00\n      dup3\n      returndatacopy\n      returndatasize\n      swap1\n      revert\n    tag_19:\n      swap2\n      swap1\n      dup2\n      lt\n      iszero\n      tag_229\n      jumpi\n      0x05\n      shl\n      dup2\n      add\n      calldataload\n      swap1\n      not(0x3e)\n      dup2\n      calldatasize\n      sub\n      add\n      dup3\n      slt\n      iszero\n      tag_49\n      jumpi\n      add\n      swap1\n      jump\t// out\n    tag_229:\n      mstore(0x00, shl(0xe0, 0x4e487b71))\n      mstore(0x04, 0x32)\n      revert(0x00, 0x24)\n    tag_20:\n      calldataload\n      tag_233\n      dup2\n      tag_2\n      jump\t// in\n    tag_233:\n      swap1\n      jump\t// out\n    tag_21:\n      swap1\n      calldataload\n      swap1\n      not(0x1e)\n      dup2\n      calldatasize\n      sub\n      add\n      dup3\n      slt\n      iszero\n      tag_49\n      jumpi\n      add\n      dup1\n      calldataload\n      swap1\n      0xffffffffffffffff\n      dup3\n      gt\n      tag_49\n      jumpi\n      0x20\n      add\n      swap2\n      dup2\n      calldatasize\n      sub\n      dup4\n      sgt\n      tag_49\n      jumpi\n      jump\t// out\n    tag_22:\n      swap1\n      dup1\n      swap3\n      swap2\n      dup3\n      calldatacopy\n      add\n      0x00\n      dup2\n      mstore\n      swap1\n      jump\t// out\n    tag_23:\n      jumpi(tag_240, iszero(returndatasize))\n      returndatasize\n      swap1\n      0xffffffffffffffff\n      dup3\n      gt\n      tag_221\n      jumpi\n      mload(0x40)\n      swap2\n      tag_244\n      0x1f\n      dup3\n      add\n      not(0x1f)\n      and\n      0x20\n      add\n      dup5\n      tag_15\n      jump\t// in\n    tag_244:\n      dup3\n      mstore\n      returndatasize\n      0x00\n      0x20\n      dup5\n      add\n      returndatacopy\n      jump\t// out\n    tag_240:\n      0x60\n      swap1\n      jump\t// out\n    tag_24:\n      swap2\n      swap1\n      dup3\n      sub\n      swap2\n      dup3\n      gt\n      tag_246\n      jumpi\n      jump\t// out\n    tag_246:\n      mstore(0x00, shl(0xe0, 0x4e487b71))\n      mstore(0x04, 0x11)\n      revert(0x00, 0x24)\n    tag_25:\n      swap1\n      dup2\n      0x20\n      swap2\n      sub\n      slt\n      tag_49\n      jumpi\n      mload\n      dup1\n      iszero\n      iszero\n      dup2\n      sub\n      tag_49\n      jumpi\n      swap1\n      jump\t// out\n\n    auxdata: 0xa26469706673582212202c58b9a875eb9b88c217bd7e90248ad53c3da5e0d57d10695ca87b78a5f2751b64736f6c63430008210033\n}\n","methodIdentifiers":{"approveToken(address,address,uint256)":"da3e3397","executeArbitrage((address,bytes)[],address,uint256)":"245f29dd","getBalance(address)":"f8b2cb4f","multicall((address,bytes)[])":"caa5c23f","owner()":"8da5cb5b","withdrawETH()":"e086e5ec","withdrawToken(address,uint256)":"9e281a98"},"id":3}