{
  "abi": [
    {
      "type": "receive",
      "stateMutability": "payable"
    },
    {
      "type": "function",
      "name": "execute10",
      "inputs": [
        {
          "name": "targets",
          "type": "address[10]",
          "internalType": "address[10]"
        },
        {
          "name": "calldatas",
          "type": "bytes[10]",
          "internalType": "bytes[10]"
        },
        {
          "name": "count",
          "type": "uint256",
          "internalType": "uint256"
        }
      ],
      "outputs": [],
      "stateMutability": "payable"
    },
    {
      "type": "function",
      "name": "executeOne",
      "inputs": [
        {
          "name": "target",
          "type": "address",
          "internalType": "address"
        },
        {
          "name": "data",
          "type": "bytes",
          "internalType": "bytes"
        }
      ],
      "outputs": [
        {
          "name": "",
          "type": "bytes",
          "internalType": "bytes"
        }
      ],
      "stateMutability": "payable"
    },
    {
      "type": "error",
      "name": "CallFailed",
      "inputs": []
    },
    {
      "type": "error",
      "name": "OnlySelf",
      "inputs": []
    },
    {
      "type": "error",
      "name": "TooManyCalls",
      "inputs": []
    }
  ],
  "bytecode": {
    "object": "0x608080604052346015576102f2908161001a8239f35b5f80fdfe608080604052600436101561001c575b50361561001a575f80fd5b005b5f3560e01c9081633e16b19c14610175575063f75be35c1461003e575f61000f565b61018036600319011261013f57366101441161013f576101443567ffffffffffffffff811161013f573661014482011161013f57610164359030330361016657600a8211610157575f5b82811061009157005b6001600160a01b036100aa6100a583610296565b6102a8565b166100b8575b600101610088565b6100c46100a582610296565b600a8210156101435760048260051b840101356022198436030181121561013f5783019060048201359167ffffffffffffffff831161013f5760240190823603821361013f57825f80949381946040519384928337810182815203925af161012a610231565b506100b0575b633204506f60e01b5f5260045ffd5b5f80fd5b634e487b7160e01b5f52603260045260245ffd5b63f5dedbff60e01b5f5260045ffd5b63029a949d60e31b5f5260045ffd5b604036600319011261013f57600435906001600160a01b038216820361013f576024359167ffffffffffffffff831161013f573660238401121561013f5782600401359167ffffffffffffffff831161013f57366024848601011161013f573033036101665780835f9594602487960183378101848152039134905af16101fa610231565b9015610130576040602091815192839181835280519182918282860152018484015e5f828201840152601f01601f19168101030190f35b3d15610291573d9067ffffffffffffffff821161027d5760405191601f8101601f19908116603f0116830167ffffffffffffffff81118482101761027d5760405282523d5f602084013e565b634e487b7160e01b5f52604160045260245ffd5b606090565b600a8110156101435760051b60040190565b356001600160a01b038116810361013f579056fea2646970667358221220c833e053a522934e2f3bb3fa3aae82406496f17b243cfbbcc0820094b7c7e4b864736f6c63430008210033",
    "linkReferences": {}
  },
  "methodIdentifiers": {
    "execute10(address[10],bytes[10],uint256)": "f75be35c",
    "executeOne(address,bytes)": "3e16b19c"
  },
  "id": 5
}