{"abi":[{"type":"receive","stateMutability":"payable"},{"type":"function","name":"execute10","inputs":[{"name":"targets","type":"address[10]","internalType":"address[10]"},{"name":"calldatas","type":"bytes[10]","internalType":"bytes[10]"},{"name":"count","type":"uint256","internalType":"uint256"}],"outputs":[],"stateMutability":"payable"},{"type":"function","name":"executeOne","inputs":[{"name":"target","type":"address","internalType":"address"},{"name":"data","type":"bytes","internalType":"bytes"}],"outputs":[{"name":"","type":"bytes","internalType":"bytes"}],"stateMutability":"payable"},{"type":"error","name":"CallFailed","inputs":[]},{"type":"error","name":"OnlySelf","inputs":[]},{"type":"error","name":"TooManyCalls","inputs":[]}],"bytecode":{"object":"0x608080604052346015576102f2908161001a8239f35b5f80fdfe608080604052600436101561001c575b50361561001a575f80fd5b005b5f3560e01c9081633e16b19c14610175575063f75be35c1461003e575f61000f565b61018036600319011261013f57366101441161013f576101443567ffffffffffffffff811161013f573661014482011161013f57610164359030330361016657600a8211610157575f5b82811061009157005b6001600160a01b036100aa6100a583610296565b6102a8565b166100b8575b600101610088565b6100c46100a582610296565b600a8210156101435760048260051b840101356022198436030181121561013f5783019060048201359167ffffffffffffffff831161013f5760240190823603821361013f57825f80949381946040519384928337810182815203925af161012a610231565b506100b0575b633204506f60e01b5f5260045ffd5b5f80fd5b634e487b7160e01b5f52603260045260245ffd5b63f5dedbff60e01b5f5260045ffd5b63029a949d60e31b5f5260045ffd5b604036600319011261013f57600435906001600160a01b038216820361013f576024359167ffffffffffffffff831161013f573660238401121561013f5782600401359167ffffffffffffffff831161013f57366024848601011161013f573033036101665780835f9594602487960183378101848152039134905af16101fa610231565b9015610130576040602091815192839181835280519182918282860152018484015e5f828201840152601f01601f19168101030190f35b3d15610291573d9067ffffffffffffffff821161027d5760405191601f8101601f19908116603f0116830167ffffffffffffffff81118482101761027d5760405282523d5f602084013e565b634e487b7160e01b5f52604160045260245ffd5b606090565b600a8110156101435760051b60040190565b356001600160a01b038116810361013f579056fea2646970667358221220c833e053a522934e2f3bb3fa3aae82406496f17b243cfbbcc0820094b7c7e4b864736f6c63430008210033","linkReferences":{}},"assembly":"    /* \"contracts/FutarchyBatchExecutorMinimal.sol\":226:1428  contract FutarchyBatchExecutorMinimal {... */\n  0x80\n  dup1\n  0x40\n  mstore\n  jumpi(tag_1, callvalue)\n  dataSize(sub_0)\n  swap1\n  dup2\n  dataOffset(sub_0)\n  dup3\n  codecopy\n  return\ntag_1:\n  0x00\n  dup1\n  revert\nstop\n\nsub_0: assembly {\n        /* \"contracts/FutarchyBatchExecutorMinimal.sol\":226:1428  contract FutarchyBatchExecutorMinimal {... */\n      0x80\n      dup1\n      0x40\n      mstore\n      jumpi(tag_4, iszero(lt(calldatasize, 0x04)))\n    tag_5:\n      pop\n      jumpi(tag_6, iszero(calldatasize))\n      0x00\n      dup1\n      revert\n    tag_6:\n      stop\n    tag_4:\n      shr(0xe0, calldataload(0x00))\n      swap1\n      dup2\n      0x3e16b19c\n      eq\n      tag_8\n      jumpi\n      pop\n      0xf75be35c\n      eq\n      tag_10\n      jumpi\n      0x00\n      jump(tag_5)\n    tag_10:\n      jumpi(tag_39, slt(add(not(0x03), calldatasize), 0x0180))\n      jumpi(tag_39, gt(0x0144, calldatasize))\n      calldataload(0x0144)\n      0xffffffffffffffff\n      dup2\n      gt\n      tag_39\n      jumpi\n      calldatasize\n      0x0144\n      dup3\n      add\n      gt\n      tag_39\n      jumpi\n      calldataload(0x0164)\n        /* \"contracts/FutarchyBatchExecutorMinimal.sol\":639:643  this */\n      swap1\n      address\n        /* \"contracts/FutarchyBatchExecutorMinimal.sol\":617:627  msg.sender */\n      caller\n        /* \"contracts/FutarchyBatchExecutorMinimal.sol\":617:644  msg.sender != address(this) */\n      sub\n        /* \"contracts/FutarchyBatchExecutorMinimal.sol\":613:663  if (msg.sender != address(this)) revert OnlySelf() */\n      tag_20\n      jumpi\n        /* \"contracts/FutarchyBatchExecutorMinimal.sol\":685:687  10 */\n      0x0a\n        /* \"contracts/FutarchyBatchExecutorMinimal.sol\":677:687  count > 10 */\n      dup3\n      gt\n        /* \"contracts/FutarchyBatchExecutorMinimal.sol\":673:710  if (count > 10) revert TooManyCalls() */\n      tag_22\n      jumpi\n        /* \"contracts/FutarchyBatchExecutorMinimal.sol\":226:1428  contract FutarchyBatchExecutorMinimal {... */\n      0x00\n        /* \"contracts/FutarchyBatchExecutorMinimal.sol\":741:750  i < count */\n    tag_24:\n      dup3\n      dup2\n      lt\n      tag_25\n      jumpi\n        /* \"contracts/FutarchyBatchExecutorMinimal.sol\":226:1428  contract FutarchyBatchExecutorMinimal {... */\n      stop\n        /* \"contracts/FutarchyBatchExecutorMinimal.sol\":726:739  uint256 i = 0 */\n    tag_25:\n      sub(shl(0xa0, 0x01), 0x01)\n        /* \"contracts/FutarchyBatchExecutorMinimal.sol\":771:781  targets[i] */\n      tag_27\n      tag_28\n      dup4\n      tag_2\n      jump\t// in\n    tag_28:\n      tag_3\n      jump\t// in\n    tag_27:\n        /* \"contracts/FutarchyBatchExecutorMinimal.sol\":226:1428  contract FutarchyBatchExecutorMinimal {... */\n      and\n        /* \"contracts/FutarchyBatchExecutorMinimal.sol\":767:928  if (targets[i] != address(0)) {... */\n      tag_29\n      jumpi\n        /* \"contracts/FutarchyBatchExecutorMinimal.sol\":726:739  uint256 i = 0 */\n    tag_30:\n        /* \"contracts/FutarchyBatchExecutorMinimal.sol\":226:1428  contract FutarchyBatchExecutorMinimal {... */\n      0x01\n      add\n        /* \"contracts/FutarchyBatchExecutorMinimal.sol\":726:739  uint256 i = 0 */\n      jump(tag_24)\n        /* \"contracts/FutarchyBatchExecutorMinimal.sol\":767:928  if (targets[i] != address(0)) {... */\n    tag_29:\n        /* \"contracts/FutarchyBatchExecutorMinimal.sol\":833:843  targets[i] */\n      tag_31\n      tag_28\n      dup3\n      tag_2\n      jump\t// in\n    tag_31:\n        /* \"contracts/FutarchyBatchExecutorMinimal.sol\":685:687  10 */\n      0x0a\n        /* \"contracts/FutarchyBatchExecutorMinimal.sol\":226:1428  contract FutarchyBatchExecutorMinimal {... */\n      dup3\n      lt\n      iszero\n      tag_33\n      jumpi\n      0x04\n      dup3\n      0x05\n      shl\n      dup5\n      add\n      add\n      calldataload\n      not(0x22)\n      dup5\n      calldatasize\n      sub\n      add\n      dup2\n      slt\n      iszero\n      tag_39\n      jumpi\n      dup4\n      add\n      swap1\n      0x04\n      dup3\n      add\n      calldataload\n      swap2\n      0xffffffffffffffff\n      dup4\n      gt\n      tag_39\n      jumpi\n      0x24\n      add\n      swap1\n      dup3\n      calldatasize\n      sub\n      dup3\n      sgt\n      tag_39\n      jumpi\n      dup3\n      0x00\n      dup1\n      swap5\n      swap4\n      dup2\n      swap5\n      mload(0x40)\n      swap4\n      dup5\n      swap3\n      dup4\n      calldatacopy\n      dup2\n      add\n      dup3\n      dup2\n      mstore\n        /* \"contracts/FutarchyBatchExecutorMinimal.sol\":833:862  targets[i].call(calldatas[i]) */\n      sub\n      swap3\n      gas\n      call\n      tag_41\n      tag_1\n      jump\t// in\n    tag_41:\n      pop\n        /* \"contracts/FutarchyBatchExecutorMinimal.sol\":767:928  if (targets[i] != address(0)) {... */\n      tag_30\n        /* \"contracts/FutarchyBatchExecutorMinimal.sol\":880:913  if (!success) revert CallFailed() */\n      jumpi\n    tag_42:\n        /* \"contracts/FutarchyBatchExecutorMinimal.sol\":1348:1360  CallFailed() */\n      shl(0xe0, 0x3204506f)\n        /* \"contracts/FutarchyBatchExecutorMinimal.sol\":226:1428  contract FutarchyBatchExecutorMinimal {... */\n      0x00\n        /* \"contracts/FutarchyBatchExecutorMinimal.sol\":901:913  CallFailed() */\n      mstore\n        /* \"contracts/FutarchyBatchExecutorMinimal.sol\":226:1428  contract FutarchyBatchExecutorMinimal {... */\n      0x04\n      0x00\n        /* \"contracts/FutarchyBatchExecutorMinimal.sol\":901:913  CallFailed() */\n      revert\n        /* \"contracts/FutarchyBatchExecutorMinimal.sol\":226:1428  contract FutarchyBatchExecutorMinimal {... */\n    tag_39:\n      0x00\n      dup1\n      revert\n    tag_33:\n      mstore(0x00, shl(0xe0, 0x4e487b71))\n      mstore(0x04, 0x32)\n      revert(0x00, 0x24)\n        /* \"contracts/FutarchyBatchExecutorMinimal.sol\":673:710  if (count > 10) revert TooManyCalls() */\n    tag_22:\n        /* \"contracts/FutarchyBatchExecutorMinimal.sol\":696:710  TooManyCalls() */\n      shl(0xe0, 0xf5dedbff)\n        /* \"contracts/FutarchyBatchExecutorMinimal.sol\":226:1428  contract FutarchyBatchExecutorMinimal {... */\n      0x00\n        /* \"contracts/FutarchyBatchExecutorMinimal.sol\":696:710  TooManyCalls() */\n      mstore\n        /* \"contracts/FutarchyBatchExecutorMinimal.sol\":226:1428  contract FutarchyBatchExecutorMinimal {... */\n      0x04\n      0x00\n        /* \"contracts/FutarchyBatchExecutorMinimal.sol\":696:710  TooManyCalls() */\n      revert\n        /* \"contracts/FutarchyBatchExecutorMinimal.sol\":613:663  if (msg.sender != address(this)) revert OnlySelf() */\n    tag_20:\n        /* \"contracts/FutarchyBatchExecutorMinimal.sol\":1224:1234  OnlySelf() */\n      shl(0xe3, 0x029a949d)\n        /* \"contracts/FutarchyBatchExecutorMinimal.sol\":226:1428  contract FutarchyBatchExecutorMinimal {... */\n      0x00\n        /* \"contracts/FutarchyBatchExecutorMinimal.sol\":653:663  OnlySelf() */\n      mstore\n        /* \"contracts/FutarchyBatchExecutorMinimal.sol\":226:1428  contract FutarchyBatchExecutorMinimal {... */\n      0x04\n      0x00\n        /* \"contracts/FutarchyBatchExecutorMinimal.sol\":653:663  OnlySelf() */\n      revert\n        /* \"contracts/FutarchyBatchExecutorMinimal.sol\":226:1428  contract FutarchyBatchExecutorMinimal {... */\n    tag_8:\n      jumpi(tag_39, slt(add(not(0x03), calldatasize), 0x40))\n      calldataload(0x04)\n      swap1\n      sub(shl(0xa0, 0x01), 0x01)\n      dup3\n      and\n      dup3\n      sub\n      tag_39\n      jumpi\n      calldataload(0x24)\n      swap2\n      0xffffffffffffffff\n      dup4\n      gt\n      tag_39\n      jumpi\n      calldatasize\n      0x23\n      dup5\n      add\n      slt\n      iszero\n      tag_39\n      jumpi\n      dup3\n      0x04\n      add\n      calldataload\n      swap2\n      0xffffffffffffffff\n      dup4\n      gt\n      tag_39\n      jumpi\n      calldatasize\n      0x24\n      dup5\n      dup7\n      add\n      add\n      gt\n      tag_39\n      jumpi\n        /* \"contracts/FutarchyBatchExecutorMinimal.sol\":1210:1214  this */\n      address\n        /* \"contracts/FutarchyBatchExecutorMinimal.sol\":1188:1198  msg.sender */\n      caller\n        /* \"contracts/FutarchyBatchExecutorMinimal.sol\":1188:1215  msg.sender != address(this) */\n      sub\n        /* \"contracts/FutarchyBatchExecutorMinimal.sol\":1184:1234  if (msg.sender != address(this)) revert OnlySelf() */\n      tag_20\n      jumpi\n        /* \"contracts/FutarchyBatchExecutorMinimal.sol\":226:1428  contract FutarchyBatchExecutorMinimal {... */\n      dup1\n      dup4\n      0x00\n      swap6\n      swap5\n      0x24\n      dup8\n      swap7\n      add\n      dup4\n      calldatacopy\n      dup2\n      add\n      dup5\n      dup2\n      mstore\n        /* \"contracts/FutarchyBatchExecutorMinimal.sol\":1282:1317  target.call{value: msg.value}(data) */\n      sub\n        /* \"contracts/FutarchyBatchExecutorMinimal.sol\":1301:1310  msg.value */\n      swap2\n      callvalue\n        /* \"contracts/FutarchyBatchExecutorMinimal.sol\":1282:1317  target.call{value: msg.value}(data) */\n      swap1\n      gas\n      call\n      tag_58\n      tag_1\n      jump\t// in\n    tag_58:\n        /* \"contracts/FutarchyBatchExecutorMinimal.sol\":1331:1339  !success */\n      swap1\n      iszero\n        /* \"contracts/FutarchyBatchExecutorMinimal.sol\":1327:1360  if (!success) revert CallFailed() */\n      tag_42\n      jumpi\n        /* \"contracts/FutarchyBatchExecutorMinimal.sol\":226:1428  contract FutarchyBatchExecutorMinimal {... */\n      0x40\n      0x20\n      swap2\n      dup2\n      mload\n      swap3\n      dup4\n      swap2\n      dup2\n      dup4\n      mstore\n      dup1\n      mload\n      swap2\n      dup3\n      swap2\n      dup3\n      dup3\n      dup7\n      add\n      mstore\n      add\n      dup5\n      dup5\n      add\n      mcopy\n      0x00\n      dup3\n      dup3\n      add\n      dup5\n      add\n      mstore\n      0x1f\n      add\n      not(0x1f)\n      and\n      dup2\n      add\n      sub\n      add\n      swap1\n      return\n    tag_1:\n      jumpi(tag_61, iszero(returndatasize))\n      returndatasize\n      swap1\n      0xffffffffffffffff\n      dup3\n      gt\n      tag_65\n      jumpi\n      mload(0x40)\n      swap2\n      0x1f\n      dup2\n      add\n      not(0x1f)\n      swap1\n      dup2\n      and\n      0x3f\n      add\n      and\n      dup4\n      add\n      0xffffffffffffffff\n      dup2\n      gt\n      dup5\n      dup3\n      lt\n      or\n      tag_65\n      jumpi\n      0x40\n      mstore\n      dup3\n      mstore\n      returndatasize\n      0x00\n      0x20\n      dup5\n      add\n      returndatacopy\n      jump\t// out\n    tag_65:\n      mstore(0x00, shl(0xe0, 0x4e487b71))\n      mstore(0x04, 0x41)\n      revert(0x00, 0x24)\n    tag_61:\n      0x60\n      swap1\n      jump\t// out\n    tag_2:\n      0x0a\n      dup2\n      lt\n      iszero\n      tag_33\n      jumpi\n      0x05\n      shl\n      0x04\n      add\n      swap1\n      jump\t// out\n    tag_3:\n      calldataload\n      sub(shl(0xa0, 0x01), 0x01)\n      dup2\n      and\n      dup2\n      sub\n      tag_39\n      jumpi\n      swap1\n      jump\t// out\n\n    auxdata: 0xa2646970667358221220c833e053a522934e2f3bb3fa3aae82406496f17b243cfbbcc0820094b7c7e4b864736f6c63430008210033\n}\n","methodIdentifiers":{"execute10(address[10],bytes[10],uint256)":"f75be35c","executeOne(address,bytes)":"3e16b19c"},"id":5}