{"abi":[{"type":"receive","stateMutability":"payable"},{"type":"function","name":"execute10","inputs":[{"name":"targets","type":"address[10]","internalType":"address[10]"},{"name":"calldatas","type":"bytes[10]","internalType":"bytes[10]"},{"name":"count","type":"uint256","internalType":"uint256"}],"outputs":[],"stateMutability":"payable"},{"type":"function","name":"executeOne","inputs":[{"name":"target","type":"address","internalType":"address"},{"name":"data","type":"bytes","internalType":"bytes"}],"outputs":[{"name":"","type":"bytes","internalType":"bytes"}],"stateMutability":"payable"},{"type":"function","name":"sellConditional","inputs":[{"name":"p","type":"tuple","internalType":"struct FutarchyArbExecutorV3.SellParams","components":[{"name":"sdai","type":"address","internalType":"contract IERC20"},{"name":"gno","type":"address","internalType":"contract IERC20"},{"name":"gnoYes","type":"address","internalType":"contract IERC20"},{"name":"gnoNo","type":"address","internalType":"contract IERC20"},{"name":"sdaiYes","type":"address","internalType":"contract IERC20"},{"name":"sdaiNo","type":"address","internalType":"contract IERC20"},{"name":"futarchyRouter","type":"address","internalType":"contract IFutarchyRouter"},{"name":"proposal","type":"address","internalType":"address"},{"name":"sdaiSwapTarget","type":"address","internalType":"address"},{"name":"sdaiSwapSpender","type":"address","internalType":"address"},{"name":"sdaiSwapCalldata","type":"bytes","internalType":"bytes"},{"name":"sdaiSwapMsgValue","type":"uint256","internalType":"uint256"},{"name":"sdaiAmountInCap","type":"uint256","internalType":"uint256"},{"name":"minGnoOut","type":"uint256","internalType":"uint256"},{"name":"splitGnoAmount","type":"uint256","internalType":"uint256"},{"name":"yesSwapTarget","type":"address","internalType":"address"},{"name":"yesSwapCalldata","type":"bytes","internalType":"bytes"},{"name":"noSwapTarget","type":"address","internalType":"address"},{"name":"noSwapCalldata","type":"bytes","internalType":"bytes"},{"name":"swapSpender","type":"address","internalType":"address"},{"name":"minSdaiYesOut","type":"uint256","internalType":"uint256"},{"name":"minSdaiNoOut","type":"uint256","internalType":"uint256"},{"name":"liqSwapSpender","type":"address","internalType":"address"},{"name":"liqYes","type":"tuple","internalType":"struct FutarchyArbExecutorV3.CalldataPatch","components":[{"name":"target","type":"address","internalType":"address"},{"name":"data","type":"bytes","internalType":"bytes"},{"name":"msgValue","type":"uint256","internalType":"uint256"},{"name":"amountOffset","type":"uint256","internalType":"uint256"},{"name":"minOutOffset","type":"uint256","internalType":"uint256"},{"name":"slippageBps","type":"uint16","internalType":"uint16"}]},{"name":"liqNo","type":"tuple","internalType":"struct FutarchyArbExecutorV3.CalldataPatch","components":[{"name":"target","type":"address","internalType":"address"},{"name":"data","type":"bytes","internalType":"bytes"},{"name":"msgValue","type":"uint256","internalType":"uint256"},{"name":"amountOffset","type":"uint256","internalType":"uint256"},{"name":"minOutOffset","type":"uint256","internalType":"uint256"},{"name":"slippageBps","type":"uint16","internalType":"uint16"}]},{"name":"minNetSdai","type":"int256","internalType":"int256"}]}],"outputs":[],"stateMutability":"nonpayable"},{"type":"event","name":"SellExecuted","inputs":[{"name":"sdaiSpent","type":"uint256","indexed":false,"internalType":"uint256"},{"name":"gnoBought","type":"uint256","indexed":false,"internalType":"uint256"},{"name":"gnoSplit","type":"uint256","indexed":false,"internalType":"uint256"},{"name":"sdaiYesOut","type":"uint256","indexed":false,"internalType":"uint256"},{"name":"sdaiNoOut","type":"uint256","indexed":false,"internalType":"uint256"},{"name":"merged","type":"uint256","indexed":false,"internalType":"uint256"},{"name":"liqYesIn","type":"uint256","indexed":false,"internalType":"uint256"},{"name":"liqNoIn","type":"uint256","indexed":false,"internalType":"uint256"},{"name":"liqYesOut","type":"uint256","indexed":false,"internalType":"uint256"},{"name":"liqNoOut","type":"uint256","indexed":false,"internalType":"uint256"},{"name":"netSdai","type":"int256","indexed":false,"internalType":"int256"}],"anonymous":false},{"type":"error","name":"AmountOffsetOOB","inputs":[]},{"type":"error","name":"BadSplitAmount","inputs":[]},{"type":"error","name":"BalanceTooLarge","inputs":[]},{"type":"error","name":"CallFailed","inputs":[]},{"type":"error","name":"LowGnoOut","inputs":[]},{"type":"error","name":"LowNoSdai","inputs":[]},{"type":"error","name":"LowYesSdai","inputs":[]},{"type":"error","name":"MinOutOffsetOOB","inputs":[]},{"type":"error","name":"NetSdaiBelowTolerance","inputs":[]},{"type":"error","name":"NothingToMerge","inputs":[]},{"type":"error","name":"OnlySelf","inputs":[]},{"type":"error","name":"SdaiOverspend","inputs":[]},{"type":"error","name":"TooManyCalls","inputs":[]},{"type":"error","name":"UnderMint","inputs":[]}],"bytecode":{"object":"0x608080604052346015576112ec908161001a8239f35b5f80fdfe6080604052600436101561001a575b3615610018575f80fd5b005b5f3560e01c80633e16b19c14610049578063de96eb3d146100445763f75be35c0361000e57610d4c565b6100fe565b60403660031901126100bf57600435610061816100c3565b60243567ffffffffffffffff81116100bf57366023820112156100bf57806004013567ffffffffffffffff81116100bf5736602482840101116100bf576100bb9260246100af930190610eaa565b604051918291826100d4565b0390f35b5f80fd5b6001600160a01b038116036100bf57565b602060409281835280519182918282860152018484015e5f828201840152601f01601f1916010190565b346100bf5760203660031901126100bf5760043567ffffffffffffffff81116100bf57806004019061034060031982360301126100bf57303303610d215761015461014883610edb565b6001600160a01b031690565b6040516370a0823160e01b815230600482015290602090829060249082905afa908115610871575f91610d02575b5061012482016001600160a01b0361019982610edb565b16151580610cf4575b610cd2575b50602482016101b861014882610edb565b6040516370a0823160e01b81523060048201529390602090859060249082905afa938415610871575f94610cb1575b506101f461014886610edb565b6040516370a0823160e01b81523060048201529490602090869060249082905afa948515610871575f95610c90575b5061025b6102556102376101048501610edb565b61024561014486018a610f02565b9290610164870135933691610f35565b906111c4565b61026761014884610edb565b6040516370a0823160e01b81523060048201529190602090839060249082905afa80156108715761029f925f916109b1575b50610f7f565b936102ac61014887610edb565b6040516370a0823160e01b81523060048201529190602090839060249082905afa908115610871576102e4925f92610c6f5750610f7f565b926101848201358411610c60576101a48201358510610c51576101c48201359283158015610c48575b610c395761031a81610edb565b966103368560c48601996103306101488c610edb565b90611053565b6044840161034661014882610edb565b6040516370a0823160e01b81523060048201529190602090839060249082905afa918215610871575f92610c18575b50606486019161038761014884610edb565b6040516370a0823160e01b81523060048201529190602090839060249082905afa918215610871575f92610bf7575b506103c36101488d610edb565b60e48901966103da6103d489610edb565b91610edb565b90823b156100bf576040516301abf04560e71b81526001600160a01b03918216600482015291166024820152604481018b9052905f908290606490829084905af1801561087157610be3575b5061043361014884610edb565b6040516370a0823160e01b81523060048201529190602090839060249082905afa80156108715761046a925f916109b15750610f7f565b9061047761014885610edb565b6040516370a0823160e01b815230600482015290602090829060249082905afa908115610871578a9283926104b2925f916109b15750610f7f565b9210918215610bd9575b5050610bca576104ef916103306103d46104d68a94610edb565b926104ea856102648c019561033087610edb565b610edb565b608484019261050061014885610edb565b6040516370a0823160e01b815230600482015290602090829060249082905afa908115610871575f91610bab575b5061055d61053f6101e48801610edb565b6105576105506102048a0187610f02565b3691610f35565b906111a5565b61056961014886610edb565b6040516370a0823160e01b81523060048201529190602090839060249082905afa8015610871576105a0925f916109b15750610f7f565b986102848601358a10610b9c5760a48601936105be61014886610edb565b6040516370a0823160e01b815230600482015290602090829060249082905afa908115610871575f91610b7d575b5061060e6105fd6102248a01610edb565b6105576105506102448c0189610f02565b61061a61014887610edb565b6040516370a0823160e01b81523060048201529190602090839060249082905afa801561087157610651925f916109b15750610f7f565b906102a48801358210610b6e57818c1015610b67578b925b8315610b58576103d461014861069f92610692876106868d610edb565b61033061014885610edb565b6104ea876106868c610edb565b6106a886610edb565b90823b156100bf57604051637abef8d160e01b81526001600160a01b0391821660048201529116602482015260448101849052905f908290606490829084905af1801561087157610b3e575b506106ff828c610f7f565b9261070a8383610f7f565b945f965f988a8715159081610b20575b50610a2c575b5086151580610a10575b610876575b5061014861073c91610edb565b6040516370a0823160e01b815230600482015290602090829060249082905afa908115610871575f91610842575b506001600160ff1b0381118015610832575b610823576103249161078d91610fbf565b9701358712610814577fca4202436e8d09dae0f884d1f04d2b4a4b2e34472419c7d71435f525d1e2d6819a61080f986040519b8c9b8c979491926101409996939c9b9a9794919c6101608a019d8a5260208a015260408901526060880152608087015260a086015260c085015260e08401526101008301526101208201520152565b0390a1005b6354997fa960e01b5f5260045ffd5b630748aac760e11b5f5260045ffd5b506001600160ff1b03821161077c565b610864915060203d60201161086a575b61085c8183610e38565b810190610ee8565b5f61076a565b503d610852565b610ef7565b6108939198506108868791610edb565b6103306102c48c01610edb565b61089f61014888610edb565b6040516370a0823160e01b815230600482015290602090829060249082905afa90811561087157868a8a925f946109d0575b5091604061095661094f6104ea6109499561030461095e9801968791876109056108fb8583610f9b565b6020810190610f02565b929061094460606109168886610f9b565b01359161093c60a06109368a608061092e828b610f9b565b013598610f9b565b01610fb0565b953691610f35565b611210565b95610f9b565b938d610f9b565b0135916111c4565b61096a61014889610edb565b6040516370a0823160e01b815230600482015290602090829060249082905afa9081156108715761073c92610148926109a9925f916109b15750610f7f565b98915061072f565b6109ca915060203d60201161086a5761085c8183610e38565b5f610299565b61095e9391945061095661094f6104ea61094995610304610a0160409660203d60201161086a5761085c8183610e38565b999698505095505050506108d1565b50610a256101486104ea6103048d0185610f9b565b151561072a565b610a49919850610a3c8791610edb565b6103306102c48d01610edb565b610a5561014882610edb565b6040516370a0823160e01b815230600482015290602090829060249082905afa908115610871575f91610b01575b50610ab76102e48b01610a9e88856109056108fb8583610f9b565b6040610956610ab06104ea8589610f9b565b9387610f9b565b610ac361014883610edb565b6040516370a0823160e01b81523060048201529190602090839060249082905afa801561087157610afa925f916109b15750610f7f565b965f610720565b610b1a915060203d60201161086a5761085c8183610e38565b5f610a83565b610b3691506104ea6102e4610148920186610f9b565b15158b61071a565b80610b4c5f610b5293610e38565b80610f91565b5f6106f4565b6316a0341160e11b5f5260045ffd5b8192610669565b634f68e48560e11b5f5260045ffd5b610b96915060203d60201161086a5761085c8183610e38565b5f6105ec565b63e5afec1960e01b5f5260045ffd5b610bc4915060203d60201161086a5761085c8183610e38565b5f61052e565b63e57c748d60e01b5f5260045ffd5b109050875f6104bc565b80610b4c5f610bf193610e38565b5f610426565b610c1191925060203d60201161086a5761085c8183610e38565b905f6103b6565b610c3291925060203d60201161086a5761085c8183610e38565b905f610375565b632f6703c560e21b5f5260045ffd5b5085841161030d565b6370462eef60e01b5f5260045ffd5b63323b6e8960e21b5f5260045ffd5b610c8991925060203d60201161086a5761085c8183610e38565b905f610299565b610caa91955060203d60201161086a5761085c8183610e38565b935f610223565b610ccb91945060203d60201161086a5761085c8183610e38565b925f6101e7565b610cee90610ce26103d486610edb565b61018485013591611053565b5f6101a7565b5061018483013515156101a2565b610d1b915060203d60201161086a5761085c8183610e38565b5f610182565b63029a949d60e31b5f5260045ffd5b90600491610144116100bf57565b91906101408301116100bf57565b6101803660031901126100bf57610d6236610d30565b6101443567ffffffffffffffff81116100bf57610d83903690600401610d3e565b6101643591303303610d2157600a8311610e08575f5b838110610da257005b610daf6104ea8284610feb565b6001600160a01b03811615610dff575f809181610dcc8588611001565b9190610ddd60405180948193610e17565b03925af1610de9610e7b565b9015610dfa57506001905b01610d99565b61101d565b50600190610df4565b63f5dedbff60e01b5f5260045ffd5b908092918237015f815290565b634e487b7160e01b5f52604160045260245ffd5b90601f8019910116810190811067ffffffffffffffff821117610e5a57604052565b610e24565b67ffffffffffffffff8111610e5a57601f01601f191660200190565b3d15610ea5573d90610e8c82610e5f565b91610e9a6040519384610e38565b82523d5f602084013e565b606090565b303303610d2157825f9392849360405192839283378101848152039134905af1610ed2610e7b565b9015610dfa5790565b35610ee5816100c3565b90565b908160209103126100bf575190565b6040513d5f823e3d90fd5b903590601e19813603018212156100bf570180359067ffffffffffffffff82116100bf576020019181360383136100bf57565b929192610f4182610e5f565b91610f4f6040519384610e38565b8294818452818301116100bf578281602093845f960137010152565b634e487b7160e01b5f52601160045260245ffd5b91908203918211610f8c57565b610f6b565b5f9103126100bf57565b90359060be19813603018212156100bf570190565b3561ffff811681036100bf5790565b81810392915f138015828513169184121617610f8c57565b634e487b7160e01b5f52603260045260245ffd5b90600a811015610ffc5760051b0190565b610fd7565b600a821015610ffc576110199160051b810190610f02565b9091565b80511561102c57602081519101fd5b633204506f60e01b5f5260045ffd5b908160209103126100bf575180151581036100bf5790565b91909181156111a057604051636eb1769f60e11b81523060048201526001600160a01b038481166024830152919091169190602081604481865afa908115610871575f91611181575b50106110a6575050565b60405163095ea7b360e01b81526001600160a01b03831660048201525f6024820152602081806044810103815f865af1908115610871575f91611162575b501561102c5760405163095ea7b360e01b81526001600160a01b039290921660048301525f196024830152602090829060449082905f905af1908115610871575f91611133575b501561102c57565b611155915060203d60201161115b575b61114d8183610e38565b81019061103b565b5f61112b565b503d611143565b61117b915060203d60201161115b5761114d8183610e38565b5f6110e4565b61119a915060203d60201161086a5761085c8183610e38565b5f61109c565b505050565b5f91829182602083519301915af16111bb610e7b565b9015610dfa5750565b905f92918392602083519301915af16111bb610e7b565b9060208201809211610f8c57565b61ffff16612710039061ffff8211610f8c57565b81810292918115918404141715610f8c57565b91909493829583516020820190818311610f8c57106112a757830160200182905260018401611240575b50505050565b61ffff81166112795750915b8151611257826111db565b1161126a5701602001525f80808061123a565b630f56d5d160e21b5f5260045ffd5b6112a19161129361128c611299936111e9565b61ffff1690565b906111fd565b612710900490565b9161124c565b63f3e07dc360e01b5f5260045ffdfea2646970667358221220fea0efbe9d7b7c818f391aa1f5760404e0520232f8c80d66495e8cf4872de22064736f6c63430008210033","linkReferences":{}},"assembly":"    /* \"contracts/FutarchyArbExecutorV3.sol\":748:11669  contract FutarchyArbExecutorV3 {... */\n  0x80\n  dup1\n  0x40\n  mstore\n  jumpi(tag_1, callvalue)\n  dataSize(sub_0)\n  swap1\n  dup2\n  dataOffset(sub_0)\n  dup3\n  codecopy\n  return\ntag_1:\n  0x00\n  dup1\n  revert\nstop\n\nsub_0: assembly {\n        /* \"contracts/FutarchyArbExecutorV3.sol\":748:11669  contract FutarchyArbExecutorV3 {... */\n      mstore(0x40, 0x80)\n      jumpi(tag_45, iszero(lt(calldatasize, 0x04)))\n    tag_46:\n      jumpi(tag_47, iszero(calldatasize))\n      0x00\n      dup1\n      revert\n    tag_47:\n      stop\n    tag_45:\n      shr(0xe0, calldataload(0x00))\n      dup1\n      0x3e16b19c\n      eq\n      tag_49\n      jumpi\n      dup1\n      0xde96eb3d\n      eq\n      tag_51\n      jumpi\n      0xf75be35c\n      sub\n      tag_46\n      jumpi\n      tag_7\n      jump\t// in\n    tag_51:\n      tag_4\n      jump\t// in\n    tag_49:\n      jumpi(tag_64, slt(add(not(0x03), calldatasize), 0x40))\n      calldataload(0x04)\n      tag_57\n      dup2\n      tag_2\n      jump\t// in\n    tag_57:\n      calldataload(0x24)\n      0xffffffffffffffff\n      dup2\n      gt\n      tag_64\n      jumpi\n      calldatasize\n      0x23\n      dup3\n      add\n      slt\n      iszero\n      tag_64\n      jumpi\n      dup1\n      0x04\n      add\n      calldataload\n      0xffffffffffffffff\n      dup2\n      gt\n      tag_64\n      jumpi\n      calldatasize\n      0x24\n      dup3\n      dup5\n      add\n      add\n      gt\n      tag_64\n      jumpi\n      tag_66\n      swap3\n      0x24\n      tag_67\n      swap4\n      add\n      swap1\n      tag_13\n      jump\t// in\n    tag_67:\n      mload(0x40)\n      swap2\n      dup3\n      swap2\n      dup3\n      tag_3\n      jump\t// in\n    tag_66:\n      sub\n      swap1\n      return\n    tag_64:\n      0x00\n      dup1\n      revert\n    tag_2:\n      sub(shl(0xa0, 0x01), 0x01)\n      dup2\n      and\n      sub\n      tag_64\n      jumpi\n      jump\t// out\n    tag_3:\n      0x20\n      0x40\n      swap3\n      dup2\n      dup4\n      mstore\n      dup1\n      mload\n      swap2\n      dup3\n      swap2\n      dup3\n      dup3\n      dup7\n      add\n      mstore\n      add\n      dup5\n      dup5\n      add\n      mcopy\n      0x00\n      dup3\n      dup3\n      add\n      dup5\n      add\n      mstore\n      0x1f\n      add\n      not(0x1f)\n      and\n      add\n      add\n      swap1\n      jump\t// out\n    tag_4:\n      jumpi(tag_64, callvalue)\n      jumpi(tag_64, slt(add(not(0x03), calldatasize), 0x20))\n      calldataload(0x04)\n      0xffffffffffffffff\n      dup2\n      gt\n      tag_64\n      jumpi\n      dup1\n      0x04\n      add\n      swap1\n      0x0340\n      not(0x03)\n      dup3\n      calldatasize\n      sub\n      add\n      slt\n      tag_64\n      jumpi\n        /* \"contracts/FutarchyArbExecutorV3.sol\":5287:5291  this */\n      address\n        /* \"contracts/FutarchyArbExecutorV3.sol\":5265:5275  msg.sender */\n      caller\n        /* \"contracts/FutarchyArbExecutorV3.sol\":5265:5292  msg.sender != address(this) */\n      sub\n        /* \"contracts/FutarchyArbExecutorV3.sol\":5261:5311  if (msg.sender != address(this)) revert OnlySelf() */\n      tag_78\n      jumpi\n        /* \"contracts/FutarchyArbExecutorV3.sol\":5421:5437  p.sdai.balanceOf */\n      tag_80\n        /* \"contracts/FutarchyArbExecutorV3.sol\":5421:5427  p.sdai */\n      tag_81\n      dup4\n      tag_14\n      jump\t// in\n    tag_81:\n      sub(shl(0xa0, 0x01), 0x01)\n        /* \"contracts/FutarchyArbExecutorV3.sol\":748:11669  contract FutarchyArbExecutorV3 {... */\n      and\n      swap1\n      jump\n        /* \"contracts/FutarchyArbExecutorV3.sol\":5421:5437  p.sdai.balanceOf */\n    tag_80:\n        /* \"contracts/FutarchyArbExecutorV3.sol\":748:11669  contract FutarchyArbExecutorV3 {... */\n      mload(0x40)\n      shl(0xe0, 0x70a08231)\n        /* \"contracts/FutarchyArbExecutorV3.sol\":5421:5452  p.sdai.balanceOf(address(this)) */\n      dup2\n      mstore\n        /* \"contracts/FutarchyArbExecutorV3.sol\":5287:5291  this */\n      address\n        /* \"contracts/FutarchyArbExecutorV3.sol\":748:11669  contract FutarchyArbExecutorV3 {... */\n      0x04\n        /* \"contracts/FutarchyArbExecutorV3.sol\":5421:5452  p.sdai.balanceOf(address(this)) */\n      dup3\n      add\n        /* \"contracts/FutarchyArbExecutorV3.sol\":748:11669  contract FutarchyArbExecutorV3 {... */\n      mstore\n      swap1\n      0x20\n      swap1\n      dup3\n      swap1\n      0x24\n      swap1\n      dup3\n      swap1\n        /* \"contracts/FutarchyArbExecutorV3.sol\":5421:5452  p.sdai.balanceOf(address(this)) */\n      gas\n      staticcall\n      swap1\n      dup2\n      iszero\n      tag_268\n      jumpi\n      0x00\n      swap2\n      tag_85\n      jumpi\n        /* \"contracts/FutarchyArbExecutorV3.sol\":748:11669  contract FutarchyArbExecutorV3 {... */\n    tag_86:\n      pop\n        /* \"contracts/FutarchyArbExecutorV3.sol\":5522:5539  p.sdaiSwapSpender */\n      0x0124\n      dup3\n      add\n      sub(shl(0xa0, 0x01), 0x01)\n      tag_87\n      dup3\n      tag_14\n      jump\t// in\n    tag_87:\n        /* \"contracts/FutarchyArbExecutorV3.sol\":748:11669  contract FutarchyArbExecutorV3 {... */\n      and\n        /* \"contracts/FutarchyArbExecutorV3.sol\":5522:5553  p.sdaiSwapSpender != address(0) */\n      iszero\n      iszero\n        /* \"contracts/FutarchyArbExecutorV3.sol\":5522:5578  p.sdaiSwapSpender != address(0) && p.sdaiAmountInCap > 0 */\n      dup1\n      tag_88\n      jumpi\n        /* \"contracts/FutarchyArbExecutorV3.sol\":748:11669  contract FutarchyArbExecutorV3 {... */\n    tag_89:\n        /* \"contracts/FutarchyArbExecutorV3.sol\":5518:5667  if (p.sdaiSwapSpender != address(0) && p.sdaiAmountInCap > 0) {... */\n      tag_90\n      jumpi\n        /* \"contracts/FutarchyArbExecutorV3.sol\":748:11669  contract FutarchyArbExecutorV3 {... */\n    tag_91:\n        /* \"contracts/FutarchyArbExecutorV3.sol\":5697:5702  p.gno */\n      pop\n      0x24\n      dup3\n      add\n        /* \"contracts/FutarchyArbExecutorV3.sol\":5697:5712  p.gno.balanceOf */\n      tag_92\n        /* \"contracts/FutarchyArbExecutorV3.sol\":5697:5702  p.gno */\n      tag_81\n      dup3\n      tag_14\n      jump\t// in\n        /* \"contracts/FutarchyArbExecutorV3.sol\":5697:5712  p.gno.balanceOf */\n    tag_92:\n        /* \"contracts/FutarchyArbExecutorV3.sol\":748:11669  contract FutarchyArbExecutorV3 {... */\n      mload(0x40)\n      shl(0xe0, 0x70a08231)\n        /* \"contracts/FutarchyArbExecutorV3.sol\":5697:5727  p.gno.balanceOf(address(this)) */\n      dup2\n      mstore\n        /* \"contracts/FutarchyArbExecutorV3.sol\":5287:5291  this */\n      address\n        /* \"contracts/FutarchyArbExecutorV3.sol\":748:11669  contract FutarchyArbExecutorV3 {... */\n      0x04\n        /* \"contracts/FutarchyArbExecutorV3.sol\":5697:5727  p.gno.balanceOf(address(this)) */\n      dup3\n      add\n        /* \"contracts/FutarchyArbExecutorV3.sol\":748:11669  contract FutarchyArbExecutorV3 {... */\n      mstore\n      swap4\n      swap1\n      0x20\n      swap1\n      dup6\n      swap1\n      0x24\n      swap1\n      dup3\n      swap1\n        /* \"contracts/FutarchyArbExecutorV3.sol\":5697:5727  p.gno.balanceOf(address(this)) */\n      gas\n      staticcall\n      swap4\n      dup5\n      iszero\n      tag_268\n      jumpi\n      0x00\n      swap5\n      tag_97\n      jumpi\n        /* \"contracts/FutarchyArbExecutorV3.sol\":748:11669  contract FutarchyArbExecutorV3 {... */\n    tag_98:\n        /* \"contracts/FutarchyArbExecutorV3.sol\":5758:5764  p.sdai */\n      pop\n        /* \"contracts/FutarchyArbExecutorV3.sol\":5758:5774  p.sdai.balanceOf */\n      tag_99\n        /* \"contracts/FutarchyArbExecutorV3.sol\":5758:5764  p.sdai */\n      tag_81\n      dup7\n      tag_14\n      jump\t// in\n        /* \"contracts/FutarchyArbExecutorV3.sol\":5758:5774  p.sdai.balanceOf */\n    tag_99:\n        /* \"contracts/FutarchyArbExecutorV3.sol\":748:11669  contract FutarchyArbExecutorV3 {... */\n      mload(0x40)\n      shl(0xe0, 0x70a08231)\n        /* \"contracts/FutarchyArbExecutorV3.sol\":5758:5789  p.sdai.balanceOf(address(this)) */\n      dup2\n      mstore\n        /* \"contracts/FutarchyArbExecutorV3.sol\":5287:5291  this */\n      address\n        /* \"contracts/FutarchyArbExecutorV3.sol\":748:11669  contract FutarchyArbExecutorV3 {... */\n      0x04\n        /* \"contracts/FutarchyArbExecutorV3.sol\":5758:5789  p.sdai.balanceOf(address(this)) */\n      dup3\n      add\n        /* \"contracts/FutarchyArbExecutorV3.sol\":748:11669  contract FutarchyArbExecutorV3 {... */\n      mstore\n      swap5\n      swap1\n      0x20\n      swap1\n      dup7\n      swap1\n      0x24\n      swap1\n      dup3\n      swap1\n        /* \"contracts/FutarchyArbExecutorV3.sol\":5758:5789  p.sdai.balanceOf(address(this)) */\n      gas\n      staticcall\n      swap5\n      dup6\n      iszero\n      tag_268\n      jumpi\n      0x00\n      swap6\n      tag_104\n      jumpi\n        /* \"contracts/FutarchyArbExecutorV3.sol\":748:11669  contract FutarchyArbExecutorV3 {... */\n    tag_105:\n        /* \"contracts/FutarchyArbExecutorV3.sol\":5810:5826  p.sdaiSwapTarget */\n      pop\n        /* \"contracts/FutarchyArbExecutorV3.sol\":5800:5867  _safeCall(p.sdaiSwapTarget, p.sdaiSwapCalldata, p.sdaiSwapMsgValue) */\n      tag_106\n        /* \"contracts/FutarchyArbExecutorV3.sol\":748:11669  contract FutarchyArbExecutorV3 {... */\n      tag_107\n        /* \"contracts/FutarchyArbExecutorV3.sol\":5810:5826  p.sdaiSwapTarget */\n      tag_108\n      0x0104\n      dup6\n      add\n      tag_14\n      jump\t// in\n    tag_108:\n        /* \"contracts/FutarchyArbExecutorV3.sol\":5828:5846  p.sdaiSwapCalldata */\n      tag_109\n      0x0144\n      dup7\n      add\n      dup11\n      tag_18\n      jump\t// in\n    tag_109:\n        /* \"contracts/FutarchyArbExecutorV3.sol\":5848:5866  p.sdaiSwapMsgValue */\n      swap3\n      swap1\n      0x0164\n      dup8\n      add\n        /* \"contracts/FutarchyArbExecutorV3.sol\":748:11669  contract FutarchyArbExecutorV3 {... */\n      calldataload\n      swap4\n      calldatasize\n      swap2\n      tag_19\n      jump\t// in\n    tag_107:\n        /* \"contracts/FutarchyArbExecutorV3.sol\":5800:5867  _safeCall(p.sdaiSwapTarget, p.sdaiSwapCalldata, p.sdaiSwapMsgValue) */\n      swap1\n      tag_38\n      jump\t// in\n    tag_106:\n        /* \"contracts/FutarchyArbExecutorV3.sol\":5898:5913  p.gno.balanceOf */\n      tag_110\n        /* \"contracts/FutarchyArbExecutorV3.sol\":5898:5903  p.gno */\n      tag_81\n      dup5\n      tag_14\n      jump\t// in\n        /* \"contracts/FutarchyArbExecutorV3.sol\":5898:5913  p.gno.balanceOf */\n    tag_110:\n        /* \"contracts/FutarchyArbExecutorV3.sol\":748:11669  contract FutarchyArbExecutorV3 {... */\n      mload(0x40)\n      shl(0xe0, 0x70a08231)\n        /* \"contracts/FutarchyArbExecutorV3.sol\":5898:5928  p.gno.balanceOf(address(this)) */\n      dup2\n      mstore\n        /* \"contracts/FutarchyArbExecutorV3.sol\":5287:5291  this */\n      address\n        /* \"contracts/FutarchyArbExecutorV3.sol\":748:11669  contract FutarchyArbExecutorV3 {... */\n      0x04\n        /* \"contracts/FutarchyArbExecutorV3.sol\":5898:5928  p.gno.balanceOf(address(this)) */\n      dup3\n      add\n        /* \"contracts/FutarchyArbExecutorV3.sol\":748:11669  contract FutarchyArbExecutorV3 {... */\n      mstore\n      swap2\n      swap1\n      0x20\n      swap1\n      dup4\n      swap1\n      0x24\n      swap1\n      dup3\n      swap1\n        /* \"contracts/FutarchyArbExecutorV3.sol\":5898:5928  p.gno.balanceOf(address(this)) */\n      gas\n      staticcall\n      dup1\n      iszero\n      tag_268\n      jumpi\n        /* \"contracts/FutarchyArbExecutorV3.sol\":5898:5940  p.gno.balanceOf(address(this)) - gnoBefore */\n      tag_115\n        /* \"contracts/FutarchyArbExecutorV3.sol\":5898:5928  p.gno.balanceOf(address(this)) */\n      swap3\n      0x00\n      swap2\n      tag_312\n      jumpi\n        /* \"contracts/FutarchyArbExecutorV3.sol\":748:11669  contract FutarchyArbExecutorV3 {... */\n    tag_117:\n        /* \"contracts/FutarchyArbExecutorV3.sol\":5898:5940  p.gno.balanceOf(address(this)) - gnoBefore */\n      pop\n      tag_21\n      jump\t// in\n    tag_115:\n        /* \"contracts/FutarchyArbExecutorV3.sol\":5983:5989  p.sdai */\n      swap4\n        /* \"contracts/FutarchyArbExecutorV3.sol\":5983:5999  p.sdai.balanceOf */\n      tag_118\n        /* \"contracts/FutarchyArbExecutorV3.sol\":5983:5989  p.sdai */\n      tag_81\n      dup8\n      tag_14\n      jump\t// in\n        /* \"contracts/FutarchyArbExecutorV3.sol\":5983:5999  p.sdai.balanceOf */\n    tag_118:\n        /* \"contracts/FutarchyArbExecutorV3.sol\":748:11669  contract FutarchyArbExecutorV3 {... */\n      mload(0x40)\n      shl(0xe0, 0x70a08231)\n        /* \"contracts/FutarchyArbExecutorV3.sol\":5983:6014  p.sdai.balanceOf(address(this)) */\n      dup2\n      mstore\n        /* \"contracts/FutarchyArbExecutorV3.sol\":5287:5291  this */\n      address\n        /* \"contracts/FutarchyArbExecutorV3.sol\":748:11669  contract FutarchyArbExecutorV3 {... */\n      0x04\n        /* \"contracts/FutarchyArbExecutorV3.sol\":5983:6014  p.sdai.balanceOf(address(this)) */\n      dup3\n      add\n        /* \"contracts/FutarchyArbExecutorV3.sol\":748:11669  contract FutarchyArbExecutorV3 {... */\n      mstore\n      swap2\n      swap1\n      0x20\n      swap1\n      dup4\n      swap1\n      0x24\n      swap1\n      dup3\n      swap1\n        /* \"contracts/FutarchyArbExecutorV3.sol\":5983:6014  p.sdai.balanceOf(address(this)) */\n      gas\n      staticcall\n      swap1\n      dup2\n      iszero\n      tag_268\n      jumpi\n        /* \"contracts/FutarchyArbExecutorV3.sol\":5970:6014  sdaiBefore - p.sdai.balanceOf(address(this)) */\n      tag_123\n        /* \"contracts/FutarchyArbExecutorV3.sol\":5983:6014  p.sdai.balanceOf(address(this)) */\n      swap3\n      0x00\n      swap3\n      tag_124\n      jumpi\n        /* \"contracts/FutarchyArbExecutorV3.sol\":5970:6014  sdaiBefore - p.sdai.balanceOf(address(this)) */\n      pop\n      tag_21\n      jump\t// in\n    tag_123:\n        /* \"contracts/FutarchyArbExecutorV3.sol\":6041:6058  p.sdaiAmountInCap */\n      swap3\n      0x0184\n      dup3\n      add\n        /* \"contracts/FutarchyArbExecutorV3.sol\":748:11669  contract FutarchyArbExecutorV3 {... */\n      calldataload\n        /* \"contracts/FutarchyArbExecutorV3.sol\":6029:6058  sdaiSpent > p.sdaiAmountInCap */\n      dup5\n      gt\n        /* \"contracts/FutarchyArbExecutorV3.sol\":6025:6082  if (sdaiSpent > p.sdaiAmountInCap) revert SdaiOverspend() */\n      tag_126\n      jumpi\n        /* \"contracts/FutarchyArbExecutorV3.sol\":6108:6119  p.minGnoOut */\n      0x01a4\n      dup3\n      add\n        /* \"contracts/FutarchyArbExecutorV3.sol\":748:11669  contract FutarchyArbExecutorV3 {... */\n      calldataload\n        /* \"contracts/FutarchyArbExecutorV3.sol\":6096:6119  gnoBought < p.minGnoOut */\n      dup6\n      lt\n        /* \"contracts/FutarchyArbExecutorV3.sol\":6092:6139  if (gnoBought < p.minGnoOut) revert LowGnoOut() */\n      tag_128\n      jumpi\n        /* \"contracts/FutarchyArbExecutorV3.sol\":6219:6235  p.splitGnoAmount */\n      0x01c4\n      dup3\n      add\n        /* \"contracts/FutarchyArbExecutorV3.sol\":748:11669  contract FutarchyArbExecutorV3 {... */\n      calldataload\n        /* \"contracts/FutarchyArbExecutorV3.sol\":6219:6240  p.splitGnoAmount == 0 */\n      swap3\n      dup4\n      iszero\n        /* \"contracts/FutarchyArbExecutorV3.sol\":6219:6272  p.splitGnoAmount == 0 || p.splitGnoAmount > gnoBought */\n      dup1\n      iszero\n      tag_130\n      jumpi\n        /* \"contracts/FutarchyArbExecutorV3.sol\":748:11669  contract FutarchyArbExecutorV3 {... */\n    tag_131:\n        /* \"contracts/FutarchyArbExecutorV3.sol\":6215:6297  if (p.splitGnoAmount == 0 || p.splitGnoAmount > gnoBought) revert BadSplitAmount() */\n      tag_132\n      jumpi\n        /* \"contracts/FutarchyArbExecutorV3.sol\":6324:6329  p.gno */\n      tag_134\n      dup2\n      tag_14\n      jump\t// in\n    tag_134:\n        /* \"contracts/FutarchyArbExecutorV3.sol\":6339:6355  p.futarchyRouter */\n      swap7\n        /* \"contracts/FutarchyArbExecutorV3.sol\":6358:6374  p.splitGnoAmount */\n      tag_135\n        /* \"contracts/FutarchyArbExecutorV3.sol\":6339:6355  p.futarchyRouter */\n      dup6\n      0xc4\n      dup7\n      add\n      swap10\n        /* \"contracts/FutarchyArbExecutorV3.sol\":6331:6356  address(p.futarchyRouter) */\n      tag_136\n        /* \"contracts/FutarchyArbExecutorV3.sol\":6339:6355  p.futarchyRouter */\n      tag_81\n      dup13\n      tag_14\n      jump\t// in\n        /* \"contracts/FutarchyArbExecutorV3.sol\":6331:6356  address(p.futarchyRouter) */\n    tag_136:\n        /* \"contracts/FutarchyArbExecutorV3.sol\":6358:6374  p.splitGnoAmount */\n      swap1\n      tag_36\n      jump\t// in\n    tag_135:\n        /* \"contracts/FutarchyArbExecutorV3.sol\":6409:6417  p.gnoYes */\n      0x44\n      dup5\n      add\n        /* \"contracts/FutarchyArbExecutorV3.sol\":6409:6427  p.gnoYes.balanceOf */\n      tag_138\n        /* \"contracts/FutarchyArbExecutorV3.sol\":6409:6417  p.gnoYes */\n      tag_81\n      dup3\n      tag_14\n      jump\t// in\n        /* \"contracts/FutarchyArbExecutorV3.sol\":6409:6427  p.gnoYes.balanceOf */\n    tag_138:\n        /* \"contracts/FutarchyArbExecutorV3.sol\":748:11669  contract FutarchyArbExecutorV3 {... */\n      mload(0x40)\n      shl(0xe0, 0x70a08231)\n        /* \"contracts/FutarchyArbExecutorV3.sol\":6409:6442  p.gnoYes.balanceOf(address(this)) */\n      dup2\n      mstore\n        /* \"contracts/FutarchyArbExecutorV3.sol\":5287:5291  this */\n      address\n        /* \"contracts/FutarchyArbExecutorV3.sol\":748:11669  contract FutarchyArbExecutorV3 {... */\n      0x04\n        /* \"contracts/FutarchyArbExecutorV3.sol\":6409:6442  p.gnoYes.balanceOf(address(this)) */\n      dup3\n      add\n        /* \"contracts/FutarchyArbExecutorV3.sol\":748:11669  contract FutarchyArbExecutorV3 {... */\n      mstore\n      swap2\n      swap1\n      0x20\n      swap1\n      dup4\n      swap1\n      0x24\n      swap1\n      dup3\n      swap1\n        /* \"contracts/FutarchyArbExecutorV3.sol\":6409:6442  p.gnoYes.balanceOf(address(this)) */\n      gas\n      staticcall\n      swap2\n      dup3\n      iszero\n      tag_268\n      jumpi\n      0x00\n      swap3\n      tag_143\n      jumpi\n        /* \"contracts/FutarchyArbExecutorV3.sol\":748:11669  contract FutarchyArbExecutorV3 {... */\n    tag_144:\n        /* \"contracts/FutarchyArbExecutorV3.sol\":6474:6481  p.gnoNo */\n      pop\n      0x64\n      dup7\n      add\n      swap2\n        /* \"contracts/FutarchyArbExecutorV3.sol\":6474:6491  p.gnoNo.balanceOf */\n      tag_145\n        /* \"contracts/FutarchyArbExecutorV3.sol\":6474:6481  p.gnoNo */\n      tag_81\n      dup5\n      tag_14\n      jump\t// in\n        /* \"contracts/FutarchyArbExecutorV3.sol\":6474:6491  p.gnoNo.balanceOf */\n    tag_145:\n        /* \"contracts/FutarchyArbExecutorV3.sol\":748:11669  contract FutarchyArbExecutorV3 {... */\n      mload(0x40)\n      shl(0xe0, 0x70a08231)\n        /* \"contracts/FutarchyArbExecutorV3.sol\":6474:6506  p.gnoNo.balanceOf(address(this)) */\n      dup2\n      mstore\n        /* \"contracts/FutarchyArbExecutorV3.sol\":5287:5291  this */\n      address\n        /* \"contracts/FutarchyArbExecutorV3.sol\":748:11669  contract FutarchyArbExecutorV3 {... */\n      0x04\n        /* \"contracts/FutarchyArbExecutorV3.sol\":6474:6506  p.gnoNo.balanceOf(address(this)) */\n      dup3\n      add\n        /* \"contracts/FutarchyArbExecutorV3.sol\":748:11669  contract FutarchyArbExecutorV3 {... */\n      mstore\n      swap2\n      swap1\n      0x20\n      swap1\n      dup4\n      swap1\n      0x24\n      swap1\n      dup3\n      swap1\n        /* \"contracts/FutarchyArbExecutorV3.sol\":6474:6506  p.gnoNo.balanceOf(address(this)) */\n      gas\n      staticcall\n      swap2\n      dup3\n      iszero\n      tag_268\n      jumpi\n      0x00\n      swap3\n      tag_150\n      jumpi\n        /* \"contracts/FutarchyArbExecutorV3.sol\":748:11669  contract FutarchyArbExecutorV3 {... */\n    tag_151:\n        /* \"contracts/FutarchyArbExecutorV3.sol\":6517:6533  p.futarchyRouter */\n      pop\n        /* \"contracts/FutarchyArbExecutorV3.sol\":6517:6547  p.futarchyRouter.splitPosition */\n      tag_152\n        /* \"contracts/FutarchyArbExecutorV3.sol\":6517:6533  p.futarchyRouter */\n      tag_81\n      dup14\n      tag_14\n      jump\t// in\n        /* \"contracts/FutarchyArbExecutorV3.sol\":6517:6547  p.futarchyRouter.splitPosition */\n    tag_152:\n        /* \"contracts/FutarchyArbExecutorV3.sol\":6548:6558  p.proposal */\n      0xe4\n      dup10\n      add\n      swap7\n        /* \"contracts/FutarchyArbExecutorV3.sol\":6560:6565  p.gno */\n      tag_154\n        /* \"contracts/FutarchyArbExecutorV3.sol\":6548:6558  p.proposal */\n      tag_155\n      dup10\n      tag_14\n      jump\t// in\n    tag_155:\n        /* \"contracts/FutarchyArbExecutorV3.sol\":6560:6565  p.gno */\n      swap2\n      tag_14\n      jump\t// in\n    tag_154:\n        /* \"contracts/FutarchyArbExecutorV3.sol\":6517:6584  p.futarchyRouter.splitPosition(p.proposal, p.gno, p.splitGnoAmount) */\n      swap1\n      dup3\n      extcodesize\n      iszero\n      tag_64\n      jumpi\n        /* \"contracts/FutarchyArbExecutorV3.sol\":748:11669  contract FutarchyArbExecutorV3 {... */\n      mload(0x40)\n      shl(0xe7, 0x01abf045)\n        /* \"contracts/FutarchyArbExecutorV3.sol\":6517:6584  p.futarchyRouter.splitPosition(p.proposal, p.gno, p.splitGnoAmount) */\n      dup2\n      mstore\n      sub(shl(0xa0, 0x01), 0x01)\n        /* \"contracts/FutarchyArbExecutorV3.sol\":748:11669  contract FutarchyArbExecutorV3 {... */\n      swap2\n      dup3\n      and\n      0x04\n        /* \"contracts/FutarchyArbExecutorV3.sol\":6517:6584  p.futarchyRouter.splitPosition(p.proposal, p.gno, p.splitGnoAmount) */\n      dup3\n      add\n        /* \"contracts/FutarchyArbExecutorV3.sol\":748:11669  contract FutarchyArbExecutorV3 {... */\n      mstore\n      swap2\n      and\n      0x24\n      dup3\n      add\n      mstore\n      0x44\n      dup2\n      add\n      dup12\n      swap1\n      mstore\n      swap1\n      0x00\n      swap1\n      dup3\n      swap1\n      0x64\n      swap1\n      dup3\n      swap1\n      dup5\n      swap1\n        /* \"contracts/FutarchyArbExecutorV3.sol\":6517:6584  p.futarchyRouter.splitPosition(p.proposal, p.gno, p.splitGnoAmount) */\n      gas\n      call\n      dup1\n      iszero\n      tag_268\n      jumpi\n      tag_161\n      jumpi\n        /* \"contracts/FutarchyArbExecutorV3.sol\":748:11669  contract FutarchyArbExecutorV3 {... */\n    tag_162:\n        /* \"contracts/FutarchyArbExecutorV3.sol\":6615:6623  p.gnoYes */\n      pop\n        /* \"contracts/FutarchyArbExecutorV3.sol\":6615:6633  p.gnoYes.balanceOf */\n      tag_163\n        /* \"contracts/FutarchyArbExecutorV3.sol\":6615:6623  p.gnoYes */\n      tag_81\n      dup5\n      tag_14\n      jump\t// in\n        /* \"contracts/FutarchyArbExecutorV3.sol\":6615:6633  p.gnoYes.balanceOf */\n    tag_163:\n        /* \"contracts/FutarchyArbExecutorV3.sol\":748:11669  contract FutarchyArbExecutorV3 {... */\n      mload(0x40)\n      shl(0xe0, 0x70a08231)\n        /* \"contracts/FutarchyArbExecutorV3.sol\":6615:6648  p.gnoYes.balanceOf(address(this)) */\n      dup2\n      mstore\n        /* \"contracts/FutarchyArbExecutorV3.sol\":5287:5291  this */\n      address\n        /* \"contracts/FutarchyArbExecutorV3.sol\":748:11669  contract FutarchyArbExecutorV3 {... */\n      0x04\n        /* \"contracts/FutarchyArbExecutorV3.sol\":6615:6648  p.gnoYes.balanceOf(address(this)) */\n      dup3\n      add\n        /* \"contracts/FutarchyArbExecutorV3.sol\":748:11669  contract FutarchyArbExecutorV3 {... */\n      mstore\n      swap2\n      swap1\n      0x20\n      swap1\n      dup4\n      swap1\n      0x24\n      swap1\n      dup3\n      swap1\n        /* \"contracts/FutarchyArbExecutorV3.sol\":6615:6648  p.gnoYes.balanceOf(address(this)) */\n      gas\n      staticcall\n      dup1\n      iszero\n      tag_268\n      jumpi\n        /* \"contracts/FutarchyArbExecutorV3.sol\":6615:6663  p.gnoYes.balanceOf(address(this)) - yesBalBefore */\n      tag_168\n        /* \"contracts/FutarchyArbExecutorV3.sol\":6615:6648  p.gnoYes.balanceOf(address(this)) */\n      swap3\n      0x00\n      swap2\n      tag_312\n      jumpi\n        /* \"contracts/FutarchyArbExecutorV3.sol\":6615:6663  p.gnoYes.balanceOf(address(this)) - yesBalBefore */\n      pop\n      tag_21\n      jump\t// in\n    tag_168:\n        /* \"contracts/FutarchyArbExecutorV3.sol\":6692:6699  p.gnoNo */\n      swap1\n        /* \"contracts/FutarchyArbExecutorV3.sol\":6692:6709  p.gnoNo.balanceOf */\n      tag_171\n        /* \"contracts/FutarchyArbExecutorV3.sol\":6692:6699  p.gnoNo */\n      tag_81\n      dup6\n      tag_14\n      jump\t// in\n        /* \"contracts/FutarchyArbExecutorV3.sol\":6692:6709  p.gnoNo.balanceOf */\n    tag_171:\n        /* \"contracts/FutarchyArbExecutorV3.sol\":748:11669  contract FutarchyArbExecutorV3 {... */\n      mload(0x40)\n      shl(0xe0, 0x70a08231)\n        /* \"contracts/FutarchyArbExecutorV3.sol\":6692:6724  p.gnoNo.balanceOf(address(this)) */\n      dup2\n      mstore\n        /* \"contracts/FutarchyArbExecutorV3.sol\":5287:5291  this */\n      address\n        /* \"contracts/FutarchyArbExecutorV3.sol\":748:11669  contract FutarchyArbExecutorV3 {... */\n      0x04\n        /* \"contracts/FutarchyArbExecutorV3.sol\":6692:6724  p.gnoNo.balanceOf(address(this)) */\n      dup3\n      add\n        /* \"contracts/FutarchyArbExecutorV3.sol\":748:11669  contract FutarchyArbExecutorV3 {... */\n      mstore\n      swap1\n      0x20\n      swap1\n      dup3\n      swap1\n      0x24\n      swap1\n      dup3\n      swap1\n        /* \"contracts/FutarchyArbExecutorV3.sol\":6692:6724  p.gnoNo.balanceOf(address(this)) */\n      gas\n      staticcall\n      swap1\n      dup2\n      iszero\n      tag_268\n      jumpi\n      dup11\n      swap3\n      dup4\n      swap3\n        /* \"contracts/FutarchyArbExecutorV3.sol\":6692:6738  p.gnoNo.balanceOf(address(this)) - noBalBefore */\n      tag_176\n        /* \"contracts/FutarchyArbExecutorV3.sol\":6692:6724  p.gnoNo.balanceOf(address(this)) */\n      swap3\n      0x00\n      swap2\n      tag_312\n      jumpi\n        /* \"contracts/FutarchyArbExecutorV3.sol\":6692:6738  p.gnoNo.balanceOf(address(this)) - noBalBefore */\n      pop\n      tag_21\n      jump\t// in\n    tag_176:\n        /* \"contracts/FutarchyArbExecutorV3.sol\":6752:6780  yesMinted < p.splitGnoAmount */\n      swap3\n      lt\n        /* \"contracts/FutarchyArbExecutorV3.sol\":6752:6811  yesMinted < p.splitGnoAmount || noMinted < p.splitGnoAmount */\n      swap2\n      dup3\n      iszero\n      tag_179\n      jumpi\n        /* \"contracts/FutarchyArbExecutorV3.sol\":748:11669  contract FutarchyArbExecutorV3 {... */\n    tag_180:\n        /* \"contracts/FutarchyArbExecutorV3.sol\":6748:6831  if (yesMinted < p.splitGnoAmount || noMinted < p.splitGnoAmount) revert UnderMint() */\n      pop\n      pop\n      tag_181\n      jumpi\n        /* \"contracts/FutarchyArbExecutorV3.sol\":7023:7039  p.splitGnoAmount */\n      tag_183\n        /* \"contracts/FutarchyArbExecutorV3.sol\":6930:6938  p.gnoYes */\n      swap2\n        /* \"contracts/FutarchyArbExecutorV3.sol\":7008:7021  p.swapSpender */\n      tag_136\n        /* \"contracts/FutarchyArbExecutorV3.sol\":6999:7006  p.gnoNo */\n      tag_155\n        /* \"contracts/FutarchyArbExecutorV3.sol\":6930:6938  p.gnoYes */\n      tag_186\n      dup11\n      swap5\n      tag_14\n      jump\t// in\n    tag_186:\n        /* \"contracts/FutarchyArbExecutorV3.sol\":6940:6953  p.swapSpender */\n      swap3\n        /* \"contracts/FutarchyArbExecutorV3.sol\":6955:6971  p.splitGnoAmount */\n      tag_187\n        /* \"contracts/FutarchyArbExecutorV3.sol\":6940:6953  p.swapSpender */\n      dup6\n      0x0264\n      dup13\n      add\n      swap6\n      tag_136\n      dup8\n      tag_14\n      jump\t// in\n        /* \"contracts/FutarchyArbExecutorV3.sol\":6955:6971  p.splitGnoAmount */\n    tag_187:\n        /* \"contracts/FutarchyArbExecutorV3.sol\":6999:7006  p.gnoNo */\n      tag_14\n      jump\t// in\n        /* \"contracts/FutarchyArbExecutorV3.sol\":7023:7039  p.splitGnoAmount */\n    tag_183:\n        /* \"contracts/FutarchyArbExecutorV3.sol\":7075:7084  p.sdaiYes */\n      0x84\n      dup5\n      add\n      swap3\n        /* \"contracts/FutarchyArbExecutorV3.sol\":7075:7094  p.sdaiYes.balanceOf */\n      tag_189\n        /* \"contracts/FutarchyArbExecutorV3.sol\":7075:7084  p.sdaiYes */\n      tag_81\n      dup6\n      tag_14\n      jump\t// in\n        /* \"contracts/FutarchyArbExecutorV3.sol\":7075:7094  p.sdaiYes.balanceOf */\n    tag_189:\n        /* \"contracts/FutarchyArbExecutorV3.sol\":748:11669  contract FutarchyArbExecutorV3 {... */\n      mload(0x40)\n      shl(0xe0, 0x70a08231)\n        /* \"contracts/FutarchyArbExecutorV3.sol\":7075:7109  p.sdaiYes.balanceOf(address(this)) */\n      dup2\n      mstore\n        /* \"contracts/FutarchyArbExecutorV3.sol\":5287:5291  this */\n      address\n        /* \"contracts/FutarchyArbExecutorV3.sol\":748:11669  contract FutarchyArbExecutorV3 {... */\n      0x04\n        /* \"contracts/FutarchyArbExecutorV3.sol\":7075:7109  p.sdaiYes.balanceOf(address(this)) */\n      dup3\n      add\n        /* \"contracts/FutarchyArbExecutorV3.sol\":748:11669  contract FutarchyArbExecutorV3 {... */\n      mstore\n      swap1\n      0x20\n      swap1\n      dup3\n      swap1\n      0x24\n      swap1\n      dup3\n      swap1\n        /* \"contracts/FutarchyArbExecutorV3.sol\":7075:7109  p.sdaiYes.balanceOf(address(this)) */\n      gas\n      staticcall\n      swap1\n      dup2\n      iszero\n      tag_268\n      jumpi\n      0x00\n      swap2\n      tag_194\n      jumpi\n        /* \"contracts/FutarchyArbExecutorV3.sol\":748:11669  contract FutarchyArbExecutorV3 {... */\n    tag_195:\n        /* \"contracts/FutarchyArbExecutorV3.sol\":7129:7144  p.yesSwapTarget */\n      pop\n        /* \"contracts/FutarchyArbExecutorV3.sol\":7119:7167  _safeCall(p.yesSwapTarget, p.yesSwapCalldata, 0) */\n      tag_196\n        /* \"contracts/FutarchyArbExecutorV3.sol\":7129:7144  p.yesSwapTarget */\n      tag_197\n      0x01e4\n      dup9\n      add\n      tag_14\n      jump\t// in\n    tag_197:\n        /* \"contracts/FutarchyArbExecutorV3.sol\":748:11669  contract FutarchyArbExecutorV3 {... */\n      tag_198\n        /* \"contracts/FutarchyArbExecutorV3.sol\":7146:7163  p.yesSwapCalldata */\n      tag_199\n      0x0204\n      dup11\n      add\n      dup8\n      tag_18\n      jump\t// in\n    tag_199:\n        /* \"contracts/FutarchyArbExecutorV3.sol\":748:11669  contract FutarchyArbExecutorV3 {... */\n      calldatasize\n      swap2\n      tag_19\n      jump\t// in\n    tag_198:\n        /* \"contracts/FutarchyArbExecutorV3.sol\":7119:7167  _safeCall(p.yesSwapTarget, p.yesSwapCalldata, 0) */\n      swap1\n      tag_37\n      jump\t// in\n    tag_196:\n        /* \"contracts/FutarchyArbExecutorV3.sol\":7194:7213  p.sdaiYes.balanceOf */\n      tag_200\n        /* \"contracts/FutarchyArbExecutorV3.sol\":7194:7203  p.sdaiYes */\n      tag_81\n      dup7\n      tag_14\n      jump\t// in\n        /* \"contracts/FutarchyArbExecutorV3.sol\":7194:7213  p.sdaiYes.balanceOf */\n    tag_200:\n        /* \"contracts/FutarchyArbExecutorV3.sol\":748:11669  contract FutarchyArbExecutorV3 {... */\n      mload(0x40)\n      shl(0xe0, 0x70a08231)\n        /* \"contracts/FutarchyArbExecutorV3.sol\":7194:7228  p.sdaiYes.balanceOf(address(this)) */\n      dup2\n      mstore\n        /* \"contracts/FutarchyArbExecutorV3.sol\":5287:5291  this */\n      address\n        /* \"contracts/FutarchyArbExecutorV3.sol\":748:11669  contract FutarchyArbExecutorV3 {... */\n      0x04\n        /* \"contracts/FutarchyArbExecutorV3.sol\":7194:7228  p.sdaiYes.balanceOf(address(this)) */\n      dup3\n      add\n        /* \"contracts/FutarchyArbExecutorV3.sol\":748:11669  contract FutarchyArbExecutorV3 {... */\n      mstore\n      swap2\n      swap1\n      0x20\n      swap1\n      dup4\n      swap1\n      0x24\n      swap1\n      dup3\n      swap1\n        /* \"contracts/FutarchyArbExecutorV3.sol\":7194:7228  p.sdaiYes.balanceOf(address(this)) */\n      gas\n      staticcall\n      dup1\n      iszero\n      tag_268\n      jumpi\n        /* \"contracts/FutarchyArbExecutorV3.sol\":7194:7244  p.sdaiYes.balanceOf(address(this)) - sdaiYesBefore */\n      tag_205\n        /* \"contracts/FutarchyArbExecutorV3.sol\":7194:7228  p.sdaiYes.balanceOf(address(this)) */\n      swap3\n      0x00\n      swap2\n      tag_312\n      jumpi\n        /* \"contracts/FutarchyArbExecutorV3.sol\":7194:7244  p.sdaiYes.balanceOf(address(this)) - sdaiYesBefore */\n      pop\n      tag_21\n      jump\t// in\n    tag_205:\n        /* \"contracts/FutarchyArbExecutorV3.sol\":7267:7282  p.minSdaiYesOut */\n      swap9\n      0x0284\n      dup7\n      add\n        /* \"contracts/FutarchyArbExecutorV3.sol\":748:11669  contract FutarchyArbExecutorV3 {... */\n      calldataload\n        /* \"contracts/FutarchyArbExecutorV3.sol\":7258:7282  yesOut < p.minSdaiYesOut */\n      dup11\n      lt\n        /* \"contracts/FutarchyArbExecutorV3.sol\":7254:7303  if (yesOut < p.minSdaiYesOut) revert LowYesSdai() */\n      tag_208\n      jumpi\n        /* \"contracts/FutarchyArbExecutorV3.sol\":7337:7345  p.sdaiNo */\n      0xa4\n      dup7\n      add\n      swap4\n        /* \"contracts/FutarchyArbExecutorV3.sol\":7337:7355  p.sdaiNo.balanceOf */\n      tag_210\n        /* \"contracts/FutarchyArbExecutorV3.sol\":7337:7345  p.sdaiNo */\n      tag_81\n      dup7\n      tag_14\n      jump\t// in\n        /* \"contracts/FutarchyArbExecutorV3.sol\":7337:7355  p.sdaiNo.balanceOf */\n    tag_210:\n        /* \"contracts/FutarchyArbExecutorV3.sol\":748:11669  contract FutarchyArbExecutorV3 {... */\n      mload(0x40)\n      shl(0xe0, 0x70a08231)\n        /* \"contracts/FutarchyArbExecutorV3.sol\":7337:7370  p.sdaiNo.balanceOf(address(this)) */\n      dup2\n      mstore\n        /* \"contracts/FutarchyArbExecutorV3.sol\":5287:5291  this */\n      address\n        /* \"contracts/FutarchyArbExecutorV3.sol\":748:11669  contract FutarchyArbExecutorV3 {... */\n      0x04\n        /* \"contracts/FutarchyArbExecutorV3.sol\":7337:7370  p.sdaiNo.balanceOf(address(this)) */\n      dup3\n      add\n        /* \"contracts/FutarchyArbExecutorV3.sol\":748:11669  contract FutarchyArbExecutorV3 {... */\n      mstore\n      swap1\n      0x20\n      swap1\n      dup3\n      swap1\n      0x24\n      swap1\n      dup3\n      swap1\n        /* \"contracts/FutarchyArbExecutorV3.sol\":7337:7370  p.sdaiNo.balanceOf(address(this)) */\n      gas\n      staticcall\n      swap1\n      dup2\n      iszero\n      tag_268\n      jumpi\n      0x00\n      swap2\n      tag_215\n      jumpi\n        /* \"contracts/FutarchyArbExecutorV3.sol\":748:11669  contract FutarchyArbExecutorV3 {... */\n    tag_216:\n        /* \"contracts/FutarchyArbExecutorV3.sol\":7390:7404  p.noSwapTarget */\n      pop\n        /* \"contracts/FutarchyArbExecutorV3.sol\":7380:7426  _safeCall(p.noSwapTarget, p.noSwapCalldata, 0) */\n      tag_217\n        /* \"contracts/FutarchyArbExecutorV3.sol\":7390:7404  p.noSwapTarget */\n      tag_218\n      0x0224\n      dup11\n      add\n      tag_14\n      jump\t// in\n    tag_218:\n        /* \"contracts/FutarchyArbExecutorV3.sol\":748:11669  contract FutarchyArbExecutorV3 {... */\n      tag_198\n        /* \"contracts/FutarchyArbExecutorV3.sol\":7406:7422  p.noSwapCalldata */\n      tag_199\n      0x0244\n      dup13\n      add\n      dup10\n      tag_18\n      jump\t// in\n        /* \"contracts/FutarchyArbExecutorV3.sol\":7380:7426  _safeCall(p.noSwapTarget, p.noSwapCalldata, 0) */\n    tag_217:\n        /* \"contracts/FutarchyArbExecutorV3.sol\":7452:7470  p.sdaiNo.balanceOf */\n      tag_221\n        /* \"contracts/FutarchyArbExecutorV3.sol\":7452:7460  p.sdaiNo */\n      tag_81\n      dup8\n      tag_14\n      jump\t// in\n        /* \"contracts/FutarchyArbExecutorV3.sol\":7452:7470  p.sdaiNo.balanceOf */\n    tag_221:\n        /* \"contracts/FutarchyArbExecutorV3.sol\":748:11669  contract FutarchyArbExecutorV3 {... */\n      mload(0x40)\n      shl(0xe0, 0x70a08231)\n        /* \"contracts/FutarchyArbExecutorV3.sol\":7452:7485  p.sdaiNo.balanceOf(address(this)) */\n      dup2\n      mstore\n        /* \"contracts/FutarchyArbExecutorV3.sol\":5287:5291  this */\n      address\n        /* \"contracts/FutarchyArbExecutorV3.sol\":748:11669  contract FutarchyArbExecutorV3 {... */\n      0x04\n        /* \"contracts/FutarchyArbExecutorV3.sol\":7452:7485  p.sdaiNo.balanceOf(address(this)) */\n      dup3\n      add\n        /* \"contracts/FutarchyArbExecutorV3.sol\":748:11669  contract FutarchyArbExecutorV3 {... */\n      mstore\n      swap2\n      swap1\n      0x20\n      swap1\n      dup4\n      swap1\n      0x24\n      swap1\n      dup3\n      swap1\n        /* \"contracts/FutarchyArbExecutorV3.sol\":7452:7485  p.sdaiNo.balanceOf(address(this)) */\n      gas\n      staticcall\n      dup1\n      iszero\n      tag_268\n      jumpi\n        /* \"contracts/FutarchyArbExecutorV3.sol\":7452:7500  p.sdaiNo.balanceOf(address(this)) - sdaiNoBefore */\n      tag_226\n        /* \"contracts/FutarchyArbExecutorV3.sol\":7452:7485  p.sdaiNo.balanceOf(address(this)) */\n      swap3\n      0x00\n      swap2\n      tag_312\n      jumpi\n        /* \"contracts/FutarchyArbExecutorV3.sol\":7452:7500  p.sdaiNo.balanceOf(address(this)) - sdaiNoBefore */\n      pop\n      tag_21\n      jump\t// in\n    tag_226:\n        /* \"contracts/FutarchyArbExecutorV3.sol\":7522:7536  p.minSdaiNoOut */\n      swap1\n      0x02a4\n      dup9\n      add\n        /* \"contracts/FutarchyArbExecutorV3.sol\":748:11669  contract FutarchyArbExecutorV3 {... */\n      calldataload\n        /* \"contracts/FutarchyArbExecutorV3.sol\":7514:7536  noOut < p.minSdaiNoOut */\n      dup3\n      lt\n        /* \"contracts/FutarchyArbExecutorV3.sol\":7510:7556  if (noOut < p.minSdaiNoOut) revert LowNoSdai() */\n      tag_229\n      jumpi\n        /* \"contracts/FutarchyArbExecutorV3.sol\":7655:7669  yesOut < noOut */\n      dup2\n      dup13\n      lt\n      iszero\n      tag_231\n      jumpi\n        /* \"contracts/FutarchyArbExecutorV3.sol\":7655:7686  yesOut < noOut ? yesOut : noOut */\n      dup12\n      swap3\n    tag_233:\n        /* \"contracts/FutarchyArbExecutorV3.sol\":7700:7713  mergeAmt == 0 */\n      dup4\n      iszero\n        /* \"contracts/FutarchyArbExecutorV3.sol\":7696:7738  if (mergeAmt == 0) revert NothingToMerge() */\n      tag_234\n      jumpi\n        /* \"contracts/FutarchyArbExecutorV3.sol\":7896:7927  p.futarchyRouter.mergePositions */\n      tag_155\n        /* \"contracts/FutarchyArbExecutorV3.sol\":7896:7912  p.futarchyRouter */\n      tag_81\n        /* \"contracts/FutarchyArbExecutorV3.sol\":7928:7938  p.proposal */\n      tag_238\n        /* \"contracts/FutarchyArbExecutorV3.sol\":7766:7775  p.sdaiYes */\n      swap3\n        /* \"contracts/FutarchyArbExecutorV3.sol\":7804:7812  mergeAmt */\n      tag_239\n        /* \"contracts/FutarchyArbExecutorV3.sol\":7766:7775  p.sdaiYes */\n      dup8\n      tag_240\n      dup14\n      tag_14\n      jump\t// in\n    tag_240:\n        /* \"contracts/FutarchyArbExecutorV3.sol\":7777:7802  address(p.futarchyRouter) */\n      tag_136\n        /* \"contracts/FutarchyArbExecutorV3.sol\":7785:7801  p.futarchyRouter */\n      tag_81\n      dup6\n      tag_14\n      jump\t// in\n        /* \"contracts/FutarchyArbExecutorV3.sol\":7804:7812  mergeAmt */\n    tag_239:\n        /* \"contracts/FutarchyArbExecutorV3.sol\":7877:7885  mergeAmt */\n      tag_187\n        /* \"contracts/FutarchyArbExecutorV3.sol\":7840:7848  p.sdaiNo */\n      dup8\n      tag_240\n      dup13\n      tag_14\n      jump\t// in\n        /* \"contracts/FutarchyArbExecutorV3.sol\":7928:7938  p.proposal */\n    tag_238:\n        /* \"contracts/FutarchyArbExecutorV3.sol\":7940:7946  p.sdai */\n      tag_247\n      dup7\n      tag_14\n      jump\t// in\n    tag_247:\n        /* \"contracts/FutarchyArbExecutorV3.sol\":7896:7957  p.futarchyRouter.mergePositions(p.proposal, p.sdai, mergeAmt) */\n      swap1\n      dup3\n      extcodesize\n      iszero\n      tag_64\n      jumpi\n        /* \"contracts/FutarchyArbExecutorV3.sol\":748:11669  contract FutarchyArbExecutorV3 {... */\n      mload(0x40)\n      shl(0xe0, 0x7abef8d1)\n        /* \"contracts/FutarchyArbExecutorV3.sol\":7896:7957  p.futarchyRouter.mergePositions(p.proposal, p.sdai, mergeAmt) */\n      dup2\n      mstore\n      sub(shl(0xa0, 0x01), 0x01)\n        /* \"contracts/FutarchyArbExecutorV3.sol\":748:11669  contract FutarchyArbExecutorV3 {... */\n      swap2\n      dup3\n      and\n      0x04\n        /* \"contracts/FutarchyArbExecutorV3.sol\":7896:7957  p.futarchyRouter.mergePositions(p.proposal, p.sdai, mergeAmt) */\n      dup3\n      add\n        /* \"contracts/FutarchyArbExecutorV3.sol\":748:11669  contract FutarchyArbExecutorV3 {... */\n      mstore\n      swap2\n      and\n      0x24\n      dup3\n      add\n      mstore\n      0x44\n      dup2\n      add\n      dup5\n      swap1\n      mstore\n      swap1\n      0x00\n      swap1\n      dup3\n      swap1\n      0x64\n      swap1\n      dup3\n      swap1\n      dup5\n      swap1\n        /* \"contracts/FutarchyArbExecutorV3.sol\":7896:7957  p.futarchyRouter.mergePositions(p.proposal, p.sdai, mergeAmt) */\n      gas\n      call\n      dup1\n      iszero\n      tag_268\n      jumpi\n      tag_253\n      jumpi\n        /* \"contracts/FutarchyArbExecutorV3.sol\":7655:7686  yesOut < noOut ? yesOut : noOut */\n    tag_254:\n        /* \"contracts/FutarchyArbExecutorV3.sol\":8065:8082  yesOut - mergeAmt */\n      pop\n      tag_255\n      dup3\n      dup13\n      tag_21\n      jump\t// in\n    tag_255:\n        /* \"contracts/FutarchyArbExecutorV3.sol\":8153:8169  noOut - mergeAmt */\n      swap3\n      tag_256\n      dup4\n      dup4\n      tag_21\n      jump\t// in\n    tag_256:\n        /* \"contracts/FutarchyArbExecutorV3.sol\":8220:8237  uint256 liqYesOut */\n      swap5\n      0x00\n        /* \"contracts/FutarchyArbExecutorV3.sol\":8247:8263  uint256 liqNoOut */\n      swap7\n      0x00\n        /* \"contracts/FutarchyArbExecutorV3.sol\":8278:8293  leftoverYes > 0 */\n      swap9\n      dup11\n      dup8\n      iszero\n      iszero\n        /* \"contracts/FutarchyArbExecutorV3.sol\":8278:8326  leftoverYes > 0 && p.liqYes.target != address(0) */\n      swap1\n      dup2\n      tag_257\n      jumpi\n        /* \"contracts/FutarchyArbExecutorV3.sol\":7655:7686  yesOut < noOut ? yesOut : noOut */\n    tag_258:\n        /* \"contracts/FutarchyArbExecutorV3.sol\":8274:8846  if (leftoverYes > 0 && p.liqYes.target != address(0)) {... */\n      pop\n      tag_259\n      jumpi\n        /* \"contracts/FutarchyArbExecutorV3.sol\":7655:7686  yesOut < noOut ? yesOut : noOut */\n    tag_260:\n        /* \"contracts/FutarchyArbExecutorV3.sol\":8860:8874  leftoverNo > 0 */\n      pop\n      dup7\n      iszero\n      iszero\n        /* \"contracts/FutarchyArbExecutorV3.sol\":8860:8906  leftoverNo > 0 && p.liqNo.target != address(0) */\n      dup1\n      tag_261\n      jumpi\n        /* \"contracts/FutarchyArbExecutorV3.sol\":7655:7686  yesOut < noOut ? yesOut : noOut */\n    tag_262:\n        /* \"contracts/FutarchyArbExecutorV3.sol\":8856:9363  if (leftoverNo > 0 && p.liqNo.target != address(0)) {... */\n      tag_263\n      jumpi\n        /* \"contracts/FutarchyArbExecutorV3.sol\":7655:7686  yesOut < noOut ? yesOut : noOut */\n    tag_264:\n        /* \"contracts/FutarchyArbExecutorV3.sol\":9457:9463  p.sdai */\n      pop\n      tag_81\n        /* \"contracts/FutarchyArbExecutorV3.sol\":9457:9473  p.sdai.balanceOf */\n      tag_266\n        /* \"contracts/FutarchyArbExecutorV3.sol\":9457:9463  p.sdai */\n      swap2\n      tag_14\n      jump\t// in\n        /* \"contracts/FutarchyArbExecutorV3.sol\":9457:9473  p.sdai.balanceOf */\n    tag_266:\n        /* \"contracts/FutarchyArbExecutorV3.sol\":748:11669  contract FutarchyArbExecutorV3 {... */\n      mload(0x40)\n      shl(0xe0, 0x70a08231)\n        /* \"contracts/FutarchyArbExecutorV3.sol\":9457:9488  p.sdai.balanceOf(address(this)) */\n      dup2\n      mstore\n        /* \"contracts/FutarchyArbExecutorV3.sol\":5287:5291  this */\n      address\n        /* \"contracts/FutarchyArbExecutorV3.sol\":748:11669  contract FutarchyArbExecutorV3 {... */\n      0x04\n        /* \"contracts/FutarchyArbExecutorV3.sol\":9457:9488  p.sdai.balanceOf(address(this)) */\n      dup3\n      add\n        /* \"contracts/FutarchyArbExecutorV3.sol\":748:11669  contract FutarchyArbExecutorV3 {... */\n      mstore\n      swap1\n      0x20\n      swap1\n      dup3\n      swap1\n      0x24\n      swap1\n      dup3\n      swap1\n        /* \"contracts/FutarchyArbExecutorV3.sol\":9457:9488  p.sdai.balanceOf(address(this)) */\n      gas\n      staticcall\n      swap1\n      dup2\n      iszero\n      tag_268\n      jumpi\n      0x00\n      swap2\n      tag_270\n      jumpi\n        /* \"contracts/FutarchyArbExecutorV3.sol\":7655:7686  yesOut < noOut ? yesOut : noOut */\n    tag_271:\n      pop\n      sub(shl(0xff, 0x01), 0x01)\n        /* \"contracts/FutarchyArbExecutorV3.sol\":9502:9537  sdaiEnd > uint256(type(int256).max) */\n      dup2\n      gt\n        /* \"contracts/FutarchyArbExecutorV3.sol\":9502:9578  sdaiEnd > uint256(type(int256).max) || sdaiStart > uint256(type(int256).max) */\n      dup1\n      iszero\n      tag_272\n      jumpi\n        /* \"contracts/FutarchyArbExecutorV3.sol\":7655:7686  yesOut < noOut ? yesOut : noOut */\n    tag_273:\n        /* \"contracts/FutarchyArbExecutorV3.sol\":9498:9604  if (sdaiEnd > uint256(type(int256).max) || sdaiStart > uint256(type(int256).max)) revert BalanceTooLarge() */\n      tag_274\n      jumpi\n        /* \"contracts/FutarchyArbExecutorV3.sol\":9740:9752  p.minNetSdai */\n      0x0324\n        /* \"contracts/FutarchyArbExecutorV3.sol\":9685:9720  int256(sdaiEnd) - int256(sdaiStart) */\n      swap2\n      tag_276\n      swap2\n      tag_26\n      jump\t// in\n    tag_276:\n        /* \"contracts/FutarchyArbExecutorV3.sol\":9740:9752  p.minNetSdai */\n      swap8\n      add\n        /* \"contracts/FutarchyArbExecutorV3.sol\":748:11669  contract FutarchyArbExecutorV3 {... */\n      calldataload\n        /* \"contracts/FutarchyArbExecutorV3.sol\":9734:9752  net < p.minNetSdai */\n      dup8\n      slt\n        /* \"contracts/FutarchyArbExecutorV3.sol\":9730:9784  if (net < p.minNetSdai) revert NetSdaiBelowTolerance() */\n      tag_277\n      jumpi\n        /* \"contracts/FutarchyArbExecutorV3.sol\":9800:10070  SellExecuted(... */\n      0xca4202436e8d09dae0f884d1f04d2b4a4b2e34472419c7d71435f525d1e2d681\n        /* \"contracts/FutarchyArbExecutorV3.sol\":748:11669  contract FutarchyArbExecutorV3 {... */\n      swap11\n        /* \"contracts/FutarchyArbExecutorV3.sol\":9800:10070  SellExecuted(... */\n      tag_279\n        /* \"contracts/FutarchyArbExecutorV3.sol\":748:11669  contract FutarchyArbExecutorV3 {... */\n      swap9\n      mload(0x40)\n        /* \"contracts/FutarchyArbExecutorV3.sol\":9800:10070  SellExecuted(... */\n      swap12\n      dup13\n      swap12\n      dup13\n        /* \"contracts/FutarchyArbExecutorV3.sol\":748:11669  contract FutarchyArbExecutorV3 {... */\n      swap8\n      swap5\n      swap2\n      swap3\n      0x0140\n      swap10\n      swap7\n      swap4\n      swap13\n      swap12\n      swap11\n      swap8\n      swap5\n      swap2\n      swap13\n      0x0160\n      dup11\n      add\n      swap14\n      dup11\n      mstore\n      0x20\n      dup11\n      add\n      mstore\n      0x40\n      dup10\n      add\n      mstore\n      0x60\n      dup9\n      add\n      mstore\n      0x80\n      dup8\n      add\n      mstore\n      0xa0\n      dup7\n      add\n      mstore\n      0xc0\n      dup6\n      add\n      mstore\n      0xe0\n      dup5\n      add\n      mstore\n      0x0100\n      dup4\n      add\n      mstore\n      0x0120\n      dup3\n      add\n      mstore\n      add\n      mstore\n      jump\n        /* \"contracts/FutarchyArbExecutorV3.sol\":9800:10070  SellExecuted(... */\n    tag_279:\n      sub\n      swap1\n      log1\n        /* \"contracts/FutarchyArbExecutorV3.sol\":748:11669  contract FutarchyArbExecutorV3 {... */\n      stop\n        /* \"contracts/FutarchyArbExecutorV3.sol\":9730:9784  if (net < p.minNetSdai) revert NetSdaiBelowTolerance() */\n    tag_277:\n        /* \"contracts/FutarchyArbExecutorV3.sol\":9761:9784  NetSdaiBelowTolerance() */\n      mstore(0x00, shl(0xe0, 0x54997fa9))\n        /* \"contracts/FutarchyArbExecutorV3.sol\":748:11669  contract FutarchyArbExecutorV3 {... */\n      0x04\n      0x00\n        /* \"contracts/FutarchyArbExecutorV3.sol\":9761:9784  NetSdaiBelowTolerance() */\n      revert\n        /* \"contracts/FutarchyArbExecutorV3.sol\":9498:9604  if (sdaiEnd > uint256(type(int256).max) || sdaiStart > uint256(type(int256).max)) revert BalanceTooLarge() */\n    tag_274:\n        /* \"contracts/FutarchyArbExecutorV3.sol\":9587:9604  BalanceTooLarge() */\n      mstore(0x00, shl(0xe1, 0x0748aac7))\n        /* \"contracts/FutarchyArbExecutorV3.sol\":748:11669  contract FutarchyArbExecutorV3 {... */\n      0x04\n      0x00\n        /* \"contracts/FutarchyArbExecutorV3.sol\":9587:9604  BalanceTooLarge() */\n      revert\n        /* \"contracts/FutarchyArbExecutorV3.sol\":9502:9578  sdaiEnd > uint256(type(int256).max) || sdaiStart > uint256(type(int256).max) */\n    tag_272:\n      pop\n      sub(shl(0xff, 0x01), 0x01)\n        /* \"contracts/FutarchyArbExecutorV3.sol\":9541:9578  sdaiStart > uint256(type(int256).max) */\n      dup3\n      gt\n        /* \"contracts/FutarchyArbExecutorV3.sol\":9502:9578  sdaiEnd > uint256(type(int256).max) || sdaiStart > uint256(type(int256).max) */\n      jump(tag_273)\n        /* \"contracts/FutarchyArbExecutorV3.sol\":9457:9488  p.sdai.balanceOf(address(this)) */\n    tag_270:\n      tag_280\n      swap2\n      pop\n        /* \"contracts/FutarchyArbExecutorV3.sol\":748:11669  contract FutarchyArbExecutorV3 {... */\n      0x20\n        /* \"contracts/FutarchyArbExecutorV3.sol\":9457:9488  p.sdai.balanceOf(address(this)) */\n      returndatasize\n        /* \"contracts/FutarchyArbExecutorV3.sol\":748:11669  contract FutarchyArbExecutorV3 {... */\n      0x20\n        /* \"contracts/FutarchyArbExecutorV3.sol\":9457:9488  p.sdai.balanceOf(address(this)) */\n      gt\n      tag_281\n      jumpi\n    tag_282:\n      tag_283\n      dup2\n      dup4\n      tag_10\n      jump\t// in\n    tag_283:\n      dup2\n      add\n      swap1\n      tag_15\n      jump\t// in\n    tag_280:\n      0x00\n      jump(tag_271)\n    tag_281:\n      pop\n      returndatasize\n      jump(tag_282)\n    tag_268:\n      tag_17\n      jump\t// in\n        /* \"contracts/FutarchyArbExecutorV3.sol\":8856:9363  if (leftoverNo > 0 && p.liqNo.target != address(0)) {... */\n    tag_263:\n        /* \"contracts/FutarchyArbExecutorV3.sol\":8967:8977  leftoverNo */\n      tag_284\n        /* \"contracts/FutarchyArbExecutorV3.sol\":8939:8947  p.sdaiNo */\n      swap2\n      swap9\n      pop\n      tag_285\n      dup8\n      swap2\n      tag_14\n      jump\t// in\n    tag_285:\n        /* \"contracts/FutarchyArbExecutorV3.sol\":8949:8965  p.liqSwapSpender */\n      tag_136\n      0x02c4\n      dup13\n      add\n      tag_14\n      jump\t// in\n        /* \"contracts/FutarchyArbExecutorV3.sol\":8967:8977  leftoverNo */\n    tag_284:\n        /* \"contracts/FutarchyArbExecutorV3.sol\":9017:9033  p.sdai.balanceOf */\n      tag_287\n        /* \"contracts/FutarchyArbExecutorV3.sol\":9017:9023  p.sdai */\n      tag_81\n      dup9\n      tag_14\n      jump\t// in\n        /* \"contracts/FutarchyArbExecutorV3.sol\":9017:9033  p.sdai.balanceOf */\n    tag_287:\n        /* \"contracts/FutarchyArbExecutorV3.sol\":748:11669  contract FutarchyArbExecutorV3 {... */\n      mload(0x40)\n      shl(0xe0, 0x70a08231)\n        /* \"contracts/FutarchyArbExecutorV3.sol\":9017:9048  p.sdai.balanceOf(address(this)) */\n      dup2\n      mstore\n        /* \"contracts/FutarchyArbExecutorV3.sol\":5287:5291  this */\n      address\n        /* \"contracts/FutarchyArbExecutorV3.sol\":748:11669  contract FutarchyArbExecutorV3 {... */\n      0x04\n        /* \"contracts/FutarchyArbExecutorV3.sol\":9017:9048  p.sdai.balanceOf(address(this)) */\n      dup3\n      add\n        /* \"contracts/FutarchyArbExecutorV3.sol\":748:11669  contract FutarchyArbExecutorV3 {... */\n      mstore\n      swap1\n      0x20\n      swap1\n      dup3\n      swap1\n      0x24\n      swap1\n      dup3\n      swap1\n        /* \"contracts/FutarchyArbExecutorV3.sol\":9017:9048  p.sdai.balanceOf(address(this)) */\n      gas\n      staticcall\n      swap1\n      dup2\n      iszero\n      tag_268\n      jumpi\n      dup7\n      dup11\n      dup11\n      swap3\n      0x00\n      swap5\n      tag_292\n      jumpi\n        /* \"contracts/FutarchyArbExecutorV3.sol\":8856:9363  if (leftoverNo > 0 && p.liqNo.target != address(0)) {... */\n    tag_293:\n        /* \"contracts/FutarchyArbExecutorV3.sol\":9115:9122  p.liqNo */\n      pop\n      swap2\n        /* \"contracts/FutarchyArbExecutorV3.sol\":748:11669  contract FutarchyArbExecutorV3 {... */\n      0x40\n        /* \"contracts/FutarchyArbExecutorV3.sol\":9262:9269  p.liqNo */\n      tag_294\n        /* \"contracts/FutarchyArbExecutorV3.sol\":9242:9256  p.liqNo.target */\n      tag_295\n        /* \"contracts/FutarchyArbExecutorV3.sol\":9242:9249  p.liqNo */\n      tag_187\n        /* \"contracts/FutarchyArbExecutorV3.sol\":9081:9218  _patchedCalldata(... */\n      tag_297\n        /* \"contracts/FutarchyArbExecutorV3.sol\":9115:9122  p.liqNo */\n      swap6\n      0x0304\n        /* \"contracts/FutarchyArbExecutorV3.sol\":9262:9278  p.liqNo.msgValue */\n      tag_298\n        /* \"contracts/FutarchyArbExecutorV3.sol\":9115:9122  p.liqNo */\n      swap9\n      add\n      swap7\n      dup8\n      swap2\n      dup8\n        /* \"contracts/FutarchyArbExecutorV3.sol\":9115:9127  p.liqNo.data */\n      tag_299\n        /* \"contracts/FutarchyArbExecutorV3.sol\":9115:9122  p.liqNo */\n      tag_300\n      dup6\n      dup4\n      tag_24\n      jump\t// in\n    tag_300:\n        /* \"contracts/FutarchyArbExecutorV3.sol\":748:11669  contract FutarchyArbExecutorV3 {... */\n      0x20\n        /* \"contracts/FutarchyArbExecutorV3.sol\":9115:9127  p.liqNo.data */\n      dup2\n      add\n      swap1\n      tag_18\n      jump\t// in\n    tag_299:\n        /* \"contracts/FutarchyArbExecutorV3.sol\":9129:9136  p.liqNo */\n      swap3\n      swap1\n        /* \"contracts/FutarchyArbExecutorV3.sol\":748:11669  contract FutarchyArbExecutorV3 {... */\n      tag_301\n        /* \"contracts/FutarchyArbExecutorV3.sol\":6474:6481  p.gnoNo */\n      0x60\n        /* \"contracts/FutarchyArbExecutorV3.sol\":9129:9136  p.liqNo */\n      tag_302\n      dup9\n      dup7\n      tag_24\n      jump\t// in\n    tag_302:\n        /* \"contracts/FutarchyArbExecutorV3.sol\":9129:9149  p.liqNo.amountOffset */\n      add\n        /* \"contracts/FutarchyArbExecutorV3.sol\":748:11669  contract FutarchyArbExecutorV3 {... */\n      calldataload\n        /* \"contracts/FutarchyArbExecutorV3.sol\":9163:9170  p.liqNo */\n      swap2\n        /* \"contracts/FutarchyArbExecutorV3.sol\":9185:9204  p.liqNo.slippageBps */\n      tag_303\n        /* \"contracts/FutarchyArbExecutorV3.sol\":7337:7345  p.sdaiNo */\n      0xa0\n        /* \"contracts/FutarchyArbExecutorV3.sol\":9185:9192  p.liqNo */\n      tag_304\n        /* \"contracts/FutarchyArbExecutorV3.sol\":9163:9170  p.liqNo */\n      dup11\n        /* \"contracts/FutarchyArbExecutorV3.sol\":7075:7084  p.sdaiYes */\n      0x80\n        /* \"contracts/FutarchyArbExecutorV3.sol\":9163:9170  p.liqNo */\n      tag_305\n      dup3\n      dup12\n      tag_24\n      jump\t// in\n    tag_305:\n        /* \"contracts/FutarchyArbExecutorV3.sol\":9163:9183  p.liqNo.minOutOffset */\n      add\n        /* \"contracts/FutarchyArbExecutorV3.sol\":748:11669  contract FutarchyArbExecutorV3 {... */\n      calldataload\n        /* \"contracts/FutarchyArbExecutorV3.sol\":9185:9192  p.liqNo */\n      swap9\n      tag_24\n      jump\t// in\n    tag_304:\n        /* \"contracts/FutarchyArbExecutorV3.sol\":9185:9204  p.liqNo.slippageBps */\n      add\n      tag_25\n      jump\t// in\n    tag_303:\n        /* \"contracts/FutarchyArbExecutorV3.sol\":748:11669  contract FutarchyArbExecutorV3 {... */\n      swap6\n      calldatasize\n      swap2\n      tag_19\n      jump\t// in\n    tag_301:\n        /* \"contracts/FutarchyArbExecutorV3.sol\":9081:9218  _patchedCalldata(... */\n      tag_44\n      jump\t// in\n    tag_297:\n        /* \"contracts/FutarchyArbExecutorV3.sol\":9242:9249  p.liqNo */\n      swap6\n      tag_24\n      jump\t// in\n        /* \"contracts/FutarchyArbExecutorV3.sol\":9242:9256  p.liqNo.target */\n    tag_295:\n        /* \"contracts/FutarchyArbExecutorV3.sol\":9262:9269  p.liqNo */\n      swap4\n      dup14\n      tag_24\n      jump\t// in\n    tag_294:\n        /* \"contracts/FutarchyArbExecutorV3.sol\":9262:9278  p.liqNo.msgValue */\n      add\n        /* \"contracts/FutarchyArbExecutorV3.sol\":748:11669  contract FutarchyArbExecutorV3 {... */\n      calldataload\n        /* \"contracts/FutarchyArbExecutorV3.sol\":9262:9278  p.liqNo.msgValue */\n      swap2\n      tag_38\n      jump\t// in\n    tag_298:\n        /* \"contracts/FutarchyArbExecutorV3.sol\":9305:9321  p.sdai.balanceOf */\n      tag_306\n        /* \"contracts/FutarchyArbExecutorV3.sol\":9305:9311  p.sdai */\n      tag_81\n      dup10\n      tag_14\n      jump\t// in\n        /* \"contracts/FutarchyArbExecutorV3.sol\":9305:9321  p.sdai.balanceOf */\n    tag_306:\n        /* \"contracts/FutarchyArbExecutorV3.sol\":748:11669  contract FutarchyArbExecutorV3 {... */\n      mload(0x40)\n      shl(0xe0, 0x70a08231)\n        /* \"contracts/FutarchyArbExecutorV3.sol\":9305:9336  p.sdai.balanceOf(address(this)) */\n      dup2\n      mstore\n        /* \"contracts/FutarchyArbExecutorV3.sol\":5287:5291  this */\n      address\n        /* \"contracts/FutarchyArbExecutorV3.sol\":748:11669  contract FutarchyArbExecutorV3 {... */\n      0x04\n        /* \"contracts/FutarchyArbExecutorV3.sol\":9305:9336  p.sdai.balanceOf(address(this)) */\n      dup3\n      add\n        /* \"contracts/FutarchyArbExecutorV3.sol\":748:11669  contract FutarchyArbExecutorV3 {... */\n      mstore\n      swap1\n      0x20\n      swap1\n      dup3\n      swap1\n      0x24\n      swap1\n      dup3\n      swap1\n        /* \"contracts/FutarchyArbExecutorV3.sol\":9305:9336  p.sdai.balanceOf(address(this)) */\n      gas\n      staticcall\n      swap1\n      dup2\n      iszero\n      tag_268\n      jumpi\n        /* \"contracts/FutarchyArbExecutorV3.sol\":9457:9473  p.sdai.balanceOf */\n      tag_266\n        /* \"contracts/FutarchyArbExecutorV3.sol\":9305:9336  p.sdai.balanceOf(address(this)) */\n      swap3\n        /* \"contracts/FutarchyArbExecutorV3.sol\":9457:9463  p.sdai */\n      tag_81\n        /* \"contracts/FutarchyArbExecutorV3.sol\":9305:9336  p.sdai.balanceOf(address(this)) */\n      swap3\n        /* \"contracts/FutarchyArbExecutorV3.sol\":9305:9352  p.sdai.balanceOf(address(this)) - sdaiBeforeLiq */\n      tag_311\n        /* \"contracts/FutarchyArbExecutorV3.sol\":9305:9336  p.sdai.balanceOf(address(this)) */\n      swap3\n      0x00\n      swap2\n      tag_312\n      jumpi\n        /* \"contracts/FutarchyArbExecutorV3.sol\":9305:9352  p.sdai.balanceOf(address(this)) - sdaiBeforeLiq */\n      pop\n      tag_21\n      jump\t// in\n    tag_311:\n        /* \"contracts/FutarchyArbExecutorV3.sol\":8856:9363  if (leftoverNo > 0 && p.liqNo.target != address(0)) {... */\n      swap9\n      swap2\n      pop\n      jump(tag_264)\n        /* \"contracts/FutarchyArbExecutorV3.sol\":9305:9336  p.sdai.balanceOf(address(this)) */\n    tag_312:\n      tag_314\n      swap2\n      pop\n        /* \"contracts/FutarchyArbExecutorV3.sol\":748:11669  contract FutarchyArbExecutorV3 {... */\n      0x20\n        /* \"contracts/FutarchyArbExecutorV3.sol\":9305:9336  p.sdai.balanceOf(address(this)) */\n      returndatasize\n        /* \"contracts/FutarchyArbExecutorV3.sol\":748:11669  contract FutarchyArbExecutorV3 {... */\n      0x20\n        /* \"contracts/FutarchyArbExecutorV3.sol\":9305:9336  p.sdai.balanceOf(address(this)) */\n      gt\n      tag_281\n      jumpi\n      tag_283\n      dup2\n      dup4\n      tag_10\n      jump\t// in\n    tag_314:\n      0x00\n      jump(tag_117)\n        /* \"contracts/FutarchyArbExecutorV3.sol\":9017:9048  p.sdai.balanceOf(address(this)) */\n    tag_292:\n        /* \"contracts/FutarchyArbExecutorV3.sol\":9262:9278  p.liqNo.msgValue */\n      tag_298\n        /* \"contracts/FutarchyArbExecutorV3.sol\":9017:9048  p.sdai.balanceOf(address(this)) */\n      swap4\n      swap2\n      swap5\n      pop\n        /* \"contracts/FutarchyArbExecutorV3.sol\":9262:9269  p.liqNo */\n      tag_294\n        /* \"contracts/FutarchyArbExecutorV3.sol\":9242:9256  p.liqNo.target */\n      tag_295\n        /* \"contracts/FutarchyArbExecutorV3.sol\":9242:9249  p.liqNo */\n      tag_187\n        /* \"contracts/FutarchyArbExecutorV3.sol\":9081:9218  _patchedCalldata(... */\n      tag_297\n        /* \"contracts/FutarchyArbExecutorV3.sol\":9017:9048  p.sdai.balanceOf(address(this)) */\n      swap6\n        /* \"contracts/FutarchyArbExecutorV3.sol\":9115:9122  p.liqNo */\n      0x0304\n        /* \"contracts/FutarchyArbExecutorV3.sol\":9017:9048  p.sdai.balanceOf(address(this)) */\n      tag_318\n        /* \"contracts/FutarchyArbExecutorV3.sol\":748:11669  contract FutarchyArbExecutorV3 {... */\n      0x40\n        /* \"contracts/FutarchyArbExecutorV3.sol\":9017:9048  p.sdai.balanceOf(address(this)) */\n      swap7\n        /* \"contracts/FutarchyArbExecutorV3.sol\":748:11669  contract FutarchyArbExecutorV3 {... */\n      0x20\n        /* \"contracts/FutarchyArbExecutorV3.sol\":9017:9048  p.sdai.balanceOf(address(this)) */\n      returndatasize\n        /* \"contracts/FutarchyArbExecutorV3.sol\":748:11669  contract FutarchyArbExecutorV3 {... */\n      0x20\n        /* \"contracts/FutarchyArbExecutorV3.sol\":9017:9048  p.sdai.balanceOf(address(this)) */\n      gt\n      tag_281\n      jumpi\n      tag_283\n      dup2\n      dup4\n      tag_10\n      jump\t// in\n    tag_318:\n      swap10\n      swap7\n      swap9\n      pop\n      pop\n      swap6\n      pop\n      pop\n      pop\n      pop\n      jump(tag_293)\n        /* \"contracts/FutarchyArbExecutorV3.sol\":8860:8906  leftoverNo > 0 && p.liqNo.target != address(0) */\n    tag_261:\n        /* \"contracts/FutarchyArbExecutorV3.sol\":8878:8885  p.liqNo */\n      pop\n        /* \"contracts/FutarchyArbExecutorV3.sol\":8878:8906  p.liqNo.target != address(0) */\n      tag_322\n        /* \"contracts/FutarchyArbExecutorV3.sol\":8878:8892  p.liqNo.target */\n      tag_81\n        /* \"contracts/FutarchyArbExecutorV3.sol\":8878:8885  p.liqNo */\n      tag_187\n      0x0304\n      dup14\n      add\n      dup6\n      tag_24\n      jump\t// in\n        /* \"contracts/FutarchyArbExecutorV3.sol\":8878:8906  p.liqNo.target != address(0) */\n    tag_322:\n      iszero\n      iszero\n        /* \"contracts/FutarchyArbExecutorV3.sol\":8860:8906  leftoverNo > 0 && p.liqNo.target != address(0) */\n      jump(tag_262)\n        /* \"contracts/FutarchyArbExecutorV3.sol\":8274:8846  if (leftoverYes > 0 && p.liqYes.target != address(0)) {... */\n    tag_259:\n        /* \"contracts/FutarchyArbExecutorV3.sol\":8388:8399  leftoverYes */\n      tag_325\n        /* \"contracts/FutarchyArbExecutorV3.sol\":8359:8368  p.sdaiYes */\n      swap2\n      swap9\n      pop\n      tag_326\n      dup8\n      swap2\n      tag_14\n      jump\t// in\n    tag_326:\n        /* \"contracts/FutarchyArbExecutorV3.sol\":8370:8386  p.liqSwapSpender */\n      tag_136\n      0x02c4\n      dup14\n      add\n      tag_14\n      jump\t// in\n        /* \"contracts/FutarchyArbExecutorV3.sol\":8388:8399  leftoverYes */\n    tag_325:\n        /* \"contracts/FutarchyArbExecutorV3.sol\":8492:8508  p.sdai.balanceOf */\n      tag_328\n        /* \"contracts/FutarchyArbExecutorV3.sol\":8492:8498  p.sdai */\n      tag_81\n      dup3\n      tag_14\n      jump\t// in\n        /* \"contracts/FutarchyArbExecutorV3.sol\":8492:8508  p.sdai.balanceOf */\n    tag_328:\n        /* \"contracts/FutarchyArbExecutorV3.sol\":748:11669  contract FutarchyArbExecutorV3 {... */\n      mload(0x40)\n      shl(0xe0, 0x70a08231)\n        /* \"contracts/FutarchyArbExecutorV3.sol\":8492:8523  p.sdai.balanceOf(address(this)) */\n      dup2\n      mstore\n        /* \"contracts/FutarchyArbExecutorV3.sol\":5287:5291  this */\n      address\n        /* \"contracts/FutarchyArbExecutorV3.sol\":748:11669  contract FutarchyArbExecutorV3 {... */\n      0x04\n        /* \"contracts/FutarchyArbExecutorV3.sol\":8492:8523  p.sdai.balanceOf(address(this)) */\n      dup3\n      add\n        /* \"contracts/FutarchyArbExecutorV3.sol\":748:11669  contract FutarchyArbExecutorV3 {... */\n      mstore\n      swap1\n      0x20\n      swap1\n      dup3\n      swap1\n      0x24\n      swap1\n      dup3\n      swap1\n        /* \"contracts/FutarchyArbExecutorV3.sol\":8492:8523  p.sdai.balanceOf(address(this)) */\n      gas\n      staticcall\n      swap1\n      dup2\n      iszero\n      tag_268\n      jumpi\n      0x00\n      swap2\n      tag_333\n      jumpi\n        /* \"contracts/FutarchyArbExecutorV3.sol\":8274:8846  if (leftoverYes > 0 && p.liqYes.target != address(0)) {... */\n    tag_334:\n        /* \"contracts/FutarchyArbExecutorV3.sol\":8590:8598  p.liqYes */\n      pop\n        /* \"contracts/FutarchyArbExecutorV3.sol\":8743:8760  p.liqYes.msgValue */\n      tag_335\n        /* \"contracts/FutarchyArbExecutorV3.sol\":8590:8598  p.liqYes */\n      0x02e4\n      dup12\n      add\n        /* \"contracts/FutarchyArbExecutorV3.sol\":8556:8698  _patchedCalldata(... */\n      tag_336\n        /* \"contracts/FutarchyArbExecutorV3.sol\":8590:8598  p.liqYes */\n      dup9\n      dup6\n        /* \"contracts/FutarchyArbExecutorV3.sol\":8590:8603  p.liqYes.data */\n      tag_299\n        /* \"contracts/FutarchyArbExecutorV3.sol\":8590:8598  p.liqYes */\n      tag_300\n      dup6\n      dup4\n      tag_24\n      jump\t// in\n        /* \"contracts/FutarchyArbExecutorV3.sol\":8556:8698  _patchedCalldata(... */\n    tag_336:\n        /* \"contracts/FutarchyArbExecutorV3.sol\":748:11669  contract FutarchyArbExecutorV3 {... */\n      0x40\n        /* \"contracts/FutarchyArbExecutorV3.sol\":8743:8751  p.liqYes */\n      tag_294\n        /* \"contracts/FutarchyArbExecutorV3.sol\":8722:8737  p.liqYes.target */\n      tag_345\n        /* \"contracts/FutarchyArbExecutorV3.sol\":8722:8730  p.liqYes */\n      tag_187\n      dup6\n      dup10\n      tag_24\n      jump\t// in\n        /* \"contracts/FutarchyArbExecutorV3.sol\":8722:8737  p.liqYes.target */\n    tag_345:\n        /* \"contracts/FutarchyArbExecutorV3.sol\":8743:8751  p.liqYes */\n      swap4\n      dup8\n      tag_24\n      jump\t// in\n        /* \"contracts/FutarchyArbExecutorV3.sol\":8743:8760  p.liqYes.msgValue */\n    tag_335:\n        /* \"contracts/FutarchyArbExecutorV3.sol\":8788:8804  p.sdai.balanceOf */\n      tag_347\n        /* \"contracts/FutarchyArbExecutorV3.sol\":8788:8794  p.sdai */\n      tag_81\n      dup4\n      tag_14\n      jump\t// in\n        /* \"contracts/FutarchyArbExecutorV3.sol\":8788:8804  p.sdai.balanceOf */\n    tag_347:\n        /* \"contracts/FutarchyArbExecutorV3.sol\":748:11669  contract FutarchyArbExecutorV3 {... */\n      mload(0x40)\n      shl(0xe0, 0x70a08231)\n        /* \"contracts/FutarchyArbExecutorV3.sol\":8788:8819  p.sdai.balanceOf(address(this)) */\n      dup2\n      mstore\n        /* \"contracts/FutarchyArbExecutorV3.sol\":5287:5291  this */\n      address\n        /* \"contracts/FutarchyArbExecutorV3.sol\":748:11669  contract FutarchyArbExecutorV3 {... */\n      0x04\n        /* \"contracts/FutarchyArbExecutorV3.sol\":8788:8819  p.sdai.balanceOf(address(this)) */\n      dup3\n      add\n        /* \"contracts/FutarchyArbExecutorV3.sol\":748:11669  contract FutarchyArbExecutorV3 {... */\n      mstore\n      swap2\n      swap1\n      0x20\n      swap1\n      dup4\n      swap1\n      0x24\n      swap1\n      dup3\n      swap1\n        /* \"contracts/FutarchyArbExecutorV3.sol\":8788:8819  p.sdai.balanceOf(address(this)) */\n      gas\n      staticcall\n      dup1\n      iszero\n      tag_268\n      jumpi\n        /* \"contracts/FutarchyArbExecutorV3.sol\":8788:8835  p.sdai.balanceOf(address(this)) - sdaiBeforeLiq */\n      tag_352\n        /* \"contracts/FutarchyArbExecutorV3.sol\":8788:8819  p.sdai.balanceOf(address(this)) */\n      swap3\n      0x00\n      swap2\n      tag_312\n      jumpi\n        /* \"contracts/FutarchyArbExecutorV3.sol\":8788:8835  p.sdai.balanceOf(address(this)) - sdaiBeforeLiq */\n      pop\n      tag_21\n      jump\t// in\n    tag_352:\n        /* \"contracts/FutarchyArbExecutorV3.sol\":8274:8846  if (leftoverYes > 0 && p.liqYes.target != address(0)) {... */\n      swap7\n      0x00\n      jump(tag_260)\n        /* \"contracts/FutarchyArbExecutorV3.sol\":8492:8523  p.sdai.balanceOf(address(this)) */\n    tag_333:\n      tag_359\n      swap2\n      pop\n        /* \"contracts/FutarchyArbExecutorV3.sol\":748:11669  contract FutarchyArbExecutorV3 {... */\n      0x20\n        /* \"contracts/FutarchyArbExecutorV3.sol\":8492:8523  p.sdai.balanceOf(address(this)) */\n      returndatasize\n        /* \"contracts/FutarchyArbExecutorV3.sol\":748:11669  contract FutarchyArbExecutorV3 {... */\n      0x20\n        /* \"contracts/FutarchyArbExecutorV3.sol\":8492:8523  p.sdai.balanceOf(address(this)) */\n      gt\n      tag_281\n      jumpi\n      tag_283\n      dup2\n      dup4\n      tag_10\n      jump\t// in\n    tag_359:\n      0x00\n      jump(tag_334)\n        /* \"contracts/FutarchyArbExecutorV3.sol\":8278:8326  leftoverYes > 0 && p.liqYes.target != address(0) */\n    tag_257:\n        /* \"contracts/FutarchyArbExecutorV3.sol\":8297:8326  p.liqYes.target != address(0) */\n      tag_363\n        /* \"contracts/FutarchyArbExecutorV3.sol\":8297:8305  p.liqYes */\n      swap2\n      pop\n      tag_187\n      0x02e4\n        /* \"contracts/FutarchyArbExecutorV3.sol\":8297:8312  p.liqYes.target */\n      tag_81\n        /* \"contracts/FutarchyArbExecutorV3.sol\":8297:8305  p.liqYes */\n      swap3\n      add\n      dup7\n      tag_24\n      jump\t// in\n        /* \"contracts/FutarchyArbExecutorV3.sol\":8297:8326  p.liqYes.target != address(0) */\n    tag_363:\n      iszero\n      iszero\n        /* \"contracts/FutarchyArbExecutorV3.sol\":8278:8326  leftoverYes > 0 && p.liqYes.target != address(0) */\n      dup12\n      jump(tag_258)\n        /* \"contracts/FutarchyArbExecutorV3.sol\":7896:7957  p.futarchyRouter.mergePositions(p.proposal, p.sdai, mergeAmt) */\n    tag_253:\n      dup1\n      tag_366\n      0x00\n      tag_367\n      swap4\n      tag_10\n      jump\t// in\n    tag_366:\n      dup1\n      tag_22\n      jump\t// in\n    tag_367:\n      0x00\n      jump(tag_254)\n        /* \"contracts/FutarchyArbExecutorV3.sol\":7696:7738  if (mergeAmt == 0) revert NothingToMerge() */\n    tag_234:\n        /* \"contracts/FutarchyArbExecutorV3.sol\":7722:7738  NothingToMerge() */\n      mstore(0x00, shl(0xe1, 0x16a03411))\n        /* \"contracts/FutarchyArbExecutorV3.sol\":748:11669  contract FutarchyArbExecutorV3 {... */\n      0x04\n      0x00\n        /* \"contracts/FutarchyArbExecutorV3.sol\":7722:7738  NothingToMerge() */\n      revert\n        /* \"contracts/FutarchyArbExecutorV3.sol\":7655:7686  yesOut < noOut ? yesOut : noOut */\n    tag_231:\n      dup2\n      swap3\n      jump(tag_233)\n        /* \"contracts/FutarchyArbExecutorV3.sol\":7510:7556  if (noOut < p.minSdaiNoOut) revert LowNoSdai() */\n    tag_229:\n        /* \"contracts/FutarchyArbExecutorV3.sol\":7545:7556  LowNoSdai() */\n      mstore(0x00, shl(0xe1, 0x4f68e485))\n        /* \"contracts/FutarchyArbExecutorV3.sol\":748:11669  contract FutarchyArbExecutorV3 {... */\n      0x04\n      0x00\n        /* \"contracts/FutarchyArbExecutorV3.sol\":7545:7556  LowNoSdai() */\n      revert\n        /* \"contracts/FutarchyArbExecutorV3.sol\":7337:7370  p.sdaiNo.balanceOf(address(this)) */\n    tag_215:\n      tag_372\n      swap2\n      pop\n        /* \"contracts/FutarchyArbExecutorV3.sol\":748:11669  contract FutarchyArbExecutorV3 {... */\n      0x20\n        /* \"contracts/FutarchyArbExecutorV3.sol\":7337:7370  p.sdaiNo.balanceOf(address(this)) */\n      returndatasize\n        /* \"contracts/FutarchyArbExecutorV3.sol\":748:11669  contract FutarchyArbExecutorV3 {... */\n      0x20\n        /* \"contracts/FutarchyArbExecutorV3.sol\":7337:7370  p.sdaiNo.balanceOf(address(this)) */\n      gt\n      tag_281\n      jumpi\n      tag_283\n      dup2\n      dup4\n      tag_10\n      jump\t// in\n    tag_372:\n      0x00\n      jump(tag_216)\n        /* \"contracts/FutarchyArbExecutorV3.sol\":7254:7303  if (yesOut < p.minSdaiYesOut) revert LowYesSdai() */\n    tag_208:\n        /* \"contracts/FutarchyArbExecutorV3.sol\":7291:7303  LowYesSdai() */\n      mstore(0x00, shl(0xe0, 0xe5afec19))\n        /* \"contracts/FutarchyArbExecutorV3.sol\":748:11669  contract FutarchyArbExecutorV3 {... */\n      0x04\n      0x00\n        /* \"contracts/FutarchyArbExecutorV3.sol\":7291:7303  LowYesSdai() */\n      revert\n        /* \"contracts/FutarchyArbExecutorV3.sol\":7075:7109  p.sdaiYes.balanceOf(address(this)) */\n    tag_194:\n      tag_380\n      swap2\n      pop\n        /* \"contracts/FutarchyArbExecutorV3.sol\":748:11669  contract FutarchyArbExecutorV3 {... */\n      0x20\n        /* \"contracts/FutarchyArbExecutorV3.sol\":7075:7109  p.sdaiYes.balanceOf(address(this)) */\n      returndatasize\n        /* \"contracts/FutarchyArbExecutorV3.sol\":748:11669  contract FutarchyArbExecutorV3 {... */\n      0x20\n        /* \"contracts/FutarchyArbExecutorV3.sol\":7075:7109  p.sdaiYes.balanceOf(address(this)) */\n      gt\n      tag_281\n      jumpi\n      tag_283\n      dup2\n      dup4\n      tag_10\n      jump\t// in\n    tag_380:\n      0x00\n      jump(tag_195)\n        /* \"contracts/FutarchyArbExecutorV3.sol\":6748:6831  if (yesMinted < p.splitGnoAmount || noMinted < p.splitGnoAmount) revert UnderMint() */\n    tag_181:\n        /* \"contracts/FutarchyArbExecutorV3.sol\":6820:6831  UnderMint() */\n      mstore(0x00, shl(0xe0, 0xe57c748d))\n        /* \"contracts/FutarchyArbExecutorV3.sol\":748:11669  contract FutarchyArbExecutorV3 {... */\n      0x04\n      0x00\n        /* \"contracts/FutarchyArbExecutorV3.sol\":6820:6831  UnderMint() */\n      revert\n        /* \"contracts/FutarchyArbExecutorV3.sol\":6752:6811  yesMinted < p.splitGnoAmount || noMinted < p.splitGnoAmount */\n    tag_179:\n        /* \"contracts/FutarchyArbExecutorV3.sol\":6784:6811  noMinted < p.splitGnoAmount */\n      lt\n      swap1\n      pop\n        /* \"contracts/FutarchyArbExecutorV3.sol\":6752:6811  yesMinted < p.splitGnoAmount || noMinted < p.splitGnoAmount */\n      dup8\n      0x00\n      jump(tag_180)\n        /* \"contracts/FutarchyArbExecutorV3.sol\":6517:6584  p.futarchyRouter.splitPosition(p.proposal, p.gno, p.splitGnoAmount) */\n    tag_161:\n      dup1\n      tag_366\n      0x00\n      tag_393\n      swap4\n      tag_10\n      jump\t// in\n    tag_393:\n      0x00\n      jump(tag_162)\n        /* \"contracts/FutarchyArbExecutorV3.sol\":6474:6506  p.gnoNo.balanceOf(address(this)) */\n    tag_150:\n      tag_394\n      swap2\n      swap3\n      pop\n        /* \"contracts/FutarchyArbExecutorV3.sol\":748:11669  contract FutarchyArbExecutorV3 {... */\n      0x20\n        /* \"contracts/FutarchyArbExecutorV3.sol\":6474:6506  p.gnoNo.balanceOf(address(this)) */\n      returndatasize\n        /* \"contracts/FutarchyArbExecutorV3.sol\":748:11669  contract FutarchyArbExecutorV3 {... */\n      0x20\n        /* \"contracts/FutarchyArbExecutorV3.sol\":6474:6506  p.gnoNo.balanceOf(address(this)) */\n      gt\n      tag_281\n      jumpi\n      tag_283\n      dup2\n      dup4\n      tag_10\n      jump\t// in\n    tag_394:\n      swap1\n      0x00\n      jump(tag_151)\n        /* \"contracts/FutarchyArbExecutorV3.sol\":6409:6442  p.gnoYes.balanceOf(address(this)) */\n    tag_143:\n      tag_398\n      swap2\n      swap3\n      pop\n        /* \"contracts/FutarchyArbExecutorV3.sol\":748:11669  contract FutarchyArbExecutorV3 {... */\n      0x20\n        /* \"contracts/FutarchyArbExecutorV3.sol\":6409:6442  p.gnoYes.balanceOf(address(this)) */\n      returndatasize\n        /* \"contracts/FutarchyArbExecutorV3.sol\":748:11669  contract FutarchyArbExecutorV3 {... */\n      0x20\n        /* \"contracts/FutarchyArbExecutorV3.sol\":6409:6442  p.gnoYes.balanceOf(address(this)) */\n      gt\n      tag_281\n      jumpi\n      tag_283\n      dup2\n      dup4\n      tag_10\n      jump\t// in\n    tag_398:\n      swap1\n      0x00\n      jump(tag_144)\n        /* \"contracts/FutarchyArbExecutorV3.sol\":6215:6297  if (p.splitGnoAmount == 0 || p.splitGnoAmount > gnoBought) revert BadSplitAmount() */\n    tag_132:\n        /* \"contracts/FutarchyArbExecutorV3.sol\":6281:6297  BadSplitAmount() */\n      mstore(0x00, shl(0xe2, 0x2f6703c5))\n        /* \"contracts/FutarchyArbExecutorV3.sol\":748:11669  contract FutarchyArbExecutorV3 {... */\n      0x04\n      0x00\n        /* \"contracts/FutarchyArbExecutorV3.sol\":6281:6297  BadSplitAmount() */\n      revert\n        /* \"contracts/FutarchyArbExecutorV3.sol\":6219:6272  p.splitGnoAmount == 0 || p.splitGnoAmount > gnoBought */\n    tag_130:\n        /* \"contracts/FutarchyArbExecutorV3.sol\":6244:6272  p.splitGnoAmount > gnoBought */\n      pop\n      dup6\n      dup5\n      gt\n        /* \"contracts/FutarchyArbExecutorV3.sol\":6219:6272  p.splitGnoAmount == 0 || p.splitGnoAmount > gnoBought */\n      jump(tag_131)\n        /* \"contracts/FutarchyArbExecutorV3.sol\":6092:6139  if (gnoBought < p.minGnoOut) revert LowGnoOut() */\n    tag_128:\n        /* \"contracts/FutarchyArbExecutorV3.sol\":6128:6139  LowGnoOut() */\n      mstore(0x00, shl(0xe0, 0x70462eef))\n        /* \"contracts/FutarchyArbExecutorV3.sol\":748:11669  contract FutarchyArbExecutorV3 {... */\n      0x04\n      0x00\n        /* \"contracts/FutarchyArbExecutorV3.sol\":6128:6139  LowGnoOut() */\n      revert\n        /* \"contracts/FutarchyArbExecutorV3.sol\":6025:6082  if (sdaiSpent > p.sdaiAmountInCap) revert SdaiOverspend() */\n    tag_126:\n        /* \"contracts/FutarchyArbExecutorV3.sol\":6067:6082  SdaiOverspend() */\n      mstore(0x00, shl(0xe2, 0x323b6e89))\n        /* \"contracts/FutarchyArbExecutorV3.sol\":748:11669  contract FutarchyArbExecutorV3 {... */\n      0x04\n      0x00\n        /* \"contracts/FutarchyArbExecutorV3.sol\":6067:6082  SdaiOverspend() */\n      revert\n        /* \"contracts/FutarchyArbExecutorV3.sol\":5983:6014  p.sdai.balanceOf(address(this)) */\n    tag_124:\n      tag_402\n      swap2\n      swap3\n      pop\n        /* \"contracts/FutarchyArbExecutorV3.sol\":748:11669  contract FutarchyArbExecutorV3 {... */\n      0x20\n        /* \"contracts/FutarchyArbExecutorV3.sol\":5983:6014  p.sdai.balanceOf(address(this)) */\n      returndatasize\n        /* \"contracts/FutarchyArbExecutorV3.sol\":748:11669  contract FutarchyArbExecutorV3 {... */\n      0x20\n        /* \"contracts/FutarchyArbExecutorV3.sol\":5983:6014  p.sdai.balanceOf(address(this)) */\n      gt\n      tag_281\n      jumpi\n      tag_283\n      dup2\n      dup4\n      tag_10\n      jump\t// in\n    tag_402:\n      swap1\n      0x00\n      jump(tag_117)\n        /* \"contracts/FutarchyArbExecutorV3.sol\":5758:5789  p.sdai.balanceOf(address(this)) */\n    tag_104:\n      tag_410\n      swap2\n      swap6\n      pop\n        /* \"contracts/FutarchyArbExecutorV3.sol\":748:11669  contract FutarchyArbExecutorV3 {... */\n      0x20\n        /* \"contracts/FutarchyArbExecutorV3.sol\":5758:5789  p.sdai.balanceOf(address(this)) */\n      returndatasize\n        /* \"contracts/FutarchyArbExecutorV3.sol\":748:11669  contract FutarchyArbExecutorV3 {... */\n      0x20\n        /* \"contracts/FutarchyArbExecutorV3.sol\":5758:5789  p.sdai.balanceOf(address(this)) */\n      gt\n      tag_281\n      jumpi\n      tag_283\n      dup2\n      dup4\n      tag_10\n      jump\t// in\n    tag_410:\n      swap4\n      0x00\n      jump(tag_105)\n        /* \"contracts/FutarchyArbExecutorV3.sol\":5697:5727  p.gno.balanceOf(address(this)) */\n    tag_97:\n      tag_414\n      swap2\n      swap5\n      pop\n        /* \"contracts/FutarchyArbExecutorV3.sol\":748:11669  contract FutarchyArbExecutorV3 {... */\n      0x20\n        /* \"contracts/FutarchyArbExecutorV3.sol\":5697:5727  p.gno.balanceOf(address(this)) */\n      returndatasize\n        /* \"contracts/FutarchyArbExecutorV3.sol\":748:11669  contract FutarchyArbExecutorV3 {... */\n      0x20\n        /* \"contracts/FutarchyArbExecutorV3.sol\":5697:5727  p.gno.balanceOf(address(this)) */\n      gt\n      tag_281\n      jumpi\n      tag_283\n      dup2\n      dup4\n      tag_10\n      jump\t// in\n    tag_414:\n      swap3\n      0x00\n      jump(tag_98)\n        /* \"contracts/FutarchyArbExecutorV3.sol\":5518:5667  if (p.sdaiSwapSpender != address(0) && p.sdaiAmountInCap > 0) {... */\n    tag_90:\n        /* \"contracts/FutarchyArbExecutorV3.sol\":5638:5655  p.sdaiAmountInCap */\n      tag_418\n        /* \"contracts/FutarchyArbExecutorV3.sol\":5611:5617  p.sdai */\n      swap1\n        /* \"contracts/FutarchyArbExecutorV3.sol\":5619:5636  p.sdaiSwapSpender */\n      tag_419\n        /* \"contracts/FutarchyArbExecutorV3.sol\":5611:5617  p.sdai */\n      tag_155\n      dup7\n      tag_14\n      jump\t// in\n        /* \"contracts/FutarchyArbExecutorV3.sol\":5619:5636  p.sdaiSwapSpender */\n    tag_419:\n        /* \"contracts/FutarchyArbExecutorV3.sol\":5638:5655  p.sdaiAmountInCap */\n      0x0184\n      dup6\n      add\n        /* \"contracts/FutarchyArbExecutorV3.sol\":748:11669  contract FutarchyArbExecutorV3 {... */\n      calldataload\n        /* \"contracts/FutarchyArbExecutorV3.sol\":5638:5655  p.sdaiAmountInCap */\n      swap2\n      tag_36\n      jump\t// in\n    tag_418:\n        /* \"contracts/FutarchyArbExecutorV3.sol\":5518:5667  if (p.sdaiSwapSpender != address(0) && p.sdaiAmountInCap > 0) {... */\n      0x00\n      jump(tag_91)\n        /* \"contracts/FutarchyArbExecutorV3.sol\":5522:5578  p.sdaiSwapSpender != address(0) && p.sdaiAmountInCap > 0 */\n    tag_88:\n        /* \"contracts/FutarchyArbExecutorV3.sol\":5557:5574  p.sdaiAmountInCap */\n      pop\n      0x0184\n      dup4\n      add\n        /* \"contracts/FutarchyArbExecutorV3.sol\":748:11669  contract FutarchyArbExecutorV3 {... */\n      calldataload\n        /* \"contracts/FutarchyArbExecutorV3.sol\":5557:5578  p.sdaiAmountInCap > 0 */\n      iszero\n      iszero\n        /* \"contracts/FutarchyArbExecutorV3.sol\":5522:5578  p.sdaiSwapSpender != address(0) && p.sdaiAmountInCap > 0 */\n      jump(tag_89)\n        /* \"contracts/FutarchyArbExecutorV3.sol\":5421:5452  p.sdai.balanceOf(address(this)) */\n    tag_85:\n      tag_421\n      swap2\n      pop\n        /* \"contracts/FutarchyArbExecutorV3.sol\":748:11669  contract FutarchyArbExecutorV3 {... */\n      0x20\n        /* \"contracts/FutarchyArbExecutorV3.sol\":5421:5452  p.sdai.balanceOf(address(this)) */\n      returndatasize\n        /* \"contracts/FutarchyArbExecutorV3.sol\":748:11669  contract FutarchyArbExecutorV3 {... */\n      0x20\n        /* \"contracts/FutarchyArbExecutorV3.sol\":5421:5452  p.sdai.balanceOf(address(this)) */\n      gt\n      tag_281\n      jumpi\n      tag_283\n      dup2\n      dup4\n      tag_10\n      jump\t// in\n    tag_421:\n      0x00\n      jump(tag_86)\n        /* \"contracts/FutarchyArbExecutorV3.sol\":5261:5311  if (msg.sender != address(this)) revert OnlySelf() */\n    tag_78:\n        /* \"contracts/FutarchyArbExecutorV3.sol\":5301:5311  OnlySelf() */\n      mstore(0x00, shl(0xe3, 0x029a949d))\n        /* \"contracts/FutarchyArbExecutorV3.sol\":748:11669  contract FutarchyArbExecutorV3 {... */\n      0x04\n      0x00\n        /* \"contracts/FutarchyArbExecutorV3.sol\":5301:5311  OnlySelf() */\n      revert\n        /* \"contracts/FutarchyArbExecutorV3.sol\":748:11669  contract FutarchyArbExecutorV3 {... */\n    tag_5:\n      swap1\n      0x04\n      swap2\n      0x0144\n      gt\n      tag_64\n      jumpi\n      jump\t// out\n    tag_6:\n      swap2\n      swap1\n      0x0140\n      dup4\n      add\n      gt\n      tag_64\n      jumpi\n      jump\t// out\n    tag_7:\n      jumpi(tag_64, slt(add(not(0x03), calldatasize), 0x0180))\n      tag_431\n      calldatasize\n      tag_5\n      jump\t// in\n    tag_431:\n      calldataload(0x0144)\n      0xffffffffffffffff\n      dup2\n      gt\n      tag_64\n      jumpi\n      tag_434\n      swap1\n      calldatasize\n      swap1\n      0x04\n      add\n      tag_6\n      jump\t// in\n    tag_434:\n      calldataload(0x0164)\n        /* \"contracts/FutarchyArbExecutorV3.sol\":1433:1437  this */\n      swap2\n      address\n        /* \"contracts/FutarchyArbExecutorV3.sol\":1411:1421  msg.sender */\n      caller\n        /* \"contracts/FutarchyArbExecutorV3.sol\":1411:1438  msg.sender != address(this) */\n      sub\n        /* \"contracts/FutarchyArbExecutorV3.sol\":1407:1457  if (msg.sender != address(this)) revert OnlySelf() */\n      tag_78\n      jumpi\n        /* \"contracts/FutarchyArbExecutorV3.sol\":1479:1481  10 */\n      0x0a\n        /* \"contracts/FutarchyArbExecutorV3.sol\":1471:1481  count > 10 */\n      dup4\n      gt\n        /* \"contracts/FutarchyArbExecutorV3.sol\":1467:1504  if (count > 10) revert TooManyCalls() */\n      tag_437\n      jumpi\n      0x00\n        /* \"contracts/FutarchyArbExecutorV3.sol\":1554:1563  i < count */\n    tag_439:\n      dup4\n      dup2\n      lt\n      tag_440\n      jumpi\n        /* \"contracts/FutarchyArbExecutorV3.sol\":748:11669  contract FutarchyArbExecutorV3 {... */\n      stop\n        /* \"contracts/FutarchyArbExecutorV3.sol\":1565:1568  i++ */\n    tag_440:\n        /* \"contracts/FutarchyArbExecutorV3.sol\":1600:1610  targets[i] */\n      tag_442\n      tag_187\n      dup3\n      dup5\n      tag_29\n      jump\t// in\n    tag_442:\n      sub(shl(0xa0, 0x01), 0x01)\n        /* \"contracts/FutarchyArbExecutorV3.sol\":748:11669  contract FutarchyArbExecutorV3 {... */\n      dup2\n      and\n        /* \"contracts/FutarchyArbExecutorV3.sol\":1632:1647  t == address(0) */\n      iszero\n        /* \"contracts/FutarchyArbExecutorV3.sol\":1628:1657  if (t == address(0)) continue */\n      tag_444\n      jumpi\n      0x00\n        /* \"contracts/FutarchyArbExecutorV3.sol\":1712:1724  calldatas[i] */\n      dup1\n      swap2\n      dup2\n      tag_446\n      dup6\n      dup9\n      tag_30\n      jump\t// in\n    tag_446:\n        /* \"contracts/FutarchyArbExecutorV3.sol\":748:11669  contract FutarchyArbExecutorV3 {... */\n      swap2\n      swap1\n      tag_447\n      mload(0x40)\n      dup1\n      swap5\n      dup2\n      swap4\n      tag_8\n      jump\t// in\n    tag_447:\n        /* \"contracts/FutarchyArbExecutorV3.sol\":1705:1725  t.call(calldatas[i]) */\n      sub\n      swap3\n      gas\n      call\n      tag_448\n      tag_12\n      jump\t// in\n    tag_448:\n        /* \"contracts/FutarchyArbExecutorV3.sol\":1747:1750  !ok */\n      swap1\n      iszero\n        /* \"contracts/FutarchyArbExecutorV3.sol\":1743:1768  if (!ok) _revertWith(ret) */\n      tag_449\n      jumpi\n        /* \"contracts/FutarchyArbExecutorV3.sol\":1565:1568  i++ */\n      pop\n        /* \"contracts/FutarchyArbExecutorV3.sol\":748:11669  contract FutarchyArbExecutorV3 {... */\n      0x01\n        /* \"contracts/FutarchyArbExecutorV3.sol\":1565:1568  i++ */\n      swap1\n        /* \"contracts/FutarchyArbExecutorV3.sol\":1543:1552  uint256 i */\n    tag_451:\n        /* \"contracts/FutarchyArbExecutorV3.sol\":748:11669  contract FutarchyArbExecutorV3 {... */\n      add\n        /* \"contracts/FutarchyArbExecutorV3.sol\":1543:1552  uint256 i */\n      jump(tag_439)\n        /* \"contracts/FutarchyArbExecutorV3.sol\":1743:1768  if (!ok) _revertWith(ret) */\n    tag_449:\n        /* \"contracts/FutarchyArbExecutorV3.sol\":1764:1767  ret */\n      tag_31\n      jump\t// in\n        /* \"contracts/FutarchyArbExecutorV3.sol\":1628:1657  if (t == address(0)) continue */\n    tag_444:\n        /* \"contracts/FutarchyArbExecutorV3.sol\":1649:1657  continue */\n      pop\n        /* \"contracts/FutarchyArbExecutorV3.sol\":748:11669  contract FutarchyArbExecutorV3 {... */\n      0x01\n        /* \"contracts/FutarchyArbExecutorV3.sol\":1649:1657  continue */\n      swap1\n      jump(tag_451)\n        /* \"contracts/FutarchyArbExecutorV3.sol\":1467:1504  if (count > 10) revert TooManyCalls() */\n    tag_437:\n        /* \"contracts/FutarchyArbExecutorV3.sol\":1490:1504  TooManyCalls() */\n      mstore(0x00, shl(0xe0, 0xf5dedbff))\n        /* \"contracts/FutarchyArbExecutorV3.sol\":748:11669  contract FutarchyArbExecutorV3 {... */\n      0x04\n      0x00\n        /* \"contracts/FutarchyArbExecutorV3.sol\":1490:1504  TooManyCalls() */\n      revert\n        /* \"contracts/FutarchyArbExecutorV3.sol\":748:11669  contract FutarchyArbExecutorV3 {... */\n    tag_8:\n      swap1\n      dup1\n      swap3\n      swap2\n      dup3\n      calldatacopy\n      add\n      0x00\n      dup2\n      mstore\n      swap1\n      jump\t// out\n    tag_9:\n      mstore(0x00, shl(0xe0, 0x4e487b71))\n      mstore(0x04, 0x41)\n      revert(0x00, 0x24)\n    tag_10:\n      swap1\n      0x1f\n      dup1\n      not\n      swap2\n      add\n      and\n      dup2\n      add\n      swap1\n      dup2\n      lt\n      0xffffffffffffffff\n      dup3\n      gt\n      or\n      tag_452\n      jumpi\n      0x40\n      mstore\n      jump\t// out\n    tag_452:\n      tag_9\n      jump\t// in\n    tag_11:\n      0xffffffffffffffff\n      dup2\n      gt\n      tag_452\n      jumpi\n      0x1f\n      add\n      not(0x1f)\n      and\n      0x20\n      add\n      swap1\n      jump\t// out\n    tag_12:\n      jumpi(tag_456, iszero(returndatasize))\n      returndatasize\n      swap1\n      tag_458\n      dup3\n      tag_11\n      jump\t// in\n    tag_458:\n      swap2\n      tag_459\n      mload(0x40)\n      swap4\n      dup5\n      tag_10\n      jump\t// in\n    tag_459:\n      dup3\n      mstore\n      returndatasize\n      0x00\n      0x20\n      dup5\n      add\n      returndatacopy\n      jump\t// out\n    tag_456:\n      0x60\n      swap1\n      jump\t// out\n        /* \"contracts/FutarchyArbExecutorV3.sol\":1805:2099  function executeOne(address target, bytes calldata data) external payable returns (bytes memory) {... */\n    tag_13:\n        /* \"contracts/FutarchyArbExecutorV3.sol\":1938:1942  this */\n      address\n        /* \"contracts/FutarchyArbExecutorV3.sol\":1916:1926  msg.sender */\n      caller\n        /* \"contracts/FutarchyArbExecutorV3.sol\":1916:1943  msg.sender != address(this) */\n      sub\n        /* \"contracts/FutarchyArbExecutorV3.sol\":1912:1962  if (msg.sender != address(this)) revert OnlySelf() */\n      tag_78\n      jumpi\n        /* \"contracts/FutarchyArbExecutorV3.sol\":748:11669  contract FutarchyArbExecutorV3 {... */\n      dup3\n      0x00\n      swap4\n      swap3\n      dup5\n      swap4\n      mload(0x40)\n      swap3\n      dup4\n      swap3\n      dup4\n      calldatacopy\n      dup2\n      add\n      dup5\n      dup2\n      mstore\n        /* \"contracts/FutarchyArbExecutorV3.sol\":2002:2037  target.call{value: msg.value}(data) */\n      sub\n        /* \"contracts/FutarchyArbExecutorV3.sol\":2021:2030  msg.value */\n      swap2\n      callvalue\n        /* \"contracts/FutarchyArbExecutorV3.sol\":2002:2037  target.call{value: msg.value}(data) */\n      swap1\n      gas\n      call\n      tag_463\n      tag_12\n      jump\t// in\n    tag_463:\n        /* \"contracts/FutarchyArbExecutorV3.sol\":2051:2054  !ok */\n      swap1\n      iszero\n        /* \"contracts/FutarchyArbExecutorV3.sol\":2047:2072  if (!ok) _revertWith(ret) */\n      tag_449\n      jumpi\n        /* \"contracts/FutarchyArbExecutorV3.sol\":1805:2099  function executeOne(address target, bytes calldata data) external payable returns (bytes memory) {... */\n      swap1\n      jump\t// out\n        /* \"contracts/FutarchyArbExecutorV3.sol\":748:11669  contract FutarchyArbExecutorV3 {... */\n    tag_14:\n      calldataload\n      tag_466\n      dup2\n      tag_2\n      jump\t// in\n    tag_466:\n      swap1\n      jump\t// out\n    tag_15:\n      swap1\n      dup2\n      0x20\n      swap2\n      sub\n      slt\n      tag_64\n      jumpi\n      mload\n      swap1\n      jump\t// out\n    tag_17:\n      mload(0x40)\n      returndatasize\n      0x00\n      dup3\n      returndatacopy\n      returndatasize\n      swap1\n      revert\n    tag_18:\n      swap1\n      calldataload\n      swap1\n      not(0x1e)\n      dup2\n      calldatasize\n      sub\n      add\n      dup3\n      slt\n      iszero\n      tag_64\n      jumpi\n      add\n      dup1\n      calldataload\n      swap1\n      0xffffffffffffffff\n      dup3\n      gt\n      tag_64\n      jumpi\n      0x20\n      add\n      swap2\n      dup2\n      calldatasize\n      sub\n      dup4\n      sgt\n      tag_64\n      jumpi\n      jump\t// out\n    tag_19:\n      swap3\n      swap2\n      swap3\n      tag_475\n      dup3\n      tag_11\n      jump\t// in\n    tag_475:\n      swap2\n      tag_476\n      mload(0x40)\n      swap4\n      dup5\n      tag_10\n      jump\t// in\n    tag_476:\n      dup3\n      swap5\n      dup2\n      dup5\n      mstore\n      dup2\n      dup4\n      add\n      gt\n      tag_64\n      jumpi\n      dup3\n      dup2\n      0x20\n      swap4\n      dup5\n      0x00\n      swap7\n      add\n      calldatacopy\n      add\n      add\n      mstore\n      jump\t// out\n    tag_20:\n      mstore(0x00, shl(0xe0, 0x4e487b71))\n      mstore(0x04, 0x11)\n      revert(0x00, 0x24)\n    tag_21:\n      swap2\n      swap1\n      dup3\n      sub\n      swap2\n      dup3\n      gt\n      tag_479\n      jumpi\n      jump\t// out\n    tag_479:\n      tag_20\n      jump\t// in\n    tag_22:\n      0x00\n      swap2\n      sub\n      slt\n      tag_64\n      jumpi\n      jump\t// out\n    tag_24:\n      swap1\n      calldataload\n      swap1\n      not(0xbe)\n      dup2\n      calldatasize\n      sub\n      add\n      dup3\n      slt\n      iszero\n      tag_64\n      jumpi\n      add\n      swap1\n      jump\t// out\n    tag_25:\n      calldataload\n      0xffff\n      dup2\n      and\n      dup2\n      sub\n      tag_64\n      jumpi\n      swap1\n      jump\t// out\n    tag_26:\n      dup2\n      dup2\n      sub\n      swap3\n      swap2\n      0x00\n      sgt\n      dup1\n      iszero\n      dup3\n      dup6\n      sgt\n      and\n      swap2\n      dup5\n      slt\n      and\n      or\n      tag_479\n      jumpi\n      jump\t// out\n    tag_28:\n      mstore(0x00, shl(0xe0, 0x4e487b71))\n      mstore(0x04, 0x32)\n      revert(0x00, 0x24)\n    tag_29:\n      swap1\n      0x0a\n      dup2\n      lt\n      iszero\n      tag_489\n      jumpi\n      0x05\n      shl\n      add\n      swap1\n      jump\t// out\n    tag_489:\n      tag_28\n      jump\t// in\n    tag_30:\n      0x0a\n      dup3\n      lt\n      iszero\n      tag_489\n      jumpi\n      tag_493\n      swap2\n      0x05\n      shl\n      dup2\n      add\n      swap1\n      tag_18\n      jump\t// in\n    tag_493:\n      swap1\n      swap2\n      jump\t// out\n        /* \"contracts/FutarchyArbExecutorV3.sol\":11466:11631  function _revertWith(bytes memory ret) private pure {... */\n    tag_31:\n        /* \"contracts/FutarchyArbExecutorV3.sol\":748:11669  contract FutarchyArbExecutorV3 {... */\n      dup1\n      mload\n        /* \"contracts/FutarchyArbExecutorV3.sol\":11532:11547  ret.length == 0 */\n      iszero\n        /* \"contracts/FutarchyArbExecutorV3.sol\":11528:11568  if (ret.length == 0) revert CallFailed() */\n      tag_494\n      jumpi\n        /* \"contracts/FutarchyArbExecutorV3.sol\":11578:11625  assembly { revert(add(ret, 0x20), mload(ret)) } */\n      0x20\n      dup2\n      mload\n      swap2\n      add\n      revert\n        /* \"contracts/FutarchyArbExecutorV3.sol\":11528:11568  if (ret.length == 0) revert CallFailed() */\n    tag_494:\n        /* \"contracts/FutarchyArbExecutorV3.sol\":11556:11568  CallFailed() */\n      shl(0xe0, 0x3204506f)\n        /* \"contracts/FutarchyArbExecutorV3.sol\":11546:11547  0 */\n      0x00\n        /* \"contracts/FutarchyArbExecutorV3.sol\":11556:11568  CallFailed() */\n      mstore\n      0x04\n        /* \"contracts/FutarchyArbExecutorV3.sol\":11546:11547  0 */\n      0x00\n        /* \"contracts/FutarchyArbExecutorV3.sol\":11556:11568  CallFailed() */\n      revert\n        /* \"contracts/FutarchyArbExecutorV3.sol\":748:11669  contract FutarchyArbExecutorV3 {... */\n    tag_33:\n      swap1\n      dup2\n      0x20\n      swap2\n      sub\n      slt\n      tag_64\n      jumpi\n      mload\n      dup1\n      iszero\n      iszero\n      dup2\n      sub\n      tag_64\n      jumpi\n      swap1\n      jump\t// out\n        /* \"contracts/FutarchyArbExecutorV3.sol\":10147:10510  function _ensureAllowance(IERC20 token, address spender, uint256 need) internal {... */\n    tag_36:\n      swap2\n      swap1\n      swap2\n        /* \"contracts/FutarchyArbExecutorV3.sol\":10241:10250  need == 0 */\n      dup2\n      iszero\n        /* \"contracts/FutarchyArbExecutorV3.sol\":10237:10259  if (need == 0) return; */\n      tag_500\n      jumpi\n        /* \"contracts/FutarchyArbExecutorV3.sol\":748:11669  contract FutarchyArbExecutorV3 {... */\n      mload(0x40)\n      shl(0xe1, 0x6eb1769f)\n        /* \"contracts/FutarchyArbExecutorV3.sol\":10282:10321  token.allowance(address(this), spender) */\n      dup2\n      mstore\n        /* \"contracts/FutarchyArbExecutorV3.sol\":10306:10310  this */\n      address\n        /* \"contracts/FutarchyArbExecutorV3.sol\":10282:10321  token.allowance(address(this), spender) */\n      0x04\n      dup3\n      add\n        /* \"contracts/FutarchyArbExecutorV3.sol\":748:11669  contract FutarchyArbExecutorV3 {... */\n      mstore\n      sub(shl(0xa0, 0x01), 0x01)\n      dup5\n      dup2\n      and\n      0x24\n      dup4\n      add\n      mstore\n      swap2\n      swap1\n      swap2\n      and\n      swap2\n      swap1\n        /* \"contracts/FutarchyArbExecutorV3.sol\":10282:10321  token.allowance(address(this), spender) */\n      0x20\n        /* \"contracts/FutarchyArbExecutorV3.sol\":748:11669  contract FutarchyArbExecutorV3 {... */\n      dup2\n      0x44\n      dup2\n      dup7\n        /* \"contracts/FutarchyArbExecutorV3.sol\":10282:10321  token.allowance(address(this), spender) */\n      gas\n      staticcall\n      swap1\n      dup2\n      iszero\n      tag_268\n      jumpi\n        /* \"contracts/FutarchyArbExecutorV3.sol\":10249:10250  0 */\n      0x00\n        /* \"contracts/FutarchyArbExecutorV3.sol\":10282:10321  token.allowance(address(this), spender) */\n      swap2\n      tag_505\n      jumpi\n        /* \"contracts/FutarchyArbExecutorV3.sol\":10147:10510  function _ensureAllowance(IERC20 token, address spender, uint256 need) internal {... */\n    tag_506:\n        /* \"contracts/FutarchyArbExecutorV3.sol\":10335:10345  cur < need */\n      pop\n      lt\n        /* \"contracts/FutarchyArbExecutorV3.sol\":10331:10504  if (cur < need) {... */\n      tag_507\n      jumpi\n        /* \"contracts/FutarchyArbExecutorV3.sol\":10147:10510  function _ensureAllowance(IERC20 token, address spender, uint256 need) internal {... */\n      pop\n      pop\n      jump\t// out\n        /* \"contracts/FutarchyArbExecutorV3.sol\":10331:10504  if (cur < need) {... */\n    tag_507:\n        /* \"contracts/FutarchyArbExecutorV3.sol\":748:11669  contract FutarchyArbExecutorV3 {... */\n      mload(0x40)\n      shl(0xe0, 0x095ea7b3)\n        /* \"contracts/FutarchyArbExecutorV3.sol\":10366:10391  token.approve(spender, 0) */\n      dup2\n      mstore\n      sub(shl(0xa0, 0x01), 0x01)\n        /* \"contracts/FutarchyArbExecutorV3.sol\":748:11669  contract FutarchyArbExecutorV3 {... */\n      dup4\n      and\n        /* \"contracts/FutarchyArbExecutorV3.sol\":10282:10321  token.allowance(address(this), spender) */\n      0x04\n        /* \"contracts/FutarchyArbExecutorV3.sol\":10366:10391  token.approve(spender, 0) */\n      dup3\n      add\n        /* \"contracts/FutarchyArbExecutorV3.sol\":748:11669  contract FutarchyArbExecutorV3 {... */\n      mstore\n        /* \"contracts/FutarchyArbExecutorV3.sol\":10249:10250  0 */\n      0x00\n        /* \"contracts/FutarchyArbExecutorV3.sol\":748:11669  contract FutarchyArbExecutorV3 {... */\n      0x24\n      dup3\n      add\n      mstore\n        /* \"contracts/FutarchyArbExecutorV3.sol\":10282:10321  token.allowance(address(this), spender) */\n      0x20\n        /* \"contracts/FutarchyArbExecutorV3.sol\":748:11669  contract FutarchyArbExecutorV3 {... */\n      dup2\n      dup1\n      0x44\n      dup2\n      add\n        /* \"contracts/FutarchyArbExecutorV3.sol\":10366:10391  token.approve(spender, 0) */\n      sub\n      dup2\n        /* \"contracts/FutarchyArbExecutorV3.sol\":10249:10250  0 */\n      0x00\n        /* \"contracts/FutarchyArbExecutorV3.sol\":10366:10391  token.approve(spender, 0) */\n      dup7\n      gas\n      call\n      swap1\n      dup2\n      iszero\n      tag_268\n      jumpi\n        /* \"contracts/FutarchyArbExecutorV3.sol\":10249:10250  0 */\n      0x00\n        /* \"contracts/FutarchyArbExecutorV3.sol\":10366:10391  token.approve(spender, 0) */\n      swap2\n      tag_512\n      jumpi\n        /* \"contracts/FutarchyArbExecutorV3.sol\":10331:10504  if (cur < need) {... */\n    tag_513:\n        /* \"contracts/FutarchyArbExecutorV3.sol\":10365:10391  !token.approve(spender, 0) */\n      pop\n      iszero\n        /* \"contracts/FutarchyArbExecutorV3.sol\":10361:10412  if (!token.approve(spender, 0)) revert CallFailed() */\n      tag_494\n      jumpi\n        /* \"contracts/FutarchyArbExecutorV3.sol\":748:11669  contract FutarchyArbExecutorV3 {... */\n      mload(0x40)\n      shl(0xe0, 0x095ea7b3)\n        /* \"contracts/FutarchyArbExecutorV3.sol\":10431:10472  token.approve(spender, type(uint256).max) */\n      dup2\n      mstore\n      sub(shl(0xa0, 0x01), 0x01)\n        /* \"contracts/FutarchyArbExecutorV3.sol\":748:11669  contract FutarchyArbExecutorV3 {... */\n      swap3\n      swap1\n      swap3\n      and\n        /* \"contracts/FutarchyArbExecutorV3.sol\":10282:10321  token.allowance(address(this), spender) */\n      0x04\n        /* \"contracts/FutarchyArbExecutorV3.sol\":10431:10472  token.approve(spender, type(uint256).max) */\n      dup4\n      add\n        /* \"contracts/FutarchyArbExecutorV3.sol\":748:11669  contract FutarchyArbExecutorV3 {... */\n      mstore\n      not(0x00)\n      0x24\n      dup4\n      add\n      mstore\n        /* \"contracts/FutarchyArbExecutorV3.sol\":10282:10321  token.allowance(address(this), spender) */\n      0x20\n      swap1\n        /* \"contracts/FutarchyArbExecutorV3.sol\":748:11669  contract FutarchyArbExecutorV3 {... */\n      dup3\n      swap1\n      0x44\n      swap1\n      dup3\n      swap1\n      0x00\n      swap1\n        /* \"contracts/FutarchyArbExecutorV3.sol\":10431:10472  token.approve(spender, type(uint256).max) */\n      gas\n      call\n      swap1\n      dup2\n      iszero\n      tag_268\n      jumpi\n        /* \"contracts/FutarchyArbExecutorV3.sol\":10249:10250  0 */\n      0x00\n        /* \"contracts/FutarchyArbExecutorV3.sol\":10431:10472  token.approve(spender, type(uint256).max) */\n      swap2\n      tag_519\n      jumpi\n        /* \"contracts/FutarchyArbExecutorV3.sol\":10331:10504  if (cur < need) {... */\n    tag_520:\n        /* \"contracts/FutarchyArbExecutorV3.sol\":10430:10472  !token.approve(spender, type(uint256).max) */\n      pop\n      iszero\n        /* \"contracts/FutarchyArbExecutorV3.sol\":10426:10493  if (!token.approve(spender, type(uint256).max)) revert CallFailed() */\n      tag_494\n      jumpi\n        /* \"contracts/FutarchyArbExecutorV3.sol\":10147:10510  function _ensureAllowance(IERC20 token, address spender, uint256 need) internal {... */\n      jump\t// out\n        /* \"contracts/FutarchyArbExecutorV3.sol\":10431:10472  token.approve(spender, type(uint256).max) */\n    tag_519:\n      tag_523\n      swap2\n      pop\n        /* \"contracts/FutarchyArbExecutorV3.sol\":10282:10321  token.allowance(address(this), spender) */\n      0x20\n        /* \"contracts/FutarchyArbExecutorV3.sol\":10431:10472  token.approve(spender, type(uint256).max) */\n      returndatasize\n        /* \"contracts/FutarchyArbExecutorV3.sol\":10282:10321  token.allowance(address(this), spender) */\n      0x20\n        /* \"contracts/FutarchyArbExecutorV3.sol\":10431:10472  token.approve(spender, type(uint256).max) */\n      gt\n      tag_524\n      jumpi\n    tag_525:\n      tag_526\n      dup2\n      dup4\n      tag_10\n      jump\t// in\n    tag_526:\n      dup2\n      add\n      swap1\n      tag_33\n      jump\t// in\n    tag_523:\n      0x00\n      jump(tag_520)\n    tag_524:\n      pop\n      returndatasize\n      jump(tag_525)\n        /* \"contracts/FutarchyArbExecutorV3.sol\":10366:10391  token.approve(spender, 0) */\n    tag_512:\n      tag_527\n      swap2\n      pop\n        /* \"contracts/FutarchyArbExecutorV3.sol\":10282:10321  token.allowance(address(this), spender) */\n      0x20\n        /* \"contracts/FutarchyArbExecutorV3.sol\":10366:10391  token.approve(spender, 0) */\n      returndatasize\n        /* \"contracts/FutarchyArbExecutorV3.sol\":10282:10321  token.allowance(address(this), spender) */\n      0x20\n        /* \"contracts/FutarchyArbExecutorV3.sol\":10366:10391  token.approve(spender, 0) */\n      gt\n      tag_524\n      jumpi\n      tag_526\n      dup2\n      dup4\n      tag_10\n      jump\t// in\n    tag_527:\n      0x00\n      jump(tag_513)\n        /* \"contracts/FutarchyArbExecutorV3.sol\":10282:10321  token.allowance(address(this), spender) */\n    tag_505:\n      tag_531\n      swap2\n      pop\n      0x20\n      jumpi(tag_281, gt(0x20, returndatasize))\n      tag_283\n      dup2\n      dup4\n      tag_10\n      jump\t// in\n    tag_531:\n      0x00\n      jump(tag_506)\n        /* \"contracts/FutarchyArbExecutorV3.sol\":10237:10259  if (need == 0) return; */\n    tag_500:\n        /* \"contracts/FutarchyArbExecutorV3.sol\":10252:10259  return; */\n      pop\n      pop\n      pop\n      jump\t// out\n        /* \"contracts/FutarchyArbExecutorV3.sol\":10516:10707  function _safeCall(address target, bytes memory data, uint256 value) internal {... */\n    tag_37:\n        /* \"contracts/FutarchyArbExecutorV3.sol\":5421:5427  p.sdai */\n      0x00\n        /* \"contracts/FutarchyArbExecutorV3.sol\":10516:10707  function _safeCall(address target, bytes memory data, uint256 value) internal {... */\n      swap2\n      dup3\n      swap2\n        /* \"contracts/FutarchyArbExecutorV3.sol\":10634:10665  target.call{value: value}(data) */\n      dup3\n      0x20\n      dup4\n      mload\n      swap4\n      add\n      swap2\n      gas\n      call\n      tag_535\n      tag_12\n      jump\t// in\n    tag_535:\n        /* \"contracts/FutarchyArbExecutorV3.sol\":10679:10682  !ok */\n      swap1\n      iszero\n        /* \"contracts/FutarchyArbExecutorV3.sol\":10675:10700  if (!ok) _revertWith(ret) */\n      tag_449\n      jumpi\n        /* \"contracts/FutarchyArbExecutorV3.sol\":10516:10707  function _safeCall(address target, bytes memory data, uint256 value) internal {... */\n      pop\n      jump\t// out\n    tag_38:\n      swap1\n        /* \"contracts/FutarchyArbExecutorV3.sol\":10634:10665  target.call{value: value}(data) */\n      0x00\n        /* \"contracts/FutarchyArbExecutorV3.sol\":10516:10707  function _safeCall(address target, bytes memory data, uint256 value) internal {... */\n      swap3\n      swap2\n      dup4\n      swap3\n        /* \"contracts/FutarchyArbExecutorV3.sol\":10634:10665  target.call{value: value}(data) */\n      0x20\n      dup4\n      mload\n      swap4\n      add\n      swap2\n      gas\n      call\n      tag_535\n      tag_12\n      jump\t// in\n        /* \"contracts/FutarchyArbExecutorV3.sol\":748:11669  contract FutarchyArbExecutorV3 {... */\n    tag_39:\n      swap1\n        /* \"contracts/FutarchyArbExecutorV3.sol\":11046:11048  32 */\n      0x20\n        /* \"contracts/FutarchyArbExecutorV3.sol\":748:11669  contract FutarchyArbExecutorV3 {... */\n      dup3\n      add\n      dup1\n      swap3\n      gt\n      tag_479\n      jumpi\n      jump\t// out\n    tag_40:\n      0xffff\n      and\n      0x2710\n      sub\n      swap1\n      0xffff\n      dup3\n      gt\n      tag_479\n      jumpi\n      jump\t// out\n    tag_42:\n      dup2\n      dup2\n      mul\n      swap3\n      swap2\n      dup2\n      iszero\n      swap2\n      dup5\n      div\n      eq\n      or\n      iszero\n      tag_479\n      jumpi\n      jump\t// out\n        /* \"contracts/FutarchyArbExecutorV3.sol\":10713:11460  function _patchedCalldata(... */\n    tag_44:\n      swap2\n      swap1\n      swap5\n      swap4\n        /* \"contracts/FutarchyArbExecutorV3.sol\":10940:10953  cd = template */\n      dup3\n        /* \"contracts/FutarchyArbExecutorV3.sol\":748:11669  contract FutarchyArbExecutorV3 {... */\n      swap6\n      dup4\n      mload\n        /* \"contracts/FutarchyArbExecutorV3.sol\":11046:11048  32 */\n      0x20\n        /* \"contracts/FutarchyArbExecutorV3.sol\":748:11669  contract FutarchyArbExecutorV3 {... */\n      dup3\n      add\n      swap1\n      dup2\n      dup4\n      gt\n      tag_479\n      jumpi\n        /* \"contracts/FutarchyArbExecutorV3.sol\":11019:11048  cd.length < amountOffset + 32 */\n      lt\n        /* \"contracts/FutarchyArbExecutorV3.sol\":11015:11074  if (cd.length < amountOffset + 32) revert AmountOffsetOOB() */\n      tag_549\n      jumpi\n        /* \"contracts/FutarchyArbExecutorV3.sol\":11084:11145  assembly { mstore(add(add(cd, 32), amountOffset), amountIn) } */\n      dup4\n      add\n        /* \"contracts/FutarchyArbExecutorV3.sol\":11046:11048  32 */\n      0x20\n        /* \"contracts/FutarchyArbExecutorV3.sol\":11084:11145  assembly { mstore(add(add(cd, 32), amountOffset), amountIn) } */\n      add\n      dup3\n      swap1\n      mstore\n        /* \"contracts/FutarchyArbExecutorV3.sol\":11158:11191  minOutOffset != type(uint256).max */\n      0x01\n      dup5\n      add\n        /* \"contracts/FutarchyArbExecutorV3.sol\":11154:11454  if (minOutOffset != type(uint256).max) {... */\n      tag_551\n      jumpi\n        /* \"contracts/FutarchyArbExecutorV3.sol\":10713:11460  function _patchedCalldata(... */\n    tag_552:\n      pop\n      pop\n      pop\n      pop\n      jump\t// out\n        /* \"contracts/FutarchyArbExecutorV3.sol\":11154:11454  if (minOutOffset != type(uint256).max) {... */\n    tag_551:\n        /* \"contracts/FutarchyArbExecutorV3.sol\":748:11669  contract FutarchyArbExecutorV3 {... */\n      0xffff\n      dup2\n      and\n      tag_553\n      jumpi\n        /* \"contracts/FutarchyArbExecutorV3.sol\":11224:11298  (slippageBps == 0) ? amountIn : (amountIn * (10000 - slippageBps)) / 10000 */\n      pop\n      swap2\n    tag_555:\n        /* \"contracts/FutarchyArbExecutorV3.sol\":748:11669  contract FutarchyArbExecutorV3 {... */\n      dup2\n      mload\n        /* \"contracts/FutarchyArbExecutorV3.sol\":11328:11345  minOutOffset + 32 */\n      tag_556\n      dup3\n      tag_39\n      jump\t// in\n    tag_556:\n      gt\n        /* \"contracts/FutarchyArbExecutorV3.sol\":11312:11371  if (cd.length < minOutOffset + 32) revert MinOutOffsetOOB() */\n      tag_557\n      jumpi\n        /* \"contracts/FutarchyArbExecutorV3.sol\":11385:11444  assembly { mstore(add(add(cd, 32), minOutOffset), minOut) } */\n      add\n        /* \"contracts/FutarchyArbExecutorV3.sol\":11046:11048  32 */\n      0x20\n        /* \"contracts/FutarchyArbExecutorV3.sol\":11385:11444  assembly { mstore(add(add(cd, 32), minOutOffset), minOut) } */\n      add\n      mstore\n        /* \"contracts/FutarchyArbExecutorV3.sol\":11154:11454  if (minOutOffset != type(uint256).max) {... */\n      0x00\n      dup1\n      dup1\n      dup1\n      jump(tag_552)\n        /* \"contracts/FutarchyArbExecutorV3.sol\":11312:11371  if (cd.length < minOutOffset + 32) revert MinOutOffsetOOB() */\n    tag_557:\n        /* \"contracts/FutarchyArbExecutorV3.sol\":11354:11371  MinOutOffsetOOB() */\n      mstore(0x00, shl(0xe2, 0x0f56d5d1))\n      revert(0x00, 0x04)\n        /* \"contracts/FutarchyArbExecutorV3.sol\":11224:11298  (slippageBps == 0) ? amountIn : (amountIn * (10000 - slippageBps)) / 10000 */\n    tag_553:\n        /* \"contracts/FutarchyArbExecutorV3.sol\":11256:11298  (amountIn * (10000 - slippageBps)) / 10000 */\n      tag_559\n        /* \"contracts/FutarchyArbExecutorV3.sol\":11269:11288  10000 - slippageBps */\n      swap2\n        /* \"contracts/FutarchyArbExecutorV3.sol\":11257:11289  amountIn * (10000 - slippageBps) */\n      tag_560\n        /* \"contracts/FutarchyArbExecutorV3.sol\":11269:11288  10000 - slippageBps */\n      tag_561\n        /* \"contracts/FutarchyArbExecutorV3.sol\":11257:11289  amountIn * (10000 - slippageBps) */\n      tag_562\n        /* \"contracts/FutarchyArbExecutorV3.sol\":11269:11288  10000 - slippageBps */\n      swap4\n      tag_40\n      jump\t// in\n    tag_561:\n        /* \"contracts/FutarchyArbExecutorV3.sol\":748:11669  contract FutarchyArbExecutorV3 {... */\n      0xffff\n      and\n      swap1\n      jump\n        /* \"contracts/FutarchyArbExecutorV3.sol\":11257:11289  amountIn * (10000 - slippageBps) */\n    tag_560:\n      swap1\n      tag_42\n      jump\t// in\n    tag_562:\n        /* \"contracts/FutarchyArbExecutorV3.sol\":11269:11274  10000 */\n      0x2710\n        /* \"contracts/FutarchyArbExecutorV3.sol\":748:11669  contract FutarchyArbExecutorV3 {... */\n      swap1\n      div\n      swap1\n      jump\n        /* \"contracts/FutarchyArbExecutorV3.sol\":11256:11298  (amountIn * (10000 - slippageBps)) / 10000 */\n    tag_559:\n        /* \"contracts/FutarchyArbExecutorV3.sol\":11224:11298  (slippageBps == 0) ? amountIn : (amountIn * (10000 - slippageBps)) / 10000 */\n      swap2\n      jump(tag_555)\n        /* \"contracts/FutarchyArbExecutorV3.sol\":11015:11074  if (cd.length < amountOffset + 32) revert AmountOffsetOOB() */\n    tag_549:\n        /* \"contracts/FutarchyArbExecutorV3.sol\":11057:11074  AmountOffsetOOB() */\n      mstore(0x00, shl(0xe0, 0xf3e07dc3))\n      revert(0x00, 0x04)\n\n    auxdata: 0xa2646970667358221220fea0efbe9d7b7c818f391aa1f5760404e0520232f8c80d66495e8cf4872de22064736f6c63430008210033\n}\n","methodIdentifiers":{"execute10(address[10],bytes[10],uint256)":"f75be35c","executeOne(address,bytes)":"3e16b19c","sellConditional((address,address,address,address,address,address,address,address,address,address,bytes,uint256,uint256,uint256,uint256,address,bytes,address,bytes,address,uint256,uint256,address,(address,bytes,uint256,uint256,uint256,uint16),(address,bytes,uint256,uint256,uint256,uint16),int256))":"de96eb3d"},"id":0}