{
  "abi": [
    {
      "type": "receive",
      "stateMutability": "payable"
    },
    {
      "type": "function",
      "name": "execute",
      "inputs": [
        {
          "name": "targets",
          "type": "address[]",
          "internalType": "address[]"
        },
        {
          "name": "values",
          "type": "uint256[]",
          "internalType": "uint256[]"
        },
        {
          "name": "calldatas",
          "type": "bytes[]",
          "internalType": "bytes[]"
        }
      ],
      "outputs": [],
      "stateMutability": "payable"
    },
    {
      "type": "function",
      "name": "executeWithResults",
      "inputs": [
        {
          "name": "targets",
          "type": "address[]",
          "internalType": "address[]"
        },
        {
          "name": "values",
          "type": "uint256[]",
          "internalType": "uint256[]"
        },
        {
          "name": "calldatas",
          "type": "bytes[]",
          "internalType": "bytes[]"
        }
      ],
      "outputs": [
        {
          "name": "results",
          "type": "bytes[]",
          "internalType": "bytes[]"
        }
      ],
      "stateMutability": "payable"
    },
    {
      "type": "event",
      "name": "BatchExecuted",
      "inputs": [
        {
          "name": "callsExecuted",
          "type": "uint256",
          "indexed": false,
          "internalType": "uint256"
        }
      ],
      "anonymous": false
    },
    {
      "type": "event",
      "name": "CallExecuted",
      "inputs": [
        {
          "name": "index",
          "type": "uint256",
          "indexed": false,
          "internalType": "uint256"
        },
        {
          "name": "success",
          "type": "bool",
          "indexed": false,
          "internalType": "bool"
        }
      ],
      "anonymous": false
    },
    {
      "type": "error",
      "name": "CallFailed",
      "inputs": []
    },
    {
      "type": "error",
      "name": "LengthMismatch",
      "inputs": []
    },
    {
      "type": "error",
      "name": "OnlySelf",
      "inputs": []
    }
  ],
  "bytecode": {
    "object": "0x608080604052346015576104fd908161001a8239f35b5f80fdfe6080604052600436101561001a575b3615610018575f80fd5b005b5f3560e01c80639a35457a146101445763a516a5bf0361000e5761003d36610337565b9492913033036101355780850361012657858503610126575f5b85811061008b577fe9cc9bbe7de1cbb097a6357ca3182909488efe8d793e25665befc064a02d10a7602087604051908152a1005b5f806100a061009b848a8a6103fe565b610422565b6100ab8486896103fe565b356100b7858c89610436565b9190826040519384928337810185815203925af1906100d4610478565b508115610117576040805182815292151560208401526001927f55fefe71ce7a79200b7e0246b36e909e3732f04ea77a950452fdfd3475ee82449190a101610057565b633204506f60e01b5f5260045ffd5b631fec674760e31b5f5260045ffd5b63029a949d60e31b5f5260045ffd5b61014d36610337565b939290949194303303610135578584036101265784840361012657610179610174856103e6565b6103ac565b84815295601f19610189866103e6565b015f5b8181106102f15750505f5b85811061024757877fe9cc9bbe7de1cbb097a6357ca3182909488efe8d793e25665befc064a02d10a7602088604051908152a16040518091602082016020835281518091526040830190602060408260051b8601019301915f905b82821061020157505050500390f35b91936001919395506020808092603f198a82030186528189518051918291828552018484015e5f838284010152601f8019910116010196019201920185949391926101f2565b5f8061025761009b848a8a6103fe565b6102628486896103fe565b3561026e858c89610436565b9190826040519384928337810185815203925af19061028b610478565b918015610117576102e87f55fefe71ce7a79200b7e0246b36e909e3732f04ea77a950452fdfd3475ee8244916001946102c4858e6104b3565b526102cf848d6104b3565b5060408051858152911515602083015290918291820190565b0390a101610197565b806060602080938c0101520161018c565b9181601f840112156103335782359167ffffffffffffffff8311610333576020808501948460051b01011161033357565b5f80fd5b60606003198201126103335760043567ffffffffffffffff8111610333578161036291600401610302565b9290929160243567ffffffffffffffff8111610333578161038591600401610302565b929092916044359067ffffffffffffffff8211610333576103a891600401610302565b9091565b6040519190601f01601f1916820167ffffffffffffffff8111838210176103d257604052565b634e487b7160e01b5f52604160045260245ffd5b67ffffffffffffffff81116103d25760051b60200190565b919081101561040e5760051b0190565b634e487b7160e01b5f52603260045260245ffd5b356001600160a01b03811681036103335790565b919081101561040e5760051b81013590601e198136030182121561033357019081359167ffffffffffffffff8311610333576020018236038113610333579190565b3d156104ae573d9067ffffffffffffffff82116103d2576104a2601f8301601f19166020016103ac565b9182523d5f602084013e565b606090565b805182101561040e5760209160051b01019056fea2646970667358221220132d239a818d72a5477563e62c8c5bcaae9c7bb2968bd91dedcbfafcac3eb3e664736f6c63430008210033",
    "linkReferences": {}
  },
  "methodIdentifiers": {
    "execute(address[],uint256[],bytes[])": "a516a5bf",
    "executeWithResults(address[],uint256[],bytes[])": "9a35457a"
  },
  "id": 6
}