{"abi":[{"type":"receive","stateMutability":"payable"},{"type":"function","name":"execute","inputs":[{"name":"targets","type":"address[]","internalType":"address[]"},{"name":"values","type":"uint256[]","internalType":"uint256[]"},{"name":"calldatas","type":"bytes[]","internalType":"bytes[]"}],"outputs":[],"stateMutability":"payable"},{"type":"function","name":"executeWithResults","inputs":[{"name":"targets","type":"address[]","internalType":"address[]"},{"name":"values","type":"uint256[]","internalType":"uint256[]"},{"name":"calldatas","type":"bytes[]","internalType":"bytes[]"}],"outputs":[{"name":"results","type":"bytes[]","internalType":"bytes[]"}],"stateMutability":"payable"},{"type":"event","name":"BatchExecuted","inputs":[{"name":"callsExecuted","type":"uint256","indexed":false,"internalType":"uint256"}],"anonymous":false},{"type":"event","name":"CallExecuted","inputs":[{"name":"index","type":"uint256","indexed":false,"internalType":"uint256"},{"name":"success","type":"bool","indexed":false,"internalType":"bool"}],"anonymous":false},{"type":"error","name":"CallFailed","inputs":[]},{"type":"error","name":"LengthMismatch","inputs":[]},{"type":"error","name":"OnlySelf","inputs":[]}],"bytecode":{"object":"0x608080604052346015576104fd908161001a8239f35b5f80fdfe6080604052600436101561001a575b3615610018575f80fd5b005b5f3560e01c80639a35457a146101445763a516a5bf0361000e5761003d36610337565b9492913033036101355780850361012657858503610126575f5b85811061008b577fe9cc9bbe7de1cbb097a6357ca3182909488efe8d793e25665befc064a02d10a7602087604051908152a1005b5f806100a061009b848a8a6103fe565b610422565b6100ab8486896103fe565b356100b7858c89610436565b9190826040519384928337810185815203925af1906100d4610478565b508115610117576040805182815292151560208401526001927f55fefe71ce7a79200b7e0246b36e909e3732f04ea77a950452fdfd3475ee82449190a101610057565b633204506f60e01b5f5260045ffd5b631fec674760e31b5f5260045ffd5b63029a949d60e31b5f5260045ffd5b61014d36610337565b939290949194303303610135578584036101265784840361012657610179610174856103e6565b6103ac565b84815295601f19610189866103e6565b015f5b8181106102f15750505f5b85811061024757877fe9cc9bbe7de1cbb097a6357ca3182909488efe8d793e25665befc064a02d10a7602088604051908152a16040518091602082016020835281518091526040830190602060408260051b8601019301915f905b82821061020157505050500390f35b91936001919395506020808092603f198a82030186528189518051918291828552018484015e5f838284010152601f8019910116010196019201920185949391926101f2565b5f8061025761009b848a8a6103fe565b6102628486896103fe565b3561026e858c89610436565b9190826040519384928337810185815203925af19061028b610478565b918015610117576102e87f55fefe71ce7a79200b7e0246b36e909e3732f04ea77a950452fdfd3475ee8244916001946102c4858e6104b3565b526102cf848d6104b3565b5060408051858152911515602083015290918291820190565b0390a101610197565b806060602080938c0101520161018c565b9181601f840112156103335782359167ffffffffffffffff8311610333576020808501948460051b01011161033357565b5f80fd5b60606003198201126103335760043567ffffffffffffffff8111610333578161036291600401610302565b9290929160243567ffffffffffffffff8111610333578161038591600401610302565b929092916044359067ffffffffffffffff8211610333576103a891600401610302565b9091565b6040519190601f01601f1916820167ffffffffffffffff8111838210176103d257604052565b634e487b7160e01b5f52604160045260245ffd5b67ffffffffffffffff81116103d25760051b60200190565b919081101561040e5760051b0190565b634e487b7160e01b5f52603260045260245ffd5b356001600160a01b03811681036103335790565b919081101561040e5760051b81013590601e198136030182121561033357019081359167ffffffffffffffff8311610333576020018236038113610333579190565b3d156104ae573d9067ffffffffffffffff82116103d2576104a2601f8301601f19166020016103ac565b9182523d5f602084013e565b606090565b805182101561040e5760209160051b01019056fea2646970667358221220132d239a818d72a5477563e62c8c5bcaae9c7bb2968bd91dedcbfafcac3eb3e664736f6c63430008210033","linkReferences":{}},"assembly":"    /* \"contracts/FutarchyBatchExecutorSimple.sol\":282:2839  contract FutarchyBatchExecutorSimple {... */\n  0x80\n  dup1\n  0x40\n  mstore\n  jumpi(tag_1, callvalue)\n  dataSize(sub_0)\n  swap1\n  dup2\n  dataOffset(sub_0)\n  dup3\n  codecopy\n  return\ntag_1:\n  0x00\n  dup1\n  revert\nstop\n\nsub_0: assembly {\n        /* \"contracts/FutarchyBatchExecutorSimple.sol\":282:2839  contract FutarchyBatchExecutorSimple {... */\n      mstore(0x40, 0x80)\n      jumpi(tag_11, iszero(lt(calldatasize, 0x04)))\n    tag_12:\n      jumpi(tag_13, iszero(calldatasize))\n      0x00\n      dup1\n      revert\n    tag_13:\n      stop\n    tag_11:\n      shr(0xe0, calldataload(0x00))\n      dup1\n      0x9a35457a\n      eq\n      tag_15\n      jumpi\n      0xa516a5bf\n      sub\n      tag_12\n      jumpi\n      tag_19\n      calldatasize\n      tag_2\n      jump\t// in\n    tag_19:\n        /* \"contracts/FutarchyBatchExecutorSimple.sol\":1067:1071  this */\n      swap5\n      swap3\n      swap2\n      address\n        /* \"contracts/FutarchyBatchExecutorSimple.sol\":1045:1055  msg.sender */\n      caller\n        /* \"contracts/FutarchyBatchExecutorSimple.sol\":1045:1072  msg.sender != address(this) */\n      sub\n        /* \"contracts/FutarchyBatchExecutorSimple.sol\":1041:1091  if (msg.sender != address(this)) revert OnlySelf() */\n      tag_20\n      jumpi\n        /* \"contracts/FutarchyBatchExecutorSimple.sol\":1148:1179  targets.length != values.length */\n      dup1\n      dup6\n      sub\n        /* \"contracts/FutarchyBatchExecutorSimple.sol\":1144:1204  if (targets.length != values.length) revert LengthMismatch() */\n      tag_24\n      jumpi\n        /* \"contracts/FutarchyBatchExecutorSimple.sol\":1218:1252  targets.length != calldatas.length */\n      dup6\n      dup6\n      sub\n        /* \"contracts/FutarchyBatchExecutorSimple.sol\":1214:1277  if (targets.length != calldatas.length) revert LengthMismatch() */\n      tag_24\n      jumpi\n        /* \"contracts/FutarchyBatchExecutorSimple.sol\":282:2839  contract FutarchyBatchExecutorSimple {... */\n      0x00\n        /* \"contracts/FutarchyBatchExecutorSimple.sol\":1337:1355  i < targets.length */\n    tag_26:\n      dup6\n      dup2\n      lt\n      tag_27\n      jumpi\n        /* \"contracts/FutarchyBatchExecutorSimple.sol\":1612:1641  BatchExecuted(targets.length) */\n      0xe9cc9bbe7de1cbb097a6357ca3182909488efe8d793e25665befc064a02d10a7\n        /* \"contracts/FutarchyBatchExecutorSimple.sol\":282:2839  contract FutarchyBatchExecutorSimple {... */\n      0x20\n      dup8\n      mload(0x40)\n      swap1\n      dup2\n      mstore\n        /* \"contracts/FutarchyBatchExecutorSimple.sol\":1612:1641  BatchExecuted(targets.length) */\n      log1\n        /* \"contracts/FutarchyBatchExecutorSimple.sol\":282:2839  contract FutarchyBatchExecutorSimple {... */\n      stop\n        /* \"contracts/FutarchyBatchExecutorSimple.sol\":1322:1335  uint256 i = 0 */\n    tag_27:\n        /* \"contracts/FutarchyBatchExecutorSimple.sol\":282:2839  contract FutarchyBatchExecutorSimple {... */\n      0x00\n        /* \"contracts/FutarchyBatchExecutorSimple.sol\":1390:1400  targets[i] */\n      dup1\n      tag_29\n      tag_30\n      dup5\n      dup11\n      dup11\n      tag_5\n      jump\t// in\n    tag_30:\n      tag_6\n      jump\t// in\n    tag_29:\n        /* \"contracts/FutarchyBatchExecutorSimple.sol\":1413:1422  values[i] */\n      tag_31\n      dup5\n      dup7\n      dup10\n      tag_5\n      jump\t// in\n    tag_31:\n        /* \"contracts/FutarchyBatchExecutorSimple.sol\":282:2839  contract FutarchyBatchExecutorSimple {... */\n      calldataload\n        /* \"contracts/FutarchyBatchExecutorSimple.sol\":1424:1436  calldatas[i] */\n      tag_32\n      dup6\n      dup13\n      dup10\n      tag_7\n      jump\t// in\n    tag_32:\n        /* \"contracts/FutarchyBatchExecutorSimple.sol\":282:2839  contract FutarchyBatchExecutorSimple {... */\n      swap2\n      swap1\n      dup3\n      mload(0x40)\n      swap4\n      dup5\n      swap3\n      dup4\n      calldatacopy\n      dup2\n      add\n      dup6\n      dup2\n      mstore\n        /* \"contracts/FutarchyBatchExecutorSimple.sol\":1390:1437  targets[i].call{value: values[i]}(calldatas[i]) */\n      sub\n      swap3\n      gas\n      call\n      swap1\n      tag_33\n      tag_8\n      jump\t// in\n    tag_33:\n      pop\n        /* \"contracts/FutarchyBatchExecutorSimple.sol\":1455:1463  !success */\n      dup2\n      iszero\n        /* \"contracts/FutarchyBatchExecutorSimple.sol\":1451:1484  if (!success) revert CallFailed() */\n      tag_34\n      jumpi\n        /* \"contracts/FutarchyBatchExecutorSimple.sol\":282:2839  contract FutarchyBatchExecutorSimple {... */\n      0x40\n      dup1\n      mload\n      dup3\n      dup2\n      mstore\n      swap3\n      iszero\n      iszero\n      0x20\n      dup5\n      add\n      mstore\n      0x01\n      swap3\n        /* \"contracts/FutarchyBatchExecutorSimple.sol\":1503:1527  CallExecuted(i, success) */\n      0x55fefe71ce7a79200b7e0246b36e909e3732f04ea77a950452fdfd3475ee8244\n      swap2\n        /* \"contracts/FutarchyBatchExecutorSimple.sol\":282:2839  contract FutarchyBatchExecutorSimple {... */\n      swap1\n        /* \"contracts/FutarchyBatchExecutorSimple.sol\":1503:1527  CallExecuted(i, success) */\n      log1\n        /* \"contracts/FutarchyBatchExecutorSimple.sol\":282:2839  contract FutarchyBatchExecutorSimple {... */\n      add\n        /* \"contracts/FutarchyBatchExecutorSimple.sol\":1322:1335  uint256 i = 0 */\n      jump(tag_26)\n        /* \"contracts/FutarchyBatchExecutorSimple.sol\":1451:1484  if (!success) revert CallFailed() */\n    tag_34:\n        /* \"contracts/FutarchyBatchExecutorSimple.sol\":2537:2549  CallFailed() */\n      shl(0xe0, 0x3204506f)\n        /* \"contracts/FutarchyBatchExecutorSimple.sol\":282:2839  contract FutarchyBatchExecutorSimple {... */\n      0x00\n        /* \"contracts/FutarchyBatchExecutorSimple.sol\":1472:1484  CallFailed() */\n      mstore\n        /* \"contracts/FutarchyBatchExecutorSimple.sol\":282:2839  contract FutarchyBatchExecutorSimple {... */\n      0x04\n      0x00\n        /* \"contracts/FutarchyBatchExecutorSimple.sol\":1472:1484  CallFailed() */\n      revert\n        /* \"contracts/FutarchyBatchExecutorSimple.sol\":1214:1277  if (targets.length != calldatas.length) revert LengthMismatch() */\n    tag_24:\n        /* \"contracts/FutarchyBatchExecutorSimple.sol\":2214:2230  LengthMismatch() */\n      shl(0xe3, 0x1fec6747)\n        /* \"contracts/FutarchyBatchExecutorSimple.sol\":282:2839  contract FutarchyBatchExecutorSimple {... */\n      0x00\n        /* \"contracts/FutarchyBatchExecutorSimple.sol\":1261:1277  LengthMismatch() */\n      mstore\n        /* \"contracts/FutarchyBatchExecutorSimple.sol\":282:2839  contract FutarchyBatchExecutorSimple {... */\n      0x04\n      0x00\n        /* \"contracts/FutarchyBatchExecutorSimple.sol\":1261:1277  LengthMismatch() */\n      revert\n        /* \"contracts/FutarchyBatchExecutorSimple.sol\":1041:1091  if (msg.sender != address(this)) revert OnlySelf() */\n    tag_20:\n        /* \"contracts/FutarchyBatchExecutorSimple.sol\":2150:2160  OnlySelf() */\n      shl(0xe3, 0x029a949d)\n        /* \"contracts/FutarchyBatchExecutorSimple.sol\":282:2839  contract FutarchyBatchExecutorSimple {... */\n      0x00\n        /* \"contracts/FutarchyBatchExecutorSimple.sol\":1081:1091  OnlySelf() */\n      mstore\n        /* \"contracts/FutarchyBatchExecutorSimple.sol\":282:2839  contract FutarchyBatchExecutorSimple {... */\n      0x04\n      0x00\n        /* \"contracts/FutarchyBatchExecutorSimple.sol\":1081:1091  OnlySelf() */\n      revert\n        /* \"contracts/FutarchyBatchExecutorSimple.sol\":282:2839  contract FutarchyBatchExecutorSimple {... */\n    tag_15:\n      tag_37\n      calldatasize\n      tag_2\n      jump\t// in\n    tag_37:\n        /* \"contracts/FutarchyBatchExecutorSimple.sol\":2136:2140  this */\n      swap4\n      swap3\n      swap1\n      swap5\n      swap2\n      swap5\n      address\n        /* \"contracts/FutarchyBatchExecutorSimple.sol\":2114:2124  msg.sender */\n      caller\n        /* \"contracts/FutarchyBatchExecutorSimple.sol\":2114:2141  msg.sender != address(this) */\n      sub\n        /* \"contracts/FutarchyBatchExecutorSimple.sol\":2110:2160  if (msg.sender != address(this)) revert OnlySelf() */\n      tag_20\n      jumpi\n        /* \"contracts/FutarchyBatchExecutorSimple.sol\":2174:2205  targets.length != values.length */\n      dup6\n      dup5\n      sub\n        /* \"contracts/FutarchyBatchExecutorSimple.sol\":2170:2230  if (targets.length != values.length) revert LengthMismatch() */\n      tag_24\n      jumpi\n        /* \"contracts/FutarchyBatchExecutorSimple.sol\":2244:2278  targets.length != calldatas.length */\n      dup5\n      dup5\n      sub\n        /* \"contracts/FutarchyBatchExecutorSimple.sol\":2240:2303  if (targets.length != calldatas.length) revert LengthMismatch() */\n      tag_24\n      jumpi\n        /* \"contracts/FutarchyBatchExecutorSimple.sol\":282:2839  contract FutarchyBatchExecutorSimple {... */\n      tag_44\n      tag_45\n      dup6\n      tag_4\n      jump\t// in\n    tag_45:\n      tag_3\n      jump\t// in\n    tag_44:\n      dup5\n      dup2\n      mstore\n      swap6\n      not(0x1f)\n      tag_46\n      dup7\n      tag_4\n      jump\t// in\n    tag_46:\n      add\n      0x00\n    tag_47:\n      dup2\n      dup2\n      lt\n      tag_48\n      jumpi\n        /* \"contracts/FutarchyBatchExecutorSimple.sol\":2367:2380  uint256 i = 0 */\n      pop\n      pop\n        /* \"contracts/FutarchyBatchExecutorSimple.sol\":282:2839  contract FutarchyBatchExecutorSimple {... */\n      0x00\n        /* \"contracts/FutarchyBatchExecutorSimple.sol\":2382:2400  i < targets.length */\n    tag_50:\n      dup6\n      dup2\n      lt\n      tag_51\n      jumpi\n        /* \"contracts/FutarchyBatchExecutorSimple.sol\":282:2839  contract FutarchyBatchExecutorSimple {... */\n      dup8\n        /* \"contracts/FutarchyBatchExecutorSimple.sol\":2710:2739  BatchExecuted(targets.length) */\n      0xe9cc9bbe7de1cbb097a6357ca3182909488efe8d793e25665befc064a02d10a7\n        /* \"contracts/FutarchyBatchExecutorSimple.sol\":282:2839  contract FutarchyBatchExecutorSimple {... */\n      0x20\n      dup9\n      mload(0x40)\n      swap1\n      dup2\n      mstore\n        /* \"contracts/FutarchyBatchExecutorSimple.sol\":2710:2739  BatchExecuted(targets.length) */\n      log1\n        /* \"contracts/FutarchyBatchExecutorSimple.sol\":282:2839  contract FutarchyBatchExecutorSimple {... */\n      mload(0x40)\n      dup1\n      swap2\n      0x20\n      dup3\n      add\n      0x20\n      dup4\n      mstore\n      dup2\n      mload\n      dup1\n      swap2\n      mstore\n      0x40\n      dup4\n      add\n      swap1\n      0x20\n      0x40\n      dup3\n      0x05\n      shl\n      dup7\n      add\n      add\n      swap4\n      add\n      swap2\n      0x00\n      swap1\n    tag_53:\n      dup3\n      dup3\n      lt\n      tag_54\n      jumpi\n      pop\n      pop\n      pop\n      pop\n      sub\n      swap1\n      return\n    tag_54:\n      swap2\n      swap4\n      0x01\n      swap2\n      swap4\n      swap6\n      pop\n      0x20\n      dup1\n      dup1\n      swap3\n      not(0x3f)\n      dup11\n      dup3\n      sub\n      add\n      dup7\n      mstore\n      dup2\n      dup10\n      mload\n      dup1\n      mload\n      swap2\n      dup3\n      swap2\n      dup3\n      dup6\n      mstore\n      add\n      dup5\n      dup5\n      add\n      mcopy\n      0x00\n      dup4\n      dup3\n      dup5\n      add\n      add\n      mstore\n      0x1f\n      dup1\n      not\n      swap2\n      add\n      and\n      add\n      add\n      swap7\n      add\n      swap3\n      add\n      swap3\n      add\n      dup6\n      swap5\n      swap4\n      swap2\n      swap3\n      jump(tag_53)\n        /* \"contracts/FutarchyBatchExecutorSimple.sol\":2367:2380  uint256 i = 0 */\n    tag_51:\n        /* \"contracts/FutarchyBatchExecutorSimple.sol\":282:2839  contract FutarchyBatchExecutorSimple {... */\n      0x00\n        /* \"contracts/FutarchyBatchExecutorSimple.sol\":2455:2465  targets[i] */\n      dup1\n      tag_56\n      tag_30\n      dup5\n      dup11\n      dup11\n      tag_5\n      jump\t// in\n    tag_56:\n        /* \"contracts/FutarchyBatchExecutorSimple.sol\":2478:2487  values[i] */\n      tag_58\n      dup5\n      dup7\n      dup10\n      tag_5\n      jump\t// in\n    tag_58:\n        /* \"contracts/FutarchyBatchExecutorSimple.sol\":282:2839  contract FutarchyBatchExecutorSimple {... */\n      calldataload\n        /* \"contracts/FutarchyBatchExecutorSimple.sol\":2489:2501  calldatas[i] */\n      tag_59\n      dup6\n      dup13\n      dup10\n      tag_7\n      jump\t// in\n    tag_59:\n        /* \"contracts/FutarchyBatchExecutorSimple.sol\":282:2839  contract FutarchyBatchExecutorSimple {... */\n      swap2\n      swap1\n      dup3\n      mload(0x40)\n      swap4\n      dup5\n      swap3\n      dup4\n      calldatacopy\n      dup2\n      add\n      dup6\n      dup2\n      mstore\n        /* \"contracts/FutarchyBatchExecutorSimple.sol\":2455:2502  targets[i].call{value: values[i]}(calldatas[i]) */\n      sub\n      swap3\n      gas\n      call\n      swap1\n      tag_60\n      tag_8\n      jump\t// in\n    tag_60:\n        /* \"contracts/FutarchyBatchExecutorSimple.sol\":2520:2528  !success */\n      swap2\n      dup1\n      iszero\n        /* \"contracts/FutarchyBatchExecutorSimple.sol\":2516:2549  if (!success) revert CallFailed() */\n      tag_34\n      jumpi\n        /* \"contracts/FutarchyBatchExecutorSimple.sol\":2601:2625  CallExecuted(i, success) */\n      tag_63\n      0x55fefe71ce7a79200b7e0246b36e909e3732f04ea77a950452fdfd3475ee8244\n        /* \"contracts/FutarchyBatchExecutorSimple.sol\":2563:2582  results[i] = result */\n      swap2\n        /* \"contracts/FutarchyBatchExecutorSimple.sol\":282:2839  contract FutarchyBatchExecutorSimple {... */\n      0x01\n        /* \"contracts/FutarchyBatchExecutorSimple.sol\":2563:2582  results[i] = result */\n      swap5\n      tag_64\n      dup6\n      dup15\n      tag_9\n      jump\t// in\n    tag_64:\n      mstore\n      tag_65\n      dup5\n      dup14\n      tag_9\n      jump\t// in\n    tag_65:\n      pop\n        /* \"contracts/FutarchyBatchExecutorSimple.sol\":282:2839  contract FutarchyBatchExecutorSimple {... */\n      0x40\n      dup1\n      mload\n      dup6\n      dup2\n      mstore\n      swap2\n      iszero\n      iszero\n      0x20\n      dup4\n      add\n      mstore\n      swap1\n      swap2\n      dup3\n      swap2\n      dup3\n      add\n      swap1\n      jump\n        /* \"contracts/FutarchyBatchExecutorSimple.sol\":2601:2625  CallExecuted(i, success) */\n    tag_63:\n      sub\n      swap1\n      log1\n        /* \"contracts/FutarchyBatchExecutorSimple.sol\":282:2839  contract FutarchyBatchExecutorSimple {... */\n      add\n        /* \"contracts/FutarchyBatchExecutorSimple.sol\":2367:2380  uint256 i = 0 */\n      jump(tag_50)\n        /* \"contracts/FutarchyBatchExecutorSimple.sol\":282:2839  contract FutarchyBatchExecutorSimple {... */\n    tag_48:\n      dup1\n      0x60\n      0x20\n      dup1\n      swap4\n      dup13\n      add\n      add\n      mstore\n      add\n      jump(tag_47)\n    tag_1:\n      swap2\n      dup2\n      0x1f\n      dup5\n      add\n      slt\n      iszero\n      tag_70\n      jumpi\n      dup3\n      calldataload\n      swap2\n      0xffffffffffffffff\n      dup4\n      gt\n      tag_70\n      jumpi\n      0x20\n      dup1\n      dup6\n      add\n      swap5\n      dup5\n      0x05\n      shl\n      add\n      add\n      gt\n      tag_70\n      jumpi\n      jump\t// out\n    tag_70:\n      0x00\n      dup1\n      revert\n    tag_2:\n      0x60\n      not(0x03)\n      dup3\n      add\n      slt\n      tag_70\n      jumpi\n      calldataload(0x04)\n      0xffffffffffffffff\n      dup2\n      gt\n      tag_70\n      jumpi\n      dup2\n      tag_76\n      swap2\n      0x04\n      add\n      tag_1\n      jump\t// in\n    tag_76:\n      swap3\n      swap1\n      swap3\n      swap2\n      calldataload(0x24)\n      0xffffffffffffffff\n      dup2\n      gt\n      tag_70\n      jumpi\n      dup2\n      tag_79\n      swap2\n      0x04\n      add\n      tag_1\n      jump\t// in\n    tag_79:\n      swap3\n      swap1\n      swap3\n      swap2\n      calldataload(0x44)\n      swap1\n      0xffffffffffffffff\n      dup3\n      gt\n      tag_70\n      jumpi\n      tag_82\n      swap2\n      0x04\n      add\n      tag_1\n      jump\t// in\n    tag_82:\n      swap1\n      swap2\n      jump\t// out\n    tag_3:\n      mload(0x40)\n      swap2\n      swap1\n      0x1f\n      add\n      not(0x1f)\n      and\n      dup3\n      add\n      0xffffffffffffffff\n      dup2\n      gt\n      dup4\n      dup3\n      lt\n      or\n      tag_83\n      jumpi\n      0x40\n      mstore\n      jump\t// out\n    tag_83:\n      mstore(0x00, shl(0xe0, 0x4e487b71))\n      mstore(0x04, 0x41)\n      revert(0x00, 0x24)\n    tag_4:\n      0xffffffffffffffff\n      dup2\n      gt\n      tag_83\n      jumpi\n      0x05\n      shl\n      0x20\n      add\n      swap1\n      jump\t// out\n    tag_5:\n      swap2\n      swap1\n      dup2\n      lt\n      iszero\n      tag_87\n      jumpi\n      0x05\n      shl\n      add\n      swap1\n      jump\t// out\n    tag_87:\n      mstore(0x00, shl(0xe0, 0x4e487b71))\n      mstore(0x04, 0x32)\n      revert(0x00, 0x24)\n    tag_6:\n      calldataload\n      sub(shl(0xa0, 0x01), 0x01)\n      dup2\n      and\n      dup2\n      sub\n      tag_70\n      jumpi\n      swap1\n      jump\t// out\n    tag_7:\n      swap2\n      swap1\n      dup2\n      lt\n      iszero\n      tag_87\n      jumpi\n      0x05\n      shl\n      dup2\n      add\n      calldataload\n      swap1\n      not(0x1e)\n      dup2\n      calldatasize\n      sub\n      add\n      dup3\n      slt\n      iszero\n      tag_70\n      jumpi\n      add\n      swap1\n      dup2\n      calldataload\n      swap2\n      0xffffffffffffffff\n      dup4\n      gt\n      tag_70\n      jumpi\n      0x20\n      add\n      dup3\n      calldatasize\n      sub\n      dup2\n      sgt\n      tag_70\n      jumpi\n      swap2\n      swap1\n      jump\t// out\n    tag_8:\n      jumpi(tag_99, iszero(returndatasize))\n      returndatasize\n      swap1\n      0xffffffffffffffff\n      dup3\n      gt\n      tag_83\n      jumpi\n      tag_103\n      0x1f\n      dup4\n      add\n      not(0x1f)\n      and\n      0x20\n      add\n      tag_3\n      jump\t// in\n    tag_103:\n      swap2\n      dup3\n      mstore\n      returndatasize\n      0x00\n      0x20\n      dup5\n      add\n      returndatacopy\n      jump\t// out\n    tag_99:\n      0x60\n      swap1\n      jump\t// out\n    tag_9:\n      dup1\n      mload\n      dup3\n      lt\n      iszero\n      tag_87\n      jumpi\n      0x20\n      swap2\n      0x05\n      shl\n      add\n      add\n      swap1\n      jump\t// out\n\n    auxdata: 0xa2646970667358221220132d239a818d72a5477563e62c8c5bcaae9c7bb2968bd91dedcbfafcac3eb3e664736f6c63430008210033\n}\n","methodIdentifiers":{"execute(address[],uint256[],bytes[])":"a516a5bf","executeWithResults(address[],uint256[],bytes[])":"9a35457a"},"id":6}