{
  "abi": [
    {
      "type": "receive",
      "stateMutability": "payable"
    },
    {
      "type": "function",
      "name": "execute10",
      "inputs": [
        {
          "name": "targets",
          "type": "address[10]",
          "internalType": "address[10]"
        },
        {
          "name": "calldatas",
          "type": "bytes[10]",
          "internalType": "bytes[10]"
        },
        {
          "name": "count",
          "type": "uint256",
          "internalType": "uint256"
        }
      ],
      "outputs": [],
      "stateMutability": "payable"
    },
    {
      "type": "function",
      "name": "executeOne",
      "inputs": [
        {
          "name": "target",
          "type": "address",
          "internalType": "address"
        },
        {
          "name": "data",
          "type": "bytes",
          "internalType": "bytes"
        }
      ],
      "outputs": [
        {
          "name": "",
          "type": "bytes",
          "internalType": "bytes"
        }
      ],
      "stateMutability": "payable"
    },
    {
      "type": "function",
      "name": "sellConditional",
      "inputs": [
        {
          "name": "p",
          "type": "tuple",
          "internalType": "struct FutarchyArbExecutorV3.SellParams",
          "components": [
            {
              "name": "sdai",
              "type": "address",
              "internalType": "contract IERC20"
            },
            {
              "name": "gno",
              "type": "address",
              "internalType": "contract IERC20"
            },
            {
              "name": "gnoYes",
              "type": "address",
              "internalType": "contract IERC20"
            },
            {
              "name": "gnoNo",
              "type": "address",
              "internalType": "contract IERC20"
            },
            {
              "name": "sdaiYes",
              "type": "address",
              "internalType": "contract IERC20"
            },
            {
              "name": "sdaiNo",
              "type": "address",
              "internalType": "contract IERC20"
            },
            {
              "name": "futarchyRouter",
              "type": "address",
              "internalType": "contract IFutarchyRouter"
            },
            {
              "name": "proposal",
              "type": "address",
              "internalType": "address"
            },
            {
              "name": "sdaiSwapTarget",
              "type": "address",
              "internalType": "address"
            },
            {
              "name": "sdaiSwapSpender",
              "type": "address",
              "internalType": "address"
            },
            {
              "name": "sdaiSwapCalldata",
              "type": "bytes",
              "internalType": "bytes"
            },
            {
              "name": "sdaiSwapMsgValue",
              "type": "uint256",
              "internalType": "uint256"
            },
            {
              "name": "sdaiAmountInCap",
              "type": "uint256",
              "internalType": "uint256"
            },
            {
              "name": "minGnoOut",
              "type": "uint256",
              "internalType": "uint256"
            },
            {
              "name": "splitGnoAmount",
              "type": "uint256",
              "internalType": "uint256"
            },
            {
              "name": "yesSwapTarget",
              "type": "address",
              "internalType": "address"
            },
            {
              "name": "yesSwapCalldata",
              "type": "bytes",
              "internalType": "bytes"
            },
            {
              "name": "noSwapTarget",
              "type": "address",
              "internalType": "address"
            },
            {
              "name": "noSwapCalldata",
              "type": "bytes",
              "internalType": "bytes"
            },
            {
              "name": "swapSpender",
              "type": "address",
              "internalType": "address"
            },
            {
              "name": "minSdaiYesOut",
              "type": "uint256",
              "internalType": "uint256"
            },
            {
              "name": "minSdaiNoOut",
              "type": "uint256",
              "internalType": "uint256"
            },
            {
              "name": "liqSwapSpender",
              "type": "address",
              "internalType": "address"
            },
            {
              "name": "liqYes",
              "type": "tuple",
              "internalType": "struct FutarchyArbExecutorV3.CalldataPatch",
              "components": [
                {
                  "name": "target",
                  "type": "address",
                  "internalType": "address"
                },
                {
                  "name": "data",
                  "type": "bytes",
                  "internalType": "bytes"
                },
                {
                  "name": "msgValue",
                  "type": "uint256",
                  "internalType": "uint256"
                },
                {
                  "name": "amountOffset",
                  "type": "uint256",
                  "internalType": "uint256"
                },
                {
                  "name": "minOutOffset",
                  "type": "uint256",
                  "internalType": "uint256"
                },
                {
                  "name": "slippageBps",
                  "type": "uint16",
                  "internalType": "uint16"
                }
              ]
            },
            {
              "name": "liqNo",
              "type": "tuple",
              "internalType": "struct FutarchyArbExecutorV3.CalldataPatch",
              "components": [
                {
                  "name": "target",
                  "type": "address",
                  "internalType": "address"
                },
                {
                  "name": "data",
                  "type": "bytes",
                  "internalType": "bytes"
                },
                {
                  "name": "msgValue",
                  "type": "uint256",
                  "internalType": "uint256"
                },
                {
                  "name": "amountOffset",
                  "type": "uint256",
                  "internalType": "uint256"
                },
                {
                  "name": "minOutOffset",
                  "type": "uint256",
                  "internalType": "uint256"
                },
                {
                  "name": "slippageBps",
                  "type": "uint16",
                  "internalType": "uint16"
                }
              ]
            },
            {
              "name": "minNetSdai",
              "type": "int256",
              "internalType": "int256"
            }
          ]
        }
      ],
      "outputs": [],
      "stateMutability": "nonpayable"
    },
    {
      "type": "event",
      "name": "SellExecuted",
      "inputs": [
        {
          "name": "sdaiSpent",
          "type": "uint256",
          "indexed": false,
          "internalType": "uint256"
        },
        {
          "name": "gnoBought",
          "type": "uint256",
          "indexed": false,
          "internalType": "uint256"
        },
        {
          "name": "gnoSplit",
          "type": "uint256",
          "indexed": false,
          "internalType": "uint256"
        },
        {
          "name": "sdaiYesOut",
          "type": "uint256",
          "indexed": false,
          "internalType": "uint256"
        },
        {
          "name": "sdaiNoOut",
          "type": "uint256",
          "indexed": false,
          "internalType": "uint256"
        },
        {
          "name": "merged",
          "type": "uint256",
          "indexed": false,
          "internalType": "uint256"
        },
        {
          "name": "liqYesIn",
          "type": "uint256",
          "indexed": false,
          "internalType": "uint256"
        },
        {
          "name": "liqNoIn",
          "type": "uint256",
          "indexed": false,
          "internalType": "uint256"
        },
        {
          "name": "liqYesOut",
          "type": "uint256",
          "indexed": false,
          "internalType": "uint256"
        },
        {
          "name": "liqNoOut",
          "type": "uint256",
          "indexed": false,
          "internalType": "uint256"
        },
        {
          "name": "netSdai",
          "type": "int256",
          "indexed": false,
          "internalType": "int256"
        }
      ],
      "anonymous": false
    },
    {
      "type": "error",
      "name": "AmountOffsetOOB",
      "inputs": []
    },
    {
      "type": "error",
      "name": "BadSplitAmount",
      "inputs": []
    },
    {
      "type": "error",
      "name": "BalanceTooLarge",
      "inputs": []
    },
    {
      "type": "error",
      "name": "CallFailed",
      "inputs": []
    },
    {
      "type": "error",
      "name": "LowGnoOut",
      "inputs": []
    },
    {
      "type": "error",
      "name": "LowNoSdai",
      "inputs": []
    },
    {
      "type": "error",
      "name": "LowYesSdai",
      "inputs": []
    },
    {
      "type": "error",
      "name": "MinOutOffsetOOB",
      "inputs": []
    },
    {
      "type": "error",
      "name": "NetSdaiBelowTolerance",
      "inputs": []
    },
    {
      "type": "error",
      "name": "NothingToMerge",
      "inputs": []
    },
    {
      "type": "error",
      "name": "OnlySelf",
      "inputs": []
    },
    {
      "type": "error",
      "name": "SdaiOverspend",
      "inputs": []
    },
    {
      "type": "error",
      "name": "TooManyCalls",
      "inputs": []
    },
    {
      "type": "error",
      "name": "UnderMint",
      "inputs": []
    }
  ],
  "bytecode": {
    "object": "0x608080604052346015576112ec908161001a8239f35b5f80fdfe6080604052600436101561001a575b3615610018575f80fd5b005b5f3560e01c80633e16b19c14610049578063de96eb3d146100445763f75be35c0361000e57610d4c565b6100fe565b60403660031901126100bf57600435610061816100c3565b60243567ffffffffffffffff81116100bf57366023820112156100bf57806004013567ffffffffffffffff81116100bf5736602482840101116100bf576100bb9260246100af930190610eaa565b604051918291826100d4565b0390f35b5f80fd5b6001600160a01b038116036100bf57565b602060409281835280519182918282860152018484015e5f828201840152601f01601f1916010190565b346100bf5760203660031901126100bf5760043567ffffffffffffffff81116100bf57806004019061034060031982360301126100bf57303303610d215761015461014883610edb565b6001600160a01b031690565b6040516370a0823160e01b815230600482015290602090829060249082905afa908115610871575f91610d02575b5061012482016001600160a01b0361019982610edb565b16151580610cf4575b610cd2575b50602482016101b861014882610edb565b6040516370a0823160e01b81523060048201529390602090859060249082905afa938415610871575f94610cb1575b506101f461014886610edb565b6040516370a0823160e01b81523060048201529490602090869060249082905afa948515610871575f95610c90575b5061025b6102556102376101048501610edb565b61024561014486018a610f02565b9290610164870135933691610f35565b906111c4565b61026761014884610edb565b6040516370a0823160e01b81523060048201529190602090839060249082905afa80156108715761029f925f916109b1575b50610f7f565b936102ac61014887610edb565b6040516370a0823160e01b81523060048201529190602090839060249082905afa908115610871576102e4925f92610c6f5750610f7f565b926101848201358411610c60576101a48201358510610c51576101c48201359283158015610c48575b610c395761031a81610edb565b966103368560c48601996103306101488c610edb565b90611053565b6044840161034661014882610edb565b6040516370a0823160e01b81523060048201529190602090839060249082905afa918215610871575f92610c18575b50606486019161038761014884610edb565b6040516370a0823160e01b81523060048201529190602090839060249082905afa918215610871575f92610bf7575b506103c36101488d610edb565b60e48901966103da6103d489610edb565b91610edb565b90823b156100bf576040516301abf04560e71b81526001600160a01b03918216600482015291166024820152604481018b9052905f908290606490829084905af1801561087157610be3575b5061043361014884610edb565b6040516370a0823160e01b81523060048201529190602090839060249082905afa80156108715761046a925f916109b15750610f7f565b9061047761014885610edb565b6040516370a0823160e01b815230600482015290602090829060249082905afa908115610871578a9283926104b2925f916109b15750610f7f565b9210918215610bd9575b5050610bca576104ef916103306103d46104d68a94610edb565b926104ea856102648c019561033087610edb565b610edb565b608484019261050061014885610edb565b6040516370a0823160e01b815230600482015290602090829060249082905afa908115610871575f91610bab575b5061055d61053f6101e48801610edb565b6105576105506102048a0187610f02565b3691610f35565b906111a5565b61056961014886610edb565b6040516370a0823160e01b81523060048201529190602090839060249082905afa8015610871576105a0925f916109b15750610f7f565b986102848601358a10610b9c5760a48601936105be61014886610edb565b6040516370a0823160e01b815230600482015290602090829060249082905afa908115610871575f91610b7d575b5061060e6105fd6102248a01610edb565b6105576105506102448c0189610f02565b61061a61014887610edb565b6040516370a0823160e01b81523060048201529190602090839060249082905afa801561087157610651925f916109b15750610f7f565b906102a48801358210610b6e57818c1015610b67578b925b8315610b58576103d461014861069f92610692876106868d610edb565b61033061014885610edb565b6104ea876106868c610edb565b6106a886610edb565b90823b156100bf57604051637abef8d160e01b81526001600160a01b0391821660048201529116602482015260448101849052905f908290606490829084905af1801561087157610b3e575b506106ff828c610f7f565b9261070a8383610f7f565b945f965f988a8715159081610b20575b50610a2c575b5086151580610a10575b610876575b5061014861073c91610edb565b6040516370a0823160e01b815230600482015290602090829060249082905afa908115610871575f91610842575b506001600160ff1b0381118015610832575b610823576103249161078d91610fbf565b9701358712610814577fca4202436e8d09dae0f884d1f04d2b4a4b2e34472419c7d71435f525d1e2d6819a61080f986040519b8c9b8c979491926101409996939c9b9a9794919c6101608a019d8a5260208a015260408901526060880152608087015260a086015260c085015260e08401526101008301526101208201520152565b0390a1005b6354997fa960e01b5f5260045ffd5b630748aac760e11b5f5260045ffd5b506001600160ff1b03821161077c565b610864915060203d60201161086a575b61085c8183610e38565b810190610ee8565b5f61076a565b503d610852565b610ef7565b6108939198506108868791610edb565b6103306102c48c01610edb565b61089f61014888610edb565b6040516370a0823160e01b815230600482015290602090829060249082905afa90811561087157868a8a925f946109d0575b5091604061095661094f6104ea6109499561030461095e9801968791876109056108fb8583610f9b565b6020810190610f02565b929061094460606109168886610f9b565b01359161093c60a06109368a608061092e828b610f9b565b013598610f9b565b01610fb0565b953691610f35565b611210565b95610f9b565b938d610f9b565b0135916111c4565b61096a61014889610edb565b6040516370a0823160e01b815230600482015290602090829060249082905afa9081156108715761073c92610148926109a9925f916109b15750610f7f565b98915061072f565b6109ca915060203d60201161086a5761085c8183610e38565b5f610299565b61095e9391945061095661094f6104ea61094995610304610a0160409660203d60201161086a5761085c8183610e38565b999698505095505050506108d1565b50610a256101486104ea6103048d0185610f9b565b151561072a565b610a49919850610a3c8791610edb565b6103306102c48d01610edb565b610a5561014882610edb565b6040516370a0823160e01b815230600482015290602090829060249082905afa908115610871575f91610b01575b50610ab76102e48b01610a9e88856109056108fb8583610f9b565b6040610956610ab06104ea8589610f9b565b9387610f9b565b610ac361014883610edb565b6040516370a0823160e01b81523060048201529190602090839060249082905afa801561087157610afa925f916109b15750610f7f565b965f610720565b610b1a915060203d60201161086a5761085c8183610e38565b5f610a83565b610b3691506104ea6102e4610148920186610f9b565b15158b61071a565b80610b4c5f610b5293610e38565b80610f91565b5f6106f4565b6316a0341160e11b5f5260045ffd5b8192610669565b634f68e48560e11b5f5260045ffd5b610b96915060203d60201161086a5761085c8183610e38565b5f6105ec565b63e5afec1960e01b5f5260045ffd5b610bc4915060203d60201161086a5761085c8183610e38565b5f61052e565b63e57c748d60e01b5f5260045ffd5b109050875f6104bc565b80610b4c5f610bf193610e38565b5f610426565b610c1191925060203d60201161086a5761085c8183610e38565b905f6103b6565b610c3291925060203d60201161086a5761085c8183610e38565b905f610375565b632f6703c560e21b5f5260045ffd5b5085841161030d565b6370462eef60e01b5f5260045ffd5b63323b6e8960e21b5f5260045ffd5b610c8991925060203d60201161086a5761085c8183610e38565b905f610299565b610caa91955060203d60201161086a5761085c8183610e38565b935f610223565b610ccb91945060203d60201161086a5761085c8183610e38565b925f6101e7565b610cee90610ce26103d486610edb565b61018485013591611053565b5f6101a7565b5061018483013515156101a2565b610d1b915060203d60201161086a5761085c8183610e38565b5f610182565b63029a949d60e31b5f5260045ffd5b90600491610144116100bf57565b91906101408301116100bf57565b6101803660031901126100bf57610d6236610d30565b6101443567ffffffffffffffff81116100bf57610d83903690600401610d3e565b6101643591303303610d2157600a8311610e08575f5b838110610da257005b610daf6104ea8284610feb565b6001600160a01b03811615610dff575f809181610dcc8588611001565b9190610ddd60405180948193610e17565b03925af1610de9610e7b565b9015610dfa57506001905b01610d99565b61101d565b50600190610df4565b63f5dedbff60e01b5f5260045ffd5b908092918237015f815290565b634e487b7160e01b5f52604160045260245ffd5b90601f8019910116810190811067ffffffffffffffff821117610e5a57604052565b610e24565b67ffffffffffffffff8111610e5a57601f01601f191660200190565b3d15610ea5573d90610e8c82610e5f565b91610e9a6040519384610e38565b82523d5f602084013e565b606090565b303303610d2157825f9392849360405192839283378101848152039134905af1610ed2610e7b565b9015610dfa5790565b35610ee5816100c3565b90565b908160209103126100bf575190565b6040513d5f823e3d90fd5b903590601e19813603018212156100bf570180359067ffffffffffffffff82116100bf576020019181360383136100bf57565b929192610f4182610e5f565b91610f4f6040519384610e38565b8294818452818301116100bf578281602093845f960137010152565b634e487b7160e01b5f52601160045260245ffd5b91908203918211610f8c57565b610f6b565b5f9103126100bf57565b90359060be19813603018212156100bf570190565b3561ffff811681036100bf5790565b81810392915f138015828513169184121617610f8c57565b634e487b7160e01b5f52603260045260245ffd5b90600a811015610ffc5760051b0190565b610fd7565b600a821015610ffc576110199160051b810190610f02565b9091565b80511561102c57602081519101fd5b633204506f60e01b5f5260045ffd5b908160209103126100bf575180151581036100bf5790565b91909181156111a057604051636eb1769f60e11b81523060048201526001600160a01b038481166024830152919091169190602081604481865afa908115610871575f91611181575b50106110a6575050565b60405163095ea7b360e01b81526001600160a01b03831660048201525f6024820152602081806044810103815f865af1908115610871575f91611162575b501561102c5760405163095ea7b360e01b81526001600160a01b039290921660048301525f196024830152602090829060449082905f905af1908115610871575f91611133575b501561102c57565b611155915060203d60201161115b575b61114d8183610e38565b81019061103b565b5f61112b565b503d611143565b61117b915060203d60201161115b5761114d8183610e38565b5f6110e4565b61119a915060203d60201161086a5761085c8183610e38565b5f61109c565b505050565b5f91829182602083519301915af16111bb610e7b565b9015610dfa5750565b905f92918392602083519301915af16111bb610e7b565b9060208201809211610f8c57565b61ffff16612710039061ffff8211610f8c57565b81810292918115918404141715610f8c57565b91909493829583516020820190818311610f8c57106112a757830160200182905260018401611240575b50505050565b61ffff81166112795750915b8151611257826111db565b1161126a5701602001525f80808061123a565b630f56d5d160e21b5f5260045ffd5b6112a19161129361128c611299936111e9565b61ffff1690565b906111fd565b612710900490565b9161124c565b63f3e07dc360e01b5f5260045ffdfea2646970667358221220fea0efbe9d7b7c818f391aa1f5760404e0520232f8c80d66495e8cf4872de22064736f6c63430008210033",
    "linkReferences": {}
  },
  "methodIdentifiers": {
    "execute10(address[10],bytes[10],uint256)": "f75be35c",
    "executeOne(address,bytes)": "3e16b19c",
    "sellConditional((address,address,address,address,address,address,address,address,address,address,bytes,uint256,uint256,uint256,uint256,address,bytes,address,bytes,address,uint256,uint256,address,(address,bytes,uint256,uint256,uint256,uint16),(address,bytes,uint256,uint256,uint256,uint16),int256))": "de96eb3d"
  },
  "id": 0
}