{
  "abi": [
    {
      "type": "fallback",
      "stateMutability": "payable"
    },
    {
      "type": "receive",
      "stateMutability": "payable"
    },
    {
      "type": "function",
      "name": "execute",
      "inputs": [
        {
          "name": "calls",
          "type": "tuple[]",
          "internalType": "struct FutarchyBatchExecutor.Call[]",
          "components": [
            {
              "name": "target",
              "type": "address",
              "internalType": "address"
            },
            {
              "name": "value",
              "type": "uint256",
              "internalType": "uint256"
            },
            {
              "name": "data",
              "type": "bytes",
              "internalType": "bytes"
            }
          ]
        }
      ],
      "outputs": [],
      "stateMutability": "payable"
    },
    {
      "type": "function",
      "name": "executeBuyConditional",
      "inputs": [
        {
          "name": "",
          "type": "bytes",
          "internalType": "bytes"
        }
      ],
      "outputs": [],
      "stateMutability": "payable"
    },
    {
      "type": "function",
      "name": "executeSellConditional",
      "inputs": [
        {
          "name": "",
          "type": "bytes",
          "internalType": "bytes"
        }
      ],
      "outputs": [],
      "stateMutability": "payable"
    },
    {
      "type": "function",
      "name": "executeWithResults",
      "inputs": [
        {
          "name": "calls",
          "type": "tuple[]",
          "internalType": "struct FutarchyBatchExecutor.Call[]",
          "components": [
            {
              "name": "target",
              "type": "address",
              "internalType": "address"
            },
            {
              "name": "value",
              "type": "uint256",
              "internalType": "uint256"
            },
            {
              "name": "data",
              "type": "bytes",
              "internalType": "bytes"
            }
          ]
        }
      ],
      "outputs": [
        {
          "name": "results",
          "type": "bytes[]",
          "internalType": "bytes[]"
        }
      ],
      "stateMutability": "payable"
    },
    {
      "type": "function",
      "name": "setApprovals",
      "inputs": [
        {
          "name": "tokens",
          "type": "address[]",
          "internalType": "address[]"
        },
        {
          "name": "spenders",
          "type": "address[]",
          "internalType": "address[]"
        },
        {
          "name": "amounts",
          "type": "uint256[]",
          "internalType": "uint256[]"
        }
      ],
      "outputs": [],
      "stateMutability": "nonpayable"
    },
    {
      "type": "event",
      "name": "ApprovalSet",
      "inputs": [
        {
          "name": "token",
          "type": "address",
          "indexed": true,
          "internalType": "address"
        },
        {
          "name": "spender",
          "type": "address",
          "indexed": true,
          "internalType": "address"
        },
        {
          "name": "amount",
          "type": "uint256",
          "indexed": false,
          "internalType": "uint256"
        }
      ],
      "anonymous": false
    },
    {
      "type": "event",
      "name": "BatchExecuted",
      "inputs": [
        {
          "name": "callsExecuted",
          "type": "uint256",
          "indexed": false,
          "internalType": "uint256"
        }
      ],
      "anonymous": false
    },
    {
      "type": "event",
      "name": "CallExecuted",
      "inputs": [
        {
          "name": "target",
          "type": "address",
          "indexed": true,
          "internalType": "address"
        },
        {
          "name": "value",
          "type": "uint256",
          "indexed": false,
          "internalType": "uint256"
        },
        {
          "name": "data",
          "type": "bytes",
          "indexed": false,
          "internalType": "bytes"
        },
        {
          "name": "success",
          "type": "bool",
          "indexed": false,
          "internalType": "bool"
        }
      ],
      "anonymous": false
    },
    {
      "type": "error",
      "name": "ApprovalFailed",
      "inputs": []
    },
    {
      "type": "error",
      "name": "ApprovalReturnedFalse",
      "inputs": []
    },
    {
      "type": "error",
      "name": "CallFailed",
      "inputs": [
        {
          "name": "index",
          "type": "uint256",
          "internalType": "uint256"
        },
        {
          "name": "returnData",
          "type": "bytes",
          "internalType": "bytes"
        }
      ]
    },
    {
      "type": "error",
      "name": "InsufficientBalance",
      "inputs": []
    },
    {
      "type": "error",
      "name": "InvalidAuthority",
      "inputs": []
    },
    {
      "type": "error",
      "name": "LengthMismatch",
      "inputs": []
    }
  ],
  "bytecode": {
    "object": "0x60808060405234601557610767908161001a8239f35b5f80fdfe60806040526004361015610010575b005b5f3560e01c80631e86b5141461025e5780633f707e6b146101d55780635c96612d146101d05780636de9a38a146101d057639f616ef60361000e5760203660031901126101cc576004356001600160401b0381116101cc57610076903690600401610413565b3033036101bd5761008681610527565b9161009460405193846104f2565b818352601f196100a383610527565b015f5b8181106101ac5750505f5b82811061014a57837fe9cc9bbe7de1cbb097a6357ca3182909488efe8d793e25665befc064a02d10a7602085604051908152a16040518091602082016020835281518091526040830190602060408260051b8601019301915f905b82821061011b57505050500390f35b9193600191939550602061013a8192603f198a82030186528851610496565b960192019201859493919261010c565b61016561016061015b83868661053e565b61057b565b61067d565b901561018b5790600191610179828761063a565b52610184818661063a565b50016100b1565b604051635c0dee5d60e01b81529182916101a89160048401610620565b0390fd5b8060606020809388010152016100a6565b636f6a1b8760e11b5f5260045ffd5b5f80fd5b610443565b60203660031901126101cc576004356001600160401b0381116101cc57610200903690600401610413565b903033036101bd575f5b82811061023e577fe9cc9bbe7de1cbb097a6357ca3182909488efe8d793e25665befc064a02d10a7602084604051908152a1005b61024f61016061015b83868661053e565b901561018b575060010161020a565b346101cc5760603660031901126101cc576004356001600160401b0381116101cc5761028e903690600401610413565b6024356001600160401b0381116101cc576102ad903690600401610413565b9190926044356001600160401b0381116101cc576102cf903690600401610413565b9290923033036101bd57848214801590610409575b6103fa575f5b8281106102f357005b6103066103018285876104ba565b6104de565b9061031561030182898b6104ba565b6103208285896104ba565b355f8060405193602085019063095ea7b360e01b825260018060a01b0316948560248201528460448201526044815261035a6064826104f2565b519082885af161036861064e565b90156103eb578051806103b7575b50506040519081526001936001600160a01b0316907f831618689250168d97439719454d49da08400cc172d64eac411c802f0e28230990602090a3016102ea565b81602091810103126101cc57602001518015908115036101cc576103dc578a80610376565b637a58cf0d60e11b5f5260045ffd5b6340b27c2160e11b5f5260045ffd5b631fec674760e31b5f5260045ffd5b50808214156102e4565b9181601f840112156101cc578235916001600160401b0383116101cc576020808501948460051b0101116101cc57565b60203660031901126101cc576004356001600160401b0381116101cc57366023820112156101cc578060040135906001600160401b0382116101cc5736602483830101116101cc5750503033036101bd57005b805180835260209291819084018484015e5f828201840152601f01601f1916010190565b91908110156104ca5760051b0190565b634e487b7160e01b5f52603260045260245ffd5b356001600160a01b03811681036101cc5790565b90601f801991011681019081106001600160401b0382111761051357604052565b634e487b7160e01b5f52604160045260245ffd5b6001600160401b0381116105135760051b60200190565b91908110156104ca5760051b81013590605e19813603018212156101cc570190565b6001600160401b03811161051357601f01601f191660200190565b6060813603126101cc5760405190606082018281106001600160401b038211176105135760405280356001600160a01b03811681036101cc578252602081013560208301526040810135906001600160401b0382116101cc570136601f820112156101cc5780356105eb81610560565b916105f960405193846104f2565b81835236602083830101116101cc57815f9260208093018386013783010152604082015290565b604090610637939281528160208201520190610496565b90565b80518210156104ca5760209160051b010190565b3d15610678573d9061065f82610560565b9161066d60405193846104f2565b82523d5f602084013e565b606090565b90602082019081518015159081610727575b506107185760018060a01b03835116917fd6ccaa80f602e884644c27c8f83689468df0b077a05fb3b05cb6d2e1cb6b859c5f8083516040880196875191602083519301915af16106dd61064e565b94819660018060a01b03905116935190519161070b6040519384938452606060208501526060840190610496565b90151560408301520390a2565b631e9acf1760e31b5f5260045ffd5b905047105f61068f56fea2646970667358221220993e2397614c99d292b70c679539d3263cb61f405003257fc0f15a1bfbcc87ec64736f6c63430008210033",
    "linkReferences": {}
  },
  "methodIdentifiers": {
    "execute((address,uint256,bytes)[])": "3f707e6b",
    "executeBuyConditional(bytes)": "6de9a38a",
    "executeSellConditional(bytes)": "5c96612d",
    "executeWithResults((address,uint256,bytes)[])": "9f616ef6",
    "setApprovals(address[],address[],uint256[])": "1e86b514"
  },
  "id": 4
}