{
  "abi": [
    {
      "type": "function",
      "name": "batchSwap",
      "inputs": [
        {
          "name": "",
          "type": "uint8",
          "internalType": "uint8"
        },
        {
          "name": "",
          "type": "bytes",
          "internalType": "bytes"
        },
        {
          "name": "",
          "type": "address[]",
          "internalType": "address[]"
        },
        {
          "name": "",
          "type": "bytes",
          "internalType": "bytes"
        },
        {
          "name": "",
          "type": "int256[]",
          "internalType": "int256[]"
        },
        {
          "name": "",
          "type": "uint256",
          "internalType": "uint256"
        }
      ],
      "outputs": [
        {
          "name": "",
          "type": "int256[]",
          "internalType": "int256[]"
        }
      ],
      "stateMutability": "pure"
    },
    {
      "type": "function",
      "name": "poolExists",
      "inputs": [
        {
          "name": "",
          "type": "bytes32",
          "internalType": "bytes32"
        }
      ],
      "outputs": [
        {
          "name": "",
          "type": "bool",
          "internalType": "bool"
        }
      ],
      "stateMutability": "view"
    },
    {
      "type": "function",
      "name": "registerPool",
      "inputs": [
        {
          "name": "poolId",
          "type": "bytes32",
          "internalType": "bytes32"
        }
      ],
      "outputs": [],
      "stateMutability": "nonpayable"
    },
    {
      "type": "function",
      "name": "swap",
      "inputs": [
        {
          "name": "poolId",
          "type": "bytes32",
          "internalType": "bytes32"
        },
        {
          "name": "",
          "type": "address",
          "internalType": "address"
        },
        {
          "name": "",
          "type": "address",
          "internalType": "address"
        },
        {
          "name": "amountIn",
          "type": "uint256",
          "internalType": "uint256"
        },
        {
          "name": "",
          "type": "uint256",
          "internalType": "uint256"
        }
      ],
      "outputs": [
        {
          "name": "",
          "type": "uint256",
          "internalType": "uint256"
        }
      ],
      "stateMutability": "view"
    }
  ],
  "bytecode": {
    "object": "0x608080604052346015576103ee908161001a8239f35b5f80fdfe6080806040526004361015610012575f80fd5b5f3560e01c908163296d85f6146102be5750806398ea1c04146100f9578063a6b8ffee146100795763bf67313414610048575f80fd5b34610075576020366003190112610075576004355f525f60205260405f20600160ff198254161790555f80f35b5f80fd5b346100755760a03660031901126100755761009261038c565b5061009b6103a2565b506004355f525f60205260ff60405f205416156100be5760206040516064358152f35b60405162461bcd60e51b8152602060048201526013602482015272141bdbdb081b9bdd081c9959da5cdd195c9959606a1b6044820152606490fd5b346100755760c03660031901126100755760043560ff8116036100755760243567ffffffffffffffff811161007557610136903690600401610322565b5060443567ffffffffffffffff81116100755736602382011215610075578060040135906024602061016f61016a85610374565b6102e8565b848152019260051b8201019036821161007557602401915b81831061029e5760643567ffffffffffffffff8111610075576101ae903690600401610322565b5060843567ffffffffffffffff8111610075573660238201121561007557806004013590602460206101e261016a85610374565b848152019260051b8201019036821161007557602401915b81831061028e5761020b60606102e8565b6002815260208101604036823781511561027a576103e719815281516001101561027a57906103e86040820152604051918291602083019060208452518091526040830191905f5b818110610261575050500390f35b8251845285945060209384019390920191600101610253565b634e487b7160e01b5f52603260045260245ffd5b82358152602092830192016101fa565b82356001600160a01b038116810361007557815260209283019201610187565b34610075576020366003190112610075576020906004355f525f825260ff60405f20541615158152f35b6040519190601f01601f1916820167ffffffffffffffff81118382101761030e57604052565b634e487b7160e01b5f52604160045260245ffd5b81601f820112156100755780359067ffffffffffffffff821161030e57610352601f8301601f19166020016102e8565b928284526020838301011161007557815f926020809301838601378301015290565b67ffffffffffffffff811161030e5760051b60200190565b602435906001600160a01b038216820361007557565b604435906001600160a01b03821682036100755756fea2646970667358221220be32ebe60e1745ae4d156db118354edfd53553f9f2a8a1fea71eaaf58985c5a864736f6c63430008210033",
    "linkReferences": {}
  },
  "methodIdentifiers": {
    "batchSwap(uint8,bytes,address[],bytes,int256[],uint256)": "98ea1c04",
    "poolExists(bytes32)": "296d85f6",
    "registerPool(bytes32)": "bf673134",
    "swap(bytes32,address,address,uint256,uint256)": "a6b8ffee"
  },
  "id": 32
}