{
  "abi": [
    {
      "type": "function",
      "name": "mergePositions",
      "inputs": [
        {
          "name": "",
          "type": "address",
          "internalType": "address"
        },
        {
          "name": "",
          "type": "address",
          "internalType": "address"
        },
        {
          "name": "",
          "type": "uint256",
          "internalType": "uint256"
        }
      ],
      "outputs": [],
      "stateMutability": "nonpayable"
    },
    {
      "type": "function",
      "name": "splitPosition",
      "inputs": [
        {
          "name": "",
          "type": "address",
          "internalType": "address"
        },
        {
          "name": "",
          "type": "address",
          "internalType": "address"
        },
        {
          "name": "",
          "type": "uint256",
          "internalType": "uint256"
        }
      ],
      "outputs": [],
      "stateMutability": "nonpayable"
    }
  ],
  "bytecode": {
    "object": "0x60808060405234601357609c908160188239f35b5f80fdfe608060405260043610156010575f80fd5b5f3560e01c80637abef8d114602c5763d5f8228014602c575f80fd5b3460625760603660031901126062576004356001600160a01b0381168103606257506024356001600160a01b0381168103606257005b5f80fdfea2646970667358221220d46fa89cac4d55aa1d5a5732ebf1e021119967320a52e133dcd7cd27a697790664736f6c63430008210033",
    "linkReferences": {}
  },
  "methodIdentifiers": {
    "mergePositions(address,address,uint256)": "7abef8d1",
    "splitPosition(address,address,uint256)": "d5f82280"
  },
  "id": 32
}