{
  "abi": [
    {
      "type": "function",
      "name": "exactInputSingle",
      "inputs": [
        {
          "name": "",
          "type": "address",
          "internalType": "address"
        },
        {
          "name": "",
          "type": "address",
          "internalType": "address"
        },
        {
          "name": "",
          "type": "address",
          "internalType": "address"
        },
        {
          "name": "",
          "type": "uint256",
          "internalType": "uint256"
        },
        {
          "name": "amountIn",
          "type": "uint256",
          "internalType": "uint256"
        },
        {
          "name": "",
          "type": "uint256",
          "internalType": "uint256"
        },
        {
          "name": "",
          "type": "uint160",
          "internalType": "uint160"
        }
      ],
      "outputs": [
        {
          "name": "",
          "type": "uint256",
          "internalType": "uint256"
        }
      ],
      "stateMutability": "pure"
    },
    {
      "type": "function",
      "name": "exactOutputSingle",
      "inputs": [
        {
          "name": "",
          "type": "address",
          "internalType": "address"
        },
        {
          "name": "",
          "type": "address",
          "internalType": "address"
        },
        {
          "name": "",
          "type": "uint24",
          "internalType": "uint24"
        },
        {
          "name": "",
          "type": "address",
          "internalType": "address"
        },
        {
          "name": "",
          "type": "uint256",
          "internalType": "uint256"
        },
        {
          "name": "amountOut",
          "type": "uint256",
          "internalType": "uint256"
        },
        {
          "name": "",
          "type": "uint256",
          "internalType": "uint256"
        },
        {
          "name": "",
          "type": "uint160",
          "internalType": "uint160"
        }
      ],
      "outputs": [
        {
          "name": "",
          "type": "uint256",
          "internalType": "uint256"
        }
      ],
      "stateMutability": "pure"
    }
  ],
  "bytecode": {
    "object": "0x6080806040523460155761017f908161001a8239f35b5f80fdfe6080806040526004361015610012575f80fd5b5f3560e01c9081631af4215014610086575063db833ebc14610032575f80fd5b34610082576101003660031901126100825761004c6100c5565b506100556100db565b5060443562ffffff8116036100825761006c610107565b50610075610133565b50602060405160a4358152f35b5f80fd5b346100825760e0366003190112610082576020906100a26100c5565b506100ab6100db565b506100b46100f1565b506100bd61011d565b506084358152f35b600435906001600160a01b038216820361008257565b602435906001600160a01b038216820361008257565b604435906001600160a01b038216820361008257565b606435906001600160a01b038216820361008257565b60c435906001600160a01b038216820361008257565b60e435906001600160a01b03821682036100825756fea26469706673582212208407fcb2b7236e549fc62a3b0e5bb363386ad1556f7d42573245c27fd9e6730364736f6c63430008210033",
    "linkReferences": {}
  },
  "methodIdentifiers": {
    "exactInputSingle(address,address,address,uint256,uint256,uint256,uint160)": "1af42150",
    "exactOutputSingle(address,address,uint24,address,uint256,uint256,uint256,uint160)": "db833ebc"
  },
  "id": 32
}