{
  "abi": [
    {
      "type": "function",
      "name": "swap",
      "inputs": [
        {
          "name": "",
          "type": "bytes",
          "internalType": "bytes"
        }
      ],
      "outputs": [
        {
          "name": "",
          "type": "uint256[]",
          "internalType": "uint256[]"
        }
      ],
      "stateMutability": "pure"
    }
  ],
  "bytecode": {
    "object": "0x6080806040523460155761018f908161001a8239f35b5f80fdfe60806040526004361015610011575f80fd5b5f3560e01c63627dd56a14610024575f80fd5b3461011b57602036600319011261011b5760043567ffffffffffffffff811161011b573660238201121561011b5780600401359067ffffffffffffffff821161011f5761007a601f8301601f1916602001610133565b91808352366024828401011161011b575f9281602460209401848301370101526100a46040610133565b600181526020808201903682378151156101075790683635c9adc5dea000008252604051918291602083019060208452518091526040830191905f5b8181106100ee575050500390f35b82518452859450602093840193909201916001016100e0565b634e487b7160e01b5f52603260045260245ffd5b5f80fd5b634e487b7160e01b5f52604160045260245ffd5b6040519190601f01601f1916820167ffffffffffffffff81118382101761011f5760405256fea2646970667358221220338c3603cefdafc71bb53dbb96a3364c251f7e54bba673d815db64038f46c93d64736f6c63430008210033",
    "linkReferences": {}
  },
  "methodIdentifiers": {
    "swap(bytes)": "627dd56a"
  },
  "id": 32
}