{
  "abi": [
    {
      "type": "function",
      "name": "execute",
      "inputs": [
        {
          "name": "target",
          "type": "address",
          "internalType": "address"
        },
        {
          "name": "value",
          "type": "uint256",
          "internalType": "uint256"
        },
        {
          "name": "data",
          "type": "bytes",
          "internalType": "bytes"
        }
      ],
      "outputs": [
        {
          "name": "",
          "type": "bytes",
          "internalType": "bytes"
        }
      ],
      "stateMutability": "payable"
    },
    {
      "type": "function",
      "name": "test",
      "inputs": [],
      "outputs": [],
      "stateMutability": "payable"
    },
    {
      "type": "event",
      "name": "TestExecuted",
      "inputs": [
        {
          "name": "caller",
          "type": "address",
          "indexed": false,
          "internalType": "address"
        },
        {
          "name": "value",
          "type": "uint256",
          "indexed": false,
          "internalType": "uint256"
        }
      ],
      "anonymous": false
    },
    {
      "type": "error",
      "name": "CallFailed",
      "inputs": []
    },
    {
      "type": "error",
      "name": "OnlySelf",
      "inputs": []
    }
  ],
  "bytecode": {
    "object": "0x608080604052346015576101e2908161001a8239f35b5f80fdfe6080806040526004361015610012575f80fd5b5f3560e01c908163b61d27f614610072575063f8a8fd6d14610032575f80fd5b5f36600319011261006e577f6be926737056d5e79d2c898c6835a6762397715de85c7071699800e7722b2da260408051338152346020820152a1005b5f80fd5b606036600319011261006e57600435906001600160a01b038216820361006e576044359167ffffffffffffffff831161006e573660238401121561006e5782600401359167ffffffffffffffff831161006e57366024848601011161006e5730330361019d5780835f95946024879601833781018481520391602435905af13d15610195573d9067ffffffffffffffff82116101815760405191601f8101601f19908116603f0116830167ffffffffffffffff8111848210176101815760405282523d5f602084013e5b15610172576040602091815192839181835280519182918282860152018484015e5f828201840152601f01601f19168101030190f35b633204506f60e01b5f5260045ffd5b634e487b7160e01b5f52604160045260245ffd5b60609061013c565b63029a949d60e31b5f5260045ffdfea2646970667358221220dddd865b781be31763b302f5c6813f52323945052b573406f06c0f9ca0c98cbe64736f6c63430008210033",
    "linkReferences": {}
  },
  "methodIdentifiers": {
    "execute(address,uint256,bytes)": "b61d27f6",
    "test()": "f8a8fd6d"
  },
  "id": 16
}