{
  "abi": [
    {
      "type": "function",
      "name": "arithmeticError",
      "inputs": [],
      "outputs": [
        {
          "name": "",
          "type": "bytes",
          "internalType": "bytes"
        }
      ],
      "stateMutability": "view"
    },
    {
      "type": "function",
      "name": "assertionError",
      "inputs": [],
      "outputs": [
        {
          "name": "",
          "type": "bytes",
          "internalType": "bytes"
        }
      ],
      "stateMutability": "view"
    },
    {
      "type": "function",
      "name": "divisionError",
      "inputs": [],
      "outputs": [
        {
          "name": "",
          "type": "bytes",
          "internalType": "bytes"
        }
      ],
      "stateMutability": "view"
    },
    {
      "type": "function",
      "name": "encodeStorageError",
      "inputs": [],
      "outputs": [
        {
          "name": "",
          "type": "bytes",
          "internalType": "bytes"
        }
      ],
      "stateMutability": "view"
    },
    {
      "type": "function",
      "name": "enumConversionError",
      "inputs": [],
      "outputs": [
        {
          "name": "",
          "type": "bytes",
          "internalType": "bytes"
        }
      ],
      "stateMutability": "view"
    },
    {
      "type": "function",
      "name": "indexOOBError",
      "inputs": [],
      "outputs": [
        {
          "name": "",
          "type": "bytes",
          "internalType": "bytes"
        }
      ],
      "stateMutability": "view"
    },
    {
      "type": "function",
      "name": "lowLevelError",
      "inputs": [],
      "outputs": [
        {
          "name": "",
          "type": "bytes",
          "internalType": "bytes"
        }
      ],
      "stateMutability": "view"
    },
    {
      "type": "function",
      "name": "memOverflowError",
      "inputs": [],
      "outputs": [
        {
          "name": "",
          "type": "bytes",
          "internalType": "bytes"
        }
      ],
      "stateMutability": "view"
    },
    {
      "type": "function",
      "name": "popError",
      "inputs": [],
      "outputs": [
        {
          "name": "",
          "type": "bytes",
          "internalType": "bytes"
        }
      ],
      "stateMutability": "view"
    },
    {
      "type": "function",
      "name": "zeroVarError",
      "inputs": [],
      "outputs": [
        {
          "name": "",
          "type": "bytes",
          "internalType": "bytes"
        }
      ],
      "stateMutability": "view"
    }
  ],
  "bytecode": {
    "object": "0x6080806040523460195761033e908161001e823930815050f35b5f80fdfe6080806040526004361015610012575f80fd5b5f3560e01c90816305ee86121461028e57508063103329771461025a5780631de45560146102265780638995290f146101f2578063986c5f68146101be578063ac3d92c61461016e578063b22dc54d1461013a578063b67689da14610106578063d160e4de146100d25763fa784a441461008a575f80fd5b5f3660031901126100ce576100ca604051634e487b7160e01b602082015260126024820152602481526100be6044826102bc565b604051918291826102de565b0390f35b5f80fd5b5f3660031901126100ce576100ca604051634e487b7160e01b602082015260226024820152602481526100be6044826102bc565b5f3660031901126100ce576100ca604051634e487b7160e01b602082015260516024820152602481526100be6044826102bc565b5f3660031901126100ce576100ca604051634e487b7160e01b602082015260316024820152602481526100be6044826102bc565b5f3660031901126100ce57604051602081019080821067ffffffffffffffff8311176101aa576100ca916040525f8152604051918291826102de565b634e487b7160e01b5f52604160045260245ffd5b5f3660031901126100ce576100ca604051634e487b7160e01b602082015260416024820152602481526100be6044826102bc565b5f3660031901126100ce576100ca604051634e487b7160e01b602082015260116024820152602481526100be6044826102bc565b5f3660031901126100ce576100ca604051634e487b7160e01b602082015260216024820152602481526100be6044826102bc565b5f3660031901126100ce576100ca604051634e487b7160e01b602082015260016024820152602481526100be6044826102bc565b5f3660031901126100ce576100ca90634e487b7160e01b602082015260326024820152602481526100be6044825b90601f8019910116810190811067ffffffffffffffff8211176101aa57604052565b602060409281835280519182918282860152018484015e5f828201840152601f01601f191601019056fea2646970667358221220a66e5e93d6319d9281e77ca3e8a6adbb03446eaeabc4abc23ae150f33d935b5464736f6c63430008210033",
    "linkReferences": {}
  },
  "methodIdentifiers": {
    "arithmeticError()": "8995290f",
    "assertionError()": "10332977",
    "divisionError()": "fa784a44",
    "encodeStorageError()": "d160e4de",
    "enumConversionError()": "1de45560",
    "indexOOBError()": "05ee8612",
    "lowLevelError()": "ac3d92c6",
    "memOverflowError()": "986c5f68",
    "popError()": "b22dc54d",
    "zeroVarError()": "b67689da"
  },
  "id": 24
}