{
  "abi": [
    {
      "type": "receive",
      "stateMutability": "payable"
    },
    {
      "type": "function",
      "name": "execute2",
      "inputs": [
        {
          "name": "target1",
          "type": "address",
          "internalType": "address"
        },
        {
          "name": "data1",
          "type": "bytes",
          "internalType": "bytes"
        },
        {
          "name": "target2",
          "type": "address",
          "internalType": "address"
        },
        {
          "name": "data2",
          "type": "bytes",
          "internalType": "bytes"
        }
      ],
      "outputs": [],
      "stateMutability": "payable"
    },
    {
      "type": "function",
      "name": "execute3",
      "inputs": [
        {
          "name": "target1",
          "type": "address",
          "internalType": "address"
        },
        {
          "name": "data1",
          "type": "bytes",
          "internalType": "bytes"
        },
        {
          "name": "target2",
          "type": "address",
          "internalType": "address"
        },
        {
          "name": "data2",
          "type": "bytes",
          "internalType": "bytes"
        },
        {
          "name": "target3",
          "type": "address",
          "internalType": "address"
        },
        {
          "name": "data3",
          "type": "bytes",
          "internalType": "bytes"
        }
      ],
      "outputs": [],
      "stateMutability": "payable"
    },
    {
      "type": "function",
      "name": "execute5",
      "inputs": [
        {
          "name": "t1",
          "type": "address",
          "internalType": "address"
        },
        {
          "name": "d1",
          "type": "bytes",
          "internalType": "bytes"
        },
        {
          "name": "t2",
          "type": "address",
          "internalType": "address"
        },
        {
          "name": "d2",
          "type": "bytes",
          "internalType": "bytes"
        },
        {
          "name": "t3",
          "type": "address",
          "internalType": "address"
        },
        {
          "name": "d3",
          "type": "bytes",
          "internalType": "bytes"
        },
        {
          "name": "t4",
          "type": "address",
          "internalType": "address"
        },
        {
          "name": "d4",
          "type": "bytes",
          "internalType": "bytes"
        },
        {
          "name": "t5",
          "type": "address",
          "internalType": "address"
        },
        {
          "name": "d5",
          "type": "bytes",
          "internalType": "bytes"
        }
      ],
      "outputs": [],
      "stateMutability": "payable"
    },
    {
      "type": "function",
      "name": "executeBuy11",
      "inputs": [
        {
          "name": "t1",
          "type": "address",
          "internalType": "address"
        },
        {
          "name": "d1",
          "type": "bytes",
          "internalType": "bytes"
        },
        {
          "name": "t2",
          "type": "address",
          "internalType": "address"
        },
        {
          "name": "d2",
          "type": "bytes",
          "internalType": "bytes"
        },
        {
          "name": "t3",
          "type": "address",
          "internalType": "address"
        },
        {
          "name": "d3",
          "type": "bytes",
          "internalType": "bytes"
        },
        {
          "name": "t4",
          "type": "address",
          "internalType": "address"
        },
        {
          "name": "d4",
          "type": "bytes",
          "internalType": "bytes"
        },
        {
          "name": "t5",
          "type": "address",
          "internalType": "address"
        },
        {
          "name": "d5",
          "type": "bytes",
          "internalType": "bytes"
        },
        {
          "name": "t6",
          "type": "address",
          "internalType": "address"
        },
        {
          "name": "d6",
          "type": "bytes",
          "internalType": "bytes"
        },
        {
          "name": "t7",
          "type": "address",
          "internalType": "address"
        },
        {
          "name": "d7",
          "type": "bytes",
          "internalType": "bytes"
        },
        {
          "name": "t8",
          "type": "address",
          "internalType": "address"
        },
        {
          "name": "d8",
          "type": "bytes",
          "internalType": "bytes"
        },
        {
          "name": "t9",
          "type": "address",
          "internalType": "address"
        },
        {
          "name": "d9",
          "type": "bytes",
          "internalType": "bytes"
        },
        {
          "name": "t10",
          "type": "address",
          "internalType": "address"
        },
        {
          "name": "d10",
          "type": "bytes",
          "internalType": "bytes"
        },
        {
          "name": "t11",
          "type": "address",
          "internalType": "address"
        },
        {
          "name": "d11",
          "type": "bytes",
          "internalType": "bytes"
        }
      ],
      "outputs": [
        {
          "name": "r1",
          "type": "bytes",
          "internalType": "bytes"
        },
        {
          "name": "r2",
          "type": "bytes",
          "internalType": "bytes"
        },
        {
          "name": "r3",
          "type": "bytes",
          "internalType": "bytes"
        },
        {
          "name": "r4",
          "type": "bytes",
          "internalType": "bytes"
        },
        {
          "name": "r5",
          "type": "bytes",
          "internalType": "bytes"
        },
        {
          "name": "r6",
          "type": "bytes",
          "internalType": "bytes"
        }
      ],
      "stateMutability": "payable"
    },
    {
      "type": "event",
      "name": "Executed",
      "inputs": [
        {
          "name": "target",
          "type": "address",
          "indexed": false,
          "internalType": "address"
        }
      ],
      "anonymous": false
    },
    {
      "type": "error",
      "name": "Call10Failed",
      "inputs": []
    },
    {
      "type": "error",
      "name": "Call11Failed",
      "inputs": []
    },
    {
      "type": "error",
      "name": "Call1Failed",
      "inputs": []
    },
    {
      "type": "error",
      "name": "Call2Failed",
      "inputs": []
    },
    {
      "type": "error",
      "name": "Call3Failed",
      "inputs": []
    },
    {
      "type": "error",
      "name": "Call4Failed",
      "inputs": []
    },
    {
      "type": "error",
      "name": "Call5Failed",
      "inputs": []
    },
    {
      "type": "error",
      "name": "Call6Failed",
      "inputs": []
    },
    {
      "type": "error",
      "name": "Call7Failed",
      "inputs": []
    },
    {
      "type": "error",
      "name": "Call8Failed",
      "inputs": []
    },
    {
      "type": "error",
      "name": "Call9Failed",
      "inputs": []
    },
    {
      "type": "error",
      "name": "OnlySelf",
      "inputs": []
    }
  ],
  "bytecode": {
    "object": "0x60808060405234601557610b35908161001a8239f35b5f80fdfe61040080604052600436101561001d575b50361561001b575f80fd5b005b5f3560e01c9081630792d5ce1461083c575080632290230b146102ba5780637982ac5e14610199576393ad32f714610055575f610010565b60c0366003190112610195576100696109dc565b6024356001600160401b03811161019557610088903690600401610a4b565b6100939291926109f2565b6064356001600160401b038111610195576100b2903690600401610a4b565b916100bb610a08565b9360a4356001600160401b038111610195576100db903690600401610a4b565b97909630330361018657825f80949381946040519384928337810182815203925af1610105610a9c565b501561017757825f80949381946040519384928337810182815203925af161012b610a9c565b501561016857825f80949381946040519384928337810182815203925af1610151610a9c565b501561015957005b631f7609b160e11b5f5260045ffd5b63222e7fd360e01b5f5260045ffd5b6302912bdb60e61b5f5260045ffd5b63029a949d60e31b5f5260045ffd5b5f80fd5b6080366003190112610195576101ad6109dc565b6024356001600160401b038111610195576101cc903690600401610a4b565b916101d56109f2565b926064356001600160401b038111610195576101f5903690600401610a4b565b91909330330361018657815f9291839260405192839283378101838152039082865af1610220610a9c565b5015610177576040516001600160a01b0390921682525f9283927fdf42bfa876a741bbe542cf1a563269e1390bf03901b5d433a6e8afd6ee36dbfe90602090a18160405192839283378101838152039082855af161027c610a9c565b5015610168576040516001600160a01b0390911681527fdf42bfa876a741bbe542cf1a563269e1390bf03901b5d433a6e8afd6ee36dbfe90602090a1005b6102c0366003190112610195576102cf6109dc565b610320526024356001600160401b038111610195576102f2903690600401610a4b565b6102e052610300526103026109f2565b6103c0526064356001600160401b03811161019557610325903690600401610a4b565b6102c0526102a052610335610a08565b6103805260a4356001600160401b03811161019557610358903690600401610a4b565b61036052610364610a1e565b60e4356001600160401b03811161019557610383903690600401610a4b565b9161038c610a34565b61034052610124356001600160401b038111610195576103b0903690600401610a4b565b610144356103e0819052919490916001600160a01b038116900361019557610164356001600160401b038111610195576103ee903690600401610a4b565b610184356103a081905290959194906001600160a01b0381169003610195576101a4356001600160401b0381116101955761042d903690600401610a4b565b610140526101c4356101608190529098906001600160a01b0381169003610195576101e4356001600160401b0381116101955761046e903690600401610a4b565b610200526101a052610204356102208190526001600160a01b038116900361019557610224356001600160401b038111610195576104b0903690600401610a4b565b6102805261026052610244356102408190526001600160a01b038116900361019557610264356001600160401b038111610195576104f2903690600401610a4b565b6101e0526101c052610284356101808190526001600160a01b0381169003610195576102a4356001600160401b03811161019557610534903690600401610a4b565b6101205261010052303303610186575f806040516102e051610300518237806102e0518101838152039082610320515af160e052610570610a9c565b60805260e05115610177575f806040516102c0516102a0518237806102c05181018381520390826103c0515af16105a5610a9c565b5015610168575f8091604051906103605190823780610360518101838152039082610380515af16105d4610a9c565b501561015957825f80949381946040519384928337810182815203925af160c0526105fd610a9c565b9360c0511561082d57815f9291839260405192839283378101838152039082610340515af161062a610a9c565b501561081e57815f92918392604051928392833781018381520390826103e0515af160a052610657610a9c565b9160a0511561080f575f80916040519061014051908237806101405181018381520390826103a0515af1610689610a9c565b5015610800575f80604051610200516101a051823780610200518101838152039082610160515af16106b9610a9c565b50156107f1575f806040516102805161026051823780610280518101838152039082610220515af1916106ea610a9c565b92156107e2575f806040516101e0516101c0518237806101e0518101838152039082610240515af161071a610a9c565b50156107d3575f806040516101205161010051823780610120518101838152039082610180515af161074a610a9c565b90156107c4576107b26107a4610788956107966107c09560405198899860c08a5261077a60c08b01608051610a78565b908a820360208c0152610a78565b9088820360408a0152610a78565b908682036060880152610a78565b848103608086015282610a78565b9083820360a0850152610a78565b0390f35b63f6eca6cd60e01b5f5260045ffd5b63b0fa74d560e01b5f5260045ffd5b6306f7056360e31b5f5260045ffd5b633a8b2e3760e01b5f5260045ffd5b63c9fdb71f60e01b5f5260045ffd5b6302f647fd60e51b5f5260045ffd5b63567a163b60e01b5f5260045ffd5b632747112b60e21b5f5260045ffd5b610140366003190112610195576108516109dc565b906024356001600160401b03811161019557610871903690600401610a4b565b6108796109f2565b906064356001600160401b03811161019557610899903690600401610a4b565b6108a1610a08565b9060a4356001600160401b038111610195576108c1903690600401610a4b565b9290916108cc610a1e565b9460e4356001600160401b038111610195576108ec903690600401610a4b565b9890976108f7610a34565b9a610124356001600160401b03811161019557610918903690600401610a4b565b9e909d303303610186575f8185829683968337810182815203925af161093c610a9c565b501561017757825f80949381946040519384928337810182815203925af1610962610a9c565b501561016857825f80949381946040519384928337810182815203925af1610988610a9c565b501561015957825f80949381946040519384928337810182815203925af16109ae610a9c565b501561082d57825f80949381946040519384928337810182815203925af16109d4610a9c565b501561081e57005b600435906001600160a01b038216820361019557565b604435906001600160a01b038216820361019557565b608435906001600160a01b038216820361019557565b60c435906001600160a01b038216820361019557565b61010435906001600160a01b038216820361019557565b9181601f84011215610195578235916001600160401b038311610195576020838186019501011161019557565b805180835260209291819084018484015e5f828201840152601f01601f1916010190565b3d15610afa573d906001600160401b038211610ae65760405191601f8101601f19908116603f011683016001600160401b03811184821017610ae65760405282523d5f602084013e565b634e487b7160e01b5f52604160045260245ffd5b60609056fea2646970667358221220b328bba321055630f2b67e342b6471532a80ae27a8f20be5b55eecfd036b2bf264736f6c63430008210033",
    "linkReferences": {}
  },
  "methodIdentifiers": {
    "execute2(address,bytes,address,bytes)": "7982ac5e",
    "execute3(address,bytes,address,bytes,address,bytes)": "93ad32f7",
    "execute5(address,bytes,address,bytes,address,bytes,address,bytes,address,bytes)": "0792d5ce",
    "executeBuy11(address,bytes,address,bytes,address,bytes,address,bytes,address,bytes,address,bytes,address,bytes,address,bytes,address,bytes,address,bytes,address,bytes)": "2290230b"
  },
  "id": 7
}