{"abi":[{"type":"receive","stateMutability":"payable"},{"type":"function","name":"execute2","inputs":[{"name":"target1","type":"address","internalType":"address"},{"name":"data1","type":"bytes","internalType":"bytes"},{"name":"target2","type":"address","internalType":"address"},{"name":"data2","type":"bytes","internalType":"bytes"}],"outputs":[],"stateMutability":"payable"},{"type":"function","name":"execute3","inputs":[{"name":"target1","type":"address","internalType":"address"},{"name":"data1","type":"bytes","internalType":"bytes"},{"name":"target2","type":"address","internalType":"address"},{"name":"data2","type":"bytes","internalType":"bytes"},{"name":"target3","type":"address","internalType":"address"},{"name":"data3","type":"bytes","internalType":"bytes"}],"outputs":[],"stateMutability":"payable"},{"type":"function","name":"execute5","inputs":[{"name":"t1","type":"address","internalType":"address"},{"name":"d1","type":"bytes","internalType":"bytes"},{"name":"t2","type":"address","internalType":"address"},{"name":"d2","type":"bytes","internalType":"bytes"},{"name":"t3","type":"address","internalType":"address"},{"name":"d3","type":"bytes","internalType":"bytes"},{"name":"t4","type":"address","internalType":"address"},{"name":"d4","type":"bytes","internalType":"bytes"},{"name":"t5","type":"address","internalType":"address"},{"name":"d5","type":"bytes","internalType":"bytes"}],"outputs":[],"stateMutability":"payable"},{"type":"function","name":"executeBuy11","inputs":[{"name":"t1","type":"address","internalType":"address"},{"name":"d1","type":"bytes","internalType":"bytes"},{"name":"t2","type":"address","internalType":"address"},{"name":"d2","type":"bytes","internalType":"bytes"},{"name":"t3","type":"address","internalType":"address"},{"name":"d3","type":"bytes","internalType":"bytes"},{"name":"t4","type":"address","internalType":"address"},{"name":"d4","type":"bytes","internalType":"bytes"},{"name":"t5","type":"address","internalType":"address"},{"name":"d5","type":"bytes","internalType":"bytes"},{"name":"t6","type":"address","internalType":"address"},{"name":"d6","type":"bytes","internalType":"bytes"},{"name":"t7","type":"address","internalType":"address"},{"name":"d7","type":"bytes","internalType":"bytes"},{"name":"t8","type":"address","internalType":"address"},{"name":"d8","type":"bytes","internalType":"bytes"},{"name":"t9","type":"address","internalType":"address"},{"name":"d9","type":"bytes","internalType":"bytes"},{"name":"t10","type":"address","internalType":"address"},{"name":"d10","type":"bytes","internalType":"bytes"},{"name":"t11","type":"address","internalType":"address"},{"name":"d11","type":"bytes","internalType":"bytes"}],"outputs":[{"name":"r1","type":"bytes","internalType":"bytes"},{"name":"r2","type":"bytes","internalType":"bytes"},{"name":"r3","type":"bytes","internalType":"bytes"},{"name":"r4","type":"bytes","internalType":"bytes"},{"name":"r5","type":"bytes","internalType":"bytes"},{"name":"r6","type":"bytes","internalType":"bytes"}],"stateMutability":"payable"},{"type":"event","name":"Executed","inputs":[{"name":"target","type":"address","indexed":false,"internalType":"address"}],"anonymous":false},{"type":"error","name":"Call10Failed","inputs":[]},{"type":"error","name":"Call11Failed","inputs":[]},{"type":"error","name":"Call1Failed","inputs":[]},{"type":"error","name":"Call2Failed","inputs":[]},{"type":"error","name":"Call3Failed","inputs":[]},{"type":"error","name":"Call4Failed","inputs":[]},{"type":"error","name":"Call5Failed","inputs":[]},{"type":"error","name":"Call6Failed","inputs":[]},{"type":"error","name":"Call7Failed","inputs":[]},{"type":"error","name":"Call8Failed","inputs":[]},{"type":"error","name":"Call9Failed","inputs":[]},{"type":"error","name":"OnlySelf","inputs":[]}],"bytecode":{"object":"0x60808060405234601557610b35908161001a8239f35b5f80fdfe61040080604052600436101561001d575b50361561001b575f80fd5b005b5f3560e01c9081630792d5ce1461083c575080632290230b146102ba5780637982ac5e14610199576393ad32f714610055575f610010565b60c0366003190112610195576100696109dc565b6024356001600160401b03811161019557610088903690600401610a4b565b6100939291926109f2565b6064356001600160401b038111610195576100b2903690600401610a4b565b916100bb610a08565b9360a4356001600160401b038111610195576100db903690600401610a4b565b97909630330361018657825f80949381946040519384928337810182815203925af1610105610a9c565b501561017757825f80949381946040519384928337810182815203925af161012b610a9c565b501561016857825f80949381946040519384928337810182815203925af1610151610a9c565b501561015957005b631f7609b160e11b5f5260045ffd5b63222e7fd360e01b5f5260045ffd5b6302912bdb60e61b5f5260045ffd5b63029a949d60e31b5f5260045ffd5b5f80fd5b6080366003190112610195576101ad6109dc565b6024356001600160401b038111610195576101cc903690600401610a4b565b916101d56109f2565b926064356001600160401b038111610195576101f5903690600401610a4b565b91909330330361018657815f9291839260405192839283378101838152039082865af1610220610a9c565b5015610177576040516001600160a01b0390921682525f9283927fdf42bfa876a741bbe542cf1a563269e1390bf03901b5d433a6e8afd6ee36dbfe90602090a18160405192839283378101838152039082855af161027c610a9c565b5015610168576040516001600160a01b0390911681527fdf42bfa876a741bbe542cf1a563269e1390bf03901b5d433a6e8afd6ee36dbfe90602090a1005b6102c0366003190112610195576102cf6109dc565b610320526024356001600160401b038111610195576102f2903690600401610a4b565b6102e052610300526103026109f2565b6103c0526064356001600160401b03811161019557610325903690600401610a4b565b6102c0526102a052610335610a08565b6103805260a4356001600160401b03811161019557610358903690600401610a4b565b61036052610364610a1e565b60e4356001600160401b03811161019557610383903690600401610a4b565b9161038c610a34565b61034052610124356001600160401b038111610195576103b0903690600401610a4b565b610144356103e0819052919490916001600160a01b038116900361019557610164356001600160401b038111610195576103ee903690600401610a4b565b610184356103a081905290959194906001600160a01b0381169003610195576101a4356001600160401b0381116101955761042d903690600401610a4b565b610140526101c4356101608190529098906001600160a01b0381169003610195576101e4356001600160401b0381116101955761046e903690600401610a4b565b610200526101a052610204356102208190526001600160a01b038116900361019557610224356001600160401b038111610195576104b0903690600401610a4b565b6102805261026052610244356102408190526001600160a01b038116900361019557610264356001600160401b038111610195576104f2903690600401610a4b565b6101e0526101c052610284356101808190526001600160a01b0381169003610195576102a4356001600160401b03811161019557610534903690600401610a4b565b6101205261010052303303610186575f806040516102e051610300518237806102e0518101838152039082610320515af160e052610570610a9c565b60805260e05115610177575f806040516102c0516102a0518237806102c05181018381520390826103c0515af16105a5610a9c565b5015610168575f8091604051906103605190823780610360518101838152039082610380515af16105d4610a9c565b501561015957825f80949381946040519384928337810182815203925af160c0526105fd610a9c565b9360c0511561082d57815f9291839260405192839283378101838152039082610340515af161062a610a9c565b501561081e57815f92918392604051928392833781018381520390826103e0515af160a052610657610a9c565b9160a0511561080f575f80916040519061014051908237806101405181018381520390826103a0515af1610689610a9c565b5015610800575f80604051610200516101a051823780610200518101838152039082610160515af16106b9610a9c565b50156107f1575f806040516102805161026051823780610280518101838152039082610220515af1916106ea610a9c565b92156107e2575f806040516101e0516101c0518237806101e0518101838152039082610240515af161071a610a9c565b50156107d3575f806040516101205161010051823780610120518101838152039082610180515af161074a610a9c565b90156107c4576107b26107a4610788956107966107c09560405198899860c08a5261077a60c08b01608051610a78565b908a820360208c0152610a78565b9088820360408a0152610a78565b908682036060880152610a78565b848103608086015282610a78565b9083820360a0850152610a78565b0390f35b63f6eca6cd60e01b5f5260045ffd5b63b0fa74d560e01b5f5260045ffd5b6306f7056360e31b5f5260045ffd5b633a8b2e3760e01b5f5260045ffd5b63c9fdb71f60e01b5f5260045ffd5b6302f647fd60e51b5f5260045ffd5b63567a163b60e01b5f5260045ffd5b632747112b60e21b5f5260045ffd5b610140366003190112610195576108516109dc565b906024356001600160401b03811161019557610871903690600401610a4b565b6108796109f2565b906064356001600160401b03811161019557610899903690600401610a4b565b6108a1610a08565b9060a4356001600160401b038111610195576108c1903690600401610a4b565b9290916108cc610a1e565b9460e4356001600160401b038111610195576108ec903690600401610a4b565b9890976108f7610a34565b9a610124356001600160401b03811161019557610918903690600401610a4b565b9e909d303303610186575f8185829683968337810182815203925af161093c610a9c565b501561017757825f80949381946040519384928337810182815203925af1610962610a9c565b501561016857825f80949381946040519384928337810182815203925af1610988610a9c565b501561015957825f80949381946040519384928337810182815203925af16109ae610a9c565b501561082d57825f80949381946040519384928337810182815203925af16109d4610a9c565b501561081e57005b600435906001600160a01b038216820361019557565b604435906001600160a01b038216820361019557565b608435906001600160a01b038216820361019557565b60c435906001600160a01b038216820361019557565b61010435906001600160a01b038216820361019557565b9181601f84011215610195578235916001600160401b038311610195576020838186019501011161019557565b805180835260209291819084018484015e5f828201840152601f01601f1916010190565b3d15610afa573d906001600160401b038211610ae65760405191601f8101601f19908116603f011683016001600160401b03811184821017610ae65760405282523d5f602084013e565b634e487b7160e01b5f52604160045260245ffd5b60609056fea2646970667358221220b328bba321055630f2b67e342b6471532a80ae27a8f20be5b55eecfd036b2bf264736f6c63430008210033","linkReferences":{}},"assembly":"    /* \"contracts/FutarchyBatchExecutorUltra.sol\":226:4042  contract FutarchyBatchExecutorUltra {... */\n  0x80\n  dup1\n  0x40\n  mstore\n  jumpi(tag_1, callvalue)\n  dataSize(sub_0)\n  swap1\n  dup2\n  dataOffset(sub_0)\n  dup3\n  codecopy\n  return\ntag_1:\n  0x00\n  dup1\n  revert\nstop\n\nsub_0: assembly {\n        /* \"contracts/FutarchyBatchExecutorUltra.sol\":226:4042  contract FutarchyBatchExecutorUltra {... */\n      0x0400\n      dup1\n      0x40\n      mstore\n      jumpi(tag_9, iszero(lt(calldatasize, 0x04)))\n    tag_10:\n      pop\n      jumpi(tag_11, iszero(calldatasize))\n      0x00\n      dup1\n      revert\n    tag_11:\n      stop\n    tag_9:\n      shr(0xe0, calldataload(0x00))\n      swap1\n      dup2\n      0x0792d5ce\n      eq\n      tag_13\n      jumpi\n      pop\n      dup1\n      0x2290230b\n      eq\n      tag_15\n      jumpi\n      dup1\n      0x7982ac5e\n      eq\n      tag_17\n      jumpi\n      0x93ad32f7\n      eq\n      tag_19\n      jumpi\n      0x00\n      jump(tag_10)\n    tag_19:\n      jumpi(tag_32, slt(add(not(0x03), calldatasize), 0xc0))\n      tag_23\n      tag_1\n      jump\t// in\n    tag_23:\n      calldataload(0x24)\n      sub(shl(0x40, 0x01), 0x01)\n      dup2\n      gt\n      tag_32\n      jumpi\n      tag_26\n      swap1\n      calldatasize\n      swap1\n      0x04\n      add\n      tag_6\n      jump\t// in\n    tag_26:\n      tag_27\n      swap3\n      swap2\n      swap3\n      tag_2\n      jump\t// in\n    tag_27:\n      calldataload(0x64)\n      sub(shl(0x40, 0x01), 0x01)\n      dup2\n      gt\n      tag_32\n      jumpi\n      tag_30\n      swap1\n      calldatasize\n      swap1\n      0x04\n      add\n      tag_6\n      jump\t// in\n    tag_30:\n      swap2\n      tag_31\n      tag_3\n      jump\t// in\n    tag_31:\n      swap4\n      calldataload(0xa4)\n      sub(shl(0x40, 0x01), 0x01)\n      dup2\n      gt\n      tag_32\n      jumpi\n      tag_34\n      swap1\n      calldatasize\n      swap1\n      0x04\n      add\n      tag_6\n      jump\t// in\n    tag_34:\n        /* \"contracts/FutarchyBatchExecutorUltra.sol\":683:687  this */\n      swap8\n      swap1\n      swap7\n      address\n        /* \"contracts/FutarchyBatchExecutorUltra.sol\":661:671  msg.sender */\n      caller\n        /* \"contracts/FutarchyBatchExecutorUltra.sol\":661:688  msg.sender != address(this) */\n      sub\n        /* \"contracts/FutarchyBatchExecutorUltra.sol\":657:707  if (msg.sender != address(this)) revert OnlySelf() */\n      tag_35\n      jumpi\n        /* \"contracts/FutarchyBatchExecutorUltra.sol\":226:4042  contract FutarchyBatchExecutorUltra {... */\n      dup3\n      0x00\n      dup1\n      swap5\n      swap4\n      dup2\n      swap5\n      mload(0x40)\n      swap4\n      dup5\n      swap3\n      dup4\n      calldatacopy\n      dup2\n      add\n      dup3\n      dup2\n      mstore\n        /* \"contracts/FutarchyBatchExecutorUltra.sol\":1453:1472  target1.call(data1) */\n      sub\n      swap3\n      gas\n      call\n      tag_37\n      tag_8\n      jump\t// in\n    tag_37:\n      pop\n        /* \"contracts/FutarchyBatchExecutorUltra.sol\":1486:1489  !s1 */\n      iszero\n        /* \"contracts/FutarchyBatchExecutorUltra.sol\":1482:1511  if (!s1) revert Call1Failed() */\n      tag_38\n      jumpi\n        /* \"contracts/FutarchyBatchExecutorUltra.sol\":226:4042  contract FutarchyBatchExecutorUltra {... */\n      dup3\n      0x00\n      dup1\n      swap5\n      swap4\n      dup2\n      swap5\n      mload(0x40)\n      swap4\n      dup5\n      swap3\n      dup4\n      calldatacopy\n      dup2\n      add\n      dup3\n      dup2\n      mstore\n        /* \"contracts/FutarchyBatchExecutorUltra.sol\":1535:1554  target2.call(data2) */\n      sub\n      swap3\n      gas\n      call\n      tag_40\n      tag_8\n      jump\t// in\n    tag_40:\n      pop\n        /* \"contracts/FutarchyBatchExecutorUltra.sol\":1568:1571  !s2 */\n      iszero\n        /* \"contracts/FutarchyBatchExecutorUltra.sol\":1564:1593  if (!s2) revert Call2Failed() */\n      tag_41\n      jumpi\n        /* \"contracts/FutarchyBatchExecutorUltra.sol\":226:4042  contract FutarchyBatchExecutorUltra {... */\n      dup3\n      0x00\n      dup1\n      swap5\n      swap4\n      dup2\n      swap5\n      mload(0x40)\n      swap4\n      dup5\n      swap3\n      dup4\n      calldatacopy\n      dup2\n      add\n      dup3\n      dup2\n      mstore\n        /* \"contracts/FutarchyBatchExecutorUltra.sol\":1617:1636  target3.call(data3) */\n      sub\n      swap3\n      gas\n      call\n      tag_43\n      tag_8\n      jump\t// in\n    tag_43:\n      pop\n        /* \"contracts/FutarchyBatchExecutorUltra.sol\":1650:1653  !s3 */\n      iszero\n        /* \"contracts/FutarchyBatchExecutorUltra.sol\":1646:1675  if (!s3) revert Call3Failed() */\n      tag_44\n      jumpi\n        /* \"contracts/FutarchyBatchExecutorUltra.sol\":226:4042  contract FutarchyBatchExecutorUltra {... */\n      stop\n        /* \"contracts/FutarchyBatchExecutorUltra.sol\":1646:1675  if (!s3) revert Call3Failed() */\n    tag_44:\n        /* \"contracts/FutarchyBatchExecutorUltra.sol\":2223:2236  Call3Failed() */\n      shl(0xe1, 0x1f7609b1)\n        /* \"contracts/FutarchyBatchExecutorUltra.sol\":226:4042  contract FutarchyBatchExecutorUltra {... */\n      0x00\n        /* \"contracts/FutarchyBatchExecutorUltra.sol\":1662:1675  Call3Failed() */\n      mstore\n        /* \"contracts/FutarchyBatchExecutorUltra.sol\":226:4042  contract FutarchyBatchExecutorUltra {... */\n      0x04\n      0x00\n        /* \"contracts/FutarchyBatchExecutorUltra.sol\":1662:1675  Call3Failed() */\n      revert\n        /* \"contracts/FutarchyBatchExecutorUltra.sol\":1564:1593  if (!s2) revert Call2Failed() */\n    tag_41:\n        /* \"contracts/FutarchyBatchExecutorUltra.sol\":2156:2169  Call2Failed() */\n      shl(0xe0, 0x222e7fd3)\n        /* \"contracts/FutarchyBatchExecutorUltra.sol\":226:4042  contract FutarchyBatchExecutorUltra {... */\n      0x00\n        /* \"contracts/FutarchyBatchExecutorUltra.sol\":1580:1593  Call2Failed() */\n      mstore\n        /* \"contracts/FutarchyBatchExecutorUltra.sol\":226:4042  contract FutarchyBatchExecutorUltra {... */\n      0x04\n      0x00\n        /* \"contracts/FutarchyBatchExecutorUltra.sol\":1580:1593  Call2Failed() */\n      revert\n        /* \"contracts/FutarchyBatchExecutorUltra.sol\":1482:1511  if (!s1) revert Call1Failed() */\n    tag_38:\n        /* \"contracts/FutarchyBatchExecutorUltra.sol\":2089:2102  Call1Failed() */\n      shl(0xe6, 0x02912bdb)\n        /* \"contracts/FutarchyBatchExecutorUltra.sol\":226:4042  contract FutarchyBatchExecutorUltra {... */\n      0x00\n        /* \"contracts/FutarchyBatchExecutorUltra.sol\":1498:1511  Call1Failed() */\n      mstore\n        /* \"contracts/FutarchyBatchExecutorUltra.sol\":226:4042  contract FutarchyBatchExecutorUltra {... */\n      0x04\n      0x00\n        /* \"contracts/FutarchyBatchExecutorUltra.sol\":1498:1511  Call1Failed() */\n      revert\n        /* \"contracts/FutarchyBatchExecutorUltra.sol\":657:707  if (msg.sender != address(this)) revert OnlySelf() */\n    tag_35:\n        /* \"contracts/FutarchyBatchExecutorUltra.sol\":697:707  OnlySelf() */\n      shl(0xe3, 0x029a949d)\n        /* \"contracts/FutarchyBatchExecutorUltra.sol\":226:4042  contract FutarchyBatchExecutorUltra {... */\n      0x00\n        /* \"contracts/FutarchyBatchExecutorUltra.sol\":697:707  OnlySelf() */\n      mstore\n        /* \"contracts/FutarchyBatchExecutorUltra.sol\":226:4042  contract FutarchyBatchExecutorUltra {... */\n      0x04\n      0x00\n        /* \"contracts/FutarchyBatchExecutorUltra.sol\":697:707  OnlySelf() */\n      revert\n        /* \"contracts/FutarchyBatchExecutorUltra.sol\":226:4042  contract FutarchyBatchExecutorUltra {... */\n    tag_32:\n      0x00\n      dup1\n      revert\n    tag_17:\n      jumpi(tag_32, slt(add(not(0x03), calldatasize), 0x80))\n      tag_48\n      tag_1\n      jump\t// in\n    tag_48:\n      calldataload(0x24)\n      sub(shl(0x40, 0x01), 0x01)\n      dup2\n      gt\n      tag_32\n      jumpi\n      tag_51\n      swap1\n      calldatasize\n      swap1\n      0x04\n      add\n      tag_6\n      jump\t// in\n    tag_51:\n      swap2\n      tag_52\n      tag_2\n      jump\t// in\n    tag_52:\n      swap3\n      calldataload(0x64)\n      sub(shl(0x40, 0x01), 0x01)\n      dup2\n      gt\n      tag_32\n      jumpi\n      tag_55\n      swap1\n      calldatasize\n      swap1\n      0x04\n      add\n      tag_6\n      jump\t// in\n    tag_55:\n        /* \"contracts/FutarchyBatchExecutorUltra.sol\":683:687  this */\n      swap2\n      swap1\n      swap4\n      address\n        /* \"contracts/FutarchyBatchExecutorUltra.sol\":661:671  msg.sender */\n      caller\n        /* \"contracts/FutarchyBatchExecutorUltra.sol\":661:688  msg.sender != address(this) */\n      sub\n        /* \"contracts/FutarchyBatchExecutorUltra.sol\":657:707  if (msg.sender != address(this)) revert OnlySelf() */\n      tag_35\n      jumpi\n        /* \"contracts/FutarchyBatchExecutorUltra.sol\":226:4042  contract FutarchyBatchExecutorUltra {... */\n      dup2\n      0x00\n      swap3\n      swap2\n      dup4\n      swap3\n      mload(0x40)\n      swap3\n      dup4\n      swap3\n      dup4\n      calldatacopy\n      dup2\n      add\n      dup4\n      dup2\n      mstore\n        /* \"contracts/FutarchyBatchExecutorUltra.sol\":951:970  target1.call(data1) */\n      sub\n      swap1\n      dup3\n      dup7\n      gas\n      call\n      tag_58\n      tag_8\n      jump\t// in\n    tag_58:\n      pop\n        /* \"contracts/FutarchyBatchExecutorUltra.sol\":984:987  !s1 */\n      iszero\n        /* \"contracts/FutarchyBatchExecutorUltra.sol\":980:1009  if (!s1) revert Call1Failed() */\n      tag_38\n      jumpi\n        /* \"contracts/FutarchyBatchExecutorUltra.sol\":226:4042  contract FutarchyBatchExecutorUltra {... */\n      mload(0x40)\n      sub(shl(0xa0, 0x01), 0x01)\n      swap1\n      swap3\n      and\n      dup3\n      mstore\n      0x00\n      swap3\n      dup4\n      swap3\n        /* \"contracts/FutarchyBatchExecutorUltra.sol\":1024:1041  Executed(target1) */\n      0xdf42bfa876a741bbe542cf1a563269e1390bf03901b5d433a6e8afd6ee36dbfe\n      swap1\n        /* \"contracts/FutarchyBatchExecutorUltra.sol\":226:4042  contract FutarchyBatchExecutorUltra {... */\n      0x20\n      swap1\n        /* \"contracts/FutarchyBatchExecutorUltra.sol\":1024:1041  Executed(target1) */\n      log1\n        /* \"contracts/FutarchyBatchExecutorUltra.sol\":226:4042  contract FutarchyBatchExecutorUltra {... */\n      dup2\n      mload(0x40)\n      swap3\n      dup4\n      swap3\n      dup4\n      calldatacopy\n      dup2\n      add\n      dup4\n      dup2\n      mstore\n        /* \"contracts/FutarchyBatchExecutorUltra.sol\":1065:1084  target2.call(data2) */\n      sub\n      swap1\n      dup3\n      dup6\n      gas\n      call\n      tag_61\n      tag_8\n      jump\t// in\n    tag_61:\n      pop\n        /* \"contracts/FutarchyBatchExecutorUltra.sol\":1098:1101  !s2 */\n      iszero\n        /* \"contracts/FutarchyBatchExecutorUltra.sol\":1094:1123  if (!s2) revert Call2Failed() */\n      tag_41\n      jumpi\n        /* \"contracts/FutarchyBatchExecutorUltra.sol\":226:4042  contract FutarchyBatchExecutorUltra {... */\n      mload(0x40)\n      sub(shl(0xa0, 0x01), 0x01)\n      swap1\n      swap2\n      and\n      dup2\n      mstore\n        /* \"contracts/FutarchyBatchExecutorUltra.sol\":1024:1041  Executed(target1) */\n      0xdf42bfa876a741bbe542cf1a563269e1390bf03901b5d433a6e8afd6ee36dbfe\n      swap1\n        /* \"contracts/FutarchyBatchExecutorUltra.sol\":226:4042  contract FutarchyBatchExecutorUltra {... */\n      0x20\n      swap1\n        /* \"contracts/FutarchyBatchExecutorUltra.sol\":1138:1155  Executed(target2) */\n      log1\n        /* \"contracts/FutarchyBatchExecutorUltra.sol\":226:4042  contract FutarchyBatchExecutorUltra {... */\n      stop\n    tag_15:\n      jumpi(tag_32, slt(add(not(0x03), calldatasize), 0x02c0))\n      tag_66\n      tag_1\n      jump\t// in\n    tag_66:\n      0x0320\n      mstore\n      calldataload(0x24)\n      sub(shl(0x40, 0x01), 0x01)\n      dup2\n      gt\n      tag_32\n      jumpi\n      tag_69\n      swap1\n      calldatasize\n      swap1\n      0x04\n      add\n      tag_6\n      jump\t// in\n    tag_69:\n      0x02e0\n      mstore\n      0x0300\n      mstore\n      tag_70\n      tag_2\n      jump\t// in\n    tag_70:\n      0x03c0\n      mstore\n      calldataload(0x64)\n      sub(shl(0x40, 0x01), 0x01)\n      dup2\n      gt\n      tag_32\n      jumpi\n      tag_73\n      swap1\n      calldatasize\n      swap1\n      0x04\n      add\n      tag_6\n      jump\t// in\n    tag_73:\n      0x02c0\n      mstore\n      0x02a0\n      mstore\n      tag_74\n      tag_3\n      jump\t// in\n    tag_74:\n      0x0380\n      mstore\n      calldataload(0xa4)\n      sub(shl(0x40, 0x01), 0x01)\n      dup2\n      gt\n      tag_32\n      jumpi\n      tag_77\n      swap1\n      calldatasize\n      swap1\n      0x04\n      add\n      tag_6\n      jump\t// in\n    tag_77:\n      0x0360\n      mstore\n      tag_78\n      tag_4\n      jump\t// in\n    tag_78:\n      calldataload(0xe4)\n      sub(shl(0x40, 0x01), 0x01)\n      dup2\n      gt\n      tag_32\n      jumpi\n      tag_81\n      swap1\n      calldatasize\n      swap1\n      0x04\n      add\n      tag_6\n      jump\t// in\n    tag_81:\n      swap2\n      tag_82\n      tag_5\n      jump\t// in\n    tag_82:\n      0x0340\n      mstore\n      calldataload(0x0124)\n      sub(shl(0x40, 0x01), 0x01)\n      dup2\n      gt\n      tag_32\n      jumpi\n      tag_85\n      swap1\n      calldatasize\n      swap1\n      0x04\n      add\n      tag_6\n      jump\t// in\n    tag_85:\n      calldataload(0x0144)\n      0x03e0\n      dup2\n      swap1\n      mstore\n      swap2\n      swap5\n      swap1\n      swap2\n      sub(shl(0xa0, 0x01), 0x01)\n      dup2\n      and\n      swap1\n      sub\n      tag_32\n      jumpi\n      calldataload(0x0164)\n      sub(shl(0x40, 0x01), 0x01)\n      dup2\n      gt\n      tag_32\n      jumpi\n      tag_90\n      swap1\n      calldatasize\n      swap1\n      0x04\n      add\n      tag_6\n      jump\t// in\n    tag_90:\n      calldataload(0x0184)\n      0x03a0\n      dup2\n      swap1\n      mstore\n      swap1\n      swap6\n      swap2\n      swap5\n      swap1\n      sub(shl(0xa0, 0x01), 0x01)\n      dup2\n      and\n      swap1\n      sub\n      tag_32\n      jumpi\n      calldataload(0x01a4)\n      sub(shl(0x40, 0x01), 0x01)\n      dup2\n      gt\n      tag_32\n      jumpi\n      tag_95\n      swap1\n      calldatasize\n      swap1\n      0x04\n      add\n      tag_6\n      jump\t// in\n    tag_95:\n      0x0140\n      mstore\n      calldataload(0x01c4)\n      0x0160\n      dup2\n      swap1\n      mstore\n      swap1\n      swap9\n      swap1\n      sub(shl(0xa0, 0x01), 0x01)\n      dup2\n      and\n      swap1\n      sub\n      tag_32\n      jumpi\n      calldataload(0x01e4)\n      sub(shl(0x40, 0x01), 0x01)\n      dup2\n      gt\n      tag_32\n      jumpi\n      tag_100\n      swap1\n      calldatasize\n      swap1\n      0x04\n      add\n      tag_6\n      jump\t// in\n    tag_100:\n      0x0200\n      mstore\n      0x01a0\n      mstore\n      calldataload(0x0204)\n      0x0220\n      dup2\n      swap1\n      mstore\n      sub(shl(0xa0, 0x01), 0x01)\n      dup2\n      and\n      swap1\n      sub\n      tag_32\n      jumpi\n      calldataload(0x0224)\n      sub(shl(0x40, 0x01), 0x01)\n      dup2\n      gt\n      tag_32\n      jumpi\n      tag_105\n      swap1\n      calldatasize\n      swap1\n      0x04\n      add\n      tag_6\n      jump\t// in\n    tag_105:\n      0x0280\n      mstore\n      0x0260\n      mstore\n      calldataload(0x0244)\n      0x0240\n      dup2\n      swap1\n      mstore\n      sub(shl(0xa0, 0x01), 0x01)\n      dup2\n      and\n      swap1\n      sub\n      tag_32\n      jumpi\n      calldataload(0x0264)\n      sub(shl(0x40, 0x01), 0x01)\n      dup2\n      gt\n      tag_32\n      jumpi\n      tag_110\n      swap1\n      calldatasize\n      swap1\n      0x04\n      add\n      tag_6\n      jump\t// in\n    tag_110:\n      0x01e0\n      mstore\n      0x01c0\n      mstore\n      calldataload(0x0284)\n      0x0180\n      dup2\n      swap1\n      mstore\n      sub(shl(0xa0, 0x01), 0x01)\n      dup2\n      and\n      swap1\n      sub\n      tag_32\n      jumpi\n      calldataload(0x02a4)\n      sub(shl(0x40, 0x01), 0x01)\n      dup2\n      gt\n      tag_32\n      jumpi\n      tag_115\n      swap1\n      calldatasize\n      swap1\n      0x04\n      add\n      tag_6\n      jump\t// in\n    tag_115:\n      0x0120\n      mstore\n      0x0100\n      mstore\n        /* \"contracts/FutarchyBatchExecutorUltra.sol\":683:687  this */\n      address\n        /* \"contracts/FutarchyBatchExecutorUltra.sol\":661:671  msg.sender */\n      caller\n        /* \"contracts/FutarchyBatchExecutorUltra.sol\":661:688  msg.sender != address(this) */\n      sub\n        /* \"contracts/FutarchyBatchExecutorUltra.sol\":657:707  if (msg.sender != address(this)) revert OnlySelf() */\n      tag_35\n      jumpi\n        /* \"contracts/FutarchyBatchExecutorUltra.sol\":226:4042  contract FutarchyBatchExecutorUltra {... */\n      0x00\n      dup1\n      mload(0x40)\n      mload(0x02e0)\n      mload(0x0300)\n      dup3\n      calldatacopy\n      dup1\n      mload(0x02e0)\n      dup2\n      add\n      dup4\n      dup2\n      mstore\n        /* \"contracts/FutarchyBatchExecutorUltra.sol\":3214:3225  t1.call(d1) */\n      sub\n      swap1\n      dup3\n      mload(0x0320)\n      gas\n      call\n      0xe0\n      mstore\n      tag_118\n      tag_8\n      jump\t// in\n    tag_118:\n        /* \"contracts/FutarchyBatchExecutorUltra.sol\":3204:3225  (s, r1) = t1.call(d1) */\n      0x80\n      mstore\n        /* \"contracts/FutarchyBatchExecutorUltra.sol\":3239:3241  !s */\n      iszero(mload(0xe0))\n        /* \"contracts/FutarchyBatchExecutorUltra.sol\":3235:3263  if (!s) revert Call1Failed() */\n      tag_38\n      jumpi\n        /* \"contracts/FutarchyBatchExecutorUltra.sol\":226:4042  contract FutarchyBatchExecutorUltra {... */\n      0x00\n      dup1\n      mload(0x40)\n      mload(0x02c0)\n      mload(0x02a0)\n      dup3\n      calldatacopy\n      dup1\n      mload(0x02c0)\n      dup2\n      add\n      dup4\n      dup2\n      mstore\n        /* \"contracts/FutarchyBatchExecutorUltra.sol\":3281:3292  t2.call(d2) */\n      sub\n      swap1\n      dup3\n      mload(0x03c0)\n      gas\n      call\n      tag_121\n      tag_8\n      jump\t// in\n    tag_121:\n      pop\n        /* \"contracts/FutarchyBatchExecutorUltra.sol\":3306:3308  !s */\n      iszero\n        /* \"contracts/FutarchyBatchExecutorUltra.sol\":3302:3330  if (!s) revert Call2Failed() */\n      tag_41\n      jumpi\n        /* \"contracts/FutarchyBatchExecutorUltra.sol\":226:4042  contract FutarchyBatchExecutorUltra {... */\n      0x00\n      dup1\n      swap2\n      mload(0x40)\n      swap1\n      mload(0x0360)\n      swap1\n      dup3\n      calldatacopy\n      dup1\n      mload(0x0360)\n      dup2\n      add\n      dup4\n      dup2\n      mstore\n        /* \"contracts/FutarchyBatchExecutorUltra.sol\":3348:3359  t3.call(d3) */\n      sub\n      swap1\n      dup3\n      mload(0x0380)\n      gas\n      call\n      tag_124\n      tag_8\n      jump\t// in\n    tag_124:\n      pop\n        /* \"contracts/FutarchyBatchExecutorUltra.sol\":3373:3375  !s */\n      iszero\n        /* \"contracts/FutarchyBatchExecutorUltra.sol\":3369:3397  if (!s) revert Call3Failed() */\n      tag_44\n      jumpi\n        /* \"contracts/FutarchyBatchExecutorUltra.sol\":226:4042  contract FutarchyBatchExecutorUltra {... */\n      dup3\n      0x00\n      dup1\n      swap5\n      swap4\n      dup2\n      swap5\n      mload(0x40)\n      swap4\n      dup5\n      swap3\n      dup4\n      calldatacopy\n      dup2\n      add\n      dup3\n      dup2\n      mstore\n        /* \"contracts/FutarchyBatchExecutorUltra.sol\":3418:3429  t4.call(d4) */\n      sub\n      swap3\n      gas\n      call\n      0xc0\n      mstore\n      tag_127\n      tag_8\n      jump\t// in\n    tag_127:\n        /* \"contracts/FutarchyBatchExecutorUltra.sol\":3443:3445  !s */\n      swap4\n      iszero(mload(0xc0))\n        /* \"contracts/FutarchyBatchExecutorUltra.sol\":3439:3467  if (!s) revert Call4Failed() */\n      tag_128\n      jumpi\n        /* \"contracts/FutarchyBatchExecutorUltra.sol\":226:4042  contract FutarchyBatchExecutorUltra {... */\n      dup2\n      0x00\n      swap3\n      swap2\n      dup4\n      swap3\n      mload(0x40)\n      swap3\n      dup4\n      swap3\n      dup4\n      calldatacopy\n      dup2\n      add\n      dup4\n      dup2\n      mstore\n        /* \"contracts/FutarchyBatchExecutorUltra.sol\":3485:3496  t5.call(d5) */\n      sub\n      swap1\n      dup3\n      mload(0x0340)\n      gas\n      call\n      tag_130\n      tag_8\n      jump\t// in\n    tag_130:\n      pop\n        /* \"contracts/FutarchyBatchExecutorUltra.sol\":3510:3512  !s */\n      iszero\n        /* \"contracts/FutarchyBatchExecutorUltra.sol\":3506:3534  if (!s) revert Call5Failed() */\n      tag_131\n      jumpi\n        /* \"contracts/FutarchyBatchExecutorUltra.sol\":226:4042  contract FutarchyBatchExecutorUltra {... */\n      dup2\n      0x00\n      swap3\n      swap2\n      dup4\n      swap3\n      mload(0x40)\n      swap3\n      dup4\n      swap3\n      dup4\n      calldatacopy\n      dup2\n      add\n      dup4\n      dup2\n      mstore\n        /* \"contracts/FutarchyBatchExecutorUltra.sol\":3555:3566  t6.call(d6) */\n      sub\n      swap1\n      dup3\n      mload(0x03e0)\n      gas\n      call\n      0xa0\n      mstore\n      tag_133\n      tag_8\n      jump\t// in\n    tag_133:\n        /* \"contracts/FutarchyBatchExecutorUltra.sol\":3580:3582  !s */\n      swap2\n      iszero(mload(0xa0))\n        /* \"contracts/FutarchyBatchExecutorUltra.sol\":3576:3604  if (!s) revert Call6Failed() */\n      tag_134\n      jumpi\n        /* \"contracts/FutarchyBatchExecutorUltra.sol\":226:4042  contract FutarchyBatchExecutorUltra {... */\n      0x00\n      dup1\n      swap2\n      mload(0x40)\n      swap1\n      mload(0x0140)\n      swap1\n      dup3\n      calldatacopy\n      dup1\n      mload(0x0140)\n      dup2\n      add\n      dup4\n      dup2\n      mstore\n        /* \"contracts/FutarchyBatchExecutorUltra.sol\":3622:3633  t7.call(d7) */\n      sub\n      swap1\n      dup3\n      mload(0x03a0)\n      gas\n      call\n      tag_136\n      tag_8\n      jump\t// in\n    tag_136:\n      pop\n        /* \"contracts/FutarchyBatchExecutorUltra.sol\":3647:3649  !s */\n      iszero\n        /* \"contracts/FutarchyBatchExecutorUltra.sol\":3643:3671  if (!s) revert Call7Failed() */\n      tag_137\n      jumpi\n        /* \"contracts/FutarchyBatchExecutorUltra.sol\":226:4042  contract FutarchyBatchExecutorUltra {... */\n      0x00\n      dup1\n      mload(0x40)\n      mload(0x0200)\n      mload(0x01a0)\n      dup3\n      calldatacopy\n      dup1\n      mload(0x0200)\n      dup2\n      add\n      dup4\n      dup2\n      mstore\n        /* \"contracts/FutarchyBatchExecutorUltra.sol\":3689:3700  t8.call(d8) */\n      sub\n      swap1\n      dup3\n      mload(0x0160)\n      gas\n      call\n      tag_139\n      tag_8\n      jump\t// in\n    tag_139:\n      pop\n        /* \"contracts/FutarchyBatchExecutorUltra.sol\":3714:3716  !s */\n      iszero\n        /* \"contracts/FutarchyBatchExecutorUltra.sol\":3710:3738  if (!s) revert Call8Failed() */\n      tag_140\n      jumpi\n        /* \"contracts/FutarchyBatchExecutorUltra.sol\":226:4042  contract FutarchyBatchExecutorUltra {... */\n      0x00\n      dup1\n      mload(0x40)\n      mload(0x0280)\n      mload(0x0260)\n      dup3\n      calldatacopy\n      dup1\n      mload(0x0280)\n      dup2\n      add\n      dup4\n      dup2\n      mstore\n        /* \"contracts/FutarchyBatchExecutorUltra.sol\":3759:3770  t9.call(d9) */\n      sub\n      swap1\n      dup3\n      mload(0x0220)\n      gas\n      call\n      swap2\n      tag_142\n      tag_8\n      jump\t// in\n    tag_142:\n        /* \"contracts/FutarchyBatchExecutorUltra.sol\":3784:3786  !s */\n      swap3\n      iszero\n        /* \"contracts/FutarchyBatchExecutorUltra.sol\":3780:3808  if (!s) revert Call9Failed() */\n      tag_143\n      jumpi\n        /* \"contracts/FutarchyBatchExecutorUltra.sol\":226:4042  contract FutarchyBatchExecutorUltra {... */\n      0x00\n      dup1\n      mload(0x40)\n      mload(0x01e0)\n      mload(0x01c0)\n      dup3\n      calldatacopy\n      dup1\n      mload(0x01e0)\n      dup2\n      add\n      dup4\n      dup2\n      mstore\n        /* \"contracts/FutarchyBatchExecutorUltra.sol\":3826:3839  t10.call(d10) */\n      sub\n      swap1\n      dup3\n      mload(0x0240)\n      gas\n      call\n      tag_145\n      tag_8\n      jump\t// in\n    tag_145:\n      pop\n        /* \"contracts/FutarchyBatchExecutorUltra.sol\":3853:3855  !s */\n      iszero\n        /* \"contracts/FutarchyBatchExecutorUltra.sol\":3849:3878  if (!s) revert Call10Failed() */\n      tag_146\n      jumpi\n        /* \"contracts/FutarchyBatchExecutorUltra.sol\":226:4042  contract FutarchyBatchExecutorUltra {... */\n      0x00\n      dup1\n      mload(0x40)\n      mload(0x0120)\n      mload(0x0100)\n      dup3\n      calldatacopy\n      dup1\n      mload(0x0120)\n      dup2\n      add\n      dup4\n      dup2\n      mstore\n        /* \"contracts/FutarchyBatchExecutorUltra.sol\":3899:3912  t11.call(d11) */\n      sub\n      swap1\n      dup3\n      mload(0x0180)\n      gas\n      call\n      tag_148\n      tag_8\n      jump\t// in\n    tag_148:\n        /* \"contracts/FutarchyBatchExecutorUltra.sol\":3926:3928  !s */\n      swap1\n      iszero\n        /* \"contracts/FutarchyBatchExecutorUltra.sol\":3922:3951  if (!s) revert Call11Failed() */\n      tag_149\n      jumpi\n        /* \"contracts/FutarchyBatchExecutorUltra.sol\":226:4042  contract FutarchyBatchExecutorUltra {... */\n      tag_151\n      tag_152\n      tag_153\n      swap6\n      tag_154\n      tag_155\n      swap6\n      mload(0x40)\n      swap9\n      dup10\n      swap9\n      0xc0\n      dup11\n      mstore\n      tag_156\n      0xc0\n      dup12\n      add\n      mload(0x80)\n      tag_7\n      jump\t// in\n    tag_156:\n      swap1\n      dup11\n      dup3\n      sub\n      0x20\n      dup13\n      add\n      mstore\n      tag_7\n      jump\t// in\n    tag_153:\n      swap1\n      dup9\n      dup3\n      sub\n      0x40\n      dup11\n      add\n      mstore\n      tag_7\n      jump\t// in\n    tag_154:\n      swap1\n      dup7\n      dup3\n      sub\n      0x60\n      dup9\n      add\n      mstore\n      tag_7\n      jump\t// in\n    tag_152:\n      dup5\n      dup2\n      sub\n      0x80\n      dup7\n      add\n      mstore\n      dup3\n      tag_7\n      jump\t// in\n    tag_151:\n      swap1\n      dup4\n      dup3\n      sub\n      0xa0\n      dup6\n      add\n      mstore\n      tag_7\n      jump\t// in\n    tag_155:\n      sub\n      swap1\n      return\n        /* \"contracts/FutarchyBatchExecutorUltra.sol\":3922:3951  if (!s) revert Call11Failed() */\n    tag_149:\n        /* \"contracts/FutarchyBatchExecutorUltra.sol\":3937:3951  Call11Failed() */\n      shl(0xe0, 0xf6eca6cd)\n        /* \"contracts/FutarchyBatchExecutorUltra.sol\":226:4042  contract FutarchyBatchExecutorUltra {... */\n      0x00\n        /* \"contracts/FutarchyBatchExecutorUltra.sol\":3937:3951  Call11Failed() */\n      mstore\n        /* \"contracts/FutarchyBatchExecutorUltra.sol\":226:4042  contract FutarchyBatchExecutorUltra {... */\n      0x04\n      0x00\n        /* \"contracts/FutarchyBatchExecutorUltra.sol\":3937:3951  Call11Failed() */\n      revert\n        /* \"contracts/FutarchyBatchExecutorUltra.sol\":3849:3878  if (!s) revert Call10Failed() */\n    tag_146:\n        /* \"contracts/FutarchyBatchExecutorUltra.sol\":3864:3878  Call10Failed() */\n      shl(0xe0, 0xb0fa74d5)\n        /* \"contracts/FutarchyBatchExecutorUltra.sol\":226:4042  contract FutarchyBatchExecutorUltra {... */\n      0x00\n        /* \"contracts/FutarchyBatchExecutorUltra.sol\":3864:3878  Call10Failed() */\n      mstore\n        /* \"contracts/FutarchyBatchExecutorUltra.sol\":226:4042  contract FutarchyBatchExecutorUltra {... */\n      0x04\n      0x00\n        /* \"contracts/FutarchyBatchExecutorUltra.sol\":3864:3878  Call10Failed() */\n      revert\n        /* \"contracts/FutarchyBatchExecutorUltra.sol\":3780:3808  if (!s) revert Call9Failed() */\n    tag_143:\n        /* \"contracts/FutarchyBatchExecutorUltra.sol\":3795:3808  Call9Failed() */\n      shl(0xe3, 0x06f70563)\n        /* \"contracts/FutarchyBatchExecutorUltra.sol\":226:4042  contract FutarchyBatchExecutorUltra {... */\n      0x00\n        /* \"contracts/FutarchyBatchExecutorUltra.sol\":3795:3808  Call9Failed() */\n      mstore\n        /* \"contracts/FutarchyBatchExecutorUltra.sol\":226:4042  contract FutarchyBatchExecutorUltra {... */\n      0x04\n      0x00\n        /* \"contracts/FutarchyBatchExecutorUltra.sol\":3795:3808  Call9Failed() */\n      revert\n        /* \"contracts/FutarchyBatchExecutorUltra.sol\":3710:3738  if (!s) revert Call8Failed() */\n    tag_140:\n        /* \"contracts/FutarchyBatchExecutorUltra.sol\":3725:3738  Call8Failed() */\n      shl(0xe0, 0x3a8b2e37)\n        /* \"contracts/FutarchyBatchExecutorUltra.sol\":226:4042  contract FutarchyBatchExecutorUltra {... */\n      0x00\n        /* \"contracts/FutarchyBatchExecutorUltra.sol\":3725:3738  Call8Failed() */\n      mstore\n        /* \"contracts/FutarchyBatchExecutorUltra.sol\":226:4042  contract FutarchyBatchExecutorUltra {... */\n      0x04\n      0x00\n        /* \"contracts/FutarchyBatchExecutorUltra.sol\":3725:3738  Call8Failed() */\n      revert\n        /* \"contracts/FutarchyBatchExecutorUltra.sol\":3643:3671  if (!s) revert Call7Failed() */\n    tag_137:\n        /* \"contracts/FutarchyBatchExecutorUltra.sol\":3658:3671  Call7Failed() */\n      shl(0xe0, 0xc9fdb71f)\n        /* \"contracts/FutarchyBatchExecutorUltra.sol\":226:4042  contract FutarchyBatchExecutorUltra {... */\n      0x00\n        /* \"contracts/FutarchyBatchExecutorUltra.sol\":3658:3671  Call7Failed() */\n      mstore\n        /* \"contracts/FutarchyBatchExecutorUltra.sol\":226:4042  contract FutarchyBatchExecutorUltra {... */\n      0x04\n      0x00\n        /* \"contracts/FutarchyBatchExecutorUltra.sol\":3658:3671  Call7Failed() */\n      revert\n        /* \"contracts/FutarchyBatchExecutorUltra.sol\":3576:3604  if (!s) revert Call6Failed() */\n    tag_134:\n        /* \"contracts/FutarchyBatchExecutorUltra.sol\":3591:3604  Call6Failed() */\n      shl(0xe5, 0x02f647fd)\n        /* \"contracts/FutarchyBatchExecutorUltra.sol\":226:4042  contract FutarchyBatchExecutorUltra {... */\n      0x00\n        /* \"contracts/FutarchyBatchExecutorUltra.sol\":3591:3604  Call6Failed() */\n      mstore\n        /* \"contracts/FutarchyBatchExecutorUltra.sol\":226:4042  contract FutarchyBatchExecutorUltra {... */\n      0x04\n      0x00\n        /* \"contracts/FutarchyBatchExecutorUltra.sol\":3591:3604  Call6Failed() */\n      revert\n        /* \"contracts/FutarchyBatchExecutorUltra.sol\":3506:3534  if (!s) revert Call5Failed() */\n    tag_131:\n        /* \"contracts/FutarchyBatchExecutorUltra.sol\":2357:2370  Call5Failed() */\n      shl(0xe0, 0x567a163b)\n        /* \"contracts/FutarchyBatchExecutorUltra.sol\":226:4042  contract FutarchyBatchExecutorUltra {... */\n      0x00\n        /* \"contracts/FutarchyBatchExecutorUltra.sol\":3521:3534  Call5Failed() */\n      mstore\n        /* \"contracts/FutarchyBatchExecutorUltra.sol\":226:4042  contract FutarchyBatchExecutorUltra {... */\n      0x04\n      0x00\n        /* \"contracts/FutarchyBatchExecutorUltra.sol\":3521:3534  Call5Failed() */\n      revert\n        /* \"contracts/FutarchyBatchExecutorUltra.sol\":3439:3467  if (!s) revert Call4Failed() */\n    tag_128:\n        /* \"contracts/FutarchyBatchExecutorUltra.sol\":2290:2303  Call4Failed() */\n      shl(0xe2, 0x2747112b)\n        /* \"contracts/FutarchyBatchExecutorUltra.sol\":226:4042  contract FutarchyBatchExecutorUltra {... */\n      0x00\n        /* \"contracts/FutarchyBatchExecutorUltra.sol\":3454:3467  Call4Failed() */\n      mstore\n        /* \"contracts/FutarchyBatchExecutorUltra.sol\":226:4042  contract FutarchyBatchExecutorUltra {... */\n      0x04\n      0x00\n        /* \"contracts/FutarchyBatchExecutorUltra.sol\":3454:3467  Call4Failed() */\n      revert\n        /* \"contracts/FutarchyBatchExecutorUltra.sol\":226:4042  contract FutarchyBatchExecutorUltra {... */\n    tag_13:\n      jumpi(tag_32, slt(add(not(0x03), calldatasize), 0x0140))\n      tag_159\n      tag_1\n      jump\t// in\n    tag_159:\n      swap1\n      calldataload(0x24)\n      sub(shl(0x40, 0x01), 0x01)\n      dup2\n      gt\n      tag_32\n      jumpi\n      tag_162\n      swap1\n      calldatasize\n      swap1\n      0x04\n      add\n      tag_6\n      jump\t// in\n    tag_162:\n      tag_163\n      tag_2\n      jump\t// in\n    tag_163:\n      swap1\n      calldataload(0x64)\n      sub(shl(0x40, 0x01), 0x01)\n      dup2\n      gt\n      tag_32\n      jumpi\n      tag_166\n      swap1\n      calldatasize\n      swap1\n      0x04\n      add\n      tag_6\n      jump\t// in\n    tag_166:\n      tag_167\n      tag_3\n      jump\t// in\n    tag_167:\n      swap1\n      calldataload(0xa4)\n      sub(shl(0x40, 0x01), 0x01)\n      dup2\n      gt\n      tag_32\n      jumpi\n      tag_170\n      swap1\n      calldatasize\n      swap1\n      0x04\n      add\n      tag_6\n      jump\t// in\n    tag_170:\n      swap3\n      swap1\n      swap2\n      tag_171\n      tag_4\n      jump\t// in\n    tag_171:\n      swap5\n      calldataload(0xe4)\n      sub(shl(0x40, 0x01), 0x01)\n      dup2\n      gt\n      tag_32\n      jumpi\n      tag_174\n      swap1\n      calldatasize\n      swap1\n      0x04\n      add\n      tag_6\n      jump\t// in\n    tag_174:\n      swap9\n      swap1\n      swap8\n      tag_175\n      tag_5\n      jump\t// in\n    tag_175:\n      swap11\n      calldataload(0x0124)\n      sub(shl(0x40, 0x01), 0x01)\n      dup2\n      gt\n      tag_32\n      jumpi\n      tag_178\n      swap1\n      calldatasize\n      swap1\n      0x04\n      add\n      tag_6\n      jump\t// in\n    tag_178:\n        /* \"contracts/FutarchyBatchExecutorUltra.sol\":683:687  this */\n      swap15\n      swap1\n      swap14\n      address\n        /* \"contracts/FutarchyBatchExecutorUltra.sol\":661:671  msg.sender */\n      caller\n        /* \"contracts/FutarchyBatchExecutorUltra.sol\":661:688  msg.sender != address(this) */\n      sub\n        /* \"contracts/FutarchyBatchExecutorUltra.sol\":657:707  if (msg.sender != address(this)) revert OnlySelf() */\n      tag_35\n      jumpi\n        /* \"contracts/FutarchyBatchExecutorUltra.sol\":226:4042  contract FutarchyBatchExecutorUltra {... */\n      0x00\n      dup2\n      dup6\n      dup3\n      swap7\n      dup4\n      swap7\n      dup4\n      calldatacopy\n      dup2\n      add\n      dup3\n      dup2\n      mstore\n        /* \"contracts/FutarchyBatchExecutorUltra.sol\":2053:2064  t1.call(d1) */\n      sub\n      swap3\n      gas\n      call\n      tag_181\n      tag_8\n      jump\t// in\n    tag_181:\n      pop\n        /* \"contracts/FutarchyBatchExecutorUltra.sol\":2078:2080  !s */\n      iszero\n        /* \"contracts/FutarchyBatchExecutorUltra.sol\":2074:2102  if (!s) revert Call1Failed() */\n      tag_38\n      jumpi\n        /* \"contracts/FutarchyBatchExecutorUltra.sol\":226:4042  contract FutarchyBatchExecutorUltra {... */\n      dup3\n      0x00\n      dup1\n      swap5\n      swap4\n      dup2\n      swap5\n      mload(0x40)\n      swap4\n      dup5\n      swap3\n      dup4\n      calldatacopy\n      dup2\n      add\n      dup3\n      dup2\n      mstore\n        /* \"contracts/FutarchyBatchExecutorUltra.sol\":2120:2131  t2.call(d2) */\n      sub\n      swap3\n      gas\n      call\n      tag_184\n      tag_8\n      jump\t// in\n    tag_184:\n      pop\n        /* \"contracts/FutarchyBatchExecutorUltra.sol\":2145:2147  !s */\n      iszero\n        /* \"contracts/FutarchyBatchExecutorUltra.sol\":2141:2169  if (!s) revert Call2Failed() */\n      tag_41\n      jumpi\n        /* \"contracts/FutarchyBatchExecutorUltra.sol\":226:4042  contract FutarchyBatchExecutorUltra {... */\n      dup3\n      0x00\n      dup1\n      swap5\n      swap4\n      dup2\n      swap5\n      mload(0x40)\n      swap4\n      dup5\n      swap3\n      dup4\n      calldatacopy\n      dup2\n      add\n      dup3\n      dup2\n      mstore\n        /* \"contracts/FutarchyBatchExecutorUltra.sol\":2187:2198  t3.call(d3) */\n      sub\n      swap3\n      gas\n      call\n      tag_187\n      tag_8\n      jump\t// in\n    tag_187:\n      pop\n        /* \"contracts/FutarchyBatchExecutorUltra.sol\":2212:2214  !s */\n      iszero\n        /* \"contracts/FutarchyBatchExecutorUltra.sol\":2208:2236  if (!s) revert Call3Failed() */\n      tag_44\n      jumpi\n        /* \"contracts/FutarchyBatchExecutorUltra.sol\":226:4042  contract FutarchyBatchExecutorUltra {... */\n      dup3\n      0x00\n      dup1\n      swap5\n      swap4\n      dup2\n      swap5\n      mload(0x40)\n      swap4\n      dup5\n      swap3\n      dup4\n      calldatacopy\n      dup2\n      add\n      dup3\n      dup2\n      mstore\n        /* \"contracts/FutarchyBatchExecutorUltra.sol\":2254:2265  t4.call(d4) */\n      sub\n      swap3\n      gas\n      call\n      tag_190\n      tag_8\n      jump\t// in\n    tag_190:\n      pop\n        /* \"contracts/FutarchyBatchExecutorUltra.sol\":2279:2281  !s */\n      iszero\n        /* \"contracts/FutarchyBatchExecutorUltra.sol\":2275:2303  if (!s) revert Call4Failed() */\n      tag_128\n      jumpi\n        /* \"contracts/FutarchyBatchExecutorUltra.sol\":226:4042  contract FutarchyBatchExecutorUltra {... */\n      dup3\n      0x00\n      dup1\n      swap5\n      swap4\n      dup2\n      swap5\n      mload(0x40)\n      swap4\n      dup5\n      swap3\n      dup4\n      calldatacopy\n      dup2\n      add\n      dup3\n      dup2\n      mstore\n        /* \"contracts/FutarchyBatchExecutorUltra.sol\":2321:2332  t5.call(d5) */\n      sub\n      swap3\n      gas\n      call\n      tag_193\n      tag_8\n      jump\t// in\n    tag_193:\n      pop\n        /* \"contracts/FutarchyBatchExecutorUltra.sol\":2346:2348  !s */\n      iszero\n        /* \"contracts/FutarchyBatchExecutorUltra.sol\":2342:2370  if (!s) revert Call5Failed() */\n      tag_131\n      jumpi\n        /* \"contracts/FutarchyBatchExecutorUltra.sol\":226:4042  contract FutarchyBatchExecutorUltra {... */\n      stop\n    tag_1:\n      calldataload(0x04)\n      swap1\n      sub(shl(0xa0, 0x01), 0x01)\n      dup3\n      and\n      dup3\n      sub\n      tag_32\n      jumpi\n      jump\t// out\n    tag_2:\n      calldataload(0x44)\n      swap1\n      sub(shl(0xa0, 0x01), 0x01)\n      dup3\n      and\n      dup3\n      sub\n      tag_32\n      jumpi\n      jump\t// out\n    tag_3:\n      calldataload(0x84)\n      swap1\n      sub(shl(0xa0, 0x01), 0x01)\n      dup3\n      and\n      dup3\n      sub\n      tag_32\n      jumpi\n      jump\t// out\n    tag_4:\n      calldataload(0xc4)\n      swap1\n      sub(shl(0xa0, 0x01), 0x01)\n      dup3\n      and\n      dup3\n      sub\n      tag_32\n      jumpi\n      jump\t// out\n    tag_5:\n      calldataload(0x0104)\n      swap1\n      sub(shl(0xa0, 0x01), 0x01)\n      dup3\n      and\n      dup3\n      sub\n      tag_32\n      jumpi\n      jump\t// out\n    tag_6:\n      swap2\n      dup2\n      0x1f\n      dup5\n      add\n      slt\n      iszero\n      tag_32\n      jumpi\n      dup3\n      calldataload\n      swap2\n      sub(shl(0x40, 0x01), 0x01)\n      dup4\n      gt\n      tag_32\n      jumpi\n      0x20\n      dup4\n      dup2\n      dup7\n      add\n      swap6\n      add\n      add\n      gt\n      tag_32\n      jumpi\n      jump\t// out\n    tag_7:\n      dup1\n      mload\n      dup1\n      dup4\n      mstore\n      0x20\n      swap3\n      swap2\n      dup2\n      swap1\n      dup5\n      add\n      dup5\n      dup5\n      add\n      mcopy\n      0x00\n      dup3\n      dup3\n      add\n      dup5\n      add\n      mstore\n      0x1f\n      add\n      not(0x1f)\n      and\n      add\n      add\n      swap1\n      jump\t// out\n    tag_8:\n      jumpi(tag_212, iszero(returndatasize))\n      returndatasize\n      swap1\n      sub(shl(0x40, 0x01), 0x01)\n      dup3\n      gt\n      tag_216\n      jumpi\n      mload(0x40)\n      swap2\n      0x1f\n      dup2\n      add\n      not(0x1f)\n      swap1\n      dup2\n      and\n      0x3f\n      add\n      and\n      dup4\n      add\n      sub(shl(0x40, 0x01), 0x01)\n      dup2\n      gt\n      dup5\n      dup3\n      lt\n      or\n      tag_216\n      jumpi\n      0x40\n      mstore\n      dup3\n      mstore\n      returndatasize\n      0x00\n      0x20\n      dup5\n      add\n      returndatacopy\n      jump\t// out\n    tag_216:\n      mstore(0x00, shl(0xe0, 0x4e487b71))\n      mstore(0x04, 0x41)\n      revert(0x00, 0x24)\n    tag_212:\n      0x60\n      swap1\n      jump\t// out\n\n    auxdata: 0xa2646970667358221220b328bba321055630f2b67e342b6471532a80ae27a8f20be5b55eecfd036b2bf264736f6c63430008210033\n}\n","methodIdentifiers":{"execute2(address,bytes,address,bytes)":"7982ac5e","execute3(address,bytes,address,bytes,address,bytes)":"93ad32f7","execute5(address,bytes,address,bytes,address,bytes,address,bytes,address,bytes)":"0792d5ce","executeBuy11(address,bytes,address,bytes,address,bytes,address,bytes,address,bytes,address,bytes,address,bytes,address,bytes,address,bytes,address,bytes,address,bytes)":"2290230b"},"id":7}