{"abi":[{"type":"constructor","inputs":[],"stateMutability":"nonpayable"},{"type":"receive","stateMutability":"payable"},{"type":"function","name":"buy_conditional_arbitrage","inputs":[{"name":"futarchy_router","type":"address","internalType":"address"},{"name":"proposal","type":"address","internalType":"address"},{"name":"currency","type":"address","internalType":"address"},{"name":"yes_currency","type":"address","internalType":"address"},{"name":"no_currency","type":"address","internalType":"address"},{"name":"","type":"address","internalType":"address"},{"name":"","type":"address","internalType":"address"},{"name":"swapr_router","type":"address","internalType":"address"},{"name":"amount_conditional_out","type":"uint256","internalType":"uint256"},{"name":"min_out_final","type":"int256","internalType":"int256"}],"outputs":[],"stateMutability":"nonpayable"},{"type":"function","name":"owner","inputs":[],"outputs":[{"name":"","type":"address","internalType":"address"}],"stateMutability":"view"},{"type":"function","name":"sell_conditional_arbitrage","inputs":[{"name":"futarchy_router","type":"address","internalType":"address"},{"name":"proposal","type":"address","internalType":"address"},{"name":"currency","type":"address","internalType":"address"},{"name":"yes_currency","type":"address","internalType":"address"},{"name":"no_currency","type":"address","internalType":"address"},{"name":"swapr_router","type":"address","internalType":"address"},{"name":"amount_currency_in","type":"uint256","internalType":"uint256"},{"name":"min_out_final","type":"int256","internalType":"int256"}],"outputs":[],"stateMutability":"nonpayable"},{"type":"function","name":"sweepToken","inputs":[{"name":"token","type":"address","internalType":"contract IERC20"},{"name":"to","type":"address","internalType":"address"}],"outputs":[],"stateMutability":"nonpayable"},{"type":"function","name":"transferOwnership","inputs":[{"name":"newOwner","type":"address","internalType":"address"}],"outputs":[],"stateMutability":"nonpayable"},{"type":"function","name":"withdrawETH","inputs":[{"name":"to","type":"address","internalType":"address payable"},{"name":"amount","type":"uint256","internalType":"uint256"}],"outputs":[],"stateMutability":"nonpayable"},{"type":"function","name":"withdrawToken","inputs":[{"name":"token","type":"address","internalType":"contract IERC20"},{"name":"to","type":"address","internalType":"address"},{"name":"amount","type":"uint256","internalType":"uint256"}],"outputs":[],"stateMutability":"nonpayable"},{"type":"event","name":"ConditionalCollateralMerged","inputs":[{"name":"router","type":"address","indexed":true,"internalType":"address"},{"name":"proposal","type":"address","indexed":true,"internalType":"address"},{"name":"collateral","type":"address","indexed":true,"internalType":"address"},{"name":"amount","type":"uint256","indexed":false,"internalType":"uint256"}],"anonymous":false},{"type":"event","name":"ConditionalCollateralSplit","inputs":[{"name":"router","type":"address","indexed":true,"internalType":"address"},{"name":"proposal","type":"address","indexed":true,"internalType":"address"},{"name":"collateral","type":"address","indexed":true,"internalType":"address"},{"name":"amount","type":"uint256","indexed":false,"internalType":"uint256"}],"anonymous":false},{"type":"event","name":"InitialCollateralSnapshot","inputs":[{"name":"collateral","type":"address","indexed":true,"internalType":"address"},{"name":"balance","type":"uint256","indexed":false,"internalType":"uint256"}],"anonymous":false},{"type":"event","name":"MaxAllowanceEnsured","inputs":[{"name":"token","type":"address","indexed":true,"internalType":"address"},{"name":"spender","type":"address","indexed":true,"internalType":"address"},{"name":"allowance","type":"uint256","indexed":false,"internalType":"uint256"}],"anonymous":false},{"type":"event","name":"OwnershipTransferred","inputs":[{"name":"previousOwner","type":"address","indexed":true,"internalType":"address"},{"name":"newOwner","type":"address","indexed":true,"internalType":"address"}],"anonymous":false},{"type":"event","name":"ProfitVerified","inputs":[{"name":"initialBalance","type":"uint256","indexed":false,"internalType":"uint256"},{"name":"finalBalance","type":"uint256","indexed":false,"internalType":"uint256"},{"name":"minProfit","type":"int256","indexed":false,"internalType":"int256"}],"anonymous":false},{"type":"event","name":"SwaprExactInExecuted","inputs":[{"name":"router","type":"address","indexed":true,"internalType":"address"},{"name":"tokenIn","type":"address","indexed":true,"internalType":"address"},{"name":"tokenOut","type":"address","indexed":true,"internalType":"address"},{"name":"amountIn","type":"uint256","indexed":false,"internalType":"uint256"},{"name":"amountOut","type":"uint256","indexed":false,"internalType":"uint256"}],"anonymous":false},{"type":"event","name":"SwaprExactOutExecuted","inputs":[{"name":"router","type":"address","indexed":true,"internalType":"address"},{"name":"tokenIn","type":"address","indexed":true,"internalType":"address"},{"name":"tokenOut","type":"address","indexed":true,"internalType":"address"},{"name":"amountOut","type":"uint256","indexed":false,"internalType":"uint256"},{"name":"amountIn","type":"uint256","indexed":false,"internalType":"uint256"}],"anonymous":false},{"type":"error","name":"ApproveResetFailed","inputs":[]},{"type":"error","name":"ApproveSetFailed","inputs":[]},{"type":"error","name":"BalanceTooLarge","inputs":[]},{"type":"error","name":"EthSendFailed","inputs":[]},{"type":"error","name":"InsufficientBalance","inputs":[]},{"type":"error","name":"MinProfitNotMet","inputs":[]},{"type":"error","name":"NotOwner","inputs":[]},{"type":"error","name":"RouterOrProposalZero","inputs":[]},{"type":"error","name":"TokenAddressZero","inputs":[]},{"type":"error","name":"ZeroAddress","inputs":[]},{"type":"error","name":"ZeroAmount","inputs":[]}],"bytecode":{"object":"0x60808060405234604d575f80546001600160a01b031916339081178255907f8be0079c531659141344cd1fd0a4f28419497f9722a3daafe3b4186f6b6457e08180a361136190816100528239f35b5f80fdfe608080604052600436101561001c575b50361561001a575f80fd5b005b5f905f3560e01c90816301e3366714610cb057508063258836fe14610b735780632b4ed6fa146107905780634782f779146106bd57806350e2e7a81461012d5780638da5cb5b146101065763f2fde38b0361000f57346101035760203660031901126101035761008a610d35565b81546001600160a01b03811691338390036100f4576001600160a01b03169182156100e55782907f8be0079c531659141344cd1fd0a4f28419497f9722a3daafe3b4186f6b6457e08580a36001600160a01b03191617815580f35b63d92e233d60e01b8452600484fd5b6330cd747160e01b8452600484fd5b80fd5b5034610103578060031936011261010357546040516001600160a01b039091168152602090f35b50346101035761010036600319011261010357610148610d35565b90610151610d4b565b9161015a610d61565b90610163610d77565b9361016c610d8d565b94610175610da3565b855460e435979192919060c435906001600160a01b031633036106ae576001600160a01b038616948515801561069d575b61068e576001600160a01b038816958615801561067d575b801561066c575b61065d576001600160a01b0386161561065d57821561064e576040516370a0823160e01b8152306004820152976020896024818b5afa9889156105ac578b99610618575b5061023f90887fb2f03ce105b3cd1f9fccfa1de78c921cd3ad2f01048d3a832c7ebb893fd347b960206040518d8152a288610ff5565b803b15610614576040516301abf04560e71b81526001600160a01b0383811660048301528a166024820152604481018490528a8160648183865af180156105ac57889392918c916105f7575b50506040518481526001600160a01b03909216917f96b6cd56b43ef9bd81ea4da2f5715eb8e6d0da9999e7cf964ae2932a20e0f0fd90602090a46040516370a0823160e01b81523060048201526001600160a01b03841690602081602481855afa9081156105ec579083918b916105b7575b501061056b576040516370a0823160e01b81523060048201526001600160a01b0384169290602081602481875afa9081156105ac578b9161057a575b501061056b576020602491604051928380926370a0823160e01b82523060048301525afa90811561056057899161052b575b50906024938289602094610518575b505050604051938480926370a0823160e01b82523060048301525afa91821561050d5787926104d2575b50906024956020949392826104bf575b50505050604051938480926370a0823160e01b82523060048301525afa9182156104b457839261047c575b506001600160ff1b038211801561046c575b61045d57836104008284610e39565b1261044e576104487f318296ace369901373a62c2153c5e87356175630ec782af9e8b7c9385f3d1e809394604051938493846040919493926060820195825260208201520152565b0390a180f35b63d433008b60e01b8352600483fd5b630748aac760e11b8352600483fd5b506001600160ff1b0381116103f1565b9091506020813d6020116104ac575b8161049860209383610dff565b810103126104a85751905f6103df565b5f80fd5b3d915061048b565b6040513d85823e3d90fd5b6104c893611205565b505f8080806103b4565b939291506020843d602011610505575b816104ef60209383610dff565b810103126104a8579251919290919060246103a4565b3d91506104e2565b6040513d89823e3d90fd5b6105229288611205565b505f808961037a565b9190506020823d602011610558575b8161054760209383610dff565b810103126104a8579051602461036b565b3d915061053a565b6040513d8b823e3d90fd5b631e9acf1760e31b8952600489fd5b90506020813d6020116105a4575b8161059560209383610dff565b810103126104a857515f610339565b3d9150610588565b6040513d8d823e3d90fd5b9150506020813d6020116105e4575b816105d360209383610dff565b810103126104a8578290515f6102fd565b3d91506105c6565b6040513d8c823e3d90fd5b81929394509061060691610dff565b610614579086918a5f61028b565b8980fd5b9098506020813d602011610646575b8161063460209383610dff565b810103126104a857519761023f610209565b3d9150610627565b631f2a200560e01b8a5260048afd5b63d92e233d60e01b8a5260048afd5b506001600160a01b038416156101c5565b506001600160a01b038516156101be565b6301d7265360e41b8952600489fd5b506001600160a01b038116156101a6565b6330cd747160e01b8852600488fd5b5034610103576040366003190112610103576004356001600160a01b0381169081900361078c5781546001600160a01b0316330361077d57801561076e578180808093602435905af13d15610769573d67ffffffffffffffff81116107555760405190610734601f8201601f191660200183610dff565b81528260203d92013e5b156107465780f35b632609239960e21b8152600490fd5b634e487b7160e01b83526041600452602483fd5b61073e565b63d92e233d60e01b8252600482fd5b6330cd747160e01b8252600482fd5b5080fd5b50346104a8576101403660031901126104a8576107ab610d35565b906107b4610d4b565b906107bd610d61565b916107c6610d77565b926107cf610d8d565b936107d8610da3565b506107e1610db9565b5060e435926001600160a01b038416928385036104a8575f5461012435986101043598916001600160a01b03163303610b64576001600160a01b0381169485158015610b53575b610b44576001600160a01b0384169687158015610b33575b8015610b22575b610b135715610b13578915610b04576040516370a0823160e01b81523060048201526020816024818b5afa988915610a48578b915f9a610acc575b509084866108c8938b7fb2f03ce105b3cd1f9fccfa1de78c921cd3ad2f01048d3a832c7ebb893fd347b960208f604051908152a26108c284878484610eb6565b50610eb6565b506040516370a0823160e01b81523060048201526001600160a01b03919091169290602081602481875afa8015610a48578b915f91610a97575b5010610a53576040516370a0823160e01b81523060048201526001600160a01b039190911690602081602481855afa8015610a48578b915f91610a62575b5010610a53576109538261095894610ff5565b610ff5565b823b156104a857604051637abef8d160e01b81526001600160a01b038381166004830152919091166024820152604481018790525f8160648183875af18015610a4857610a24575b50916024949581927fdc43ce728a1135c1396673372fa69f30fe424cb172093e4198538d75e54f3c2b6020809660405194855260018060a01b031693a46040516370a0823160e01b815230600482015293849182905afa9182156104b457839261047c57506001600160ff1b038211801561046c5761045d57836104008284610e39565b60249550958392610a395f6020969499610dff565b90965f965091939092506109a0565b6040513d5f823e3d90fd5b631e9acf1760e31b5f5260045ffd5b9150506020813d602011610a8f575b81610a7e60209383610dff565b810103126104a8578a90515f610940565b3d9150610a71565b9150506020813d602011610ac4575b81610ab360209383610dff565b810103126104a8578a90515f610902565b3d9150610aa6565b995090506020893d602011610afc575b81610ae960209383610dff565b810103126104a8579751978a9084610882565b3d9150610adc565b631f2a200560e01b5f5260045ffd5b63d92e233d60e01b5f5260045ffd5b506001600160a01b03841615610847565b506001600160a01b03821615610840565b6301d7265360e41b5f5260045ffd5b506001600160a01b03851615610828565b6330cd747160e01b5f5260045ffd5b346104a85760403660031901126104a857610b8c610d35565b610b94610d4b565b5f549091906001600160a01b03163303610b64576001600160a01b03821615610b13576040516370a0823160e01b81523060048201526001600160a01b039190911691602082602481865afa918215610a48575f92610c7a575b5060405163a9059cbb60e01b81526001600160a01b0390911660048201526024810191909152906020908290815f81604481015b03925af1908115610a48575f91610c4b575b5015610c3c57005b632609239960e21b5f5260045ffd5b610c6d915060203d602011610c73575b610c658183610dff565b810190610e21565b81610c34565b503d610c5b565b91506020823d602011610ca8575b81610c9560209383610dff565b810103126104a857905190610c22610bee565b3d9150610c88565b346104a85760603660031901126104a857610cc9610d35565b610cd1610d4b565b5f546001600160a01b03163303610b64576001600160a01b03811615610b135763a9059cbb60e01b83526001600160a01b039081166004840152604480356024850152602092849283915f91165af1908115610a48575f91610c4b575015610c3c57005b600435906001600160a01b03821682036104a857565b602435906001600160a01b03821682036104a857565b604435906001600160a01b03821682036104a857565b606435906001600160a01b03821682036104a857565b608435906001600160a01b03821682036104a857565b60a435906001600160a01b03821682036104a857565b60c435906001600160a01b03821682036104a857565b60e0810190811067ffffffffffffffff821117610deb57604052565b634e487b7160e01b5f52604160045260245ffd5b90601f8019910116810190811067ffffffffffffffff821117610deb57604052565b908160209103126104a8575180151581036104a85790565b81810392915f138015828513169184121617610e5157565b634e487b7160e01b5f52601160045260245ffd5b80516001600160a01b039081168352602080830151821690840152604080830151821690840152606080830151908401526080808301519084015260a0808301519084015260c09182015116910152565b91939291906001600160a01b038216908115610b13576001600160a01b03169182158015610fe4575b610fd5578315610fcc57610ef39083610ff5565b60405194610f0086610dcf565b82865260018060a01b0316928360208701523060408701524260608701528060808701525f1960a08701525f60c0870152610f4c604051966361d4d5b360e01b88526004880190610e65565b60208660e4815f865af1958615610a48575f96610f97575b5060407fcb3796b31ba09ffbc48bd2abe64550ce61698c9e170bed66c7f6c556118af6a3918782519182526020820152a4565b9095506020813d602011610fc4575b81610fb360209383610dff565b810103126104a85751946040610f64565b3d9150610fa6565b505f9450505050565b6381c609f760e01b5f5260045ffd5b506001600160a01b03861615610edf565b604051636eb1769f60e11b81523060048201526001600160a01b0383811660248301529190911690602081604481855afa908115610a48575f916111d3575b50600181016110e7575b50604051636eb1769f60e11b81523060048201526001600160a01b038316602482015291602083604481855afa928315610a48575f936110b2575b506040519283526001600160a01b0316917fb6174191c8a1b8338dcc8711e5edf88685ae0a57f03b361e2bdf8979f6288bd590602090a3565b9092506020813d6020116110df575b816110ce60209383610dff565b810103126104a85751916020611079565b3d91506110c1565b611161575b60405163095ea7b360e01b81526001600160a01b03831660048201525f1960248201526020816044815f865af1908115610a48575f91611142575b5015611133575f61103e565b632a69ce6b60e11b5f5260045ffd5b61115b915060203d602011610c7357610c658183610dff565b5f611127565b60405163095ea7b360e01b81526001600160a01b03831660048201525f6024820181905260209082906044908290865af1908115610a48575f916111b4575b506110ec5763097c3e9360e21b5f5260045ffd5b6111cd915060203d602011610c7357610c658183610dff565b5f6111a0565b90506020813d6020116111fd575b816111ee60209383610dff565b810103126104a857515f611034565b3d91506111e1565b91939291906001600160a01b038216908115610b13576001600160a01b0316918215801561131a575b610fd5578315610fcc576112429083610ff5565b6040519461124f86610dcf565b82865260018060a01b0316928360208701523060408701524260608701528060808701525f60a08701525f60c087015261129a6040519663178ca23160e31b88526004880190610e65565b60208660e4815f865af1958615610a48575f966112e5575b5060407f5daa39fce4745a2a9e6137131383e8405e80edb12e37c562f590c5f294ed19d5918782519182526020820152a4565b9095506020813d602011611312575b8161130160209383610dff565b810103126104a857519460406112b2565b3d91506112f4565b506001600160a01b0386161561122e56fea264697066735822122038aabd4fe14c6acfc6aa034e669eb2b9748246076dfcce7428516db74e52ed3b64736f6c63430008210033","linkReferences":{}},"assembly":"    /* \"contracts/PredictionArbExecutorV1.sol\":3052:14355  contract PredictionArbExecutorV1 {... */\n  0x80\n  dup1\n  0x40\n  mstore\n  jumpi(tag_1, callvalue)\n    /* \"contracts/PredictionArbExecutorV1.sol\":3733:3751  owner = msg.sender */\n  0x00\n    /* \"contracts/PredictionArbExecutorV1.sol\":3052:14355  contract PredictionArbExecutorV1 {... */\n  dup1\n  sload\n  not(sub(shl(0xa0, 0x01), 0x01))\n  and\n    /* \"contracts/PredictionArbExecutorV1.sol\":3741:3751  msg.sender */\n  caller\n    /* \"contracts/PredictionArbExecutorV1.sol\":3052:14355  contract PredictionArbExecutorV1 {... */\n  swap1\n  dup2\n  or\n  dup3\n  sstore\n    /* \"contracts/PredictionArbExecutorV1.sol\":3741:3751  msg.sender */\n  swap1\n    /* \"contracts/PredictionArbExecutorV1.sol\":3766:3810  OwnershipTransferred(address(0), msg.sender) */\n  0x8be0079c531659141344cd1fd0a4f28419497f9722a3daafe3b4186f6b6457e0\n    /* \"contracts/PredictionArbExecutorV1.sol\":3733:3751  owner = msg.sender */\n  dup2\n  dup1\n    /* \"contracts/PredictionArbExecutorV1.sol\":3766:3810  OwnershipTransferred(address(0), msg.sender) */\n  log3\n    /* \"contracts/PredictionArbExecutorV1.sol\":3052:14355  contract PredictionArbExecutorV1 {... */\n  dataSize(sub_0)\n  swap1\n  dup2\n  dataOffset(sub_0)\n  dup3\n  codecopy\n  return\ntag_1:\n  0x00\n  dup1\n  revert\nstop\n\nsub_0: assembly {\n        /* \"contracts/PredictionArbExecutorV1.sol\":3052:14355  contract PredictionArbExecutorV1 {... */\n      0x80\n      dup1\n      0x40\n      mstore\n      jumpi(tag_20, iszero(lt(calldatasize, 0x04)))\n    tag_21:\n      pop\n      jumpi(tag_22, iszero(calldatasize))\n      0x00\n      dup1\n      revert\n    tag_22:\n      stop\n    tag_20:\n      0x00\n      swap1\n      shr(0xe0, calldataload(0x00))\n      swap1\n      dup2\n      0x01e33667\n      eq\n      tag_24\n      jumpi\n      pop\n      dup1\n      0x258836fe\n      eq\n      tag_26\n      jumpi\n      dup1\n      0x2b4ed6fa\n      eq\n      tag_28\n      jumpi\n      dup1\n      0x4782f779\n      eq\n      tag_30\n      jumpi\n      dup1\n      0x50e2e7a8\n      eq\n      tag_32\n      jumpi\n      dup1\n      0x8da5cb5b\n      eq\n      tag_34\n      jumpi\n      0xf2fde38b\n      sub\n      tag_21\n      jumpi\n      jumpi(tag_40, callvalue)\n      jumpi(tag_40, slt(add(not(0x03), calldatasize), 0x20))\n      tag_42\n      tag_1\n      jump\t// in\n    tag_42:\n      dup2\n      sload\n      sub(shl(0xa0, 0x01), 0x01)\n      dup2\n      and\n      swap2\n        /* \"contracts/PredictionArbExecutorV1.sol\":3647:3657  msg.sender */\n      caller\n        /* \"contracts/PredictionArbExecutorV1.sol\":3647:3666  msg.sender != owner */\n      dup4\n      swap1\n      sub\n        /* \"contracts/PredictionArbExecutorV1.sol\":3643:3685  if (msg.sender != owner) revert NotOwner() */\n      tag_43\n      jumpi\n      sub(shl(0xa0, 0x01), 0x01)\n        /* \"contracts/PredictionArbExecutorV1.sol\":3052:14355  contract PredictionArbExecutorV1 {... */\n      and\n      swap2\n        /* \"contracts/PredictionArbExecutorV1.sol\":3901:3923  newOwner == address(0) */\n      dup3\n      iszero\n        /* \"contracts/PredictionArbExecutorV1.sol\":3897:3945  if (newOwner == address(0)) revert ZeroAddress() */\n      tag_45\n      jumpi\n        /* \"contracts/PredictionArbExecutorV1.sol\":3960:3997  OwnershipTransferred(owner, newOwner) */\n      dup3\n      swap1\n      0x8be0079c531659141344cd1fd0a4f28419497f9722a3daafe3b4186f6b6457e0\n      dup6\n      dup1\n      log3\n      not(sub(shl(0xa0, 0x01), 0x01))\n        /* \"contracts/PredictionArbExecutorV1.sol\":3052:14355  contract PredictionArbExecutorV1 {... */\n      and\n      or\n      dup2\n      sstore\n      dup1\n      return\n        /* \"contracts/PredictionArbExecutorV1.sol\":3897:3945  if (newOwner == address(0)) revert ZeroAddress() */\n    tag_45:\n      shl(0xe0, 0xd92e233d)\n        /* \"contracts/PredictionArbExecutorV1.sol\":3932:3945  ZeroAddress() */\n      dup5\n      mstore\n        /* \"contracts/PredictionArbExecutorV1.sol\":3052:14355  contract PredictionArbExecutorV1 {... */\n      0x04\n        /* \"contracts/PredictionArbExecutorV1.sol\":13790:13803  ZeroAddress() */\n      dup5\n        /* \"contracts/PredictionArbExecutorV1.sol\":3932:3945  ZeroAddress() */\n      revert\n        /* \"contracts/PredictionArbExecutorV1.sol\":3643:3685  if (msg.sender != owner) revert NotOwner() */\n    tag_43:\n      shl(0xe0, 0x30cd7471)\n        /* \"contracts/PredictionArbExecutorV1.sol\":3675:3685  NotOwner() */\n      dup5\n      mstore\n        /* \"contracts/PredictionArbExecutorV1.sol\":3052:14355  contract PredictionArbExecutorV1 {... */\n      0x04\n        /* \"contracts/PredictionArbExecutorV1.sol\":3675:3685  NotOwner() */\n      dup5\n      revert\n        /* \"contracts/PredictionArbExecutorV1.sol\":3052:14355  contract PredictionArbExecutorV1 {... */\n    tag_40:\n      dup1\n      revert\n    tag_34:\n      pop\n      jumpi(tag_40, callvalue)\n      dup1\n      add(calldatasize, not(0x03))\n      slt\n      tag_40\n      jumpi\n      sload\n      mload(0x40)\n      sub(shl(0xa0, 0x01), 0x01)\n      swap1\n      swap2\n      and\n      dup2\n      mstore\n      0x20\n      swap1\n      return\n    tag_32:\n      pop\n      jumpi(tag_40, callvalue)\n      jumpi(tag_40, slt(add(not(0x03), calldatasize), 0x0100))\n      tag_55\n      tag_1\n      jump\t// in\n    tag_55:\n      swap1\n      tag_56\n      tag_2\n      jump\t// in\n    tag_56:\n      swap2\n      tag_57\n      tag_3\n      jump\t// in\n    tag_57:\n      swap1\n      tag_58\n      tag_4\n      jump\t// in\n    tag_58:\n      swap4\n      tag_59\n      tag_5\n      jump\t// in\n    tag_59:\n      swap5\n      tag_60\n      tag_6\n      jump\t// in\n    tag_60:\n      dup6\n      sload\n      calldataload(0xe4)\n      swap8\n      swap2\n      swap3\n      swap2\n      swap1\n      calldataload(0xc4)\n      swap1\n      sub(shl(0xa0, 0x01), 0x01)\n      and\n        /* \"contracts/PredictionArbExecutorV1.sol\":3647:3657  msg.sender */\n      caller\n        /* \"contracts/PredictionArbExecutorV1.sol\":3647:3666  msg.sender != owner */\n      sub\n        /* \"contracts/PredictionArbExecutorV1.sol\":3643:3685  if (msg.sender != owner) revert NotOwner() */\n      tag_61\n      jumpi\n      sub(shl(0xa0, 0x01), 0x01)\n        /* \"contracts/PredictionArbExecutorV1.sol\":3052:14355  contract PredictionArbExecutorV1 {... */\n      dup7\n      and\n      swap5\n        /* \"contracts/PredictionArbExecutorV1.sol\":8587:8616  futarchy_router == address(0) */\n      dup6\n      iszero\n        /* \"contracts/PredictionArbExecutorV1.sol\":8587:8642  futarchy_router == address(0) || proposal == address(0) */\n      dup1\n      iszero\n      tag_63\n      jumpi\n        /* \"contracts/PredictionArbExecutorV1.sol\":3052:14355  contract PredictionArbExecutorV1 {... */\n    tag_64:\n        /* \"contracts/PredictionArbExecutorV1.sol\":8583:8698  if (futarchy_router == address(0) || proposal == address(0)) {... */\n      tag_65\n      jumpi\n      sub(shl(0xa0, 0x01), 0x01)\n        /* \"contracts/PredictionArbExecutorV1.sol\":3052:14355  contract PredictionArbExecutorV1 {... */\n      dup9\n      and\n      swap6\n        /* \"contracts/PredictionArbExecutorV1.sol\":8711:8733  currency == address(0) */\n      dup7\n      iszero\n        /* \"contracts/PredictionArbExecutorV1.sol\":8711:8763  currency == address(0) || yes_currency == address(0) */\n      dup1\n      iszero\n      tag_67\n      jumpi\n        /* \"contracts/PredictionArbExecutorV1.sol\":3052:14355  contract PredictionArbExecutorV1 {... */\n    tag_68:\n        /* \"contracts/PredictionArbExecutorV1.sol\":8711:8792  currency == address(0) || yes_currency == address(0) || no_currency == address(0) */\n      dup1\n      iszero\n      tag_69\n      jumpi\n        /* \"contracts/PredictionArbExecutorV1.sol\":3052:14355  contract PredictionArbExecutorV1 {... */\n    tag_70:\n        /* \"contracts/PredictionArbExecutorV1.sol\":8707:8814  if (currency == address(0) || yes_currency == address(0) || no_currency == address(0)) revert ZeroAddress() */\n      tag_73\n      jumpi\n      sub(shl(0xa0, 0x01), 0x01)\n        /* \"contracts/PredictionArbExecutorV1.sol\":3052:14355  contract PredictionArbExecutorV1 {... */\n      dup7\n      and\n        /* \"contracts/PredictionArbExecutorV1.sol\":8828:8854  swapr_router == address(0) */\n      iszero\n        /* \"contracts/PredictionArbExecutorV1.sol\":8824:8876  if (swapr_router == address(0)) revert ZeroAddress() */\n      tag_73\n      jumpi\n        /* \"contracts/PredictionArbExecutorV1.sol\":8890:8913  amount_currency_in == 0 */\n      dup3\n      iszero\n        /* \"contracts/PredictionArbExecutorV1.sol\":8886:8934  if (amount_currency_in == 0) revert ZeroAmount() */\n      tag_75\n      jumpi\n        /* \"contracts/PredictionArbExecutorV1.sol\":3052:14355  contract PredictionArbExecutorV1 {... */\n      mload(0x40)\n      shl(0xe0, 0x70a08231)\n        /* \"contracts/PredictionArbExecutorV1.sol\":9007:9048  IERC20(currency).balanceOf(address(this)) */\n      dup2\n      mstore\n        /* \"contracts/PredictionArbExecutorV1.sol\":9042:9046  this */\n      address\n        /* \"contracts/PredictionArbExecutorV1.sol\":3052:14355  contract PredictionArbExecutorV1 {... */\n      0x04\n        /* \"contracts/PredictionArbExecutorV1.sol\":9007:9048  IERC20(currency).balanceOf(address(this)) */\n      dup3\n      add\n        /* \"contracts/PredictionArbExecutorV1.sol\":3052:14355  contract PredictionArbExecutorV1 {... */\n      mstore\n      swap8\n      0x20\n      dup10\n      0x24\n      dup2\n        /* \"contracts/PredictionArbExecutorV1.sol\":9007:9048  IERC20(currency).balanceOf(address(this)) */\n      dup12\n      gas\n      staticcall\n      swap9\n      dup10\n      iszero\n      tag_95\n      jumpi\n      dup12\n      swap10\n      tag_79\n      jumpi\n        /* \"contracts/PredictionArbExecutorV1.sol\":3052:14355  contract PredictionArbExecutorV1 {... */\n    tag_80:\n      pop\n        /* \"contracts/PredictionArbExecutorV1.sol\":9213:9228  futarchy_router */\n      tag_81\n        /* \"contracts/PredictionArbExecutorV1.sol\":3052:14355  contract PredictionArbExecutorV1 {... */\n      swap1\n      dup9\n        /* \"contracts/PredictionArbExecutorV1.sol\":9063:9107  InitialCollateralSnapshot(currency, initial) */\n      0xb2f03ce105b3cd1f9fccfa1de78c921cd3ad2f01048d3a832c7ebb893fd347b9\n        /* \"contracts/PredictionArbExecutorV1.sol\":3052:14355  contract PredictionArbExecutorV1 {... */\n      0x20\n      mload(0x40)\n      dup14\n      dup2\n      mstore\n        /* \"contracts/PredictionArbExecutorV1.sol\":9063:9107  InitialCollateralSnapshot(currency, initial) */\n      log2\n        /* \"contracts/PredictionArbExecutorV1.sol\":9213:9228  futarchy_router */\n      dup9\n      tag_18\n      jump\t// in\n    tag_81:\n        /* \"contracts/PredictionArbExecutorV1.sol\":9239:9325  IFutarchyRouter(futarchy_router).splitPosition(proposal, currency, amount_currency_in) */\n      dup1\n      extcodesize\n      iszero\n      tag_153\n      jumpi\n        /* \"contracts/PredictionArbExecutorV1.sol\":3052:14355  contract PredictionArbExecutorV1 {... */\n      mload(0x40)\n      shl(0xe7, 0x01abf045)\n        /* \"contracts/PredictionArbExecutorV1.sol\":9239:9325  IFutarchyRouter(futarchy_router).splitPosition(proposal, currency, amount_currency_in) */\n      dup2\n      mstore\n      sub(shl(0xa0, 0x01), 0x01)\n        /* \"contracts/PredictionArbExecutorV1.sol\":3052:14355  contract PredictionArbExecutorV1 {... */\n      dup4\n      dup2\n      and\n      0x04\n        /* \"contracts/PredictionArbExecutorV1.sol\":9239:9325  IFutarchyRouter(futarchy_router).splitPosition(proposal, currency, amount_currency_in) */\n      dup4\n      add\n        /* \"contracts/PredictionArbExecutorV1.sol\":3052:14355  contract PredictionArbExecutorV1 {... */\n      mstore\n      dup11\n      and\n      0x24\n      dup3\n      add\n      mstore\n      0x44\n      dup2\n      add\n      dup5\n      swap1\n      mstore\n      dup11\n      dup2\n      0x64\n      dup2\n      dup4\n        /* \"contracts/PredictionArbExecutorV1.sol\":9239:9325  IFutarchyRouter(futarchy_router).splitPosition(proposal, currency, amount_currency_in) */\n      dup7\n      gas\n      call\n      dup1\n      iszero\n      tag_95\n      jumpi\n      dup9\n      swap4\n      swap3\n      swap2\n      dup13\n      swap2\n      tag_87\n      jumpi\n        /* \"contracts/PredictionArbExecutorV1.sol\":3052:14355  contract PredictionArbExecutorV1 {... */\n    tag_88:\n      pop\n      pop\n      mload(0x40)\n      dup5\n      dup2\n      mstore\n      sub(shl(0xa0, 0x01), 0x01)\n      swap1\n      swap3\n      and\n      swap2\n        /* \"contracts/PredictionArbExecutorV1.sol\":9340:9423  ConditionalCollateralSplit(futarchy_router, proposal, currency, amount_currency_in) */\n      0x96b6cd56b43ef9bd81ea4da2f5715eb8e6d0da9999e7cf964ae2932a20e0f0fd\n      swap1\n        /* \"contracts/PredictionArbExecutorV1.sol\":3052:14355  contract PredictionArbExecutorV1 {... */\n      0x20\n      swap1\n        /* \"contracts/PredictionArbExecutorV1.sol\":9340:9423  ConditionalCollateralSplit(futarchy_router, proposal, currency, amount_currency_in) */\n      log4\n        /* \"contracts/PredictionArbExecutorV1.sol\":3052:14355  contract PredictionArbExecutorV1 {... */\n      mload(0x40)\n      shl(0xe0, 0x70a08231)\n        /* \"contracts/PredictionArbExecutorV1.sol\":9486:9531  IERC20(yes_currency).balanceOf(address(this)) */\n      dup2\n      mstore\n        /* \"contracts/PredictionArbExecutorV1.sol\":9042:9046  this */\n      address\n        /* \"contracts/PredictionArbExecutorV1.sol\":3052:14355  contract PredictionArbExecutorV1 {... */\n      0x04\n        /* \"contracts/PredictionArbExecutorV1.sol\":9486:9531  IERC20(yes_currency).balanceOf(address(this)) */\n      dup3\n      add\n        /* \"contracts/PredictionArbExecutorV1.sol\":3052:14355  contract PredictionArbExecutorV1 {... */\n      mstore\n      sub(shl(0xa0, 0x01), 0x01)\n      dup5\n      and\n      swap1\n      0x20\n      dup2\n      0x24\n      dup2\n      dup6\n        /* \"contracts/PredictionArbExecutorV1.sol\":9486:9531  IERC20(yes_currency).balanceOf(address(this)) */\n      gas\n      staticcall\n      swap1\n      dup2\n      iszero\n      tag_89\n      jumpi\n      swap1\n      dup4\n      swap2\n      dup12\n      swap2\n      tag_91\n      jumpi\n        /* \"contracts/PredictionArbExecutorV1.sol\":3052:14355  contract PredictionArbExecutorV1 {... */\n    tag_92:\n        /* \"contracts/PredictionArbExecutorV1.sol\":9486:9552  IERC20(yes_currency).balanceOf(address(this)) < amount_currency_in */\n      pop\n      lt\n        /* \"contracts/PredictionArbExecutorV1.sol\":9482:9582  if (IERC20(yes_currency).balanceOf(address(this)) < amount_currency_in) revert InsufficientBalance() */\n      tag_99\n      jumpi\n        /* \"contracts/PredictionArbExecutorV1.sol\":3052:14355  contract PredictionArbExecutorV1 {... */\n      mload(0x40)\n      shl(0xe0, 0x70a08231)\n        /* \"contracts/PredictionArbExecutorV1.sol\":9596:9640  IERC20(no_currency).balanceOf(address(this)) */\n      dup2\n      mstore\n        /* \"contracts/PredictionArbExecutorV1.sol\":9042:9046  this */\n      address\n        /* \"contracts/PredictionArbExecutorV1.sol\":3052:14355  contract PredictionArbExecutorV1 {... */\n      0x04\n        /* \"contracts/PredictionArbExecutorV1.sol\":9596:9640  IERC20(no_currency).balanceOf(address(this)) */\n      dup3\n      add\n        /* \"contracts/PredictionArbExecutorV1.sol\":3052:14355  contract PredictionArbExecutorV1 {... */\n      mstore\n      sub(shl(0xa0, 0x01), 0x01)\n      dup5\n      and\n      swap3\n      swap1\n      0x20\n      dup2\n      0x24\n      dup2\n      dup8\n        /* \"contracts/PredictionArbExecutorV1.sol\":9596:9640  IERC20(no_currency).balanceOf(address(this)) */\n      gas\n      staticcall\n      swap1\n      dup2\n      iszero\n      tag_95\n      jumpi\n      dup12\n      swap2\n      tag_97\n      jumpi\n        /* \"contracts/PredictionArbExecutorV1.sol\":3052:14355  contract PredictionArbExecutorV1 {... */\n    tag_98:\n        /* \"contracts/PredictionArbExecutorV1.sol\":9596:9661  IERC20(no_currency).balanceOf(address(this)) < amount_currency_in */\n      pop\n      lt\n        /* \"contracts/PredictionArbExecutorV1.sol\":9592:9691  if (IERC20(no_currency).balanceOf(address(this)) < amount_currency_in) revert InsufficientBalance() */\n      tag_99\n      jumpi\n        /* \"contracts/PredictionArbExecutorV1.sol\":3052:14355  contract PredictionArbExecutorV1 {... */\n      0x20\n      0x24\n      swap2\n      mload(0x40)\n      swap3\n      dup4\n      dup1\n      swap3\n      shl(0xe0, 0x70a08231)\n        /* \"contracts/PredictionArbExecutorV1.sol\":9796:9841  IERC20(yes_currency).balanceOf(address(this)) */\n      dup3\n      mstore\n        /* \"contracts/PredictionArbExecutorV1.sol\":9042:9046  this */\n      address\n        /* \"contracts/PredictionArbExecutorV1.sol\":3052:14355  contract PredictionArbExecutorV1 {... */\n      0x04\n        /* \"contracts/PredictionArbExecutorV1.sol\":9796:9841  IERC20(yes_currency).balanceOf(address(this)) */\n      dup4\n      add\n        /* \"contracts/PredictionArbExecutorV1.sol\":3052:14355  contract PredictionArbExecutorV1 {... */\n      mstore\n        /* \"contracts/PredictionArbExecutorV1.sol\":9796:9841  IERC20(yes_currency).balanceOf(address(this)) */\n      gas\n      staticcall\n      swap1\n      dup2\n      iszero\n      tag_101\n      jumpi\n      dup10\n      swap2\n      tag_103\n      jumpi\n        /* \"contracts/PredictionArbExecutorV1.sol\":3052:14355  contract PredictionArbExecutorV1 {... */\n    tag_104:\n        /* \"contracts/PredictionArbExecutorV1.sol\":9855:9865  yesBal > 0 */\n      pop\n      swap1\n        /* \"contracts/PredictionArbExecutorV1.sol\":3052:14355  contract PredictionArbExecutorV1 {... */\n      0x24\n        /* \"contracts/PredictionArbExecutorV1.sol\":9855:9865  yesBal > 0 */\n      swap4\n      dup3\n      dup10\n        /* \"contracts/PredictionArbExecutorV1.sol\":3052:14355  contract PredictionArbExecutorV1 {... */\n      0x20\n        /* \"contracts/PredictionArbExecutorV1.sol\":9855:9865  yesBal > 0 */\n      swap5\n        /* \"contracts/PredictionArbExecutorV1.sol\":9851:9929  if (yesBal > 0) _swaprExactIn(swapr_router, yes_currency, currency, yesBal, 0) */\n      tag_105\n      jumpi\n        /* \"contracts/PredictionArbExecutorV1.sol\":3052:14355  contract PredictionArbExecutorV1 {... */\n    tag_106:\n      pop\n      pop\n      pop\n      mload(0x40)\n      swap4\n      dup5\n      dup1\n      swap3\n      shl(0xe0, 0x70a08231)\n        /* \"contracts/PredictionArbExecutorV1.sol\":9955:9999  IERC20(no_currency).balanceOf(address(this)) */\n      dup3\n      mstore\n        /* \"contracts/PredictionArbExecutorV1.sol\":9042:9046  this */\n      address\n        /* \"contracts/PredictionArbExecutorV1.sol\":3052:14355  contract PredictionArbExecutorV1 {... */\n      0x04\n        /* \"contracts/PredictionArbExecutorV1.sol\":9955:9999  IERC20(no_currency).balanceOf(address(this)) */\n      dup4\n      add\n        /* \"contracts/PredictionArbExecutorV1.sol\":3052:14355  contract PredictionArbExecutorV1 {... */\n      mstore\n        /* \"contracts/PredictionArbExecutorV1.sol\":9955:9999  IERC20(no_currency).balanceOf(address(this)) */\n      gas\n      staticcall\n      swap2\n      dup3\n      iszero\n      tag_107\n      jumpi\n      dup8\n      swap3\n      tag_109\n      jumpi\n        /* \"contracts/PredictionArbExecutorV1.sol\":3052:14355  contract PredictionArbExecutorV1 {... */\n    tag_110:\n        /* \"contracts/PredictionArbExecutorV1.sol\":10013:10022  noBal > 0 */\n      pop\n      swap1\n        /* \"contracts/PredictionArbExecutorV1.sol\":3052:14355  contract PredictionArbExecutorV1 {... */\n      0x24\n        /* \"contracts/PredictionArbExecutorV1.sol\":10013:10022  noBal > 0 */\n      swap6\n        /* \"contracts/PredictionArbExecutorV1.sol\":3052:14355  contract PredictionArbExecutorV1 {... */\n      0x20\n        /* \"contracts/PredictionArbExecutorV1.sol\":10013:10022  noBal > 0 */\n      swap5\n      swap4\n      swap3\n      dup3\n        /* \"contracts/PredictionArbExecutorV1.sol\":10009:10084  if (noBal > 0) _swaprExactIn(swapr_router, no_currency, currency, noBal, 0) */\n      tag_111\n      jumpi\n        /* \"contracts/PredictionArbExecutorV1.sol\":3052:14355  contract PredictionArbExecutorV1 {... */\n    tag_112:\n      pop\n      pop\n      pop\n      pop\n      mload(0x40)\n      swap4\n      dup5\n      dup1\n      swap3\n      shl(0xe0, 0x70a08231)\n        /* \"contracts/PredictionArbExecutorV1.sol\":10171:10212  IERC20(currency).balanceOf(address(this)) */\n      dup3\n      mstore\n        /* \"contracts/PredictionArbExecutorV1.sol\":9042:9046  this */\n      address\n        /* \"contracts/PredictionArbExecutorV1.sol\":3052:14355  contract PredictionArbExecutorV1 {... */\n      0x04\n        /* \"contracts/PredictionArbExecutorV1.sol\":10171:10212  IERC20(currency).balanceOf(address(this)) */\n      dup4\n      add\n        /* \"contracts/PredictionArbExecutorV1.sol\":3052:14355  contract PredictionArbExecutorV1 {... */\n      mstore\n        /* \"contracts/PredictionArbExecutorV1.sol\":10171:10212  IERC20(currency).balanceOf(address(this)) */\n      gas\n      staticcall\n      swap2\n      dup3\n      iszero\n      tag_113\n      jumpi\n      dup4\n      swap3\n      tag_115\n      jumpi\n        /* \"contracts/PredictionArbExecutorV1.sol\":3052:14355  contract PredictionArbExecutorV1 {... */\n    tag_116:\n      pop\n      sub(shl(0xff, 0x01), 0x01)\n        /* \"contracts/PredictionArbExecutorV1.sol\":10226:10262  finalBal > uint256(type(int256).max) */\n      dup3\n      gt\n        /* \"contracts/PredictionArbExecutorV1.sol\":10226:10301  finalBal > uint256(type(int256).max) || initial > uint256(type(int256).max) */\n      dup1\n      iszero\n      tag_117\n      jumpi\n        /* \"contracts/PredictionArbExecutorV1.sol\":3052:14355  contract PredictionArbExecutorV1 {... */\n    tag_118:\n        /* \"contracts/PredictionArbExecutorV1.sol\":10222:10327  if (finalBal > uint256(type(int256).max) || initial > uint256(type(int256).max)) revert BalanceTooLarge() */\n      tag_119\n      jumpi\n        /* \"contracts/PredictionArbExecutorV1.sol\":10417:10451  int256(finalBal) - int256(initial) */\n      dup4\n      tag_121\n      dup3\n      dup5\n      tag_13\n      jump\t// in\n    tag_121:\n        /* \"contracts/PredictionArbExecutorV1.sol\":10465:10493  signedProfit < min_out_final */\n      slt\n        /* \"contracts/PredictionArbExecutorV1.sol\":10461:10519  if (signedProfit < min_out_final) revert MinProfitNotMet() */\n      tag_122\n      jumpi\n        /* \"contracts/PredictionArbExecutorV1.sol\":10534:10582  ProfitVerified(initial, finalBal, min_out_final) */\n      tag_124\n      0x318296ace369901373a62c2153c5e87356175630ec782af9e8b7c9385f3d1e80\n        /* \"contracts/PredictionArbExecutorV1.sol\":3052:14355  contract PredictionArbExecutorV1 {... */\n      swap4\n      swap5\n      mload(0x40)\n        /* \"contracts/PredictionArbExecutorV1.sol\":10534:10582  ProfitVerified(initial, finalBal, min_out_final) */\n      swap4\n      dup5\n      swap4\n      dup5\n        /* \"contracts/PredictionArbExecutorV1.sol\":3052:14355  contract PredictionArbExecutorV1 {... */\n      0x40\n      swap2\n      swap5\n      swap4\n      swap3\n      0x60\n      dup3\n      add\n      swap6\n      dup3\n      mstore\n      0x20\n      dup3\n      add\n      mstore\n      add\n      mstore\n      jump\n        /* \"contracts/PredictionArbExecutorV1.sol\":10534:10582  ProfitVerified(initial, finalBal, min_out_final) */\n    tag_124:\n      sub\n      swap1\n      log1\n        /* \"contracts/PredictionArbExecutorV1.sol\":3052:14355  contract PredictionArbExecutorV1 {... */\n      dup1\n      return\n        /* \"contracts/PredictionArbExecutorV1.sol\":10461:10519  if (signedProfit < min_out_final) revert MinProfitNotMet() */\n    tag_122:\n      shl(0xe0, 0xd433008b)\n        /* \"contracts/PredictionArbExecutorV1.sol\":10502:10519  MinProfitNotMet() */\n      dup4\n      mstore\n        /* \"contracts/PredictionArbExecutorV1.sol\":3052:14355  contract PredictionArbExecutorV1 {... */\n      0x04\n        /* \"contracts/PredictionArbExecutorV1.sol\":13485:13502  MinProfitNotMet() */\n      dup4\n        /* \"contracts/PredictionArbExecutorV1.sol\":10502:10519  MinProfitNotMet() */\n      revert\n        /* \"contracts/PredictionArbExecutorV1.sol\":10222:10327  if (finalBal > uint256(type(int256).max) || initial > uint256(type(int256).max)) revert BalanceTooLarge() */\n    tag_119:\n      shl(0xe1, 0x0748aac7)\n        /* \"contracts/PredictionArbExecutorV1.sol\":10310:10327  BalanceTooLarge() */\n      dup4\n      mstore\n        /* \"contracts/PredictionArbExecutorV1.sol\":3052:14355  contract PredictionArbExecutorV1 {... */\n      0x04\n        /* \"contracts/PredictionArbExecutorV1.sol\":13293:13310  BalanceTooLarge() */\n      dup4\n        /* \"contracts/PredictionArbExecutorV1.sol\":10310:10327  BalanceTooLarge() */\n      revert\n        /* \"contracts/PredictionArbExecutorV1.sol\":10226:10301  finalBal > uint256(type(int256).max) || initial > uint256(type(int256).max) */\n    tag_117:\n      pop\n      sub(shl(0xff, 0x01), 0x01)\n        /* \"contracts/PredictionArbExecutorV1.sol\":10266:10301  initial > uint256(type(int256).max) */\n      dup2\n      gt\n        /* \"contracts/PredictionArbExecutorV1.sol\":10226:10301  finalBal > uint256(type(int256).max) || initial > uint256(type(int256).max) */\n      jump(tag_118)\n        /* \"contracts/PredictionArbExecutorV1.sol\":10171:10212  IERC20(currency).balanceOf(address(this)) */\n    tag_115:\n      swap1\n      swap2\n      pop\n        /* \"contracts/PredictionArbExecutorV1.sol\":3052:14355  contract PredictionArbExecutorV1 {... */\n      0x20\n        /* \"contracts/PredictionArbExecutorV1.sol\":10171:10212  IERC20(currency).balanceOf(address(this)) */\n      dup2\n      returndatasize\n        /* \"contracts/PredictionArbExecutorV1.sol\":3052:14355  contract PredictionArbExecutorV1 {... */\n      0x20\n        /* \"contracts/PredictionArbExecutorV1.sol\":10171:10212  IERC20(currency).balanceOf(address(this)) */\n      gt\n      tag_125\n      jumpi\n    tag_126:\n      dup2\n      tag_127\n        /* \"contracts/PredictionArbExecutorV1.sol\":3052:14355  contract PredictionArbExecutorV1 {... */\n      0x20\n        /* \"contracts/PredictionArbExecutorV1.sol\":10171:10212  IERC20(currency).balanceOf(address(this)) */\n      swap4\n      dup4\n      tag_9\n      jump\t// in\n    tag_127:\n      dup2\n      add\n        /* \"contracts/PredictionArbExecutorV1.sol\":3052:14355  contract PredictionArbExecutorV1 {... */\n      sub\n      slt\n      tag_128\n      jumpi\n      mload\n        /* \"contracts/PredictionArbExecutorV1.sol\":10171:10212  IERC20(currency).balanceOf(address(this)) */\n      swap1\n      0x00\n      jump(tag_116)\n        /* \"contracts/PredictionArbExecutorV1.sol\":3052:14355  contract PredictionArbExecutorV1 {... */\n    tag_128:\n      0x00\n      dup1\n      revert\n        /* \"contracts/PredictionArbExecutorV1.sol\":10171:10212  IERC20(currency).balanceOf(address(this)) */\n    tag_125:\n      returndatasize\n      swap2\n      pop\n      jump(tag_126)\n    tag_113:\n        /* \"contracts/PredictionArbExecutorV1.sol\":3052:14355  contract PredictionArbExecutorV1 {... */\n      mload(0x40)\n      returndatasize\n      dup6\n      dup3\n      returndatacopy\n      returndatasize\n      swap1\n      revert\n        /* \"contracts/PredictionArbExecutorV1.sol\":10009:10084  if (noBal > 0) _swaprExactIn(swapr_router, no_currency, currency, noBal, 0) */\n    tag_111:\n        /* \"contracts/PredictionArbExecutorV1.sol\":10024:10084  _swaprExactIn(swapr_router, no_currency, currency, noBal, 0) */\n      tag_130\n      swap4\n      tag_19\n      jump\t// in\n    tag_130:\n      pop\n        /* \"contracts/PredictionArbExecutorV1.sol\":10009:10084  if (noBal > 0) _swaprExactIn(swapr_router, no_currency, currency, noBal, 0) */\n      0x00\n      dup1\n      dup1\n      dup1\n      jump(tag_112)\n        /* \"contracts/PredictionArbExecutorV1.sol\":9955:9999  IERC20(no_currency).balanceOf(address(this)) */\n    tag_109:\n      swap4\n      swap3\n      swap2\n      pop\n        /* \"contracts/PredictionArbExecutorV1.sol\":3052:14355  contract PredictionArbExecutorV1 {... */\n      0x20\n        /* \"contracts/PredictionArbExecutorV1.sol\":9955:9999  IERC20(no_currency).balanceOf(address(this)) */\n      dup5\n      returndatasize\n        /* \"contracts/PredictionArbExecutorV1.sol\":3052:14355  contract PredictionArbExecutorV1 {... */\n      0x20\n        /* \"contracts/PredictionArbExecutorV1.sol\":9955:9999  IERC20(no_currency).balanceOf(address(this)) */\n      gt\n      tag_131\n      jumpi\n    tag_132:\n      dup2\n      tag_133\n        /* \"contracts/PredictionArbExecutorV1.sol\":3052:14355  contract PredictionArbExecutorV1 {... */\n      0x20\n        /* \"contracts/PredictionArbExecutorV1.sol\":9955:9999  IERC20(no_currency).balanceOf(address(this)) */\n      swap4\n      dup4\n      tag_9\n      jump\t// in\n    tag_133:\n      dup2\n      add\n        /* \"contracts/PredictionArbExecutorV1.sol\":3052:14355  contract PredictionArbExecutorV1 {... */\n      sub\n      slt\n      tag_128\n      jumpi\n      swap3\n      mload\n        /* \"contracts/PredictionArbExecutorV1.sol\":9955:9999  IERC20(no_currency).balanceOf(address(this)) */\n      swap2\n      swap3\n      swap1\n      swap2\n        /* \"contracts/PredictionArbExecutorV1.sol\":3052:14355  contract PredictionArbExecutorV1 {... */\n      swap1\n      0x24\n        /* \"contracts/PredictionArbExecutorV1.sol\":9955:9999  IERC20(no_currency).balanceOf(address(this)) */\n      jump(tag_110)\n    tag_131:\n      returndatasize\n      swap2\n      pop\n      jump(tag_132)\n    tag_107:\n        /* \"contracts/PredictionArbExecutorV1.sol\":3052:14355  contract PredictionArbExecutorV1 {... */\n      mload(0x40)\n      returndatasize\n      dup10\n      dup3\n      returndatacopy\n      returndatasize\n      swap1\n      revert\n        /* \"contracts/PredictionArbExecutorV1.sol\":9851:9929  if (yesBal > 0) _swaprExactIn(swapr_router, yes_currency, currency, yesBal, 0) */\n    tag_105:\n        /* \"contracts/PredictionArbExecutorV1.sol\":9867:9929  _swaprExactIn(swapr_router, yes_currency, currency, yesBal, 0) */\n      tag_136\n      swap3\n      dup9\n      tag_19\n      jump\t// in\n    tag_136:\n      pop\n        /* \"contracts/PredictionArbExecutorV1.sol\":9851:9929  if (yesBal > 0) _swaprExactIn(swapr_router, yes_currency, currency, yesBal, 0) */\n      0x00\n      dup1\n      dup10\n      jump(tag_106)\n        /* \"contracts/PredictionArbExecutorV1.sol\":9796:9841  IERC20(yes_currency).balanceOf(address(this)) */\n    tag_103:\n      swap2\n      swap1\n      pop\n        /* \"contracts/PredictionArbExecutorV1.sol\":3052:14355  contract PredictionArbExecutorV1 {... */\n      0x20\n        /* \"contracts/PredictionArbExecutorV1.sol\":9796:9841  IERC20(yes_currency).balanceOf(address(this)) */\n      dup3\n      returndatasize\n        /* \"contracts/PredictionArbExecutorV1.sol\":3052:14355  contract PredictionArbExecutorV1 {... */\n      0x20\n        /* \"contracts/PredictionArbExecutorV1.sol\":9796:9841  IERC20(yes_currency).balanceOf(address(this)) */\n      gt\n      tag_137\n      jumpi\n    tag_138:\n      dup2\n      tag_139\n        /* \"contracts/PredictionArbExecutorV1.sol\":3052:14355  contract PredictionArbExecutorV1 {... */\n      0x20\n        /* \"contracts/PredictionArbExecutorV1.sol\":9796:9841  IERC20(yes_currency).balanceOf(address(this)) */\n      swap4\n      dup4\n      tag_9\n      jump\t// in\n    tag_139:\n      dup2\n      add\n        /* \"contracts/PredictionArbExecutorV1.sol\":3052:14355  contract PredictionArbExecutorV1 {... */\n      sub\n      slt\n      tag_128\n      jumpi\n      swap1\n      mload\n      0x24\n        /* \"contracts/PredictionArbExecutorV1.sol\":9796:9841  IERC20(yes_currency).balanceOf(address(this)) */\n      jump(tag_104)\n    tag_137:\n      returndatasize\n      swap2\n      pop\n      jump(tag_138)\n    tag_101:\n        /* \"contracts/PredictionArbExecutorV1.sol\":3052:14355  contract PredictionArbExecutorV1 {... */\n      mload(0x40)\n      returndatasize\n      dup12\n      dup3\n      returndatacopy\n      returndatasize\n      swap1\n      revert\n        /* \"contracts/PredictionArbExecutorV1.sol\":9592:9691  if (IERC20(no_currency).balanceOf(address(this)) < amount_currency_in) revert InsufficientBalance() */\n    tag_99:\n      shl(0xe3, 0x1e9acf17)\n        /* \"contracts/PredictionArbExecutorV1.sol\":9670:9691  InsufficientBalance() */\n      dup10\n      mstore\n        /* \"contracts/PredictionArbExecutorV1.sol\":3052:14355  contract PredictionArbExecutorV1 {... */\n      0x04\n        /* \"contracts/PredictionArbExecutorV1.sol\":12544:12565  InsufficientBalance() */\n      dup10\n        /* \"contracts/PredictionArbExecutorV1.sol\":9670:9691  InsufficientBalance() */\n      revert\n        /* \"contracts/PredictionArbExecutorV1.sol\":9596:9640  IERC20(no_currency).balanceOf(address(this)) */\n    tag_97:\n      swap1\n      pop\n        /* \"contracts/PredictionArbExecutorV1.sol\":3052:14355  contract PredictionArbExecutorV1 {... */\n      0x20\n        /* \"contracts/PredictionArbExecutorV1.sol\":9596:9640  IERC20(no_currency).balanceOf(address(this)) */\n      dup2\n      returndatasize\n        /* \"contracts/PredictionArbExecutorV1.sol\":3052:14355  contract PredictionArbExecutorV1 {... */\n      0x20\n        /* \"contracts/PredictionArbExecutorV1.sol\":9596:9640  IERC20(no_currency).balanceOf(address(this)) */\n      gt\n      tag_142\n      jumpi\n    tag_143:\n      dup2\n      tag_144\n        /* \"contracts/PredictionArbExecutorV1.sol\":3052:14355  contract PredictionArbExecutorV1 {... */\n      0x20\n        /* \"contracts/PredictionArbExecutorV1.sol\":9596:9640  IERC20(no_currency).balanceOf(address(this)) */\n      swap4\n      dup4\n      tag_9\n      jump\t// in\n    tag_144:\n      dup2\n      add\n        /* \"contracts/PredictionArbExecutorV1.sol\":3052:14355  contract PredictionArbExecutorV1 {... */\n      sub\n      slt\n      tag_128\n      jumpi\n      mload\n        /* \"contracts/PredictionArbExecutorV1.sol\":9596:9640  IERC20(no_currency).balanceOf(address(this)) */\n      0x00\n      jump(tag_98)\n    tag_142:\n      returndatasize\n      swap2\n      pop\n      jump(tag_143)\n    tag_95:\n        /* \"contracts/PredictionArbExecutorV1.sol\":3052:14355  contract PredictionArbExecutorV1 {... */\n      mload(0x40)\n      returndatasize\n      dup14\n      dup3\n      returndatacopy\n      returndatasize\n      swap1\n      revert\n        /* \"contracts/PredictionArbExecutorV1.sol\":9486:9531  IERC20(yes_currency).balanceOf(address(this)) */\n    tag_91:\n      swap2\n      pop\n      pop\n        /* \"contracts/PredictionArbExecutorV1.sol\":3052:14355  contract PredictionArbExecutorV1 {... */\n      0x20\n        /* \"contracts/PredictionArbExecutorV1.sol\":9486:9531  IERC20(yes_currency).balanceOf(address(this)) */\n      dup2\n      returndatasize\n        /* \"contracts/PredictionArbExecutorV1.sol\":3052:14355  contract PredictionArbExecutorV1 {... */\n      0x20\n        /* \"contracts/PredictionArbExecutorV1.sol\":9486:9531  IERC20(yes_currency).balanceOf(address(this)) */\n      gt\n      tag_147\n      jumpi\n    tag_148:\n      dup2\n      tag_149\n        /* \"contracts/PredictionArbExecutorV1.sol\":3052:14355  contract PredictionArbExecutorV1 {... */\n      0x20\n        /* \"contracts/PredictionArbExecutorV1.sol\":9486:9531  IERC20(yes_currency).balanceOf(address(this)) */\n      swap4\n      dup4\n      tag_9\n      jump\t// in\n    tag_149:\n      dup2\n      add\n        /* \"contracts/PredictionArbExecutorV1.sol\":3052:14355  contract PredictionArbExecutorV1 {... */\n      sub\n      slt\n      tag_128\n      jumpi\n      dup3\n      swap1\n      mload\n        /* \"contracts/PredictionArbExecutorV1.sol\":9486:9531  IERC20(yes_currency).balanceOf(address(this)) */\n      0x00\n      jump(tag_92)\n    tag_147:\n      returndatasize\n      swap2\n      pop\n      jump(tag_148)\n    tag_89:\n        /* \"contracts/PredictionArbExecutorV1.sol\":3052:14355  contract PredictionArbExecutorV1 {... */\n      mload(0x40)\n      returndatasize\n      dup13\n      dup3\n      returndatacopy\n      returndatasize\n      swap1\n      revert\n        /* \"contracts/PredictionArbExecutorV1.sol\":9239:9325  IFutarchyRouter(futarchy_router).splitPosition(proposal, currency, amount_currency_in) */\n    tag_87:\n      dup2\n      swap3\n      swap4\n      swap5\n      pop\n      swap1\n      tag_152\n      swap2\n      tag_9\n      jump\t// in\n    tag_152:\n        /* \"contracts/PredictionArbExecutorV1.sol\":3052:14355  contract PredictionArbExecutorV1 {... */\n      tag_153\n      jumpi\n        /* \"contracts/PredictionArbExecutorV1.sol\":9239:9325  IFutarchyRouter(futarchy_router).splitPosition(proposal, currency, amount_currency_in) */\n      swap1\n      dup7\n      swap2\n      dup11\n      0x00\n      jump(tag_88)\n        /* \"contracts/PredictionArbExecutorV1.sol\":3052:14355  contract PredictionArbExecutorV1 {... */\n    tag_153:\n      dup10\n      dup1\n      revert\n        /* \"contracts/PredictionArbExecutorV1.sol\":9007:9048  IERC20(currency).balanceOf(address(this)) */\n    tag_79:\n      swap1\n      swap9\n      pop\n        /* \"contracts/PredictionArbExecutorV1.sol\":3052:14355  contract PredictionArbExecutorV1 {... */\n      0x20\n        /* \"contracts/PredictionArbExecutorV1.sol\":9007:9048  IERC20(currency).balanceOf(address(this)) */\n      dup2\n      returndatasize\n        /* \"contracts/PredictionArbExecutorV1.sol\":3052:14355  contract PredictionArbExecutorV1 {... */\n      0x20\n        /* \"contracts/PredictionArbExecutorV1.sol\":9007:9048  IERC20(currency).balanceOf(address(this)) */\n      gt\n      tag_155\n      jumpi\n    tag_156:\n      dup2\n      tag_157\n        /* \"contracts/PredictionArbExecutorV1.sol\":3052:14355  contract PredictionArbExecutorV1 {... */\n      0x20\n        /* \"contracts/PredictionArbExecutorV1.sol\":9007:9048  IERC20(currency).balanceOf(address(this)) */\n      swap4\n      dup4\n      tag_9\n      jump\t// in\n    tag_157:\n      dup2\n      add\n        /* \"contracts/PredictionArbExecutorV1.sol\":3052:14355  contract PredictionArbExecutorV1 {... */\n      sub\n      slt\n      tag_128\n      jumpi\n      mload\n      swap8\n        /* \"contracts/PredictionArbExecutorV1.sol\":9213:9228  futarchy_router */\n      tag_81\n        /* \"contracts/PredictionArbExecutorV1.sol\":9007:9048  IERC20(currency).balanceOf(address(this)) */\n      jump(tag_80)\n    tag_155:\n      returndatasize\n      swap2\n      pop\n      jump(tag_156)\n        /* \"contracts/PredictionArbExecutorV1.sol\":8886:8934  if (amount_currency_in == 0) revert ZeroAmount() */\n    tag_75:\n      shl(0xe0, 0x1f2a2005)\n        /* \"contracts/PredictionArbExecutorV1.sol\":8922:8934  ZeroAmount() */\n      dup11\n      mstore\n        /* \"contracts/PredictionArbExecutorV1.sol\":3052:14355  contract PredictionArbExecutorV1 {... */\n      0x04\n        /* \"contracts/PredictionArbExecutorV1.sol\":11746:11758  ZeroAmount() */\n      dup11\n        /* \"contracts/PredictionArbExecutorV1.sol\":8922:8934  ZeroAmount() */\n      revert\n        /* \"contracts/PredictionArbExecutorV1.sol\":8824:8876  if (swapr_router == address(0)) revert ZeroAddress() */\n    tag_73:\n      shl(0xe0, 0xd92e233d)\n        /* \"contracts/PredictionArbExecutorV1.sol\":8863:8876  ZeroAddress() */\n      dup11\n      mstore\n        /* \"contracts/PredictionArbExecutorV1.sol\":3052:14355  contract PredictionArbExecutorV1 {... */\n      0x04\n        /* \"contracts/PredictionArbExecutorV1.sol\":13790:13803  ZeroAddress() */\n      dup11\n        /* \"contracts/PredictionArbExecutorV1.sol\":8863:8876  ZeroAddress() */\n      revert\n        /* \"contracts/PredictionArbExecutorV1.sol\":8711:8792  currency == address(0) || yes_currency == address(0) || no_currency == address(0) */\n    tag_69:\n      pop\n      sub(shl(0xa0, 0x01), 0x01)\n        /* \"contracts/PredictionArbExecutorV1.sol\":3052:14355  contract PredictionArbExecutorV1 {... */\n      dup5\n      and\n        /* \"contracts/PredictionArbExecutorV1.sol\":8767:8792  no_currency == address(0) */\n      iszero\n        /* \"contracts/PredictionArbExecutorV1.sol\":8711:8792  currency == address(0) || yes_currency == address(0) || no_currency == address(0) */\n      jump(tag_70)\n        /* \"contracts/PredictionArbExecutorV1.sol\":8711:8763  currency == address(0) || yes_currency == address(0) */\n    tag_67:\n      pop\n      sub(shl(0xa0, 0x01), 0x01)\n        /* \"contracts/PredictionArbExecutorV1.sol\":3052:14355  contract PredictionArbExecutorV1 {... */\n      dup6\n      and\n        /* \"contracts/PredictionArbExecutorV1.sol\":8737:8763  yes_currency == address(0) */\n      iszero\n        /* \"contracts/PredictionArbExecutorV1.sol\":8711:8763  currency == address(0) || yes_currency == address(0) */\n      jump(tag_68)\n        /* \"contracts/PredictionArbExecutorV1.sol\":8583:8698  if (futarchy_router == address(0) || proposal == address(0)) {... */\n    tag_65:\n      shl(0xe4, 0x01d72653)\n        /* \"contracts/PredictionArbExecutorV1.sol\":8665:8687  RouterOrProposalZero() */\n      dup10\n      mstore\n        /* \"contracts/PredictionArbExecutorV1.sol\":3052:14355  contract PredictionArbExecutorV1 {... */\n      0x04\n        /* \"contracts/PredictionArbExecutorV1.sol\":11495:11517  RouterOrProposalZero() */\n      dup10\n        /* \"contracts/PredictionArbExecutorV1.sol\":8665:8687  RouterOrProposalZero() */\n      revert\n        /* \"contracts/PredictionArbExecutorV1.sol\":8587:8642  futarchy_router == address(0) || proposal == address(0) */\n    tag_63:\n      pop\n      sub(shl(0xa0, 0x01), 0x01)\n        /* \"contracts/PredictionArbExecutorV1.sol\":3052:14355  contract PredictionArbExecutorV1 {... */\n      dup2\n      and\n        /* \"contracts/PredictionArbExecutorV1.sol\":8620:8642  proposal == address(0) */\n      iszero\n        /* \"contracts/PredictionArbExecutorV1.sol\":8587:8642  futarchy_router == address(0) || proposal == address(0) */\n      jump(tag_64)\n        /* \"contracts/PredictionArbExecutorV1.sol\":3643:3685  if (msg.sender != owner) revert NotOwner() */\n    tag_61:\n      shl(0xe0, 0x30cd7471)\n        /* \"contracts/PredictionArbExecutorV1.sol\":3675:3685  NotOwner() */\n      dup9\n      mstore\n        /* \"contracts/PredictionArbExecutorV1.sol\":3052:14355  contract PredictionArbExecutorV1 {... */\n      0x04\n        /* \"contracts/PredictionArbExecutorV1.sol\":3675:3685  NotOwner() */\n      dup9\n      revert\n        /* \"contracts/PredictionArbExecutorV1.sol\":3052:14355  contract PredictionArbExecutorV1 {... */\n    tag_30:\n      pop\n      jumpi(tag_40, callvalue)\n      jumpi(tag_40, slt(add(not(0x03), calldatasize), 0x40))\n      calldataload(0x04)\n      sub(shl(0xa0, 0x01), 0x01)\n      dup2\n      and\n      swap1\n      dup2\n      swap1\n      sub\n      tag_164\n      jumpi\n      dup2\n      sload\n      sub(shl(0xa0, 0x01), 0x01)\n      and\n        /* \"contracts/PredictionArbExecutorV1.sol\":3647:3657  msg.sender */\n      caller\n        /* \"contracts/PredictionArbExecutorV1.sol\":3647:3666  msg.sender != owner */\n      sub\n        /* \"contracts/PredictionArbExecutorV1.sol\":3643:3685  if (msg.sender != owner) revert NotOwner() */\n      tag_166\n      jumpi\n        /* \"contracts/PredictionArbExecutorV1.sol\":14217:14233  to == address(0) */\n      dup1\n      iszero\n        /* \"contracts/PredictionArbExecutorV1.sol\":14213:14255  if (to == address(0)) revert ZeroAddress() */\n      tag_168\n      jumpi\n        /* \"contracts/PredictionArbExecutorV1.sol\":3052:14355  contract PredictionArbExecutorV1 {... */\n      dup2\n      dup1\n      dup1\n      dup1\n      swap4\n      calldataload(0x24)\n        /* \"contracts/PredictionArbExecutorV1.sol\":14278:14304  to.call{value: amount}(\"\") */\n      swap1\n      gas\n      call\n        /* \"contracts/PredictionArbExecutorV1.sol\":3052:14355  contract PredictionArbExecutorV1 {... */\n      jumpi(tag_170, iszero(returndatasize))\n      returndatasize\n      0xffffffffffffffff\n      dup2\n      gt\n      tag_172\n      jumpi\n      mload(0x40)\n      swap1\n      tag_174\n      0x1f\n      dup3\n      add\n      not(0x1f)\n      and\n      0x20\n      add\n      dup4\n      tag_9\n      jump\t// in\n    tag_174:\n      dup2\n      mstore\n      dup3\n      0x20\n      returndatasize\n      swap3\n      add\n      returndatacopy\n    tag_175:\n        /* \"contracts/PredictionArbExecutorV1.sol\":14318:14321  !ok */\n      iszero\n        /* \"contracts/PredictionArbExecutorV1.sol\":14314:14345  if (!ok) revert EthSendFailed() */\n      tag_176\n      jumpi\n        /* \"contracts/PredictionArbExecutorV1.sol\":3052:14355  contract PredictionArbExecutorV1 {... */\n      dup1\n      return\n        /* \"contracts/PredictionArbExecutorV1.sol\":14314:14345  if (!ok) revert EthSendFailed() */\n    tag_176:\n      shl(0xe2, 0x26092399)\n        /* \"contracts/PredictionArbExecutorV1.sol\":14330:14345  EthSendFailed() */\n      dup2\n      mstore\n        /* \"contracts/PredictionArbExecutorV1.sol\":3052:14355  contract PredictionArbExecutorV1 {... */\n      0x04\n      swap1\n        /* \"contracts/PredictionArbExecutorV1.sol\":14330:14345  EthSendFailed() */\n      revert\n        /* \"contracts/PredictionArbExecutorV1.sol\":3052:14355  contract PredictionArbExecutorV1 {... */\n    tag_172:\n      shl(0xe0, 0x4e487b71)\n      dup4\n      mstore\n      mstore(0x04, 0x41)\n      0x24\n      dup4\n      revert\n    tag_170:\n      jump(tag_175)\n        /* \"contracts/PredictionArbExecutorV1.sol\":14213:14255  if (to == address(0)) revert ZeroAddress() */\n    tag_168:\n      shl(0xe0, 0xd92e233d)\n        /* \"contracts/PredictionArbExecutorV1.sol\":14242:14255  ZeroAddress() */\n      dup3\n      mstore\n        /* \"contracts/PredictionArbExecutorV1.sol\":3052:14355  contract PredictionArbExecutorV1 {... */\n      0x04\n        /* \"contracts/PredictionArbExecutorV1.sol\":13790:13803  ZeroAddress() */\n      dup3\n        /* \"contracts/PredictionArbExecutorV1.sol\":14242:14255  ZeroAddress() */\n      revert\n        /* \"contracts/PredictionArbExecutorV1.sol\":3643:3685  if (msg.sender != owner) revert NotOwner() */\n    tag_166:\n      shl(0xe0, 0x30cd7471)\n        /* \"contracts/PredictionArbExecutorV1.sol\":3675:3685  NotOwner() */\n      dup3\n      mstore\n        /* \"contracts/PredictionArbExecutorV1.sol\":3052:14355  contract PredictionArbExecutorV1 {... */\n      0x04\n        /* \"contracts/PredictionArbExecutorV1.sol\":3675:3685  NotOwner() */\n      dup3\n      revert\n        /* \"contracts/PredictionArbExecutorV1.sol\":3052:14355  contract PredictionArbExecutorV1 {... */\n    tag_164:\n      pop\n      dup1\n      revert\n    tag_28:\n      pop\n      jumpi(tag_128, callvalue)\n      jumpi(tag_128, slt(add(not(0x03), calldatasize), 0x0140))\n      tag_182\n      tag_1\n      jump\t// in\n    tag_182:\n      swap1\n      tag_183\n      tag_2\n      jump\t// in\n    tag_183:\n      swap1\n      tag_184\n      tag_3\n      jump\t// in\n    tag_184:\n      swap2\n      tag_185\n      tag_4\n      jump\t// in\n    tag_185:\n      swap3\n      tag_186\n      tag_5\n      jump\t// in\n    tag_186:\n      swap4\n      tag_187\n      tag_6\n      jump\t// in\n    tag_187:\n      pop\n      tag_188\n      tag_7\n      jump\t// in\n    tag_188:\n      pop\n      calldataload(0xe4)\n      swap3\n      sub(shl(0xa0, 0x01), 0x01)\n      dup5\n      and\n      swap3\n      dup4\n      dup6\n      sub\n      tag_128\n      jumpi\n      sload(0x00)\n      calldataload(0x0124)\n      swap9\n      calldataload(0x0104)\n      swap9\n      swap2\n      sub(shl(0xa0, 0x01), 0x01)\n      and\n        /* \"contracts/PredictionArbExecutorV1.sol\":3647:3657  msg.sender */\n      caller\n        /* \"contracts/PredictionArbExecutorV1.sol\":3647:3666  msg.sender != owner */\n      sub\n        /* \"contracts/PredictionArbExecutorV1.sol\":3643:3685  if (msg.sender != owner) revert NotOwner() */\n      tag_191\n      jumpi\n      sub(shl(0xa0, 0x01), 0x01)\n        /* \"contracts/PredictionArbExecutorV1.sol\":3052:14355  contract PredictionArbExecutorV1 {... */\n      dup2\n      and\n      swap5\n        /* \"contracts/PredictionArbExecutorV1.sol\":11431:11460  futarchy_router == address(0) */\n      dup6\n      iszero\n        /* \"contracts/PredictionArbExecutorV1.sol\":11431:11486  futarchy_router == address(0) || proposal == address(0) */\n      dup1\n      iszero\n      tag_193\n      jumpi\n        /* \"contracts/PredictionArbExecutorV1.sol\":3052:14355  contract PredictionArbExecutorV1 {... */\n    tag_194:\n        /* \"contracts/PredictionArbExecutorV1.sol\":11427:11517  if (futarchy_router == address(0) || proposal == address(0)) revert RouterOrProposalZero() */\n      tag_195\n      jumpi\n      sub(shl(0xa0, 0x01), 0x01)\n        /* \"contracts/PredictionArbExecutorV1.sol\":3052:14355  contract PredictionArbExecutorV1 {... */\n      dup5\n      and\n      swap7\n        /* \"contracts/PredictionArbExecutorV1.sol\":11531:11553  currency == address(0) */\n      dup8\n      iszero\n        /* \"contracts/PredictionArbExecutorV1.sol\":11531:11583  currency == address(0) || yes_currency == address(0) */\n      dup1\n      iszero\n      tag_197\n      jumpi\n        /* \"contracts/PredictionArbExecutorV1.sol\":3052:14355  contract PredictionArbExecutorV1 {... */\n    tag_198:\n        /* \"contracts/PredictionArbExecutorV1.sol\":11531:11612  currency == address(0) || yes_currency == address(0) || no_currency == address(0) */\n      dup1\n      iszero\n      tag_199\n      jumpi\n        /* \"contracts/PredictionArbExecutorV1.sol\":3052:14355  contract PredictionArbExecutorV1 {... */\n    tag_200:\n        /* \"contracts/PredictionArbExecutorV1.sol\":11527:11634  if (currency == address(0) || yes_currency == address(0) || no_currency == address(0)) revert ZeroAddress() */\n      tag_203\n      jumpi\n        /* \"contracts/PredictionArbExecutorV1.sol\":11648:11674  swapr_router == address(0) */\n      iszero\n        /* \"contracts/PredictionArbExecutorV1.sol\":11644:11696  if (swapr_router == address(0)) revert ZeroAddress() */\n      tag_203\n      jumpi\n        /* \"contracts/PredictionArbExecutorV1.sol\":11710:11737  amount_conditional_out == 0 */\n      dup10\n      iszero\n        /* \"contracts/PredictionArbExecutorV1.sol\":11706:11758  if (amount_conditional_out == 0) revert ZeroAmount() */\n      tag_205\n      jumpi\n        /* \"contracts/PredictionArbExecutorV1.sol\":3052:14355  contract PredictionArbExecutorV1 {... */\n      mload(0x40)\n      shl(0xe0, 0x70a08231)\n        /* \"contracts/PredictionArbExecutorV1.sol\":11831:11872  IERC20(currency).balanceOf(address(this)) */\n      dup2\n      mstore\n        /* \"contracts/PredictionArbExecutorV1.sol\":11866:11870  this */\n      address\n        /* \"contracts/PredictionArbExecutorV1.sol\":3052:14355  contract PredictionArbExecutorV1 {... */\n      0x04\n        /* \"contracts/PredictionArbExecutorV1.sol\":11831:11872  IERC20(currency).balanceOf(address(this)) */\n      dup3\n      add\n        /* \"contracts/PredictionArbExecutorV1.sol\":3052:14355  contract PredictionArbExecutorV1 {... */\n      mstore\n      0x20\n      dup2\n      0x24\n      dup2\n        /* \"contracts/PredictionArbExecutorV1.sol\":11831:11872  IERC20(currency).balanceOf(address(this)) */\n      dup12\n      gas\n      staticcall\n      swap9\n      dup10\n      iszero\n      tag_230\n      jumpi\n      dup12\n      swap2\n        /* \"contracts/PredictionArbExecutorV1.sol\":3052:14355  contract PredictionArbExecutorV1 {... */\n      0x00\n        /* \"contracts/PredictionArbExecutorV1.sol\":11831:11872  IERC20(currency).balanceOf(address(this)) */\n      swap11\n      tag_209\n      jumpi\n        /* \"contracts/PredictionArbExecutorV1.sol\":3052:14355  contract PredictionArbExecutorV1 {... */\n    tag_210:\n      pop\n      swap1\n      dup5\n      dup7\n        /* \"contracts/PredictionArbExecutorV1.sol\":12289:12383  _swaprExactOut(swapr_router, currency, no_currency, amount_conditional_out, type(uint256).max) */\n      tag_211\n        /* \"contracts/PredictionArbExecutorV1.sol\":3052:14355  contract PredictionArbExecutorV1 {... */\n      swap4\n      dup12\n        /* \"contracts/PredictionArbExecutorV1.sol\":11887:11931  InitialCollateralSnapshot(currency, initial) */\n      0xb2f03ce105b3cd1f9fccfa1de78c921cd3ad2f01048d3a832c7ebb893fd347b9\n        /* \"contracts/PredictionArbExecutorV1.sol\":3052:14355  contract PredictionArbExecutorV1 {... */\n      0x20\n      dup16\n      mload(0x40)\n      swap1\n      dup2\n      mstore\n        /* \"contracts/PredictionArbExecutorV1.sol\":11887:11931  InitialCollateralSnapshot(currency, initial) */\n      log2\n        /* \"contracts/PredictionArbExecutorV1.sol\":12184:12279  _swaprExactOut(swapr_router, currency, yes_currency, amount_conditional_out, type(uint256).max) */\n      tag_212\n      dup5\n      dup8\n      dup5\n      dup5\n      tag_16\n      jump\t// in\n    tag_212:\n      pop\n        /* \"contracts/PredictionArbExecutorV1.sol\":12289:12383  _swaprExactOut(swapr_router, currency, no_currency, amount_conditional_out, type(uint256).max) */\n      tag_16\n      jump\t// in\n    tag_211:\n      pop\n        /* \"contracts/PredictionArbExecutorV1.sol\":3052:14355  contract PredictionArbExecutorV1 {... */\n      mload(0x40)\n      shl(0xe0, 0x70a08231)\n        /* \"contracts/PredictionArbExecutorV1.sol\":12465:12510  IERC20(yes_currency).balanceOf(address(this)) */\n      dup2\n      mstore\n        /* \"contracts/PredictionArbExecutorV1.sol\":11866:11870  this */\n      address\n        /* \"contracts/PredictionArbExecutorV1.sol\":3052:14355  contract PredictionArbExecutorV1 {... */\n      0x04\n        /* \"contracts/PredictionArbExecutorV1.sol\":12465:12510  IERC20(yes_currency).balanceOf(address(this)) */\n      dup3\n      add\n        /* \"contracts/PredictionArbExecutorV1.sol\":3052:14355  contract PredictionArbExecutorV1 {... */\n      mstore\n      sub(shl(0xa0, 0x01), 0x01)\n      swap2\n      swap1\n      swap2\n      and\n      swap3\n      swap1\n      0x20\n      dup2\n      0x24\n      dup2\n      dup8\n        /* \"contracts/PredictionArbExecutorV1.sol\":12465:12510  IERC20(yes_currency).balanceOf(address(this)) */\n      gas\n      staticcall\n      dup1\n      iszero\n      tag_230\n      jumpi\n      dup12\n      swap2\n        /* \"contracts/PredictionArbExecutorV1.sol\":3052:14355  contract PredictionArbExecutorV1 {... */\n      0x00\n        /* \"contracts/PredictionArbExecutorV1.sol\":12465:12510  IERC20(yes_currency).balanceOf(address(this)) */\n      swap2\n      tag_215\n      jumpi\n        /* \"contracts/PredictionArbExecutorV1.sol\":3052:14355  contract PredictionArbExecutorV1 {... */\n    tag_216:\n        /* \"contracts/PredictionArbExecutorV1.sol\":12465:12535  IERC20(yes_currency).balanceOf(address(this)) < amount_conditional_out */\n      pop\n      lt\n        /* \"contracts/PredictionArbExecutorV1.sol\":12461:12565  if (IERC20(yes_currency).balanceOf(address(this)) < amount_conditional_out) revert InsufficientBalance() */\n      tag_223\n      jumpi\n        /* \"contracts/PredictionArbExecutorV1.sol\":3052:14355  contract PredictionArbExecutorV1 {... */\n      mload(0x40)\n      shl(0xe0, 0x70a08231)\n        /* \"contracts/PredictionArbExecutorV1.sol\":12579:12623  IERC20(no_currency).balanceOf(address(this)) */\n      dup2\n      mstore\n        /* \"contracts/PredictionArbExecutorV1.sol\":11866:11870  this */\n      address\n        /* \"contracts/PredictionArbExecutorV1.sol\":3052:14355  contract PredictionArbExecutorV1 {... */\n      0x04\n        /* \"contracts/PredictionArbExecutorV1.sol\":12579:12623  IERC20(no_currency).balanceOf(address(this)) */\n      dup3\n      add\n        /* \"contracts/PredictionArbExecutorV1.sol\":3052:14355  contract PredictionArbExecutorV1 {... */\n      mstore\n      sub(shl(0xa0, 0x01), 0x01)\n      swap2\n      swap1\n      swap2\n      and\n      swap1\n      0x20\n      dup2\n      0x24\n      dup2\n      dup6\n        /* \"contracts/PredictionArbExecutorV1.sol\":12579:12623  IERC20(no_currency).balanceOf(address(this)) */\n      gas\n      staticcall\n      dup1\n      iszero\n      tag_230\n      jumpi\n      dup12\n      swap2\n        /* \"contracts/PredictionArbExecutorV1.sol\":3052:14355  contract PredictionArbExecutorV1 {... */\n      0x00\n        /* \"contracts/PredictionArbExecutorV1.sol\":12579:12623  IERC20(no_currency).balanceOf(address(this)) */\n      swap2\n      tag_221\n      jumpi\n        /* \"contracts/PredictionArbExecutorV1.sol\":3052:14355  contract PredictionArbExecutorV1 {... */\n    tag_222:\n        /* \"contracts/PredictionArbExecutorV1.sol\":12579:12648  IERC20(no_currency).balanceOf(address(this)) < amount_conditional_out */\n      pop\n      lt\n        /* \"contracts/PredictionArbExecutorV1.sol\":12575:12678  if (IERC20(no_currency).balanceOf(address(this)) < amount_conditional_out) revert InsufficientBalance() */\n      tag_223\n      jumpi\n        /* \"contracts/PredictionArbExecutorV1.sol\":12780:12795  futarchy_router */\n      tag_225\n      dup3\n        /* \"contracts/PredictionArbExecutorV1.sol\":12847:12862  futarchy_router */\n      tag_226\n        /* \"contracts/PredictionArbExecutorV1.sol\":12780:12795  futarchy_router */\n      swap5\n      tag_18\n      jump\t// in\n    tag_225:\n        /* \"contracts/PredictionArbExecutorV1.sol\":12847:12862  futarchy_router */\n      tag_18\n      jump\t// in\n    tag_226:\n        /* \"contracts/PredictionArbExecutorV1.sol\":12873:12964  IFutarchyRouter(futarchy_router).mergePositions(proposal, currency, amount_conditional_out) */\n      dup3\n      extcodesize\n      iszero\n      tag_128\n      jumpi\n        /* \"contracts/PredictionArbExecutorV1.sol\":3052:14355  contract PredictionArbExecutorV1 {... */\n      mload(0x40)\n      shl(0xe0, 0x7abef8d1)\n        /* \"contracts/PredictionArbExecutorV1.sol\":12873:12964  IFutarchyRouter(futarchy_router).mergePositions(proposal, currency, amount_conditional_out) */\n      dup2\n      mstore\n      sub(shl(0xa0, 0x01), 0x01)\n        /* \"contracts/PredictionArbExecutorV1.sol\":3052:14355  contract PredictionArbExecutorV1 {... */\n      dup4\n      dup2\n      and\n      0x04\n        /* \"contracts/PredictionArbExecutorV1.sol\":12873:12964  IFutarchyRouter(futarchy_router).mergePositions(proposal, currency, amount_conditional_out) */\n      dup4\n      add\n        /* \"contracts/PredictionArbExecutorV1.sol\":3052:14355  contract PredictionArbExecutorV1 {... */\n      mstore\n      swap2\n      swap1\n      swap2\n      and\n      0x24\n      dup3\n      add\n      mstore\n      0x44\n      dup2\n      add\n      dup8\n      swap1\n      mstore\n      0x00\n      dup2\n      0x64\n      dup2\n      dup4\n        /* \"contracts/PredictionArbExecutorV1.sol\":12873:12964  IFutarchyRouter(futarchy_router).mergePositions(proposal, currency, amount_conditional_out) */\n      dup8\n      gas\n      call\n      dup1\n      iszero\n      tag_230\n      jumpi\n      tag_232\n      jumpi\n        /* \"contracts/PredictionArbExecutorV1.sol\":3052:14355  contract PredictionArbExecutorV1 {... */\n    tag_233:\n      pop\n      swap2\n      0x24\n      swap5\n      swap6\n      dup2\n      swap3\n        /* \"contracts/PredictionArbExecutorV1.sol\":12979:13067  ConditionalCollateralMerged(futarchy_router, proposal, currency, amount_conditional_out) */\n      0xdc43ce728a1135c1396673372fa69f30fe424cb172093e4198538d75e54f3c2b\n        /* \"contracts/PredictionArbExecutorV1.sol\":3052:14355  contract PredictionArbExecutorV1 {... */\n      0x20\n      dup1\n      swap7\n      mload(0x40)\n      swap5\n      dup6\n      mstore\n      0x01\n      dup1\n      0xa0\n      shl\n      sub\n      and\n        /* \"contracts/PredictionArbExecutorV1.sol\":12979:13067  ConditionalCollateralMerged(futarchy_router, proposal, currency, amount_conditional_out) */\n      swap4\n      log4\n        /* \"contracts/PredictionArbExecutorV1.sol\":3052:14355  contract PredictionArbExecutorV1 {... */\n      mload(0x40)\n      shl(0xe0, 0x70a08231)\n        /* \"contracts/PredictionArbExecutorV1.sol\":13154:13195  IERC20(currency).balanceOf(address(this)) */\n      dup2\n      mstore\n        /* \"contracts/PredictionArbExecutorV1.sol\":11866:11870  this */\n      address\n        /* \"contracts/PredictionArbExecutorV1.sol\":3052:14355  contract PredictionArbExecutorV1 {... */\n      0x04\n        /* \"contracts/PredictionArbExecutorV1.sol\":13154:13195  IERC20(currency).balanceOf(address(this)) */\n      dup3\n      add\n        /* \"contracts/PredictionArbExecutorV1.sol\":3052:14355  contract PredictionArbExecutorV1 {... */\n      mstore\n      swap4\n      dup5\n      swap2\n      dup3\n      swap1\n        /* \"contracts/PredictionArbExecutorV1.sol\":13154:13195  IERC20(currency).balanceOf(address(this)) */\n      gas\n      staticcall\n      swap2\n      dup3\n      iszero\n      tag_113\n      jumpi\n      dup4\n      swap3\n      tag_115\n      jumpi\n      pop\n      sub(shl(0xff, 0x01), 0x01)\n        /* \"contracts/PredictionArbExecutorV1.sol\":13209:13245  finalBal > uint256(type(int256).max) */\n      dup3\n      gt\n        /* \"contracts/PredictionArbExecutorV1.sol\":13209:13284  finalBal > uint256(type(int256).max) || initial > uint256(type(int256).max) */\n      dup1\n      iszero\n      tag_117\n      jumpi\n        /* \"contracts/PredictionArbExecutorV1.sol\":13205:13310  if (finalBal > uint256(type(int256).max) || initial > uint256(type(int256).max)) revert BalanceTooLarge() */\n      tag_119\n      jumpi\n        /* \"contracts/PredictionArbExecutorV1.sol\":13400:13434  int256(finalBal) - int256(initial) */\n      dup4\n      tag_121\n      dup3\n      dup5\n      tag_13\n      jump\t// in\n        /* \"contracts/PredictionArbExecutorV1.sol\":12873:12964  IFutarchyRouter(futarchy_router).mergePositions(proposal, currency, amount_conditional_out) */\n    tag_232:\n        /* \"contracts/PredictionArbExecutorV1.sol\":3052:14355  contract PredictionArbExecutorV1 {... */\n      0x24\n        /* \"contracts/PredictionArbExecutorV1.sol\":12873:12964  IFutarchyRouter(futarchy_router).mergePositions(proposal, currency, amount_conditional_out) */\n      swap6\n      pop\n      swap6\n      dup4\n      swap3\n      tag_251\n        /* \"contracts/PredictionArbExecutorV1.sol\":3052:14355  contract PredictionArbExecutorV1 {... */\n      0x00\n      0x20\n        /* \"contracts/PredictionArbExecutorV1.sol\":12873:12964  IFutarchyRouter(futarchy_router).mergePositions(proposal, currency, amount_conditional_out) */\n      swap7\n      swap5\n      swap10\n      tag_9\n      jump\t// in\n    tag_251:\n      swap1\n      swap7\n        /* \"contracts/PredictionArbExecutorV1.sol\":3052:14355  contract PredictionArbExecutorV1 {... */\n      0x00\n      swap7\n      pop\n        /* \"contracts/PredictionArbExecutorV1.sol\":12873:12964  IFutarchyRouter(futarchy_router).mergePositions(proposal, currency, amount_conditional_out) */\n      swap2\n      swap4\n      swap1\n      swap3\n      pop\n      jump(tag_233)\n    tag_230:\n        /* \"contracts/PredictionArbExecutorV1.sol\":3052:14355  contract PredictionArbExecutorV1 {... */\n      mload(0x40)\n      returndatasize\n      0x00\n      dup3\n      returndatacopy\n      returndatasize\n      swap1\n      revert\n        /* \"contracts/PredictionArbExecutorV1.sol\":12575:12678  if (IERC20(no_currency).balanceOf(address(this)) < amount_conditional_out) revert InsufficientBalance() */\n    tag_223:\n        /* \"contracts/PredictionArbExecutorV1.sol\":12544:12565  InsufficientBalance() */\n      shl(0xe3, 0x1e9acf17)\n        /* \"contracts/PredictionArbExecutorV1.sol\":3052:14355  contract PredictionArbExecutorV1 {... */\n      0x00\n        /* \"contracts/PredictionArbExecutorV1.sol\":12657:12678  InsufficientBalance() */\n      mstore\n        /* \"contracts/PredictionArbExecutorV1.sol\":3052:14355  contract PredictionArbExecutorV1 {... */\n      0x04\n      0x00\n        /* \"contracts/PredictionArbExecutorV1.sol\":12657:12678  InsufficientBalance() */\n      revert\n        /* \"contracts/PredictionArbExecutorV1.sol\":12579:12623  IERC20(no_currency).balanceOf(address(this)) */\n    tag_221:\n      swap2\n      pop\n      pop\n        /* \"contracts/PredictionArbExecutorV1.sol\":3052:14355  contract PredictionArbExecutorV1 {... */\n      0x20\n        /* \"contracts/PredictionArbExecutorV1.sol\":12579:12623  IERC20(no_currency).balanceOf(address(this)) */\n      dup2\n      returndatasize\n        /* \"contracts/PredictionArbExecutorV1.sol\":3052:14355  contract PredictionArbExecutorV1 {... */\n      0x20\n        /* \"contracts/PredictionArbExecutorV1.sol\":12579:12623  IERC20(no_currency).balanceOf(address(this)) */\n      gt\n      tag_252\n      jumpi\n    tag_253:\n      dup2\n      tag_254\n        /* \"contracts/PredictionArbExecutorV1.sol\":3052:14355  contract PredictionArbExecutorV1 {... */\n      0x20\n        /* \"contracts/PredictionArbExecutorV1.sol\":12579:12623  IERC20(no_currency).balanceOf(address(this)) */\n      swap4\n      dup4\n      tag_9\n      jump\t// in\n    tag_254:\n      dup2\n      add\n        /* \"contracts/PredictionArbExecutorV1.sol\":3052:14355  contract PredictionArbExecutorV1 {... */\n      sub\n      slt\n      tag_128\n      jumpi\n      dup11\n      swap1\n      mload\n        /* \"contracts/PredictionArbExecutorV1.sol\":12579:12623  IERC20(no_currency).balanceOf(address(this)) */\n      0x00\n      jump(tag_222)\n    tag_252:\n      returndatasize\n      swap2\n      pop\n      jump(tag_253)\n        /* \"contracts/PredictionArbExecutorV1.sol\":12465:12510  IERC20(yes_currency).balanceOf(address(this)) */\n    tag_215:\n      swap2\n      pop\n      pop\n        /* \"contracts/PredictionArbExecutorV1.sol\":3052:14355  contract PredictionArbExecutorV1 {... */\n      0x20\n        /* \"contracts/PredictionArbExecutorV1.sol\":12465:12510  IERC20(yes_currency).balanceOf(address(this)) */\n      dup2\n      returndatasize\n        /* \"contracts/PredictionArbExecutorV1.sol\":3052:14355  contract PredictionArbExecutorV1 {... */\n      0x20\n        /* \"contracts/PredictionArbExecutorV1.sol\":12465:12510  IERC20(yes_currency).balanceOf(address(this)) */\n      gt\n      tag_257\n      jumpi\n    tag_258:\n      dup2\n      tag_259\n        /* \"contracts/PredictionArbExecutorV1.sol\":3052:14355  contract PredictionArbExecutorV1 {... */\n      0x20\n        /* \"contracts/PredictionArbExecutorV1.sol\":12465:12510  IERC20(yes_currency).balanceOf(address(this)) */\n      swap4\n      dup4\n      tag_9\n      jump\t// in\n    tag_259:\n      dup2\n      add\n        /* \"contracts/PredictionArbExecutorV1.sol\":3052:14355  contract PredictionArbExecutorV1 {... */\n      sub\n      slt\n      tag_128\n      jumpi\n      dup11\n      swap1\n      mload\n        /* \"contracts/PredictionArbExecutorV1.sol\":12465:12510  IERC20(yes_currency).balanceOf(address(this)) */\n      0x00\n      jump(tag_216)\n    tag_257:\n      returndatasize\n      swap2\n      pop\n      jump(tag_258)\n        /* \"contracts/PredictionArbExecutorV1.sol\":11831:11872  IERC20(currency).balanceOf(address(this)) */\n    tag_209:\n      swap10\n      pop\n      swap1\n      pop\n        /* \"contracts/PredictionArbExecutorV1.sol\":3052:14355  contract PredictionArbExecutorV1 {... */\n      0x20\n        /* \"contracts/PredictionArbExecutorV1.sol\":11831:11872  IERC20(currency).balanceOf(address(this)) */\n      dup10\n      returndatasize\n        /* \"contracts/PredictionArbExecutorV1.sol\":3052:14355  contract PredictionArbExecutorV1 {... */\n      0x20\n        /* \"contracts/PredictionArbExecutorV1.sol\":11831:11872  IERC20(currency).balanceOf(address(this)) */\n      gt\n      tag_262\n      jumpi\n    tag_263:\n      dup2\n      tag_264\n        /* \"contracts/PredictionArbExecutorV1.sol\":3052:14355  contract PredictionArbExecutorV1 {... */\n      0x20\n        /* \"contracts/PredictionArbExecutorV1.sol\":11831:11872  IERC20(currency).balanceOf(address(this)) */\n      swap4\n      dup4\n      tag_9\n      jump\t// in\n    tag_264:\n      dup2\n      add\n        /* \"contracts/PredictionArbExecutorV1.sol\":3052:14355  contract PredictionArbExecutorV1 {... */\n      sub\n      slt\n      tag_128\n      jumpi\n      swap8\n      mload\n      swap8\n      dup11\n      swap1\n      dup5\n        /* \"contracts/PredictionArbExecutorV1.sol\":11831:11872  IERC20(currency).balanceOf(address(this)) */\n      jump(tag_210)\n    tag_262:\n      returndatasize\n      swap2\n      pop\n      jump(tag_263)\n        /* \"contracts/PredictionArbExecutorV1.sol\":11706:11758  if (amount_conditional_out == 0) revert ZeroAmount() */\n    tag_205:\n        /* \"contracts/PredictionArbExecutorV1.sol\":11746:11758  ZeroAmount() */\n      shl(0xe0, 0x1f2a2005)\n        /* \"contracts/PredictionArbExecutorV1.sol\":3052:14355  contract PredictionArbExecutorV1 {... */\n      0x00\n        /* \"contracts/PredictionArbExecutorV1.sol\":11746:11758  ZeroAmount() */\n      mstore\n        /* \"contracts/PredictionArbExecutorV1.sol\":3052:14355  contract PredictionArbExecutorV1 {... */\n      0x04\n      0x00\n        /* \"contracts/PredictionArbExecutorV1.sol\":11746:11758  ZeroAmount() */\n      revert\n        /* \"contracts/PredictionArbExecutorV1.sol\":11644:11696  if (swapr_router == address(0)) revert ZeroAddress() */\n    tag_203:\n        /* \"contracts/PredictionArbExecutorV1.sol\":13790:13803  ZeroAddress() */\n      shl(0xe0, 0xd92e233d)\n        /* \"contracts/PredictionArbExecutorV1.sol\":3052:14355  contract PredictionArbExecutorV1 {... */\n      0x00\n        /* \"contracts/PredictionArbExecutorV1.sol\":11683:11696  ZeroAddress() */\n      mstore\n        /* \"contracts/PredictionArbExecutorV1.sol\":3052:14355  contract PredictionArbExecutorV1 {... */\n      0x04\n      0x00\n        /* \"contracts/PredictionArbExecutorV1.sol\":11683:11696  ZeroAddress() */\n      revert\n        /* \"contracts/PredictionArbExecutorV1.sol\":11531:11612  currency == address(0) || yes_currency == address(0) || no_currency == address(0) */\n    tag_199:\n      pop\n      sub(shl(0xa0, 0x01), 0x01)\n        /* \"contracts/PredictionArbExecutorV1.sol\":3052:14355  contract PredictionArbExecutorV1 {... */\n      dup5\n      and\n        /* \"contracts/PredictionArbExecutorV1.sol\":11587:11612  no_currency == address(0) */\n      iszero\n        /* \"contracts/PredictionArbExecutorV1.sol\":11531:11612  currency == address(0) || yes_currency == address(0) || no_currency == address(0) */\n      jump(tag_200)\n        /* \"contracts/PredictionArbExecutorV1.sol\":11531:11583  currency == address(0) || yes_currency == address(0) */\n    tag_197:\n      pop\n      sub(shl(0xa0, 0x01), 0x01)\n        /* \"contracts/PredictionArbExecutorV1.sol\":3052:14355  contract PredictionArbExecutorV1 {... */\n      dup3\n      and\n        /* \"contracts/PredictionArbExecutorV1.sol\":11557:11583  yes_currency == address(0) */\n      iszero\n        /* \"contracts/PredictionArbExecutorV1.sol\":11531:11583  currency == address(0) || yes_currency == address(0) */\n      jump(tag_198)\n        /* \"contracts/PredictionArbExecutorV1.sol\":11427:11517  if (futarchy_router == address(0) || proposal == address(0)) revert RouterOrProposalZero() */\n    tag_195:\n        /* \"contracts/PredictionArbExecutorV1.sol\":11495:11517  RouterOrProposalZero() */\n      shl(0xe4, 0x01d72653)\n        /* \"contracts/PredictionArbExecutorV1.sol\":3052:14355  contract PredictionArbExecutorV1 {... */\n      0x00\n        /* \"contracts/PredictionArbExecutorV1.sol\":11495:11517  RouterOrProposalZero() */\n      mstore\n        /* \"contracts/PredictionArbExecutorV1.sol\":3052:14355  contract PredictionArbExecutorV1 {... */\n      0x04\n      0x00\n        /* \"contracts/PredictionArbExecutorV1.sol\":11495:11517  RouterOrProposalZero() */\n      revert\n        /* \"contracts/PredictionArbExecutorV1.sol\":11431:11486  futarchy_router == address(0) || proposal == address(0) */\n    tag_193:\n      pop\n      sub(shl(0xa0, 0x01), 0x01)\n        /* \"contracts/PredictionArbExecutorV1.sol\":3052:14355  contract PredictionArbExecutorV1 {... */\n      dup6\n      and\n        /* \"contracts/PredictionArbExecutorV1.sol\":11464:11486  proposal == address(0) */\n      iszero\n        /* \"contracts/PredictionArbExecutorV1.sol\":11431:11486  futarchy_router == address(0) || proposal == address(0) */\n      jump(tag_194)\n        /* \"contracts/PredictionArbExecutorV1.sol\":3643:3685  if (msg.sender != owner) revert NotOwner() */\n    tag_191:\n        /* \"contracts/PredictionArbExecutorV1.sol\":3675:3685  NotOwner() */\n      shl(0xe0, 0x30cd7471)\n        /* \"contracts/PredictionArbExecutorV1.sol\":3052:14355  contract PredictionArbExecutorV1 {... */\n      0x00\n        /* \"contracts/PredictionArbExecutorV1.sol\":3675:3685  NotOwner() */\n      mstore\n        /* \"contracts/PredictionArbExecutorV1.sol\":3052:14355  contract PredictionArbExecutorV1 {... */\n      0x04\n      0x00\n        /* \"contracts/PredictionArbExecutorV1.sol\":3675:3685  NotOwner() */\n      revert\n        /* \"contracts/PredictionArbExecutorV1.sol\":3052:14355  contract PredictionArbExecutorV1 {... */\n    tag_26:\n      jumpi(tag_128, callvalue)\n      jumpi(tag_128, slt(add(not(0x03), calldatasize), 0x40))\n      tag_271\n      tag_1\n      jump\t// in\n    tag_271:\n      tag_272\n      tag_2\n      jump\t// in\n    tag_272:\n      sload(0x00)\n      swap1\n      swap2\n      swap1\n      sub(shl(0xa0, 0x01), 0x01)\n      and\n        /* \"contracts/PredictionArbExecutorV1.sol\":3647:3657  msg.sender */\n      caller\n        /* \"contracts/PredictionArbExecutorV1.sol\":3647:3666  msg.sender != owner */\n      sub\n        /* \"contracts/PredictionArbExecutorV1.sol\":3643:3685  if (msg.sender != owner) revert NotOwner() */\n      tag_191\n      jumpi\n      sub(shl(0xa0, 0x01), 0x01)\n        /* \"contracts/PredictionArbExecutorV1.sol\":3052:14355  contract PredictionArbExecutorV1 {... */\n      dup3\n      and\n        /* \"contracts/PredictionArbExecutorV1.sol\":13960:13976  to == address(0) */\n      iszero\n        /* \"contracts/PredictionArbExecutorV1.sol\":13956:13998  if (to == address(0)) revert ZeroAddress() */\n      tag_203\n      jumpi\n        /* \"contracts/PredictionArbExecutorV1.sol\":3052:14355  contract PredictionArbExecutorV1 {... */\n      mload(0x40)\n      shl(0xe0, 0x70a08231)\n        /* \"contracts/PredictionArbExecutorV1.sol\":14022:14052  token.balanceOf(address(this)) */\n      dup2\n      mstore\n        /* \"contracts/PredictionArbExecutorV1.sol\":14046:14050  this */\n      address\n        /* \"contracts/PredictionArbExecutorV1.sol\":3052:14355  contract PredictionArbExecutorV1 {... */\n      0x04\n        /* \"contracts/PredictionArbExecutorV1.sol\":14022:14052  token.balanceOf(address(this)) */\n      dup3\n      add\n        /* \"contracts/PredictionArbExecutorV1.sol\":3052:14355  contract PredictionArbExecutorV1 {... */\n      mstore\n      sub(shl(0xa0, 0x01), 0x01)\n      swap2\n      swap1\n      swap2\n      and\n      swap2\n      0x20\n      dup3\n      0x24\n      dup2\n      dup7\n        /* \"contracts/PredictionArbExecutorV1.sol\":14022:14052  token.balanceOf(address(this)) */\n      gas\n      staticcall\n      swap2\n      dup3\n      iszero\n      tag_230\n      jumpi\n        /* \"contracts/PredictionArbExecutorV1.sol\":3052:14355  contract PredictionArbExecutorV1 {... */\n      0x00\n        /* \"contracts/PredictionArbExecutorV1.sol\":14022:14052  token.balanceOf(address(this)) */\n      swap3\n      tag_279\n      jumpi\n        /* \"contracts/PredictionArbExecutorV1.sol\":3052:14355  contract PredictionArbExecutorV1 {... */\n    tag_280:\n      pop\n      mload(0x40)\n      shl(0xe0, 0xa9059cbb)\n        /* \"contracts/PredictionArbExecutorV1.sol\":14067:14090  token.transfer(to, bal) */\n      dup2\n      mstore\n      sub(shl(0xa0, 0x01), 0x01)\n        /* \"contracts/PredictionArbExecutorV1.sol\":3052:14355  contract PredictionArbExecutorV1 {... */\n      swap1\n      swap2\n      and\n      0x04\n        /* \"contracts/PredictionArbExecutorV1.sol\":14067:14090  token.transfer(to, bal) */\n      dup3\n      add\n        /* \"contracts/PredictionArbExecutorV1.sol\":3052:14355  contract PredictionArbExecutorV1 {... */\n      mstore\n      0x24\n      dup2\n      add\n      swap2\n      swap1\n      swap2\n      mstore\n      swap1\n      0x20\n      swap1\n      dup3\n      swap1\n      dup2\n      0x00\n      dup2\n      0x44\n      dup2\n      add\n        /* \"contracts/PredictionArbExecutorV1.sol\":14067:14090  token.transfer(to, bal) */\n    tag_281:\n      sub\n      swap3\n      gas\n      call\n      swap1\n      dup2\n      iszero\n      tag_230\n      jumpi\n        /* \"contracts/PredictionArbExecutorV1.sol\":3052:14355  contract PredictionArbExecutorV1 {... */\n      0x00\n        /* \"contracts/PredictionArbExecutorV1.sol\":14067:14090  token.transfer(to, bal) */\n      swap2\n      tag_284\n      jumpi\n        /* \"contracts/PredictionArbExecutorV1.sol\":3052:14355  contract PredictionArbExecutorV1 {... */\n    tag_285:\n        /* \"contracts/PredictionArbExecutorV1.sol\":14066:14090  !token.transfer(to, bal) */\n      pop\n      iszero\n        /* \"contracts/PredictionArbExecutorV1.sol\":14062:14114  if (!token.transfer(to, bal)) revert EthSendFailed() */\n      tag_286\n      jumpi\n        /* \"contracts/PredictionArbExecutorV1.sol\":3052:14355  contract PredictionArbExecutorV1 {... */\n      stop\n        /* \"contracts/PredictionArbExecutorV1.sol\":14062:14114  if (!token.transfer(to, bal)) revert EthSendFailed() */\n    tag_286:\n        /* \"contracts/PredictionArbExecutorV1.sol\":13853:13868  EthSendFailed() */\n      shl(0xe2, 0x26092399)\n        /* \"contracts/PredictionArbExecutorV1.sol\":3052:14355  contract PredictionArbExecutorV1 {... */\n      0x00\n        /* \"contracts/PredictionArbExecutorV1.sol\":14099:14114  EthSendFailed() */\n      mstore\n        /* \"contracts/PredictionArbExecutorV1.sol\":3052:14355  contract PredictionArbExecutorV1 {... */\n      0x04\n      0x00\n        /* \"contracts/PredictionArbExecutorV1.sol\":14099:14114  EthSendFailed() */\n      revert\n        /* \"contracts/PredictionArbExecutorV1.sol\":14067:14090  token.transfer(to, bal) */\n    tag_284:\n      tag_288\n      swap2\n      pop\n        /* \"contracts/PredictionArbExecutorV1.sol\":3052:14355  contract PredictionArbExecutorV1 {... */\n      0x20\n        /* \"contracts/PredictionArbExecutorV1.sol\":14067:14090  token.transfer(to, bal) */\n      returndatasize\n        /* \"contracts/PredictionArbExecutorV1.sol\":3052:14355  contract PredictionArbExecutorV1 {... */\n      0x20\n        /* \"contracts/PredictionArbExecutorV1.sol\":14067:14090  token.transfer(to, bal) */\n      gt\n      tag_289\n      jumpi\n    tag_290:\n      tag_291\n      dup2\n      dup4\n      tag_9\n      jump\t// in\n    tag_291:\n      dup2\n      add\n      swap1\n      tag_10\n      jump\t// in\n    tag_288:\n      dup2\n      jump(tag_285)\n    tag_289:\n      pop\n      returndatasize\n      jump(tag_290)\n        /* \"contracts/PredictionArbExecutorV1.sol\":14022:14052  token.balanceOf(address(this)) */\n    tag_279:\n      swap2\n      pop\n        /* \"contracts/PredictionArbExecutorV1.sol\":3052:14355  contract PredictionArbExecutorV1 {... */\n      0x20\n        /* \"contracts/PredictionArbExecutorV1.sol\":14022:14052  token.balanceOf(address(this)) */\n      dup3\n      returndatasize\n        /* \"contracts/PredictionArbExecutorV1.sol\":3052:14355  contract PredictionArbExecutorV1 {... */\n      0x20\n        /* \"contracts/PredictionArbExecutorV1.sol\":14022:14052  token.balanceOf(address(this)) */\n      gt\n      tag_292\n      jumpi\n    tag_293:\n      dup2\n      tag_294\n        /* \"contracts/PredictionArbExecutorV1.sol\":3052:14355  contract PredictionArbExecutorV1 {... */\n      0x20\n        /* \"contracts/PredictionArbExecutorV1.sol\":14022:14052  token.balanceOf(address(this)) */\n      swap4\n      dup4\n      tag_9\n      jump\t// in\n    tag_294:\n      dup2\n      add\n        /* \"contracts/PredictionArbExecutorV1.sol\":3052:14355  contract PredictionArbExecutorV1 {... */\n      sub\n      slt\n      tag_128\n      jumpi\n      swap1\n      mload\n      swap1\n        /* \"contracts/PredictionArbExecutorV1.sol\":14067:14090  token.transfer(to, bal) */\n      tag_281\n        /* \"contracts/PredictionArbExecutorV1.sol\":14022:14052  token.balanceOf(address(this)) */\n      jump(tag_280)\n    tag_292:\n      returndatasize\n      swap2\n      pop\n      jump(tag_293)\n        /* \"contracts/PredictionArbExecutorV1.sol\":3052:14355  contract PredictionArbExecutorV1 {... */\n    tag_24:\n      jumpi(tag_128, callvalue)\n      jumpi(tag_128, slt(add(not(0x03), calldatasize), 0x60))\n      tag_301\n      tag_1\n      jump\t// in\n    tag_301:\n      tag_302\n      tag_2\n      jump\t// in\n    tag_302:\n      and(sub(shl(0xa0, 0x01), 0x01), sload(0x00))\n        /* \"contracts/PredictionArbExecutorV1.sol\":3647:3657  msg.sender */\n      caller\n        /* \"contracts/PredictionArbExecutorV1.sol\":3647:3666  msg.sender != owner */\n      sub\n        /* \"contracts/PredictionArbExecutorV1.sol\":3643:3685  if (msg.sender != owner) revert NotOwner() */\n      tag_191\n      jumpi\n      sub(shl(0xa0, 0x01), 0x01)\n        /* \"contracts/PredictionArbExecutorV1.sol\":3052:14355  contract PredictionArbExecutorV1 {... */\n      dup2\n      and\n        /* \"contracts/PredictionArbExecutorV1.sol\":13765:13781  to == address(0) */\n      iszero\n        /* \"contracts/PredictionArbExecutorV1.sol\":13761:13803  if (to == address(0)) revert ZeroAddress() */\n      tag_203\n      jumpi\n      shl(0xe0, 0xa9059cbb)\n        /* \"contracts/PredictionArbExecutorV1.sol\":13818:13844  token.transfer(to, amount) */\n      dup4\n      mstore\n      sub(shl(0xa0, 0x01), 0x01)\n        /* \"contracts/PredictionArbExecutorV1.sol\":3052:14355  contract PredictionArbExecutorV1 {... */\n      swap1\n      dup2\n      and\n      0x04\n        /* \"contracts/PredictionArbExecutorV1.sol\":13818:13844  token.transfer(to, amount) */\n      dup5\n      add\n        /* \"contracts/PredictionArbExecutorV1.sol\":3052:14355  contract PredictionArbExecutorV1 {... */\n      mstore\n      0x44\n      dup1\n      calldataload\n      0x24\n      dup6\n      add\n      mstore\n      0x20\n      swap3\n        /* \"contracts/PredictionArbExecutorV1.sol\":13818:13844  token.transfer(to, amount) */\n      dup5\n      swap3\n      dup4\n      swap2\n      0x00\n      swap2\n        /* \"contracts/PredictionArbExecutorV1.sol\":3052:14355  contract PredictionArbExecutorV1 {... */\n      and\n        /* \"contracts/PredictionArbExecutorV1.sol\":13818:13844  token.transfer(to, amount) */\n      gas\n      call\n      swap1\n      dup2\n      iszero\n      tag_230\n      jumpi\n        /* \"contracts/PredictionArbExecutorV1.sol\":3052:14355  contract PredictionArbExecutorV1 {... */\n      0x00\n        /* \"contracts/PredictionArbExecutorV1.sol\":13818:13844  token.transfer(to, amount) */\n      swap2\n      tag_284\n      jumpi\n        /* \"contracts/PredictionArbExecutorV1.sol\":13817:13844  !token.transfer(to, amount) */\n      pop\n      iszero\n        /* \"contracts/PredictionArbExecutorV1.sol\":13813:13868  if (!token.transfer(to, amount)) revert EthSendFailed() */\n      tag_286\n      jumpi\n        /* \"contracts/PredictionArbExecutorV1.sol\":3052:14355  contract PredictionArbExecutorV1 {... */\n      stop\n    tag_1:\n      calldataload(0x04)\n      swap1\n      sub(shl(0xa0, 0x01), 0x01)\n      dup3\n      and\n      dup3\n      sub\n      tag_128\n      jumpi\n      jump\t// out\n    tag_2:\n      calldataload(0x24)\n      swap1\n      sub(shl(0xa0, 0x01), 0x01)\n      dup3\n      and\n      dup3\n      sub\n      tag_128\n      jumpi\n      jump\t// out\n    tag_3:\n      calldataload(0x44)\n      swap1\n      sub(shl(0xa0, 0x01), 0x01)\n      dup3\n      and\n      dup3\n      sub\n      tag_128\n      jumpi\n      jump\t// out\n    tag_4:\n      calldataload(0x64)\n      swap1\n      sub(shl(0xa0, 0x01), 0x01)\n      dup3\n      and\n      dup3\n      sub\n      tag_128\n      jumpi\n      jump\t// out\n    tag_5:\n      calldataload(0x84)\n      swap1\n      sub(shl(0xa0, 0x01), 0x01)\n      dup3\n      and\n      dup3\n      sub\n      tag_128\n      jumpi\n      jump\t// out\n    tag_6:\n      calldataload(0xa4)\n      swap1\n      sub(shl(0xa0, 0x01), 0x01)\n      dup3\n      and\n      dup3\n      sub\n      tag_128\n      jumpi\n      jump\t// out\n    tag_7:\n      calldataload(0xc4)\n      swap1\n      sub(shl(0xa0, 0x01), 0x01)\n      dup3\n      and\n      dup3\n      sub\n      tag_128\n      jumpi\n      jump\t// out\n    tag_8:\n      0xe0\n      dup2\n      add\n      swap1\n      dup2\n      lt\n      0xffffffffffffffff\n      dup3\n      gt\n      or\n      tag_332\n      jumpi\n      0x40\n      mstore\n      jump\t// out\n    tag_332:\n      mstore(0x00, shl(0xe0, 0x4e487b71))\n      mstore(0x04, 0x41)\n      revert(0x00, 0x24)\n    tag_9:\n      swap1\n      0x1f\n      dup1\n      not\n      swap2\n      add\n      and\n      dup2\n      add\n      swap1\n      dup2\n      lt\n      0xffffffffffffffff\n      dup3\n      gt\n      or\n      tag_332\n      jumpi\n      0x40\n      mstore\n      jump\t// out\n    tag_10:\n      swap1\n      dup2\n      0x20\n      swap2\n      sub\n      slt\n      tag_128\n      jumpi\n      mload\n      dup1\n      iszero\n      iszero\n      dup2\n      sub\n      tag_128\n      jumpi\n      swap1\n      jump\t// out\n    tag_13:\n      dup2\n      dup2\n      sub\n      swap3\n      swap2\n      0x00\n      sgt\n      dup1\n      iszero\n      dup3\n      dup6\n      sgt\n      and\n      swap2\n      dup5\n      slt\n      and\n      or\n      tag_340\n      jumpi\n      jump\t// out\n    tag_340:\n      mstore(0x00, shl(0xe0, 0x4e487b71))\n      mstore(0x04, 0x11)\n      revert(0x00, 0x24)\n    tag_15:\n      dup1\n      mload\n      sub(shl(0xa0, 0x01), 0x01)\n      swap1\n      dup2\n      and\n      dup4\n      mstore\n      0x20\n      dup1\n      dup4\n      add\n      mload\n      dup3\n      and\n      swap1\n      dup5\n      add\n      mstore\n      0x40\n      dup1\n      dup4\n      add\n      mload\n      dup3\n      and\n      swap1\n      dup5\n      add\n      mstore\n      0x60\n      dup1\n      dup4\n      add\n      mload\n      swap1\n      dup5\n      add\n      mstore\n      0x80\n      dup1\n      dup4\n      add\n      mload\n      swap1\n      dup5\n      add\n      mstore\n      0xa0\n      dup1\n      dup4\n      add\n      mload\n      swap1\n      dup5\n      add\n      mstore\n      0xc0\n      swap2\n      dup3\n      add\n      mload\n      and\n      swap2\n      add\n      mstore\n      jump\t// out\n        /* \"contracts/PredictionArbExecutorV1.sol\":6462:7410  function _swaprExactOut(address swapr_router, address tokenIn, address tokenOut, uint256 amountOut, uint256 maxIn)... */\n    tag_16:\n      swap2\n      swap4\n      swap3\n      swap2\n      swap1\n      sub(shl(0xa0, 0x01), 0x01)\n        /* \"contracts/PredictionArbExecutorV1.sol\":3052:14355  contract PredictionArbExecutorV1 {... */\n      dup3\n      and\n      swap1\n        /* \"contracts/PredictionArbExecutorV1.sol\":6647:6673  swapr_router == address(0) */\n      dup2\n      iszero\n        /* \"contracts/PredictionArbExecutorV1.sol\":6643:6695  if (swapr_router == address(0)) revert ZeroAddress() */\n      tag_203\n      jumpi\n      sub(shl(0xa0, 0x01), 0x01)\n        /* \"contracts/PredictionArbExecutorV1.sol\":3052:14355  contract PredictionArbExecutorV1 {... */\n      and\n      swap2\n        /* \"contracts/PredictionArbExecutorV1.sol\":6709:6730  tokenIn == address(0) */\n      dup3\n      iszero\n        /* \"contracts/PredictionArbExecutorV1.sol\":6709:6756  tokenIn == address(0) || tokenOut == address(0) */\n      dup1\n      iszero\n      tag_344\n      jumpi\n        /* \"contracts/PredictionArbExecutorV1.sol\":6462:7410  function _swaprExactOut(address swapr_router, address tokenIn, address tokenOut, uint256 amountOut, uint256 maxIn)... */\n    tag_345:\n        /* \"contracts/PredictionArbExecutorV1.sol\":6705:6783  if (tokenIn == address(0) || tokenOut == address(0)) revert TokenAddressZero() */\n      tag_346\n      jumpi\n        /* \"contracts/PredictionArbExecutorV1.sol\":6797:6811  amountOut == 0 */\n      dup4\n      iszero\n        /* \"contracts/PredictionArbExecutorV1.sol\":6793:6821  if (amountOut == 0) return 0 */\n      tag_348\n      jumpi\n        /* \"contracts/PredictionArbExecutorV1.sol\":6868:6880  swapr_router */\n      tag_350\n      swap1\n      dup4\n      tag_18\n      jump\t// in\n    tag_350:\n        /* \"contracts/PredictionArbExecutorV1.sol\":3052:14355  contract PredictionArbExecutorV1 {... */\n      mload(0x40)\n      swap5\n      tag_351\n      dup7\n      tag_8\n      jump\t// in\n    tag_351:\n      dup3\n      dup7\n      mstore\n      0x01\n      dup1\n      0xa0\n      shl\n      sub\n      and\n        /* \"contracts/PredictionArbExecutorV1.sol\":6945:7239  IAlgebraSwapRouter.ExactOutputSingleParams({... */\n      swap3\n      dup4\n      0x20\n      dup8\n      add\n        /* \"contracts/PredictionArbExecutorV1.sol\":3052:14355  contract PredictionArbExecutorV1 {... */\n      mstore\n        /* \"contracts/PredictionArbExecutorV1.sol\":7083:7087  this */\n      address\n        /* \"contracts/PredictionArbExecutorV1.sol\":3052:14355  contract PredictionArbExecutorV1 {... */\n      0x40\n        /* \"contracts/PredictionArbExecutorV1.sol\":6945:7239  IAlgebraSwapRouter.ExactOutputSingleParams({... */\n      dup8\n      add\n        /* \"contracts/PredictionArbExecutorV1.sol\":3052:14355  contract PredictionArbExecutorV1 {... */\n      mstore\n        /* \"contracts/PredictionArbExecutorV1.sol\":7112:7127  block.timestamp */\n      timestamp\n        /* \"contracts/PredictionArbExecutorV1.sol\":6945:7239  IAlgebraSwapRouter.ExactOutputSingleParams({... */\n      0x60\n      dup8\n      add\n        /* \"contracts/PredictionArbExecutorV1.sol\":3052:14355  contract PredictionArbExecutorV1 {... */\n      mstore\n        /* \"contracts/PredictionArbExecutorV1.sol\":6945:7239  IAlgebraSwapRouter.ExactOutputSingleParams({... */\n      dup1\n      0x80\n      dup8\n      add\n        /* \"contracts/PredictionArbExecutorV1.sol\":3052:14355  contract PredictionArbExecutorV1 {... */\n      mstore\n        /* \"contracts/PredictionArbExecutorV1.sol\":12261:12278  type(uint256).max */\n      not(0x00)\n        /* \"contracts/PredictionArbExecutorV1.sol\":6945:7239  IAlgebraSwapRouter.ExactOutputSingleParams({... */\n      0xa0\n      dup8\n      add\n        /* \"contracts/PredictionArbExecutorV1.sol\":3052:14355  contract PredictionArbExecutorV1 {... */\n      mstore\n      0x00\n        /* \"contracts/PredictionArbExecutorV1.sol\":6945:7239  IAlgebraSwapRouter.ExactOutputSingleParams({... */\n      0xc0\n      dup8\n      add\n        /* \"contracts/PredictionArbExecutorV1.sol\":3052:14355  contract PredictionArbExecutorV1 {... */\n      mstore\n      tag_352\n      mload(0x40)\n      swap7\n      shl(0xe0, 0x61d4d5b3)\n        /* \"contracts/PredictionArbExecutorV1.sol\":7260:7313  IAlgebraSwapRouter(swapr_router).exactOutputSingle(p) */\n      dup9\n      mstore\n      0x04\n      dup9\n      add\n        /* \"contracts/PredictionArbExecutorV1.sol\":3052:14355  contract PredictionArbExecutorV1 {... */\n      swap1\n      tag_15\n      jump\t// in\n    tag_352:\n        /* \"contracts/PredictionArbExecutorV1.sol\":6945:7239  IAlgebraSwapRouter.ExactOutputSingleParams({... */\n      0x20\n        /* \"contracts/PredictionArbExecutorV1.sol\":7260:7313  IAlgebraSwapRouter(swapr_router).exactOutputSingle(p) */\n      dup7\n      0xe4\n      dup2\n        /* \"contracts/PredictionArbExecutorV1.sol\":3052:14355  contract PredictionArbExecutorV1 {... */\n      0x00\n        /* \"contracts/PredictionArbExecutorV1.sol\":7260:7313  IAlgebraSwapRouter(swapr_router).exactOutputSingle(p) */\n      dup7\n      gas\n      call\n      swap6\n      dup7\n      iszero\n      tag_230\n      jumpi\n        /* \"contracts/PredictionArbExecutorV1.sol\":3052:14355  contract PredictionArbExecutorV1 {... */\n      0x00\n        /* \"contracts/PredictionArbExecutorV1.sol\":7260:7313  IAlgebraSwapRouter(swapr_router).exactOutputSingle(p) */\n      swap7\n      tag_355\n      jumpi\n        /* \"contracts/PredictionArbExecutorV1.sol\":6462:7410  function _swaprExactOut(address swapr_router, address tokenIn, address tokenOut, uint256 amountOut, uint256 maxIn)... */\n    tag_356:\n        /* \"contracts/PredictionArbExecutorV1.sol\":7249:7313  amountIn = IAlgebraSwapRouter(swapr_router).exactOutputSingle(p) */\n      pop\n        /* \"contracts/PredictionArbExecutorV1.sol\":3052:14355  contract PredictionArbExecutorV1 {... */\n      0x40\n        /* \"contracts/PredictionArbExecutorV1.sol\":7328:7403  SwaprExactOutExecuted(swapr_router, tokenIn, tokenOut, amountOut, amountIn) */\n      0xcb3796b31ba09ffbc48bd2abe64550ce61698c9e170bed66c7f6c556118af6a3\n        /* \"contracts/PredictionArbExecutorV1.sol\":7249:7313  amountIn = IAlgebraSwapRouter(swapr_router).exactOutputSingle(p) */\n      swap2\n      dup8\n        /* \"contracts/PredictionArbExecutorV1.sol\":3052:14355  contract PredictionArbExecutorV1 {... */\n      dup3\n      mload\n      swap2\n      dup3\n      mstore\n        /* \"contracts/PredictionArbExecutorV1.sol\":6945:7239  IAlgebraSwapRouter.ExactOutputSingleParams({... */\n      0x20\n        /* \"contracts/PredictionArbExecutorV1.sol\":3052:14355  contract PredictionArbExecutorV1 {... */\n      dup3\n      add\n      mstore\n        /* \"contracts/PredictionArbExecutorV1.sol\":7328:7403  SwaprExactOutExecuted(swapr_router, tokenIn, tokenOut, amountOut, amountIn) */\n      log4\n        /* \"contracts/PredictionArbExecutorV1.sol\":6462:7410  function _swaprExactOut(address swapr_router, address tokenIn, address tokenOut, uint256 amountOut, uint256 maxIn)... */\n      jump\t// out\n        /* \"contracts/PredictionArbExecutorV1.sol\":7260:7313  IAlgebraSwapRouter(swapr_router).exactOutputSingle(p) */\n    tag_355:\n      swap1\n      swap6\n      pop\n        /* \"contracts/PredictionArbExecutorV1.sol\":6945:7239  IAlgebraSwapRouter.ExactOutputSingleParams({... */\n      0x20\n        /* \"contracts/PredictionArbExecutorV1.sol\":7260:7313  IAlgebraSwapRouter(swapr_router).exactOutputSingle(p) */\n      dup2\n      returndatasize\n        /* \"contracts/PredictionArbExecutorV1.sol\":6945:7239  IAlgebraSwapRouter.ExactOutputSingleParams({... */\n      0x20\n        /* \"contracts/PredictionArbExecutorV1.sol\":7260:7313  IAlgebraSwapRouter(swapr_router).exactOutputSingle(p) */\n      gt\n      tag_357\n      jumpi\n    tag_358:\n      dup2\n      tag_359\n        /* \"contracts/PredictionArbExecutorV1.sol\":3052:14355  contract PredictionArbExecutorV1 {... */\n      0x20\n        /* \"contracts/PredictionArbExecutorV1.sol\":7260:7313  IAlgebraSwapRouter(swapr_router).exactOutputSingle(p) */\n      swap4\n      dup4\n      tag_9\n      jump\t// in\n    tag_359:\n      dup2\n      add\n        /* \"contracts/PredictionArbExecutorV1.sol\":3052:14355  contract PredictionArbExecutorV1 {... */\n      sub\n      slt\n      tag_128\n      jumpi\n      mload\n      swap5\n      0x40\n        /* \"contracts/PredictionArbExecutorV1.sol\":7260:7313  IAlgebraSwapRouter(swapr_router).exactOutputSingle(p) */\n      jump(tag_356)\n    tag_357:\n      returndatasize\n      swap2\n      pop\n      jump(tag_358)\n        /* \"contracts/PredictionArbExecutorV1.sol\":6793:6821  if (amountOut == 0) return 0 */\n    tag_348:\n      pop\n        /* \"contracts/PredictionArbExecutorV1.sol\":3052:14355  contract PredictionArbExecutorV1 {... */\n      0x00\n      swap5\n      pop\n      pop\n      pop\n      pop\n        /* \"contracts/PredictionArbExecutorV1.sol\":6813:6821  return 0 */\n      jump\t// out\n        /* \"contracts/PredictionArbExecutorV1.sol\":6705:6783  if (tokenIn == address(0) || tokenOut == address(0)) revert TokenAddressZero() */\n    tag_346:\n        /* \"contracts/PredictionArbExecutorV1.sol\":6765:6783  TokenAddressZero() */\n      shl(0xe0, 0x81c609f7)\n        /* \"contracts/PredictionArbExecutorV1.sol\":3052:14355  contract PredictionArbExecutorV1 {... */\n      0x00\n        /* \"contracts/PredictionArbExecutorV1.sol\":6765:6783  TokenAddressZero() */\n      mstore\n      0x04\n        /* \"contracts/PredictionArbExecutorV1.sol\":3052:14355  contract PredictionArbExecutorV1 {... */\n      0x00\n        /* \"contracts/PredictionArbExecutorV1.sol\":6765:6783  TokenAddressZero() */\n      revert\n        /* \"contracts/PredictionArbExecutorV1.sol\":6709:6756  tokenIn == address(0) || tokenOut == address(0) */\n    tag_344:\n      pop\n      sub(shl(0xa0, 0x01), 0x01)\n        /* \"contracts/PredictionArbExecutorV1.sol\":3052:14355  contract PredictionArbExecutorV1 {... */\n      dup7\n      and\n        /* \"contracts/PredictionArbExecutorV1.sol\":6734:6756  tokenOut == address(0) */\n      iszero\n        /* \"contracts/PredictionArbExecutorV1.sol\":6709:6756  tokenIn == address(0) || tokenOut == address(0) */\n      jump(tag_345)\n        /* \"contracts/PredictionArbExecutorV1.sol\":5043:5506  function _ensureMaxAllowance(IERC20 token, address spender) internal {... */\n    tag_18:\n        /* \"contracts/PredictionArbExecutorV1.sol\":3052:14355  contract PredictionArbExecutorV1 {... */\n      mload(0x40)\n      shl(0xe1, 0x6eb1769f)\n        /* \"contracts/PredictionArbExecutorV1.sol\":5136:5175  token.allowance(address(this), spender) */\n      dup2\n      mstore\n        /* \"contracts/PredictionArbExecutorV1.sol\":5160:5164  this */\n      address\n        /* \"contracts/PredictionArbExecutorV1.sol\":5136:5175  token.allowance(address(this), spender) */\n      0x04\n      dup3\n      add\n        /* \"contracts/PredictionArbExecutorV1.sol\":3052:14355  contract PredictionArbExecutorV1 {... */\n      mstore\n      sub(shl(0xa0, 0x01), 0x01)\n      dup4\n      dup2\n      and\n      0x24\n      dup4\n      add\n      mstore\n      swap2\n      swap1\n      swap2\n      and\n      swap1\n        /* \"contracts/PredictionArbExecutorV1.sol\":5136:5175  token.allowance(address(this), spender) */\n      0x20\n        /* \"contracts/PredictionArbExecutorV1.sol\":3052:14355  contract PredictionArbExecutorV1 {... */\n      dup2\n      0x44\n      dup2\n      dup6\n        /* \"contracts/PredictionArbExecutorV1.sol\":5136:5175  token.allowance(address(this), spender) */\n      gas\n      staticcall\n      swap1\n      dup2\n      iszero\n      tag_230\n      jumpi\n      0x00\n      swap2\n      tag_365\n      jumpi\n        /* \"contracts/PredictionArbExecutorV1.sol\":5043:5506  function _ensureMaxAllowance(IERC20 token, address spender) internal {... */\n    tag_366:\n      pop\n        /* \"contracts/PredictionArbExecutorV1.sol\":5189:5213  cur != type(uint256).max */\n      0x01\n      dup2\n      add\n        /* \"contracts/PredictionArbExecutorV1.sol\":5185:5400  if (cur != type(uint256).max) {... */\n      tag_367\n      jumpi\n        /* \"contracts/PredictionArbExecutorV1.sol\":5043:5506  function _ensureMaxAllowance(IERC20 token, address spender) internal {... */\n    tag_368:\n      pop\n        /* \"contracts/PredictionArbExecutorV1.sol\":3052:14355  contract PredictionArbExecutorV1 {... */\n      mload(0x40)\n      shl(0xe1, 0x6eb1769f)\n        /* \"contracts/PredictionArbExecutorV1.sol\":5459:5498  token.allowance(address(this), spender) */\n      dup2\n      mstore\n        /* \"contracts/PredictionArbExecutorV1.sol\":5160:5164  this */\n      address\n        /* \"contracts/PredictionArbExecutorV1.sol\":5136:5175  token.allowance(address(this), spender) */\n      0x04\n        /* \"contracts/PredictionArbExecutorV1.sol\":5459:5498  token.allowance(address(this), spender) */\n      dup3\n      add\n        /* \"contracts/PredictionArbExecutorV1.sol\":3052:14355  contract PredictionArbExecutorV1 {... */\n      mstore\n      sub(shl(0xa0, 0x01), 0x01)\n      dup4\n      and\n      0x24\n      dup3\n      add\n      mstore\n      swap2\n        /* \"contracts/PredictionArbExecutorV1.sol\":5136:5175  token.allowance(address(this), spender) */\n      0x20\n        /* \"contracts/PredictionArbExecutorV1.sol\":3052:14355  contract PredictionArbExecutorV1 {... */\n      dup4\n      0x44\n      dup2\n        /* \"contracts/PredictionArbExecutorV1.sol\":5459:5498  token.allowance(address(this), spender) */\n      dup6\n      gas\n      staticcall\n      swap3\n      dup4\n      iszero\n      tag_230\n      jumpi\n      0x00\n      swap4\n      tag_372\n      jumpi\n        /* \"contracts/PredictionArbExecutorV1.sol\":5043:5506  function _ensureMaxAllowance(IERC20 token, address spender) internal {... */\n    tag_373:\n      pop\n        /* \"contracts/PredictionArbExecutorV1.sol\":3052:14355  contract PredictionArbExecutorV1 {... */\n      mload(0x40)\n      swap3\n      dup4\n      mstore\n      sub(shl(0xa0, 0x01), 0x01)\n      and\n      swap2\n        /* \"contracts/PredictionArbExecutorV1.sol\":5414:5499  MaxAllowanceEnsured(address(token), spender, token.allowance(address(this), spender)) */\n      0xb6174191c8a1b8338dcc8711e5edf88685ae0a57f03b361e2bdf8979f6288bd5\n      swap1\n        /* \"contracts/PredictionArbExecutorV1.sol\":5136:5175  token.allowance(address(this), spender) */\n      0x20\n      swap1\n        /* \"contracts/PredictionArbExecutorV1.sol\":5414:5499  MaxAllowanceEnsured(address(token), spender, token.allowance(address(this), spender)) */\n      log3\n        /* \"contracts/PredictionArbExecutorV1.sol\":5043:5506  function _ensureMaxAllowance(IERC20 token, address spender) internal {... */\n      jump\t// out\n        /* \"contracts/PredictionArbExecutorV1.sol\":5459:5498  token.allowance(address(this), spender) */\n    tag_372:\n      swap1\n      swap3\n      pop\n        /* \"contracts/PredictionArbExecutorV1.sol\":5136:5175  token.allowance(address(this), spender) */\n      0x20\n        /* \"contracts/PredictionArbExecutorV1.sol\":5459:5498  token.allowance(address(this), spender) */\n      dup2\n      returndatasize\n        /* \"contracts/PredictionArbExecutorV1.sol\":5136:5175  token.allowance(address(this), spender) */\n      0x20\n        /* \"contracts/PredictionArbExecutorV1.sol\":5459:5498  token.allowance(address(this), spender) */\n      gt\n      tag_374\n      jumpi\n    tag_375:\n      dup2\n      tag_376\n        /* \"contracts/PredictionArbExecutorV1.sol\":3052:14355  contract PredictionArbExecutorV1 {... */\n      0x20\n        /* \"contracts/PredictionArbExecutorV1.sol\":5459:5498  token.allowance(address(this), spender) */\n      swap4\n      dup4\n      tag_9\n      jump\t// in\n    tag_376:\n      dup2\n      add\n        /* \"contracts/PredictionArbExecutorV1.sol\":3052:14355  contract PredictionArbExecutorV1 {... */\n      sub\n      slt\n      tag_128\n      jumpi\n      mload\n      swap2\n        /* \"contracts/PredictionArbExecutorV1.sol\":5136:5175  token.allowance(address(this), spender) */\n      0x20\n        /* \"contracts/PredictionArbExecutorV1.sol\":5459:5498  token.allowance(address(this), spender) */\n      jump(tag_373)\n    tag_374:\n      returndatasize\n      swap2\n      pop\n      jump(tag_375)\n        /* \"contracts/PredictionArbExecutorV1.sol\":5185:5400  if (cur != type(uint256).max) {... */\n    tag_367:\n        /* \"contracts/PredictionArbExecutorV1.sol\":5229:5302  if (cur != 0) if (!token.approve(spender, 0)) revert ApproveResetFailed() */\n      tag_379\n      jumpi\n        /* \"contracts/PredictionArbExecutorV1.sol\":5185:5400  if (cur != type(uint256).max) {... */\n    tag_380:\n        /* \"contracts/PredictionArbExecutorV1.sol\":3052:14355  contract PredictionArbExecutorV1 {... */\n      mload(0x40)\n      shl(0xe0, 0x095ea7b3)\n        /* \"contracts/PredictionArbExecutorV1.sol\":5321:5362  token.approve(spender, type(uint256).max) */\n      dup2\n      mstore\n      sub(shl(0xa0, 0x01), 0x01)\n        /* \"contracts/PredictionArbExecutorV1.sol\":3052:14355  contract PredictionArbExecutorV1 {... */\n      dup4\n      and\n        /* \"contracts/PredictionArbExecutorV1.sol\":5136:5175  token.allowance(address(this), spender) */\n      0x04\n        /* \"contracts/PredictionArbExecutorV1.sol\":5321:5362  token.approve(spender, type(uint256).max) */\n      dup3\n      add\n        /* \"contracts/PredictionArbExecutorV1.sol\":3052:14355  contract PredictionArbExecutorV1 {... */\n      mstore\n      not(0x00)\n      0x24\n      dup3\n      add\n      mstore\n        /* \"contracts/PredictionArbExecutorV1.sol\":5136:5175  token.allowance(address(this), spender) */\n      0x20\n        /* \"contracts/PredictionArbExecutorV1.sol\":3052:14355  contract PredictionArbExecutorV1 {... */\n      dup2\n        /* \"contracts/PredictionArbExecutorV1.sol\":5321:5362  token.approve(spender, type(uint256).max) */\n      0x44\n        /* \"contracts/PredictionArbExecutorV1.sol\":3052:14355  contract PredictionArbExecutorV1 {... */\n      dup2\n      0x00\n        /* \"contracts/PredictionArbExecutorV1.sol\":5321:5362  token.approve(spender, type(uint256).max) */\n      dup7\n      gas\n      call\n      swap1\n      dup2\n      iszero\n      tag_230\n      jumpi\n      0x00\n      swap2\n      tag_383\n      jumpi\n        /* \"contracts/PredictionArbExecutorV1.sol\":5185:5400  if (cur != type(uint256).max) {... */\n    tag_384:\n        /* \"contracts/PredictionArbExecutorV1.sol\":5320:5362  !token.approve(spender, type(uint256).max) */\n      pop\n      iszero\n        /* \"contracts/PredictionArbExecutorV1.sol\":5316:5389  if (!token.approve(spender, type(uint256).max)) revert ApproveSetFailed() */\n      tag_385\n      jumpi\n        /* \"contracts/PredictionArbExecutorV1.sol\":5185:5400  if (cur != type(uint256).max) {... */\n      0x00\n      jump(tag_368)\n        /* \"contracts/PredictionArbExecutorV1.sol\":5316:5389  if (!token.approve(spender, type(uint256).max)) revert ApproveSetFailed() */\n    tag_385:\n        /* \"contracts/PredictionArbExecutorV1.sol\":5371:5389  ApproveSetFailed() */\n      mstore(0x00, shl(0xe1, 0x2a69ce6b))\n        /* \"contracts/PredictionArbExecutorV1.sol\":5136:5175  token.allowance(address(this), spender) */\n      0x04\n      0x00\n        /* \"contracts/PredictionArbExecutorV1.sol\":5371:5389  ApproveSetFailed() */\n      revert\n        /* \"contracts/PredictionArbExecutorV1.sol\":5321:5362  token.approve(spender, type(uint256).max) */\n    tag_383:\n      tag_387\n      swap2\n      pop\n        /* \"contracts/PredictionArbExecutorV1.sol\":5136:5175  token.allowance(address(this), spender) */\n      0x20\n        /* \"contracts/PredictionArbExecutorV1.sol\":5321:5362  token.approve(spender, type(uint256).max) */\n      returndatasize\n        /* \"contracts/PredictionArbExecutorV1.sol\":5136:5175  token.allowance(address(this), spender) */\n      0x20\n        /* \"contracts/PredictionArbExecutorV1.sol\":5321:5362  token.approve(spender, type(uint256).max) */\n      gt\n      tag_289\n      jumpi\n      tag_291\n      dup2\n      dup4\n      tag_9\n      jump\t// in\n    tag_387:\n      0x00\n      jump(tag_384)\n        /* \"contracts/PredictionArbExecutorV1.sol\":5229:5302  if (cur != 0) if (!token.approve(spender, 0)) revert ApproveResetFailed() */\n    tag_379:\n        /* \"contracts/PredictionArbExecutorV1.sol\":3052:14355  contract PredictionArbExecutorV1 {... */\n      mload(0x40)\n      shl(0xe0, 0x095ea7b3)\n        /* \"contracts/PredictionArbExecutorV1.sol\":5248:5273  token.approve(spender, 0) */\n      dup2\n      mstore\n      sub(shl(0xa0, 0x01), 0x01)\n        /* \"contracts/PredictionArbExecutorV1.sol\":3052:14355  contract PredictionArbExecutorV1 {... */\n      dup4\n      and\n        /* \"contracts/PredictionArbExecutorV1.sol\":5136:5175  token.allowance(address(this), spender) */\n      0x04\n        /* \"contracts/PredictionArbExecutorV1.sol\":5248:5273  token.approve(spender, 0) */\n      dup3\n      add\n        /* \"contracts/PredictionArbExecutorV1.sol\":3052:14355  contract PredictionArbExecutorV1 {... */\n      mstore\n      0x00\n      0x24\n      dup3\n      add\n      dup2\n      swap1\n      mstore\n        /* \"contracts/PredictionArbExecutorV1.sol\":5136:5175  token.allowance(address(this), spender) */\n      0x20\n      swap1\n        /* \"contracts/PredictionArbExecutorV1.sol\":3052:14355  contract PredictionArbExecutorV1 {... */\n      dup3\n      swap1\n        /* \"contracts/PredictionArbExecutorV1.sol\":5248:5273  token.approve(spender, 0) */\n      0x44\n      swap1\n        /* \"contracts/PredictionArbExecutorV1.sol\":3052:14355  contract PredictionArbExecutorV1 {... */\n      dup3\n      swap1\n        /* \"contracts/PredictionArbExecutorV1.sol\":5248:5273  token.approve(spender, 0) */\n      dup7\n      gas\n      call\n      swap1\n      dup2\n      iszero\n      tag_230\n      jumpi\n      0x00\n      swap2\n      tag_393\n      jumpi\n        /* \"contracts/PredictionArbExecutorV1.sol\":5229:5302  if (cur != 0) if (!token.approve(spender, 0)) revert ApproveResetFailed() */\n    tag_394:\n        /* \"contracts/PredictionArbExecutorV1.sol\":5247:5273  !token.approve(spender, 0) */\n      pop\n        /* \"contracts/PredictionArbExecutorV1.sol\":5229:5302  if (cur != 0) if (!token.approve(spender, 0)) revert ApproveResetFailed() */\n      tag_380\n        /* \"contracts/PredictionArbExecutorV1.sol\":5243:5302  if (!token.approve(spender, 0)) revert ApproveResetFailed() */\n      jumpi\n        /* \"contracts/PredictionArbExecutorV1.sol\":5282:5302  ApproveResetFailed() */\n      mstore(0x00, shl(0xe2, 0x097c3e93))\n        /* \"contracts/PredictionArbExecutorV1.sol\":5136:5175  token.allowance(address(this), spender) */\n      0x04\n      0x00\n        /* \"contracts/PredictionArbExecutorV1.sol\":5282:5302  ApproveResetFailed() */\n      revert\n        /* \"contracts/PredictionArbExecutorV1.sol\":5248:5273  token.approve(spender, 0) */\n    tag_393:\n      tag_397\n      swap2\n      pop\n        /* \"contracts/PredictionArbExecutorV1.sol\":5136:5175  token.allowance(address(this), spender) */\n      0x20\n        /* \"contracts/PredictionArbExecutorV1.sol\":5248:5273  token.approve(spender, 0) */\n      returndatasize\n        /* \"contracts/PredictionArbExecutorV1.sol\":5136:5175  token.allowance(address(this), spender) */\n      0x20\n        /* \"contracts/PredictionArbExecutorV1.sol\":5248:5273  token.approve(spender, 0) */\n      gt\n      tag_289\n      jumpi\n      tag_291\n      dup2\n      dup4\n      tag_9\n      jump\t// in\n    tag_397:\n      0x00\n      jump(tag_394)\n        /* \"contracts/PredictionArbExecutorV1.sol\":5136:5175  token.allowance(address(this), spender) */\n    tag_365:\n      swap1\n      pop\n      0x20\n      dup2\n      jumpi(tag_401, gt(0x20, returndatasize))\n    tag_402:\n      dup2\n      tag_403\n        /* \"contracts/PredictionArbExecutorV1.sol\":3052:14355  contract PredictionArbExecutorV1 {... */\n      0x20\n        /* \"contracts/PredictionArbExecutorV1.sol\":5136:5175  token.allowance(address(this), spender) */\n      swap4\n      dup4\n      tag_9\n      jump\t// in\n    tag_403:\n      dup2\n      add\n        /* \"contracts/PredictionArbExecutorV1.sol\":3052:14355  contract PredictionArbExecutorV1 {... */\n      sub\n      slt\n      tag_128\n      jumpi\n      mload\n        /* \"contracts/PredictionArbExecutorV1.sol\":5136:5175  token.allowance(address(this), spender) */\n      0x00\n      jump(tag_366)\n    tag_401:\n      returndatasize\n      swap2\n      pop\n      jump(tag_402)\n        /* \"contracts/PredictionArbExecutorV1.sol\":5512:6456  function _swaprExactIn(address swapr_router, address tokenIn, address tokenOut, uint256 amountIn, uint256 minOut)... */\n    tag_19:\n      swap2\n      swap4\n      swap3\n      swap2\n      swap1\n      sub(shl(0xa0, 0x01), 0x01)\n        /* \"contracts/PredictionArbExecutorV1.sol\":3052:14355  contract PredictionArbExecutorV1 {... */\n      dup3\n      and\n      swap1\n        /* \"contracts/PredictionArbExecutorV1.sol\":5697:5723  swapr_router == address(0) */\n      dup2\n      iszero\n        /* \"contracts/PredictionArbExecutorV1.sol\":5693:5745  if (swapr_router == address(0)) revert ZeroAddress() */\n      tag_203\n      jumpi\n      sub(shl(0xa0, 0x01), 0x01)\n        /* \"contracts/PredictionArbExecutorV1.sol\":3052:14355  contract PredictionArbExecutorV1 {... */\n      and\n      swap2\n        /* \"contracts/PredictionArbExecutorV1.sol\":5759:5780  tokenIn == address(0) */\n      dup3\n      iszero\n        /* \"contracts/PredictionArbExecutorV1.sol\":5759:5806  tokenIn == address(0) || tokenOut == address(0) */\n      dup1\n      iszero\n      tag_408\n      jumpi\n        /* \"contracts/PredictionArbExecutorV1.sol\":5512:6456  function _swaprExactIn(address swapr_router, address tokenIn, address tokenOut, uint256 amountIn, uint256 minOut)... */\n    tag_409:\n        /* \"contracts/PredictionArbExecutorV1.sol\":5755:5833  if (tokenIn == address(0) || tokenOut == address(0)) revert TokenAddressZero() */\n      tag_346\n      jumpi\n        /* \"contracts/PredictionArbExecutorV1.sol\":5847:5860  amountIn == 0 */\n      dup4\n      iszero\n        /* \"contracts/PredictionArbExecutorV1.sol\":5843:5870  if (amountIn == 0) return 0 */\n      tag_348\n      jumpi\n        /* \"contracts/PredictionArbExecutorV1.sol\":5917:5929  swapr_router */\n      tag_414\n      swap1\n      dup4\n      tag_18\n      jump\t// in\n    tag_414:\n        /* \"contracts/PredictionArbExecutorV1.sol\":3052:14355  contract PredictionArbExecutorV1 {... */\n      mload(0x40)\n      swap5\n      tag_415\n      dup7\n      tag_8\n      jump\t// in\n    tag_415:\n      dup3\n      dup7\n      mstore\n      0x01\n      dup1\n      0xa0\n      shl\n      sub\n      and\n        /* \"contracts/PredictionArbExecutorV1.sol\":5993:6286  IAlgebraSwapRouter.ExactInputSingleParams({... */\n      swap3\n      dup4\n      0x20\n      dup8\n      add\n        /* \"contracts/PredictionArbExecutorV1.sol\":3052:14355  contract PredictionArbExecutorV1 {... */\n      mstore\n        /* \"contracts/PredictionArbExecutorV1.sol\":6130:6134  this */\n      address\n        /* \"contracts/PredictionArbExecutorV1.sol\":3052:14355  contract PredictionArbExecutorV1 {... */\n      0x40\n        /* \"contracts/PredictionArbExecutorV1.sol\":5993:6286  IAlgebraSwapRouter.ExactInputSingleParams({... */\n      dup8\n      add\n        /* \"contracts/PredictionArbExecutorV1.sol\":3052:14355  contract PredictionArbExecutorV1 {... */\n      mstore\n        /* \"contracts/PredictionArbExecutorV1.sol\":6159:6174  block.timestamp */\n      timestamp\n        /* \"contracts/PredictionArbExecutorV1.sol\":5993:6286  IAlgebraSwapRouter.ExactInputSingleParams({... */\n      0x60\n      dup8\n      add\n        /* \"contracts/PredictionArbExecutorV1.sol\":3052:14355  contract PredictionArbExecutorV1 {... */\n      mstore\n        /* \"contracts/PredictionArbExecutorV1.sol\":5993:6286  IAlgebraSwapRouter.ExactInputSingleParams({... */\n      dup1\n      0x80\n      dup8\n      add\n        /* \"contracts/PredictionArbExecutorV1.sol\":3052:14355  contract PredictionArbExecutorV1 {... */\n      mstore\n      0x00\n        /* \"contracts/PredictionArbExecutorV1.sol\":5993:6286  IAlgebraSwapRouter.ExactInputSingleParams({... */\n      0xa0\n      dup8\n      add\n        /* \"contracts/PredictionArbExecutorV1.sol\":3052:14355  contract PredictionArbExecutorV1 {... */\n      mstore\n      0x00\n        /* \"contracts/PredictionArbExecutorV1.sol\":5993:6286  IAlgebraSwapRouter.ExactInputSingleParams({... */\n      0xc0\n      dup8\n      add\n        /* \"contracts/PredictionArbExecutorV1.sol\":3052:14355  contract PredictionArbExecutorV1 {... */\n      mstore\n      tag_416\n      mload(0x40)\n      swap7\n      shl(0xe3, 0x178ca231)\n        /* \"contracts/PredictionArbExecutorV1.sol\":6308:6360  IAlgebraSwapRouter(swapr_router).exactInputSingle(p) */\n      dup9\n      mstore\n      0x04\n      dup9\n      add\n        /* \"contracts/PredictionArbExecutorV1.sol\":3052:14355  contract PredictionArbExecutorV1 {... */\n      swap1\n      tag_15\n      jump\t// in\n    tag_416:\n        /* \"contracts/PredictionArbExecutorV1.sol\":5993:6286  IAlgebraSwapRouter.ExactInputSingleParams({... */\n      0x20\n        /* \"contracts/PredictionArbExecutorV1.sol\":6308:6360  IAlgebraSwapRouter(swapr_router).exactInputSingle(p) */\n      dup7\n      0xe4\n      dup2\n        /* \"contracts/PredictionArbExecutorV1.sol\":3052:14355  contract PredictionArbExecutorV1 {... */\n      0x00\n        /* \"contracts/PredictionArbExecutorV1.sol\":6308:6360  IAlgebraSwapRouter(swapr_router).exactInputSingle(p) */\n      dup7\n      gas\n      call\n      swap6\n      dup7\n      iszero\n      tag_230\n      jumpi\n        /* \"contracts/PredictionArbExecutorV1.sol\":3052:14355  contract PredictionArbExecutorV1 {... */\n      0x00\n        /* \"contracts/PredictionArbExecutorV1.sol\":6308:6360  IAlgebraSwapRouter(swapr_router).exactInputSingle(p) */\n      swap7\n      tag_419\n      jumpi\n        /* \"contracts/PredictionArbExecutorV1.sol\":5512:6456  function _swaprExactIn(address swapr_router, address tokenIn, address tokenOut, uint256 amountIn, uint256 minOut)... */\n    tag_420:\n        /* \"contracts/PredictionArbExecutorV1.sol\":6296:6360  amountOut = IAlgebraSwapRouter(swapr_router).exactInputSingle(p) */\n      pop\n        /* \"contracts/PredictionArbExecutorV1.sol\":3052:14355  contract PredictionArbExecutorV1 {... */\n      0x40\n        /* \"contracts/PredictionArbExecutorV1.sol\":6375:6449  SwaprExactInExecuted(swapr_router, tokenIn, tokenOut, amountIn, amountOut) */\n      0x5daa39fce4745a2a9e6137131383e8405e80edb12e37c562f590c5f294ed19d5\n        /* \"contracts/PredictionArbExecutorV1.sol\":6296:6360  amountOut = IAlgebraSwapRouter(swapr_router).exactInputSingle(p) */\n      swap2\n      dup8\n        /* \"contracts/PredictionArbExecutorV1.sol\":3052:14355  contract PredictionArbExecutorV1 {... */\n      dup3\n      mload\n      swap2\n      dup3\n      mstore\n        /* \"contracts/PredictionArbExecutorV1.sol\":5993:6286  IAlgebraSwapRouter.ExactInputSingleParams({... */\n      0x20\n        /* \"contracts/PredictionArbExecutorV1.sol\":3052:14355  contract PredictionArbExecutorV1 {... */\n      dup3\n      add\n      mstore\n        /* \"contracts/PredictionArbExecutorV1.sol\":6375:6449  SwaprExactInExecuted(swapr_router, tokenIn, tokenOut, amountIn, amountOut) */\n      log4\n        /* \"contracts/PredictionArbExecutorV1.sol\":5512:6456  function _swaprExactIn(address swapr_router, address tokenIn, address tokenOut, uint256 amountIn, uint256 minOut)... */\n      jump\t// out\n        /* \"contracts/PredictionArbExecutorV1.sol\":6308:6360  IAlgebraSwapRouter(swapr_router).exactInputSingle(p) */\n    tag_419:\n      swap1\n      swap6\n      pop\n        /* \"contracts/PredictionArbExecutorV1.sol\":5993:6286  IAlgebraSwapRouter.ExactInputSingleParams({... */\n      0x20\n        /* \"contracts/PredictionArbExecutorV1.sol\":6308:6360  IAlgebraSwapRouter(swapr_router).exactInputSingle(p) */\n      dup2\n      returndatasize\n        /* \"contracts/PredictionArbExecutorV1.sol\":5993:6286  IAlgebraSwapRouter.ExactInputSingleParams({... */\n      0x20\n        /* \"contracts/PredictionArbExecutorV1.sol\":6308:6360  IAlgebraSwapRouter(swapr_router).exactInputSingle(p) */\n      gt\n      tag_421\n      jumpi\n    tag_422:\n      dup2\n      tag_423\n        /* \"contracts/PredictionArbExecutorV1.sol\":3052:14355  contract PredictionArbExecutorV1 {... */\n      0x20\n        /* \"contracts/PredictionArbExecutorV1.sol\":6308:6360  IAlgebraSwapRouter(swapr_router).exactInputSingle(p) */\n      swap4\n      dup4\n      tag_9\n      jump\t// in\n    tag_423:\n      dup2\n      add\n        /* \"contracts/PredictionArbExecutorV1.sol\":3052:14355  contract PredictionArbExecutorV1 {... */\n      sub\n      slt\n      tag_128\n      jumpi\n      mload\n      swap5\n      0x40\n        /* \"contracts/PredictionArbExecutorV1.sol\":6308:6360  IAlgebraSwapRouter(swapr_router).exactInputSingle(p) */\n      jump(tag_420)\n    tag_421:\n      returndatasize\n      swap2\n      pop\n      jump(tag_422)\n        /* \"contracts/PredictionArbExecutorV1.sol\":5759:5806  tokenIn == address(0) || tokenOut == address(0) */\n    tag_408:\n      pop\n      sub(shl(0xa0, 0x01), 0x01)\n        /* \"contracts/PredictionArbExecutorV1.sol\":3052:14355  contract PredictionArbExecutorV1 {... */\n      dup7\n      and\n        /* \"contracts/PredictionArbExecutorV1.sol\":5784:5806  tokenOut == address(0) */\n      iszero\n        /* \"contracts/PredictionArbExecutorV1.sol\":5759:5806  tokenIn == address(0) || tokenOut == address(0) */\n      jump(tag_409)\n\n    auxdata: 0xa264697066735822122038aabd4fe14c6acfc6aa034e669eb2b9748246076dfcce7428516db74e52ed3b64736f6c63430008210033\n}\n","methodIdentifiers":{"buy_conditional_arbitrage(address,address,address,address,address,address,address,address,uint256,int256)":"2b4ed6fa","owner()":"8da5cb5b","sell_conditional_arbitrage(address,address,address,address,address,address,uint256,int256)":"50e2e7a8","sweepToken(address,address)":"258836fe","transferOwnership(address)":"f2fde38b","withdrawETH(address,uint256)":"4782f779","withdrawToken(address,address,uint256)":"01e33667"},"id":12}