{"abi":[{"type":"constructor","inputs":[{"name":"_zkVerifier","type":"address","internalType":"address"},{"name":"_paymaster","type":"address","internalType":"address"},{"name":"_providers","type":"address[]","internalType":"address[]"}],"stateMutability":"nonpayable"},{"type":"function","name":"batchResolve","inputs":[{"name":"intentIds","type":"uint256[]","internalType":"uint256[]"},{"name":"solvers","type":"address[]","internalType":"address[]"}],"outputs":[],"stateMutability":"nonpayable"},{"type":"function","name":"closeAuction","inputs":[{"name":"auctionId","type":"uint256","internalType":"uint256"}],"outputs":[],"stateMutability":"nonpayable"},{"type":"function","name":"commitBid","inputs":[{"name":"auctionId","type":"uint256","internalType":"uint256"},{"name":"commitHash","type":"bytes32","internalType":"bytes32"}],"outputs":[],"stateMutability":"nonpayable"},{"type":"function","name":"failoverRoute","inputs":[{"name":"intentId","type":"uint256","internalType":"uint256"},{"name":"venue","type":"address","internalType":"address"}],"outputs":[],"stateMutability":"nonpayable"},{"type":"function","name":"flashloanProviders","inputs":[{"name":"","type":"uint256","internalType":"uint256"}],"outputs":[{"name":"","type":"address","internalType":"address"}],"stateMutability":"view"},{"type":"function","name":"openAuction","inputs":[{"name":"auctionId","type":"uint256","internalType":"uint256"}],"outputs":[],"stateMutability":"nonpayable"},{"type":"function","name":"owner","inputs":[],"outputs":[{"name":"","type":"address","internalType":"address"}],"stateMutability":"view"},{"type":"function","name":"paymaster","inputs":[],"outputs":[{"name":"","type":"address","internalType":"address"}],"stateMutability":"view"},{"type":"function","name":"resolveIntent","inputs":[{"name":"intentId","type":"uint256","internalType":"uint256"},{"name":"solver","type":"address","internalType":"address"},{"name":"execData","type":"bytes","internalType":"bytes"}],"outputs":[],"stateMutability":"nonpayable"},{"type":"function","name":"revealBid","inputs":[{"name":"auctionId","type":"uint256","internalType":"uint256"},{"name":"value","type":"uint256","internalType":"uint256"},{"name":"salt","type":"bytes32","internalType":"bytes32"}],"outputs":[],"stateMutability":"nonpayable"},{"type":"function","name":"sealExecution","inputs":[{"name":"intentId","type":"uint256","internalType":"uint256"}],"outputs":[{"name":"seal","type":"bytes32","internalType":"bytes32"}],"stateMutability":"view"},{"type":"function","name":"settleAuction","inputs":[{"name":"auctionId","type":"uint256","internalType":"uint256"},{"name":"solvers","type":"address[]","internalType":"address[]"}],"outputs":[{"name":"winner","type":"address","internalType":"address"}],"stateMutability":"nonpayable"},{"type":"function","name":"submitIntent","inputs":[{"name":"intentId","type":"uint256","internalType":"uint256"},{"name":"intentData","type":"bytes","internalType":"bytes"}],"outputs":[],"stateMutability":"nonpayable"},{"type":"function","name":"zkVerifier","inputs":[],"outputs":[{"name":"","type":"address","internalType":"address"}],"stateMutability":"view"},{"type":"event","name":"AuctionSettled","inputs":[{"name":"winner","type":"address","indexed":false,"internalType":"address"},{"name":"winningBid","type":"uint256","indexed":false,"internalType":"uint256"}],"anonymous":false},{"type":"event","name":"BatchExecuted","inputs":[{"name":"batchId","type":"uint256","indexed":false,"internalType":"uint256"},{"name":"solvers","type":"address[]","indexed":false,"internalType":"address[]"}],"anonymous":false},{"type":"event","name":"BidCommitted","inputs":[{"name":"solver","type":"address","indexed":false,"internalType":"address"},{"name":"commitHash","type":"bytes32","indexed":false,"internalType":"bytes32"}],"anonymous":false},{"type":"event","name":"BidRevealed","inputs":[{"name":"solver","type":"address","indexed":false,"internalType":"address"},{"name":"bidValue","type":"uint256","indexed":false,"internalType":"uint256"}],"anonymous":false},{"type":"event","name":"IntentResolved","inputs":[{"name":"intentId","type":"uint256","indexed":false,"internalType":"uint256"},{"name":"solver","type":"address","indexed":false,"internalType":"address"},{"name":"value","type":"uint256","indexed":false,"internalType":"uint256"}],"anonymous":false},{"type":"event","name":"ReputationUpdated","inputs":[{"name":"solver","type":"address","indexed":false,"internalType":"address"},{"name":"delta","type":"int256","indexed":false,"internalType":"int256"}],"anonymous":false},{"type":"event","name":"Slashed","inputs":[{"name":"solver","type":"address","indexed":false,"internalType":"address"},{"name":"amount","type":"uint256","indexed":false,"internalType":"uint256"}],"anonymous":false},{"type":"error","name":"AuctionClosed","inputs":[]},{"type":"error","name":"ExecutionFailed","inputs":[]},{"type":"error","name":"InvalidBid","inputs":[]},{"type":"error","name":"InvalidIntent","inputs":[]},{"type":"error","name":"NonReentrant","inputs":[]},{"type":"error","name":"ReputationSlash","inputs":[]},{"type":"error","name":"Unauthorized","inputs":[]}],"bytecode":{"object":"0x60a0604052346101c1576114f880380380610019816101c5565b92833981016060828203126101c157610031826101ea565b9161003e602082016101ea565b604082015190916001600160401b0382116101c157019282601f850112156101c1578351926001600160401b038411610195578360051b9460206100838188016101c5565b809681520190602082978201019283116101c157602001905b8282106101a957505060015f555033608052600580546001600160a01b039283166001600160a01b0319918216179091556006805493909216921691909117905551906001600160401b03821161019557680100000000000000008211610195576007548260075580831061016a575b509060075f5260205f20915f5b82811061014d576040516112f990816101ff8239608051818181610136015281816101a50152818161023601526107bc0152f35b81516001600160a01b031681850155602090910190600101610119565b60075f52828060205f20019103905f5b82811061018857505061010c565b5f8282015560010161017a565b634e487b7160e01b5f52604160045260245ffd5b602080916101b6846101ea565b81520191019061009c565b5f80fd5b6040519190601f01601f191682016001600160401b0381118382101761019557604052565b51906001600160a01b03821682036101c15756fe60806040526004361015610011575f80fd5b5f3560e01c806316e4cbf9146100f45780631edc8f91146100ef578063236ed8f3146100ea578063268968e5146100e5578063424f84a7146100e05780634c25f931146100db5780634d380a0d146100d657806358ad27bf146100d15780638da5cb5b146100cc5780639468cb61146100c757806397ae02af146100c2578063affcdf4b146100bd578063d00d3b31146100b85763d6df096d146100b3575f80fd5b610b26565b610a1a565b61097c565b6108b6565b6107eb565b6107a7565b61074d565b61063b565b610481565b61033c565b610217565b61018f565b610120565b3461011c575f36600319011261011c576006546040516001600160a01b039091168152602090f35b5f80fd5b3461011c57602036600319011261011c576004357f00000000000000000000000000000000000000000000000000000000000000006001600160a01b03163303610181575f526003602052600160405f2001600160ff198254161790555f80f35b6282b42960e81b5f5260045ffd5b3461011c57602036600319011261011c576004357f00000000000000000000000000000000000000000000000000000000000000006001600160a01b03163303610181575f908152600360205260409020600101805460ff19169055005b602435906001600160a01b038216820361011c57565b35906001600160a01b038216820361011c57565b3461011c57604036600319011261011c576004356102336101ed565b907f00000000000000000000000000000000000000000000000000000000000000006001600160a01b03163303610181575f52600160205260405f2090604051915f9080549061028282610b4e565b91600181169081156102f457506001146102c2575b505090825f93849303915af46102ab610b86565b50156102b357005b632b3f6d1160e21b5f5260045ffd5b9091505f5260205f205f905b8282106102e05750508201825f610297565b6001816020925484880152019101906102ce565b60ff1916865250508015150283019050825f610297565b9181601f8401121561011c5782359167ffffffffffffffff831161011c576020808501948460051b01011161011c57565b3461011c57604036600319011261011c5760043567ffffffffffffffff811161011c5761036d90369060040161030b565b9060243567ffffffffffffffff811161011c5761038e90369060040161030b565b92909160025f54146104445760025f558382036104355761012c82116102b357816103cb6103d96103e29360405192839160208301958691610bc5565b03601f19810183528261087c565b5190201e610bf4565b905f5b81811061042d57505061041f7f3c7546ea6213d639e7de5c441a4abe5e41931f976097e9e5db39896bc2f648c59360405193849384610c15565b0390a161042b60015f55565b005b6001016103e5565b633edae5df60e11b5f5260045ffd5b6349cb68ab60e11b5f5260045ffd5b9181601f8401121561011c5782359167ffffffffffffffff831161011c576020838186019501011161011c57565b3461011c57606036600319011261011c5760043561049d6101ed565b60443567ffffffffffffffff811161011c576104bd903690600401610453565b929060025f54146104445760025f556104d583610cef565b5f828152600260205260409020546001600160a01b03166102b357621000ae84116102b3576005546001600160a01b0316806105fc575b50604051606380820182811067ffffffffffffffff8211176105f7578291611261833903905ff0156105f2575f84819281604051918237855af43d5f6040516020838201016040523e156102b35781816105e16105e9956105b98461059a7fb5c70dfdfecb7cc39b872e9a3360b1e0a9c6a3bf580ee56cd2eb71664ccd8573975f52600260205260405f2090565b80546001600160a01b0319166001600160a01b03909216919091179055565b604080519384526001600160a01b039094166020840152928201929092529081906060820190565b0390a1610d66565b61042b60015f55565b610c86565b610868565b5f80916040516020810190632ae132ff60e11b8252610623816103cb8b8960248401610c5f565b51915afa61062f610b86565b50156102b3575f61050c565b3461011c57606036600319011261011c5760043560243590604435905f52600360205260405f20610670600182015460ff1690565b61072a57335f90815260209190915260409020916002830191610694835460ff1690565b61071b576040516106b9816103cb602082019486869091604092825260208201520190565b51902083540361071b576106fe610716928260017f9891bd98143d5a2c5f29be9a7ef8e5d7b723746fb3b75220234af7aa6caeecfe960155600160ff19825416179055565b60408051338152602081019290925290918291820190565b0390a1005b63c6388ef760e01b5f5260045ffd5b6336b6b46d60e01b5f5260045ffd5b634e487b7160e01b5f52603260045260245ffd5b3461011c57602036600319011261011c5760043560075481101561011c5760075f527fa66cc928b5edb82af9bd49922954155ab7b0942694bea4ce44661d9a8736c68801546040516001600160a01b039091168152602090f35b3461011c575f36600319011261011c576040517f00000000000000000000000000000000000000000000000000000000000000006001600160a01b03168152602090f35b3461011c57604036600319011261011c57600435602435905f52600360205260405f2060ff6001820154161561072a57817f4993d1a01dd11fa6de1acf5952a36cf1b3f02f1fa3e764d14aa461230ec02eb0926108596040933360018060a01b03165f5260205260405f2090565b558151903382526020820152a1005b634e487b7160e01b5f52604160045260245ffd5b90601f8019910116810190811067ffffffffffffffff8211176105f757604052565b67ffffffffffffffff81116105f75760051b60200190565b3461011c57604036600319011261011c5760243560043567ffffffffffffffff821161011c573660238301121561011c578160040135916108f68361089e565b92610904604051948561087c565b8084526024602085019160051b8301019136831161011c57602401905b8282106109645761096061094686610941875f52600360205260405f2090565b610ef3565b6040516001600160a01b0390911681529081906020820190565b0390f35b6020809161097184610203565b815201910190610921565b3461011c57602036600319011261011c57610960600435805f52600260205260405f205460405190602082019283526bffffffffffffffffffffffff199060601b166040820152426054820152605481526109d860748261087c565b5190206103cb610a076109eb831e610bf4565b6040519283916020830195869091604092825260208201520190565b5190206040519081529081906020820190565b3461011c57604036600319011261011c5760043560243567ffffffffffffffff811161011c57610a4e903690600401610453565b90918115610435575f52600160205260405f209067ffffffffffffffff81116105f757610a8581610a7f8454610b4e565b84610c91565b5f601f8211600114610ac2578190610ab393945f92610ab7575b50508160011b915f199060031b1c19161790565b9055005b013590505f80610a9f565b601f19821693610ad5845f5260205f2090565b915f5b868110610b0e5750836001959610610af5575b505050811b019055005b01355f19600384901b60f8161c191690555f8080610aeb565b90926020600181928686013581550194019101610ad8565b3461011c575f36600319011261011c576005546040516001600160a01b039091168152602090f35b90600182811c92168015610b7c575b6020831014610b6857565b634e487b7160e01b5f52602260045260245ffd5b91607f1691610b5d565b3d15610bc0573d9067ffffffffffffffff82116105f75760405191610bb5601f8201601f19166020018461087c565b82523d5f602084013e565b606090565b91906001600160fb1b03811161011c5760051b809282370190565b634e487b7160e01b5f52601160045260245ffd5b60ff039060ff8211610c0257565b610be0565b5f19810191908211610c0257565b9081526040602082018190528101839052606001915f5b818110610c395750505090565b909192602080600192838060a01b03610c5188610203565b168152019401929101610c2c565b90918060409360208452816020850152848401375f828201840152601f01601f1916010190565b6040513d5f823e3d90fd5b919091601f8311610ca2575b505050565b818311610cae57505050565b5f5260205f206020601f830160051c9210610ce7575b81601f9101920160051c03905f5b82811015610c9d575f82820155600101610cd2565b5f9150610cc4565b6001600160a01b03165f90815260046020526040902054606413610d0f57565b632f3424c160e01b5f5260045ffd5b600160ff1b8114610c02575f0390565b90603282029180830560321490151715610c0257565b81810292915f8212600160ff1b821416610c02578184051490151715610c0257565b600a1e60ff0360ff8111610c0257610d82610d8a91600a610d44565b610100900590565b6001600160a01b0382165f908152600460205260409020805491808301925f8285129112908015821691151617610c0257919055604080516001600160a01b038416815260208101929092527f21b93f5364d09d606ec33450e45ad2e33958e3dac6c4f771ed1218f1eca47db591a16001600160a01b0381165f9081526004602052604081205412610e195750565b6001600160a01b0381165f908152600460205260408120557f4ed05e9673c26d2ed44f7ef6a7f2942df0ee3b5e1e17db4b99f9dcd261a339cd90610e6f610e68610e63600a610d1e565b610d2e565b6064900590565b604080516001600160a01b03939093168352602083019190915290a1565b90610e978261089e565b610ea4604051918261087c565b8281528092610eb5601f199161089e565b0190602036910137565b805115610ecc5760200190565b610739565b8051821015610ecc5760209160051b010190565b5f198114610c025760010190565b91906001830191610f05835460ff1690565b61072a57610f138251610e8d565b915f915f5b8251811015610faf5780610f5a610f41610f3460019487610ed1565b516001600160a01b031690565b6001600160a01b03165f90815260208a90526040902090565b610f6f610f6b600283015460ff1690565b1590565b610fa75782610f8a910154610f84811e610bf4565b906111d1565b610f9d610f9687610ee5565b9688610ed1565b5201945b94610f18565b500194610fa1565b5094509091821561071b57610fc383610e8d565b5f5b8481106111b2575080610fda610fe9926111f7565b610fe385610c07565b90610ed1565b5192610ff58351610e8d565b925f925f5b8381106111605750505050801561071b5760018111156111095761010091611024610f3482610ebf565b925f5b8381106110a15750508454610100600160a81b031916600884901b610100600160a81b0316179094555091507f15bff754355d68fa38fb3ca8459829a807947cbf186c0f47d283d8dbbfcad5689061109b905b604080516001600160a01b0386168152602081019290925290918291820190565b0390a190565b6110ae610f348285610ed1565b6040516110da816103cb6020820194856014916bffffffffffffffffffffffff199060601b1681520190565b5190201e8281106110ef575b50600101611027565b915093506001611102610f348685610ed1565b94906110e6565b507f15bff754355d68fa38fb3ca8459829a807947cbf186c0f47d283d8dbbfcad5689161107a61113e610f3461109b94610ebf565b8554610100600160a81b031916600882901b610100600160a81b031617909555565b808761116e60019385610ed1565b511461117b575b01610ffa565b6111ad61118b610f348387610ed1565b61119e61119789610ee5565b988a610ed1565b6001600160a01b039091169052565b611175565b806111bf60019285610ed1565b516111ca8285610ed1565b5201610fc5565b818102918183041490151760081b156111ea5760081c90565b63ad251c275f526004601cfd5b8051905f81528160051b81019260208201935b60208501918183116112595782519580518781111561124c575b6020820152601f1901805187811161122457506020909691949295939601525b91909261120a565b5050929093919450611244565b945050505256fe60808060405234601357604b908160188239f35b5f80fdfe346011575f80808080355af415601157005b5f80fdfea2646970667358221220110200cfb6b1531540a776ba8fc7794878d17f490b22abb54aa0cff2bb1d82a864736f6c63430008210033a2646970667358221220c84a668f5fca607993d39496e67221b74b39371c4b5c43214eae680aac3e96d864736f6c63430008210033","linkReferences":{}},"assembly":"    /* \"contracts/InstitutionalSolverCore.sol\":6941:11818  contract HybridExecutionCore {... */\n  mstore(0x40, 0xa0)\n  jumpi(tag_17, callvalue)\n  bytecodeSize\n  dup1\n  codesize\n  sub\n  dup1\n  tag_5\n  dup2\n  tag_1\n  jump\t// in\ntag_5:\n  swap3\n  dup4\n  codecopy\n  dup2\n  add\n  0x60\n  dup3\n  dup3\n  sub\n  slt\n  tag_17\n  jumpi\n  tag_8\n  dup3\n  tag_2\n  jump\t// in\ntag_8:\n  swap2\n  tag_9\n  0x20\n  dup3\n  add\n  tag_2\n  jump\t// in\ntag_9:\n  0x40\n  dup3\n  add\n  mload\n  swap1\n  swap2\n  sub(shl(0x40, 0x01), 0x01)\n  dup3\n  gt\n  tag_17\n  jumpi\n  add\n  swap3\n  dup3\n  0x1f\n  dup6\n  add\n  slt\n  iszero\n  tag_17\n  jumpi\n  dup4\n  mload\n  swap3\n  sub(shl(0x40, 0x01), 0x01)\n  dup5\n  gt\n  tag_24\n  jumpi\n  dup4\n  0x05\n  shl\n  swap5\n  0x20\n  tag_16\n  dup2\n  dup9\n  add\n  tag_1\n  jump\t// in\ntag_16:\n  dup1\n  swap7\n  dup2\n  mstore\n  add\n  swap1\n  0x20\n  dup3\n  swap8\n  dup3\n  add\n  add\n  swap3\n  dup4\n  gt\n  tag_17\n  jumpi\n  0x20\n  add\n  swap1\ntag_19:\n  dup3\n  dup3\n  lt\n  tag_20\n  jumpi\n  pop\n  pop\n    /* \"contracts/InstitutionalSolverCore.sol\":7370:7371  1 */\n  0x01\n  0x00\n    /* \"contracts/InstitutionalSolverCore.sol\":6941:11818  contract HybridExecutionCore {... */\n  sstore\n  pop\n    /* \"contracts/InstitutionalSolverCore.sol\":8082:8092  msg.sender */\n  caller\n    /* \"contracts/InstitutionalSolverCore.sol\":8074:8092  owner = msg.sender */\n  0x80\n  mstore\n    /* \"contracts/InstitutionalSolverCore.sol\":6941:11818  contract HybridExecutionCore {... */\n  0x05\n  dup1\n  sload\n  sub(shl(0xa0, 0x01), 0x01)\n  swap3\n  dup4\n  and\n  not(sub(shl(0xa0, 0x01), 0x01))\n  swap2\n  dup3\n  and\n  or\n  swap1\n  swap2\n  sstore\n    /* \"contracts/InstitutionalSolverCore.sol\":8136:8158  paymaster = _paymaster */\n  0x06\n    /* \"contracts/InstitutionalSolverCore.sol\":6941:11818  contract HybridExecutionCore {... */\n  dup1\n  sload\n  swap4\n  swap1\n  swap3\n  and\n  swap3\n  and\n  swap2\n  swap1\n  swap2\n  or\n  swap1\n  sstore\n  mload\n  swap1\n  sub(shl(0x40, 0x01), 0x01)\n  dup3\n  gt\n  tag_24\n  jumpi\n  0x010000000000000000\n  dup3\n  gt\n  tag_24\n  jumpi\n    /* \"contracts/InstitutionalSolverCore.sol\":8168:8199  flashloanProviders = _providers */\n  0x07\n    /* \"contracts/InstitutionalSolverCore.sol\":6941:11818  contract HybridExecutionCore {... */\n  sload\n  dup3\n    /* \"contracts/InstitutionalSolverCore.sol\":8168:8199  flashloanProviders = _providers */\n  0x07\n    /* \"contracts/InstitutionalSolverCore.sol\":6941:11818  contract HybridExecutionCore {... */\n  sstore\n  dup1\n  dup4\n  lt\n  tag_26\n  jumpi\ntag_27:\n  pop\n  swap1\n    /* \"contracts/InstitutionalSolverCore.sol\":8168:8199  flashloanProviders = _providers */\n  0x07\n  0x00\n    /* \"contracts/InstitutionalSolverCore.sol\":6941:11818  contract HybridExecutionCore {... */\n  mstore\n  keccak256(0x00, 0x20)\n  swap2\n  0x00\ntag_28:\n  dup3\n  dup2\n  lt\n  tag_29\n  jumpi\n  mload(0x40)\n  dataSize(sub_0)\n  swap1\n  dup2\n  dataOffset(sub_0)\n  dup3\n  codecopy\n    /* \"contracts/InstitutionalSolverCore.sol\":8074:8092  owner = msg.sender */\n  0x80\n    /* \"contracts/InstitutionalSolverCore.sol\":6941:11818  contract HybridExecutionCore {... */\n  mload\n  dup2\n  assignImmutable(\"0x5063e0521c7757a27ce267dda4b4ef99f913255ee4beb729e7bc61c1f65de8b3\")\n  return\ntag_29:\n  dup2\n  mload\n  sub(shl(0xa0, 0x01), 0x01)\n  and\n  dup2\n  dup6\n  add\n  sstore\n  0x20\n  swap1\n  swap2\n  add\n  swap1\n    /* \"contracts/InstitutionalSolverCore.sol\":7370:7371  1 */\n  0x01\n    /* \"contracts/InstitutionalSolverCore.sol\":6941:11818  contract HybridExecutionCore {... */\n  add\n  jump(tag_28)\ntag_26:\n    /* \"contracts/InstitutionalSolverCore.sol\":8168:8199  flashloanProviders = _providers */\n  0x07\n  0x00\n    /* \"contracts/InstitutionalSolverCore.sol\":6941:11818  contract HybridExecutionCore {... */\n  mstore\n  dup3\n  dup1\n  keccak256(0x00, 0x20)\n  add\n  swap2\n  sub\n  swap1\n  0x00\ntag_31:\n  dup3\n  dup2\n  lt\n  tag_32\n  jumpi\n  pop\n  pop\n  jump(tag_27)\ntag_32:\n  0x00\n  dup3\n  dup3\n  add\n  sstore\n    /* \"contracts/InstitutionalSolverCore.sol\":7370:7371  1 */\n  0x01\n    /* \"contracts/InstitutionalSolverCore.sol\":6941:11818  contract HybridExecutionCore {... */\n  add\n  jump(tag_31)\ntag_24:\n  mstore(0x00, shl(0xe0, 0x4e487b71))\n  mstore(0x04, 0x41)\n  revert(0x00, 0x24)\ntag_20:\n  0x20\n  dup1\n  swap2\n  tag_34\n  dup5\n  tag_2\n  jump\t// in\ntag_34:\n  dup2\n  mstore\n  add\n  swap2\n  add\n  swap1\n  jump(tag_19)\ntag_17:\n  0x00\n  dup1\n  revert\ntag_1:\n  mload(0x40)\n  swap2\n  swap1\n  0x1f\n  add\n  not(0x1f)\n  and\n  dup3\n  add\n  sub(shl(0x40, 0x01), 0x01)\n  dup2\n  gt\n  dup4\n  dup3\n  lt\n  or\n  tag_24\n  jumpi\n  0x40\n  mstore\n  jump\t// out\ntag_2:\n  mload\n  swap1\n  sub(shl(0xa0, 0x01), 0x01)\n  dup3\n  and\n  dup3\n  sub\n  tag_17\n  jumpi\n  jump\t// out\nstop\n\nsub_0: assembly {\n        /* \"contracts/InstitutionalSolverCore.sol\":6941:11818  contract HybridExecutionCore {... */\n      mstore(0x40, 0x80)\n      jumpi(tag_71, iszero(lt(calldatasize, 0x04)))\n      0x00\n      dup1\n      revert\n    tag_71:\n      shr(0xe0, calldataload(0x00))\n      dup1\n      0x16e4cbf9\n      eq\n      tag_73\n      jumpi\n      dup1\n      0x1edc8f91\n      eq\n      tag_75\n      jumpi\n      dup1\n      0x236ed8f3\n      eq\n      tag_77\n      jumpi\n      dup1\n      0x268968e5\n      eq\n      tag_79\n      jumpi\n      dup1\n      0x424f84a7\n      eq\n      tag_81\n      jumpi\n      dup1\n      0x4c25f931\n      eq\n      tag_83\n      jumpi\n      dup1\n      0x4d380a0d\n      eq\n      tag_85\n      jumpi\n      dup1\n      0x58ad27bf\n      eq\n      tag_87\n      jumpi\n      dup1\n      0x8da5cb5b\n      eq\n      tag_89\n      jumpi\n      dup1\n      0x9468cb61\n      eq\n      tag_91\n      jumpi\n      dup1\n      0x97ae02af\n      eq\n      tag_93\n      jumpi\n      dup1\n      0xaffcdf4b\n      eq\n      tag_95\n      jumpi\n      dup1\n      0xd00d3b31\n      eq\n      tag_97\n      jumpi\n      0xd6df096d\n      eq\n      tag_99\n      jumpi\n      0x00\n      dup1\n      revert\n    tag_99:\n      tag_29\n      jump\t// in\n    tag_97:\n      tag_28\n      jump\t// in\n    tag_95:\n      tag_27\n      jump\t// in\n    tag_93:\n      tag_25\n      jump\t// in\n    tag_91:\n      tag_21\n      jump\t// in\n    tag_89:\n      tag_20\n      jump\t// in\n    tag_87:\n      tag_19\n      jump\t// in\n    tag_85:\n      tag_16\n      jump\t// in\n    tag_83:\n      tag_14\n      jump\t// in\n    tag_81:\n      tag_12\n      jump\t// in\n    tag_79:\n      tag_10\n      jump\t// in\n    tag_77:\n      tag_7\n      jump\t// in\n    tag_75:\n      tag_6\n      jump\t// in\n    tag_73:\n      jumpi(tag_103, callvalue)\n      jumpi(tag_103, slt(add(not(0x03), calldatasize), 0x00))\n        /* \"contracts/InstitutionalSolverCore.sol\":7646:7670  address public paymaster */\n      0x06\n        /* \"contracts/InstitutionalSolverCore.sol\":6941:11818  contract HybridExecutionCore {... */\n      sload\n      mload(0x40)\n      sub(shl(0xa0, 0x01), 0x01)\n      swap1\n      swap2\n      and\n      dup2\n      mstore\n      0x20\n      swap1\n      return\n    tag_103:\n      0x00\n      dup1\n      revert\n    tag_6:\n      jumpi(tag_103, callvalue)\n      jumpi(tag_103, slt(add(not(0x03), calldatasize), 0x20))\n      calldataload(0x04)\n        /* \"contracts/InstitutionalSolverCore.sol\":7767:7772  owner */\n      immutable(\"0x5063e0521c7757a27ce267dda4b4ef99f913255ee4beb729e7bc61c1f65de8b3\")\n      sub(shl(0xa0, 0x01), 0x01)\n        /* \"contracts/InstitutionalSolverCore.sol\":6941:11818  contract HybridExecutionCore {... */\n      and\n        /* \"contracts/InstitutionalSolverCore.sol\":7753:7763  msg.sender */\n      caller\n        /* \"contracts/InstitutionalSolverCore.sol\":7753:7772  msg.sender != owner */\n      sub\n        /* \"contracts/InstitutionalSolverCore.sol\":7749:7795  if (msg.sender != owner) revert Unauthorized() */\n      tag_109\n      jumpi\n      0x00\n        /* \"contracts/InstitutionalSolverCore.sol\":6941:11818  contract HybridExecutionCore {... */\n      mstore\n        /* \"contracts/InstitutionalSolverCore.sol\":11134:11142  auctions */\n      0x03\n        /* \"contracts/InstitutionalSolverCore.sol\":6941:11818  contract HybridExecutionCore {... */\n      0x20\n      mstore\n        /* \"contracts/InstitutionalSolverCore.sol\":11163:11167  true */\n      0x01\n        /* \"contracts/InstitutionalSolverCore.sol\":6941:11818  contract HybridExecutionCore {... */\n      keccak256(0x00, 0x40)\n        /* \"contracts/InstitutionalSolverCore.sol\":11134:11160  auctions[auctionId].isOpen */\n      add\n        /* \"contracts/InstitutionalSolverCore.sol\":11163:11167  true */\n      0x01\n        /* \"contracts/InstitutionalSolverCore.sol\":6941:11818  contract HybridExecutionCore {... */\n      not(0xff)\n      dup3\n      sload\n      and\n      or\n      swap1\n      sstore\n      0x00\n      dup1\n      return\n        /* \"contracts/InstitutionalSolverCore.sol\":7749:7795  if (msg.sender != owner) revert Unauthorized() */\n    tag_109:\n        /* \"contracts/InstitutionalSolverCore.sol\":7781:7795  Unauthorized() */\n      mstore(0x00, shl(0xe8, 0x82b429))\n        /* \"contracts/InstitutionalSolverCore.sol\":6941:11818  contract HybridExecutionCore {... */\n      0x04\n      0x00\n        /* \"contracts/InstitutionalSolverCore.sol\":7781:7795  Unauthorized() */\n      revert\n        /* \"contracts/InstitutionalSolverCore.sol\":6941:11818  contract HybridExecutionCore {... */\n    tag_7:\n      jumpi(tag_103, callvalue)\n      jumpi(tag_103, slt(add(not(0x03), calldatasize), 0x20))\n      calldataload(0x04)\n        /* \"contracts/InstitutionalSolverCore.sol\":7767:7772  owner */\n      immutable(\"0x5063e0521c7757a27ce267dda4b4ef99f913255ee4beb729e7bc61c1f65de8b3\")\n      sub(shl(0xa0, 0x01), 0x01)\n        /* \"contracts/InstitutionalSolverCore.sol\":6941:11818  contract HybridExecutionCore {... */\n      and\n        /* \"contracts/InstitutionalSolverCore.sol\":7753:7763  msg.sender */\n      caller\n        /* \"contracts/InstitutionalSolverCore.sol\":7753:7772  msg.sender != owner */\n      sub\n        /* \"contracts/InstitutionalSolverCore.sol\":7749:7795  if (msg.sender != owner) revert Unauthorized() */\n      tag_109\n      jumpi\n      0x00\n        /* \"contracts/InstitutionalSolverCore.sol\":6941:11818  contract HybridExecutionCore {... */\n      swap1\n      dup2\n      mstore\n        /* \"contracts/InstitutionalSolverCore.sol\":11250:11258  auctions */\n      0x03\n        /* \"contracts/InstitutionalSolverCore.sol\":6941:11818  contract HybridExecutionCore {... */\n      0x20\n      mstore\n      0x40\n      swap1\n      keccak256\n        /* \"contracts/InstitutionalSolverCore.sol\":11250:11276  auctions[auctionId].isOpen */\n      0x01\n      add\n        /* \"contracts/InstitutionalSolverCore.sol\":6941:11818  contract HybridExecutionCore {... */\n      dup1\n      sload\n      not(0xff)\n      and\n      swap1\n      sstore\n      stop\n    tag_8:\n      calldataload(0x24)\n      swap1\n      sub(shl(0xa0, 0x01), 0x01)\n      dup3\n      and\n      dup3\n      sub\n      tag_103\n      jumpi\n      jump\t// out\n    tag_9:\n      calldataload\n      swap1\n      sub(shl(0xa0, 0x01), 0x01)\n      dup3\n      and\n      dup3\n      sub\n      tag_103\n      jumpi\n      jump\t// out\n    tag_10:\n      jumpi(tag_103, callvalue)\n      jumpi(tag_103, slt(add(not(0x03), calldatasize), 0x40))\n      calldataload(0x04)\n      tag_126\n      tag_8\n      jump\t// in\n    tag_126:\n      swap1\n        /* \"contracts/InstitutionalSolverCore.sol\":7767:7772  owner */\n      immutable(\"0x5063e0521c7757a27ce267dda4b4ef99f913255ee4beb729e7bc61c1f65de8b3\")\n      sub(shl(0xa0, 0x01), 0x01)\n        /* \"contracts/InstitutionalSolverCore.sol\":6941:11818  contract HybridExecutionCore {... */\n      and\n        /* \"contracts/InstitutionalSolverCore.sol\":7753:7763  msg.sender */\n      caller\n        /* \"contracts/InstitutionalSolverCore.sol\":7753:7772  msg.sender != owner */\n      sub\n        /* \"contracts/InstitutionalSolverCore.sol\":7749:7795  if (msg.sender != owner) revert Unauthorized() */\n      tag_109\n      jumpi\n      0x00\n        /* \"contracts/InstitutionalSolverCore.sol\":6941:11818  contract HybridExecutionCore {... */\n      mstore\n        /* \"contracts/InstitutionalSolverCore.sol\":10621:10628  intents */\n      0x01\n        /* \"contracts/InstitutionalSolverCore.sol\":6941:11818  contract HybridExecutionCore {... */\n      0x20\n      mstore\n      keccak256(0x00, 0x40)\n      swap1\n      mload(0x40)\n      swap2\n      0x00\n      swap1\n      dup1\n      sload\n      swap1\n      tag_129\n      dup3\n      tag_34\n      jump\t// in\n    tag_129:\n      swap2\n        /* \"contracts/InstitutionalSolverCore.sol\":10621:10628  intents */\n      0x01\n        /* \"contracts/InstitutionalSolverCore.sol\":6941:11818  contract HybridExecutionCore {... */\n      dup2\n      and\n      swap1\n        /* \"contracts/InstitutionalSolverCore.sol\":10621:10628  intents */\n      dup2\n      iszero\n      tag_130\n      jumpi\n        /* \"contracts/InstitutionalSolverCore.sol\":6941:11818  contract HybridExecutionCore {... */\n      pop\n      0x01\n      eq\n      tag_132\n      jumpi\n    tag_133:\n        /* \"contracts/InstitutionalSolverCore.sol\":10602:10639  venue.delegatecall(intents[intentId]) */\n      pop\n      pop\n      swap1\n      dup3\n      0x00\n      swap4\n      dup5\n      swap4\n      sub\n      swap2\n      gas\n      delegatecall\n      tag_134\n      tag_35\n      jump\t// in\n    tag_134:\n      pop\n        /* \"contracts/InstitutionalSolverCore.sol\":10653:10661  !success */\n      iszero\n        /* \"contracts/InstitutionalSolverCore.sol\":10649:10687  if (!success) revert ExecutionFailed() */\n      tag_135\n      jumpi\n        /* \"contracts/InstitutionalSolverCore.sol\":6941:11818  contract HybridExecutionCore {... */\n      stop\n        /* \"contracts/InstitutionalSolverCore.sol\":10649:10687  if (!success) revert ExecutionFailed() */\n    tag_135:\n        /* \"contracts/InstitutionalSolverCore.sol\":10670:10687  ExecutionFailed() */\n      mstore(0x00, shl(0xe2, 0x2b3f6d11))\n        /* \"contracts/InstitutionalSolverCore.sol\":6941:11818  contract HybridExecutionCore {... */\n      0x04\n      0x00\n        /* \"contracts/InstitutionalSolverCore.sol\":10670:10687  ExecutionFailed() */\n      revert\n        /* \"contracts/InstitutionalSolverCore.sol\":6941:11818  contract HybridExecutionCore {... */\n    tag_132:\n      swap1\n      swap2\n      pop\n      0x00\n      mstore\n      keccak256(0x00, 0x20)\n      0x00\n      swap1\n    tag_137:\n      dup3\n      dup3\n      lt\n      tag_138\n      jumpi\n      pop\n      pop\n      dup3\n      add\n      dup3\n      0x00\n      jump(tag_133)\n    tag_138:\n        /* \"contracts/InstitutionalSolverCore.sol\":10621:10628  intents */\n      0x01\n        /* \"contracts/InstitutionalSolverCore.sol\":6941:11818  contract HybridExecutionCore {... */\n      dup2\n      0x20\n      swap3\n      sload\n      dup5\n      dup9\n      add\n      mstore\n      add\n      swap2\n      add\n      swap1\n      jump(tag_137)\n    tag_130:\n      not(0xff)\n      and\n      dup7\n      mstore\n      pop\n      pop\n      dup1\n      iszero\n      iszero\n      mul\n      dup4\n      add\n      swap1\n      pop\n      dup3\n      0x00\n      jump(tag_133)\n    tag_11:\n      swap2\n      dup2\n      0x1f\n      dup5\n      add\n      slt\n      iszero\n      tag_103\n      jumpi\n      dup3\n      calldataload\n      swap2\n      0xffffffffffffffff\n      dup4\n      gt\n      tag_103\n      jumpi\n      0x20\n      dup1\n      dup6\n      add\n      swap5\n      dup5\n      0x05\n      shl\n      add\n      add\n      gt\n      tag_103\n      jumpi\n      jump\t// out\n    tag_12:\n      jumpi(tag_103, callvalue)\n      jumpi(tag_103, slt(add(not(0x03), calldatasize), 0x40))\n      calldataload(0x04)\n      0xffffffffffffffff\n      dup2\n      gt\n      tag_103\n      jumpi\n      tag_152\n      swap1\n      calldatasize\n      swap1\n      0x04\n      add\n      tag_11\n      jump\t// in\n    tag_152:\n      swap1\n      calldataload(0x24)\n      0xffffffffffffffff\n      dup2\n      gt\n      tag_103\n      jumpi\n      tag_155\n      swap1\n      calldatasize\n      swap1\n      0x04\n      add\n      tag_11\n      jump\t// in\n    tag_155:\n      swap3\n      swap1\n      swap2\n        /* \"contracts/InstitutionalSolverCore.sol\":7876:7877  2 */\n      0x02\n      0x00\n        /* \"contracts/InstitutionalSolverCore.sol\":6941:11818  contract HybridExecutionCore {... */\n      sload\n        /* \"contracts/InstitutionalSolverCore.sol\":7857:7877  reentrancyGuard == 2 */\n      eq\n        /* \"contracts/InstitutionalSolverCore.sol\":7853:7900  if (reentrancyGuard == 2) revert NonReentrant() */\n      tag_156\n      jumpi\n        /* \"contracts/InstitutionalSolverCore.sol\":7876:7877  2 */\n      0x02\n      0x00\n        /* \"contracts/InstitutionalSolverCore.sol\":6941:11818  contract HybridExecutionCore {... */\n      sstore\n        /* \"contracts/InstitutionalSolverCore.sol\":10055:10089  intentIds.length != solvers.length */\n      dup4\n      dup3\n      sub\n        /* \"contracts/InstitutionalSolverCore.sol\":10051:10113  if (intentIds.length != solvers.length) revert InvalidIntent() */\n      tag_158\n      jumpi\n        /* \"contracts/InstitutionalSolverCore.sol\":10146:10163  60000000 / 200000 */\n      0x012c\n        /* \"contracts/InstitutionalSolverCore.sol\":10127:10163  intentIds.length > 60000000 / 200000 */\n      dup3\n      gt\n        /* \"contracts/InstitutionalSolverCore.sol\":10123:10189  if (intentIds.length > 60000000 / 200000) revert ExecutionFailed() */\n      tag_135\n      jumpi\n        /* \"contracts/InstitutionalSolverCore.sol\":6941:11818  contract HybridExecutionCore {... */\n      dup2\n      tag_162\n        /* \"contracts/InstitutionalSolverCore.sol\":10227:10254  abi.encodePacked(intentIds) */\n      tag_163\n        /* \"contracts/InstitutionalSolverCore.sol\":10283:10318  255 - LibBit.clz_(uint256(rawHash)) */\n      tag_164\n        /* \"contracts/InstitutionalSolverCore.sol\":6941:11818  contract HybridExecutionCore {... */\n      swap4\n      mload(0x40)\n        /* \"contracts/InstitutionalSolverCore.sol\":10227:10254  abi.encodePacked(intentIds) */\n      swap3\n      dup4\n      swap2\n        /* \"contracts/InstitutionalSolverCore.sol\":6941:11818  contract HybridExecutionCore {... */\n      0x20\n        /* \"contracts/InstitutionalSolverCore.sol\":10227:10254  abi.encodePacked(intentIds) */\n      dup4\n      add\n        /* \"contracts/InstitutionalSolverCore.sol\":6941:11818  contract HybridExecutionCore {... */\n      swap6\n      dup7\n      swap2\n      tag_37\n      jump\t// in\n    tag_162:\n        /* \"contracts/InstitutionalSolverCore.sol\":10227:10254  abi.encodePacked(intentIds) */\n      sub\n      not(0x1f)\n      dup2\n      add\n      dup4\n      mstore\n      dup3\n      tag_23\n      jump\t// in\n    tag_163:\n        /* \"contracts/InstitutionalSolverCore.sol\":6941:11818  contract HybridExecutionCore {... */\n      mload\n        /* \"contracts/InstitutionalSolverCore.sol\":10217:10255  keccak256(abi.encodePacked(intentIds)) */\n      swap1\n      keccak256\n        /* \"lib/solady/src/utils/clz/LibBit.sol\":6183:6227  assembly {... */\n      clz\n        /* \"contracts/InstitutionalSolverCore.sol\":10283:10318  255 - LibBit.clz_(uint256(rawHash)) */\n      tag_39\n      jump\t// in\n    tag_164:\n        /* \"contracts/InstitutionalSolverCore.sol\":10333:10346  uint256 i = 0 */\n      swap1\n      0x00\n        /* \"contracts/InstitutionalSolverCore.sol\":10348:10368  i < intentIds.length */\n    tag_165:\n      dup2\n      dup2\n      lt\n      tag_166\n      jumpi\n        /* \"contracts/InstitutionalSolverCore.sol\":6941:11818  contract HybridExecutionCore {... */\n      pop\n      pop\n        /* \"contracts/InstitutionalSolverCore.sol\":10455:10486  BatchExecuted(batchId, solvers) */\n      tag_168\n      0x3c7546ea6213d639e7de5c441a4abe5e41931f976097e9e5db39896bc2f648c5\n        /* \"contracts/InstitutionalSolverCore.sol\":6941:11818  contract HybridExecutionCore {... */\n      swap4\n      mload(0x40)\n        /* \"contracts/InstitutionalSolverCore.sol\":10455:10486  BatchExecuted(batchId, solvers) */\n      swap4\n      dup5\n      swap4\n      dup5\n      tag_41\n      jump\t// in\n    tag_168:\n      sub\n      swap1\n      log1\n        /* \"contracts/InstitutionalSolverCore.sol\":7950:7969  reentrancyGuard = 1 */\n      tag_169\n        /* \"contracts/InstitutionalSolverCore.sol\":6941:11818  contract HybridExecutionCore {... */\n      0x01\n        /* \"contracts/InstitutionalSolverCore.sol\":7857:7872  reentrancyGuard */\n      0x00\n        /* \"contracts/InstitutionalSolverCore.sol\":6941:11818  contract HybridExecutionCore {... */\n      sstore\n      jump\n        /* \"contracts/InstitutionalSolverCore.sol\":7950:7969  reentrancyGuard = 1 */\n    tag_169:\n        /* \"contracts/InstitutionalSolverCore.sol\":6941:11818  contract HybridExecutionCore {... */\n      stop\n        /* \"contracts/InstitutionalSolverCore.sol\":10333:10346  uint256 i = 0 */\n    tag_166:\n        /* \"contracts/InstitutionalSolverCore.sol\":6941:11818  contract HybridExecutionCore {... */\n      0x01\n      add\n        /* \"contracts/InstitutionalSolverCore.sol\":10333:10346  uint256 i = 0 */\n      jump(tag_165)\n        /* \"contracts/InstitutionalSolverCore.sol\":10051:10113  if (intentIds.length != solvers.length) revert InvalidIntent() */\n    tag_158:\n        /* \"contracts/InstitutionalSolverCore.sol\":10098:10113  InvalidIntent() */\n      mstore(0x00, shl(0xe1, 0x3edae5df))\n        /* \"contracts/InstitutionalSolverCore.sol\":6941:11818  contract HybridExecutionCore {... */\n      0x04\n      0x00\n        /* \"contracts/InstitutionalSolverCore.sol\":10098:10113  InvalidIntent() */\n      revert\n        /* \"contracts/InstitutionalSolverCore.sol\":7853:7900  if (reentrancyGuard == 2) revert NonReentrant() */\n    tag_156:\n        /* \"contracts/InstitutionalSolverCore.sol\":7886:7900  NonReentrant() */\n      mstore(0x00, shl(0xe1, 0x49cb68ab))\n        /* \"contracts/InstitutionalSolverCore.sol\":6941:11818  contract HybridExecutionCore {... */\n      0x04\n      0x00\n        /* \"contracts/InstitutionalSolverCore.sol\":7886:7900  NonReentrant() */\n      revert\n        /* \"contracts/InstitutionalSolverCore.sol\":6941:11818  contract HybridExecutionCore {... */\n    tag_13:\n      swap2\n      dup2\n      0x1f\n      dup5\n      add\n      slt\n      iszero\n      tag_103\n      jumpi\n      dup3\n      calldataload\n      swap2\n      0xffffffffffffffff\n      dup4\n      gt\n      tag_103\n      jumpi\n      0x20\n      dup4\n      dup2\n      dup7\n      add\n      swap6\n      add\n      add\n      gt\n      tag_103\n      jumpi\n      jump\t// out\n    tag_14:\n      jumpi(tag_103, callvalue)\n      jumpi(tag_103, slt(add(not(0x03), calldatasize), 0x60))\n      calldataload(0x04)\n      tag_181\n      tag_8\n      jump\t// in\n    tag_181:\n      calldataload(0x44)\n      0xffffffffffffffff\n      dup2\n      gt\n      tag_103\n      jumpi\n      tag_184\n      swap1\n      calldatasize\n      swap1\n      0x04\n      add\n      tag_13\n      jump\t// in\n    tag_184:\n      swap3\n      swap1\n        /* \"contracts/InstitutionalSolverCore.sol\":7876:7877  2 */\n      0x02\n      0x00\n        /* \"contracts/InstitutionalSolverCore.sol\":6941:11818  contract HybridExecutionCore {... */\n      sload\n        /* \"contracts/InstitutionalSolverCore.sol\":7857:7877  reentrancyGuard == 2 */\n      eq\n        /* \"contracts/InstitutionalSolverCore.sol\":7853:7900  if (reentrancyGuard == 2) revert NonReentrant() */\n      tag_156\n      jumpi\n        /* \"contracts/InstitutionalSolverCore.sol\":7876:7877  2 */\n      0x02\n      0x00\n        /* \"contracts/InstitutionalSolverCore.sol\":6941:11818  contract HybridExecutionCore {... */\n      sstore\n        /* \"contracts/InstitutionalSolverCore.sol\":8515:8567  ReputationSystem.gateSolver(reputationState, solver) */\n      tag_187\n      dup4\n      tag_51\n      jump\t// in\n    tag_187:\n        /* \"contracts/InstitutionalSolverCore.sol\":6941:11818  contract HybridExecutionCore {... */\n      0x00\n      dup3\n      dup2\n      mstore\n        /* \"contracts/InstitutionalSolverCore.sol\":7876:7877  2 */\n      0x02\n        /* \"contracts/InstitutionalSolverCore.sol\":6941:11818  contract HybridExecutionCore {... */\n      0x20\n      mstore\n      0x40\n      swap1\n      keccak256\n      sload\n      sub(shl(0xa0, 0x01), 0x01)\n      and\n        /* \"contracts/InstitutionalSolverCore.sol\":8577:8640  if (resolvers[intentId] != address(0)) revert ExecutionFailed() */\n      tag_135\n      jumpi\n        /* \"contracts/InstitutionalSolverCore.sol\":8672:8685  16780000 / 16 */\n      0x1000ae\n        /* \"contracts/InstitutionalSolverCore.sol\":8654:8685  execData.length > 16780000 / 16 */\n      dup5\n      gt\n        /* \"contracts/InstitutionalSolverCore.sol\":8650:8711  if (execData.length > 16780000 / 16) revert ExecutionFailed() */\n      tag_135\n      jumpi\n        /* \"contracts/InstitutionalSolverCore.sol\":8726:8736  zkVerifier */\n      0x05\n        /* \"contracts/InstitutionalSolverCore.sol\":6941:11818  contract HybridExecutionCore {... */\n      sload\n      sub(shl(0xa0, 0x01), 0x01)\n      and\n      dup1\n        /* \"contracts/InstitutionalSolverCore.sol\":8722:8929  if (zkVerifier != address(0)) {... */\n      tag_196\n      jumpi\n        /* \"contracts/InstitutionalSolverCore.sol\":6941:11818  contract HybridExecutionCore {... */\n    tag_197:\n      pop\n      mload(0x40)\n        /* \"contracts/InstitutionalSolverCore.sol\":9181:9199  new EIP7702Proxy() */\n      dataSize(sub_0)\n      dup1\n      dup3\n      add\n      dup3\n      dup2\n      lt\n        /* \"contracts/InstitutionalSolverCore.sol\":6941:11818  contract HybridExecutionCore {... */\n      0xffffffffffffffff\n        /* \"contracts/InstitutionalSolverCore.sol\":9181:9199  new EIP7702Proxy() */\n      dup3\n      gt\n      or\n      tag_198\n      jumpi\n      dup3\n      swap2\n      dataOffset(sub_0)\n      dup4\n      codecopy\n      sub\n      swap1\n      0x00\n      create\n      iszero\n      tag_200\n      jumpi\n      0x00\n        /* \"contracts/InstitutionalSolverCore.sol\":9329:9704  assembly {... */\n      dup5\n      dup2\n      swap3\n      dup2\n        /* \"contracts/InstitutionalSolverCore.sol\":6941:11818  contract HybridExecutionCore {... */\n      0x40\n        /* \"contracts/InstitutionalSolverCore.sol\":9329:9704  assembly {... */\n      mload\n      swap2\n      dup3\n      calldatacopy\n      dup6\n      gas\n      delegatecall\n      returndatasize\n      0x00\n        /* \"contracts/InstitutionalSolverCore.sol\":6941:11818  contract HybridExecutionCore {... */\n      0x40\n        /* \"contracts/InstitutionalSolverCore.sol\":9329:9704  assembly {... */\n      mload\n        /* \"contracts/InstitutionalSolverCore.sol\":6941:11818  contract HybridExecutionCore {... */\n      0x20\n        /* \"contracts/InstitutionalSolverCore.sol\":9329:9704  assembly {... */\n      dup4\n      dup3\n      add\n      add\n        /* \"contracts/InstitutionalSolverCore.sol\":6941:11818  contract HybridExecutionCore {... */\n      0x40\n        /* \"contracts/InstitutionalSolverCore.sol\":9329:9704  assembly {... */\n      mstore\n      returndatacopy\n        /* \"contracts/InstitutionalSolverCore.sol\":9717:9725  !success */\n      iszero\n        /* \"contracts/InstitutionalSolverCore.sol\":9713:9751  if (!success) revert ExecutionFailed() */\n      tag_135\n      jumpi\n        /* \"contracts/InstitutionalSolverCore.sol\":9762:9781  resolvers[intentId] */\n      dup2\n      dup2\n        /* \"contracts/InstitutionalSolverCore.sol\":9805:9854  IntentResolved(intentId, solver, execData.length) */\n      tag_204\n        /* \"contracts/InstitutionalSolverCore.sol\":9864:9926  ReputationSystem.updateReputation(reputationState, solver, 10) */\n      tag_205\n        /* \"contracts/InstitutionalSolverCore.sol\":9762:9781  resolvers[intentId] */\n      swap6\n        /* \"contracts/InstitutionalSolverCore.sol\":9762:9790  resolvers[intentId] = solver */\n      tag_206\n        /* \"contracts/InstitutionalSolverCore.sol\":9762:9781  resolvers[intentId] */\n      dup5\n      tag_207\n        /* \"contracts/InstitutionalSolverCore.sol\":9805:9854  IntentResolved(intentId, solver, execData.length) */\n      0xb5c70dfdfecb7cc39b872e9a3360b1e0a9c6a3bf580ee56cd2eb71664ccd8573\n        /* \"contracts/InstitutionalSolverCore.sol\":9762:9781  resolvers[intentId] */\n      swap8\n        /* \"contracts/InstitutionalSolverCore.sol\":6941:11818  contract HybridExecutionCore {... */\n      0x00\n      mstore\n        /* \"contracts/InstitutionalSolverCore.sol\":7876:7877  2 */\n      0x02\n        /* \"contracts/InstitutionalSolverCore.sol\":6941:11818  contract HybridExecutionCore {... */\n      0x20\n      mstore\n      keccak256(0x00, 0x40)\n      swap1\n      jump\n        /* \"contracts/InstitutionalSolverCore.sol\":9762:9781  resolvers[intentId] */\n    tag_207:\n        /* \"contracts/InstitutionalSolverCore.sol\":6941:11818  contract HybridExecutionCore {... */\n      dup1\n      sload\n      not(sub(shl(0xa0, 0x01), 0x01))\n      and\n      sub(shl(0xa0, 0x01), 0x01)\n      swap1\n      swap3\n      and\n      swap2\n      swap1\n      swap2\n      or\n      swap1\n      sstore\n      jump\n        /* \"contracts/InstitutionalSolverCore.sol\":9762:9790  resolvers[intentId] = solver */\n    tag_206:\n        /* \"contracts/InstitutionalSolverCore.sol\":6941:11818  contract HybridExecutionCore {... */\n      0x40\n      dup1\n      mload\n      swap4\n      dup5\n      mstore\n      sub(shl(0xa0, 0x01), 0x01)\n      swap1\n      swap5\n      and\n      0x20\n      dup5\n      add\n      mstore\n      swap3\n      dup3\n      add\n      swap3\n      swap1\n      swap3\n      mstore\n      swap1\n      dup2\n      swap1\n      0x60\n      dup3\n      add\n      swap1\n      jump\n        /* \"contracts/InstitutionalSolverCore.sol\":9805:9854  IntentResolved(intentId, solver, execData.length) */\n    tag_204:\n      sub\n      swap1\n      log1\n        /* \"contracts/InstitutionalSolverCore.sol\":9864:9926  ReputationSystem.updateReputation(reputationState, solver, 10) */\n      tag_58\n      jump\t// in\n    tag_205:\n        /* \"contracts/InstitutionalSolverCore.sol\":7950:7969  reentrancyGuard = 1 */\n      tag_169\n        /* \"contracts/InstitutionalSolverCore.sol\":6941:11818  contract HybridExecutionCore {... */\n      0x01\n        /* \"contracts/InstitutionalSolverCore.sol\":7857:7872  reentrancyGuard */\n      0x00\n        /* \"contracts/InstitutionalSolverCore.sol\":6941:11818  contract HybridExecutionCore {... */\n      sstore\n      jump\n        /* \"contracts/InstitutionalSolverCore.sol\":9181:9199  new EIP7702Proxy() */\n    tag_200:\n      tag_44\n      jump\t// in\n    tag_198:\n      tag_22\n      jump\t// in\n        /* \"contracts/InstitutionalSolverCore.sol\":8722:8929  if (zkVerifier != address(0)) {... */\n    tag_196:\n      0x00\n        /* \"contracts/InstitutionalSolverCore.sol\":6941:11818  contract HybridExecutionCore {... */\n      dup1\n      swap2\n      mload(0x40)\n      0x20\n        /* \"contracts/InstitutionalSolverCore.sol\":8808:8863  abi.encodeWithSignature(\"verifyProof(bytes)\", execData) */\n      dup2\n      add\n      swap1\n      shl(0xe1, 0x2ae132ff)\n      dup3\n      mstore\n      tag_209\n      dup2\n      tag_162\n      dup12\n      dup10\n        /* \"contracts/InstitutionalSolverCore.sol\":6941:11818  contract HybridExecutionCore {... */\n      0x24\n        /* \"contracts/InstitutionalSolverCore.sol\":8808:8863  abi.encodeWithSignature(\"verifyProof(bytes)\", execData) */\n      dup5\n      add\n      tag_43\n      jump\t// in\n    tag_209:\n        /* \"contracts/InstitutionalSolverCore.sol\":8786:8864  zkVerifier.staticcall(abi.encodeWithSignature(\"verifyProof(bytes)\", execData)) */\n      mload\n      swap2\n      gas\n      staticcall\n      tag_211\n      tag_35\n      jump\t// in\n    tag_211:\n      pop\n        /* \"contracts/InstitutionalSolverCore.sol\":8882:8892  !zkSuccess */\n      iszero\n        /* \"contracts/InstitutionalSolverCore.sol\":8878:8918  if (!zkSuccess) revert ExecutionFailed() */\n      tag_135\n      jumpi\n        /* \"contracts/InstitutionalSolverCore.sol\":8722:8929  if (zkVerifier != address(0)) {... */\n      0x00\n      jump(tag_197)\n        /* \"contracts/InstitutionalSolverCore.sol\":6941:11818  contract HybridExecutionCore {... */\n    tag_16:\n      jumpi(tag_103, callvalue)\n      jumpi(tag_103, slt(add(not(0x03), calldatasize), 0x60))\n      calldataload(0x04)\n      calldataload(0x24)\n      swap1\n      calldataload(0x44)\n      swap1\n      0x00\n      mstore\n        /* \"contracts/InstitutionalSolverCore.sol\":11571:11579  auctions */\n      0x03\n        /* \"contracts/InstitutionalSolverCore.sol\":6941:11818  contract HybridExecutionCore {... */\n      0x20\n      mstore\n      keccak256(0x00, 0x40)\n      tag_221\n        /* \"contracts/InstitutionalSolverCore.sol\":1338:1352  auction.isOpen */\n      0x01\n      dup3\n      add\n        /* \"contracts/InstitutionalSolverCore.sol\":6941:11818  contract HybridExecutionCore {... */\n      sload\n      0xff\n      and\n      swap1\n      jump\n    tag_221:\n        /* \"contracts/InstitutionalSolverCore.sol\":1334:1376  if (auction.isOpen) revert AuctionClosed() */\n      tag_222\n      jumpi\n        /* \"contracts/InstitutionalSolverCore.sol\":11592:11602  msg.sender */\n      caller\n        /* \"contracts/InstitutionalSolverCore.sol\":6941:11818  contract HybridExecutionCore {... */\n      0x00\n      swap1\n      dup2\n      mstore\n      0x20\n      swap2\n      swap1\n      swap2\n      mstore\n      0x40\n      swap1\n      keccak256\n        /* \"contracts/InstitutionalSolverCore.sol\":1438:1450  bid.revealed */\n      swap2\n      0x02\n      dup4\n      add\n        /* \"contracts/InstitutionalSolverCore.sol\":6941:11818  contract HybridExecutionCore {... */\n      swap2\n      tag_225\n      dup4\n      sload\n      0xff\n      and\n      swap1\n      jump\n    tag_225:\n        /* \"contracts/InstitutionalSolverCore.sol\":1434:1471  if (bid.revealed) revert InvalidBid() */\n      tag_230\n      jumpi\n        /* \"contracts/InstitutionalSolverCore.sol\":6941:11818  contract HybridExecutionCore {... */\n      mload(0x40)\n        /* \"contracts/InstitutionalSolverCore.sol\":1495:1524  abi.encodePacked(value, salt) */\n      tag_228\n      dup2\n      tag_162\n        /* \"contracts/InstitutionalSolverCore.sol\":6941:11818  contract HybridExecutionCore {... */\n      0x20\n        /* \"contracts/InstitutionalSolverCore.sol\":1495:1524  abi.encodePacked(value, salt) */\n      dup3\n      add\n      swap5\n      dup7\n      dup7\n        /* \"contracts/InstitutionalSolverCore.sol\":6941:11818  contract HybridExecutionCore {... */\n      swap1\n      swap2\n      0x40\n      swap3\n      dup3\n      mstore\n      0x20\n      dup3\n      add\n      mstore\n      add\n      swap1\n      jump\n        /* \"contracts/InstitutionalSolverCore.sol\":1495:1524  abi.encodePacked(value, salt) */\n    tag_228:\n        /* \"contracts/InstitutionalSolverCore.sol\":6941:11818  contract HybridExecutionCore {... */\n      mload\n        /* \"contracts/InstitutionalSolverCore.sol\":1485:1525  keccak256(abi.encodePacked(value, salt)) */\n      swap1\n      keccak256\n        /* \"contracts/InstitutionalSolverCore.sol\":6941:11818  contract HybridExecutionCore {... */\n      dup4\n      sload\n        /* \"contracts/InstitutionalSolverCore.sol\":1485:1543  keccak256(abi.encodePacked(value, salt)) != bid.commitHash */\n      sub\n        /* \"contracts/InstitutionalSolverCore.sol\":1481:1564  if (keccak256(abi.encodePacked(value, salt)) != bid.commitHash) revert InvalidBid() */\n      tag_230\n      jumpi\n        /* \"contracts/InstitutionalSolverCore.sol\":1607:1626  bid.revealed = true */\n      tag_232\n        /* \"contracts/InstitutionalSolverCore.sol\":1641:1667  BidRevealed(solver, value) */\n      tag_233\n        /* \"contracts/InstitutionalSolverCore.sol\":1574:1589  bid.revealValue */\n      swap3\n      dup3\n        /* \"contracts/InstitutionalSolverCore.sol\":1338:1352  auction.isOpen */\n      0x01\n        /* \"contracts/InstitutionalSolverCore.sol\":1641:1667  BidRevealed(solver, value) */\n      0x9891bd98143d5a2c5f29be9a7ef8e5d7b723746fb3b75220234af7aa6caeecfe\n        /* \"contracts/InstitutionalSolverCore.sol\":1574:1589  bid.revealValue */\n      swap7\n      add\n        /* \"contracts/InstitutionalSolverCore.sol\":6941:11818  contract HybridExecutionCore {... */\n      sstore\n        /* \"contracts/InstitutionalSolverCore.sol\":1338:1352  auction.isOpen */\n      0x01\n        /* \"contracts/InstitutionalSolverCore.sol\":6941:11818  contract HybridExecutionCore {... */\n      not(0xff)\n      dup3\n      sload\n      and\n      or\n      swap1\n      sstore\n      jump\n        /* \"contracts/InstitutionalSolverCore.sol\":1607:1626  bid.revealed = true */\n    tag_232:\n        /* \"contracts/InstitutionalSolverCore.sol\":6941:11818  contract HybridExecutionCore {... */\n      0x40\n      dup1\n      mload\n        /* \"contracts/InstitutionalSolverCore.sol\":11592:11602  msg.sender */\n      caller\n        /* \"contracts/InstitutionalSolverCore.sol\":6941:11818  contract HybridExecutionCore {... */\n      dup2\n      mstore\n      0x20\n      dup2\n      add\n      swap3\n      swap1\n      swap3\n      mstore\n      swap1\n      swap2\n      dup3\n      swap2\n      dup3\n      add\n      swap1\n      jump\n        /* \"contracts/InstitutionalSolverCore.sol\":1641:1667  BidRevealed(solver, value) */\n    tag_233:\n      sub\n      swap1\n      log1\n        /* \"contracts/InstitutionalSolverCore.sol\":6941:11818  contract HybridExecutionCore {... */\n      stop\n        /* \"contracts/InstitutionalSolverCore.sol\":1481:1564  if (keccak256(abi.encodePacked(value, salt)) != bid.commitHash) revert InvalidBid() */\n    tag_230:\n        /* \"contracts/InstitutionalSolverCore.sol\":1459:1471  InvalidBid() */\n      shl(0xe0, 0xc6388ef7)\n      0x00\n        /* \"contracts/InstitutionalSolverCore.sol\":1552:1564  InvalidBid() */\n      mstore\n        /* \"contracts/InstitutionalSolverCore.sol\":6941:11818  contract HybridExecutionCore {... */\n      0x04\n      0x00\n        /* \"contracts/InstitutionalSolverCore.sol\":1552:1564  InvalidBid() */\n      revert\n        /* \"contracts/InstitutionalSolverCore.sol\":1334:1376  if (auction.isOpen) revert AuctionClosed() */\n    tag_222:\n        /* \"contracts/InstitutionalSolverCore.sol\":1361:1376  AuctionClosed() */\n      mstore(0x00, shl(0xe0, 0x36b6b46d))\n        /* \"contracts/InstitutionalSolverCore.sol\":6941:11818  contract HybridExecutionCore {... */\n      0x04\n      0x00\n        /* \"contracts/InstitutionalSolverCore.sol\":1361:1376  AuctionClosed() */\n      revert\n        /* \"contracts/InstitutionalSolverCore.sol\":6941:11818  contract HybridExecutionCore {... */\n    tag_17:\n      mstore(0x00, shl(0xe0, 0x4e487b71))\n      mstore(0x04, 0x32)\n      revert(0x00, 0x24)\n    tag_19:\n      jumpi(tag_103, callvalue)\n      jumpi(tag_103, slt(add(not(0x03), calldatasize), 0x20))\n      calldataload(0x04)\n        /* \"contracts/InstitutionalSolverCore.sol\":7676:7711  address[] public flashloanProviders */\n      0x07\n        /* \"contracts/InstitutionalSolverCore.sol\":6941:11818  contract HybridExecutionCore {... */\n      sload\n        /* \"contracts/InstitutionalSolverCore.sol\":7676:7711  address[] public flashloanProviders */\n      dup2\n      lt\n      iszero\n      tag_103\n      jumpi\n      0x07\n      0x00\n        /* \"contracts/InstitutionalSolverCore.sol\":6941:11818  contract HybridExecutionCore {... */\n      mstore\n      0xa66cc928b5edb82af9bd49922954155ab7b0942694bea4ce44661d9a8736c688\n      add\n      sload\n      mload(0x40)\n      sub(shl(0xa0, 0x01), 0x01)\n      swap1\n      swap2\n      and\n      dup2\n      mstore\n      0x20\n      swap1\n      return\n    tag_20:\n      jumpi(tag_103, callvalue)\n      jumpi(tag_103, slt(add(not(0x03), calldatasize), 0x00))\n      mload(0x40)\n        /* \"contracts/InstitutionalSolverCore.sol\":7300:7330  address public immutable owner */\n      immutable(\"0x5063e0521c7757a27ce267dda4b4ef99f913255ee4beb729e7bc61c1f65de8b3\")\n      sub(shl(0xa0, 0x01), 0x01)\n        /* \"contracts/InstitutionalSolverCore.sol\":6941:11818  contract HybridExecutionCore {... */\n      and\n      dup2\n      mstore\n      0x20\n      swap1\n      return\n    tag_21:\n      jumpi(tag_103, callvalue)\n      jumpi(tag_103, slt(add(not(0x03), calldatasize), 0x40))\n      calldataload(0x04)\n      calldataload(0x24)\n      swap1\n      0x00\n      mstore\n        /* \"contracts/InstitutionalSolverCore.sol\":11401:11409  auctions */\n      0x03\n        /* \"contracts/InstitutionalSolverCore.sol\":6941:11818  contract HybridExecutionCore {... */\n      0x20\n      mstore\n      keccak256(0x00, 0x40)\n      0xff\n        /* \"contracts/InstitutionalSolverCore.sol\":1069:1083  auction.isOpen */\n      0x01\n      dup3\n      add\n        /* \"contracts/InstitutionalSolverCore.sol\":6941:11818  contract HybridExecutionCore {... */\n      sload\n      and\n        /* \"contracts/InstitutionalSolverCore.sol\":1068:1083  !auction.isOpen */\n      iszero\n        /* \"contracts/InstitutionalSolverCore.sol\":1064:1107  if (!auction.isOpen) revert AuctionClosed() */\n      tag_222\n      jumpi\n        /* \"contracts/InstitutionalSolverCore.sol\":11422:11432  msg.sender */\n      dup2\n        /* \"contracts/InstitutionalSolverCore.sol\":1176:1208  BidCommitted(solver, commitHash) */\n      0x4993d1a01dd11fa6de1acf5952a36cf1b3f02f1fa3e764d14aa461230ec02eb0\n        /* \"contracts/InstitutionalSolverCore.sol\":11422:11432  msg.sender */\n      swap3\n        /* \"contracts/InstitutionalSolverCore.sol\":1117:1137  auction.bids[solver] */\n      tag_251\n        /* \"contracts/InstitutionalSolverCore.sol\":6941:11818  contract HybridExecutionCore {... */\n      0x40\n        /* \"contracts/InstitutionalSolverCore.sol\":11422:11432  msg.sender */\n      swap4\n      caller\n        /* \"contracts/InstitutionalSolverCore.sol\":6941:11818  contract HybridExecutionCore {... */\n      0x01\n      dup1\n      0xa0\n      shl\n      sub\n      and\n      0x00\n      mstore\n      0x20\n      mstore\n      keccak256(0x00, 0x40)\n      swap1\n      jump\n        /* \"contracts/InstitutionalSolverCore.sol\":1117:1137  auction.bids[solver] */\n    tag_251:\n        /* \"contracts/InstitutionalSolverCore.sol\":6941:11818  contract HybridExecutionCore {... */\n      sstore\n      dup2\n      mload\n        /* \"contracts/InstitutionalSolverCore.sol\":11422:11432  msg.sender */\n      swap1\n      caller\n        /* \"contracts/InstitutionalSolverCore.sol\":6941:11818  contract HybridExecutionCore {... */\n      dup3\n      mstore\n      0x20\n      dup3\n      add\n      mstore\n        /* \"contracts/InstitutionalSolverCore.sol\":1176:1208  BidCommitted(solver, commitHash) */\n      log1\n        /* \"contracts/InstitutionalSolverCore.sol\":6941:11818  contract HybridExecutionCore {... */\n      stop\n    tag_22:\n      mstore(0x00, shl(0xe0, 0x4e487b71))\n      mstore(0x04, 0x41)\n      revert(0x00, 0x24)\n    tag_23:\n      swap1\n      0x1f\n        /* \"contracts/InstitutionalSolverCore.sol\":10227:10254  abi.encodePacked(intentIds) */\n      dup1\n      not\n        /* \"contracts/InstitutionalSolverCore.sol\":6941:11818  contract HybridExecutionCore {... */\n      swap2\n      add\n      and\n      dup2\n      add\n      swap1\n      dup2\n      lt\n      0xffffffffffffffff\n      dup3\n      gt\n      or\n      tag_198\n      jumpi\n      0x40\n      mstore\n      jump\t// out\n    tag_24:\n      0xffffffffffffffff\n      dup2\n      gt\n      tag_198\n      jumpi\n      0x05\n      shl\n      0x20\n      add\n      swap1\n      jump\t// out\n    tag_25:\n      jumpi(tag_103, callvalue)\n      jumpi(tag_103, slt(add(not(0x03), calldatasize), 0x40))\n      calldataload(0x24)\n      calldataload(0x04)\n      0xffffffffffffffff\n      dup3\n      gt\n      tag_103\n      jumpi\n      calldatasize\n      0x23\n      dup4\n      add\n      slt\n      iszero\n      tag_103\n      jumpi\n      dup2\n      0x04\n      add\n      calldataload\n      swap2\n      tag_265\n      dup4\n      tag_24\n      jump\t// in\n    tag_265:\n      swap3\n      tag_266\n      mload(0x40)\n      swap5\n      dup6\n      tag_23\n      jump\t// in\n    tag_266:\n      dup1\n      dup5\n      mstore\n      0x24\n      0x20\n      dup6\n      add\n      swap2\n      0x05\n      shl\n      dup4\n      add\n      add\n      swap2\n      calldatasize\n      dup4\n      gt\n      tag_103\n      jumpi\n      0x24\n      add\n      swap1\n    tag_269:\n      dup3\n      dup3\n      lt\n      tag_270\n      jumpi\n      tag_272\n        /* \"contracts/InstitutionalSolverCore.sol\":11748:11808  AuctionEconomics.settleAuction(auctions[auctionId], solvers) */\n      tag_273\n        /* \"contracts/InstitutionalSolverCore.sol\":11779:11798  auctions[auctionId] */\n      dup7\n      tag_274\n      dup8\n        /* \"contracts/InstitutionalSolverCore.sol\":6941:11818  contract HybridExecutionCore {... */\n      0x00\n      mstore\n        /* \"contracts/InstitutionalSolverCore.sol\":11779:11787  auctions */\n      0x03\n        /* \"contracts/InstitutionalSolverCore.sol\":6941:11818  contract HybridExecutionCore {... */\n      0x20\n      mstore\n      keccak256(0x00, 0x40)\n      swap1\n      jump\n        /* \"contracts/InstitutionalSolverCore.sol\":11779:11798  auctions[auctionId] */\n    tag_274:\n        /* \"contracts/InstitutionalSolverCore.sol\":11748:11808  AuctionEconomics.settleAuction(auctions[auctionId], solvers) */\n      tag_68\n      jump\t// in\n    tag_273:\n        /* \"contracts/InstitutionalSolverCore.sol\":6941:11818  contract HybridExecutionCore {... */\n      mload(0x40)\n      sub(shl(0xa0, 0x01), 0x01)\n      swap1\n      swap2\n      and\n      dup2\n      mstore\n      swap1\n      dup2\n      swap1\n      0x20\n      dup3\n      add\n      swap1\n      jump\n    tag_272:\n      sub\n      swap1\n      return\n    tag_270:\n      0x20\n      dup1\n      swap2\n      tag_275\n      dup5\n      tag_9\n      jump\t// in\n    tag_275:\n      dup2\n      mstore\n      add\n      swap2\n      add\n      swap1\n      jump(tag_269)\n    tag_27:\n      jumpi(tag_103, callvalue)\n      jumpi(tag_103, slt(add(not(0x03), calldatasize), 0x20))\n      tag_272\n      calldataload(0x04)\n      dup1\n      0x00\n      mstore\n        /* \"contracts/InstitutionalSolverCore.sol\":10843:10852  resolvers */\n      0x02\n        /* \"contracts/InstitutionalSolverCore.sol\":6941:11818  contract HybridExecutionCore {... */\n      0x20\n      mstore\n      sload(keccak256(0x00, 0x40))\n      mload(0x40)\n        /* \"contracts/InstitutionalSolverCore.sol\":10816:10880  abi.encodePacked(intentId, resolvers[intentId], block.timestamp) */\n      swap1\n        /* \"contracts/InstitutionalSolverCore.sol\":6941:11818  contract HybridExecutionCore {... */\n      0x20\n        /* \"contracts/InstitutionalSolverCore.sol\":10816:10880  abi.encodePacked(intentId, resolvers[intentId], block.timestamp) */\n      dup3\n      add\n        /* \"contracts/InstitutionalSolverCore.sol\":6941:11818  contract HybridExecutionCore {... */\n      swap3\n      dup4\n      mstore\n      not(0xffffffffffffffffffffffff)\n      swap1\n      0x60\n      shl\n      and\n      0x40\n      dup3\n      add\n      mstore\n        /* \"contracts/InstitutionalSolverCore.sol\":10864:10879  block.timestamp */\n      timestamp\n        /* \"contracts/InstitutionalSolverCore.sol\":6941:11818  contract HybridExecutionCore {... */\n      0x54\n      dup3\n      add\n      mstore\n      0x54\n        /* \"contracts/InstitutionalSolverCore.sol\":10816:10880  abi.encodePacked(intentId, resolvers[intentId], block.timestamp) */\n      dup2\n      mstore\n      tag_282\n      0x74\n      dup3\n      tag_23\n      jump\t// in\n    tag_282:\n        /* \"contracts/InstitutionalSolverCore.sol\":6941:11818  contract HybridExecutionCore {... */\n      mload\n        /* \"contracts/InstitutionalSolverCore.sol\":10806:10881  keccak256(abi.encodePacked(intentId, resolvers[intentId], block.timestamp)) */\n      swap1\n      keccak256\n        /* \"contracts/InstitutionalSolverCore.sol\":10970:11015  abi.encodePacked(rawSeal, 255 - leadingZeros) */\n      tag_162\n      tag_284\n        /* \"contracts/InstitutionalSolverCore.sol\":10996:11014  255 - leadingZeros */\n      tag_285\n        /* \"lib/solady/src/utils/clz/LibBit.sol\":6183:6227  assembly {... */\n      dup4\n      clz\n        /* \"contracts/InstitutionalSolverCore.sol\":10996:11014  255 - leadingZeros */\n      tag_39\n      jump\t// in\n    tag_285:\n        /* \"contracts/InstitutionalSolverCore.sol\":6941:11818  contract HybridExecutionCore {... */\n      mload(0x40)\n        /* \"contracts/InstitutionalSolverCore.sol\":10970:11015  abi.encodePacked(rawSeal, 255 - leadingZeros) */\n      swap3\n      dup4\n      swap2\n        /* \"contracts/InstitutionalSolverCore.sol\":6941:11818  contract HybridExecutionCore {... */\n      0x20\n        /* \"contracts/InstitutionalSolverCore.sol\":10970:11015  abi.encodePacked(rawSeal, 255 - leadingZeros) */\n      dup4\n      add\n      swap6\n      dup7\n        /* \"contracts/InstitutionalSolverCore.sol\":6941:11818  contract HybridExecutionCore {... */\n      swap1\n      swap2\n      0x40\n      swap3\n      dup3\n      mstore\n      0x20\n      dup3\n      add\n      mstore\n      add\n      swap1\n      jump\n        /* \"contracts/InstitutionalSolverCore.sol\":10970:11015  abi.encodePacked(rawSeal, 255 - leadingZeros) */\n    tag_284:\n        /* \"contracts/InstitutionalSolverCore.sol\":6941:11818  contract HybridExecutionCore {... */\n      mload\n        /* \"contracts/InstitutionalSolverCore.sol\":10960:11016  keccak256(abi.encodePacked(rawSeal, 255 - leadingZeros)) */\n      swap1\n      keccak256\n        /* \"contracts/InstitutionalSolverCore.sol\":6941:11818  contract HybridExecutionCore {... */\n      mload(0x40)\n      swap1\n      dup2\n      mstore\n      swap1\n      dup2\n      swap1\n      0x20\n      dup3\n      add\n      swap1\n      jump\n    tag_28:\n      jumpi(tag_103, callvalue)\n      jumpi(tag_103, slt(add(not(0x03), calldatasize), 0x40))\n      calldataload(0x04)\n      calldataload(0x24)\n      0xffffffffffffffff\n      dup2\n      gt\n      tag_103\n      jumpi\n      tag_293\n      swap1\n      calldatasize\n      swap1\n      0x04\n      add\n      tag_13\n      jump\t// in\n    tag_293:\n        /* \"contracts/InstitutionalSolverCore.sol\":8302:8324  intentData.length == 0 */\n      swap1\n      swap2\n      dup2\n      iszero\n        /* \"contracts/InstitutionalSolverCore.sol\":8298:8348  if (intentData.length == 0) revert InvalidIntent() */\n      tag_158\n      jumpi\n      0x00\n        /* \"contracts/InstitutionalSolverCore.sol\":6941:11818  contract HybridExecutionCore {... */\n      mstore\n        /* \"contracts/InstitutionalSolverCore.sol\":8358:8365  intents */\n      0x01\n        /* \"contracts/InstitutionalSolverCore.sol\":6941:11818  contract HybridExecutionCore {... */\n      0x20\n      mstore\n      keccak256(0x00, 0x40)\n      swap1\n      0xffffffffffffffff\n      dup2\n      gt\n      tag_198\n      jumpi\n      tag_298\n      dup2\n      tag_299\n      dup5\n      sload\n      tag_34\n      jump\t// in\n    tag_299:\n      dup5\n      tag_48\n      jump\t// in\n    tag_298:\n      0x00\n      0x1f\n      dup3\n      gt\n      0x01\n      eq\n      tag_300\n      jumpi\n      dup2\n      swap1\n      tag_302\n      swap4\n      swap5\n      0x00\n      swap3\n      tag_303\n      jumpi\n    tag_304:\n      pop\n      pop\n      dup2\n      0x01\n      shl\n      swap2\n      not(0x00)\n      swap1\n      0x03\n      shl\n      shr\n      not\n      and\n      or\n      swap1\n      jump\n    tag_302:\n      swap1\n      sstore\n      stop\n    tag_303:\n      add\n      calldataload\n      swap1\n      pop\n      0x00\n      dup1\n      jump(tag_304)\n    tag_300:\n        /* \"contracts/InstitutionalSolverCore.sol\":10227:10254  abi.encodePacked(intentIds) */\n      not(0x1f)\n        /* \"contracts/InstitutionalSolverCore.sol\":6941:11818  contract HybridExecutionCore {... */\n      dup3\n      and\n      swap4\n      tag_306\n      dup5\n      0x00\n      mstore\n      keccak256(0x00, 0x20)\n      swap1\n      jump\n    tag_306:\n      swap2\n      0x00\n    tag_307:\n      dup7\n      dup2\n      lt\n      tag_308\n      jumpi\n      pop\n      dup4\n        /* \"contracts/InstitutionalSolverCore.sol\":8358:8365  intents */\n      0x01\n        /* \"contracts/InstitutionalSolverCore.sol\":6941:11818  contract HybridExecutionCore {... */\n      swap6\n      swap7\n      lt\n      tag_310\n      jumpi\n    tag_311:\n      pop\n      pop\n      pop\n      dup2\n      shl\n      add\n      swap1\n      sstore\n      stop\n    tag_310:\n      add\n      calldataload\n      not(0x00)\n      0x03\n      dup5\n      swap1\n      shl\n      0xf8\n      and\n      shr\n      not\n      and\n      swap1\n      sstore\n      0x00\n      dup1\n      dup1\n      jump(tag_311)\n    tag_308:\n      swap1\n      swap3\n      0x20\n        /* \"contracts/InstitutionalSolverCore.sol\":8358:8365  intents */\n      0x01\n        /* \"contracts/InstitutionalSolverCore.sol\":6941:11818  contract HybridExecutionCore {... */\n      dup2\n      swap3\n      dup7\n      dup7\n      add\n      calldataload\n      dup2\n      sstore\n      add\n      swap5\n      add\n      swap2\n      add\n      jump(tag_307)\n    tag_29:\n      jumpi(tag_103, callvalue)\n      jumpi(tag_103, slt(add(not(0x03), calldatasize), 0x00))\n        /* \"contracts/InstitutionalSolverCore.sol\":7615:7640  address public zkVerifier */\n      0x05\n        /* \"contracts/InstitutionalSolverCore.sol\":6941:11818  contract HybridExecutionCore {... */\n      sload\n      mload(0x40)\n      sub(shl(0xa0, 0x01), 0x01)\n      swap1\n      swap2\n      and\n      dup2\n      mstore\n      0x20\n      swap1\n      return\n    tag_34:\n      swap1\n      0x01\n      dup3\n      dup2\n      shr\n      swap3\n      and\n      dup1\n      iszero\n      tag_316\n      jumpi\n    tag_317:\n      0x20\n      dup4\n      lt\n      eq\n      tag_318\n      jumpi\n      jump\t// out\n    tag_318:\n      mstore(0x00, shl(0xe0, 0x4e487b71))\n      mstore(0x04, 0x22)\n      revert(0x00, 0x24)\n    tag_316:\n      swap2\n      0x7f\n      and\n      swap2\n      jump(tag_317)\n    tag_35:\n      jumpi(tag_320, iszero(returndatasize))\n      returndatasize\n      swap1\n      0xffffffffffffffff\n      dup3\n      gt\n      tag_198\n      jumpi\n      mload(0x40)\n      swap2\n      tag_324\n        /* \"contracts/InstitutionalSolverCore.sol\":10227:10254  abi.encodePacked(intentIds) */\n      0x1f\n        /* \"contracts/InstitutionalSolverCore.sol\":6941:11818  contract HybridExecutionCore {... */\n      dup3\n      add\n      not(0x1f)\n      and\n      0x20\n      add\n      dup5\n      tag_23\n      jump\t// in\n    tag_324:\n      dup3\n      mstore\n      returndatasize\n      0x00\n      0x20\n      dup5\n      add\n      returndatacopy\n      jump\t// out\n    tag_320:\n      0x60\n      swap1\n      jump\t// out\n    tag_37:\n      swap2\n      swap1\n      sub(shl(0xfb, 0x01), 0x01)\n      dup2\n      gt\n      tag_103\n      jumpi\n      0x05\n      shl\n      dup1\n      swap3\n      dup3\n      calldatacopy\n      add\n      swap1\n      jump\t// out\n    tag_38:\n      mstore(0x00, shl(0xe0, 0x4e487b71))\n      mstore(0x04, 0x11)\n      revert(0x00, 0x24)\n    tag_39:\n        /* \"contracts/InstitutionalSolverCore.sol\":10283:10286  255 */\n      0xff\n        /* \"contracts/InstitutionalSolverCore.sol\":6941:11818  contract HybridExecutionCore {... */\n      sub\n      swap1\n        /* \"contracts/InstitutionalSolverCore.sol\":10283:10286  255 */\n      0xff\n        /* \"contracts/InstitutionalSolverCore.sol\":6941:11818  contract HybridExecutionCore {... */\n      dup3\n      gt\n      tag_328\n      jumpi\n      jump\t// out\n    tag_328:\n      tag_38\n      jump\t// in\n    tag_40:\n      not(0x00)\n      dup2\n      add\n      swap2\n      swap1\n      dup3\n      gt\n      tag_328\n      jumpi\n      jump\t// out\n    tag_41:\n      swap1\n      dup2\n      mstore\n      0x40\n      0x20\n      dup3\n      add\n      dup2\n      swap1\n      mstore\n      dup2\n      add\n      dup4\n      swap1\n      mstore\n      0x60\n      add\n      swap2\n      0x00\n    tag_332:\n      dup2\n      dup2\n      lt\n      tag_333\n      jumpi\n      pop\n      pop\n      pop\n      swap1\n      jump\t// out\n    tag_333:\n      swap1\n      swap2\n      swap3\n      0x20\n      dup1\n      0x01\n      swap3\n      dup4\n      dup1\n      0xa0\n      shl\n      sub\n      tag_335\n      dup9\n      tag_9\n      jump\t// in\n    tag_335:\n      and\n      dup2\n      mstore\n      add\n      swap5\n      add\n      swap3\n      swap2\n      add\n      jump(tag_332)\n    tag_43:\n      swap1\n      swap2\n      dup1\n      0x40\n      swap4\n      0x20\n      dup5\n      mstore\n      dup2\n      0x20\n      dup6\n      add\n      mstore\n      dup5\n      dup5\n      add\n      calldatacopy\n      0x00\n      dup3\n      dup3\n      add\n      dup5\n      add\n      mstore\n      0x1f\n      add\n      not(0x1f)\n      and\n      add\n      add\n      swap1\n      jump\t// out\n    tag_44:\n      mload(0x40)\n      returndatasize\n      0x00\n      dup3\n      returndatacopy\n      returndatasize\n      swap1\n      revert\n    tag_48:\n      swap2\n      swap1\n      swap2\n      0x1f\n      dup4\n      gt\n      tag_336\n      jumpi\n    tag_337:\n      pop\n      pop\n      pop\n      jump\t// out\n    tag_336:\n      dup2\n      dup4\n      gt\n      tag_338\n      jumpi\n      pop\n      pop\n      pop\n      jump\t// out\n    tag_338:\n      0x00\n      mstore\n      keccak256(0x00, 0x20)\n      0x20\n      0x1f\n      dup4\n      add\n      0x05\n      shr\n      swap3\n      lt\n      tag_340\n      jumpi\n    tag_341:\n      dup2\n      0x1f\n      swap2\n      add\n      swap3\n      add\n      0x05\n      shr\n      sub\n      swap1\n      0x00\n    tag_342:\n      dup3\n      dup2\n      lt\n      iszero\n      tag_337\n      jumpi\n      0x00\n      dup3\n      dup3\n      add\n      sstore\n      0x01\n      add\n      jump(tag_342)\n    tag_340:\n      0x00\n      swap2\n      pop\n      jump(tag_341)\n        /* \"contracts/InstitutionalSolverCore.sol\":5612:5847  function gateSolver(ReputationState storage state, address solver) internal view {... */\n    tag_51:\n      sub(shl(0xa0, 0x01), 0x01)\n        /* \"contracts/InstitutionalSolverCore.sol\":6941:11818  contract HybridExecutionCore {... */\n      and\n      0x00\n      swap1\n      dup2\n      mstore\n      mstore(0x20, 0x04)\n      0x40\n      swap1\n      keccak256\n      sload\n        /* \"contracts/InstitutionalSolverCore.sol\":4737:4740  100 */\n      0x64\n      sgt\n        /* \"contracts/InstitutionalSolverCore.sol\":5761:5840  if (state.reputation[solver] < int256(MIN_REPUTATION)) revert ReputationSlash() */\n      tag_345\n      jumpi\n        /* \"contracts/InstitutionalSolverCore.sol\":5612:5847  function gateSolver(ReputationState storage state, address solver) internal view {... */\n      jump\t// out\n        /* \"contracts/InstitutionalSolverCore.sol\":5761:5840  if (state.reputation[solver] < int256(MIN_REPUTATION)) revert ReputationSlash() */\n    tag_345:\n        /* \"contracts/InstitutionalSolverCore.sol\":5823:5840  ReputationSlash() */\n      mstore(0x00, shl(0xe0, 0x2f3424c1))\n        /* \"contracts/InstitutionalSolverCore.sol\":6941:11818  contract HybridExecutionCore {... */\n      0x04\n      0x00\n        /* \"contracts/InstitutionalSolverCore.sol\":5823:5840  ReputationSlash() */\n      revert\n        /* \"contracts/InstitutionalSolverCore.sol\":6941:11818  contract HybridExecutionCore {... */\n    tag_52:\n      shl(0xff, 0x01)\n      dup2\n      eq\n      tag_328\n      jumpi\n      0x00\n      sub\n      swap1\n      jump\t// out\n    tag_53:\n      swap1\n        /* \"contracts/InstitutionalSolverCore.sol\":4787:4789  50 */\n      0x32\n        /* \"contracts/InstitutionalSolverCore.sol\":6941:11818  contract HybridExecutionCore {... */\n      dup3\n      mul\n      swap2\n      dup1\n      dup4\n      sdiv\n        /* \"contracts/InstitutionalSolverCore.sol\":4787:4789  50 */\n      0x32\n        /* \"contracts/InstitutionalSolverCore.sol\":6941:11818  contract HybridExecutionCore {... */\n      eq\n      swap1\n      iszero\n      or\n      iszero\n      tag_328\n      jumpi\n      jump\t// out\n    tag_54:\n      dup2\n      dup2\n      mul\n      swap3\n      swap2\n      0x00\n      dup3\n      slt\n      shl(0xff, 0x01)\n      dup3\n      eq\n      and\n      tag_328\n      jumpi\n      dup2\n      dup5\n      sdiv\n      eq\n      swap1\n      iszero\n      or\n      iszero\n      tag_328\n      jumpi\n      jump\t// out\n        /* \"contracts/InstitutionalSolverCore.sol\":4879:5606  function updateReputation(ReputationState storage state, address solver, int256 delta) internal {... */\n    tag_58:\n        /* \"contracts/InstitutionalSolverCore.sol\":9923:9925  10 */\n      0x0a\n        /* \"lib/solady/src/utils/clz/LibBit.sol\":6183:6227  assembly {... */\n      clz\n        /* \"contracts/InstitutionalSolverCore.sol\":5122:5125  255 */\n      0xff\n        /* \"contracts/InstitutionalSolverCore.sol\":6941:11818  contract HybridExecutionCore {... */\n      sub\n        /* \"contracts/InstitutionalSolverCore.sol\":5122:5125  255 */\n      0xff\n        /* \"contracts/InstitutionalSolverCore.sol\":6941:11818  contract HybridExecutionCore {... */\n      dup2\n      gt\n      tag_328\n      jumpi\n        /* \"contracts/InstitutionalSolverCore.sol\":5229:5253  delta * int256(logScale) */\n      tag_357\n        /* \"contracts/InstitutionalSolverCore.sol\":5229:5259  delta * int256(logScale) / 256 */\n      tag_358\n        /* \"contracts/InstitutionalSolverCore.sol\":5229:5253  delta * int256(logScale) */\n      swap2\n        /* \"contracts/InstitutionalSolverCore.sol\":9923:9925  10 */\n      0x0a\n        /* \"contracts/InstitutionalSolverCore.sol\":5229:5253  delta * int256(logScale) */\n      tag_54\n      jump\t// in\n    tag_357:\n        /* \"contracts/InstitutionalSolverCore.sol\":5256:5259  256 */\n      0x0100\n        /* \"contracts/InstitutionalSolverCore.sol\":6941:11818  contract HybridExecutionCore {... */\n      swap1\n      sdiv\n      swap1\n      jump\n        /* \"contracts/InstitutionalSolverCore.sol\":5229:5259  delta * int256(logScale) / 256 */\n    tag_358:\n      sub(shl(0xa0, 0x01), 0x01)\n        /* \"contracts/InstitutionalSolverCore.sol\":6941:11818  contract HybridExecutionCore {... */\n      dup3\n      and\n      0x00\n      swap1\n      dup2\n      mstore\n      mstore(0x20, 0x04)\n      0x40\n      swap1\n      keccak256\n      dup1\n      sload\n      swap2\n      dup1\n      dup4\n      add\n      swap3\n        /* \"contracts/InstitutionalSolverCore.sol\":5020:5021  0 */\n      0x00\n        /* \"contracts/InstitutionalSolverCore.sol\":6941:11818  contract HybridExecutionCore {... */\n      dup3\n      dup6\n      slt\n      swap2\n      slt\n      swap1\n      dup1\n      iszero\n      dup3\n      and\n      swap2\n      iszero\n      and\n      or\n      tag_328\n      jumpi\n      swap2\n      swap1\n      sstore\n      0x40\n      dup1\n      mload\n      sub(shl(0xa0, 0x01), 0x01)\n      dup5\n      and\n      dup2\n      mstore\n      0x20\n      dup2\n      add\n      swap3\n      swap1\n      swap3\n      mstore\n        /* \"contracts/InstitutionalSolverCore.sol\":5323:5361  ReputationUpdated(solver, scaledDelta) */\n      0x21b93f5364d09d606ec33450e45ad2e33958e3dac6c4f771ed1218f1eca47db5\n      swap2\n      log1\n      sub(shl(0xa0, 0x01), 0x01)\n        /* \"contracts/InstitutionalSolverCore.sol\":6941:11818  contract HybridExecutionCore {... */\n      dup2\n      and\n        /* \"contracts/InstitutionalSolverCore.sol\":5020:5021  0 */\n      0x00\n        /* \"contracts/InstitutionalSolverCore.sol\":6941:11818  contract HybridExecutionCore {... */\n      swap1\n      dup2\n      mstore\n      mstore(0x20, 0x04)\n      0x40\n      dup2\n      keccak256\n      sload\n        /* \"contracts/InstitutionalSolverCore.sol\":5375:5403  state.reputation[solver] < 0 */\n      slt\n        /* \"contracts/InstitutionalSolverCore.sol\":5371:5600  if (state.reputation[solver] < 0) {... */\n      tag_364\n      jumpi\n        /* \"contracts/InstitutionalSolverCore.sol\":4879:5606  function updateReputation(ReputationState storage state, address solver, int256 delta) internal {... */\n      pop\n      jump\t// out\n        /* \"contracts/InstitutionalSolverCore.sol\":5371:5600  if (state.reputation[solver] < 0) {... */\n    tag_364:\n      sub(shl(0xa0, 0x01), 0x01)\n        /* \"contracts/InstitutionalSolverCore.sol\":6941:11818  contract HybridExecutionCore {... */\n      dup2\n      and\n        /* \"contracts/InstitutionalSolverCore.sol\":5020:5021  0 */\n      0x00\n        /* \"contracts/InstitutionalSolverCore.sol\":6941:11818  contract HybridExecutionCore {... */\n      swap1\n      dup2\n      mstore\n      mstore(0x20, 0x04)\n      0x40\n      dup2\n      keccak256\n      sstore\n        /* \"contracts/InstitutionalSolverCore.sol\":5528:5589  Slashed(solver, uint256(-delta * int256(SLASH_FACTOR) / 100)) */\n      0x4ed05e9673c26d2ed44f7ef6a7f2942df0ee3b5e1e17db4b99f9dcd261a339cd\n      swap1\n        /* \"contracts/InstitutionalSolverCore.sol\":5552:5587  -delta * int256(SLASH_FACTOR) / 100 */\n      tag_367\n        /* \"contracts/InstitutionalSolverCore.sol\":5552:5581  -delta * int256(SLASH_FACTOR) */\n      tag_368\n        /* \"contracts/InstitutionalSolverCore.sol\":5552:5558  -delta */\n      tag_369\n        /* \"contracts/InstitutionalSolverCore.sol\":9923:9925  10 */\n      0x0a\n        /* \"contracts/InstitutionalSolverCore.sol\":5552:5558  -delta */\n      tag_52\n      jump\t// in\n    tag_369:\n        /* \"contracts/InstitutionalSolverCore.sol\":5552:5581  -delta * int256(SLASH_FACTOR) */\n      tag_53\n      jump\t// in\n    tag_368:\n        /* \"contracts/InstitutionalSolverCore.sol\":5584:5587  100 */\n      0x64\n        /* \"contracts/InstitutionalSolverCore.sol\":6941:11818  contract HybridExecutionCore {... */\n      swap1\n      sdiv\n      swap1\n      jump\n        /* \"contracts/InstitutionalSolverCore.sol\":5552:5587  -delta * int256(SLASH_FACTOR) / 100 */\n    tag_367:\n        /* \"contracts/InstitutionalSolverCore.sol\":6941:11818  contract HybridExecutionCore {... */\n      0x40\n      dup1\n      mload\n      sub(shl(0xa0, 0x01), 0x01)\n      swap4\n      swap1\n      swap4\n      and\n      dup4\n      mstore\n      0x20\n      dup4\n      add\n      swap2\n      swap1\n      swap2\n      mstore\n      swap1\n        /* \"contracts/InstitutionalSolverCore.sol\":5528:5589  Slashed(solver, uint256(-delta * int256(SLASH_FACTOR) / 100)) */\n      log1\n        /* \"contracts/InstitutionalSolverCore.sol\":4879:5606  function updateReputation(ReputationState storage state, address solver, int256 delta) internal {... */\n      jump\t// out\n        /* \"contracts/InstitutionalSolverCore.sol\":6941:11818  contract HybridExecutionCore {... */\n    tag_60:\n      swap1\n      tag_371\n      dup3\n      tag_24\n      jump\t// in\n    tag_371:\n      tag_372\n      mload(0x40)\n      swap2\n      dup3\n      tag_23\n      jump\t// in\n    tag_372:\n      dup3\n      dup2\n      mstore\n      dup1\n        /* \"contracts/InstitutionalSolverCore.sol\":10227:10254  abi.encodePacked(intentIds) */\n      swap3\n        /* \"contracts/InstitutionalSolverCore.sol\":6941:11818  contract HybridExecutionCore {... */\n      tag_373\n        /* \"contracts/InstitutionalSolverCore.sol\":10227:10254  abi.encodePacked(intentIds) */\n      not(0x1f)\n        /* \"contracts/InstitutionalSolverCore.sol\":6941:11818  contract HybridExecutionCore {... */\n      swap2\n      tag_24\n      jump\t// in\n    tag_373:\n      add\n      swap1\n      0x20\n      calldatasize\n      swap2\n      add\n      calldatacopy\n      jump\t// out\n    tag_61:\n      dup1\n      mload\n      iszero\n      tag_374\n      jumpi\n      0x20\n      add\n      swap1\n      jump\t// out\n    tag_374:\n      tag_17\n      jump\t// in\n    tag_62:\n      dup1\n      mload\n      dup3\n      lt\n      iszero\n      tag_374\n      jumpi\n      0x20\n      swap2\n      0x05\n      shl\n      add\n      add\n      swap1\n      jump\t// out\n    tag_64:\n      not(0x00)\n      dup2\n      eq\n      tag_328\n      jumpi\n      0x01\n      add\n      swap1\n      jump\t// out\n        /* \"contracts/InstitutionalSolverCore.sol\":1836:4351  function settleAuction(AuctionState storage auction, address[] memory solvers) internal returns (address winner) {... */\n    tag_68:\n      swap2\n      swap1\n        /* \"contracts/InstitutionalSolverCore.sol\":1963:1977  auction.isOpen */\n      0x01\n      dup4\n      add\n        /* \"contracts/InstitutionalSolverCore.sol\":6941:11818  contract HybridExecutionCore {... */\n      swap2\n      tag_380\n      dup4\n      sload\n      0xff\n      and\n      swap1\n      jump\n    tag_380:\n        /* \"contracts/InstitutionalSolverCore.sol\":1959:2001  if (auction.isOpen) revert AuctionClosed() */\n      tag_222\n      jumpi\n        /* \"contracts/InstitutionalSolverCore.sol\":2098:2127  new uint256[](solvers.length) */\n      tag_383\n        /* \"contracts/InstitutionalSolverCore.sol\":6941:11818  contract HybridExecutionCore {... */\n      dup3\n      mload\n        /* \"contracts/InstitutionalSolverCore.sol\":2098:2127  new uint256[](solvers.length) */\n      tag_60\n      jump\t// in\n    tag_383:\n        /* \"contracts/InstitutionalSolverCore.sol\":2137:2159  uint256 validCount = 0 */\n      swap2\n        /* \"contracts/InstitutionalSolverCore.sol\":6941:11818  contract HybridExecutionCore {... */\n      0x00\n        /* \"contracts/InstitutionalSolverCore.sol\":2175:2188  uint256 i = 0 */\n      swap2\n        /* \"contracts/InstitutionalSolverCore.sol\":6941:11818  contract HybridExecutionCore {... */\n      0x00\n        /* \"contracts/InstitutionalSolverCore.sol\":2175:2188  uint256 i = 0 */\n    tag_384:\n        /* \"contracts/InstitutionalSolverCore.sol\":6941:11818  contract HybridExecutionCore {... */\n      dup3\n      mload\n        /* \"contracts/InstitutionalSolverCore.sol\":2190:2208  i < solvers.length */\n      dup2\n      lt\n      iszero\n      tag_385\n      jumpi\n        /* \"contracts/InstitutionalSolverCore.sol\":2256:2266  solvers[i] */\n      dup1\n        /* \"contracts/InstitutionalSolverCore.sol\":2243:2267  auction.bids[solvers[i]] */\n      tag_387\n        /* \"contracts/InstitutionalSolverCore.sol\":2256:2266  solvers[i] */\n      tag_388\n      tag_389\n        /* \"contracts/InstitutionalSolverCore.sol\":1963:1977  auction.isOpen */\n      0x01\n        /* \"contracts/InstitutionalSolverCore.sol\":2256:2266  solvers[i] */\n      swap5\n      dup8\n      tag_62\n      jump\t// in\n    tag_389:\n        /* \"contracts/InstitutionalSolverCore.sol\":6941:11818  contract HybridExecutionCore {... */\n      mload\n      sub(shl(0xa0, 0x01), 0x01)\n      and\n      swap1\n      jump\n        /* \"contracts/InstitutionalSolverCore.sol\":2256:2266  solvers[i] */\n    tag_388:\n      sub(shl(0xa0, 0x01), 0x01)\n        /* \"contracts/InstitutionalSolverCore.sol\":6941:11818  contract HybridExecutionCore {... */\n      and\n      0x00\n      swap1\n      dup2\n      mstore\n      0x20\n      dup11\n      swap1\n      mstore\n      0x40\n      swap1\n      keccak256\n      swap1\n      jump\n        /* \"contracts/InstitutionalSolverCore.sol\":2243:2267  auction.bids[solvers[i]] */\n    tag_387:\n        /* \"contracts/InstitutionalSolverCore.sol\":2285:2298  !bid.revealed */\n      tag_390\n        /* \"contracts/InstitutionalSolverCore.sol\":6941:11818  contract HybridExecutionCore {... */\n      tag_391\n        /* \"contracts/InstitutionalSolverCore.sol\":2286:2298  bid.revealed */\n      0x02\n      dup4\n      add\n        /* \"contracts/InstitutionalSolverCore.sol\":6941:11818  contract HybridExecutionCore {... */\n      sload\n      0xff\n      and\n      swap1\n      jump\n    tag_391:\n        /* \"contracts/InstitutionalSolverCore.sol\":2285:2298  !bid.revealed */\n      iszero\n      swap1\n        /* \"contracts/InstitutionalSolverCore.sol\":6941:11818  contract HybridExecutionCore {... */\n      jump\n        /* \"contracts/InstitutionalSolverCore.sol\":2285:2298  !bid.revealed */\n    tag_390:\n        /* \"contracts/InstitutionalSolverCore.sol\":2281:2412  if (!bid.revealed) {... */\n      tag_392\n      jumpi\n        /* \"contracts/InstitutionalSolverCore.sol\":2460:2475  bid.revealValue */\n      dup3\n        /* \"contracts/InstitutionalSolverCore.sol\":2565:2622  FixedPointMathLib.mulDiv(bid.revealValue, logApprox, 256) */\n      tag_394\n        /* \"contracts/InstitutionalSolverCore.sol\":2460:2475  bid.revealValue */\n      swap2\n      add\n        /* \"contracts/InstitutionalSolverCore.sol\":6941:11818  contract HybridExecutionCore {... */\n      sload\n        /* \"contracts/InstitutionalSolverCore.sol\":2510:2528  255 - leadingZeros */\n      tag_395\n        /* \"lib/solady/src/utils/clz/LibBit.sol\":6183:6227  assembly {... */\n      dup2\n      clz\n        /* \"contracts/InstitutionalSolverCore.sol\":2510:2528  255 - leadingZeros */\n      tag_39\n      jump\t// in\n    tag_395:\n        /* \"contracts/InstitutionalSolverCore.sol\":2565:2622  FixedPointMathLib.mulDiv(bid.revealValue, logApprox, 256) */\n      swap1\n      tag_69\n      jump\t// in\n    tag_394:\n        /* \"contracts/InstitutionalSolverCore.sol\":2636:2678  effectiveBids[validCount++] = effectiveBid */\n      tag_396\n        /* \"contracts/InstitutionalSolverCore.sol\":2650:2662  validCount++ */\n      tag_397\n      dup8\n      tag_64\n      jump\t// in\n    tag_397:\n        /* \"contracts/InstitutionalSolverCore.sol\":2636:2678  effectiveBids[validCount++] = effectiveBid */\n      swap7\n      dup9\n      tag_62\n      jump\t// in\n    tag_396:\n        /* \"contracts/InstitutionalSolverCore.sol\":6941:11818  contract HybridExecutionCore {... */\n      mstore\n      add\n        /* \"contracts/InstitutionalSolverCore.sol\":2175:2188  uint256 i = 0 */\n      swap5\n    tag_398:\n      swap5\n      jump(tag_384)\n        /* \"contracts/InstitutionalSolverCore.sol\":2281:2412  if (!bid.revealed) {... */\n    tag_392:\n        /* \"contracts/InstitutionalSolverCore.sol\":6941:11818  contract HybridExecutionCore {... */\n      pop\n      add\n        /* \"contracts/InstitutionalSolverCore.sol\":2389:2397  continue */\n      swap5\n      jump(tag_398)\n        /* \"contracts/InstitutionalSolverCore.sol\":2190:2208  i < solvers.length */\n    tag_385:\n      pop\n      swap5\n      pop\n      swap1\n      swap2\n        /* \"contracts/InstitutionalSolverCore.sol\":2762:2777  validCount == 0 */\n      dup3\n      iszero\n        /* \"contracts/InstitutionalSolverCore.sol\":2758:2798  if (validCount == 0) revert InvalidBid() */\n      tag_230\n      jumpi\n        /* \"contracts/InstitutionalSolverCore.sol\":2893:2918  new uint256[](validCount) */\n      tag_401\n      dup4\n      tag_60\n      jump\t// in\n    tag_401:\n        /* \"contracts/InstitutionalSolverCore.sol\":6941:11818  contract HybridExecutionCore {... */\n      0x00\n        /* \"contracts/InstitutionalSolverCore.sol\":2948:2962  i < validCount */\n    tag_402:\n      dup5\n      dup2\n      lt\n      tag_403\n      jumpi\n        /* \"contracts/InstitutionalSolverCore.sol\":3112:3122  sortedBids */\n      pop\n      dup1\n      tag_405\n        /* \"contracts/InstitutionalSolverCore.sol\":3215:3241  sortedBids[validCount - 1] */\n      tag_406\n        /* \"contracts/InstitutionalSolverCore.sol\":3112:3122  sortedBids */\n      swap3\n      tag_70\n      jump\t// in\n    tag_405:\n        /* \"contracts/InstitutionalSolverCore.sol\":3226:3240  validCount - 1 */\n      tag_407\n      dup6\n      tag_40\n      jump\t// in\n    tag_407:\n        /* \"contracts/InstitutionalSolverCore.sol\":3215:3241  sortedBids[validCount - 1] */\n      swap1\n      tag_62\n      jump\t// in\n    tag_406:\n        /* \"contracts/InstitutionalSolverCore.sol\":6941:11818  contract HybridExecutionCore {... */\n      mload\n      swap3\n        /* \"contracts/InstitutionalSolverCore.sol\":3275:3304  new address[](solvers.length) */\n      tag_408\n        /* \"contracts/InstitutionalSolverCore.sol\":6941:11818  contract HybridExecutionCore {... */\n      dup4\n      mload\n        /* \"contracts/InstitutionalSolverCore.sol\":3275:3304  new address[](solvers.length) */\n      tag_60\n      jump\t// in\n    tag_408:\n        /* \"contracts/InstitutionalSolverCore.sol\":3314:3334  uint256 tieCount = 0 */\n      swap3\n        /* \"contracts/InstitutionalSolverCore.sol\":6941:11818  contract HybridExecutionCore {... */\n      0x00\n        /* \"contracts/InstitutionalSolverCore.sol\":3394:3407  uint256 i = 0 */\n      swap3\n        /* \"contracts/InstitutionalSolverCore.sol\":6941:11818  contract HybridExecutionCore {... */\n      0x00\n        /* \"contracts/InstitutionalSolverCore.sol\":3409:3423  i < validCount */\n    tag_409:\n      dup4\n      dup2\n      lt\n      tag_410\n      jumpi\n        /* \"contracts/InstitutionalSolverCore.sol\":3617:3630  tieCount == 0 */\n      pop\n      pop\n      pop\n      pop\n      dup1\n      iszero\n        /* \"contracts/InstitutionalSolverCore.sol\":3613:3651  if (tieCount == 0) revert InvalidBid() */\n      tag_230\n      jumpi\n        /* \"contracts/InstitutionalSolverCore.sol\":1963:1977  auction.isOpen */\n      0x01\n        /* \"contracts/InstitutionalSolverCore.sol\":3665:3677  tieCount > 1 */\n      dup2\n      gt\n        /* \"contracts/InstitutionalSolverCore.sol\":1963:1977  auction.isOpen */\n      iszero\n      tag_414\n      jumpi\n        /* \"contracts/InstitutionalSolverCore.sol\":2618:2621  256 */\n      0x0100\n        /* \"contracts/InstitutionalSolverCore.sol\":3747:3754  ties[0] */\n      swap2\n      tag_416\n      tag_389\n      dup3\n      tag_61\n      jump\t// in\n    tag_416:\n        /* \"contracts/InstitutionalSolverCore.sol\":3773:3786  uint256 j = 0 */\n      swap3\n        /* \"contracts/InstitutionalSolverCore.sol\":6941:11818  contract HybridExecutionCore {... */\n      0x00\n        /* \"contracts/InstitutionalSolverCore.sol\":3788:3800  j < tieCount */\n    tag_418:\n      dup4\n      dup2\n      lt\n      tag_419\n      jumpi\n      pop\n      pop\n        /* \"contracts/InstitutionalSolverCore.sol\":6941:11818  contract HybridExecutionCore {... */\n      dup5\n      sload\n      not(sub(shl(0xa8, 0x01), 0x0100))\n      and\n      0x08\n      dup5\n      swap1\n      shl\n      sub(shl(0xa8, 0x01), 0x0100)\n      and\n      or\n      swap1\n      swap5\n      sstore\n      pop\n        /* \"contracts/InstitutionalSolverCore.sol\":4167:4185  winner = tieWinner */\n      swap2\n      pop\n        /* \"contracts/InstitutionalSolverCore.sol\":4291:4321  AuctionSettled(winner, maxBid) */\n      0x15bff754355d68fa38fb3ca8459829a807947cbf186c0f47d283d8dbbfcad568\n      swap1\n      tag_422\n      swap1\n        /* \"contracts/InstitutionalSolverCore.sol\":4253:4276  auction.winner = winner */\n    tag_421:\n        /* \"contracts/InstitutionalSolverCore.sol\":6941:11818  contract HybridExecutionCore {... */\n      0x40\n      dup1\n      mload\n      sub(shl(0xa0, 0x01), 0x01)\n      dup7\n      and\n      dup2\n      mstore\n      0x20\n      dup2\n      add\n      swap3\n      swap1\n      swap3\n      mstore\n      swap1\n      swap2\n      dup3\n      swap2\n      dup3\n      add\n      swap1\n      jump\n        /* \"contracts/InstitutionalSolverCore.sol\":4291:4321  AuctionSettled(winner, maxBid) */\n    tag_422:\n      sub\n      swap1\n      log1\n        /* \"contracts/InstitutionalSolverCore.sol\":1836:4351  function settleAuction(AuctionState storage auction, address[] memory solvers) internal returns (address winner) {... */\n      swap1\n      jump\t// out\n        /* \"contracts/InstitutionalSolverCore.sol\":3773:3786  uint256 j = 0 */\n    tag_419:\n        /* \"contracts/InstitutionalSolverCore.sol\":3863:3870  ties[j] */\n      tag_424\n      tag_389\n      dup3\n      dup6\n      tag_62\n      jump\t// in\n    tag_424:\n        /* \"contracts/InstitutionalSolverCore.sol\":6941:11818  contract HybridExecutionCore {... */\n      mload(0x40)\n        /* \"contracts/InstitutionalSolverCore.sol\":3846:3871  abi.encodePacked(ties[j]) */\n      tag_426\n      dup2\n      tag_162\n      0x20\n      dup3\n      add\n      swap5\n      dup6\n        /* \"contracts/InstitutionalSolverCore.sol\":6941:11818  contract HybridExecutionCore {... */\n      0x14\n      swap2\n      not(0xffffffffffffffffffffffff)\n      swap1\n      0x60\n      shl\n      and\n      dup2\n      mstore\n      add\n      swap1\n      jump\n        /* \"contracts/InstitutionalSolverCore.sol\":3846:3871  abi.encodePacked(ties[j]) */\n    tag_426:\n        /* \"contracts/InstitutionalSolverCore.sol\":6941:11818  contract HybridExecutionCore {... */\n      mload\n        /* \"contracts/InstitutionalSolverCore.sol\":3836:3872  keccak256(abi.encodePacked(ties[j])) */\n      swap1\n      keccak256\n        /* \"lib/solady/src/utils/clz/LibBit.sol\":6183:6227  assembly {... */\n      clz\n        /* \"contracts/InstitutionalSolverCore.sol\":3955:3970  clzVal < minClz */\n      dup3\n      dup2\n      lt\n        /* \"contracts/InstitutionalSolverCore.sol\":3951:4069  if (clzVal < minClz) {... */\n      tag_428\n      jumpi\n        /* \"contracts/InstitutionalSolverCore.sol\":3773:3786  uint256 j = 0 */\n    tag_429:\n        /* \"contracts/InstitutionalSolverCore.sol\":6941:11818  contract HybridExecutionCore {... */\n      pop\n        /* \"contracts/InstitutionalSolverCore.sol\":1963:1977  auction.isOpen */\n      0x01\n        /* \"contracts/InstitutionalSolverCore.sol\":6941:11818  contract HybridExecutionCore {... */\n      add\n        /* \"contracts/InstitutionalSolverCore.sol\":3773:3786  uint256 j = 0 */\n      jump(tag_418)\n        /* \"contracts/InstitutionalSolverCore.sol\":3951:4069  if (clzVal < minClz) {... */\n    tag_428:\n        /* \"contracts/InstitutionalSolverCore.sol\":3994:4009  minClz = clzVal */\n      swap2\n      pop\n      swap4\n      pop\n        /* \"contracts/InstitutionalSolverCore.sol\":1963:1977  auction.isOpen */\n      0x01\n        /* \"contracts/InstitutionalSolverCore.sol\":4043:4050  ties[j] */\n      tag_430\n      tag_389\n      dup7\n      dup6\n      tag_62\n      jump\t// in\n    tag_430:\n        /* \"contracts/InstitutionalSolverCore.sol\":3951:4069  if (clzVal < minClz) {... */\n      swap5\n      swap1\n      jump(tag_429)\n        /* \"contracts/InstitutionalSolverCore.sol\":3661:4243  if (tieCount > 1) {... */\n    tag_414:\n        /* \"contracts/InstitutionalSolverCore.sol\":4225:4232  ties[0] */\n      pop\n        /* \"contracts/InstitutionalSolverCore.sol\":4291:4321  AuctionSettled(winner, maxBid) */\n      0x15bff754355d68fa38fb3ca8459829a807947cbf186c0f47d283d8dbbfcad568\n        /* \"contracts/InstitutionalSolverCore.sol\":4225:4232  ties[0] */\n      swap2\n        /* \"contracts/InstitutionalSolverCore.sol\":4253:4276  auction.winner = winner */\n      tag_421\n        /* \"contracts/InstitutionalSolverCore.sol\":4225:4232  ties[0] */\n      tag_432\n      tag_389\n        /* \"contracts/InstitutionalSolverCore.sol\":4291:4321  AuctionSettled(winner, maxBid) */\n      tag_422\n        /* \"contracts/InstitutionalSolverCore.sol\":4225:4232  ties[0] */\n      swap5\n      tag_61\n      jump\t// in\n    tag_432:\n        /* \"contracts/InstitutionalSolverCore.sol\":6941:11818  contract HybridExecutionCore {... */\n      dup6\n      sload\n      not(sub(shl(0xa8, 0x01), 0x0100))\n      and\n      0x08\n      dup3\n      swap1\n      shl\n      sub(shl(0xa8, 0x01), 0x0100)\n      and\n      or\n      swap1\n      swap6\n      sstore\n      jump\n        /* \"contracts/InstitutionalSolverCore.sol\":3394:3407  uint256 i = 0 */\n    tag_410:\n        /* \"contracts/InstitutionalSolverCore.sol\":3444:3460  effectiveBids[i] */\n      dup1\n      dup8\n      tag_434\n        /* \"contracts/InstitutionalSolverCore.sol\":1963:1977  auction.isOpen */\n      0x01\n        /* \"contracts/InstitutionalSolverCore.sol\":3444:3460  effectiveBids[i] */\n      swap4\n      dup6\n      tag_62\n      jump\t// in\n    tag_434:\n        /* \"contracts/InstitutionalSolverCore.sol\":6941:11818  contract HybridExecutionCore {... */\n      mload\n        /* \"contracts/InstitutionalSolverCore.sol\":3444:3470  effectiveBids[i] == maxBid */\n      eq\n        /* \"contracts/InstitutionalSolverCore.sol\":3440:3534  if (effectiveBids[i] == maxBid) {... */\n      tag_435\n      jumpi\n        /* \"contracts/InstitutionalSolverCore.sol\":3394:3407  uint256 i = 0 */\n    tag_436:\n        /* \"contracts/InstitutionalSolverCore.sol\":6941:11818  contract HybridExecutionCore {... */\n      add\n        /* \"contracts/InstitutionalSolverCore.sol\":3394:3407  uint256 i = 0 */\n      jump(tag_409)\n        /* \"contracts/InstitutionalSolverCore.sol\":3440:3534  if (effectiveBids[i] == maxBid) {... */\n    tag_435:\n        /* \"contracts/InstitutionalSolverCore.sol\":3490:3519  ties[tieCount++] = solvers[i] */\n      tag_437\n        /* \"contracts/InstitutionalSolverCore.sol\":3509:3519  solvers[i] */\n      tag_438\n      tag_389\n      dup4\n      dup8\n      tag_62\n      jump\t// in\n    tag_438:\n        /* \"contracts/InstitutionalSolverCore.sol\":3490:3519  ties[tieCount++] = solvers[i] */\n      tag_440\n        /* \"contracts/InstitutionalSolverCore.sol\":3495:3505  tieCount++ */\n      tag_441\n      dup10\n      tag_64\n      jump\t// in\n    tag_441:\n        /* \"contracts/InstitutionalSolverCore.sol\":3490:3519  ties[tieCount++] = solvers[i] */\n      swap9\n      dup11\n      tag_62\n      jump\t// in\n    tag_440:\n      sub(shl(0xa0, 0x01), 0x01)\n        /* \"contracts/InstitutionalSolverCore.sol\":6941:11818  contract HybridExecutionCore {... */\n      swap1\n      swap2\n      and\n      swap1\n      mstore\n      jump\n        /* \"contracts/InstitutionalSolverCore.sol\":3490:3519  ties[tieCount++] = solvers[i] */\n    tag_437:\n        /* \"contracts/InstitutionalSolverCore.sol\":3440:3534  if (effectiveBids[i] == maxBid) {... */\n      jump(tag_436)\n        /* \"contracts/InstitutionalSolverCore.sol\":2933:2946  uint256 i = 0 */\n    tag_403:\n        /* \"contracts/InstitutionalSolverCore.sol\":2995:3011  effectiveBids[i] */\n      dup1\n      tag_442\n        /* \"contracts/InstitutionalSolverCore.sol\":1963:1977  auction.isOpen */\n      0x01\n        /* \"contracts/InstitutionalSolverCore.sol\":2995:3011  effectiveBids[i] */\n      swap3\n      dup6\n      tag_62\n      jump\t// in\n    tag_442:\n        /* \"contracts/InstitutionalSolverCore.sol\":6941:11818  contract HybridExecutionCore {... */\n      mload\n        /* \"contracts/InstitutionalSolverCore.sol\":2979:3011  sortedBids[i] = effectiveBids[i] */\n      tag_443\n      dup3\n      dup6\n      tag_62\n      jump\t// in\n    tag_443:\n        /* \"contracts/InstitutionalSolverCore.sol\":6941:11818  contract HybridExecutionCore {... */\n      mstore\n      add\n        /* \"contracts/InstitutionalSolverCore.sol\":2933:2946  uint256 i = 0 */\n      jump(tag_402)\n        /* \"lib/solady/src/utils/clz/FixedPointMathLib.sol\":27093:27575  function mulDiv(uint256 x, uint256 y, uint256 d) internal pure returns (uint256 z) {... */\n    tag_69:\n        /* \"lib/solady/src/utils/clz/FixedPointMathLib.sol\":27229:27569  assembly {... */\n      dup2\n      dup2\n      mul\n      swap2\n      dup2\n      dup4\n      div\n      eq\n      swap1\n      iszero\n      or\n      0x08\n      shl\n      iszero\n      tag_444\n      jumpi\n      0x08\n      shr\n        /* \"lib/solady/src/utils/clz/FixedPointMathLib.sol\":27093:27575  function mulDiv(uint256 x, uint256 y, uint256 d) internal pure returns (uint256 z) {... */\n      swap1\n      jump\t// out\n        /* \"lib/solady/src/utils/clz/FixedPointMathLib.sol\":27229:27569  assembly {... */\n    tag_444:\n      mstore(0x00, 0xad251c27)\n      revert(0x1c, 0x04)\n        /* \"lib/solady/src/utils/LibSort.sol\":840:1860  function insertionSort(uint256[] memory a) internal pure {... */\n    tag_70:\n        /* \"lib/solady/src/utils/LibSort.sol\":950:1854  assembly {... */\n      dup1\n      mload\n      swap1\n      0x00\n      dup2\n      mstore\n      dup2\n      0x05\n      shl\n      dup2\n      add\n      swap3\n      0x20\n      dup3\n      add\n      swap4\n    tag_446:\n      0x20\n      dup6\n      add\n      swap2\n      dup2\n      dup4\n      gt\n      tag_447\n      jumpi\n      dup3\n      mload\n      swap6\n      dup1\n      mload\n      dup8\n      dup2\n      gt\n      iszero\n      tag_449\n      jumpi\n    tag_451:\n      0x20\n      dup3\n      add\n      mstore\n      not(0x1f)\n      add\n      dup1\n      mload\n      dup8\n      dup2\n      gt\n      tag_451\n      jumpi\n      pop\n      0x20\n      swap1\n      swap7\n      swap2\n      swap5\n      swap3\n      swap6\n      swap4\n      swap7\n      add\n      mstore\n    tag_454:\n      swap2\n      swap1\n      swap3\n      jump(tag_446)\n    tag_449:\n      pop\n      pop\n      swap3\n      swap1\n      swap4\n      swap2\n      swap5\n      pop\n      jump(tag_454)\n    tag_447:\n      swap5\n      pop\n      pop\n      pop\n      mstore\n        /* \"lib/solady/src/utils/LibSort.sol\":840:1860  function insertionSort(uint256[] memory a) internal pure {... */\n      jump\t// out\n    stop\n\n    sub_0: assembly {\n            /* \"contracts/InstitutionalSolverCore.sol\":11908:12179  contract EIP7702Proxy {... */\n          0x80\n          dup1\n          0x40\n          mstore\n          jumpi(tag_1, callvalue)\n          dataSize(sub_0)\n          swap1\n          dup2\n          dataOffset(sub_0)\n          dup3\n          codecopy\n          return\n        tag_1:\n          0x00\n          dup1\n          revert\n        stop\n\n        sub_0: assembly {\n                /* \"contracts/InstitutionalSolverCore.sol\":11908:12179  contract EIP7702Proxy {... */\n              jumpi(tag_3, callvalue)\n                /* \"contracts/InstitutionalSolverCore.sol\":11993:12170  assembly {... */\n              0x00\n              dup1\n              dup1\n              dup1\n              dup1\n              calldataload\n              gas\n              delegatecall\n              iszero\n              tag_3\n              jumpi\n                /* \"contracts/InstitutionalSolverCore.sol\":11908:12179  contract EIP7702Proxy {... */\n              stop\n                /* \"contracts/InstitutionalSolverCore.sol\":11993:12170  assembly {... */\n            tag_3:\n              0x00\n              dup1\n              revert\n\n            auxdata: 0xa2646970667358221220110200cfb6b1531540a776ba8fc7794878d17f490b22abb54aa0cff2bb1d82a864736f6c63430008210033\n        }\n    }\n\n    auxdata: 0xa2646970667358221220c84a668f5fca607993d39496e67221b74b39371c4b5c43214eae680aac3e96d864736f6c63430008210033\n}\n","methodIdentifiers":{"batchResolve(uint256[],address[])":"424f84a7","closeAuction(uint256)":"236ed8f3","commitBid(uint256,bytes32)":"9468cb61","failoverRoute(uint256,address)":"268968e5","flashloanProviders(uint256)":"58ad27bf","openAuction(uint256)":"1edc8f91","owner()":"8da5cb5b","paymaster()":"16e4cbf9","resolveIntent(uint256,address,bytes)":"4c25f931","revealBid(uint256,uint256,bytes32)":"4d380a0d","sealExecution(uint256)":"affcdf4b","settleAuction(uint256,address[])":"97ae02af","submitIntent(uint256,bytes)":"d00d3b31","zkVerifier()":"d6df096d"},"id":9}