{"abi":[{"type":"constructor","inputs":[{"name":"_zkVerifier","type":"address","internalType":"address"},{"name":"_paymaster","type":"address","internalType":"address"},{"name":"_providers","type":"address[]","internalType":"address[]"}],"stateMutability":"nonpayable"},{"type":"function","name":"batchResolve","inputs":[{"name":"intentIds","type":"uint256[]","internalType":"uint256[]"},{"name":"solvers","type":"address[]","internalType":"address[]"},{"name":"execDatas","type":"bytes[]","internalType":"bytes[]"}],"outputs":[],"stateMutability":"nonpayable"},{"type":"function","name":"closeAuction","inputs":[{"name":"auctionId","type":"uint256","internalType":"uint256"}],"outputs":[],"stateMutability":"nonpayable"},{"type":"function","name":"commitBid","inputs":[{"name":"auctionId","type":"uint256","internalType":"uint256"},{"name":"commitHash","type":"bytes32","internalType":"bytes32"}],"outputs":[],"stateMutability":"nonpayable"},{"type":"function","name":"failoverRoute","inputs":[{"name":"intentId","type":"uint256","internalType":"uint256"},{"name":"venue","type":"address","internalType":"address"}],"outputs":[],"stateMutability":"nonpayable"},{"type":"function","name":"flashloanProviders","inputs":[{"name":"","type":"uint256","internalType":"uint256"}],"outputs":[{"name":"","type":"address","internalType":"address"}],"stateMutability":"view"},{"type":"function","name":"openAuction","inputs":[{"name":"auctionId","type":"uint256","internalType":"uint256"}],"outputs":[],"stateMutability":"nonpayable"},{"type":"function","name":"owner","inputs":[],"outputs":[{"name":"","type":"address","internalType":"address"}],"stateMutability":"view"},{"type":"function","name":"paymaster","inputs":[],"outputs":[{"name":"","type":"address","internalType":"address"}],"stateMutability":"view"},{"type":"function","name":"resolveIntent","inputs":[{"name":"intentId","type":"uint256","internalType":"uint256"},{"name":"solver","type":"address","internalType":"address"},{"name":"execData","type":"bytes","internalType":"bytes"}],"outputs":[],"stateMutability":"nonpayable"},{"type":"function","name":"revealBid","inputs":[{"name":"auctionId","type":"uint256","internalType":"uint256"},{"name":"value","type":"uint256","internalType":"uint256"},{"name":"salt","type":"bytes32","internalType":"bytes32"}],"outputs":[],"stateMutability":"nonpayable"},{"type":"function","name":"sealExecution","inputs":[{"name":"intentId","type":"uint256","internalType":"uint256"}],"outputs":[{"name":"seal","type":"bytes32","internalType":"bytes32"}],"stateMutability":"view"},{"type":"function","name":"settleAuction","inputs":[{"name":"auctionId","type":"uint256","internalType":"uint256"},{"name":"solvers","type":"address[]","internalType":"address[]"}],"outputs":[{"name":"winner","type":"address","internalType":"address"}],"stateMutability":"nonpayable"},{"type":"function","name":"submitIntent","inputs":[{"name":"intentId","type":"uint256","internalType":"uint256"},{"name":"intentData","type":"bytes","internalType":"bytes"}],"outputs":[],"stateMutability":"nonpayable"},{"type":"function","name":"zkVerifier","inputs":[],"outputs":[{"name":"","type":"address","internalType":"address"}],"stateMutability":"view"},{"type":"event","name":"AuctionSettled","inputs":[{"name":"winner","type":"address","indexed":false,"internalType":"address"},{"name":"winningBid","type":"uint256","indexed":false,"internalType":"uint256"}],"anonymous":false},{"type":"event","name":"BatchExecuted","inputs":[{"name":"batchId","type":"uint256","indexed":false,"internalType":"uint256"},{"name":"solvers","type":"address[]","indexed":false,"internalType":"address[]"}],"anonymous":false},{"type":"event","name":"BidCommitted","inputs":[{"name":"solver","type":"address","indexed":false,"internalType":"address"},{"name":"commitHash","type":"bytes32","indexed":false,"internalType":"bytes32"}],"anonymous":false},{"type":"event","name":"BidRevealed","inputs":[{"name":"solver","type":"address","indexed":false,"internalType":"address"},{"name":"bidValue","type":"uint256","indexed":false,"internalType":"uint256"}],"anonymous":false},{"type":"event","name":"IntentResolved","inputs":[{"name":"intentId","type":"uint256","indexed":false,"internalType":"uint256"},{"name":"solver","type":"address","indexed":false,"internalType":"address"},{"name":"value","type":"uint256","indexed":false,"internalType":"uint256"}],"anonymous":false},{"type":"event","name":"ReputationUpdated","inputs":[{"name":"solver","type":"address","indexed":false,"internalType":"address"},{"name":"delta","type":"int256","indexed":false,"internalType":"int256"}],"anonymous":false},{"type":"event","name":"Slashed","inputs":[{"name":"solver","type":"address","indexed":false,"internalType":"address"},{"name":"amount","type":"uint256","indexed":false,"internalType":"uint256"}],"anonymous":false},{"type":"error","name":"AuctionClosed","inputs":[]},{"type":"error","name":"ExecutionFailed","inputs":[]},{"type":"error","name":"InvalidBid","inputs":[]},{"type":"error","name":"InvalidIntent","inputs":[]},{"type":"error","name":"NonReentrant","inputs":[]},{"type":"error","name":"ReputationSlash","inputs":[]},{"type":"error","name":"Unauthorized","inputs":[]}],"bytecode":{"object":"0x60a0604052346101bd576114b180380380610019816101c1565b92833981016060828203126101bd57610031826101e6565b9161003e602082016101e6565b604082015190916001600160401b0382116101bd57019282601f850112156101bd578351926001600160401b038411610191578360051b9460206100838188016101c1565b809681520190602082978201019283116101bd57602001905b8282106101a55750503360805250600480546001600160a01b039283166001600160a01b0319918216179091556005805493909216921691909117905551906001600160401b038211610191576801000000000000000082116101915760065482600655808310610166575b509060065f5260205f20915f5b828110610149576040516112b690816101fb8239608051818181610136015281816101a50152818161022001526107140152f35b81516001600160a01b031681850155602090910190600101610115565b60065f52828060205f20019103905f5b828110610184575050610108565b5f82820155600101610176565b634e487b7160e01b5f52604160045260245ffd5b602080916101b2846101e6565b81520191019061009c565b5f80fd5b6040519190601f01601f191682016001600160401b0381118382101761019157604052565b51906001600160a01b03821682036101bd5756fe60806040526004361015610011575f80fd5b5f3560e01c806316e4cbf9146100f45780631edc8f91146100ef578063236ed8f3146100ea578063268968e5146100e55780634c25f931146100e05780634d380a0d146100db57806358ad27bf146100d65780636f4320d7146100d15780638da5cb5b146100cc5780639468cb61146100c757806397ae02af146100c2578063affcdf4b146100bd578063d00d3b31146100b85763d6df096d146100b3575f80fd5b610a7f565b610976565b6108d8565b610811565b610743565b6106ff565b61056f565b6104e5565b6103c5565b610321565b6101fe565b61018f565b610120565b3461011c575f36600319011261011c576005546040516001600160a01b039091168152602090f35b5f80fd5b3461011c57602036600319011261011c576004357f00000000000000000000000000000000000000000000000000000000000000006001600160a01b03163303610181575f526002602052600160405f2001600160ff198254161790555f80f35b6282b42960e81b5f5260045ffd5b3461011c57602036600319011261011c576004357f00000000000000000000000000000000000000000000000000000000000000006001600160a01b03163303610181575f908152600260205260409020600101805460ff19169055005b6001600160a01b0381160361011c57565b3461011c57604036600319011261011c5760243560043561021e826101ed565b7f00000000000000000000000000000000000000000000000000000000000000006001600160a01b03163303610181575f525f60205260405f2090604051915f9080549061026b82610aa7565b91600181169081156102dd57506001146102ab575b505090825f93849303915af4610294610adf565b501561029c57005b632b3f6d1160e21b5f5260045ffd5b9091505f5260205f205f905b8282106102c95750508201825f610280565b6001816020925484880152019101906102b7565b60ff1916865250508015150283019050825f610280565b9181601f8401121561011c578235916001600160401b03831161011c576020838186019501011161011c57565b3461011c57606036600319011261011c57600435602435610341816101ed565b6044356001600160401b03811161011c576103609036906004016102f4565b916f149151539514905390d657d1d550549160821b5f525f5160206112615f395f51905f525c6103b6576103a49360015f5160206112615f395f51905f525d610c95565b5f5f5160206112615f395f51905f525d005b633997ce4b60e11b5f5260045ffd5b3461011c57606036600319011261011c5760043560243590604435905f52600260205260405f206103fa600182015460ff1690565b6104c257335f9081526020919091526040902091600283019161041e835460ff1690565b6104b35760405161045181610443602082019486869091604092825260208201520190565b03601f1981018352826107d4565b5190208354036104b3576104966104ae928260017f9891bd98143d5a2c5f29be9a7ef8e5d7b723746fb3b75220234af7aa6caeecfe960155600160ff19825416179055565b60408051338152602081019290925290918291820190565b0390a1005b63c6388ef760e01b5f5260045ffd5b6336b6b46d60e01b5f5260045ffd5b634e487b7160e01b5f52603260045260245ffd5b3461011c57602036600319011261011c5760043560065481101561011c5760065f527ff652222313e28459528d920b65115c16c04f3efc82aaedc97be59f3f377c0d3f01546040516001600160a01b039091168152602090f35b9181601f8401121561011c578235916001600160401b03831161011c576020808501948460051b01011161011c57565b3461011c57606036600319011261011c576004356001600160401b03811161011c5761059f90369060040161053f565b906024356001600160401b03811161011c576105bf90369060040161053f565b9290916044356001600160401b03811161011c576105e190369060040161053f565b6f149151539514905390d657d1d550549160821b5f525f5160206112615f395f51905f525c6103b65760015f5160206112615f395f51905f525d8584148015906106f5575b6106e65761012c841161029c57610656604051602081019061064d81610443848a8a610b1d565b5190201e610b4c565b935f5b8181106106a7576040517f3c7546ea6213d639e7de5c441a4abe5e41931f976097e9e5db39896bc2f648c590806106928b8b8b84610bc2565b0390a15f5f5160206112615f395f51905f525d005b806106e06106b86001938589610b5f565b356106cc6106c7848d8d610b5f565b610b74565b906106d884888a610b81565b929091610c95565b01610659565b633edae5df60e11b5f5260045ffd5b5080841415610626565b3461011c575f36600319011261011c576040517f00000000000000000000000000000000000000000000000000000000000000006001600160a01b03168152602090f35b3461011c57604036600319011261011c57600435602435905f52600260205260405f2060ff600182015416156104c257817f4993d1a01dd11fa6de1acf5952a36cf1b3f02f1fa3e764d14aa461230ec02eb0926107b16040933360018060a01b03165f5260205260405f2090565b558151903382526020820152a1005b634e487b7160e01b5f52604160045260245ffd5b90601f801991011681019081106001600160401b038211176107f557604052565b6107c0565b6001600160401b0381116107f55760051b60200190565b3461011c57604036600319011261011c576024356004356001600160401b03821161011c573660238301121561011c57816004013591610850836107fa565b9261085e60405194856107d4565b8084526024602085019160051b8301019136831161011c57602401905b8282106108be576108ba6108a08661089b875f52600260205260405f2090565b610e1a565b6040516001600160a01b0390911681529081906020820190565b0390f35b6020809183356108cd816101ed565b81520191019061087b565b3461011c57602036600319011261011c576108ba600435805f52600160205260405f205460405190602082019283526bffffffffffffffffffffffff199060601b166040820152426054820152605481526109346074826107d4565b519020610443610963610947831e610b4c565b6040519283916020830195869091604092825260208201520190565b5190206040519081529081906020820190565b3461011c57604036600319011261011c576004356024356001600160401b03811161011c576109a99036906004016102f4565b909181156106e6575f525f60205260405f20906001600160401b0381116107f5576109de816109d88454610aa7565b84610c10565b5f601f8211600114610a1b578190610a0c93945f92610a10575b50508160011b915f199060031b1c19161790565b9055005b013590505f806109f8565b601f19821693610a2e845f5260205f2090565b915f5b868110610a675750836001959610610a4e575b505050811b019055005b01355f19600384901b60f8161c191690555f8080610a44565b90926020600181928686013581550194019101610a31565b3461011c575f36600319011261011c576004546040516001600160a01b039091168152602090f35b90600182811c92168015610ad5575b6020831014610ac157565b634e487b7160e01b5f52602260045260245ffd5b91607f1691610ab6565b3d15610b18573d906001600160401b0382116107f55760405191610b0d601f8201601f1916602001846107d4565b82523d5f602084013e565b606090565b91906001600160fb1b03811161011c5760051b809282370190565b634e487b7160e01b5f52601160045260245ffd5b60ff039060ff8211610b5a57565b610b38565b9190811015610b6f5760051b0190565b6104d1565b35610b7e816101ed565b90565b9190811015610b6f5760051b81013590601e198136030182121561011c5701908135916001600160401b03831161011c57602001823603811361011c579190565b9081526040602082018190528101839052606001915f5b818110610be65750505090565b9091926020806001928635610bfa816101ed565b848060a01b031681520194019101919091610bd9565b919091601f8311610c21575b505050565b818311610c2d57505050565b5f5260205f206020601f830160051c9210610c66575b81601f9101920160051c03905f5b82811015610c1c575f82820155600101610c51565b5f9150610c43565b90918060409360208452816020850152848401375f828201840152601f01601f1916010190565b9091610ca083611080565b5f828152600160205260409020546001600160a01b031661029c57621000ae841161029c5760045484906001600160a01b031680610d84575b505f81610cef938293604051918237865af41590565b61029c578181610d7a610d8295610d5284610d337fb5c70dfdfecb7cc39b872e9a3360b1e0a9c6a3bf580ee56cd2eb71664ccd8573975f52600160205260405f2090565b80546001600160a01b0319166001600160a01b03909216919091179055565b604080519384526001600160a01b039094166020840152928201929092529081906060820190565b0390a16110f0565b565b604051632ae132ff60e11b602082019081525f9350839291610dae816104438b8960248401610c6e565b51915afa610dba610adf565b501561029c57835f610cd9565b90610dd1826107fa565b610dde60405191826107d4565b8281528092610def601f19916107fa565b0190602036910137565b805115610b6f5760200190565b8051821015610b6f5760209160051b010190565b90916001820191610e2c835460ff1690565b6104c2575f91610e3c8551610dc7565b905f905f5b8751811015610f1f57610e64610e57828a610e06565b516001600160a01b031690565b6001600160a01b0381165f908152602087905260409020600281015460ff16610e92575b5050600101610e41565b6001610eaf9198929593980154610ea9811e610b4c565b9061123a565b9181831115610ee257505060019095610edb8294610ecc87610df9565b6001600160a01b039091169052565b905f610e88565b93909691878114610ef8575b5050600190610edb565b610f03575b80610eee565b83610f176001939592610ecc859489610e06565b019290610efd565b50955090915082156104b35760018111156110295761010091610f44610e5782610df9565b925f5b838110610fc15750508454610100600160a81b031916600884901b610100600160a81b0316179094555091507f15bff754355d68fa38fb3ca8459829a807947cbf186c0f47d283d8dbbfcad56890610fbb905b604080516001600160a01b0386168152602081019290925290918291820190565b0390a190565b610fce610e578285610e06565b604051610ffa816104436020820194856014916bffffffffffffffffffffffff199060601b1681520190565b5190201e82811061100f575b50600101610f47565b915093506001611022610e578685610e06565b9490611006565b507f15bff754355d68fa38fb3ca8459829a807947cbf186c0f47d283d8dbbfcad56891610f9a61105e610e57610fbb94610df9565b8554610100600160a81b031916600882901b610100600160a81b031617909555565b6001600160a01b03165f908152600360205260409020546064136110a057565b632f3424c160e01b5f5260045ffd5b600160ff1b8114610b5a575f0390565b90603282029180830560321490151715610b5a57565b9190915f8382019384129112908015821691151617610b5a57565b600a906110fd821e610b4c565b828102905f8412600160ff1b821416610b5a578382051483151715610b5a5761010090056001600160a01b0382165f908152600360205260409020549061114481836110d5565b905f8212611232575b61119b7f21b93f5364d09d606ec33450e45ad2e33958e3dac6c4f771ed1218f1eca47db591848403611213575b604080516001600160a01b0388168152602081019290925290918291820190565b0390a1159081611209575b506111af575050565b6111eb6111e46111df7f4ed05e9673c26d2ed44f7ef6a7f2942df0ee3b5e1e17db4b99f9dcd261a339cd946110af565b6110bf565b6064900590565b604080516001600160a01b03939093168352602083019190915290a1565b5f9150135f6111a6565b6001600160a01b0386165f90815260036020526040902084905561117a565b5f915061114d565b818102918183041490151760081b156112535760081c90565b63ad251c275f526004601cfdfedcb51ba0d43ef2c357eef48fbe953503faee8dce5ac87efb01aecad42d7420cfa2646970667358221220c4d81b24c966c1869233fb6b3c699ef18bd211b4267160b42245b361a7ae853964736f6c63430008210033","linkReferences":{}},"methodIdentifiers":{"batchResolve(uint256[],address[],bytes[])":"6f4320d7","closeAuction(uint256)":"236ed8f3","commitBid(uint256,bytes32)":"9468cb61","failoverRoute(uint256,address)":"268968e5","flashloanProviders(uint256)":"58ad27bf","openAuction(uint256)":"1edc8f91","owner()":"8da5cb5b","paymaster()":"16e4cbf9","resolveIntent(uint256,address,bytes)":"4c25f931","revealBid(uint256,uint256,bytes32)":"4d380a0d","sealExecution(uint256)":"affcdf4b","settleAuction(uint256,address[])":"97ae02af","submitIntent(uint256,bytes)":"d00d3b31","zkVerifier()":"d6df096d"},"id":1}